{
	"contracts/RegisterationContract.sol": {
		"RegistrationContract": {
			"abi": [
				{
					"inputs": [
						{
							"internalType": "address",
							"name": "_userAddress",
							"type": "address"
						}
					],
					"name": "getUser",
					"outputs": [
						{
							"components": [
								{
									"internalType": "string",
									"name": "userID",
									"type": "string"
								},
								{
									"internalType": "string",
									"name": "username",
									"type": "string"
								},
								{
									"internalType": "string",
									"name": "location",
									"type": "string"
								},
								{
									"internalType": "uint256",
									"name": "balanceEnergy",
									"type": "uint256"
								},
								{
									"internalType": "uint256",
									"name": "balanceCoins",
									"type": "uint256"
								},
								{
									"internalType": "string",
									"name": "role",
									"type": "string"
								},
								{
									"internalType": "string",
									"name": "tokenID",
									"type": "string"
								}
							],
							"internalType": "struct RegistrationContract.User",
							"name": "",
							"type": "tuple"
						}
					],
					"stateMutability": "view",
					"type": "function"
				},
				{
					"inputs": [
						{
							"internalType": "string",
							"name": "_userID",
							"type": "string"
						},
						{
							"internalType": "string",
							"name": "_username",
							"type": "string"
						},
						{
							"internalType": "string",
							"name": "_location",
							"type": "string"
						},
						{
							"internalType": "uint256",
							"name": "_balanceEnergy",
							"type": "uint256"
						},
						{
							"internalType": "uint256",
							"name": "_balanceCoins",
							"type": "uint256"
						},
						{
							"internalType": "string",
							"name": "_role",
							"type": "string"
						},
						{
							"internalType": "string",
							"name": "_tokenID",
							"type": "string"
						}
					],
					"name": "registerUser",
					"outputs": [],
					"stateMutability": "nonpayable",
					"type": "function"
				},
				{
					"inputs": [
						{
							"internalType": "address",
							"name": "",
							"type": "address"
						}
					],
					"name": "users",
					"outputs": [
						{
							"internalType": "string",
							"name": "userID",
							"type": "string"
						},
						{
							"internalType": "string",
							"name": "username",
							"type": "string"
						},
						{
							"internalType": "string",
							"name": "location",
							"type": "string"
						},
						{
							"internalType": "uint256",
							"name": "balanceEnergy",
							"type": "uint256"
						},
						{
							"internalType": "uint256",
							"name": "balanceCoins",
							"type": "uint256"
						},
						{
							"internalType": "string",
							"name": "role",
							"type": "string"
						},
						{
							"internalType": "string",
							"name": "tokenID",
							"type": "string"
						}
					],
					"stateMutability": "view",
					"type": "function"
				}
			],
			"devdoc": {
				"kind": "dev",
				"methods": {},
				"version": 1
			},
			"evm": {
				"assembly": "    /* \"contracts/RegisterationContract.sol\":59:1784  contract RegistrationContract {... */\n  mstore(0x40, 0x80)\n  callvalue\n  dup1\n  iszero\n  tag_1\n  jumpi\n  0x00\n  dup1\n  revert\ntag_1:\n  pop\n  dataSize(sub_0)\n  dup1\n  dataOffset(sub_0)\n  0x00\n  codecopy\n  0x00\n  return\nstop\n\nsub_0: assembly {\n        /* \"contracts/RegisterationContract.sol\":59:1784  contract RegistrationContract {... */\n      mstore(0x40, 0x80)\n      callvalue\n      dup1\n      iszero\n      tag_1\n      jumpi\n      0x00\n      dup1\n      revert\n    tag_1:\n      pop\n      jumpi(tag_2, lt(calldatasize, 0x04))\n      shr(0xe0, calldataload(0x00))\n      dup1\n      0x03bf1bcc\n      eq\n      tag_3\n      jumpi\n      dup1\n      0x6f77926b\n      eq\n      tag_4\n      jumpi\n      dup1\n      0xa87430ba\n      eq\n      tag_5\n      jumpi\n    tag_2:\n      0x00\n      dup1\n      revert\n        /* \"contracts/RegisterationContract.sol\":730:1563  function registerUser(... */\n    tag_3:\n      tag_6\n      0x04\n      dup1\n      calldatasize\n      sub\n      dup2\n      add\n      swap1\n      tag_7\n      swap2\n      swap1\n      tag_8\n      jump\t// in\n    tag_7:\n      tag_9\n      jump\t// in\n    tag_6:\n      stop\n        /* \"contracts/RegisterationContract.sol\":1666:1782  function getUser(address _userAddress) public view returns (User memory) {... */\n    tag_4:\n      tag_10\n      0x04\n      dup1\n      calldatasize\n      sub\n      dup2\n      add\n      swap1\n      tag_11\n      swap2\n      swap1\n      tag_12\n      jump\t// in\n    tag_11:\n      tag_13\n      jump\t// in\n    tag_10:\n      mload(0x40)\n      tag_14\n      swap2\n      swap1\n      tag_15\n      jump\t// in\n    tag_14:\n      mload(0x40)\n      dup1\n      swap2\n      sub\n      swap1\n      return\n        /* \"contracts/RegisterationContract.sol\":651:688  mapping(address => User) public users */\n    tag_5:\n      tag_16\n      0x04\n      dup1\n      calldatasize\n      sub\n      dup2\n      add\n      swap1\n      tag_17\n      swap2\n      swap1\n      tag_12\n      jump\t// in\n    tag_17:\n      tag_18\n      jump\t// in\n    tag_16:\n      mload(0x40)\n      tag_19\n      swap8\n      swap7\n      swap6\n      swap5\n      swap4\n      swap3\n      swap2\n      swap1\n      tag_20\n      jump\t// in\n    tag_19:\n      mload(0x40)\n      dup1\n      swap2\n      sub\n      swap1\n      return\n        /* \"contracts/RegisterationContract.sol\":730:1563  function registerUser(... */\n    tag_9:\n        /* \"contracts/RegisterationContract.sol\":1105:1118  keccak256(\"\") */\n      0xc5d2460186f7233c927e7db2dcc703c0e500b653ca82273b7bfad8045d85a470\n        /* \"contracts/RegisterationContract.sol\":1073:1078  users */\n      0x00\n        /* \"contracts/RegisterationContract.sol\":1073:1090  users[msg.sender] */\n      dup1\n        /* \"contracts/RegisterationContract.sol\":1079:1089  msg.sender */\n      caller\n        /* \"contracts/RegisterationContract.sol\":1073:1090  users[msg.sender] */\n      0xffffffffffffffffffffffffffffffffffffffff\n      and\n      0xffffffffffffffffffffffffffffffffffffffff\n      and\n      dup2\n      mstore\n      0x20\n      add\n      swap1\n      dup2\n      mstore\n      0x20\n      add\n      0x00\n      keccak256\n        /* \"contracts/RegisterationContract.sol\":1073:1099  users[msg.sender].username */\n      0x01\n      add\n        /* \"contracts/RegisterationContract.sol\":1057:1101  keccak256(bytes(users[msg.sender].username)) */\n      mload(0x40)\n      tag_22\n      swap2\n      swap1\n      tag_23\n      jump\t// in\n    tag_22:\n      mload(0x40)\n      dup1\n      swap2\n      sub\n      swap1\n      keccak256\n        /* \"contracts/RegisterationContract.sol\":1057:1118  keccak256(bytes(users[msg.sender].username)) == keccak256(\"\") */\n      eq\n        /* \"contracts/RegisterationContract.sol\":1049:1146  require(keccak256(bytes(users[msg.sender].username)) == keccak256(\"\"), \"User already registered\") */\n      tag_24\n      jumpi\n      mload(0x40)\n      0x08c379a000000000000000000000000000000000000000000000000000000000\n      dup2\n      mstore\n      0x04\n      add\n      tag_25\n      swap1\n      tag_26\n      jump\t// in\n    tag_25:\n      mload(0x40)\n      dup1\n      swap2\n      sub\n      swap1\n      revert\n    tag_24:\n        /* \"contracts/RegisterationContract.sol\":1214:1465  User({... */\n      mload(0x40)\n      dup1\n      0xe0\n      add\n      0x40\n      mstore\n      dup1\n        /* \"contracts/RegisterationContract.sol\":1241:1248  _userID */\n      dup9\n        /* \"contracts/RegisterationContract.sol\":1214:1465  User({... */\n      dup2\n      mstore\n      0x20\n      add\n        /* \"contracts/RegisterationContract.sol\":1272:1281  _username */\n      dup8\n        /* \"contracts/RegisterationContract.sol\":1214:1465  User({... */\n      dup2\n      mstore\n      0x20\n      add\n        /* \"contracts/RegisterationContract.sol\":1305:1314  _location */\n      dup7\n        /* \"contracts/RegisterationContract.sol\":1214:1465  User({... */\n      dup2\n      mstore\n      0x20\n      add\n        /* \"contracts/RegisterationContract.sol\":1343:1357  _balanceEnergy */\n      dup6\n        /* \"contracts/RegisterationContract.sol\":1214:1465  User({... */\n      dup2\n      mstore\n      0x20\n      add\n        /* \"contracts/RegisterationContract.sol\":1385:1398  _balanceCoins */\n      dup5\n        /* \"contracts/RegisterationContract.sol\":1214:1465  User({... */\n      dup2\n      mstore\n      0x20\n      add\n        /* \"contracts/RegisterationContract.sol\":1418:1423  _role */\n      dup4\n        /* \"contracts/RegisterationContract.sol\":1214:1465  User({... */\n      dup2\n      mstore\n      0x20\n      add\n        /* \"contracts/RegisterationContract.sol\":1446:1454  _tokenID */\n      dup3\n        /* \"contracts/RegisterationContract.sol\":1214:1465  User({... */\n      dup2\n      mstore\n      pop\n        /* \"contracts/RegisterationContract.sol\":1194:1199  users */\n      0x00\n        /* \"contracts/RegisterationContract.sol\":1194:1211  users[msg.sender] */\n      dup1\n        /* \"contracts/RegisterationContract.sol\":1200:1210  msg.sender */\n      caller\n        /* \"contracts/RegisterationContract.sol\":1194:1211  users[msg.sender] */\n      0xffffffffffffffffffffffffffffffffffffffff\n      and\n      0xffffffffffffffffffffffffffffffffffffffff\n      and\n      dup2\n      mstore\n      0x20\n      add\n      swap1\n      dup2\n      mstore\n      0x20\n      add\n      0x00\n      keccak256\n        /* \"contracts/RegisterationContract.sol\":1194:1465  users[msg.sender] = User({... */\n      0x00\n      dup3\n      add\n      mload\n      dup2\n      0x00\n      add\n      swap1\n      dup2\n      tag_27\n      swap2\n      swap1\n      tag_28\n      jump\t// in\n    tag_27:\n      pop\n      0x20\n      dup3\n      add\n      mload\n      dup2\n      0x01\n      add\n      swap1\n      dup2\n      tag_29\n      swap2\n      swap1\n      tag_28\n      jump\t// in\n    tag_29:\n      pop\n      0x40\n      dup3\n      add\n      mload\n      dup2\n      0x02\n      add\n      swap1\n      dup2\n      tag_30\n      swap2\n      swap1\n      tag_28\n      jump\t// in\n    tag_30:\n      pop\n      0x60\n      dup3\n      add\n      mload\n      dup2\n      0x03\n      add\n      sstore\n      0x80\n      dup3\n      add\n      mload\n      dup2\n      0x04\n      add\n      sstore\n      0xa0\n      dup3\n      add\n      mload\n      dup2\n      0x05\n      add\n      swap1\n      dup2\n      tag_31\n      swap2\n      swap1\n      tag_28\n      jump\t// in\n    tag_31:\n      pop\n      0xc0\n      dup3\n      add\n      mload\n      dup2\n      0x06\n      add\n      swap1\n      dup2\n      tag_32\n      swap2\n      swap1\n      tag_28\n      jump\t// in\n    tag_32:\n      pop\n      swap1\n      pop\n      pop\n        /* \"contracts/RegisterationContract.sol\":730:1563  function registerUser(... */\n      pop\n      pop\n      pop\n      pop\n      pop\n      pop\n      pop\n      jump\t// out\n        /* \"contracts/RegisterationContract.sol\":1666:1782  function getUser(address _userAddress) public view returns (User memory) {... */\n    tag_13:\n        /* \"contracts/RegisterationContract.sol\":1726:1737  User memory */\n      tag_33\n      tag_34\n      jump\t// in\n    tag_33:\n        /* \"contracts/RegisterationContract.sol\":1756:1761  users */\n      0x00\n        /* \"contracts/RegisterationContract.sol\":1756:1775  users[_userAddress] */\n      dup1\n        /* \"contracts/RegisterationContract.sol\":1762:1774  _userAddress */\n      dup4\n        /* \"contracts/RegisterationContract.sol\":1756:1775  users[_userAddress] */\n      0xffffffffffffffffffffffffffffffffffffffff\n      and\n      0xffffffffffffffffffffffffffffffffffffffff\n      and\n      dup2\n      mstore\n      0x20\n      add\n      swap1\n      dup2\n      mstore\n      0x20\n      add\n      0x00\n      keccak256\n        /* \"contracts/RegisterationContract.sol\":1749:1775  return users[_userAddress] */\n      mload(0x40)\n      dup1\n      0xe0\n      add\n      0x40\n      mstore\n      swap1\n      dup2\n      0x00\n      dup3\n      add\n      dup1\n      sload\n      tag_36\n      swap1\n      tag_37\n      jump\t// in\n    tag_36:\n      dup1\n      0x1f\n      add\n      0x20\n      dup1\n      swap2\n      div\n      mul\n      0x20\n      add\n      mload(0x40)\n      swap1\n      dup2\n      add\n      0x40\n      mstore\n      dup1\n      swap3\n      swap2\n      swap1\n      dup2\n      dup2\n      mstore\n      0x20\n      add\n      dup3\n      dup1\n      sload\n      tag_38\n      swap1\n      tag_37\n      jump\t// in\n    tag_38:\n      dup1\n      iszero\n      tag_39\n      jumpi\n      dup1\n      0x1f\n      lt\n      tag_40\n      jumpi\n      0x0100\n      dup1\n      dup4\n      sload\n      div\n      mul\n      dup4\n      mstore\n      swap2\n      0x20\n      add\n      swap2\n      jump(tag_39)\n    tag_40:\n      dup3\n      add\n      swap2\n      swap1\n      0x00\n      mstore\n      keccak256(0x00, 0x20)\n      swap1\n    tag_41:\n      dup2\n      sload\n      dup2\n      mstore\n      swap1\n      0x01\n      add\n      swap1\n      0x20\n      add\n      dup1\n      dup4\n      gt\n      tag_41\n      jumpi\n      dup3\n      swap1\n      sub\n      0x1f\n      and\n      dup3\n      add\n      swap2\n    tag_39:\n      pop\n      pop\n      pop\n      pop\n      pop\n      dup2\n      mstore\n      0x20\n      add\n      0x01\n      dup3\n      add\n      dup1\n      sload\n      tag_42\n      swap1\n      tag_37\n      jump\t// in\n    tag_42:\n      dup1\n      0x1f\n      add\n      0x20\n      dup1\n      swap2\n      div\n      mul\n      0x20\n      add\n      mload(0x40)\n      swap1\n      dup2\n      add\n      0x40\n      mstore\n      dup1\n      swap3\n      swap2\n      swap1\n      dup2\n      dup2\n      mstore\n      0x20\n      add\n      dup3\n      dup1\n      sload\n      tag_43\n      swap1\n      tag_37\n      jump\t// in\n    tag_43:\n      dup1\n      iszero\n      tag_44\n      jumpi\n      dup1\n      0x1f\n      lt\n      tag_45\n      jumpi\n      0x0100\n      dup1\n      dup4\n      sload\n      div\n      mul\n      dup4\n      mstore\n      swap2\n      0x20\n      add\n      swap2\n      jump(tag_44)\n    tag_45:\n      dup3\n      add\n      swap2\n      swap1\n      0x00\n      mstore\n      keccak256(0x00, 0x20)\n      swap1\n    tag_46:\n      dup2\n      sload\n      dup2\n      mstore\n      swap1\n      0x01\n      add\n      swap1\n      0x20\n      add\n      dup1\n      dup4\n      gt\n      tag_46\n      jumpi\n      dup3\n      swap1\n      sub\n      0x1f\n      and\n      dup3\n      add\n      swap2\n    tag_44:\n      pop\n      pop\n      pop\n      pop\n      pop\n      dup2\n      mstore\n      0x20\n      add\n      0x02\n      dup3\n      add\n      dup1\n      sload\n      tag_47\n      swap1\n      tag_37\n      jump\t// in\n    tag_47:\n      dup1\n      0x1f\n      add\n      0x20\n      dup1\n      swap2\n      div\n      mul\n      0x20\n      add\n      mload(0x40)\n      swap1\n      dup2\n      add\n      0x40\n      mstore\n      dup1\n      swap3\n      swap2\n      swap1\n      dup2\n      dup2\n      mstore\n      0x20\n      add\n      dup3\n      dup1\n      sload\n      tag_48\n      swap1\n      tag_37\n      jump\t// in\n    tag_48:\n      dup1\n      iszero\n      tag_49\n      jumpi\n      dup1\n      0x1f\n      lt\n      tag_50\n      jumpi\n      0x0100\n      dup1\n      dup4\n      sload\n      div\n      mul\n      dup4\n      mstore\n      swap2\n      0x20\n      add\n      swap2\n      jump(tag_49)\n    tag_50:\n      dup3\n      add\n      swap2\n      swap1\n      0x00\n      mstore\n      keccak256(0x00, 0x20)\n      swap1\n    tag_51:\n      dup2\n      sload\n      dup2\n      mstore\n      swap1\n      0x01\n      add\n      swap1\n      0x20\n      add\n      dup1\n      dup4\n      gt\n      tag_51\n      jumpi\n      dup3\n      swap1\n      sub\n      0x1f\n      and\n      dup3\n      add\n      swap2\n    tag_49:\n      pop\n      pop\n      pop\n      pop\n      pop\n      dup2\n      mstore\n      0x20\n      add\n      0x03\n      dup3\n      add\n      sload\n      dup2\n      mstore\n      0x20\n      add\n      0x04\n      dup3\n      add\n      sload\n      dup2\n      mstore\n      0x20\n      add\n      0x05\n      dup3\n      add\n      dup1\n      sload\n      tag_52\n      swap1\n      tag_37\n      jump\t// in\n    tag_52:\n      dup1\n      0x1f\n      add\n      0x20\n      dup1\n      swap2\n      div\n      mul\n      0x20\n      add\n      mload(0x40)\n      swap1\n      dup2\n      add\n      0x40\n      mstore\n      dup1\n      swap3\n      swap2\n      swap1\n      dup2\n      dup2\n      mstore\n      0x20\n      add\n      dup3\n      dup1\n      sload\n      tag_53\n      swap1\n      tag_37\n      jump\t// in\n    tag_53:\n      dup1\n      iszero\n      tag_54\n      jumpi\n      dup1\n      0x1f\n      lt\n      tag_55\n      jumpi\n      0x0100\n      dup1\n      dup4\n      sload\n      div\n      mul\n      dup4\n      mstore\n      swap2\n      0x20\n      add\n      swap2\n      jump(tag_54)\n    tag_55:\n      dup3\n      add\n      swap2\n      swap1\n      0x00\n      mstore\n      keccak256(0x00, 0x20)\n      swap1\n    tag_56:\n      dup2\n      sload\n      dup2\n      mstore\n      swap1\n      0x01\n      add\n      swap1\n      0x20\n      add\n      dup1\n      dup4\n      gt\n      tag_56\n      jumpi\n      dup3\n      swap1\n      sub\n      0x1f\n      and\n      dup3\n      add\n      swap2\n    tag_54:\n      pop\n      pop\n      pop\n      pop\n      pop\n      dup2\n      mstore\n      0x20\n      add\n      0x06\n      dup3\n      add\n      dup1\n      sload\n      tag_57\n      swap1\n      tag_37\n      jump\t// in\n    tag_57:\n      dup1\n      0x1f\n      add\n      0x20\n      dup1\n      swap2\n      div\n      mul\n      0x20\n      add\n      mload(0x40)\n      swap1\n      dup2\n      add\n      0x40\n      mstore\n      dup1\n      swap3\n      swap2\n      swap1\n      dup2\n      dup2\n      mstore\n      0x20\n      add\n      dup3\n      dup1\n      sload\n      tag_58\n      swap1\n      tag_37\n      jump\t// in\n    tag_58:\n      dup1\n      iszero\n      tag_59\n      jumpi\n      dup1\n      0x1f\n      lt\n      tag_60\n      jumpi\n      0x0100\n      dup1\n      dup4\n      sload\n      div\n      mul\n      dup4\n      mstore\n      swap2\n      0x20\n      add\n      swap2\n      jump(tag_59)\n    tag_60:\n      dup3\n      add\n      swap2\n      swap1\n      0x00\n      mstore\n      keccak256(0x00, 0x20)\n      swap1\n    tag_61:\n      dup2\n      sload\n      dup2\n      mstore\n      swap1\n      0x01\n      add\n      swap1\n      0x20\n      add\n      dup1\n      dup4\n      gt\n      tag_61\n      jumpi\n      dup3\n      swap1\n      sub\n      0x1f\n      and\n      dup3\n      add\n      swap2\n    tag_59:\n      pop\n      pop\n      pop\n      pop\n      pop\n      dup2\n      mstore\n      pop\n      pop\n      swap1\n      pop\n        /* \"contracts/RegisterationContract.sol\":1666:1782  function getUser(address _userAddress) public view returns (User memory) {... */\n      swap2\n      swap1\n      pop\n      jump\t// out\n        /* \"contracts/RegisterationContract.sol\":651:688  mapping(address => User) public users */\n    tag_18:\n      mstore(0x20, 0x00)\n      dup1\n      0x00\n      mstore\n      keccak256(0x00, 0x40)\n      0x00\n      swap2\n      pop\n      swap1\n      pop\n      dup1\n      0x00\n      add\n      dup1\n      sload\n      tag_62\n      swap1\n      tag_37\n      jump\t// in\n    tag_62:\n      dup1\n      0x1f\n      add\n      0x20\n      dup1\n      swap2\n      div\n      mul\n      0x20\n      add\n      mload(0x40)\n      swap1\n      dup2\n      add\n      0x40\n      mstore\n      dup1\n      swap3\n      swap2\n      swap1\n      dup2\n      dup2\n      mstore\n      0x20\n      add\n      dup3\n      dup1\n      sload\n      tag_63\n      swap1\n      tag_37\n      jump\t// in\n    tag_63:\n      dup1\n      iszero\n      tag_64\n      jumpi\n      dup1\n      0x1f\n      lt\n      tag_65\n      jumpi\n      0x0100\n      dup1\n      dup4\n      sload\n      div\n      mul\n      dup4\n      mstore\n      swap2\n      0x20\n      add\n      swap2\n      jump(tag_64)\n    tag_65:\n      dup3\n      add\n      swap2\n      swap1\n      0x00\n      mstore\n      keccak256(0x00, 0x20)\n      swap1\n    tag_66:\n      dup2\n      sload\n      dup2\n      mstore\n      swap1\n      0x01\n      add\n      swap1\n      0x20\n      add\n      dup1\n      dup4\n      gt\n      tag_66\n      jumpi\n      dup3\n      swap1\n      sub\n      0x1f\n      and\n      dup3\n      add\n      swap2\n    tag_64:\n      pop\n      pop\n      pop\n      pop\n      pop\n      swap1\n      dup1\n      0x01\n      add\n      dup1\n      sload\n      tag_67\n      swap1\n      tag_37\n      jump\t// in\n    tag_67:\n      dup1\n      0x1f\n      add\n      0x20\n      dup1\n      swap2\n      div\n      mul\n      0x20\n      add\n      mload(0x40)\n      swap1\n      dup2\n      add\n      0x40\n      mstore\n      dup1\n      swap3\n      swap2\n      swap1\n      dup2\n      dup2\n      mstore\n      0x20\n      add\n      dup3\n      dup1\n      sload\n      tag_68\n      swap1\n      tag_37\n      jump\t// in\n    tag_68:\n      dup1\n      iszero\n      tag_69\n      jumpi\n      dup1\n      0x1f\n      lt\n      tag_70\n      jumpi\n      0x0100\n      dup1\n      dup4\n      sload\n      div\n      mul\n      dup4\n      mstore\n      swap2\n      0x20\n      add\n      swap2\n      jump(tag_69)\n    tag_70:\n      dup3\n      add\n      swap2\n      swap1\n      0x00\n      mstore\n      keccak256(0x00, 0x20)\n      swap1\n    tag_71:\n      dup2\n      sload\n      dup2\n      mstore\n      swap1\n      0x01\n      add\n      swap1\n      0x20\n      add\n      dup1\n      dup4\n      gt\n      tag_71\n      jumpi\n      dup3\n      swap1\n      sub\n      0x1f\n      and\n      dup3\n      add\n      swap2\n    tag_69:\n      pop\n      pop\n      pop\n      pop\n      pop\n      swap1\n      dup1\n      0x02\n      add\n      dup1\n      sload\n      tag_72\n      swap1\n      tag_37\n      jump\t// in\n    tag_72:\n      dup1\n      0x1f\n      add\n      0x20\n      dup1\n      swap2\n      div\n      mul\n      0x20\n      add\n      mload(0x40)\n      swap1\n      dup2\n      add\n      0x40\n      mstore\n      dup1\n      swap3\n      swap2\n      swap1\n      dup2\n      dup2\n      mstore\n      0x20\n      add\n      dup3\n      dup1\n      sload\n      tag_73\n      swap1\n      tag_37\n      jump\t// in\n    tag_73:\n      dup1\n      iszero\n      tag_74\n      jumpi\n      dup1\n      0x1f\n      lt\n      tag_75\n      jumpi\n      0x0100\n      dup1\n      dup4\n      sload\n      div\n      mul\n      dup4\n      mstore\n      swap2\n      0x20\n      add\n      swap2\n      jump(tag_74)\n    tag_75:\n      dup3\n      add\n      swap2\n      swap1\n      0x00\n      mstore\n      keccak256(0x00, 0x20)\n      swap1\n    tag_76:\n      dup2\n      sload\n      dup2\n      mstore\n      swap1\n      0x01\n      add\n      swap1\n      0x20\n      add\n      dup1\n      dup4\n      gt\n      tag_76\n      jumpi\n      dup3\n      swap1\n      sub\n      0x1f\n      and\n      dup3\n      add\n      swap2\n    tag_74:\n      pop\n      pop\n      pop\n      pop\n      pop\n      swap1\n      dup1\n      0x03\n      add\n      sload\n      swap1\n      dup1\n      0x04\n      add\n      sload\n      swap1\n      dup1\n      0x05\n      add\n      dup1\n      sload\n      tag_77\n      swap1\n      tag_37\n      jump\t// in\n    tag_77:\n      dup1\n      0x1f\n      add\n      0x20\n      dup1\n      swap2\n      div\n      mul\n      0x20\n      add\n      mload(0x40)\n      swap1\n      dup2\n      add\n      0x40\n      mstore\n      dup1\n      swap3\n      swap2\n      swap1\n      dup2\n      dup2\n      mstore\n      0x20\n      add\n      dup3\n      dup1\n      sload\n      tag_78\n      swap1\n      tag_37\n      jump\t// in\n    tag_78:\n      dup1\n      iszero\n      tag_79\n      jumpi\n      dup1\n      0x1f\n      lt\n      tag_80\n      jumpi\n      0x0100\n      dup1\n      dup4\n      sload\n      div\n      mul\n      dup4\n      mstore\n      swap2\n      0x20\n      add\n      swap2\n      jump(tag_79)\n    tag_80:\n      dup3\n      add\n      swap2\n      swap1\n      0x00\n      mstore\n      keccak256(0x00, 0x20)\n      swap1\n    tag_81:\n      dup2\n      sload\n      dup2\n      mstore\n      swap1\n      0x01\n      add\n      swap1\n      0x20\n      add\n      dup1\n      dup4\n      gt\n      tag_81\n      jumpi\n      dup3\n      swap1\n      sub\n      0x1f\n      and\n      dup3\n      add\n      swap2\n    tag_79:\n      pop\n      pop\n      pop\n      pop\n      pop\n      swap1\n      dup1\n      0x06\n      add\n      dup1\n      sload\n      tag_82\n      swap1\n      tag_37\n      jump\t// in\n    tag_82:\n      dup1\n      0x1f\n      add\n      0x20\n      dup1\n      swap2\n      div\n      mul\n      0x20\n      add\n      mload(0x40)\n      swap1\n      dup2\n      add\n      0x40\n      mstore\n      dup1\n      swap3\n      swap2\n      swap1\n      dup2\n      dup2\n      mstore\n      0x20\n      add\n      dup3\n      dup1\n      sload\n      tag_83\n      swap1\n      tag_37\n      jump\t// in\n    tag_83:\n      dup1\n      iszero\n      tag_84\n      jumpi\n      dup1\n      0x1f\n      lt\n      tag_85\n      jumpi\n      0x0100\n      dup1\n      dup4\n      sload\n      div\n      mul\n      dup4\n      mstore\n      swap2\n      0x20\n      add\n      swap2\n      jump(tag_84)\n    tag_85:\n      dup3\n      add\n      swap2\n      swap1\n      0x00\n      mstore\n      keccak256(0x00, 0x20)\n      swap1\n    tag_86:\n      dup2\n      sload\n      dup2\n      mstore\n      swap1\n      0x01\n      add\n      swap1\n      0x20\n      add\n      dup1\n      dup4\n      gt\n      tag_86\n      jumpi\n      dup3\n      swap1\n      sub\n      0x1f\n      and\n      dup3\n      add\n      swap2\n    tag_84:\n      pop\n      pop\n      pop\n      pop\n      pop\n      swap1\n      pop\n      dup8\n      jump\t// out\n    tag_34:\n      mload(0x40)\n      dup1\n      0xe0\n      add\n      0x40\n      mstore\n      dup1\n      0x60\n      dup2\n      mstore\n      0x20\n      add\n      0x60\n      dup2\n      mstore\n      0x20\n      add\n      0x60\n      dup2\n      mstore\n      0x20\n      add\n      0x00\n      dup2\n      mstore\n      0x20\n      add\n      0x00\n      dup2\n      mstore\n      0x20\n      add\n      0x60\n      dup2\n      mstore\n      0x20\n      add\n      0x60\n      dup2\n      mstore\n      pop\n      swap1\n      jump\t// out\n        /* \"#utility.yul\":7:82   */\n    tag_87:\n        /* \"#utility.yul\":40:46   */\n      0x00\n        /* \"#utility.yul\":73:75   */\n      0x40\n        /* \"#utility.yul\":67:76   */\n      mload\n        /* \"#utility.yul\":57:76   */\n      swap1\n      pop\n        /* \"#utility.yul\":7:82   */\n      swap1\n      jump\t// out\n        /* \"#utility.yul\":88:205   */\n    tag_88:\n        /* \"#utility.yul\":197:198   */\n      0x00\n        /* \"#utility.yul\":194:195   */\n      dup1\n        /* \"#utility.yul\":187:199   */\n      revert\n        /* \"#utility.yul\":211:328   */\n    tag_89:\n        /* \"#utility.yul\":320:321   */\n      0x00\n        /* \"#utility.yul\":317:318   */\n      dup1\n        /* \"#utility.yul\":310:322   */\n      revert\n        /* \"#utility.yul\":334:451   */\n    tag_90:\n        /* \"#utility.yul\":443:444   */\n      0x00\n        /* \"#utility.yul\":440:441   */\n      dup1\n        /* \"#utility.yul\":433:445   */\n      revert\n        /* \"#utility.yul\":457:574   */\n    tag_91:\n        /* \"#utility.yul\":566:567   */\n      0x00\n        /* \"#utility.yul\":563:564   */\n      dup1\n        /* \"#utility.yul\":556:568   */\n      revert\n        /* \"#utility.yul\":580:682   */\n    tag_92:\n        /* \"#utility.yul\":621:627   */\n      0x00\n        /* \"#utility.yul\":672:674   */\n      0x1f\n        /* \"#utility.yul\":668:675   */\n      not\n        /* \"#utility.yul\":663:665   */\n      0x1f\n        /* \"#utility.yul\":656:661   */\n      dup4\n        /* \"#utility.yul\":652:666   */\n      add\n        /* \"#utility.yul\":648:676   */\n      and\n        /* \"#utility.yul\":638:676   */\n      swap1\n      pop\n        /* \"#utility.yul\":580:682   */\n      swap2\n      swap1\n      pop\n      jump\t// out\n        /* \"#utility.yul\":688:868   */\n    tag_93:\n        /* \"#utility.yul\":736:813   */\n      0x4e487b7100000000000000000000000000000000000000000000000000000000\n        /* \"#utility.yul\":733:734   */\n      0x00\n        /* \"#utility.yul\":726:814   */\n      mstore\n        /* \"#utility.yul\":833:837   */\n      0x41\n        /* \"#utility.yul\":830:831   */\n      0x04\n        /* \"#utility.yul\":823:838   */\n      mstore\n        /* \"#utility.yul\":857:861   */\n      0x24\n        /* \"#utility.yul\":854:855   */\n      0x00\n        /* \"#utility.yul\":847:862   */\n      revert\n        /* \"#utility.yul\":874:1155   */\n    tag_94:\n        /* \"#utility.yul\":957:984   */\n      tag_146\n        /* \"#utility.yul\":979:983   */\n      dup3\n        /* \"#utility.yul\":957:984   */\n      tag_92\n      jump\t// in\n    tag_146:\n        /* \"#utility.yul\":949:955   */\n      dup2\n        /* \"#utility.yul\":945:985   */\n      add\n        /* \"#utility.yul\":1087:1093   */\n      dup2\n        /* \"#utility.yul\":1075:1085   */\n      dup2\n        /* \"#utility.yul\":1072:1094   */\n      lt\n        /* \"#utility.yul\":1051:1069   */\n      0xffffffffffffffff\n        /* \"#utility.yul\":1039:1049   */\n      dup3\n        /* \"#utility.yul\":1036:1070   */\n      gt\n        /* \"#utility.yul\":1033:1095   */\n      or\n        /* \"#utility.yul\":1030:1118   */\n      iszero\n      tag_147\n      jumpi\n        /* \"#utility.yul\":1098:1116   */\n      tag_148\n      tag_93\n      jump\t// in\n    tag_148:\n        /* \"#utility.yul\":1030:1118   */\n    tag_147:\n        /* \"#utility.yul\":1138:1148   */\n      dup1\n        /* \"#utility.yul\":1134:1136   */\n      0x40\n        /* \"#utility.yul\":1127:1149   */\n      mstore\n        /* \"#utility.yul\":917:1155   */\n      pop\n        /* \"#utility.yul\":874:1155   */\n      pop\n      pop\n      jump\t// out\n        /* \"#utility.yul\":1161:1290   */\n    tag_95:\n        /* \"#utility.yul\":1195:1201   */\n      0x00\n        /* \"#utility.yul\":1222:1242   */\n      tag_150\n      tag_87\n      jump\t// in\n    tag_150:\n        /* \"#utility.yul\":1212:1242   */\n      swap1\n      pop\n        /* \"#utility.yul\":1251:1284   */\n      tag_151\n        /* \"#utility.yul\":1279:1283   */\n      dup3\n        /* \"#utility.yul\":1271:1277   */\n      dup3\n        /* \"#utility.yul\":1251:1284   */\n      tag_94\n      jump\t// in\n    tag_151:\n        /* \"#utility.yul\":1161:1290   */\n      swap2\n      swap1\n      pop\n      jump\t// out\n        /* \"#utility.yul\":1296:1604   */\n    tag_96:\n        /* \"#utility.yul\":1358:1362   */\n      0x00\n        /* \"#utility.yul\":1448:1466   */\n      0xffffffffffffffff\n        /* \"#utility.yul\":1440:1446   */\n      dup3\n        /* \"#utility.yul\":1437:1467   */\n      gt\n        /* \"#utility.yul\":1434:1490   */\n      iszero\n      tag_153\n      jumpi\n        /* \"#utility.yul\":1470:1488   */\n      tag_154\n      tag_93\n      jump\t// in\n    tag_154:\n        /* \"#utility.yul\":1434:1490   */\n    tag_153:\n        /* \"#utility.yul\":1508:1537   */\n      tag_155\n        /* \"#utility.yul\":1530:1536   */\n      dup3\n        /* \"#utility.yul\":1508:1537   */\n      tag_92\n      jump\t// in\n    tag_155:\n        /* \"#utility.yul\":1500:1537   */\n      swap1\n      pop\n        /* \"#utility.yul\":1592:1596   */\n      0x20\n        /* \"#utility.yul\":1586:1590   */\n      dup2\n        /* \"#utility.yul\":1582:1597   */\n      add\n        /* \"#utility.yul\":1574:1597   */\n      swap1\n      pop\n        /* \"#utility.yul\":1296:1604   */\n      swap2\n      swap1\n      pop\n      jump\t// out\n        /* \"#utility.yul\":1610:1756   */\n    tag_97:\n        /* \"#utility.yul\":1707:1713   */\n      dup3\n        /* \"#utility.yul\":1702:1705   */\n      dup2\n        /* \"#utility.yul\":1697:1700   */\n      dup4\n        /* \"#utility.yul\":1684:1714   */\n      calldatacopy\n        /* \"#utility.yul\":1748:1749   */\n      0x00\n        /* \"#utility.yul\":1739:1745   */\n      dup4\n        /* \"#utility.yul\":1734:1737   */\n      dup4\n        /* \"#utility.yul\":1730:1746   */\n      add\n        /* \"#utility.yul\":1723:1750   */\n      mstore\n        /* \"#utility.yul\":1610:1756   */\n      pop\n      pop\n      pop\n      jump\t// out\n        /* \"#utility.yul\":1762:2187   */\n    tag_98:\n        /* \"#utility.yul\":1840:1845   */\n      0x00\n        /* \"#utility.yul\":1865:1931   */\n      tag_158\n        /* \"#utility.yul\":1881:1930   */\n      tag_159\n        /* \"#utility.yul\":1923:1929   */\n      dup5\n        /* \"#utility.yul\":1881:1930   */\n      tag_96\n      jump\t// in\n    tag_159:\n        /* \"#utility.yul\":1865:1931   */\n      tag_95\n      jump\t// in\n    tag_158:\n        /* \"#utility.yul\":1856:1931   */\n      swap1\n      pop\n        /* \"#utility.yul\":1954:1960   */\n      dup3\n        /* \"#utility.yul\":1947:1952   */\n      dup2\n        /* \"#utility.yul\":1940:1961   */\n      mstore\n        /* \"#utility.yul\":1992:1996   */\n      0x20\n        /* \"#utility.yul\":1985:1990   */\n      dup2\n        /* \"#utility.yul\":1981:1997   */\n      add\n        /* \"#utility.yul\":2030:2033   */\n      dup5\n        /* \"#utility.yul\":2021:2027   */\n      dup5\n        /* \"#utility.yul\":2016:2019   */\n      dup5\n        /* \"#utility.yul\":2012:2028   */\n      add\n        /* \"#utility.yul\":2009:2034   */\n      gt\n        /* \"#utility.yul\":2006:2118   */\n      iszero\n      tag_160\n      jumpi\n        /* \"#utility.yul\":2037:2116   */\n      tag_161\n      tag_91\n      jump\t// in\n    tag_161:\n        /* \"#utility.yul\":2006:2118   */\n    tag_160:\n        /* \"#utility.yul\":2127:2181   */\n      tag_162\n        /* \"#utility.yul\":2174:2180   */\n      dup5\n        /* \"#utility.yul\":2169:2172   */\n      dup3\n        /* \"#utility.yul\":2164:2167   */\n      dup6\n        /* \"#utility.yul\":2127:2181   */\n      tag_97\n      jump\t// in\n    tag_162:\n        /* \"#utility.yul\":1846:2187   */\n      pop\n        /* \"#utility.yul\":1762:2187   */\n      swap4\n      swap3\n      pop\n      pop\n      pop\n      jump\t// out\n        /* \"#utility.yul\":2207:2547   */\n    tag_99:\n        /* \"#utility.yul\":2263:2268   */\n      0x00\n        /* \"#utility.yul\":2312:2315   */\n      dup3\n        /* \"#utility.yul\":2305:2309   */\n      0x1f\n        /* \"#utility.yul\":2297:2303   */\n      dup4\n        /* \"#utility.yul\":2293:2310   */\n      add\n        /* \"#utility.yul\":2289:2316   */\n      slt\n        /* \"#utility.yul\":2279:2401   */\n      tag_164\n      jumpi\n        /* \"#utility.yul\":2320:2399   */\n      tag_165\n      tag_90\n      jump\t// in\n    tag_165:\n        /* \"#utility.yul\":2279:2401   */\n    tag_164:\n        /* \"#utility.yul\":2437:2443   */\n      dup2\n        /* \"#utility.yul\":2424:2444   */\n      calldataload\n        /* \"#utility.yul\":2462:2541   */\n      tag_166\n        /* \"#utility.yul\":2537:2540   */\n      dup5\n        /* \"#utility.yul\":2529:2535   */\n      dup3\n        /* \"#utility.yul\":2522:2526   */\n      0x20\n        /* \"#utility.yul\":2514:2520   */\n      dup7\n        /* \"#utility.yul\":2510:2527   */\n      add\n        /* \"#utility.yul\":2462:2541   */\n      tag_98\n      jump\t// in\n    tag_166:\n        /* \"#utility.yul\":2453:2541   */\n      swap2\n      pop\n        /* \"#utility.yul\":2269:2547   */\n      pop\n        /* \"#utility.yul\":2207:2547   */\n      swap3\n      swap2\n      pop\n      pop\n      jump\t// out\n        /* \"#utility.yul\":2553:2630   */\n    tag_100:\n        /* \"#utility.yul\":2590:2597   */\n      0x00\n        /* \"#utility.yul\":2619:2624   */\n      dup2\n        /* \"#utility.yul\":2608:2624   */\n      swap1\n      pop\n        /* \"#utility.yul\":2553:2630   */\n      swap2\n      swap1\n      pop\n      jump\t// out\n        /* \"#utility.yul\":2636:2758   */\n    tag_101:\n        /* \"#utility.yul\":2709:2733   */\n      tag_169\n        /* \"#utility.yul\":2727:2732   */\n      dup2\n        /* \"#utility.yul\":2709:2733   */\n      tag_100\n      jump\t// in\n    tag_169:\n        /* \"#utility.yul\":2702:2707   */\n      dup2\n        /* \"#utility.yul\":2699:2734   */\n      eq\n        /* \"#utility.yul\":2689:2752   */\n      tag_170\n      jumpi\n        /* \"#utility.yul\":2748:2749   */\n      0x00\n        /* \"#utility.yul\":2745:2746   */\n      dup1\n        /* \"#utility.yul\":2738:2750   */\n      revert\n        /* \"#utility.yul\":2689:2752   */\n    tag_170:\n        /* \"#utility.yul\":2636:2758   */\n      pop\n      jump\t// out\n        /* \"#utility.yul\":2764:2903   */\n    tag_102:\n        /* \"#utility.yul\":2810:2815   */\n      0x00\n        /* \"#utility.yul\":2848:2854   */\n      dup2\n        /* \"#utility.yul\":2835:2855   */\n      calldataload\n        /* \"#utility.yul\":2826:2855   */\n      swap1\n      pop\n        /* \"#utility.yul\":2864:2897   */\n      tag_172\n        /* \"#utility.yul\":2891:2896   */\n      dup2\n        /* \"#utility.yul\":2864:2897   */\n      tag_101\n      jump\t// in\n    tag_172:\n        /* \"#utility.yul\":2764:2903   */\n      swap3\n      swap2\n      pop\n      pop\n      jump\t// out\n        /* \"#utility.yul\":2909:5012   */\n    tag_8:\n        /* \"#utility.yul\":3072:3078   */\n      0x00\n        /* \"#utility.yul\":3080:3086   */\n      dup1\n        /* \"#utility.yul\":3088:3094   */\n      0x00\n        /* \"#utility.yul\":3096:3102   */\n      dup1\n        /* \"#utility.yul\":3104:3110   */\n      0x00\n        /* \"#utility.yul\":3112:3118   */\n      dup1\n        /* \"#utility.yul\":3120:3126   */\n      0x00\n        /* \"#utility.yul\":3169:3172   */\n      0xe0\n        /* \"#utility.yul\":3157:3166   */\n      dup9\n        /* \"#utility.yul\":3148:3155   */\n      dup11\n        /* \"#utility.yul\":3144:3167   */\n      sub\n        /* \"#utility.yul\":3140:3173   */\n      slt\n        /* \"#utility.yul\":3137:3257   */\n      iszero\n      tag_174\n      jumpi\n        /* \"#utility.yul\":3176:3255   */\n      tag_175\n      tag_88\n      jump\t// in\n    tag_175:\n        /* \"#utility.yul\":3137:3257   */\n    tag_174:\n        /* \"#utility.yul\":3324:3325   */\n      0x00\n        /* \"#utility.yul\":3313:3322   */\n      dup9\n        /* \"#utility.yul\":3309:3326   */\n      add\n        /* \"#utility.yul\":3296:3327   */\n      calldataload\n        /* \"#utility.yul\":3354:3372   */\n      0xffffffffffffffff\n        /* \"#utility.yul\":3346:3352   */\n      dup2\n        /* \"#utility.yul\":3343:3373   */\n      gt\n        /* \"#utility.yul\":3340:3457   */\n      iszero\n      tag_176\n      jumpi\n        /* \"#utility.yul\":3376:3455   */\n      tag_177\n      tag_89\n      jump\t// in\n    tag_177:\n        /* \"#utility.yul\":3340:3457   */\n    tag_176:\n        /* \"#utility.yul\":3481:3544   */\n      tag_178\n        /* \"#utility.yul\":3536:3543   */\n      dup11\n        /* \"#utility.yul\":3527:3533   */\n      dup3\n        /* \"#utility.yul\":3516:3525   */\n      dup12\n        /* \"#utility.yul\":3512:3534   */\n      add\n        /* \"#utility.yul\":3481:3544   */\n      tag_99\n      jump\t// in\n    tag_178:\n        /* \"#utility.yul\":3471:3544   */\n      swap8\n      pop\n        /* \"#utility.yul\":3267:3554   */\n      pop\n        /* \"#utility.yul\":3621:3623   */\n      0x20\n        /* \"#utility.yul\":3610:3619   */\n      dup9\n        /* \"#utility.yul\":3606:3624   */\n      add\n        /* \"#utility.yul\":3593:3625   */\n      calldataload\n        /* \"#utility.yul\":3652:3670   */\n      0xffffffffffffffff\n        /* \"#utility.yul\":3644:3650   */\n      dup2\n        /* \"#utility.yul\":3641:3671   */\n      gt\n        /* \"#utility.yul\":3638:3755   */\n      iszero\n      tag_179\n      jumpi\n        /* \"#utility.yul\":3674:3753   */\n      tag_180\n      tag_89\n      jump\t// in\n    tag_180:\n        /* \"#utility.yul\":3638:3755   */\n    tag_179:\n        /* \"#utility.yul\":3779:3842   */\n      tag_181\n        /* \"#utility.yul\":3834:3841   */\n      dup11\n        /* \"#utility.yul\":3825:3831   */\n      dup3\n        /* \"#utility.yul\":3814:3823   */\n      dup12\n        /* \"#utility.yul\":3810:3832   */\n      add\n        /* \"#utility.yul\":3779:3842   */\n      tag_99\n      jump\t// in\n    tag_181:\n        /* \"#utility.yul\":3769:3842   */\n      swap7\n      pop\n        /* \"#utility.yul\":3564:3852   */\n      pop\n        /* \"#utility.yul\":3919:3921   */\n      0x40\n        /* \"#utility.yul\":3908:3917   */\n      dup9\n        /* \"#utility.yul\":3904:3922   */\n      add\n        /* \"#utility.yul\":3891:3923   */\n      calldataload\n        /* \"#utility.yul\":3950:3968   */\n      0xffffffffffffffff\n        /* \"#utility.yul\":3942:3948   */\n      dup2\n        /* \"#utility.yul\":3939:3969   */\n      gt\n        /* \"#utility.yul\":3936:4053   */\n      iszero\n      tag_182\n      jumpi\n        /* \"#utility.yul\":3972:4051   */\n      tag_183\n      tag_89\n      jump\t// in\n    tag_183:\n        /* \"#utility.yul\":3936:4053   */\n    tag_182:\n        /* \"#utility.yul\":4077:4140   */\n      tag_184\n        /* \"#utility.yul\":4132:4139   */\n      dup11\n        /* \"#utility.yul\":4123:4129   */\n      dup3\n        /* \"#utility.yul\":4112:4121   */\n      dup12\n        /* \"#utility.yul\":4108:4130   */\n      add\n        /* \"#utility.yul\":4077:4140   */\n      tag_99\n      jump\t// in\n    tag_184:\n        /* \"#utility.yul\":4067:4140   */\n      swap6\n      pop\n        /* \"#utility.yul\":3862:4150   */\n      pop\n        /* \"#utility.yul\":4189:4191   */\n      0x60\n        /* \"#utility.yul\":4215:4268   */\n      tag_185\n        /* \"#utility.yul\":4260:4267   */\n      dup11\n        /* \"#utility.yul\":4251:4257   */\n      dup3\n        /* \"#utility.yul\":4240:4249   */\n      dup12\n        /* \"#utility.yul\":4236:4258   */\n      add\n        /* \"#utility.yul\":4215:4268   */\n      tag_102\n      jump\t// in\n    tag_185:\n        /* \"#utility.yul\":4205:4268   */\n      swap5\n      pop\n        /* \"#utility.yul\":4160:4278   */\n      pop\n        /* \"#utility.yul\":4317:4320   */\n      0x80\n        /* \"#utility.yul\":4344:4397   */\n      tag_186\n        /* \"#utility.yul\":4389:4396   */\n      dup11\n        /* \"#utility.yul\":4380:4386   */\n      dup3\n        /* \"#utility.yul\":4369:4378   */\n      dup12\n        /* \"#utility.yul\":4365:4387   */\n      add\n        /* \"#utility.yul\":4344:4397   */\n      tag_102\n      jump\t// in\n    tag_186:\n        /* \"#utility.yul\":4334:4397   */\n      swap4\n      pop\n        /* \"#utility.yul\":4288:4407   */\n      pop\n        /* \"#utility.yul\":4474:4477   */\n      0xa0\n        /* \"#utility.yul\":4463:4472   */\n      dup9\n        /* \"#utility.yul\":4459:4478   */\n      add\n        /* \"#utility.yul\":4446:4479   */\n      calldataload\n        /* \"#utility.yul\":4506:4524   */\n      0xffffffffffffffff\n        /* \"#utility.yul\":4498:4504   */\n      dup2\n        /* \"#utility.yul\":4495:4525   */\n      gt\n        /* \"#utility.yul\":4492:4609   */\n      iszero\n      tag_187\n      jumpi\n        /* \"#utility.yul\":4528:4607   */\n      tag_188\n      tag_89\n      jump\t// in\n    tag_188:\n        /* \"#utility.yul\":4492:4609   */\n    tag_187:\n        /* \"#utility.yul\":4633:4696   */\n      tag_189\n        /* \"#utility.yul\":4688:4695   */\n      dup11\n        /* \"#utility.yul\":4679:4685   */\n      dup3\n        /* \"#utility.yul\":4668:4677   */\n      dup12\n        /* \"#utility.yul\":4664:4686   */\n      add\n        /* \"#utility.yul\":4633:4696   */\n      tag_99\n      jump\t// in\n    tag_189:\n        /* \"#utility.yul\":4623:4696   */\n      swap3\n      pop\n        /* \"#utility.yul\":4417:4706   */\n      pop\n        /* \"#utility.yul\":4773:4776   */\n      0xc0\n        /* \"#utility.yul\":4762:4771   */\n      dup9\n        /* \"#utility.yul\":4758:4777   */\n      add\n        /* \"#utility.yul\":4745:4778   */\n      calldataload\n        /* \"#utility.yul\":4805:4823   */\n      0xffffffffffffffff\n        /* \"#utility.yul\":4797:4803   */\n      dup2\n        /* \"#utility.yul\":4794:4824   */\n      gt\n        /* \"#utility.yul\":4791:4908   */\n      iszero\n      tag_190\n      jumpi\n        /* \"#utility.yul\":4827:4906   */\n      tag_191\n      tag_89\n      jump\t// in\n    tag_191:\n        /* \"#utility.yul\":4791:4908   */\n    tag_190:\n        /* \"#utility.yul\":4932:4995   */\n      tag_192\n        /* \"#utility.yul\":4987:4994   */\n      dup11\n        /* \"#utility.yul\":4978:4984   */\n      dup3\n        /* \"#utility.yul\":4967:4976   */\n      dup12\n        /* \"#utility.yul\":4963:4985   */\n      add\n        /* \"#utility.yul\":4932:4995   */\n      tag_99\n      jump\t// in\n    tag_192:\n        /* \"#utility.yul\":4922:4995   */\n      swap2\n      pop\n        /* \"#utility.yul\":4716:5005   */\n      pop\n        /* \"#utility.yul\":2909:5012   */\n      swap3\n      swap6\n      swap9\n      swap2\n      swap5\n      swap8\n      pop\n      swap3\n      swap6\n      pop\n      jump\t// out\n        /* \"#utility.yul\":5018:5144   */\n    tag_103:\n        /* \"#utility.yul\":5055:5062   */\n      0x00\n        /* \"#utility.yul\":5095:5137   */\n      0xffffffffffffffffffffffffffffffffffffffff\n        /* \"#utility.yul\":5088:5093   */\n      dup3\n        /* \"#utility.yul\":5084:5138   */\n      and\n        /* \"#utility.yul\":5073:5138   */\n      swap1\n      pop\n        /* \"#utility.yul\":5018:5144   */\n      swap2\n      swap1\n      pop\n      jump\t// out\n        /* \"#utility.yul\":5150:5246   */\n    tag_104:\n        /* \"#utility.yul\":5187:5194   */\n      0x00\n        /* \"#utility.yul\":5216:5240   */\n      tag_195\n        /* \"#utility.yul\":5234:5239   */\n      dup3\n        /* \"#utility.yul\":5216:5240   */\n      tag_103\n      jump\t// in\n    tag_195:\n        /* \"#utility.yul\":5205:5240   */\n      swap1\n      pop\n        /* \"#utility.yul\":5150:5246   */\n      swap2\n      swap1\n      pop\n      jump\t// out\n        /* \"#utility.yul\":5252:5374   */\n    tag_105:\n        /* \"#utility.yul\":5325:5349   */\n      tag_197\n        /* \"#utility.yul\":5343:5348   */\n      dup2\n        /* \"#utility.yul\":5325:5349   */\n      tag_104\n      jump\t// in\n    tag_197:\n        /* \"#utility.yul\":5318:5323   */\n      dup2\n        /* \"#utility.yul\":5315:5350   */\n      eq\n        /* \"#utility.yul\":5305:5368   */\n      tag_198\n      jumpi\n        /* \"#utility.yul\":5364:5365   */\n      0x00\n        /* \"#utility.yul\":5361:5362   */\n      dup1\n        /* \"#utility.yul\":5354:5366   */\n      revert\n        /* \"#utility.yul\":5305:5368   */\n    tag_198:\n        /* \"#utility.yul\":5252:5374   */\n      pop\n      jump\t// out\n        /* \"#utility.yul\":5380:5519   */\n    tag_106:\n        /* \"#utility.yul\":5426:5431   */\n      0x00\n        /* \"#utility.yul\":5464:5470   */\n      dup2\n        /* \"#utility.yul\":5451:5471   */\n      calldataload\n        /* \"#utility.yul\":5442:5471   */\n      swap1\n      pop\n        /* \"#utility.yul\":5480:5513   */\n      tag_200\n        /* \"#utility.yul\":5507:5512   */\n      dup2\n        /* \"#utility.yul\":5480:5513   */\n      tag_105\n      jump\t// in\n    tag_200:\n        /* \"#utility.yul\":5380:5519   */\n      swap3\n      swap2\n      pop\n      pop\n      jump\t// out\n        /* \"#utility.yul\":5525:5854   */\n    tag_12:\n        /* \"#utility.yul\":5584:5590   */\n      0x00\n        /* \"#utility.yul\":5633:5635   */\n      0x20\n        /* \"#utility.yul\":5621:5630   */\n      dup3\n        /* \"#utility.yul\":5612:5619   */\n      dup5\n        /* \"#utility.yul\":5608:5631   */\n      sub\n        /* \"#utility.yul\":5604:5636   */\n      slt\n        /* \"#utility.yul\":5601:5720   */\n      iszero\n      tag_202\n      jumpi\n        /* \"#utility.yul\":5639:5718   */\n      tag_203\n      tag_88\n      jump\t// in\n    tag_203:\n        /* \"#utility.yul\":5601:5720   */\n    tag_202:\n        /* \"#utility.yul\":5759:5760   */\n      0x00\n        /* \"#utility.yul\":5784:5837   */\n      tag_204\n        /* \"#utility.yul\":5829:5836   */\n      dup5\n        /* \"#utility.yul\":5820:5826   */\n      dup3\n        /* \"#utility.yul\":5809:5818   */\n      dup6\n        /* \"#utility.yul\":5805:5827   */\n      add\n        /* \"#utility.yul\":5784:5837   */\n      tag_106\n      jump\t// in\n    tag_204:\n        /* \"#utility.yul\":5774:5837   */\n      swap2\n      pop\n        /* \"#utility.yul\":5730:5847   */\n      pop\n        /* \"#utility.yul\":5525:5854   */\n      swap3\n      swap2\n      pop\n      pop\n      jump\t// out\n        /* \"#utility.yul\":5860:5959   */\n    tag_107:\n        /* \"#utility.yul\":5912:5918   */\n      0x00\n        /* \"#utility.yul\":5946:5951   */\n      dup2\n        /* \"#utility.yul\":5940:5952   */\n      mload\n        /* \"#utility.yul\":5930:5952   */\n      swap1\n      pop\n        /* \"#utility.yul\":5860:5959   */\n      swap2\n      swap1\n      pop\n      jump\t// out\n        /* \"#utility.yul\":5965:6124   */\n    tag_108:\n        /* \"#utility.yul\":6039:6050   */\n      0x00\n        /* \"#utility.yul\":6073:6079   */\n      dup3\n        /* \"#utility.yul\":6068:6071   */\n      dup3\n        /* \"#utility.yul\":6061:6080   */\n      mstore\n        /* \"#utility.yul\":6113:6117   */\n      0x20\n        /* \"#utility.yul\":6108:6111   */\n      dup3\n        /* \"#utility.yul\":6104:6118   */\n      add\n        /* \"#utility.yul\":6089:6118   */\n      swap1\n      pop\n        /* \"#utility.yul\":5965:6124   */\n      swap3\n      swap2\n      pop\n      pop\n      jump\t// out\n        /* \"#utility.yul\":6130:6376   */\n    tag_109:\n        /* \"#utility.yul\":6211:6212   */\n      0x00\n        /* \"#utility.yul\":6221:6334   */\n    tag_208:\n        /* \"#utility.yul\":6235:6241   */\n      dup4\n        /* \"#utility.yul\":6232:6233   */\n      dup2\n        /* \"#utility.yul\":6229:6242   */\n      lt\n        /* \"#utility.yul\":6221:6334   */\n      iszero\n      tag_210\n      jumpi\n        /* \"#utility.yul\":6320:6321   */\n      dup1\n        /* \"#utility.yul\":6315:6318   */\n      dup3\n        /* \"#utility.yul\":6311:6322   */\n      add\n        /* \"#utility.yul\":6305:6323   */\n      mload\n        /* \"#utility.yul\":6301:6302   */\n      dup2\n        /* \"#utility.yul\":6296:6299   */\n      dup5\n        /* \"#utility.yul\":6292:6303   */\n      add\n        /* \"#utility.yul\":6285:6324   */\n      mstore\n        /* \"#utility.yul\":6257:6259   */\n      0x20\n        /* \"#utility.yul\":6254:6255   */\n      dup2\n        /* \"#utility.yul\":6250:6260   */\n      add\n        /* \"#utility.yul\":6245:6260   */\n      swap1\n      pop\n        /* \"#utility.yul\":6221:6334   */\n      jump(tag_208)\n    tag_210:\n        /* \"#utility.yul\":6368:6369   */\n      0x00\n        /* \"#utility.yul\":6359:6365   */\n      dup5\n        /* \"#utility.yul\":6354:6357   */\n      dup5\n        /* \"#utility.yul\":6350:6366   */\n      add\n        /* \"#utility.yul\":6343:6370   */\n      mstore\n        /* \"#utility.yul\":6192:6376   */\n      pop\n        /* \"#utility.yul\":6130:6376   */\n      pop\n      pop\n      pop\n      jump\t// out\n        /* \"#utility.yul\":6382:6739   */\n    tag_110:\n        /* \"#utility.yul\":6460:6463   */\n      0x00\n        /* \"#utility.yul\":6488:6527   */\n      tag_212\n        /* \"#utility.yul\":6521:6526   */\n      dup3\n        /* \"#utility.yul\":6488:6527   */\n      tag_107\n      jump\t// in\n    tag_212:\n        /* \"#utility.yul\":6543:6604   */\n      tag_213\n        /* \"#utility.yul\":6597:6603   */\n      dup2\n        /* \"#utility.yul\":6592:6595   */\n      dup6\n        /* \"#utility.yul\":6543:6604   */\n      tag_108\n      jump\t// in\n    tag_213:\n        /* \"#utility.yul\":6536:6604   */\n      swap4\n      pop\n        /* \"#utility.yul\":6613:6678   */\n      tag_214\n        /* \"#utility.yul\":6671:6677   */\n      dup2\n        /* \"#utility.yul\":6666:6669   */\n      dup6\n        /* \"#utility.yul\":6659:6663   */\n      0x20\n        /* \"#utility.yul\":6652:6657   */\n      dup7\n        /* \"#utility.yul\":6648:6664   */\n      add\n        /* \"#utility.yul\":6613:6678   */\n      tag_109\n      jump\t// in\n    tag_214:\n        /* \"#utility.yul\":6703:6732   */\n      tag_215\n        /* \"#utility.yul\":6725:6731   */\n      dup2\n        /* \"#utility.yul\":6703:6732   */\n      tag_92\n      jump\t// in\n    tag_215:\n        /* \"#utility.yul\":6698:6701   */\n      dup5\n        /* \"#utility.yul\":6694:6733   */\n      add\n        /* \"#utility.yul\":6687:6733   */\n      swap2\n      pop\n        /* \"#utility.yul\":6464:6739   */\n      pop\n        /* \"#utility.yul\":6382:6739   */\n      swap3\n      swap2\n      pop\n      pop\n      jump\t// out\n        /* \"#utility.yul\":6745:6853   */\n    tag_111:\n        /* \"#utility.yul\":6822:6846   */\n      tag_217\n        /* \"#utility.yul\":6840:6845   */\n      dup2\n        /* \"#utility.yul\":6822:6846   */\n      tag_100\n      jump\t// in\n    tag_217:\n        /* \"#utility.yul\":6817:6820   */\n      dup3\n        /* \"#utility.yul\":6810:6847   */\n      mstore\n        /* \"#utility.yul\":6745:6853   */\n      pop\n      pop\n      jump\t// out\n        /* \"#utility.yul\":6935:8715   */\n    tag_112:\n        /* \"#utility.yul\":7044:7047   */\n      0x00\n        /* \"#utility.yul\":7080:7084   */\n      0xe0\n        /* \"#utility.yul\":7075:7078   */\n      dup4\n        /* \"#utility.yul\":7071:7085   */\n      add\n        /* \"#utility.yul\":7169:7173   */\n      0x00\n        /* \"#utility.yul\":7162:7167   */\n      dup4\n        /* \"#utility.yul\":7158:7174   */\n      add\n        /* \"#utility.yul\":7152:7175   */\n      mload\n        /* \"#utility.yul\":7222:7225   */\n      dup5\n        /* \"#utility.yul\":7216:7220   */\n      dup3\n        /* \"#utility.yul\":7212:7226   */\n      sub\n        /* \"#utility.yul\":7205:7209   */\n      0x00\n        /* \"#utility.yul\":7200:7203   */\n      dup7\n        /* \"#utility.yul\":7196:7210   */\n      add\n        /* \"#utility.yul\":7189:7227   */\n      mstore\n        /* \"#utility.yul\":7248:7321   */\n      tag_219\n        /* \"#utility.yul\":7316:7320   */\n      dup3\n        /* \"#utility.yul\":7302:7314   */\n      dup3\n        /* \"#utility.yul\":7248:7321   */\n      tag_110\n      jump\t// in\n    tag_219:\n        /* \"#utility.yul\":7240:7321   */\n      swap2\n      pop\n        /* \"#utility.yul\":7095:7332   */\n      pop\n        /* \"#utility.yul\":7418:7422   */\n      0x20\n        /* \"#utility.yul\":7411:7416   */\n      dup4\n        /* \"#utility.yul\":7407:7423   */\n      add\n        /* \"#utility.yul\":7401:7424   */\n      mload\n        /* \"#utility.yul\":7471:7474   */\n      dup5\n        /* \"#utility.yul\":7465:7469   */\n      dup3\n        /* \"#utility.yul\":7461:7475   */\n      sub\n        /* \"#utility.yul\":7454:7458   */\n      0x20\n        /* \"#utility.yul\":7449:7452   */\n      dup7\n        /* \"#utility.yul\":7445:7459   */\n      add\n        /* \"#utility.yul\":7438:7476   */\n      mstore\n        /* \"#utility.yul\":7497:7570   */\n      tag_220\n        /* \"#utility.yul\":7565:7569   */\n      dup3\n        /* \"#utility.yul\":7551:7563   */\n      dup3\n        /* \"#utility.yul\":7497:7570   */\n      tag_110\n      jump\t// in\n    tag_220:\n        /* \"#utility.yul\":7489:7570   */\n      swap2\n      pop\n        /* \"#utility.yul\":7342:7581   */\n      pop\n        /* \"#utility.yul\":7667:7671   */\n      0x40\n        /* \"#utility.yul\":7660:7665   */\n      dup4\n        /* \"#utility.yul\":7656:7672   */\n      add\n        /* \"#utility.yul\":7650:7673   */\n      mload\n        /* \"#utility.yul\":7720:7723   */\n      dup5\n        /* \"#utility.yul\":7714:7718   */\n      dup3\n        /* \"#utility.yul\":7710:7724   */\n      sub\n        /* \"#utility.yul\":7703:7707   */\n      0x40\n        /* \"#utility.yul\":7698:7701   */\n      dup7\n        /* \"#utility.yul\":7694:7708   */\n      add\n        /* \"#utility.yul\":7687:7725   */\n      mstore\n        /* \"#utility.yul\":7746:7819   */\n      tag_221\n        /* \"#utility.yul\":7814:7818   */\n      dup3\n        /* \"#utility.yul\":7800:7812   */\n      dup3\n        /* \"#utility.yul\":7746:7819   */\n      tag_110\n      jump\t// in\n    tag_221:\n        /* \"#utility.yul\":7738:7819   */\n      swap2\n      pop\n        /* \"#utility.yul\":7591:7830   */\n      pop\n        /* \"#utility.yul\":7921:7925   */\n      0x60\n        /* \"#utility.yul\":7914:7919   */\n      dup4\n        /* \"#utility.yul\":7910:7926   */\n      add\n        /* \"#utility.yul\":7904:7927   */\n      mload\n        /* \"#utility.yul\":7940:8003   */\n      tag_222\n        /* \"#utility.yul\":7997:8001   */\n      0x60\n        /* \"#utility.yul\":7992:7995   */\n      dup7\n        /* \"#utility.yul\":7988:8002   */\n      add\n        /* \"#utility.yul\":7974:7986   */\n      dup3\n        /* \"#utility.yul\":7940:8003   */\n      tag_111\n      jump\t// in\n    tag_222:\n        /* \"#utility.yul\":7840:8013   */\n      pop\n        /* \"#utility.yul\":8103:8107   */\n      0x80\n        /* \"#utility.yul\":8096:8101   */\n      dup4\n        /* \"#utility.yul\":8092:8108   */\n      add\n        /* \"#utility.yul\":8086:8109   */\n      mload\n        /* \"#utility.yul\":8122:8185   */\n      tag_223\n        /* \"#utility.yul\":8179:8183   */\n      0x80\n        /* \"#utility.yul\":8174:8177   */\n      dup7\n        /* \"#utility.yul\":8170:8184   */\n      add\n        /* \"#utility.yul\":8156:8168   */\n      dup3\n        /* \"#utility.yul\":8122:8185   */\n      tag_111\n      jump\t// in\n    tag_223:\n        /* \"#utility.yul\":8023:8195   */\n      pop\n        /* \"#utility.yul\":8277:8281   */\n      0xa0\n        /* \"#utility.yul\":8270:8275   */\n      dup4\n        /* \"#utility.yul\":8266:8282   */\n      add\n        /* \"#utility.yul\":8260:8283   */\n      mload\n        /* \"#utility.yul\":8330:8333   */\n      dup5\n        /* \"#utility.yul\":8324:8328   */\n      dup3\n        /* \"#utility.yul\":8320:8334   */\n      sub\n        /* \"#utility.yul\":8313:8317   */\n      0xa0\n        /* \"#utility.yul\":8308:8311   */\n      dup7\n        /* \"#utility.yul\":8304:8318   */\n      add\n        /* \"#utility.yul\":8297:8335   */\n      mstore\n        /* \"#utility.yul\":8356:8429   */\n      tag_224\n        /* \"#utility.yul\":8424:8428   */\n      dup3\n        /* \"#utility.yul\":8410:8422   */\n      dup3\n        /* \"#utility.yul\":8356:8429   */\n      tag_110\n      jump\t// in\n    tag_224:\n        /* \"#utility.yul\":8348:8429   */\n      swap2\n      pop\n        /* \"#utility.yul\":8205:8440   */\n      pop\n        /* \"#utility.yul\":8525:8529   */\n      0xc0\n        /* \"#utility.yul\":8518:8523   */\n      dup4\n        /* \"#utility.yul\":8514:8530   */\n      add\n        /* \"#utility.yul\":8508:8531   */\n      mload\n        /* \"#utility.yul\":8578:8581   */\n      dup5\n        /* \"#utility.yul\":8572:8576   */\n      dup3\n        /* \"#utility.yul\":8568:8582   */\n      sub\n        /* \"#utility.yul\":8561:8565   */\n      0xc0\n        /* \"#utility.yul\":8556:8559   */\n      dup7\n        /* \"#utility.yul\":8552:8566   */\n      add\n        /* \"#utility.yul\":8545:8583   */\n      mstore\n        /* \"#utility.yul\":8604:8677   */\n      tag_225\n        /* \"#utility.yul\":8672:8676   */\n      dup3\n        /* \"#utility.yul\":8658:8670   */\n      dup3\n        /* \"#utility.yul\":8604:8677   */\n      tag_110\n      jump\t// in\n    tag_225:\n        /* \"#utility.yul\":8596:8677   */\n      swap2\n      pop\n        /* \"#utility.yul\":8450:8688   */\n      pop\n        /* \"#utility.yul\":8705:8709   */\n      dup1\n        /* \"#utility.yul\":8698:8709   */\n      swap2\n      pop\n        /* \"#utility.yul\":7049:8715   */\n      pop\n        /* \"#utility.yul\":6935:8715   */\n      swap3\n      swap2\n      pop\n      pop\n      jump\t// out\n        /* \"#utility.yul\":8721:9074   */\n    tag_15:\n        /* \"#utility.yul\":8854:8858   */\n      0x00\n        /* \"#utility.yul\":8892:8894   */\n      0x20\n        /* \"#utility.yul\":8881:8890   */\n      dup3\n        /* \"#utility.yul\":8877:8895   */\n      add\n        /* \"#utility.yul\":8869:8895   */\n      swap1\n      pop\n        /* \"#utility.yul\":8941:8950   */\n      dup2\n        /* \"#utility.yul\":8935:8939   */\n      dup2\n        /* \"#utility.yul\":8931:8951   */\n      sub\n        /* \"#utility.yul\":8927:8928   */\n      0x00\n        /* \"#utility.yul\":8916:8925   */\n      dup4\n        /* \"#utility.yul\":8912:8929   */\n      add\n        /* \"#utility.yul\":8905:8952   */\n      mstore\n        /* \"#utility.yul\":8969:9067   */\n      tag_227\n        /* \"#utility.yul\":9062:9066   */\n      dup2\n        /* \"#utility.yul\":9053:9059   */\n      dup5\n        /* \"#utility.yul\":8969:9067   */\n      tag_112\n      jump\t// in\n    tag_227:\n        /* \"#utility.yul\":8961:9067   */\n      swap1\n      pop\n        /* \"#utility.yul\":8721:9074   */\n      swap3\n      swap2\n      pop\n      pop\n      jump\t// out\n        /* \"#utility.yul\":9080:9249   */\n    tag_113:\n        /* \"#utility.yul\":9164:9175   */\n      0x00\n        /* \"#utility.yul\":9198:9204   */\n      dup3\n        /* \"#utility.yul\":9193:9196   */\n      dup3\n        /* \"#utility.yul\":9186:9205   */\n      mstore\n        /* \"#utility.yul\":9238:9242   */\n      0x20\n        /* \"#utility.yul\":9233:9236   */\n      dup3\n        /* \"#utility.yul\":9229:9243   */\n      add\n        /* \"#utility.yul\":9214:9243   */\n      swap1\n      pop\n        /* \"#utility.yul\":9080:9249   */\n      swap3\n      swap2\n      pop\n      pop\n      jump\t// out\n        /* \"#utility.yul\":9255:9632   */\n    tag_114:\n        /* \"#utility.yul\":9343:9346   */\n      0x00\n        /* \"#utility.yul\":9371:9410   */\n      tag_230\n        /* \"#utility.yul\":9404:9409   */\n      dup3\n        /* \"#utility.yul\":9371:9410   */\n      tag_107\n      jump\t// in\n    tag_230:\n        /* \"#utility.yul\":9426:9497   */\n      tag_231\n        /* \"#utility.yul\":9490:9496   */\n      dup2\n        /* \"#utility.yul\":9485:9488   */\n      dup6\n        /* \"#utility.yul\":9426:9497   */\n      tag_113\n      jump\t// in\n    tag_231:\n        /* \"#utility.yul\":9419:9497   */\n      swap4\n      pop\n        /* \"#utility.yul\":9506:9571   */\n      tag_232\n        /* \"#utility.yul\":9564:9570   */\n      dup2\n        /* \"#utility.yul\":9559:9562   */\n      dup6\n        /* \"#utility.yul\":9552:9556   */\n      0x20\n        /* \"#utility.yul\":9545:9550   */\n      dup7\n        /* \"#utility.yul\":9541:9557   */\n      add\n        /* \"#utility.yul\":9506:9571   */\n      tag_109\n      jump\t// in\n    tag_232:\n        /* \"#utility.yul\":9596:9625   */\n      tag_233\n        /* \"#utility.yul\":9618:9624   */\n      dup2\n        /* \"#utility.yul\":9596:9625   */\n      tag_92\n      jump\t// in\n    tag_233:\n        /* \"#utility.yul\":9591:9594   */\n      dup5\n        /* \"#utility.yul\":9587:9626   */\n      add\n        /* \"#utility.yul\":9580:9626   */\n      swap2\n      pop\n        /* \"#utility.yul\":9347:9632   */\n      pop\n        /* \"#utility.yul\":9255:9632   */\n      swap3\n      swap2\n      pop\n      pop\n      jump\t// out\n        /* \"#utility.yul\":9638:9756   */\n    tag_115:\n        /* \"#utility.yul\":9725:9749   */\n      tag_235\n        /* \"#utility.yul\":9743:9748   */\n      dup2\n        /* \"#utility.yul\":9725:9749   */\n      tag_100\n      jump\t// in\n    tag_235:\n        /* \"#utility.yul\":9720:9723   */\n      dup3\n        /* \"#utility.yul\":9713:9750   */\n      mstore\n        /* \"#utility.yul\":9638:9756   */\n      pop\n      pop\n      jump\t// out\n        /* \"#utility.yul\":9762:11103   */\n    tag_20:\n        /* \"#utility.yul\":10123:10127   */\n      0x00\n        /* \"#utility.yul\":10161:10164   */\n      0xe0\n        /* \"#utility.yul\":10150:10159   */\n      dup3\n        /* \"#utility.yul\":10146:10165   */\n      add\n        /* \"#utility.yul\":10138:10165   */\n      swap1\n      pop\n        /* \"#utility.yul\":10211:10220   */\n      dup2\n        /* \"#utility.yul\":10205:10209   */\n      dup2\n        /* \"#utility.yul\":10201:10221   */\n      sub\n        /* \"#utility.yul\":10197:10198   */\n      0x00\n        /* \"#utility.yul\":10186:10195   */\n      dup4\n        /* \"#utility.yul\":10182:10199   */\n      add\n        /* \"#utility.yul\":10175:10222   */\n      mstore\n        /* \"#utility.yul\":10239:10317   */\n      tag_237\n        /* \"#utility.yul\":10312:10316   */\n      dup2\n        /* \"#utility.yul\":10303:10309   */\n      dup11\n        /* \"#utility.yul\":10239:10317   */\n      tag_114\n      jump\t// in\n    tag_237:\n        /* \"#utility.yul\":10231:10317   */\n      swap1\n      pop\n        /* \"#utility.yul\":10364:10373   */\n      dup2\n        /* \"#utility.yul\":10358:10362   */\n      dup2\n        /* \"#utility.yul\":10354:10374   */\n      sub\n        /* \"#utility.yul\":10349:10351   */\n      0x20\n        /* \"#utility.yul\":10338:10347   */\n      dup4\n        /* \"#utility.yul\":10334:10352   */\n      add\n        /* \"#utility.yul\":10327:10375   */\n      mstore\n        /* \"#utility.yul\":10392:10470   */\n      tag_238\n        /* \"#utility.yul\":10465:10469   */\n      dup2\n        /* \"#utility.yul\":10456:10462   */\n      dup10\n        /* \"#utility.yul\":10392:10470   */\n      tag_114\n      jump\t// in\n    tag_238:\n        /* \"#utility.yul\":10384:10470   */\n      swap1\n      pop\n        /* \"#utility.yul\":10517:10526   */\n      dup2\n        /* \"#utility.yul\":10511:10515   */\n      dup2\n        /* \"#utility.yul\":10507:10527   */\n      sub\n        /* \"#utility.yul\":10502:10504   */\n      0x40\n        /* \"#utility.yul\":10491:10500   */\n      dup4\n        /* \"#utility.yul\":10487:10505   */\n      add\n        /* \"#utility.yul\":10480:10528   */\n      mstore\n        /* \"#utility.yul\":10545:10623   */\n      tag_239\n        /* \"#utility.yul\":10618:10622   */\n      dup2\n        /* \"#utility.yul\":10609:10615   */\n      dup9\n        /* \"#utility.yul\":10545:10623   */\n      tag_114\n      jump\t// in\n    tag_239:\n        /* \"#utility.yul\":10537:10623   */\n      swap1\n      pop\n        /* \"#utility.yul\":10633:10705   */\n      tag_240\n        /* \"#utility.yul\":10701:10703   */\n      0x60\n        /* \"#utility.yul\":10690:10699   */\n      dup4\n        /* \"#utility.yul\":10686:10704   */\n      add\n        /* \"#utility.yul\":10677:10683   */\n      dup8\n        /* \"#utility.yul\":10633:10705   */\n      tag_115\n      jump\t// in\n    tag_240:\n        /* \"#utility.yul\":10715:10788   */\n      tag_241\n        /* \"#utility.yul\":10783:10786   */\n      0x80\n        /* \"#utility.yul\":10772:10781   */\n      dup4\n        /* \"#utility.yul\":10768:10787   */\n      add\n        /* \"#utility.yul\":10759:10765   */\n      dup7\n        /* \"#utility.yul\":10715:10788   */\n      tag_115\n      jump\t// in\n    tag_241:\n        /* \"#utility.yul\":10836:10845   */\n      dup2\n        /* \"#utility.yul\":10830:10834   */\n      dup2\n        /* \"#utility.yul\":10826:10846   */\n      sub\n        /* \"#utility.yul\":10820:10823   */\n      0xa0\n        /* \"#utility.yul\":10809:10818   */\n      dup4\n        /* \"#utility.yul\":10805:10824   */\n      add\n        /* \"#utility.yul\":10798:10847   */\n      mstore\n        /* \"#utility.yul\":10864:10942   */\n      tag_242\n        /* \"#utility.yul\":10937:10941   */\n      dup2\n        /* \"#utility.yul\":10928:10934   */\n      dup6\n        /* \"#utility.yul\":10864:10942   */\n      tag_114\n      jump\t// in\n    tag_242:\n        /* \"#utility.yul\":10856:10942   */\n      swap1\n      pop\n        /* \"#utility.yul\":10990:10999   */\n      dup2\n        /* \"#utility.yul\":10984:10988   */\n      dup2\n        /* \"#utility.yul\":10980:11000   */\n      sub\n        /* \"#utility.yul\":10974:10977   */\n      0xc0\n        /* \"#utility.yul\":10963:10972   */\n      dup4\n        /* \"#utility.yul\":10959:10978   */\n      add\n        /* \"#utility.yul\":10952:11001   */\n      mstore\n        /* \"#utility.yul\":11018:11096   */\n      tag_243\n        /* \"#utility.yul\":11091:11095   */\n      dup2\n        /* \"#utility.yul\":11082:11088   */\n      dup5\n        /* \"#utility.yul\":11018:11096   */\n      tag_114\n      jump\t// in\n    tag_243:\n        /* \"#utility.yul\":11010:11096   */\n      swap1\n      pop\n        /* \"#utility.yul\":9762:11103   */\n      swap9\n      swap8\n      pop\n      pop\n      pop\n      pop\n      pop\n      pop\n      pop\n      pop\n      jump\t// out\n        /* \"#utility.yul\":11109:11289   */\n    tag_116:\n        /* \"#utility.yul\":11157:11234   */\n      0x4e487b7100000000000000000000000000000000000000000000000000000000\n        /* \"#utility.yul\":11154:11155   */\n      0x00\n        /* \"#utility.yul\":11147:11235   */\n      mstore\n        /* \"#utility.yul\":11254:11258   */\n      0x22\n        /* \"#utility.yul\":11251:11252   */\n      0x04\n        /* \"#utility.yul\":11244:11259   */\n      mstore\n        /* \"#utility.yul\":11278:11282   */\n      0x24\n        /* \"#utility.yul\":11275:11276   */\n      0x00\n        /* \"#utility.yul\":11268:11283   */\n      revert\n        /* \"#utility.yul\":11295:11615   */\n    tag_37:\n        /* \"#utility.yul\":11339:11345   */\n      0x00\n        /* \"#utility.yul\":11376:11377   */\n      0x02\n        /* \"#utility.yul\":11370:11374   */\n      dup3\n        /* \"#utility.yul\":11366:11378   */\n      div\n        /* \"#utility.yul\":11356:11378   */\n      swap1\n      pop\n        /* \"#utility.yul\":11423:11424   */\n      0x01\n        /* \"#utility.yul\":11417:11421   */\n      dup3\n        /* \"#utility.yul\":11413:11425   */\n      and\n        /* \"#utility.yul\":11444:11462   */\n      dup1\n        /* \"#utility.yul\":11434:11515   */\n      tag_246\n      jumpi\n        /* \"#utility.yul\":11500:11504   */\n      0x7f\n        /* \"#utility.yul\":11492:11498   */\n      dup3\n        /* \"#utility.yul\":11488:11505   */\n      and\n        /* \"#utility.yul\":11478:11505   */\n      swap2\n      pop\n        /* \"#utility.yul\":11434:11515   */\n    tag_246:\n        /* \"#utility.yul\":11562:11564   */\n      0x20\n        /* \"#utility.yul\":11554:11560   */\n      dup3\n        /* \"#utility.yul\":11551:11565   */\n      lt\n        /* \"#utility.yul\":11531:11549   */\n      dup2\n        /* \"#utility.yul\":11528:11566   */\n      sub\n        /* \"#utility.yul\":11525:11609   */\n      tag_247\n      jumpi\n        /* \"#utility.yul\":11581:11599   */\n      tag_248\n      tag_116\n      jump\t// in\n    tag_248:\n        /* \"#utility.yul\":11525:11609   */\n    tag_247:\n        /* \"#utility.yul\":11346:11615   */\n      pop\n        /* \"#utility.yul\":11295:11615   */\n      swap2\n      swap1\n      pop\n      jump\t// out\n        /* \"#utility.yul\":11621:11768   */\n    tag_117:\n        /* \"#utility.yul\":11722:11733   */\n      0x00\n        /* \"#utility.yul\":11759:11762   */\n      dup2\n        /* \"#utility.yul\":11744:11762   */\n      swap1\n      pop\n        /* \"#utility.yul\":11621:11768   */\n      swap3\n      swap2\n      pop\n      pop\n      jump\t// out\n        /* \"#utility.yul\":11774:11918   */\n    tag_118:\n        /* \"#utility.yul\":11826:11830   */\n      0x00\n        /* \"#utility.yul\":11849:11852   */\n      dup2\n        /* \"#utility.yul\":11841:11852   */\n      swap1\n      pop\n        /* \"#utility.yul\":11872:11875   */\n      dup2\n        /* \"#utility.yul\":11869:11870   */\n      0x00\n        /* \"#utility.yul\":11862:11876   */\n      mstore\n        /* \"#utility.yul\":11906:11910   */\n      0x20\n        /* \"#utility.yul\":11903:11904   */\n      0x00\n        /* \"#utility.yul\":11893:11911   */\n      keccak256\n        /* \"#utility.yul\":11885:11911   */\n      swap1\n      pop\n        /* \"#utility.yul\":11774:11918   */\n      swap2\n      swap1\n      pop\n      jump\t// out\n        /* \"#utility.yul\":11946:12824   */\n    tag_119:\n        /* \"#utility.yul\":12051:12054   */\n      0x00\n        /* \"#utility.yul\":12088:12093   */\n      dup2\n        /* \"#utility.yul\":12082:12094   */\n      sload\n        /* \"#utility.yul\":12117:12153   */\n      tag_252\n        /* \"#utility.yul\":12143:12152   */\n      dup2\n        /* \"#utility.yul\":12117:12153   */\n      tag_37\n      jump\t// in\n    tag_252:\n        /* \"#utility.yul\":12169:12257   */\n      tag_253\n        /* \"#utility.yul\":12250:12256   */\n      dup2\n        /* \"#utility.yul\":12245:12248   */\n      dup7\n        /* \"#utility.yul\":12169:12257   */\n      tag_117\n      jump\t// in\n    tag_253:\n        /* \"#utility.yul\":12162:12257   */\n      swap5\n      pop\n        /* \"#utility.yul\":12288:12289   */\n      0x01\n        /* \"#utility.yul\":12277:12286   */\n      dup3\n        /* \"#utility.yul\":12273:12290   */\n      and\n        /* \"#utility.yul\":12304:12305   */\n      0x00\n        /* \"#utility.yul\":12299:12465   */\n      dup2\n      eq\n      tag_255\n      jumpi\n        /* \"#utility.yul\":12479:12480   */\n      0x01\n        /* \"#utility.yul\":12474:12818   */\n      dup2\n      eq\n      tag_256\n      jumpi\n        /* \"#utility.yul\":12266:12818   */\n      jump(tag_254)\n        /* \"#utility.yul\":12299:12465   */\n    tag_255:\n        /* \"#utility.yul\":12383:12387   */\n      0xff\n        /* \"#utility.yul\":12379:12388   */\n      not\n        /* \"#utility.yul\":12368:12377   */\n      dup4\n        /* \"#utility.yul\":12364:12389   */\n      and\n        /* \"#utility.yul\":12359:12362   */\n      dup7\n        /* \"#utility.yul\":12352:12390   */\n      mstore\n        /* \"#utility.yul\":12445:12451   */\n      dup2\n        /* \"#utility.yul\":12438:12452   */\n      iszero\n        /* \"#utility.yul\":12431:12453   */\n      iszero\n        /* \"#utility.yul\":12423:12429   */\n      dup3\n        /* \"#utility.yul\":12419:12454   */\n      mul\n        /* \"#utility.yul\":12414:12417   */\n      dup7\n        /* \"#utility.yul\":12410:12455   */\n      add\n        /* \"#utility.yul\":12403:12455   */\n      swap4\n      pop\n        /* \"#utility.yul\":12299:12465   */\n      jump(tag_254)\n        /* \"#utility.yul\":12474:12818   */\n    tag_256:\n        /* \"#utility.yul\":12541:12582   */\n      tag_257\n        /* \"#utility.yul\":12576:12581   */\n      dup6\n        /* \"#utility.yul\":12541:12582   */\n      tag_118\n      jump\t// in\n    tag_257:\n        /* \"#utility.yul\":12604:12605   */\n      0x00\n        /* \"#utility.yul\":12618:12772   */\n    tag_258:\n        /* \"#utility.yul\":12632:12638   */\n      dup4\n        /* \"#utility.yul\":12629:12630   */\n      dup2\n        /* \"#utility.yul\":12626:12639   */\n      lt\n        /* \"#utility.yul\":12618:12772   */\n      iszero\n      tag_260\n      jumpi\n        /* \"#utility.yul\":12706:12713   */\n      dup2\n        /* \"#utility.yul\":12700:12714   */\n      sload\n        /* \"#utility.yul\":12696:12697   */\n      dup2\n        /* \"#utility.yul\":12691:12694   */\n      dup10\n        /* \"#utility.yul\":12687:12698   */\n      add\n        /* \"#utility.yul\":12680:12715   */\n      mstore\n        /* \"#utility.yul\":12756:12757   */\n      0x01\n        /* \"#utility.yul\":12747:12754   */\n      dup3\n        /* \"#utility.yul\":12743:12758   */\n      add\n        /* \"#utility.yul\":12732:12758   */\n      swap2\n      pop\n        /* \"#utility.yul\":12654:12658   */\n      0x20\n        /* \"#utility.yul\":12651:12652   */\n      dup2\n        /* \"#utility.yul\":12647:12659   */\n      add\n        /* \"#utility.yul\":12642:12659   */\n      swap1\n      pop\n        /* \"#utility.yul\":12618:12772   */\n      jump(tag_258)\n    tag_260:\n        /* \"#utility.yul\":12801:12807   */\n      dup4\n        /* \"#utility.yul\":12796:12799   */\n      dup9\n        /* \"#utility.yul\":12792:12808   */\n      add\n        /* \"#utility.yul\":12785:12808   */\n      swap6\n      pop\n        /* \"#utility.yul\":12481:12818   */\n      pop\n      pop\n        /* \"#utility.yul\":12266:12818   */\n    tag_254:\n      pop\n        /* \"#utility.yul\":12055:12824   */\n      pop\n      pop\n        /* \"#utility.yul\":11946:12824   */\n      swap3\n      swap2\n      pop\n      pop\n      jump\t// out\n        /* \"#utility.yul\":12830:13103   */\n    tag_23:\n        /* \"#utility.yul\":12961:12964   */\n      0x00\n        /* \"#utility.yul\":12983:13077   */\n      tag_262\n        /* \"#utility.yul\":13073:13076   */\n      dup3\n        /* \"#utility.yul\":13064:13070   */\n      dup5\n        /* \"#utility.yul\":12983:13077   */\n      tag_119\n      jump\t// in\n    tag_262:\n        /* \"#utility.yul\":12976:13077   */\n      swap2\n      pop\n        /* \"#utility.yul\":13094:13097   */\n      dup2\n        /* \"#utility.yul\":13087:13097   */\n      swap1\n      pop\n        /* \"#utility.yul\":12830:13103   */\n      swap3\n      swap2\n      pop\n      pop\n      jump\t// out\n        /* \"#utility.yul\":13109:13282   */\n    tag_120:\n        /* \"#utility.yul\":13249:13274   */\n      0x5573657220616c72656164792072656769737465726564000000000000000000\n        /* \"#utility.yul\":13245:13246   */\n      0x00\n        /* \"#utility.yul\":13237:13243   */\n      dup3\n        /* \"#utility.yul\":13233:13247   */\n      add\n        /* \"#utility.yul\":13226:13275   */\n      mstore\n        /* \"#utility.yul\":13109:13282   */\n      pop\n      jump\t// out\n        /* \"#utility.yul\":13288:13654   */\n    tag_121:\n        /* \"#utility.yul\":13430:13433   */\n      0x00\n        /* \"#utility.yul\":13451:13518   */\n      tag_265\n        /* \"#utility.yul\":13515:13517   */\n      0x17\n        /* \"#utility.yul\":13510:13513   */\n      dup4\n        /* \"#utility.yul\":13451:13518   */\n      tag_113\n      jump\t// in\n    tag_265:\n        /* \"#utility.yul\":13444:13518   */\n      swap2\n      pop\n        /* \"#utility.yul\":13527:13620   */\n      tag_266\n        /* \"#utility.yul\":13616:13619   */\n      dup3\n        /* \"#utility.yul\":13527:13620   */\n      tag_120\n      jump\t// in\n    tag_266:\n        /* \"#utility.yul\":13645:13647   */\n      0x20\n        /* \"#utility.yul\":13640:13643   */\n      dup3\n        /* \"#utility.yul\":13636:13648   */\n      add\n        /* \"#utility.yul\":13629:13648   */\n      swap1\n      pop\n        /* \"#utility.yul\":13288:13654   */\n      swap2\n      swap1\n      pop\n      jump\t// out\n        /* \"#utility.yul\":13660:14079   */\n    tag_26:\n        /* \"#utility.yul\":13826:13830   */\n      0x00\n        /* \"#utility.yul\":13864:13866   */\n      0x20\n        /* \"#utility.yul\":13853:13862   */\n      dup3\n        /* \"#utility.yul\":13849:13867   */\n      add\n        /* \"#utility.yul\":13841:13867   */\n      swap1\n      pop\n        /* \"#utility.yul\":13913:13922   */\n      dup2\n        /* \"#utility.yul\":13907:13911   */\n      dup2\n        /* \"#utility.yul\":13903:13923   */\n      sub\n        /* \"#utility.yul\":13899:13900   */\n      0x00\n        /* \"#utility.yul\":13888:13897   */\n      dup4\n        /* \"#utility.yul\":13884:13901   */\n      add\n        /* \"#utility.yul\":13877:13924   */\n      mstore\n        /* \"#utility.yul\":13941:14072   */\n      tag_268\n        /* \"#utility.yul\":14067:14071   */\n      dup2\n        /* \"#utility.yul\":13941:14072   */\n      tag_121\n      jump\t// in\n    tag_268:\n        /* \"#utility.yul\":13933:14072   */\n      swap1\n      pop\n        /* \"#utility.yul\":13660:14079   */\n      swap2\n      swap1\n      pop\n      jump\t// out\n        /* \"#utility.yul\":14085:14226   */\n    tag_122:\n        /* \"#utility.yul\":14134:14138   */\n      0x00\n        /* \"#utility.yul\":14157:14160   */\n      dup2\n        /* \"#utility.yul\":14149:14160   */\n      swap1\n      pop\n        /* \"#utility.yul\":14180:14183   */\n      dup2\n        /* \"#utility.yul\":14177:14178   */\n      0x00\n        /* \"#utility.yul\":14170:14184   */\n      mstore\n        /* \"#utility.yul\":14214:14218   */\n      0x20\n        /* \"#utility.yul\":14211:14212   */\n      0x00\n        /* \"#utility.yul\":14201:14219   */\n      keccak256\n        /* \"#utility.yul\":14193:14219   */\n      swap1\n      pop\n        /* \"#utility.yul\":14085:14226   */\n      swap2\n      swap1\n      pop\n      jump\t// out\n        /* \"#utility.yul\":14232:14325   */\n    tag_123:\n        /* \"#utility.yul\":14269:14275   */\n      0x00\n        /* \"#utility.yul\":14316:14318   */\n      0x20\n        /* \"#utility.yul\":14311:14313   */\n      0x1f\n        /* \"#utility.yul\":14304:14309   */\n      dup4\n        /* \"#utility.yul\":14300:14314   */\n      add\n        /* \"#utility.yul\":14296:14319   */\n      div\n        /* \"#utility.yul\":14286:14319   */\n      swap1\n      pop\n        /* \"#utility.yul\":14232:14325   */\n      swap2\n      swap1\n      pop\n      jump\t// out\n        /* \"#utility.yul\":14331:14438   */\n    tag_124:\n        /* \"#utility.yul\":14375:14383   */\n      0x00\n        /* \"#utility.yul\":14425:14430   */\n      dup3\n        /* \"#utility.yul\":14419:14423   */\n      dup3\n        /* \"#utility.yul\":14415:14431   */\n      shl\n        /* \"#utility.yul\":14394:14431   */\n      swap1\n      pop\n        /* \"#utility.yul\":14331:14438   */\n      swap3\n      swap2\n      pop\n      pop\n      jump\t// out\n        /* \"#utility.yul\":14444:14837   */\n    tag_125:\n        /* \"#utility.yul\":14513:14519   */\n      0x00\n        /* \"#utility.yul\":14563:14564   */\n      0x08\n        /* \"#utility.yul\":14551:14561   */\n      dup4\n        /* \"#utility.yul\":14547:14565   */\n      mul\n        /* \"#utility.yul\":14586:14683   */\n      tag_273\n        /* \"#utility.yul\":14616:14682   */\n      0xffffffffffffffffffffffffffffffffffffffffffffffffffffffffffffffff\n        /* \"#utility.yul\":14605:14614   */\n      dup3\n        /* \"#utility.yul\":14586:14683   */\n      tag_124\n      jump\t// in\n    tag_273:\n        /* \"#utility.yul\":14704:14743   */\n      tag_274\n        /* \"#utility.yul\":14734:14742   */\n      dup7\n        /* \"#utility.yul\":14723:14732   */\n      dup4\n        /* \"#utility.yul\":14704:14743   */\n      tag_124\n      jump\t// in\n    tag_274:\n        /* \"#utility.yul\":14692:14743   */\n      swap6\n      pop\n        /* \"#utility.yul\":14776:14780   */\n      dup1\n        /* \"#utility.yul\":14772:14781   */\n      not\n        /* \"#utility.yul\":14765:14770   */\n      dup5\n        /* \"#utility.yul\":14761:14782   */\n      and\n        /* \"#utility.yul\":14752:14782   */\n      swap4\n      pop\n        /* \"#utility.yul\":14825:14829   */\n      dup1\n        /* \"#utility.yul\":14815:14823   */\n      dup7\n        /* \"#utility.yul\":14811:14830   */\n      and\n        /* \"#utility.yul\":14804:14809   */\n      dup5\n        /* \"#utility.yul\":14801:14831   */\n      or\n        /* \"#utility.yul\":14791:14831   */\n      swap3\n      pop\n        /* \"#utility.yul\":14520:14837   */\n      pop\n      pop\n        /* \"#utility.yul\":14444:14837   */\n      swap4\n      swap3\n      pop\n      pop\n      pop\n      jump\t// out\n        /* \"#utility.yul\":14843:14903   */\n    tag_126:\n        /* \"#utility.yul\":14871:14874   */\n      0x00\n        /* \"#utility.yul\":14892:14897   */\n      dup2\n        /* \"#utility.yul\":14885:14897   */\n      swap1\n      pop\n        /* \"#utility.yul\":14843:14903   */\n      swap2\n      swap1\n      pop\n      jump\t// out\n        /* \"#utility.yul\":14909:15051   */\n    tag_127:\n        /* \"#utility.yul\":14959:14968   */\n      0x00\n        /* \"#utility.yul\":14992:15045   */\n      tag_277\n        /* \"#utility.yul\":15010:15044   */\n      tag_278\n        /* \"#utility.yul\":15019:15043   */\n      tag_279\n        /* \"#utility.yul\":15037:15042   */\n      dup5\n        /* \"#utility.yul\":15019:15043   */\n      tag_100\n      jump\t// in\n    tag_279:\n        /* \"#utility.yul\":15010:15044   */\n      tag_126\n      jump\t// in\n    tag_278:\n        /* \"#utility.yul\":14992:15045   */\n      tag_100\n      jump\t// in\n    tag_277:\n        /* \"#utility.yul\":14979:15045   */\n      swap1\n      pop\n        /* \"#utility.yul\":14909:15051   */\n      swap2\n      swap1\n      pop\n      jump\t// out\n        /* \"#utility.yul\":15057:15132   */\n    tag_128:\n        /* \"#utility.yul\":15100:15103   */\n      0x00\n        /* \"#utility.yul\":15121:15126   */\n      dup2\n        /* \"#utility.yul\":15114:15126   */\n      swap1\n      pop\n        /* \"#utility.yul\":15057:15132   */\n      swap2\n      swap1\n      pop\n      jump\t// out\n        /* \"#utility.yul\":15138:15407   */\n    tag_129:\n        /* \"#utility.yul\":15248:15287   */\n      tag_282\n        /* \"#utility.yul\":15279:15286   */\n      dup4\n        /* \"#utility.yul\":15248:15287   */\n      tag_127\n      jump\t// in\n    tag_282:\n        /* \"#utility.yul\":15309:15400   */\n      tag_283\n        /* \"#utility.yul\":15358:15399   */\n      tag_284\n        /* \"#utility.yul\":15382:15398   */\n      dup3\n        /* \"#utility.yul\":15358:15399   */\n      tag_128\n      jump\t// in\n    tag_284:\n        /* \"#utility.yul\":15350:15356   */\n      dup5\n        /* \"#utility.yul\":15343:15347   */\n      dup5\n        /* \"#utility.yul\":15337:15348   */\n      sload\n        /* \"#utility.yul\":15309:15400   */\n      tag_125\n      jump\t// in\n    tag_283:\n        /* \"#utility.yul\":15303:15307   */\n      dup3\n        /* \"#utility.yul\":15296:15401   */\n      sstore\n        /* \"#utility.yul\":15214:15407   */\n      pop\n        /* \"#utility.yul\":15138:15407   */\n      pop\n      pop\n      pop\n      jump\t// out\n        /* \"#utility.yul\":15413:15486   */\n    tag_130:\n        /* \"#utility.yul\":15458:15461   */\n      0x00\n        /* \"#utility.yul\":15413:15486   */\n      swap1\n      jump\t// out\n        /* \"#utility.yul\":15492:15681   */\n    tag_131:\n        /* \"#utility.yul\":15569:15601   */\n      tag_287\n      tag_130\n      jump\t// in\n    tag_287:\n        /* \"#utility.yul\":15610:15675   */\n      tag_288\n        /* \"#utility.yul\":15668:15674   */\n      dup2\n        /* \"#utility.yul\":15660:15666   */\n      dup5\n        /* \"#utility.yul\":15654:15658   */\n      dup5\n        /* \"#utility.yul\":15610:15675   */\n      tag_129\n      jump\t// in\n    tag_288:\n        /* \"#utility.yul\":15545:15681   */\n      pop\n        /* \"#utility.yul\":15492:15681   */\n      pop\n      pop\n      jump\t// out\n        /* \"#utility.yul\":15687:15873   */\n    tag_132:\n        /* \"#utility.yul\":15747:15867   */\n    tag_290:\n        /* \"#utility.yul\":15764:15767   */\n      dup2\n        /* \"#utility.yul\":15757:15762   */\n      dup2\n        /* \"#utility.yul\":15754:15768   */\n      lt\n        /* \"#utility.yul\":15747:15867   */\n      iszero\n      tag_292\n      jumpi\n        /* \"#utility.yul\":15818:15857   */\n      tag_293\n        /* \"#utility.yul\":15855:15856   */\n      0x00\n        /* \"#utility.yul\":15848:15853   */\n      dup3\n        /* \"#utility.yul\":15818:15857   */\n      tag_131\n      jump\t// in\n    tag_293:\n        /* \"#utility.yul\":15791:15792   */\n      0x01\n        /* \"#utility.yul\":15784:15789   */\n      dup2\n        /* \"#utility.yul\":15780:15793   */\n      add\n        /* \"#utility.yul\":15771:15793   */\n      swap1\n      pop\n        /* \"#utility.yul\":15747:15867   */\n      jump(tag_290)\n    tag_292:\n        /* \"#utility.yul\":15687:15873   */\n      pop\n      pop\n      jump\t// out\n        /* \"#utility.yul\":15879:16422   */\n    tag_133:\n        /* \"#utility.yul\":15980:15982   */\n      0x1f\n        /* \"#utility.yul\":15975:15978   */\n      dup3\n        /* \"#utility.yul\":15972:15983   */\n      gt\n        /* \"#utility.yul\":15969:16415   */\n      iszero\n      tag_295\n      jumpi\n        /* \"#utility.yul\":16014:16052   */\n      tag_296\n        /* \"#utility.yul\":16046:16051   */\n      dup2\n        /* \"#utility.yul\":16014:16052   */\n      tag_122\n      jump\t// in\n    tag_296:\n        /* \"#utility.yul\":16098:16127   */\n      tag_297\n        /* \"#utility.yul\":16116:16126   */\n      dup5\n        /* \"#utility.yul\":16098:16127   */\n      tag_123\n      jump\t// in\n    tag_297:\n        /* \"#utility.yul\":16088:16096   */\n      dup2\n        /* \"#utility.yul\":16084:16128   */\n      add\n        /* \"#utility.yul\":16281:16283   */\n      0x20\n        /* \"#utility.yul\":16269:16279   */\n      dup6\n        /* \"#utility.yul\":16266:16284   */\n      lt\n        /* \"#utility.yul\":16263:16312   */\n      iszero\n      tag_298\n      jumpi\n        /* \"#utility.yul\":16302:16310   */\n      dup2\n        /* \"#utility.yul\":16287:16310   */\n      swap1\n      pop\n        /* \"#utility.yul\":16263:16312   */\n    tag_298:\n        /* \"#utility.yul\":16325:16405   */\n      tag_299\n        /* \"#utility.yul\":16381:16403   */\n      tag_300\n        /* \"#utility.yul\":16399:16402   */\n      dup6\n        /* \"#utility.yul\":16381:16403   */\n      tag_123\n      jump\t// in\n    tag_300:\n        /* \"#utility.yul\":16371:16379   */\n      dup4\n        /* \"#utility.yul\":16367:16404   */\n      add\n        /* \"#utility.yul\":16354:16365   */\n      dup3\n        /* \"#utility.yul\":16325:16405   */\n      tag_132\n      jump\t// in\n    tag_299:\n        /* \"#utility.yul\":15984:16415   */\n      pop\n      pop\n        /* \"#utility.yul\":15969:16415   */\n    tag_295:\n        /* \"#utility.yul\":15879:16422   */\n      pop\n      pop\n      pop\n      jump\t// out\n        /* \"#utility.yul\":16428:16545   */\n    tag_134:\n        /* \"#utility.yul\":16482:16490   */\n      0x00\n        /* \"#utility.yul\":16532:16537   */\n      dup3\n        /* \"#utility.yul\":16526:16530   */\n      dup3\n        /* \"#utility.yul\":16522:16538   */\n      shr\n        /* \"#utility.yul\":16501:16538   */\n      swap1\n      pop\n        /* \"#utility.yul\":16428:16545   */\n      swap3\n      swap2\n      pop\n      pop\n      jump\t// out\n        /* \"#utility.yul\":16551:16720   */\n    tag_135:\n        /* \"#utility.yul\":16595:16601   */\n      0x00\n        /* \"#utility.yul\":16628:16679   */\n      tag_303\n        /* \"#utility.yul\":16676:16677   */\n      0x00\n        /* \"#utility.yul\":16672:16678   */\n      not\n        /* \"#utility.yul\":16664:16669   */\n      dup5\n        /* \"#utility.yul\":16661:16662   */\n      0x08\n        /* \"#utility.yul\":16657:16670   */\n      mul\n        /* \"#utility.yul\":16628:16679   */\n      tag_134\n      jump\t// in\n    tag_303:\n        /* \"#utility.yul\":16624:16680   */\n      not\n        /* \"#utility.yul\":16709:16713   */\n      dup1\n        /* \"#utility.yul\":16703:16707   */\n      dup4\n        /* \"#utility.yul\":16699:16714   */\n      and\n        /* \"#utility.yul\":16689:16714   */\n      swap2\n      pop\n        /* \"#utility.yul\":16602:16720   */\n      pop\n        /* \"#utility.yul\":16551:16720   */\n      swap3\n      swap2\n      pop\n      pop\n      jump\t// out\n        /* \"#utility.yul\":16725:17020   */\n    tag_136:\n        /* \"#utility.yul\":16801:16805   */\n      0x00\n        /* \"#utility.yul\":16947:16976   */\n      tag_305\n        /* \"#utility.yul\":16972:16975   */\n      dup4\n        /* \"#utility.yul\":16966:16970   */\n      dup4\n        /* \"#utility.yul\":16947:16976   */\n      tag_135\n      jump\t// in\n    tag_305:\n        /* \"#utility.yul\":16939:16976   */\n      swap2\n      pop\n        /* \"#utility.yul\":17009:17012   */\n      dup3\n        /* \"#utility.yul\":17006:17007   */\n      0x02\n        /* \"#utility.yul\":17002:17013   */\n      mul\n        /* \"#utility.yul\":16996:17000   */\n      dup3\n        /* \"#utility.yul\":16993:17014   */\n      or\n        /* \"#utility.yul\":16985:17014   */\n      swap1\n      pop\n        /* \"#utility.yul\":16725:17020   */\n      swap3\n      swap2\n      pop\n      pop\n      jump\t// out\n        /* \"#utility.yul\":17025:18420   */\n    tag_28:\n        /* \"#utility.yul\":17142:17179   */\n      tag_307\n        /* \"#utility.yul\":17175:17178   */\n      dup3\n        /* \"#utility.yul\":17142:17179   */\n      tag_107\n      jump\t// in\n    tag_307:\n        /* \"#utility.yul\":17244:17262   */\n      0xffffffffffffffff\n        /* \"#utility.yul\":17236:17242   */\n      dup2\n        /* \"#utility.yul\":17233:17263   */\n      gt\n        /* \"#utility.yul\":17230:17286   */\n      iszero\n      tag_308\n      jumpi\n        /* \"#utility.yul\":17266:17284   */\n      tag_309\n      tag_93\n      jump\t// in\n    tag_309:\n        /* \"#utility.yul\":17230:17286   */\n    tag_308:\n        /* \"#utility.yul\":17310:17348   */\n      tag_310\n        /* \"#utility.yul\":17342:17346   */\n      dup3\n        /* \"#utility.yul\":17336:17347   */\n      sload\n        /* \"#utility.yul\":17310:17348   */\n      tag_37\n      jump\t// in\n    tag_310:\n        /* \"#utility.yul\":17395:17462   */\n      tag_311\n        /* \"#utility.yul\":17455:17461   */\n      dup3\n        /* \"#utility.yul\":17447:17453   */\n      dup3\n        /* \"#utility.yul\":17441:17445   */\n      dup6\n        /* \"#utility.yul\":17395:17462   */\n      tag_133\n      jump\t// in\n    tag_311:\n        /* \"#utility.yul\":17489:17490   */\n      0x00\n        /* \"#utility.yul\":17513:17517   */\n      0x20\n        /* \"#utility.yul\":17500:17517   */\n      swap1\n      pop\n        /* \"#utility.yul\":17545:17547   */\n      0x1f\n        /* \"#utility.yul\":17537:17543   */\n      dup4\n        /* \"#utility.yul\":17534:17548   */\n      gt\n        /* \"#utility.yul\":17562:17563   */\n      0x01\n        /* \"#utility.yul\":17557:18175   */\n      dup2\n      eq\n      tag_313\n      jumpi\n        /* \"#utility.yul\":18219:18220   */\n      0x00\n        /* \"#utility.yul\":18236:18242   */\n      dup5\n        /* \"#utility.yul\":18233:18310   */\n      iszero\n      tag_314\n      jumpi\n        /* \"#utility.yul\":18285:18294   */\n      dup3\n        /* \"#utility.yul\":18280:18283   */\n      dup8\n        /* \"#utility.yul\":18276:18295   */\n      add\n        /* \"#utility.yul\":18270:18296   */\n      mload\n        /* \"#utility.yul\":18261:18296   */\n      swap1\n      pop\n        /* \"#utility.yul\":18233:18310   */\n    tag_314:\n        /* \"#utility.yul\":18336:18403   */\n      tag_315\n        /* \"#utility.yul\":18396:18402   */\n      dup6\n        /* \"#utility.yul\":18389:18394   */\n      dup3\n        /* \"#utility.yul\":18336:18403   */\n      tag_136\n      jump\t// in\n    tag_315:\n        /* \"#utility.yul\":18330:18334   */\n      dup7\n        /* \"#utility.yul\":18323:18404   */\n      sstore\n        /* \"#utility.yul\":18192:18414   */\n      pop\n        /* \"#utility.yul\":17527:18414   */\n      jump(tag_312)\n        /* \"#utility.yul\":17557:18175   */\n    tag_313:\n        /* \"#utility.yul\":17609:17613   */\n      0x1f\n        /* \"#utility.yul\":17605:17614   */\n      not\n        /* \"#utility.yul\":17597:17603   */\n      dup5\n        /* \"#utility.yul\":17593:17615   */\n      and\n        /* \"#utility.yul\":17643:17680   */\n      tag_316\n        /* \"#utility.yul\":17675:17679   */\n      dup7\n        /* \"#utility.yul\":17643:17680   */\n      tag_122\n      jump\t// in\n    tag_316:\n        /* \"#utility.yul\":17702:17703   */\n      0x00\n        /* \"#utility.yul\":17716:17924   */\n    tag_317:\n        /* \"#utility.yul\":17730:17737   */\n      dup3\n        /* \"#utility.yul\":17727:17728   */\n      dup2\n        /* \"#utility.yul\":17724:17738   */\n      lt\n        /* \"#utility.yul\":17716:17924   */\n      iszero\n      tag_319\n      jumpi\n        /* \"#utility.yul\":17809:17818   */\n      dup5\n        /* \"#utility.yul\":17804:17807   */\n      dup10\n        /* \"#utility.yul\":17800:17819   */\n      add\n        /* \"#utility.yul\":17794:17820   */\n      mload\n        /* \"#utility.yul\":17786:17792   */\n      dup3\n        /* \"#utility.yul\":17779:17821   */\n      sstore\n        /* \"#utility.yul\":17860:17861   */\n      0x01\n        /* \"#utility.yul\":17852:17858   */\n      dup3\n        /* \"#utility.yul\":17848:17862   */\n      add\n        /* \"#utility.yul\":17838:17862   */\n      swap2\n      pop\n        /* \"#utility.yul\":17907:17909   */\n      0x20\n        /* \"#utility.yul\":17896:17905   */\n      dup6\n        /* \"#utility.yul\":17892:17910   */\n      add\n        /* \"#utility.yul\":17879:17910   */\n      swap5\n      pop\n        /* \"#utility.yul\":17753:17757   */\n      0x20\n        /* \"#utility.yul\":17750:17751   */\n      dup2\n        /* \"#utility.yul\":17746:17758   */\n      add\n        /* \"#utility.yul\":17741:17758   */\n      swap1\n      pop\n        /* \"#utility.yul\":17716:17924   */\n      jump(tag_317)\n    tag_319:\n        /* \"#utility.yul\":17952:17958   */\n      dup7\n        /* \"#utility.yul\":17943:17950   */\n      dup4\n        /* \"#utility.yul\":17940:17959   */\n      lt\n        /* \"#utility.yul\":17937:18116   */\n      iszero\n      tag_320\n      jumpi\n        /* \"#utility.yul\":18010:18019   */\n      dup5\n        /* \"#utility.yul\":18005:18008   */\n      dup10\n        /* \"#utility.yul\":18001:18020   */\n      add\n        /* \"#utility.yul\":17995:18021   */\n      mload\n        /* \"#utility.yul\":18053:18101   */\n      tag_321\n        /* \"#utility.yul\":18095:18099   */\n      0x1f\n        /* \"#utility.yul\":18087:18093   */\n      dup10\n        /* \"#utility.yul\":18083:18100   */\n      and\n        /* \"#utility.yul\":18072:18081   */\n      dup3\n        /* \"#utility.yul\":18053:18101   */\n      tag_135\n      jump\t// in\n    tag_321:\n        /* \"#utility.yul\":18045:18051   */\n      dup4\n        /* \"#utility.yul\":18038:18102   */\n      sstore\n        /* \"#utility.yul\":17960:18116   */\n      pop\n        /* \"#utility.yul\":17937:18116   */\n    tag_320:\n        /* \"#utility.yul\":18162:18163   */\n      0x01\n        /* \"#utility.yul\":18158:18159   */\n      0x02\n        /* \"#utility.yul\":18150:18156   */\n      dup9\n        /* \"#utility.yul\":18146:18160   */\n      mul\n        /* \"#utility.yul\":18142:18164   */\n      add\n        /* \"#utility.yul\":18136:18140   */\n      dup9\n        /* \"#utility.yul\":18129:18165   */\n      sstore\n        /* \"#utility.yul\":17564:18175   */\n      pop\n      pop\n      pop\n        /* \"#utility.yul\":17527:18414   */\n    tag_312:\n      pop\n        /* \"#utility.yul\":17117:18420   */\n      pop\n      pop\n      pop\n        /* \"#utility.yul\":17025:18420   */\n      pop\n      pop\n      jump\t// out\n\n    auxdata: 0xa2646970667358221220df67a0a9f9b3911132bb7f404553ccb7a0ed6105b8e5474c797640b89b166b2764736f6c63430008180033\n}\n",
				"bytecode": {
					"linkReferences": {},
					"object": "608060405234801561000f575f80fd5b506112508061001d5f395ff3fe608060405234801561000f575f80fd5b506004361061003f575f3560e01c806303bf1bcc146100435780636f77926b1461005f578063a87430ba1461008f575b5f80fd5b61005d60048036038101906100589190610a44565b6100c5565b005b61007960048036038101906100749190610bc7565b610275565b6040516100869190610d30565b60405180910390f35b6100a960048036038101906100a49190610bc7565b6105ae565b6040516100bc9796959493929190610da7565b60405180910390f35b7fc5d2460186f7233c927e7db2dcc703c0e500b653ca82273b7bfad8045d85a4705f803373ffffffffffffffffffffffffffffffffffffffff1673ffffffffffffffffffffffffffffffffffffffff1681526020019081526020015f206001016040516101329190610f30565b60405180910390201461017a576040517f08c379a000000000000000000000000000000000000000000000000000000000815260040161017190610f90565b60405180910390fd5b6040518060e00160405280888152602001878152602001868152602001858152602001848152602001838152602001828152505f803373ffffffffffffffffffffffffffffffffffffffff1673ffffffffffffffffffffffffffffffffffffffff1681526020019081526020015f205f820151815f0190816101fc919061114b565b506020820151816001019081610212919061114b565b506040820151816002019081610228919061114b565b50606082015181600301556080820151816004015560a0820151816005019081610252919061114b565b5060c0820151816006019081610268919061114b565b5090505050505050505050565b61027d610889565b5f808373ffffffffffffffffffffffffffffffffffffffff1673ffffffffffffffffffffffffffffffffffffffff1681526020019081526020015f206040518060e00160405290815f820180546102d390610e64565b80601f01602080910402602001604051908101604052809291908181526020018280546102ff90610e64565b801561034a5780601f106103215761010080835404028352916020019161034a565b820191905f5260205f20905b81548152906001019060200180831161032d57829003601f168201915b5050505050815260200160018201805461036390610e64565b80601f016020809104026020016040519081016040528092919081815260200182805461038f90610e64565b80156103da5780601f106103b1576101008083540402835291602001916103da565b820191905f5260205f20905b8154815290600101906020018083116103bd57829003601f168201915b505050505081526020016002820180546103f390610e64565b80601f016020809104026020016040519081016040528092919081815260200182805461041f90610e64565b801561046a5780601f106104415761010080835404028352916020019161046a565b820191905f5260205f20905b81548152906001019060200180831161044d57829003601f168201915b50505050508152602001600382015481526020016004820154815260200160058201805461049790610e64565b80601f01602080910402602001604051908101604052809291908181526020018280546104c390610e64565b801561050e5780601f106104e55761010080835404028352916020019161050e565b820191905f5260205f20905b8154815290600101906020018083116104f157829003601f168201915b5050505050815260200160068201805461052790610e64565b80601f016020809104026020016040519081016040528092919081815260200182805461055390610e64565b801561059e5780601f106105755761010080835404028352916020019161059e565b820191905f5260205f20905b81548152906001019060200180831161058157829003601f168201915b5050505050815250509050919050565b5f602052805f5260405f205f91509050805f0180546105cc90610e64565b80601f01602080910402602001604051908101604052809291908181526020018280546105f890610e64565b80156106435780601f1061061a57610100808354040283529160200191610643565b820191905f5260205f20905b81548152906001019060200180831161062657829003601f168201915b50505050509080600101805461065890610e64565b80601f016020809104026020016040519081016040528092919081815260200182805461068490610e64565b80156106cf5780601f106106a6576101008083540402835291602001916106cf565b820191905f5260205f20905b8154815290600101906020018083116106b257829003601f168201915b5050505050908060020180546106e490610e64565b80601f016020809104026020016040519081016040528092919081815260200182805461071090610e64565b801561075b5780601f106107325761010080835404028352916020019161075b565b820191905f5260205f20905b81548152906001019060200180831161073e57829003601f168201915b50505050509080600301549080600401549080600501805461077c90610e64565b80601f01602080910402602001604051908101604052809291908181526020018280546107a890610e64565b80156107f35780601f106107ca576101008083540402835291602001916107f3565b820191905f5260205f20905b8154815290600101906020018083116107d657829003601f168201915b50505050509080600601805461080890610e64565b80601f016020809104026020016040519081016040528092919081815260200182805461083490610e64565b801561087f5780601f106108565761010080835404028352916020019161087f565b820191905f5260205f20905b81548152906001019060200180831161086257829003601f168201915b5050505050905087565b6040518060e001604052806060815260200160608152602001606081526020015f81526020015f815260200160608152602001606081525090565b5f604051905090565b5f80fd5b5f80fd5b5f80fd5b5f80fd5b5f601f19601f8301169050919050565b7f4e487b71000000000000000000000000000000000000000000000000000000005f52604160045260245ffd5b610923826108dd565b810181811067ffffffffffffffff82111715610942576109416108ed565b5b80604052505050565b5f6109546108c4565b9050610960828261091a565b919050565b5f67ffffffffffffffff82111561097f5761097e6108ed565b5b610988826108dd565b9050602081019050919050565b828183375f83830152505050565b5f6109b56109b084610965565b61094b565b9050828152602081018484840111156109d1576109d06108d9565b5b6109dc848285610995565b509392505050565b5f82601f8301126109f8576109f76108d5565b5b8135610a088482602086016109a3565b91505092915050565b5f819050919050565b610a2381610a11565b8114610a2d575f80fd5b50565b5f81359050610a3e81610a1a565b92915050565b5f805f805f805f60e0888a031215610a5f57610a5e6108cd565b5b5f88013567ffffffffffffffff811115610a7c57610a7b6108d1565b5b610a888a828b016109e4565b975050602088013567ffffffffffffffff811115610aa957610aa86108d1565b5b610ab58a828b016109e4565b965050604088013567ffffffffffffffff811115610ad657610ad56108d1565b5b610ae28a828b016109e4565b9550506060610af38a828b01610a30565b9450506080610b048a828b01610a30565b93505060a088013567ffffffffffffffff811115610b2557610b246108d1565b5b610b318a828b016109e4565b92505060c088013567ffffffffffffffff811115610b5257610b516108d1565b5b610b5e8a828b016109e4565b91505092959891949750929550565b5f73ffffffffffffffffffffffffffffffffffffffff82169050919050565b5f610b9682610b6d565b9050919050565b610ba681610b8c565b8114610bb0575f80fd5b50565b5f81359050610bc181610b9d565b92915050565b5f60208284031215610bdc57610bdb6108cd565b5b5f610be984828501610bb3565b91505092915050565b5f81519050919050565b5f82825260208201905092915050565b5f5b83811015610c29578082015181840152602081019050610c0e565b5f8484015250505050565b5f610c3e82610bf2565b610c488185610bfc565b9350610c58818560208601610c0c565b610c61816108dd565b840191505092915050565b610c7581610a11565b82525050565b5f60e083015f8301518482035f860152610c958282610c34565b91505060208301518482036020860152610caf8282610c34565b91505060408301518482036040860152610cc98282610c34565b9150506060830151610cde6060860182610c6c565b506080830151610cf16080860182610c6c565b5060a083015184820360a0860152610d098282610c34565b91505060c083015184820360c0860152610d238282610c34565b9150508091505092915050565b5f6020820190508181035f830152610d488184610c7b565b905092915050565b5f82825260208201905092915050565b5f610d6a82610bf2565b610d748185610d50565b9350610d84818560208601610c0c565b610d8d816108dd565b840191505092915050565b610da181610a11565b82525050565b5f60e0820190508181035f830152610dbf818a610d60565b90508181036020830152610dd38189610d60565b90508181036040830152610de78188610d60565b9050610df66060830187610d98565b610e036080830186610d98565b81810360a0830152610e158185610d60565b905081810360c0830152610e298184610d60565b905098975050505050505050565b7f4e487b71000000000000000000000000000000000000000000000000000000005f52602260045260245ffd5b5f6002820490506001821680610e7b57607f821691505b602082108103610e8e57610e8d610e37565b5b50919050565b5f81905092915050565b5f819050815f5260205f209050919050565b5f8154610ebc81610e64565b610ec68186610e94565b9450600182165f8114610ee05760018114610ef557610f27565b60ff1983168652811515820286019350610f27565b610efe85610e9e565b5f5b83811015610f1f57815481890152600182019150602081019050610f00565b838801955050505b50505092915050565b5f610f3b8284610eb0565b915081905092915050565b7f5573657220616c726561647920726567697374657265640000000000000000005f82015250565b5f610f7a601783610d50565b9150610f8582610f46565b602082019050919050565b5f6020820190508181035f830152610fa781610f6e565b9050919050565b5f819050815f5260205f209050919050565b5f6020601f8301049050919050565b5f82821b905092915050565b5f6008830261100a7fffffffffffffffffffffffffffffffffffffffffffffffffffffffffffffffff82610fcf565b6110148683610fcf565b95508019841693508086168417925050509392505050565b5f819050919050565b5f61104f61104a61104584610a11565b61102c565b610a11565b9050919050565b5f819050919050565b61106883611035565b61107c61107482611056565b848454610fdb565b825550505050565b5f90565b611090611084565b61109b81848461105f565b505050565b5b818110156110be576110b35f82611088565b6001810190506110a1565b5050565b601f821115611103576110d481610fae565b6110dd84610fc0565b810160208510156110ec578190505b6111006110f885610fc0565b8301826110a0565b50505b505050565b5f82821c905092915050565b5f6111235f1984600802611108565b1980831691505092915050565b5f61113b8383611114565b9150826002028217905092915050565b61115482610bf2565b67ffffffffffffffff81111561116d5761116c6108ed565b5b6111778254610e64565b6111828282856110c2565b5f60209050601f8311600181146111b3575f84156111a1578287015190505b6111ab8582611130565b865550611212565b601f1984166111c186610fae565b5f5b828110156111e8578489015182556001820191506020850194506020810190506111c3565b868310156112055784890151611201601f891682611114565b8355505b6001600288020188555050505b50505050505056fea2646970667358221220df67a0a9f9b3911132bb7f404553ccb7a0ed6105b8e5474c797640b89b166b2764736f6c63430008180033",
					"opcodes": "PUSH1 0x80 PUSH1 0x40 MSTORE CALLVALUE DUP1 ISZERO PUSH2 0xF JUMPI PUSH0 DUP1 REVERT JUMPDEST POP PUSH2 0x1250 DUP1 PUSH2 0x1D PUSH0 CODECOPY PUSH0 RETURN INVALID PUSH1 0x80 PUSH1 0x40 MSTORE CALLVALUE DUP1 ISZERO PUSH2 0xF JUMPI PUSH0 DUP1 REVERT JUMPDEST POP PUSH1 0x4 CALLDATASIZE LT PUSH2 0x3F JUMPI PUSH0 CALLDATALOAD PUSH1 0xE0 SHR DUP1 PUSH4 0x3BF1BCC EQ PUSH2 0x43 JUMPI DUP1 PUSH4 0x6F77926B EQ PUSH2 0x5F JUMPI DUP1 PUSH4 0xA87430BA EQ PUSH2 0x8F JUMPI JUMPDEST PUSH0 DUP1 REVERT JUMPDEST PUSH2 0x5D PUSH1 0x4 DUP1 CALLDATASIZE SUB DUP2 ADD SWAP1 PUSH2 0x58 SWAP2 SWAP1 PUSH2 0xA44 JUMP JUMPDEST PUSH2 0xC5 JUMP JUMPDEST STOP JUMPDEST PUSH2 0x79 PUSH1 0x4 DUP1 CALLDATASIZE SUB DUP2 ADD SWAP1 PUSH2 0x74 SWAP2 SWAP1 PUSH2 0xBC7 JUMP JUMPDEST PUSH2 0x275 JUMP JUMPDEST PUSH1 0x40 MLOAD PUSH2 0x86 SWAP2 SWAP1 PUSH2 0xD30 JUMP JUMPDEST PUSH1 0x40 MLOAD DUP1 SWAP2 SUB SWAP1 RETURN JUMPDEST PUSH2 0xA9 PUSH1 0x4 DUP1 CALLDATASIZE SUB DUP2 ADD SWAP1 PUSH2 0xA4 SWAP2 SWAP1 PUSH2 0xBC7 JUMP JUMPDEST PUSH2 0x5AE JUMP JUMPDEST PUSH1 0x40 MLOAD PUSH2 0xBC SWAP8 SWAP7 SWAP6 SWAP5 SWAP4 SWAP3 SWAP2 SWAP1 PUSH2 0xDA7 JUMP JUMPDEST PUSH1 0x40 MLOAD DUP1 SWAP2 SUB SWAP1 RETURN JUMPDEST PUSH32 0xC5D2460186F7233C927E7DB2DCC703C0E500B653CA82273B7BFAD8045D85A470 PUSH0 DUP1 CALLER PUSH20 0xFFFFFFFFFFFFFFFFFFFFFFFFFFFFFFFFFFFFFFFF AND PUSH20 0xFFFFFFFFFFFFFFFFFFFFFFFFFFFFFFFFFFFFFFFF AND DUP2 MSTORE PUSH1 0x20 ADD SWAP1 DUP2 MSTORE PUSH1 0x20 ADD PUSH0 KECCAK256 PUSH1 0x1 ADD PUSH1 0x40 MLOAD PUSH2 0x132 SWAP2 SWAP1 PUSH2 0xF30 JUMP JUMPDEST PUSH1 0x40 MLOAD DUP1 SWAP2 SUB SWAP1 KECCAK256 EQ PUSH2 0x17A JUMPI PUSH1 0x40 MLOAD PUSH32 0x8C379A000000000000000000000000000000000000000000000000000000000 DUP2 MSTORE PUSH1 0x4 ADD PUSH2 0x171 SWAP1 PUSH2 0xF90 JUMP JUMPDEST PUSH1 0x40 MLOAD DUP1 SWAP2 SUB SWAP1 REVERT JUMPDEST PUSH1 0x40 MLOAD DUP1 PUSH1 0xE0 ADD PUSH1 0x40 MSTORE DUP1 DUP9 DUP2 MSTORE PUSH1 0x20 ADD DUP8 DUP2 MSTORE PUSH1 0x20 ADD DUP7 DUP2 MSTORE PUSH1 0x20 ADD DUP6 DUP2 MSTORE PUSH1 0x20 ADD DUP5 DUP2 MSTORE PUSH1 0x20 ADD DUP4 DUP2 MSTORE PUSH1 0x20 ADD DUP3 DUP2 MSTORE POP PUSH0 DUP1 CALLER PUSH20 0xFFFFFFFFFFFFFFFFFFFFFFFFFFFFFFFFFFFFFFFF AND PUSH20 0xFFFFFFFFFFFFFFFFFFFFFFFFFFFFFFFFFFFFFFFF AND DUP2 MSTORE PUSH1 0x20 ADD SWAP1 DUP2 MSTORE PUSH1 0x20 ADD PUSH0 KECCAK256 PUSH0 DUP3 ADD MLOAD DUP2 PUSH0 ADD SWAP1 DUP2 PUSH2 0x1FC SWAP2 SWAP1 PUSH2 0x114B JUMP JUMPDEST POP PUSH1 0x20 DUP3 ADD MLOAD DUP2 PUSH1 0x1 ADD SWAP1 DUP2 PUSH2 0x212 SWAP2 SWAP1 PUSH2 0x114B JUMP JUMPDEST POP PUSH1 0x40 DUP3 ADD MLOAD DUP2 PUSH1 0x2 ADD SWAP1 DUP2 PUSH2 0x228 SWAP2 SWAP1 PUSH2 0x114B JUMP JUMPDEST POP PUSH1 0x60 DUP3 ADD MLOAD DUP2 PUSH1 0x3 ADD SSTORE PUSH1 0x80 DUP3 ADD MLOAD DUP2 PUSH1 0x4 ADD SSTORE PUSH1 0xA0 DUP3 ADD MLOAD DUP2 PUSH1 0x5 ADD SWAP1 DUP2 PUSH2 0x252 SWAP2 SWAP1 PUSH2 0x114B JUMP JUMPDEST POP PUSH1 0xC0 DUP3 ADD MLOAD DUP2 PUSH1 0x6 ADD SWAP1 DUP2 PUSH2 0x268 SWAP2 SWAP1 PUSH2 0x114B JUMP JUMPDEST POP SWAP1 POP POP POP POP POP POP POP POP POP JUMP JUMPDEST PUSH2 0x27D PUSH2 0x889 JUMP JUMPDEST PUSH0 DUP1 DUP4 PUSH20 0xFFFFFFFFFFFFFFFFFFFFFFFFFFFFFFFFFFFFFFFF AND PUSH20 0xFFFFFFFFFFFFFFFFFFFFFFFFFFFFFFFFFFFFFFFF AND DUP2 MSTORE PUSH1 0x20 ADD SWAP1 DUP2 MSTORE PUSH1 0x20 ADD PUSH0 KECCAK256 PUSH1 0x40 MLOAD DUP1 PUSH1 0xE0 ADD PUSH1 0x40 MSTORE SWAP1 DUP2 PUSH0 DUP3 ADD DUP1 SLOAD PUSH2 0x2D3 SWAP1 PUSH2 0xE64 JUMP JUMPDEST DUP1 PUSH1 0x1F ADD PUSH1 0x20 DUP1 SWAP2 DIV MUL PUSH1 0x20 ADD PUSH1 0x40 MLOAD SWAP1 DUP2 ADD PUSH1 0x40 MSTORE DUP1 SWAP3 SWAP2 SWAP1 DUP2 DUP2 MSTORE PUSH1 0x20 ADD DUP3 DUP1 SLOAD PUSH2 0x2FF SWAP1 PUSH2 0xE64 JUMP JUMPDEST DUP1 ISZERO PUSH2 0x34A JUMPI DUP1 PUSH1 0x1F LT PUSH2 0x321 JUMPI PUSH2 0x100 DUP1 DUP4 SLOAD DIV MUL DUP4 MSTORE SWAP2 PUSH1 0x20 ADD SWAP2 PUSH2 0x34A JUMP JUMPDEST DUP3 ADD SWAP2 SWAP1 PUSH0 MSTORE PUSH1 0x20 PUSH0 KECCAK256 SWAP1 JUMPDEST DUP2 SLOAD DUP2 MSTORE SWAP1 PUSH1 0x1 ADD SWAP1 PUSH1 0x20 ADD DUP1 DUP4 GT PUSH2 0x32D JUMPI DUP3 SWAP1 SUB PUSH1 0x1F AND DUP3 ADD SWAP2 JUMPDEST POP POP POP POP POP DUP2 MSTORE PUSH1 0x20 ADD PUSH1 0x1 DUP3 ADD DUP1 SLOAD PUSH2 0x363 SWAP1 PUSH2 0xE64 JUMP JUMPDEST DUP1 PUSH1 0x1F ADD PUSH1 0x20 DUP1 SWAP2 DIV MUL PUSH1 0x20 ADD PUSH1 0x40 MLOAD SWAP1 DUP2 ADD PUSH1 0x40 MSTORE DUP1 SWAP3 SWAP2 SWAP1 DUP2 DUP2 MSTORE PUSH1 0x20 ADD DUP3 DUP1 SLOAD PUSH2 0x38F SWAP1 PUSH2 0xE64 JUMP JUMPDEST DUP1 ISZERO PUSH2 0x3DA JUMPI DUP1 PUSH1 0x1F LT PUSH2 0x3B1 JUMPI PUSH2 0x100 DUP1 DUP4 SLOAD DIV MUL DUP4 MSTORE SWAP2 PUSH1 0x20 ADD SWAP2 PUSH2 0x3DA JUMP JUMPDEST DUP3 ADD SWAP2 SWAP1 PUSH0 MSTORE PUSH1 0x20 PUSH0 KECCAK256 SWAP1 JUMPDEST DUP2 SLOAD DUP2 MSTORE SWAP1 PUSH1 0x1 ADD SWAP1 PUSH1 0x20 ADD DUP1 DUP4 GT PUSH2 0x3BD JUMPI DUP3 SWAP1 SUB PUSH1 0x1F AND DUP3 ADD SWAP2 JUMPDEST POP POP POP POP POP DUP2 MSTORE PUSH1 0x20 ADD PUSH1 0x2 DUP3 ADD DUP1 SLOAD PUSH2 0x3F3 SWAP1 PUSH2 0xE64 JUMP JUMPDEST DUP1 PUSH1 0x1F ADD PUSH1 0x20 DUP1 SWAP2 DIV MUL PUSH1 0x20 ADD PUSH1 0x40 MLOAD SWAP1 DUP2 ADD PUSH1 0x40 MSTORE DUP1 SWAP3 SWAP2 SWAP1 DUP2 DUP2 MSTORE PUSH1 0x20 ADD DUP3 DUP1 SLOAD PUSH2 0x41F SWAP1 PUSH2 0xE64 JUMP JUMPDEST DUP1 ISZERO PUSH2 0x46A JUMPI DUP1 PUSH1 0x1F LT PUSH2 0x441 JUMPI PUSH2 0x100 DUP1 DUP4 SLOAD DIV MUL DUP4 MSTORE SWAP2 PUSH1 0x20 ADD SWAP2 PUSH2 0x46A JUMP JUMPDEST DUP3 ADD SWAP2 SWAP1 PUSH0 MSTORE PUSH1 0x20 PUSH0 KECCAK256 SWAP1 JUMPDEST DUP2 SLOAD DUP2 MSTORE SWAP1 PUSH1 0x1 ADD SWAP1 PUSH1 0x20 ADD DUP1 DUP4 GT PUSH2 0x44D JUMPI DUP3 SWAP1 SUB PUSH1 0x1F AND DUP3 ADD SWAP2 JUMPDEST POP POP POP POP POP DUP2 MSTORE PUSH1 0x20 ADD PUSH1 0x3 DUP3 ADD SLOAD DUP2 MSTORE PUSH1 0x20 ADD PUSH1 0x4 DUP3 ADD SLOAD DUP2 MSTORE PUSH1 0x20 ADD PUSH1 0x5 DUP3 ADD DUP1 SLOAD PUSH2 0x497 SWAP1 PUSH2 0xE64 JUMP JUMPDEST DUP1 PUSH1 0x1F ADD PUSH1 0x20 DUP1 SWAP2 DIV MUL PUSH1 0x20 ADD PUSH1 0x40 MLOAD SWAP1 DUP2 ADD PUSH1 0x40 MSTORE DUP1 SWAP3 SWAP2 SWAP1 DUP2 DUP2 MSTORE PUSH1 0x20 ADD DUP3 DUP1 SLOAD PUSH2 0x4C3 SWAP1 PUSH2 0xE64 JUMP JUMPDEST DUP1 ISZERO PUSH2 0x50E JUMPI DUP1 PUSH1 0x1F LT PUSH2 0x4E5 JUMPI PUSH2 0x100 DUP1 DUP4 SLOAD DIV MUL DUP4 MSTORE SWAP2 PUSH1 0x20 ADD SWAP2 PUSH2 0x50E JUMP JUMPDEST DUP3 ADD SWAP2 SWAP1 PUSH0 MSTORE PUSH1 0x20 PUSH0 KECCAK256 SWAP1 JUMPDEST DUP2 SLOAD DUP2 MSTORE SWAP1 PUSH1 0x1 ADD SWAP1 PUSH1 0x20 ADD DUP1 DUP4 GT PUSH2 0x4F1 JUMPI DUP3 SWAP1 SUB PUSH1 0x1F AND DUP3 ADD SWAP2 JUMPDEST POP POP POP POP POP DUP2 MSTORE PUSH1 0x20 ADD PUSH1 0x6 DUP3 ADD DUP1 SLOAD PUSH2 0x527 SWAP1 PUSH2 0xE64 JUMP JUMPDEST DUP1 PUSH1 0x1F ADD PUSH1 0x20 DUP1 SWAP2 DIV MUL PUSH1 0x20 ADD PUSH1 0x40 MLOAD SWAP1 DUP2 ADD PUSH1 0x40 MSTORE DUP1 SWAP3 SWAP2 SWAP1 DUP2 DUP2 MSTORE PUSH1 0x20 ADD DUP3 DUP1 SLOAD PUSH2 0x553 SWAP1 PUSH2 0xE64 JUMP JUMPDEST DUP1 ISZERO PUSH2 0x59E JUMPI DUP1 PUSH1 0x1F LT PUSH2 0x575 JUMPI PUSH2 0x100 DUP1 DUP4 SLOAD DIV MUL DUP4 MSTORE SWAP2 PUSH1 0x20 ADD SWAP2 PUSH2 0x59E JUMP JUMPDEST DUP3 ADD SWAP2 SWAP1 PUSH0 MSTORE PUSH1 0x20 PUSH0 KECCAK256 SWAP1 JUMPDEST DUP2 SLOAD DUP2 MSTORE SWAP1 PUSH1 0x1 ADD SWAP1 PUSH1 0x20 ADD DUP1 DUP4 GT PUSH2 0x581 JUMPI DUP3 SWAP1 SUB PUSH1 0x1F AND DUP3 ADD SWAP2 JUMPDEST POP POP POP POP POP DUP2 MSTORE POP POP SWAP1 POP SWAP2 SWAP1 POP JUMP JUMPDEST PUSH0 PUSH1 0x20 MSTORE DUP1 PUSH0 MSTORE PUSH1 0x40 PUSH0 KECCAK256 PUSH0 SWAP2 POP SWAP1 POP DUP1 PUSH0 ADD DUP1 SLOAD PUSH2 0x5CC SWAP1 PUSH2 0xE64 JUMP JUMPDEST DUP1 PUSH1 0x1F ADD PUSH1 0x20 DUP1 SWAP2 DIV MUL PUSH1 0x20 ADD PUSH1 0x40 MLOAD SWAP1 DUP2 ADD PUSH1 0x40 MSTORE DUP1 SWAP3 SWAP2 SWAP1 DUP2 DUP2 MSTORE PUSH1 0x20 ADD DUP3 DUP1 SLOAD PUSH2 0x5F8 SWAP1 PUSH2 0xE64 JUMP JUMPDEST DUP1 ISZERO PUSH2 0x643 JUMPI DUP1 PUSH1 0x1F LT PUSH2 0x61A JUMPI PUSH2 0x100 DUP1 DUP4 SLOAD DIV MUL DUP4 MSTORE SWAP2 PUSH1 0x20 ADD SWAP2 PUSH2 0x643 JUMP JUMPDEST DUP3 ADD SWAP2 SWAP1 PUSH0 MSTORE PUSH1 0x20 PUSH0 KECCAK256 SWAP1 JUMPDEST DUP2 SLOAD DUP2 MSTORE SWAP1 PUSH1 0x1 ADD SWAP1 PUSH1 0x20 ADD DUP1 DUP4 GT PUSH2 0x626 JUMPI DUP3 SWAP1 SUB PUSH1 0x1F AND DUP3 ADD SWAP2 JUMPDEST POP POP POP POP POP SWAP1 DUP1 PUSH1 0x1 ADD DUP1 SLOAD PUSH2 0x658 SWAP1 PUSH2 0xE64 JUMP JUMPDEST DUP1 PUSH1 0x1F ADD PUSH1 0x20 DUP1 SWAP2 DIV MUL PUSH1 0x20 ADD PUSH1 0x40 MLOAD SWAP1 DUP2 ADD PUSH1 0x40 MSTORE DUP1 SWAP3 SWAP2 SWAP1 DUP2 DUP2 MSTORE PUSH1 0x20 ADD DUP3 DUP1 SLOAD PUSH2 0x684 SWAP1 PUSH2 0xE64 JUMP JUMPDEST DUP1 ISZERO PUSH2 0x6CF JUMPI DUP1 PUSH1 0x1F LT PUSH2 0x6A6 JUMPI PUSH2 0x100 DUP1 DUP4 SLOAD DIV MUL DUP4 MSTORE SWAP2 PUSH1 0x20 ADD SWAP2 PUSH2 0x6CF JUMP JUMPDEST DUP3 ADD SWAP2 SWAP1 PUSH0 MSTORE PUSH1 0x20 PUSH0 KECCAK256 SWAP1 JUMPDEST DUP2 SLOAD DUP2 MSTORE SWAP1 PUSH1 0x1 ADD SWAP1 PUSH1 0x20 ADD DUP1 DUP4 GT PUSH2 0x6B2 JUMPI DUP3 SWAP1 SUB PUSH1 0x1F AND DUP3 ADD SWAP2 JUMPDEST POP POP POP POP POP SWAP1 DUP1 PUSH1 0x2 ADD DUP1 SLOAD PUSH2 0x6E4 SWAP1 PUSH2 0xE64 JUMP JUMPDEST DUP1 PUSH1 0x1F ADD PUSH1 0x20 DUP1 SWAP2 DIV MUL PUSH1 0x20 ADD PUSH1 0x40 MLOAD SWAP1 DUP2 ADD PUSH1 0x40 MSTORE DUP1 SWAP3 SWAP2 SWAP1 DUP2 DUP2 MSTORE PUSH1 0x20 ADD DUP3 DUP1 SLOAD PUSH2 0x710 SWAP1 PUSH2 0xE64 JUMP JUMPDEST DUP1 ISZERO PUSH2 0x75B JUMPI DUP1 PUSH1 0x1F LT PUSH2 0x732 JUMPI PUSH2 0x100 DUP1 DUP4 SLOAD DIV MUL DUP4 MSTORE SWAP2 PUSH1 0x20 ADD SWAP2 PUSH2 0x75B JUMP JUMPDEST DUP3 ADD SWAP2 SWAP1 PUSH0 MSTORE PUSH1 0x20 PUSH0 KECCAK256 SWAP1 JUMPDEST DUP2 SLOAD DUP2 MSTORE SWAP1 PUSH1 0x1 ADD SWAP1 PUSH1 0x20 ADD DUP1 DUP4 GT PUSH2 0x73E JUMPI DUP3 SWAP1 SUB PUSH1 0x1F AND DUP3 ADD SWAP2 JUMPDEST POP POP POP POP POP SWAP1 DUP1 PUSH1 0x3 ADD SLOAD SWAP1 DUP1 PUSH1 0x4 ADD SLOAD SWAP1 DUP1 PUSH1 0x5 ADD DUP1 SLOAD PUSH2 0x77C SWAP1 PUSH2 0xE64 JUMP JUMPDEST DUP1 PUSH1 0x1F ADD PUSH1 0x20 DUP1 SWAP2 DIV MUL PUSH1 0x20 ADD PUSH1 0x40 MLOAD SWAP1 DUP2 ADD PUSH1 0x40 MSTORE DUP1 SWAP3 SWAP2 SWAP1 DUP2 DUP2 MSTORE PUSH1 0x20 ADD DUP3 DUP1 SLOAD PUSH2 0x7A8 SWAP1 PUSH2 0xE64 JUMP JUMPDEST DUP1 ISZERO PUSH2 0x7F3 JUMPI DUP1 PUSH1 0x1F LT PUSH2 0x7CA JUMPI PUSH2 0x100 DUP1 DUP4 SLOAD DIV MUL DUP4 MSTORE SWAP2 PUSH1 0x20 ADD SWAP2 PUSH2 0x7F3 JUMP JUMPDEST DUP3 ADD SWAP2 SWAP1 PUSH0 MSTORE PUSH1 0x20 PUSH0 KECCAK256 SWAP1 JUMPDEST DUP2 SLOAD DUP2 MSTORE SWAP1 PUSH1 0x1 ADD SWAP1 PUSH1 0x20 ADD DUP1 DUP4 GT PUSH2 0x7D6 JUMPI DUP3 SWAP1 SUB PUSH1 0x1F AND DUP3 ADD SWAP2 JUMPDEST POP POP POP POP POP SWAP1 DUP1 PUSH1 0x6 ADD DUP1 SLOAD PUSH2 0x808 SWAP1 PUSH2 0xE64 JUMP JUMPDEST DUP1 PUSH1 0x1F ADD PUSH1 0x20 DUP1 SWAP2 DIV MUL PUSH1 0x20 ADD PUSH1 0x40 MLOAD SWAP1 DUP2 ADD PUSH1 0x40 MSTORE DUP1 SWAP3 SWAP2 SWAP1 DUP2 DUP2 MSTORE PUSH1 0x20 ADD DUP3 DUP1 SLOAD PUSH2 0x834 SWAP1 PUSH2 0xE64 JUMP JUMPDEST DUP1 ISZERO PUSH2 0x87F JUMPI DUP1 PUSH1 0x1F LT PUSH2 0x856 JUMPI PUSH2 0x100 DUP1 DUP4 SLOAD DIV MUL DUP4 MSTORE SWAP2 PUSH1 0x20 ADD SWAP2 PUSH2 0x87F JUMP JUMPDEST DUP3 ADD SWAP2 SWAP1 PUSH0 MSTORE PUSH1 0x20 PUSH0 KECCAK256 SWAP1 JUMPDEST DUP2 SLOAD DUP2 MSTORE SWAP1 PUSH1 0x1 ADD SWAP1 PUSH1 0x20 ADD DUP1 DUP4 GT PUSH2 0x862 JUMPI DUP3 SWAP1 SUB PUSH1 0x1F AND DUP3 ADD SWAP2 JUMPDEST POP POP POP POP POP SWAP1 POP DUP8 JUMP JUMPDEST PUSH1 0x40 MLOAD DUP1 PUSH1 0xE0 ADD PUSH1 0x40 MSTORE DUP1 PUSH1 0x60 DUP2 MSTORE PUSH1 0x20 ADD PUSH1 0x60 DUP2 MSTORE PUSH1 0x20 ADD PUSH1 0x60 DUP2 MSTORE PUSH1 0x20 ADD PUSH0 DUP2 MSTORE PUSH1 0x20 ADD PUSH0 DUP2 MSTORE PUSH1 0x20 ADD PUSH1 0x60 DUP2 MSTORE PUSH1 0x20 ADD PUSH1 0x60 DUP2 MSTORE POP SWAP1 JUMP JUMPDEST PUSH0 PUSH1 0x40 MLOAD SWAP1 POP SWAP1 JUMP JUMPDEST PUSH0 DUP1 REVERT JUMPDEST PUSH0 DUP1 REVERT JUMPDEST PUSH0 DUP1 REVERT JUMPDEST PUSH0 DUP1 REVERT JUMPDEST PUSH0 PUSH1 0x1F NOT PUSH1 0x1F DUP4 ADD AND SWAP1 POP SWAP2 SWAP1 POP JUMP JUMPDEST PUSH32 0x4E487B7100000000000000000000000000000000000000000000000000000000 PUSH0 MSTORE PUSH1 0x41 PUSH1 0x4 MSTORE PUSH1 0x24 PUSH0 REVERT JUMPDEST PUSH2 0x923 DUP3 PUSH2 0x8DD JUMP JUMPDEST DUP2 ADD DUP2 DUP2 LT PUSH8 0xFFFFFFFFFFFFFFFF DUP3 GT OR ISZERO PUSH2 0x942 JUMPI PUSH2 0x941 PUSH2 0x8ED JUMP JUMPDEST JUMPDEST DUP1 PUSH1 0x40 MSTORE POP POP POP JUMP JUMPDEST PUSH0 PUSH2 0x954 PUSH2 0x8C4 JUMP JUMPDEST SWAP1 POP PUSH2 0x960 DUP3 DUP3 PUSH2 0x91A JUMP JUMPDEST SWAP2 SWAP1 POP JUMP JUMPDEST PUSH0 PUSH8 0xFFFFFFFFFFFFFFFF DUP3 GT ISZERO PUSH2 0x97F JUMPI PUSH2 0x97E PUSH2 0x8ED JUMP JUMPDEST JUMPDEST PUSH2 0x988 DUP3 PUSH2 0x8DD JUMP JUMPDEST SWAP1 POP PUSH1 0x20 DUP2 ADD SWAP1 POP SWAP2 SWAP1 POP JUMP JUMPDEST DUP3 DUP2 DUP4 CALLDATACOPY PUSH0 DUP4 DUP4 ADD MSTORE POP POP POP JUMP JUMPDEST PUSH0 PUSH2 0x9B5 PUSH2 0x9B0 DUP5 PUSH2 0x965 JUMP JUMPDEST PUSH2 0x94B JUMP JUMPDEST SWAP1 POP DUP3 DUP2 MSTORE PUSH1 0x20 DUP2 ADD DUP5 DUP5 DUP5 ADD GT ISZERO PUSH2 0x9D1 JUMPI PUSH2 0x9D0 PUSH2 0x8D9 JUMP JUMPDEST JUMPDEST PUSH2 0x9DC DUP5 DUP3 DUP6 PUSH2 0x995 JUMP JUMPDEST POP SWAP4 SWAP3 POP POP POP JUMP JUMPDEST PUSH0 DUP3 PUSH1 0x1F DUP4 ADD SLT PUSH2 0x9F8 JUMPI PUSH2 0x9F7 PUSH2 0x8D5 JUMP JUMPDEST JUMPDEST DUP2 CALLDATALOAD PUSH2 0xA08 DUP5 DUP3 PUSH1 0x20 DUP7 ADD PUSH2 0x9A3 JUMP JUMPDEST SWAP2 POP POP SWAP3 SWAP2 POP POP JUMP JUMPDEST PUSH0 DUP2 SWAP1 POP SWAP2 SWAP1 POP JUMP JUMPDEST PUSH2 0xA23 DUP2 PUSH2 0xA11 JUMP JUMPDEST DUP2 EQ PUSH2 0xA2D JUMPI PUSH0 DUP1 REVERT JUMPDEST POP JUMP JUMPDEST PUSH0 DUP2 CALLDATALOAD SWAP1 POP PUSH2 0xA3E DUP2 PUSH2 0xA1A JUMP JUMPDEST SWAP3 SWAP2 POP POP JUMP JUMPDEST PUSH0 DUP1 PUSH0 DUP1 PUSH0 DUP1 PUSH0 PUSH1 0xE0 DUP9 DUP11 SUB SLT ISZERO PUSH2 0xA5F JUMPI PUSH2 0xA5E PUSH2 0x8CD JUMP JUMPDEST JUMPDEST PUSH0 DUP9 ADD CALLDATALOAD PUSH8 0xFFFFFFFFFFFFFFFF DUP2 GT ISZERO PUSH2 0xA7C JUMPI PUSH2 0xA7B PUSH2 0x8D1 JUMP JUMPDEST JUMPDEST PUSH2 0xA88 DUP11 DUP3 DUP12 ADD PUSH2 0x9E4 JUMP JUMPDEST SWAP8 POP POP PUSH1 0x20 DUP9 ADD CALLDATALOAD PUSH8 0xFFFFFFFFFFFFFFFF DUP2 GT ISZERO PUSH2 0xAA9 JUMPI PUSH2 0xAA8 PUSH2 0x8D1 JUMP JUMPDEST JUMPDEST PUSH2 0xAB5 DUP11 DUP3 DUP12 ADD PUSH2 0x9E4 JUMP JUMPDEST SWAP7 POP POP PUSH1 0x40 DUP9 ADD CALLDATALOAD PUSH8 0xFFFFFFFFFFFFFFFF DUP2 GT ISZERO PUSH2 0xAD6 JUMPI PUSH2 0xAD5 PUSH2 0x8D1 JUMP JUMPDEST JUMPDEST PUSH2 0xAE2 DUP11 DUP3 DUP12 ADD PUSH2 0x9E4 JUMP JUMPDEST SWAP6 POP POP PUSH1 0x60 PUSH2 0xAF3 DUP11 DUP3 DUP12 ADD PUSH2 0xA30 JUMP JUMPDEST SWAP5 POP POP PUSH1 0x80 PUSH2 0xB04 DUP11 DUP3 DUP12 ADD PUSH2 0xA30 JUMP JUMPDEST SWAP4 POP POP PUSH1 0xA0 DUP9 ADD CALLDATALOAD PUSH8 0xFFFFFFFFFFFFFFFF DUP2 GT ISZERO PUSH2 0xB25 JUMPI PUSH2 0xB24 PUSH2 0x8D1 JUMP JUMPDEST JUMPDEST PUSH2 0xB31 DUP11 DUP3 DUP12 ADD PUSH2 0x9E4 JUMP JUMPDEST SWAP3 POP POP PUSH1 0xC0 DUP9 ADD CALLDATALOAD PUSH8 0xFFFFFFFFFFFFFFFF DUP2 GT ISZERO PUSH2 0xB52 JUMPI PUSH2 0xB51 PUSH2 0x8D1 JUMP JUMPDEST JUMPDEST PUSH2 0xB5E DUP11 DUP3 DUP12 ADD PUSH2 0x9E4 JUMP JUMPDEST SWAP2 POP POP SWAP3 SWAP6 SWAP9 SWAP2 SWAP5 SWAP8 POP SWAP3 SWAP6 POP JUMP JUMPDEST PUSH0 PUSH20 0xFFFFFFFFFFFFFFFFFFFFFFFFFFFFFFFFFFFFFFFF DUP3 AND SWAP1 POP SWAP2 SWAP1 POP JUMP JUMPDEST PUSH0 PUSH2 0xB96 DUP3 PUSH2 0xB6D JUMP JUMPDEST SWAP1 POP SWAP2 SWAP1 POP JUMP JUMPDEST PUSH2 0xBA6 DUP2 PUSH2 0xB8C JUMP JUMPDEST DUP2 EQ PUSH2 0xBB0 JUMPI PUSH0 DUP1 REVERT JUMPDEST POP JUMP JUMPDEST PUSH0 DUP2 CALLDATALOAD SWAP1 POP PUSH2 0xBC1 DUP2 PUSH2 0xB9D JUMP JUMPDEST SWAP3 SWAP2 POP POP JUMP JUMPDEST PUSH0 PUSH1 0x20 DUP3 DUP5 SUB SLT ISZERO PUSH2 0xBDC JUMPI PUSH2 0xBDB PUSH2 0x8CD JUMP JUMPDEST JUMPDEST PUSH0 PUSH2 0xBE9 DUP5 DUP3 DUP6 ADD PUSH2 0xBB3 JUMP JUMPDEST SWAP2 POP POP SWAP3 SWAP2 POP POP JUMP JUMPDEST PUSH0 DUP2 MLOAD SWAP1 POP SWAP2 SWAP1 POP JUMP JUMPDEST PUSH0 DUP3 DUP3 MSTORE PUSH1 0x20 DUP3 ADD SWAP1 POP SWAP3 SWAP2 POP POP JUMP JUMPDEST PUSH0 JUMPDEST DUP4 DUP2 LT ISZERO PUSH2 0xC29 JUMPI DUP1 DUP3 ADD MLOAD DUP2 DUP5 ADD MSTORE PUSH1 0x20 DUP2 ADD SWAP1 POP PUSH2 0xC0E JUMP JUMPDEST PUSH0 DUP5 DUP5 ADD MSTORE POP POP POP POP JUMP JUMPDEST PUSH0 PUSH2 0xC3E DUP3 PUSH2 0xBF2 JUMP JUMPDEST PUSH2 0xC48 DUP2 DUP6 PUSH2 0xBFC JUMP JUMPDEST SWAP4 POP PUSH2 0xC58 DUP2 DUP6 PUSH1 0x20 DUP7 ADD PUSH2 0xC0C JUMP JUMPDEST PUSH2 0xC61 DUP2 PUSH2 0x8DD JUMP JUMPDEST DUP5 ADD SWAP2 POP POP SWAP3 SWAP2 POP POP JUMP JUMPDEST PUSH2 0xC75 DUP2 PUSH2 0xA11 JUMP JUMPDEST DUP3 MSTORE POP POP JUMP JUMPDEST PUSH0 PUSH1 0xE0 DUP4 ADD PUSH0 DUP4 ADD MLOAD DUP5 DUP3 SUB PUSH0 DUP7 ADD MSTORE PUSH2 0xC95 DUP3 DUP3 PUSH2 0xC34 JUMP JUMPDEST SWAP2 POP POP PUSH1 0x20 DUP4 ADD MLOAD DUP5 DUP3 SUB PUSH1 0x20 DUP7 ADD MSTORE PUSH2 0xCAF DUP3 DUP3 PUSH2 0xC34 JUMP JUMPDEST SWAP2 POP POP PUSH1 0x40 DUP4 ADD MLOAD DUP5 DUP3 SUB PUSH1 0x40 DUP7 ADD MSTORE PUSH2 0xCC9 DUP3 DUP3 PUSH2 0xC34 JUMP JUMPDEST SWAP2 POP POP PUSH1 0x60 DUP4 ADD MLOAD PUSH2 0xCDE PUSH1 0x60 DUP7 ADD DUP3 PUSH2 0xC6C JUMP JUMPDEST POP PUSH1 0x80 DUP4 ADD MLOAD PUSH2 0xCF1 PUSH1 0x80 DUP7 ADD DUP3 PUSH2 0xC6C JUMP JUMPDEST POP PUSH1 0xA0 DUP4 ADD MLOAD DUP5 DUP3 SUB PUSH1 0xA0 DUP7 ADD MSTORE PUSH2 0xD09 DUP3 DUP3 PUSH2 0xC34 JUMP JUMPDEST SWAP2 POP POP PUSH1 0xC0 DUP4 ADD MLOAD DUP5 DUP3 SUB PUSH1 0xC0 DUP7 ADD MSTORE PUSH2 0xD23 DUP3 DUP3 PUSH2 0xC34 JUMP JUMPDEST SWAP2 POP POP DUP1 SWAP2 POP POP SWAP3 SWAP2 POP POP JUMP JUMPDEST PUSH0 PUSH1 0x20 DUP3 ADD SWAP1 POP DUP2 DUP2 SUB PUSH0 DUP4 ADD MSTORE PUSH2 0xD48 DUP2 DUP5 PUSH2 0xC7B JUMP JUMPDEST SWAP1 POP SWAP3 SWAP2 POP POP JUMP JUMPDEST PUSH0 DUP3 DUP3 MSTORE PUSH1 0x20 DUP3 ADD SWAP1 POP SWAP3 SWAP2 POP POP JUMP JUMPDEST PUSH0 PUSH2 0xD6A DUP3 PUSH2 0xBF2 JUMP JUMPDEST PUSH2 0xD74 DUP2 DUP6 PUSH2 0xD50 JUMP JUMPDEST SWAP4 POP PUSH2 0xD84 DUP2 DUP6 PUSH1 0x20 DUP7 ADD PUSH2 0xC0C JUMP JUMPDEST PUSH2 0xD8D DUP2 PUSH2 0x8DD JUMP JUMPDEST DUP5 ADD SWAP2 POP POP SWAP3 SWAP2 POP POP JUMP JUMPDEST PUSH2 0xDA1 DUP2 PUSH2 0xA11 JUMP JUMPDEST DUP3 MSTORE POP POP JUMP JUMPDEST PUSH0 PUSH1 0xE0 DUP3 ADD SWAP1 POP DUP2 DUP2 SUB PUSH0 DUP4 ADD MSTORE PUSH2 0xDBF DUP2 DUP11 PUSH2 0xD60 JUMP JUMPDEST SWAP1 POP DUP2 DUP2 SUB PUSH1 0x20 DUP4 ADD MSTORE PUSH2 0xDD3 DUP2 DUP10 PUSH2 0xD60 JUMP JUMPDEST SWAP1 POP DUP2 DUP2 SUB PUSH1 0x40 DUP4 ADD MSTORE PUSH2 0xDE7 DUP2 DUP9 PUSH2 0xD60 JUMP JUMPDEST SWAP1 POP PUSH2 0xDF6 PUSH1 0x60 DUP4 ADD DUP8 PUSH2 0xD98 JUMP JUMPDEST PUSH2 0xE03 PUSH1 0x80 DUP4 ADD DUP7 PUSH2 0xD98 JUMP JUMPDEST DUP2 DUP2 SUB PUSH1 0xA0 DUP4 ADD MSTORE PUSH2 0xE15 DUP2 DUP6 PUSH2 0xD60 JUMP JUMPDEST SWAP1 POP DUP2 DUP2 SUB PUSH1 0xC0 DUP4 ADD MSTORE PUSH2 0xE29 DUP2 DUP5 PUSH2 0xD60 JUMP JUMPDEST SWAP1 POP SWAP9 SWAP8 POP POP POP POP POP POP POP POP JUMP JUMPDEST PUSH32 0x4E487B7100000000000000000000000000000000000000000000000000000000 PUSH0 MSTORE PUSH1 0x22 PUSH1 0x4 MSTORE PUSH1 0x24 PUSH0 REVERT JUMPDEST PUSH0 PUSH1 0x2 DUP3 DIV SWAP1 POP PUSH1 0x1 DUP3 AND DUP1 PUSH2 0xE7B JUMPI PUSH1 0x7F DUP3 AND SWAP2 POP JUMPDEST PUSH1 0x20 DUP3 LT DUP2 SUB PUSH2 0xE8E JUMPI PUSH2 0xE8D PUSH2 0xE37 JUMP JUMPDEST JUMPDEST POP SWAP2 SWAP1 POP JUMP JUMPDEST PUSH0 DUP2 SWAP1 POP SWAP3 SWAP2 POP POP JUMP JUMPDEST PUSH0 DUP2 SWAP1 POP DUP2 PUSH0 MSTORE PUSH1 0x20 PUSH0 KECCAK256 SWAP1 POP SWAP2 SWAP1 POP JUMP JUMPDEST PUSH0 DUP2 SLOAD PUSH2 0xEBC DUP2 PUSH2 0xE64 JUMP JUMPDEST PUSH2 0xEC6 DUP2 DUP7 PUSH2 0xE94 JUMP JUMPDEST SWAP5 POP PUSH1 0x1 DUP3 AND PUSH0 DUP2 EQ PUSH2 0xEE0 JUMPI PUSH1 0x1 DUP2 EQ PUSH2 0xEF5 JUMPI PUSH2 0xF27 JUMP JUMPDEST PUSH1 0xFF NOT DUP4 AND DUP7 MSTORE DUP2 ISZERO ISZERO DUP3 MUL DUP7 ADD SWAP4 POP PUSH2 0xF27 JUMP JUMPDEST PUSH2 0xEFE DUP6 PUSH2 0xE9E JUMP JUMPDEST PUSH0 JUMPDEST DUP4 DUP2 LT ISZERO PUSH2 0xF1F JUMPI DUP2 SLOAD DUP2 DUP10 ADD MSTORE PUSH1 0x1 DUP3 ADD SWAP2 POP PUSH1 0x20 DUP2 ADD SWAP1 POP PUSH2 0xF00 JUMP JUMPDEST DUP4 DUP9 ADD SWAP6 POP POP POP JUMPDEST POP POP POP SWAP3 SWAP2 POP POP JUMP JUMPDEST PUSH0 PUSH2 0xF3B DUP3 DUP5 PUSH2 0xEB0 JUMP JUMPDEST SWAP2 POP DUP2 SWAP1 POP SWAP3 SWAP2 POP POP JUMP JUMPDEST PUSH32 0x5573657220616C72656164792072656769737465726564000000000000000000 PUSH0 DUP3 ADD MSTORE POP JUMP JUMPDEST PUSH0 PUSH2 0xF7A PUSH1 0x17 DUP4 PUSH2 0xD50 JUMP JUMPDEST SWAP2 POP PUSH2 0xF85 DUP3 PUSH2 0xF46 JUMP JUMPDEST PUSH1 0x20 DUP3 ADD SWAP1 POP SWAP2 SWAP1 POP JUMP JUMPDEST PUSH0 PUSH1 0x20 DUP3 ADD SWAP1 POP DUP2 DUP2 SUB PUSH0 DUP4 ADD MSTORE PUSH2 0xFA7 DUP2 PUSH2 0xF6E JUMP JUMPDEST SWAP1 POP SWAP2 SWAP1 POP JUMP JUMPDEST PUSH0 DUP2 SWAP1 POP DUP2 PUSH0 MSTORE PUSH1 0x20 PUSH0 KECCAK256 SWAP1 POP SWAP2 SWAP1 POP JUMP JUMPDEST PUSH0 PUSH1 0x20 PUSH1 0x1F DUP4 ADD DIV SWAP1 POP SWAP2 SWAP1 POP JUMP JUMPDEST PUSH0 DUP3 DUP3 SHL SWAP1 POP SWAP3 SWAP2 POP POP JUMP JUMPDEST PUSH0 PUSH1 0x8 DUP4 MUL PUSH2 0x100A PUSH32 0xFFFFFFFFFFFFFFFFFFFFFFFFFFFFFFFFFFFFFFFFFFFFFFFFFFFFFFFFFFFFFFFF DUP3 PUSH2 0xFCF JUMP JUMPDEST PUSH2 0x1014 DUP7 DUP4 PUSH2 0xFCF JUMP JUMPDEST SWAP6 POP DUP1 NOT DUP5 AND SWAP4 POP DUP1 DUP7 AND DUP5 OR SWAP3 POP POP POP SWAP4 SWAP3 POP POP POP JUMP JUMPDEST PUSH0 DUP2 SWAP1 POP SWAP2 SWAP1 POP JUMP JUMPDEST PUSH0 PUSH2 0x104F PUSH2 0x104A PUSH2 0x1045 DUP5 PUSH2 0xA11 JUMP JUMPDEST PUSH2 0x102C JUMP JUMPDEST PUSH2 0xA11 JUMP JUMPDEST SWAP1 POP SWAP2 SWAP1 POP JUMP JUMPDEST PUSH0 DUP2 SWAP1 POP SWAP2 SWAP1 POP JUMP JUMPDEST PUSH2 0x1068 DUP4 PUSH2 0x1035 JUMP JUMPDEST PUSH2 0x107C PUSH2 0x1074 DUP3 PUSH2 0x1056 JUMP JUMPDEST DUP5 DUP5 SLOAD PUSH2 0xFDB JUMP JUMPDEST DUP3 SSTORE POP POP POP POP JUMP JUMPDEST PUSH0 SWAP1 JUMP JUMPDEST PUSH2 0x1090 PUSH2 0x1084 JUMP JUMPDEST PUSH2 0x109B DUP2 DUP5 DUP5 PUSH2 0x105F JUMP JUMPDEST POP POP POP JUMP JUMPDEST JUMPDEST DUP2 DUP2 LT ISZERO PUSH2 0x10BE JUMPI PUSH2 0x10B3 PUSH0 DUP3 PUSH2 0x1088 JUMP JUMPDEST PUSH1 0x1 DUP2 ADD SWAP1 POP PUSH2 0x10A1 JUMP JUMPDEST POP POP JUMP JUMPDEST PUSH1 0x1F DUP3 GT ISZERO PUSH2 0x1103 JUMPI PUSH2 0x10D4 DUP2 PUSH2 0xFAE JUMP JUMPDEST PUSH2 0x10DD DUP5 PUSH2 0xFC0 JUMP JUMPDEST DUP2 ADD PUSH1 0x20 DUP6 LT ISZERO PUSH2 0x10EC JUMPI DUP2 SWAP1 POP JUMPDEST PUSH2 0x1100 PUSH2 0x10F8 DUP6 PUSH2 0xFC0 JUMP JUMPDEST DUP4 ADD DUP3 PUSH2 0x10A0 JUMP JUMPDEST POP POP JUMPDEST POP POP POP JUMP JUMPDEST PUSH0 DUP3 DUP3 SHR SWAP1 POP SWAP3 SWAP2 POP POP JUMP JUMPDEST PUSH0 PUSH2 0x1123 PUSH0 NOT DUP5 PUSH1 0x8 MUL PUSH2 0x1108 JUMP JUMPDEST NOT DUP1 DUP4 AND SWAP2 POP POP SWAP3 SWAP2 POP POP JUMP JUMPDEST PUSH0 PUSH2 0x113B DUP4 DUP4 PUSH2 0x1114 JUMP JUMPDEST SWAP2 POP DUP3 PUSH1 0x2 MUL DUP3 OR SWAP1 POP SWAP3 SWAP2 POP POP JUMP JUMPDEST PUSH2 0x1154 DUP3 PUSH2 0xBF2 JUMP JUMPDEST PUSH8 0xFFFFFFFFFFFFFFFF DUP2 GT ISZERO PUSH2 0x116D JUMPI PUSH2 0x116C PUSH2 0x8ED JUMP JUMPDEST JUMPDEST PUSH2 0x1177 DUP3 SLOAD PUSH2 0xE64 JUMP JUMPDEST PUSH2 0x1182 DUP3 DUP3 DUP6 PUSH2 0x10C2 JUMP JUMPDEST PUSH0 PUSH1 0x20 SWAP1 POP PUSH1 0x1F DUP4 GT PUSH1 0x1 DUP2 EQ PUSH2 0x11B3 JUMPI PUSH0 DUP5 ISZERO PUSH2 0x11A1 JUMPI DUP3 DUP8 ADD MLOAD SWAP1 POP JUMPDEST PUSH2 0x11AB DUP6 DUP3 PUSH2 0x1130 JUMP JUMPDEST DUP7 SSTORE POP PUSH2 0x1212 JUMP JUMPDEST PUSH1 0x1F NOT DUP5 AND PUSH2 0x11C1 DUP7 PUSH2 0xFAE JUMP JUMPDEST PUSH0 JUMPDEST DUP3 DUP2 LT ISZERO PUSH2 0x11E8 JUMPI DUP5 DUP10 ADD MLOAD DUP3 SSTORE PUSH1 0x1 DUP3 ADD SWAP2 POP PUSH1 0x20 DUP6 ADD SWAP5 POP PUSH1 0x20 DUP2 ADD SWAP1 POP PUSH2 0x11C3 JUMP JUMPDEST DUP7 DUP4 LT ISZERO PUSH2 0x1205 JUMPI DUP5 DUP10 ADD MLOAD PUSH2 0x1201 PUSH1 0x1F DUP10 AND DUP3 PUSH2 0x1114 JUMP JUMPDEST DUP4 SSTORE POP JUMPDEST PUSH1 0x1 PUSH1 0x2 DUP9 MUL ADD DUP9 SSTORE POP POP POP JUMPDEST POP POP POP POP POP POP JUMP INVALID LOG2 PUSH5 0x6970667358 0x22 SLT KECCAK256 0xDF PUSH8 0xA0A9F9B3911132BB PUSH32 0x404553CCB7A0ED6105B8E5474C797640B89B166B2764736F6C63430008180033 "
				},
				"gasEstimates": {
					"creation": {
						"codeDepositCost": "937600",
						"executionCost": "973",
						"totalCost": "938573"
					},
					"external": {
						"getUser(address)": "infinite",
						"registerUser(string,string,string,uint256,uint256,string,string)": "infinite",
						"users(address)": "infinite"
					}
				},
				"methodIdentifiers": {
					"getUser(address)": "6f77926b",
					"registerUser(string,string,string,uint256,uint256,string,string)": "03bf1bcc",
					"users(address)": "a87430ba"
				}
			},
			"storageLayout": {
				"storage": [
					{
						"astId": 21,
						"contract": "contracts/RegisterationContract.sol:RegistrationContract",
						"label": "users",
						"offset": 0,
						"slot": "0",
						"type": "t_mapping(t_address,t_struct(User)16_storage)"
					}
				],
				"types": {
					"t_address": {
						"encoding": "inplace",
						"label": "address",
						"numberOfBytes": "20"
					},
					"t_mapping(t_address,t_struct(User)16_storage)": {
						"encoding": "mapping",
						"key": "t_address",
						"label": "mapping(address => struct RegistrationContract.User)",
						"numberOfBytes": "32",
						"value": "t_struct(User)16_storage"
					},
					"t_string_storage": {
						"encoding": "bytes",
						"label": "string",
						"numberOfBytes": "32"
					},
					"t_struct(User)16_storage": {
						"encoding": "inplace",
						"label": "struct RegistrationContract.User",
						"members": [
							{
								"astId": 3,
								"contract": "contracts/RegisterationContract.sol:RegistrationContract",
								"label": "userID",
								"offset": 0,
								"slot": "0",
								"type": "t_string_storage"
							},
							{
								"astId": 5,
								"contract": "contracts/RegisterationContract.sol:RegistrationContract",
								"label": "username",
								"offset": 0,
								"slot": "1",
								"type": "t_string_storage"
							},
							{
								"astId": 7,
								"contract": "contracts/RegisterationContract.sol:RegistrationContract",
								"label": "location",
								"offset": 0,
								"slot": "2",
								"type": "t_string_storage"
							},
							{
								"astId": 9,
								"contract": "contracts/RegisterationContract.sol:RegistrationContract",
								"label": "balanceEnergy",
								"offset": 0,
								"slot": "3",
								"type": "t_uint256"
							},
							{
								"astId": 11,
								"contract": "contracts/RegisterationContract.sol:RegistrationContract",
								"label": "balanceCoins",
								"offset": 0,
								"slot": "4",
								"type": "t_uint256"
							},
							{
								"astId": 13,
								"contract": "contracts/RegisterationContract.sol:RegistrationContract",
								"label": "role",
								"offset": 0,
								"slot": "5",
								"type": "t_string_storage"
							},
							{
								"astId": 15,
								"contract": "contracts/RegisterationContract.sol:RegistrationContract",
								"label": "tokenID",
								"offset": 0,
								"slot": "6",
								"type": "t_string_storage"
							}
						],
						"numberOfBytes": "224"
					},
					"t_uint256": {
						"encoding": "inplace",
						"label": "uint256",
						"numberOfBytes": "32"
					}
				}
			},
			"userdoc": {
				"kind": "user",
				"methods": {},
				"version": 1
			}
		}
	}
}