{
	"contracts/Registeration.sol": {
		"Registration": {
			"abi": [
				{
					"anonymous": false,
					"inputs": [
						{
							"indexed": false,
							"internalType": "address",
							"name": "userAddress",
							"type": "address"
						},
						{
							"indexed": false,
							"internalType": "string",
							"name": "username",
							"type": "string"
						},
						{
							"indexed": false,
							"internalType": "string",
							"name": "location",
							"type": "string"
						},
						{
							"indexed": false,
							"internalType": "uint256",
							"name": "energyBalance",
							"type": "uint256"
						},
						{
							"indexed": false,
							"internalType": "uint256",
							"name": "tokensBalance",
							"type": "uint256"
						}
					],
					"name": "UserRegistered",
					"type": "event"
				},
				{
					"anonymous": false,
					"inputs": [
						{
							"indexed": false,
							"internalType": "address",
							"name": "userAddress",
							"type": "address"
						},
						{
							"indexed": false,
							"internalType": "string",
							"name": "username",
							"type": "string"
						},
						{
							"indexed": false,
							"internalType": "string",
							"name": "location",
							"type": "string"
						},
						{
							"indexed": false,
							"internalType": "uint256",
							"name": "energyBalance",
							"type": "uint256"
						},
						{
							"indexed": false,
							"internalType": "uint256",
							"name": "tokensBalance",
							"type": "uint256"
						}
					],
					"name": "UserUpdated",
					"type": "event"
				},
				{
					"inputs": [
						{
							"internalType": "address",
							"name": "_user",
							"type": "address"
						}
					],
					"name": "getUserInfo",
					"outputs": [
						{
							"internalType": "string",
							"name": "username",
							"type": "string"
						},
						{
							"internalType": "string",
							"name": "location",
							"type": "string"
						},
						{
							"internalType": "uint256",
							"name": "energyBalance",
							"type": "uint256"
						},
						{
							"internalType": "uint256",
							"name": "tokensBalance",
							"type": "uint256"
						}
					],
					"stateMutability": "view",
					"type": "function"
				},
				{
					"inputs": [
						{
							"internalType": "address",
							"name": "_user",
							"type": "address"
						}
					],
					"name": "isUserRegistered",
					"outputs": [
						{
							"internalType": "bool",
							"name": "",
							"type": "bool"
						}
					],
					"stateMutability": "view",
					"type": "function"
				},
				{
					"inputs": [
						{
							"internalType": "string",
							"name": "_username",
							"type": "string"
						},
						{
							"internalType": "string",
							"name": "_location",
							"type": "string"
						},
						{
							"internalType": "uint256",
							"name": "_energyBalance",
							"type": "uint256"
						},
						{
							"internalType": "uint256",
							"name": "_tokensBalance",
							"type": "uint256"
						}
					],
					"name": "registerOrUpdate",
					"outputs": [],
					"stateMutability": "nonpayable",
					"type": "function"
				},
				{
					"inputs": [
						{
							"internalType": "address",
							"name": "",
							"type": "address"
						}
					],
					"name": "users",
					"outputs": [
						{
							"internalType": "string",
							"name": "username",
							"type": "string"
						},
						{
							"internalType": "string",
							"name": "location",
							"type": "string"
						},
						{
							"internalType": "uint256",
							"name": "energyBalance",
							"type": "uint256"
						},
						{
							"internalType": "uint256",
							"name": "tokensBalance",
							"type": "uint256"
						},
						{
							"internalType": "bool",
							"name": "isRegistered",
							"type": "bool"
						}
					],
					"stateMutability": "view",
					"type": "function"
				}
			],
			"devdoc": {
				"kind": "dev",
				"methods": {},
				"version": 1
			},
			"evm": {
				"assembly": "    /* \"contracts/Registeration.sol\":61:1957  contract Registration {... */\n  mstore(0x40, 0x80)\n  callvalue\n  dup1\n  iszero\n  tag_1\n  jumpi\n  0x00\n  dup1\n  revert\ntag_1:\n  pop\n  dataSize(sub_0)\n  dup1\n  dataOffset(sub_0)\n  0x00\n  codecopy\n  0x00\n  return\nstop\n\nsub_0: assembly {\n        /* \"contracts/Registeration.sol\":61:1957  contract Registration {... */\n      mstore(0x40, 0x80)\n      callvalue\n      dup1\n      iszero\n      tag_1\n      jumpi\n      0x00\n      dup1\n      revert\n    tag_1:\n      pop\n      jumpi(tag_2, lt(calldatasize, 0x04))\n      shr(0xe0, calldataload(0x00))\n      dup1\n      0x163f7522\n      eq\n      tag_3\n      jumpi\n      dup1\n      0x6386c1c7\n      eq\n      tag_4\n      jumpi\n      dup1\n      0x89e4050e\n      eq\n      tag_5\n      jumpi\n      dup1\n      0xa87430ba\n      eq\n      tag_6\n      jumpi\n    tag_2:\n      0x00\n      dup1\n      revert\n        /* \"contracts/Registeration.sol\":1399:1518  function isUserRegistered(address _user) public view returns (bool) {... */\n    tag_3:\n      tag_7\n      0x04\n      dup1\n      calldatasize\n      sub\n      dup2\n      add\n      swap1\n      tag_8\n      swap2\n      swap1\n      tag_9\n      jump\t// in\n    tag_8:\n      tag_10\n      jump\t// in\n    tag_7:\n      mload(0x40)\n      tag_11\n      swap2\n      swap1\n      tag_12\n      jump\t// in\n    tag_11:\n      mload(0x40)\n      dup1\n      swap2\n      sub\n      swap1\n      return\n        /* \"contracts/Registeration.sol\":1588:1954  function getUserInfo(address _user) public view returns (string memory username, string memory location, uint256 energyBalance, uint256 tokensBalance) {... */\n    tag_4:\n      tag_13\n      0x04\n      dup1\n      calldatasize\n      sub\n      dup2\n      add\n      swap1\n      tag_14\n      swap2\n      swap1\n      tag_9\n      jump\t// in\n    tag_14:\n      tag_15\n      jump\t// in\n    tag_13:\n      mload(0x40)\n      tag_16\n      swap5\n      swap4\n      swap3\n      swap2\n      swap1\n      tag_17\n      jump\t// in\n    tag_16:\n      mload(0x40)\n      dup1\n      swap2\n      sub\n      swap1\n      return\n        /* \"contracts/Registeration.sol\":574:1341  function registerOrUpdate(string memory _username, string memory _location, uint256 _energyBalance, uint256 _tokensBalance) public {... */\n    tag_5:\n      tag_18\n      0x04\n      dup1\n      calldatasize\n      sub\n      dup2\n      add\n      swap1\n      tag_19\n      swap2\n      swap1\n      tag_20\n      jump\t// in\n    tag_19:\n      tag_21\n      jump\t// in\n    tag_18:\n      stop\n        /* \"contracts/Registeration.sol\":269:310  mapping(address => UserInfo) public users */\n    tag_6:\n      tag_22\n      0x04\n      dup1\n      calldatasize\n      sub\n      dup2\n      add\n      swap1\n      tag_23\n      swap2\n      swap1\n      tag_9\n      jump\t// in\n    tag_23:\n      tag_24\n      jump\t// in\n    tag_22:\n      mload(0x40)\n      tag_25\n      swap6\n      swap5\n      swap4\n      swap3\n      swap2\n      swap1\n      tag_26\n      jump\t// in\n    tag_25:\n      mload(0x40)\n      dup1\n      swap2\n      sub\n      swap1\n      return\n        /* \"contracts/Registeration.sol\":1399:1518  function isUserRegistered(address _user) public view returns (bool) {... */\n    tag_10:\n        /* \"contracts/Registeration.sol\":1461:1465  bool */\n      0x00\n        /* \"contracts/Registeration.sol\":1485:1490  users */\n      dup1\n        /* \"contracts/Registeration.sol\":1485:1497  users[_user] */\n      0x00\n        /* \"contracts/Registeration.sol\":1491:1496  _user */\n      dup4\n        /* \"contracts/Registeration.sol\":1485:1497  users[_user] */\n      0xffffffffffffffffffffffffffffffffffffffff\n      and\n      0xffffffffffffffffffffffffffffffffffffffff\n      and\n      dup2\n      mstore\n      0x20\n      add\n      swap1\n      dup2\n      mstore\n      0x20\n      add\n      0x00\n      keccak256\n        /* \"contracts/Registeration.sol\":1485:1510  users[_user].isRegistered */\n      0x04\n      add\n      0x00\n      swap1\n      sload\n      swap1\n      0x0100\n      exp\n      swap1\n      div\n      0xff\n      and\n        /* \"contracts/Registeration.sol\":1478:1510  return users[_user].isRegistered */\n      swap1\n      pop\n        /* \"contracts/Registeration.sol\":1399:1518  function isUserRegistered(address _user) public view returns (bool) {... */\n      swap2\n      swap1\n      pop\n      jump\t// out\n        /* \"contracts/Registeration.sol\":1588:1954  function getUserInfo(address _user) public view returns (string memory username, string memory location, uint256 energyBalance, uint256 tokensBalance) {... */\n    tag_15:\n        /* \"contracts/Registeration.sol\":1645:1667  string memory username */\n      0x60\n        /* \"contracts/Registeration.sol\":1669:1691  string memory location */\n      dup1\n        /* \"contracts/Registeration.sol\":1693:1714  uint256 energyBalance */\n      0x00\n        /* \"contracts/Registeration.sol\":1716:1737  uint256 tokensBalance */\n      dup1\n        /* \"contracts/Registeration.sol\":1758:1763  users */\n      0x00\n        /* \"contracts/Registeration.sol\":1758:1770  users[_user] */\n      dup1\n        /* \"contracts/Registeration.sol\":1764:1769  _user */\n      dup7\n        /* \"contracts/Registeration.sol\":1758:1770  users[_user] */\n      0xffffffffffffffffffffffffffffffffffffffff\n      and\n      0xffffffffffffffffffffffffffffffffffffffff\n      and\n      dup2\n      mstore\n      0x20\n      add\n      swap1\n      dup2\n      mstore\n      0x20\n      add\n      0x00\n      keccak256\n        /* \"contracts/Registeration.sol\":1758:1783  users[_user].isRegistered */\n      0x04\n      add\n      0x00\n      swap1\n      sload\n      swap1\n      0x0100\n      exp\n      swap1\n      div\n      0xff\n      and\n        /* \"contracts/Registeration.sol\":1750:1811  require(users[_user].isRegistered, \"User is not registered.\") */\n      tag_29\n      jumpi\n      mload(0x40)\n      0x08c379a000000000000000000000000000000000000000000000000000000000\n      dup2\n      mstore\n      0x04\n      add\n      tag_30\n      swap1\n      tag_31\n      jump\t// in\n    tag_30:\n      mload(0x40)\n      dup1\n      swap2\n      sub\n      swap1\n      revert\n    tag_29:\n        /* \"contracts/Registeration.sol\":1822:1843  UserInfo storage user */\n      0x00\n        /* \"contracts/Registeration.sol\":1846:1851  users */\n      dup1\n        /* \"contracts/Registeration.sol\":1846:1858  users[_user] */\n      0x00\n        /* \"contracts/Registeration.sol\":1852:1857  _user */\n      dup8\n        /* \"contracts/Registeration.sol\":1846:1858  users[_user] */\n      0xffffffffffffffffffffffffffffffffffffffff\n      and\n      0xffffffffffffffffffffffffffffffffffffffff\n      and\n      dup2\n      mstore\n      0x20\n      add\n      swap1\n      dup2\n      mstore\n      0x20\n      add\n      0x00\n      keccak256\n        /* \"contracts/Registeration.sol\":1822:1858  UserInfo storage user = users[_user] */\n      swap1\n      pop\n        /* \"contracts/Registeration.sol\":1877:1881  user */\n      dup1\n        /* \"contracts/Registeration.sol\":1877:1890  user.username */\n      0x00\n      add\n        /* \"contracts/Registeration.sol\":1892:1896  user */\n      dup2\n        /* \"contracts/Registeration.sol\":1892:1905  user.location */\n      0x01\n      add\n        /* \"contracts/Registeration.sol\":1907:1911  user */\n      dup3\n        /* \"contracts/Registeration.sol\":1907:1925  user.energyBalance */\n      0x02\n      add\n      sload\n        /* \"contracts/Registeration.sol\":1927:1931  user */\n      dup4\n        /* \"contracts/Registeration.sol\":1927:1945  user.tokensBalance */\n      0x03\n      add\n      sload\n        /* \"contracts/Registeration.sol\":1869:1946  return (user.username, user.location, user.energyBalance, user.tokensBalance) */\n      dup4\n      dup1\n      sload\n      tag_32\n      swap1\n      tag_33\n      jump\t// in\n    tag_32:\n      dup1\n      0x1f\n      add\n      0x20\n      dup1\n      swap2\n      div\n      mul\n      0x20\n      add\n      mload(0x40)\n      swap1\n      dup2\n      add\n      0x40\n      mstore\n      dup1\n      swap3\n      swap2\n      swap1\n      dup2\n      dup2\n      mstore\n      0x20\n      add\n      dup3\n      dup1\n      sload\n      tag_34\n      swap1\n      tag_33\n      jump\t// in\n    tag_34:\n      dup1\n      iszero\n      tag_35\n      jumpi\n      dup1\n      0x1f\n      lt\n      tag_36\n      jumpi\n      0x0100\n      dup1\n      dup4\n      sload\n      div\n      mul\n      dup4\n      mstore\n      swap2\n      0x20\n      add\n      swap2\n      jump(tag_35)\n    tag_36:\n      dup3\n      add\n      swap2\n      swap1\n      0x00\n      mstore\n      keccak256(0x00, 0x20)\n      swap1\n    tag_37:\n      dup2\n      sload\n      dup2\n      mstore\n      swap1\n      0x01\n      add\n      swap1\n      0x20\n      add\n      dup1\n      dup4\n      gt\n      tag_37\n      jumpi\n      dup3\n      swap1\n      sub\n      0x1f\n      and\n      dup3\n      add\n      swap2\n    tag_35:\n      pop\n      pop\n      pop\n      pop\n      pop\n      swap4\n      pop\n      dup3\n      dup1\n      sload\n      tag_38\n      swap1\n      tag_33\n      jump\t// in\n    tag_38:\n      dup1\n      0x1f\n      add\n      0x20\n      dup1\n      swap2\n      div\n      mul\n      0x20\n      add\n      mload(0x40)\n      swap1\n      dup2\n      add\n      0x40\n      mstore\n      dup1\n      swap3\n      swap2\n      swap1\n      dup2\n      dup2\n      mstore\n      0x20\n      add\n      dup3\n      dup1\n      sload\n      tag_39\n      swap1\n      tag_33\n      jump\t// in\n    tag_39:\n      dup1\n      iszero\n      tag_40\n      jumpi\n      dup1\n      0x1f\n      lt\n      tag_41\n      jumpi\n      0x0100\n      dup1\n      dup4\n      sload\n      div\n      mul\n      dup4\n      mstore\n      swap2\n      0x20\n      add\n      swap2\n      jump(tag_40)\n    tag_41:\n      dup3\n      add\n      swap2\n      swap1\n      0x00\n      mstore\n      keccak256(0x00, 0x20)\n      swap1\n    tag_42:\n      dup2\n      sload\n      dup2\n      mstore\n      swap1\n      0x01\n      add\n      swap1\n      0x20\n      add\n      dup1\n      dup4\n      gt\n      tag_42\n      jumpi\n      dup3\n      swap1\n      sub\n      0x1f\n      and\n      dup3\n      add\n      swap2\n    tag_40:\n      pop\n      pop\n      pop\n      pop\n      pop\n      swap3\n      pop\n      swap5\n      pop\n      swap5\n      pop\n      swap5\n      pop\n      swap5\n      pop\n      pop\n        /* \"contracts/Registeration.sol\":1588:1954  function getUserInfo(address _user) public view returns (string memory username, string memory location, uint256 energyBalance, uint256 tokensBalance) {... */\n      swap2\n      swap4\n      pop\n      swap2\n      swap4\n      jump\t// out\n        /* \"contracts/Registeration.sol\":574:1341  function registerOrUpdate(string memory _username, string memory _location, uint256 _energyBalance, uint256 _tokensBalance) public {... */\n    tag_21:\n        /* \"contracts/Registeration.sol\":716:737  UserInfo storage user */\n      0x00\n        /* \"contracts/Registeration.sol\":740:745  users */\n      dup1\n        /* \"contracts/Registeration.sol\":740:757  users[msg.sender] */\n      0x00\n        /* \"contracts/Registeration.sol\":746:756  msg.sender */\n      caller\n        /* \"contracts/Registeration.sol\":740:757  users[msg.sender] */\n      0xffffffffffffffffffffffffffffffffffffffff\n      and\n      0xffffffffffffffffffffffffffffffffffffffff\n      and\n      dup2\n      mstore\n      0x20\n      add\n      swap1\n      dup2\n      mstore\n      0x20\n      add\n      0x00\n      keccak256\n        /* \"contracts/Registeration.sol\":716:757  UserInfo storage user = users[msg.sender] */\n      swap1\n      pop\n        /* \"contracts/Registeration.sol\":786:795  _username */\n      dup5\n        /* \"contracts/Registeration.sol\":770:774  user */\n      dup2\n        /* \"contracts/Registeration.sol\":770:783  user.username */\n      0x00\n      add\n        /* \"contracts/Registeration.sol\":770:795  user.username = _username */\n      swap1\n      dup2\n      tag_44\n      swap2\n      swap1\n      tag_45\n      jump\t// in\n    tag_44:\n      pop\n        /* \"contracts/Registeration.sol\":822:831  _location */\n      dup4\n        /* \"contracts/Registeration.sol\":806:810  user */\n      dup2\n        /* \"contracts/Registeration.sol\":806:819  user.location */\n      0x01\n      add\n        /* \"contracts/Registeration.sol\":806:831  user.location = _location */\n      swap1\n      dup2\n      tag_46\n      swap2\n      swap1\n      tag_45\n      jump\t// in\n    tag_46:\n      pop\n        /* \"contracts/Registeration.sol\":863:877  _energyBalance */\n      dup3\n        /* \"contracts/Registeration.sol\":842:846  user */\n      dup2\n        /* \"contracts/Registeration.sol\":842:860  user.energyBalance */\n      0x02\n      add\n        /* \"contracts/Registeration.sol\":842:877  user.energyBalance = _energyBalance */\n      dup2\n      swap1\n      sstore\n      pop\n        /* \"contracts/Registeration.sol\":909:923  _tokensBalance */\n      dup2\n        /* \"contracts/Registeration.sol\":888:892  user */\n      dup2\n        /* \"contracts/Registeration.sol\":888:906  user.tokensBalance */\n      0x03\n      add\n        /* \"contracts/Registeration.sol\":888:923  user.tokensBalance = _tokensBalance */\n      dup2\n      swap1\n      sstore\n      pop\n        /* \"contracts/Registeration.sol\":954:958  true */\n      0x01\n        /* \"contracts/Registeration.sol\":934:938  user */\n      dup2\n        /* \"contracts/Registeration.sol\":934:951  user.isRegistered */\n      0x04\n      add\n      0x00\n        /* \"contracts/Registeration.sol\":934:958  user.isRegistered = true */\n      0x0100\n      exp\n      dup2\n      sload\n      dup2\n      0xff\n      mul\n      not\n      and\n      swap1\n      dup4\n      iszero\n      iszero\n      mul\n      or\n      swap1\n      sstore\n      pop\n        /* \"contracts/Registeration.sol\":976:980  user */\n      dup1\n        /* \"contracts/Registeration.sol\":976:993  user.isRegistered */\n      0x04\n      add\n      0x00\n      swap1\n      sload\n      swap1\n      0x0100\n      exp\n      swap1\n      div\n      0xff\n      and\n        /* \"contracts/Registeration.sol\":971:1334  if (!user.isRegistered) {... */\n      tag_47\n      jumpi\n        /* \"contracts/Registeration.sol\":1073:1153  UserRegistered(msg.sender, _username, _location, _energyBalance, _tokensBalance) */\n      0x922286c4119713a381a6afbcc1bfe1183c424472493136db418e3ca974624b2d\n        /* \"contracts/Registeration.sol\":1088:1098  msg.sender */\n      caller\n        /* \"contracts/Registeration.sol\":1100:1109  _username */\n      dup7\n        /* \"contracts/Registeration.sol\":1111:1120  _location */\n      dup7\n        /* \"contracts/Registeration.sol\":1122:1136  _energyBalance */\n      dup7\n        /* \"contracts/Registeration.sol\":1138:1152  _tokensBalance */\n      dup7\n        /* \"contracts/Registeration.sol\":1073:1153  UserRegistered(msg.sender, _username, _location, _energyBalance, _tokensBalance) */\n      mload(0x40)\n      tag_48\n      swap6\n      swap5\n      swap4\n      swap3\n      swap2\n      swap1\n      tag_49\n      jump\t// in\n    tag_48:\n      mload(0x40)\n      dup1\n      swap2\n      sub\n      swap1\n      log1\n        /* \"contracts/Registeration.sol\":971:1334  if (!user.isRegistered) {... */\n      jump(tag_50)\n    tag_47:\n        /* \"contracts/Registeration.sol\":1245:1322  UserUpdated(msg.sender, _username, _location, _energyBalance, _tokensBalance) */\n      0xfb48df73dc5ecaeb96db29b570614e587313d43d50d515d37a8855ae365012b0\n        /* \"contracts/Registeration.sol\":1257:1267  msg.sender */\n      caller\n        /* \"contracts/Registeration.sol\":1269:1278  _username */\n      dup7\n        /* \"contracts/Registeration.sol\":1280:1289  _location */\n      dup7\n        /* \"contracts/Registeration.sol\":1291:1305  _energyBalance */\n      dup7\n        /* \"contracts/Registeration.sol\":1307:1321  _tokensBalance */\n      dup7\n        /* \"contracts/Registeration.sol\":1245:1322  UserUpdated(msg.sender, _username, _location, _energyBalance, _tokensBalance) */\n      mload(0x40)\n      tag_51\n      swap6\n      swap5\n      swap4\n      swap3\n      swap2\n      swap1\n      tag_49\n      jump\t// in\n    tag_51:\n      mload(0x40)\n      dup1\n      swap2\n      sub\n      swap1\n      log1\n        /* \"contracts/Registeration.sol\":971:1334  if (!user.isRegistered) {... */\n    tag_50:\n        /* \"contracts/Registeration.sol\":705:1341  {... */\n      pop\n        /* \"contracts/Registeration.sol\":574:1341  function registerOrUpdate(string memory _username, string memory _location, uint256 _energyBalance, uint256 _tokensBalance) public {... */\n      pop\n      pop\n      pop\n      pop\n      jump\t// out\n        /* \"contracts/Registeration.sol\":269:310  mapping(address => UserInfo) public users */\n    tag_24:\n      mstore(0x20, 0x00)\n      dup1\n      0x00\n      mstore\n      keccak256(0x00, 0x40)\n      0x00\n      swap2\n      pop\n      swap1\n      pop\n      dup1\n      0x00\n      add\n      dup1\n      sload\n      tag_52\n      swap1\n      tag_33\n      jump\t// in\n    tag_52:\n      dup1\n      0x1f\n      add\n      0x20\n      dup1\n      swap2\n      div\n      mul\n      0x20\n      add\n      mload(0x40)\n      swap1\n      dup2\n      add\n      0x40\n      mstore\n      dup1\n      swap3\n      swap2\n      swap1\n      dup2\n      dup2\n      mstore\n      0x20\n      add\n      dup3\n      dup1\n      sload\n      tag_53\n      swap1\n      tag_33\n      jump\t// in\n    tag_53:\n      dup1\n      iszero\n      tag_54\n      jumpi\n      dup1\n      0x1f\n      lt\n      tag_55\n      jumpi\n      0x0100\n      dup1\n      dup4\n      sload\n      div\n      mul\n      dup4\n      mstore\n      swap2\n      0x20\n      add\n      swap2\n      jump(tag_54)\n    tag_55:\n      dup3\n      add\n      swap2\n      swap1\n      0x00\n      mstore\n      keccak256(0x00, 0x20)\n      swap1\n    tag_56:\n      dup2\n      sload\n      dup2\n      mstore\n      swap1\n      0x01\n      add\n      swap1\n      0x20\n      add\n      dup1\n      dup4\n      gt\n      tag_56\n      jumpi\n      dup3\n      swap1\n      sub\n      0x1f\n      and\n      dup3\n      add\n      swap2\n    tag_54:\n      pop\n      pop\n      pop\n      pop\n      pop\n      swap1\n      dup1\n      0x01\n      add\n      dup1\n      sload\n      tag_57\n      swap1\n      tag_33\n      jump\t// in\n    tag_57:\n      dup1\n      0x1f\n      add\n      0x20\n      dup1\n      swap2\n      div\n      mul\n      0x20\n      add\n      mload(0x40)\n      swap1\n      dup2\n      add\n      0x40\n      mstore\n      dup1\n      swap3\n      swap2\n      swap1\n      dup2\n      dup2\n      mstore\n      0x20\n      add\n      dup3\n      dup1\n      sload\n      tag_58\n      swap1\n      tag_33\n      jump\t// in\n    tag_58:\n      dup1\n      iszero\n      tag_59\n      jumpi\n      dup1\n      0x1f\n      lt\n      tag_60\n      jumpi\n      0x0100\n      dup1\n      dup4\n      sload\n      div\n      mul\n      dup4\n      mstore\n      swap2\n      0x20\n      add\n      swap2\n      jump(tag_59)\n    tag_60:\n      dup3\n      add\n      swap2\n      swap1\n      0x00\n      mstore\n      keccak256(0x00, 0x20)\n      swap1\n    tag_61:\n      dup2\n      sload\n      dup2\n      mstore\n      swap1\n      0x01\n      add\n      swap1\n      0x20\n      add\n      dup1\n      dup4\n      gt\n      tag_61\n      jumpi\n      dup3\n      swap1\n      sub\n      0x1f\n      and\n      dup3\n      add\n      swap2\n    tag_59:\n      pop\n      pop\n      pop\n      pop\n      pop\n      swap1\n      dup1\n      0x02\n      add\n      sload\n      swap1\n      dup1\n      0x03\n      add\n      sload\n      swap1\n      dup1\n      0x04\n      add\n      0x00\n      swap1\n      sload\n      swap1\n      0x0100\n      exp\n      swap1\n      div\n      0xff\n      and\n      swap1\n      pop\n      dup6\n      jump\t// out\n        /* \"#utility.yul\":7:82   */\n    tag_62:\n        /* \"#utility.yul\":40:46   */\n      0x00\n        /* \"#utility.yul\":73:75   */\n      0x40\n        /* \"#utility.yul\":67:76   */\n      mload\n        /* \"#utility.yul\":57:76   */\n      swap1\n      pop\n        /* \"#utility.yul\":7:82   */\n      swap1\n      jump\t// out\n        /* \"#utility.yul\":88:205   */\n    tag_63:\n        /* \"#utility.yul\":197:198   */\n      0x00\n        /* \"#utility.yul\":194:195   */\n      dup1\n        /* \"#utility.yul\":187:199   */\n      revert\n        /* \"#utility.yul\":211:328   */\n    tag_64:\n        /* \"#utility.yul\":320:321   */\n      0x00\n        /* \"#utility.yul\":317:318   */\n      dup1\n        /* \"#utility.yul\":310:322   */\n      revert\n        /* \"#utility.yul\":334:460   */\n    tag_65:\n        /* \"#utility.yul\":371:378   */\n      0x00\n        /* \"#utility.yul\":411:453   */\n      0xffffffffffffffffffffffffffffffffffffffff\n        /* \"#utility.yul\":404:409   */\n      dup3\n        /* \"#utility.yul\":400:454   */\n      and\n        /* \"#utility.yul\":389:454   */\n      swap1\n      pop\n        /* \"#utility.yul\":334:460   */\n      swap2\n      swap1\n      pop\n      jump\t// out\n        /* \"#utility.yul\":466:562   */\n    tag_66:\n        /* \"#utility.yul\":503:510   */\n      0x00\n        /* \"#utility.yul\":532:556   */\n      tag_114\n        /* \"#utility.yul\":550:555   */\n      dup3\n        /* \"#utility.yul\":532:556   */\n      tag_65\n      jump\t// in\n    tag_114:\n        /* \"#utility.yul\":521:556   */\n      swap1\n      pop\n        /* \"#utility.yul\":466:562   */\n      swap2\n      swap1\n      pop\n      jump\t// out\n        /* \"#utility.yul\":568:690   */\n    tag_67:\n        /* \"#utility.yul\":641:665   */\n      tag_116\n        /* \"#utility.yul\":659:664   */\n      dup2\n        /* \"#utility.yul\":641:665   */\n      tag_66\n      jump\t// in\n    tag_116:\n        /* \"#utility.yul\":634:639   */\n      dup2\n        /* \"#utility.yul\":631:666   */\n      eq\n        /* \"#utility.yul\":621:684   */\n      tag_117\n      jumpi\n        /* \"#utility.yul\":680:681   */\n      0x00\n        /* \"#utility.yul\":677:678   */\n      dup1\n        /* \"#utility.yul\":670:682   */\n      revert\n        /* \"#utility.yul\":621:684   */\n    tag_117:\n        /* \"#utility.yul\":568:690   */\n      pop\n      jump\t// out\n        /* \"#utility.yul\":696:835   */\n    tag_68:\n        /* \"#utility.yul\":742:747   */\n      0x00\n        /* \"#utility.yul\":780:786   */\n      dup2\n        /* \"#utility.yul\":767:787   */\n      calldataload\n        /* \"#utility.yul\":758:787   */\n      swap1\n      pop\n        /* \"#utility.yul\":796:829   */\n      tag_119\n        /* \"#utility.yul\":823:828   */\n      dup2\n        /* \"#utility.yul\":796:829   */\n      tag_67\n      jump\t// in\n    tag_119:\n        /* \"#utility.yul\":696:835   */\n      swap3\n      swap2\n      pop\n      pop\n      jump\t// out\n        /* \"#utility.yul\":841:1170   */\n    tag_9:\n        /* \"#utility.yul\":900:906   */\n      0x00\n        /* \"#utility.yul\":949:951   */\n      0x20\n        /* \"#utility.yul\":937:946   */\n      dup3\n        /* \"#utility.yul\":928:935   */\n      dup5\n        /* \"#utility.yul\":924:947   */\n      sub\n        /* \"#utility.yul\":920:952   */\n      slt\n        /* \"#utility.yul\":917:1036   */\n      iszero\n      tag_121\n      jumpi\n        /* \"#utility.yul\":955:1034   */\n      tag_122\n      tag_63\n      jump\t// in\n    tag_122:\n        /* \"#utility.yul\":917:1036   */\n    tag_121:\n        /* \"#utility.yul\":1075:1076   */\n      0x00\n        /* \"#utility.yul\":1100:1153   */\n      tag_123\n        /* \"#utility.yul\":1145:1152   */\n      dup5\n        /* \"#utility.yul\":1136:1142   */\n      dup3\n        /* \"#utility.yul\":1125:1134   */\n      dup6\n        /* \"#utility.yul\":1121:1143   */\n      add\n        /* \"#utility.yul\":1100:1153   */\n      tag_68\n      jump\t// in\n    tag_123:\n        /* \"#utility.yul\":1090:1153   */\n      swap2\n      pop\n        /* \"#utility.yul\":1046:1163   */\n      pop\n        /* \"#utility.yul\":841:1170   */\n      swap3\n      swap2\n      pop\n      pop\n      jump\t// out\n        /* \"#utility.yul\":1176:1266   */\n    tag_69:\n        /* \"#utility.yul\":1210:1217   */\n      0x00\n        /* \"#utility.yul\":1253:1258   */\n      dup2\n        /* \"#utility.yul\":1246:1259   */\n      iszero\n        /* \"#utility.yul\":1239:1260   */\n      iszero\n        /* \"#utility.yul\":1228:1260   */\n      swap1\n      pop\n        /* \"#utility.yul\":1176:1266   */\n      swap2\n      swap1\n      pop\n      jump\t// out\n        /* \"#utility.yul\":1272:1381   */\n    tag_70:\n        /* \"#utility.yul\":1353:1374   */\n      tag_126\n        /* \"#utility.yul\":1368:1373   */\n      dup2\n        /* \"#utility.yul\":1353:1374   */\n      tag_69\n      jump\t// in\n    tag_126:\n        /* \"#utility.yul\":1348:1351   */\n      dup3\n        /* \"#utility.yul\":1341:1375   */\n      mstore\n        /* \"#utility.yul\":1272:1381   */\n      pop\n      pop\n      jump\t// out\n        /* \"#utility.yul\":1387:1597   */\n    tag_12:\n        /* \"#utility.yul\":1474:1478   */\n      0x00\n        /* \"#utility.yul\":1512:1514   */\n      0x20\n        /* \"#utility.yul\":1501:1510   */\n      dup3\n        /* \"#utility.yul\":1497:1515   */\n      add\n        /* \"#utility.yul\":1489:1515   */\n      swap1\n      pop\n        /* \"#utility.yul\":1525:1590   */\n      tag_128\n        /* \"#utility.yul\":1587:1588   */\n      0x00\n        /* \"#utility.yul\":1576:1585   */\n      dup4\n        /* \"#utility.yul\":1572:1589   */\n      add\n        /* \"#utility.yul\":1563:1569   */\n      dup5\n        /* \"#utility.yul\":1525:1590   */\n      tag_70\n      jump\t// in\n    tag_128:\n        /* \"#utility.yul\":1387:1597   */\n      swap3\n      swap2\n      pop\n      pop\n      jump\t// out\n        /* \"#utility.yul\":1603:1702   */\n    tag_71:\n        /* \"#utility.yul\":1655:1661   */\n      0x00\n        /* \"#utility.yul\":1689:1694   */\n      dup2\n        /* \"#utility.yul\":1683:1695   */\n      mload\n        /* \"#utility.yul\":1673:1695   */\n      swap1\n      pop\n        /* \"#utility.yul\":1603:1702   */\n      swap2\n      swap1\n      pop\n      jump\t// out\n        /* \"#utility.yul\":1708:1877   */\n    tag_72:\n        /* \"#utility.yul\":1792:1803   */\n      0x00\n        /* \"#utility.yul\":1826:1832   */\n      dup3\n        /* \"#utility.yul\":1821:1824   */\n      dup3\n        /* \"#utility.yul\":1814:1833   */\n      mstore\n        /* \"#utility.yul\":1866:1870   */\n      0x20\n        /* \"#utility.yul\":1861:1864   */\n      dup3\n        /* \"#utility.yul\":1857:1871   */\n      add\n        /* \"#utility.yul\":1842:1871   */\n      swap1\n      pop\n        /* \"#utility.yul\":1708:1877   */\n      swap3\n      swap2\n      pop\n      pop\n      jump\t// out\n        /* \"#utility.yul\":1883:2129   */\n    tag_73:\n        /* \"#utility.yul\":1964:1965   */\n      0x00\n        /* \"#utility.yul\":1974:2087   */\n    tag_132:\n        /* \"#utility.yul\":1988:1994   */\n      dup4\n        /* \"#utility.yul\":1985:1986   */\n      dup2\n        /* \"#utility.yul\":1982:1995   */\n      lt\n        /* \"#utility.yul\":1974:2087   */\n      iszero\n      tag_134\n      jumpi\n        /* \"#utility.yul\":2073:2074   */\n      dup1\n        /* \"#utility.yul\":2068:2071   */\n      dup3\n        /* \"#utility.yul\":2064:2075   */\n      add\n        /* \"#utility.yul\":2058:2076   */\n      mload\n        /* \"#utility.yul\":2054:2055   */\n      dup2\n        /* \"#utility.yul\":2049:2052   */\n      dup5\n        /* \"#utility.yul\":2045:2056   */\n      add\n        /* \"#utility.yul\":2038:2077   */\n      mstore\n        /* \"#utility.yul\":2010:2012   */\n      0x20\n        /* \"#utility.yul\":2007:2008   */\n      dup2\n        /* \"#utility.yul\":2003:2013   */\n      add\n        /* \"#utility.yul\":1998:2013   */\n      swap1\n      pop\n        /* \"#utility.yul\":1974:2087   */\n      jump(tag_132)\n    tag_134:\n        /* \"#utility.yul\":2121:2122   */\n      0x00\n        /* \"#utility.yul\":2112:2118   */\n      dup5\n        /* \"#utility.yul\":2107:2110   */\n      dup5\n        /* \"#utility.yul\":2103:2119   */\n      add\n        /* \"#utility.yul\":2096:2123   */\n      mstore\n        /* \"#utility.yul\":1945:2129   */\n      pop\n        /* \"#utility.yul\":1883:2129   */\n      pop\n      pop\n      pop\n      jump\t// out\n        /* \"#utility.yul\":2135:2237   */\n    tag_74:\n        /* \"#utility.yul\":2176:2182   */\n      0x00\n        /* \"#utility.yul\":2227:2229   */\n      0x1f\n        /* \"#utility.yul\":2223:2230   */\n      not\n        /* \"#utility.yul\":2218:2220   */\n      0x1f\n        /* \"#utility.yul\":2211:2216   */\n      dup4\n        /* \"#utility.yul\":2207:2221   */\n      add\n        /* \"#utility.yul\":2203:2231   */\n      and\n        /* \"#utility.yul\":2193:2231   */\n      swap1\n      pop\n        /* \"#utility.yul\":2135:2237   */\n      swap2\n      swap1\n      pop\n      jump\t// out\n        /* \"#utility.yul\":2243:2620   */\n    tag_75:\n        /* \"#utility.yul\":2331:2334   */\n      0x00\n        /* \"#utility.yul\":2359:2398   */\n      tag_137\n        /* \"#utility.yul\":2392:2397   */\n      dup3\n        /* \"#utility.yul\":2359:2398   */\n      tag_71\n      jump\t// in\n    tag_137:\n        /* \"#utility.yul\":2414:2485   */\n      tag_138\n        /* \"#utility.yul\":2478:2484   */\n      dup2\n        /* \"#utility.yul\":2473:2476   */\n      dup6\n        /* \"#utility.yul\":2414:2485   */\n      tag_72\n      jump\t// in\n    tag_138:\n        /* \"#utility.yul\":2407:2485   */\n      swap4\n      pop\n        /* \"#utility.yul\":2494:2559   */\n      tag_139\n        /* \"#utility.yul\":2552:2558   */\n      dup2\n        /* \"#utility.yul\":2547:2550   */\n      dup6\n        /* \"#utility.yul\":2540:2544   */\n      0x20\n        /* \"#utility.yul\":2533:2538   */\n      dup7\n        /* \"#utility.yul\":2529:2545   */\n      add\n        /* \"#utility.yul\":2494:2559   */\n      tag_73\n      jump\t// in\n    tag_139:\n        /* \"#utility.yul\":2584:2613   */\n      tag_140\n        /* \"#utility.yul\":2606:2612   */\n      dup2\n        /* \"#utility.yul\":2584:2613   */\n      tag_74\n      jump\t// in\n    tag_140:\n        /* \"#utility.yul\":2579:2582   */\n      dup5\n        /* \"#utility.yul\":2575:2614   */\n      add\n        /* \"#utility.yul\":2568:2614   */\n      swap2\n      pop\n        /* \"#utility.yul\":2335:2620   */\n      pop\n        /* \"#utility.yul\":2243:2620   */\n      swap3\n      swap2\n      pop\n      pop\n      jump\t// out\n        /* \"#utility.yul\":2626:2703   */\n    tag_76:\n        /* \"#utility.yul\":2663:2670   */\n      0x00\n        /* \"#utility.yul\":2692:2697   */\n      dup2\n        /* \"#utility.yul\":2681:2697   */\n      swap1\n      pop\n        /* \"#utility.yul\":2626:2703   */\n      swap2\n      swap1\n      pop\n      jump\t// out\n        /* \"#utility.yul\":2709:2827   */\n    tag_77:\n        /* \"#utility.yul\":2796:2820   */\n      tag_143\n        /* \"#utility.yul\":2814:2819   */\n      dup2\n        /* \"#utility.yul\":2796:2820   */\n      tag_76\n      jump\t// in\n    tag_143:\n        /* \"#utility.yul\":2791:2794   */\n      dup3\n        /* \"#utility.yul\":2784:2821   */\n      mstore\n        /* \"#utility.yul\":2709:2827   */\n      pop\n      pop\n      jump\t// out\n        /* \"#utility.yul\":2833:3568   */\n    tag_17:\n        /* \"#utility.yul\":3050:3054   */\n      0x00\n        /* \"#utility.yul\":3088:3091   */\n      0x80\n        /* \"#utility.yul\":3077:3086   */\n      dup3\n        /* \"#utility.yul\":3073:3092   */\n      add\n        /* \"#utility.yul\":3065:3092   */\n      swap1\n      pop\n        /* \"#utility.yul\":3138:3147   */\n      dup2\n        /* \"#utility.yul\":3132:3136   */\n      dup2\n        /* \"#utility.yul\":3128:3148   */\n      sub\n        /* \"#utility.yul\":3124:3125   */\n      0x00\n        /* \"#utility.yul\":3113:3122   */\n      dup4\n        /* \"#utility.yul\":3109:3126   */\n      add\n        /* \"#utility.yul\":3102:3149   */\n      mstore\n        /* \"#utility.yul\":3166:3244   */\n      tag_145\n        /* \"#utility.yul\":3239:3243   */\n      dup2\n        /* \"#utility.yul\":3230:3236   */\n      dup8\n        /* \"#utility.yul\":3166:3244   */\n      tag_75\n      jump\t// in\n    tag_145:\n        /* \"#utility.yul\":3158:3244   */\n      swap1\n      pop\n        /* \"#utility.yul\":3291:3300   */\n      dup2\n        /* \"#utility.yul\":3285:3289   */\n      dup2\n        /* \"#utility.yul\":3281:3301   */\n      sub\n        /* \"#utility.yul\":3276:3278   */\n      0x20\n        /* \"#utility.yul\":3265:3274   */\n      dup4\n        /* \"#utility.yul\":3261:3279   */\n      add\n        /* \"#utility.yul\":3254:3302   */\n      mstore\n        /* \"#utility.yul\":3319:3397   */\n      tag_146\n        /* \"#utility.yul\":3392:3396   */\n      dup2\n        /* \"#utility.yul\":3383:3389   */\n      dup7\n        /* \"#utility.yul\":3319:3397   */\n      tag_75\n      jump\t// in\n    tag_146:\n        /* \"#utility.yul\":3311:3397   */\n      swap1\n      pop\n        /* \"#utility.yul\":3407:3479   */\n      tag_147\n        /* \"#utility.yul\":3475:3477   */\n      0x40\n        /* \"#utility.yul\":3464:3473   */\n      dup4\n        /* \"#utility.yul\":3460:3478   */\n      add\n        /* \"#utility.yul\":3451:3457   */\n      dup6\n        /* \"#utility.yul\":3407:3479   */\n      tag_77\n      jump\t// in\n    tag_147:\n        /* \"#utility.yul\":3489:3561   */\n      tag_148\n        /* \"#utility.yul\":3557:3559   */\n      0x60\n        /* \"#utility.yul\":3546:3555   */\n      dup4\n        /* \"#utility.yul\":3542:3560   */\n      add\n        /* \"#utility.yul\":3533:3539   */\n      dup5\n        /* \"#utility.yul\":3489:3561   */\n      tag_77\n      jump\t// in\n    tag_148:\n        /* \"#utility.yul\":2833:3568   */\n      swap6\n      swap5\n      pop\n      pop\n      pop\n      pop\n      pop\n      jump\t// out\n        /* \"#utility.yul\":3574:3691   */\n    tag_78:\n        /* \"#utility.yul\":3683:3684   */\n      0x00\n        /* \"#utility.yul\":3680:3681   */\n      dup1\n        /* \"#utility.yul\":3673:3685   */\n      revert\n        /* \"#utility.yul\":3697:3814   */\n    tag_79:\n        /* \"#utility.yul\":3806:3807   */\n      0x00\n        /* \"#utility.yul\":3803:3804   */\n      dup1\n        /* \"#utility.yul\":3796:3808   */\n      revert\n        /* \"#utility.yul\":3820:4000   */\n    tag_80:\n        /* \"#utility.yul\":3868:3945   */\n      0x4e487b7100000000000000000000000000000000000000000000000000000000\n        /* \"#utility.yul\":3865:3866   */\n      0x00\n        /* \"#utility.yul\":3858:3946   */\n      mstore\n        /* \"#utility.yul\":3965:3969   */\n      0x41\n        /* \"#utility.yul\":3962:3963   */\n      0x04\n        /* \"#utility.yul\":3955:3970   */\n      mstore\n        /* \"#utility.yul\":3989:3993   */\n      0x24\n        /* \"#utility.yul\":3986:3987   */\n      0x00\n        /* \"#utility.yul\":3979:3994   */\n      revert\n        /* \"#utility.yul\":4006:4287   */\n    tag_81:\n        /* \"#utility.yul\":4089:4116   */\n      tag_153\n        /* \"#utility.yul\":4111:4115   */\n      dup3\n        /* \"#utility.yul\":4089:4116   */\n      tag_74\n      jump\t// in\n    tag_153:\n        /* \"#utility.yul\":4081:4087   */\n      dup2\n        /* \"#utility.yul\":4077:4117   */\n      add\n        /* \"#utility.yul\":4219:4225   */\n      dup2\n        /* \"#utility.yul\":4207:4217   */\n      dup2\n        /* \"#utility.yul\":4204:4226   */\n      lt\n        /* \"#utility.yul\":4183:4201   */\n      0xffffffffffffffff\n        /* \"#utility.yul\":4171:4181   */\n      dup3\n        /* \"#utility.yul\":4168:4202   */\n      gt\n        /* \"#utility.yul\":4165:4227   */\n      or\n        /* \"#utility.yul\":4162:4250   */\n      iszero\n      tag_154\n      jumpi\n        /* \"#utility.yul\":4230:4248   */\n      tag_155\n      tag_80\n      jump\t// in\n    tag_155:\n        /* \"#utility.yul\":4162:4250   */\n    tag_154:\n        /* \"#utility.yul\":4270:4280   */\n      dup1\n        /* \"#utility.yul\":4266:4268   */\n      0x40\n        /* \"#utility.yul\":4259:4281   */\n      mstore\n        /* \"#utility.yul\":4049:4287   */\n      pop\n        /* \"#utility.yul\":4006:4287   */\n      pop\n      pop\n      jump\t// out\n        /* \"#utility.yul\":4293:4422   */\n    tag_82:\n        /* \"#utility.yul\":4327:4333   */\n      0x00\n        /* \"#utility.yul\":4354:4374   */\n      tag_157\n      tag_62\n      jump\t// in\n    tag_157:\n        /* \"#utility.yul\":4344:4374   */\n      swap1\n      pop\n        /* \"#utility.yul\":4383:4416   */\n      tag_158\n        /* \"#utility.yul\":4411:4415   */\n      dup3\n        /* \"#utility.yul\":4403:4409   */\n      dup3\n        /* \"#utility.yul\":4383:4416   */\n      tag_81\n      jump\t// in\n    tag_158:\n        /* \"#utility.yul\":4293:4422   */\n      swap2\n      swap1\n      pop\n      jump\t// out\n        /* \"#utility.yul\":4428:4736   */\n    tag_83:\n        /* \"#utility.yul\":4490:4494   */\n      0x00\n        /* \"#utility.yul\":4580:4598   */\n      0xffffffffffffffff\n        /* \"#utility.yul\":4572:4578   */\n      dup3\n        /* \"#utility.yul\":4569:4599   */\n      gt\n        /* \"#utility.yul\":4566:4622   */\n      iszero\n      tag_160\n      jumpi\n        /* \"#utility.yul\":4602:4620   */\n      tag_161\n      tag_80\n      jump\t// in\n    tag_161:\n        /* \"#utility.yul\":4566:4622   */\n    tag_160:\n        /* \"#utility.yul\":4640:4669   */\n      tag_162\n        /* \"#utility.yul\":4662:4668   */\n      dup3\n        /* \"#utility.yul\":4640:4669   */\n      tag_74\n      jump\t// in\n    tag_162:\n        /* \"#utility.yul\":4632:4669   */\n      swap1\n      pop\n        /* \"#utility.yul\":4724:4728   */\n      0x20\n        /* \"#utility.yul\":4718:4722   */\n      dup2\n        /* \"#utility.yul\":4714:4729   */\n      add\n        /* \"#utility.yul\":4706:4729   */\n      swap1\n      pop\n        /* \"#utility.yul\":4428:4736   */\n      swap2\n      swap1\n      pop\n      jump\t// out\n        /* \"#utility.yul\":4742:4888   */\n    tag_84:\n        /* \"#utility.yul\":4839:4845   */\n      dup3\n        /* \"#utility.yul\":4834:4837   */\n      dup2\n        /* \"#utility.yul\":4829:4832   */\n      dup4\n        /* \"#utility.yul\":4816:4846   */\n      calldatacopy\n        /* \"#utility.yul\":4880:4881   */\n      0x00\n        /* \"#utility.yul\":4871:4877   */\n      dup4\n        /* \"#utility.yul\":4866:4869   */\n      dup4\n        /* \"#utility.yul\":4862:4878   */\n      add\n        /* \"#utility.yul\":4855:4882   */\n      mstore\n        /* \"#utility.yul\":4742:4888   */\n      pop\n      pop\n      pop\n      jump\t// out\n        /* \"#utility.yul\":4894:5319   */\n    tag_85:\n        /* \"#utility.yul\":4972:4977   */\n      0x00\n        /* \"#utility.yul\":4997:5063   */\n      tag_165\n        /* \"#utility.yul\":5013:5062   */\n      tag_166\n        /* \"#utility.yul\":5055:5061   */\n      dup5\n        /* \"#utility.yul\":5013:5062   */\n      tag_83\n      jump\t// in\n    tag_166:\n        /* \"#utility.yul\":4997:5063   */\n      tag_82\n      jump\t// in\n    tag_165:\n        /* \"#utility.yul\":4988:5063   */\n      swap1\n      pop\n        /* \"#utility.yul\":5086:5092   */\n      dup3\n        /* \"#utility.yul\":5079:5084   */\n      dup2\n        /* \"#utility.yul\":5072:5093   */\n      mstore\n        /* \"#utility.yul\":5124:5128   */\n      0x20\n        /* \"#utility.yul\":5117:5122   */\n      dup2\n        /* \"#utility.yul\":5113:5129   */\n      add\n        /* \"#utility.yul\":5162:5165   */\n      dup5\n        /* \"#utility.yul\":5153:5159   */\n      dup5\n        /* \"#utility.yul\":5148:5151   */\n      dup5\n        /* \"#utility.yul\":5144:5160   */\n      add\n        /* \"#utility.yul\":5141:5166   */\n      gt\n        /* \"#utility.yul\":5138:5250   */\n      iszero\n      tag_167\n      jumpi\n        /* \"#utility.yul\":5169:5248   */\n      tag_168\n      tag_79\n      jump\t// in\n    tag_168:\n        /* \"#utility.yul\":5138:5250   */\n    tag_167:\n        /* \"#utility.yul\":5259:5313   */\n      tag_169\n        /* \"#utility.yul\":5306:5312   */\n      dup5\n        /* \"#utility.yul\":5301:5304   */\n      dup3\n        /* \"#utility.yul\":5296:5299   */\n      dup6\n        /* \"#utility.yul\":5259:5313   */\n      tag_84\n      jump\t// in\n    tag_169:\n        /* \"#utility.yul\":4978:5319   */\n      pop\n        /* \"#utility.yul\":4894:5319   */\n      swap4\n      swap3\n      pop\n      pop\n      pop\n      jump\t// out\n        /* \"#utility.yul\":5339:5679   */\n    tag_86:\n        /* \"#utility.yul\":5395:5400   */\n      0x00\n        /* \"#utility.yul\":5444:5447   */\n      dup3\n        /* \"#utility.yul\":5437:5441   */\n      0x1f\n        /* \"#utility.yul\":5429:5435   */\n      dup4\n        /* \"#utility.yul\":5425:5442   */\n      add\n        /* \"#utility.yul\":5421:5448   */\n      slt\n        /* \"#utility.yul\":5411:5533   */\n      tag_171\n      jumpi\n        /* \"#utility.yul\":5452:5531   */\n      tag_172\n      tag_78\n      jump\t// in\n    tag_172:\n        /* \"#utility.yul\":5411:5533   */\n    tag_171:\n        /* \"#utility.yul\":5569:5575   */\n      dup2\n        /* \"#utility.yul\":5556:5576   */\n      calldataload\n        /* \"#utility.yul\":5594:5673   */\n      tag_173\n        /* \"#utility.yul\":5669:5672   */\n      dup5\n        /* \"#utility.yul\":5661:5667   */\n      dup3\n        /* \"#utility.yul\":5654:5658   */\n      0x20\n        /* \"#utility.yul\":5646:5652   */\n      dup7\n        /* \"#utility.yul\":5642:5659   */\n      add\n        /* \"#utility.yul\":5594:5673   */\n      tag_85\n      jump\t// in\n    tag_173:\n        /* \"#utility.yul\":5585:5673   */\n      swap2\n      pop\n        /* \"#utility.yul\":5401:5679   */\n      pop\n        /* \"#utility.yul\":5339:5679   */\n      swap3\n      swap2\n      pop\n      pop\n      jump\t// out\n        /* \"#utility.yul\":5685:5807   */\n    tag_87:\n        /* \"#utility.yul\":5758:5782   */\n      tag_175\n        /* \"#utility.yul\":5776:5781   */\n      dup2\n        /* \"#utility.yul\":5758:5782   */\n      tag_76\n      jump\t// in\n    tag_175:\n        /* \"#utility.yul\":5751:5756   */\n      dup2\n        /* \"#utility.yul\":5748:5783   */\n      eq\n        /* \"#utility.yul\":5738:5801   */\n      tag_176\n      jumpi\n        /* \"#utility.yul\":5797:5798   */\n      0x00\n        /* \"#utility.yul\":5794:5795   */\n      dup1\n        /* \"#utility.yul\":5787:5799   */\n      revert\n        /* \"#utility.yul\":5738:5801   */\n    tag_176:\n        /* \"#utility.yul\":5685:5807   */\n      pop\n      jump\t// out\n        /* \"#utility.yul\":5813:5952   */\n    tag_88:\n        /* \"#utility.yul\":5859:5864   */\n      0x00\n        /* \"#utility.yul\":5897:5903   */\n      dup2\n        /* \"#utility.yul\":5884:5904   */\n      calldataload\n        /* \"#utility.yul\":5875:5904   */\n      swap1\n      pop\n        /* \"#utility.yul\":5913:5946   */\n      tag_178\n        /* \"#utility.yul\":5940:5945   */\n      dup2\n        /* \"#utility.yul\":5913:5946   */\n      tag_87\n      jump\t// in\n    tag_178:\n        /* \"#utility.yul\":5813:5952   */\n      swap3\n      swap2\n      pop\n      pop\n      jump\t// out\n        /* \"#utility.yul\":5958:7083   */\n    tag_20:\n        /* \"#utility.yul\":6064:6070   */\n      0x00\n        /* \"#utility.yul\":6072:6078   */\n      dup1\n        /* \"#utility.yul\":6080:6086   */\n      0x00\n        /* \"#utility.yul\":6088:6094   */\n      dup1\n        /* \"#utility.yul\":6137:6140   */\n      0x80\n        /* \"#utility.yul\":6125:6134   */\n      dup6\n        /* \"#utility.yul\":6116:6123   */\n      dup8\n        /* \"#utility.yul\":6112:6135   */\n      sub\n        /* \"#utility.yul\":6108:6141   */\n      slt\n        /* \"#utility.yul\":6105:6225   */\n      iszero\n      tag_180\n      jumpi\n        /* \"#utility.yul\":6144:6223   */\n      tag_181\n      tag_63\n      jump\t// in\n    tag_181:\n        /* \"#utility.yul\":6105:6225   */\n    tag_180:\n        /* \"#utility.yul\":6292:6293   */\n      0x00\n        /* \"#utility.yul\":6281:6290   */\n      dup6\n        /* \"#utility.yul\":6277:6294   */\n      add\n        /* \"#utility.yul\":6264:6295   */\n      calldataload\n        /* \"#utility.yul\":6322:6340   */\n      0xffffffffffffffff\n        /* \"#utility.yul\":6314:6320   */\n      dup2\n        /* \"#utility.yul\":6311:6341   */\n      gt\n        /* \"#utility.yul\":6308:6425   */\n      iszero\n      tag_182\n      jumpi\n        /* \"#utility.yul\":6344:6423   */\n      tag_183\n      tag_64\n      jump\t// in\n    tag_183:\n        /* \"#utility.yul\":6308:6425   */\n    tag_182:\n        /* \"#utility.yul\":6449:6512   */\n      tag_184\n        /* \"#utility.yul\":6504:6511   */\n      dup8\n        /* \"#utility.yul\":6495:6501   */\n      dup3\n        /* \"#utility.yul\":6484:6493   */\n      dup9\n        /* \"#utility.yul\":6480:6502   */\n      add\n        /* \"#utility.yul\":6449:6512   */\n      tag_86\n      jump\t// in\n    tag_184:\n        /* \"#utility.yul\":6439:6512   */\n      swap5\n      pop\n        /* \"#utility.yul\":6235:6522   */\n      pop\n        /* \"#utility.yul\":6589:6591   */\n      0x20\n        /* \"#utility.yul\":6578:6587   */\n      dup6\n        /* \"#utility.yul\":6574:6592   */\n      add\n        /* \"#utility.yul\":6561:6593   */\n      calldataload\n        /* \"#utility.yul\":6620:6638   */\n      0xffffffffffffffff\n        /* \"#utility.yul\":6612:6618   */\n      dup2\n        /* \"#utility.yul\":6609:6639   */\n      gt\n        /* \"#utility.yul\":6606:6723   */\n      iszero\n      tag_185\n      jumpi\n        /* \"#utility.yul\":6642:6721   */\n      tag_186\n      tag_64\n      jump\t// in\n    tag_186:\n        /* \"#utility.yul\":6606:6723   */\n    tag_185:\n        /* \"#utility.yul\":6747:6810   */\n      tag_187\n        /* \"#utility.yul\":6802:6809   */\n      dup8\n        /* \"#utility.yul\":6793:6799   */\n      dup3\n        /* \"#utility.yul\":6782:6791   */\n      dup9\n        /* \"#utility.yul\":6778:6800   */\n      add\n        /* \"#utility.yul\":6747:6810   */\n      tag_86\n      jump\t// in\n    tag_187:\n        /* \"#utility.yul\":6737:6810   */\n      swap4\n      pop\n        /* \"#utility.yul\":6532:6820   */\n      pop\n        /* \"#utility.yul\":6859:6861   */\n      0x40\n        /* \"#utility.yul\":6885:6938   */\n      tag_188\n        /* \"#utility.yul\":6930:6937   */\n      dup8\n        /* \"#utility.yul\":6921:6927   */\n      dup3\n        /* \"#utility.yul\":6910:6919   */\n      dup9\n        /* \"#utility.yul\":6906:6928   */\n      add\n        /* \"#utility.yul\":6885:6938   */\n      tag_88\n      jump\t// in\n    tag_188:\n        /* \"#utility.yul\":6875:6938   */\n      swap3\n      pop\n        /* \"#utility.yul\":6830:6948   */\n      pop\n        /* \"#utility.yul\":6987:6989   */\n      0x60\n        /* \"#utility.yul\":7013:7066   */\n      tag_189\n        /* \"#utility.yul\":7058:7065   */\n      dup8\n        /* \"#utility.yul\":7049:7055   */\n      dup3\n        /* \"#utility.yul\":7038:7047   */\n      dup9\n        /* \"#utility.yul\":7034:7056   */\n      add\n        /* \"#utility.yul\":7013:7066   */\n      tag_88\n      jump\t// in\n    tag_189:\n        /* \"#utility.yul\":7003:7066   */\n      swap2\n      pop\n        /* \"#utility.yul\":6958:7076   */\n      pop\n        /* \"#utility.yul\":5958:7083   */\n      swap3\n      swap6\n      swap2\n      swap5\n      pop\n      swap3\n      pop\n      jump\t// out\n        /* \"#utility.yul\":7089:7923   */\n    tag_26:\n        /* \"#utility.yul\":7328:7332   */\n      0x00\n        /* \"#utility.yul\":7366:7369   */\n      0xa0\n        /* \"#utility.yul\":7355:7364   */\n      dup3\n        /* \"#utility.yul\":7351:7370   */\n      add\n        /* \"#utility.yul\":7343:7370   */\n      swap1\n      pop\n        /* \"#utility.yul\":7416:7425   */\n      dup2\n        /* \"#utility.yul\":7410:7414   */\n      dup2\n        /* \"#utility.yul\":7406:7426   */\n      sub\n        /* \"#utility.yul\":7402:7403   */\n      0x00\n        /* \"#utility.yul\":7391:7400   */\n      dup4\n        /* \"#utility.yul\":7387:7404   */\n      add\n        /* \"#utility.yul\":7380:7427   */\n      mstore\n        /* \"#utility.yul\":7444:7522   */\n      tag_191\n        /* \"#utility.yul\":7517:7521   */\n      dup2\n        /* \"#utility.yul\":7508:7514   */\n      dup9\n        /* \"#utility.yul\":7444:7522   */\n      tag_75\n      jump\t// in\n    tag_191:\n        /* \"#utility.yul\":7436:7522   */\n      swap1\n      pop\n        /* \"#utility.yul\":7569:7578   */\n      dup2\n        /* \"#utility.yul\":7563:7567   */\n      dup2\n        /* \"#utility.yul\":7559:7579   */\n      sub\n        /* \"#utility.yul\":7554:7556   */\n      0x20\n        /* \"#utility.yul\":7543:7552   */\n      dup4\n        /* \"#utility.yul\":7539:7557   */\n      add\n        /* \"#utility.yul\":7532:7580   */\n      mstore\n        /* \"#utility.yul\":7597:7675   */\n      tag_192\n        /* \"#utility.yul\":7670:7674   */\n      dup2\n        /* \"#utility.yul\":7661:7667   */\n      dup8\n        /* \"#utility.yul\":7597:7675   */\n      tag_75\n      jump\t// in\n    tag_192:\n        /* \"#utility.yul\":7589:7675   */\n      swap1\n      pop\n        /* \"#utility.yul\":7685:7757   */\n      tag_193\n        /* \"#utility.yul\":7753:7755   */\n      0x40\n        /* \"#utility.yul\":7742:7751   */\n      dup4\n        /* \"#utility.yul\":7738:7756   */\n      add\n        /* \"#utility.yul\":7729:7735   */\n      dup7\n        /* \"#utility.yul\":7685:7757   */\n      tag_77\n      jump\t// in\n    tag_193:\n        /* \"#utility.yul\":7767:7839   */\n      tag_194\n        /* \"#utility.yul\":7835:7837   */\n      0x60\n        /* \"#utility.yul\":7824:7833   */\n      dup4\n        /* \"#utility.yul\":7820:7838   */\n      add\n        /* \"#utility.yul\":7811:7817   */\n      dup6\n        /* \"#utility.yul\":7767:7839   */\n      tag_77\n      jump\t// in\n    tag_194:\n        /* \"#utility.yul\":7849:7916   */\n      tag_195\n        /* \"#utility.yul\":7911:7914   */\n      0x80\n        /* \"#utility.yul\":7900:7909   */\n      dup4\n        /* \"#utility.yul\":7896:7915   */\n      add\n        /* \"#utility.yul\":7887:7893   */\n      dup5\n        /* \"#utility.yul\":7849:7916   */\n      tag_70\n      jump\t// in\n    tag_195:\n        /* \"#utility.yul\":7089:7923   */\n      swap7\n      swap6\n      pop\n      pop\n      pop\n      pop\n      pop\n      pop\n      jump\t// out\n        /* \"#utility.yul\":7929:8102   */\n    tag_89:\n        /* \"#utility.yul\":8069:8094   */\n      0x55736572206973206e6f7420726567697374657265642e000000000000000000\n        /* \"#utility.yul\":8065:8066   */\n      0x00\n        /* \"#utility.yul\":8057:8063   */\n      dup3\n        /* \"#utility.yul\":8053:8067   */\n      add\n        /* \"#utility.yul\":8046:8095   */\n      mstore\n        /* \"#utility.yul\":7929:8102   */\n      pop\n      jump\t// out\n        /* \"#utility.yul\":8108:8474   */\n    tag_90:\n        /* \"#utility.yul\":8250:8253   */\n      0x00\n        /* \"#utility.yul\":8271:8338   */\n      tag_198\n        /* \"#utility.yul\":8335:8337   */\n      0x17\n        /* \"#utility.yul\":8330:8333   */\n      dup4\n        /* \"#utility.yul\":8271:8338   */\n      tag_72\n      jump\t// in\n    tag_198:\n        /* \"#utility.yul\":8264:8338   */\n      swap2\n      pop\n        /* \"#utility.yul\":8347:8440   */\n      tag_199\n        /* \"#utility.yul\":8436:8439   */\n      dup3\n        /* \"#utility.yul\":8347:8440   */\n      tag_89\n      jump\t// in\n    tag_199:\n        /* \"#utility.yul\":8465:8467   */\n      0x20\n        /* \"#utility.yul\":8460:8463   */\n      dup3\n        /* \"#utility.yul\":8456:8468   */\n      add\n        /* \"#utility.yul\":8449:8468   */\n      swap1\n      pop\n        /* \"#utility.yul\":8108:8474   */\n      swap2\n      swap1\n      pop\n      jump\t// out\n        /* \"#utility.yul\":8480:8899   */\n    tag_31:\n        /* \"#utility.yul\":8646:8650   */\n      0x00\n        /* \"#utility.yul\":8684:8686   */\n      0x20\n        /* \"#utility.yul\":8673:8682   */\n      dup3\n        /* \"#utility.yul\":8669:8687   */\n      add\n        /* \"#utility.yul\":8661:8687   */\n      swap1\n      pop\n        /* \"#utility.yul\":8733:8742   */\n      dup2\n        /* \"#utility.yul\":8727:8731   */\n      dup2\n        /* \"#utility.yul\":8723:8743   */\n      sub\n        /* \"#utility.yul\":8719:8720   */\n      0x00\n        /* \"#utility.yul\":8708:8717   */\n      dup4\n        /* \"#utility.yul\":8704:8721   */\n      add\n        /* \"#utility.yul\":8697:8744   */\n      mstore\n        /* \"#utility.yul\":8761:8892   */\n      tag_201\n        /* \"#utility.yul\":8887:8891   */\n      dup2\n        /* \"#utility.yul\":8761:8892   */\n      tag_90\n      jump\t// in\n    tag_201:\n        /* \"#utility.yul\":8753:8892   */\n      swap1\n      pop\n        /* \"#utility.yul\":8480:8899   */\n      swap2\n      swap1\n      pop\n      jump\t// out\n        /* \"#utility.yul\":8905:9085   */\n    tag_91:\n        /* \"#utility.yul\":8953:9030   */\n      0x4e487b7100000000000000000000000000000000000000000000000000000000\n        /* \"#utility.yul\":8950:8951   */\n      0x00\n        /* \"#utility.yul\":8943:9031   */\n      mstore\n        /* \"#utility.yul\":9050:9054   */\n      0x22\n        /* \"#utility.yul\":9047:9048   */\n      0x04\n        /* \"#utility.yul\":9040:9055   */\n      mstore\n        /* \"#utility.yul\":9074:9078   */\n      0x24\n        /* \"#utility.yul\":9071:9072   */\n      0x00\n        /* \"#utility.yul\":9064:9079   */\n      revert\n        /* \"#utility.yul\":9091:9411   */\n    tag_33:\n        /* \"#utility.yul\":9135:9141   */\n      0x00\n        /* \"#utility.yul\":9172:9173   */\n      0x02\n        /* \"#utility.yul\":9166:9170   */\n      dup3\n        /* \"#utility.yul\":9162:9174   */\n      div\n        /* \"#utility.yul\":9152:9174   */\n      swap1\n      pop\n        /* \"#utility.yul\":9219:9220   */\n      0x01\n        /* \"#utility.yul\":9213:9217   */\n      dup3\n        /* \"#utility.yul\":9209:9221   */\n      and\n        /* \"#utility.yul\":9240:9258   */\n      dup1\n        /* \"#utility.yul\":9230:9311   */\n      tag_204\n      jumpi\n        /* \"#utility.yul\":9296:9300   */\n      0x7f\n        /* \"#utility.yul\":9288:9294   */\n      dup3\n        /* \"#utility.yul\":9284:9301   */\n      and\n        /* \"#utility.yul\":9274:9301   */\n      swap2\n      pop\n        /* \"#utility.yul\":9230:9311   */\n    tag_204:\n        /* \"#utility.yul\":9358:9360   */\n      0x20\n        /* \"#utility.yul\":9350:9356   */\n      dup3\n        /* \"#utility.yul\":9347:9361   */\n      lt\n        /* \"#utility.yul\":9327:9345   */\n      dup2\n        /* \"#utility.yul\":9324:9362   */\n      sub\n        /* \"#utility.yul\":9321:9405   */\n      tag_205\n      jumpi\n        /* \"#utility.yul\":9377:9395   */\n      tag_206\n      tag_91\n      jump\t// in\n    tag_206:\n        /* \"#utility.yul\":9321:9405   */\n    tag_205:\n        /* \"#utility.yul\":9142:9411   */\n      pop\n        /* \"#utility.yul\":9091:9411   */\n      swap2\n      swap1\n      pop\n      jump\t// out\n        /* \"#utility.yul\":9417:9558   */\n    tag_92:\n        /* \"#utility.yul\":9466:9470   */\n      0x00\n        /* \"#utility.yul\":9489:9492   */\n      dup2\n        /* \"#utility.yul\":9481:9492   */\n      swap1\n      pop\n        /* \"#utility.yul\":9512:9515   */\n      dup2\n        /* \"#utility.yul\":9509:9510   */\n      0x00\n        /* \"#utility.yul\":9502:9516   */\n      mstore\n        /* \"#utility.yul\":9546:9550   */\n      0x20\n        /* \"#utility.yul\":9543:9544   */\n      0x00\n        /* \"#utility.yul\":9533:9551   */\n      keccak256\n        /* \"#utility.yul\":9525:9551   */\n      swap1\n      pop\n        /* \"#utility.yul\":9417:9558   */\n      swap2\n      swap1\n      pop\n      jump\t// out\n        /* \"#utility.yul\":9564:9657   */\n    tag_93:\n        /* \"#utility.yul\":9601:9607   */\n      0x00\n        /* \"#utility.yul\":9648:9650   */\n      0x20\n        /* \"#utility.yul\":9643:9645   */\n      0x1f\n        /* \"#utility.yul\":9636:9641   */\n      dup4\n        /* \"#utility.yul\":9632:9646   */\n      add\n        /* \"#utility.yul\":9628:9651   */\n      div\n        /* \"#utility.yul\":9618:9651   */\n      swap1\n      pop\n        /* \"#utility.yul\":9564:9657   */\n      swap2\n      swap1\n      pop\n      jump\t// out\n        /* \"#utility.yul\":9663:9770   */\n    tag_94:\n        /* \"#utility.yul\":9707:9715   */\n      0x00\n        /* \"#utility.yul\":9757:9762   */\n      dup3\n        /* \"#utility.yul\":9751:9755   */\n      dup3\n        /* \"#utility.yul\":9747:9763   */\n      shl\n        /* \"#utility.yul\":9726:9763   */\n      swap1\n      pop\n        /* \"#utility.yul\":9663:9770   */\n      swap3\n      swap2\n      pop\n      pop\n      jump\t// out\n        /* \"#utility.yul\":9776:10169   */\n    tag_95:\n        /* \"#utility.yul\":9845:9851   */\n      0x00\n        /* \"#utility.yul\":9895:9896   */\n      0x08\n        /* \"#utility.yul\":9883:9893   */\n      dup4\n        /* \"#utility.yul\":9879:9897   */\n      mul\n        /* \"#utility.yul\":9918:10015   */\n      tag_211\n        /* \"#utility.yul\":9948:10014   */\n      0xffffffffffffffffffffffffffffffffffffffffffffffffffffffffffffffff\n        /* \"#utility.yul\":9937:9946   */\n      dup3\n        /* \"#utility.yul\":9918:10015   */\n      tag_94\n      jump\t// in\n    tag_211:\n        /* \"#utility.yul\":10036:10075   */\n      tag_212\n        /* \"#utility.yul\":10066:10074   */\n      dup7\n        /* \"#utility.yul\":10055:10064   */\n      dup4\n        /* \"#utility.yul\":10036:10075   */\n      tag_94\n      jump\t// in\n    tag_212:\n        /* \"#utility.yul\":10024:10075   */\n      swap6\n      pop\n        /* \"#utility.yul\":10108:10112   */\n      dup1\n        /* \"#utility.yul\":10104:10113   */\n      not\n        /* \"#utility.yul\":10097:10102   */\n      dup5\n        /* \"#utility.yul\":10093:10114   */\n      and\n        /* \"#utility.yul\":10084:10114   */\n      swap4\n      pop\n        /* \"#utility.yul\":10157:10161   */\n      dup1\n        /* \"#utility.yul\":10147:10155   */\n      dup7\n        /* \"#utility.yul\":10143:10162   */\n      and\n        /* \"#utility.yul\":10136:10141   */\n      dup5\n        /* \"#utility.yul\":10133:10163   */\n      or\n        /* \"#utility.yul\":10123:10163   */\n      swap3\n      pop\n        /* \"#utility.yul\":9852:10169   */\n      pop\n      pop\n        /* \"#utility.yul\":9776:10169   */\n      swap4\n      swap3\n      pop\n      pop\n      pop\n      jump\t// out\n        /* \"#utility.yul\":10175:10235   */\n    tag_96:\n        /* \"#utility.yul\":10203:10206   */\n      0x00\n        /* \"#utility.yul\":10224:10229   */\n      dup2\n        /* \"#utility.yul\":10217:10229   */\n      swap1\n      pop\n        /* \"#utility.yul\":10175:10235   */\n      swap2\n      swap1\n      pop\n      jump\t// out\n        /* \"#utility.yul\":10241:10383   */\n    tag_97:\n        /* \"#utility.yul\":10291:10300   */\n      0x00\n        /* \"#utility.yul\":10324:10377   */\n      tag_215\n        /* \"#utility.yul\":10342:10376   */\n      tag_216\n        /* \"#utility.yul\":10351:10375   */\n      tag_217\n        /* \"#utility.yul\":10369:10374   */\n      dup5\n        /* \"#utility.yul\":10351:10375   */\n      tag_76\n      jump\t// in\n    tag_217:\n        /* \"#utility.yul\":10342:10376   */\n      tag_96\n      jump\t// in\n    tag_216:\n        /* \"#utility.yul\":10324:10377   */\n      tag_76\n      jump\t// in\n    tag_215:\n        /* \"#utility.yul\":10311:10377   */\n      swap1\n      pop\n        /* \"#utility.yul\":10241:10383   */\n      swap2\n      swap1\n      pop\n      jump\t// out\n        /* \"#utility.yul\":10389:10464   */\n    tag_98:\n        /* \"#utility.yul\":10432:10435   */\n      0x00\n        /* \"#utility.yul\":10453:10458   */\n      dup2\n        /* \"#utility.yul\":10446:10458   */\n      swap1\n      pop\n        /* \"#utility.yul\":10389:10464   */\n      swap2\n      swap1\n      pop\n      jump\t// out\n        /* \"#utility.yul\":10470:10739   */\n    tag_99:\n        /* \"#utility.yul\":10580:10619   */\n      tag_220\n        /* \"#utility.yul\":10611:10618   */\n      dup4\n        /* \"#utility.yul\":10580:10619   */\n      tag_97\n      jump\t// in\n    tag_220:\n        /* \"#utility.yul\":10641:10732   */\n      tag_221\n        /* \"#utility.yul\":10690:10731   */\n      tag_222\n        /* \"#utility.yul\":10714:10730   */\n      dup3\n        /* \"#utility.yul\":10690:10731   */\n      tag_98\n      jump\t// in\n    tag_222:\n        /* \"#utility.yul\":10682:10688   */\n      dup5\n        /* \"#utility.yul\":10675:10679   */\n      dup5\n        /* \"#utility.yul\":10669:10680   */\n      sload\n        /* \"#utility.yul\":10641:10732   */\n      tag_95\n      jump\t// in\n    tag_221:\n        /* \"#utility.yul\":10635:10639   */\n      dup3\n        /* \"#utility.yul\":10628:10733   */\n      sstore\n        /* \"#utility.yul\":10546:10739   */\n      pop\n        /* \"#utility.yul\":10470:10739   */\n      pop\n      pop\n      pop\n      jump\t// out\n        /* \"#utility.yul\":10745:10818   */\n    tag_100:\n        /* \"#utility.yul\":10790:10793   */\n      0x00\n        /* \"#utility.yul\":10745:10818   */\n      swap1\n      jump\t// out\n        /* \"#utility.yul\":10824:11013   */\n    tag_101:\n        /* \"#utility.yul\":10901:10933   */\n      tag_225\n      tag_100\n      jump\t// in\n    tag_225:\n        /* \"#utility.yul\":10942:11007   */\n      tag_226\n        /* \"#utility.yul\":11000:11006   */\n      dup2\n        /* \"#utility.yul\":10992:10998   */\n      dup5\n        /* \"#utility.yul\":10986:10990   */\n      dup5\n        /* \"#utility.yul\":10942:11007   */\n      tag_99\n      jump\t// in\n    tag_226:\n        /* \"#utility.yul\":10877:11013   */\n      pop\n        /* \"#utility.yul\":10824:11013   */\n      pop\n      pop\n      jump\t// out\n        /* \"#utility.yul\":11019:11205   */\n    tag_102:\n        /* \"#utility.yul\":11079:11199   */\n    tag_228:\n        /* \"#utility.yul\":11096:11099   */\n      dup2\n        /* \"#utility.yul\":11089:11094   */\n      dup2\n        /* \"#utility.yul\":11086:11100   */\n      lt\n        /* \"#utility.yul\":11079:11199   */\n      iszero\n      tag_230\n      jumpi\n        /* \"#utility.yul\":11150:11189   */\n      tag_231\n        /* \"#utility.yul\":11187:11188   */\n      0x00\n        /* \"#utility.yul\":11180:11185   */\n      dup3\n        /* \"#utility.yul\":11150:11189   */\n      tag_101\n      jump\t// in\n    tag_231:\n        /* \"#utility.yul\":11123:11124   */\n      0x01\n        /* \"#utility.yul\":11116:11121   */\n      dup2\n        /* \"#utility.yul\":11112:11125   */\n      add\n        /* \"#utility.yul\":11103:11125   */\n      swap1\n      pop\n        /* \"#utility.yul\":11079:11199   */\n      jump(tag_228)\n    tag_230:\n        /* \"#utility.yul\":11019:11205   */\n      pop\n      pop\n      jump\t// out\n        /* \"#utility.yul\":11211:11754   */\n    tag_103:\n        /* \"#utility.yul\":11312:11314   */\n      0x1f\n        /* \"#utility.yul\":11307:11310   */\n      dup3\n        /* \"#utility.yul\":11304:11315   */\n      gt\n        /* \"#utility.yul\":11301:11747   */\n      iszero\n      tag_233\n      jumpi\n        /* \"#utility.yul\":11346:11384   */\n      tag_234\n        /* \"#utility.yul\":11378:11383   */\n      dup2\n        /* \"#utility.yul\":11346:11384   */\n      tag_92\n      jump\t// in\n    tag_234:\n        /* \"#utility.yul\":11430:11459   */\n      tag_235\n        /* \"#utility.yul\":11448:11458   */\n      dup5\n        /* \"#utility.yul\":11430:11459   */\n      tag_93\n      jump\t// in\n    tag_235:\n        /* \"#utility.yul\":11420:11428   */\n      dup2\n        /* \"#utility.yul\":11416:11460   */\n      add\n        /* \"#utility.yul\":11613:11615   */\n      0x20\n        /* \"#utility.yul\":11601:11611   */\n      dup6\n        /* \"#utility.yul\":11598:11616   */\n      lt\n        /* \"#utility.yul\":11595:11644   */\n      iszero\n      tag_236\n      jumpi\n        /* \"#utility.yul\":11634:11642   */\n      dup2\n        /* \"#utility.yul\":11619:11642   */\n      swap1\n      pop\n        /* \"#utility.yul\":11595:11644   */\n    tag_236:\n        /* \"#utility.yul\":11657:11737   */\n      tag_237\n        /* \"#utility.yul\":11713:11735   */\n      tag_238\n        /* \"#utility.yul\":11731:11734   */\n      dup6\n        /* \"#utility.yul\":11713:11735   */\n      tag_93\n      jump\t// in\n    tag_238:\n        /* \"#utility.yul\":11703:11711   */\n      dup4\n        /* \"#utility.yul\":11699:11736   */\n      add\n        /* \"#utility.yul\":11686:11697   */\n      dup3\n        /* \"#utility.yul\":11657:11737   */\n      tag_102\n      jump\t// in\n    tag_237:\n        /* \"#utility.yul\":11316:11747   */\n      pop\n      pop\n        /* \"#utility.yul\":11301:11747   */\n    tag_233:\n        /* \"#utility.yul\":11211:11754   */\n      pop\n      pop\n      pop\n      jump\t// out\n        /* \"#utility.yul\":11760:11877   */\n    tag_104:\n        /* \"#utility.yul\":11814:11822   */\n      0x00\n        /* \"#utility.yul\":11864:11869   */\n      dup3\n        /* \"#utility.yul\":11858:11862   */\n      dup3\n        /* \"#utility.yul\":11854:11870   */\n      shr\n        /* \"#utility.yul\":11833:11870   */\n      swap1\n      pop\n        /* \"#utility.yul\":11760:11877   */\n      swap3\n      swap2\n      pop\n      pop\n      jump\t// out\n        /* \"#utility.yul\":11883:12052   */\n    tag_105:\n        /* \"#utility.yul\":11927:11933   */\n      0x00\n        /* \"#utility.yul\":11960:12011   */\n      tag_241\n        /* \"#utility.yul\":12008:12009   */\n      0x00\n        /* \"#utility.yul\":12004:12010   */\n      not\n        /* \"#utility.yul\":11996:12001   */\n      dup5\n        /* \"#utility.yul\":11993:11994   */\n      0x08\n        /* \"#utility.yul\":11989:12002   */\n      mul\n        /* \"#utility.yul\":11960:12011   */\n      tag_104\n      jump\t// in\n    tag_241:\n        /* \"#utility.yul\":11956:12012   */\n      not\n        /* \"#utility.yul\":12041:12045   */\n      dup1\n        /* \"#utility.yul\":12035:12039   */\n      dup4\n        /* \"#utility.yul\":12031:12046   */\n      and\n        /* \"#utility.yul\":12021:12046   */\n      swap2\n      pop\n        /* \"#utility.yul\":11934:12052   */\n      pop\n        /* \"#utility.yul\":11883:12052   */\n      swap3\n      swap2\n      pop\n      pop\n      jump\t// out\n        /* \"#utility.yul\":12057:12352   */\n    tag_106:\n        /* \"#utility.yul\":12133:12137   */\n      0x00\n        /* \"#utility.yul\":12279:12308   */\n      tag_243\n        /* \"#utility.yul\":12304:12307   */\n      dup4\n        /* \"#utility.yul\":12298:12302   */\n      dup4\n        /* \"#utility.yul\":12279:12308   */\n      tag_105\n      jump\t// in\n    tag_243:\n        /* \"#utility.yul\":12271:12308   */\n      swap2\n      pop\n        /* \"#utility.yul\":12341:12344   */\n      dup3\n        /* \"#utility.yul\":12338:12339   */\n      0x02\n        /* \"#utility.yul\":12334:12345   */\n      mul\n        /* \"#utility.yul\":12328:12332   */\n      dup3\n        /* \"#utility.yul\":12325:12346   */\n      or\n        /* \"#utility.yul\":12317:12346   */\n      swap1\n      pop\n        /* \"#utility.yul\":12057:12352   */\n      swap3\n      swap2\n      pop\n      pop\n      jump\t// out\n        /* \"#utility.yul\":12357:13752   */\n    tag_45:\n        /* \"#utility.yul\":12474:12511   */\n      tag_245\n        /* \"#utility.yul\":12507:12510   */\n      dup3\n        /* \"#utility.yul\":12474:12511   */\n      tag_71\n      jump\t// in\n    tag_245:\n        /* \"#utility.yul\":12576:12594   */\n      0xffffffffffffffff\n        /* \"#utility.yul\":12568:12574   */\n      dup2\n        /* \"#utility.yul\":12565:12595   */\n      gt\n        /* \"#utility.yul\":12562:12618   */\n      iszero\n      tag_246\n      jumpi\n        /* \"#utility.yul\":12598:12616   */\n      tag_247\n      tag_80\n      jump\t// in\n    tag_247:\n        /* \"#utility.yul\":12562:12618   */\n    tag_246:\n        /* \"#utility.yul\":12642:12680   */\n      tag_248\n        /* \"#utility.yul\":12674:12678   */\n      dup3\n        /* \"#utility.yul\":12668:12679   */\n      sload\n        /* \"#utility.yul\":12642:12680   */\n      tag_33\n      jump\t// in\n    tag_248:\n        /* \"#utility.yul\":12727:12794   */\n      tag_249\n        /* \"#utility.yul\":12787:12793   */\n      dup3\n        /* \"#utility.yul\":12779:12785   */\n      dup3\n        /* \"#utility.yul\":12773:12777   */\n      dup6\n        /* \"#utility.yul\":12727:12794   */\n      tag_103\n      jump\t// in\n    tag_249:\n        /* \"#utility.yul\":12821:12822   */\n      0x00\n        /* \"#utility.yul\":12845:12849   */\n      0x20\n        /* \"#utility.yul\":12832:12849   */\n      swap1\n      pop\n        /* \"#utility.yul\":12877:12879   */\n      0x1f\n        /* \"#utility.yul\":12869:12875   */\n      dup4\n        /* \"#utility.yul\":12866:12880   */\n      gt\n        /* \"#utility.yul\":12894:12895   */\n      0x01\n        /* \"#utility.yul\":12889:13507   */\n      dup2\n      eq\n      tag_251\n      jumpi\n        /* \"#utility.yul\":13551:13552   */\n      0x00\n        /* \"#utility.yul\":13568:13574   */\n      dup5\n        /* \"#utility.yul\":13565:13642   */\n      iszero\n      tag_252\n      jumpi\n        /* \"#utility.yul\":13617:13626   */\n      dup3\n        /* \"#utility.yul\":13612:13615   */\n      dup8\n        /* \"#utility.yul\":13608:13627   */\n      add\n        /* \"#utility.yul\":13602:13628   */\n      mload\n        /* \"#utility.yul\":13593:13628   */\n      swap1\n      pop\n        /* \"#utility.yul\":13565:13642   */\n    tag_252:\n        /* \"#utility.yul\":13668:13735   */\n      tag_253\n        /* \"#utility.yul\":13728:13734   */\n      dup6\n        /* \"#utility.yul\":13721:13726   */\n      dup3\n        /* \"#utility.yul\":13668:13735   */\n      tag_106\n      jump\t// in\n    tag_253:\n        /* \"#utility.yul\":13662:13666   */\n      dup7\n        /* \"#utility.yul\":13655:13736   */\n      sstore\n        /* \"#utility.yul\":13524:13746   */\n      pop\n        /* \"#utility.yul\":12859:13746   */\n      jump(tag_250)\n        /* \"#utility.yul\":12889:13507   */\n    tag_251:\n        /* \"#utility.yul\":12941:12945   */\n      0x1f\n        /* \"#utility.yul\":12937:12946   */\n      not\n        /* \"#utility.yul\":12929:12935   */\n      dup5\n        /* \"#utility.yul\":12925:12947   */\n      and\n        /* \"#utility.yul\":12975:13012   */\n      tag_254\n        /* \"#utility.yul\":13007:13011   */\n      dup7\n        /* \"#utility.yul\":12975:13012   */\n      tag_92\n      jump\t// in\n    tag_254:\n        /* \"#utility.yul\":13034:13035   */\n      0x00\n        /* \"#utility.yul\":13048:13256   */\n    tag_255:\n        /* \"#utility.yul\":13062:13069   */\n      dup3\n        /* \"#utility.yul\":13059:13060   */\n      dup2\n        /* \"#utility.yul\":13056:13070   */\n      lt\n        /* \"#utility.yul\":13048:13256   */\n      iszero\n      tag_257\n      jumpi\n        /* \"#utility.yul\":13141:13150   */\n      dup5\n        /* \"#utility.yul\":13136:13139   */\n      dup10\n        /* \"#utility.yul\":13132:13151   */\n      add\n        /* \"#utility.yul\":13126:13152   */\n      mload\n        /* \"#utility.yul\":13118:13124   */\n      dup3\n        /* \"#utility.yul\":13111:13153   */\n      sstore\n        /* \"#utility.yul\":13192:13193   */\n      0x01\n        /* \"#utility.yul\":13184:13190   */\n      dup3\n        /* \"#utility.yul\":13180:13194   */\n      add\n        /* \"#utility.yul\":13170:13194   */\n      swap2\n      pop\n        /* \"#utility.yul\":13239:13241   */\n      0x20\n        /* \"#utility.yul\":13228:13237   */\n      dup6\n        /* \"#utility.yul\":13224:13242   */\n      add\n        /* \"#utility.yul\":13211:13242   */\n      swap5\n      pop\n        /* \"#utility.yul\":13085:13089   */\n      0x20\n        /* \"#utility.yul\":13082:13083   */\n      dup2\n        /* \"#utility.yul\":13078:13090   */\n      add\n        /* \"#utility.yul\":13073:13090   */\n      swap1\n      pop\n        /* \"#utility.yul\":13048:13256   */\n      jump(tag_255)\n    tag_257:\n        /* \"#utility.yul\":13284:13290   */\n      dup7\n        /* \"#utility.yul\":13275:13282   */\n      dup4\n        /* \"#utility.yul\":13272:13291   */\n      lt\n        /* \"#utility.yul\":13269:13448   */\n      iszero\n      tag_258\n      jumpi\n        /* \"#utility.yul\":13342:13351   */\n      dup5\n        /* \"#utility.yul\":13337:13340   */\n      dup10\n        /* \"#utility.yul\":13333:13352   */\n      add\n        /* \"#utility.yul\":13327:13353   */\n      mload\n        /* \"#utility.yul\":13385:13433   */\n      tag_259\n        /* \"#utility.yul\":13427:13431   */\n      0x1f\n        /* \"#utility.yul\":13419:13425   */\n      dup10\n        /* \"#utility.yul\":13415:13432   */\n      and\n        /* \"#utility.yul\":13404:13413   */\n      dup3\n        /* \"#utility.yul\":13385:13433   */\n      tag_105\n      jump\t// in\n    tag_259:\n        /* \"#utility.yul\":13377:13383   */\n      dup4\n        /* \"#utility.yul\":13370:13434   */\n      sstore\n        /* \"#utility.yul\":13292:13448   */\n      pop\n        /* \"#utility.yul\":13269:13448   */\n    tag_258:\n        /* \"#utility.yul\":13494:13495   */\n      0x01\n        /* \"#utility.yul\":13490:13491   */\n      0x02\n        /* \"#utility.yul\":13482:13488   */\n      dup9\n        /* \"#utility.yul\":13478:13492   */\n      mul\n        /* \"#utility.yul\":13474:13496   */\n      add\n        /* \"#utility.yul\":13468:13472   */\n      dup9\n        /* \"#utility.yul\":13461:13497   */\n      sstore\n        /* \"#utility.yul\":12896:13507   */\n      pop\n      pop\n      pop\n        /* \"#utility.yul\":12859:13746   */\n    tag_250:\n      pop\n        /* \"#utility.yul\":12449:13752   */\n      pop\n      pop\n      pop\n        /* \"#utility.yul\":12357:13752   */\n      pop\n      pop\n      jump\t// out\n        /* \"#utility.yul\":13758:13876   */\n    tag_107:\n        /* \"#utility.yul\":13845:13869   */\n      tag_261\n        /* \"#utility.yul\":13863:13868   */\n      dup2\n        /* \"#utility.yul\":13845:13869   */\n      tag_66\n      jump\t// in\n    tag_261:\n        /* \"#utility.yul\":13840:13843   */\n      dup3\n        /* \"#utility.yul\":13833:13870   */\n      mstore\n        /* \"#utility.yul\":13758:13876   */\n      pop\n      pop\n      jump\t// out\n        /* \"#utility.yul\":13882:14728   */\n    tag_49:\n        /* \"#utility.yul\":14127:14131   */\n      0x00\n        /* \"#utility.yul\":14165:14168   */\n      0xa0\n        /* \"#utility.yul\":14154:14163   */\n      dup3\n        /* \"#utility.yul\":14150:14169   */\n      add\n        /* \"#utility.yul\":14142:14169   */\n      swap1\n      pop\n        /* \"#utility.yul\":14179:14250   */\n      tag_263\n        /* \"#utility.yul\":14247:14248   */\n      0x00\n        /* \"#utility.yul\":14236:14245   */\n      dup4\n        /* \"#utility.yul\":14232:14249   */\n      add\n        /* \"#utility.yul\":14223:14229   */\n      dup9\n        /* \"#utility.yul\":14179:14250   */\n      tag_107\n      jump\t// in\n    tag_263:\n        /* \"#utility.yul\":14297:14306   */\n      dup2\n        /* \"#utility.yul\":14291:14295   */\n      dup2\n        /* \"#utility.yul\":14287:14307   */\n      sub\n        /* \"#utility.yul\":14282:14284   */\n      0x20\n        /* \"#utility.yul\":14271:14280   */\n      dup4\n        /* \"#utility.yul\":14267:14285   */\n      add\n        /* \"#utility.yul\":14260:14308   */\n      mstore\n        /* \"#utility.yul\":14325:14403   */\n      tag_264\n        /* \"#utility.yul\":14398:14402   */\n      dup2\n        /* \"#utility.yul\":14389:14395   */\n      dup8\n        /* \"#utility.yul\":14325:14403   */\n      tag_75\n      jump\t// in\n    tag_264:\n        /* \"#utility.yul\":14317:14403   */\n      swap1\n      pop\n        /* \"#utility.yul\":14450:14459   */\n      dup2\n        /* \"#utility.yul\":14444:14448   */\n      dup2\n        /* \"#utility.yul\":14440:14460   */\n      sub\n        /* \"#utility.yul\":14435:14437   */\n      0x40\n        /* \"#utility.yul\":14424:14433   */\n      dup4\n        /* \"#utility.yul\":14420:14438   */\n      add\n        /* \"#utility.yul\":14413:14461   */\n      mstore\n        /* \"#utility.yul\":14478:14556   */\n      tag_265\n        /* \"#utility.yul\":14551:14555   */\n      dup2\n        /* \"#utility.yul\":14542:14548   */\n      dup7\n        /* \"#utility.yul\":14478:14556   */\n      tag_75\n      jump\t// in\n    tag_265:\n        /* \"#utility.yul\":14470:14556   */\n      swap1\n      pop\n        /* \"#utility.yul\":14566:14638   */\n      tag_266\n        /* \"#utility.yul\":14634:14636   */\n      0x60\n        /* \"#utility.yul\":14623:14632   */\n      dup4\n        /* \"#utility.yul\":14619:14637   */\n      add\n        /* \"#utility.yul\":14610:14616   */\n      dup6\n        /* \"#utility.yul\":14566:14638   */\n      tag_77\n      jump\t// in\n    tag_266:\n        /* \"#utility.yul\":14648:14721   */\n      tag_267\n        /* \"#utility.yul\":14716:14719   */\n      0x80\n        /* \"#utility.yul\":14705:14714   */\n      dup4\n        /* \"#utility.yul\":14701:14720   */\n      add\n        /* \"#utility.yul\":14692:14698   */\n      dup5\n        /* \"#utility.yul\":14648:14721   */\n      tag_77\n      jump\t// in\n    tag_267:\n        /* \"#utility.yul\":13882:14728   */\n      swap7\n      swap6\n      pop\n      pop\n      pop\n      pop\n      pop\n      pop\n      jump\t// out\n\n    auxdata: 0xa26469706673582212205f8b0e82e8c7faec46e533b0ed5e934d6e2f4dae8c207a6c91c1c439e6b9dced64736f6c63430008180033\n}\n",
				"bytecode": {
					"linkReferences": {},
					"object": "608060405234801561000f575f80fd5b50610db48061001d5f395ff3fe608060405234801561000f575f80fd5b506004361061004a575f3560e01c8063163f75221461004e5780636386c1c71461007e57806389e4050e146100b1578063a87430ba146100cd575b5f80fd5b6100686004803603810190610063919061063d565b610101565b6040516100759190610682565b60405180910390f35b6100986004803603810190610093919061063d565b610155565b6040516100a8949392919061073d565b60405180910390f35b6100cb60048036038101906100c691906108e4565b610359565b005b6100e760048036038101906100e2919061063d565b610489565b6040516100f8959493929190610980565b60405180910390f35b5f805f8373ffffffffffffffffffffffffffffffffffffffff1673ffffffffffffffffffffffffffffffffffffffff1681526020019081526020015f206004015f9054906101000a900460ff169050919050565b6060805f805f808673ffffffffffffffffffffffffffffffffffffffff1673ffffffffffffffffffffffffffffffffffffffff1681526020019081526020015f206004015f9054906101000a900460ff166101e5576040517f08c379a00000000000000000000000000000000000000000000000000000000081526004016101dc90610a29565b60405180910390fd5b5f805f8773ffffffffffffffffffffffffffffffffffffffff1673ffffffffffffffffffffffffffffffffffffffff1681526020019081526020015f209050805f01816001018260020154836003015483805461024190610a74565b80601f016020809104026020016040519081016040528092919081815260200182805461026d90610a74565b80156102b85780601f1061028f576101008083540402835291602001916102b8565b820191905f5260205f20905b81548152906001019060200180831161029b57829003601f168201915b505050505093508280546102cb90610a74565b80601f01602080910402602001604051908101604052809291908181526020018280546102f790610a74565b80156103425780601f1061031957610100808354040283529160200191610342565b820191905f5260205f20905b81548152906001019060200180831161032557829003601f168201915b505050505092509450945094509450509193509193565b5f805f3373ffffffffffffffffffffffffffffffffffffffff1673ffffffffffffffffffffffffffffffffffffffff1681526020019081526020015f20905084815f0190816103a89190610c41565b50838160010190816103ba9190610c41565b508281600201819055508181600301819055506001816004015f6101000a81548160ff021916908315150217905550806004015f9054906101000a900460ff16610442577f922286c4119713a381a6afbcc1bfe1183c424472493136db418e3ca974624b2d3386868686604051610435959493929190610d1f565b60405180910390a1610482565b7ffb48df73dc5ecaeb96db29b570614e587313d43d50d515d37a8855ae365012b03386868686604051610479959493929190610d1f565b60405180910390a15b5050505050565b5f602052805f5260405f205f91509050805f0180546104a790610a74565b80601f01602080910402602001604051908101604052809291908181526020018280546104d390610a74565b801561051e5780601f106104f55761010080835404028352916020019161051e565b820191905f5260205f20905b81548152906001019060200180831161050157829003601f168201915b50505050509080600101805461053390610a74565b80601f016020809104026020016040519081016040528092919081815260200182805461055f90610a74565b80156105aa5780601f10610581576101008083540402835291602001916105aa565b820191905f5260205f20905b81548152906001019060200180831161058d57829003601f168201915b505050505090806002015490806003015490806004015f9054906101000a900460ff16905085565b5f604051905090565b5f80fd5b5f80fd5b5f73ffffffffffffffffffffffffffffffffffffffff82169050919050565b5f61060c826105e3565b9050919050565b61061c81610602565b8114610626575f80fd5b50565b5f8135905061063781610613565b92915050565b5f60208284031215610652576106516105db565b5b5f61065f84828501610629565b91505092915050565b5f8115159050919050565b61067c81610668565b82525050565b5f6020820190506106955f830184610673565b92915050565b5f81519050919050565b5f82825260208201905092915050565b5f5b838110156106d25780820151818401526020810190506106b7565b5f8484015250505050565b5f601f19601f8301169050919050565b5f6106f78261069b565b61070181856106a5565b93506107118185602086016106b5565b61071a816106dd565b840191505092915050565b5f819050919050565b61073781610725565b82525050565b5f6080820190508181035f83015261075581876106ed565b9050818103602083015261076981866106ed565b9050610778604083018561072e565b610785606083018461072e565b95945050505050565b5f80fd5b5f80fd5b7f4e487b71000000000000000000000000000000000000000000000000000000005f52604160045260245ffd5b6107cc826106dd565b810181811067ffffffffffffffff821117156107eb576107ea610796565b5b80604052505050565b5f6107fd6105d2565b905061080982826107c3565b919050565b5f67ffffffffffffffff82111561082857610827610796565b5b610831826106dd565b9050602081019050919050565b828183375f83830152505050565b5f61085e6108598461080e565b6107f4565b90508281526020810184848401111561087a57610879610792565b5b61088584828561083e565b509392505050565b5f82601f8301126108a1576108a061078e565b5b81356108b184826020860161084c565b91505092915050565b6108c381610725565b81146108cd575f80fd5b50565b5f813590506108de816108ba565b92915050565b5f805f80608085870312156108fc576108fb6105db565b5b5f85013567ffffffffffffffff811115610919576109186105df565b5b6109258782880161088d565b945050602085013567ffffffffffffffff811115610946576109456105df565b5b6109528782880161088d565b9350506040610963878288016108d0565b9250506060610974878288016108d0565b91505092959194509250565b5f60a0820190508181035f83015261099881886106ed565b905081810360208301526109ac81876106ed565b90506109bb604083018661072e565b6109c8606083018561072e565b6109d56080830184610673565b9695505050505050565b7f55736572206973206e6f7420726567697374657265642e0000000000000000005f82015250565b5f610a136017836106a5565b9150610a1e826109df565b602082019050919050565b5f6020820190508181035f830152610a4081610a07565b9050919050565b7f4e487b71000000000000000000000000000000000000000000000000000000005f52602260045260245ffd5b5f6002820490506001821680610a8b57607f821691505b602082108103610a9e57610a9d610a47565b5b50919050565b5f819050815f5260205f209050919050565b5f6020601f8301049050919050565b5f82821b905092915050565b5f60088302610b007fffffffffffffffffffffffffffffffffffffffffffffffffffffffffffffffff82610ac5565b610b0a8683610ac5565b95508019841693508086168417925050509392505050565b5f819050919050565b5f610b45610b40610b3b84610725565b610b22565b610725565b9050919050565b5f819050919050565b610b5e83610b2b565b610b72610b6a82610b4c565b848454610ad1565b825550505050565b5f90565b610b86610b7a565b610b91818484610b55565b505050565b5b81811015610bb457610ba95f82610b7e565b600181019050610b97565b5050565b601f821115610bf957610bca81610aa4565b610bd384610ab6565b81016020851015610be2578190505b610bf6610bee85610ab6565b830182610b96565b50505b505050565b5f82821c905092915050565b5f610c195f1984600802610bfe565b1980831691505092915050565b5f610c318383610c0a565b9150826002028217905092915050565b610c4a8261069b565b67ffffffffffffffff811115610c6357610c62610796565b5b610c6d8254610a74565b610c78828285610bb8565b5f60209050601f831160018114610ca9575f8415610c97578287015190505b610ca18582610c26565b865550610d08565b601f198416610cb786610aa4565b5f5b82811015610cde57848901518255600182019150602085019450602081019050610cb9565b86831015610cfb5784890151610cf7601f891682610c0a565b8355505b6001600288020188555050505b505050505050565b610d1981610602565b82525050565b5f60a082019050610d325f830188610d10565b8181036020830152610d4481876106ed565b90508181036040830152610d5881866106ed565b9050610d67606083018561072e565b610d74608083018461072e565b969550505050505056fea26469706673582212205f8b0e82e8c7faec46e533b0ed5e934d6e2f4dae8c207a6c91c1c439e6b9dced64736f6c63430008180033",
					"opcodes": "PUSH1 0x80 PUSH1 0x40 MSTORE CALLVALUE DUP1 ISZERO PUSH2 0xF JUMPI PUSH0 DUP1 REVERT JUMPDEST POP PUSH2 0xDB4 DUP1 PUSH2 0x1D PUSH0 CODECOPY PUSH0 RETURN INVALID PUSH1 0x80 PUSH1 0x40 MSTORE CALLVALUE DUP1 ISZERO PUSH2 0xF JUMPI PUSH0 DUP1 REVERT JUMPDEST POP PUSH1 0x4 CALLDATASIZE LT PUSH2 0x4A JUMPI PUSH0 CALLDATALOAD PUSH1 0xE0 SHR DUP1 PUSH4 0x163F7522 EQ PUSH2 0x4E JUMPI DUP1 PUSH4 0x6386C1C7 EQ PUSH2 0x7E JUMPI DUP1 PUSH4 0x89E4050E EQ PUSH2 0xB1 JUMPI DUP1 PUSH4 0xA87430BA EQ PUSH2 0xCD JUMPI JUMPDEST PUSH0 DUP1 REVERT JUMPDEST PUSH2 0x68 PUSH1 0x4 DUP1 CALLDATASIZE SUB DUP2 ADD SWAP1 PUSH2 0x63 SWAP2 SWAP1 PUSH2 0x63D JUMP JUMPDEST PUSH2 0x101 JUMP JUMPDEST PUSH1 0x40 MLOAD PUSH2 0x75 SWAP2 SWAP1 PUSH2 0x682 JUMP JUMPDEST PUSH1 0x40 MLOAD DUP1 SWAP2 SUB SWAP1 RETURN JUMPDEST PUSH2 0x98 PUSH1 0x4 DUP1 CALLDATASIZE SUB DUP2 ADD SWAP1 PUSH2 0x93 SWAP2 SWAP1 PUSH2 0x63D JUMP JUMPDEST PUSH2 0x155 JUMP JUMPDEST PUSH1 0x40 MLOAD PUSH2 0xA8 SWAP5 SWAP4 SWAP3 SWAP2 SWAP1 PUSH2 0x73D JUMP JUMPDEST PUSH1 0x40 MLOAD DUP1 SWAP2 SUB SWAP1 RETURN JUMPDEST PUSH2 0xCB PUSH1 0x4 DUP1 CALLDATASIZE SUB DUP2 ADD SWAP1 PUSH2 0xC6 SWAP2 SWAP1 PUSH2 0x8E4 JUMP JUMPDEST PUSH2 0x359 JUMP JUMPDEST STOP JUMPDEST PUSH2 0xE7 PUSH1 0x4 DUP1 CALLDATASIZE SUB DUP2 ADD SWAP1 PUSH2 0xE2 SWAP2 SWAP1 PUSH2 0x63D JUMP JUMPDEST PUSH2 0x489 JUMP JUMPDEST PUSH1 0x40 MLOAD PUSH2 0xF8 SWAP6 SWAP5 SWAP4 SWAP3 SWAP2 SWAP1 PUSH2 0x980 JUMP JUMPDEST PUSH1 0x40 MLOAD DUP1 SWAP2 SUB SWAP1 RETURN JUMPDEST PUSH0 DUP1 PUSH0 DUP4 PUSH20 0xFFFFFFFFFFFFFFFFFFFFFFFFFFFFFFFFFFFFFFFF AND PUSH20 0xFFFFFFFFFFFFFFFFFFFFFFFFFFFFFFFFFFFFFFFF AND DUP2 MSTORE PUSH1 0x20 ADD SWAP1 DUP2 MSTORE PUSH1 0x20 ADD PUSH0 KECCAK256 PUSH1 0x4 ADD PUSH0 SWAP1 SLOAD SWAP1 PUSH2 0x100 EXP SWAP1 DIV PUSH1 0xFF AND SWAP1 POP SWAP2 SWAP1 POP JUMP JUMPDEST PUSH1 0x60 DUP1 PUSH0 DUP1 PUSH0 DUP1 DUP7 PUSH20 0xFFFFFFFFFFFFFFFFFFFFFFFFFFFFFFFFFFFFFFFF AND PUSH20 0xFFFFFFFFFFFFFFFFFFFFFFFFFFFFFFFFFFFFFFFF AND DUP2 MSTORE PUSH1 0x20 ADD SWAP1 DUP2 MSTORE PUSH1 0x20 ADD PUSH0 KECCAK256 PUSH1 0x4 ADD PUSH0 SWAP1 SLOAD SWAP1 PUSH2 0x100 EXP SWAP1 DIV PUSH1 0xFF AND PUSH2 0x1E5 JUMPI PUSH1 0x40 MLOAD PUSH32 0x8C379A000000000000000000000000000000000000000000000000000000000 DUP2 MSTORE PUSH1 0x4 ADD PUSH2 0x1DC SWAP1 PUSH2 0xA29 JUMP JUMPDEST PUSH1 0x40 MLOAD DUP1 SWAP2 SUB SWAP1 REVERT JUMPDEST PUSH0 DUP1 PUSH0 DUP8 PUSH20 0xFFFFFFFFFFFFFFFFFFFFFFFFFFFFFFFFFFFFFFFF AND PUSH20 0xFFFFFFFFFFFFFFFFFFFFFFFFFFFFFFFFFFFFFFFF AND DUP2 MSTORE PUSH1 0x20 ADD SWAP1 DUP2 MSTORE PUSH1 0x20 ADD PUSH0 KECCAK256 SWAP1 POP DUP1 PUSH0 ADD DUP2 PUSH1 0x1 ADD DUP3 PUSH1 0x2 ADD SLOAD DUP4 PUSH1 0x3 ADD SLOAD DUP4 DUP1 SLOAD PUSH2 0x241 SWAP1 PUSH2 0xA74 JUMP JUMPDEST DUP1 PUSH1 0x1F ADD PUSH1 0x20 DUP1 SWAP2 DIV MUL PUSH1 0x20 ADD PUSH1 0x40 MLOAD SWAP1 DUP2 ADD PUSH1 0x40 MSTORE DUP1 SWAP3 SWAP2 SWAP1 DUP2 DUP2 MSTORE PUSH1 0x20 ADD DUP3 DUP1 SLOAD PUSH2 0x26D SWAP1 PUSH2 0xA74 JUMP JUMPDEST DUP1 ISZERO PUSH2 0x2B8 JUMPI DUP1 PUSH1 0x1F LT PUSH2 0x28F JUMPI PUSH2 0x100 DUP1 DUP4 SLOAD DIV MUL DUP4 MSTORE SWAP2 PUSH1 0x20 ADD SWAP2 PUSH2 0x2B8 JUMP JUMPDEST DUP3 ADD SWAP2 SWAP1 PUSH0 MSTORE PUSH1 0x20 PUSH0 KECCAK256 SWAP1 JUMPDEST DUP2 SLOAD DUP2 MSTORE SWAP1 PUSH1 0x1 ADD SWAP1 PUSH1 0x20 ADD DUP1 DUP4 GT PUSH2 0x29B JUMPI DUP3 SWAP1 SUB PUSH1 0x1F AND DUP3 ADD SWAP2 JUMPDEST POP POP POP POP POP SWAP4 POP DUP3 DUP1 SLOAD PUSH2 0x2CB SWAP1 PUSH2 0xA74 JUMP JUMPDEST DUP1 PUSH1 0x1F ADD PUSH1 0x20 DUP1 SWAP2 DIV MUL PUSH1 0x20 ADD PUSH1 0x40 MLOAD SWAP1 DUP2 ADD PUSH1 0x40 MSTORE DUP1 SWAP3 SWAP2 SWAP1 DUP2 DUP2 MSTORE PUSH1 0x20 ADD DUP3 DUP1 SLOAD PUSH2 0x2F7 SWAP1 PUSH2 0xA74 JUMP JUMPDEST DUP1 ISZERO PUSH2 0x342 JUMPI DUP1 PUSH1 0x1F LT PUSH2 0x319 JUMPI PUSH2 0x100 DUP1 DUP4 SLOAD DIV MUL DUP4 MSTORE SWAP2 PUSH1 0x20 ADD SWAP2 PUSH2 0x342 JUMP JUMPDEST DUP3 ADD SWAP2 SWAP1 PUSH0 MSTORE PUSH1 0x20 PUSH0 KECCAK256 SWAP1 JUMPDEST DUP2 SLOAD DUP2 MSTORE SWAP1 PUSH1 0x1 ADD SWAP1 PUSH1 0x20 ADD DUP1 DUP4 GT PUSH2 0x325 JUMPI DUP3 SWAP1 SUB PUSH1 0x1F AND DUP3 ADD SWAP2 JUMPDEST POP POP POP POP POP SWAP3 POP SWAP5 POP SWAP5 POP SWAP5 POP SWAP5 POP POP SWAP2 SWAP4 POP SWAP2 SWAP4 JUMP JUMPDEST PUSH0 DUP1 PUSH0 CALLER PUSH20 0xFFFFFFFFFFFFFFFFFFFFFFFFFFFFFFFFFFFFFFFF AND PUSH20 0xFFFFFFFFFFFFFFFFFFFFFFFFFFFFFFFFFFFFFFFF AND DUP2 MSTORE PUSH1 0x20 ADD SWAP1 DUP2 MSTORE PUSH1 0x20 ADD PUSH0 KECCAK256 SWAP1 POP DUP5 DUP2 PUSH0 ADD SWAP1 DUP2 PUSH2 0x3A8 SWAP2 SWAP1 PUSH2 0xC41 JUMP JUMPDEST POP DUP4 DUP2 PUSH1 0x1 ADD SWAP1 DUP2 PUSH2 0x3BA SWAP2 SWAP1 PUSH2 0xC41 JUMP JUMPDEST POP DUP3 DUP2 PUSH1 0x2 ADD DUP2 SWAP1 SSTORE POP DUP2 DUP2 PUSH1 0x3 ADD DUP2 SWAP1 SSTORE POP PUSH1 0x1 DUP2 PUSH1 0x4 ADD PUSH0 PUSH2 0x100 EXP DUP2 SLOAD DUP2 PUSH1 0xFF MUL NOT AND SWAP1 DUP4 ISZERO ISZERO MUL OR SWAP1 SSTORE POP DUP1 PUSH1 0x4 ADD PUSH0 SWAP1 SLOAD SWAP1 PUSH2 0x100 EXP SWAP1 DIV PUSH1 0xFF AND PUSH2 0x442 JUMPI PUSH32 0x922286C4119713A381A6AFBCC1BFE1183C424472493136DB418E3CA974624B2D CALLER DUP7 DUP7 DUP7 DUP7 PUSH1 0x40 MLOAD PUSH2 0x435 SWAP6 SWAP5 SWAP4 SWAP3 SWAP2 SWAP1 PUSH2 0xD1F JUMP JUMPDEST PUSH1 0x40 MLOAD DUP1 SWAP2 SUB SWAP1 LOG1 PUSH2 0x482 JUMP JUMPDEST PUSH32 0xFB48DF73DC5ECAEB96DB29B570614E587313D43D50D515D37A8855AE365012B0 CALLER DUP7 DUP7 DUP7 DUP7 PUSH1 0x40 MLOAD PUSH2 0x479 SWAP6 SWAP5 SWAP4 SWAP3 SWAP2 SWAP1 PUSH2 0xD1F JUMP JUMPDEST PUSH1 0x40 MLOAD DUP1 SWAP2 SUB SWAP1 LOG1 JUMPDEST POP POP POP POP POP JUMP JUMPDEST PUSH0 PUSH1 0x20 MSTORE DUP1 PUSH0 MSTORE PUSH1 0x40 PUSH0 KECCAK256 PUSH0 SWAP2 POP SWAP1 POP DUP1 PUSH0 ADD DUP1 SLOAD PUSH2 0x4A7 SWAP1 PUSH2 0xA74 JUMP JUMPDEST DUP1 PUSH1 0x1F ADD PUSH1 0x20 DUP1 SWAP2 DIV MUL PUSH1 0x20 ADD PUSH1 0x40 MLOAD SWAP1 DUP2 ADD PUSH1 0x40 MSTORE DUP1 SWAP3 SWAP2 SWAP1 DUP2 DUP2 MSTORE PUSH1 0x20 ADD DUP3 DUP1 SLOAD PUSH2 0x4D3 SWAP1 PUSH2 0xA74 JUMP JUMPDEST DUP1 ISZERO PUSH2 0x51E JUMPI DUP1 PUSH1 0x1F LT PUSH2 0x4F5 JUMPI PUSH2 0x100 DUP1 DUP4 SLOAD DIV MUL DUP4 MSTORE SWAP2 PUSH1 0x20 ADD SWAP2 PUSH2 0x51E JUMP JUMPDEST DUP3 ADD SWAP2 SWAP1 PUSH0 MSTORE PUSH1 0x20 PUSH0 KECCAK256 SWAP1 JUMPDEST DUP2 SLOAD DUP2 MSTORE SWAP1 PUSH1 0x1 ADD SWAP1 PUSH1 0x20 ADD DUP1 DUP4 GT PUSH2 0x501 JUMPI DUP3 SWAP1 SUB PUSH1 0x1F AND DUP3 ADD SWAP2 JUMPDEST POP POP POP POP POP SWAP1 DUP1 PUSH1 0x1 ADD DUP1 SLOAD PUSH2 0x533 SWAP1 PUSH2 0xA74 JUMP JUMPDEST DUP1 PUSH1 0x1F ADD PUSH1 0x20 DUP1 SWAP2 DIV MUL PUSH1 0x20 ADD PUSH1 0x40 MLOAD SWAP1 DUP2 ADD PUSH1 0x40 MSTORE DUP1 SWAP3 SWAP2 SWAP1 DUP2 DUP2 MSTORE PUSH1 0x20 ADD DUP3 DUP1 SLOAD PUSH2 0x55F SWAP1 PUSH2 0xA74 JUMP JUMPDEST DUP1 ISZERO PUSH2 0x5AA JUMPI DUP1 PUSH1 0x1F LT PUSH2 0x581 JUMPI PUSH2 0x100 DUP1 DUP4 SLOAD DIV MUL DUP4 MSTORE SWAP2 PUSH1 0x20 ADD SWAP2 PUSH2 0x5AA JUMP JUMPDEST DUP3 ADD SWAP2 SWAP1 PUSH0 MSTORE PUSH1 0x20 PUSH0 KECCAK256 SWAP1 JUMPDEST DUP2 SLOAD DUP2 MSTORE SWAP1 PUSH1 0x1 ADD SWAP1 PUSH1 0x20 ADD DUP1 DUP4 GT PUSH2 0x58D JUMPI DUP3 SWAP1 SUB PUSH1 0x1F AND DUP3 ADD SWAP2 JUMPDEST POP POP POP POP POP SWAP1 DUP1 PUSH1 0x2 ADD SLOAD SWAP1 DUP1 PUSH1 0x3 ADD SLOAD SWAP1 DUP1 PUSH1 0x4 ADD PUSH0 SWAP1 SLOAD SWAP1 PUSH2 0x100 EXP SWAP1 DIV PUSH1 0xFF AND SWAP1 POP DUP6 JUMP JUMPDEST PUSH0 PUSH1 0x40 MLOAD SWAP1 POP SWAP1 JUMP JUMPDEST PUSH0 DUP1 REVERT JUMPDEST PUSH0 DUP1 REVERT JUMPDEST PUSH0 PUSH20 0xFFFFFFFFFFFFFFFFFFFFFFFFFFFFFFFFFFFFFFFF DUP3 AND SWAP1 POP SWAP2 SWAP1 POP JUMP JUMPDEST PUSH0 PUSH2 0x60C DUP3 PUSH2 0x5E3 JUMP JUMPDEST SWAP1 POP SWAP2 SWAP1 POP JUMP JUMPDEST PUSH2 0x61C DUP2 PUSH2 0x602 JUMP JUMPDEST DUP2 EQ PUSH2 0x626 JUMPI PUSH0 DUP1 REVERT JUMPDEST POP JUMP JUMPDEST PUSH0 DUP2 CALLDATALOAD SWAP1 POP PUSH2 0x637 DUP2 PUSH2 0x613 JUMP JUMPDEST SWAP3 SWAP2 POP POP JUMP JUMPDEST PUSH0 PUSH1 0x20 DUP3 DUP5 SUB SLT ISZERO PUSH2 0x652 JUMPI PUSH2 0x651 PUSH2 0x5DB JUMP JUMPDEST JUMPDEST PUSH0 PUSH2 0x65F DUP5 DUP3 DUP6 ADD PUSH2 0x629 JUMP JUMPDEST SWAP2 POP POP SWAP3 SWAP2 POP POP JUMP JUMPDEST PUSH0 DUP2 ISZERO ISZERO SWAP1 POP SWAP2 SWAP1 POP JUMP JUMPDEST PUSH2 0x67C DUP2 PUSH2 0x668 JUMP JUMPDEST DUP3 MSTORE POP POP JUMP JUMPDEST PUSH0 PUSH1 0x20 DUP3 ADD SWAP1 POP PUSH2 0x695 PUSH0 DUP4 ADD DUP5 PUSH2 0x673 JUMP JUMPDEST SWAP3 SWAP2 POP POP JUMP JUMPDEST PUSH0 DUP2 MLOAD SWAP1 POP SWAP2 SWAP1 POP JUMP JUMPDEST PUSH0 DUP3 DUP3 MSTORE PUSH1 0x20 DUP3 ADD SWAP1 POP SWAP3 SWAP2 POP POP JUMP JUMPDEST PUSH0 JUMPDEST DUP4 DUP2 LT ISZERO PUSH2 0x6D2 JUMPI DUP1 DUP3 ADD MLOAD DUP2 DUP5 ADD MSTORE PUSH1 0x20 DUP2 ADD SWAP1 POP PUSH2 0x6B7 JUMP JUMPDEST PUSH0 DUP5 DUP5 ADD MSTORE POP POP POP POP JUMP JUMPDEST PUSH0 PUSH1 0x1F NOT PUSH1 0x1F DUP4 ADD AND SWAP1 POP SWAP2 SWAP1 POP JUMP JUMPDEST PUSH0 PUSH2 0x6F7 DUP3 PUSH2 0x69B JUMP JUMPDEST PUSH2 0x701 DUP2 DUP6 PUSH2 0x6A5 JUMP JUMPDEST SWAP4 POP PUSH2 0x711 DUP2 DUP6 PUSH1 0x20 DUP7 ADD PUSH2 0x6B5 JUMP JUMPDEST PUSH2 0x71A DUP2 PUSH2 0x6DD JUMP JUMPDEST DUP5 ADD SWAP2 POP POP SWAP3 SWAP2 POP POP JUMP JUMPDEST PUSH0 DUP2 SWAP1 POP SWAP2 SWAP1 POP JUMP JUMPDEST PUSH2 0x737 DUP2 PUSH2 0x725 JUMP JUMPDEST DUP3 MSTORE POP POP JUMP JUMPDEST PUSH0 PUSH1 0x80 DUP3 ADD SWAP1 POP DUP2 DUP2 SUB PUSH0 DUP4 ADD MSTORE PUSH2 0x755 DUP2 DUP8 PUSH2 0x6ED JUMP JUMPDEST SWAP1 POP DUP2 DUP2 SUB PUSH1 0x20 DUP4 ADD MSTORE PUSH2 0x769 DUP2 DUP7 PUSH2 0x6ED JUMP JUMPDEST SWAP1 POP PUSH2 0x778 PUSH1 0x40 DUP4 ADD DUP6 PUSH2 0x72E JUMP JUMPDEST PUSH2 0x785 PUSH1 0x60 DUP4 ADD DUP5 PUSH2 0x72E JUMP JUMPDEST SWAP6 SWAP5 POP POP POP POP POP JUMP JUMPDEST PUSH0 DUP1 REVERT JUMPDEST PUSH0 DUP1 REVERT JUMPDEST PUSH32 0x4E487B7100000000000000000000000000000000000000000000000000000000 PUSH0 MSTORE PUSH1 0x41 PUSH1 0x4 MSTORE PUSH1 0x24 PUSH0 REVERT JUMPDEST PUSH2 0x7CC DUP3 PUSH2 0x6DD JUMP JUMPDEST DUP2 ADD DUP2 DUP2 LT PUSH8 0xFFFFFFFFFFFFFFFF DUP3 GT OR ISZERO PUSH2 0x7EB JUMPI PUSH2 0x7EA PUSH2 0x796 JUMP JUMPDEST JUMPDEST DUP1 PUSH1 0x40 MSTORE POP POP POP JUMP JUMPDEST PUSH0 PUSH2 0x7FD PUSH2 0x5D2 JUMP JUMPDEST SWAP1 POP PUSH2 0x809 DUP3 DUP3 PUSH2 0x7C3 JUMP JUMPDEST SWAP2 SWAP1 POP JUMP JUMPDEST PUSH0 PUSH8 0xFFFFFFFFFFFFFFFF DUP3 GT ISZERO PUSH2 0x828 JUMPI PUSH2 0x827 PUSH2 0x796 JUMP JUMPDEST JUMPDEST PUSH2 0x831 DUP3 PUSH2 0x6DD JUMP JUMPDEST SWAP1 POP PUSH1 0x20 DUP2 ADD SWAP1 POP SWAP2 SWAP1 POP JUMP JUMPDEST DUP3 DUP2 DUP4 CALLDATACOPY PUSH0 DUP4 DUP4 ADD MSTORE POP POP POP JUMP JUMPDEST PUSH0 PUSH2 0x85E PUSH2 0x859 DUP5 PUSH2 0x80E JUMP JUMPDEST PUSH2 0x7F4 JUMP JUMPDEST SWAP1 POP DUP3 DUP2 MSTORE PUSH1 0x20 DUP2 ADD DUP5 DUP5 DUP5 ADD GT ISZERO PUSH2 0x87A JUMPI PUSH2 0x879 PUSH2 0x792 JUMP JUMPDEST JUMPDEST PUSH2 0x885 DUP5 DUP3 DUP6 PUSH2 0x83E JUMP JUMPDEST POP SWAP4 SWAP3 POP POP POP JUMP JUMPDEST PUSH0 DUP3 PUSH1 0x1F DUP4 ADD SLT PUSH2 0x8A1 JUMPI PUSH2 0x8A0 PUSH2 0x78E JUMP JUMPDEST JUMPDEST DUP2 CALLDATALOAD PUSH2 0x8B1 DUP5 DUP3 PUSH1 0x20 DUP7 ADD PUSH2 0x84C JUMP JUMPDEST SWAP2 POP POP SWAP3 SWAP2 POP POP JUMP JUMPDEST PUSH2 0x8C3 DUP2 PUSH2 0x725 JUMP JUMPDEST DUP2 EQ PUSH2 0x8CD JUMPI PUSH0 DUP1 REVERT JUMPDEST POP JUMP JUMPDEST PUSH0 DUP2 CALLDATALOAD SWAP1 POP PUSH2 0x8DE DUP2 PUSH2 0x8BA JUMP JUMPDEST SWAP3 SWAP2 POP POP JUMP JUMPDEST PUSH0 DUP1 PUSH0 DUP1 PUSH1 0x80 DUP6 DUP8 SUB SLT ISZERO PUSH2 0x8FC JUMPI PUSH2 0x8FB PUSH2 0x5DB JUMP JUMPDEST JUMPDEST PUSH0 DUP6 ADD CALLDATALOAD PUSH8 0xFFFFFFFFFFFFFFFF DUP2 GT ISZERO PUSH2 0x919 JUMPI PUSH2 0x918 PUSH2 0x5DF JUMP JUMPDEST JUMPDEST PUSH2 0x925 DUP8 DUP3 DUP9 ADD PUSH2 0x88D JUMP JUMPDEST SWAP5 POP POP PUSH1 0x20 DUP6 ADD CALLDATALOAD PUSH8 0xFFFFFFFFFFFFFFFF DUP2 GT ISZERO PUSH2 0x946 JUMPI PUSH2 0x945 PUSH2 0x5DF JUMP JUMPDEST JUMPDEST PUSH2 0x952 DUP8 DUP3 DUP9 ADD PUSH2 0x88D JUMP JUMPDEST SWAP4 POP POP PUSH1 0x40 PUSH2 0x963 DUP8 DUP3 DUP9 ADD PUSH2 0x8D0 JUMP JUMPDEST SWAP3 POP POP PUSH1 0x60 PUSH2 0x974 DUP8 DUP3 DUP9 ADD PUSH2 0x8D0 JUMP JUMPDEST SWAP2 POP POP SWAP3 SWAP6 SWAP2 SWAP5 POP SWAP3 POP JUMP JUMPDEST PUSH0 PUSH1 0xA0 DUP3 ADD SWAP1 POP DUP2 DUP2 SUB PUSH0 DUP4 ADD MSTORE PUSH2 0x998 DUP2 DUP9 PUSH2 0x6ED JUMP JUMPDEST SWAP1 POP DUP2 DUP2 SUB PUSH1 0x20 DUP4 ADD MSTORE PUSH2 0x9AC DUP2 DUP8 PUSH2 0x6ED JUMP JUMPDEST SWAP1 POP PUSH2 0x9BB PUSH1 0x40 DUP4 ADD DUP7 PUSH2 0x72E JUMP JUMPDEST PUSH2 0x9C8 PUSH1 0x60 DUP4 ADD DUP6 PUSH2 0x72E JUMP JUMPDEST PUSH2 0x9D5 PUSH1 0x80 DUP4 ADD DUP5 PUSH2 0x673 JUMP JUMPDEST SWAP7 SWAP6 POP POP POP POP POP POP JUMP JUMPDEST PUSH32 0x55736572206973206E6F7420726567697374657265642E000000000000000000 PUSH0 DUP3 ADD MSTORE POP JUMP JUMPDEST PUSH0 PUSH2 0xA13 PUSH1 0x17 DUP4 PUSH2 0x6A5 JUMP JUMPDEST SWAP2 POP PUSH2 0xA1E DUP3 PUSH2 0x9DF JUMP JUMPDEST PUSH1 0x20 DUP3 ADD SWAP1 POP SWAP2 SWAP1 POP JUMP JUMPDEST PUSH0 PUSH1 0x20 DUP3 ADD SWAP1 POP DUP2 DUP2 SUB PUSH0 DUP4 ADD MSTORE PUSH2 0xA40 DUP2 PUSH2 0xA07 JUMP JUMPDEST SWAP1 POP SWAP2 SWAP1 POP JUMP JUMPDEST PUSH32 0x4E487B7100000000000000000000000000000000000000000000000000000000 PUSH0 MSTORE PUSH1 0x22 PUSH1 0x4 MSTORE PUSH1 0x24 PUSH0 REVERT JUMPDEST PUSH0 PUSH1 0x2 DUP3 DIV SWAP1 POP PUSH1 0x1 DUP3 AND DUP1 PUSH2 0xA8B JUMPI PUSH1 0x7F DUP3 AND SWAP2 POP JUMPDEST PUSH1 0x20 DUP3 LT DUP2 SUB PUSH2 0xA9E JUMPI PUSH2 0xA9D PUSH2 0xA47 JUMP JUMPDEST JUMPDEST POP SWAP2 SWAP1 POP JUMP JUMPDEST PUSH0 DUP2 SWAP1 POP DUP2 PUSH0 MSTORE PUSH1 0x20 PUSH0 KECCAK256 SWAP1 POP SWAP2 SWAP1 POP JUMP JUMPDEST PUSH0 PUSH1 0x20 PUSH1 0x1F DUP4 ADD DIV SWAP1 POP SWAP2 SWAP1 POP JUMP JUMPDEST PUSH0 DUP3 DUP3 SHL SWAP1 POP SWAP3 SWAP2 POP POP JUMP JUMPDEST PUSH0 PUSH1 0x8 DUP4 MUL PUSH2 0xB00 PUSH32 0xFFFFFFFFFFFFFFFFFFFFFFFFFFFFFFFFFFFFFFFFFFFFFFFFFFFFFFFFFFFFFFFF DUP3 PUSH2 0xAC5 JUMP JUMPDEST PUSH2 0xB0A DUP7 DUP4 PUSH2 0xAC5 JUMP JUMPDEST SWAP6 POP DUP1 NOT DUP5 AND SWAP4 POP DUP1 DUP7 AND DUP5 OR SWAP3 POP POP POP SWAP4 SWAP3 POP POP POP JUMP JUMPDEST PUSH0 DUP2 SWAP1 POP SWAP2 SWAP1 POP JUMP JUMPDEST PUSH0 PUSH2 0xB45 PUSH2 0xB40 PUSH2 0xB3B DUP5 PUSH2 0x725 JUMP JUMPDEST PUSH2 0xB22 JUMP JUMPDEST PUSH2 0x725 JUMP JUMPDEST SWAP1 POP SWAP2 SWAP1 POP JUMP JUMPDEST PUSH0 DUP2 SWAP1 POP SWAP2 SWAP1 POP JUMP JUMPDEST PUSH2 0xB5E DUP4 PUSH2 0xB2B JUMP JUMPDEST PUSH2 0xB72 PUSH2 0xB6A DUP3 PUSH2 0xB4C JUMP JUMPDEST DUP5 DUP5 SLOAD PUSH2 0xAD1 JUMP JUMPDEST DUP3 SSTORE POP POP POP POP JUMP JUMPDEST PUSH0 SWAP1 JUMP JUMPDEST PUSH2 0xB86 PUSH2 0xB7A JUMP JUMPDEST PUSH2 0xB91 DUP2 DUP5 DUP5 PUSH2 0xB55 JUMP JUMPDEST POP POP POP JUMP JUMPDEST JUMPDEST DUP2 DUP2 LT ISZERO PUSH2 0xBB4 JUMPI PUSH2 0xBA9 PUSH0 DUP3 PUSH2 0xB7E JUMP JUMPDEST PUSH1 0x1 DUP2 ADD SWAP1 POP PUSH2 0xB97 JUMP JUMPDEST POP POP JUMP JUMPDEST PUSH1 0x1F DUP3 GT ISZERO PUSH2 0xBF9 JUMPI PUSH2 0xBCA DUP2 PUSH2 0xAA4 JUMP JUMPDEST PUSH2 0xBD3 DUP5 PUSH2 0xAB6 JUMP JUMPDEST DUP2 ADD PUSH1 0x20 DUP6 LT ISZERO PUSH2 0xBE2 JUMPI DUP2 SWAP1 POP JUMPDEST PUSH2 0xBF6 PUSH2 0xBEE DUP6 PUSH2 0xAB6 JUMP JUMPDEST DUP4 ADD DUP3 PUSH2 0xB96 JUMP JUMPDEST POP POP JUMPDEST POP POP POP JUMP JUMPDEST PUSH0 DUP3 DUP3 SHR SWAP1 POP SWAP3 SWAP2 POP POP JUMP JUMPDEST PUSH0 PUSH2 0xC19 PUSH0 NOT DUP5 PUSH1 0x8 MUL PUSH2 0xBFE JUMP JUMPDEST NOT DUP1 DUP4 AND SWAP2 POP POP SWAP3 SWAP2 POP POP JUMP JUMPDEST PUSH0 PUSH2 0xC31 DUP4 DUP4 PUSH2 0xC0A JUMP JUMPDEST SWAP2 POP DUP3 PUSH1 0x2 MUL DUP3 OR SWAP1 POP SWAP3 SWAP2 POP POP JUMP JUMPDEST PUSH2 0xC4A DUP3 PUSH2 0x69B JUMP JUMPDEST PUSH8 0xFFFFFFFFFFFFFFFF DUP2 GT ISZERO PUSH2 0xC63 JUMPI PUSH2 0xC62 PUSH2 0x796 JUMP JUMPDEST JUMPDEST PUSH2 0xC6D DUP3 SLOAD PUSH2 0xA74 JUMP JUMPDEST PUSH2 0xC78 DUP3 DUP3 DUP6 PUSH2 0xBB8 JUMP JUMPDEST PUSH0 PUSH1 0x20 SWAP1 POP PUSH1 0x1F DUP4 GT PUSH1 0x1 DUP2 EQ PUSH2 0xCA9 JUMPI PUSH0 DUP5 ISZERO PUSH2 0xC97 JUMPI DUP3 DUP8 ADD MLOAD SWAP1 POP JUMPDEST PUSH2 0xCA1 DUP6 DUP3 PUSH2 0xC26 JUMP JUMPDEST DUP7 SSTORE POP PUSH2 0xD08 JUMP JUMPDEST PUSH1 0x1F NOT DUP5 AND PUSH2 0xCB7 DUP7 PUSH2 0xAA4 JUMP JUMPDEST PUSH0 JUMPDEST DUP3 DUP2 LT ISZERO PUSH2 0xCDE JUMPI DUP5 DUP10 ADD MLOAD DUP3 SSTORE PUSH1 0x1 DUP3 ADD SWAP2 POP PUSH1 0x20 DUP6 ADD SWAP5 POP PUSH1 0x20 DUP2 ADD SWAP1 POP PUSH2 0xCB9 JUMP JUMPDEST DUP7 DUP4 LT ISZERO PUSH2 0xCFB JUMPI DUP5 DUP10 ADD MLOAD PUSH2 0xCF7 PUSH1 0x1F DUP10 AND DUP3 PUSH2 0xC0A JUMP JUMPDEST DUP4 SSTORE POP JUMPDEST PUSH1 0x1 PUSH1 0x2 DUP9 MUL ADD DUP9 SSTORE POP POP POP JUMPDEST POP POP POP POP POP POP JUMP JUMPDEST PUSH2 0xD19 DUP2 PUSH2 0x602 JUMP JUMPDEST DUP3 MSTORE POP POP JUMP JUMPDEST PUSH0 PUSH1 0xA0 DUP3 ADD SWAP1 POP PUSH2 0xD32 PUSH0 DUP4 ADD DUP9 PUSH2 0xD10 JUMP JUMPDEST DUP2 DUP2 SUB PUSH1 0x20 DUP4 ADD MSTORE PUSH2 0xD44 DUP2 DUP8 PUSH2 0x6ED JUMP JUMPDEST SWAP1 POP DUP2 DUP2 SUB PUSH1 0x40 DUP4 ADD MSTORE PUSH2 0xD58 DUP2 DUP7 PUSH2 0x6ED JUMP JUMPDEST SWAP1 POP PUSH2 0xD67 PUSH1 0x60 DUP4 ADD DUP6 PUSH2 0x72E JUMP JUMPDEST PUSH2 0xD74 PUSH1 0x80 DUP4 ADD DUP5 PUSH2 0x72E JUMP JUMPDEST SWAP7 SWAP6 POP POP POP POP POP POP JUMP INVALID LOG2 PUSH5 0x6970667358 0x22 SLT KECCAK256 PUSH0 DUP12 0xE DUP3 0xE8 0xC7 STATICCALL 0xEC CHAINID 0xE5 CALLER 0xB0 0xED MCOPY SWAP4 0x4D PUSH15 0x2F4DAE8C207A6C91C1C439E6B9DCED PUSH5 0x736F6C6343 STOP ADDMOD XOR STOP CALLER "
				},
				"gasEstimates": {
					"creation": {
						"codeDepositCost": "701600",
						"executionCost": "732",
						"totalCost": "702332"
					},
					"external": {
						"getUserInfo(address)": "infinite",
						"isUserRegistered(address)": "2854",
						"registerOrUpdate(string,string,uint256,uint256)": "infinite",
						"users(address)": "infinite"
					}
				},
				"methodIdentifiers": {
					"getUserInfo(address)": "6386c1c7",
					"isUserRegistered(address)": "163f7522",
					"registerOrUpdate(string,string,uint256,uint256)": "89e4050e",
					"users(address)": "a87430ba"
				}
			},
			"storageLayout": {
				"storage": [
					{
						"astId": 17,
						"contract": "contracts/Registeration.sol:Registration",
						"label": "users",
						"offset": 0,
						"slot": "0",
						"type": "t_mapping(t_address,t_struct(UserInfo)12_storage)"
					}
				],
				"types": {
					"t_address": {
						"encoding": "inplace",
						"label": "address",
						"numberOfBytes": "20"
					},
					"t_bool": {
						"encoding": "inplace",
						"label": "bool",
						"numberOfBytes": "1"
					},
					"t_mapping(t_address,t_struct(UserInfo)12_storage)": {
						"encoding": "mapping",
						"key": "t_address",
						"label": "mapping(address => struct Registration.UserInfo)",
						"numberOfBytes": "32",
						"value": "t_struct(UserInfo)12_storage"
					},
					"t_string_storage": {
						"encoding": "bytes",
						"label": "string",
						"numberOfBytes": "32"
					},
					"t_struct(UserInfo)12_storage": {
						"encoding": "inplace",
						"label": "struct Registration.UserInfo",
						"members": [
							{
								"astId": 3,
								"contract": "contracts/Registeration.sol:Registration",
								"label": "username",
								"offset": 0,
								"slot": "0",
								"type": "t_string_storage"
							},
							{
								"astId": 5,
								"contract": "contracts/Registeration.sol:Registration",
								"label": "location",
								"offset": 0,
								"slot": "1",
								"type": "t_string_storage"
							},
							{
								"astId": 7,
								"contract": "contracts/Registeration.sol:Registration",
								"label": "energyBalance",
								"offset": 0,
								"slot": "2",
								"type": "t_uint256"
							},
							{
								"astId": 9,
								"contract": "contracts/Registeration.sol:Registration",
								"label": "tokensBalance",
								"offset": 0,
								"slot": "3",
								"type": "t_uint256"
							},
							{
								"astId": 11,
								"contract": "contracts/Registeration.sol:Registration",
								"label": "isRegistered",
								"offset": 0,
								"slot": "4",
								"type": "t_bool"
							}
						],
						"numberOfBytes": "160"
					},
					"t_uint256": {
						"encoding": "inplace",
						"label": "uint256",
						"numberOfBytes": "32"
					}
				}
			},
			"userdoc": {
				"kind": "user",
				"methods": {},
				"version": 1
			}
		}
	}
}