{
	"contracts/EnergyTradingEscrow.sol": {
		"EnergyTradingPlatform": {
			"abi": [
				{
					"inputs": [],
					"stateMutability": "nonpayable",
					"type": "constructor"
				},
				{
					"anonymous": false,
					"inputs": [
						{
							"indexed": false,
							"internalType": "uint256",
							"name": "transactionId",
							"type": "uint256"
						},
						{
							"indexed": false,
							"internalType": "bool",
							"name": "accepted",
							"type": "bool"
						},
						{
							"indexed": false,
							"internalType": "string",
							"name": "status",
							"type": "string"
						}
					],
					"name": "TransactionCommitted",
					"type": "event"
				},
				{
					"anonymous": false,
					"inputs": [
						{
							"indexed": false,
							"internalType": "uint256",
							"name": "transactionId",
							"type": "uint256"
						},
						{
							"indexed": false,
							"internalType": "address",
							"name": "receiver",
							"type": "address"
						},
						{
							"indexed": false,
							"internalType": "enum EnergyTradingPlatform.TransactionType",
							"name": "transactionType",
							"type": "uint8"
						}
					],
					"name": "TransactionInitiated",
					"type": "event"
				},
				{
					"anonymous": false,
					"inputs": [
						{
							"indexed": true,
							"internalType": "address",
							"name": "userAddress",
							"type": "address"
						}
					],
					"name": "UserDeleted",
					"type": "event"
				},
				{
					"anonymous": false,
					"inputs": [
						{
							"indexed": true,
							"internalType": "address",
							"name": "userAddress",
							"type": "address"
						},
						{
							"indexed": false,
							"internalType": "string",
							"name": "username",
							"type": "string"
						},
						{
							"indexed": false,
							"internalType": "int256",
							"name": "latitude",
							"type": "int256"
						},
						{
							"indexed": false,
							"internalType": "int256",
							"name": "longitude",
							"type": "int256"
						},
						{
							"indexed": false,
							"internalType": "uint256",
							"name": "energyBalance",
							"type": "uint256"
						},
						{
							"indexed": false,
							"internalType": "uint256",
							"name": "tokensBalance",
							"type": "uint256"
						}
					],
					"name": "UserRegistered",
					"type": "event"
				},
				{
					"anonymous": false,
					"inputs": [
						{
							"indexed": true,
							"internalType": "address",
							"name": "userAddress",
							"type": "address"
						},
						{
							"indexed": false,
							"internalType": "string",
							"name": "username",
							"type": "string"
						},
						{
							"indexed": false,
							"internalType": "int256",
							"name": "latitude",
							"type": "int256"
						},
						{
							"indexed": false,
							"internalType": "int256",
							"name": "longitude",
							"type": "int256"
						},
						{
							"indexed": false,
							"internalType": "uint256",
							"name": "energyBalance",
							"type": "uint256"
						},
						{
							"indexed": false,
							"internalType": "uint256",
							"name": "tokensBalance",
							"type": "uint256"
						}
					],
					"name": "UserUpdated",
					"type": "event"
				},
				{
					"inputs": [],
					"name": "admin",
					"outputs": [
						{
							"internalType": "address",
							"name": "",
							"type": "address"
						}
					],
					"stateMutability": "view",
					"type": "function"
				},
				{
					"inputs": [
						{
							"internalType": "uint256",
							"name": "_transactionId",
							"type": "uint256"
						},
						{
							"internalType": "bool",
							"name": "_accepted",
							"type": "bool"
						}
					],
					"name": "commitTransaction",
					"outputs": [],
					"stateMutability": "nonpayable",
					"type": "function"
				},
				{
					"inputs": [
						{
							"internalType": "address",
							"name": "_userAddress",
							"type": "address"
						}
					],
					"name": "deleteUser",
					"outputs": [],
					"stateMutability": "nonpayable",
					"type": "function"
				},
				{
					"inputs": [],
					"name": "getAllCommittedTransactions",
					"outputs": [
						{
							"components": [
								{
									"internalType": "uint256",
									"name": "id",
									"type": "uint256"
								},
								{
									"internalType": "address",
									"name": "initiator",
									"type": "address"
								},
								{
									"internalType": "address",
									"name": "receiver",
									"type": "address"
								},
								{
									"internalType": "uint256",
									"name": "energyAmount",
									"type": "uint256"
								},
								{
									"internalType": "uint256",
									"name": "price",
									"type": "uint256"
								},
								{
									"internalType": "uint256",
									"name": "validUntil",
									"type": "uint256"
								},
								{
									"internalType": "bool",
									"name": "committed",
									"type": "bool"
								},
								{
									"internalType": "string",
									"name": "status",
									"type": "string"
								},
								{
									"internalType": "enum EnergyTradingPlatform.TransactionType",
									"name": "transactionType",
									"type": "uint8"
								}
							],
							"internalType": "struct EnergyTradingPlatform.Transaction[]",
							"name": "",
							"type": "tuple[]"
						}
					],
					"stateMutability": "view",
					"type": "function"
				},
				{
					"inputs": [],
					"name": "getAllPendingTransactions",
					"outputs": [
						{
							"components": [
								{
									"internalType": "uint256",
									"name": "id",
									"type": "uint256"
								},
								{
									"internalType": "address",
									"name": "initiator",
									"type": "address"
								},
								{
									"internalType": "address",
									"name": "receiver",
									"type": "address"
								},
								{
									"internalType": "uint256",
									"name": "energyAmount",
									"type": "uint256"
								},
								{
									"internalType": "uint256",
									"name": "price",
									"type": "uint256"
								},
								{
									"internalType": "uint256",
									"name": "validUntil",
									"type": "uint256"
								},
								{
									"internalType": "bool",
									"name": "committed",
									"type": "bool"
								},
								{
									"internalType": "string",
									"name": "status",
									"type": "string"
								},
								{
									"internalType": "enum EnergyTradingPlatform.TransactionType",
									"name": "transactionType",
									"type": "uint8"
								}
							],
							"internalType": "struct EnergyTradingPlatform.Transaction[]",
							"name": "",
							"type": "tuple[]"
						}
					],
					"stateMutability": "view",
					"type": "function"
				},
				{
					"inputs": [],
					"name": "getAllUsersInfo",
					"outputs": [
						{
							"components": [
								{
									"internalType": "string",
									"name": "username",
									"type": "string"
								},
								{
									"internalType": "int256",
									"name": "latitude",
									"type": "int256"
								},
								{
									"internalType": "int256",
									"name": "longitude",
									"type": "int256"
								},
								{
									"internalType": "uint256",
									"name": "energyBalance",
									"type": "uint256"
								},
								{
									"internalType": "uint256",
									"name": "tokensBalance",
									"type": "uint256"
								},
								{
									"internalType": "bool",
									"name": "isRegistered",
									"type": "bool"
								}
							],
							"internalType": "struct EnergyTradingPlatform.UserInfo[]",
							"name": "",
							"type": "tuple[]"
						}
					],
					"stateMutability": "view",
					"type": "function"
				},
				{
					"inputs": [],
					"name": "getNumberOfNotCommittedTransactions",
					"outputs": [
						{
							"internalType": "uint256",
							"name": "",
							"type": "uint256"
						}
					],
					"stateMutability": "view",
					"type": "function"
				},
				{
					"inputs": [],
					"name": "getUserAddresses",
					"outputs": [
						{
							"internalType": "address[]",
							"name": "",
							"type": "address[]"
						}
					],
					"stateMutability": "view",
					"type": "function"
				},
				{
					"inputs": [
						{
							"internalType": "address",
							"name": "_userAddress",
							"type": "address"
						}
					],
					"name": "getUserInfo",
					"outputs": [
						{
							"components": [
								{
									"internalType": "string",
									"name": "username",
									"type": "string"
								},
								{
									"internalType": "int256",
									"name": "latitude",
									"type": "int256"
								},
								{
									"internalType": "int256",
									"name": "longitude",
									"type": "int256"
								},
								{
									"internalType": "uint256",
									"name": "energyBalance",
									"type": "uint256"
								},
								{
									"internalType": "uint256",
									"name": "tokensBalance",
									"type": "uint256"
								},
								{
									"internalType": "bool",
									"name": "isRegistered",
									"type": "bool"
								}
							],
							"internalType": "struct EnergyTradingPlatform.UserInfo",
							"name": "userInfo",
							"type": "tuple"
						}
					],
					"stateMutability": "view",
					"type": "function"
				},
				{
					"inputs": [
						{
							"internalType": "address",
							"name": "_sender",
							"type": "address"
						},
						{
							"internalType": "address",
							"name": "receiver",
							"type": "address"
						},
						{
							"internalType": "uint256",
							"name": "_energyAmount",
							"type": "uint256"
						},
						{
							"internalType": "uint256",
							"name": "_price",
							"type": "uint256"
						},
						{
							"internalType": "uint256",
							"name": "_validUntil",
							"type": "uint256"
						},
						{
							"internalType": "bool",
							"name": "isBuyTransaction",
							"type": "bool"
						}
					],
					"name": "initiateTransaction",
					"outputs": [],
					"stateMutability": "nonpayable",
					"type": "function"
				},
				{
					"inputs": [
						{
							"internalType": "address",
							"name": "_userAddress",
							"type": "address"
						}
					],
					"name": "isUserRegistered",
					"outputs": [
						{
							"internalType": "bool",
							"name": "",
							"type": "bool"
						}
					],
					"stateMutability": "view",
					"type": "function"
				},
				{
					"inputs": [
						{
							"internalType": "uint256",
							"name": "",
							"type": "uint256"
						}
					],
					"name": "pendingTransactions",
					"outputs": [
						{
							"internalType": "uint256",
							"name": "",
							"type": "uint256"
						}
					],
					"stateMutability": "view",
					"type": "function"
				},
				{
					"inputs": [
						{
							"internalType": "string",
							"name": "_username",
							"type": "string"
						},
						{
							"internalType": "int256",
							"name": "_latitude",
							"type": "int256"
						},
						{
							"internalType": "int256",
							"name": "_longitude",
							"type": "int256"
						},
						{
							"internalType": "uint256",
							"name": "_energyBalance",
							"type": "uint256"
						},
						{
							"internalType": "uint256",
							"name": "_tokensBalance",
							"type": "uint256"
						}
					],
					"name": "registerUser",
					"outputs": [],
					"stateMutability": "nonpayable",
					"type": "function"
				},
				{
					"inputs": [
						{
							"internalType": "uint256",
							"name": "",
							"type": "uint256"
						}
					],
					"name": "transactions",
					"outputs": [
						{
							"internalType": "uint256",
							"name": "id",
							"type": "uint256"
						},
						{
							"internalType": "address",
							"name": "initiator",
							"type": "address"
						},
						{
							"internalType": "address",
							"name": "receiver",
							"type": "address"
						},
						{
							"internalType": "uint256",
							"name": "energyAmount",
							"type": "uint256"
						},
						{
							"internalType": "uint256",
							"name": "price",
							"type": "uint256"
						},
						{
							"internalType": "uint256",
							"name": "validUntil",
							"type": "uint256"
						},
						{
							"internalType": "bool",
							"name": "committed",
							"type": "bool"
						},
						{
							"internalType": "string",
							"name": "status",
							"type": "string"
						},
						{
							"internalType": "enum EnergyTradingPlatform.TransactionType",
							"name": "transactionType",
							"type": "uint8"
						}
					],
					"stateMutability": "view",
					"type": "function"
				},
				{
					"inputs": [
						{
							"internalType": "address",
							"name": "_userAddress",
							"type": "address"
						},
						{
							"internalType": "uint256",
							"name": "_newEnergyBalance",
							"type": "uint256"
						}
					],
					"name": "updateEnergyBalance",
					"outputs": [],
					"stateMutability": "nonpayable",
					"type": "function"
				},
				{
					"inputs": [
						{
							"internalType": "string",
							"name": "_username",
							"type": "string"
						},
						{
							"internalType": "int256",
							"name": "_latitude",
							"type": "int256"
						},
						{
							"internalType": "int256",
							"name": "_longitude",
							"type": "int256"
						},
						{
							"internalType": "uint256",
							"name": "_energyBalance",
							"type": "uint256"
						},
						{
							"internalType": "uint256",
							"name": "_tokensBalance",
							"type": "uint256"
						}
					],
					"name": "updateUser",
					"outputs": [],
					"stateMutability": "nonpayable",
					"type": "function"
				},
				{
					"inputs": [
						{
							"internalType": "address",
							"name": "",
							"type": "address"
						}
					],
					"name": "users",
					"outputs": [
						{
							"internalType": "string",
							"name": "username",
							"type": "string"
						},
						{
							"internalType": "int256",
							"name": "latitude",
							"type": "int256"
						},
						{
							"internalType": "int256",
							"name": "longitude",
							"type": "int256"
						},
						{
							"internalType": "uint256",
							"name": "energyBalance",
							"type": "uint256"
						},
						{
							"internalType": "uint256",
							"name": "tokensBalance",
							"type": "uint256"
						},
						{
							"internalType": "bool",
							"name": "isRegistered",
							"type": "bool"
						}
					],
					"stateMutability": "view",
					"type": "function"
				}
			],
			"devdoc": {
				"kind": "dev",
				"methods": {},
				"version": 1
			},
			"evm": {
				"assembly": "    /* \"contracts/EnergyTradingEscrow.sol\":61:10766  contract EnergyTradingPlatform {... */\n  mstore(0x40, 0x80)\n    /* \"contracts/EnergyTradingEscrow.sol\":787:788  1 */\n  0x01\n    /* \"contracts/EnergyTradingEscrow.sol\":754:788  uint private nextTransactionId = 1 */\n  0x03\n  sstore\n    /* \"contracts/EnergyTradingEscrow.sol\":1672:1723  constructor() {... */\n  callvalue\n  dup1\n  iszero\n  tag_1\n  jumpi\n  0x00\n  dup1\n  revert\ntag_1:\n  pop\n    /* \"contracts/EnergyTradingEscrow.sol\":1705:1715  msg.sender */\n  caller\n    /* \"contracts/EnergyTradingEscrow.sol\":1697:1702  admin */\n  0x02\n  0x00\n    /* \"contracts/EnergyTradingEscrow.sol\":1697:1715  admin = msg.sender */\n  0x0100\n  exp\n  dup2\n  sload\n  dup2\n  0xffffffffffffffffffffffffffffffffffffffff\n  mul\n  not\n  and\n  swap1\n  dup4\n  0xffffffffffffffffffffffffffffffffffffffff\n  and\n  mul\n  or\n  swap1\n  sstore\n  pop\n    /* \"contracts/EnergyTradingEscrow.sol\":61:10766  contract EnergyTradingPlatform {... */\n  dataSize(sub_0)\n  dup1\n  dataOffset(sub_0)\n  0x00\n  codecopy\n  0x00\n  return\nstop\n\nsub_0: assembly {\n        /* \"contracts/EnergyTradingEscrow.sol\":61:10766  contract EnergyTradingPlatform {... */\n      mstore(0x40, 0x80)\n      callvalue\n      dup1\n      iszero\n      tag_1\n      jumpi\n      0x00\n      dup1\n      revert\n    tag_1:\n      pop\n      jumpi(tag_2, lt(calldatasize, 0x04))\n      shr(0xe0, calldataload(0x00))\n      dup1\n      0x9ace38c2\n      gt\n      tag_20\n      jumpi\n      dup1\n      0xaf7ccfa7\n      gt\n      tag_21\n      jumpi\n      dup1\n      0xaf7ccfa7\n      eq\n      tag_15\n      jumpi\n      dup1\n      0xb1fce8c3\n      eq\n      tag_16\n      jumpi\n      dup1\n      0xc0fa3f4b\n      eq\n      tag_17\n      jumpi\n      dup1\n      0xc3bcf192\n      eq\n      tag_18\n      jumpi\n      dup1\n      0xf851a440\n      eq\n      tag_19\n      jumpi\n      jump(tag_2)\n    tag_21:\n      dup1\n      0x9ace38c2\n      eq\n      tag_11\n      jumpi\n      dup1\n      0xa591efde\n      eq\n      tag_12\n      jumpi\n      dup1\n      0xa87430ba\n      eq\n      tag_13\n      jumpi\n      dup1\n      0xa9878c62\n      eq\n      tag_14\n      jumpi\n      jump(tag_2)\n    tag_20:\n      dup1\n      0x4439a702\n      gt\n      tag_22\n      jumpi\n      dup1\n      0x4439a702\n      eq\n      tag_7\n      jumpi\n      dup1\n      0x5c60f226\n      eq\n      tag_8\n      jumpi\n      dup1\n      0x6386c1c7\n      eq\n      tag_9\n      jumpi\n      dup1\n      0x63a8374d\n      eq\n      tag_10\n      jumpi\n      jump(tag_2)\n    tag_22:\n      dup1\n      0x0b0f9dc3\n      eq\n      tag_3\n      jumpi\n      dup1\n      0x163f7522\n      eq\n      tag_4\n      jumpi\n      dup1\n      0x210c9154\n      eq\n      tag_5\n      jumpi\n      dup1\n      0x2fc00ba1\n      eq\n      tag_6\n      jumpi\n    tag_2:\n      0x00\n      dup1\n      revert\n        /* \"contracts/EnergyTradingEscrow.sol\":5965:8289  function commitTransaction(uint _transactionId, bool _accepted) public {... */\n    tag_3:\n      tag_23\n      0x04\n      dup1\n      calldatasize\n      sub\n      dup2\n      add\n      swap1\n      tag_24\n      swap2\n      swap1\n      tag_25\n      jump\t// in\n    tag_24:\n      tag_26\n      jump\t// in\n    tag_23:\n      stop\n        /* \"contracts/EnergyTradingEscrow.sol\":9267:9400  function isUserRegistered(address _userAddress) public view returns (bool) {... */\n    tag_4:\n      tag_27\n      0x04\n      dup1\n      calldatasize\n      sub\n      dup2\n      add\n      swap1\n      tag_28\n      swap2\n      swap1\n      tag_29\n      jump\t// in\n    tag_28:\n      tag_30\n      jump\t// in\n    tag_27:\n      mload(0x40)\n      tag_31\n      swap2\n      swap1\n      tag_32\n      jump\t// in\n    tag_31:\n      mload(0x40)\n      dup1\n      swap2\n      sub\n      swap1\n      return\n        /* \"contracts/EnergyTradingEscrow.sol\":1980:2743  function registerUser(... */\n    tag_5:\n      tag_33\n      0x04\n      dup1\n      calldatasize\n      sub\n      dup2\n      add\n      swap1\n      tag_34\n      swap2\n      swap1\n      tag_35\n      jump\t// in\n    tag_34:\n      tag_36\n      jump\t// in\n    tag_33:\n      stop\n        /* \"contracts/EnergyTradingEscrow.sol\":2751:3473  function updateUser(... */\n    tag_6:\n      tag_37\n      0x04\n      dup1\n      calldatasize\n      sub\n      dup2\n      add\n      swap1\n      tag_38\n      swap2\n      swap1\n      tag_35\n      jump\t// in\n    tag_38:\n      tag_39\n      jump\t// in\n    tag_37:\n      stop\n        /* \"contracts/EnergyTradingEscrow.sol\":4124:5957  function initiateTransaction(... */\n    tag_7:\n      tag_40\n      0x04\n      dup1\n      calldatasize\n      sub\n      dup2\n      add\n      swap1\n      tag_41\n      swap2\n      swap1\n      tag_42\n      jump\t// in\n    tag_41:\n      tag_43\n      jump\t// in\n    tag_40:\n      stop\n        /* \"contracts/EnergyTradingEscrow.sol\":3481:4116  function deleteUser(address _userAddress) public onlyAdmin {... */\n    tag_8:\n      tag_44\n      0x04\n      dup1\n      calldatasize\n      sub\n      dup2\n      add\n      swap1\n      tag_45\n      swap2\n      swap1\n      tag_29\n      jump\t// in\n    tag_45:\n      tag_46\n      jump\t// in\n    tag_44:\n      stop\n        /* \"contracts/EnergyTradingEscrow.sol\":8731:8961  function getUserInfo(... */\n    tag_9:\n      tag_47\n      0x04\n      dup1\n      calldatasize\n      sub\n      dup2\n      add\n      swap1\n      tag_48\n      swap2\n      swap1\n      tag_29\n      jump\t// in\n    tag_48:\n      tag_49\n      jump\t// in\n    tag_47:\n      mload(0x40)\n      tag_50\n      swap2\n      swap1\n      tag_51\n      jump\t// in\n    tag_50:\n      mload(0x40)\n      dup1\n      swap2\n      sub\n      swap1\n      return\n        /* \"contracts/EnergyTradingEscrow.sol\":850:883  uint[] public pendingTransactions */\n    tag_10:\n      tag_52\n      0x04\n      dup1\n      calldatasize\n      sub\n      dup2\n      add\n      swap1\n      tag_53\n      swap2\n      swap1\n      tag_54\n      jump\t// in\n    tag_53:\n      tag_55\n      jump\t// in\n    tag_52:\n      mload(0x40)\n      tag_56\n      swap2\n      swap1\n      tag_57\n      jump\t// in\n    tag_56:\n      mload(0x40)\n      dup1\n      swap2\n      sub\n      swap1\n      return\n        /* \"contracts/EnergyTradingEscrow.sol\":795:843  mapping(uint => Transaction) public transactions */\n    tag_11:\n      tag_58\n      0x04\n      dup1\n      calldatasize\n      sub\n      dup2\n      add\n      swap1\n      tag_59\n      swap2\n      swap1\n      tag_54\n      jump\t// in\n    tag_59:\n      tag_60\n      jump\t// in\n    tag_58:\n      mload(0x40)\n      tag_61\n      swap10\n      swap9\n      swap8\n      swap7\n      swap6\n      swap5\n      swap4\n      swap3\n      swap2\n      swap1\n      tag_62\n      jump\t// in\n    tag_61:\n      mload(0x40)\n      dup1\n      swap2\n      sub\n      swap1\n      return\n        /* \"contracts/EnergyTradingEscrow.sol\":9408:9514  function getUserAddresses() public view returns (address[] memory) {... */\n    tag_12:\n      tag_63\n      tag_64\n      jump\t// in\n    tag_63:\n      mload(0x40)\n      tag_65\n      swap2\n      swap1\n      tag_66\n      jump\t// in\n    tag_65:\n      mload(0x40)\n      dup1\n      swap2\n      sub\n      swap1\n      return\n        /* \"contracts/EnergyTradingEscrow.sol\":679:720  mapping(address => UserInfo) public users */\n    tag_13:\n      tag_67\n      0x04\n      dup1\n      calldatasize\n      sub\n      dup2\n      add\n      swap1\n      tag_68\n      swap2\n      swap1\n      tag_29\n      jump\t// in\n    tag_68:\n      tag_69\n      jump\t// in\n    tag_67:\n      mload(0x40)\n      tag_70\n      swap7\n      swap6\n      swap5\n      swap4\n      swap3\n      swap2\n      swap1\n      tag_71\n      jump\t// in\n    tag_70:\n      mload(0x40)\n      dup1\n      swap2\n      sub\n      swap1\n      return\n        /* \"contracts/EnergyTradingEscrow.sol\":9656:10064  function getAllPendingTransactions()... */\n    tag_14:\n      tag_72\n      tag_73\n      jump\t// in\n    tag_72:\n      mload(0x40)\n      tag_74\n      swap2\n      swap1\n      tag_75\n      jump\t// in\n    tag_74:\n      mload(0x40)\n      dup1\n      swap2\n      sub\n      swap1\n      return\n        /* \"contracts/EnergyTradingEscrow.sol\":10502:10763  function updateEnergyBalance(... */\n    tag_15:\n      tag_76\n      0x04\n      dup1\n      calldatasize\n      sub\n      dup2\n      add\n      swap1\n      tag_77\n      swap2\n      swap1\n      tag_78\n      jump\t// in\n    tag_77:\n      tag_79\n      jump\t// in\n    tag_76:\n      stop\n        /* \"contracts/EnergyTradingEscrow.sol\":10072:10494  function getAllCommittedTransactions()... */\n    tag_16:\n      tag_80\n      tag_81\n      jump\t// in\n    tag_80:\n      mload(0x40)\n      tag_82\n      swap2\n      swap1\n      tag_75\n      jump\t// in\n    tag_82:\n      mload(0x40)\n      dup1\n      swap2\n      sub\n      swap1\n      return\n        /* \"contracts/EnergyTradingEscrow.sol\":9522:9648  function getNumberOfNotCommittedTransactions() public view returns (uint) {... */\n    tag_17:\n      tag_83\n      tag_84\n      jump\t// in\n    tag_83:\n      mload(0x40)\n      tag_85\n      swap2\n      swap1\n      tag_57\n      jump\t// in\n    tag_85:\n      mload(0x40)\n      dup1\n      swap2\n      sub\n      swap1\n      return\n        /* \"contracts/EnergyTradingEscrow.sol\":8969:9259  function getAllUsersInfo() public view returns (UserInfo[] memory) {... */\n    tag_18:\n      tag_86\n      tag_87\n      jump\t// in\n    tag_86:\n      mload(0x40)\n      tag_88\n      swap2\n      swap1\n      tag_89\n      jump\t// in\n    tag_88:\n      mload(0x40)\n      dup1\n      swap2\n      sub\n      swap1\n      return\n        /* \"contracts/EnergyTradingEscrow.sol\":727:747  address public admin */\n    tag_19:\n      tag_90\n      tag_91\n      jump\t// in\n    tag_90:\n      mload(0x40)\n      tag_92\n      swap2\n      swap1\n      tag_93\n      jump\t// in\n    tag_92:\n      mload(0x40)\n      dup1\n      swap2\n      sub\n      swap1\n      return\n        /* \"contracts/EnergyTradingEscrow.sol\":5965:8289  function commitTransaction(uint _transactionId, bool _accepted) public {... */\n    tag_26:\n        /* \"contracts/EnergyTradingEscrow.sol\":6086:6103  nextTransactionId */\n      sload(0x03)\n        /* \"contracts/EnergyTradingEscrow.sol\":6069:6083  _transactionId */\n      dup3\n        /* \"contracts/EnergyTradingEscrow.sol\":6069:6103  _transactionId < nextTransactionId */\n      lt\n        /* \"contracts/EnergyTradingEscrow.sol\":6069:6160  _transactionId < nextTransactionId &&... */\n      dup1\n      iszero\n      tag_95\n      jumpi\n      pop\n        /* \"contracts/EnergyTradingEscrow.sol\":6159:6160  0 */\n      0x00\n        /* \"contracts/EnergyTradingEscrow.sol\":6124:6136  transactions */\n      0x04\n        /* \"contracts/EnergyTradingEscrow.sol\":6124:6152  transactions[_transactionId] */\n      0x00\n        /* \"contracts/EnergyTradingEscrow.sol\":6137:6151  _transactionId */\n      dup5\n        /* \"contracts/EnergyTradingEscrow.sol\":6124:6152  transactions[_transactionId] */\n      dup2\n      mstore\n      0x20\n      add\n      swap1\n      dup2\n      mstore\n      0x20\n      add\n      0x00\n      keccak256\n        /* \"contracts/EnergyTradingEscrow.sol\":6124:6155  transactions[_transactionId].id */\n      0x00\n      add\n      sload\n        /* \"contracts/EnergyTradingEscrow.sol\":6124:6160  transactions[_transactionId].id != 0 */\n      eq\n      iszero\n        /* \"contracts/EnergyTradingEscrow.sol\":6069:6160  _transactionId < nextTransactionId &&... */\n    tag_95:\n        /* \"contracts/EnergyTradingEscrow.sol\":6047:6215  require(... */\n      tag_96\n      jumpi\n      mload(0x40)\n      0x08c379a000000000000000000000000000000000000000000000000000000000\n      dup2\n      mstore\n      0x04\n      add\n      tag_97\n      swap1\n      tag_98\n      jump\t// in\n    tag_97:\n      mload(0x40)\n      dup1\n      swap2\n      sub\n      swap1\n      revert\n    tag_96:\n        /* \"contracts/EnergyTradingEscrow.sol\":6249:6261  transactions */\n      0x04\n        /* \"contracts/EnergyTradingEscrow.sol\":6249:6277  transactions[_transactionId] */\n      0x00\n        /* \"contracts/EnergyTradingEscrow.sol\":6262:6276  _transactionId */\n      dup4\n        /* \"contracts/EnergyTradingEscrow.sol\":6249:6277  transactions[_transactionId] */\n      dup2\n      mstore\n      0x20\n      add\n      swap1\n      dup2\n      mstore\n      0x20\n      add\n      0x00\n      keccak256\n        /* \"contracts/EnergyTradingEscrow.sol\":6249:6287  transactions[_transactionId].committed */\n      0x06\n      add\n      0x00\n      swap1\n      sload\n      swap1\n      0x0100\n      exp\n      swap1\n      div\n      0xff\n      and\n        /* \"contracts/EnergyTradingEscrow.sol\":6248:6287  !transactions[_transactionId].committed */\n      iszero\n        /* \"contracts/EnergyTradingEscrow.sol\":6226:6345  require(... */\n      tag_99\n      jumpi\n      mload(0x40)\n      0x08c379a000000000000000000000000000000000000000000000000000000000\n      dup2\n      mstore\n      0x04\n      add\n      tag_100\n      swap1\n      tag_101\n      jump\t// in\n    tag_100:\n      mload(0x40)\n      dup1\n      swap2\n      sub\n      swap1\n      revert\n    tag_99:\n        /* \"contracts/EnergyTradingEscrow.sol\":6378:6390  transactions */\n      0x04\n        /* \"contracts/EnergyTradingEscrow.sol\":6378:6406  transactions[_transactionId] */\n      0x00\n        /* \"contracts/EnergyTradingEscrow.sol\":6391:6405  _transactionId */\n      dup4\n        /* \"contracts/EnergyTradingEscrow.sol\":6378:6406  transactions[_transactionId] */\n      dup2\n      mstore\n      0x20\n      add\n      swap1\n      dup2\n      mstore\n      0x20\n      add\n      0x00\n      keccak256\n        /* \"contracts/EnergyTradingEscrow.sol\":6378:6417  transactions[_transactionId].validUntil */\n      0x05\n      add\n      sload\n        /* \"contracts/EnergyTradingEscrow.sol\":6360:6375  block.timestamp */\n      timestamp\n        /* \"contracts/EnergyTradingEscrow.sol\":6360:6417  block.timestamp > transactions[_transactionId].validUntil */\n      gt\n        /* \"contracts/EnergyTradingEscrow.sol\":6356:6807  if (block.timestamp > transactions[_transactionId].validUntil) {... */\n      iszero\n      tag_102\n      jumpi\n        /* \"contracts/EnergyTradingEscrow.sol\":6475:6479  true */\n      0x01\n        /* \"contracts/EnergyTradingEscrow.sol\":6434:6446  transactions */\n      0x04\n        /* \"contracts/EnergyTradingEscrow.sol\":6434:6462  transactions[_transactionId] */\n      0x00\n        /* \"contracts/EnergyTradingEscrow.sol\":6447:6461  _transactionId */\n      dup5\n        /* \"contracts/EnergyTradingEscrow.sol\":6434:6462  transactions[_transactionId] */\n      dup2\n      mstore\n      0x20\n      add\n      swap1\n      dup2\n      mstore\n      0x20\n      add\n      0x00\n      keccak256\n        /* \"contracts/EnergyTradingEscrow.sol\":6434:6472  transactions[_transactionId].committed */\n      0x06\n      add\n      0x00\n        /* \"contracts/EnergyTradingEscrow.sol\":6434:6479  transactions[_transactionId].committed = true */\n      0x0100\n      exp\n      dup2\n      sload\n      dup2\n      0xff\n      mul\n      not\n      and\n      swap1\n      dup4\n      iszero\n      iszero\n      mul\n      or\n      swap1\n      sstore\n      pop\n        /* \"contracts/EnergyTradingEscrow.sol\":6494:6560  transactions[_transactionId].status = \"Rejected due to expiration\" */\n      mload(0x40)\n      dup1\n      0x40\n      add\n      0x40\n      mstore\n      dup1\n      0x1a\n      dup2\n      mstore\n      0x20\n      add\n      0x52656a65637465642064756520746f2065787069726174696f6e000000000000\n      dup2\n      mstore\n      pop\n        /* \"contracts/EnergyTradingEscrow.sol\":6494:6506  transactions */\n      0x04\n        /* \"contracts/EnergyTradingEscrow.sol\":6494:6522  transactions[_transactionId] */\n      0x00\n        /* \"contracts/EnergyTradingEscrow.sol\":6507:6521  _transactionId */\n      dup5\n        /* \"contracts/EnergyTradingEscrow.sol\":6494:6522  transactions[_transactionId] */\n      dup2\n      mstore\n      0x20\n      add\n      swap1\n      dup2\n      mstore\n      0x20\n      add\n      0x00\n      keccak256\n        /* \"contracts/EnergyTradingEscrow.sol\":6494:6529  transactions[_transactionId].status */\n      0x07\n      add\n        /* \"contracts/EnergyTradingEscrow.sol\":6494:6560  transactions[_transactionId].status = \"Rejected due to expiration\" */\n      swap1\n      dup2\n      tag_103\n      swap2\n      swap1\n      tag_104\n      jump\t// in\n    tag_103:\n      pop\n        /* \"contracts/EnergyTradingEscrow.sol\":6580:6719  TransactionCommitted(... */\n      0xb6cdb9654a453b960ec5fe6f18502a3f0dd823ed74ddc4f68a16b3210265ea5b\n        /* \"contracts/EnergyTradingEscrow.sol\":6619:6633  _transactionId */\n      dup3\n        /* \"contracts/EnergyTradingEscrow.sol\":6652:6657  false */\n      0x00\n        /* \"contracts/EnergyTradingEscrow.sol\":6580:6719  TransactionCommitted(... */\n      mload(0x40)\n      tag_105\n      swap3\n      swap2\n      swap1\n      tag_106\n      jump\t// in\n    tag_105:\n      mload(0x40)\n      dup1\n      swap2\n      sub\n      swap1\n      log1\n        /* \"contracts/EnergyTradingEscrow.sol\":6734:6774  removePendingTransaction(_transactionId) */\n      tag_107\n        /* \"contracts/EnergyTradingEscrow.sol\":6759:6773  _transactionId */\n      dup3\n        /* \"contracts/EnergyTradingEscrow.sol\":6734:6758  removePendingTransaction */\n      tag_108\n        /* \"contracts/EnergyTradingEscrow.sol\":6734:6774  removePendingTransaction(_transactionId) */\n      jump\t// in\n    tag_107:\n        /* \"contracts/EnergyTradingEscrow.sol\":6789:6796  return; */\n      jump(tag_94)\n        /* \"contracts/EnergyTradingEscrow.sol\":6356:6807  if (block.timestamp > transactions[_transactionId].validUntil) {... */\n    tag_102:\n        /* \"contracts/EnergyTradingEscrow.sol\":6860:6864  true */\n      0x01\n        /* \"contracts/EnergyTradingEscrow.sol\":6819:6831  transactions */\n      0x04\n        /* \"contracts/EnergyTradingEscrow.sol\":6819:6847  transactions[_transactionId] */\n      0x00\n        /* \"contracts/EnergyTradingEscrow.sol\":6832:6846  _transactionId */\n      dup5\n        /* \"contracts/EnergyTradingEscrow.sol\":6819:6847  transactions[_transactionId] */\n      dup2\n      mstore\n      0x20\n      add\n      swap1\n      dup2\n      mstore\n      0x20\n      add\n      0x00\n      keccak256\n        /* \"contracts/EnergyTradingEscrow.sol\":6819:6857  transactions[_transactionId].committed */\n      0x06\n      add\n      0x00\n        /* \"contracts/EnergyTradingEscrow.sol\":6819:6864  transactions[_transactionId].committed = true */\n      0x0100\n      exp\n      dup2\n      sload\n      dup2\n      0xff\n      mul\n      not\n      and\n      swap1\n      dup4\n      iszero\n      iszero\n      mul\n      or\n      swap1\n      sstore\n      pop\n        /* \"contracts/EnergyTradingEscrow.sol\":6913:6922  _accepted */\n      dup1\n        /* \"contracts/EnergyTradingEscrow.sol\":6913:6974  _accepted... */\n      tag_109\n      jumpi\n      mload(0x40)\n      dup1\n      0x40\n      add\n      0x40\n      mstore\n      dup1\n      0x08\n      dup2\n      mstore\n      0x20\n      add\n      0x52656a6563746564000000000000000000000000000000000000000000000000\n      dup2\n      mstore\n      pop\n      jump(tag_110)\n    tag_109:\n      mload(0x40)\n      dup1\n      0x40\n      add\n      0x40\n      mstore\n      dup1\n      0x08\n      dup2\n      mstore\n      0x20\n      add\n      0x4163636570746564000000000000000000000000000000000000000000000000\n      dup2\n      mstore\n      pop\n    tag_110:\n        /* \"contracts/EnergyTradingEscrow.sol\":6875:6887  transactions */\n      0x04\n        /* \"contracts/EnergyTradingEscrow.sol\":6875:6903  transactions[_transactionId] */\n      0x00\n        /* \"contracts/EnergyTradingEscrow.sol\":6888:6902  _transactionId */\n      dup5\n        /* \"contracts/EnergyTradingEscrow.sol\":6875:6903  transactions[_transactionId] */\n      dup2\n      mstore\n      0x20\n      add\n      swap1\n      dup2\n      mstore\n      0x20\n      add\n      0x00\n      keccak256\n        /* \"contracts/EnergyTradingEscrow.sol\":6875:6910  transactions[_transactionId].status */\n      0x07\n      add\n        /* \"contracts/EnergyTradingEscrow.sol\":6875:6974  transactions[_transactionId].status = _accepted... */\n      swap1\n      dup2\n      tag_111\n      swap2\n      swap1\n      tag_104\n      jump\t// in\n    tag_111:\n      pop\n        /* \"contracts/EnergyTradingEscrow.sol\":6985:7025  removePendingTransaction(_transactionId) */\n      tag_112\n        /* \"contracts/EnergyTradingEscrow.sol\":7010:7024  _transactionId */\n      dup3\n        /* \"contracts/EnergyTradingEscrow.sol\":6985:7009  removePendingTransaction */\n      tag_108\n        /* \"contracts/EnergyTradingEscrow.sol\":6985:7025  removePendingTransaction(_transactionId) */\n      jump\t// in\n    tag_112:\n        /* \"contracts/EnergyTradingEscrow.sol\":7036:7057  committedTransactions */\n      0x06\n        /* \"contracts/EnergyTradingEscrow.sol\":7063:7077  _transactionId */\n      dup3\n        /* \"contracts/EnergyTradingEscrow.sol\":7036:7078  committedTransactions.push(_transactionId) */\n      swap1\n      dup1\n      0x01\n      dup2\n      sload\n      add\n      dup1\n      dup3\n      sstore\n      dup1\n      swap2\n      pop\n      pop\n      0x01\n      swap1\n      sub\n      swap1\n      0x00\n      mstore\n      keccak256(0x00, 0x20)\n      add\n      0x00\n      swap1\n      swap2\n      swap1\n      swap2\n      swap1\n      swap2\n      pop\n      sstore\n        /* \"contracts/EnergyTradingEscrow.sol\":7093:7102  _accepted */\n      dup1\n        /* \"contracts/EnergyTradingEscrow.sol\":7089:8130  if (_accepted) {... */\n      iszero\n      tag_114\n      jumpi\n        /* \"contracts/EnergyTradingEscrow.sol\":7119:7150  Transaction storage transaction */\n      0x00\n        /* \"contracts/EnergyTradingEscrow.sol\":7153:7165  transactions */\n      0x04\n        /* \"contracts/EnergyTradingEscrow.sol\":7153:7181  transactions[_transactionId] */\n      0x00\n        /* \"contracts/EnergyTradingEscrow.sol\":7166:7180  _transactionId */\n      dup5\n        /* \"contracts/EnergyTradingEscrow.sol\":7153:7181  transactions[_transactionId] */\n      dup2\n      mstore\n      0x20\n      add\n      swap1\n      dup2\n      mstore\n      0x20\n      add\n      0x00\n      keccak256\n        /* \"contracts/EnergyTradingEscrow.sol\":7119:7181  Transaction storage transaction = transactions[_transactionId] */\n      swap1\n      pop\n        /* \"contracts/EnergyTradingEscrow.sol\":7231:7250  TransactionType.Buy */\n      0x00\n        /* \"contracts/EnergyTradingEscrow.sol\":7200:7250  transaction.transactionType == TransactionType.Buy */\n      0x01\n      dup2\n      gt\n      iszero\n      tag_115\n      jumpi\n      tag_116\n      tag_117\n      jump\t// in\n    tag_116:\n    tag_115:\n        /* \"contracts/EnergyTradingEscrow.sol\":7200:7211  transaction */\n      dup2\n        /* \"contracts/EnergyTradingEscrow.sol\":7200:7227  transaction.transactionType */\n      0x08\n      add\n      0x00\n      swap1\n      sload\n      swap1\n      0x0100\n      exp\n      swap1\n      div\n      0xff\n      and\n        /* \"contracts/EnergyTradingEscrow.sol\":7200:7250  transaction.transactionType == TransactionType.Buy */\n      0x01\n      dup2\n      gt\n      iszero\n      tag_118\n      jumpi\n      tag_119\n      tag_117\n      jump\t// in\n    tag_119:\n    tag_118:\n      sub\n        /* \"contracts/EnergyTradingEscrow.sol\":7196:8119  if (transaction.transactionType == TransactionType.Buy) {... */\n      tag_120\n      jumpi\n        /* \"contracts/EnergyTradingEscrow.sol\":7317:7328  transaction */\n      dup1\n        /* \"contracts/EnergyTradingEscrow.sol\":7317:7334  transaction.price */\n      0x04\n      add\n      sload\n        /* \"contracts/EnergyTradingEscrow.sol\":7271:7276  users */\n      0x01\n        /* \"contracts/EnergyTradingEscrow.sol\":7271:7299  users[transaction.initiator] */\n      0x00\n        /* \"contracts/EnergyTradingEscrow.sol\":7277:7288  transaction */\n      dup4\n        /* \"contracts/EnergyTradingEscrow.sol\":7277:7298  transaction.initiator */\n      0x01\n      add\n      0x00\n      swap1\n      sload\n      swap1\n      0x0100\n      exp\n      swap1\n      div\n      0xffffffffffffffffffffffffffffffffffffffff\n      and\n        /* \"contracts/EnergyTradingEscrow.sol\":7271:7299  users[transaction.initiator] */\n      0xffffffffffffffffffffffffffffffffffffffff\n      and\n      0xffffffffffffffffffffffffffffffffffffffff\n      and\n      dup2\n      mstore\n      0x20\n      add\n      swap1\n      dup2\n      mstore\n      0x20\n      add\n      0x00\n      keccak256\n        /* \"contracts/EnergyTradingEscrow.sol\":7271:7313  users[transaction.initiator].tokensBalance */\n      0x04\n      add\n      0x00\n        /* \"contracts/EnergyTradingEscrow.sol\":7271:7334  users[transaction.initiator].tokensBalance -= transaction.price */\n      dup3\n      dup3\n      sload\n      tag_121\n      swap2\n      swap1\n      tag_122\n      jump\t// in\n    tag_121:\n      swap3\n      pop\n      pop\n      dup2\n      swap1\n      sstore\n      pop\n        /* \"contracts/EnergyTradingEscrow.sol\":7398:7409  transaction */\n      dup1\n        /* \"contracts/EnergyTradingEscrow.sol\":7398:7415  transaction.price */\n      0x04\n      add\n      sload\n        /* \"contracts/EnergyTradingEscrow.sol\":7353:7358  users */\n      0x01\n        /* \"contracts/EnergyTradingEscrow.sol\":7353:7380  users[transaction.receiver] */\n      0x00\n        /* \"contracts/EnergyTradingEscrow.sol\":7359:7370  transaction */\n      dup4\n        /* \"contracts/EnergyTradingEscrow.sol\":7359:7379  transaction.receiver */\n      0x02\n      add\n      0x00\n      swap1\n      sload\n      swap1\n      0x0100\n      exp\n      swap1\n      div\n      0xffffffffffffffffffffffffffffffffffffffff\n      and\n        /* \"contracts/EnergyTradingEscrow.sol\":7353:7380  users[transaction.receiver] */\n      0xffffffffffffffffffffffffffffffffffffffff\n      and\n      0xffffffffffffffffffffffffffffffffffffffff\n      and\n      dup2\n      mstore\n      0x20\n      add\n      swap1\n      dup2\n      mstore\n      0x20\n      add\n      0x00\n      keccak256\n        /* \"contracts/EnergyTradingEscrow.sol\":7353:7394  users[transaction.receiver].tokensBalance */\n      0x04\n      add\n      0x00\n        /* \"contracts/EnergyTradingEscrow.sol\":7353:7415  users[transaction.receiver].tokensBalance += transaction.price */\n      dup3\n      dup3\n      sload\n      tag_123\n      swap2\n      swap1\n      tag_124\n      jump\t// in\n    tag_123:\n      swap3\n      pop\n      pop\n      dup2\n      swap1\n      sstore\n      pop\n        /* \"contracts/EnergyTradingEscrow.sol\":7482:7493  transaction */\n      dup1\n        /* \"contracts/EnergyTradingEscrow.sol\":7482:7528  transaction... */\n      0x03\n      add\n      sload\n        /* \"contracts/EnergyTradingEscrow.sol\":7436:7441  users */\n      0x01\n        /* \"contracts/EnergyTradingEscrow.sol\":7436:7464  users[transaction.initiator] */\n      0x00\n        /* \"contracts/EnergyTradingEscrow.sol\":7442:7453  transaction */\n      dup4\n        /* \"contracts/EnergyTradingEscrow.sol\":7442:7463  transaction.initiator */\n      0x01\n      add\n      0x00\n      swap1\n      sload\n      swap1\n      0x0100\n      exp\n      swap1\n      div\n      0xffffffffffffffffffffffffffffffffffffffff\n      and\n        /* \"contracts/EnergyTradingEscrow.sol\":7436:7464  users[transaction.initiator] */\n      0xffffffffffffffffffffffffffffffffffffffff\n      and\n      0xffffffffffffffffffffffffffffffffffffffff\n      and\n      dup2\n      mstore\n      0x20\n      add\n      swap1\n      dup2\n      mstore\n      0x20\n      add\n      0x00\n      keccak256\n        /* \"contracts/EnergyTradingEscrow.sol\":7436:7478  users[transaction.initiator].energyBalance */\n      0x03\n      add\n      0x00\n        /* \"contracts/EnergyTradingEscrow.sol\":7436:7528  users[transaction.initiator].energyBalance += transaction... */\n      dup3\n      dup3\n      sload\n      tag_125\n      swap2\n      swap1\n      tag_124\n      jump\t// in\n    tag_125:\n      swap3\n      pop\n      pop\n      dup2\n      swap1\n      sstore\n      pop\n        /* \"contracts/EnergyTradingEscrow.sol\":7592:7603  transaction */\n      dup1\n        /* \"contracts/EnergyTradingEscrow.sol\":7592:7638  transaction... */\n      0x03\n      add\n      sload\n        /* \"contracts/EnergyTradingEscrow.sol\":7547:7552  users */\n      0x01\n        /* \"contracts/EnergyTradingEscrow.sol\":7547:7574  users[transaction.receiver] */\n      0x00\n        /* \"contracts/EnergyTradingEscrow.sol\":7553:7564  transaction */\n      dup4\n        /* \"contracts/EnergyTradingEscrow.sol\":7553:7573  transaction.receiver */\n      0x02\n      add\n      0x00\n      swap1\n      sload\n      swap1\n      0x0100\n      exp\n      swap1\n      div\n      0xffffffffffffffffffffffffffffffffffffffff\n      and\n        /* \"contracts/EnergyTradingEscrow.sol\":7547:7574  users[transaction.receiver] */\n      0xffffffffffffffffffffffffffffffffffffffff\n      and\n      0xffffffffffffffffffffffffffffffffffffffff\n      and\n      dup2\n      mstore\n      0x20\n      add\n      swap1\n      dup2\n      mstore\n      0x20\n      add\n      0x00\n      keccak256\n        /* \"contracts/EnergyTradingEscrow.sol\":7547:7588  users[transaction.receiver].energyBalance */\n      0x03\n      add\n      0x00\n        /* \"contracts/EnergyTradingEscrow.sol\":7547:7638  users[transaction.receiver].energyBalance -= transaction... */\n      dup3\n      dup3\n      sload\n      tag_126\n      swap2\n      swap1\n      tag_122\n      jump\t// in\n    tag_126:\n      swap3\n      pop\n      pop\n      dup2\n      swap1\n      sstore\n      pop\n        /* \"contracts/EnergyTradingEscrow.sol\":7196:8119  if (transaction.transactionType == TransactionType.Buy) {... */\n      jump(tag_127)\n    tag_120:\n        /* \"contracts/EnergyTradingEscrow.sol\":7695:7715  TransactionType.Sell */\n      0x01\n        /* \"contracts/EnergyTradingEscrow.sol\":7664:7715  transaction.transactionType == TransactionType.Sell */\n      dup1\n      dup2\n      gt\n      iszero\n      tag_128\n      jumpi\n      tag_129\n      tag_117\n      jump\t// in\n    tag_129:\n    tag_128:\n        /* \"contracts/EnergyTradingEscrow.sol\":7664:7675  transaction */\n      dup2\n        /* \"contracts/EnergyTradingEscrow.sol\":7664:7691  transaction.transactionType */\n      0x08\n      add\n      0x00\n      swap1\n      sload\n      swap1\n      0x0100\n      exp\n      swap1\n      div\n      0xff\n      and\n        /* \"contracts/EnergyTradingEscrow.sol\":7664:7715  transaction.transactionType == TransactionType.Sell */\n      0x01\n      dup2\n      gt\n      iszero\n      tag_130\n      jumpi\n      tag_131\n      tag_117\n      jump\t// in\n    tag_131:\n    tag_130:\n      sub\n        /* \"contracts/EnergyTradingEscrow.sol\":7660:8119  if (transaction.transactionType == TransactionType.Sell) {... */\n      tag_132\n      jumpi\n        /* \"contracts/EnergyTradingEscrow.sol\":7782:7793  transaction */\n      dup1\n        /* \"contracts/EnergyTradingEscrow.sol\":7782:7799  transaction.price */\n      0x04\n      add\n      sload\n        /* \"contracts/EnergyTradingEscrow.sol\":7736:7741  users */\n      0x01\n        /* \"contracts/EnergyTradingEscrow.sol\":7736:7764  users[transaction.initiator] */\n      0x00\n        /* \"contracts/EnergyTradingEscrow.sol\":7742:7753  transaction */\n      dup4\n        /* \"contracts/EnergyTradingEscrow.sol\":7742:7763  transaction.initiator */\n      0x01\n      add\n      0x00\n      swap1\n      sload\n      swap1\n      0x0100\n      exp\n      swap1\n      div\n      0xffffffffffffffffffffffffffffffffffffffff\n      and\n        /* \"contracts/EnergyTradingEscrow.sol\":7736:7764  users[transaction.initiator] */\n      0xffffffffffffffffffffffffffffffffffffffff\n      and\n      0xffffffffffffffffffffffffffffffffffffffff\n      and\n      dup2\n      mstore\n      0x20\n      add\n      swap1\n      dup2\n      mstore\n      0x20\n      add\n      0x00\n      keccak256\n        /* \"contracts/EnergyTradingEscrow.sol\":7736:7778  users[transaction.initiator].tokensBalance */\n      0x04\n      add\n      0x00\n        /* \"contracts/EnergyTradingEscrow.sol\":7736:7799  users[transaction.initiator].tokensBalance += transaction.price */\n      dup3\n      dup3\n      sload\n      tag_133\n      swap2\n      swap1\n      tag_124\n      jump\t// in\n    tag_133:\n      swap3\n      pop\n      pop\n      dup2\n      swap1\n      sstore\n      pop\n        /* \"contracts/EnergyTradingEscrow.sol\":7863:7874  transaction */\n      dup1\n        /* \"contracts/EnergyTradingEscrow.sol\":7863:7880  transaction.price */\n      0x04\n      add\n      sload\n        /* \"contracts/EnergyTradingEscrow.sol\":7818:7823  users */\n      0x01\n        /* \"contracts/EnergyTradingEscrow.sol\":7818:7845  users[transaction.receiver] */\n      0x00\n        /* \"contracts/EnergyTradingEscrow.sol\":7824:7835  transaction */\n      dup4\n        /* \"contracts/EnergyTradingEscrow.sol\":7824:7844  transaction.receiver */\n      0x02\n      add\n      0x00\n      swap1\n      sload\n      swap1\n      0x0100\n      exp\n      swap1\n      div\n      0xffffffffffffffffffffffffffffffffffffffff\n      and\n        /* \"contracts/EnergyTradingEscrow.sol\":7818:7845  users[transaction.receiver] */\n      0xffffffffffffffffffffffffffffffffffffffff\n      and\n      0xffffffffffffffffffffffffffffffffffffffff\n      and\n      dup2\n      mstore\n      0x20\n      add\n      swap1\n      dup2\n      mstore\n      0x20\n      add\n      0x00\n      keccak256\n        /* \"contracts/EnergyTradingEscrow.sol\":7818:7859  users[transaction.receiver].tokensBalance */\n      0x04\n      add\n      0x00\n        /* \"contracts/EnergyTradingEscrow.sol\":7818:7880  users[transaction.receiver].tokensBalance -= transaction.price */\n      dup3\n      dup3\n      sload\n      tag_134\n      swap2\n      swap1\n      tag_122\n      jump\t// in\n    tag_134:\n      swap3\n      pop\n      pop\n      dup2\n      swap1\n      sstore\n      pop\n        /* \"contracts/EnergyTradingEscrow.sol\":7947:7958  transaction */\n      dup1\n        /* \"contracts/EnergyTradingEscrow.sol\":7947:7993  transaction... */\n      0x03\n      add\n      sload\n        /* \"contracts/EnergyTradingEscrow.sol\":7901:7906  users */\n      0x01\n        /* \"contracts/EnergyTradingEscrow.sol\":7901:7929  users[transaction.initiator] */\n      0x00\n        /* \"contracts/EnergyTradingEscrow.sol\":7907:7918  transaction */\n      dup4\n        /* \"contracts/EnergyTradingEscrow.sol\":7907:7928  transaction.initiator */\n      0x01\n      add\n      0x00\n      swap1\n      sload\n      swap1\n      0x0100\n      exp\n      swap1\n      div\n      0xffffffffffffffffffffffffffffffffffffffff\n      and\n        /* \"contracts/EnergyTradingEscrow.sol\":7901:7929  users[transaction.initiator] */\n      0xffffffffffffffffffffffffffffffffffffffff\n      and\n      0xffffffffffffffffffffffffffffffffffffffff\n      and\n      dup2\n      mstore\n      0x20\n      add\n      swap1\n      dup2\n      mstore\n      0x20\n      add\n      0x00\n      keccak256\n        /* \"contracts/EnergyTradingEscrow.sol\":7901:7943  users[transaction.initiator].energyBalance */\n      0x03\n      add\n      0x00\n        /* \"contracts/EnergyTradingEscrow.sol\":7901:7993  users[transaction.initiator].energyBalance -= transaction... */\n      dup3\n      dup3\n      sload\n      tag_135\n      swap2\n      swap1\n      tag_122\n      jump\t// in\n    tag_135:\n      swap3\n      pop\n      pop\n      dup2\n      swap1\n      sstore\n      pop\n        /* \"contracts/EnergyTradingEscrow.sol\":8057:8068  transaction */\n      dup1\n        /* \"contracts/EnergyTradingEscrow.sol\":8057:8103  transaction... */\n      0x03\n      add\n      sload\n        /* \"contracts/EnergyTradingEscrow.sol\":8012:8017  users */\n      0x01\n        /* \"contracts/EnergyTradingEscrow.sol\":8012:8039  users[transaction.receiver] */\n      0x00\n        /* \"contracts/EnergyTradingEscrow.sol\":8018:8029  transaction */\n      dup4\n        /* \"contracts/EnergyTradingEscrow.sol\":8018:8038  transaction.receiver */\n      0x02\n      add\n      0x00\n      swap1\n      sload\n      swap1\n      0x0100\n      exp\n      swap1\n      div\n      0xffffffffffffffffffffffffffffffffffffffff\n      and\n        /* \"contracts/EnergyTradingEscrow.sol\":8012:8039  users[transaction.receiver] */\n      0xffffffffffffffffffffffffffffffffffffffff\n      and\n      0xffffffffffffffffffffffffffffffffffffffff\n      and\n      dup2\n      mstore\n      0x20\n      add\n      swap1\n      dup2\n      mstore\n      0x20\n      add\n      0x00\n      keccak256\n        /* \"contracts/EnergyTradingEscrow.sol\":8012:8053  users[transaction.receiver].energyBalance */\n      0x03\n      add\n      0x00\n        /* \"contracts/EnergyTradingEscrow.sol\":8012:8103  users[transaction.receiver].energyBalance += transaction... */\n      dup3\n      dup3\n      sload\n      tag_136\n      swap2\n      swap1\n      tag_124\n      jump\t// in\n    tag_136:\n      swap3\n      pop\n      pop\n      dup2\n      swap1\n      sstore\n      pop\n        /* \"contracts/EnergyTradingEscrow.sol\":7660:8119  if (transaction.transactionType == TransactionType.Sell) {... */\n    tag_132:\n        /* \"contracts/EnergyTradingEscrow.sol\":7196:8119  if (transaction.transactionType == TransactionType.Buy) {... */\n    tag_127:\n        /* \"contracts/EnergyTradingEscrow.sol\":7104:8130  {... */\n      pop\n        /* \"contracts/EnergyTradingEscrow.sol\":7089:8130  if (_accepted) {... */\n    tag_114:\n        /* \"contracts/EnergyTradingEscrow.sol\":8147:8281  TransactionCommitted(... */\n      0xb6cdb9654a453b960ec5fe6f18502a3f0dd823ed74ddc4f68a16b3210265ea5b\n        /* \"contracts/EnergyTradingEscrow.sol\":8182:8196  _transactionId */\n      dup3\n        /* \"contracts/EnergyTradingEscrow.sol\":8211:8220  _accepted */\n      dup3\n        /* \"contracts/EnergyTradingEscrow.sol\":8235:8247  transactions */\n      0x04\n        /* \"contracts/EnergyTradingEscrow.sol\":8235:8263  transactions[_transactionId] */\n      0x00\n        /* \"contracts/EnergyTradingEscrow.sol\":8248:8262  _transactionId */\n      dup7\n        /* \"contracts/EnergyTradingEscrow.sol\":8235:8263  transactions[_transactionId] */\n      dup2\n      mstore\n      0x20\n      add\n      swap1\n      dup2\n      mstore\n      0x20\n      add\n      0x00\n      keccak256\n        /* \"contracts/EnergyTradingEscrow.sol\":8235:8270  transactions[_transactionId].status */\n      0x07\n      add\n        /* \"contracts/EnergyTradingEscrow.sol\":8147:8281  TransactionCommitted(... */\n      mload(0x40)\n      tag_137\n      swap4\n      swap3\n      swap2\n      swap1\n      tag_138\n      jump\t// in\n    tag_137:\n      mload(0x40)\n      dup1\n      swap2\n      sub\n      swap1\n      log1\n        /* \"contracts/EnergyTradingEscrow.sol\":5965:8289  function commitTransaction(uint _transactionId, bool _accepted) public {... */\n    tag_94:\n      pop\n      pop\n      jump\t// out\n        /* \"contracts/EnergyTradingEscrow.sol\":9267:9400  function isUserRegistered(address _userAddress) public view returns (bool) {... */\n    tag_30:\n        /* \"contracts/EnergyTradingEscrow.sol\":9336:9340  bool */\n      0x00\n        /* \"contracts/EnergyTradingEscrow.sol\":9360:9365  users */\n      0x01\n        /* \"contracts/EnergyTradingEscrow.sol\":9360:9379  users[_userAddress] */\n      0x00\n        /* \"contracts/EnergyTradingEscrow.sol\":9366:9378  _userAddress */\n      dup4\n        /* \"contracts/EnergyTradingEscrow.sol\":9360:9379  users[_userAddress] */\n      0xffffffffffffffffffffffffffffffffffffffff\n      and\n      0xffffffffffffffffffffffffffffffffffffffff\n      and\n      dup2\n      mstore\n      0x20\n      add\n      swap1\n      dup2\n      mstore\n      0x20\n      add\n      0x00\n      keccak256\n        /* \"contracts/EnergyTradingEscrow.sol\":9360:9392  users[_userAddress].isRegistered */\n      0x05\n      add\n      0x00\n      swap1\n      sload\n      swap1\n      0x0100\n      exp\n      swap1\n      div\n      0xff\n      and\n        /* \"contracts/EnergyTradingEscrow.sol\":9353:9392  return users[_userAddress].isRegistered */\n      swap1\n      pop\n        /* \"contracts/EnergyTradingEscrow.sol\":9267:9400  function isUserRegistered(address _userAddress) public view returns (bool) {... */\n      swap2\n      swap1\n      pop\n      jump\t// out\n        /* \"contracts/EnergyTradingEscrow.sol\":1980:2743  function registerUser(... */\n    tag_36:\n        /* \"contracts/EnergyTradingEscrow.sol\":1893:1898  users */\n      0x01\n        /* \"contracts/EnergyTradingEscrow.sol\":1893:1910  users[msg.sender] */\n      0x00\n        /* \"contracts/EnergyTradingEscrow.sol\":1899:1909  msg.sender */\n      caller\n        /* \"contracts/EnergyTradingEscrow.sol\":1893:1910  users[msg.sender] */\n      0xffffffffffffffffffffffffffffffffffffffff\n      and\n      0xffffffffffffffffffffffffffffffffffffffff\n      and\n      dup2\n      mstore\n      0x20\n      add\n      swap1\n      dup2\n      mstore\n      0x20\n      add\n      0x00\n      keccak256\n        /* \"contracts/EnergyTradingEscrow.sol\":1893:1923  users[msg.sender].isRegistered */\n      0x05\n      add\n      0x00\n      swap1\n      sload\n      swap1\n      0x0100\n      exp\n      swap1\n      div\n      0xff\n      and\n        /* \"contracts/EnergyTradingEscrow.sol\":1892:1923  !users[msg.sender].isRegistered */\n      iszero\n        /* \"contracts/EnergyTradingEscrow.sol\":1884:1952  require(!users[msg.sender].isRegistered, \"User already registered.\") */\n      tag_141\n      jumpi\n      mload(0x40)\n      0x08c379a000000000000000000000000000000000000000000000000000000000\n      dup2\n      mstore\n      0x04\n      add\n      tag_142\n      swap1\n      tag_143\n      jump\t// in\n    tag_142:\n      mload(0x40)\n      dup1\n      swap2\n      sub\n      swap1\n      revert\n    tag_141:\n        /* \"contracts/EnergyTradingEscrow.sol\":2196:2220  UserInfo storage newUser */\n      0x00\n        /* \"contracts/EnergyTradingEscrow.sol\":2223:2228  users */\n      0x01\n        /* \"contracts/EnergyTradingEscrow.sol\":2223:2240  users[msg.sender] */\n      0x00\n        /* \"contracts/EnergyTradingEscrow.sol\":2229:2239  msg.sender */\n      caller\n        /* \"contracts/EnergyTradingEscrow.sol\":2223:2240  users[msg.sender] */\n      0xffffffffffffffffffffffffffffffffffffffff\n      and\n      0xffffffffffffffffffffffffffffffffffffffff\n      and\n      dup2\n      mstore\n      0x20\n      add\n      swap1\n      dup2\n      mstore\n      0x20\n      add\n      0x00\n      keccak256\n        /* \"contracts/EnergyTradingEscrow.sol\":2196:2240  UserInfo storage newUser = users[msg.sender] */\n      swap1\n      pop\n        /* \"contracts/EnergyTradingEscrow.sol\":2270:2279  _username */\n      dup6\n        /* \"contracts/EnergyTradingEscrow.sol\":2251:2258  newUser */\n      dup2\n        /* \"contracts/EnergyTradingEscrow.sol\":2251:2267  newUser.username */\n      0x00\n      add\n        /* \"contracts/EnergyTradingEscrow.sol\":2251:2279  newUser.username = _username */\n      swap1\n      dup2\n      tag_145\n      swap2\n      swap1\n      tag_104\n      jump\t// in\n    tag_145:\n      pop\n        /* \"contracts/EnergyTradingEscrow.sol\":2309:2318  _latitude */\n      dup5\n        /* \"contracts/EnergyTradingEscrow.sol\":2290:2297  newUser */\n      dup2\n        /* \"contracts/EnergyTradingEscrow.sol\":2290:2306  newUser.latitude */\n      0x01\n      add\n        /* \"contracts/EnergyTradingEscrow.sol\":2290:2318  newUser.latitude = _latitude */\n      dup2\n      swap1\n      sstore\n      pop\n        /* \"contracts/EnergyTradingEscrow.sol\":2349:2359  _longitude */\n      dup4\n        /* \"contracts/EnergyTradingEscrow.sol\":2329:2336  newUser */\n      dup2\n        /* \"contracts/EnergyTradingEscrow.sol\":2329:2346  newUser.longitude */\n      0x02\n      add\n        /* \"contracts/EnergyTradingEscrow.sol\":2329:2359  newUser.longitude = _longitude */\n      dup2\n      swap1\n      sstore\n      pop\n        /* \"contracts/EnergyTradingEscrow.sol\":2394:2408  _energyBalance */\n      dup3\n        /* \"contracts/EnergyTradingEscrow.sol\":2370:2377  newUser */\n      dup2\n        /* \"contracts/EnergyTradingEscrow.sol\":2370:2391  newUser.energyBalance */\n      0x03\n      add\n        /* \"contracts/EnergyTradingEscrow.sol\":2370:2408  newUser.energyBalance = _energyBalance */\n      dup2\n      swap1\n      sstore\n      pop\n        /* \"contracts/EnergyTradingEscrow.sol\":2443:2457  _tokensBalance */\n      dup2\n        /* \"contracts/EnergyTradingEscrow.sol\":2419:2426  newUser */\n      dup2\n        /* \"contracts/EnergyTradingEscrow.sol\":2419:2440  newUser.tokensBalance */\n      0x04\n      add\n        /* \"contracts/EnergyTradingEscrow.sol\":2419:2457  newUser.tokensBalance = _tokensBalance */\n      dup2\n      swap1\n      sstore\n      pop\n        /* \"contracts/EnergyTradingEscrow.sol\":2491:2495  true */\n      0x01\n        /* \"contracts/EnergyTradingEscrow.sol\":2468:2475  newUser */\n      dup2\n        /* \"contracts/EnergyTradingEscrow.sol\":2468:2488  newUser.isRegistered */\n      0x05\n      add\n      0x00\n        /* \"contracts/EnergyTradingEscrow.sol\":2468:2495  newUser.isRegistered = true */\n      0x0100\n      exp\n      dup2\n      sload\n      dup2\n      0xff\n      mul\n      not\n      and\n      swap1\n      dup4\n      iszero\n      iszero\n      mul\n      or\n      swap1\n      sstore\n      pop\n        /* \"contracts/EnergyTradingEscrow.sol\":2508:2521  userAddresses */\n      0x00\n        /* \"contracts/EnergyTradingEscrow.sol\":2527:2537  msg.sender */\n      caller\n        /* \"contracts/EnergyTradingEscrow.sol\":2508:2538  userAddresses.push(msg.sender) */\n      swap1\n      dup1\n      0x01\n      dup2\n      sload\n      add\n      dup1\n      dup3\n      sstore\n      dup1\n      swap2\n      pop\n      pop\n      0x01\n      swap1\n      sub\n      swap1\n      0x00\n      mstore\n      keccak256(0x00, 0x20)\n      add\n      0x00\n      swap1\n      swap2\n      swap1\n      swap2\n      swap1\n      swap2\n      0x0100\n      exp\n      dup2\n      sload\n      dup2\n      0xffffffffffffffffffffffffffffffffffffffff\n      mul\n      not\n      and\n      swap1\n      dup4\n      0xffffffffffffffffffffffffffffffffffffffff\n      and\n      mul\n      or\n      swap1\n      sstore\n      pop\n        /* \"contracts/EnergyTradingEscrow.sol\":2583:2593  msg.sender */\n      caller\n        /* \"contracts/EnergyTradingEscrow.sol\":2554:2735  UserRegistered(... */\n      0xffffffffffffffffffffffffffffffffffffffff\n      and\n      0xa96c6e1d7341a1c22b8e45bf7b44369c06e82e7c6be9b784c233b125ec57d965\n        /* \"contracts/EnergyTradingEscrow.sol\":2608:2617  _username */\n      dup8\n        /* \"contracts/EnergyTradingEscrow.sol\":2632:2641  _latitude */\n      dup8\n        /* \"contracts/EnergyTradingEscrow.sol\":2656:2666  _longitude */\n      dup8\n        /* \"contracts/EnergyTradingEscrow.sol\":2681:2695  _energyBalance */\n      dup8\n        /* \"contracts/EnergyTradingEscrow.sol\":2710:2724  _tokensBalance */\n      dup8\n        /* \"contracts/EnergyTradingEscrow.sol\":2554:2735  UserRegistered(... */\n      mload(0x40)\n      tag_147\n      swap6\n      swap5\n      swap4\n      swap3\n      swap2\n      swap1\n      tag_148\n      jump\t// in\n    tag_147:\n      mload(0x40)\n      dup1\n      swap2\n      sub\n      swap1\n      log2\n        /* \"contracts/EnergyTradingEscrow.sol\":2185:2743  {... */\n      pop\n        /* \"contracts/EnergyTradingEscrow.sol\":1980:2743  function registerUser(... */\n      pop\n      pop\n      pop\n      pop\n      pop\n      jump\t// out\n        /* \"contracts/EnergyTradingEscrow.sol\":2751:3473  function updateUser(... */\n    tag_39:\n        /* \"contracts/EnergyTradingEscrow.sol\":2959:2964  users */\n      0x01\n        /* \"contracts/EnergyTradingEscrow.sol\":2959:2976  users[msg.sender] */\n      0x00\n        /* \"contracts/EnergyTradingEscrow.sol\":2965:2975  msg.sender */\n      caller\n        /* \"contracts/EnergyTradingEscrow.sol\":2959:2976  users[msg.sender] */\n      0xffffffffffffffffffffffffffffffffffffffff\n      and\n      0xffffffffffffffffffffffffffffffffffffffff\n      and\n      dup2\n      mstore\n      0x20\n      add\n      swap1\n      dup2\n      mstore\n      0x20\n      add\n      0x00\n      keccak256\n        /* \"contracts/EnergyTradingEscrow.sol\":2959:2989  users[msg.sender].isRegistered */\n      0x05\n      add\n      0x00\n      swap1\n      sload\n      swap1\n      0x0100\n      exp\n      swap1\n      div\n      0xff\n      and\n        /* \"contracts/EnergyTradingEscrow.sol\":2951:3017  require(users[msg.sender].isRegistered, \"User is not registered.\") */\n      tag_150\n      jumpi\n      mload(0x40)\n      0x08c379a000000000000000000000000000000000000000000000000000000000\n      dup2\n      mstore\n      0x04\n      add\n      tag_151\n      swap1\n      tag_152\n      jump\t// in\n    tag_151:\n      mload(0x40)\n      dup1\n      swap2\n      sub\n      swap1\n      revert\n    tag_150:\n        /* \"contracts/EnergyTradingEscrow.sol\":3028:3049  UserInfo storage user */\n      0x00\n        /* \"contracts/EnergyTradingEscrow.sol\":3052:3057  users */\n      0x01\n        /* \"contracts/EnergyTradingEscrow.sol\":3052:3069  users[msg.sender] */\n      0x00\n        /* \"contracts/EnergyTradingEscrow.sol\":3058:3068  msg.sender */\n      caller\n        /* \"contracts/EnergyTradingEscrow.sol\":3052:3069  users[msg.sender] */\n      0xffffffffffffffffffffffffffffffffffffffff\n      and\n      0xffffffffffffffffffffffffffffffffffffffff\n      and\n      dup2\n      mstore\n      0x20\n      add\n      swap1\n      dup2\n      mstore\n      0x20\n      add\n      0x00\n      keccak256\n        /* \"contracts/EnergyTradingEscrow.sol\":3028:3069  UserInfo storage user = users[msg.sender] */\n      swap1\n      pop\n        /* \"contracts/EnergyTradingEscrow.sol\":3096:3105  _username */\n      dup6\n        /* \"contracts/EnergyTradingEscrow.sol\":3080:3084  user */\n      dup2\n        /* \"contracts/EnergyTradingEscrow.sol\":3080:3093  user.username */\n      0x00\n      add\n        /* \"contracts/EnergyTradingEscrow.sol\":3080:3105  user.username = _username */\n      swap1\n      dup2\n      tag_153\n      swap2\n      swap1\n      tag_104\n      jump\t// in\n    tag_153:\n      pop\n        /* \"contracts/EnergyTradingEscrow.sol\":3132:3141  _latitude */\n      dup5\n        /* \"contracts/EnergyTradingEscrow.sol\":3116:3120  user */\n      dup2\n        /* \"contracts/EnergyTradingEscrow.sol\":3116:3129  user.latitude */\n      0x01\n      add\n        /* \"contracts/EnergyTradingEscrow.sol\":3116:3141  user.latitude = _latitude */\n      dup2\n      swap1\n      sstore\n      pop\n        /* \"contracts/EnergyTradingEscrow.sol\":3169:3179  _longitude */\n      dup4\n        /* \"contracts/EnergyTradingEscrow.sol\":3152:3156  user */\n      dup2\n        /* \"contracts/EnergyTradingEscrow.sol\":3152:3166  user.longitude */\n      0x02\n      add\n        /* \"contracts/EnergyTradingEscrow.sol\":3152:3179  user.longitude = _longitude */\n      dup2\n      swap1\n      sstore\n      pop\n        /* \"contracts/EnergyTradingEscrow.sol\":3211:3225  _energyBalance */\n      dup3\n        /* \"contracts/EnergyTradingEscrow.sol\":3190:3194  user */\n      dup2\n        /* \"contracts/EnergyTradingEscrow.sol\":3190:3208  user.energyBalance */\n      0x03\n      add\n        /* \"contracts/EnergyTradingEscrow.sol\":3190:3225  user.energyBalance = _energyBalance */\n      dup2\n      swap1\n      sstore\n      pop\n        /* \"contracts/EnergyTradingEscrow.sol\":3257:3271  _tokensBalance */\n      dup2\n        /* \"contracts/EnergyTradingEscrow.sol\":3236:3240  user */\n      dup2\n        /* \"contracts/EnergyTradingEscrow.sol\":3236:3254  user.tokensBalance */\n      0x04\n      add\n        /* \"contracts/EnergyTradingEscrow.sol\":3236:3271  user.tokensBalance = _tokensBalance */\n      dup2\n      swap1\n      sstore\n      pop\n        /* \"contracts/EnergyTradingEscrow.sol\":3313:3323  msg.sender */\n      caller\n        /* \"contracts/EnergyTradingEscrow.sol\":3287:3465  UserUpdated(... */\n      0xffffffffffffffffffffffffffffffffffffffff\n      and\n      0x18f5dfadc27470bf794c1463063c79a0bdd01ca6e7e3d25bd9c764dc07056ef7\n        /* \"contracts/EnergyTradingEscrow.sol\":3338:3347  _username */\n      dup8\n        /* \"contracts/EnergyTradingEscrow.sol\":3362:3371  _latitude */\n      dup8\n        /* \"contracts/EnergyTradingEscrow.sol\":3386:3396  _longitude */\n      dup8\n        /* \"contracts/EnergyTradingEscrow.sol\":3411:3425  _energyBalance */\n      dup8\n        /* \"contracts/EnergyTradingEscrow.sol\":3440:3454  _tokensBalance */\n      dup8\n        /* \"contracts/EnergyTradingEscrow.sol\":3287:3465  UserUpdated(... */\n      mload(0x40)\n      tag_154\n      swap6\n      swap5\n      swap4\n      swap3\n      swap2\n      swap1\n      tag_148\n      jump\t// in\n    tag_154:\n      mload(0x40)\n      dup1\n      swap2\n      sub\n      swap1\n      log2\n        /* \"contracts/EnergyTradingEscrow.sol\":2940:3473  {... */\n      pop\n        /* \"contracts/EnergyTradingEscrow.sol\":2751:3473  function updateUser(... */\n      pop\n      pop\n      pop\n      pop\n      pop\n      jump\t// out\n        /* \"contracts/EnergyTradingEscrow.sol\":4124:5957  function initiateTransaction(... */\n    tag_43:\n        /* \"contracts/EnergyTradingEscrow.sol\":4349:4354  users */\n      0x01\n        /* \"contracts/EnergyTradingEscrow.sol\":4349:4363  users[_sender] */\n      0x00\n        /* \"contracts/EnergyTradingEscrow.sol\":4355:4362  _sender */\n      dup8\n        /* \"contracts/EnergyTradingEscrow.sol\":4349:4363  users[_sender] */\n      0xffffffffffffffffffffffffffffffffffffffff\n      and\n      0xffffffffffffffffffffffffffffffffffffffff\n      and\n      dup2\n      mstore\n      0x20\n      add\n      swap1\n      dup2\n      mstore\n      0x20\n      add\n      0x00\n      keccak256\n        /* \"contracts/EnergyTradingEscrow.sol\":4349:4376  users[_sender].isRegistered */\n      0x05\n      add\n      0x00\n      swap1\n      sload\n      swap1\n      0x0100\n      exp\n      swap1\n      div\n      0xff\n      and\n        /* \"contracts/EnergyTradingEscrow.sol\":4341:4409  require(users[_sender].isRegistered, \"Initiator is not registered.\") */\n      tag_156\n      jumpi\n      mload(0x40)\n      0x08c379a000000000000000000000000000000000000000000000000000000000\n      dup2\n      mstore\n      0x04\n      add\n      tag_157\n      swap1\n      tag_158\n      jump\t// in\n    tag_157:\n      mload(0x40)\n      dup1\n      swap2\n      sub\n      swap1\n      revert\n    tag_156:\n        /* \"contracts/EnergyTradingEscrow.sol\":4428:4433  users */\n      0x01\n        /* \"contracts/EnergyTradingEscrow.sol\":4428:4443  users[receiver] */\n      0x00\n        /* \"contracts/EnergyTradingEscrow.sol\":4434:4442  receiver */\n      dup7\n        /* \"contracts/EnergyTradingEscrow.sol\":4428:4443  users[receiver] */\n      0xffffffffffffffffffffffffffffffffffffffff\n      and\n      0xffffffffffffffffffffffffffffffffffffffff\n      and\n      dup2\n      mstore\n      0x20\n      add\n      swap1\n      dup2\n      mstore\n      0x20\n      add\n      0x00\n      keccak256\n        /* \"contracts/EnergyTradingEscrow.sol\":4428:4456  users[receiver].isRegistered */\n      0x05\n      add\n      0x00\n      swap1\n      sload\n      swap1\n      0x0100\n      exp\n      swap1\n      div\n      0xff\n      and\n        /* \"contracts/EnergyTradingEscrow.sol\":4420:4488  require(users[receiver].isRegistered, \"Receiver is not registered.\") */\n      tag_159\n      jumpi\n      mload(0x40)\n      0x08c379a000000000000000000000000000000000000000000000000000000000\n      dup2\n      mstore\n      0x04\n      add\n      tag_160\n      swap1\n      tag_161\n      jump\t// in\n    tag_160:\n      mload(0x40)\n      dup1\n      swap2\n      sub\n      swap1\n      revert\n    tag_159:\n        /* \"contracts/EnergyTradingEscrow.sol\":4535:4550  block.timestamp */\n      timestamp\n        /* \"contracts/EnergyTradingEscrow.sol\":4521:4532  _validUntil */\n      dup3\n        /* \"contracts/EnergyTradingEscrow.sol\":4521:4550  _validUntil > block.timestamp */\n      gt\n        /* \"contracts/EnergyTradingEscrow.sol\":4499:4623  require(... */\n      tag_162\n      jumpi\n      mload(0x40)\n      0x08c379a000000000000000000000000000000000000000000000000000000000\n      dup2\n      mstore\n      0x04\n      add\n      tag_163\n      swap1\n      tag_164\n      jump\t// in\n    tag_163:\n      mload(0x40)\n      dup1\n      swap2\n      sub\n      swap1\n      revert\n    tag_162:\n        /* \"contracts/EnergyTradingEscrow.sol\":4640:4656  isBuyTransaction */\n      dup1\n        /* \"contracts/EnergyTradingEscrow.sol\":4636:5342  if (isBuyTransaction) {... */\n      iszero\n      tag_165\n      jumpi\n        /* \"contracts/EnergyTradingEscrow.sol\":4731:4737  _price */\n      dup3\n        /* \"contracts/EnergyTradingEscrow.sol\":4699:4704  users */\n      0x01\n        /* \"contracts/EnergyTradingEscrow.sol\":4699:4713  users[_sender] */\n      0x00\n        /* \"contracts/EnergyTradingEscrow.sol\":4705:4712  _sender */\n      dup9\n        /* \"contracts/EnergyTradingEscrow.sol\":4699:4713  users[_sender] */\n      0xffffffffffffffffffffffffffffffffffffffff\n      and\n      0xffffffffffffffffffffffffffffffffffffffff\n      and\n      dup2\n      mstore\n      0x20\n      add\n      swap1\n      dup2\n      mstore\n      0x20\n      add\n      0x00\n      keccak256\n        /* \"contracts/EnergyTradingEscrow.sol\":4699:4727  users[_sender].tokensBalance */\n      0x04\n      add\n      sload\n        /* \"contracts/EnergyTradingEscrow.sol\":4699:4737  users[_sender].tokensBalance >= _price */\n      lt\n      iszero\n        /* \"contracts/EnergyTradingEscrow.sol\":4673:4820  require(... */\n      tag_166\n      jumpi\n      mload(0x40)\n      0x08c379a000000000000000000000000000000000000000000000000000000000\n      dup2\n      mstore\n      0x04\n      add\n      tag_167\n      swap1\n      tag_168\n      jump\t// in\n    tag_167:\n      mload(0x40)\n      dup1\n      swap2\n      sub\n      swap1\n      revert\n    tag_166:\n        /* \"contracts/EnergyTradingEscrow.sol\":4894:4907  _energyAmount */\n      dup4\n        /* \"contracts/EnergyTradingEscrow.sol\":4861:4866  users */\n      0x01\n        /* \"contracts/EnergyTradingEscrow.sol\":4861:4876  users[receiver] */\n      0x00\n        /* \"contracts/EnergyTradingEscrow.sol\":4867:4875  receiver */\n      dup8\n        /* \"contracts/EnergyTradingEscrow.sol\":4861:4876  users[receiver] */\n      0xffffffffffffffffffffffffffffffffffffffff\n      and\n      0xffffffffffffffffffffffffffffffffffffffff\n      and\n      dup2\n      mstore\n      0x20\n      add\n      swap1\n      dup2\n      mstore\n      0x20\n      add\n      0x00\n      keccak256\n        /* \"contracts/EnergyTradingEscrow.sol\":4861:4890  users[receiver].energyBalance */\n      0x03\n      add\n      sload\n        /* \"contracts/EnergyTradingEscrow.sol\":4861:4907  users[receiver].energyBalance >= _energyAmount */\n      lt\n      iszero\n        /* \"contracts/EnergyTradingEscrow.sol\":4835:4980  require(... */\n      tag_169\n      jumpi\n      mload(0x40)\n      0x08c379a000000000000000000000000000000000000000000000000000000000\n      dup2\n      mstore\n      0x04\n      add\n      tag_170\n      swap1\n      tag_171\n      jump\t// in\n    tag_170:\n      mload(0x40)\n      dup1\n      swap2\n      sub\n      swap1\n      revert\n    tag_169:\n        /* \"contracts/EnergyTradingEscrow.sol\":4636:5342  if (isBuyTransaction) {... */\n      jump(tag_172)\n    tag_165:\n        /* \"contracts/EnergyTradingEscrow.sol\":5071:5084  _energyAmount */\n      dup4\n        /* \"contracts/EnergyTradingEscrow.sol\":5039:5044  users */\n      0x01\n        /* \"contracts/EnergyTradingEscrow.sol\":5039:5053  users[_sender] */\n      0x00\n        /* \"contracts/EnergyTradingEscrow.sol\":5045:5052  _sender */\n      dup9\n        /* \"contracts/EnergyTradingEscrow.sol\":5039:5053  users[_sender] */\n      0xffffffffffffffffffffffffffffffffffffffff\n      and\n      0xffffffffffffffffffffffffffffffffffffffff\n      and\n      dup2\n      mstore\n      0x20\n      add\n      swap1\n      dup2\n      mstore\n      0x20\n      add\n      0x00\n      keccak256\n        /* \"contracts/EnergyTradingEscrow.sol\":5039:5067  users[_sender].energyBalance */\n      0x03\n      add\n      sload\n        /* \"contracts/EnergyTradingEscrow.sol\":5039:5084  users[_sender].energyBalance >= _energyAmount */\n      lt\n      iszero\n        /* \"contracts/EnergyTradingEscrow.sol\":5013:5167  require(... */\n      tag_173\n      jumpi\n      mload(0x40)\n      0x08c379a000000000000000000000000000000000000000000000000000000000\n      dup2\n      mstore\n      0x04\n      add\n      tag_174\n      swap1\n      tag_175\n      jump\t// in\n    tag_174:\n      mload(0x40)\n      dup1\n      swap2\n      sub\n      swap1\n      revert\n    tag_173:\n        /* \"contracts/EnergyTradingEscrow.sol\":5241:5247  _price */\n      dup3\n        /* \"contracts/EnergyTradingEscrow.sol\":5208:5213  users */\n      0x01\n        /* \"contracts/EnergyTradingEscrow.sol\":5208:5223  users[receiver] */\n      0x00\n        /* \"contracts/EnergyTradingEscrow.sol\":5214:5222  receiver */\n      dup8\n        /* \"contracts/EnergyTradingEscrow.sol\":5208:5223  users[receiver] */\n      0xffffffffffffffffffffffffffffffffffffffff\n      and\n      0xffffffffffffffffffffffffffffffffffffffff\n      and\n      dup2\n      mstore\n      0x20\n      add\n      swap1\n      dup2\n      mstore\n      0x20\n      add\n      0x00\n      keccak256\n        /* \"contracts/EnergyTradingEscrow.sol\":5208:5237  users[receiver].tokensBalance */\n      0x04\n      add\n      sload\n        /* \"contracts/EnergyTradingEscrow.sol\":5208:5247  users[receiver].tokensBalance >= _price */\n      lt\n      iszero\n        /* \"contracts/EnergyTradingEscrow.sol\":5182:5330  require(... */\n      tag_176\n      jumpi\n      mload(0x40)\n      0x08c379a000000000000000000000000000000000000000000000000000000000\n      dup2\n      mstore\n      0x04\n      add\n      tag_177\n      swap1\n      tag_178\n      jump\t// in\n    tag_177:\n      mload(0x40)\n      dup1\n      swap2\n      sub\n      swap1\n      revert\n    tag_176:\n        /* \"contracts/EnergyTradingEscrow.sol\":4636:5342  if (isBuyTransaction) {... */\n    tag_172:\n        /* \"contracts/EnergyTradingEscrow.sol\":5354:5372  uint transactionId */\n      0x00\n        /* \"contracts/EnergyTradingEscrow.sol\":5375:5392  nextTransactionId */\n      0x03\n      0x00\n        /* \"contracts/EnergyTradingEscrow.sol\":5375:5394  nextTransactionId++ */\n      dup2\n      sload\n      dup1\n      swap3\n      swap2\n      swap1\n      tag_179\n      swap1\n      tag_180\n      jump\t// in\n    tag_179:\n      swap2\n      swap1\n      pop\n      sstore\n        /* \"contracts/EnergyTradingEscrow.sol\":5354:5394  uint transactionId = nextTransactionId++ */\n      swap1\n      pop\n        /* \"contracts/EnergyTradingEscrow.sol\":5435:5725  Transaction(... */\n      mload(0x40)\n      dup1\n      0x0120\n      add\n      0x40\n      mstore\n      dup1\n        /* \"contracts/EnergyTradingEscrow.sol\":5461:5474  transactionId */\n      dup3\n        /* \"contracts/EnergyTradingEscrow.sol\":5435:5725  Transaction(... */\n      dup2\n      mstore\n      0x20\n      add\n        /* \"contracts/EnergyTradingEscrow.sol\":5489:5496  _sender */\n      dup9\n        /* \"contracts/EnergyTradingEscrow.sol\":5435:5725  Transaction(... */\n      0xffffffffffffffffffffffffffffffffffffffff\n      and\n      dup2\n      mstore\n      0x20\n      add\n        /* \"contracts/EnergyTradingEscrow.sol\":5511:5519  receiver */\n      dup8\n        /* \"contracts/EnergyTradingEscrow.sol\":5435:5725  Transaction(... */\n      0xffffffffffffffffffffffffffffffffffffffff\n      and\n      dup2\n      mstore\n      0x20\n      add\n        /* \"contracts/EnergyTradingEscrow.sol\":5534:5547  _energyAmount */\n      dup7\n        /* \"contracts/EnergyTradingEscrow.sol\":5435:5725  Transaction(... */\n      dup2\n      mstore\n      0x20\n      add\n        /* \"contracts/EnergyTradingEscrow.sol\":5562:5568  _price */\n      dup6\n        /* \"contracts/EnergyTradingEscrow.sol\":5435:5725  Transaction(... */\n      dup2\n      mstore\n      0x20\n      add\n        /* \"contracts/EnergyTradingEscrow.sol\":5583:5594  _validUntil */\n      dup5\n        /* \"contracts/EnergyTradingEscrow.sol\":5435:5725  Transaction(... */\n      dup2\n      mstore\n      0x20\n      add\n        /* \"contracts/EnergyTradingEscrow.sol\":5609:5614  false */\n      0x00\n        /* \"contracts/EnergyTradingEscrow.sol\":5435:5725  Transaction(... */\n      iszero\n      iszero\n      dup2\n      mstore\n      0x20\n      add\n      mload(0x40)\n      dup1\n      0x40\n      add\n      0x40\n      mstore\n      dup1\n      0x07\n      dup2\n      mstore\n      0x20\n      add\n      0x50656e64696e6700000000000000000000000000000000000000000000000000\n      dup2\n      mstore\n      pop\n      dup2\n      mstore\n      0x20\n      add\n        /* \"contracts/EnergyTradingEscrow.sol\":5653:5669  isBuyTransaction */\n      dup4\n        /* \"contracts/EnergyTradingEscrow.sol\":5653:5714  isBuyTransaction ? TransactionType.Buy : TransactionType.Sell */\n      tag_181\n      jumpi\n        /* \"contracts/EnergyTradingEscrow.sol\":5694:5714  TransactionType.Sell */\n      0x01\n        /* \"contracts/EnergyTradingEscrow.sol\":5653:5714  isBuyTransaction ? TransactionType.Buy : TransactionType.Sell */\n      jump(tag_182)\n    tag_181:\n        /* \"contracts/EnergyTradingEscrow.sol\":5672:5691  TransactionType.Buy */\n      0x00\n        /* \"contracts/EnergyTradingEscrow.sol\":5653:5714  isBuyTransaction ? TransactionType.Buy : TransactionType.Sell */\n    tag_182:\n        /* \"contracts/EnergyTradingEscrow.sol\":5435:5725  Transaction(... */\n      0x01\n      dup2\n      gt\n      iszero\n      tag_183\n      jumpi\n      tag_184\n      tag_117\n      jump\t// in\n    tag_184:\n    tag_183:\n      dup2\n      mstore\n      pop\n        /* \"contracts/EnergyTradingEscrow.sol\":5405:5417  transactions */\n      0x04\n        /* \"contracts/EnergyTradingEscrow.sol\":5405:5432  transactions[transactionId] */\n      0x00\n        /* \"contracts/EnergyTradingEscrow.sol\":5418:5431  transactionId */\n      dup4\n        /* \"contracts/EnergyTradingEscrow.sol\":5405:5432  transactions[transactionId] */\n      dup2\n      mstore\n      0x20\n      add\n      swap1\n      dup2\n      mstore\n      0x20\n      add\n      0x00\n      keccak256\n        /* \"contracts/EnergyTradingEscrow.sol\":5405:5725  transactions[transactionId] = Transaction(... */\n      0x00\n      dup3\n      add\n      mload\n      dup2\n      0x00\n      add\n      sstore\n      0x20\n      dup3\n      add\n      mload\n      dup2\n      0x01\n      add\n      exp(0x0100, 0x00)\n      dup2\n      sload\n      dup2\n      0xffffffffffffffffffffffffffffffffffffffff\n      mul\n      not\n      and\n      swap1\n      dup4\n      0xffffffffffffffffffffffffffffffffffffffff\n      and\n      mul\n      or\n      swap1\n      sstore\n      pop\n      0x40\n      dup3\n      add\n      mload\n      dup2\n      0x02\n      add\n      exp(0x0100, 0x00)\n      dup2\n      sload\n      dup2\n      0xffffffffffffffffffffffffffffffffffffffff\n      mul\n      not\n      and\n      swap1\n      dup4\n      0xffffffffffffffffffffffffffffffffffffffff\n      and\n      mul\n      or\n      swap1\n      sstore\n      pop\n      0x60\n      dup3\n      add\n      mload\n      dup2\n      0x03\n      add\n      sstore\n      0x80\n      dup3\n      add\n      mload\n      dup2\n      0x04\n      add\n      sstore\n      0xa0\n      dup3\n      add\n      mload\n      dup2\n      0x05\n      add\n      sstore\n      0xc0\n      dup3\n      add\n      mload\n      dup2\n      0x06\n      add\n      exp(0x0100, 0x00)\n      dup2\n      sload\n      dup2\n      0xff\n      mul\n      not\n      and\n      swap1\n      dup4\n      iszero\n      iszero\n      mul\n      or\n      swap1\n      sstore\n      pop\n      0xe0\n      dup3\n      add\n      mload\n      dup2\n      0x07\n      add\n      swap1\n      dup2\n      tag_185\n      swap2\n      swap1\n      tag_104\n      jump\t// in\n    tag_185:\n      pop\n      0x0100\n      dup3\n      add\n      mload\n      dup2\n      0x08\n      add\n      exp(0x0100, 0x00)\n      dup2\n      sload\n      dup2\n      0xff\n      mul\n      not\n      and\n      swap1\n      dup4\n      0x01\n      dup2\n      gt\n      iszero\n      tag_186\n      jumpi\n      tag_187\n      tag_117\n      jump\t// in\n    tag_187:\n    tag_186:\n      mul\n      or\n      swap1\n      sstore\n      pop\n      swap1\n      pop\n      pop\n        /* \"contracts/EnergyTradingEscrow.sol\":5736:5755  pendingTransactions */\n      0x05\n        /* \"contracts/EnergyTradingEscrow.sol\":5761:5774  transactionId */\n      dup2\n        /* \"contracts/EnergyTradingEscrow.sol\":5736:5775  pendingTransactions.push(transactionId) */\n      swap1\n      dup1\n      0x01\n      dup2\n      sload\n      add\n      dup1\n      dup3\n      sstore\n      dup1\n      swap2\n      pop\n      pop\n      0x01\n      swap1\n      sub\n      swap1\n      0x00\n      mstore\n      keccak256(0x00, 0x20)\n      add\n      0x00\n      swap1\n      swap2\n      swap1\n      swap2\n      swap1\n      swap2\n      pop\n      sstore\n        /* \"contracts/EnergyTradingEscrow.sol\":5791:5949  TransactionInitiated(... */\n      0x6f2fac3f769ed900eb9891a73caa7b5267ce788a20299805ce4b85934cb200f5\n        /* \"contracts/EnergyTradingEscrow.sol\":5826:5839  transactionId */\n      dup2\n        /* \"contracts/EnergyTradingEscrow.sol\":5854:5862  receiver */\n      dup8\n        /* \"contracts/EnergyTradingEscrow.sol\":5877:5893  isBuyTransaction */\n      dup5\n        /* \"contracts/EnergyTradingEscrow.sol\":5877:5938  isBuyTransaction ? TransactionType.Buy : TransactionType.Sell */\n      tag_189\n      jumpi\n        /* \"contracts/EnergyTradingEscrow.sol\":5918:5938  TransactionType.Sell */\n      0x01\n        /* \"contracts/EnergyTradingEscrow.sol\":5877:5938  isBuyTransaction ? TransactionType.Buy : TransactionType.Sell */\n      jump(tag_190)\n    tag_189:\n        /* \"contracts/EnergyTradingEscrow.sol\":5896:5915  TransactionType.Buy */\n      0x00\n        /* \"contracts/EnergyTradingEscrow.sol\":5877:5938  isBuyTransaction ? TransactionType.Buy : TransactionType.Sell */\n    tag_190:\n        /* \"contracts/EnergyTradingEscrow.sol\":5791:5949  TransactionInitiated(... */\n      mload(0x40)\n      tag_191\n      swap4\n      swap3\n      swap2\n      swap1\n      tag_192\n      jump\t// in\n    tag_191:\n      mload(0x40)\n      dup1\n      swap2\n      sub\n      swap1\n      log1\n        /* \"contracts/EnergyTradingEscrow.sol\":4330:5957  {... */\n      pop\n        /* \"contracts/EnergyTradingEscrow.sol\":4124:5957  function initiateTransaction(... */\n      pop\n      pop\n      pop\n      pop\n      pop\n      pop\n      jump\t// out\n        /* \"contracts/EnergyTradingEscrow.sol\":3481:4116  function deleteUser(address _userAddress) public onlyAdmin {... */\n    tag_46:\n        /* \"contracts/EnergyTradingEscrow.sol\":1785:1790  admin */\n      0x02\n      0x00\n      swap1\n      sload\n      swap1\n      0x0100\n      exp\n      swap1\n      div\n      0xffffffffffffffffffffffffffffffffffffffff\n      and\n        /* \"contracts/EnergyTradingEscrow.sol\":1771:1790  msg.sender == admin */\n      0xffffffffffffffffffffffffffffffffffffffff\n      and\n        /* \"contracts/EnergyTradingEscrow.sol\":1771:1781  msg.sender */\n      caller\n        /* \"contracts/EnergyTradingEscrow.sol\":1771:1790  msg.sender == admin */\n      0xffffffffffffffffffffffffffffffffffffffff\n      and\n      eq\n        /* \"contracts/EnergyTradingEscrow.sol\":1763:1820  require(msg.sender == admin, \"Only admin can call this.\") */\n      tag_194\n      jumpi\n      mload(0x40)\n      0x08c379a000000000000000000000000000000000000000000000000000000000\n      dup2\n      mstore\n      0x04\n      add\n      tag_195\n      swap1\n      tag_196\n      jump\t// in\n    tag_195:\n      mload(0x40)\n      dup1\n      swap2\n      sub\n      swap1\n      revert\n    tag_194:\n        /* \"contracts/EnergyTradingEscrow.sol\":3559:3564  users */\n      0x01\n        /* \"contracts/EnergyTradingEscrow.sol\":3559:3578  users[_userAddress] */\n      0x00\n        /* \"contracts/EnergyTradingEscrow.sol\":3565:3577  _userAddress */\n      dup3\n        /* \"contracts/EnergyTradingEscrow.sol\":3559:3578  users[_userAddress] */\n      0xffffffffffffffffffffffffffffffffffffffff\n      and\n      0xffffffffffffffffffffffffffffffffffffffff\n      and\n      dup2\n      mstore\n      0x20\n      add\n      swap1\n      dup2\n      mstore\n      0x20\n      add\n      0x00\n      keccak256\n        /* \"contracts/EnergyTradingEscrow.sol\":3559:3591  users[_userAddress].isRegistered */\n      0x05\n      add\n      0x00\n      swap1\n      sload\n      swap1\n      0x0100\n      exp\n      swap1\n      div\n      0xff\n      and\n        /* \"contracts/EnergyTradingEscrow.sol\":3551:3619  require(users[_userAddress].isRegistered, \"User is not registered.\") */\n      tag_198\n      jumpi\n      mload(0x40)\n      0x08c379a000000000000000000000000000000000000000000000000000000000\n      dup2\n      mstore\n      0x04\n      add\n      tag_199\n      swap1\n      tag_152\n      jump\t// in\n    tag_199:\n      mload(0x40)\n      dup1\n      swap2\n      sub\n      swap1\n      revert\n    tag_198:\n        /* \"contracts/EnergyTradingEscrow.sol\":3632:3648  bool isUserFound */\n      0x00\n        /* \"contracts/EnergyTradingEscrow.sol\":3672:3678  uint i */\n      dup1\n        /* \"contracts/EnergyTradingEscrow.sol\":3667:3971  for (uint i = 0; i < userAddresses.length; ++i) {... */\n    tag_200:\n        /* \"contracts/EnergyTradingEscrow.sol\":3688:3701  userAddresses */\n      0x00\n        /* \"contracts/EnergyTradingEscrow.sol\":3688:3708  userAddresses.length */\n      dup1\n      sload\n      swap1\n      pop\n        /* \"contracts/EnergyTradingEscrow.sol\":3684:3685  i */\n      dup2\n        /* \"contracts/EnergyTradingEscrow.sol\":3684:3708  i < userAddresses.length */\n      lt\n        /* \"contracts/EnergyTradingEscrow.sol\":3667:3971  for (uint i = 0; i < userAddresses.length; ++i) {... */\n      iszero\n      tag_201\n      jumpi\n        /* \"contracts/EnergyTradingEscrow.sol\":3754:3766  _userAddress */\n      dup3\n        /* \"contracts/EnergyTradingEscrow.sol\":3734:3766  userAddresses[i] == _userAddress */\n      0xffffffffffffffffffffffffffffffffffffffff\n      and\n        /* \"contracts/EnergyTradingEscrow.sol\":3734:3747  userAddresses */\n      0x00\n        /* \"contracts/EnergyTradingEscrow.sol\":3748:3749  i */\n      dup3\n        /* \"contracts/EnergyTradingEscrow.sol\":3734:3750  userAddresses[i] */\n      dup2\n      sload\n      dup2\n      lt\n      tag_203\n      jumpi\n      tag_204\n      tag_205\n      jump\t// in\n    tag_204:\n    tag_203:\n      swap1\n      0x00\n      mstore\n      keccak256(0x00, 0x20)\n      add\n      0x00\n      swap1\n      sload\n      swap1\n      0x0100\n      exp\n      swap1\n      div\n      0xffffffffffffffffffffffffffffffffffffffff\n      and\n        /* \"contracts/EnergyTradingEscrow.sol\":3734:3766  userAddresses[i] == _userAddress */\n      0xffffffffffffffffffffffffffffffffffffffff\n      and\n      sub\n        /* \"contracts/EnergyTradingEscrow.sol\":3730:3960  if (userAddresses[i] == _userAddress) {... */\n      tag_207\n      jumpi\n        /* \"contracts/EnergyTradingEscrow.sol\":3806:3819  userAddresses */\n      0x00\n        /* \"contracts/EnergyTradingEscrow.sol\":3843:3844  1 */\n      0x01\n        /* \"contracts/EnergyTradingEscrow.sol\":3820:3833  userAddresses */\n      0x00\n        /* \"contracts/EnergyTradingEscrow.sol\":3820:3840  userAddresses.length */\n      dup1\n      sload\n      swap1\n      pop\n        /* \"contracts/EnergyTradingEscrow.sol\":3820:3844  userAddresses.length - 1 */\n      tag_208\n      swap2\n      swap1\n      tag_122\n      jump\t// in\n    tag_208:\n        /* \"contracts/EnergyTradingEscrow.sol\":3806:3845  userAddresses[userAddresses.length - 1] */\n      dup2\n      sload\n      dup2\n      lt\n      tag_209\n      jumpi\n      tag_210\n      tag_205\n      jump\t// in\n    tag_210:\n    tag_209:\n      swap1\n      0x00\n      mstore\n      keccak256(0x00, 0x20)\n      add\n      0x00\n      swap1\n      sload\n      swap1\n      0x0100\n      exp\n      swap1\n      div\n      0xffffffffffffffffffffffffffffffffffffffff\n      and\n        /* \"contracts/EnergyTradingEscrow.sol\":3787:3800  userAddresses */\n      0x00\n        /* \"contracts/EnergyTradingEscrow.sol\":3801:3802  i */\n      dup3\n        /* \"contracts/EnergyTradingEscrow.sol\":3787:3803  userAddresses[i] */\n      dup2\n      sload\n      dup2\n      lt\n      tag_212\n      jumpi\n      tag_213\n      tag_205\n      jump\t// in\n    tag_213:\n    tag_212:\n      swap1\n      0x00\n      mstore\n      keccak256(0x00, 0x20)\n      add\n      0x00\n        /* \"contracts/EnergyTradingEscrow.sol\":3787:3845  userAddresses[i] = userAddresses[userAddresses.length - 1] */\n      0x0100\n      exp\n      dup2\n      sload\n      dup2\n      0xffffffffffffffffffffffffffffffffffffffff\n      mul\n      not\n      and\n      swap1\n      dup4\n      0xffffffffffffffffffffffffffffffffffffffff\n      and\n      mul\n      or\n      swap1\n      sstore\n      pop\n        /* \"contracts/EnergyTradingEscrow.sol\":3864:3877  userAddresses */\n      0x00\n        /* \"contracts/EnergyTradingEscrow.sol\":3864:3883  userAddresses.pop() */\n      dup1\n      sload\n      dup1\n      tag_215\n      jumpi\n      tag_216\n      tag_217\n      jump\t// in\n    tag_216:\n    tag_215:\n      0x01\n      swap1\n      sub\n      dup2\n      dup2\n      swap1\n      0x00\n      mstore\n      keccak256(0x00, 0x20)\n      add\n      exp(0x0100, 0x00)\n      dup2\n      sload\n      swap1\n      0xffffffffffffffffffffffffffffffffffffffff\n      mul\n      not\n      and\n      swap1\n      sstore\n      swap1\n      sstore\n        /* \"contracts/EnergyTradingEscrow.sol\":3916:3920  true */\n      0x01\n        /* \"contracts/EnergyTradingEscrow.sol\":3902:3920  isUserFound = true */\n      swap2\n      pop\n        /* \"contracts/EnergyTradingEscrow.sol\":3939:3944  break */\n      jump(tag_201)\n        /* \"contracts/EnergyTradingEscrow.sol\":3730:3960  if (userAddresses[i] == _userAddress) {... */\n    tag_207:\n        /* \"contracts/EnergyTradingEscrow.sol\":3710:3713  ++i */\n      dup1\n      0x01\n      add\n      swap1\n      pop\n        /* \"contracts/EnergyTradingEscrow.sol\":3667:3971  for (uint i = 0; i < userAddresses.length; ++i) {... */\n      jump(tag_200)\n    tag_201:\n      pop\n        /* \"contracts/EnergyTradingEscrow.sol\":3989:4000  isUserFound */\n      dup1\n        /* \"contracts/EnergyTradingEscrow.sol\":3981:4028  require(isUserFound, \"User address not found.\") */\n      tag_219\n      jumpi\n      mload(0x40)\n      0x08c379a000000000000000000000000000000000000000000000000000000000\n      dup2\n      mstore\n      0x04\n      add\n      tag_220\n      swap1\n      tag_221\n      jump\t// in\n    tag_220:\n      mload(0x40)\n      dup1\n      swap2\n      sub\n      swap1\n      revert\n    tag_219:\n        /* \"contracts/EnergyTradingEscrow.sol\":4046:4051  users */\n      0x01\n        /* \"contracts/EnergyTradingEscrow.sol\":4046:4065  users[_userAddress] */\n      0x00\n        /* \"contracts/EnergyTradingEscrow.sol\":4052:4064  _userAddress */\n      dup4\n        /* \"contracts/EnergyTradingEscrow.sol\":4046:4065  users[_userAddress] */\n      0xffffffffffffffffffffffffffffffffffffffff\n      and\n      0xffffffffffffffffffffffffffffffffffffffff\n      and\n      dup2\n      mstore\n      0x20\n      add\n      swap1\n      dup2\n      mstore\n      0x20\n      add\n      0x00\n      keccak256\n      0x00\n        /* \"contracts/EnergyTradingEscrow.sol\":4039:4065  delete users[_userAddress] */\n      dup1\n      dup3\n      add\n      0x00\n      tag_222\n      swap2\n      swap1\n      tag_223\n      jump\t// in\n    tag_222:\n      0x01\n      dup3\n      add\n      0x00\n      swap1\n      sstore\n      0x02\n      dup3\n      add\n      0x00\n      swap1\n      sstore\n      0x03\n      dup3\n      add\n      0x00\n      swap1\n      sstore\n      0x04\n      dup3\n      add\n      0x00\n      swap1\n      sstore\n      0x05\n      dup3\n      add\n      exp(0x0100, 0x00)\n      dup2\n      sload\n      swap1\n      0xff\n      mul\n      not\n      and\n      swap1\n      sstore\n      pop\n      pop\n        /* \"contracts/EnergyTradingEscrow.sol\":4095:4107  _userAddress */\n      dup2\n        /* \"contracts/EnergyTradingEscrow.sol\":4083:4108  UserDeleted(_userAddress) */\n      0xffffffffffffffffffffffffffffffffffffffff\n      and\n      0x4bc56f1321288dfb5b416cb3a7fd188723979f9e866c91d88eccf7fca039d039\n      mload(0x40)\n      mload(0x40)\n      dup1\n      swap2\n      sub\n      swap1\n      log2\n        /* \"contracts/EnergyTradingEscrow.sol\":3540:4116  {... */\n      pop\n        /* \"contracts/EnergyTradingEscrow.sol\":3481:4116  function deleteUser(address _userAddress) public onlyAdmin {... */\n      pop\n      jump\t// out\n        /* \"contracts/EnergyTradingEscrow.sol\":8731:8961  function getUserInfo(... */\n    tag_49:\n        /* \"contracts/EnergyTradingEscrow.sol\":8811:8835  UserInfo memory userInfo */\n      tag_224\n      tag_225\n      jump\t// in\n    tag_224:\n        /* \"contracts/EnergyTradingEscrow.sol\":8856:8861  users */\n      0x01\n        /* \"contracts/EnergyTradingEscrow.sol\":8856:8875  users[_userAddress] */\n      0x00\n        /* \"contracts/EnergyTradingEscrow.sol\":8862:8874  _userAddress */\n      dup4\n        /* \"contracts/EnergyTradingEscrow.sol\":8856:8875  users[_userAddress] */\n      0xffffffffffffffffffffffffffffffffffffffff\n      and\n      0xffffffffffffffffffffffffffffffffffffffff\n      and\n      dup2\n      mstore\n      0x20\n      add\n      swap1\n      dup2\n      mstore\n      0x20\n      add\n      0x00\n      keccak256\n        /* \"contracts/EnergyTradingEscrow.sol\":8856:8888  users[_userAddress].isRegistered */\n      0x05\n      add\n      0x00\n      swap1\n      sload\n      swap1\n      0x0100\n      exp\n      swap1\n      div\n      0xff\n      and\n        /* \"contracts/EnergyTradingEscrow.sol\":8848:8916  require(users[_userAddress].isRegistered, \"User is not registered.\") */\n      tag_227\n      jumpi\n      mload(0x40)\n      0x08c379a000000000000000000000000000000000000000000000000000000000\n      dup2\n      mstore\n      0x04\n      add\n      tag_228\n      swap1\n      tag_152\n      jump\t// in\n    tag_228:\n      mload(0x40)\n      dup1\n      swap2\n      sub\n      swap1\n      revert\n    tag_227:\n        /* \"contracts/EnergyTradingEscrow.sol\":8934:8939  users */\n      0x01\n        /* \"contracts/EnergyTradingEscrow.sol\":8934:8953  users[_userAddress] */\n      0x00\n        /* \"contracts/EnergyTradingEscrow.sol\":8940:8952  _userAddress */\n      dup4\n        /* \"contracts/EnergyTradingEscrow.sol\":8934:8953  users[_userAddress] */\n      0xffffffffffffffffffffffffffffffffffffffff\n      and\n      0xffffffffffffffffffffffffffffffffffffffff\n      and\n      dup2\n      mstore\n      0x20\n      add\n      swap1\n      dup2\n      mstore\n      0x20\n      add\n      0x00\n      keccak256\n        /* \"contracts/EnergyTradingEscrow.sol\":8927:8953  return users[_userAddress] */\n      mload(0x40)\n      dup1\n      0xc0\n      add\n      0x40\n      mstore\n      swap1\n      dup2\n      0x00\n      dup3\n      add\n      dup1\n      sload\n      tag_229\n      swap1\n      tag_230\n      jump\t// in\n    tag_229:\n      dup1\n      0x1f\n      add\n      0x20\n      dup1\n      swap2\n      div\n      mul\n      0x20\n      add\n      mload(0x40)\n      swap1\n      dup2\n      add\n      0x40\n      mstore\n      dup1\n      swap3\n      swap2\n      swap1\n      dup2\n      dup2\n      mstore\n      0x20\n      add\n      dup3\n      dup1\n      sload\n      tag_231\n      swap1\n      tag_230\n      jump\t// in\n    tag_231:\n      dup1\n      iszero\n      tag_232\n      jumpi\n      dup1\n      0x1f\n      lt\n      tag_233\n      jumpi\n      0x0100\n      dup1\n      dup4\n      sload\n      div\n      mul\n      dup4\n      mstore\n      swap2\n      0x20\n      add\n      swap2\n      jump(tag_232)\n    tag_233:\n      dup3\n      add\n      swap2\n      swap1\n      0x00\n      mstore\n      keccak256(0x00, 0x20)\n      swap1\n    tag_234:\n      dup2\n      sload\n      dup2\n      mstore\n      swap1\n      0x01\n      add\n      swap1\n      0x20\n      add\n      dup1\n      dup4\n      gt\n      tag_234\n      jumpi\n      dup3\n      swap1\n      sub\n      0x1f\n      and\n      dup3\n      add\n      swap2\n    tag_232:\n      pop\n      pop\n      pop\n      pop\n      pop\n      dup2\n      mstore\n      0x20\n      add\n      0x01\n      dup3\n      add\n      sload\n      dup2\n      mstore\n      0x20\n      add\n      0x02\n      dup3\n      add\n      sload\n      dup2\n      mstore\n      0x20\n      add\n      0x03\n      dup3\n      add\n      sload\n      dup2\n      mstore\n      0x20\n      add\n      0x04\n      dup3\n      add\n      sload\n      dup2\n      mstore\n      0x20\n      add\n      0x05\n      dup3\n      add\n      0x00\n      swap1\n      sload\n      swap1\n      0x0100\n      exp\n      swap1\n      div\n      0xff\n      and\n      iszero\n      iszero\n      iszero\n      iszero\n      dup2\n      mstore\n      pop\n      pop\n      swap1\n      pop\n        /* \"contracts/EnergyTradingEscrow.sol\":8731:8961  function getUserInfo(... */\n      swap2\n      swap1\n      pop\n      jump\t// out\n        /* \"contracts/EnergyTradingEscrow.sol\":850:883  uint[] public pendingTransactions */\n    tag_55:\n      0x05\n      dup2\n      dup2\n      sload\n      dup2\n      lt\n      tag_235\n      jumpi\n      0x00\n      dup1\n      revert\n    tag_235:\n      swap1\n      0x00\n      mstore\n      keccak256(0x00, 0x20)\n      add\n      0x00\n      swap2\n      pop\n      swap1\n      pop\n      sload\n      dup2\n      jump\t// out\n        /* \"contracts/EnergyTradingEscrow.sol\":795:843  mapping(uint => Transaction) public transactions */\n    tag_60:\n      mstore(0x20, 0x04)\n      dup1\n      0x00\n      mstore\n      keccak256(0x00, 0x40)\n      0x00\n      swap2\n      pop\n      swap1\n      pop\n      dup1\n      0x00\n      add\n      sload\n      swap1\n      dup1\n      0x01\n      add\n      0x00\n      swap1\n      sload\n      swap1\n      0x0100\n      exp\n      swap1\n      div\n      0xffffffffffffffffffffffffffffffffffffffff\n      and\n      swap1\n      dup1\n      0x02\n      add\n      0x00\n      swap1\n      sload\n      swap1\n      0x0100\n      exp\n      swap1\n      div\n      0xffffffffffffffffffffffffffffffffffffffff\n      and\n      swap1\n      dup1\n      0x03\n      add\n      sload\n      swap1\n      dup1\n      0x04\n      add\n      sload\n      swap1\n      dup1\n      0x05\n      add\n      sload\n      swap1\n      dup1\n      0x06\n      add\n      0x00\n      swap1\n      sload\n      swap1\n      0x0100\n      exp\n      swap1\n      div\n      0xff\n      and\n      swap1\n      dup1\n      0x07\n      add\n      dup1\n      sload\n      tag_237\n      swap1\n      tag_230\n      jump\t// in\n    tag_237:\n      dup1\n      0x1f\n      add\n      0x20\n      dup1\n      swap2\n      div\n      mul\n      0x20\n      add\n      mload(0x40)\n      swap1\n      dup2\n      add\n      0x40\n      mstore\n      dup1\n      swap3\n      swap2\n      swap1\n      dup2\n      dup2\n      mstore\n      0x20\n      add\n      dup3\n      dup1\n      sload\n      tag_238\n      swap1\n      tag_230\n      jump\t// in\n    tag_238:\n      dup1\n      iszero\n      tag_239\n      jumpi\n      dup1\n      0x1f\n      lt\n      tag_240\n      jumpi\n      0x0100\n      dup1\n      dup4\n      sload\n      div\n      mul\n      dup4\n      mstore\n      swap2\n      0x20\n      add\n      swap2\n      jump(tag_239)\n    tag_240:\n      dup3\n      add\n      swap2\n      swap1\n      0x00\n      mstore\n      keccak256(0x00, 0x20)\n      swap1\n    tag_241:\n      dup2\n      sload\n      dup2\n      mstore\n      swap1\n      0x01\n      add\n      swap1\n      0x20\n      add\n      dup1\n      dup4\n      gt\n      tag_241\n      jumpi\n      dup3\n      swap1\n      sub\n      0x1f\n      and\n      dup3\n      add\n      swap2\n    tag_239:\n      pop\n      pop\n      pop\n      pop\n      pop\n      swap1\n      dup1\n      0x08\n      add\n      0x00\n      swap1\n      sload\n      swap1\n      0x0100\n      exp\n      swap1\n      div\n      0xff\n      and\n      swap1\n      pop\n      dup10\n      jump\t// out\n        /* \"contracts/EnergyTradingEscrow.sol\":9408:9514  function getUserAddresses() public view returns (address[] memory) {... */\n    tag_64:\n        /* \"contracts/EnergyTradingEscrow.sol\":9457:9473  address[] memory */\n      0x60\n        /* \"contracts/EnergyTradingEscrow.sol\":9493:9506  userAddresses */\n      0x00\n        /* \"contracts/EnergyTradingEscrow.sol\":9486:9506  return userAddresses */\n      dup1\n      sload\n      dup1\n      0x20\n      mul\n      0x20\n      add\n      mload(0x40)\n      swap1\n      dup2\n      add\n      0x40\n      mstore\n      dup1\n      swap3\n      swap2\n      swap1\n      dup2\n      dup2\n      mstore\n      0x20\n      add\n      dup3\n      dup1\n      sload\n      dup1\n      iszero\n      tag_243\n      jumpi\n      0x20\n      mul\n      dup3\n      add\n      swap2\n      swap1\n      0x00\n      mstore\n      keccak256(0x00, 0x20)\n      swap1\n    tag_244:\n      dup2\n      0x00\n      swap1\n      sload\n      swap1\n      0x0100\n      exp\n      swap1\n      div\n      0xffffffffffffffffffffffffffffffffffffffff\n      and\n      0xffffffffffffffffffffffffffffffffffffffff\n      and\n      dup2\n      mstore\n      0x20\n      add\n      swap1\n      0x01\n      add\n      swap1\n      dup1\n      dup4\n      gt\n      tag_244\n      jumpi\n    tag_243:\n      pop\n      pop\n      pop\n      pop\n      pop\n      swap1\n      pop\n        /* \"contracts/EnergyTradingEscrow.sol\":9408:9514  function getUserAddresses() public view returns (address[] memory) {... */\n      swap1\n      jump\t// out\n        /* \"contracts/EnergyTradingEscrow.sol\":679:720  mapping(address => UserInfo) public users */\n    tag_69:\n      mstore(0x20, 0x01)\n      dup1\n      0x00\n      mstore\n      keccak256(0x00, 0x40)\n      0x00\n      swap2\n      pop\n      swap1\n      pop\n      dup1\n      0x00\n      add\n      dup1\n      sload\n      tag_245\n      swap1\n      tag_230\n      jump\t// in\n    tag_245:\n      dup1\n      0x1f\n      add\n      0x20\n      dup1\n      swap2\n      div\n      mul\n      0x20\n      add\n      mload(0x40)\n      swap1\n      dup2\n      add\n      0x40\n      mstore\n      dup1\n      swap3\n      swap2\n      swap1\n      dup2\n      dup2\n      mstore\n      0x20\n      add\n      dup3\n      dup1\n      sload\n      tag_246\n      swap1\n      tag_230\n      jump\t// in\n    tag_246:\n      dup1\n      iszero\n      tag_247\n      jumpi\n      dup1\n      0x1f\n      lt\n      tag_248\n      jumpi\n      0x0100\n      dup1\n      dup4\n      sload\n      div\n      mul\n      dup4\n      mstore\n      swap2\n      0x20\n      add\n      swap2\n      jump(tag_247)\n    tag_248:\n      dup3\n      add\n      swap2\n      swap1\n      0x00\n      mstore\n      keccak256(0x00, 0x20)\n      swap1\n    tag_249:\n      dup2\n      sload\n      dup2\n      mstore\n      swap1\n      0x01\n      add\n      swap1\n      0x20\n      add\n      dup1\n      dup4\n      gt\n      tag_249\n      jumpi\n      dup3\n      swap1\n      sub\n      0x1f\n      and\n      dup3\n      add\n      swap2\n    tag_247:\n      pop\n      pop\n      pop\n      pop\n      pop\n      swap1\n      dup1\n      0x01\n      add\n      sload\n      swap1\n      dup1\n      0x02\n      add\n      sload\n      swap1\n      dup1\n      0x03\n      add\n      sload\n      swap1\n      dup1\n      0x04\n      add\n      sload\n      swap1\n      dup1\n      0x05\n      add\n      0x00\n      swap1\n      sload\n      swap1\n      0x0100\n      exp\n      swap1\n      div\n      0xff\n      and\n      swap1\n      pop\n      dup7\n      jump\t// out\n        /* \"contracts/EnergyTradingEscrow.sol\":9656:10064  function getAllPendingTransactions()... */\n    tag_73:\n        /* \"contracts/EnergyTradingEscrow.sol\":9741:9761  Transaction[] memory */\n      0x60\n        /* \"contracts/EnergyTradingEscrow.sol\":9779:9811  Transaction[] memory pendingData */\n      0x00\n        /* \"contracts/EnergyTradingEscrow.sol\":9846:9865  pendingTransactions */\n      0x05\n        /* \"contracts/EnergyTradingEscrow.sol\":9846:9872  pendingTransactions.length */\n      dup1\n      sload\n      swap1\n      pop\n        /* \"contracts/EnergyTradingEscrow.sol\":9814:9883  new Transaction[](... */\n      0xffffffffffffffff\n      dup2\n      gt\n      iszero\n      tag_251\n      jumpi\n      tag_252\n      tag_253\n      jump\t// in\n    tag_252:\n    tag_251:\n      mload(0x40)\n      swap1\n      dup1\n      dup3\n      mstore\n      dup1\n      0x20\n      mul\n      0x20\n      add\n      dup3\n      add\n      0x40\n      mstore\n      dup1\n      iszero\n      tag_254\n      jumpi\n      dup2\n      0x20\n      add\n    tag_255:\n      tag_256\n      tag_257\n      jump\t// in\n    tag_256:\n      dup2\n      mstore\n      0x20\n      add\n      swap1\n      0x01\n      swap1\n      sub\n      swap1\n      dup2\n      tag_255\n      jumpi\n      swap1\n      pop\n    tag_254:\n      pop\n        /* \"contracts/EnergyTradingEscrow.sol\":9779:9883  Transaction[] memory pendingData = new Transaction[](... */\n      swap1\n      pop\n        /* \"contracts/EnergyTradingEscrow.sol\":9899:9905  uint i */\n      0x00\n        /* \"contracts/EnergyTradingEscrow.sol\":9894:10028  for (uint i = 0; i < pendingTransactions.length; i++) {... */\n    tag_258:\n        /* \"contracts/EnergyTradingEscrow.sol\":9915:9934  pendingTransactions */\n      0x05\n        /* \"contracts/EnergyTradingEscrow.sol\":9915:9941  pendingTransactions.length */\n      dup1\n      sload\n      swap1\n      pop\n        /* \"contracts/EnergyTradingEscrow.sol\":9911:9912  i */\n      dup2\n        /* \"contracts/EnergyTradingEscrow.sol\":9911:9941  i < pendingTransactions.length */\n      lt\n        /* \"contracts/EnergyTradingEscrow.sol\":9894:10028  for (uint i = 0; i < pendingTransactions.length; i++) {... */\n      iszero\n      tag_259\n      jumpi\n        /* \"contracts/EnergyTradingEscrow.sol\":9980:9992  transactions */\n      0x04\n        /* \"contracts/EnergyTradingEscrow.sol\":9980:10016  transactions[pendingTransactions[i]] */\n      0x00\n        /* \"contracts/EnergyTradingEscrow.sol\":9993:10012  pendingTransactions */\n      0x05\n        /* \"contracts/EnergyTradingEscrow.sol\":10013:10014  i */\n      dup4\n        /* \"contracts/EnergyTradingEscrow.sol\":9993:10015  pendingTransactions[i] */\n      dup2\n      sload\n      dup2\n      lt\n      tag_261\n      jumpi\n      tag_262\n      tag_205\n      jump\t// in\n    tag_262:\n    tag_261:\n      swap1\n      0x00\n      mstore\n      keccak256(0x00, 0x20)\n      add\n      sload\n        /* \"contracts/EnergyTradingEscrow.sol\":9980:10016  transactions[pendingTransactions[i]] */\n      dup2\n      mstore\n      0x20\n      add\n      swap1\n      dup2\n      mstore\n      0x20\n      add\n      0x00\n      keccak256\n        /* \"contracts/EnergyTradingEscrow.sol\":9963:10016  pendingData[i] = transactions[pendingTransactions[i]] */\n      mload(0x40)\n      dup1\n      0x0120\n      add\n      0x40\n      mstore\n      swap1\n      dup2\n      0x00\n      dup3\n      add\n      sload\n      dup2\n      mstore\n      0x20\n      add\n      0x01\n      dup3\n      add\n      0x00\n      swap1\n      sload\n      swap1\n      0x0100\n      exp\n      swap1\n      div\n      0xffffffffffffffffffffffffffffffffffffffff\n      and\n      0xffffffffffffffffffffffffffffffffffffffff\n      and\n      0xffffffffffffffffffffffffffffffffffffffff\n      and\n      dup2\n      mstore\n      0x20\n      add\n      0x02\n      dup3\n      add\n      0x00\n      swap1\n      sload\n      swap1\n      0x0100\n      exp\n      swap1\n      div\n      0xffffffffffffffffffffffffffffffffffffffff\n      and\n      0xffffffffffffffffffffffffffffffffffffffff\n      and\n      0xffffffffffffffffffffffffffffffffffffffff\n      and\n      dup2\n      mstore\n      0x20\n      add\n      0x03\n      dup3\n      add\n      sload\n      dup2\n      mstore\n      0x20\n      add\n      0x04\n      dup3\n      add\n      sload\n      dup2\n      mstore\n      0x20\n      add\n      0x05\n      dup3\n      add\n      sload\n      dup2\n      mstore\n      0x20\n      add\n      0x06\n      dup3\n      add\n      0x00\n      swap1\n      sload\n      swap1\n      0x0100\n      exp\n      swap1\n      div\n      0xff\n      and\n      iszero\n      iszero\n      iszero\n      iszero\n      dup2\n      mstore\n      0x20\n      add\n      0x07\n      dup3\n      add\n      dup1\n      sload\n      tag_264\n      swap1\n      tag_230\n      jump\t// in\n    tag_264:\n      dup1\n      0x1f\n      add\n      0x20\n      dup1\n      swap2\n      div\n      mul\n      0x20\n      add\n      mload(0x40)\n      swap1\n      dup2\n      add\n      0x40\n      mstore\n      dup1\n      swap3\n      swap2\n      swap1\n      dup2\n      dup2\n      mstore\n      0x20\n      add\n      dup3\n      dup1\n      sload\n      tag_265\n      swap1\n      tag_230\n      jump\t// in\n    tag_265:\n      dup1\n      iszero\n      tag_266\n      jumpi\n      dup1\n      0x1f\n      lt\n      tag_267\n      jumpi\n      0x0100\n      dup1\n      dup4\n      sload\n      div\n      mul\n      dup4\n      mstore\n      swap2\n      0x20\n      add\n      swap2\n      jump(tag_266)\n    tag_267:\n      dup3\n      add\n      swap2\n      swap1\n      0x00\n      mstore\n      keccak256(0x00, 0x20)\n      swap1\n    tag_268:\n      dup2\n      sload\n      dup2\n      mstore\n      swap1\n      0x01\n      add\n      swap1\n      0x20\n      add\n      dup1\n      dup4\n      gt\n      tag_268\n      jumpi\n      dup3\n      swap1\n      sub\n      0x1f\n      and\n      dup3\n      add\n      swap2\n    tag_266:\n      pop\n      pop\n      pop\n      pop\n      pop\n      dup2\n      mstore\n      0x20\n      add\n      0x08\n      dup3\n      add\n      0x00\n      swap1\n      sload\n      swap1\n      0x0100\n      exp\n      swap1\n      div\n      0xff\n      and\n      0x01\n      dup2\n      gt\n      iszero\n      tag_269\n      jumpi\n      tag_270\n      tag_117\n      jump\t// in\n    tag_270:\n    tag_269:\n      0x01\n      dup2\n      gt\n      iszero\n      tag_271\n      jumpi\n      tag_272\n      tag_117\n      jump\t// in\n    tag_272:\n    tag_271:\n      dup2\n      mstore\n      pop\n      pop\n        /* \"contracts/EnergyTradingEscrow.sol\":9963:9974  pendingData */\n      dup3\n        /* \"contracts/EnergyTradingEscrow.sol\":9975:9976  i */\n      dup3\n        /* \"contracts/EnergyTradingEscrow.sol\":9963:9977  pendingData[i] */\n      dup2\n      mload\n      dup2\n      lt\n      tag_273\n      jumpi\n      tag_274\n      tag_205\n      jump\t// in\n    tag_274:\n    tag_273:\n      0x20\n      mul\n      0x20\n      add\n      add\n        /* \"contracts/EnergyTradingEscrow.sol\":9963:10016  pendingData[i] = transactions[pendingTransactions[i]] */\n      dup2\n      swap1\n      mstore\n      pop\n        /* \"contracts/EnergyTradingEscrow.sol\":9943:9946  i++ */\n      dup1\n      dup1\n      0x01\n      add\n      swap2\n      pop\n      pop\n        /* \"contracts/EnergyTradingEscrow.sol\":9894:10028  for (uint i = 0; i < pendingTransactions.length; i++) {... */\n      jump(tag_258)\n    tag_259:\n      pop\n        /* \"contracts/EnergyTradingEscrow.sol\":10045:10056  pendingData */\n      dup1\n        /* \"contracts/EnergyTradingEscrow.sol\":10038:10056  return pendingData */\n      swap2\n      pop\n      pop\n        /* \"contracts/EnergyTradingEscrow.sol\":9656:10064  function getAllPendingTransactions()... */\n      swap1\n      jump\t// out\n        /* \"contracts/EnergyTradingEscrow.sol\":10502:10763  function updateEnergyBalance(... */\n    tag_79:\n        /* \"contracts/EnergyTradingEscrow.sol\":10631:10636  users */\n      0x01\n        /* \"contracts/EnergyTradingEscrow.sol\":10631:10650  users[_userAddress] */\n      0x00\n        /* \"contracts/EnergyTradingEscrow.sol\":10637:10649  _userAddress */\n      dup4\n        /* \"contracts/EnergyTradingEscrow.sol\":10631:10650  users[_userAddress] */\n      0xffffffffffffffffffffffffffffffffffffffff\n      and\n      0xffffffffffffffffffffffffffffffffffffffff\n      and\n      dup2\n      mstore\n      0x20\n      add\n      swap1\n      dup2\n      mstore\n      0x20\n      add\n      0x00\n      keccak256\n        /* \"contracts/EnergyTradingEscrow.sol\":10631:10663  users[_userAddress].isRegistered */\n      0x05\n      add\n      0x00\n      swap1\n      sload\n      swap1\n      0x0100\n      exp\n      swap1\n      div\n      0xff\n      and\n        /* \"contracts/EnergyTradingEscrow.sol\":10623:10691  require(users[_userAddress].isRegistered, \"User is not registered.\") */\n      tag_276\n      jumpi\n      mload(0x40)\n      0x08c379a000000000000000000000000000000000000000000000000000000000\n      dup2\n      mstore\n      0x04\n      add\n      tag_277\n      swap1\n      tag_152\n      jump\t// in\n    tag_277:\n      mload(0x40)\n      dup1\n      swap2\n      sub\n      swap1\n      revert\n    tag_276:\n        /* \"contracts/EnergyTradingEscrow.sol\":10738:10755  _newEnergyBalance */\n      dup1\n        /* \"contracts/EnergyTradingEscrow.sol\":10702:10707  users */\n      0x01\n        /* \"contracts/EnergyTradingEscrow.sol\":10702:10721  users[_userAddress] */\n      0x00\n        /* \"contracts/EnergyTradingEscrow.sol\":10708:10720  _userAddress */\n      dup5\n        /* \"contracts/EnergyTradingEscrow.sol\":10702:10721  users[_userAddress] */\n      0xffffffffffffffffffffffffffffffffffffffff\n      and\n      0xffffffffffffffffffffffffffffffffffffffff\n      and\n      dup2\n      mstore\n      0x20\n      add\n      swap1\n      dup2\n      mstore\n      0x20\n      add\n      0x00\n      keccak256\n        /* \"contracts/EnergyTradingEscrow.sol\":10702:10735  users[_userAddress].energyBalance */\n      0x03\n      add\n        /* \"contracts/EnergyTradingEscrow.sol\":10702:10755  users[_userAddress].energyBalance = _newEnergyBalance */\n      dup2\n      swap1\n      sstore\n      pop\n        /* \"contracts/EnergyTradingEscrow.sol\":10502:10763  function updateEnergyBalance(... */\n      pop\n      pop\n      jump\t// out\n        /* \"contracts/EnergyTradingEscrow.sol\":10072:10494  function getAllCommittedTransactions()... */\n    tag_81:\n        /* \"contracts/EnergyTradingEscrow.sol\":10159:10179  Transaction[] memory */\n      0x60\n        /* \"contracts/EnergyTradingEscrow.sol\":10197:10231  Transaction[] memory committedData */\n      0x00\n        /* \"contracts/EnergyTradingEscrow.sol\":10266:10287  committedTransactions */\n      0x06\n        /* \"contracts/EnergyTradingEscrow.sol\":10266:10294  committedTransactions.length */\n      dup1\n      sload\n      swap1\n      pop\n        /* \"contracts/EnergyTradingEscrow.sol\":10234:10305  new Transaction[](... */\n      0xffffffffffffffff\n      dup2\n      gt\n      iszero\n      tag_279\n      jumpi\n      tag_280\n      tag_253\n      jump\t// in\n    tag_280:\n    tag_279:\n      mload(0x40)\n      swap1\n      dup1\n      dup3\n      mstore\n      dup1\n      0x20\n      mul\n      0x20\n      add\n      dup3\n      add\n      0x40\n      mstore\n      dup1\n      iszero\n      tag_281\n      jumpi\n      dup2\n      0x20\n      add\n    tag_282:\n      tag_283\n      tag_257\n      jump\t// in\n    tag_283:\n      dup2\n      mstore\n      0x20\n      add\n      swap1\n      0x01\n      swap1\n      sub\n      swap1\n      dup2\n      tag_282\n      jumpi\n      swap1\n      pop\n    tag_281:\n      pop\n        /* \"contracts/EnergyTradingEscrow.sol\":10197:10305  Transaction[] memory committedData = new Transaction[](... */\n      swap1\n      pop\n        /* \"contracts/EnergyTradingEscrow.sol\":10321:10327  uint i */\n      0x00\n        /* \"contracts/EnergyTradingEscrow.sol\":10316:10456  for (uint i = 0; i < committedTransactions.length; i++) {... */\n    tag_284:\n        /* \"contracts/EnergyTradingEscrow.sol\":10337:10358  committedTransactions */\n      0x06\n        /* \"contracts/EnergyTradingEscrow.sol\":10337:10365  committedTransactions.length */\n      dup1\n      sload\n      swap1\n      pop\n        /* \"contracts/EnergyTradingEscrow.sol\":10333:10334  i */\n      dup2\n        /* \"contracts/EnergyTradingEscrow.sol\":10333:10365  i < committedTransactions.length */\n      lt\n        /* \"contracts/EnergyTradingEscrow.sol\":10316:10456  for (uint i = 0; i < committedTransactions.length; i++) {... */\n      iszero\n      tag_285\n      jumpi\n        /* \"contracts/EnergyTradingEscrow.sol\":10406:10418  transactions */\n      0x04\n        /* \"contracts/EnergyTradingEscrow.sol\":10406:10444  transactions[committedTransactions[i]] */\n      0x00\n        /* \"contracts/EnergyTradingEscrow.sol\":10419:10440  committedTransactions */\n      0x06\n        /* \"contracts/EnergyTradingEscrow.sol\":10441:10442  i */\n      dup4\n        /* \"contracts/EnergyTradingEscrow.sol\":10419:10443  committedTransactions[i] */\n      dup2\n      sload\n      dup2\n      lt\n      tag_287\n      jumpi\n      tag_288\n      tag_205\n      jump\t// in\n    tag_288:\n    tag_287:\n      swap1\n      0x00\n      mstore\n      keccak256(0x00, 0x20)\n      add\n      sload\n        /* \"contracts/EnergyTradingEscrow.sol\":10406:10444  transactions[committedTransactions[i]] */\n      dup2\n      mstore\n      0x20\n      add\n      swap1\n      dup2\n      mstore\n      0x20\n      add\n      0x00\n      keccak256\n        /* \"contracts/EnergyTradingEscrow.sol\":10387:10444  committedData[i] = transactions[committedTransactions[i]] */\n      mload(0x40)\n      dup1\n      0x0120\n      add\n      0x40\n      mstore\n      swap1\n      dup2\n      0x00\n      dup3\n      add\n      sload\n      dup2\n      mstore\n      0x20\n      add\n      0x01\n      dup3\n      add\n      0x00\n      swap1\n      sload\n      swap1\n      0x0100\n      exp\n      swap1\n      div\n      0xffffffffffffffffffffffffffffffffffffffff\n      and\n      0xffffffffffffffffffffffffffffffffffffffff\n      and\n      0xffffffffffffffffffffffffffffffffffffffff\n      and\n      dup2\n      mstore\n      0x20\n      add\n      0x02\n      dup3\n      add\n      0x00\n      swap1\n      sload\n      swap1\n      0x0100\n      exp\n      swap1\n      div\n      0xffffffffffffffffffffffffffffffffffffffff\n      and\n      0xffffffffffffffffffffffffffffffffffffffff\n      and\n      0xffffffffffffffffffffffffffffffffffffffff\n      and\n      dup2\n      mstore\n      0x20\n      add\n      0x03\n      dup3\n      add\n      sload\n      dup2\n      mstore\n      0x20\n      add\n      0x04\n      dup3\n      add\n      sload\n      dup2\n      mstore\n      0x20\n      add\n      0x05\n      dup3\n      add\n      sload\n      dup2\n      mstore\n      0x20\n      add\n      0x06\n      dup3\n      add\n      0x00\n      swap1\n      sload\n      swap1\n      0x0100\n      exp\n      swap1\n      div\n      0xff\n      and\n      iszero\n      iszero\n      iszero\n      iszero\n      dup2\n      mstore\n      0x20\n      add\n      0x07\n      dup3\n      add\n      dup1\n      sload\n      tag_290\n      swap1\n      tag_230\n      jump\t// in\n    tag_290:\n      dup1\n      0x1f\n      add\n      0x20\n      dup1\n      swap2\n      div\n      mul\n      0x20\n      add\n      mload(0x40)\n      swap1\n      dup2\n      add\n      0x40\n      mstore\n      dup1\n      swap3\n      swap2\n      swap1\n      dup2\n      dup2\n      mstore\n      0x20\n      add\n      dup3\n      dup1\n      sload\n      tag_291\n      swap1\n      tag_230\n      jump\t// in\n    tag_291:\n      dup1\n      iszero\n      tag_292\n      jumpi\n      dup1\n      0x1f\n      lt\n      tag_293\n      jumpi\n      0x0100\n      dup1\n      dup4\n      sload\n      div\n      mul\n      dup4\n      mstore\n      swap2\n      0x20\n      add\n      swap2\n      jump(tag_292)\n    tag_293:\n      dup3\n      add\n      swap2\n      swap1\n      0x00\n      mstore\n      keccak256(0x00, 0x20)\n      swap1\n    tag_294:\n      dup2\n      sload\n      dup2\n      mstore\n      swap1\n      0x01\n      add\n      swap1\n      0x20\n      add\n      dup1\n      dup4\n      gt\n      tag_294\n      jumpi\n      dup3\n      swap1\n      sub\n      0x1f\n      and\n      dup3\n      add\n      swap2\n    tag_292:\n      pop\n      pop\n      pop\n      pop\n      pop\n      dup2\n      mstore\n      0x20\n      add\n      0x08\n      dup3\n      add\n      0x00\n      swap1\n      sload\n      swap1\n      0x0100\n      exp\n      swap1\n      div\n      0xff\n      and\n      0x01\n      dup2\n      gt\n      iszero\n      tag_295\n      jumpi\n      tag_296\n      tag_117\n      jump\t// in\n    tag_296:\n    tag_295:\n      0x01\n      dup2\n      gt\n      iszero\n      tag_297\n      jumpi\n      tag_298\n      tag_117\n      jump\t// in\n    tag_298:\n    tag_297:\n      dup2\n      mstore\n      pop\n      pop\n        /* \"contracts/EnergyTradingEscrow.sol\":10387:10400  committedData */\n      dup3\n        /* \"contracts/EnergyTradingEscrow.sol\":10401:10402  i */\n      dup3\n        /* \"contracts/EnergyTradingEscrow.sol\":10387:10403  committedData[i] */\n      dup2\n      mload\n      dup2\n      lt\n      tag_299\n      jumpi\n      tag_300\n      tag_205\n      jump\t// in\n    tag_300:\n    tag_299:\n      0x20\n      mul\n      0x20\n      add\n      add\n        /* \"contracts/EnergyTradingEscrow.sol\":10387:10444  committedData[i] = transactions[committedTransactions[i]] */\n      dup2\n      swap1\n      mstore\n      pop\n        /* \"contracts/EnergyTradingEscrow.sol\":10367:10370  i++ */\n      dup1\n      dup1\n      0x01\n      add\n      swap2\n      pop\n      pop\n        /* \"contracts/EnergyTradingEscrow.sol\":10316:10456  for (uint i = 0; i < committedTransactions.length; i++) {... */\n      jump(tag_284)\n    tag_285:\n      pop\n        /* \"contracts/EnergyTradingEscrow.sol\":10473:10486  committedData */\n      dup1\n        /* \"contracts/EnergyTradingEscrow.sol\":10466:10486  return committedData */\n      swap2\n      pop\n      pop\n        /* \"contracts/EnergyTradingEscrow.sol\":10072:10494  function getAllCommittedTransactions()... */\n      swap1\n      jump\t// out\n        /* \"contracts/EnergyTradingEscrow.sol\":9522:9648  function getNumberOfNotCommittedTransactions() public view returns (uint) {... */\n    tag_84:\n        /* \"contracts/EnergyTradingEscrow.sol\":9590:9594  uint */\n      0x00\n        /* \"contracts/EnergyTradingEscrow.sol\":9614:9633  pendingTransactions */\n      0x05\n        /* \"contracts/EnergyTradingEscrow.sol\":9614:9640  pendingTransactions.length */\n      dup1\n      sload\n      swap1\n      pop\n        /* \"contracts/EnergyTradingEscrow.sol\":9607:9640  return pendingTransactions.length */\n      swap1\n      pop\n        /* \"contracts/EnergyTradingEscrow.sol\":9522:9648  function getNumberOfNotCommittedTransactions() public view returns (uint) {... */\n      swap1\n      jump\t// out\n        /* \"contracts/EnergyTradingEscrow.sol\":8969:9259  function getAllUsersInfo() public view returns (UserInfo[] memory) {... */\n    tag_87:\n        /* \"contracts/EnergyTradingEscrow.sol\":9017:9034  UserInfo[] memory */\n      0x60\n        /* \"contracts/EnergyTradingEscrow.sol\":9047:9070  UserInfo[] memory infos */\n      0x00\n        /* \"contracts/EnergyTradingEscrow.sol\":9088:9101  userAddresses */\n      dup1\n        /* \"contracts/EnergyTradingEscrow.sol\":9088:9108  userAddresses.length */\n      dup1\n      sload\n      swap1\n      pop\n        /* \"contracts/EnergyTradingEscrow.sol\":9073:9109  new UserInfo[](userAddresses.length) */\n      0xffffffffffffffff\n      dup2\n      gt\n      iszero\n      tag_303\n      jumpi\n      tag_304\n      tag_253\n      jump\t// in\n    tag_304:\n    tag_303:\n      mload(0x40)\n      swap1\n      dup1\n      dup3\n      mstore\n      dup1\n      0x20\n      mul\n      0x20\n      add\n      dup3\n      add\n      0x40\n      mstore\n      dup1\n      iszero\n      tag_305\n      jumpi\n      dup2\n      0x20\n      add\n    tag_306:\n      tag_307\n      tag_225\n      jump\t// in\n    tag_307:\n      dup2\n      mstore\n      0x20\n      add\n      swap1\n      0x01\n      swap1\n      sub\n      swap1\n      dup2\n      tag_306\n      jumpi\n      swap1\n      pop\n    tag_305:\n      pop\n        /* \"contracts/EnergyTradingEscrow.sol\":9047:9109  UserInfo[] memory infos = new UserInfo[](userAddresses.length) */\n      swap1\n      pop\n        /* \"contracts/EnergyTradingEscrow.sol\":9125:9131  uint i */\n      0x00\n        /* \"contracts/EnergyTradingEscrow.sol\":9120:9229  for (uint i = 0; i < userAddresses.length; i++) {... */\n    tag_308:\n        /* \"contracts/EnergyTradingEscrow.sol\":9141:9154  userAddresses */\n      0x00\n        /* \"contracts/EnergyTradingEscrow.sol\":9141:9161  userAddresses.length */\n      dup1\n      sload\n      swap1\n      pop\n        /* \"contracts/EnergyTradingEscrow.sol\":9137:9138  i */\n      dup2\n        /* \"contracts/EnergyTradingEscrow.sol\":9137:9161  i < userAddresses.length */\n      lt\n        /* \"contracts/EnergyTradingEscrow.sol\":9120:9229  for (uint i = 0; i < userAddresses.length; i++) {... */\n      iszero\n      tag_309\n      jumpi\n        /* \"contracts/EnergyTradingEscrow.sol\":9194:9199  users */\n      0x01\n        /* \"contracts/EnergyTradingEscrow.sol\":9194:9217  users[userAddresses[i]] */\n      0x00\n        /* \"contracts/EnergyTradingEscrow.sol\":9200:9213  userAddresses */\n      dup1\n        /* \"contracts/EnergyTradingEscrow.sol\":9214:9215  i */\n      dup4\n        /* \"contracts/EnergyTradingEscrow.sol\":9200:9216  userAddresses[i] */\n      dup2\n      sload\n      dup2\n      lt\n      tag_311\n      jumpi\n      tag_312\n      tag_205\n      jump\t// in\n    tag_312:\n    tag_311:\n      swap1\n      0x00\n      mstore\n      keccak256(0x00, 0x20)\n      add\n      0x00\n      swap1\n      sload\n      swap1\n      0x0100\n      exp\n      swap1\n      div\n      0xffffffffffffffffffffffffffffffffffffffff\n      and\n        /* \"contracts/EnergyTradingEscrow.sol\":9194:9217  users[userAddresses[i]] */\n      0xffffffffffffffffffffffffffffffffffffffff\n      and\n      0xffffffffffffffffffffffffffffffffffffffff\n      and\n      dup2\n      mstore\n      0x20\n      add\n      swap1\n      dup2\n      mstore\n      0x20\n      add\n      0x00\n      keccak256\n        /* \"contracts/EnergyTradingEscrow.sol\":9183:9217  infos[i] = users[userAddresses[i]] */\n      mload(0x40)\n      dup1\n      0xc0\n      add\n      0x40\n      mstore\n      swap1\n      dup2\n      0x00\n      dup3\n      add\n      dup1\n      sload\n      tag_314\n      swap1\n      tag_230\n      jump\t// in\n    tag_314:\n      dup1\n      0x1f\n      add\n      0x20\n      dup1\n      swap2\n      div\n      mul\n      0x20\n      add\n      mload(0x40)\n      swap1\n      dup2\n      add\n      0x40\n      mstore\n      dup1\n      swap3\n      swap2\n      swap1\n      dup2\n      dup2\n      mstore\n      0x20\n      add\n      dup3\n      dup1\n      sload\n      tag_315\n      swap1\n      tag_230\n      jump\t// in\n    tag_315:\n      dup1\n      iszero\n      tag_316\n      jumpi\n      dup1\n      0x1f\n      lt\n      tag_317\n      jumpi\n      0x0100\n      dup1\n      dup4\n      sload\n      div\n      mul\n      dup4\n      mstore\n      swap2\n      0x20\n      add\n      swap2\n      jump(tag_316)\n    tag_317:\n      dup3\n      add\n      swap2\n      swap1\n      0x00\n      mstore\n      keccak256(0x00, 0x20)\n      swap1\n    tag_318:\n      dup2\n      sload\n      dup2\n      mstore\n      swap1\n      0x01\n      add\n      swap1\n      0x20\n      add\n      dup1\n      dup4\n      gt\n      tag_318\n      jumpi\n      dup3\n      swap1\n      sub\n      0x1f\n      and\n      dup3\n      add\n      swap2\n    tag_316:\n      pop\n      pop\n      pop\n      pop\n      pop\n      dup2\n      mstore\n      0x20\n      add\n      0x01\n      dup3\n      add\n      sload\n      dup2\n      mstore\n      0x20\n      add\n      0x02\n      dup3\n      add\n      sload\n      dup2\n      mstore\n      0x20\n      add\n      0x03\n      dup3\n      add\n      sload\n      dup2\n      mstore\n      0x20\n      add\n      0x04\n      dup3\n      add\n      sload\n      dup2\n      mstore\n      0x20\n      add\n      0x05\n      dup3\n      add\n      0x00\n      swap1\n      sload\n      swap1\n      0x0100\n      exp\n      swap1\n      div\n      0xff\n      and\n      iszero\n      iszero\n      iszero\n      iszero\n      dup2\n      mstore\n      pop\n      pop\n        /* \"contracts/EnergyTradingEscrow.sol\":9183:9188  infos */\n      dup3\n        /* \"contracts/EnergyTradingEscrow.sol\":9189:9190  i */\n      dup3\n        /* \"contracts/EnergyTradingEscrow.sol\":9183:9191  infos[i] */\n      dup2\n      mload\n      dup2\n      lt\n      tag_319\n      jumpi\n      tag_320\n      tag_205\n      jump\t// in\n    tag_320:\n    tag_319:\n      0x20\n      mul\n      0x20\n      add\n      add\n        /* \"contracts/EnergyTradingEscrow.sol\":9183:9217  infos[i] = users[userAddresses[i]] */\n      dup2\n      swap1\n      mstore\n      pop\n        /* \"contracts/EnergyTradingEscrow.sol\":9163:9166  i++ */\n      dup1\n      dup1\n      0x01\n      add\n      swap2\n      pop\n      pop\n        /* \"contracts/EnergyTradingEscrow.sol\":9120:9229  for (uint i = 0; i < userAddresses.length; i++) {... */\n      jump(tag_308)\n    tag_309:\n      pop\n        /* \"contracts/EnergyTradingEscrow.sol\":9246:9251  infos */\n      dup1\n        /* \"contracts/EnergyTradingEscrow.sol\":9239:9251  return infos */\n      swap2\n      pop\n      pop\n        /* \"contracts/EnergyTradingEscrow.sol\":8969:9259  function getAllUsersInfo() public view returns (UserInfo[] memory) {... */\n      swap1\n      jump\t// out\n        /* \"contracts/EnergyTradingEscrow.sol\":727:747  address public admin */\n    tag_91:\n      0x02\n      0x00\n      swap1\n      sload\n      swap1\n      0x0100\n      exp\n      swap1\n      div\n      0xffffffffffffffffffffffffffffffffffffffff\n      and\n      dup2\n      jump\t// out\n        /* \"contracts/EnergyTradingEscrow.sol\":8297:8723  function removePendingTransaction(uint _transactionId) private {... */\n    tag_108:\n        /* \"contracts/EnergyTradingEscrow.sol\":8376:8382  uint i */\n      0x00\n        /* \"contracts/EnergyTradingEscrow.sol\":8371:8716  for (uint i = 0; i < pendingTransactions.length; i++) {... */\n    tag_322:\n        /* \"contracts/EnergyTradingEscrow.sol\":8392:8411  pendingTransactions */\n      0x05\n        /* \"contracts/EnergyTradingEscrow.sol\":8392:8418  pendingTransactions.length */\n      dup1\n      sload\n      swap1\n      pop\n        /* \"contracts/EnergyTradingEscrow.sol\":8388:8389  i */\n      dup2\n        /* \"contracts/EnergyTradingEscrow.sol\":8388:8418  i < pendingTransactions.length */\n      lt\n        /* \"contracts/EnergyTradingEscrow.sol\":8371:8716  for (uint i = 0; i < pendingTransactions.length; i++) {... */\n      iszero\n      tag_323\n      jumpi\n        /* \"contracts/EnergyTradingEscrow.sol\":8470:8484  _transactionId */\n      dup2\n        /* \"contracts/EnergyTradingEscrow.sol\":8444:8463  pendingTransactions */\n      0x05\n        /* \"contracts/EnergyTradingEscrow.sol\":8464:8465  i */\n      dup3\n        /* \"contracts/EnergyTradingEscrow.sol\":8444:8466  pendingTransactions[i] */\n      dup2\n      sload\n      dup2\n      lt\n      tag_325\n      jumpi\n      tag_326\n      tag_205\n      jump\t// in\n    tag_326:\n    tag_325:\n      swap1\n      0x00\n      mstore\n      keccak256(0x00, 0x20)\n      add\n      sload\n        /* \"contracts/EnergyTradingEscrow.sol\":8444:8484  pendingTransactions[i] == _transactionId */\n      sub\n        /* \"contracts/EnergyTradingEscrow.sol\":8440:8705  if (pendingTransactions[i] == _transactionId) {... */\n      tag_328\n      jumpi\n        /* \"contracts/EnergyTradingEscrow.sol\":8530:8549  pendingTransactions */\n      0x05\n        /* \"contracts/EnergyTradingEscrow.sol\":8601:8602  1 */\n      0x01\n        /* \"contracts/EnergyTradingEscrow.sol\":8572:8591  pendingTransactions */\n      0x05\n        /* \"contracts/EnergyTradingEscrow.sol\":8572:8598  pendingTransactions.length */\n      dup1\n      sload\n      swap1\n      pop\n        /* \"contracts/EnergyTradingEscrow.sol\":8572:8602  pendingTransactions.length - 1 */\n      tag_329\n      swap2\n      swap1\n      tag_122\n      jump\t// in\n    tag_329:\n        /* \"contracts/EnergyTradingEscrow.sol\":8530:8621  pendingTransactions[... */\n      dup2\n      sload\n      dup2\n      lt\n      tag_330\n      jumpi\n      tag_331\n      tag_205\n      jump\t// in\n    tag_331:\n    tag_330:\n      swap1\n      0x00\n      mstore\n      keccak256(0x00, 0x20)\n      add\n      sload\n        /* \"contracts/EnergyTradingEscrow.sol\":8505:8524  pendingTransactions */\n      0x05\n        /* \"contracts/EnergyTradingEscrow.sol\":8525:8526  i */\n      dup3\n        /* \"contracts/EnergyTradingEscrow.sol\":8505:8527  pendingTransactions[i] */\n      dup2\n      sload\n      dup2\n      lt\n      tag_333\n      jumpi\n      tag_334\n      tag_205\n      jump\t// in\n    tag_334:\n    tag_333:\n      swap1\n      0x00\n      mstore\n      keccak256(0x00, 0x20)\n      add\n        /* \"contracts/EnergyTradingEscrow.sol\":8505:8621  pendingTransactions[i] = pendingTransactions[... */\n      dup2\n      swap1\n      sstore\n      pop\n        /* \"contracts/EnergyTradingEscrow.sol\":8640:8659  pendingTransactions */\n      0x05\n        /* \"contracts/EnergyTradingEscrow.sol\":8640:8665  pendingTransactions.pop() */\n      dup1\n      sload\n      dup1\n      tag_336\n      jumpi\n      tag_337\n      tag_217\n      jump\t// in\n    tag_337:\n    tag_336:\n      0x01\n      swap1\n      sub\n      dup2\n      dup2\n      swap1\n      0x00\n      mstore\n      keccak256(0x00, 0x20)\n      add\n      0x00\n      swap1\n      sstore\n      swap1\n      sstore\n        /* \"contracts/EnergyTradingEscrow.sol\":8684:8689  break */\n      jump(tag_323)\n        /* \"contracts/EnergyTradingEscrow.sol\":8440:8705  if (pendingTransactions[i] == _transactionId) {... */\n    tag_328:\n        /* \"contracts/EnergyTradingEscrow.sol\":8420:8423  i++ */\n      dup1\n      dup1\n      0x01\n      add\n      swap2\n      pop\n      pop\n        /* \"contracts/EnergyTradingEscrow.sol\":8371:8716  for (uint i = 0; i < pendingTransactions.length; i++) {... */\n      jump(tag_322)\n    tag_323:\n      pop\n        /* \"contracts/EnergyTradingEscrow.sol\":8297:8723  function removePendingTransaction(uint _transactionId) private {... */\n      pop\n      jump\t// out\n    tag_223:\n      pop\n      dup1\n      sload\n      tag_339\n      swap1\n      tag_230\n      jump\t// in\n    tag_339:\n      0x00\n      dup3\n      sstore\n      dup1\n      0x1f\n      lt\n      tag_341\n      jumpi\n      pop\n      jump(tag_340)\n    tag_341:\n      0x1f\n      add\n      0x20\n      swap1\n      div\n      swap1\n      0x00\n      mstore\n      keccak256(0x00, 0x20)\n      swap1\n      dup2\n      add\n      swap1\n      tag_342\n      swap2\n      swap1\n      tag_343\n      jump\t// in\n    tag_342:\n    tag_340:\n      pop\n      jump\t// out\n    tag_225:\n      mload(0x40)\n      dup1\n      0xc0\n      add\n      0x40\n      mstore\n      dup1\n      0x60\n      dup2\n      mstore\n      0x20\n      add\n      0x00\n      dup2\n      mstore\n      0x20\n      add\n      0x00\n      dup2\n      mstore\n      0x20\n      add\n      0x00\n      dup2\n      mstore\n      0x20\n      add\n      0x00\n      dup2\n      mstore\n      0x20\n      add\n      iszero(iszero(0x00))\n      dup2\n      mstore\n      pop\n      swap1\n      jump\t// out\n    tag_257:\n      mload(0x40)\n      dup1\n      0x0120\n      add\n      0x40\n      mstore\n      dup1\n      0x00\n      dup2\n      mstore\n      0x20\n      add\n      and(0xffffffffffffffffffffffffffffffffffffffff, 0x00)\n      dup2\n      mstore\n      0x20\n      add\n      and(0xffffffffffffffffffffffffffffffffffffffff, 0x00)\n      dup2\n      mstore\n      0x20\n      add\n      0x00\n      dup2\n      mstore\n      0x20\n      add\n      0x00\n      dup2\n      mstore\n      0x20\n      add\n      0x00\n      dup2\n      mstore\n      0x20\n      add\n      iszero(iszero(0x00))\n      dup2\n      mstore\n      0x20\n      add\n      0x60\n      dup2\n      mstore\n      0x20\n      add\n      0x00\n      0x01\n      dup2\n      gt\n      iszero\n      tag_344\n      jumpi\n      tag_345\n      tag_117\n      jump\t// in\n    tag_345:\n    tag_344:\n      dup2\n      mstore\n      pop\n      swap1\n      jump\t// out\n    tag_343:\n    tag_346:\n      dup1\n      dup3\n      gt\n      iszero\n      tag_347\n      jumpi\n      0x00\n      dup2\n      0x00\n      swap1\n      sstore\n      pop\n      0x01\n      add\n      jump(tag_346)\n    tag_347:\n      pop\n      swap1\n      jump\t// out\n        /* \"#utility.yul\":7:82   */\n    tag_348:\n        /* \"#utility.yul\":40:46   */\n      0x00\n        /* \"#utility.yul\":73:75   */\n      0x40\n        /* \"#utility.yul\":67:76   */\n      mload\n        /* \"#utility.yul\":57:76   */\n      swap1\n      pop\n        /* \"#utility.yul\":7:82   */\n      swap1\n      jump\t// out\n        /* \"#utility.yul\":88:205   */\n    tag_349:\n        /* \"#utility.yul\":197:198   */\n      0x00\n        /* \"#utility.yul\":194:195   */\n      dup1\n        /* \"#utility.yul\":187:199   */\n      revert\n        /* \"#utility.yul\":211:328   */\n    tag_350:\n        /* \"#utility.yul\":320:321   */\n      0x00\n        /* \"#utility.yul\":317:318   */\n      dup1\n        /* \"#utility.yul\":310:322   */\n      revert\n        /* \"#utility.yul\":334:411   */\n    tag_351:\n        /* \"#utility.yul\":371:378   */\n      0x00\n        /* \"#utility.yul\":400:405   */\n      dup2\n        /* \"#utility.yul\":389:405   */\n      swap1\n      pop\n        /* \"#utility.yul\":334:411   */\n      swap2\n      swap1\n      pop\n      jump\t// out\n        /* \"#utility.yul\":417:539   */\n    tag_352:\n        /* \"#utility.yul\":490:514   */\n      tag_465\n        /* \"#utility.yul\":508:513   */\n      dup2\n        /* \"#utility.yul\":490:514   */\n      tag_351\n      jump\t// in\n    tag_465:\n        /* \"#utility.yul\":483:488   */\n      dup2\n        /* \"#utility.yul\":480:515   */\n      eq\n        /* \"#utility.yul\":470:533   */\n      tag_466\n      jumpi\n        /* \"#utility.yul\":529:530   */\n      0x00\n        /* \"#utility.yul\":526:527   */\n      dup1\n        /* \"#utility.yul\":519:531   */\n      revert\n        /* \"#utility.yul\":470:533   */\n    tag_466:\n        /* \"#utility.yul\":417:539   */\n      pop\n      jump\t// out\n        /* \"#utility.yul\":545:684   */\n    tag_353:\n        /* \"#utility.yul\":591:596   */\n      0x00\n        /* \"#utility.yul\":629:635   */\n      dup2\n        /* \"#utility.yul\":616:636   */\n      calldataload\n        /* \"#utility.yul\":607:636   */\n      swap1\n      pop\n        /* \"#utility.yul\":645:678   */\n      tag_468\n        /* \"#utility.yul\":672:677   */\n      dup2\n        /* \"#utility.yul\":645:678   */\n      tag_352\n      jump\t// in\n    tag_468:\n        /* \"#utility.yul\":545:684   */\n      swap3\n      swap2\n      pop\n      pop\n      jump\t// out\n        /* \"#utility.yul\":690:780   */\n    tag_354:\n        /* \"#utility.yul\":724:731   */\n      0x00\n        /* \"#utility.yul\":767:772   */\n      dup2\n        /* \"#utility.yul\":760:773   */\n      iszero\n        /* \"#utility.yul\":753:774   */\n      iszero\n        /* \"#utility.yul\":742:774   */\n      swap1\n      pop\n        /* \"#utility.yul\":690:780   */\n      swap2\n      swap1\n      pop\n      jump\t// out\n        /* \"#utility.yul\":786:902   */\n    tag_355:\n        /* \"#utility.yul\":856:877   */\n      tag_471\n        /* \"#utility.yul\":871:876   */\n      dup2\n        /* \"#utility.yul\":856:877   */\n      tag_354\n      jump\t// in\n    tag_471:\n        /* \"#utility.yul\":849:854   */\n      dup2\n        /* \"#utility.yul\":846:878   */\n      eq\n        /* \"#utility.yul\":836:896   */\n      tag_472\n      jumpi\n        /* \"#utility.yul\":892:893   */\n      0x00\n        /* \"#utility.yul\":889:890   */\n      dup1\n        /* \"#utility.yul\":882:894   */\n      revert\n        /* \"#utility.yul\":836:896   */\n    tag_472:\n        /* \"#utility.yul\":786:902   */\n      pop\n      jump\t// out\n        /* \"#utility.yul\":908:1041   */\n    tag_356:\n        /* \"#utility.yul\":951:956   */\n      0x00\n        /* \"#utility.yul\":989:995   */\n      dup2\n        /* \"#utility.yul\":976:996   */\n      calldataload\n        /* \"#utility.yul\":967:996   */\n      swap1\n      pop\n        /* \"#utility.yul\":1005:1035   */\n      tag_474\n        /* \"#utility.yul\":1029:1034   */\n      dup2\n        /* \"#utility.yul\":1005:1035   */\n      tag_355\n      jump\t// in\n    tag_474:\n        /* \"#utility.yul\":908:1041   */\n      swap3\n      swap2\n      pop\n      pop\n      jump\t// out\n        /* \"#utility.yul\":1047:1515   */\n    tag_25:\n        /* \"#utility.yul\":1112:1118   */\n      0x00\n        /* \"#utility.yul\":1120:1126   */\n      dup1\n        /* \"#utility.yul\":1169:1171   */\n      0x40\n        /* \"#utility.yul\":1157:1166   */\n      dup4\n        /* \"#utility.yul\":1148:1155   */\n      dup6\n        /* \"#utility.yul\":1144:1167   */\n      sub\n        /* \"#utility.yul\":1140:1172   */\n      slt\n        /* \"#utility.yul\":1137:1256   */\n      iszero\n      tag_476\n      jumpi\n        /* \"#utility.yul\":1175:1254   */\n      tag_477\n      tag_349\n      jump\t// in\n    tag_477:\n        /* \"#utility.yul\":1137:1256   */\n    tag_476:\n        /* \"#utility.yul\":1295:1296   */\n      0x00\n        /* \"#utility.yul\":1320:1373   */\n      tag_478\n        /* \"#utility.yul\":1365:1372   */\n      dup6\n        /* \"#utility.yul\":1356:1362   */\n      dup3\n        /* \"#utility.yul\":1345:1354   */\n      dup7\n        /* \"#utility.yul\":1341:1363   */\n      add\n        /* \"#utility.yul\":1320:1373   */\n      tag_353\n      jump\t// in\n    tag_478:\n        /* \"#utility.yul\":1310:1373   */\n      swap3\n      pop\n        /* \"#utility.yul\":1266:1383   */\n      pop\n        /* \"#utility.yul\":1422:1424   */\n      0x20\n        /* \"#utility.yul\":1448:1498   */\n      tag_479\n        /* \"#utility.yul\":1490:1497   */\n      dup6\n        /* \"#utility.yul\":1481:1487   */\n      dup3\n        /* \"#utility.yul\":1470:1479   */\n      dup7\n        /* \"#utility.yul\":1466:1488   */\n      add\n        /* \"#utility.yul\":1448:1498   */\n      tag_356\n      jump\t// in\n    tag_479:\n        /* \"#utility.yul\":1438:1498   */\n      swap2\n      pop\n        /* \"#utility.yul\":1393:1508   */\n      pop\n        /* \"#utility.yul\":1047:1515   */\n      swap3\n      pop\n      swap3\n      swap1\n      pop\n      jump\t// out\n        /* \"#utility.yul\":1521:1647   */\n    tag_357:\n        /* \"#utility.yul\":1558:1565   */\n      0x00\n        /* \"#utility.yul\":1598:1640   */\n      0xffffffffffffffffffffffffffffffffffffffff\n        /* \"#utility.yul\":1591:1596   */\n      dup3\n        /* \"#utility.yul\":1587:1641   */\n      and\n        /* \"#utility.yul\":1576:1641   */\n      swap1\n      pop\n        /* \"#utility.yul\":1521:1647   */\n      swap2\n      swap1\n      pop\n      jump\t// out\n        /* \"#utility.yul\":1653:1749   */\n    tag_358:\n        /* \"#utility.yul\":1690:1697   */\n      0x00\n        /* \"#utility.yul\":1719:1743   */\n      tag_482\n        /* \"#utility.yul\":1737:1742   */\n      dup3\n        /* \"#utility.yul\":1719:1743   */\n      tag_357\n      jump\t// in\n    tag_482:\n        /* \"#utility.yul\":1708:1743   */\n      swap1\n      pop\n        /* \"#utility.yul\":1653:1749   */\n      swap2\n      swap1\n      pop\n      jump\t// out\n        /* \"#utility.yul\":1755:1877   */\n    tag_359:\n        /* \"#utility.yul\":1828:1852   */\n      tag_484\n        /* \"#utility.yul\":1846:1851   */\n      dup2\n        /* \"#utility.yul\":1828:1852   */\n      tag_358\n      jump\t// in\n    tag_484:\n        /* \"#utility.yul\":1821:1826   */\n      dup2\n        /* \"#utility.yul\":1818:1853   */\n      eq\n        /* \"#utility.yul\":1808:1871   */\n      tag_485\n      jumpi\n        /* \"#utility.yul\":1867:1868   */\n      0x00\n        /* \"#utility.yul\":1864:1865   */\n      dup1\n        /* \"#utility.yul\":1857:1869   */\n      revert\n        /* \"#utility.yul\":1808:1871   */\n    tag_485:\n        /* \"#utility.yul\":1755:1877   */\n      pop\n      jump\t// out\n        /* \"#utility.yul\":1883:2022   */\n    tag_360:\n        /* \"#utility.yul\":1929:1934   */\n      0x00\n        /* \"#utility.yul\":1967:1973   */\n      dup2\n        /* \"#utility.yul\":1954:1974   */\n      calldataload\n        /* \"#utility.yul\":1945:1974   */\n      swap1\n      pop\n        /* \"#utility.yul\":1983:2016   */\n      tag_487\n        /* \"#utility.yul\":2010:2015   */\n      dup2\n        /* \"#utility.yul\":1983:2016   */\n      tag_359\n      jump\t// in\n    tag_487:\n        /* \"#utility.yul\":1883:2022   */\n      swap3\n      swap2\n      pop\n      pop\n      jump\t// out\n        /* \"#utility.yul\":2028:2357   */\n    tag_29:\n        /* \"#utility.yul\":2087:2093   */\n      0x00\n        /* \"#utility.yul\":2136:2138   */\n      0x20\n        /* \"#utility.yul\":2124:2133   */\n      dup3\n        /* \"#utility.yul\":2115:2122   */\n      dup5\n        /* \"#utility.yul\":2111:2134   */\n      sub\n        /* \"#utility.yul\":2107:2139   */\n      slt\n        /* \"#utility.yul\":2104:2223   */\n      iszero\n      tag_489\n      jumpi\n        /* \"#utility.yul\":2142:2221   */\n      tag_490\n      tag_349\n      jump\t// in\n    tag_490:\n        /* \"#utility.yul\":2104:2223   */\n    tag_489:\n        /* \"#utility.yul\":2262:2263   */\n      0x00\n        /* \"#utility.yul\":2287:2340   */\n      tag_491\n        /* \"#utility.yul\":2332:2339   */\n      dup5\n        /* \"#utility.yul\":2323:2329   */\n      dup3\n        /* \"#utility.yul\":2312:2321   */\n      dup6\n        /* \"#utility.yul\":2308:2330   */\n      add\n        /* \"#utility.yul\":2287:2340   */\n      tag_360\n      jump\t// in\n    tag_491:\n        /* \"#utility.yul\":2277:2340   */\n      swap2\n      pop\n        /* \"#utility.yul\":2233:2350   */\n      pop\n        /* \"#utility.yul\":2028:2357   */\n      swap3\n      swap2\n      pop\n      pop\n      jump\t// out\n        /* \"#utility.yul\":2363:2472   */\n    tag_361:\n        /* \"#utility.yul\":2444:2465   */\n      tag_493\n        /* \"#utility.yul\":2459:2464   */\n      dup2\n        /* \"#utility.yul\":2444:2465   */\n      tag_354\n      jump\t// in\n    tag_493:\n        /* \"#utility.yul\":2439:2442   */\n      dup3\n        /* \"#utility.yul\":2432:2466   */\n      mstore\n        /* \"#utility.yul\":2363:2472   */\n      pop\n      pop\n      jump\t// out\n        /* \"#utility.yul\":2478:2688   */\n    tag_32:\n        /* \"#utility.yul\":2565:2569   */\n      0x00\n        /* \"#utility.yul\":2603:2605   */\n      0x20\n        /* \"#utility.yul\":2592:2601   */\n      dup3\n        /* \"#utility.yul\":2588:2606   */\n      add\n        /* \"#utility.yul\":2580:2606   */\n      swap1\n      pop\n        /* \"#utility.yul\":2616:2681   */\n      tag_495\n        /* \"#utility.yul\":2678:2679   */\n      0x00\n        /* \"#utility.yul\":2667:2676   */\n      dup4\n        /* \"#utility.yul\":2663:2680   */\n      add\n        /* \"#utility.yul\":2654:2660   */\n      dup5\n        /* \"#utility.yul\":2616:2681   */\n      tag_361\n      jump\t// in\n    tag_495:\n        /* \"#utility.yul\":2478:2688   */\n      swap3\n      swap2\n      pop\n      pop\n      jump\t// out\n        /* \"#utility.yul\":2694:2811   */\n    tag_362:\n        /* \"#utility.yul\":2803:2804   */\n      0x00\n        /* \"#utility.yul\":2800:2801   */\n      dup1\n        /* \"#utility.yul\":2793:2805   */\n      revert\n        /* \"#utility.yul\":2817:2934   */\n    tag_363:\n        /* \"#utility.yul\":2926:2927   */\n      0x00\n        /* \"#utility.yul\":2923:2924   */\n      dup1\n        /* \"#utility.yul\":2916:2928   */\n      revert\n        /* \"#utility.yul\":2940:3042   */\n    tag_364:\n        /* \"#utility.yul\":2981:2987   */\n      0x00\n        /* \"#utility.yul\":3032:3034   */\n      0x1f\n        /* \"#utility.yul\":3028:3035   */\n      not\n        /* \"#utility.yul\":3023:3025   */\n      0x1f\n        /* \"#utility.yul\":3016:3021   */\n      dup4\n        /* \"#utility.yul\":3012:3026   */\n      add\n        /* \"#utility.yul\":3008:3036   */\n      and\n        /* \"#utility.yul\":2998:3036   */\n      swap1\n      pop\n        /* \"#utility.yul\":2940:3042   */\n      swap2\n      swap1\n      pop\n      jump\t// out\n        /* \"#utility.yul\":3048:3228   */\n    tag_253:\n        /* \"#utility.yul\":3096:3173   */\n      0x4e487b7100000000000000000000000000000000000000000000000000000000\n        /* \"#utility.yul\":3093:3094   */\n      0x00\n        /* \"#utility.yul\":3086:3174   */\n      mstore\n        /* \"#utility.yul\":3193:3197   */\n      0x41\n        /* \"#utility.yul\":3190:3191   */\n      0x04\n        /* \"#utility.yul\":3183:3198   */\n      mstore\n        /* \"#utility.yul\":3217:3221   */\n      0x24\n        /* \"#utility.yul\":3214:3215   */\n      0x00\n        /* \"#utility.yul\":3207:3222   */\n      revert\n        /* \"#utility.yul\":3234:3515   */\n    tag_365:\n        /* \"#utility.yul\":3317:3344   */\n      tag_501\n        /* \"#utility.yul\":3339:3343   */\n      dup3\n        /* \"#utility.yul\":3317:3344   */\n      tag_364\n      jump\t// in\n    tag_501:\n        /* \"#utility.yul\":3309:3315   */\n      dup2\n        /* \"#utility.yul\":3305:3345   */\n      add\n        /* \"#utility.yul\":3447:3453   */\n      dup2\n        /* \"#utility.yul\":3435:3445   */\n      dup2\n        /* \"#utility.yul\":3432:3454   */\n      lt\n        /* \"#utility.yul\":3411:3429   */\n      0xffffffffffffffff\n        /* \"#utility.yul\":3399:3409   */\n      dup3\n        /* \"#utility.yul\":3396:3430   */\n      gt\n        /* \"#utility.yul\":3393:3455   */\n      or\n        /* \"#utility.yul\":3390:3478   */\n      iszero\n      tag_502\n      jumpi\n        /* \"#utility.yul\":3458:3476   */\n      tag_503\n      tag_253\n      jump\t// in\n    tag_503:\n        /* \"#utility.yul\":3390:3478   */\n    tag_502:\n        /* \"#utility.yul\":3498:3508   */\n      dup1\n        /* \"#utility.yul\":3494:3496   */\n      0x40\n        /* \"#utility.yul\":3487:3509   */\n      mstore\n        /* \"#utility.yul\":3277:3515   */\n      pop\n        /* \"#utility.yul\":3234:3515   */\n      pop\n      pop\n      jump\t// out\n        /* \"#utility.yul\":3521:3650   */\n    tag_366:\n        /* \"#utility.yul\":3555:3561   */\n      0x00\n        /* \"#utility.yul\":3582:3602   */\n      tag_505\n      tag_348\n      jump\t// in\n    tag_505:\n        /* \"#utility.yul\":3572:3602   */\n      swap1\n      pop\n        /* \"#utility.yul\":3611:3644   */\n      tag_506\n        /* \"#utility.yul\":3639:3643   */\n      dup3\n        /* \"#utility.yul\":3631:3637   */\n      dup3\n        /* \"#utility.yul\":3611:3644   */\n      tag_365\n      jump\t// in\n    tag_506:\n        /* \"#utility.yul\":3521:3650   */\n      swap2\n      swap1\n      pop\n      jump\t// out\n        /* \"#utility.yul\":3656:3964   */\n    tag_367:\n        /* \"#utility.yul\":3718:3722   */\n      0x00\n        /* \"#utility.yul\":3808:3826   */\n      0xffffffffffffffff\n        /* \"#utility.yul\":3800:3806   */\n      dup3\n        /* \"#utility.yul\":3797:3827   */\n      gt\n        /* \"#utility.yul\":3794:3850   */\n      iszero\n      tag_508\n      jumpi\n        /* \"#utility.yul\":3830:3848   */\n      tag_509\n      tag_253\n      jump\t// in\n    tag_509:\n        /* \"#utility.yul\":3794:3850   */\n    tag_508:\n        /* \"#utility.yul\":3868:3897   */\n      tag_510\n        /* \"#utility.yul\":3890:3896   */\n      dup3\n        /* \"#utility.yul\":3868:3897   */\n      tag_364\n      jump\t// in\n    tag_510:\n        /* \"#utility.yul\":3860:3897   */\n      swap1\n      pop\n        /* \"#utility.yul\":3952:3956   */\n      0x20\n        /* \"#utility.yul\":3946:3950   */\n      dup2\n        /* \"#utility.yul\":3942:3957   */\n      add\n        /* \"#utility.yul\":3934:3957   */\n      swap1\n      pop\n        /* \"#utility.yul\":3656:3964   */\n      swap2\n      swap1\n      pop\n      jump\t// out\n        /* \"#utility.yul\":3970:4116   */\n    tag_368:\n        /* \"#utility.yul\":4067:4073   */\n      dup3\n        /* \"#utility.yul\":4062:4065   */\n      dup2\n        /* \"#utility.yul\":4057:4060   */\n      dup4\n        /* \"#utility.yul\":4044:4074   */\n      calldatacopy\n        /* \"#utility.yul\":4108:4109   */\n      0x00\n        /* \"#utility.yul\":4099:4105   */\n      dup4\n        /* \"#utility.yul\":4094:4097   */\n      dup4\n        /* \"#utility.yul\":4090:4106   */\n      add\n        /* \"#utility.yul\":4083:4110   */\n      mstore\n        /* \"#utility.yul\":3970:4116   */\n      pop\n      pop\n      pop\n      jump\t// out\n        /* \"#utility.yul\":4122:4547   */\n    tag_369:\n        /* \"#utility.yul\":4200:4205   */\n      0x00\n        /* \"#utility.yul\":4225:4291   */\n      tag_513\n        /* \"#utility.yul\":4241:4290   */\n      tag_514\n        /* \"#utility.yul\":4283:4289   */\n      dup5\n        /* \"#utility.yul\":4241:4290   */\n      tag_367\n      jump\t// in\n    tag_514:\n        /* \"#utility.yul\":4225:4291   */\n      tag_366\n      jump\t// in\n    tag_513:\n        /* \"#utility.yul\":4216:4291   */\n      swap1\n      pop\n        /* \"#utility.yul\":4314:4320   */\n      dup3\n        /* \"#utility.yul\":4307:4312   */\n      dup2\n        /* \"#utility.yul\":4300:4321   */\n      mstore\n        /* \"#utility.yul\":4352:4356   */\n      0x20\n        /* \"#utility.yul\":4345:4350   */\n      dup2\n        /* \"#utility.yul\":4341:4357   */\n      add\n        /* \"#utility.yul\":4390:4393   */\n      dup5\n        /* \"#utility.yul\":4381:4387   */\n      dup5\n        /* \"#utility.yul\":4376:4379   */\n      dup5\n        /* \"#utility.yul\":4372:4388   */\n      add\n        /* \"#utility.yul\":4369:4394   */\n      gt\n        /* \"#utility.yul\":4366:4478   */\n      iszero\n      tag_515\n      jumpi\n        /* \"#utility.yul\":4397:4476   */\n      tag_516\n      tag_363\n      jump\t// in\n    tag_516:\n        /* \"#utility.yul\":4366:4478   */\n    tag_515:\n        /* \"#utility.yul\":4487:4541   */\n      tag_517\n        /* \"#utility.yul\":4534:4540   */\n      dup5\n        /* \"#utility.yul\":4529:4532   */\n      dup3\n        /* \"#utility.yul\":4524:4527   */\n      dup6\n        /* \"#utility.yul\":4487:4541   */\n      tag_368\n      jump\t// in\n    tag_517:\n        /* \"#utility.yul\":4206:4547   */\n      pop\n        /* \"#utility.yul\":4122:4547   */\n      swap4\n      swap3\n      pop\n      pop\n      pop\n      jump\t// out\n        /* \"#utility.yul\":4567:4907   */\n    tag_370:\n        /* \"#utility.yul\":4623:4628   */\n      0x00\n        /* \"#utility.yul\":4672:4675   */\n      dup3\n        /* \"#utility.yul\":4665:4669   */\n      0x1f\n        /* \"#utility.yul\":4657:4663   */\n      dup4\n        /* \"#utility.yul\":4653:4670   */\n      add\n        /* \"#utility.yul\":4649:4676   */\n      slt\n        /* \"#utility.yul\":4639:4761   */\n      tag_519\n      jumpi\n        /* \"#utility.yul\":4680:4759   */\n      tag_520\n      tag_362\n      jump\t// in\n    tag_520:\n        /* \"#utility.yul\":4639:4761   */\n    tag_519:\n        /* \"#utility.yul\":4797:4803   */\n      dup2\n        /* \"#utility.yul\":4784:4804   */\n      calldataload\n        /* \"#utility.yul\":4822:4901   */\n      tag_521\n        /* \"#utility.yul\":4897:4900   */\n      dup5\n        /* \"#utility.yul\":4889:4895   */\n      dup3\n        /* \"#utility.yul\":4882:4886   */\n      0x20\n        /* \"#utility.yul\":4874:4880   */\n      dup7\n        /* \"#utility.yul\":4870:4887   */\n      add\n        /* \"#utility.yul\":4822:4901   */\n      tag_369\n      jump\t// in\n    tag_521:\n        /* \"#utility.yul\":4813:4901   */\n      swap2\n      pop\n        /* \"#utility.yul\":4629:4907   */\n      pop\n        /* \"#utility.yul\":4567:4907   */\n      swap3\n      swap2\n      pop\n      pop\n      jump\t// out\n        /* \"#utility.yul\":4913:4989   */\n    tag_371:\n        /* \"#utility.yul\":4949:4956   */\n      0x00\n        /* \"#utility.yul\":4978:4983   */\n      dup2\n        /* \"#utility.yul\":4967:4983   */\n      swap1\n      pop\n        /* \"#utility.yul\":4913:4989   */\n      swap2\n      swap1\n      pop\n      jump\t// out\n        /* \"#utility.yul\":4995:5115   */\n    tag_372:\n        /* \"#utility.yul\":5067:5090   */\n      tag_524\n        /* \"#utility.yul\":5084:5089   */\n      dup2\n        /* \"#utility.yul\":5067:5090   */\n      tag_371\n      jump\t// in\n    tag_524:\n        /* \"#utility.yul\":5060:5065   */\n      dup2\n        /* \"#utility.yul\":5057:5091   */\n      eq\n        /* \"#utility.yul\":5047:5109   */\n      tag_525\n      jumpi\n        /* \"#utility.yul\":5105:5106   */\n      0x00\n        /* \"#utility.yul\":5102:5103   */\n      dup1\n        /* \"#utility.yul\":5095:5107   */\n      revert\n        /* \"#utility.yul\":5047:5109   */\n    tag_525:\n        /* \"#utility.yul\":4995:5115   */\n      pop\n      jump\t// out\n        /* \"#utility.yul\":5121:5258   */\n    tag_373:\n        /* \"#utility.yul\":5166:5171   */\n      0x00\n        /* \"#utility.yul\":5204:5210   */\n      dup2\n        /* \"#utility.yul\":5191:5211   */\n      calldataload\n        /* \"#utility.yul\":5182:5211   */\n      swap1\n      pop\n        /* \"#utility.yul\":5220:5252   */\n      tag_527\n        /* \"#utility.yul\":5246:5251   */\n      dup2\n        /* \"#utility.yul\":5220:5252   */\n      tag_372\n      jump\t// in\n    tag_527:\n        /* \"#utility.yul\":5121:5258   */\n      swap3\n      swap2\n      pop\n      pop\n      jump\t// out\n        /* \"#utility.yul\":5264:6351   */\n    tag_35:\n        /* \"#utility.yul\":5367:5373   */\n      0x00\n        /* \"#utility.yul\":5375:5381   */\n      dup1\n        /* \"#utility.yul\":5383:5389   */\n      0x00\n        /* \"#utility.yul\":5391:5397   */\n      dup1\n        /* \"#utility.yul\":5399:5405   */\n      0x00\n        /* \"#utility.yul\":5448:5451   */\n      0xa0\n        /* \"#utility.yul\":5436:5445   */\n      dup7\n        /* \"#utility.yul\":5427:5434   */\n      dup9\n        /* \"#utility.yul\":5423:5446   */\n      sub\n        /* \"#utility.yul\":5419:5452   */\n      slt\n        /* \"#utility.yul\":5416:5536   */\n      iszero\n      tag_529\n      jumpi\n        /* \"#utility.yul\":5455:5534   */\n      tag_530\n      tag_349\n      jump\t// in\n    tag_530:\n        /* \"#utility.yul\":5416:5536   */\n    tag_529:\n        /* \"#utility.yul\":5603:5604   */\n      0x00\n        /* \"#utility.yul\":5592:5601   */\n      dup7\n        /* \"#utility.yul\":5588:5605   */\n      add\n        /* \"#utility.yul\":5575:5606   */\n      calldataload\n        /* \"#utility.yul\":5633:5651   */\n      0xffffffffffffffff\n        /* \"#utility.yul\":5625:5631   */\n      dup2\n        /* \"#utility.yul\":5622:5652   */\n      gt\n        /* \"#utility.yul\":5619:5736   */\n      iszero\n      tag_531\n      jumpi\n        /* \"#utility.yul\":5655:5734   */\n      tag_532\n      tag_350\n      jump\t// in\n    tag_532:\n        /* \"#utility.yul\":5619:5736   */\n    tag_531:\n        /* \"#utility.yul\":5760:5823   */\n      tag_533\n        /* \"#utility.yul\":5815:5822   */\n      dup9\n        /* \"#utility.yul\":5806:5812   */\n      dup3\n        /* \"#utility.yul\":5795:5804   */\n      dup10\n        /* \"#utility.yul\":5791:5813   */\n      add\n        /* \"#utility.yul\":5760:5823   */\n      tag_370\n      jump\t// in\n    tag_533:\n        /* \"#utility.yul\":5750:5823   */\n      swap6\n      pop\n        /* \"#utility.yul\":5546:5833   */\n      pop\n        /* \"#utility.yul\":5872:5874   */\n      0x20\n        /* \"#utility.yul\":5898:5950   */\n      tag_534\n        /* \"#utility.yul\":5942:5949   */\n      dup9\n        /* \"#utility.yul\":5933:5939   */\n      dup3\n        /* \"#utility.yul\":5922:5931   */\n      dup10\n        /* \"#utility.yul\":5918:5940   */\n      add\n        /* \"#utility.yul\":5898:5950   */\n      tag_373\n      jump\t// in\n    tag_534:\n        /* \"#utility.yul\":5888:5950   */\n      swap5\n      pop\n        /* \"#utility.yul\":5843:5960   */\n      pop\n        /* \"#utility.yul\":5999:6001   */\n      0x40\n        /* \"#utility.yul\":6025:6077   */\n      tag_535\n        /* \"#utility.yul\":6069:6076   */\n      dup9\n        /* \"#utility.yul\":6060:6066   */\n      dup3\n        /* \"#utility.yul\":6049:6058   */\n      dup10\n        /* \"#utility.yul\":6045:6067   */\n      add\n        /* \"#utility.yul\":6025:6077   */\n      tag_373\n      jump\t// in\n    tag_535:\n        /* \"#utility.yul\":6015:6077   */\n      swap4\n      pop\n        /* \"#utility.yul\":5970:6087   */\n      pop\n        /* \"#utility.yul\":6126:6128   */\n      0x60\n        /* \"#utility.yul\":6152:6205   */\n      tag_536\n        /* \"#utility.yul\":6197:6204   */\n      dup9\n        /* \"#utility.yul\":6188:6194   */\n      dup3\n        /* \"#utility.yul\":6177:6186   */\n      dup10\n        /* \"#utility.yul\":6173:6195   */\n      add\n        /* \"#utility.yul\":6152:6205   */\n      tag_353\n      jump\t// in\n    tag_536:\n        /* \"#utility.yul\":6142:6205   */\n      swap3\n      pop\n        /* \"#utility.yul\":6097:6215   */\n      pop\n        /* \"#utility.yul\":6254:6257   */\n      0x80\n        /* \"#utility.yul\":6281:6334   */\n      tag_537\n        /* \"#utility.yul\":6326:6333   */\n      dup9\n        /* \"#utility.yul\":6317:6323   */\n      dup3\n        /* \"#utility.yul\":6306:6315   */\n      dup10\n        /* \"#utility.yul\":6302:6324   */\n      add\n        /* \"#utility.yul\":6281:6334   */\n      tag_353\n      jump\t// in\n    tag_537:\n        /* \"#utility.yul\":6271:6334   */\n      swap2\n      pop\n        /* \"#utility.yul\":6225:6344   */\n      pop\n        /* \"#utility.yul\":5264:6351   */\n      swap3\n      swap6\n      pop\n      swap3\n      swap6\n      swap1\n      swap4\n      pop\n      jump\t// out\n        /* \"#utility.yul\":6357:7408   */\n    tag_42:\n        /* \"#utility.yul\":6458:6464   */\n      0x00\n        /* \"#utility.yul\":6466:6472   */\n      dup1\n        /* \"#utility.yul\":6474:6480   */\n      0x00\n        /* \"#utility.yul\":6482:6488   */\n      dup1\n        /* \"#utility.yul\":6490:6496   */\n      0x00\n        /* \"#utility.yul\":6498:6504   */\n      dup1\n        /* \"#utility.yul\":6547:6550   */\n      0xc0\n        /* \"#utility.yul\":6535:6544   */\n      dup8\n        /* \"#utility.yul\":6526:6533   */\n      dup10\n        /* \"#utility.yul\":6522:6545   */\n      sub\n        /* \"#utility.yul\":6518:6551   */\n      slt\n        /* \"#utility.yul\":6515:6635   */\n      iszero\n      tag_539\n      jumpi\n        /* \"#utility.yul\":6554:6633   */\n      tag_540\n      tag_349\n      jump\t// in\n    tag_540:\n        /* \"#utility.yul\":6515:6635   */\n    tag_539:\n        /* \"#utility.yul\":6674:6675   */\n      0x00\n        /* \"#utility.yul\":6699:6752   */\n      tag_541\n        /* \"#utility.yul\":6744:6751   */\n      dup10\n        /* \"#utility.yul\":6735:6741   */\n      dup3\n        /* \"#utility.yul\":6724:6733   */\n      dup11\n        /* \"#utility.yul\":6720:6742   */\n      add\n        /* \"#utility.yul\":6699:6752   */\n      tag_360\n      jump\t// in\n    tag_541:\n        /* \"#utility.yul\":6689:6752   */\n      swap7\n      pop\n        /* \"#utility.yul\":6645:6762   */\n      pop\n        /* \"#utility.yul\":6801:6803   */\n      0x20\n        /* \"#utility.yul\":6827:6880   */\n      tag_542\n        /* \"#utility.yul\":6872:6879   */\n      dup10\n        /* \"#utility.yul\":6863:6869   */\n      dup3\n        /* \"#utility.yul\":6852:6861   */\n      dup11\n        /* \"#utility.yul\":6848:6870   */\n      add\n        /* \"#utility.yul\":6827:6880   */\n      tag_360\n      jump\t// in\n    tag_542:\n        /* \"#utility.yul\":6817:6880   */\n      swap6\n      pop\n        /* \"#utility.yul\":6772:6890   */\n      pop\n        /* \"#utility.yul\":6929:6931   */\n      0x40\n        /* \"#utility.yul\":6955:7008   */\n      tag_543\n        /* \"#utility.yul\":7000:7007   */\n      dup10\n        /* \"#utility.yul\":6991:6997   */\n      dup3\n        /* \"#utility.yul\":6980:6989   */\n      dup11\n        /* \"#utility.yul\":6976:6998   */\n      add\n        /* \"#utility.yul\":6955:7008   */\n      tag_353\n      jump\t// in\n    tag_543:\n        /* \"#utility.yul\":6945:7008   */\n      swap5\n      pop\n        /* \"#utility.yul\":6900:7018   */\n      pop\n        /* \"#utility.yul\":7057:7059   */\n      0x60\n        /* \"#utility.yul\":7083:7136   */\n      tag_544\n        /* \"#utility.yul\":7128:7135   */\n      dup10\n        /* \"#utility.yul\":7119:7125   */\n      dup3\n        /* \"#utility.yul\":7108:7117   */\n      dup11\n        /* \"#utility.yul\":7104:7126   */\n      add\n        /* \"#utility.yul\":7083:7136   */\n      tag_353\n      jump\t// in\n    tag_544:\n        /* \"#utility.yul\":7073:7136   */\n      swap4\n      pop\n        /* \"#utility.yul\":7028:7146   */\n      pop\n        /* \"#utility.yul\":7185:7188   */\n      0x80\n        /* \"#utility.yul\":7212:7265   */\n      tag_545\n        /* \"#utility.yul\":7257:7264   */\n      dup10\n        /* \"#utility.yul\":7248:7254   */\n      dup3\n        /* \"#utility.yul\":7237:7246   */\n      dup11\n        /* \"#utility.yul\":7233:7255   */\n      add\n        /* \"#utility.yul\":7212:7265   */\n      tag_353\n      jump\t// in\n    tag_545:\n        /* \"#utility.yul\":7202:7265   */\n      swap3\n      pop\n        /* \"#utility.yul\":7156:7275   */\n      pop\n        /* \"#utility.yul\":7314:7317   */\n      0xa0\n        /* \"#utility.yul\":7341:7391   */\n      tag_546\n        /* \"#utility.yul\":7383:7390   */\n      dup10\n        /* \"#utility.yul\":7374:7380   */\n      dup3\n        /* \"#utility.yul\":7363:7372   */\n      dup11\n        /* \"#utility.yul\":7359:7381   */\n      add\n        /* \"#utility.yul\":7341:7391   */\n      tag_356\n      jump\t// in\n    tag_546:\n        /* \"#utility.yul\":7331:7391   */\n      swap2\n      pop\n        /* \"#utility.yul\":7285:7401   */\n      pop\n        /* \"#utility.yul\":6357:7408   */\n      swap3\n      swap6\n      pop\n      swap3\n      swap6\n      pop\n      swap3\n      swap6\n      jump\t// out\n        /* \"#utility.yul\":7414:7513   */\n    tag_374:\n        /* \"#utility.yul\":7466:7472   */\n      0x00\n        /* \"#utility.yul\":7500:7505   */\n      dup2\n        /* \"#utility.yul\":7494:7506   */\n      mload\n        /* \"#utility.yul\":7484:7506   */\n      swap1\n      pop\n        /* \"#utility.yul\":7414:7513   */\n      swap2\n      swap1\n      pop\n      jump\t// out\n        /* \"#utility.yul\":7519:7678   */\n    tag_375:\n        /* \"#utility.yul\":7593:7604   */\n      0x00\n        /* \"#utility.yul\":7627:7633   */\n      dup3\n        /* \"#utility.yul\":7622:7625   */\n      dup3\n        /* \"#utility.yul\":7615:7634   */\n      mstore\n        /* \"#utility.yul\":7667:7671   */\n      0x20\n        /* \"#utility.yul\":7662:7665   */\n      dup3\n        /* \"#utility.yul\":7658:7672   */\n      add\n        /* \"#utility.yul\":7643:7672   */\n      swap1\n      pop\n        /* \"#utility.yul\":7519:7678   */\n      swap3\n      swap2\n      pop\n      pop\n      jump\t// out\n        /* \"#utility.yul\":7684:7930   */\n    tag_376:\n        /* \"#utility.yul\":7765:7766   */\n      0x00\n        /* \"#utility.yul\":7775:7888   */\n    tag_550:\n        /* \"#utility.yul\":7789:7795   */\n      dup4\n        /* \"#utility.yul\":7786:7787   */\n      dup2\n        /* \"#utility.yul\":7783:7796   */\n      lt\n        /* \"#utility.yul\":7775:7888   */\n      iszero\n      tag_552\n      jumpi\n        /* \"#utility.yul\":7874:7875   */\n      dup1\n        /* \"#utility.yul\":7869:7872   */\n      dup3\n        /* \"#utility.yul\":7865:7876   */\n      add\n        /* \"#utility.yul\":7859:7877   */\n      mload\n        /* \"#utility.yul\":7855:7856   */\n      dup2\n        /* \"#utility.yul\":7850:7853   */\n      dup5\n        /* \"#utility.yul\":7846:7857   */\n      add\n        /* \"#utility.yul\":7839:7878   */\n      mstore\n        /* \"#utility.yul\":7811:7813   */\n      0x20\n        /* \"#utility.yul\":7808:7809   */\n      dup2\n        /* \"#utility.yul\":7804:7814   */\n      add\n        /* \"#utility.yul\":7799:7814   */\n      swap1\n      pop\n        /* \"#utility.yul\":7775:7888   */\n      jump(tag_550)\n    tag_552:\n        /* \"#utility.yul\":7922:7923   */\n      0x00\n        /* \"#utility.yul\":7913:7919   */\n      dup5\n        /* \"#utility.yul\":7908:7911   */\n      dup5\n        /* \"#utility.yul\":7904:7920   */\n      add\n        /* \"#utility.yul\":7897:7924   */\n      mstore\n        /* \"#utility.yul\":7746:7930   */\n      pop\n        /* \"#utility.yul\":7684:7930   */\n      pop\n      pop\n      pop\n      jump\t// out\n        /* \"#utility.yul\":7936:8293   */\n    tag_377:\n        /* \"#utility.yul\":8014:8017   */\n      0x00\n        /* \"#utility.yul\":8042:8081   */\n      tag_554\n        /* \"#utility.yul\":8075:8080   */\n      dup3\n        /* \"#utility.yul\":8042:8081   */\n      tag_374\n      jump\t// in\n    tag_554:\n        /* \"#utility.yul\":8097:8158   */\n      tag_555\n        /* \"#utility.yul\":8151:8157   */\n      dup2\n        /* \"#utility.yul\":8146:8149   */\n      dup6\n        /* \"#utility.yul\":8097:8158   */\n      tag_375\n      jump\t// in\n    tag_555:\n        /* \"#utility.yul\":8090:8158   */\n      swap4\n      pop\n        /* \"#utility.yul\":8167:8232   */\n      tag_556\n        /* \"#utility.yul\":8225:8231   */\n      dup2\n        /* \"#utility.yul\":8220:8223   */\n      dup6\n        /* \"#utility.yul\":8213:8217   */\n      0x20\n        /* \"#utility.yul\":8206:8211   */\n      dup7\n        /* \"#utility.yul\":8202:8218   */\n      add\n        /* \"#utility.yul\":8167:8232   */\n      tag_376\n      jump\t// in\n    tag_556:\n        /* \"#utility.yul\":8257:8286   */\n      tag_557\n        /* \"#utility.yul\":8279:8285   */\n      dup2\n        /* \"#utility.yul\":8257:8286   */\n      tag_364\n      jump\t// in\n    tag_557:\n        /* \"#utility.yul\":8252:8255   */\n      dup5\n        /* \"#utility.yul\":8248:8287   */\n      add\n        /* \"#utility.yul\":8241:8287   */\n      swap2\n      pop\n        /* \"#utility.yul\":8018:8293   */\n      pop\n        /* \"#utility.yul\":7936:8293   */\n      swap3\n      swap2\n      pop\n      pop\n      jump\t// out\n        /* \"#utility.yul\":8299:8404   */\n    tag_378:\n        /* \"#utility.yul\":8374:8397   */\n      tag_559\n        /* \"#utility.yul\":8391:8396   */\n      dup2\n        /* \"#utility.yul\":8374:8397   */\n      tag_371\n      jump\t// in\n    tag_559:\n        /* \"#utility.yul\":8369:8372   */\n      dup3\n        /* \"#utility.yul\":8362:8398   */\n      mstore\n        /* \"#utility.yul\":8299:8404   */\n      pop\n      pop\n      jump\t// out\n        /* \"#utility.yul\":8410:8518   */\n    tag_379:\n        /* \"#utility.yul\":8487:8511   */\n      tag_561\n        /* \"#utility.yul\":8505:8510   */\n      dup2\n        /* \"#utility.yul\":8487:8511   */\n      tag_351\n      jump\t// in\n    tag_561:\n        /* \"#utility.yul\":8482:8485   */\n      dup3\n        /* \"#utility.yul\":8475:8512   */\n      mstore\n        /* \"#utility.yul\":8410:8518   */\n      pop\n      pop\n      jump\t// out\n        /* \"#utility.yul\":8524:8623   */\n    tag_380:\n        /* \"#utility.yul\":8595:8616   */\n      tag_563\n        /* \"#utility.yul\":8610:8615   */\n      dup2\n        /* \"#utility.yul\":8595:8616   */\n      tag_354\n      jump\t// in\n    tag_563:\n        /* \"#utility.yul\":8590:8593   */\n      dup3\n        /* \"#utility.yul\":8583:8617   */\n      mstore\n        /* \"#utility.yul\":8524:8623   */\n      pop\n      pop\n      jump\t// out\n        /* \"#utility.yul\":8715:10044   */\n    tag_381:\n        /* \"#utility.yul\":8832:8835   */\n      0x00\n        /* \"#utility.yul\":8868:8872   */\n      0xc0\n        /* \"#utility.yul\":8863:8866   */\n      dup4\n        /* \"#utility.yul\":8859:8873   */\n      add\n        /* \"#utility.yul\":8959:8963   */\n      0x00\n        /* \"#utility.yul\":8952:8957   */\n      dup4\n        /* \"#utility.yul\":8948:8964   */\n      add\n        /* \"#utility.yul\":8942:8965   */\n      mload\n        /* \"#utility.yul\":9012:9015   */\n      dup5\n        /* \"#utility.yul\":9006:9010   */\n      dup3\n        /* \"#utility.yul\":9002:9016   */\n      sub\n        /* \"#utility.yul\":8995:8999   */\n      0x00\n        /* \"#utility.yul\":8990:8993   */\n      dup7\n        /* \"#utility.yul\":8986:9000   */\n      add\n        /* \"#utility.yul\":8979:9017   */\n      mstore\n        /* \"#utility.yul\":9038:9111   */\n      tag_565\n        /* \"#utility.yul\":9106:9110   */\n      dup3\n        /* \"#utility.yul\":9092:9104   */\n      dup3\n        /* \"#utility.yul\":9038:9111   */\n      tag_377\n      jump\t// in\n    tag_565:\n        /* \"#utility.yul\":9030:9111   */\n      swap2\n      pop\n        /* \"#utility.yul\":8883:9122   */\n      pop\n        /* \"#utility.yul\":9208:9212   */\n      0x20\n        /* \"#utility.yul\":9201:9206   */\n      dup4\n        /* \"#utility.yul\":9197:9213   */\n      add\n        /* \"#utility.yul\":9191:9214   */\n      mload\n        /* \"#utility.yul\":9227:9288   */\n      tag_566\n        /* \"#utility.yul\":9282:9286   */\n      0x20\n        /* \"#utility.yul\":9277:9280   */\n      dup7\n        /* \"#utility.yul\":9273:9287   */\n      add\n        /* \"#utility.yul\":9259:9271   */\n      dup3\n        /* \"#utility.yul\":9227:9288   */\n      tag_378\n      jump\t// in\n    tag_566:\n        /* \"#utility.yul\":9132:9298   */\n      pop\n        /* \"#utility.yul\":9385:9389   */\n      0x40\n        /* \"#utility.yul\":9378:9383   */\n      dup4\n        /* \"#utility.yul\":9374:9390   */\n      add\n        /* \"#utility.yul\":9368:9391   */\n      mload\n        /* \"#utility.yul\":9404:9465   */\n      tag_567\n        /* \"#utility.yul\":9459:9463   */\n      0x40\n        /* \"#utility.yul\":9454:9457   */\n      dup7\n        /* \"#utility.yul\":9450:9464   */\n      add\n        /* \"#utility.yul\":9436:9448   */\n      dup3\n        /* \"#utility.yul\":9404:9465   */\n      tag_378\n      jump\t// in\n    tag_567:\n        /* \"#utility.yul\":9308:9475   */\n      pop\n        /* \"#utility.yul\":9566:9570   */\n      0x60\n        /* \"#utility.yul\":9559:9564   */\n      dup4\n        /* \"#utility.yul\":9555:9571   */\n      add\n        /* \"#utility.yul\":9549:9572   */\n      mload\n        /* \"#utility.yul\":9585:9648   */\n      tag_568\n        /* \"#utility.yul\":9642:9646   */\n      0x60\n        /* \"#utility.yul\":9637:9640   */\n      dup7\n        /* \"#utility.yul\":9633:9647   */\n      add\n        /* \"#utility.yul\":9619:9631   */\n      dup3\n        /* \"#utility.yul\":9585:9648   */\n      tag_379\n      jump\t// in\n    tag_568:\n        /* \"#utility.yul\":9485:9658   */\n      pop\n        /* \"#utility.yul\":9749:9753   */\n      0x80\n        /* \"#utility.yul\":9742:9747   */\n      dup4\n        /* \"#utility.yul\":9738:9754   */\n      add\n        /* \"#utility.yul\":9732:9755   */\n      mload\n        /* \"#utility.yul\":9768:9831   */\n      tag_569\n        /* \"#utility.yul\":9825:9829   */\n      0x80\n        /* \"#utility.yul\":9820:9823   */\n      dup7\n        /* \"#utility.yul\":9816:9830   */\n      add\n        /* \"#utility.yul\":9802:9814   */\n      dup3\n        /* \"#utility.yul\":9768:9831   */\n      tag_379\n      jump\t// in\n    tag_569:\n        /* \"#utility.yul\":9668:9841   */\n      pop\n        /* \"#utility.yul\":9931:9935   */\n      0xa0\n        /* \"#utility.yul\":9924:9929   */\n      dup4\n        /* \"#utility.yul\":9920:9936   */\n      add\n        /* \"#utility.yul\":9914:9937   */\n      mload\n        /* \"#utility.yul\":9950:10007   */\n      tag_570\n        /* \"#utility.yul\":10001:10005   */\n      0xa0\n        /* \"#utility.yul\":9996:9999   */\n      dup7\n        /* \"#utility.yul\":9992:10006   */\n      add\n        /* \"#utility.yul\":9978:9990   */\n      dup3\n        /* \"#utility.yul\":9950:10007   */\n      tag_380\n      jump\t// in\n    tag_570:\n        /* \"#utility.yul\":9851:10017   */\n      pop\n        /* \"#utility.yul\":10034:10038   */\n      dup1\n        /* \"#utility.yul\":10027:10038   */\n      swap2\n      pop\n        /* \"#utility.yul\":8837:10044   */\n      pop\n        /* \"#utility.yul\":8715:10044   */\n      swap3\n      swap2\n      pop\n      pop\n      jump\t// out\n        /* \"#utility.yul\":10050:10419   */\n    tag_51:\n        /* \"#utility.yul\":10191:10195   */\n      0x00\n        /* \"#utility.yul\":10229:10231   */\n      0x20\n        /* \"#utility.yul\":10218:10227   */\n      dup3\n        /* \"#utility.yul\":10214:10232   */\n      add\n        /* \"#utility.yul\":10206:10232   */\n      swap1\n      pop\n        /* \"#utility.yul\":10278:10287   */\n      dup2\n        /* \"#utility.yul\":10272:10276   */\n      dup2\n        /* \"#utility.yul\":10268:10288   */\n      sub\n        /* \"#utility.yul\":10264:10265   */\n      0x00\n        /* \"#utility.yul\":10253:10262   */\n      dup4\n        /* \"#utility.yul\":10249:10266   */\n      add\n        /* \"#utility.yul\":10242:10289   */\n      mstore\n        /* \"#utility.yul\":10306:10412   */\n      tag_572\n        /* \"#utility.yul\":10407:10411   */\n      dup2\n        /* \"#utility.yul\":10398:10404   */\n      dup5\n        /* \"#utility.yul\":10306:10412   */\n      tag_381\n      jump\t// in\n    tag_572:\n        /* \"#utility.yul\":10298:10412   */\n      swap1\n      pop\n        /* \"#utility.yul\":10050:10419   */\n      swap3\n      swap2\n      pop\n      pop\n      jump\t// out\n        /* \"#utility.yul\":10425:10754   */\n    tag_54:\n        /* \"#utility.yul\":10484:10490   */\n      0x00\n        /* \"#utility.yul\":10533:10535   */\n      0x20\n        /* \"#utility.yul\":10521:10530   */\n      dup3\n        /* \"#utility.yul\":10512:10519   */\n      dup5\n        /* \"#utility.yul\":10508:10531   */\n      sub\n        /* \"#utility.yul\":10504:10536   */\n      slt\n        /* \"#utility.yul\":10501:10620   */\n      iszero\n      tag_574\n      jumpi\n        /* \"#utility.yul\":10539:10618   */\n      tag_575\n      tag_349\n      jump\t// in\n    tag_575:\n        /* \"#utility.yul\":10501:10620   */\n    tag_574:\n        /* \"#utility.yul\":10659:10660   */\n      0x00\n        /* \"#utility.yul\":10684:10737   */\n      tag_576\n        /* \"#utility.yul\":10729:10736   */\n      dup5\n        /* \"#utility.yul\":10720:10726   */\n      dup3\n        /* \"#utility.yul\":10709:10718   */\n      dup6\n        /* \"#utility.yul\":10705:10727   */\n      add\n        /* \"#utility.yul\":10684:10737   */\n      tag_353\n      jump\t// in\n    tag_576:\n        /* \"#utility.yul\":10674:10737   */\n      swap2\n      pop\n        /* \"#utility.yul\":10630:10747   */\n      pop\n        /* \"#utility.yul\":10425:10754   */\n      swap3\n      swap2\n      pop\n      pop\n      jump\t// out\n        /* \"#utility.yul\":10760:10878   */\n    tag_382:\n        /* \"#utility.yul\":10847:10871   */\n      tag_578\n        /* \"#utility.yul\":10865:10870   */\n      dup2\n        /* \"#utility.yul\":10847:10871   */\n      tag_351\n      jump\t// in\n    tag_578:\n        /* \"#utility.yul\":10842:10845   */\n      dup3\n        /* \"#utility.yul\":10835:10872   */\n      mstore\n        /* \"#utility.yul\":10760:10878   */\n      pop\n      pop\n      jump\t// out\n        /* \"#utility.yul\":10884:11106   */\n    tag_57:\n        /* \"#utility.yul\":10977:10981   */\n      0x00\n        /* \"#utility.yul\":11015:11017   */\n      0x20\n        /* \"#utility.yul\":11004:11013   */\n      dup3\n        /* \"#utility.yul\":11000:11018   */\n      add\n        /* \"#utility.yul\":10992:11018   */\n      swap1\n      pop\n        /* \"#utility.yul\":11028:11099   */\n      tag_580\n        /* \"#utility.yul\":11096:11097   */\n      0x00\n        /* \"#utility.yul\":11085:11094   */\n      dup4\n        /* \"#utility.yul\":11081:11098   */\n      add\n        /* \"#utility.yul\":11072:11078   */\n      dup5\n        /* \"#utility.yul\":11028:11099   */\n      tag_382\n      jump\t// in\n    tag_580:\n        /* \"#utility.yul\":10884:11106   */\n      swap3\n      swap2\n      pop\n      pop\n      jump\t// out\n        /* \"#utility.yul\":11112:11230   */\n    tag_383:\n        /* \"#utility.yul\":11199:11223   */\n      tag_582\n        /* \"#utility.yul\":11217:11222   */\n      dup2\n        /* \"#utility.yul\":11199:11223   */\n      tag_358\n      jump\t// in\n    tag_582:\n        /* \"#utility.yul\":11194:11197   */\n      dup3\n        /* \"#utility.yul\":11187:11224   */\n      mstore\n        /* \"#utility.yul\":11112:11230   */\n      pop\n      pop\n      jump\t// out\n        /* \"#utility.yul\":11236:11405   */\n    tag_384:\n        /* \"#utility.yul\":11320:11331   */\n      0x00\n        /* \"#utility.yul\":11354:11360   */\n      dup3\n        /* \"#utility.yul\":11349:11352   */\n      dup3\n        /* \"#utility.yul\":11342:11361   */\n      mstore\n        /* \"#utility.yul\":11394:11398   */\n      0x20\n        /* \"#utility.yul\":11389:11392   */\n      dup3\n        /* \"#utility.yul\":11385:11399   */\n      add\n        /* \"#utility.yul\":11370:11399   */\n      swap1\n      pop\n        /* \"#utility.yul\":11236:11405   */\n      swap3\n      swap2\n      pop\n      pop\n      jump\t// out\n        /* \"#utility.yul\":11411:11788   */\n    tag_385:\n        /* \"#utility.yul\":11499:11502   */\n      0x00\n        /* \"#utility.yul\":11527:11566   */\n      tag_585\n        /* \"#utility.yul\":11560:11565   */\n      dup3\n        /* \"#utility.yul\":11527:11566   */\n      tag_374\n      jump\t// in\n    tag_585:\n        /* \"#utility.yul\":11582:11653   */\n      tag_586\n        /* \"#utility.yul\":11646:11652   */\n      dup2\n        /* \"#utility.yul\":11641:11644   */\n      dup6\n        /* \"#utility.yul\":11582:11653   */\n      tag_384\n      jump\t// in\n    tag_586:\n        /* \"#utility.yul\":11575:11653   */\n      swap4\n      pop\n        /* \"#utility.yul\":11662:11727   */\n      tag_587\n        /* \"#utility.yul\":11720:11726   */\n      dup2\n        /* \"#utility.yul\":11715:11718   */\n      dup6\n        /* \"#utility.yul\":11708:11712   */\n      0x20\n        /* \"#utility.yul\":11701:11706   */\n      dup7\n        /* \"#utility.yul\":11697:11713   */\n      add\n        /* \"#utility.yul\":11662:11727   */\n      tag_376\n      jump\t// in\n    tag_587:\n        /* \"#utility.yul\":11752:11781   */\n      tag_588\n        /* \"#utility.yul\":11774:11780   */\n      dup2\n        /* \"#utility.yul\":11752:11781   */\n      tag_364\n      jump\t// in\n    tag_588:\n        /* \"#utility.yul\":11747:11750   */\n      dup5\n        /* \"#utility.yul\":11743:11782   */\n      add\n        /* \"#utility.yul\":11736:11782   */\n      swap2\n      pop\n        /* \"#utility.yul\":11503:11788   */\n      pop\n        /* \"#utility.yul\":11411:11788   */\n      swap3\n      swap2\n      pop\n      pop\n      jump\t// out\n        /* \"#utility.yul\":11794:11974   */\n    tag_117:\n        /* \"#utility.yul\":11842:11919   */\n      0x4e487b7100000000000000000000000000000000000000000000000000000000\n        /* \"#utility.yul\":11839:11840   */\n      0x00\n        /* \"#utility.yul\":11832:11920   */\n      mstore\n        /* \"#utility.yul\":11939:11943   */\n      0x21\n        /* \"#utility.yul\":11936:11937   */\n      0x04\n        /* \"#utility.yul\":11929:11944   */\n      mstore\n        /* \"#utility.yul\":11963:11967   */\n      0x24\n        /* \"#utility.yul\":11960:11961   */\n      0x00\n        /* \"#utility.yul\":11953:11968   */\n      revert\n        /* \"#utility.yul\":11980:12103   */\n    tag_386:\n        /* \"#utility.yul\":12071:12072   */\n      0x02\n        /* \"#utility.yul\":12064:12069   */\n      dup2\n        /* \"#utility.yul\":12061:12073   */\n      lt\n        /* \"#utility.yul\":12051:12097   */\n      tag_591\n      jumpi\n        /* \"#utility.yul\":12077:12095   */\n      tag_592\n      tag_117\n      jump\t// in\n    tag_592:\n        /* \"#utility.yul\":12051:12097   */\n    tag_591:\n        /* \"#utility.yul\":11980:12103   */\n      pop\n      jump\t// out\n        /* \"#utility.yul\":12109:12256   */\n    tag_387:\n        /* \"#utility.yul\":12164:12171   */\n      0x00\n        /* \"#utility.yul\":12193:12198   */\n      dup2\n        /* \"#utility.yul\":12182:12198   */\n      swap1\n      pop\n        /* \"#utility.yul\":12199:12250   */\n      tag_594\n        /* \"#utility.yul\":12244:12249   */\n      dup3\n        /* \"#utility.yul\":12199:12250   */\n      tag_386\n      jump\t// in\n    tag_594:\n        /* \"#utility.yul\":12109:12256   */\n      swap2\n      swap1\n      pop\n      jump\t// out\n        /* \"#utility.yul\":12262:12409   */\n    tag_388:\n        /* \"#utility.yul\":12328:12337   */\n      0x00\n        /* \"#utility.yul\":12361:12403   */\n      tag_596\n        /* \"#utility.yul\":12397:12402   */\n      dup3\n        /* \"#utility.yul\":12361:12403   */\n      tag_387\n      jump\t// in\n    tag_596:\n        /* \"#utility.yul\":12348:12403   */\n      swap1\n      pop\n        /* \"#utility.yul\":12262:12409   */\n      swap2\n      swap1\n      pop\n      jump\t// out\n        /* \"#utility.yul\":12415:12578   */\n    tag_389:\n        /* \"#utility.yul\":12518:12571   */\n      tag_598\n        /* \"#utility.yul\":12565:12570   */\n      dup2\n        /* \"#utility.yul\":12518:12571   */\n      tag_388\n      jump\t// in\n    tag_598:\n        /* \"#utility.yul\":12513:12516   */\n      dup3\n        /* \"#utility.yul\":12506:12572   */\n      mstore\n        /* \"#utility.yul\":12415:12578   */\n      pop\n      pop\n      jump\t// out\n        /* \"#utility.yul\":12584:13803   */\n    tag_62:\n        /* \"#utility.yul\":12931:12935   */\n      0x00\n        /* \"#utility.yul\":12969:12972   */\n      0x0120\n        /* \"#utility.yul\":12958:12967   */\n      dup3\n        /* \"#utility.yul\":12954:12973   */\n      add\n        /* \"#utility.yul\":12946:12973   */\n      swap1\n      pop\n        /* \"#utility.yul\":12983:13054   */\n      tag_600\n        /* \"#utility.yul\":13051:13052   */\n      0x00\n        /* \"#utility.yul\":13040:13049   */\n      dup4\n        /* \"#utility.yul\":13036:13053   */\n      add\n        /* \"#utility.yul\":13027:13033   */\n      dup13\n        /* \"#utility.yul\":12983:13054   */\n      tag_382\n      jump\t// in\n    tag_600:\n        /* \"#utility.yul\":13064:13136   */\n      tag_601\n        /* \"#utility.yul\":13132:13134   */\n      0x20\n        /* \"#utility.yul\":13121:13130   */\n      dup4\n        /* \"#utility.yul\":13117:13135   */\n      add\n        /* \"#utility.yul\":13108:13114   */\n      dup12\n        /* \"#utility.yul\":13064:13136   */\n      tag_383\n      jump\t// in\n    tag_601:\n        /* \"#utility.yul\":13146:13218   */\n      tag_602\n        /* \"#utility.yul\":13214:13216   */\n      0x40\n        /* \"#utility.yul\":13203:13212   */\n      dup4\n        /* \"#utility.yul\":13199:13217   */\n      add\n        /* \"#utility.yul\":13190:13196   */\n      dup11\n        /* \"#utility.yul\":13146:13218   */\n      tag_383\n      jump\t// in\n    tag_602:\n        /* \"#utility.yul\":13228:13300   */\n      tag_603\n        /* \"#utility.yul\":13296:13298   */\n      0x60\n        /* \"#utility.yul\":13285:13294   */\n      dup4\n        /* \"#utility.yul\":13281:13299   */\n      add\n        /* \"#utility.yul\":13272:13278   */\n      dup10\n        /* \"#utility.yul\":13228:13300   */\n      tag_382\n      jump\t// in\n    tag_603:\n        /* \"#utility.yul\":13310:13383   */\n      tag_604\n        /* \"#utility.yul\":13378:13381   */\n      0x80\n        /* \"#utility.yul\":13367:13376   */\n      dup4\n        /* \"#utility.yul\":13363:13382   */\n      add\n        /* \"#utility.yul\":13354:13360   */\n      dup9\n        /* \"#utility.yul\":13310:13383   */\n      tag_382\n      jump\t// in\n    tag_604:\n        /* \"#utility.yul\":13393:13466   */\n      tag_605\n        /* \"#utility.yul\":13461:13464   */\n      0xa0\n        /* \"#utility.yul\":13450:13459   */\n      dup4\n        /* \"#utility.yul\":13446:13465   */\n      add\n        /* \"#utility.yul\":13437:13443   */\n      dup8\n        /* \"#utility.yul\":13393:13466   */\n      tag_382\n      jump\t// in\n    tag_605:\n        /* \"#utility.yul\":13476:13543   */\n      tag_606\n        /* \"#utility.yul\":13538:13541   */\n      0xc0\n        /* \"#utility.yul\":13527:13536   */\n      dup4\n        /* \"#utility.yul\":13523:13542   */\n      add\n        /* \"#utility.yul\":13514:13520   */\n      dup7\n        /* \"#utility.yul\":13476:13543   */\n      tag_361\n      jump\t// in\n    tag_606:\n        /* \"#utility.yul\":13591:13600   */\n      dup2\n        /* \"#utility.yul\":13585:13589   */\n      dup2\n        /* \"#utility.yul\":13581:13601   */\n      sub\n        /* \"#utility.yul\":13575:13578   */\n      0xe0\n        /* \"#utility.yul\":13564:13573   */\n      dup4\n        /* \"#utility.yul\":13560:13579   */\n      add\n        /* \"#utility.yul\":13553:13602   */\n      mstore\n        /* \"#utility.yul\":13619:13697   */\n      tag_607\n        /* \"#utility.yul\":13692:13696   */\n      dup2\n        /* \"#utility.yul\":13683:13689   */\n      dup6\n        /* \"#utility.yul\":13619:13697   */\n      tag_385\n      jump\t// in\n    tag_607:\n        /* \"#utility.yul\":13611:13697   */\n      swap1\n      pop\n        /* \"#utility.yul\":13707:13796   */\n      tag_608\n        /* \"#utility.yul\":13791:13794   */\n      0x0100\n        /* \"#utility.yul\":13780:13789   */\n      dup4\n        /* \"#utility.yul\":13776:13795   */\n      add\n        /* \"#utility.yul\":13767:13773   */\n      dup5\n        /* \"#utility.yul\":13707:13796   */\n      tag_389\n      jump\t// in\n    tag_608:\n        /* \"#utility.yul\":12584:13803   */\n      swap11\n      swap10\n      pop\n      pop\n      pop\n      pop\n      pop\n      pop\n      pop\n      pop\n      pop\n      pop\n      jump\t// out\n        /* \"#utility.yul\":13809:13923   */\n    tag_390:\n        /* \"#utility.yul\":13876:13882   */\n      0x00\n        /* \"#utility.yul\":13910:13915   */\n      dup2\n        /* \"#utility.yul\":13904:13916   */\n      mload\n        /* \"#utility.yul\":13894:13916   */\n      swap1\n      pop\n        /* \"#utility.yul\":13809:13923   */\n      swap2\n      swap1\n      pop\n      jump\t// out\n        /* \"#utility.yul\":13929:14113   */\n    tag_391:\n        /* \"#utility.yul\":14028:14039   */\n      0x00\n        /* \"#utility.yul\":14062:14068   */\n      dup3\n        /* \"#utility.yul\":14057:14060   */\n      dup3\n        /* \"#utility.yul\":14050:14069   */\n      mstore\n        /* \"#utility.yul\":14102:14106   */\n      0x20\n        /* \"#utility.yul\":14097:14100   */\n      dup3\n        /* \"#utility.yul\":14093:14107   */\n      add\n        /* \"#utility.yul\":14078:14107   */\n      swap1\n      pop\n        /* \"#utility.yul\":13929:14113   */\n      swap3\n      swap2\n      pop\n      pop\n      jump\t// out\n        /* \"#utility.yul\":14119:14251   */\n    tag_392:\n        /* \"#utility.yul\":14186:14190   */\n      0x00\n        /* \"#utility.yul\":14209:14212   */\n      dup2\n        /* \"#utility.yul\":14201:14212   */\n      swap1\n      pop\n        /* \"#utility.yul\":14239:14243   */\n      0x20\n        /* \"#utility.yul\":14234:14237   */\n      dup3\n        /* \"#utility.yul\":14230:14244   */\n      add\n        /* \"#utility.yul\":14222:14244   */\n      swap1\n      pop\n        /* \"#utility.yul\":14119:14251   */\n      swap2\n      swap1\n      pop\n      jump\t// out\n        /* \"#utility.yul\":14257:14365   */\n    tag_393:\n        /* \"#utility.yul\":14334:14358   */\n      tag_613\n        /* \"#utility.yul\":14352:14357   */\n      dup2\n        /* \"#utility.yul\":14334:14358   */\n      tag_358\n      jump\t// in\n    tag_613:\n        /* \"#utility.yul\":14329:14332   */\n      dup3\n        /* \"#utility.yul\":14322:14359   */\n      mstore\n        /* \"#utility.yul\":14257:14365   */\n      pop\n      pop\n      jump\t// out\n        /* \"#utility.yul\":14371:14550   */\n    tag_394:\n        /* \"#utility.yul\":14440:14450   */\n      0x00\n        /* \"#utility.yul\":14461:14507   */\n      tag_615\n        /* \"#utility.yul\":14503:14506   */\n      dup4\n        /* \"#utility.yul\":14495:14501   */\n      dup4\n        /* \"#utility.yul\":14461:14507   */\n      tag_393\n      jump\t// in\n    tag_615:\n        /* \"#utility.yul\":14539:14543   */\n      0x20\n        /* \"#utility.yul\":14534:14537   */\n      dup4\n        /* \"#utility.yul\":14530:14544   */\n      add\n        /* \"#utility.yul\":14516:14544   */\n      swap1\n      pop\n        /* \"#utility.yul\":14371:14550   */\n      swap3\n      swap2\n      pop\n      pop\n      jump\t// out\n        /* \"#utility.yul\":14556:14669   */\n    tag_395:\n        /* \"#utility.yul\":14626:14630   */\n      0x00\n        /* \"#utility.yul\":14658:14662   */\n      0x20\n        /* \"#utility.yul\":14653:14656   */\n      dup3\n        /* \"#utility.yul\":14649:14663   */\n      add\n        /* \"#utility.yul\":14641:14663   */\n      swap1\n      pop\n        /* \"#utility.yul\":14556:14669   */\n      swap2\n      swap1\n      pop\n      jump\t// out\n        /* \"#utility.yul\":14705:15437   */\n    tag_396:\n        /* \"#utility.yul\":14824:14827   */\n      0x00\n        /* \"#utility.yul\":14853:14907   */\n      tag_618\n        /* \"#utility.yul\":14901:14906   */\n      dup3\n        /* \"#utility.yul\":14853:14907   */\n      tag_390\n      jump\t// in\n    tag_618:\n        /* \"#utility.yul\":14923:15009   */\n      tag_619\n        /* \"#utility.yul\":15002:15008   */\n      dup2\n        /* \"#utility.yul\":14997:15000   */\n      dup6\n        /* \"#utility.yul\":14923:15009   */\n      tag_391\n      jump\t// in\n    tag_619:\n        /* \"#utility.yul\":14916:15009   */\n      swap4\n      pop\n        /* \"#utility.yul\":15033:15089   */\n      tag_620\n        /* \"#utility.yul\":15083:15088   */\n      dup4\n        /* \"#utility.yul\":15033:15089   */\n      tag_392\n      jump\t// in\n    tag_620:\n        /* \"#utility.yul\":15112:15119   */\n      dup1\n        /* \"#utility.yul\":15143:15144   */\n      0x00\n        /* \"#utility.yul\":15128:15412   */\n    tag_621:\n        /* \"#utility.yul\":15153:15159   */\n      dup4\n        /* \"#utility.yul\":15150:15151   */\n      dup2\n        /* \"#utility.yul\":15147:15160   */\n      lt\n        /* \"#utility.yul\":15128:15412   */\n      iszero\n      tag_623\n      jumpi\n        /* \"#utility.yul\":15229:15235   */\n      dup2\n        /* \"#utility.yul\":15223:15236   */\n      mload\n        /* \"#utility.yul\":15256:15319   */\n      tag_624\n        /* \"#utility.yul\":15315:15318   */\n      dup9\n        /* \"#utility.yul\":15300:15313   */\n      dup3\n        /* \"#utility.yul\":15256:15319   */\n      tag_394\n      jump\t// in\n    tag_624:\n        /* \"#utility.yul\":15249:15319   */\n      swap8\n      pop\n        /* \"#utility.yul\":15342:15402   */\n      tag_625\n        /* \"#utility.yul\":15395:15401   */\n      dup4\n        /* \"#utility.yul\":15342:15402   */\n      tag_395\n      jump\t// in\n    tag_625:\n        /* \"#utility.yul\":15332:15402   */\n      swap3\n      pop\n        /* \"#utility.yul\":15188:15412   */\n      pop\n        /* \"#utility.yul\":15175:15176   */\n      0x01\n        /* \"#utility.yul\":15172:15173   */\n      dup2\n        /* \"#utility.yul\":15168:15177   */\n      add\n        /* \"#utility.yul\":15163:15177   */\n      swap1\n      pop\n        /* \"#utility.yul\":15128:15412   */\n      jump(tag_621)\n    tag_623:\n        /* \"#utility.yul\":15132:15146   */\n      pop\n        /* \"#utility.yul\":15428:15431   */\n      dup6\n        /* \"#utility.yul\":15421:15431   */\n      swap4\n      pop\n        /* \"#utility.yul\":14829:15437   */\n      pop\n      pop\n      pop\n        /* \"#utility.yul\":14705:15437   */\n      swap3\n      swap2\n      pop\n      pop\n      jump\t// out\n        /* \"#utility.yul\":15443:15816   */\n    tag_66:\n        /* \"#utility.yul\":15586:15590   */\n      0x00\n        /* \"#utility.yul\":15624:15626   */\n      0x20\n        /* \"#utility.yul\":15613:15622   */\n      dup3\n        /* \"#utility.yul\":15609:15627   */\n      add\n        /* \"#utility.yul\":15601:15627   */\n      swap1\n      pop\n        /* \"#utility.yul\":15673:15682   */\n      dup2\n        /* \"#utility.yul\":15667:15671   */\n      dup2\n        /* \"#utility.yul\":15663:15683   */\n      sub\n        /* \"#utility.yul\":15659:15660   */\n      0x00\n        /* \"#utility.yul\":15648:15657   */\n      dup4\n        /* \"#utility.yul\":15644:15661   */\n      add\n        /* \"#utility.yul\":15637:15684   */\n      mstore\n        /* \"#utility.yul\":15701:15809   */\n      tag_627\n        /* \"#utility.yul\":15804:15808   */\n      dup2\n        /* \"#utility.yul\":15795:15801   */\n      dup5\n        /* \"#utility.yul\":15701:15809   */\n      tag_396\n      jump\t// in\n    tag_627:\n        /* \"#utility.yul\":15693:15809   */\n      swap1\n      pop\n        /* \"#utility.yul\":15443:15816   */\n      swap3\n      swap2\n      pop\n      pop\n      jump\t// out\n        /* \"#utility.yul\":15822:15937   */\n    tag_397:\n        /* \"#utility.yul\":15907:15930   */\n      tag_629\n        /* \"#utility.yul\":15924:15929   */\n      dup2\n        /* \"#utility.yul\":15907:15930   */\n      tag_371\n      jump\t// in\n    tag_629:\n        /* \"#utility.yul\":15902:15905   */\n      dup3\n        /* \"#utility.yul\":15895:15931   */\n      mstore\n        /* \"#utility.yul\":15822:15937   */\n      pop\n      pop\n      jump\t// out\n        /* \"#utility.yul\":15943:16789   */\n    tag_71:\n        /* \"#utility.yul\":16186:16190   */\n      0x00\n        /* \"#utility.yul\":16224:16227   */\n      0xc0\n        /* \"#utility.yul\":16213:16222   */\n      dup3\n        /* \"#utility.yul\":16209:16228   */\n      add\n        /* \"#utility.yul\":16201:16228   */\n      swap1\n      pop\n        /* \"#utility.yul\":16274:16283   */\n      dup2\n        /* \"#utility.yul\":16268:16272   */\n      dup2\n        /* \"#utility.yul\":16264:16284   */\n      sub\n        /* \"#utility.yul\":16260:16261   */\n      0x00\n        /* \"#utility.yul\":16249:16258   */\n      dup4\n        /* \"#utility.yul\":16245:16262   */\n      add\n        /* \"#utility.yul\":16238:16285   */\n      mstore\n        /* \"#utility.yul\":16302:16380   */\n      tag_631\n        /* \"#utility.yul\":16375:16379   */\n      dup2\n        /* \"#utility.yul\":16366:16372   */\n      dup10\n        /* \"#utility.yul\":16302:16380   */\n      tag_385\n      jump\t// in\n    tag_631:\n        /* \"#utility.yul\":16294:16380   */\n      swap1\n      pop\n        /* \"#utility.yul\":16390:16460   */\n      tag_632\n        /* \"#utility.yul\":16456:16458   */\n      0x20\n        /* \"#utility.yul\":16445:16454   */\n      dup4\n        /* \"#utility.yul\":16441:16459   */\n      add\n        /* \"#utility.yul\":16432:16438   */\n      dup9\n        /* \"#utility.yul\":16390:16460   */\n      tag_397\n      jump\t// in\n    tag_632:\n        /* \"#utility.yul\":16470:16540   */\n      tag_633\n        /* \"#utility.yul\":16536:16538   */\n      0x40\n        /* \"#utility.yul\":16525:16534   */\n      dup4\n        /* \"#utility.yul\":16521:16539   */\n      add\n        /* \"#utility.yul\":16512:16518   */\n      dup8\n        /* \"#utility.yul\":16470:16540   */\n      tag_397\n      jump\t// in\n    tag_633:\n        /* \"#utility.yul\":16550:16622   */\n      tag_634\n        /* \"#utility.yul\":16618:16620   */\n      0x60\n        /* \"#utility.yul\":16607:16616   */\n      dup4\n        /* \"#utility.yul\":16603:16621   */\n      add\n        /* \"#utility.yul\":16594:16600   */\n      dup7\n        /* \"#utility.yul\":16550:16622   */\n      tag_382\n      jump\t// in\n    tag_634:\n        /* \"#utility.yul\":16632:16705   */\n      tag_635\n        /* \"#utility.yul\":16700:16703   */\n      0x80\n        /* \"#utility.yul\":16689:16698   */\n      dup4\n        /* \"#utility.yul\":16685:16704   */\n      add\n        /* \"#utility.yul\":16676:16682   */\n      dup6\n        /* \"#utility.yul\":16632:16705   */\n      tag_382\n      jump\t// in\n    tag_635:\n        /* \"#utility.yul\":16715:16782   */\n      tag_636\n        /* \"#utility.yul\":16777:16780   */\n      0xa0\n        /* \"#utility.yul\":16766:16775   */\n      dup4\n        /* \"#utility.yul\":16762:16781   */\n      add\n        /* \"#utility.yul\":16753:16759   */\n      dup5\n        /* \"#utility.yul\":16715:16782   */\n      tag_361\n      jump\t// in\n    tag_636:\n        /* \"#utility.yul\":15943:16789   */\n      swap8\n      swap7\n      pop\n      pop\n      pop\n      pop\n      pop\n      pop\n      pop\n      jump\t// out\n        /* \"#utility.yul\":16795:16936   */\n    tag_398:\n        /* \"#utility.yul\":16889:16895   */\n      0x00\n        /* \"#utility.yul\":16923:16928   */\n      dup2\n        /* \"#utility.yul\":16917:16929   */\n      mload\n        /* \"#utility.yul\":16907:16929   */\n      swap1\n      pop\n        /* \"#utility.yul\":16795:16936   */\n      swap2\n      swap1\n      pop\n      jump\t// out\n        /* \"#utility.yul\":16942:17153   */\n    tag_399:\n        /* \"#utility.yul\":17068:17079   */\n      0x00\n        /* \"#utility.yul\":17102:17108   */\n      dup3\n        /* \"#utility.yul\":17097:17100   */\n      dup3\n        /* \"#utility.yul\":17090:17109   */\n      mstore\n        /* \"#utility.yul\":17142:17146   */\n      0x20\n        /* \"#utility.yul\":17137:17140   */\n      dup3\n        /* \"#utility.yul\":17133:17147   */\n      add\n        /* \"#utility.yul\":17118:17147   */\n      swap1\n      pop\n        /* \"#utility.yul\":16942:17153   */\n      swap3\n      swap2\n      pop\n      pop\n      jump\t// out\n        /* \"#utility.yul\":17159:17318   */\n    tag_400:\n        /* \"#utility.yul\":17253:17257   */\n      0x00\n        /* \"#utility.yul\":17276:17279   */\n      dup2\n        /* \"#utility.yul\":17268:17279   */\n      swap1\n      pop\n        /* \"#utility.yul\":17306:17310   */\n      0x20\n        /* \"#utility.yul\":17301:17304   */\n      dup3\n        /* \"#utility.yul\":17297:17311   */\n      add\n        /* \"#utility.yul\":17289:17311   */\n      swap1\n      pop\n        /* \"#utility.yul\":17159:17318   */\n      swap2\n      swap1\n      pop\n      jump\t// out\n        /* \"#utility.yul\":17324:17477   */\n    tag_401:\n        /* \"#utility.yul\":17417:17470   */\n      tag_641\n        /* \"#utility.yul\":17464:17469   */\n      dup2\n        /* \"#utility.yul\":17417:17470   */\n      tag_388\n      jump\t// in\n    tag_641:\n        /* \"#utility.yul\":17412:17415   */\n      dup3\n        /* \"#utility.yul\":17405:17471   */\n      mstore\n        /* \"#utility.yul\":17324:17477   */\n      pop\n      pop\n      jump\t// out\n        /* \"#utility.yul\":17575:19449   */\n    tag_402:\n        /* \"#utility.yul\":17688:17691   */\n      0x00\n        /* \"#utility.yul\":17724:17730   */\n      0x0120\n        /* \"#utility.yul\":17719:17722   */\n      dup4\n        /* \"#utility.yul\":17715:17731   */\n      add\n        /* \"#utility.yul\":17811:17815   */\n      0x00\n        /* \"#utility.yul\":17804:17809   */\n      dup4\n        /* \"#utility.yul\":17800:17816   */\n      add\n        /* \"#utility.yul\":17794:17817   */\n      mload\n        /* \"#utility.yul\":17830:17893   */\n      tag_643\n        /* \"#utility.yul\":17887:17891   */\n      0x00\n        /* \"#utility.yul\":17882:17885   */\n      dup7\n        /* \"#utility.yul\":17878:17892   */\n      add\n        /* \"#utility.yul\":17864:17876   */\n      dup3\n        /* \"#utility.yul\":17830:17893   */\n      tag_379\n      jump\t// in\n    tag_643:\n        /* \"#utility.yul\":17741:17903   */\n      pop\n        /* \"#utility.yul\":17990:17994   */\n      0x20\n        /* \"#utility.yul\":17983:17988   */\n      dup4\n        /* \"#utility.yul\":17979:17995   */\n      add\n        /* \"#utility.yul\":17973:17996   */\n      mload\n        /* \"#utility.yul\":18009:18072   */\n      tag_644\n        /* \"#utility.yul\":18066:18070   */\n      0x20\n        /* \"#utility.yul\":18061:18064   */\n      dup7\n        /* \"#utility.yul\":18057:18071   */\n      add\n        /* \"#utility.yul\":18043:18055   */\n      dup3\n        /* \"#utility.yul\":18009:18072   */\n      tag_393\n      jump\t// in\n    tag_644:\n        /* \"#utility.yul\":17913:18082   */\n      pop\n        /* \"#utility.yul\":18168:18172   */\n      0x40\n        /* \"#utility.yul\":18161:18166   */\n      dup4\n        /* \"#utility.yul\":18157:18173   */\n      add\n        /* \"#utility.yul\":18151:18174   */\n      mload\n        /* \"#utility.yul\":18187:18250   */\n      tag_645\n        /* \"#utility.yul\":18244:18248   */\n      0x40\n        /* \"#utility.yul\":18239:18242   */\n      dup7\n        /* \"#utility.yul\":18235:18249   */\n      add\n        /* \"#utility.yul\":18221:18233   */\n      dup3\n        /* \"#utility.yul\":18187:18250   */\n      tag_393\n      jump\t// in\n    tag_645:\n        /* \"#utility.yul\":18092:18260   */\n      pop\n        /* \"#utility.yul\":18350:18354   */\n      0x60\n        /* \"#utility.yul\":18343:18348   */\n      dup4\n        /* \"#utility.yul\":18339:18355   */\n      add\n        /* \"#utility.yul\":18333:18356   */\n      mload\n        /* \"#utility.yul\":18369:18432   */\n      tag_646\n        /* \"#utility.yul\":18426:18430   */\n      0x60\n        /* \"#utility.yul\":18421:18424   */\n      dup7\n        /* \"#utility.yul\":18417:18431   */\n      add\n        /* \"#utility.yul\":18403:18415   */\n      dup3\n        /* \"#utility.yul\":18369:18432   */\n      tag_379\n      jump\t// in\n    tag_646:\n        /* \"#utility.yul\":18270:18442   */\n      pop\n        /* \"#utility.yul\":18525:18529   */\n      0x80\n        /* \"#utility.yul\":18518:18523   */\n      dup4\n        /* \"#utility.yul\":18514:18530   */\n      add\n        /* \"#utility.yul\":18508:18531   */\n      mload\n        /* \"#utility.yul\":18544:18607   */\n      tag_647\n        /* \"#utility.yul\":18601:18605   */\n      0x80\n        /* \"#utility.yul\":18596:18599   */\n      dup7\n        /* \"#utility.yul\":18592:18606   */\n      add\n        /* \"#utility.yul\":18578:18590   */\n      dup3\n        /* \"#utility.yul\":18544:18607   */\n      tag_379\n      jump\t// in\n    tag_647:\n        /* \"#utility.yul\":18452:18617   */\n      pop\n        /* \"#utility.yul\":18705:18709   */\n      0xa0\n        /* \"#utility.yul\":18698:18703   */\n      dup4\n        /* \"#utility.yul\":18694:18710   */\n      add\n        /* \"#utility.yul\":18688:18711   */\n      mload\n        /* \"#utility.yul\":18724:18787   */\n      tag_648\n        /* \"#utility.yul\":18781:18785   */\n      0xa0\n        /* \"#utility.yul\":18776:18779   */\n      dup7\n        /* \"#utility.yul\":18772:18786   */\n      add\n        /* \"#utility.yul\":18758:18770   */\n      dup3\n        /* \"#utility.yul\":18724:18787   */\n      tag_379\n      jump\t// in\n    tag_648:\n        /* \"#utility.yul\":18627:18797   */\n      pop\n        /* \"#utility.yul\":18884:18888   */\n      0xc0\n        /* \"#utility.yul\":18877:18882   */\n      dup4\n        /* \"#utility.yul\":18873:18889   */\n      add\n        /* \"#utility.yul\":18867:18890   */\n      mload\n        /* \"#utility.yul\":18903:18960   */\n      tag_649\n        /* \"#utility.yul\":18954:18958   */\n      0xc0\n        /* \"#utility.yul\":18949:18952   */\n      dup7\n        /* \"#utility.yul\":18945:18959   */\n      add\n        /* \"#utility.yul\":18931:18943   */\n      dup3\n        /* \"#utility.yul\":18903:18960   */\n      tag_380\n      jump\t// in\n    tag_649:\n        /* \"#utility.yul\":18807:18970   */\n      pop\n        /* \"#utility.yul\":19054:19058   */\n      0xe0\n        /* \"#utility.yul\":19047:19052   */\n      dup4\n        /* \"#utility.yul\":19043:19059   */\n      add\n        /* \"#utility.yul\":19037:19060   */\n      mload\n        /* \"#utility.yul\":19107:19110   */\n      dup5\n        /* \"#utility.yul\":19101:19105   */\n      dup3\n        /* \"#utility.yul\":19097:19111   */\n      sub\n        /* \"#utility.yul\":19090:19094   */\n      0xe0\n        /* \"#utility.yul\":19085:19088   */\n      dup7\n        /* \"#utility.yul\":19081:19095   */\n      add\n        /* \"#utility.yul\":19074:19112   */\n      mstore\n        /* \"#utility.yul\":19133:19206   */\n      tag_650\n        /* \"#utility.yul\":19201:19205   */\n      dup3\n        /* \"#utility.yul\":19187:19199   */\n      dup3\n        /* \"#utility.yul\":19133:19206   */\n      tag_377\n      jump\t// in\n    tag_650:\n        /* \"#utility.yul\":19125:19206   */\n      swap2\n      pop\n        /* \"#utility.yul\":18980:19217   */\n      pop\n        /* \"#utility.yul\":19310:19316   */\n      0x0100\n        /* \"#utility.yul\":19303:19308   */\n      dup4\n        /* \"#utility.yul\":19299:19317   */\n      add\n        /* \"#utility.yul\":19293:19318   */\n      mload\n        /* \"#utility.yul\":19331:19412   */\n      tag_651\n        /* \"#utility.yul\":19404:19410   */\n      0x0100\n        /* \"#utility.yul\":19399:19402   */\n      dup7\n        /* \"#utility.yul\":19395:19411   */\n      add\n        /* \"#utility.yul\":19381:19393   */\n      dup3\n        /* \"#utility.yul\":19331:19412   */\n      tag_401\n      jump\t// in\n    tag_651:\n        /* \"#utility.yul\":19227:19422   */\n      pop\n        /* \"#utility.yul\":19439:19443   */\n      dup1\n        /* \"#utility.yul\":19432:19443   */\n      swap2\n      pop\n        /* \"#utility.yul\":17693:19449   */\n      pop\n        /* \"#utility.yul\":17575:19449   */\n      swap3\n      swap2\n      pop\n      pop\n      jump\t// out\n        /* \"#utility.yul\":19455:19719   */\n    tag_403:\n        /* \"#utility.yul\":19578:19588   */\n      0x00\n        /* \"#utility.yul\":19613:19713   */\n      tag_653\n        /* \"#utility.yul\":19709:19712   */\n      dup4\n        /* \"#utility.yul\":19701:19707   */\n      dup4\n        /* \"#utility.yul\":19613:19713   */\n      tag_402\n      jump\t// in\n    tag_653:\n        /* \"#utility.yul\":19599:19713   */\n      swap1\n      pop\n        /* \"#utility.yul\":19455:19719   */\n      swap3\n      swap2\n      pop\n      pop\n      jump\t// out\n        /* \"#utility.yul\":19725:19865   */\n    tag_404:\n        /* \"#utility.yul\":19822:19826   */\n      0x00\n        /* \"#utility.yul\":19854:19858   */\n      0x20\n        /* \"#utility.yul\":19849:19852   */\n      dup3\n        /* \"#utility.yul\":19845:19859   */\n      add\n        /* \"#utility.yul\":19837:19859   */\n      swap1\n      pop\n        /* \"#utility.yul\":19725:19865   */\n      swap2\n      swap1\n      pop\n      jump\t// out\n        /* \"#utility.yul\":19967:21094   */\n    tag_405:\n        /* \"#utility.yul\":20140:20143   */\n      0x00\n        /* \"#utility.yul\":20169:20250   */\n      tag_656\n        /* \"#utility.yul\":20244:20249   */\n      dup3\n        /* \"#utility.yul\":20169:20250   */\n      tag_398\n      jump\t// in\n    tag_656:\n        /* \"#utility.yul\":20266:20379   */\n      tag_657\n        /* \"#utility.yul\":20372:20378   */\n      dup2\n        /* \"#utility.yul\":20367:20370   */\n      dup6\n        /* \"#utility.yul\":20266:20379   */\n      tag_399\n      jump\t// in\n    tag_657:\n        /* \"#utility.yul\":20259:20379   */\n      swap4\n      pop\n        /* \"#utility.yul\":20405:20408   */\n      dup4\n        /* \"#utility.yul\":20450:20454   */\n      0x20\n        /* \"#utility.yul\":20442:20448   */\n      dup3\n        /* \"#utility.yul\":20438:20455   */\n      mul\n        /* \"#utility.yul\":20433:20436   */\n      dup6\n        /* \"#utility.yul\":20429:20456   */\n      add\n        /* \"#utility.yul\":20480:20563   */\n      tag_658\n        /* \"#utility.yul\":20557:20562   */\n      dup6\n        /* \"#utility.yul\":20480:20563   */\n      tag_400\n      jump\t// in\n    tag_658:\n        /* \"#utility.yul\":20586:20593   */\n      dup1\n        /* \"#utility.yul\":20617:20618   */\n      0x00\n        /* \"#utility.yul\":20602:21049   */\n    tag_659:\n        /* \"#utility.yul\":20627:20633   */\n      dup6\n        /* \"#utility.yul\":20624:20625   */\n      dup2\n        /* \"#utility.yul\":20621:20634   */\n      lt\n        /* \"#utility.yul\":20602:21049   */\n      iszero\n      tag_661\n      jumpi\n        /* \"#utility.yul\":20698:20707   */\n      dup5\n        /* \"#utility.yul\":20692:20696   */\n      dup5\n        /* \"#utility.yul\":20688:20708   */\n      sub\n        /* \"#utility.yul\":20683:20686   */\n      dup10\n        /* \"#utility.yul\":20676:20709   */\n      mstore\n        /* \"#utility.yul\":20749:20755   */\n      dup2\n        /* \"#utility.yul\":20743:20756   */\n      mload\n        /* \"#utility.yul\":20777:20895   */\n      tag_662\n        /* \"#utility.yul\":20890:20894   */\n      dup6\n        /* \"#utility.yul\":20875:20888   */\n      dup3\n        /* \"#utility.yul\":20777:20895   */\n      tag_403\n      jump\t// in\n    tag_662:\n        /* \"#utility.yul\":20769:20895   */\n      swap5\n      pop\n        /* \"#utility.yul\":20918:21005   */\n      tag_663\n        /* \"#utility.yul\":20998:21004   */\n      dup4\n        /* \"#utility.yul\":20918:21005   */\n      tag_404\n      jump\t// in\n    tag_663:\n        /* \"#utility.yul\":20908:21005   */\n      swap3\n      pop\n        /* \"#utility.yul\":21034:21038   */\n      0x20\n        /* \"#utility.yul\":21029:21032   */\n      dup11\n        /* \"#utility.yul\":21025:21039   */\n      add\n        /* \"#utility.yul\":21018:21039   */\n      swap10\n      pop\n        /* \"#utility.yul\":20662:21049   */\n      pop\n        /* \"#utility.yul\":20649:20650   */\n      0x01\n        /* \"#utility.yul\":20646:20647   */\n      dup2\n        /* \"#utility.yul\":20642:20651   */\n      add\n        /* \"#utility.yul\":20637:20651   */\n      swap1\n      pop\n        /* \"#utility.yul\":20602:21049   */\n      jump(tag_659)\n    tag_661:\n        /* \"#utility.yul\":20606:20620   */\n      pop\n        /* \"#utility.yul\":21065:21069   */\n      dup3\n        /* \"#utility.yul\":21058:21069   */\n      swap8\n      pop\n        /* \"#utility.yul\":21085:21088   */\n      dup8\n        /* \"#utility.yul\":21078:21088   */\n      swap6\n      pop\n        /* \"#utility.yul\":20145:21094   */\n      pop\n      pop\n      pop\n      pop\n      pop\n        /* \"#utility.yul\":19967:21094   */\n      swap3\n      swap2\n      pop\n      pop\n      jump\t// out\n        /* \"#utility.yul\":21100:21581   */\n    tag_75:\n        /* \"#utility.yul\":21297:21301   */\n      0x00\n        /* \"#utility.yul\":21335:21337   */\n      0x20\n        /* \"#utility.yul\":21324:21333   */\n      dup3\n        /* \"#utility.yul\":21320:21338   */\n      add\n        /* \"#utility.yul\":21312:21338   */\n      swap1\n      pop\n        /* \"#utility.yul\":21384:21393   */\n      dup2\n        /* \"#utility.yul\":21378:21382   */\n      dup2\n        /* \"#utility.yul\":21374:21394   */\n      sub\n        /* \"#utility.yul\":21370:21371   */\n      0x00\n        /* \"#utility.yul\":21359:21368   */\n      dup4\n        /* \"#utility.yul\":21355:21372   */\n      add\n        /* \"#utility.yul\":21348:21395   */\n      mstore\n        /* \"#utility.yul\":21412:21574   */\n      tag_665\n        /* \"#utility.yul\":21569:21573   */\n      dup2\n        /* \"#utility.yul\":21560:21566   */\n      dup5\n        /* \"#utility.yul\":21412:21574   */\n      tag_405\n      jump\t// in\n    tag_665:\n        /* \"#utility.yul\":21404:21574   */\n      swap1\n      pop\n        /* \"#utility.yul\":21100:21581   */\n      swap3\n      swap2\n      pop\n      pop\n      jump\t// out\n        /* \"#utility.yul\":21587:22061   */\n    tag_78:\n        /* \"#utility.yul\":21655:21661   */\n      0x00\n        /* \"#utility.yul\":21663:21669   */\n      dup1\n        /* \"#utility.yul\":21712:21714   */\n      0x40\n        /* \"#utility.yul\":21700:21709   */\n      dup4\n        /* \"#utility.yul\":21691:21698   */\n      dup6\n        /* \"#utility.yul\":21687:21710   */\n      sub\n        /* \"#utility.yul\":21683:21715   */\n      slt\n        /* \"#utility.yul\":21680:21799   */\n      iszero\n      tag_667\n      jumpi\n        /* \"#utility.yul\":21718:21797   */\n      tag_668\n      tag_349\n      jump\t// in\n    tag_668:\n        /* \"#utility.yul\":21680:21799   */\n    tag_667:\n        /* \"#utility.yul\":21838:21839   */\n      0x00\n        /* \"#utility.yul\":21863:21916   */\n      tag_669\n        /* \"#utility.yul\":21908:21915   */\n      dup6\n        /* \"#utility.yul\":21899:21905   */\n      dup3\n        /* \"#utility.yul\":21888:21897   */\n      dup7\n        /* \"#utility.yul\":21884:21906   */\n      add\n        /* \"#utility.yul\":21863:21916   */\n      tag_360\n      jump\t// in\n    tag_669:\n        /* \"#utility.yul\":21853:21916   */\n      swap3\n      pop\n        /* \"#utility.yul\":21809:21926   */\n      pop\n        /* \"#utility.yul\":21965:21967   */\n      0x20\n        /* \"#utility.yul\":21991:22044   */\n      tag_670\n        /* \"#utility.yul\":22036:22043   */\n      dup6\n        /* \"#utility.yul\":22027:22033   */\n      dup3\n        /* \"#utility.yul\":22016:22025   */\n      dup7\n        /* \"#utility.yul\":22012:22034   */\n      add\n        /* \"#utility.yul\":21991:22044   */\n      tag_353\n      jump\t// in\n    tag_670:\n        /* \"#utility.yul\":21981:22044   */\n      swap2\n      pop\n        /* \"#utility.yul\":21936:22054   */\n      pop\n        /* \"#utility.yul\":21587:22061   */\n      swap3\n      pop\n      swap3\n      swap1\n      pop\n      jump\t// out\n        /* \"#utility.yul\":22067:22205   */\n    tag_406:\n        /* \"#utility.yul\":22158:22164   */\n      0x00\n        /* \"#utility.yul\":22192:22197   */\n      dup2\n        /* \"#utility.yul\":22186:22198   */\n      mload\n        /* \"#utility.yul\":22176:22198   */\n      swap1\n      pop\n        /* \"#utility.yul\":22067:22205   */\n      swap2\n      swap1\n      pop\n      jump\t// out\n        /* \"#utility.yul\":22211:22419   */\n    tag_407:\n        /* \"#utility.yul\":22334:22345   */\n      0x00\n        /* \"#utility.yul\":22368:22374   */\n      dup3\n        /* \"#utility.yul\":22363:22366   */\n      dup3\n        /* \"#utility.yul\":22356:22375   */\n      mstore\n        /* \"#utility.yul\":22408:22412   */\n      0x20\n        /* \"#utility.yul\":22403:22406   */\n      dup3\n        /* \"#utility.yul\":22399:22413   */\n      add\n        /* \"#utility.yul\":22384:22413   */\n      swap1\n      pop\n        /* \"#utility.yul\":22211:22419   */\n      swap3\n      swap2\n      pop\n      pop\n      jump\t// out\n        /* \"#utility.yul\":22425:22581   */\n    tag_408:\n        /* \"#utility.yul\":22516:22520   */\n      0x00\n        /* \"#utility.yul\":22539:22542   */\n      dup2\n        /* \"#utility.yul\":22531:22542   */\n      swap1\n      pop\n        /* \"#utility.yul\":22569:22573   */\n      0x20\n        /* \"#utility.yul\":22564:22567   */\n      dup3\n        /* \"#utility.yul\":22560:22574   */\n      add\n        /* \"#utility.yul\":22552:22574   */\n      swap1\n      pop\n        /* \"#utility.yul\":22425:22581   */\n      swap2\n      swap1\n      pop\n      jump\t// out\n        /* \"#utility.yul\":22673:23992   */\n    tag_409:\n        /* \"#utility.yul\":22780:22783   */\n      0x00\n        /* \"#utility.yul\":22816:22820   */\n      0xc0\n        /* \"#utility.yul\":22811:22814   */\n      dup4\n        /* \"#utility.yul\":22807:22821   */\n      add\n        /* \"#utility.yul\":22907:22911   */\n      0x00\n        /* \"#utility.yul\":22900:22905   */\n      dup4\n        /* \"#utility.yul\":22896:22912   */\n      add\n        /* \"#utility.yul\":22890:22913   */\n      mload\n        /* \"#utility.yul\":22960:22963   */\n      dup5\n        /* \"#utility.yul\":22954:22958   */\n      dup3\n        /* \"#utility.yul\":22950:22964   */\n      sub\n        /* \"#utility.yul\":22943:22947   */\n      0x00\n        /* \"#utility.yul\":22938:22941   */\n      dup7\n        /* \"#utility.yul\":22934:22948   */\n      add\n        /* \"#utility.yul\":22927:22965   */\n      mstore\n        /* \"#utility.yul\":22986:23059   */\n      tag_675\n        /* \"#utility.yul\":23054:23058   */\n      dup3\n        /* \"#utility.yul\":23040:23052   */\n      dup3\n        /* \"#utility.yul\":22986:23059   */\n      tag_377\n      jump\t// in\n    tag_675:\n        /* \"#utility.yul\":22978:23059   */\n      swap2\n      pop\n        /* \"#utility.yul\":22831:23070   */\n      pop\n        /* \"#utility.yul\":23156:23160   */\n      0x20\n        /* \"#utility.yul\":23149:23154   */\n      dup4\n        /* \"#utility.yul\":23145:23161   */\n      add\n        /* \"#utility.yul\":23139:23162   */\n      mload\n        /* \"#utility.yul\":23175:23236   */\n      tag_676\n        /* \"#utility.yul\":23230:23234   */\n      0x20\n        /* \"#utility.yul\":23225:23228   */\n      dup7\n        /* \"#utility.yul\":23221:23235   */\n      add\n        /* \"#utility.yul\":23207:23219   */\n      dup3\n        /* \"#utility.yul\":23175:23236   */\n      tag_378\n      jump\t// in\n    tag_676:\n        /* \"#utility.yul\":23080:23246   */\n      pop\n        /* \"#utility.yul\":23333:23337   */\n      0x40\n        /* \"#utility.yul\":23326:23331   */\n      dup4\n        /* \"#utility.yul\":23322:23338   */\n      add\n        /* \"#utility.yul\":23316:23339   */\n      mload\n        /* \"#utility.yul\":23352:23413   */\n      tag_677\n        /* \"#utility.yul\":23407:23411   */\n      0x40\n        /* \"#utility.yul\":23402:23405   */\n      dup7\n        /* \"#utility.yul\":23398:23412   */\n      add\n        /* \"#utility.yul\":23384:23396   */\n      dup3\n        /* \"#utility.yul\":23352:23413   */\n      tag_378\n      jump\t// in\n    tag_677:\n        /* \"#utility.yul\":23256:23423   */\n      pop\n        /* \"#utility.yul\":23514:23518   */\n      0x60\n        /* \"#utility.yul\":23507:23512   */\n      dup4\n        /* \"#utility.yul\":23503:23519   */\n      add\n        /* \"#utility.yul\":23497:23520   */\n      mload\n        /* \"#utility.yul\":23533:23596   */\n      tag_678\n        /* \"#utility.yul\":23590:23594   */\n      0x60\n        /* \"#utility.yul\":23585:23588   */\n      dup7\n        /* \"#utility.yul\":23581:23595   */\n      add\n        /* \"#utility.yul\":23567:23579   */\n      dup3\n        /* \"#utility.yul\":23533:23596   */\n      tag_379\n      jump\t// in\n    tag_678:\n        /* \"#utility.yul\":23433:23606   */\n      pop\n        /* \"#utility.yul\":23697:23701   */\n      0x80\n        /* \"#utility.yul\":23690:23695   */\n      dup4\n        /* \"#utility.yul\":23686:23702   */\n      add\n        /* \"#utility.yul\":23680:23703   */\n      mload\n        /* \"#utility.yul\":23716:23779   */\n      tag_679\n        /* \"#utility.yul\":23773:23777   */\n      0x80\n        /* \"#utility.yul\":23768:23771   */\n      dup7\n        /* \"#utility.yul\":23764:23778   */\n      add\n        /* \"#utility.yul\":23750:23762   */\n      dup3\n        /* \"#utility.yul\":23716:23779   */\n      tag_379\n      jump\t// in\n    tag_679:\n        /* \"#utility.yul\":23616:23789   */\n      pop\n        /* \"#utility.yul\":23879:23883   */\n      0xa0\n        /* \"#utility.yul\":23872:23877   */\n      dup4\n        /* \"#utility.yul\":23868:23884   */\n      add\n        /* \"#utility.yul\":23862:23885   */\n      mload\n        /* \"#utility.yul\":23898:23955   */\n      tag_680\n        /* \"#utility.yul\":23949:23953   */\n      0xa0\n        /* \"#utility.yul\":23944:23947   */\n      dup7\n        /* \"#utility.yul\":23940:23954   */\n      add\n        /* \"#utility.yul\":23926:23938   */\n      dup3\n        /* \"#utility.yul\":23898:23955   */\n      tag_380\n      jump\t// in\n    tag_680:\n        /* \"#utility.yul\":23799:23965   */\n      pop\n        /* \"#utility.yul\":23982:23986   */\n      dup1\n        /* \"#utility.yul\":23975:23986   */\n      swap2\n      pop\n        /* \"#utility.yul\":22785:23992   */\n      pop\n        /* \"#utility.yul\":22673:23992   */\n      swap3\n      swap2\n      pop\n      pop\n      jump\t// out\n        /* \"#utility.yul\":23998:24250   */\n    tag_410:\n        /* \"#utility.yul\":24115:24125   */\n      0x00\n        /* \"#utility.yul\":24150:24244   */\n      tag_682\n        /* \"#utility.yul\":24240:24243   */\n      dup4\n        /* \"#utility.yul\":24232:24238   */\n      dup4\n        /* \"#utility.yul\":24150:24244   */\n      tag_409\n      jump\t// in\n    tag_682:\n        /* \"#utility.yul\":24136:24244   */\n      swap1\n      pop\n        /* \"#utility.yul\":23998:24250   */\n      swap3\n      swap2\n      pop\n      pop\n      jump\t// out\n        /* \"#utility.yul\":24256:24393   */\n    tag_411:\n        /* \"#utility.yul\":24350:24354   */\n      0x00\n        /* \"#utility.yul\":24382:24386   */\n      0x20\n        /* \"#utility.yul\":24377:24380   */\n      dup3\n        /* \"#utility.yul\":24373:24387   */\n      add\n        /* \"#utility.yul\":24365:24387   */\n      swap1\n      pop\n        /* \"#utility.yul\":24256:24393   */\n      swap2\n      swap1\n      pop\n      jump\t// out\n        /* \"#utility.yul\":24489:25592   */\n    tag_412:\n        /* \"#utility.yul\":24656:24659   */\n      0x00\n        /* \"#utility.yul\":24685:24763   */\n      tag_685\n        /* \"#utility.yul\":24757:24762   */\n      dup3\n        /* \"#utility.yul\":24685:24763   */\n      tag_406\n      jump\t// in\n    tag_685:\n        /* \"#utility.yul\":24779:24889   */\n      tag_686\n        /* \"#utility.yul\":24882:24888   */\n      dup2\n        /* \"#utility.yul\":24877:24880   */\n      dup6\n        /* \"#utility.yul\":24779:24889   */\n      tag_407\n      jump\t// in\n    tag_686:\n        /* \"#utility.yul\":24772:24889   */\n      swap4\n      pop\n        /* \"#utility.yul\":24915:24918   */\n      dup4\n        /* \"#utility.yul\":24960:24964   */\n      0x20\n        /* \"#utility.yul\":24952:24958   */\n      dup3\n        /* \"#utility.yul\":24948:24965   */\n      mul\n        /* \"#utility.yul\":24943:24946   */\n      dup6\n        /* \"#utility.yul\":24939:24966   */\n      add\n        /* \"#utility.yul\":24990:25070   */\n      tag_687\n        /* \"#utility.yul\":25064:25069   */\n      dup6\n        /* \"#utility.yul\":24990:25070   */\n      tag_408\n      jump\t// in\n    tag_687:\n        /* \"#utility.yul\":25093:25100   */\n      dup1\n        /* \"#utility.yul\":25124:25125   */\n      0x00\n        /* \"#utility.yul\":25109:25547   */\n    tag_688:\n        /* \"#utility.yul\":25134:25140   */\n      dup6\n        /* \"#utility.yul\":25131:25132   */\n      dup2\n        /* \"#utility.yul\":25128:25141   */\n      lt\n        /* \"#utility.yul\":25109:25547   */\n      iszero\n      tag_690\n      jumpi\n        /* \"#utility.yul\":25205:25214   */\n      dup5\n        /* \"#utility.yul\":25199:25203   */\n      dup5\n        /* \"#utility.yul\":25195:25215   */\n      sub\n        /* \"#utility.yul\":25190:25193   */\n      dup10\n        /* \"#utility.yul\":25183:25216   */\n      mstore\n        /* \"#utility.yul\":25256:25262   */\n      dup2\n        /* \"#utility.yul\":25250:25263   */\n      mload\n        /* \"#utility.yul\":25284:25396   */\n      tag_691\n        /* \"#utility.yul\":25391:25395   */\n      dup6\n        /* \"#utility.yul\":25376:25389   */\n      dup3\n        /* \"#utility.yul\":25284:25396   */\n      tag_410\n      jump\t// in\n    tag_691:\n        /* \"#utility.yul\":25276:25396   */\n      swap5\n      pop\n        /* \"#utility.yul\":25419:25503   */\n      tag_692\n        /* \"#utility.yul\":25496:25502   */\n      dup4\n        /* \"#utility.yul\":25419:25503   */\n      tag_411\n      jump\t// in\n    tag_692:\n        /* \"#utility.yul\":25409:25503   */\n      swap3\n      pop\n        /* \"#utility.yul\":25532:25536   */\n      0x20\n        /* \"#utility.yul\":25527:25530   */\n      dup11\n        /* \"#utility.yul\":25523:25537   */\n      add\n        /* \"#utility.yul\":25516:25537   */\n      swap10\n      pop\n        /* \"#utility.yul\":25169:25547   */\n      pop\n        /* \"#utility.yul\":25156:25157   */\n      0x01\n        /* \"#utility.yul\":25153:25154   */\n      dup2\n        /* \"#utility.yul\":25149:25158   */\n      add\n        /* \"#utility.yul\":25144:25158   */\n      swap1\n      pop\n        /* \"#utility.yul\":25109:25547   */\n      jump(tag_688)\n    tag_690:\n        /* \"#utility.yul\":25113:25127   */\n      pop\n        /* \"#utility.yul\":25563:25567   */\n      dup3\n        /* \"#utility.yul\":25556:25567   */\n      swap8\n      pop\n        /* \"#utility.yul\":25583:25586   */\n      dup8\n        /* \"#utility.yul\":25576:25586   */\n      swap6\n      pop\n        /* \"#utility.yul\":24661:25592   */\n      pop\n      pop\n      pop\n      pop\n      pop\n        /* \"#utility.yul\":24489:25592   */\n      swap3\n      swap2\n      pop\n      pop\n      jump\t// out\n        /* \"#utility.yul\":25598:26067   */\n    tag_89:\n        /* \"#utility.yul\":25789:25793   */\n      0x00\n        /* \"#utility.yul\":25827:25829   */\n      0x20\n        /* \"#utility.yul\":25816:25825   */\n      dup3\n        /* \"#utility.yul\":25812:25830   */\n      add\n        /* \"#utility.yul\":25804:25830   */\n      swap1\n      pop\n        /* \"#utility.yul\":25876:25885   */\n      dup2\n        /* \"#utility.yul\":25870:25874   */\n      dup2\n        /* \"#utility.yul\":25866:25886   */\n      sub\n        /* \"#utility.yul\":25862:25863   */\n      0x00\n        /* \"#utility.yul\":25851:25860   */\n      dup4\n        /* \"#utility.yul\":25847:25864   */\n      add\n        /* \"#utility.yul\":25840:25887   */\n      mstore\n        /* \"#utility.yul\":25904:26060   */\n      tag_694\n        /* \"#utility.yul\":26055:26059   */\n      dup2\n        /* \"#utility.yul\":26046:26052   */\n      dup5\n        /* \"#utility.yul\":25904:26060   */\n      tag_412\n      jump\t// in\n    tag_694:\n        /* \"#utility.yul\":25896:26060   */\n      swap1\n      pop\n        /* \"#utility.yul\":25598:26067   */\n      swap3\n      swap2\n      pop\n      pop\n      jump\t// out\n        /* \"#utility.yul\":26073:26295   */\n    tag_93:\n        /* \"#utility.yul\":26166:26170   */\n      0x00\n        /* \"#utility.yul\":26204:26206   */\n      0x20\n        /* \"#utility.yul\":26193:26202   */\n      dup3\n        /* \"#utility.yul\":26189:26207   */\n      add\n        /* \"#utility.yul\":26181:26207   */\n      swap1\n      pop\n        /* \"#utility.yul\":26217:26288   */\n      tag_696\n        /* \"#utility.yul\":26285:26286   */\n      0x00\n        /* \"#utility.yul\":26274:26283   */\n      dup4\n        /* \"#utility.yul\":26270:26287   */\n      add\n        /* \"#utility.yul\":26261:26267   */\n      dup5\n        /* \"#utility.yul\":26217:26288   */\n      tag_383\n      jump\t// in\n    tag_696:\n        /* \"#utility.yul\":26073:26295   */\n      swap3\n      swap2\n      pop\n      pop\n      jump\t// out\n        /* \"#utility.yul\":26301:26478   */\n    tag_413:\n        /* \"#utility.yul\":26441:26470   */\n      0x5472616e73616374696f6e20646f6573206e6f742065786973742e0000000000\n        /* \"#utility.yul\":26437:26438   */\n      0x00\n        /* \"#utility.yul\":26429:26435   */\n      dup3\n        /* \"#utility.yul\":26425:26439   */\n      add\n        /* \"#utility.yul\":26418:26471   */\n      mstore\n        /* \"#utility.yul\":26301:26478   */\n      pop\n      jump\t// out\n        /* \"#utility.yul\":26484:26850   */\n    tag_414:\n        /* \"#utility.yul\":26626:26629   */\n      0x00\n        /* \"#utility.yul\":26647:26714   */\n      tag_699\n        /* \"#utility.yul\":26711:26713   */\n      0x1b\n        /* \"#utility.yul\":26706:26709   */\n      dup4\n        /* \"#utility.yul\":26647:26714   */\n      tag_384\n      jump\t// in\n    tag_699:\n        /* \"#utility.yul\":26640:26714   */\n      swap2\n      pop\n        /* \"#utility.yul\":26723:26816   */\n      tag_700\n        /* \"#utility.yul\":26812:26815   */\n      dup3\n        /* \"#utility.yul\":26723:26816   */\n      tag_413\n      jump\t// in\n    tag_700:\n        /* \"#utility.yul\":26841:26843   */\n      0x20\n        /* \"#utility.yul\":26836:26839   */\n      dup3\n        /* \"#utility.yul\":26832:26844   */\n      add\n        /* \"#utility.yul\":26825:26844   */\n      swap1\n      pop\n        /* \"#utility.yul\":26484:26850   */\n      swap2\n      swap1\n      pop\n      jump\t// out\n        /* \"#utility.yul\":26856:27275   */\n    tag_98:\n        /* \"#utility.yul\":27022:27026   */\n      0x00\n        /* \"#utility.yul\":27060:27062   */\n      0x20\n        /* \"#utility.yul\":27049:27058   */\n      dup3\n        /* \"#utility.yul\":27045:27063   */\n      add\n        /* \"#utility.yul\":27037:27063   */\n      swap1\n      pop\n        /* \"#utility.yul\":27109:27118   */\n      dup2\n        /* \"#utility.yul\":27103:27107   */\n      dup2\n        /* \"#utility.yul\":27099:27119   */\n      sub\n        /* \"#utility.yul\":27095:27096   */\n      0x00\n        /* \"#utility.yul\":27084:27093   */\n      dup4\n        /* \"#utility.yul\":27080:27097   */\n      add\n        /* \"#utility.yul\":27073:27120   */\n      mstore\n        /* \"#utility.yul\":27137:27268   */\n      tag_702\n        /* \"#utility.yul\":27263:27267   */\n      dup2\n        /* \"#utility.yul\":27137:27268   */\n      tag_414\n      jump\t// in\n    tag_702:\n        /* \"#utility.yul\":27129:27268   */\n      swap1\n      pop\n        /* \"#utility.yul\":26856:27275   */\n      swap2\n      swap1\n      pop\n      jump\t// out\n        /* \"#utility.yul\":27281:27461   */\n    tag_415:\n        /* \"#utility.yul\":27421:27453   */\n      0x5472616e73616374696f6e20616c726561647920636f6d6d69747465642e0000\n        /* \"#utility.yul\":27417:27418   */\n      0x00\n        /* \"#utility.yul\":27409:27415   */\n      dup3\n        /* \"#utility.yul\":27405:27419   */\n      add\n        /* \"#utility.yul\":27398:27454   */\n      mstore\n        /* \"#utility.yul\":27281:27461   */\n      pop\n      jump\t// out\n        /* \"#utility.yul\":27467:27833   */\n    tag_416:\n        /* \"#utility.yul\":27609:27612   */\n      0x00\n        /* \"#utility.yul\":27630:27697   */\n      tag_705\n        /* \"#utility.yul\":27694:27696   */\n      0x1e\n        /* \"#utility.yul\":27689:27692   */\n      dup4\n        /* \"#utility.yul\":27630:27697   */\n      tag_384\n      jump\t// in\n    tag_705:\n        /* \"#utility.yul\":27623:27697   */\n      swap2\n      pop\n        /* \"#utility.yul\":27706:27799   */\n      tag_706\n        /* \"#utility.yul\":27795:27798   */\n      dup3\n        /* \"#utility.yul\":27706:27799   */\n      tag_415\n      jump\t// in\n    tag_706:\n        /* \"#utility.yul\":27824:27826   */\n      0x20\n        /* \"#utility.yul\":27819:27822   */\n      dup3\n        /* \"#utility.yul\":27815:27827   */\n      add\n        /* \"#utility.yul\":27808:27827   */\n      swap1\n      pop\n        /* \"#utility.yul\":27467:27833   */\n      swap2\n      swap1\n      pop\n      jump\t// out\n        /* \"#utility.yul\":27839:28258   */\n    tag_101:\n        /* \"#utility.yul\":28005:28009   */\n      0x00\n        /* \"#utility.yul\":28043:28045   */\n      0x20\n        /* \"#utility.yul\":28032:28041   */\n      dup3\n        /* \"#utility.yul\":28028:28046   */\n      add\n        /* \"#utility.yul\":28020:28046   */\n      swap1\n      pop\n        /* \"#utility.yul\":28092:28101   */\n      dup2\n        /* \"#utility.yul\":28086:28090   */\n      dup2\n        /* \"#utility.yul\":28082:28102   */\n      sub\n        /* \"#utility.yul\":28078:28079   */\n      0x00\n        /* \"#utility.yul\":28067:28076   */\n      dup4\n        /* \"#utility.yul\":28063:28080   */\n      add\n        /* \"#utility.yul\":28056:28103   */\n      mstore\n        /* \"#utility.yul\":28120:28251   */\n      tag_708\n        /* \"#utility.yul\":28246:28250   */\n      dup2\n        /* \"#utility.yul\":28120:28251   */\n      tag_416\n      jump\t// in\n    tag_708:\n        /* \"#utility.yul\":28112:28251   */\n      swap1\n      pop\n        /* \"#utility.yul\":27839:28258   */\n      swap2\n      swap1\n      pop\n      jump\t// out\n        /* \"#utility.yul\":28264:28444   */\n    tag_417:\n        /* \"#utility.yul\":28312:28389   */\n      0x4e487b7100000000000000000000000000000000000000000000000000000000\n        /* \"#utility.yul\":28309:28310   */\n      0x00\n        /* \"#utility.yul\":28302:28390   */\n      mstore\n        /* \"#utility.yul\":28409:28413   */\n      0x22\n        /* \"#utility.yul\":28406:28407   */\n      0x04\n        /* \"#utility.yul\":28399:28414   */\n      mstore\n        /* \"#utility.yul\":28433:28437   */\n      0x24\n        /* \"#utility.yul\":28430:28431   */\n      0x00\n        /* \"#utility.yul\":28423:28438   */\n      revert\n        /* \"#utility.yul\":28450:28770   */\n    tag_230:\n        /* \"#utility.yul\":28494:28500   */\n      0x00\n        /* \"#utility.yul\":28531:28532   */\n      0x02\n        /* \"#utility.yul\":28525:28529   */\n      dup3\n        /* \"#utility.yul\":28521:28533   */\n      div\n        /* \"#utility.yul\":28511:28533   */\n      swap1\n      pop\n        /* \"#utility.yul\":28578:28579   */\n      0x01\n        /* \"#utility.yul\":28572:28576   */\n      dup3\n        /* \"#utility.yul\":28568:28580   */\n      and\n        /* \"#utility.yul\":28599:28617   */\n      dup1\n        /* \"#utility.yul\":28589:28670   */\n      tag_711\n      jumpi\n        /* \"#utility.yul\":28655:28659   */\n      0x7f\n        /* \"#utility.yul\":28647:28653   */\n      dup3\n        /* \"#utility.yul\":28643:28660   */\n      and\n        /* \"#utility.yul\":28633:28660   */\n      swap2\n      pop\n        /* \"#utility.yul\":28589:28670   */\n    tag_711:\n        /* \"#utility.yul\":28717:28719   */\n      0x20\n        /* \"#utility.yul\":28709:28715   */\n      dup3\n        /* \"#utility.yul\":28706:28720   */\n      lt\n        /* \"#utility.yul\":28686:28704   */\n      dup2\n        /* \"#utility.yul\":28683:28721   */\n      sub\n        /* \"#utility.yul\":28680:28764   */\n      tag_712\n      jumpi\n        /* \"#utility.yul\":28736:28754   */\n      tag_713\n      tag_417\n      jump\t// in\n    tag_713:\n        /* \"#utility.yul\":28680:28764   */\n    tag_712:\n        /* \"#utility.yul\":28501:28770   */\n      pop\n        /* \"#utility.yul\":28450:28770   */\n      swap2\n      swap1\n      pop\n      jump\t// out\n        /* \"#utility.yul\":28776:28917   */\n    tag_418:\n        /* \"#utility.yul\":28825:28829   */\n      0x00\n        /* \"#utility.yul\":28848:28851   */\n      dup2\n        /* \"#utility.yul\":28840:28851   */\n      swap1\n      pop\n        /* \"#utility.yul\":28871:28874   */\n      dup2\n        /* \"#utility.yul\":28868:28869   */\n      0x00\n        /* \"#utility.yul\":28861:28875   */\n      mstore\n        /* \"#utility.yul\":28905:28909   */\n      0x20\n        /* \"#utility.yul\":28902:28903   */\n      0x00\n        /* \"#utility.yul\":28892:28910   */\n      keccak256\n        /* \"#utility.yul\":28884:28910   */\n      swap1\n      pop\n        /* \"#utility.yul\":28776:28917   */\n      swap2\n      swap1\n      pop\n      jump\t// out\n        /* \"#utility.yul\":28923:29016   */\n    tag_419:\n        /* \"#utility.yul\":28960:28966   */\n      0x00\n        /* \"#utility.yul\":29007:29009   */\n      0x20\n        /* \"#utility.yul\":29002:29004   */\n      0x1f\n        /* \"#utility.yul\":28995:29000   */\n      dup4\n        /* \"#utility.yul\":28991:29005   */\n      add\n        /* \"#utility.yul\":28987:29010   */\n      div\n        /* \"#utility.yul\":28977:29010   */\n      swap1\n      pop\n        /* \"#utility.yul\":28923:29016   */\n      swap2\n      swap1\n      pop\n      jump\t// out\n        /* \"#utility.yul\":29022:29129   */\n    tag_420:\n        /* \"#utility.yul\":29066:29074   */\n      0x00\n        /* \"#utility.yul\":29116:29121   */\n      dup3\n        /* \"#utility.yul\":29110:29114   */\n      dup3\n        /* \"#utility.yul\":29106:29122   */\n      shl\n        /* \"#utility.yul\":29085:29122   */\n      swap1\n      pop\n        /* \"#utility.yul\":29022:29129   */\n      swap3\n      swap2\n      pop\n      pop\n      jump\t// out\n        /* \"#utility.yul\":29135:29528   */\n    tag_421:\n        /* \"#utility.yul\":29204:29210   */\n      0x00\n        /* \"#utility.yul\":29254:29255   */\n      0x08\n        /* \"#utility.yul\":29242:29252   */\n      dup4\n        /* \"#utility.yul\":29238:29256   */\n      mul\n        /* \"#utility.yul\":29277:29374   */\n      tag_718\n        /* \"#utility.yul\":29307:29373   */\n      0xffffffffffffffffffffffffffffffffffffffffffffffffffffffffffffffff\n        /* \"#utility.yul\":29296:29305   */\n      dup3\n        /* \"#utility.yul\":29277:29374   */\n      tag_420\n      jump\t// in\n    tag_718:\n        /* \"#utility.yul\":29395:29434   */\n      tag_719\n        /* \"#utility.yul\":29425:29433   */\n      dup7\n        /* \"#utility.yul\":29414:29423   */\n      dup4\n        /* \"#utility.yul\":29395:29434   */\n      tag_420\n      jump\t// in\n    tag_719:\n        /* \"#utility.yul\":29383:29434   */\n      swap6\n      pop\n        /* \"#utility.yul\":29467:29471   */\n      dup1\n        /* \"#utility.yul\":29463:29472   */\n      not\n        /* \"#utility.yul\":29456:29461   */\n      dup5\n        /* \"#utility.yul\":29452:29473   */\n      and\n        /* \"#utility.yul\":29443:29473   */\n      swap4\n      pop\n        /* \"#utility.yul\":29516:29520   */\n      dup1\n        /* \"#utility.yul\":29506:29514   */\n      dup7\n        /* \"#utility.yul\":29502:29521   */\n      and\n        /* \"#utility.yul\":29495:29500   */\n      dup5\n        /* \"#utility.yul\":29492:29522   */\n      or\n        /* \"#utility.yul\":29482:29522   */\n      swap3\n      pop\n        /* \"#utility.yul\":29211:29528   */\n      pop\n      pop\n        /* \"#utility.yul\":29135:29528   */\n      swap4\n      swap3\n      pop\n      pop\n      pop\n      jump\t// out\n        /* \"#utility.yul\":29534:29594   */\n    tag_422:\n        /* \"#utility.yul\":29562:29565   */\n      0x00\n        /* \"#utility.yul\":29583:29588   */\n      dup2\n        /* \"#utility.yul\":29576:29588   */\n      swap1\n      pop\n        /* \"#utility.yul\":29534:29594   */\n      swap2\n      swap1\n      pop\n      jump\t// out\n        /* \"#utility.yul\":29600:29742   */\n    tag_423:\n        /* \"#utility.yul\":29650:29659   */\n      0x00\n        /* \"#utility.yul\":29683:29736   */\n      tag_722\n        /* \"#utility.yul\":29701:29735   */\n      tag_723\n        /* \"#utility.yul\":29710:29734   */\n      tag_724\n        /* \"#utility.yul\":29728:29733   */\n      dup5\n        /* \"#utility.yul\":29710:29734   */\n      tag_351\n      jump\t// in\n    tag_724:\n        /* \"#utility.yul\":29701:29735   */\n      tag_422\n      jump\t// in\n    tag_723:\n        /* \"#utility.yul\":29683:29736   */\n      tag_351\n      jump\t// in\n    tag_722:\n        /* \"#utility.yul\":29670:29736   */\n      swap1\n      pop\n        /* \"#utility.yul\":29600:29742   */\n      swap2\n      swap1\n      pop\n      jump\t// out\n        /* \"#utility.yul\":29748:29823   */\n    tag_424:\n        /* \"#utility.yul\":29791:29794   */\n      0x00\n        /* \"#utility.yul\":29812:29817   */\n      dup2\n        /* \"#utility.yul\":29805:29817   */\n      swap1\n      pop\n        /* \"#utility.yul\":29748:29823   */\n      swap2\n      swap1\n      pop\n      jump\t// out\n        /* \"#utility.yul\":29829:30098   */\n    tag_425:\n        /* \"#utility.yul\":29939:29978   */\n      tag_727\n        /* \"#utility.yul\":29970:29977   */\n      dup4\n        /* \"#utility.yul\":29939:29978   */\n      tag_423\n      jump\t// in\n    tag_727:\n        /* \"#utility.yul\":30000:30091   */\n      tag_728\n        /* \"#utility.yul\":30049:30090   */\n      tag_729\n        /* \"#utility.yul\":30073:30089   */\n      dup3\n        /* \"#utility.yul\":30049:30090   */\n      tag_424\n      jump\t// in\n    tag_729:\n        /* \"#utility.yul\":30041:30047   */\n      dup5\n        /* \"#utility.yul\":30034:30038   */\n      dup5\n        /* \"#utility.yul\":30028:30039   */\n      sload\n        /* \"#utility.yul\":30000:30091   */\n      tag_421\n      jump\t// in\n    tag_728:\n        /* \"#utility.yul\":29994:29998   */\n      dup3\n        /* \"#utility.yul\":29987:30092   */\n      sstore\n        /* \"#utility.yul\":29905:30098   */\n      pop\n        /* \"#utility.yul\":29829:30098   */\n      pop\n      pop\n      pop\n      jump\t// out\n        /* \"#utility.yul\":30104:30177   */\n    tag_426:\n        /* \"#utility.yul\":30149:30152   */\n      0x00\n        /* \"#utility.yul\":30104:30177   */\n      swap1\n      jump\t// out\n        /* \"#utility.yul\":30183:30372   */\n    tag_427:\n        /* \"#utility.yul\":30260:30292   */\n      tag_732\n      tag_426\n      jump\t// in\n    tag_732:\n        /* \"#utility.yul\":30301:30366   */\n      tag_733\n        /* \"#utility.yul\":30359:30365   */\n      dup2\n        /* \"#utility.yul\":30351:30357   */\n      dup5\n        /* \"#utility.yul\":30345:30349   */\n      dup5\n        /* \"#utility.yul\":30301:30366   */\n      tag_425\n      jump\t// in\n    tag_733:\n        /* \"#utility.yul\":30236:30372   */\n      pop\n        /* \"#utility.yul\":30183:30372   */\n      pop\n      pop\n      jump\t// out\n        /* \"#utility.yul\":30378:30564   */\n    tag_428:\n        /* \"#utility.yul\":30438:30558   */\n    tag_735:\n        /* \"#utility.yul\":30455:30458   */\n      dup2\n        /* \"#utility.yul\":30448:30453   */\n      dup2\n        /* \"#utility.yul\":30445:30459   */\n      lt\n        /* \"#utility.yul\":30438:30558   */\n      iszero\n      tag_737\n      jumpi\n        /* \"#utility.yul\":30509:30548   */\n      tag_738\n        /* \"#utility.yul\":30546:30547   */\n      0x00\n        /* \"#utility.yul\":30539:30544   */\n      dup3\n        /* \"#utility.yul\":30509:30548   */\n      tag_427\n      jump\t// in\n    tag_738:\n        /* \"#utility.yul\":30482:30483   */\n      0x01\n        /* \"#utility.yul\":30475:30480   */\n      dup2\n        /* \"#utility.yul\":30471:30484   */\n      add\n        /* \"#utility.yul\":30462:30484   */\n      swap1\n      pop\n        /* \"#utility.yul\":30438:30558   */\n      jump(tag_735)\n    tag_737:\n        /* \"#utility.yul\":30378:30564   */\n      pop\n      pop\n      jump\t// out\n        /* \"#utility.yul\":30570:31113   */\n    tag_429:\n        /* \"#utility.yul\":30671:30673   */\n      0x1f\n        /* \"#utility.yul\":30666:30669   */\n      dup3\n        /* \"#utility.yul\":30663:30674   */\n      gt\n        /* \"#utility.yul\":30660:31106   */\n      iszero\n      tag_740\n      jumpi\n        /* \"#utility.yul\":30705:30743   */\n      tag_741\n        /* \"#utility.yul\":30737:30742   */\n      dup2\n        /* \"#utility.yul\":30705:30743   */\n      tag_418\n      jump\t// in\n    tag_741:\n        /* \"#utility.yul\":30789:30818   */\n      tag_742\n        /* \"#utility.yul\":30807:30817   */\n      dup5\n        /* \"#utility.yul\":30789:30818   */\n      tag_419\n      jump\t// in\n    tag_742:\n        /* \"#utility.yul\":30779:30787   */\n      dup2\n        /* \"#utility.yul\":30775:30819   */\n      add\n        /* \"#utility.yul\":30972:30974   */\n      0x20\n        /* \"#utility.yul\":30960:30970   */\n      dup6\n        /* \"#utility.yul\":30957:30975   */\n      lt\n        /* \"#utility.yul\":30954:31003   */\n      iszero\n      tag_743\n      jumpi\n        /* \"#utility.yul\":30993:31001   */\n      dup2\n        /* \"#utility.yul\":30978:31001   */\n      swap1\n      pop\n        /* \"#utility.yul\":30954:31003   */\n    tag_743:\n        /* \"#utility.yul\":31016:31096   */\n      tag_744\n        /* \"#utility.yul\":31072:31094   */\n      tag_745\n        /* \"#utility.yul\":31090:31093   */\n      dup6\n        /* \"#utility.yul\":31072:31094   */\n      tag_419\n      jump\t// in\n    tag_745:\n        /* \"#utility.yul\":31062:31070   */\n      dup4\n        /* \"#utility.yul\":31058:31095   */\n      add\n        /* \"#utility.yul\":31045:31056   */\n      dup3\n        /* \"#utility.yul\":31016:31096   */\n      tag_428\n      jump\t// in\n    tag_744:\n        /* \"#utility.yul\":30675:31106   */\n      pop\n      pop\n        /* \"#utility.yul\":30660:31106   */\n    tag_740:\n        /* \"#utility.yul\":30570:31113   */\n      pop\n      pop\n      pop\n      jump\t// out\n        /* \"#utility.yul\":31119:31236   */\n    tag_430:\n        /* \"#utility.yul\":31173:31181   */\n      0x00\n        /* \"#utility.yul\":31223:31228   */\n      dup3\n        /* \"#utility.yul\":31217:31221   */\n      dup3\n        /* \"#utility.yul\":31213:31229   */\n      shr\n        /* \"#utility.yul\":31192:31229   */\n      swap1\n      pop\n        /* \"#utility.yul\":31119:31236   */\n      swap3\n      swap2\n      pop\n      pop\n      jump\t// out\n        /* \"#utility.yul\":31242:31411   */\n    tag_431:\n        /* \"#utility.yul\":31286:31292   */\n      0x00\n        /* \"#utility.yul\":31319:31370   */\n      tag_748\n        /* \"#utility.yul\":31367:31368   */\n      0x00\n        /* \"#utility.yul\":31363:31369   */\n      not\n        /* \"#utility.yul\":31355:31360   */\n      dup5\n        /* \"#utility.yul\":31352:31353   */\n      0x08\n        /* \"#utility.yul\":31348:31361   */\n      mul\n        /* \"#utility.yul\":31319:31370   */\n      tag_430\n      jump\t// in\n    tag_748:\n        /* \"#utility.yul\":31315:31371   */\n      not\n        /* \"#utility.yul\":31400:31404   */\n      dup1\n        /* \"#utility.yul\":31394:31398   */\n      dup4\n        /* \"#utility.yul\":31390:31405   */\n      and\n        /* \"#utility.yul\":31380:31405   */\n      swap2\n      pop\n        /* \"#utility.yul\":31293:31411   */\n      pop\n        /* \"#utility.yul\":31242:31411   */\n      swap3\n      swap2\n      pop\n      pop\n      jump\t// out\n        /* \"#utility.yul\":31416:31711   */\n    tag_432:\n        /* \"#utility.yul\":31492:31496   */\n      0x00\n        /* \"#utility.yul\":31638:31667   */\n      tag_750\n        /* \"#utility.yul\":31663:31666   */\n      dup4\n        /* \"#utility.yul\":31657:31661   */\n      dup4\n        /* \"#utility.yul\":31638:31667   */\n      tag_431\n      jump\t// in\n    tag_750:\n        /* \"#utility.yul\":31630:31667   */\n      swap2\n      pop\n        /* \"#utility.yul\":31700:31703   */\n      dup3\n        /* \"#utility.yul\":31697:31698   */\n      0x02\n        /* \"#utility.yul\":31693:31704   */\n      mul\n        /* \"#utility.yul\":31687:31691   */\n      dup3\n        /* \"#utility.yul\":31684:31705   */\n      or\n        /* \"#utility.yul\":31676:31705   */\n      swap1\n      pop\n        /* \"#utility.yul\":31416:31711   */\n      swap3\n      swap2\n      pop\n      pop\n      jump\t// out\n        /* \"#utility.yul\":31716:33111   */\n    tag_104:\n        /* \"#utility.yul\":31833:31870   */\n      tag_752\n        /* \"#utility.yul\":31866:31869   */\n      dup3\n        /* \"#utility.yul\":31833:31870   */\n      tag_374\n      jump\t// in\n    tag_752:\n        /* \"#utility.yul\":31935:31953   */\n      0xffffffffffffffff\n        /* \"#utility.yul\":31927:31933   */\n      dup2\n        /* \"#utility.yul\":31924:31954   */\n      gt\n        /* \"#utility.yul\":31921:31977   */\n      iszero\n      tag_753\n      jumpi\n        /* \"#utility.yul\":31957:31975   */\n      tag_754\n      tag_253\n      jump\t// in\n    tag_754:\n        /* \"#utility.yul\":31921:31977   */\n    tag_753:\n        /* \"#utility.yul\":32001:32039   */\n      tag_755\n        /* \"#utility.yul\":32033:32037   */\n      dup3\n        /* \"#utility.yul\":32027:32038   */\n      sload\n        /* \"#utility.yul\":32001:32039   */\n      tag_230\n      jump\t// in\n    tag_755:\n        /* \"#utility.yul\":32086:32153   */\n      tag_756\n        /* \"#utility.yul\":32146:32152   */\n      dup3\n        /* \"#utility.yul\":32138:32144   */\n      dup3\n        /* \"#utility.yul\":32132:32136   */\n      dup6\n        /* \"#utility.yul\":32086:32153   */\n      tag_429\n      jump\t// in\n    tag_756:\n        /* \"#utility.yul\":32180:32181   */\n      0x00\n        /* \"#utility.yul\":32204:32208   */\n      0x20\n        /* \"#utility.yul\":32191:32208   */\n      swap1\n      pop\n        /* \"#utility.yul\":32236:32238   */\n      0x1f\n        /* \"#utility.yul\":32228:32234   */\n      dup4\n        /* \"#utility.yul\":32225:32239   */\n      gt\n        /* \"#utility.yul\":32253:32254   */\n      0x01\n        /* \"#utility.yul\":32248:32866   */\n      dup2\n      eq\n      tag_758\n      jumpi\n        /* \"#utility.yul\":32910:32911   */\n      0x00\n        /* \"#utility.yul\":32927:32933   */\n      dup5\n        /* \"#utility.yul\":32924:33001   */\n      iszero\n      tag_759\n      jumpi\n        /* \"#utility.yul\":32976:32985   */\n      dup3\n        /* \"#utility.yul\":32971:32974   */\n      dup8\n        /* \"#utility.yul\":32967:32986   */\n      add\n        /* \"#utility.yul\":32961:32987   */\n      mload\n        /* \"#utility.yul\":32952:32987   */\n      swap1\n      pop\n        /* \"#utility.yul\":32924:33001   */\n    tag_759:\n        /* \"#utility.yul\":33027:33094   */\n      tag_760\n        /* \"#utility.yul\":33087:33093   */\n      dup6\n        /* \"#utility.yul\":33080:33085   */\n      dup3\n        /* \"#utility.yul\":33027:33094   */\n      tag_432\n      jump\t// in\n    tag_760:\n        /* \"#utility.yul\":33021:33025   */\n      dup7\n        /* \"#utility.yul\":33014:33095   */\n      sstore\n        /* \"#utility.yul\":32883:33105   */\n      pop\n        /* \"#utility.yul\":32218:33105   */\n      jump(tag_757)\n        /* \"#utility.yul\":32248:32866   */\n    tag_758:\n        /* \"#utility.yul\":32300:32304   */\n      0x1f\n        /* \"#utility.yul\":32296:32305   */\n      not\n        /* \"#utility.yul\":32288:32294   */\n      dup5\n        /* \"#utility.yul\":32284:32306   */\n      and\n        /* \"#utility.yul\":32334:32371   */\n      tag_761\n        /* \"#utility.yul\":32366:32370   */\n      dup7\n        /* \"#utility.yul\":32334:32371   */\n      tag_418\n      jump\t// in\n    tag_761:\n        /* \"#utility.yul\":32393:32394   */\n      0x00\n        /* \"#utility.yul\":32407:32615   */\n    tag_762:\n        /* \"#utility.yul\":32421:32428   */\n      dup3\n        /* \"#utility.yul\":32418:32419   */\n      dup2\n        /* \"#utility.yul\":32415:32429   */\n      lt\n        /* \"#utility.yul\":32407:32615   */\n      iszero\n      tag_764\n      jumpi\n        /* \"#utility.yul\":32500:32509   */\n      dup5\n        /* \"#utility.yul\":32495:32498   */\n      dup10\n        /* \"#utility.yul\":32491:32510   */\n      add\n        /* \"#utility.yul\":32485:32511   */\n      mload\n        /* \"#utility.yul\":32477:32483   */\n      dup3\n        /* \"#utility.yul\":32470:32512   */\n      sstore\n        /* \"#utility.yul\":32551:32552   */\n      0x01\n        /* \"#utility.yul\":32543:32549   */\n      dup3\n        /* \"#utility.yul\":32539:32553   */\n      add\n        /* \"#utility.yul\":32529:32553   */\n      swap2\n      pop\n        /* \"#utility.yul\":32598:32600   */\n      0x20\n        /* \"#utility.yul\":32587:32596   */\n      dup6\n        /* \"#utility.yul\":32583:32601   */\n      add\n        /* \"#utility.yul\":32570:32601   */\n      swap5\n      pop\n        /* \"#utility.yul\":32444:32448   */\n      0x20\n        /* \"#utility.yul\":32441:32442   */\n      dup2\n        /* \"#utility.yul\":32437:32449   */\n      add\n        /* \"#utility.yul\":32432:32449   */\n      swap1\n      pop\n        /* \"#utility.yul\":32407:32615   */\n      jump(tag_762)\n    tag_764:\n        /* \"#utility.yul\":32643:32649   */\n      dup7\n        /* \"#utility.yul\":32634:32641   */\n      dup4\n        /* \"#utility.yul\":32631:32650   */\n      lt\n        /* \"#utility.yul\":32628:32807   */\n      iszero\n      tag_765\n      jumpi\n        /* \"#utility.yul\":32701:32710   */\n      dup5\n        /* \"#utility.yul\":32696:32699   */\n      dup10\n        /* \"#utility.yul\":32692:32711   */\n      add\n        /* \"#utility.yul\":32686:32712   */\n      mload\n        /* \"#utility.yul\":32744:32792   */\n      tag_766\n        /* \"#utility.yul\":32786:32790   */\n      0x1f\n        /* \"#utility.yul\":32778:32784   */\n      dup10\n        /* \"#utility.yul\":32774:32791   */\n      and\n        /* \"#utility.yul\":32763:32772   */\n      dup3\n        /* \"#utility.yul\":32744:32792   */\n      tag_431\n      jump\t// in\n    tag_766:\n        /* \"#utility.yul\":32736:32742   */\n      dup4\n        /* \"#utility.yul\":32729:32793   */\n      sstore\n        /* \"#utility.yul\":32651:32807   */\n      pop\n        /* \"#utility.yul\":32628:32807   */\n    tag_765:\n        /* \"#utility.yul\":32853:32854   */\n      0x01\n        /* \"#utility.yul\":32849:32850   */\n      0x02\n        /* \"#utility.yul\":32841:32847   */\n      dup9\n        /* \"#utility.yul\":32837:32851   */\n      mul\n        /* \"#utility.yul\":32833:32855   */\n      add\n        /* \"#utility.yul\":32827:32831   */\n      dup9\n        /* \"#utility.yul\":32820:32856   */\n      sstore\n        /* \"#utility.yul\":32255:32866   */\n      pop\n      pop\n      pop\n        /* \"#utility.yul\":32218:33105   */\n    tag_757:\n      pop\n        /* \"#utility.yul\":31808:33111   */\n      pop\n      pop\n      pop\n        /* \"#utility.yul\":31716:33111   */\n      pop\n      pop\n      jump\t// out\n        /* \"#utility.yul\":33117:33293   */\n    tag_433:\n        /* \"#utility.yul\":33257:33285   */\n      0x52656a65637465642064756520746f2065787069726174696f6e000000000000\n        /* \"#utility.yul\":33253:33254   */\n      0x00\n        /* \"#utility.yul\":33245:33251   */\n      dup3\n        /* \"#utility.yul\":33241:33255   */\n      add\n        /* \"#utility.yul\":33234:33286   */\n      mstore\n        /* \"#utility.yul\":33117:33293   */\n      pop\n      jump\t// out\n        /* \"#utility.yul\":33299:33665   */\n    tag_434:\n        /* \"#utility.yul\":33441:33444   */\n      0x00\n        /* \"#utility.yul\":33462:33529   */\n      tag_769\n        /* \"#utility.yul\":33526:33528   */\n      0x1a\n        /* \"#utility.yul\":33521:33524   */\n      dup4\n        /* \"#utility.yul\":33462:33529   */\n      tag_384\n      jump\t// in\n    tag_769:\n        /* \"#utility.yul\":33455:33529   */\n      swap2\n      pop\n        /* \"#utility.yul\":33538:33631   */\n      tag_770\n        /* \"#utility.yul\":33627:33630   */\n      dup3\n        /* \"#utility.yul\":33538:33631   */\n      tag_433\n      jump\t// in\n    tag_770:\n        /* \"#utility.yul\":33656:33658   */\n      0x20\n        /* \"#utility.yul\":33651:33654   */\n      dup3\n        /* \"#utility.yul\":33647:33659   */\n      add\n        /* \"#utility.yul\":33640:33659   */\n      swap1\n      pop\n        /* \"#utility.yul\":33299:33665   */\n      swap2\n      swap1\n      pop\n      jump\t// out\n        /* \"#utility.yul\":33671:34298   */\n    tag_106:\n        /* \"#utility.yul\":33887:33891   */\n      0x00\n        /* \"#utility.yul\":33925:33927   */\n      0x60\n        /* \"#utility.yul\":33914:33923   */\n      dup3\n        /* \"#utility.yul\":33910:33928   */\n      add\n        /* \"#utility.yul\":33902:33928   */\n      swap1\n      pop\n        /* \"#utility.yul\":33938:34009   */\n      tag_772\n        /* \"#utility.yul\":34006:34007   */\n      0x00\n        /* \"#utility.yul\":33995:34004   */\n      dup4\n        /* \"#utility.yul\":33991:34008   */\n      add\n        /* \"#utility.yul\":33982:33988   */\n      dup6\n        /* \"#utility.yul\":33938:34009   */\n      tag_382\n      jump\t// in\n    tag_772:\n        /* \"#utility.yul\":34019:34085   */\n      tag_773\n        /* \"#utility.yul\":34081:34083   */\n      0x20\n        /* \"#utility.yul\":34070:34079   */\n      dup4\n        /* \"#utility.yul\":34066:34084   */\n      add\n        /* \"#utility.yul\":34057:34063   */\n      dup5\n        /* \"#utility.yul\":34019:34085   */\n      tag_361\n      jump\t// in\n    tag_773:\n        /* \"#utility.yul\":34132:34141   */\n      dup2\n        /* \"#utility.yul\":34126:34130   */\n      dup2\n        /* \"#utility.yul\":34122:34142   */\n      sub\n        /* \"#utility.yul\":34117:34119   */\n      0x40\n        /* \"#utility.yul\":34106:34115   */\n      dup4\n        /* \"#utility.yul\":34102:34120   */\n      add\n        /* \"#utility.yul\":34095:34143   */\n      mstore\n        /* \"#utility.yul\":34160:34291   */\n      tag_774\n        /* \"#utility.yul\":34286:34290   */\n      dup2\n        /* \"#utility.yul\":34160:34291   */\n      tag_434\n      jump\t// in\n    tag_774:\n        /* \"#utility.yul\":34152:34291   */\n      swap1\n      pop\n        /* \"#utility.yul\":33671:34298   */\n      swap4\n      swap3\n      pop\n      pop\n      pop\n      jump\t// out\n        /* \"#utility.yul\":34304:34484   */\n    tag_435:\n        /* \"#utility.yul\":34352:34429   */\n      0x4e487b7100000000000000000000000000000000000000000000000000000000\n        /* \"#utility.yul\":34349:34350   */\n      0x00\n        /* \"#utility.yul\":34342:34430   */\n      mstore\n        /* \"#utility.yul\":34449:34453   */\n      0x11\n        /* \"#utility.yul\":34446:34447   */\n      0x04\n        /* \"#utility.yul\":34439:34454   */\n      mstore\n        /* \"#utility.yul\":34473:34477   */\n      0x24\n        /* \"#utility.yul\":34470:34471   */\n      0x00\n        /* \"#utility.yul\":34463:34478   */\n      revert\n        /* \"#utility.yul\":34490:34684   */\n    tag_122:\n        /* \"#utility.yul\":34530:34534   */\n      0x00\n        /* \"#utility.yul\":34550:34570   */\n      tag_777\n        /* \"#utility.yul\":34568:34569   */\n      dup3\n        /* \"#utility.yul\":34550:34570   */\n      tag_351\n      jump\t// in\n    tag_777:\n        /* \"#utility.yul\":34545:34570   */\n      swap2\n      pop\n        /* \"#utility.yul\":34584:34604   */\n      tag_778\n        /* \"#utility.yul\":34602:34603   */\n      dup4\n        /* \"#utility.yul\":34584:34604   */\n      tag_351\n      jump\t// in\n    tag_778:\n        /* \"#utility.yul\":34579:34604   */\n      swap3\n      pop\n        /* \"#utility.yul\":34628:34629   */\n      dup3\n        /* \"#utility.yul\":34625:34626   */\n      dup3\n        /* \"#utility.yul\":34621:34630   */\n      sub\n        /* \"#utility.yul\":34613:34630   */\n      swap1\n      pop\n        /* \"#utility.yul\":34652:34653   */\n      dup2\n        /* \"#utility.yul\":34646:34650   */\n      dup2\n        /* \"#utility.yul\":34643:34654   */\n      gt\n        /* \"#utility.yul\":34640:34677   */\n      iszero\n      tag_779\n      jumpi\n        /* \"#utility.yul\":34657:34675   */\n      tag_780\n      tag_435\n      jump\t// in\n    tag_780:\n        /* \"#utility.yul\":34640:34677   */\n    tag_779:\n        /* \"#utility.yul\":34490:34684   */\n      swap3\n      swap2\n      pop\n      pop\n      jump\t// out\n        /* \"#utility.yul\":34690:34881   */\n    tag_124:\n        /* \"#utility.yul\":34730:34733   */\n      0x00\n        /* \"#utility.yul\":34749:34769   */\n      tag_782\n        /* \"#utility.yul\":34767:34768   */\n      dup3\n        /* \"#utility.yul\":34749:34769   */\n      tag_351\n      jump\t// in\n    tag_782:\n        /* \"#utility.yul\":34744:34769   */\n      swap2\n      pop\n        /* \"#utility.yul\":34783:34803   */\n      tag_783\n        /* \"#utility.yul\":34801:34802   */\n      dup4\n        /* \"#utility.yul\":34783:34803   */\n      tag_351\n      jump\t// in\n    tag_783:\n        /* \"#utility.yul\":34778:34803   */\n      swap3\n      pop\n        /* \"#utility.yul\":34826:34827   */\n      dup3\n        /* \"#utility.yul\":34823:34824   */\n      dup3\n        /* \"#utility.yul\":34819:34828   */\n      add\n        /* \"#utility.yul\":34812:34828   */\n      swap1\n      pop\n        /* \"#utility.yul\":34847:34850   */\n      dup1\n        /* \"#utility.yul\":34844:34845   */\n      dup3\n        /* \"#utility.yul\":34841:34851   */\n      gt\n        /* \"#utility.yul\":34838:34874   */\n      iszero\n      tag_784\n      jumpi\n        /* \"#utility.yul\":34854:34872   */\n      tag_785\n      tag_435\n      jump\t// in\n    tag_785:\n        /* \"#utility.yul\":34838:34874   */\n    tag_784:\n        /* \"#utility.yul\":34690:34881   */\n      swap3\n      swap2\n      pop\n      pop\n      jump\t// out\n        /* \"#utility.yul\":34911:35742   */\n    tag_436:\n        /* \"#utility.yul\":34996:34999   */\n      0x00\n        /* \"#utility.yul\":35033:35038   */\n      dup2\n        /* \"#utility.yul\":35027:35039   */\n      sload\n        /* \"#utility.yul\":35062:35098   */\n      tag_787\n        /* \"#utility.yul\":35088:35097   */\n      dup2\n        /* \"#utility.yul\":35062:35098   */\n      tag_230\n      jump\t// in\n    tag_787:\n        /* \"#utility.yul\":35114:35185   */\n      tag_788\n        /* \"#utility.yul\":35178:35184   */\n      dup2\n        /* \"#utility.yul\":35173:35176   */\n      dup7\n        /* \"#utility.yul\":35114:35185   */\n      tag_384\n      jump\t// in\n    tag_788:\n        /* \"#utility.yul\":35107:35185   */\n      swap5\n      pop\n        /* \"#utility.yul\":35216:35217   */\n      0x01\n        /* \"#utility.yul\":35205:35214   */\n      dup3\n        /* \"#utility.yul\":35201:35218   */\n      and\n        /* \"#utility.yul\":35232:35233   */\n      0x00\n        /* \"#utility.yul\":35227:35391   */\n      dup2\n      eq\n      tag_790\n      jumpi\n        /* \"#utility.yul\":35405:35406   */\n      0x01\n        /* \"#utility.yul\":35400:35736   */\n      dup2\n      eq\n      tag_791\n      jumpi\n        /* \"#utility.yul\":35194:35736   */\n      jump(tag_789)\n        /* \"#utility.yul\":35227:35391   */\n    tag_790:\n        /* \"#utility.yul\":35311:35315   */\n      0xff\n        /* \"#utility.yul\":35307:35316   */\n      not\n        /* \"#utility.yul\":35296:35305   */\n      dup4\n        /* \"#utility.yul\":35292:35317   */\n      and\n        /* \"#utility.yul\":35287:35290   */\n      dup7\n        /* \"#utility.yul\":35280:35318   */\n      mstore\n        /* \"#utility.yul\":35371:35377   */\n      dup2\n        /* \"#utility.yul\":35364:35378   */\n      iszero\n        /* \"#utility.yul\":35357:35379   */\n      iszero\n        /* \"#utility.yul\":35351:35355   */\n      0x20\n        /* \"#utility.yul\":35347:35380   */\n      mul\n        /* \"#utility.yul\":35342:35345   */\n      dup7\n        /* \"#utility.yul\":35338:35381   */\n      add\n        /* \"#utility.yul\":35331:35381   */\n      swap4\n      pop\n        /* \"#utility.yul\":35227:35391   */\n      jump(tag_789)\n        /* \"#utility.yul\":35400:35736   */\n    tag_791:\n        /* \"#utility.yul\":35467:35505   */\n      tag_792\n        /* \"#utility.yul\":35499:35504   */\n      dup6\n        /* \"#utility.yul\":35467:35505   */\n      tag_418\n      jump\t// in\n    tag_792:\n        /* \"#utility.yul\":35527:35528   */\n      0x00\n        /* \"#utility.yul\":35541:35695   */\n    tag_793:\n        /* \"#utility.yul\":35555:35561   */\n      dup4\n        /* \"#utility.yul\":35552:35553   */\n      dup2\n        /* \"#utility.yul\":35549:35562   */\n      lt\n        /* \"#utility.yul\":35541:35695   */\n      iszero\n      tag_795\n      jumpi\n        /* \"#utility.yul\":35629:35636   */\n      dup2\n        /* \"#utility.yul\":35623:35637   */\n      sload\n        /* \"#utility.yul\":35619:35620   */\n      dup2\n        /* \"#utility.yul\":35614:35617   */\n      dup10\n        /* \"#utility.yul\":35610:35621   */\n      add\n        /* \"#utility.yul\":35603:35638   */\n      mstore\n        /* \"#utility.yul\":35679:35680   */\n      0x01\n        /* \"#utility.yul\":35670:35677   */\n      dup3\n        /* \"#utility.yul\":35666:35681   */\n      add\n        /* \"#utility.yul\":35655:35681   */\n      swap2\n      pop\n        /* \"#utility.yul\":35577:35581   */\n      0x20\n        /* \"#utility.yul\":35574:35575   */\n      dup2\n        /* \"#utility.yul\":35570:35582   */\n      add\n        /* \"#utility.yul\":35565:35582   */\n      swap1\n      pop\n        /* \"#utility.yul\":35541:35695   */\n      jump(tag_793)\n    tag_795:\n        /* \"#utility.yul\":35724:35725   */\n      dup1\n        /* \"#utility.yul\":35719:35722   */\n      dup9\n        /* \"#utility.yul\":35715:35726   */\n      add\n        /* \"#utility.yul\":35708:35726   */\n      swap6\n      pop\n        /* \"#utility.yul\":35407:35736   */\n      pop\n      pop\n        /* \"#utility.yul\":35194:35736   */\n    tag_789:\n      pop\n        /* \"#utility.yul\":35000:35742   */\n      pop\n      pop\n        /* \"#utility.yul\":34911:35742   */\n      swap3\n      swap2\n      pop\n      pop\n      jump\t// out\n        /* \"#utility.yul\":35748:36263   */\n    tag_138:\n        /* \"#utility.yul\":35908:35912   */\n      0x00\n        /* \"#utility.yul\":35946:35948   */\n      0x60\n        /* \"#utility.yul\":35935:35944   */\n      dup3\n        /* \"#utility.yul\":35931:35949   */\n      add\n        /* \"#utility.yul\":35923:35949   */\n      swap1\n      pop\n        /* \"#utility.yul\":35959:36030   */\n      tag_797\n        /* \"#utility.yul\":36027:36028   */\n      0x00\n        /* \"#utility.yul\":36016:36025   */\n      dup4\n        /* \"#utility.yul\":36012:36029   */\n      add\n        /* \"#utility.yul\":36003:36009   */\n      dup7\n        /* \"#utility.yul\":35959:36030   */\n      tag_382\n      jump\t// in\n    tag_797:\n        /* \"#utility.yul\":36040:36106   */\n      tag_798\n        /* \"#utility.yul\":36102:36104   */\n      0x20\n        /* \"#utility.yul\":36091:36100   */\n      dup4\n        /* \"#utility.yul\":36087:36105   */\n      add\n        /* \"#utility.yul\":36078:36084   */\n      dup6\n        /* \"#utility.yul\":36040:36106   */\n      tag_361\n      jump\t// in\n    tag_798:\n        /* \"#utility.yul\":36153:36162   */\n      dup2\n        /* \"#utility.yul\":36147:36151   */\n      dup2\n        /* \"#utility.yul\":36143:36163   */\n      sub\n        /* \"#utility.yul\":36138:36140   */\n      0x40\n        /* \"#utility.yul\":36127:36136   */\n      dup4\n        /* \"#utility.yul\":36123:36141   */\n      add\n        /* \"#utility.yul\":36116:36164   */\n      mstore\n        /* \"#utility.yul\":36181:36256   */\n      tag_799\n        /* \"#utility.yul\":36251:36255   */\n      dup2\n        /* \"#utility.yul\":36242:36248   */\n      dup5\n        /* \"#utility.yul\":36181:36256   */\n      tag_436\n      jump\t// in\n    tag_799:\n        /* \"#utility.yul\":36173:36256   */\n      swap1\n      pop\n        /* \"#utility.yul\":35748:36263   */\n      swap5\n      swap4\n      pop\n      pop\n      pop\n      pop\n      jump\t// out\n        /* \"#utility.yul\":36269:36443   */\n    tag_437:\n        /* \"#utility.yul\":36409:36435   */\n      0x5573657220616c726561647920726567697374657265642e0000000000000000\n        /* \"#utility.yul\":36405:36406   */\n      0x00\n        /* \"#utility.yul\":36397:36403   */\n      dup3\n        /* \"#utility.yul\":36393:36407   */\n      add\n        /* \"#utility.yul\":36386:36436   */\n      mstore\n        /* \"#utility.yul\":36269:36443   */\n      pop\n      jump\t// out\n        /* \"#utility.yul\":36449:36815   */\n    tag_438:\n        /* \"#utility.yul\":36591:36594   */\n      0x00\n        /* \"#utility.yul\":36612:36679   */\n      tag_802\n        /* \"#utility.yul\":36676:36678   */\n      0x18\n        /* \"#utility.yul\":36671:36674   */\n      dup4\n        /* \"#utility.yul\":36612:36679   */\n      tag_384\n      jump\t// in\n    tag_802:\n        /* \"#utility.yul\":36605:36679   */\n      swap2\n      pop\n        /* \"#utility.yul\":36688:36781   */\n      tag_803\n        /* \"#utility.yul\":36777:36780   */\n      dup3\n        /* \"#utility.yul\":36688:36781   */\n      tag_437\n      jump\t// in\n    tag_803:\n        /* \"#utility.yul\":36806:36808   */\n      0x20\n        /* \"#utility.yul\":36801:36804   */\n      dup3\n        /* \"#utility.yul\":36797:36809   */\n      add\n        /* \"#utility.yul\":36790:36809   */\n      swap1\n      pop\n        /* \"#utility.yul\":36449:36815   */\n      swap2\n      swap1\n      pop\n      jump\t// out\n        /* \"#utility.yul\":36821:37240   */\n    tag_143:\n        /* \"#utility.yul\":36987:36991   */\n      0x00\n        /* \"#utility.yul\":37025:37027   */\n      0x20\n        /* \"#utility.yul\":37014:37023   */\n      dup3\n        /* \"#utility.yul\":37010:37028   */\n      add\n        /* \"#utility.yul\":37002:37028   */\n      swap1\n      pop\n        /* \"#utility.yul\":37074:37083   */\n      dup2\n        /* \"#utility.yul\":37068:37072   */\n      dup2\n        /* \"#utility.yul\":37064:37084   */\n      sub\n        /* \"#utility.yul\":37060:37061   */\n      0x00\n        /* \"#utility.yul\":37049:37058   */\n      dup4\n        /* \"#utility.yul\":37045:37062   */\n      add\n        /* \"#utility.yul\":37038:37085   */\n      mstore\n        /* \"#utility.yul\":37102:37233   */\n      tag_805\n        /* \"#utility.yul\":37228:37232   */\n      dup2\n        /* \"#utility.yul\":37102:37233   */\n      tag_438\n      jump\t// in\n    tag_805:\n        /* \"#utility.yul\":37094:37233   */\n      swap1\n      pop\n        /* \"#utility.yul\":36821:37240   */\n      swap2\n      swap1\n      pop\n      jump\t// out\n        /* \"#utility.yul\":37246:37993   */\n    tag_148:\n        /* \"#utility.yul\":37467:37471   */\n      0x00\n        /* \"#utility.yul\":37505:37508   */\n      0xa0\n        /* \"#utility.yul\":37494:37503   */\n      dup3\n        /* \"#utility.yul\":37490:37509   */\n      add\n        /* \"#utility.yul\":37482:37509   */\n      swap1\n      pop\n        /* \"#utility.yul\":37555:37564   */\n      dup2\n        /* \"#utility.yul\":37549:37553   */\n      dup2\n        /* \"#utility.yul\":37545:37565   */\n      sub\n        /* \"#utility.yul\":37541:37542   */\n      0x00\n        /* \"#utility.yul\":37530:37539   */\n      dup4\n        /* \"#utility.yul\":37526:37543   */\n      add\n        /* \"#utility.yul\":37519:37566   */\n      mstore\n        /* \"#utility.yul\":37583:37661   */\n      tag_807\n        /* \"#utility.yul\":37656:37660   */\n      dup2\n        /* \"#utility.yul\":37647:37653   */\n      dup9\n        /* \"#utility.yul\":37583:37661   */\n      tag_385\n      jump\t// in\n    tag_807:\n        /* \"#utility.yul\":37575:37661   */\n      swap1\n      pop\n        /* \"#utility.yul\":37671:37741   */\n      tag_808\n        /* \"#utility.yul\":37737:37739   */\n      0x20\n        /* \"#utility.yul\":37726:37735   */\n      dup4\n        /* \"#utility.yul\":37722:37740   */\n      add\n        /* \"#utility.yul\":37713:37719   */\n      dup8\n        /* \"#utility.yul\":37671:37741   */\n      tag_397\n      jump\t// in\n    tag_808:\n        /* \"#utility.yul\":37751:37821   */\n      tag_809\n        /* \"#utility.yul\":37817:37819   */\n      0x40\n        /* \"#utility.yul\":37806:37815   */\n      dup4\n        /* \"#utility.yul\":37802:37820   */\n      add\n        /* \"#utility.yul\":37793:37799   */\n      dup7\n        /* \"#utility.yul\":37751:37821   */\n      tag_397\n      jump\t// in\n    tag_809:\n        /* \"#utility.yul\":37831:37903   */\n      tag_810\n        /* \"#utility.yul\":37899:37901   */\n      0x60\n        /* \"#utility.yul\":37888:37897   */\n      dup4\n        /* \"#utility.yul\":37884:37902   */\n      add\n        /* \"#utility.yul\":37875:37881   */\n      dup6\n        /* \"#utility.yul\":37831:37903   */\n      tag_382\n      jump\t// in\n    tag_810:\n        /* \"#utility.yul\":37913:37986   */\n      tag_811\n        /* \"#utility.yul\":37981:37984   */\n      0x80\n        /* \"#utility.yul\":37970:37979   */\n      dup4\n        /* \"#utility.yul\":37966:37985   */\n      add\n        /* \"#utility.yul\":37957:37963   */\n      dup5\n        /* \"#utility.yul\":37913:37986   */\n      tag_382\n      jump\t// in\n    tag_811:\n        /* \"#utility.yul\":37246:37993   */\n      swap7\n      swap6\n      pop\n      pop\n      pop\n      pop\n      pop\n      pop\n      jump\t// out\n        /* \"#utility.yul\":37999:38172   */\n    tag_439:\n        /* \"#utility.yul\":38139:38164   */\n      0x55736572206973206e6f7420726567697374657265642e000000000000000000\n        /* \"#utility.yul\":38135:38136   */\n      0x00\n        /* \"#utility.yul\":38127:38133   */\n      dup3\n        /* \"#utility.yul\":38123:38137   */\n      add\n        /* \"#utility.yul\":38116:38165   */\n      mstore\n        /* \"#utility.yul\":37999:38172   */\n      pop\n      jump\t// out\n        /* \"#utility.yul\":38178:38544   */\n    tag_440:\n        /* \"#utility.yul\":38320:38323   */\n      0x00\n        /* \"#utility.yul\":38341:38408   */\n      tag_814\n        /* \"#utility.yul\":38405:38407   */\n      0x17\n        /* \"#utility.yul\":38400:38403   */\n      dup4\n        /* \"#utility.yul\":38341:38408   */\n      tag_384\n      jump\t// in\n    tag_814:\n        /* \"#utility.yul\":38334:38408   */\n      swap2\n      pop\n        /* \"#utility.yul\":38417:38510   */\n      tag_815\n        /* \"#utility.yul\":38506:38509   */\n      dup3\n        /* \"#utility.yul\":38417:38510   */\n      tag_439\n      jump\t// in\n    tag_815:\n        /* \"#utility.yul\":38535:38537   */\n      0x20\n        /* \"#utility.yul\":38530:38533   */\n      dup3\n        /* \"#utility.yul\":38526:38538   */\n      add\n        /* \"#utility.yul\":38519:38538   */\n      swap1\n      pop\n        /* \"#utility.yul\":38178:38544   */\n      swap2\n      swap1\n      pop\n      jump\t// out\n        /* \"#utility.yul\":38550:38969   */\n    tag_152:\n        /* \"#utility.yul\":38716:38720   */\n      0x00\n        /* \"#utility.yul\":38754:38756   */\n      0x20\n        /* \"#utility.yul\":38743:38752   */\n      dup3\n        /* \"#utility.yul\":38739:38757   */\n      add\n        /* \"#utility.yul\":38731:38757   */\n      swap1\n      pop\n        /* \"#utility.yul\":38803:38812   */\n      dup2\n        /* \"#utility.yul\":38797:38801   */\n      dup2\n        /* \"#utility.yul\":38793:38813   */\n      sub\n        /* \"#utility.yul\":38789:38790   */\n      0x00\n        /* \"#utility.yul\":38778:38787   */\n      dup4\n        /* \"#utility.yul\":38774:38791   */\n      add\n        /* \"#utility.yul\":38767:38814   */\n      mstore\n        /* \"#utility.yul\":38831:38962   */\n      tag_817\n        /* \"#utility.yul\":38957:38961   */\n      dup2\n        /* \"#utility.yul\":38831:38962   */\n      tag_440\n      jump\t// in\n    tag_817:\n        /* \"#utility.yul\":38823:38962   */\n      swap1\n      pop\n        /* \"#utility.yul\":38550:38969   */\n      swap2\n      swap1\n      pop\n      jump\t// out\n        /* \"#utility.yul\":38975:39153   */\n    tag_441:\n        /* \"#utility.yul\":39115:39145   */\n      0x496e69746961746f72206973206e6f7420726567697374657265642e00000000\n        /* \"#utility.yul\":39111:39112   */\n      0x00\n        /* \"#utility.yul\":39103:39109   */\n      dup3\n        /* \"#utility.yul\":39099:39113   */\n      add\n        /* \"#utility.yul\":39092:39146   */\n      mstore\n        /* \"#utility.yul\":38975:39153   */\n      pop\n      jump\t// out\n        /* \"#utility.yul\":39159:39525   */\n    tag_442:\n        /* \"#utility.yul\":39301:39304   */\n      0x00\n        /* \"#utility.yul\":39322:39389   */\n      tag_820\n        /* \"#utility.yul\":39386:39388   */\n      0x1c\n        /* \"#utility.yul\":39381:39384   */\n      dup4\n        /* \"#utility.yul\":39322:39389   */\n      tag_384\n      jump\t// in\n    tag_820:\n        /* \"#utility.yul\":39315:39389   */\n      swap2\n      pop\n        /* \"#utility.yul\":39398:39491   */\n      tag_821\n        /* \"#utility.yul\":39487:39490   */\n      dup3\n        /* \"#utility.yul\":39398:39491   */\n      tag_441\n      jump\t// in\n    tag_821:\n        /* \"#utility.yul\":39516:39518   */\n      0x20\n        /* \"#utility.yul\":39511:39514   */\n      dup3\n        /* \"#utility.yul\":39507:39519   */\n      add\n        /* \"#utility.yul\":39500:39519   */\n      swap1\n      pop\n        /* \"#utility.yul\":39159:39525   */\n      swap2\n      swap1\n      pop\n      jump\t// out\n        /* \"#utility.yul\":39531:39950   */\n    tag_158:\n        /* \"#utility.yul\":39697:39701   */\n      0x00\n        /* \"#utility.yul\":39735:39737   */\n      0x20\n        /* \"#utility.yul\":39724:39733   */\n      dup3\n        /* \"#utility.yul\":39720:39738   */\n      add\n        /* \"#utility.yul\":39712:39738   */\n      swap1\n      pop\n        /* \"#utility.yul\":39784:39793   */\n      dup2\n        /* \"#utility.yul\":39778:39782   */\n      dup2\n        /* \"#utility.yul\":39774:39794   */\n      sub\n        /* \"#utility.yul\":39770:39771   */\n      0x00\n        /* \"#utility.yul\":39759:39768   */\n      dup4\n        /* \"#utility.yul\":39755:39772   */\n      add\n        /* \"#utility.yul\":39748:39795   */\n      mstore\n        /* \"#utility.yul\":39812:39943   */\n      tag_823\n        /* \"#utility.yul\":39938:39942   */\n      dup2\n        /* \"#utility.yul\":39812:39943   */\n      tag_442\n      jump\t// in\n    tag_823:\n        /* \"#utility.yul\":39804:39943   */\n      swap1\n      pop\n        /* \"#utility.yul\":39531:39950   */\n      swap2\n      swap1\n      pop\n      jump\t// out\n        /* \"#utility.yul\":39956:40133   */\n    tag_443:\n        /* \"#utility.yul\":40096:40125   */\n      0x5265636569766572206973206e6f7420726567697374657265642e0000000000\n        /* \"#utility.yul\":40092:40093   */\n      0x00\n        /* \"#utility.yul\":40084:40090   */\n      dup3\n        /* \"#utility.yul\":40080:40094   */\n      add\n        /* \"#utility.yul\":40073:40126   */\n      mstore\n        /* \"#utility.yul\":39956:40133   */\n      pop\n      jump\t// out\n        /* \"#utility.yul\":40139:40505   */\n    tag_444:\n        /* \"#utility.yul\":40281:40284   */\n      0x00\n        /* \"#utility.yul\":40302:40369   */\n      tag_826\n        /* \"#utility.yul\":40366:40368   */\n      0x1b\n        /* \"#utility.yul\":40361:40364   */\n      dup4\n        /* \"#utility.yul\":40302:40369   */\n      tag_384\n      jump\t// in\n    tag_826:\n        /* \"#utility.yul\":40295:40369   */\n      swap2\n      pop\n        /* \"#utility.yul\":40378:40471   */\n      tag_827\n        /* \"#utility.yul\":40467:40470   */\n      dup3\n        /* \"#utility.yul\":40378:40471   */\n      tag_443\n      jump\t// in\n    tag_827:\n        /* \"#utility.yul\":40496:40498   */\n      0x20\n        /* \"#utility.yul\":40491:40494   */\n      dup3\n        /* \"#utility.yul\":40487:40499   */\n      add\n        /* \"#utility.yul\":40480:40499   */\n      swap1\n      pop\n        /* \"#utility.yul\":40139:40505   */\n      swap2\n      swap1\n      pop\n      jump\t// out\n        /* \"#utility.yul\":40511:40930   */\n    tag_161:\n        /* \"#utility.yul\":40677:40681   */\n      0x00\n        /* \"#utility.yul\":40715:40717   */\n      0x20\n        /* \"#utility.yul\":40704:40713   */\n      dup3\n        /* \"#utility.yul\":40700:40718   */\n      add\n        /* \"#utility.yul\":40692:40718   */\n      swap1\n      pop\n        /* \"#utility.yul\":40764:40773   */\n      dup2\n        /* \"#utility.yul\":40758:40762   */\n      dup2\n        /* \"#utility.yul\":40754:40774   */\n      sub\n        /* \"#utility.yul\":40750:40751   */\n      0x00\n        /* \"#utility.yul\":40739:40748   */\n      dup4\n        /* \"#utility.yul\":40735:40752   */\n      add\n        /* \"#utility.yul\":40728:40775   */\n      mstore\n        /* \"#utility.yul\":40792:40923   */\n      tag_829\n        /* \"#utility.yul\":40918:40922   */\n      dup2\n        /* \"#utility.yul\":40792:40923   */\n      tag_444\n      jump\t// in\n    tag_829:\n        /* \"#utility.yul\":40784:40923   */\n      swap1\n      pop\n        /* \"#utility.yul\":40511:40930   */\n      swap2\n      swap1\n      pop\n      jump\t// out\n        /* \"#utility.yul\":40936:41168   */\n    tag_445:\n        /* \"#utility.yul\":41076:41110   */\n      0x5472616e73616374696f6e2065787069726174696f6e206d7573742062652069\n        /* \"#utility.yul\":41072:41073   */\n      0x00\n        /* \"#utility.yul\":41064:41070   */\n      dup3\n        /* \"#utility.yul\":41060:41074   */\n      add\n        /* \"#utility.yul\":41053:41111   */\n      mstore\n        /* \"#utility.yul\":41145:41160   */\n      0x6e20746865206675747572652e00000000000000000000000000000000000000\n        /* \"#utility.yul\":41140:41142   */\n      0x20\n        /* \"#utility.yul\":41132:41138   */\n      dup3\n        /* \"#utility.yul\":41128:41143   */\n      add\n        /* \"#utility.yul\":41121:41161   */\n      mstore\n        /* \"#utility.yul\":40936:41168   */\n      pop\n      jump\t// out\n        /* \"#utility.yul\":41174:41540   */\n    tag_446:\n        /* \"#utility.yul\":41316:41319   */\n      0x00\n        /* \"#utility.yul\":41337:41404   */\n      tag_832\n        /* \"#utility.yul\":41401:41403   */\n      0x2d\n        /* \"#utility.yul\":41396:41399   */\n      dup4\n        /* \"#utility.yul\":41337:41404   */\n      tag_384\n      jump\t// in\n    tag_832:\n        /* \"#utility.yul\":41330:41404   */\n      swap2\n      pop\n        /* \"#utility.yul\":41413:41506   */\n      tag_833\n        /* \"#utility.yul\":41502:41505   */\n      dup3\n        /* \"#utility.yul\":41413:41506   */\n      tag_445\n      jump\t// in\n    tag_833:\n        /* \"#utility.yul\":41531:41533   */\n      0x40\n        /* \"#utility.yul\":41526:41529   */\n      dup3\n        /* \"#utility.yul\":41522:41534   */\n      add\n        /* \"#utility.yul\":41515:41534   */\n      swap1\n      pop\n        /* \"#utility.yul\":41174:41540   */\n      swap2\n      swap1\n      pop\n      jump\t// out\n        /* \"#utility.yul\":41546:41965   */\n    tag_164:\n        /* \"#utility.yul\":41712:41716   */\n      0x00\n        /* \"#utility.yul\":41750:41752   */\n      0x20\n        /* \"#utility.yul\":41739:41748   */\n      dup3\n        /* \"#utility.yul\":41735:41753   */\n      add\n        /* \"#utility.yul\":41727:41753   */\n      swap1\n      pop\n        /* \"#utility.yul\":41799:41808   */\n      dup2\n        /* \"#utility.yul\":41793:41797   */\n      dup2\n        /* \"#utility.yul\":41789:41809   */\n      sub\n        /* \"#utility.yul\":41785:41786   */\n      0x00\n        /* \"#utility.yul\":41774:41783   */\n      dup4\n        /* \"#utility.yul\":41770:41787   */\n      add\n        /* \"#utility.yul\":41763:41810   */\n      mstore\n        /* \"#utility.yul\":41827:41958   */\n      tag_835\n        /* \"#utility.yul\":41953:41957   */\n      dup2\n        /* \"#utility.yul\":41827:41958   */\n      tag_446\n      jump\t// in\n    tag_835:\n        /* \"#utility.yul\":41819:41958   */\n      swap1\n      pop\n        /* \"#utility.yul\":41546:41965   */\n      swap2\n      swap1\n      pop\n      jump\t// out\n        /* \"#utility.yul\":41971:42205   */\n    tag_447:\n        /* \"#utility.yul\":42111:42145   */\n      0x53656e6465722068617320696e73756666696369656e7420746f6b656e732066\n        /* \"#utility.yul\":42107:42108   */\n      0x00\n        /* \"#utility.yul\":42099:42105   */\n      dup3\n        /* \"#utility.yul\":42095:42109   */\n      add\n        /* \"#utility.yul\":42088:42146   */\n      mstore\n        /* \"#utility.yul\":42180:42197   */\n      0x6f72207472616e73616374696f6e2e0000000000000000000000000000000000\n        /* \"#utility.yul\":42175:42177   */\n      0x20\n        /* \"#utility.yul\":42167:42173   */\n      dup3\n        /* \"#utility.yul\":42163:42178   */\n      add\n        /* \"#utility.yul\":42156:42198   */\n      mstore\n        /* \"#utility.yul\":41971:42205   */\n      pop\n      jump\t// out\n        /* \"#utility.yul\":42211:42577   */\n    tag_448:\n        /* \"#utility.yul\":42353:42356   */\n      0x00\n        /* \"#utility.yul\":42374:42441   */\n      tag_838\n        /* \"#utility.yul\":42438:42440   */\n      0x2f\n        /* \"#utility.yul\":42433:42436   */\n      dup4\n        /* \"#utility.yul\":42374:42441   */\n      tag_384\n      jump\t// in\n    tag_838:\n        /* \"#utility.yul\":42367:42441   */\n      swap2\n      pop\n        /* \"#utility.yul\":42450:42543   */\n      tag_839\n        /* \"#utility.yul\":42539:42542   */\n      dup3\n        /* \"#utility.yul\":42450:42543   */\n      tag_447\n      jump\t// in\n    tag_839:\n        /* \"#utility.yul\":42568:42570   */\n      0x40\n        /* \"#utility.yul\":42563:42566   */\n      dup3\n        /* \"#utility.yul\":42559:42571   */\n      add\n        /* \"#utility.yul\":42552:42571   */\n      swap1\n      pop\n        /* \"#utility.yul\":42211:42577   */\n      swap2\n      swap1\n      pop\n      jump\t// out\n        /* \"#utility.yul\":42583:43002   */\n    tag_168:\n        /* \"#utility.yul\":42749:42753   */\n      0x00\n        /* \"#utility.yul\":42787:42789   */\n      0x20\n        /* \"#utility.yul\":42776:42785   */\n      dup3\n        /* \"#utility.yul\":42772:42790   */\n      add\n        /* \"#utility.yul\":42764:42790   */\n      swap1\n      pop\n        /* \"#utility.yul\":42836:42845   */\n      dup2\n        /* \"#utility.yul\":42830:42834   */\n      dup2\n        /* \"#utility.yul\":42826:42846   */\n      sub\n        /* \"#utility.yul\":42822:42823   */\n      0x00\n        /* \"#utility.yul\":42811:42820   */\n      dup4\n        /* \"#utility.yul\":42807:42824   */\n      add\n        /* \"#utility.yul\":42800:42847   */\n      mstore\n        /* \"#utility.yul\":42864:42995   */\n      tag_841\n        /* \"#utility.yul\":42990:42994   */\n      dup2\n        /* \"#utility.yul\":42864:42995   */\n      tag_448\n      jump\t// in\n    tag_841:\n        /* \"#utility.yul\":42856:42995   */\n      swap1\n      pop\n        /* \"#utility.yul\":42583:43002   */\n      swap2\n      swap1\n      pop\n      jump\t// out\n        /* \"#utility.yul\":43008:43232   */\n    tag_449:\n        /* \"#utility.yul\":43148:43182   */\n      0x526563656976657220646f6573206e6f74206861766520656e6f75676820656e\n        /* \"#utility.yul\":43144:43145   */\n      0x00\n        /* \"#utility.yul\":43136:43142   */\n      dup3\n        /* \"#utility.yul\":43132:43146   */\n      add\n        /* \"#utility.yul\":43125:43183   */\n      mstore\n        /* \"#utility.yul\":43217:43224   */\n      0x657267792e000000000000000000000000000000000000000000000000000000\n        /* \"#utility.yul\":43212:43214   */\n      0x20\n        /* \"#utility.yul\":43204:43210   */\n      dup3\n        /* \"#utility.yul\":43200:43215   */\n      add\n        /* \"#utility.yul\":43193:43225   */\n      mstore\n        /* \"#utility.yul\":43008:43232   */\n      pop\n      jump\t// out\n        /* \"#utility.yul\":43238:43604   */\n    tag_450:\n        /* \"#utility.yul\":43380:43383   */\n      0x00\n        /* \"#utility.yul\":43401:43468   */\n      tag_844\n        /* \"#utility.yul\":43465:43467   */\n      0x25\n        /* \"#utility.yul\":43460:43463   */\n      dup4\n        /* \"#utility.yul\":43401:43468   */\n      tag_384\n      jump\t// in\n    tag_844:\n        /* \"#utility.yul\":43394:43468   */\n      swap2\n      pop\n        /* \"#utility.yul\":43477:43570   */\n      tag_845\n        /* \"#utility.yul\":43566:43569   */\n      dup3\n        /* \"#utility.yul\":43477:43570   */\n      tag_449\n      jump\t// in\n    tag_845:\n        /* \"#utility.yul\":43595:43597   */\n      0x40\n        /* \"#utility.yul\":43590:43593   */\n      dup3\n        /* \"#utility.yul\":43586:43598   */\n      add\n        /* \"#utility.yul\":43579:43598   */\n      swap1\n      pop\n        /* \"#utility.yul\":43238:43604   */\n      swap2\n      swap1\n      pop\n      jump\t// out\n        /* \"#utility.yul\":43610:44029   */\n    tag_171:\n        /* \"#utility.yul\":43776:43780   */\n      0x00\n        /* \"#utility.yul\":43814:43816   */\n      0x20\n        /* \"#utility.yul\":43803:43812   */\n      dup3\n        /* \"#utility.yul\":43799:43817   */\n      add\n        /* \"#utility.yul\":43791:43817   */\n      swap1\n      pop\n        /* \"#utility.yul\":43863:43872   */\n      dup2\n        /* \"#utility.yul\":43857:43861   */\n      dup2\n        /* \"#utility.yul\":43853:43873   */\n      sub\n        /* \"#utility.yul\":43849:43850   */\n      0x00\n        /* \"#utility.yul\":43838:43847   */\n      dup4\n        /* \"#utility.yul\":43834:43851   */\n      add\n        /* \"#utility.yul\":43827:43874   */\n      mstore\n        /* \"#utility.yul\":43891:44022   */\n      tag_847\n        /* \"#utility.yul\":44017:44021   */\n      dup2\n        /* \"#utility.yul\":43891:44022   */\n      tag_450\n      jump\t// in\n    tag_847:\n        /* \"#utility.yul\":43883:44022   */\n      swap1\n      pop\n        /* \"#utility.yul\":43610:44029   */\n      swap2\n      swap1\n      pop\n      jump\t// out\n        /* \"#utility.yul\":44035:44269   */\n    tag_451:\n        /* \"#utility.yul\":44175:44209   */\n      0x53656e6465722068617320696e73756666696369656e7420656e657267792066\n        /* \"#utility.yul\":44171:44172   */\n      0x00\n        /* \"#utility.yul\":44163:44169   */\n      dup3\n        /* \"#utility.yul\":44159:44173   */\n      add\n        /* \"#utility.yul\":44152:44210   */\n      mstore\n        /* \"#utility.yul\":44244:44261   */\n      0x6f72207472616e73616374696f6e2e0000000000000000000000000000000000\n        /* \"#utility.yul\":44239:44241   */\n      0x20\n        /* \"#utility.yul\":44231:44237   */\n      dup3\n        /* \"#utility.yul\":44227:44242   */\n      add\n        /* \"#utility.yul\":44220:44262   */\n      mstore\n        /* \"#utility.yul\":44035:44269   */\n      pop\n      jump\t// out\n        /* \"#utility.yul\":44275:44641   */\n    tag_452:\n        /* \"#utility.yul\":44417:44420   */\n      0x00\n        /* \"#utility.yul\":44438:44505   */\n      tag_850\n        /* \"#utility.yul\":44502:44504   */\n      0x2f\n        /* \"#utility.yul\":44497:44500   */\n      dup4\n        /* \"#utility.yul\":44438:44505   */\n      tag_384\n      jump\t// in\n    tag_850:\n        /* \"#utility.yul\":44431:44505   */\n      swap2\n      pop\n        /* \"#utility.yul\":44514:44607   */\n      tag_851\n        /* \"#utility.yul\":44603:44606   */\n      dup3\n        /* \"#utility.yul\":44514:44607   */\n      tag_451\n      jump\t// in\n    tag_851:\n        /* \"#utility.yul\":44632:44634   */\n      0x40\n        /* \"#utility.yul\":44627:44630   */\n      dup3\n        /* \"#utility.yul\":44623:44635   */\n      add\n        /* \"#utility.yul\":44616:44635   */\n      swap1\n      pop\n        /* \"#utility.yul\":44275:44641   */\n      swap2\n      swap1\n      pop\n      jump\t// out\n        /* \"#utility.yul\":44647:45066   */\n    tag_175:\n        /* \"#utility.yul\":44813:44817   */\n      0x00\n        /* \"#utility.yul\":44851:44853   */\n      0x20\n        /* \"#utility.yul\":44840:44849   */\n      dup3\n        /* \"#utility.yul\":44836:44854   */\n      add\n        /* \"#utility.yul\":44828:44854   */\n      swap1\n      pop\n        /* \"#utility.yul\":44900:44909   */\n      dup2\n        /* \"#utility.yul\":44894:44898   */\n      dup2\n        /* \"#utility.yul\":44890:44910   */\n      sub\n        /* \"#utility.yul\":44886:44887   */\n      0x00\n        /* \"#utility.yul\":44875:44884   */\n      dup4\n        /* \"#utility.yul\":44871:44888   */\n      add\n        /* \"#utility.yul\":44864:44911   */\n      mstore\n        /* \"#utility.yul\":44928:45059   */\n      tag_853\n        /* \"#utility.yul\":45054:45058   */\n      dup2\n        /* \"#utility.yul\":44928:45059   */\n      tag_452\n      jump\t// in\n    tag_853:\n        /* \"#utility.yul\":44920:45059   */\n      swap1\n      pop\n        /* \"#utility.yul\":44647:45066   */\n      swap2\n      swap1\n      pop\n      jump\t// out\n        /* \"#utility.yul\":45072:45306   */\n    tag_453:\n        /* \"#utility.yul\":45212:45246   */\n      0x52656365697665722068617320696e73756666696369656e7420746f6b656e73\n        /* \"#utility.yul\":45208:45209   */\n      0x00\n        /* \"#utility.yul\":45200:45206   */\n      dup3\n        /* \"#utility.yul\":45196:45210   */\n      add\n        /* \"#utility.yul\":45189:45247   */\n      mstore\n        /* \"#utility.yul\":45281:45298   */\n      0x20746f2062757920656e657267792e0000000000000000000000000000000000\n        /* \"#utility.yul\":45276:45278   */\n      0x20\n        /* \"#utility.yul\":45268:45274   */\n      dup3\n        /* \"#utility.yul\":45264:45279   */\n      add\n        /* \"#utility.yul\":45257:45299   */\n      mstore\n        /* \"#utility.yul\":45072:45306   */\n      pop\n      jump\t// out\n        /* \"#utility.yul\":45312:45678   */\n    tag_454:\n        /* \"#utility.yul\":45454:45457   */\n      0x00\n        /* \"#utility.yul\":45475:45542   */\n      tag_856\n        /* \"#utility.yul\":45539:45541   */\n      0x2f\n        /* \"#utility.yul\":45534:45537   */\n      dup4\n        /* \"#utility.yul\":45475:45542   */\n      tag_384\n      jump\t// in\n    tag_856:\n        /* \"#utility.yul\":45468:45542   */\n      swap2\n      pop\n        /* \"#utility.yul\":45551:45644   */\n      tag_857\n        /* \"#utility.yul\":45640:45643   */\n      dup3\n        /* \"#utility.yul\":45551:45644   */\n      tag_453\n      jump\t// in\n    tag_857:\n        /* \"#utility.yul\":45669:45671   */\n      0x40\n        /* \"#utility.yul\":45664:45667   */\n      dup3\n        /* \"#utility.yul\":45660:45672   */\n      add\n        /* \"#utility.yul\":45653:45672   */\n      swap1\n      pop\n        /* \"#utility.yul\":45312:45678   */\n      swap2\n      swap1\n      pop\n      jump\t// out\n        /* \"#utility.yul\":45684:46103   */\n    tag_178:\n        /* \"#utility.yul\":45850:45854   */\n      0x00\n        /* \"#utility.yul\":45888:45890   */\n      0x20\n        /* \"#utility.yul\":45877:45886   */\n      dup3\n        /* \"#utility.yul\":45873:45891   */\n      add\n        /* \"#utility.yul\":45865:45891   */\n      swap1\n      pop\n        /* \"#utility.yul\":45937:45946   */\n      dup2\n        /* \"#utility.yul\":45931:45935   */\n      dup2\n        /* \"#utility.yul\":45927:45947   */\n      sub\n        /* \"#utility.yul\":45923:45924   */\n      0x00\n        /* \"#utility.yul\":45912:45921   */\n      dup4\n        /* \"#utility.yul\":45908:45925   */\n      add\n        /* \"#utility.yul\":45901:45948   */\n      mstore\n        /* \"#utility.yul\":45965:46096   */\n      tag_859\n        /* \"#utility.yul\":46091:46095   */\n      dup2\n        /* \"#utility.yul\":45965:46096   */\n      tag_454\n      jump\t// in\n    tag_859:\n        /* \"#utility.yul\":45957:46096   */\n      swap1\n      pop\n        /* \"#utility.yul\":45684:46103   */\n      swap2\n      swap1\n      pop\n      jump\t// out\n        /* \"#utility.yul\":46109:46342   */\n    tag_180:\n        /* \"#utility.yul\":46148:46151   */\n      0x00\n        /* \"#utility.yul\":46171:46195   */\n      tag_861\n        /* \"#utility.yul\":46189:46194   */\n      dup3\n        /* \"#utility.yul\":46171:46195   */\n      tag_351\n      jump\t// in\n    tag_861:\n        /* \"#utility.yul\":46162:46195   */\n      swap2\n      pop\n        /* \"#utility.yul\":46217:46283   */\n      0xffffffffffffffffffffffffffffffffffffffffffffffffffffffffffffffff\n        /* \"#utility.yul\":46210:46215   */\n      dup3\n        /* \"#utility.yul\":46207:46284   */\n      sub\n        /* \"#utility.yul\":46204:46307   */\n      tag_862\n      jumpi\n        /* \"#utility.yul\":46287:46305   */\n      tag_863\n      tag_435\n      jump\t// in\n    tag_863:\n        /* \"#utility.yul\":46204:46307   */\n    tag_862:\n        /* \"#utility.yul\":46334:46335   */\n      0x01\n        /* \"#utility.yul\":46327:46332   */\n      dup3\n        /* \"#utility.yul\":46323:46336   */\n      add\n        /* \"#utility.yul\":46316:46336   */\n      swap1\n      pop\n        /* \"#utility.yul\":46109:46342   */\n      swap2\n      swap1\n      pop\n      jump\t// out\n        /* \"#utility.yul\":46348:46822   */\n    tag_192:\n        /* \"#utility.yul\":46513:46517   */\n      0x00\n        /* \"#utility.yul\":46551:46553   */\n      0x60\n        /* \"#utility.yul\":46540:46549   */\n      dup3\n        /* \"#utility.yul\":46536:46554   */\n      add\n        /* \"#utility.yul\":46528:46554   */\n      swap1\n      pop\n        /* \"#utility.yul\":46564:46635   */\n      tag_865\n        /* \"#utility.yul\":46632:46633   */\n      0x00\n        /* \"#utility.yul\":46621:46630   */\n      dup4\n        /* \"#utility.yul\":46617:46634   */\n      add\n        /* \"#utility.yul\":46608:46614   */\n      dup7\n        /* \"#utility.yul\":46564:46635   */\n      tag_382\n      jump\t// in\n    tag_865:\n        /* \"#utility.yul\":46645:46717   */\n      tag_866\n        /* \"#utility.yul\":46713:46715   */\n      0x20\n        /* \"#utility.yul\":46702:46711   */\n      dup4\n        /* \"#utility.yul\":46698:46716   */\n      add\n        /* \"#utility.yul\":46689:46695   */\n      dup6\n        /* \"#utility.yul\":46645:46717   */\n      tag_383\n      jump\t// in\n    tag_866:\n        /* \"#utility.yul\":46727:46815   */\n      tag_867\n        /* \"#utility.yul\":46811:46813   */\n      0x40\n        /* \"#utility.yul\":46800:46809   */\n      dup4\n        /* \"#utility.yul\":46796:46814   */\n      add\n        /* \"#utility.yul\":46787:46793   */\n      dup5\n        /* \"#utility.yul\":46727:46815   */\n      tag_389\n      jump\t// in\n    tag_867:\n        /* \"#utility.yul\":46348:46822   */\n      swap5\n      swap4\n      pop\n      pop\n      pop\n      pop\n      jump\t// out\n        /* \"#utility.yul\":46828:47003   */\n    tag_455:\n        /* \"#utility.yul\":46968:46995   */\n      0x4f6e6c792061646d696e2063616e2063616c6c20746869732e00000000000000\n        /* \"#utility.yul\":46964:46965   */\n      0x00\n        /* \"#utility.yul\":46956:46962   */\n      dup3\n        /* \"#utility.yul\":46952:46966   */\n      add\n        /* \"#utility.yul\":46945:46996   */\n      mstore\n        /* \"#utility.yul\":46828:47003   */\n      pop\n      jump\t// out\n        /* \"#utility.yul\":47009:47375   */\n    tag_456:\n        /* \"#utility.yul\":47151:47154   */\n      0x00\n        /* \"#utility.yul\":47172:47239   */\n      tag_870\n        /* \"#utility.yul\":47236:47238   */\n      0x19\n        /* \"#utility.yul\":47231:47234   */\n      dup4\n        /* \"#utility.yul\":47172:47239   */\n      tag_384\n      jump\t// in\n    tag_870:\n        /* \"#utility.yul\":47165:47239   */\n      swap2\n      pop\n        /* \"#utility.yul\":47248:47341   */\n      tag_871\n        /* \"#utility.yul\":47337:47340   */\n      dup3\n        /* \"#utility.yul\":47248:47341   */\n      tag_455\n      jump\t// in\n    tag_871:\n        /* \"#utility.yul\":47366:47368   */\n      0x20\n        /* \"#utility.yul\":47361:47364   */\n      dup3\n        /* \"#utility.yul\":47357:47369   */\n      add\n        /* \"#utility.yul\":47350:47369   */\n      swap1\n      pop\n        /* \"#utility.yul\":47009:47375   */\n      swap2\n      swap1\n      pop\n      jump\t// out\n        /* \"#utility.yul\":47381:47800   */\n    tag_196:\n        /* \"#utility.yul\":47547:47551   */\n      0x00\n        /* \"#utility.yul\":47585:47587   */\n      0x20\n        /* \"#utility.yul\":47574:47583   */\n      dup3\n        /* \"#utility.yul\":47570:47588   */\n      add\n        /* \"#utility.yul\":47562:47588   */\n      swap1\n      pop\n        /* \"#utility.yul\":47634:47643   */\n      dup2\n        /* \"#utility.yul\":47628:47632   */\n      dup2\n        /* \"#utility.yul\":47624:47644   */\n      sub\n        /* \"#utility.yul\":47620:47621   */\n      0x00\n        /* \"#utility.yul\":47609:47618   */\n      dup4\n        /* \"#utility.yul\":47605:47622   */\n      add\n        /* \"#utility.yul\":47598:47645   */\n      mstore\n        /* \"#utility.yul\":47662:47793   */\n      tag_873\n        /* \"#utility.yul\":47788:47792   */\n      dup2\n        /* \"#utility.yul\":47662:47793   */\n      tag_456\n      jump\t// in\n    tag_873:\n        /* \"#utility.yul\":47654:47793   */\n      swap1\n      pop\n        /* \"#utility.yul\":47381:47800   */\n      swap2\n      swap1\n      pop\n      jump\t// out\n        /* \"#utility.yul\":47806:47986   */\n    tag_205:\n        /* \"#utility.yul\":47854:47931   */\n      0x4e487b7100000000000000000000000000000000000000000000000000000000\n        /* \"#utility.yul\":47851:47852   */\n      0x00\n        /* \"#utility.yul\":47844:47932   */\n      mstore\n        /* \"#utility.yul\":47951:47955   */\n      0x32\n        /* \"#utility.yul\":47948:47949   */\n      0x04\n        /* \"#utility.yul\":47941:47956   */\n      mstore\n        /* \"#utility.yul\":47975:47979   */\n      0x24\n        /* \"#utility.yul\":47972:47973   */\n      0x00\n        /* \"#utility.yul\":47965:47980   */\n      revert\n        /* \"#utility.yul\":47992:48172   */\n    tag_217:\n        /* \"#utility.yul\":48040:48117   */\n      0x4e487b7100000000000000000000000000000000000000000000000000000000\n        /* \"#utility.yul\":48037:48038   */\n      0x00\n        /* \"#utility.yul\":48030:48118   */\n      mstore\n        /* \"#utility.yul\":48137:48141   */\n      0x31\n        /* \"#utility.yul\":48134:48135   */\n      0x04\n        /* \"#utility.yul\":48127:48142   */\n      mstore\n        /* \"#utility.yul\":48161:48165   */\n      0x24\n        /* \"#utility.yul\":48158:48159   */\n      0x00\n        /* \"#utility.yul\":48151:48166   */\n      revert\n        /* \"#utility.yul\":48178:48351   */\n    tag_457:\n        /* \"#utility.yul\":48318:48343   */\n      0x557365722061646472657373206e6f7420666f756e642e000000000000000000\n        /* \"#utility.yul\":48314:48315   */\n      0x00\n        /* \"#utility.yul\":48306:48312   */\n      dup3\n        /* \"#utility.yul\":48302:48316   */\n      add\n        /* \"#utility.yul\":48295:48344   */\n      mstore\n        /* \"#utility.yul\":48178:48351   */\n      pop\n      jump\t// out\n        /* \"#utility.yul\":48357:48723   */\n    tag_458:\n        /* \"#utility.yul\":48499:48502   */\n      0x00\n        /* \"#utility.yul\":48520:48587   */\n      tag_878\n        /* \"#utility.yul\":48584:48586   */\n      0x17\n        /* \"#utility.yul\":48579:48582   */\n      dup4\n        /* \"#utility.yul\":48520:48587   */\n      tag_384\n      jump\t// in\n    tag_878:\n        /* \"#utility.yul\":48513:48587   */\n      swap2\n      pop\n        /* \"#utility.yul\":48596:48689   */\n      tag_879\n        /* \"#utility.yul\":48685:48688   */\n      dup3\n        /* \"#utility.yul\":48596:48689   */\n      tag_457\n      jump\t// in\n    tag_879:\n        /* \"#utility.yul\":48714:48716   */\n      0x20\n        /* \"#utility.yul\":48709:48712   */\n      dup3\n        /* \"#utility.yul\":48705:48717   */\n      add\n        /* \"#utility.yul\":48698:48717   */\n      swap1\n      pop\n        /* \"#utility.yul\":48357:48723   */\n      swap2\n      swap1\n      pop\n      jump\t// out\n        /* \"#utility.yul\":48729:49148   */\n    tag_221:\n        /* \"#utility.yul\":48895:48899   */\n      0x00\n        /* \"#utility.yul\":48933:48935   */\n      0x20\n        /* \"#utility.yul\":48922:48931   */\n      dup3\n        /* \"#utility.yul\":48918:48936   */\n      add\n        /* \"#utility.yul\":48910:48936   */\n      swap1\n      pop\n        /* \"#utility.yul\":48982:48991   */\n      dup2\n        /* \"#utility.yul\":48976:48980   */\n      dup2\n        /* \"#utility.yul\":48972:48992   */\n      sub\n        /* \"#utility.yul\":48968:48969   */\n      0x00\n        /* \"#utility.yul\":48957:48966   */\n      dup4\n        /* \"#utility.yul\":48953:48970   */\n      add\n        /* \"#utility.yul\":48946:48993   */\n      mstore\n        /* \"#utility.yul\":49010:49141   */\n      tag_881\n        /* \"#utility.yul\":49136:49140   */\n      dup2\n        /* \"#utility.yul\":49010:49141   */\n      tag_458\n      jump\t// in\n    tag_881:\n        /* \"#utility.yul\":49002:49141   */\n      swap1\n      pop\n        /* \"#utility.yul\":48729:49148   */\n      swap2\n      swap1\n      pop\n      jump\t// out\n\n    auxdata: 0xa2646970667358221220d5090df2705bbf8165c01fe36f1f07298f0d19914824d64ecf0047f166fee26e64736f6c63430008180033\n}\n",
				"bytecode": {
					"linkReferences": {},
					"object": "60806040526001600355348015610014575f80fd5b503360025f6101000a81548173ffffffffffffffffffffffffffffffffffffffff021916908373ffffffffffffffffffffffffffffffffffffffff160217905550613db8806100625f395ff3fe608060405234801561000f575f80fd5b5060043610610109575f3560e01c80639ace38c2116100a0578063af7ccfa71161006f578063af7ccfa7146102d2578063b1fce8c3146102ee578063c0fa3f4b1461030c578063c3bcf1921461032a578063f851a4401461034857610109565b80639ace38c214610229578063a591efde14610261578063a87430ba1461027f578063a9878c62146102b457610109565b80634439a702116100dc5780634439a702146101915780635c60f226146101ad5780636386c1c7146101c957806363a8374d146101f957610109565b80630b0f9dc31461010d578063163f752214610129578063210c9154146101595780632fc00ba114610175575b5f80fd5b6101276004803603810190610122919061268f565b610366565b005b610143600480360381019061013e9190612727565b610ad7565b6040516101509190612761565b60405180910390f35b610173600480360381019061016e91906128e9565b610b2c565b005b61018f600480360381019061018a91906128e9565b610d07565b005b6101ab60048036038101906101a6919061297c565b610e66565b005b6101c760048036038101906101c29190612727565b611455565b005b6101e360048036038101906101de9190612727565b6117eb565b6040516101f09190612b32565b60405180910390f35b610213600480360381019061020e9190612b52565b61199f565b6040516102209190612b8c565b60405180910390f35b610243600480360381019061023e9190612b52565b6119bf565b60405161025899989796959493929190612c6f565b60405180910390f35b610269611ae5565b6040516102769190612db8565b60405180910390f35b61029960048036038101906102949190612727565b611b6f565b6040516102ab96959493929190612de7565b60405180910390f35b6102bc611c39565b6040516102c99190612fd9565b60405180910390f35b6102ec60048036038101906102e79190612ff9565b611ec7565b005b6102f6611f9c565b6040516103039190612fd9565b60405180910390f35b61031461222a565b6040516103219190612b8c565b60405180910390f35b610332612236565b60405161033f9190613178565b60405180910390f35b610350612427565b60405161035d9190613198565b60405180910390f35b6003548210801561038a57505f60045f8481526020019081526020015f205f015414155b6103c9576040517f08c379a00000000000000000000000000000000000000000000000000000000081526004016103c0906131fb565b60405180910390fd5b60045f8381526020019081526020015f206006015f9054906101000a900460ff161561042a576040517f08c379a000000000000000000000000000000000000000000000000000000000815260040161042190613263565b60405180910390fd5b60045f8381526020019081526020015f206005015442111561051057600160045f8481526020019081526020015f206006015f6101000a81548160ff0219169083151502179055506040518060400160405280601a81526020017f52656a65637465642064756520746f2065787069726174696f6e00000000000081525060045f8481526020019081526020015f2060070190816104c8919061347b565b507fb6cdb9654a453b960ec5fe6f18502a3f0dd823ed74ddc4f68a16b3210265ea5b825f6040516104fa929190613594565b60405180910390a161050b8261244c565b610ad3565b600160045f8481526020019081526020015f206006015f6101000a81548160ff0219169083151502179055508061057c576040518060400160405280600881526020017f52656a65637465640000000000000000000000000000000000000000000000008152506105b3565b6040518060400160405280600881526020017f41636365707465640000000000000000000000000000000000000000000000008152505b60045f8481526020019081526020015f2060070190816105d3919061347b565b506105dd8261244c565b600682908060018154018082558091505060019003905f5260205f20015f90919091909150558015610a84575f60045f8481526020019081526020015f2090505f60018111156106305761062f612bfc565b5b816008015f9054906101000a900460ff16600181111561065357610652612bfc565b5b0361085157806004015460015f836001015f9054906101000a900473ffffffffffffffffffffffffffffffffffffffff1673ffffffffffffffffffffffffffffffffffffffff1673ffffffffffffffffffffffffffffffffffffffff1681526020019081526020015f206004015f8282546106ce91906135fb565b92505081905550806004015460015f836002015f9054906101000a900473ffffffffffffffffffffffffffffffffffffffff1673ffffffffffffffffffffffffffffffffffffffff1673ffffffffffffffffffffffffffffffffffffffff1681526020019081526020015f206004015f82825461074b919061362e565b92505081905550806003015460015f836001015f9054906101000a900473ffffffffffffffffffffffffffffffffffffffff1673ffffffffffffffffffffffffffffffffffffffff1673ffffffffffffffffffffffffffffffffffffffff1681526020019081526020015f206003015f8282546107c8919061362e565b92505081905550806003015460015f836002015f9054906101000a900473ffffffffffffffffffffffffffffffffffffffff1673ffffffffffffffffffffffffffffffffffffffff1673ffffffffffffffffffffffffffffffffffffffff1681526020019081526020015f206003015f82825461084591906135fb565b92505081905550610a82565b60018081111561086457610863612bfc565b5b816008015f9054906101000a900460ff16600181111561088757610886612bfc565b5b03610a8157806004015460015f836001015f9054906101000a900473ffffffffffffffffffffffffffffffffffffffff1673ffffffffffffffffffffffffffffffffffffffff1673ffffffffffffffffffffffffffffffffffffffff1681526020019081526020015f206004015f828254610902919061362e565b92505081905550806004015460015f836002015f9054906101000a900473ffffffffffffffffffffffffffffffffffffffff1673ffffffffffffffffffffffffffffffffffffffff1673ffffffffffffffffffffffffffffffffffffffff1681526020019081526020015f206004015f82825461097f91906135fb565b92505081905550806003015460015f836001015f9054906101000a900473ffffffffffffffffffffffffffffffffffffffff1673ffffffffffffffffffffffffffffffffffffffff1673ffffffffffffffffffffffffffffffffffffffff1681526020019081526020015f206003015f8282546109fc91906135fb565b92505081905550806003015460015f836002015f9054906101000a900473ffffffffffffffffffffffffffffffffffffffff1673ffffffffffffffffffffffffffffffffffffffff1673ffffffffffffffffffffffffffffffffffffffff1681526020019081526020015f206003015f828254610a79919061362e565b925050819055505b5b505b7fb6cdb9654a453b960ec5fe6f18502a3f0dd823ed74ddc4f68a16b3210265ea5b828260045f8681526020019081526020015f20600701604051610aca939291906136e2565b60405180910390a15b5050565b5f60015f8373ffffffffffffffffffffffffffffffffffffffff1673ffffffffffffffffffffffffffffffffffffffff1681526020019081526020015f206005015f9054906101000a900460ff169050919050565b60015f3373ffffffffffffffffffffffffffffffffffffffff1673ffffffffffffffffffffffffffffffffffffffff1681526020019081526020015f206005015f9054906101000a900460ff1615610bb9576040517f08c379a0000000000000000000000000000000000000000000000000000000008152600401610bb090613768565b60405180910390fd5b5f60015f3373ffffffffffffffffffffffffffffffffffffffff1673ffffffffffffffffffffffffffffffffffffffff1681526020019081526020015f20905085815f019081610c09919061347b565b508481600101819055508381600201819055508281600301819055508181600401819055506001816005015f6101000a81548160ff0219169083151502179055505f33908060018154018082558091505060019003905f5260205f20015f9091909190916101000a81548173ffffffffffffffffffffffffffffffffffffffff021916908373ffffffffffffffffffffffffffffffffffffffff1602179055503373ffffffffffffffffffffffffffffffffffffffff167fa96c6e1d7341a1c22b8e45bf7b44369c06e82e7c6be9b784c233b125ec57d9658787878787604051610cf7959493929190613786565b60405180910390a2505050505050565b60015f3373ffffffffffffffffffffffffffffffffffffffff1673ffffffffffffffffffffffffffffffffffffffff1681526020019081526020015f206005015f9054906101000a900460ff16610d93576040517f08c379a0000000000000000000000000000000000000000000000000000000008152600401610d8a90613828565b60405180910390fd5b5f60015f3373ffffffffffffffffffffffffffffffffffffffff1673ffffffffffffffffffffffffffffffffffffffff1681526020019081526020015f20905085815f019081610de3919061347b565b508481600101819055508381600201819055508281600301819055508181600401819055503373ffffffffffffffffffffffffffffffffffffffff167f18f5dfadc27470bf794c1463063c79a0bdd01ca6e7e3d25bd9c764dc07056ef78787878787604051610e56959493929190613786565b60405180910390a2505050505050565b60015f8773ffffffffffffffffffffffffffffffffffffffff1673ffffffffffffffffffffffffffffffffffffffff1681526020019081526020015f206005015f9054906101000a900460ff16610ef2576040517f08c379a0000000000000000000000000000000000000000000000000000000008152600401610ee990613890565b60405180910390fd5b60015f8673ffffffffffffffffffffffffffffffffffffffff1673ffffffffffffffffffffffffffffffffffffffff1681526020019081526020015f206005015f9054906101000a900460ff16610f7e576040517f08c379a0000000000000000000000000000000000000000000000000000000008152600401610f75906138f8565b60405180910390fd5b428211610fc0576040517f08c379a0000000000000000000000000000000000000000000000000000000008152600401610fb790613986565b60405180910390fd5b80156110d1578260015f8873ffffffffffffffffffffffffffffffffffffffff1673ffffffffffffffffffffffffffffffffffffffff1681526020019081526020015f20600401541015611049576040517f08c379a000000000000000000000000000000000000000000000000000000000815260040161104090613a14565b60405180910390fd5b8360015f8773ffffffffffffffffffffffffffffffffffffffff1673ffffffffffffffffffffffffffffffffffffffff1681526020019081526020015f206003015410156110cc576040517f08c379a00000000000000000000000000000000000000000000000000000000081526004016110c390613aa2565b60405180910390fd5b6111d8565b8360015f8873ffffffffffffffffffffffffffffffffffffffff1673ffffffffffffffffffffffffffffffffffffffff1681526020019081526020015f20600301541015611154576040517f08c379a000000000000000000000000000000000000000000000000000000000815260040161114b90613b30565b60405180910390fd5b8260015f8773ffffffffffffffffffffffffffffffffffffffff1673ffffffffffffffffffffffffffffffffffffffff1681526020019081526020015f206004015410156111d7576040517f08c379a00000000000000000000000000000000000000000000000000000000081526004016111ce90613bbe565b60405180910390fd5b5b5f60035f8154809291906111eb90613bdc565b9190505590506040518061012001604052808281526020018873ffffffffffffffffffffffffffffffffffffffff1681526020018773ffffffffffffffffffffffffffffffffffffffff1681526020018681526020018581526020018481526020015f151581526020016040518060400160405280600781526020017f50656e64696e670000000000000000000000000000000000000000000000000081525081526020018361129c57600161129e565b5f5b60018111156112b0576112af612bfc565b5b81525060045f8381526020019081526020015f205f820151815f01556020820151816001015f6101000a81548173ffffffffffffffffffffffffffffffffffffffff021916908373ffffffffffffffffffffffffffffffffffffffff1602179055506040820151816002015f6101000a81548173ffffffffffffffffffffffffffffffffffffffff021916908373ffffffffffffffffffffffffffffffffffffffff160217905550606082015181600301556080820151816004015560a0820151816005015560c0820151816006015f6101000a81548160ff02191690831515021790555060e08201518160070190816113aa919061347b565b50610100820151816008015f6101000a81548160ff021916908360018111156113d6576113d5612bfc565b5b0217905550905050600581908060018154018082558091505060019003905f5260205f20015f90919091909150557f6f2fac3f769ed900eb9891a73caa7b5267ce788a20299805ce4b85934cb200f5818784611433576001611435565b5f5b60405161144493929190613c23565b60405180910390a150505050505050565b60025f9054906101000a900473ffffffffffffffffffffffffffffffffffffffff1673ffffffffffffffffffffffffffffffffffffffff163373ffffffffffffffffffffffffffffffffffffffff16146114e4576040517f08c379a00000000000000000000000000000000000000000000000000000000081526004016114db90613ca2565b60405180910390fd5b60015f8273ffffffffffffffffffffffffffffffffffffffff1673ffffffffffffffffffffffffffffffffffffffff1681526020019081526020015f206005015f9054906101000a900460ff16611570576040517f08c379a000000000000000000000000000000000000000000000000000000000815260040161156790613828565b60405180910390fd5b5f805b5f805490508110156116e6578273ffffffffffffffffffffffffffffffffffffffff165f82815481106115a9576115a8613cc0565b5b905f5260205f20015f9054906101000a900473ffffffffffffffffffffffffffffffffffffffff1673ffffffffffffffffffffffffffffffffffffffff16036116db575f60015f805490506115fe91906135fb565b8154811061160f5761160e613cc0565b5b905f5260205f20015f9054906101000a900473ffffffffffffffffffffffffffffffffffffffff165f828154811061164a57611649613cc0565b5b905f5260205f20015f6101000a81548173ffffffffffffffffffffffffffffffffffffffff021916908373ffffffffffffffffffffffffffffffffffffffff1602179055505f8054806116a05761169f613ced565b5b600190038181905f5260205f20015f6101000a81549073ffffffffffffffffffffffffffffffffffffffff02191690559055600191506116e6565b806001019050611573565b5080611727576040517f08c379a000000000000000000000000000000000000000000000000000000000815260040161171e90613d64565b60405180910390fd5b60015f8373ffffffffffffffffffffffffffffffffffffffff1673ffffffffffffffffffffffffffffffffffffffff1681526020019081526020015f205f8082015f6117739190612507565b600182015f9055600282015f9055600382015f9055600482015f9055600582015f6101000a81549060ff021916905550508173ffffffffffffffffffffffffffffffffffffffff167f4bc56f1321288dfb5b416cb3a7fd188723979f9e866c91d88eccf7fca039d03960405160405180910390a25050565b6117f3612544565b60015f8373ffffffffffffffffffffffffffffffffffffffff1673ffffffffffffffffffffffffffffffffffffffff1681526020019081526020015f206005015f9054906101000a900460ff1661187f576040517f08c379a000000000000000000000000000000000000000000000000000000000815260040161187690613828565b60405180910390fd5b60015f8373ffffffffffffffffffffffffffffffffffffffff1673ffffffffffffffffffffffffffffffffffffffff1681526020019081526020015f206040518060c00160405290815f820180546118d6906132ae565b80601f0160208091040260200160405190810160405280929190818152602001828054611902906132ae565b801561194d5780601f106119245761010080835404028352916020019161194d565b820191905f5260205f20905b81548152906001019060200180831161193057829003601f168201915b5050505050815260200160018201548152602001600282015481526020016003820154815260200160048201548152602001600582015f9054906101000a900460ff1615151515815250509050919050565b600581815481106119ae575f80fd5b905f5260205f20015f915090505481565b6004602052805f5260405f205f91509050805f015490806001015f9054906101000a900473ffffffffffffffffffffffffffffffffffffffff1690806002015f9054906101000a900473ffffffffffffffffffffffffffffffffffffffff1690806003015490806004015490806005015490806006015f9054906101000a900460ff1690806007018054611a52906132ae565b80601f0160208091040260200160405190810160405280929190818152602001828054611a7e906132ae565b8015611ac95780601f10611aa057610100808354040283529160200191611ac9565b820191905f5260205f20905b815481529060010190602001808311611aac57829003601f168201915b505050505090806008015f9054906101000a900460ff16905089565b60605f805480602002602001604051908101604052809291908181526020018280548015611b6557602002820191905f5260205f20905b815f9054906101000a900473ffffffffffffffffffffffffffffffffffffffff1673ffffffffffffffffffffffffffffffffffffffff1681526020019060010190808311611b1c575b5050505050905090565b6001602052805f5260405f205f91509050805f018054611b8e906132ae565b80601f0160208091040260200160405190810160405280929190818152602001828054611bba906132ae565b8015611c055780601f10611bdc57610100808354040283529160200191611c05565b820191905f5260205f20905b815481529060010190602001808311611be857829003601f168201915b505050505090806001015490806002015490806003015490806004015490806005015f9054906101000a900460ff16905086565b60605f60058054905067ffffffffffffffff811115611c5b57611c5a612792565b5b604051908082528060200260200182016040528015611c9457816020015b611c81612577565b815260200190600190039081611c795790505b5090505f5b600580549050811015611ebf5760045f60058381548110611cbd57611cbc613cc0565b5b905f5260205f20015481526020019081526020015f20604051806101200160405290815f8201548152602001600182015f9054906101000a900473ffffffffffffffffffffffffffffffffffffffff1673ffffffffffffffffffffffffffffffffffffffff1673ffffffffffffffffffffffffffffffffffffffff168152602001600282015f9054906101000a900473ffffffffffffffffffffffffffffffffffffffff1673ffffffffffffffffffffffffffffffffffffffff1673ffffffffffffffffffffffffffffffffffffffff168152602001600382015481526020016004820154815260200160058201548152602001600682015f9054906101000a900460ff16151515158152602001600782018054611dda906132ae565b80601f0160208091040260200160405190810160405280929190818152602001828054611e06906132ae565b8015611e515780601f10611e2857610100808354040283529160200191611e51565b820191905f5260205f20905b815481529060010190602001808311611e3457829003601f168201915b50505050508152602001600882015f9054906101000a900460ff166001811115611e7e57611e7d612bfc565b5b6001811115611e9057611e8f612bfc565b5b81525050828281518110611ea757611ea6613cc0565b5b60200260200101819052508080600101915050611c99565b508091505090565b60015f8373ffffffffffffffffffffffffffffffffffffffff1673ffffffffffffffffffffffffffffffffffffffff1681526020019081526020015f206005015f9054906101000a900460ff16611f53576040517f08c379a0000000000000000000000000000000000000000000000000000000008152600401611f4a90613828565b60405180910390fd5b8060015f8473ffffffffffffffffffffffffffffffffffffffff1673ffffffffffffffffffffffffffffffffffffffff1681526020019081526020015f20600301819055505050565b60605f60068054905067ffffffffffffffff811115611fbe57611fbd612792565b5b604051908082528060200260200182016040528015611ff757816020015b611fe4612577565b815260200190600190039081611fdc5790505b5090505f5b6006805490508110156122225760045f600683815481106120205761201f613cc0565b5b905f5260205f20015481526020019081526020015f20604051806101200160405290815f8201548152602001600182015f9054906101000a900473ffffffffffffffffffffffffffffffffffffffff1673ffffffffffffffffffffffffffffffffffffffff1673ffffffffffffffffffffffffffffffffffffffff168152602001600282015f9054906101000a900473ffffffffffffffffffffffffffffffffffffffff1673ffffffffffffffffffffffffffffffffffffffff1673ffffffffffffffffffffffffffffffffffffffff168152602001600382015481526020016004820154815260200160058201548152602001600682015f9054906101000a900460ff1615151515815260200160078201805461213d906132ae565b80601f0160208091040260200160405190810160405280929190818152602001828054612169906132ae565b80156121b45780601f1061218b576101008083540402835291602001916121b4565b820191905f5260205f20905b81548152906001019060200180831161219757829003601f168201915b50505050508152602001600882015f9054906101000a900460ff1660018111156121e1576121e0612bfc565b5b60018111156121f3576121f2612bfc565b5b8152505082828151811061220a57612209613cc0565b5b60200260200101819052508080600101915050611ffc565b508091505090565b5f600580549050905090565b60605f808054905067ffffffffffffffff81111561225757612256612792565b5b60405190808252806020026020018201604052801561229057816020015b61227d612544565b8152602001906001900390816122755790505b5090505f5b5f8054905081101561241f5760015f8083815481106122b7576122b6613cc0565b5b905f5260205f20015f9054906101000a900473ffffffffffffffffffffffffffffffffffffffff1673ffffffffffffffffffffffffffffffffffffffff1673ffffffffffffffffffffffffffffffffffffffff1681526020019081526020015f206040518060c00160405290815f82018054612332906132ae565b80601f016020809104026020016040519081016040528092919081815260200182805461235e906132ae565b80156123a95780601f10612380576101008083540402835291602001916123a9565b820191905f5260205f20905b81548152906001019060200180831161238c57829003601f168201915b5050505050815260200160018201548152602001600282015481526020016003820154815260200160048201548152602001600582015f9054906101000a900460ff16151515158152505082828151811061240757612406613cc0565b5b60200260200101819052508080600101915050612295565b508091505090565b60025f9054906101000a900473ffffffffffffffffffffffffffffffffffffffff1681565b5f5b6005805490508110156125035781600582815481106124705761246f613cc0565b5b905f5260205f200154036124f6576005600160058054905061249291906135fb565b815481106124a3576124a2613cc0565b5b905f5260205f200154600582815481106124c0576124bf613cc0565b5b905f5260205f20018190555060058054806124de576124dd613ced565b5b600190038181905f5260205f20015f90559055612503565b808060010191505061244e565b5050565b508054612513906132ae565b5f825580601f106125245750612541565b601f0160209004905f5260205f209081019061254091906125fb565b5b50565b6040518060c00160405280606081526020015f81526020015f81526020015f81526020015f81526020015f151581525090565b6040518061012001604052805f81526020015f73ffffffffffffffffffffffffffffffffffffffff1681526020015f73ffffffffffffffffffffffffffffffffffffffff1681526020015f81526020015f81526020015f81526020015f15158152602001606081526020015f60018111156125f5576125f4612bfc565b5b81525090565b5b80821115612612575f815f9055506001016125fc565b5090565b5f604051905090565b5f80fd5b5f80fd5b5f819050919050565b61263981612627565b8114612643575f80fd5b50565b5f8135905061265481612630565b92915050565b5f8115159050919050565b61266e8161265a565b8114612678575f80fd5b50565b5f8135905061268981612665565b92915050565b5f80604083850312156126a5576126a461261f565b5b5f6126b285828601612646565b92505060206126c38582860161267b565b9150509250929050565b5f73ffffffffffffffffffffffffffffffffffffffff82169050919050565b5f6126f6826126cd565b9050919050565b612706816126ec565b8114612710575f80fd5b50565b5f81359050612721816126fd565b92915050565b5f6020828403121561273c5761273b61261f565b5b5f61274984828501612713565b91505092915050565b61275b8161265a565b82525050565b5f6020820190506127745f830184612752565b92915050565b5f80fd5b5f80fd5b5f601f19601f8301169050919050565b7f4e487b71000000000000000000000000000000000000000000000000000000005f52604160045260245ffd5b6127c882612782565b810181811067ffffffffffffffff821117156127e7576127e6612792565b5b80604052505050565b5f6127f9612616565b905061280582826127bf565b919050565b5f67ffffffffffffffff82111561282457612823612792565b5b61282d82612782565b9050602081019050919050565b828183375f83830152505050565b5f61285a6128558461280a565b6127f0565b9050828152602081018484840111156128765761287561277e565b5b61288184828561283a565b509392505050565b5f82601f83011261289d5761289c61277a565b5b81356128ad848260208601612848565b91505092915050565b5f819050919050565b6128c8816128b6565b81146128d2575f80fd5b50565b5f813590506128e3816128bf565b92915050565b5f805f805f60a086880312156129025761290161261f565b5b5f86013567ffffffffffffffff81111561291f5761291e612623565b5b61292b88828901612889565b955050602061293c888289016128d5565b945050604061294d888289016128d5565b935050606061295e88828901612646565b925050608061296f88828901612646565b9150509295509295909350565b5f805f805f8060c087890312156129965761299561261f565b5b5f6129a389828a01612713565b96505060206129b489828a01612713565b95505060406129c589828a01612646565b94505060606129d689828a01612646565b93505060806129e789828a01612646565b92505060a06129f889828a0161267b565b9150509295509295509295565b5f81519050919050565b5f82825260208201905092915050565b5f5b83811015612a3c578082015181840152602081019050612a21565b5f8484015250505050565b5f612a5182612a05565b612a5b8185612a0f565b9350612a6b818560208601612a1f565b612a7481612782565b840191505092915050565b612a88816128b6565b82525050565b612a9781612627565b82525050565b612aa68161265a565b82525050565b5f60c083015f8301518482035f860152612ac68282612a47565b9150506020830151612adb6020860182612a7f565b506040830151612aee6040860182612a7f565b506060830151612b016060860182612a8e565b506080830151612b146080860182612a8e565b5060a0830151612b2760a0860182612a9d565b508091505092915050565b5f6020820190508181035f830152612b4a8184612aac565b905092915050565b5f60208284031215612b6757612b6661261f565b5b5f612b7484828501612646565b91505092915050565b612b8681612627565b82525050565b5f602082019050612b9f5f830184612b7d565b92915050565b612bae816126ec565b82525050565b5f82825260208201905092915050565b5f612bce82612a05565b612bd88185612bb4565b9350612be8818560208601612a1f565b612bf181612782565b840191505092915050565b7f4e487b71000000000000000000000000000000000000000000000000000000005f52602160045260245ffd5b60028110612c3a57612c39612bfc565b5b50565b5f819050612c4a82612c29565b919050565b5f612c5982612c3d565b9050919050565b612c6981612c4f565b82525050565b5f61012082019050612c835f83018c612b7d565b612c90602083018b612ba5565b612c9d604083018a612ba5565b612caa6060830189612b7d565b612cb76080830188612b7d565b612cc460a0830187612b7d565b612cd160c0830186612752565b81810360e0830152612ce38185612bc4565b9050612cf3610100830184612c60565b9a9950505050505050505050565b5f81519050919050565b5f82825260208201905092915050565b5f819050602082019050919050565b612d33816126ec565b82525050565b5f612d448383612d2a565b60208301905092915050565b5f602082019050919050565b5f612d6682612d01565b612d708185612d0b565b9350612d7b83612d1b565b805f5b83811015612dab578151612d928882612d39565b9750612d9d83612d50565b925050600181019050612d7e565b5085935050505092915050565b5f6020820190508181035f830152612dd08184612d5c565b905092915050565b612de1816128b6565b82525050565b5f60c0820190508181035f830152612dff8189612bc4565b9050612e0e6020830188612dd8565b612e1b6040830187612dd8565b612e286060830186612b7d565b612e356080830185612b7d565b612e4260a0830184612752565b979650505050505050565b5f81519050919050565b5f82825260208201905092915050565b5f819050602082019050919050565b612e7f81612c4f565b82525050565b5f61012083015f830151612e9b5f860182612a8e565b506020830151612eae6020860182612d2a565b506040830151612ec16040860182612d2a565b506060830151612ed46060860182612a8e565b506080830151612ee76080860182612a8e565b5060a0830151612efa60a0860182612a8e565b5060c0830151612f0d60c0860182612a9d565b5060e083015184820360e0860152612f258282612a47565b915050610100830151612f3c610100860182612e76565b508091505092915050565b5f612f528383612e85565b905092915050565b5f602082019050919050565b5f612f7082612e4d565b612f7a8185612e57565b935083602082028501612f8c85612e67565b805f5b85811015612fc75784840389528151612fa88582612f47565b9450612fb383612f5a565b925060208a01995050600181019050612f8f565b50829750879550505050505092915050565b5f6020820190508181035f830152612ff18184612f66565b905092915050565b5f806040838503121561300f5761300e61261f565b5b5f61301c85828601612713565b925050602061302d85828601612646565b9150509250929050565b5f81519050919050565b5f82825260208201905092915050565b5f819050602082019050919050565b5f60c083015f8301518482035f86015261307a8282612a47565b915050602083015161308f6020860182612a7f565b5060408301516130a26040860182612a7f565b5060608301516130b56060860182612a8e565b5060808301516130c86080860182612a8e565b5060a08301516130db60a0860182612a9d565b508091505092915050565b5f6130f18383613060565b905092915050565b5f602082019050919050565b5f61310f82613037565b6131198185613041565b93508360208202850161312b85613051565b805f5b85811015613166578484038952815161314785826130e6565b9450613152836130f9565b925060208a0199505060018101905061312e565b50829750879550505050505092915050565b5f6020820190508181035f8301526131908184613105565b905092915050565b5f6020820190506131ab5f830184612ba5565b92915050565b7f5472616e73616374696f6e20646f6573206e6f742065786973742e00000000005f82015250565b5f6131e5601b83612bb4565b91506131f0826131b1565b602082019050919050565b5f6020820190508181035f830152613212816131d9565b9050919050565b7f5472616e73616374696f6e20616c726561647920636f6d6d69747465642e00005f82015250565b5f61324d601e83612bb4565b915061325882613219565b602082019050919050565b5f6020820190508181035f83015261327a81613241565b9050919050565b7f4e487b71000000000000000000000000000000000000000000000000000000005f52602260045260245ffd5b5f60028204905060018216806132c557607f821691505b6020821081036132d8576132d7613281565b5b50919050565b5f819050815f5260205f209050919050565b5f6020601f8301049050919050565b5f82821b905092915050565b5f6008830261333a7fffffffffffffffffffffffffffffffffffffffffffffffffffffffffffffffff826132ff565b61334486836132ff565b95508019841693508086168417925050509392505050565b5f819050919050565b5f61337f61337a61337584612627565b61335c565b612627565b9050919050565b5f819050919050565b61339883613365565b6133ac6133a482613386565b84845461330b565b825550505050565b5f90565b6133c06133b4565b6133cb81848461338f565b505050565b5b818110156133ee576133e35f826133b8565b6001810190506133d1565b5050565b601f82111561343357613404816132de565b61340d846132f0565b8101602085101561341c578190505b613430613428856132f0565b8301826133d0565b50505b505050565b5f82821c905092915050565b5f6134535f1984600802613438565b1980831691505092915050565b5f61346b8383613444565b9150826002028217905092915050565b61348482612a05565b67ffffffffffffffff81111561349d5761349c612792565b5b6134a782546132ae565b6134b28282856133f2565b5f60209050601f8311600181146134e3575f84156134d1578287015190505b6134db8582613460565b865550613542565b601f1984166134f1866132de565b5f5b82811015613518578489015182556001820191506020850194506020810190506134f3565b868310156135355784890151613531601f891682613444565b8355505b6001600288020188555050505b505050505050565b7f52656a65637465642064756520746f2065787069726174696f6e0000000000005f82015250565b5f61357e601a83612bb4565b91506135898261354a565b602082019050919050565b5f6060820190506135a75f830185612b7d565b6135b46020830184612752565b81810360408301526135c581613572565b90509392505050565b7f4e487b71000000000000000000000000000000000000000000000000000000005f52601160045260245ffd5b5f61360582612627565b915061361083612627565b9250828203905081811115613628576136276135ce565b5b92915050565b5f61363882612627565b915061364383612627565b925082820190508082111561365b5761365a6135ce565b5b92915050565b5f815461366d816132ae565b6136778186612bb4565b9450600182165f811461369157600181146136a7576136d9565b60ff1983168652811515602002860193506136d9565b6136b0856132de565b5f5b838110156136d1578154818901526001820191506020810190506136b2565b808801955050505b50505092915050565b5f6060820190506136f55f830186612b7d565b6137026020830185612752565b81810360408301526137148184613661565b9050949350505050565b7f5573657220616c726561647920726567697374657265642e00000000000000005f82015250565b5f613752601883612bb4565b915061375d8261371e565b602082019050919050565b5f6020820190508181035f83015261377f81613746565b9050919050565b5f60a0820190508181035f83015261379e8188612bc4565b90506137ad6020830187612dd8565b6137ba6040830186612dd8565b6137c76060830185612b7d565b6137d46080830184612b7d565b9695505050505050565b7f55736572206973206e6f7420726567697374657265642e0000000000000000005f82015250565b5f613812601783612bb4565b915061381d826137de565b602082019050919050565b5f6020820190508181035f83015261383f81613806565b9050919050565b7f496e69746961746f72206973206e6f7420726567697374657265642e000000005f82015250565b5f61387a601c83612bb4565b915061388582613846565b602082019050919050565b5f6020820190508181035f8301526138a78161386e565b9050919050565b7f5265636569766572206973206e6f7420726567697374657265642e00000000005f82015250565b5f6138e2601b83612bb4565b91506138ed826138ae565b602082019050919050565b5f6020820190508181035f83015261390f816138d6565b9050919050565b7f5472616e73616374696f6e2065787069726174696f6e206d75737420626520695f8201527f6e20746865206675747572652e00000000000000000000000000000000000000602082015250565b5f613970602d83612bb4565b915061397b82613916565b604082019050919050565b5f6020820190508181035f83015261399d81613964565b9050919050565b7f53656e6465722068617320696e73756666696369656e7420746f6b656e7320665f8201527f6f72207472616e73616374696f6e2e0000000000000000000000000000000000602082015250565b5f6139fe602f83612bb4565b9150613a09826139a4565b604082019050919050565b5f6020820190508181035f830152613a2b816139f2565b9050919050565b7f526563656976657220646f6573206e6f74206861766520656e6f75676820656e5f8201527f657267792e000000000000000000000000000000000000000000000000000000602082015250565b5f613a8c602583612bb4565b9150613a9782613a32565b604082019050919050565b5f6020820190508181035f830152613ab981613a80565b9050919050565b7f53656e6465722068617320696e73756666696369656e7420656e6572677920665f8201527f6f72207472616e73616374696f6e2e0000000000000000000000000000000000602082015250565b5f613b1a602f83612bb4565b9150613b2582613ac0565b604082019050919050565b5f6020820190508181035f830152613b4781613b0e565b9050919050565b7f52656365697665722068617320696e73756666696369656e7420746f6b656e735f8201527f20746f2062757920656e657267792e0000000000000000000000000000000000602082015250565b5f613ba8602f83612bb4565b9150613bb382613b4e565b604082019050919050565b5f6020820190508181035f830152613bd581613b9c565b9050919050565b5f613be682612627565b91507fffffffffffffffffffffffffffffffffffffffffffffffffffffffffffffffff8203613c1857613c176135ce565b5b600182019050919050565b5f606082019050613c365f830186612b7d565b613c436020830185612ba5565b613c506040830184612c60565b949350505050565b7f4f6e6c792061646d696e2063616e2063616c6c20746869732e000000000000005f82015250565b5f613c8c601983612bb4565b9150613c9782613c58565b602082019050919050565b5f6020820190508181035f830152613cb981613c80565b9050919050565b7f4e487b71000000000000000000000000000000000000000000000000000000005f52603260045260245ffd5b7f4e487b71000000000000000000000000000000000000000000000000000000005f52603160045260245ffd5b7f557365722061646472657373206e6f7420666f756e642e0000000000000000005f82015250565b5f613d4e601783612bb4565b9150613d5982613d1a565b602082019050919050565b5f6020820190508181035f830152613d7b81613d42565b905091905056fea2646970667358221220d5090df2705bbf8165c01fe36f1f07298f0d19914824d64ecf0047f166fee26e64736f6c63430008180033",
					"opcodes": "PUSH1 0x80 PUSH1 0x40 MSTORE PUSH1 0x1 PUSH1 0x3 SSTORE CALLVALUE DUP1 ISZERO PUSH2 0x14 JUMPI PUSH0 DUP1 REVERT JUMPDEST POP CALLER PUSH1 0x2 PUSH0 PUSH2 0x100 EXP DUP2 SLOAD DUP2 PUSH20 0xFFFFFFFFFFFFFFFFFFFFFFFFFFFFFFFFFFFFFFFF MUL NOT AND SWAP1 DUP4 PUSH20 0xFFFFFFFFFFFFFFFFFFFFFFFFFFFFFFFFFFFFFFFF AND MUL OR SWAP1 SSTORE POP PUSH2 0x3DB8 DUP1 PUSH2 0x62 PUSH0 CODECOPY PUSH0 RETURN INVALID PUSH1 0x80 PUSH1 0x40 MSTORE CALLVALUE DUP1 ISZERO PUSH2 0xF JUMPI PUSH0 DUP1 REVERT JUMPDEST POP PUSH1 0x4 CALLDATASIZE LT PUSH2 0x109 JUMPI PUSH0 CALLDATALOAD PUSH1 0xE0 SHR DUP1 PUSH4 0x9ACE38C2 GT PUSH2 0xA0 JUMPI DUP1 PUSH4 0xAF7CCFA7 GT PUSH2 0x6F JUMPI DUP1 PUSH4 0xAF7CCFA7 EQ PUSH2 0x2D2 JUMPI DUP1 PUSH4 0xB1FCE8C3 EQ PUSH2 0x2EE JUMPI DUP1 PUSH4 0xC0FA3F4B EQ PUSH2 0x30C JUMPI DUP1 PUSH4 0xC3BCF192 EQ PUSH2 0x32A JUMPI DUP1 PUSH4 0xF851A440 EQ PUSH2 0x348 JUMPI PUSH2 0x109 JUMP JUMPDEST DUP1 PUSH4 0x9ACE38C2 EQ PUSH2 0x229 JUMPI DUP1 PUSH4 0xA591EFDE EQ PUSH2 0x261 JUMPI DUP1 PUSH4 0xA87430BA EQ PUSH2 0x27F JUMPI DUP1 PUSH4 0xA9878C62 EQ PUSH2 0x2B4 JUMPI PUSH2 0x109 JUMP JUMPDEST DUP1 PUSH4 0x4439A702 GT PUSH2 0xDC JUMPI DUP1 PUSH4 0x4439A702 EQ PUSH2 0x191 JUMPI DUP1 PUSH4 0x5C60F226 EQ PUSH2 0x1AD JUMPI DUP1 PUSH4 0x6386C1C7 EQ PUSH2 0x1C9 JUMPI DUP1 PUSH4 0x63A8374D EQ PUSH2 0x1F9 JUMPI PUSH2 0x109 JUMP JUMPDEST DUP1 PUSH4 0xB0F9DC3 EQ PUSH2 0x10D JUMPI DUP1 PUSH4 0x163F7522 EQ PUSH2 0x129 JUMPI DUP1 PUSH4 0x210C9154 EQ PUSH2 0x159 JUMPI DUP1 PUSH4 0x2FC00BA1 EQ PUSH2 0x175 JUMPI JUMPDEST PUSH0 DUP1 REVERT JUMPDEST PUSH2 0x127 PUSH1 0x4 DUP1 CALLDATASIZE SUB DUP2 ADD SWAP1 PUSH2 0x122 SWAP2 SWAP1 PUSH2 0x268F JUMP JUMPDEST PUSH2 0x366 JUMP JUMPDEST STOP JUMPDEST PUSH2 0x143 PUSH1 0x4 DUP1 CALLDATASIZE SUB DUP2 ADD SWAP1 PUSH2 0x13E SWAP2 SWAP1 PUSH2 0x2727 JUMP JUMPDEST PUSH2 0xAD7 JUMP JUMPDEST PUSH1 0x40 MLOAD PUSH2 0x150 SWAP2 SWAP1 PUSH2 0x2761 JUMP JUMPDEST PUSH1 0x40 MLOAD DUP1 SWAP2 SUB SWAP1 RETURN JUMPDEST PUSH2 0x173 PUSH1 0x4 DUP1 CALLDATASIZE SUB DUP2 ADD SWAP1 PUSH2 0x16E SWAP2 SWAP1 PUSH2 0x28E9 JUMP JUMPDEST PUSH2 0xB2C JUMP JUMPDEST STOP JUMPDEST PUSH2 0x18F PUSH1 0x4 DUP1 CALLDATASIZE SUB DUP2 ADD SWAP1 PUSH2 0x18A SWAP2 SWAP1 PUSH2 0x28E9 JUMP JUMPDEST PUSH2 0xD07 JUMP JUMPDEST STOP JUMPDEST PUSH2 0x1AB PUSH1 0x4 DUP1 CALLDATASIZE SUB DUP2 ADD SWAP1 PUSH2 0x1A6 SWAP2 SWAP1 PUSH2 0x297C JUMP JUMPDEST PUSH2 0xE66 JUMP JUMPDEST STOP JUMPDEST PUSH2 0x1C7 PUSH1 0x4 DUP1 CALLDATASIZE SUB DUP2 ADD SWAP1 PUSH2 0x1C2 SWAP2 SWAP1 PUSH2 0x2727 JUMP JUMPDEST PUSH2 0x1455 JUMP JUMPDEST STOP JUMPDEST PUSH2 0x1E3 PUSH1 0x4 DUP1 CALLDATASIZE SUB DUP2 ADD SWAP1 PUSH2 0x1DE SWAP2 SWAP1 PUSH2 0x2727 JUMP JUMPDEST PUSH2 0x17EB JUMP JUMPDEST PUSH1 0x40 MLOAD PUSH2 0x1F0 SWAP2 SWAP1 PUSH2 0x2B32 JUMP JUMPDEST PUSH1 0x40 MLOAD DUP1 SWAP2 SUB SWAP1 RETURN JUMPDEST PUSH2 0x213 PUSH1 0x4 DUP1 CALLDATASIZE SUB DUP2 ADD SWAP1 PUSH2 0x20E SWAP2 SWAP1 PUSH2 0x2B52 JUMP JUMPDEST PUSH2 0x199F JUMP JUMPDEST PUSH1 0x40 MLOAD PUSH2 0x220 SWAP2 SWAP1 PUSH2 0x2B8C JUMP JUMPDEST PUSH1 0x40 MLOAD DUP1 SWAP2 SUB SWAP1 RETURN JUMPDEST PUSH2 0x243 PUSH1 0x4 DUP1 CALLDATASIZE SUB DUP2 ADD SWAP1 PUSH2 0x23E SWAP2 SWAP1 PUSH2 0x2B52 JUMP JUMPDEST PUSH2 0x19BF JUMP JUMPDEST PUSH1 0x40 MLOAD PUSH2 0x258 SWAP10 SWAP9 SWAP8 SWAP7 SWAP6 SWAP5 SWAP4 SWAP3 SWAP2 SWAP1 PUSH2 0x2C6F JUMP JUMPDEST PUSH1 0x40 MLOAD DUP1 SWAP2 SUB SWAP1 RETURN JUMPDEST PUSH2 0x269 PUSH2 0x1AE5 JUMP JUMPDEST PUSH1 0x40 MLOAD PUSH2 0x276 SWAP2 SWAP1 PUSH2 0x2DB8 JUMP JUMPDEST PUSH1 0x40 MLOAD DUP1 SWAP2 SUB SWAP1 RETURN JUMPDEST PUSH2 0x299 PUSH1 0x4 DUP1 CALLDATASIZE SUB DUP2 ADD SWAP1 PUSH2 0x294 SWAP2 SWAP1 PUSH2 0x2727 JUMP JUMPDEST PUSH2 0x1B6F JUMP JUMPDEST PUSH1 0x40 MLOAD PUSH2 0x2AB SWAP7 SWAP6 SWAP5 SWAP4 SWAP3 SWAP2 SWAP1 PUSH2 0x2DE7 JUMP JUMPDEST PUSH1 0x40 MLOAD DUP1 SWAP2 SUB SWAP1 RETURN JUMPDEST PUSH2 0x2BC PUSH2 0x1C39 JUMP JUMPDEST PUSH1 0x40 MLOAD PUSH2 0x2C9 SWAP2 SWAP1 PUSH2 0x2FD9 JUMP JUMPDEST PUSH1 0x40 MLOAD DUP1 SWAP2 SUB SWAP1 RETURN JUMPDEST PUSH2 0x2EC PUSH1 0x4 DUP1 CALLDATASIZE SUB DUP2 ADD SWAP1 PUSH2 0x2E7 SWAP2 SWAP1 PUSH2 0x2FF9 JUMP JUMPDEST PUSH2 0x1EC7 JUMP JUMPDEST STOP JUMPDEST PUSH2 0x2F6 PUSH2 0x1F9C JUMP JUMPDEST PUSH1 0x40 MLOAD PUSH2 0x303 SWAP2 SWAP1 PUSH2 0x2FD9 JUMP JUMPDEST PUSH1 0x40 MLOAD DUP1 SWAP2 SUB SWAP1 RETURN JUMPDEST PUSH2 0x314 PUSH2 0x222A JUMP JUMPDEST PUSH1 0x40 MLOAD PUSH2 0x321 SWAP2 SWAP1 PUSH2 0x2B8C JUMP JUMPDEST PUSH1 0x40 MLOAD DUP1 SWAP2 SUB SWAP1 RETURN JUMPDEST PUSH2 0x332 PUSH2 0x2236 JUMP JUMPDEST PUSH1 0x40 MLOAD PUSH2 0x33F SWAP2 SWAP1 PUSH2 0x3178 JUMP JUMPDEST PUSH1 0x40 MLOAD DUP1 SWAP2 SUB SWAP1 RETURN JUMPDEST PUSH2 0x350 PUSH2 0x2427 JUMP JUMPDEST PUSH1 0x40 MLOAD PUSH2 0x35D SWAP2 SWAP1 PUSH2 0x3198 JUMP JUMPDEST PUSH1 0x40 MLOAD DUP1 SWAP2 SUB SWAP1 RETURN JUMPDEST PUSH1 0x3 SLOAD DUP3 LT DUP1 ISZERO PUSH2 0x38A JUMPI POP PUSH0 PUSH1 0x4 PUSH0 DUP5 DUP2 MSTORE PUSH1 0x20 ADD SWAP1 DUP2 MSTORE PUSH1 0x20 ADD PUSH0 KECCAK256 PUSH0 ADD SLOAD EQ ISZERO JUMPDEST PUSH2 0x3C9 JUMPI PUSH1 0x40 MLOAD PUSH32 0x8C379A000000000000000000000000000000000000000000000000000000000 DUP2 MSTORE PUSH1 0x4 ADD PUSH2 0x3C0 SWAP1 PUSH2 0x31FB JUMP JUMPDEST PUSH1 0x40 MLOAD DUP1 SWAP2 SUB SWAP1 REVERT JUMPDEST PUSH1 0x4 PUSH0 DUP4 DUP2 MSTORE PUSH1 0x20 ADD SWAP1 DUP2 MSTORE PUSH1 0x20 ADD PUSH0 KECCAK256 PUSH1 0x6 ADD PUSH0 SWAP1 SLOAD SWAP1 PUSH2 0x100 EXP SWAP1 DIV PUSH1 0xFF AND ISZERO PUSH2 0x42A JUMPI PUSH1 0x40 MLOAD PUSH32 0x8C379A000000000000000000000000000000000000000000000000000000000 DUP2 MSTORE PUSH1 0x4 ADD PUSH2 0x421 SWAP1 PUSH2 0x3263 JUMP JUMPDEST PUSH1 0x40 MLOAD DUP1 SWAP2 SUB SWAP1 REVERT JUMPDEST PUSH1 0x4 PUSH0 DUP4 DUP2 MSTORE PUSH1 0x20 ADD SWAP1 DUP2 MSTORE PUSH1 0x20 ADD PUSH0 KECCAK256 PUSH1 0x5 ADD SLOAD TIMESTAMP GT ISZERO PUSH2 0x510 JUMPI PUSH1 0x1 PUSH1 0x4 PUSH0 DUP5 DUP2 MSTORE PUSH1 0x20 ADD SWAP1 DUP2 MSTORE PUSH1 0x20 ADD PUSH0 KECCAK256 PUSH1 0x6 ADD PUSH0 PUSH2 0x100 EXP DUP2 SLOAD DUP2 PUSH1 0xFF MUL NOT AND SWAP1 DUP4 ISZERO ISZERO MUL OR SWAP1 SSTORE POP PUSH1 0x40 MLOAD DUP1 PUSH1 0x40 ADD PUSH1 0x40 MSTORE DUP1 PUSH1 0x1A DUP2 MSTORE PUSH1 0x20 ADD PUSH32 0x52656A65637465642064756520746F2065787069726174696F6E000000000000 DUP2 MSTORE POP PUSH1 0x4 PUSH0 DUP5 DUP2 MSTORE PUSH1 0x20 ADD SWAP1 DUP2 MSTORE PUSH1 0x20 ADD PUSH0 KECCAK256 PUSH1 0x7 ADD SWAP1 DUP2 PUSH2 0x4C8 SWAP2 SWAP1 PUSH2 0x347B JUMP JUMPDEST POP PUSH32 0xB6CDB9654A453B960EC5FE6F18502A3F0DD823ED74DDC4F68A16B3210265EA5B DUP3 PUSH0 PUSH1 0x40 MLOAD PUSH2 0x4FA SWAP3 SWAP2 SWAP1 PUSH2 0x3594 JUMP JUMPDEST PUSH1 0x40 MLOAD DUP1 SWAP2 SUB SWAP1 LOG1 PUSH2 0x50B DUP3 PUSH2 0x244C JUMP JUMPDEST PUSH2 0xAD3 JUMP JUMPDEST PUSH1 0x1 PUSH1 0x4 PUSH0 DUP5 DUP2 MSTORE PUSH1 0x20 ADD SWAP1 DUP2 MSTORE PUSH1 0x20 ADD PUSH0 KECCAK256 PUSH1 0x6 ADD PUSH0 PUSH2 0x100 EXP DUP2 SLOAD DUP2 PUSH1 0xFF MUL NOT AND SWAP1 DUP4 ISZERO ISZERO MUL OR SWAP1 SSTORE POP DUP1 PUSH2 0x57C JUMPI PUSH1 0x40 MLOAD DUP1 PUSH1 0x40 ADD PUSH1 0x40 MSTORE DUP1 PUSH1 0x8 DUP2 MSTORE PUSH1 0x20 ADD PUSH32 0x52656A6563746564000000000000000000000000000000000000000000000000 DUP2 MSTORE POP PUSH2 0x5B3 JUMP JUMPDEST PUSH1 0x40 MLOAD DUP1 PUSH1 0x40 ADD PUSH1 0x40 MSTORE DUP1 PUSH1 0x8 DUP2 MSTORE PUSH1 0x20 ADD PUSH32 0x4163636570746564000000000000000000000000000000000000000000000000 DUP2 MSTORE POP JUMPDEST PUSH1 0x4 PUSH0 DUP5 DUP2 MSTORE PUSH1 0x20 ADD SWAP1 DUP2 MSTORE PUSH1 0x20 ADD PUSH0 KECCAK256 PUSH1 0x7 ADD SWAP1 DUP2 PUSH2 0x5D3 SWAP2 SWAP1 PUSH2 0x347B JUMP JUMPDEST POP PUSH2 0x5DD DUP3 PUSH2 0x244C JUMP JUMPDEST PUSH1 0x6 DUP3 SWAP1 DUP1 PUSH1 0x1 DUP2 SLOAD ADD DUP1 DUP3 SSTORE DUP1 SWAP2 POP POP PUSH1 0x1 SWAP1 SUB SWAP1 PUSH0 MSTORE PUSH1 0x20 PUSH0 KECCAK256 ADD PUSH0 SWAP1 SWAP2 SWAP1 SWAP2 SWAP1 SWAP2 POP SSTORE DUP1 ISZERO PUSH2 0xA84 JUMPI PUSH0 PUSH1 0x4 PUSH0 DUP5 DUP2 MSTORE PUSH1 0x20 ADD SWAP1 DUP2 MSTORE PUSH1 0x20 ADD PUSH0 KECCAK256 SWAP1 POP PUSH0 PUSH1 0x1 DUP2 GT ISZERO PUSH2 0x630 JUMPI PUSH2 0x62F PUSH2 0x2BFC JUMP JUMPDEST JUMPDEST DUP2 PUSH1 0x8 ADD PUSH0 SWAP1 SLOAD SWAP1 PUSH2 0x100 EXP SWAP1 DIV PUSH1 0xFF AND PUSH1 0x1 DUP2 GT ISZERO PUSH2 0x653 JUMPI PUSH2 0x652 PUSH2 0x2BFC JUMP JUMPDEST JUMPDEST SUB PUSH2 0x851 JUMPI DUP1 PUSH1 0x4 ADD SLOAD PUSH1 0x1 PUSH0 DUP4 PUSH1 0x1 ADD PUSH0 SWAP1 SLOAD SWAP1 PUSH2 0x100 EXP SWAP1 DIV PUSH20 0xFFFFFFFFFFFFFFFFFFFFFFFFFFFFFFFFFFFFFFFF AND PUSH20 0xFFFFFFFFFFFFFFFFFFFFFFFFFFFFFFFFFFFFFFFF AND PUSH20 0xFFFFFFFFFFFFFFFFFFFFFFFFFFFFFFFFFFFFFFFF AND DUP2 MSTORE PUSH1 0x20 ADD SWAP1 DUP2 MSTORE PUSH1 0x20 ADD PUSH0 KECCAK256 PUSH1 0x4 ADD PUSH0 DUP3 DUP3 SLOAD PUSH2 0x6CE SWAP2 SWAP1 PUSH2 0x35FB JUMP JUMPDEST SWAP3 POP POP DUP2 SWAP1 SSTORE POP DUP1 PUSH1 0x4 ADD SLOAD PUSH1 0x1 PUSH0 DUP4 PUSH1 0x2 ADD PUSH0 SWAP1 SLOAD SWAP1 PUSH2 0x100 EXP SWAP1 DIV PUSH20 0xFFFFFFFFFFFFFFFFFFFFFFFFFFFFFFFFFFFFFFFF AND PUSH20 0xFFFFFFFFFFFFFFFFFFFFFFFFFFFFFFFFFFFFFFFF AND PUSH20 0xFFFFFFFFFFFFFFFFFFFFFFFFFFFFFFFFFFFFFFFF AND DUP2 MSTORE PUSH1 0x20 ADD SWAP1 DUP2 MSTORE PUSH1 0x20 ADD PUSH0 KECCAK256 PUSH1 0x4 ADD PUSH0 DUP3 DUP3 SLOAD PUSH2 0x74B SWAP2 SWAP1 PUSH2 0x362E JUMP JUMPDEST SWAP3 POP POP DUP2 SWAP1 SSTORE POP DUP1 PUSH1 0x3 ADD SLOAD PUSH1 0x1 PUSH0 DUP4 PUSH1 0x1 ADD PUSH0 SWAP1 SLOAD SWAP1 PUSH2 0x100 EXP SWAP1 DIV PUSH20 0xFFFFFFFFFFFFFFFFFFFFFFFFFFFFFFFFFFFFFFFF AND PUSH20 0xFFFFFFFFFFFFFFFFFFFFFFFFFFFFFFFFFFFFFFFF AND PUSH20 0xFFFFFFFFFFFFFFFFFFFFFFFFFFFFFFFFFFFFFFFF AND DUP2 MSTORE PUSH1 0x20 ADD SWAP1 DUP2 MSTORE PUSH1 0x20 ADD PUSH0 KECCAK256 PUSH1 0x3 ADD PUSH0 DUP3 DUP3 SLOAD PUSH2 0x7C8 SWAP2 SWAP1 PUSH2 0x362E JUMP JUMPDEST SWAP3 POP POP DUP2 SWAP1 SSTORE POP DUP1 PUSH1 0x3 ADD SLOAD PUSH1 0x1 PUSH0 DUP4 PUSH1 0x2 ADD PUSH0 SWAP1 SLOAD SWAP1 PUSH2 0x100 EXP SWAP1 DIV PUSH20 0xFFFFFFFFFFFFFFFFFFFFFFFFFFFFFFFFFFFFFFFF AND PUSH20 0xFFFFFFFFFFFFFFFFFFFFFFFFFFFFFFFFFFFFFFFF AND PUSH20 0xFFFFFFFFFFFFFFFFFFFFFFFFFFFFFFFFFFFFFFFF AND DUP2 MSTORE PUSH1 0x20 ADD SWAP1 DUP2 MSTORE PUSH1 0x20 ADD PUSH0 KECCAK256 PUSH1 0x3 ADD PUSH0 DUP3 DUP3 SLOAD PUSH2 0x845 SWAP2 SWAP1 PUSH2 0x35FB JUMP JUMPDEST SWAP3 POP POP DUP2 SWAP1 SSTORE POP PUSH2 0xA82 JUMP JUMPDEST PUSH1 0x1 DUP1 DUP2 GT ISZERO PUSH2 0x864 JUMPI PUSH2 0x863 PUSH2 0x2BFC JUMP JUMPDEST JUMPDEST DUP2 PUSH1 0x8 ADD PUSH0 SWAP1 SLOAD SWAP1 PUSH2 0x100 EXP SWAP1 DIV PUSH1 0xFF AND PUSH1 0x1 DUP2 GT ISZERO PUSH2 0x887 JUMPI PUSH2 0x886 PUSH2 0x2BFC JUMP JUMPDEST JUMPDEST SUB PUSH2 0xA81 JUMPI DUP1 PUSH1 0x4 ADD SLOAD PUSH1 0x1 PUSH0 DUP4 PUSH1 0x1 ADD PUSH0 SWAP1 SLOAD SWAP1 PUSH2 0x100 EXP SWAP1 DIV PUSH20 0xFFFFFFFFFFFFFFFFFFFFFFFFFFFFFFFFFFFFFFFF AND PUSH20 0xFFFFFFFFFFFFFFFFFFFFFFFFFFFFFFFFFFFFFFFF AND PUSH20 0xFFFFFFFFFFFFFFFFFFFFFFFFFFFFFFFFFFFFFFFF AND DUP2 MSTORE PUSH1 0x20 ADD SWAP1 DUP2 MSTORE PUSH1 0x20 ADD PUSH0 KECCAK256 PUSH1 0x4 ADD PUSH0 DUP3 DUP3 SLOAD PUSH2 0x902 SWAP2 SWAP1 PUSH2 0x362E JUMP JUMPDEST SWAP3 POP POP DUP2 SWAP1 SSTORE POP DUP1 PUSH1 0x4 ADD SLOAD PUSH1 0x1 PUSH0 DUP4 PUSH1 0x2 ADD PUSH0 SWAP1 SLOAD SWAP1 PUSH2 0x100 EXP SWAP1 DIV PUSH20 0xFFFFFFFFFFFFFFFFFFFFFFFFFFFFFFFFFFFFFFFF AND PUSH20 0xFFFFFFFFFFFFFFFFFFFFFFFFFFFFFFFFFFFFFFFF AND PUSH20 0xFFFFFFFFFFFFFFFFFFFFFFFFFFFFFFFFFFFFFFFF AND DUP2 MSTORE PUSH1 0x20 ADD SWAP1 DUP2 MSTORE PUSH1 0x20 ADD PUSH0 KECCAK256 PUSH1 0x4 ADD PUSH0 DUP3 DUP3 SLOAD PUSH2 0x97F SWAP2 SWAP1 PUSH2 0x35FB JUMP JUMPDEST SWAP3 POP POP DUP2 SWAP1 SSTORE POP DUP1 PUSH1 0x3 ADD SLOAD PUSH1 0x1 PUSH0 DUP4 PUSH1 0x1 ADD PUSH0 SWAP1 SLOAD SWAP1 PUSH2 0x100 EXP SWAP1 DIV PUSH20 0xFFFFFFFFFFFFFFFFFFFFFFFFFFFFFFFFFFFFFFFF AND PUSH20 0xFFFFFFFFFFFFFFFFFFFFFFFFFFFFFFFFFFFFFFFF AND PUSH20 0xFFFFFFFFFFFFFFFFFFFFFFFFFFFFFFFFFFFFFFFF AND DUP2 MSTORE PUSH1 0x20 ADD SWAP1 DUP2 MSTORE PUSH1 0x20 ADD PUSH0 KECCAK256 PUSH1 0x3 ADD PUSH0 DUP3 DUP3 SLOAD PUSH2 0x9FC SWAP2 SWAP1 PUSH2 0x35FB JUMP JUMPDEST SWAP3 POP POP DUP2 SWAP1 SSTORE POP DUP1 PUSH1 0x3 ADD SLOAD PUSH1 0x1 PUSH0 DUP4 PUSH1 0x2 ADD PUSH0 SWAP1 SLOAD SWAP1 PUSH2 0x100 EXP SWAP1 DIV PUSH20 0xFFFFFFFFFFFFFFFFFFFFFFFFFFFFFFFFFFFFFFFF AND PUSH20 0xFFFFFFFFFFFFFFFFFFFFFFFFFFFFFFFFFFFFFFFF AND PUSH20 0xFFFFFFFFFFFFFFFFFFFFFFFFFFFFFFFFFFFFFFFF AND DUP2 MSTORE PUSH1 0x20 ADD SWAP1 DUP2 MSTORE PUSH1 0x20 ADD PUSH0 KECCAK256 PUSH1 0x3 ADD PUSH0 DUP3 DUP3 SLOAD PUSH2 0xA79 SWAP2 SWAP1 PUSH2 0x362E JUMP JUMPDEST SWAP3 POP POP DUP2 SWAP1 SSTORE POP JUMPDEST JUMPDEST POP JUMPDEST PUSH32 0xB6CDB9654A453B960EC5FE6F18502A3F0DD823ED74DDC4F68A16B3210265EA5B DUP3 DUP3 PUSH1 0x4 PUSH0 DUP7 DUP2 MSTORE PUSH1 0x20 ADD SWAP1 DUP2 MSTORE PUSH1 0x20 ADD PUSH0 KECCAK256 PUSH1 0x7 ADD PUSH1 0x40 MLOAD PUSH2 0xACA SWAP4 SWAP3 SWAP2 SWAP1 PUSH2 0x36E2 JUMP JUMPDEST PUSH1 0x40 MLOAD DUP1 SWAP2 SUB SWAP1 LOG1 JUMPDEST POP POP JUMP JUMPDEST PUSH0 PUSH1 0x1 PUSH0 DUP4 PUSH20 0xFFFFFFFFFFFFFFFFFFFFFFFFFFFFFFFFFFFFFFFF AND PUSH20 0xFFFFFFFFFFFFFFFFFFFFFFFFFFFFFFFFFFFFFFFF AND DUP2 MSTORE PUSH1 0x20 ADD SWAP1 DUP2 MSTORE PUSH1 0x20 ADD PUSH0 KECCAK256 PUSH1 0x5 ADD PUSH0 SWAP1 SLOAD SWAP1 PUSH2 0x100 EXP SWAP1 DIV PUSH1 0xFF AND SWAP1 POP SWAP2 SWAP1 POP JUMP JUMPDEST PUSH1 0x1 PUSH0 CALLER PUSH20 0xFFFFFFFFFFFFFFFFFFFFFFFFFFFFFFFFFFFFFFFF AND PUSH20 0xFFFFFFFFFFFFFFFFFFFFFFFFFFFFFFFFFFFFFFFF AND DUP2 MSTORE PUSH1 0x20 ADD SWAP1 DUP2 MSTORE PUSH1 0x20 ADD PUSH0 KECCAK256 PUSH1 0x5 ADD PUSH0 SWAP1 SLOAD SWAP1 PUSH2 0x100 EXP SWAP1 DIV PUSH1 0xFF AND ISZERO PUSH2 0xBB9 JUMPI PUSH1 0x40 MLOAD PUSH32 0x8C379A000000000000000000000000000000000000000000000000000000000 DUP2 MSTORE PUSH1 0x4 ADD PUSH2 0xBB0 SWAP1 PUSH2 0x3768 JUMP JUMPDEST PUSH1 0x40 MLOAD DUP1 SWAP2 SUB SWAP1 REVERT JUMPDEST PUSH0 PUSH1 0x1 PUSH0 CALLER PUSH20 0xFFFFFFFFFFFFFFFFFFFFFFFFFFFFFFFFFFFFFFFF AND PUSH20 0xFFFFFFFFFFFFFFFFFFFFFFFFFFFFFFFFFFFFFFFF AND DUP2 MSTORE PUSH1 0x20 ADD SWAP1 DUP2 MSTORE PUSH1 0x20 ADD PUSH0 KECCAK256 SWAP1 POP DUP6 DUP2 PUSH0 ADD SWAP1 DUP2 PUSH2 0xC09 SWAP2 SWAP1 PUSH2 0x347B JUMP JUMPDEST POP DUP5 DUP2 PUSH1 0x1 ADD DUP2 SWAP1 SSTORE POP DUP4 DUP2 PUSH1 0x2 ADD DUP2 SWAP1 SSTORE POP DUP3 DUP2 PUSH1 0x3 ADD DUP2 SWAP1 SSTORE POP DUP2 DUP2 PUSH1 0x4 ADD DUP2 SWAP1 SSTORE POP PUSH1 0x1 DUP2 PUSH1 0x5 ADD PUSH0 PUSH2 0x100 EXP DUP2 SLOAD DUP2 PUSH1 0xFF MUL NOT AND SWAP1 DUP4 ISZERO ISZERO MUL OR SWAP1 SSTORE POP PUSH0 CALLER SWAP1 DUP1 PUSH1 0x1 DUP2 SLOAD ADD DUP1 DUP3 SSTORE DUP1 SWAP2 POP POP PUSH1 0x1 SWAP1 SUB SWAP1 PUSH0 MSTORE PUSH1 0x20 PUSH0 KECCAK256 ADD PUSH0 SWAP1 SWAP2 SWAP1 SWAP2 SWAP1 SWAP2 PUSH2 0x100 EXP DUP2 SLOAD DUP2 PUSH20 0xFFFFFFFFFFFFFFFFFFFFFFFFFFFFFFFFFFFFFFFF MUL NOT AND SWAP1 DUP4 PUSH20 0xFFFFFFFFFFFFFFFFFFFFFFFFFFFFFFFFFFFFFFFF AND MUL OR SWAP1 SSTORE POP CALLER PUSH20 0xFFFFFFFFFFFFFFFFFFFFFFFFFFFFFFFFFFFFFFFF AND PUSH32 0xA96C6E1D7341A1C22B8E45BF7B44369C06E82E7C6BE9B784C233B125EC57D965 DUP8 DUP8 DUP8 DUP8 DUP8 PUSH1 0x40 MLOAD PUSH2 0xCF7 SWAP6 SWAP5 SWAP4 SWAP3 SWAP2 SWAP1 PUSH2 0x3786 JUMP JUMPDEST PUSH1 0x40 MLOAD DUP1 SWAP2 SUB SWAP1 LOG2 POP POP POP POP POP POP JUMP JUMPDEST PUSH1 0x1 PUSH0 CALLER PUSH20 0xFFFFFFFFFFFFFFFFFFFFFFFFFFFFFFFFFFFFFFFF AND PUSH20 0xFFFFFFFFFFFFFFFFFFFFFFFFFFFFFFFFFFFFFFFF AND DUP2 MSTORE PUSH1 0x20 ADD SWAP1 DUP2 MSTORE PUSH1 0x20 ADD PUSH0 KECCAK256 PUSH1 0x5 ADD PUSH0 SWAP1 SLOAD SWAP1 PUSH2 0x100 EXP SWAP1 DIV PUSH1 0xFF AND PUSH2 0xD93 JUMPI PUSH1 0x40 MLOAD PUSH32 0x8C379A000000000000000000000000000000000000000000000000000000000 DUP2 MSTORE PUSH1 0x4 ADD PUSH2 0xD8A SWAP1 PUSH2 0x3828 JUMP JUMPDEST PUSH1 0x40 MLOAD DUP1 SWAP2 SUB SWAP1 REVERT JUMPDEST PUSH0 PUSH1 0x1 PUSH0 CALLER PUSH20 0xFFFFFFFFFFFFFFFFFFFFFFFFFFFFFFFFFFFFFFFF AND PUSH20 0xFFFFFFFFFFFFFFFFFFFFFFFFFFFFFFFFFFFFFFFF AND DUP2 MSTORE PUSH1 0x20 ADD SWAP1 DUP2 MSTORE PUSH1 0x20 ADD PUSH0 KECCAK256 SWAP1 POP DUP6 DUP2 PUSH0 ADD SWAP1 DUP2 PUSH2 0xDE3 SWAP2 SWAP1 PUSH2 0x347B JUMP JUMPDEST POP DUP5 DUP2 PUSH1 0x1 ADD DUP2 SWAP1 SSTORE POP DUP4 DUP2 PUSH1 0x2 ADD DUP2 SWAP1 SSTORE POP DUP3 DUP2 PUSH1 0x3 ADD DUP2 SWAP1 SSTORE POP DUP2 DUP2 PUSH1 0x4 ADD DUP2 SWAP1 SSTORE POP CALLER PUSH20 0xFFFFFFFFFFFFFFFFFFFFFFFFFFFFFFFFFFFFFFFF AND PUSH32 0x18F5DFADC27470BF794C1463063C79A0BDD01CA6E7E3D25BD9C764DC07056EF7 DUP8 DUP8 DUP8 DUP8 DUP8 PUSH1 0x40 MLOAD PUSH2 0xE56 SWAP6 SWAP5 SWAP4 SWAP3 SWAP2 SWAP1 PUSH2 0x3786 JUMP JUMPDEST PUSH1 0x40 MLOAD DUP1 SWAP2 SUB SWAP1 LOG2 POP POP POP POP POP POP JUMP JUMPDEST PUSH1 0x1 PUSH0 DUP8 PUSH20 0xFFFFFFFFFFFFFFFFFFFFFFFFFFFFFFFFFFFFFFFF AND PUSH20 0xFFFFFFFFFFFFFFFFFFFFFFFFFFFFFFFFFFFFFFFF AND DUP2 MSTORE PUSH1 0x20 ADD SWAP1 DUP2 MSTORE PUSH1 0x20 ADD PUSH0 KECCAK256 PUSH1 0x5 ADD PUSH0 SWAP1 SLOAD SWAP1 PUSH2 0x100 EXP SWAP1 DIV PUSH1 0xFF AND PUSH2 0xEF2 JUMPI PUSH1 0x40 MLOAD PUSH32 0x8C379A000000000000000000000000000000000000000000000000000000000 DUP2 MSTORE PUSH1 0x4 ADD PUSH2 0xEE9 SWAP1 PUSH2 0x3890 JUMP JUMPDEST PUSH1 0x40 MLOAD DUP1 SWAP2 SUB SWAP1 REVERT JUMPDEST PUSH1 0x1 PUSH0 DUP7 PUSH20 0xFFFFFFFFFFFFFFFFFFFFFFFFFFFFFFFFFFFFFFFF AND PUSH20 0xFFFFFFFFFFFFFFFFFFFFFFFFFFFFFFFFFFFFFFFF AND DUP2 MSTORE PUSH1 0x20 ADD SWAP1 DUP2 MSTORE PUSH1 0x20 ADD PUSH0 KECCAK256 PUSH1 0x5 ADD PUSH0 SWAP1 SLOAD SWAP1 PUSH2 0x100 EXP SWAP1 DIV PUSH1 0xFF AND PUSH2 0xF7E JUMPI PUSH1 0x40 MLOAD PUSH32 0x8C379A000000000000000000000000000000000000000000000000000000000 DUP2 MSTORE PUSH1 0x4 ADD PUSH2 0xF75 SWAP1 PUSH2 0x38F8 JUMP JUMPDEST PUSH1 0x40 MLOAD DUP1 SWAP2 SUB SWAP1 REVERT JUMPDEST TIMESTAMP DUP3 GT PUSH2 0xFC0 JUMPI PUSH1 0x40 MLOAD PUSH32 0x8C379A000000000000000000000000000000000000000000000000000000000 DUP2 MSTORE PUSH1 0x4 ADD PUSH2 0xFB7 SWAP1 PUSH2 0x3986 JUMP JUMPDEST PUSH1 0x40 MLOAD DUP1 SWAP2 SUB SWAP1 REVERT JUMPDEST DUP1 ISZERO PUSH2 0x10D1 JUMPI DUP3 PUSH1 0x1 PUSH0 DUP9 PUSH20 0xFFFFFFFFFFFFFFFFFFFFFFFFFFFFFFFFFFFFFFFF AND PUSH20 0xFFFFFFFFFFFFFFFFFFFFFFFFFFFFFFFFFFFFFFFF AND DUP2 MSTORE PUSH1 0x20 ADD SWAP1 DUP2 MSTORE PUSH1 0x20 ADD PUSH0 KECCAK256 PUSH1 0x4 ADD SLOAD LT ISZERO PUSH2 0x1049 JUMPI PUSH1 0x40 MLOAD PUSH32 0x8C379A000000000000000000000000000000000000000000000000000000000 DUP2 MSTORE PUSH1 0x4 ADD PUSH2 0x1040 SWAP1 PUSH2 0x3A14 JUMP JUMPDEST PUSH1 0x40 MLOAD DUP1 SWAP2 SUB SWAP1 REVERT JUMPDEST DUP4 PUSH1 0x1 PUSH0 DUP8 PUSH20 0xFFFFFFFFFFFFFFFFFFFFFFFFFFFFFFFFFFFFFFFF AND PUSH20 0xFFFFFFFFFFFFFFFFFFFFFFFFFFFFFFFFFFFFFFFF AND DUP2 MSTORE PUSH1 0x20 ADD SWAP1 DUP2 MSTORE PUSH1 0x20 ADD PUSH0 KECCAK256 PUSH1 0x3 ADD SLOAD LT ISZERO PUSH2 0x10CC JUMPI PUSH1 0x40 MLOAD PUSH32 0x8C379A000000000000000000000000000000000000000000000000000000000 DUP2 MSTORE PUSH1 0x4 ADD PUSH2 0x10C3 SWAP1 PUSH2 0x3AA2 JUMP JUMPDEST PUSH1 0x40 MLOAD DUP1 SWAP2 SUB SWAP1 REVERT JUMPDEST PUSH2 0x11D8 JUMP JUMPDEST DUP4 PUSH1 0x1 PUSH0 DUP9 PUSH20 0xFFFFFFFFFFFFFFFFFFFFFFFFFFFFFFFFFFFFFFFF AND PUSH20 0xFFFFFFFFFFFFFFFFFFFFFFFFFFFFFFFFFFFFFFFF AND DUP2 MSTORE PUSH1 0x20 ADD SWAP1 DUP2 MSTORE PUSH1 0x20 ADD PUSH0 KECCAK256 PUSH1 0x3 ADD SLOAD LT ISZERO PUSH2 0x1154 JUMPI PUSH1 0x40 MLOAD PUSH32 0x8C379A000000000000000000000000000000000000000000000000000000000 DUP2 MSTORE PUSH1 0x4 ADD PUSH2 0x114B SWAP1 PUSH2 0x3B30 JUMP JUMPDEST PUSH1 0x40 MLOAD DUP1 SWAP2 SUB SWAP1 REVERT JUMPDEST DUP3 PUSH1 0x1 PUSH0 DUP8 PUSH20 0xFFFFFFFFFFFFFFFFFFFFFFFFFFFFFFFFFFFFFFFF AND PUSH20 0xFFFFFFFFFFFFFFFFFFFFFFFFFFFFFFFFFFFFFFFF AND DUP2 MSTORE PUSH1 0x20 ADD SWAP1 DUP2 MSTORE PUSH1 0x20 ADD PUSH0 KECCAK256 PUSH1 0x4 ADD SLOAD LT ISZERO PUSH2 0x11D7 JUMPI PUSH1 0x40 MLOAD PUSH32 0x8C379A000000000000000000000000000000000000000000000000000000000 DUP2 MSTORE PUSH1 0x4 ADD PUSH2 0x11CE SWAP1 PUSH2 0x3BBE JUMP JUMPDEST PUSH1 0x40 MLOAD DUP1 SWAP2 SUB SWAP1 REVERT JUMPDEST JUMPDEST PUSH0 PUSH1 0x3 PUSH0 DUP2 SLOAD DUP1 SWAP3 SWAP2 SWAP1 PUSH2 0x11EB SWAP1 PUSH2 0x3BDC JUMP JUMPDEST SWAP2 SWAP1 POP SSTORE SWAP1 POP PUSH1 0x40 MLOAD DUP1 PUSH2 0x120 ADD PUSH1 0x40 MSTORE DUP1 DUP3 DUP2 MSTORE PUSH1 0x20 ADD DUP9 PUSH20 0xFFFFFFFFFFFFFFFFFFFFFFFFFFFFFFFFFFFFFFFF AND DUP2 MSTORE PUSH1 0x20 ADD DUP8 PUSH20 0xFFFFFFFFFFFFFFFFFFFFFFFFFFFFFFFFFFFFFFFF AND DUP2 MSTORE PUSH1 0x20 ADD DUP7 DUP2 MSTORE PUSH1 0x20 ADD DUP6 DUP2 MSTORE PUSH1 0x20 ADD DUP5 DUP2 MSTORE PUSH1 0x20 ADD PUSH0 ISZERO ISZERO DUP2 MSTORE PUSH1 0x20 ADD PUSH1 0x40 MLOAD DUP1 PUSH1 0x40 ADD PUSH1 0x40 MSTORE DUP1 PUSH1 0x7 DUP2 MSTORE PUSH1 0x20 ADD PUSH32 0x50656E64696E6700000000000000000000000000000000000000000000000000 DUP2 MSTORE POP DUP2 MSTORE PUSH1 0x20 ADD DUP4 PUSH2 0x129C JUMPI PUSH1 0x1 PUSH2 0x129E JUMP JUMPDEST PUSH0 JUMPDEST PUSH1 0x1 DUP2 GT ISZERO PUSH2 0x12B0 JUMPI PUSH2 0x12AF PUSH2 0x2BFC JUMP JUMPDEST JUMPDEST DUP2 MSTORE POP PUSH1 0x4 PUSH0 DUP4 DUP2 MSTORE PUSH1 0x20 ADD SWAP1 DUP2 MSTORE PUSH1 0x20 ADD PUSH0 KECCAK256 PUSH0 DUP3 ADD MLOAD DUP2 PUSH0 ADD SSTORE PUSH1 0x20 DUP3 ADD MLOAD DUP2 PUSH1 0x1 ADD PUSH0 PUSH2 0x100 EXP DUP2 SLOAD DUP2 PUSH20 0xFFFFFFFFFFFFFFFFFFFFFFFFFFFFFFFFFFFFFFFF MUL NOT AND SWAP1 DUP4 PUSH20 0xFFFFFFFFFFFFFFFFFFFFFFFFFFFFFFFFFFFFFFFF AND MUL OR SWAP1 SSTORE POP PUSH1 0x40 DUP3 ADD MLOAD DUP2 PUSH1 0x2 ADD PUSH0 PUSH2 0x100 EXP DUP2 SLOAD DUP2 PUSH20 0xFFFFFFFFFFFFFFFFFFFFFFFFFFFFFFFFFFFFFFFF MUL NOT AND SWAP1 DUP4 PUSH20 0xFFFFFFFFFFFFFFFFFFFFFFFFFFFFFFFFFFFFFFFF AND MUL OR SWAP1 SSTORE POP PUSH1 0x60 DUP3 ADD MLOAD DUP2 PUSH1 0x3 ADD SSTORE PUSH1 0x80 DUP3 ADD MLOAD DUP2 PUSH1 0x4 ADD SSTORE PUSH1 0xA0 DUP3 ADD MLOAD DUP2 PUSH1 0x5 ADD SSTORE PUSH1 0xC0 DUP3 ADD MLOAD DUP2 PUSH1 0x6 ADD PUSH0 PUSH2 0x100 EXP DUP2 SLOAD DUP2 PUSH1 0xFF MUL NOT AND SWAP1 DUP4 ISZERO ISZERO MUL OR SWAP1 SSTORE POP PUSH1 0xE0 DUP3 ADD MLOAD DUP2 PUSH1 0x7 ADD SWAP1 DUP2 PUSH2 0x13AA SWAP2 SWAP1 PUSH2 0x347B JUMP JUMPDEST POP PUSH2 0x100 DUP3 ADD MLOAD DUP2 PUSH1 0x8 ADD PUSH0 PUSH2 0x100 EXP DUP2 SLOAD DUP2 PUSH1 0xFF MUL NOT AND SWAP1 DUP4 PUSH1 0x1 DUP2 GT ISZERO PUSH2 0x13D6 JUMPI PUSH2 0x13D5 PUSH2 0x2BFC JUMP JUMPDEST JUMPDEST MUL OR SWAP1 SSTORE POP SWAP1 POP POP PUSH1 0x5 DUP2 SWAP1 DUP1 PUSH1 0x1 DUP2 SLOAD ADD DUP1 DUP3 SSTORE DUP1 SWAP2 POP POP PUSH1 0x1 SWAP1 SUB SWAP1 PUSH0 MSTORE PUSH1 0x20 PUSH0 KECCAK256 ADD PUSH0 SWAP1 SWAP2 SWAP1 SWAP2 SWAP1 SWAP2 POP SSTORE PUSH32 0x6F2FAC3F769ED900EB9891A73CAA7B5267CE788A20299805CE4B85934CB200F5 DUP2 DUP8 DUP5 PUSH2 0x1433 JUMPI PUSH1 0x1 PUSH2 0x1435 JUMP JUMPDEST PUSH0 JUMPDEST PUSH1 0x40 MLOAD PUSH2 0x1444 SWAP4 SWAP3 SWAP2 SWAP1 PUSH2 0x3C23 JUMP JUMPDEST PUSH1 0x40 MLOAD DUP1 SWAP2 SUB SWAP1 LOG1 POP POP POP POP POP POP POP JUMP JUMPDEST PUSH1 0x2 PUSH0 SWAP1 SLOAD SWAP1 PUSH2 0x100 EXP SWAP1 DIV PUSH20 0xFFFFFFFFFFFFFFFFFFFFFFFFFFFFFFFFFFFFFFFF AND PUSH20 0xFFFFFFFFFFFFFFFFFFFFFFFFFFFFFFFFFFFFFFFF AND CALLER PUSH20 0xFFFFFFFFFFFFFFFFFFFFFFFFFFFFFFFFFFFFFFFF AND EQ PUSH2 0x14E4 JUMPI PUSH1 0x40 MLOAD PUSH32 0x8C379A000000000000000000000000000000000000000000000000000000000 DUP2 MSTORE PUSH1 0x4 ADD PUSH2 0x14DB SWAP1 PUSH2 0x3CA2 JUMP JUMPDEST PUSH1 0x40 MLOAD DUP1 SWAP2 SUB SWAP1 REVERT JUMPDEST PUSH1 0x1 PUSH0 DUP3 PUSH20 0xFFFFFFFFFFFFFFFFFFFFFFFFFFFFFFFFFFFFFFFF AND PUSH20 0xFFFFFFFFFFFFFFFFFFFFFFFFFFFFFFFFFFFFFFFF AND DUP2 MSTORE PUSH1 0x20 ADD SWAP1 DUP2 MSTORE PUSH1 0x20 ADD PUSH0 KECCAK256 PUSH1 0x5 ADD PUSH0 SWAP1 SLOAD SWAP1 PUSH2 0x100 EXP SWAP1 DIV PUSH1 0xFF AND PUSH2 0x1570 JUMPI PUSH1 0x40 MLOAD PUSH32 0x8C379A000000000000000000000000000000000000000000000000000000000 DUP2 MSTORE PUSH1 0x4 ADD PUSH2 0x1567 SWAP1 PUSH2 0x3828 JUMP JUMPDEST PUSH1 0x40 MLOAD DUP1 SWAP2 SUB SWAP1 REVERT JUMPDEST PUSH0 DUP1 JUMPDEST PUSH0 DUP1 SLOAD SWAP1 POP DUP2 LT ISZERO PUSH2 0x16E6 JUMPI DUP3 PUSH20 0xFFFFFFFFFFFFFFFFFFFFFFFFFFFFFFFFFFFFFFFF AND PUSH0 DUP3 DUP2 SLOAD DUP2 LT PUSH2 0x15A9 JUMPI PUSH2 0x15A8 PUSH2 0x3CC0 JUMP JUMPDEST JUMPDEST SWAP1 PUSH0 MSTORE PUSH1 0x20 PUSH0 KECCAK256 ADD PUSH0 SWAP1 SLOAD SWAP1 PUSH2 0x100 EXP SWAP1 DIV PUSH20 0xFFFFFFFFFFFFFFFFFFFFFFFFFFFFFFFFFFFFFFFF AND PUSH20 0xFFFFFFFFFFFFFFFFFFFFFFFFFFFFFFFFFFFFFFFF AND SUB PUSH2 0x16DB JUMPI PUSH0 PUSH1 0x1 PUSH0 DUP1 SLOAD SWAP1 POP PUSH2 0x15FE SWAP2 SWAP1 PUSH2 0x35FB JUMP JUMPDEST DUP2 SLOAD DUP2 LT PUSH2 0x160F JUMPI PUSH2 0x160E PUSH2 0x3CC0 JUMP JUMPDEST JUMPDEST SWAP1 PUSH0 MSTORE PUSH1 0x20 PUSH0 KECCAK256 ADD PUSH0 SWAP1 SLOAD SWAP1 PUSH2 0x100 EXP SWAP1 DIV PUSH20 0xFFFFFFFFFFFFFFFFFFFFFFFFFFFFFFFFFFFFFFFF AND PUSH0 DUP3 DUP2 SLOAD DUP2 LT PUSH2 0x164A JUMPI PUSH2 0x1649 PUSH2 0x3CC0 JUMP JUMPDEST JUMPDEST SWAP1 PUSH0 MSTORE PUSH1 0x20 PUSH0 KECCAK256 ADD PUSH0 PUSH2 0x100 EXP DUP2 SLOAD DUP2 PUSH20 0xFFFFFFFFFFFFFFFFFFFFFFFFFFFFFFFFFFFFFFFF MUL NOT AND SWAP1 DUP4 PUSH20 0xFFFFFFFFFFFFFFFFFFFFFFFFFFFFFFFFFFFFFFFF AND MUL OR SWAP1 SSTORE POP PUSH0 DUP1 SLOAD DUP1 PUSH2 0x16A0 JUMPI PUSH2 0x169F PUSH2 0x3CED JUMP JUMPDEST JUMPDEST PUSH1 0x1 SWAP1 SUB DUP2 DUP2 SWAP1 PUSH0 MSTORE PUSH1 0x20 PUSH0 KECCAK256 ADD PUSH0 PUSH2 0x100 EXP DUP2 SLOAD SWAP1 PUSH20 0xFFFFFFFFFFFFFFFFFFFFFFFFFFFFFFFFFFFFFFFF MUL NOT AND SWAP1 SSTORE SWAP1 SSTORE PUSH1 0x1 SWAP2 POP PUSH2 0x16E6 JUMP JUMPDEST DUP1 PUSH1 0x1 ADD SWAP1 POP PUSH2 0x1573 JUMP JUMPDEST POP DUP1 PUSH2 0x1727 JUMPI PUSH1 0x40 MLOAD PUSH32 0x8C379A000000000000000000000000000000000000000000000000000000000 DUP2 MSTORE PUSH1 0x4 ADD PUSH2 0x171E SWAP1 PUSH2 0x3D64 JUMP JUMPDEST PUSH1 0x40 MLOAD DUP1 SWAP2 SUB SWAP1 REVERT JUMPDEST PUSH1 0x1 PUSH0 DUP4 PUSH20 0xFFFFFFFFFFFFFFFFFFFFFFFFFFFFFFFFFFFFFFFF AND PUSH20 0xFFFFFFFFFFFFFFFFFFFFFFFFFFFFFFFFFFFFFFFF AND DUP2 MSTORE PUSH1 0x20 ADD SWAP1 DUP2 MSTORE PUSH1 0x20 ADD PUSH0 KECCAK256 PUSH0 DUP1 DUP3 ADD PUSH0 PUSH2 0x1773 SWAP2 SWAP1 PUSH2 0x2507 JUMP JUMPDEST PUSH1 0x1 DUP3 ADD PUSH0 SWAP1 SSTORE PUSH1 0x2 DUP3 ADD PUSH0 SWAP1 SSTORE PUSH1 0x3 DUP3 ADD PUSH0 SWAP1 SSTORE PUSH1 0x4 DUP3 ADD PUSH0 SWAP1 SSTORE PUSH1 0x5 DUP3 ADD PUSH0 PUSH2 0x100 EXP DUP2 SLOAD SWAP1 PUSH1 0xFF MUL NOT AND SWAP1 SSTORE POP POP DUP2 PUSH20 0xFFFFFFFFFFFFFFFFFFFFFFFFFFFFFFFFFFFFFFFF AND PUSH32 0x4BC56F1321288DFB5B416CB3A7FD188723979F9E866C91D88ECCF7FCA039D039 PUSH1 0x40 MLOAD PUSH1 0x40 MLOAD DUP1 SWAP2 SUB SWAP1 LOG2 POP POP JUMP JUMPDEST PUSH2 0x17F3 PUSH2 0x2544 JUMP JUMPDEST PUSH1 0x1 PUSH0 DUP4 PUSH20 0xFFFFFFFFFFFFFFFFFFFFFFFFFFFFFFFFFFFFFFFF AND PUSH20 0xFFFFFFFFFFFFFFFFFFFFFFFFFFFFFFFFFFFFFFFF AND DUP2 MSTORE PUSH1 0x20 ADD SWAP1 DUP2 MSTORE PUSH1 0x20 ADD PUSH0 KECCAK256 PUSH1 0x5 ADD PUSH0 SWAP1 SLOAD SWAP1 PUSH2 0x100 EXP SWAP1 DIV PUSH1 0xFF AND PUSH2 0x187F JUMPI PUSH1 0x40 MLOAD PUSH32 0x8C379A000000000000000000000000000000000000000000000000000000000 DUP2 MSTORE PUSH1 0x4 ADD PUSH2 0x1876 SWAP1 PUSH2 0x3828 JUMP JUMPDEST PUSH1 0x40 MLOAD DUP1 SWAP2 SUB SWAP1 REVERT JUMPDEST PUSH1 0x1 PUSH0 DUP4 PUSH20 0xFFFFFFFFFFFFFFFFFFFFFFFFFFFFFFFFFFFFFFFF AND PUSH20 0xFFFFFFFFFFFFFFFFFFFFFFFFFFFFFFFFFFFFFFFF AND DUP2 MSTORE PUSH1 0x20 ADD SWAP1 DUP2 MSTORE PUSH1 0x20 ADD PUSH0 KECCAK256 PUSH1 0x40 MLOAD DUP1 PUSH1 0xC0 ADD PUSH1 0x40 MSTORE SWAP1 DUP2 PUSH0 DUP3 ADD DUP1 SLOAD PUSH2 0x18D6 SWAP1 PUSH2 0x32AE JUMP JUMPDEST DUP1 PUSH1 0x1F ADD PUSH1 0x20 DUP1 SWAP2 DIV MUL PUSH1 0x20 ADD PUSH1 0x40 MLOAD SWAP1 DUP2 ADD PUSH1 0x40 MSTORE DUP1 SWAP3 SWAP2 SWAP1 DUP2 DUP2 MSTORE PUSH1 0x20 ADD DUP3 DUP1 SLOAD PUSH2 0x1902 SWAP1 PUSH2 0x32AE JUMP JUMPDEST DUP1 ISZERO PUSH2 0x194D JUMPI DUP1 PUSH1 0x1F LT PUSH2 0x1924 JUMPI PUSH2 0x100 DUP1 DUP4 SLOAD DIV MUL DUP4 MSTORE SWAP2 PUSH1 0x20 ADD SWAP2 PUSH2 0x194D JUMP JUMPDEST DUP3 ADD SWAP2 SWAP1 PUSH0 MSTORE PUSH1 0x20 PUSH0 KECCAK256 SWAP1 JUMPDEST DUP2 SLOAD DUP2 MSTORE SWAP1 PUSH1 0x1 ADD SWAP1 PUSH1 0x20 ADD DUP1 DUP4 GT PUSH2 0x1930 JUMPI DUP3 SWAP1 SUB PUSH1 0x1F AND DUP3 ADD SWAP2 JUMPDEST POP POP POP POP POP DUP2 MSTORE PUSH1 0x20 ADD PUSH1 0x1 DUP3 ADD SLOAD DUP2 MSTORE PUSH1 0x20 ADD PUSH1 0x2 DUP3 ADD SLOAD DUP2 MSTORE PUSH1 0x20 ADD PUSH1 0x3 DUP3 ADD SLOAD DUP2 MSTORE PUSH1 0x20 ADD PUSH1 0x4 DUP3 ADD SLOAD DUP2 MSTORE PUSH1 0x20 ADD PUSH1 0x5 DUP3 ADD PUSH0 SWAP1 SLOAD SWAP1 PUSH2 0x100 EXP SWAP1 DIV PUSH1 0xFF AND ISZERO ISZERO ISZERO ISZERO DUP2 MSTORE POP POP SWAP1 POP SWAP2 SWAP1 POP JUMP JUMPDEST PUSH1 0x5 DUP2 DUP2 SLOAD DUP2 LT PUSH2 0x19AE JUMPI PUSH0 DUP1 REVERT JUMPDEST SWAP1 PUSH0 MSTORE PUSH1 0x20 PUSH0 KECCAK256 ADD PUSH0 SWAP2 POP SWAP1 POP SLOAD DUP2 JUMP JUMPDEST PUSH1 0x4 PUSH1 0x20 MSTORE DUP1 PUSH0 MSTORE PUSH1 0x40 PUSH0 KECCAK256 PUSH0 SWAP2 POP SWAP1 POP DUP1 PUSH0 ADD SLOAD SWAP1 DUP1 PUSH1 0x1 ADD PUSH0 SWAP1 SLOAD SWAP1 PUSH2 0x100 EXP SWAP1 DIV PUSH20 0xFFFFFFFFFFFFFFFFFFFFFFFFFFFFFFFFFFFFFFFF AND SWAP1 DUP1 PUSH1 0x2 ADD PUSH0 SWAP1 SLOAD SWAP1 PUSH2 0x100 EXP SWAP1 DIV PUSH20 0xFFFFFFFFFFFFFFFFFFFFFFFFFFFFFFFFFFFFFFFF AND SWAP1 DUP1 PUSH1 0x3 ADD SLOAD SWAP1 DUP1 PUSH1 0x4 ADD SLOAD SWAP1 DUP1 PUSH1 0x5 ADD SLOAD SWAP1 DUP1 PUSH1 0x6 ADD PUSH0 SWAP1 SLOAD SWAP1 PUSH2 0x100 EXP SWAP1 DIV PUSH1 0xFF AND SWAP1 DUP1 PUSH1 0x7 ADD DUP1 SLOAD PUSH2 0x1A52 SWAP1 PUSH2 0x32AE JUMP JUMPDEST DUP1 PUSH1 0x1F ADD PUSH1 0x20 DUP1 SWAP2 DIV MUL PUSH1 0x20 ADD PUSH1 0x40 MLOAD SWAP1 DUP2 ADD PUSH1 0x40 MSTORE DUP1 SWAP3 SWAP2 SWAP1 DUP2 DUP2 MSTORE PUSH1 0x20 ADD DUP3 DUP1 SLOAD PUSH2 0x1A7E SWAP1 PUSH2 0x32AE JUMP JUMPDEST DUP1 ISZERO PUSH2 0x1AC9 JUMPI DUP1 PUSH1 0x1F LT PUSH2 0x1AA0 JUMPI PUSH2 0x100 DUP1 DUP4 SLOAD DIV MUL DUP4 MSTORE SWAP2 PUSH1 0x20 ADD SWAP2 PUSH2 0x1AC9 JUMP JUMPDEST DUP3 ADD SWAP2 SWAP1 PUSH0 MSTORE PUSH1 0x20 PUSH0 KECCAK256 SWAP1 JUMPDEST DUP2 SLOAD DUP2 MSTORE SWAP1 PUSH1 0x1 ADD SWAP1 PUSH1 0x20 ADD DUP1 DUP4 GT PUSH2 0x1AAC JUMPI DUP3 SWAP1 SUB PUSH1 0x1F AND DUP3 ADD SWAP2 JUMPDEST POP POP POP POP POP SWAP1 DUP1 PUSH1 0x8 ADD PUSH0 SWAP1 SLOAD SWAP1 PUSH2 0x100 EXP SWAP1 DIV PUSH1 0xFF AND SWAP1 POP DUP10 JUMP JUMPDEST PUSH1 0x60 PUSH0 DUP1 SLOAD DUP1 PUSH1 0x20 MUL PUSH1 0x20 ADD PUSH1 0x40 MLOAD SWAP1 DUP2 ADD PUSH1 0x40 MSTORE DUP1 SWAP3 SWAP2 SWAP1 DUP2 DUP2 MSTORE PUSH1 0x20 ADD DUP3 DUP1 SLOAD DUP1 ISZERO PUSH2 0x1B65 JUMPI PUSH1 0x20 MUL DUP3 ADD SWAP2 SWAP1 PUSH0 MSTORE PUSH1 0x20 PUSH0 KECCAK256 SWAP1 JUMPDEST DUP2 PUSH0 SWAP1 SLOAD SWAP1 PUSH2 0x100 EXP SWAP1 DIV PUSH20 0xFFFFFFFFFFFFFFFFFFFFFFFFFFFFFFFFFFFFFFFF AND PUSH20 0xFFFFFFFFFFFFFFFFFFFFFFFFFFFFFFFFFFFFFFFF AND DUP2 MSTORE PUSH1 0x20 ADD SWAP1 PUSH1 0x1 ADD SWAP1 DUP1 DUP4 GT PUSH2 0x1B1C JUMPI JUMPDEST POP POP POP POP POP SWAP1 POP SWAP1 JUMP JUMPDEST PUSH1 0x1 PUSH1 0x20 MSTORE DUP1 PUSH0 MSTORE PUSH1 0x40 PUSH0 KECCAK256 PUSH0 SWAP2 POP SWAP1 POP DUP1 PUSH0 ADD DUP1 SLOAD PUSH2 0x1B8E SWAP1 PUSH2 0x32AE JUMP JUMPDEST DUP1 PUSH1 0x1F ADD PUSH1 0x20 DUP1 SWAP2 DIV MUL PUSH1 0x20 ADD PUSH1 0x40 MLOAD SWAP1 DUP2 ADD PUSH1 0x40 MSTORE DUP1 SWAP3 SWAP2 SWAP1 DUP2 DUP2 MSTORE PUSH1 0x20 ADD DUP3 DUP1 SLOAD PUSH2 0x1BBA SWAP1 PUSH2 0x32AE JUMP JUMPDEST DUP1 ISZERO PUSH2 0x1C05 JUMPI DUP1 PUSH1 0x1F LT PUSH2 0x1BDC JUMPI PUSH2 0x100 DUP1 DUP4 SLOAD DIV MUL DUP4 MSTORE SWAP2 PUSH1 0x20 ADD SWAP2 PUSH2 0x1C05 JUMP JUMPDEST DUP3 ADD SWAP2 SWAP1 PUSH0 MSTORE PUSH1 0x20 PUSH0 KECCAK256 SWAP1 JUMPDEST DUP2 SLOAD DUP2 MSTORE SWAP1 PUSH1 0x1 ADD SWAP1 PUSH1 0x20 ADD DUP1 DUP4 GT PUSH2 0x1BE8 JUMPI DUP3 SWAP1 SUB PUSH1 0x1F AND DUP3 ADD SWAP2 JUMPDEST POP POP POP POP POP SWAP1 DUP1 PUSH1 0x1 ADD SLOAD SWAP1 DUP1 PUSH1 0x2 ADD SLOAD SWAP1 DUP1 PUSH1 0x3 ADD SLOAD SWAP1 DUP1 PUSH1 0x4 ADD SLOAD SWAP1 DUP1 PUSH1 0x5 ADD PUSH0 SWAP1 SLOAD SWAP1 PUSH2 0x100 EXP SWAP1 DIV PUSH1 0xFF AND SWAP1 POP DUP7 JUMP JUMPDEST PUSH1 0x60 PUSH0 PUSH1 0x5 DUP1 SLOAD SWAP1 POP PUSH8 0xFFFFFFFFFFFFFFFF DUP2 GT ISZERO PUSH2 0x1C5B JUMPI PUSH2 0x1C5A PUSH2 0x2792 JUMP JUMPDEST JUMPDEST PUSH1 0x40 MLOAD SWAP1 DUP1 DUP3 MSTORE DUP1 PUSH1 0x20 MUL PUSH1 0x20 ADD DUP3 ADD PUSH1 0x40 MSTORE DUP1 ISZERO PUSH2 0x1C94 JUMPI DUP2 PUSH1 0x20 ADD JUMPDEST PUSH2 0x1C81 PUSH2 0x2577 JUMP JUMPDEST DUP2 MSTORE PUSH1 0x20 ADD SWAP1 PUSH1 0x1 SWAP1 SUB SWAP1 DUP2 PUSH2 0x1C79 JUMPI SWAP1 POP JUMPDEST POP SWAP1 POP PUSH0 JUMPDEST PUSH1 0x5 DUP1 SLOAD SWAP1 POP DUP2 LT ISZERO PUSH2 0x1EBF JUMPI PUSH1 0x4 PUSH0 PUSH1 0x5 DUP4 DUP2 SLOAD DUP2 LT PUSH2 0x1CBD JUMPI PUSH2 0x1CBC PUSH2 0x3CC0 JUMP JUMPDEST JUMPDEST SWAP1 PUSH0 MSTORE PUSH1 0x20 PUSH0 KECCAK256 ADD SLOAD DUP2 MSTORE PUSH1 0x20 ADD SWAP1 DUP2 MSTORE PUSH1 0x20 ADD PUSH0 KECCAK256 PUSH1 0x40 MLOAD DUP1 PUSH2 0x120 ADD PUSH1 0x40 MSTORE SWAP1 DUP2 PUSH0 DUP3 ADD SLOAD DUP2 MSTORE PUSH1 0x20 ADD PUSH1 0x1 DUP3 ADD PUSH0 SWAP1 SLOAD SWAP1 PUSH2 0x100 EXP SWAP1 DIV PUSH20 0xFFFFFFFFFFFFFFFFFFFFFFFFFFFFFFFFFFFFFFFF AND PUSH20 0xFFFFFFFFFFFFFFFFFFFFFFFFFFFFFFFFFFFFFFFF AND PUSH20 0xFFFFFFFFFFFFFFFFFFFFFFFFFFFFFFFFFFFFFFFF AND DUP2 MSTORE PUSH1 0x20 ADD PUSH1 0x2 DUP3 ADD PUSH0 SWAP1 SLOAD SWAP1 PUSH2 0x100 EXP SWAP1 DIV PUSH20 0xFFFFFFFFFFFFFFFFFFFFFFFFFFFFFFFFFFFFFFFF AND PUSH20 0xFFFFFFFFFFFFFFFFFFFFFFFFFFFFFFFFFFFFFFFF AND PUSH20 0xFFFFFFFFFFFFFFFFFFFFFFFFFFFFFFFFFFFFFFFF AND DUP2 MSTORE PUSH1 0x20 ADD PUSH1 0x3 DUP3 ADD SLOAD DUP2 MSTORE PUSH1 0x20 ADD PUSH1 0x4 DUP3 ADD SLOAD DUP2 MSTORE PUSH1 0x20 ADD PUSH1 0x5 DUP3 ADD SLOAD DUP2 MSTORE PUSH1 0x20 ADD PUSH1 0x6 DUP3 ADD PUSH0 SWAP1 SLOAD SWAP1 PUSH2 0x100 EXP SWAP1 DIV PUSH1 0xFF AND ISZERO ISZERO ISZERO ISZERO DUP2 MSTORE PUSH1 0x20 ADD PUSH1 0x7 DUP3 ADD DUP1 SLOAD PUSH2 0x1DDA SWAP1 PUSH2 0x32AE JUMP JUMPDEST DUP1 PUSH1 0x1F ADD PUSH1 0x20 DUP1 SWAP2 DIV MUL PUSH1 0x20 ADD PUSH1 0x40 MLOAD SWAP1 DUP2 ADD PUSH1 0x40 MSTORE DUP1 SWAP3 SWAP2 SWAP1 DUP2 DUP2 MSTORE PUSH1 0x20 ADD DUP3 DUP1 SLOAD PUSH2 0x1E06 SWAP1 PUSH2 0x32AE JUMP JUMPDEST DUP1 ISZERO PUSH2 0x1E51 JUMPI DUP1 PUSH1 0x1F LT PUSH2 0x1E28 JUMPI PUSH2 0x100 DUP1 DUP4 SLOAD DIV MUL DUP4 MSTORE SWAP2 PUSH1 0x20 ADD SWAP2 PUSH2 0x1E51 JUMP JUMPDEST DUP3 ADD SWAP2 SWAP1 PUSH0 MSTORE PUSH1 0x20 PUSH0 KECCAK256 SWAP1 JUMPDEST DUP2 SLOAD DUP2 MSTORE SWAP1 PUSH1 0x1 ADD SWAP1 PUSH1 0x20 ADD DUP1 DUP4 GT PUSH2 0x1E34 JUMPI DUP3 SWAP1 SUB PUSH1 0x1F AND DUP3 ADD SWAP2 JUMPDEST POP POP POP POP POP DUP2 MSTORE PUSH1 0x20 ADD PUSH1 0x8 DUP3 ADD PUSH0 SWAP1 SLOAD SWAP1 PUSH2 0x100 EXP SWAP1 DIV PUSH1 0xFF AND PUSH1 0x1 DUP2 GT ISZERO PUSH2 0x1E7E JUMPI PUSH2 0x1E7D PUSH2 0x2BFC JUMP JUMPDEST JUMPDEST PUSH1 0x1 DUP2 GT ISZERO PUSH2 0x1E90 JUMPI PUSH2 0x1E8F PUSH2 0x2BFC JUMP JUMPDEST JUMPDEST DUP2 MSTORE POP POP DUP3 DUP3 DUP2 MLOAD DUP2 LT PUSH2 0x1EA7 JUMPI PUSH2 0x1EA6 PUSH2 0x3CC0 JUMP JUMPDEST JUMPDEST PUSH1 0x20 MUL PUSH1 0x20 ADD ADD DUP2 SWAP1 MSTORE POP DUP1 DUP1 PUSH1 0x1 ADD SWAP2 POP POP PUSH2 0x1C99 JUMP JUMPDEST POP DUP1 SWAP2 POP POP SWAP1 JUMP JUMPDEST PUSH1 0x1 PUSH0 DUP4 PUSH20 0xFFFFFFFFFFFFFFFFFFFFFFFFFFFFFFFFFFFFFFFF AND PUSH20 0xFFFFFFFFFFFFFFFFFFFFFFFFFFFFFFFFFFFFFFFF AND DUP2 MSTORE PUSH1 0x20 ADD SWAP1 DUP2 MSTORE PUSH1 0x20 ADD PUSH0 KECCAK256 PUSH1 0x5 ADD PUSH0 SWAP1 SLOAD SWAP1 PUSH2 0x100 EXP SWAP1 DIV PUSH1 0xFF AND PUSH2 0x1F53 JUMPI PUSH1 0x40 MLOAD PUSH32 0x8C379A000000000000000000000000000000000000000000000000000000000 DUP2 MSTORE PUSH1 0x4 ADD PUSH2 0x1F4A SWAP1 PUSH2 0x3828 JUMP JUMPDEST PUSH1 0x40 MLOAD DUP1 SWAP2 SUB SWAP1 REVERT JUMPDEST DUP1 PUSH1 0x1 PUSH0 DUP5 PUSH20 0xFFFFFFFFFFFFFFFFFFFFFFFFFFFFFFFFFFFFFFFF AND PUSH20 0xFFFFFFFFFFFFFFFFFFFFFFFFFFFFFFFFFFFFFFFF AND DUP2 MSTORE PUSH1 0x20 ADD SWAP1 DUP2 MSTORE PUSH1 0x20 ADD PUSH0 KECCAK256 PUSH1 0x3 ADD DUP2 SWAP1 SSTORE POP POP POP JUMP JUMPDEST PUSH1 0x60 PUSH0 PUSH1 0x6 DUP1 SLOAD SWAP1 POP PUSH8 0xFFFFFFFFFFFFFFFF DUP2 GT ISZERO PUSH2 0x1FBE JUMPI PUSH2 0x1FBD PUSH2 0x2792 JUMP JUMPDEST JUMPDEST PUSH1 0x40 MLOAD SWAP1 DUP1 DUP3 MSTORE DUP1 PUSH1 0x20 MUL PUSH1 0x20 ADD DUP3 ADD PUSH1 0x40 MSTORE DUP1 ISZERO PUSH2 0x1FF7 JUMPI DUP2 PUSH1 0x20 ADD JUMPDEST PUSH2 0x1FE4 PUSH2 0x2577 JUMP JUMPDEST DUP2 MSTORE PUSH1 0x20 ADD SWAP1 PUSH1 0x1 SWAP1 SUB SWAP1 DUP2 PUSH2 0x1FDC JUMPI SWAP1 POP JUMPDEST POP SWAP1 POP PUSH0 JUMPDEST PUSH1 0x6 DUP1 SLOAD SWAP1 POP DUP2 LT ISZERO PUSH2 0x2222 JUMPI PUSH1 0x4 PUSH0 PUSH1 0x6 DUP4 DUP2 SLOAD DUP2 LT PUSH2 0x2020 JUMPI PUSH2 0x201F PUSH2 0x3CC0 JUMP JUMPDEST JUMPDEST SWAP1 PUSH0 MSTORE PUSH1 0x20 PUSH0 KECCAK256 ADD SLOAD DUP2 MSTORE PUSH1 0x20 ADD SWAP1 DUP2 MSTORE PUSH1 0x20 ADD PUSH0 KECCAK256 PUSH1 0x40 MLOAD DUP1 PUSH2 0x120 ADD PUSH1 0x40 MSTORE SWAP1 DUP2 PUSH0 DUP3 ADD SLOAD DUP2 MSTORE PUSH1 0x20 ADD PUSH1 0x1 DUP3 ADD PUSH0 SWAP1 SLOAD SWAP1 PUSH2 0x100 EXP SWAP1 DIV PUSH20 0xFFFFFFFFFFFFFFFFFFFFFFFFFFFFFFFFFFFFFFFF AND PUSH20 0xFFFFFFFFFFFFFFFFFFFFFFFFFFFFFFFFFFFFFFFF AND PUSH20 0xFFFFFFFFFFFFFFFFFFFFFFFFFFFFFFFFFFFFFFFF AND DUP2 MSTORE PUSH1 0x20 ADD PUSH1 0x2 DUP3 ADD PUSH0 SWAP1 SLOAD SWAP1 PUSH2 0x100 EXP SWAP1 DIV PUSH20 0xFFFFFFFFFFFFFFFFFFFFFFFFFFFFFFFFFFFFFFFF AND PUSH20 0xFFFFFFFFFFFFFFFFFFFFFFFFFFFFFFFFFFFFFFFF AND PUSH20 0xFFFFFFFFFFFFFFFFFFFFFFFFFFFFFFFFFFFFFFFF AND DUP2 MSTORE PUSH1 0x20 ADD PUSH1 0x3 DUP3 ADD SLOAD DUP2 MSTORE PUSH1 0x20 ADD PUSH1 0x4 DUP3 ADD SLOAD DUP2 MSTORE PUSH1 0x20 ADD PUSH1 0x5 DUP3 ADD SLOAD DUP2 MSTORE PUSH1 0x20 ADD PUSH1 0x6 DUP3 ADD PUSH0 SWAP1 SLOAD SWAP1 PUSH2 0x100 EXP SWAP1 DIV PUSH1 0xFF AND ISZERO ISZERO ISZERO ISZERO DUP2 MSTORE PUSH1 0x20 ADD PUSH1 0x7 DUP3 ADD DUP1 SLOAD PUSH2 0x213D SWAP1 PUSH2 0x32AE JUMP JUMPDEST DUP1 PUSH1 0x1F ADD PUSH1 0x20 DUP1 SWAP2 DIV MUL PUSH1 0x20 ADD PUSH1 0x40 MLOAD SWAP1 DUP2 ADD PUSH1 0x40 MSTORE DUP1 SWAP3 SWAP2 SWAP1 DUP2 DUP2 MSTORE PUSH1 0x20 ADD DUP3 DUP1 SLOAD PUSH2 0x2169 SWAP1 PUSH2 0x32AE JUMP JUMPDEST DUP1 ISZERO PUSH2 0x21B4 JUMPI DUP1 PUSH1 0x1F LT PUSH2 0x218B JUMPI PUSH2 0x100 DUP1 DUP4 SLOAD DIV MUL DUP4 MSTORE SWAP2 PUSH1 0x20 ADD SWAP2 PUSH2 0x21B4 JUMP JUMPDEST DUP3 ADD SWAP2 SWAP1 PUSH0 MSTORE PUSH1 0x20 PUSH0 KECCAK256 SWAP1 JUMPDEST DUP2 SLOAD DUP2 MSTORE SWAP1 PUSH1 0x1 ADD SWAP1 PUSH1 0x20 ADD DUP1 DUP4 GT PUSH2 0x2197 JUMPI DUP3 SWAP1 SUB PUSH1 0x1F AND DUP3 ADD SWAP2 JUMPDEST POP POP POP POP POP DUP2 MSTORE PUSH1 0x20 ADD PUSH1 0x8 DUP3 ADD PUSH0 SWAP1 SLOAD SWAP1 PUSH2 0x100 EXP SWAP1 DIV PUSH1 0xFF AND PUSH1 0x1 DUP2 GT ISZERO PUSH2 0x21E1 JUMPI PUSH2 0x21E0 PUSH2 0x2BFC JUMP JUMPDEST JUMPDEST PUSH1 0x1 DUP2 GT ISZERO PUSH2 0x21F3 JUMPI PUSH2 0x21F2 PUSH2 0x2BFC JUMP JUMPDEST JUMPDEST DUP2 MSTORE POP POP DUP3 DUP3 DUP2 MLOAD DUP2 LT PUSH2 0x220A JUMPI PUSH2 0x2209 PUSH2 0x3CC0 JUMP JUMPDEST JUMPDEST PUSH1 0x20 MUL PUSH1 0x20 ADD ADD DUP2 SWAP1 MSTORE POP DUP1 DUP1 PUSH1 0x1 ADD SWAP2 POP POP PUSH2 0x1FFC JUMP JUMPDEST POP DUP1 SWAP2 POP POP SWAP1 JUMP JUMPDEST PUSH0 PUSH1 0x5 DUP1 SLOAD SWAP1 POP SWAP1 POP SWAP1 JUMP JUMPDEST PUSH1 0x60 PUSH0 DUP1 DUP1 SLOAD SWAP1 POP PUSH8 0xFFFFFFFFFFFFFFFF DUP2 GT ISZERO PUSH2 0x2257 JUMPI PUSH2 0x2256 PUSH2 0x2792 JUMP JUMPDEST JUMPDEST PUSH1 0x40 MLOAD SWAP1 DUP1 DUP3 MSTORE DUP1 PUSH1 0x20 MUL PUSH1 0x20 ADD DUP3 ADD PUSH1 0x40 MSTORE DUP1 ISZERO PUSH2 0x2290 JUMPI DUP2 PUSH1 0x20 ADD JUMPDEST PUSH2 0x227D PUSH2 0x2544 JUMP JUMPDEST DUP2 MSTORE PUSH1 0x20 ADD SWAP1 PUSH1 0x1 SWAP1 SUB SWAP1 DUP2 PUSH2 0x2275 JUMPI SWAP1 POP JUMPDEST POP SWAP1 POP PUSH0 JUMPDEST PUSH0 DUP1 SLOAD SWAP1 POP DUP2 LT ISZERO PUSH2 0x241F JUMPI PUSH1 0x1 PUSH0 DUP1 DUP4 DUP2 SLOAD DUP2 LT PUSH2 0x22B7 JUMPI PUSH2 0x22B6 PUSH2 0x3CC0 JUMP JUMPDEST JUMPDEST SWAP1 PUSH0 MSTORE PUSH1 0x20 PUSH0 KECCAK256 ADD PUSH0 SWAP1 SLOAD SWAP1 PUSH2 0x100 EXP SWAP1 DIV PUSH20 0xFFFFFFFFFFFFFFFFFFFFFFFFFFFFFFFFFFFFFFFF AND PUSH20 0xFFFFFFFFFFFFFFFFFFFFFFFFFFFFFFFFFFFFFFFF AND PUSH20 0xFFFFFFFFFFFFFFFFFFFFFFFFFFFFFFFFFFFFFFFF AND DUP2 MSTORE PUSH1 0x20 ADD SWAP1 DUP2 MSTORE PUSH1 0x20 ADD PUSH0 KECCAK256 PUSH1 0x40 MLOAD DUP1 PUSH1 0xC0 ADD PUSH1 0x40 MSTORE SWAP1 DUP2 PUSH0 DUP3 ADD DUP1 SLOAD PUSH2 0x2332 SWAP1 PUSH2 0x32AE JUMP JUMPDEST DUP1 PUSH1 0x1F ADD PUSH1 0x20 DUP1 SWAP2 DIV MUL PUSH1 0x20 ADD PUSH1 0x40 MLOAD SWAP1 DUP2 ADD PUSH1 0x40 MSTORE DUP1 SWAP3 SWAP2 SWAP1 DUP2 DUP2 MSTORE PUSH1 0x20 ADD DUP3 DUP1 SLOAD PUSH2 0x235E SWAP1 PUSH2 0x32AE JUMP JUMPDEST DUP1 ISZERO PUSH2 0x23A9 JUMPI DUP1 PUSH1 0x1F LT PUSH2 0x2380 JUMPI PUSH2 0x100 DUP1 DUP4 SLOAD DIV MUL DUP4 MSTORE SWAP2 PUSH1 0x20 ADD SWAP2 PUSH2 0x23A9 JUMP JUMPDEST DUP3 ADD SWAP2 SWAP1 PUSH0 MSTORE PUSH1 0x20 PUSH0 KECCAK256 SWAP1 JUMPDEST DUP2 SLOAD DUP2 MSTORE SWAP1 PUSH1 0x1 ADD SWAP1 PUSH1 0x20 ADD DUP1 DUP4 GT PUSH2 0x238C JUMPI DUP3 SWAP1 SUB PUSH1 0x1F AND DUP3 ADD SWAP2 JUMPDEST POP POP POP POP POP DUP2 MSTORE PUSH1 0x20 ADD PUSH1 0x1 DUP3 ADD SLOAD DUP2 MSTORE PUSH1 0x20 ADD PUSH1 0x2 DUP3 ADD SLOAD DUP2 MSTORE PUSH1 0x20 ADD PUSH1 0x3 DUP3 ADD SLOAD DUP2 MSTORE PUSH1 0x20 ADD PUSH1 0x4 DUP3 ADD SLOAD DUP2 MSTORE PUSH1 0x20 ADD PUSH1 0x5 DUP3 ADD PUSH0 SWAP1 SLOAD SWAP1 PUSH2 0x100 EXP SWAP1 DIV PUSH1 0xFF AND ISZERO ISZERO ISZERO ISZERO DUP2 MSTORE POP POP DUP3 DUP3 DUP2 MLOAD DUP2 LT PUSH2 0x2407 JUMPI PUSH2 0x2406 PUSH2 0x3CC0 JUMP JUMPDEST JUMPDEST PUSH1 0x20 MUL PUSH1 0x20 ADD ADD DUP2 SWAP1 MSTORE POP DUP1 DUP1 PUSH1 0x1 ADD SWAP2 POP POP PUSH2 0x2295 JUMP JUMPDEST POP DUP1 SWAP2 POP POP SWAP1 JUMP JUMPDEST PUSH1 0x2 PUSH0 SWAP1 SLOAD SWAP1 PUSH2 0x100 EXP SWAP1 DIV PUSH20 0xFFFFFFFFFFFFFFFFFFFFFFFFFFFFFFFFFFFFFFFF AND DUP2 JUMP JUMPDEST PUSH0 JUMPDEST PUSH1 0x5 DUP1 SLOAD SWAP1 POP DUP2 LT ISZERO PUSH2 0x2503 JUMPI DUP2 PUSH1 0x5 DUP3 DUP2 SLOAD DUP2 LT PUSH2 0x2470 JUMPI PUSH2 0x246F PUSH2 0x3CC0 JUMP JUMPDEST JUMPDEST SWAP1 PUSH0 MSTORE PUSH1 0x20 PUSH0 KECCAK256 ADD SLOAD SUB PUSH2 0x24F6 JUMPI PUSH1 0x5 PUSH1 0x1 PUSH1 0x5 DUP1 SLOAD SWAP1 POP PUSH2 0x2492 SWAP2 SWAP1 PUSH2 0x35FB JUMP JUMPDEST DUP2 SLOAD DUP2 LT PUSH2 0x24A3 JUMPI PUSH2 0x24A2 PUSH2 0x3CC0 JUMP JUMPDEST JUMPDEST SWAP1 PUSH0 MSTORE PUSH1 0x20 PUSH0 KECCAK256 ADD SLOAD PUSH1 0x5 DUP3 DUP2 SLOAD DUP2 LT PUSH2 0x24C0 JUMPI PUSH2 0x24BF PUSH2 0x3CC0 JUMP JUMPDEST JUMPDEST SWAP1 PUSH0 MSTORE PUSH1 0x20 PUSH0 KECCAK256 ADD DUP2 SWAP1 SSTORE POP PUSH1 0x5 DUP1 SLOAD DUP1 PUSH2 0x24DE JUMPI PUSH2 0x24DD PUSH2 0x3CED JUMP JUMPDEST JUMPDEST PUSH1 0x1 SWAP1 SUB DUP2 DUP2 SWAP1 PUSH0 MSTORE PUSH1 0x20 PUSH0 KECCAK256 ADD PUSH0 SWAP1 SSTORE SWAP1 SSTORE PUSH2 0x2503 JUMP JUMPDEST DUP1 DUP1 PUSH1 0x1 ADD SWAP2 POP POP PUSH2 0x244E JUMP JUMPDEST POP POP JUMP JUMPDEST POP DUP1 SLOAD PUSH2 0x2513 SWAP1 PUSH2 0x32AE JUMP JUMPDEST PUSH0 DUP3 SSTORE DUP1 PUSH1 0x1F LT PUSH2 0x2524 JUMPI POP PUSH2 0x2541 JUMP JUMPDEST PUSH1 0x1F ADD PUSH1 0x20 SWAP1 DIV SWAP1 PUSH0 MSTORE PUSH1 0x20 PUSH0 KECCAK256 SWAP1 DUP2 ADD SWAP1 PUSH2 0x2540 SWAP2 SWAP1 PUSH2 0x25FB JUMP JUMPDEST JUMPDEST POP JUMP JUMPDEST PUSH1 0x40 MLOAD DUP1 PUSH1 0xC0 ADD PUSH1 0x40 MSTORE DUP1 PUSH1 0x60 DUP2 MSTORE PUSH1 0x20 ADD PUSH0 DUP2 MSTORE PUSH1 0x20 ADD PUSH0 DUP2 MSTORE PUSH1 0x20 ADD PUSH0 DUP2 MSTORE PUSH1 0x20 ADD PUSH0 DUP2 MSTORE PUSH1 0x20 ADD PUSH0 ISZERO ISZERO DUP2 MSTORE POP SWAP1 JUMP JUMPDEST PUSH1 0x40 MLOAD DUP1 PUSH2 0x120 ADD PUSH1 0x40 MSTORE DUP1 PUSH0 DUP2 MSTORE PUSH1 0x20 ADD PUSH0 PUSH20 0xFFFFFFFFFFFFFFFFFFFFFFFFFFFFFFFFFFFFFFFF AND DUP2 MSTORE PUSH1 0x20 ADD PUSH0 PUSH20 0xFFFFFFFFFFFFFFFFFFFFFFFFFFFFFFFFFFFFFFFF AND DUP2 MSTORE PUSH1 0x20 ADD PUSH0 DUP2 MSTORE PUSH1 0x20 ADD PUSH0 DUP2 MSTORE PUSH1 0x20 ADD PUSH0 DUP2 MSTORE PUSH1 0x20 ADD PUSH0 ISZERO ISZERO DUP2 MSTORE PUSH1 0x20 ADD PUSH1 0x60 DUP2 MSTORE PUSH1 0x20 ADD PUSH0 PUSH1 0x1 DUP2 GT ISZERO PUSH2 0x25F5 JUMPI PUSH2 0x25F4 PUSH2 0x2BFC JUMP JUMPDEST JUMPDEST DUP2 MSTORE POP SWAP1 JUMP JUMPDEST JUMPDEST DUP1 DUP3 GT ISZERO PUSH2 0x2612 JUMPI PUSH0 DUP2 PUSH0 SWAP1 SSTORE POP PUSH1 0x1 ADD PUSH2 0x25FC JUMP JUMPDEST POP SWAP1 JUMP JUMPDEST PUSH0 PUSH1 0x40 MLOAD SWAP1 POP SWAP1 JUMP JUMPDEST PUSH0 DUP1 REVERT JUMPDEST PUSH0 DUP1 REVERT JUMPDEST PUSH0 DUP2 SWAP1 POP SWAP2 SWAP1 POP JUMP JUMPDEST PUSH2 0x2639 DUP2 PUSH2 0x2627 JUMP JUMPDEST DUP2 EQ PUSH2 0x2643 JUMPI PUSH0 DUP1 REVERT JUMPDEST POP JUMP JUMPDEST PUSH0 DUP2 CALLDATALOAD SWAP1 POP PUSH2 0x2654 DUP2 PUSH2 0x2630 JUMP JUMPDEST SWAP3 SWAP2 POP POP JUMP JUMPDEST PUSH0 DUP2 ISZERO ISZERO SWAP1 POP SWAP2 SWAP1 POP JUMP JUMPDEST PUSH2 0x266E DUP2 PUSH2 0x265A JUMP JUMPDEST DUP2 EQ PUSH2 0x2678 JUMPI PUSH0 DUP1 REVERT JUMPDEST POP JUMP JUMPDEST PUSH0 DUP2 CALLDATALOAD SWAP1 POP PUSH2 0x2689 DUP2 PUSH2 0x2665 JUMP JUMPDEST SWAP3 SWAP2 POP POP JUMP JUMPDEST PUSH0 DUP1 PUSH1 0x40 DUP4 DUP6 SUB SLT ISZERO PUSH2 0x26A5 JUMPI PUSH2 0x26A4 PUSH2 0x261F JUMP JUMPDEST JUMPDEST PUSH0 PUSH2 0x26B2 DUP6 DUP3 DUP7 ADD PUSH2 0x2646 JUMP JUMPDEST SWAP3 POP POP PUSH1 0x20 PUSH2 0x26C3 DUP6 DUP3 DUP7 ADD PUSH2 0x267B JUMP JUMPDEST SWAP2 POP POP SWAP3 POP SWAP3 SWAP1 POP JUMP JUMPDEST PUSH0 PUSH20 0xFFFFFFFFFFFFFFFFFFFFFFFFFFFFFFFFFFFFFFFF DUP3 AND SWAP1 POP SWAP2 SWAP1 POP JUMP JUMPDEST PUSH0 PUSH2 0x26F6 DUP3 PUSH2 0x26CD JUMP JUMPDEST SWAP1 POP SWAP2 SWAP1 POP JUMP JUMPDEST PUSH2 0x2706 DUP2 PUSH2 0x26EC JUMP JUMPDEST DUP2 EQ PUSH2 0x2710 JUMPI PUSH0 DUP1 REVERT JUMPDEST POP JUMP JUMPDEST PUSH0 DUP2 CALLDATALOAD SWAP1 POP PUSH2 0x2721 DUP2 PUSH2 0x26FD JUMP JUMPDEST SWAP3 SWAP2 POP POP JUMP JUMPDEST PUSH0 PUSH1 0x20 DUP3 DUP5 SUB SLT ISZERO PUSH2 0x273C JUMPI PUSH2 0x273B PUSH2 0x261F JUMP JUMPDEST JUMPDEST PUSH0 PUSH2 0x2749 DUP5 DUP3 DUP6 ADD PUSH2 0x2713 JUMP JUMPDEST SWAP2 POP POP SWAP3 SWAP2 POP POP JUMP JUMPDEST PUSH2 0x275B DUP2 PUSH2 0x265A JUMP JUMPDEST DUP3 MSTORE POP POP JUMP JUMPDEST PUSH0 PUSH1 0x20 DUP3 ADD SWAP1 POP PUSH2 0x2774 PUSH0 DUP4 ADD DUP5 PUSH2 0x2752 JUMP JUMPDEST SWAP3 SWAP2 POP POP JUMP JUMPDEST PUSH0 DUP1 REVERT JUMPDEST PUSH0 DUP1 REVERT JUMPDEST PUSH0 PUSH1 0x1F NOT PUSH1 0x1F DUP4 ADD AND SWAP1 POP SWAP2 SWAP1 POP JUMP JUMPDEST PUSH32 0x4E487B7100000000000000000000000000000000000000000000000000000000 PUSH0 MSTORE PUSH1 0x41 PUSH1 0x4 MSTORE PUSH1 0x24 PUSH0 REVERT JUMPDEST PUSH2 0x27C8 DUP3 PUSH2 0x2782 JUMP JUMPDEST DUP2 ADD DUP2 DUP2 LT PUSH8 0xFFFFFFFFFFFFFFFF DUP3 GT OR ISZERO PUSH2 0x27E7 JUMPI PUSH2 0x27E6 PUSH2 0x2792 JUMP JUMPDEST JUMPDEST DUP1 PUSH1 0x40 MSTORE POP POP POP JUMP JUMPDEST PUSH0 PUSH2 0x27F9 PUSH2 0x2616 JUMP JUMPDEST SWAP1 POP PUSH2 0x2805 DUP3 DUP3 PUSH2 0x27BF JUMP JUMPDEST SWAP2 SWAP1 POP JUMP JUMPDEST PUSH0 PUSH8 0xFFFFFFFFFFFFFFFF DUP3 GT ISZERO PUSH2 0x2824 JUMPI PUSH2 0x2823 PUSH2 0x2792 JUMP JUMPDEST JUMPDEST PUSH2 0x282D DUP3 PUSH2 0x2782 JUMP JUMPDEST SWAP1 POP PUSH1 0x20 DUP2 ADD SWAP1 POP SWAP2 SWAP1 POP JUMP JUMPDEST DUP3 DUP2 DUP4 CALLDATACOPY PUSH0 DUP4 DUP4 ADD MSTORE POP POP POP JUMP JUMPDEST PUSH0 PUSH2 0x285A PUSH2 0x2855 DUP5 PUSH2 0x280A JUMP JUMPDEST PUSH2 0x27F0 JUMP JUMPDEST SWAP1 POP DUP3 DUP2 MSTORE PUSH1 0x20 DUP2 ADD DUP5 DUP5 DUP5 ADD GT ISZERO PUSH2 0x2876 JUMPI PUSH2 0x2875 PUSH2 0x277E JUMP JUMPDEST JUMPDEST PUSH2 0x2881 DUP5 DUP3 DUP6 PUSH2 0x283A JUMP JUMPDEST POP SWAP4 SWAP3 POP POP POP JUMP JUMPDEST PUSH0 DUP3 PUSH1 0x1F DUP4 ADD SLT PUSH2 0x289D JUMPI PUSH2 0x289C PUSH2 0x277A JUMP JUMPDEST JUMPDEST DUP2 CALLDATALOAD PUSH2 0x28AD DUP5 DUP3 PUSH1 0x20 DUP7 ADD PUSH2 0x2848 JUMP JUMPDEST SWAP2 POP POP SWAP3 SWAP2 POP POP JUMP JUMPDEST PUSH0 DUP2 SWAP1 POP SWAP2 SWAP1 POP JUMP JUMPDEST PUSH2 0x28C8 DUP2 PUSH2 0x28B6 JUMP JUMPDEST DUP2 EQ PUSH2 0x28D2 JUMPI PUSH0 DUP1 REVERT JUMPDEST POP JUMP JUMPDEST PUSH0 DUP2 CALLDATALOAD SWAP1 POP PUSH2 0x28E3 DUP2 PUSH2 0x28BF JUMP JUMPDEST SWAP3 SWAP2 POP POP JUMP JUMPDEST PUSH0 DUP1 PUSH0 DUP1 PUSH0 PUSH1 0xA0 DUP7 DUP9 SUB SLT ISZERO PUSH2 0x2902 JUMPI PUSH2 0x2901 PUSH2 0x261F JUMP JUMPDEST JUMPDEST PUSH0 DUP7 ADD CALLDATALOAD PUSH8 0xFFFFFFFFFFFFFFFF DUP2 GT ISZERO PUSH2 0x291F JUMPI PUSH2 0x291E PUSH2 0x2623 JUMP JUMPDEST JUMPDEST PUSH2 0x292B DUP9 DUP3 DUP10 ADD PUSH2 0x2889 JUMP JUMPDEST SWAP6 POP POP PUSH1 0x20 PUSH2 0x293C DUP9 DUP3 DUP10 ADD PUSH2 0x28D5 JUMP JUMPDEST SWAP5 POP POP PUSH1 0x40 PUSH2 0x294D DUP9 DUP3 DUP10 ADD PUSH2 0x28D5 JUMP JUMPDEST SWAP4 POP POP PUSH1 0x60 PUSH2 0x295E DUP9 DUP3 DUP10 ADD PUSH2 0x2646 JUMP JUMPDEST SWAP3 POP POP PUSH1 0x80 PUSH2 0x296F DUP9 DUP3 DUP10 ADD PUSH2 0x2646 JUMP JUMPDEST SWAP2 POP POP SWAP3 SWAP6 POP SWAP3 SWAP6 SWAP1 SWAP4 POP JUMP JUMPDEST PUSH0 DUP1 PUSH0 DUP1 PUSH0 DUP1 PUSH1 0xC0 DUP8 DUP10 SUB SLT ISZERO PUSH2 0x2996 JUMPI PUSH2 0x2995 PUSH2 0x261F JUMP JUMPDEST JUMPDEST PUSH0 PUSH2 0x29A3 DUP10 DUP3 DUP11 ADD PUSH2 0x2713 JUMP JUMPDEST SWAP7 POP POP PUSH1 0x20 PUSH2 0x29B4 DUP10 DUP3 DUP11 ADD PUSH2 0x2713 JUMP JUMPDEST SWAP6 POP POP PUSH1 0x40 PUSH2 0x29C5 DUP10 DUP3 DUP11 ADD PUSH2 0x2646 JUMP JUMPDEST SWAP5 POP POP PUSH1 0x60 PUSH2 0x29D6 DUP10 DUP3 DUP11 ADD PUSH2 0x2646 JUMP JUMPDEST SWAP4 POP POP PUSH1 0x80 PUSH2 0x29E7 DUP10 DUP3 DUP11 ADD PUSH2 0x2646 JUMP JUMPDEST SWAP3 POP POP PUSH1 0xA0 PUSH2 0x29F8 DUP10 DUP3 DUP11 ADD PUSH2 0x267B JUMP JUMPDEST SWAP2 POP POP SWAP3 SWAP6 POP SWAP3 SWAP6 POP SWAP3 SWAP6 JUMP JUMPDEST PUSH0 DUP2 MLOAD SWAP1 POP SWAP2 SWAP1 POP JUMP JUMPDEST PUSH0 DUP3 DUP3 MSTORE PUSH1 0x20 DUP3 ADD SWAP1 POP SWAP3 SWAP2 POP POP JUMP JUMPDEST PUSH0 JUMPDEST DUP4 DUP2 LT ISZERO PUSH2 0x2A3C JUMPI DUP1 DUP3 ADD MLOAD DUP2 DUP5 ADD MSTORE PUSH1 0x20 DUP2 ADD SWAP1 POP PUSH2 0x2A21 JUMP JUMPDEST PUSH0 DUP5 DUP5 ADD MSTORE POP POP POP POP JUMP JUMPDEST PUSH0 PUSH2 0x2A51 DUP3 PUSH2 0x2A05 JUMP JUMPDEST PUSH2 0x2A5B DUP2 DUP6 PUSH2 0x2A0F JUMP JUMPDEST SWAP4 POP PUSH2 0x2A6B DUP2 DUP6 PUSH1 0x20 DUP7 ADD PUSH2 0x2A1F JUMP JUMPDEST PUSH2 0x2A74 DUP2 PUSH2 0x2782 JUMP JUMPDEST DUP5 ADD SWAP2 POP POP SWAP3 SWAP2 POP POP JUMP JUMPDEST PUSH2 0x2A88 DUP2 PUSH2 0x28B6 JUMP JUMPDEST DUP3 MSTORE POP POP JUMP JUMPDEST PUSH2 0x2A97 DUP2 PUSH2 0x2627 JUMP JUMPDEST DUP3 MSTORE POP POP JUMP JUMPDEST PUSH2 0x2AA6 DUP2 PUSH2 0x265A JUMP JUMPDEST DUP3 MSTORE POP POP JUMP JUMPDEST PUSH0 PUSH1 0xC0 DUP4 ADD PUSH0 DUP4 ADD MLOAD DUP5 DUP3 SUB PUSH0 DUP7 ADD MSTORE PUSH2 0x2AC6 DUP3 DUP3 PUSH2 0x2A47 JUMP JUMPDEST SWAP2 POP POP PUSH1 0x20 DUP4 ADD MLOAD PUSH2 0x2ADB PUSH1 0x20 DUP7 ADD DUP3 PUSH2 0x2A7F JUMP JUMPDEST POP PUSH1 0x40 DUP4 ADD MLOAD PUSH2 0x2AEE PUSH1 0x40 DUP7 ADD DUP3 PUSH2 0x2A7F JUMP JUMPDEST POP PUSH1 0x60 DUP4 ADD MLOAD PUSH2 0x2B01 PUSH1 0x60 DUP7 ADD DUP3 PUSH2 0x2A8E JUMP JUMPDEST POP PUSH1 0x80 DUP4 ADD MLOAD PUSH2 0x2B14 PUSH1 0x80 DUP7 ADD DUP3 PUSH2 0x2A8E JUMP JUMPDEST POP PUSH1 0xA0 DUP4 ADD MLOAD PUSH2 0x2B27 PUSH1 0xA0 DUP7 ADD DUP3 PUSH2 0x2A9D JUMP JUMPDEST POP DUP1 SWAP2 POP POP SWAP3 SWAP2 POP POP JUMP JUMPDEST PUSH0 PUSH1 0x20 DUP3 ADD SWAP1 POP DUP2 DUP2 SUB PUSH0 DUP4 ADD MSTORE PUSH2 0x2B4A DUP2 DUP5 PUSH2 0x2AAC JUMP JUMPDEST SWAP1 POP SWAP3 SWAP2 POP POP JUMP JUMPDEST PUSH0 PUSH1 0x20 DUP3 DUP5 SUB SLT ISZERO PUSH2 0x2B67 JUMPI PUSH2 0x2B66 PUSH2 0x261F JUMP JUMPDEST JUMPDEST PUSH0 PUSH2 0x2B74 DUP5 DUP3 DUP6 ADD PUSH2 0x2646 JUMP JUMPDEST SWAP2 POP POP SWAP3 SWAP2 POP POP JUMP JUMPDEST PUSH2 0x2B86 DUP2 PUSH2 0x2627 JUMP JUMPDEST DUP3 MSTORE POP POP JUMP JUMPDEST PUSH0 PUSH1 0x20 DUP3 ADD SWAP1 POP PUSH2 0x2B9F PUSH0 DUP4 ADD DUP5 PUSH2 0x2B7D JUMP JUMPDEST SWAP3 SWAP2 POP POP JUMP JUMPDEST PUSH2 0x2BAE DUP2 PUSH2 0x26EC JUMP JUMPDEST DUP3 MSTORE POP POP JUMP JUMPDEST PUSH0 DUP3 DUP3 MSTORE PUSH1 0x20 DUP3 ADD SWAP1 POP SWAP3 SWAP2 POP POP JUMP JUMPDEST PUSH0 PUSH2 0x2BCE DUP3 PUSH2 0x2A05 JUMP JUMPDEST PUSH2 0x2BD8 DUP2 DUP6 PUSH2 0x2BB4 JUMP JUMPDEST SWAP4 POP PUSH2 0x2BE8 DUP2 DUP6 PUSH1 0x20 DUP7 ADD PUSH2 0x2A1F JUMP JUMPDEST PUSH2 0x2BF1 DUP2 PUSH2 0x2782 JUMP JUMPDEST DUP5 ADD SWAP2 POP POP SWAP3 SWAP2 POP POP JUMP JUMPDEST PUSH32 0x4E487B7100000000000000000000000000000000000000000000000000000000 PUSH0 MSTORE PUSH1 0x21 PUSH1 0x4 MSTORE PUSH1 0x24 PUSH0 REVERT JUMPDEST PUSH1 0x2 DUP2 LT PUSH2 0x2C3A JUMPI PUSH2 0x2C39 PUSH2 0x2BFC JUMP JUMPDEST JUMPDEST POP JUMP JUMPDEST PUSH0 DUP2 SWAP1 POP PUSH2 0x2C4A DUP3 PUSH2 0x2C29 JUMP JUMPDEST SWAP2 SWAP1 POP JUMP JUMPDEST PUSH0 PUSH2 0x2C59 DUP3 PUSH2 0x2C3D JUMP JUMPDEST SWAP1 POP SWAP2 SWAP1 POP JUMP JUMPDEST PUSH2 0x2C69 DUP2 PUSH2 0x2C4F JUMP JUMPDEST DUP3 MSTORE POP POP JUMP JUMPDEST PUSH0 PUSH2 0x120 DUP3 ADD SWAP1 POP PUSH2 0x2C83 PUSH0 DUP4 ADD DUP13 PUSH2 0x2B7D JUMP JUMPDEST PUSH2 0x2C90 PUSH1 0x20 DUP4 ADD DUP12 PUSH2 0x2BA5 JUMP JUMPDEST PUSH2 0x2C9D PUSH1 0x40 DUP4 ADD DUP11 PUSH2 0x2BA5 JUMP JUMPDEST PUSH2 0x2CAA PUSH1 0x60 DUP4 ADD DUP10 PUSH2 0x2B7D JUMP JUMPDEST PUSH2 0x2CB7 PUSH1 0x80 DUP4 ADD DUP9 PUSH2 0x2B7D JUMP JUMPDEST PUSH2 0x2CC4 PUSH1 0xA0 DUP4 ADD DUP8 PUSH2 0x2B7D JUMP JUMPDEST PUSH2 0x2CD1 PUSH1 0xC0 DUP4 ADD DUP7 PUSH2 0x2752 JUMP JUMPDEST DUP2 DUP2 SUB PUSH1 0xE0 DUP4 ADD MSTORE PUSH2 0x2CE3 DUP2 DUP6 PUSH2 0x2BC4 JUMP JUMPDEST SWAP1 POP PUSH2 0x2CF3 PUSH2 0x100 DUP4 ADD DUP5 PUSH2 0x2C60 JUMP JUMPDEST SWAP11 SWAP10 POP POP POP POP POP POP POP POP POP POP JUMP JUMPDEST PUSH0 DUP2 MLOAD SWAP1 POP SWAP2 SWAP1 POP JUMP JUMPDEST PUSH0 DUP3 DUP3 MSTORE PUSH1 0x20 DUP3 ADD SWAP1 POP SWAP3 SWAP2 POP POP JUMP JUMPDEST PUSH0 DUP2 SWAP1 POP PUSH1 0x20 DUP3 ADD SWAP1 POP SWAP2 SWAP1 POP JUMP JUMPDEST PUSH2 0x2D33 DUP2 PUSH2 0x26EC JUMP JUMPDEST DUP3 MSTORE POP POP JUMP JUMPDEST PUSH0 PUSH2 0x2D44 DUP4 DUP4 PUSH2 0x2D2A JUMP JUMPDEST PUSH1 0x20 DUP4 ADD SWAP1 POP SWAP3 SWAP2 POP POP JUMP JUMPDEST PUSH0 PUSH1 0x20 DUP3 ADD SWAP1 POP SWAP2 SWAP1 POP JUMP JUMPDEST PUSH0 PUSH2 0x2D66 DUP3 PUSH2 0x2D01 JUMP JUMPDEST PUSH2 0x2D70 DUP2 DUP6 PUSH2 0x2D0B JUMP JUMPDEST SWAP4 POP PUSH2 0x2D7B DUP4 PUSH2 0x2D1B JUMP JUMPDEST DUP1 PUSH0 JUMPDEST DUP4 DUP2 LT ISZERO PUSH2 0x2DAB JUMPI DUP2 MLOAD PUSH2 0x2D92 DUP9 DUP3 PUSH2 0x2D39 JUMP JUMPDEST SWAP8 POP PUSH2 0x2D9D DUP4 PUSH2 0x2D50 JUMP JUMPDEST SWAP3 POP POP PUSH1 0x1 DUP2 ADD SWAP1 POP PUSH2 0x2D7E JUMP JUMPDEST POP DUP6 SWAP4 POP POP POP POP SWAP3 SWAP2 POP POP JUMP JUMPDEST PUSH0 PUSH1 0x20 DUP3 ADD SWAP1 POP DUP2 DUP2 SUB PUSH0 DUP4 ADD MSTORE PUSH2 0x2DD0 DUP2 DUP5 PUSH2 0x2D5C JUMP JUMPDEST SWAP1 POP SWAP3 SWAP2 POP POP JUMP JUMPDEST PUSH2 0x2DE1 DUP2 PUSH2 0x28B6 JUMP JUMPDEST DUP3 MSTORE POP POP JUMP JUMPDEST PUSH0 PUSH1 0xC0 DUP3 ADD SWAP1 POP DUP2 DUP2 SUB PUSH0 DUP4 ADD MSTORE PUSH2 0x2DFF DUP2 DUP10 PUSH2 0x2BC4 JUMP JUMPDEST SWAP1 POP PUSH2 0x2E0E PUSH1 0x20 DUP4 ADD DUP9 PUSH2 0x2DD8 JUMP JUMPDEST PUSH2 0x2E1B PUSH1 0x40 DUP4 ADD DUP8 PUSH2 0x2DD8 JUMP JUMPDEST PUSH2 0x2E28 PUSH1 0x60 DUP4 ADD DUP7 PUSH2 0x2B7D JUMP JUMPDEST PUSH2 0x2E35 PUSH1 0x80 DUP4 ADD DUP6 PUSH2 0x2B7D JUMP JUMPDEST PUSH2 0x2E42 PUSH1 0xA0 DUP4 ADD DUP5 PUSH2 0x2752 JUMP JUMPDEST SWAP8 SWAP7 POP POP POP POP POP POP POP JUMP JUMPDEST PUSH0 DUP2 MLOAD SWAP1 POP SWAP2 SWAP1 POP JUMP JUMPDEST PUSH0 DUP3 DUP3 MSTORE PUSH1 0x20 DUP3 ADD SWAP1 POP SWAP3 SWAP2 POP POP JUMP JUMPDEST PUSH0 DUP2 SWAP1 POP PUSH1 0x20 DUP3 ADD SWAP1 POP SWAP2 SWAP1 POP JUMP JUMPDEST PUSH2 0x2E7F DUP2 PUSH2 0x2C4F JUMP JUMPDEST DUP3 MSTORE POP POP JUMP JUMPDEST PUSH0 PUSH2 0x120 DUP4 ADD PUSH0 DUP4 ADD MLOAD PUSH2 0x2E9B PUSH0 DUP7 ADD DUP3 PUSH2 0x2A8E JUMP JUMPDEST POP PUSH1 0x20 DUP4 ADD MLOAD PUSH2 0x2EAE PUSH1 0x20 DUP7 ADD DUP3 PUSH2 0x2D2A JUMP JUMPDEST POP PUSH1 0x40 DUP4 ADD MLOAD PUSH2 0x2EC1 PUSH1 0x40 DUP7 ADD DUP3 PUSH2 0x2D2A JUMP JUMPDEST POP PUSH1 0x60 DUP4 ADD MLOAD PUSH2 0x2ED4 PUSH1 0x60 DUP7 ADD DUP3 PUSH2 0x2A8E JUMP JUMPDEST POP PUSH1 0x80 DUP4 ADD MLOAD PUSH2 0x2EE7 PUSH1 0x80 DUP7 ADD DUP3 PUSH2 0x2A8E JUMP JUMPDEST POP PUSH1 0xA0 DUP4 ADD MLOAD PUSH2 0x2EFA PUSH1 0xA0 DUP7 ADD DUP3 PUSH2 0x2A8E JUMP JUMPDEST POP PUSH1 0xC0 DUP4 ADD MLOAD PUSH2 0x2F0D PUSH1 0xC0 DUP7 ADD DUP3 PUSH2 0x2A9D JUMP JUMPDEST POP PUSH1 0xE0 DUP4 ADD MLOAD DUP5 DUP3 SUB PUSH1 0xE0 DUP7 ADD MSTORE PUSH2 0x2F25 DUP3 DUP3 PUSH2 0x2A47 JUMP JUMPDEST SWAP2 POP POP PUSH2 0x100 DUP4 ADD MLOAD PUSH2 0x2F3C PUSH2 0x100 DUP7 ADD DUP3 PUSH2 0x2E76 JUMP JUMPDEST POP DUP1 SWAP2 POP POP SWAP3 SWAP2 POP POP JUMP JUMPDEST PUSH0 PUSH2 0x2F52 DUP4 DUP4 PUSH2 0x2E85 JUMP JUMPDEST SWAP1 POP SWAP3 SWAP2 POP POP JUMP JUMPDEST PUSH0 PUSH1 0x20 DUP3 ADD SWAP1 POP SWAP2 SWAP1 POP JUMP JUMPDEST PUSH0 PUSH2 0x2F70 DUP3 PUSH2 0x2E4D JUMP JUMPDEST PUSH2 0x2F7A DUP2 DUP6 PUSH2 0x2E57 JUMP JUMPDEST SWAP4 POP DUP4 PUSH1 0x20 DUP3 MUL DUP6 ADD PUSH2 0x2F8C DUP6 PUSH2 0x2E67 JUMP JUMPDEST DUP1 PUSH0 JUMPDEST DUP6 DUP2 LT ISZERO PUSH2 0x2FC7 JUMPI DUP5 DUP5 SUB DUP10 MSTORE DUP2 MLOAD PUSH2 0x2FA8 DUP6 DUP3 PUSH2 0x2F47 JUMP JUMPDEST SWAP5 POP PUSH2 0x2FB3 DUP4 PUSH2 0x2F5A JUMP JUMPDEST SWAP3 POP PUSH1 0x20 DUP11 ADD SWAP10 POP POP PUSH1 0x1 DUP2 ADD SWAP1 POP PUSH2 0x2F8F JUMP JUMPDEST POP DUP3 SWAP8 POP DUP8 SWAP6 POP POP POP POP POP POP SWAP3 SWAP2 POP POP JUMP JUMPDEST PUSH0 PUSH1 0x20 DUP3 ADD SWAP1 POP DUP2 DUP2 SUB PUSH0 DUP4 ADD MSTORE PUSH2 0x2FF1 DUP2 DUP5 PUSH2 0x2F66 JUMP JUMPDEST SWAP1 POP SWAP3 SWAP2 POP POP JUMP JUMPDEST PUSH0 DUP1 PUSH1 0x40 DUP4 DUP6 SUB SLT ISZERO PUSH2 0x300F JUMPI PUSH2 0x300E PUSH2 0x261F JUMP JUMPDEST JUMPDEST PUSH0 PUSH2 0x301C DUP6 DUP3 DUP7 ADD PUSH2 0x2713 JUMP JUMPDEST SWAP3 POP POP PUSH1 0x20 PUSH2 0x302D DUP6 DUP3 DUP7 ADD PUSH2 0x2646 JUMP JUMPDEST SWAP2 POP POP SWAP3 POP SWAP3 SWAP1 POP JUMP JUMPDEST PUSH0 DUP2 MLOAD SWAP1 POP SWAP2 SWAP1 POP JUMP JUMPDEST PUSH0 DUP3 DUP3 MSTORE PUSH1 0x20 DUP3 ADD SWAP1 POP SWAP3 SWAP2 POP POP JUMP JUMPDEST PUSH0 DUP2 SWAP1 POP PUSH1 0x20 DUP3 ADD SWAP1 POP SWAP2 SWAP1 POP JUMP JUMPDEST PUSH0 PUSH1 0xC0 DUP4 ADD PUSH0 DUP4 ADD MLOAD DUP5 DUP3 SUB PUSH0 DUP7 ADD MSTORE PUSH2 0x307A DUP3 DUP3 PUSH2 0x2A47 JUMP JUMPDEST SWAP2 POP POP PUSH1 0x20 DUP4 ADD MLOAD PUSH2 0x308F PUSH1 0x20 DUP7 ADD DUP3 PUSH2 0x2A7F JUMP JUMPDEST POP PUSH1 0x40 DUP4 ADD MLOAD PUSH2 0x30A2 PUSH1 0x40 DUP7 ADD DUP3 PUSH2 0x2A7F JUMP JUMPDEST POP PUSH1 0x60 DUP4 ADD MLOAD PUSH2 0x30B5 PUSH1 0x60 DUP7 ADD DUP3 PUSH2 0x2A8E JUMP JUMPDEST POP PUSH1 0x80 DUP4 ADD MLOAD PUSH2 0x30C8 PUSH1 0x80 DUP7 ADD DUP3 PUSH2 0x2A8E JUMP JUMPDEST POP PUSH1 0xA0 DUP4 ADD MLOAD PUSH2 0x30DB PUSH1 0xA0 DUP7 ADD DUP3 PUSH2 0x2A9D JUMP JUMPDEST POP DUP1 SWAP2 POP POP SWAP3 SWAP2 POP POP JUMP JUMPDEST PUSH0 PUSH2 0x30F1 DUP4 DUP4 PUSH2 0x3060 JUMP JUMPDEST SWAP1 POP SWAP3 SWAP2 POP POP JUMP JUMPDEST PUSH0 PUSH1 0x20 DUP3 ADD SWAP1 POP SWAP2 SWAP1 POP JUMP JUMPDEST PUSH0 PUSH2 0x310F DUP3 PUSH2 0x3037 JUMP JUMPDEST PUSH2 0x3119 DUP2 DUP6 PUSH2 0x3041 JUMP JUMPDEST SWAP4 POP DUP4 PUSH1 0x20 DUP3 MUL DUP6 ADD PUSH2 0x312B DUP6 PUSH2 0x3051 JUMP JUMPDEST DUP1 PUSH0 JUMPDEST DUP6 DUP2 LT ISZERO PUSH2 0x3166 JUMPI DUP5 DUP5 SUB DUP10 MSTORE DUP2 MLOAD PUSH2 0x3147 DUP6 DUP3 PUSH2 0x30E6 JUMP JUMPDEST SWAP5 POP PUSH2 0x3152 DUP4 PUSH2 0x30F9 JUMP JUMPDEST SWAP3 POP PUSH1 0x20 DUP11 ADD SWAP10 POP POP PUSH1 0x1 DUP2 ADD SWAP1 POP PUSH2 0x312E JUMP JUMPDEST POP DUP3 SWAP8 POP DUP8 SWAP6 POP POP POP POP POP POP SWAP3 SWAP2 POP POP JUMP JUMPDEST PUSH0 PUSH1 0x20 DUP3 ADD SWAP1 POP DUP2 DUP2 SUB PUSH0 DUP4 ADD MSTORE PUSH2 0x3190 DUP2 DUP5 PUSH2 0x3105 JUMP JUMPDEST SWAP1 POP SWAP3 SWAP2 POP POP JUMP JUMPDEST PUSH0 PUSH1 0x20 DUP3 ADD SWAP1 POP PUSH2 0x31AB PUSH0 DUP4 ADD DUP5 PUSH2 0x2BA5 JUMP JUMPDEST SWAP3 SWAP2 POP POP JUMP JUMPDEST PUSH32 0x5472616E73616374696F6E20646F6573206E6F742065786973742E0000000000 PUSH0 DUP3 ADD MSTORE POP JUMP JUMPDEST PUSH0 PUSH2 0x31E5 PUSH1 0x1B DUP4 PUSH2 0x2BB4 JUMP JUMPDEST SWAP2 POP PUSH2 0x31F0 DUP3 PUSH2 0x31B1 JUMP JUMPDEST PUSH1 0x20 DUP3 ADD SWAP1 POP SWAP2 SWAP1 POP JUMP JUMPDEST PUSH0 PUSH1 0x20 DUP3 ADD SWAP1 POP DUP2 DUP2 SUB PUSH0 DUP4 ADD MSTORE PUSH2 0x3212 DUP2 PUSH2 0x31D9 JUMP JUMPDEST SWAP1 POP SWAP2 SWAP1 POP JUMP JUMPDEST PUSH32 0x5472616E73616374696F6E20616C726561647920636F6D6D69747465642E0000 PUSH0 DUP3 ADD MSTORE POP JUMP JUMPDEST PUSH0 PUSH2 0x324D PUSH1 0x1E DUP4 PUSH2 0x2BB4 JUMP JUMPDEST SWAP2 POP PUSH2 0x3258 DUP3 PUSH2 0x3219 JUMP JUMPDEST PUSH1 0x20 DUP3 ADD SWAP1 POP SWAP2 SWAP1 POP JUMP JUMPDEST PUSH0 PUSH1 0x20 DUP3 ADD SWAP1 POP DUP2 DUP2 SUB PUSH0 DUP4 ADD MSTORE PUSH2 0x327A DUP2 PUSH2 0x3241 JUMP JUMPDEST SWAP1 POP SWAP2 SWAP1 POP JUMP JUMPDEST PUSH32 0x4E487B7100000000000000000000000000000000000000000000000000000000 PUSH0 MSTORE PUSH1 0x22 PUSH1 0x4 MSTORE PUSH1 0x24 PUSH0 REVERT JUMPDEST PUSH0 PUSH1 0x2 DUP3 DIV SWAP1 POP PUSH1 0x1 DUP3 AND DUP1 PUSH2 0x32C5 JUMPI PUSH1 0x7F DUP3 AND SWAP2 POP JUMPDEST PUSH1 0x20 DUP3 LT DUP2 SUB PUSH2 0x32D8 JUMPI PUSH2 0x32D7 PUSH2 0x3281 JUMP JUMPDEST JUMPDEST POP SWAP2 SWAP1 POP JUMP JUMPDEST PUSH0 DUP2 SWAP1 POP DUP2 PUSH0 MSTORE PUSH1 0x20 PUSH0 KECCAK256 SWAP1 POP SWAP2 SWAP1 POP JUMP JUMPDEST PUSH0 PUSH1 0x20 PUSH1 0x1F DUP4 ADD DIV SWAP1 POP SWAP2 SWAP1 POP JUMP JUMPDEST PUSH0 DUP3 DUP3 SHL SWAP1 POP SWAP3 SWAP2 POP POP JUMP JUMPDEST PUSH0 PUSH1 0x8 DUP4 MUL PUSH2 0x333A PUSH32 0xFFFFFFFFFFFFFFFFFFFFFFFFFFFFFFFFFFFFFFFFFFFFFFFFFFFFFFFFFFFFFFFF DUP3 PUSH2 0x32FF JUMP JUMPDEST PUSH2 0x3344 DUP7 DUP4 PUSH2 0x32FF JUMP JUMPDEST SWAP6 POP DUP1 NOT DUP5 AND SWAP4 POP DUP1 DUP7 AND DUP5 OR SWAP3 POP POP POP SWAP4 SWAP3 POP POP POP JUMP JUMPDEST PUSH0 DUP2 SWAP1 POP SWAP2 SWAP1 POP JUMP JUMPDEST PUSH0 PUSH2 0x337F PUSH2 0x337A PUSH2 0x3375 DUP5 PUSH2 0x2627 JUMP JUMPDEST PUSH2 0x335C JUMP JUMPDEST PUSH2 0x2627 JUMP JUMPDEST SWAP1 POP SWAP2 SWAP1 POP JUMP JUMPDEST PUSH0 DUP2 SWAP1 POP SWAP2 SWAP1 POP JUMP JUMPDEST PUSH2 0x3398 DUP4 PUSH2 0x3365 JUMP JUMPDEST PUSH2 0x33AC PUSH2 0x33A4 DUP3 PUSH2 0x3386 JUMP JUMPDEST DUP5 DUP5 SLOAD PUSH2 0x330B JUMP JUMPDEST DUP3 SSTORE POP POP POP POP JUMP JUMPDEST PUSH0 SWAP1 JUMP JUMPDEST PUSH2 0x33C0 PUSH2 0x33B4 JUMP JUMPDEST PUSH2 0x33CB DUP2 DUP5 DUP5 PUSH2 0x338F JUMP JUMPDEST POP POP POP JUMP JUMPDEST JUMPDEST DUP2 DUP2 LT ISZERO PUSH2 0x33EE JUMPI PUSH2 0x33E3 PUSH0 DUP3 PUSH2 0x33B8 JUMP JUMPDEST PUSH1 0x1 DUP2 ADD SWAP1 POP PUSH2 0x33D1 JUMP JUMPDEST POP POP JUMP JUMPDEST PUSH1 0x1F DUP3 GT ISZERO PUSH2 0x3433 JUMPI PUSH2 0x3404 DUP2 PUSH2 0x32DE JUMP JUMPDEST PUSH2 0x340D DUP5 PUSH2 0x32F0 JUMP JUMPDEST DUP2 ADD PUSH1 0x20 DUP6 LT ISZERO PUSH2 0x341C JUMPI DUP2 SWAP1 POP JUMPDEST PUSH2 0x3430 PUSH2 0x3428 DUP6 PUSH2 0x32F0 JUMP JUMPDEST DUP4 ADD DUP3 PUSH2 0x33D0 JUMP JUMPDEST POP POP JUMPDEST POP POP POP JUMP JUMPDEST PUSH0 DUP3 DUP3 SHR SWAP1 POP SWAP3 SWAP2 POP POP JUMP JUMPDEST PUSH0 PUSH2 0x3453 PUSH0 NOT DUP5 PUSH1 0x8 MUL PUSH2 0x3438 JUMP JUMPDEST NOT DUP1 DUP4 AND SWAP2 POP POP SWAP3 SWAP2 POP POP JUMP JUMPDEST PUSH0 PUSH2 0x346B DUP4 DUP4 PUSH2 0x3444 JUMP JUMPDEST SWAP2 POP DUP3 PUSH1 0x2 MUL DUP3 OR SWAP1 POP SWAP3 SWAP2 POP POP JUMP JUMPDEST PUSH2 0x3484 DUP3 PUSH2 0x2A05 JUMP JUMPDEST PUSH8 0xFFFFFFFFFFFFFFFF DUP2 GT ISZERO PUSH2 0x349D JUMPI PUSH2 0x349C PUSH2 0x2792 JUMP JUMPDEST JUMPDEST PUSH2 0x34A7 DUP3 SLOAD PUSH2 0x32AE JUMP JUMPDEST PUSH2 0x34B2 DUP3 DUP3 DUP6 PUSH2 0x33F2 JUMP JUMPDEST PUSH0 PUSH1 0x20 SWAP1 POP PUSH1 0x1F DUP4 GT PUSH1 0x1 DUP2 EQ PUSH2 0x34E3 JUMPI PUSH0 DUP5 ISZERO PUSH2 0x34D1 JUMPI DUP3 DUP8 ADD MLOAD SWAP1 POP JUMPDEST PUSH2 0x34DB DUP6 DUP3 PUSH2 0x3460 JUMP JUMPDEST DUP7 SSTORE POP PUSH2 0x3542 JUMP JUMPDEST PUSH1 0x1F NOT DUP5 AND PUSH2 0x34F1 DUP7 PUSH2 0x32DE JUMP JUMPDEST PUSH0 JUMPDEST DUP3 DUP2 LT ISZERO PUSH2 0x3518 JUMPI DUP5 DUP10 ADD MLOAD DUP3 SSTORE PUSH1 0x1 DUP3 ADD SWAP2 POP PUSH1 0x20 DUP6 ADD SWAP5 POP PUSH1 0x20 DUP2 ADD SWAP1 POP PUSH2 0x34F3 JUMP JUMPDEST DUP7 DUP4 LT ISZERO PUSH2 0x3535 JUMPI DUP5 DUP10 ADD MLOAD PUSH2 0x3531 PUSH1 0x1F DUP10 AND DUP3 PUSH2 0x3444 JUMP JUMPDEST DUP4 SSTORE POP JUMPDEST PUSH1 0x1 PUSH1 0x2 DUP9 MUL ADD DUP9 SSTORE POP POP POP JUMPDEST POP POP POP POP POP POP JUMP JUMPDEST PUSH32 0x52656A65637465642064756520746F2065787069726174696F6E000000000000 PUSH0 DUP3 ADD MSTORE POP JUMP JUMPDEST PUSH0 PUSH2 0x357E PUSH1 0x1A DUP4 PUSH2 0x2BB4 JUMP JUMPDEST SWAP2 POP PUSH2 0x3589 DUP3 PUSH2 0x354A JUMP JUMPDEST PUSH1 0x20 DUP3 ADD SWAP1 POP SWAP2 SWAP1 POP JUMP JUMPDEST PUSH0 PUSH1 0x60 DUP3 ADD SWAP1 POP PUSH2 0x35A7 PUSH0 DUP4 ADD DUP6 PUSH2 0x2B7D JUMP JUMPDEST PUSH2 0x35B4 PUSH1 0x20 DUP4 ADD DUP5 PUSH2 0x2752 JUMP JUMPDEST DUP2 DUP2 SUB PUSH1 0x40 DUP4 ADD MSTORE PUSH2 0x35C5 DUP2 PUSH2 0x3572 JUMP JUMPDEST SWAP1 POP SWAP4 SWAP3 POP POP POP JUMP JUMPDEST PUSH32 0x4E487B7100000000000000000000000000000000000000000000000000000000 PUSH0 MSTORE PUSH1 0x11 PUSH1 0x4 MSTORE PUSH1 0x24 PUSH0 REVERT JUMPDEST PUSH0 PUSH2 0x3605 DUP3 PUSH2 0x2627 JUMP JUMPDEST SWAP2 POP PUSH2 0x3610 DUP4 PUSH2 0x2627 JUMP JUMPDEST SWAP3 POP DUP3 DUP3 SUB SWAP1 POP DUP2 DUP2 GT ISZERO PUSH2 0x3628 JUMPI PUSH2 0x3627 PUSH2 0x35CE JUMP JUMPDEST JUMPDEST SWAP3 SWAP2 POP POP JUMP JUMPDEST PUSH0 PUSH2 0x3638 DUP3 PUSH2 0x2627 JUMP JUMPDEST SWAP2 POP PUSH2 0x3643 DUP4 PUSH2 0x2627 JUMP JUMPDEST SWAP3 POP DUP3 DUP3 ADD SWAP1 POP DUP1 DUP3 GT ISZERO PUSH2 0x365B JUMPI PUSH2 0x365A PUSH2 0x35CE JUMP JUMPDEST JUMPDEST SWAP3 SWAP2 POP POP JUMP JUMPDEST PUSH0 DUP2 SLOAD PUSH2 0x366D DUP2 PUSH2 0x32AE JUMP JUMPDEST PUSH2 0x3677 DUP2 DUP7 PUSH2 0x2BB4 JUMP JUMPDEST SWAP5 POP PUSH1 0x1 DUP3 AND PUSH0 DUP2 EQ PUSH2 0x3691 JUMPI PUSH1 0x1 DUP2 EQ PUSH2 0x36A7 JUMPI PUSH2 0x36D9 JUMP JUMPDEST PUSH1 0xFF NOT DUP4 AND DUP7 MSTORE DUP2 ISZERO ISZERO PUSH1 0x20 MUL DUP7 ADD SWAP4 POP PUSH2 0x36D9 JUMP JUMPDEST PUSH2 0x36B0 DUP6 PUSH2 0x32DE JUMP JUMPDEST PUSH0 JUMPDEST DUP4 DUP2 LT ISZERO PUSH2 0x36D1 JUMPI DUP2 SLOAD DUP2 DUP10 ADD MSTORE PUSH1 0x1 DUP3 ADD SWAP2 POP PUSH1 0x20 DUP2 ADD SWAP1 POP PUSH2 0x36B2 JUMP JUMPDEST DUP1 DUP9 ADD SWAP6 POP POP POP JUMPDEST POP POP POP SWAP3 SWAP2 POP POP JUMP JUMPDEST PUSH0 PUSH1 0x60 DUP3 ADD SWAP1 POP PUSH2 0x36F5 PUSH0 DUP4 ADD DUP7 PUSH2 0x2B7D JUMP JUMPDEST PUSH2 0x3702 PUSH1 0x20 DUP4 ADD DUP6 PUSH2 0x2752 JUMP JUMPDEST DUP2 DUP2 SUB PUSH1 0x40 DUP4 ADD MSTORE PUSH2 0x3714 DUP2 DUP5 PUSH2 0x3661 JUMP JUMPDEST SWAP1 POP SWAP5 SWAP4 POP POP POP POP JUMP JUMPDEST PUSH32 0x5573657220616C726561647920726567697374657265642E0000000000000000 PUSH0 DUP3 ADD MSTORE POP JUMP JUMPDEST PUSH0 PUSH2 0x3752 PUSH1 0x18 DUP4 PUSH2 0x2BB4 JUMP JUMPDEST SWAP2 POP PUSH2 0x375D DUP3 PUSH2 0x371E JUMP JUMPDEST PUSH1 0x20 DUP3 ADD SWAP1 POP SWAP2 SWAP1 POP JUMP JUMPDEST PUSH0 PUSH1 0x20 DUP3 ADD SWAP1 POP DUP2 DUP2 SUB PUSH0 DUP4 ADD MSTORE PUSH2 0x377F DUP2 PUSH2 0x3746 JUMP JUMPDEST SWAP1 POP SWAP2 SWAP1 POP JUMP JUMPDEST PUSH0 PUSH1 0xA0 DUP3 ADD SWAP1 POP DUP2 DUP2 SUB PUSH0 DUP4 ADD MSTORE PUSH2 0x379E DUP2 DUP9 PUSH2 0x2BC4 JUMP JUMPDEST SWAP1 POP PUSH2 0x37AD PUSH1 0x20 DUP4 ADD DUP8 PUSH2 0x2DD8 JUMP JUMPDEST PUSH2 0x37BA PUSH1 0x40 DUP4 ADD DUP7 PUSH2 0x2DD8 JUMP JUMPDEST PUSH2 0x37C7 PUSH1 0x60 DUP4 ADD DUP6 PUSH2 0x2B7D JUMP JUMPDEST PUSH2 0x37D4 PUSH1 0x80 DUP4 ADD DUP5 PUSH2 0x2B7D JUMP JUMPDEST SWAP7 SWAP6 POP POP POP POP POP POP JUMP JUMPDEST PUSH32 0x55736572206973206E6F7420726567697374657265642E000000000000000000 PUSH0 DUP3 ADD MSTORE POP JUMP JUMPDEST PUSH0 PUSH2 0x3812 PUSH1 0x17 DUP4 PUSH2 0x2BB4 JUMP JUMPDEST SWAP2 POP PUSH2 0x381D DUP3 PUSH2 0x37DE JUMP JUMPDEST PUSH1 0x20 DUP3 ADD SWAP1 POP SWAP2 SWAP1 POP JUMP JUMPDEST PUSH0 PUSH1 0x20 DUP3 ADD SWAP1 POP DUP2 DUP2 SUB PUSH0 DUP4 ADD MSTORE PUSH2 0x383F DUP2 PUSH2 0x3806 JUMP JUMPDEST SWAP1 POP SWAP2 SWAP1 POP JUMP JUMPDEST PUSH32 0x496E69746961746F72206973206E6F7420726567697374657265642E00000000 PUSH0 DUP3 ADD MSTORE POP JUMP JUMPDEST PUSH0 PUSH2 0x387A PUSH1 0x1C DUP4 PUSH2 0x2BB4 JUMP JUMPDEST SWAP2 POP PUSH2 0x3885 DUP3 PUSH2 0x3846 JUMP JUMPDEST PUSH1 0x20 DUP3 ADD SWAP1 POP SWAP2 SWAP1 POP JUMP JUMPDEST PUSH0 PUSH1 0x20 DUP3 ADD SWAP1 POP DUP2 DUP2 SUB PUSH0 DUP4 ADD MSTORE PUSH2 0x38A7 DUP2 PUSH2 0x386E JUMP JUMPDEST SWAP1 POP SWAP2 SWAP1 POP JUMP JUMPDEST PUSH32 0x5265636569766572206973206E6F7420726567697374657265642E0000000000 PUSH0 DUP3 ADD MSTORE POP JUMP JUMPDEST PUSH0 PUSH2 0x38E2 PUSH1 0x1B DUP4 PUSH2 0x2BB4 JUMP JUMPDEST SWAP2 POP PUSH2 0x38ED DUP3 PUSH2 0x38AE JUMP JUMPDEST PUSH1 0x20 DUP3 ADD SWAP1 POP SWAP2 SWAP1 POP JUMP JUMPDEST PUSH0 PUSH1 0x20 DUP3 ADD SWAP1 POP DUP2 DUP2 SUB PUSH0 DUP4 ADD MSTORE PUSH2 0x390F DUP2 PUSH2 0x38D6 JUMP JUMPDEST SWAP1 POP SWAP2 SWAP1 POP JUMP JUMPDEST PUSH32 0x5472616E73616374696F6E2065787069726174696F6E206D7573742062652069 PUSH0 DUP3 ADD MSTORE PUSH32 0x6E20746865206675747572652E00000000000000000000000000000000000000 PUSH1 0x20 DUP3 ADD MSTORE POP JUMP JUMPDEST PUSH0 PUSH2 0x3970 PUSH1 0x2D DUP4 PUSH2 0x2BB4 JUMP JUMPDEST SWAP2 POP PUSH2 0x397B DUP3 PUSH2 0x3916 JUMP JUMPDEST PUSH1 0x40 DUP3 ADD SWAP1 POP SWAP2 SWAP1 POP JUMP JUMPDEST PUSH0 PUSH1 0x20 DUP3 ADD SWAP1 POP DUP2 DUP2 SUB PUSH0 DUP4 ADD MSTORE PUSH2 0x399D DUP2 PUSH2 0x3964 JUMP JUMPDEST SWAP1 POP SWAP2 SWAP1 POP JUMP JUMPDEST PUSH32 0x53656E6465722068617320696E73756666696369656E7420746F6B656E732066 PUSH0 DUP3 ADD MSTORE PUSH32 0x6F72207472616E73616374696F6E2E0000000000000000000000000000000000 PUSH1 0x20 DUP3 ADD MSTORE POP JUMP JUMPDEST PUSH0 PUSH2 0x39FE PUSH1 0x2F DUP4 PUSH2 0x2BB4 JUMP JUMPDEST SWAP2 POP PUSH2 0x3A09 DUP3 PUSH2 0x39A4 JUMP JUMPDEST PUSH1 0x40 DUP3 ADD SWAP1 POP SWAP2 SWAP1 POP JUMP JUMPDEST PUSH0 PUSH1 0x20 DUP3 ADD SWAP1 POP DUP2 DUP2 SUB PUSH0 DUP4 ADD MSTORE PUSH2 0x3A2B DUP2 PUSH2 0x39F2 JUMP JUMPDEST SWAP1 POP SWAP2 SWAP1 POP JUMP JUMPDEST PUSH32 0x526563656976657220646F6573206E6F74206861766520656E6F75676820656E PUSH0 DUP3 ADD MSTORE PUSH32 0x657267792E000000000000000000000000000000000000000000000000000000 PUSH1 0x20 DUP3 ADD MSTORE POP JUMP JUMPDEST PUSH0 PUSH2 0x3A8C PUSH1 0x25 DUP4 PUSH2 0x2BB4 JUMP JUMPDEST SWAP2 POP PUSH2 0x3A97 DUP3 PUSH2 0x3A32 JUMP JUMPDEST PUSH1 0x40 DUP3 ADD SWAP1 POP SWAP2 SWAP1 POP JUMP JUMPDEST PUSH0 PUSH1 0x20 DUP3 ADD SWAP1 POP DUP2 DUP2 SUB PUSH0 DUP4 ADD MSTORE PUSH2 0x3AB9 DUP2 PUSH2 0x3A80 JUMP JUMPDEST SWAP1 POP SWAP2 SWAP1 POP JUMP JUMPDEST PUSH32 0x53656E6465722068617320696E73756666696369656E7420656E657267792066 PUSH0 DUP3 ADD MSTORE PUSH32 0x6F72207472616E73616374696F6E2E0000000000000000000000000000000000 PUSH1 0x20 DUP3 ADD MSTORE POP JUMP JUMPDEST PUSH0 PUSH2 0x3B1A PUSH1 0x2F DUP4 PUSH2 0x2BB4 JUMP JUMPDEST SWAP2 POP PUSH2 0x3B25 DUP3 PUSH2 0x3AC0 JUMP JUMPDEST PUSH1 0x40 DUP3 ADD SWAP1 POP SWAP2 SWAP1 POP JUMP JUMPDEST PUSH0 PUSH1 0x20 DUP3 ADD SWAP1 POP DUP2 DUP2 SUB PUSH0 DUP4 ADD MSTORE PUSH2 0x3B47 DUP2 PUSH2 0x3B0E JUMP JUMPDEST SWAP1 POP SWAP2 SWAP1 POP JUMP JUMPDEST PUSH32 0x52656365697665722068617320696E73756666696369656E7420746F6B656E73 PUSH0 DUP3 ADD MSTORE PUSH32 0x20746F2062757920656E657267792E0000000000000000000000000000000000 PUSH1 0x20 DUP3 ADD MSTORE POP JUMP JUMPDEST PUSH0 PUSH2 0x3BA8 PUSH1 0x2F DUP4 PUSH2 0x2BB4 JUMP JUMPDEST SWAP2 POP PUSH2 0x3BB3 DUP3 PUSH2 0x3B4E JUMP JUMPDEST PUSH1 0x40 DUP3 ADD SWAP1 POP SWAP2 SWAP1 POP JUMP JUMPDEST PUSH0 PUSH1 0x20 DUP3 ADD SWAP1 POP DUP2 DUP2 SUB PUSH0 DUP4 ADD MSTORE PUSH2 0x3BD5 DUP2 PUSH2 0x3B9C JUMP JUMPDEST SWAP1 POP SWAP2 SWAP1 POP JUMP JUMPDEST PUSH0 PUSH2 0x3BE6 DUP3 PUSH2 0x2627 JUMP JUMPDEST SWAP2 POP PUSH32 0xFFFFFFFFFFFFFFFFFFFFFFFFFFFFFFFFFFFFFFFFFFFFFFFFFFFFFFFFFFFFFFFF DUP3 SUB PUSH2 0x3C18 JUMPI PUSH2 0x3C17 PUSH2 0x35CE JUMP JUMPDEST JUMPDEST PUSH1 0x1 DUP3 ADD SWAP1 POP SWAP2 SWAP1 POP JUMP JUMPDEST PUSH0 PUSH1 0x60 DUP3 ADD SWAP1 POP PUSH2 0x3C36 PUSH0 DUP4 ADD DUP7 PUSH2 0x2B7D JUMP JUMPDEST PUSH2 0x3C43 PUSH1 0x20 DUP4 ADD DUP6 PUSH2 0x2BA5 JUMP JUMPDEST PUSH2 0x3C50 PUSH1 0x40 DUP4 ADD DUP5 PUSH2 0x2C60 JUMP JUMPDEST SWAP5 SWAP4 POP POP POP POP JUMP JUMPDEST PUSH32 0x4F6E6C792061646D696E2063616E2063616C6C20746869732E00000000000000 PUSH0 DUP3 ADD MSTORE POP JUMP JUMPDEST PUSH0 PUSH2 0x3C8C PUSH1 0x19 DUP4 PUSH2 0x2BB4 JUMP JUMPDEST SWAP2 POP PUSH2 0x3C97 DUP3 PUSH2 0x3C58 JUMP JUMPDEST PUSH1 0x20 DUP3 ADD SWAP1 POP SWAP2 SWAP1 POP JUMP JUMPDEST PUSH0 PUSH1 0x20 DUP3 ADD SWAP1 POP DUP2 DUP2 SUB PUSH0 DUP4 ADD MSTORE PUSH2 0x3CB9 DUP2 PUSH2 0x3C80 JUMP JUMPDEST SWAP1 POP SWAP2 SWAP1 POP JUMP JUMPDEST PUSH32 0x4E487B7100000000000000000000000000000000000000000000000000000000 PUSH0 MSTORE PUSH1 0x32 PUSH1 0x4 MSTORE PUSH1 0x24 PUSH0 REVERT JUMPDEST PUSH32 0x4E487B7100000000000000000000000000000000000000000000000000000000 PUSH0 MSTORE PUSH1 0x31 PUSH1 0x4 MSTORE PUSH1 0x24 PUSH0 REVERT JUMPDEST PUSH32 0x557365722061646472657373206E6F7420666F756E642E000000000000000000 PUSH0 DUP3 ADD MSTORE POP JUMP JUMPDEST PUSH0 PUSH2 0x3D4E PUSH1 0x17 DUP4 PUSH2 0x2BB4 JUMP JUMPDEST SWAP2 POP PUSH2 0x3D59 DUP3 PUSH2 0x3D1A JUMP JUMPDEST PUSH1 0x20 DUP3 ADD SWAP1 POP SWAP2 SWAP1 POP JUMP JUMPDEST PUSH0 PUSH1 0x20 DUP3 ADD SWAP1 POP DUP2 DUP2 SUB PUSH0 DUP4 ADD MSTORE PUSH2 0x3D7B DUP2 PUSH2 0x3D42 JUMP JUMPDEST SWAP1 POP SWAP2 SWAP1 POP JUMP INVALID LOG2 PUSH5 0x6970667358 0x22 SLT KECCAK256 0xD5 MULMOD 0xD CALLCODE PUSH17 0x5BBF8165C01FE36F1F07298F0D19914824 0xD6 0x4E 0xCF STOP SELFBALANCE CALL PUSH7 0xFEE26E64736F6C PUSH4 0x43000818 STOP CALLER "
				},
				"gasEstimates": {
					"creation": {
						"codeDepositCost": "3160000",
						"executionCost": "49860",
						"totalCost": "3209860"
					},
					"external": {
						"admin()": "2618",
						"commitTransaction(uint256,bool)": "infinite",
						"deleteUser(address)": "infinite",
						"getAllCommittedTransactions()": "infinite",
						"getAllPendingTransactions()": "infinite",
						"getAllUsersInfo()": "infinite",
						"getNumberOfNotCommittedTransactions()": "2506",
						"getUserAddresses()": "infinite",
						"getUserInfo(address)": "infinite",
						"initiateTransaction(address,address,uint256,uint256,uint256,bool)": "infinite",
						"isUserRegistered(address)": "2922",
						"pendingTransactions(uint256)": "infinite",
						"registerUser(string,int256,int256,uint256,uint256)": "infinite",
						"transactions(uint256)": "infinite",
						"updateEnergyBalance(address,uint256)": "25096",
						"updateUser(string,int256,int256,uint256,uint256)": "infinite",
						"users(address)": "infinite"
					},
					"internal": {
						"removePendingTransaction(uint256)": "infinite"
					}
				},
				"methodIdentifiers": {
					"admin()": "f851a440",
					"commitTransaction(uint256,bool)": "0b0f9dc3",
					"deleteUser(address)": "5c60f226",
					"getAllCommittedTransactions()": "b1fce8c3",
					"getAllPendingTransactions()": "a9878c62",
					"getAllUsersInfo()": "c3bcf192",
					"getNumberOfNotCommittedTransactions()": "c0fa3f4b",
					"getUserAddresses()": "a591efde",
					"getUserInfo(address)": "6386c1c7",
					"initiateTransaction(address,address,uint256,uint256,uint256,bool)": "4439a702",
					"isUserRegistered(address)": "163f7522",
					"pendingTransactions(uint256)": "63a8374d",
					"registerUser(string,int256,int256,uint256,uint256)": "210c9154",
					"transactions(uint256)": "9ace38c2",
					"updateEnergyBalance(address,uint256)": "af7ccfa7",
					"updateUser(string,int256,int256,uint256,uint256)": "2fc00ba1",
					"users(address)": "a87430ba"
				}
			},
			"storageLayout": {
				"storage": [
					{
						"astId": 40,
						"contract": "contracts/EnergyTradingEscrow.sol:EnergyTradingPlatform",
						"label": "userAddresses",
						"offset": 0,
						"slot": "0",
						"type": "t_array(t_address)dyn_storage"
					},
					{
						"astId": 45,
						"contract": "contracts/EnergyTradingEscrow.sol:EnergyTradingPlatform",
						"label": "users",
						"offset": 0,
						"slot": "1",
						"type": "t_mapping(t_address,t_struct(UserInfo)14_storage)"
					},
					{
						"astId": 47,
						"contract": "contracts/EnergyTradingEscrow.sol:EnergyTradingPlatform",
						"label": "admin",
						"offset": 0,
						"slot": "2",
						"type": "t_address"
					},
					{
						"astId": 50,
						"contract": "contracts/EnergyTradingEscrow.sol:EnergyTradingPlatform",
						"label": "nextTransactionId",
						"offset": 0,
						"slot": "3",
						"type": "t_uint256"
					},
					{
						"astId": 55,
						"contract": "contracts/EnergyTradingEscrow.sol:EnergyTradingPlatform",
						"label": "transactions",
						"offset": 0,
						"slot": "4",
						"type": "t_mapping(t_uint256,t_struct(Transaction)34_storage)"
					},
					{
						"astId": 58,
						"contract": "contracts/EnergyTradingEscrow.sol:EnergyTradingPlatform",
						"label": "pendingTransactions",
						"offset": 0,
						"slot": "5",
						"type": "t_array(t_uint256)dyn_storage"
					},
					{
						"astId": 61,
						"contract": "contracts/EnergyTradingEscrow.sol:EnergyTradingPlatform",
						"label": "committedTransactions",
						"offset": 0,
						"slot": "6",
						"type": "t_array(t_uint256)dyn_storage"
					}
				],
				"types": {
					"t_address": {
						"encoding": "inplace",
						"label": "address",
						"numberOfBytes": "20"
					},
					"t_array(t_address)dyn_storage": {
						"base": "t_address",
						"encoding": "dynamic_array",
						"label": "address[]",
						"numberOfBytes": "32"
					},
					"t_array(t_uint256)dyn_storage": {
						"base": "t_uint256",
						"encoding": "dynamic_array",
						"label": "uint256[]",
						"numberOfBytes": "32"
					},
					"t_bool": {
						"encoding": "inplace",
						"label": "bool",
						"numberOfBytes": "1"
					},
					"t_enum(TransactionType)37": {
						"encoding": "inplace",
						"label": "enum EnergyTradingPlatform.TransactionType",
						"numberOfBytes": "1"
					},
					"t_int256": {
						"encoding": "inplace",
						"label": "int256",
						"numberOfBytes": "32"
					},
					"t_mapping(t_address,t_struct(UserInfo)14_storage)": {
						"encoding": "mapping",
						"key": "t_address",
						"label": "mapping(address => struct EnergyTradingPlatform.UserInfo)",
						"numberOfBytes": "32",
						"value": "t_struct(UserInfo)14_storage"
					},
					"t_mapping(t_uint256,t_struct(Transaction)34_storage)": {
						"encoding": "mapping",
						"key": "t_uint256",
						"label": "mapping(uint256 => struct EnergyTradingPlatform.Transaction)",
						"numberOfBytes": "32",
						"value": "t_struct(Transaction)34_storage"
					},
					"t_string_storage": {
						"encoding": "bytes",
						"label": "string",
						"numberOfBytes": "32"
					},
					"t_struct(Transaction)34_storage": {
						"encoding": "inplace",
						"label": "struct EnergyTradingPlatform.Transaction",
						"members": [
							{
								"astId": 16,
								"contract": "contracts/EnergyTradingEscrow.sol:EnergyTradingPlatform",
								"label": "id",
								"offset": 0,
								"slot": "0",
								"type": "t_uint256"
							},
							{
								"astId": 18,
								"contract": "contracts/EnergyTradingEscrow.sol:EnergyTradingPlatform",
								"label": "initiator",
								"offset": 0,
								"slot": "1",
								"type": "t_address"
							},
							{
								"astId": 20,
								"contract": "contracts/EnergyTradingEscrow.sol:EnergyTradingPlatform",
								"label": "receiver",
								"offset": 0,
								"slot": "2",
								"type": "t_address"
							},
							{
								"astId": 22,
								"contract": "contracts/EnergyTradingEscrow.sol:EnergyTradingPlatform",
								"label": "energyAmount",
								"offset": 0,
								"slot": "3",
								"type": "t_uint256"
							},
							{
								"astId": 24,
								"contract": "contracts/EnergyTradingEscrow.sol:EnergyTradingPlatform",
								"label": "price",
								"offset": 0,
								"slot": "4",
								"type": "t_uint256"
							},
							{
								"astId": 26,
								"contract": "contracts/EnergyTradingEscrow.sol:EnergyTradingPlatform",
								"label": "validUntil",
								"offset": 0,
								"slot": "5",
								"type": "t_uint256"
							},
							{
								"astId": 28,
								"contract": "contracts/EnergyTradingEscrow.sol:EnergyTradingPlatform",
								"label": "committed",
								"offset": 0,
								"slot": "6",
								"type": "t_bool"
							},
							{
								"astId": 30,
								"contract": "contracts/EnergyTradingEscrow.sol:EnergyTradingPlatform",
								"label": "status",
								"offset": 0,
								"slot": "7",
								"type": "t_string_storage"
							},
							{
								"astId": 33,
								"contract": "contracts/EnergyTradingEscrow.sol:EnergyTradingPlatform",
								"label": "transactionType",
								"offset": 0,
								"slot": "8",
								"type": "t_enum(TransactionType)37"
							}
						],
						"numberOfBytes": "288"
					},
					"t_struct(UserInfo)14_storage": {
						"encoding": "inplace",
						"label": "struct EnergyTradingPlatform.UserInfo",
						"members": [
							{
								"astId": 3,
								"contract": "contracts/EnergyTradingEscrow.sol:EnergyTradingPlatform",
								"label": "username",
								"offset": 0,
								"slot": "0",
								"type": "t_string_storage"
							},
							{
								"astId": 5,
								"contract": "contracts/EnergyTradingEscrow.sol:EnergyTradingPlatform",
								"label": "latitude",
								"offset": 0,
								"slot": "1",
								"type": "t_int256"
							},
							{
								"astId": 7,
								"contract": "contracts/EnergyTradingEscrow.sol:EnergyTradingPlatform",
								"label": "longitude",
								"offset": 0,
								"slot": "2",
								"type": "t_int256"
							},
							{
								"astId": 9,
								"contract": "contracts/EnergyTradingEscrow.sol:EnergyTradingPlatform",
								"label": "energyBalance",
								"offset": 0,
								"slot": "3",
								"type": "t_uint256"
							},
							{
								"astId": 11,
								"contract": "contracts/EnergyTradingEscrow.sol:EnergyTradingPlatform",
								"label": "tokensBalance",
								"offset": 0,
								"slot": "4",
								"type": "t_uint256"
							},
							{
								"astId": 13,
								"contract": "contracts/EnergyTradingEscrow.sol:EnergyTradingPlatform",
								"label": "isRegistered",
								"offset": 0,
								"slot": "5",
								"type": "t_bool"
							}
						],
						"numberOfBytes": "192"
					},
					"t_uint256": {
						"encoding": "inplace",
						"label": "uint256",
						"numberOfBytes": "32"
					}
				}
			},
			"userdoc": {
				"kind": "user",
				"methods": {},
				"version": 1
			}
		}
	}
}