{
	"contracts/commitTransaction.sol": {
		"EnergyTradingContract": {
			"abi": [
				{
					"inputs": [
						{
							"internalType": "address",
							"name": "_mainContractAddress",
							"type": "address"
						}
					],
					"stateMutability": "nonpayable",
					"type": "constructor"
				},
				{
					"anonymous": false,
					"inputs": [
						{
							"indexed": false,
							"internalType": "uint256",
							"name": "transactionId",
							"type": "uint256"
						},
						{
							"indexed": false,
							"internalType": "bool",
							"name": "accepted",
							"type": "bool"
						},
						{
							"indexed": false,
							"internalType": "string",
							"name": "status",
							"type": "string"
						}
					],
					"name": "TransactionCommitted",
					"type": "event"
				},
				{
					"anonymous": false,
					"inputs": [
						{
							"indexed": false,
							"internalType": "uint256",
							"name": "transactionId",
							"type": "uint256"
						},
						{
							"indexed": false,
							"internalType": "address",
							"name": "receiver",
							"type": "address"
						},
						{
							"indexed": false,
							"internalType": "enum EnergyTradingContract.TransactionType",
							"name": "transactionType",
							"type": "uint8"
						}
					],
					"name": "TransactionInitiated",
					"type": "event"
				},
				{
					"inputs": [
						{
							"internalType": "uint256",
							"name": "_transactionId",
							"type": "uint256"
						},
						{
							"internalType": "bool",
							"name": "_accepted",
							"type": "bool"
						}
					],
					"name": "commitTransaction",
					"outputs": [],
					"stateMutability": "nonpayable",
					"type": "function"
				},
				{
					"inputs": [],
					"name": "getAllCommittedTransactions",
					"outputs": [
						{
							"components": [
								{
									"internalType": "uint256",
									"name": "id",
									"type": "uint256"
								},
								{
									"internalType": "address",
									"name": "initiator",
									"type": "address"
								},
								{
									"internalType": "address",
									"name": "receiver",
									"type": "address"
								},
								{
									"internalType": "uint256",
									"name": "energyAmount",
									"type": "uint256"
								},
								{
									"internalType": "uint256",
									"name": "price",
									"type": "uint256"
								},
								{
									"internalType": "uint256",
									"name": "validUntil",
									"type": "uint256"
								},
								{
									"internalType": "bool",
									"name": "committed",
									"type": "bool"
								},
								{
									"internalType": "string",
									"name": "status",
									"type": "string"
								},
								{
									"internalType": "enum EnergyTradingContract.TransactionType",
									"name": "transactionType",
									"type": "uint8"
								}
							],
							"internalType": "struct EnergyTradingContract.Transaction[]",
							"name": "",
							"type": "tuple[]"
						}
					],
					"stateMutability": "view",
					"type": "function"
				},
				{
					"inputs": [],
					"name": "getAllPendingTransactions",
					"outputs": [
						{
							"components": [
								{
									"internalType": "uint256",
									"name": "id",
									"type": "uint256"
								},
								{
									"internalType": "address",
									"name": "initiator",
									"type": "address"
								},
								{
									"internalType": "address",
									"name": "receiver",
									"type": "address"
								},
								{
									"internalType": "uint256",
									"name": "energyAmount",
									"type": "uint256"
								},
								{
									"internalType": "uint256",
									"name": "price",
									"type": "uint256"
								},
								{
									"internalType": "uint256",
									"name": "validUntil",
									"type": "uint256"
								},
								{
									"internalType": "bool",
									"name": "committed",
									"type": "bool"
								},
								{
									"internalType": "string",
									"name": "status",
									"type": "string"
								},
								{
									"internalType": "enum EnergyTradingContract.TransactionType",
									"name": "transactionType",
									"type": "uint8"
								}
							],
							"internalType": "struct EnergyTradingContract.Transaction[]",
							"name": "",
							"type": "tuple[]"
						}
					],
					"stateMutability": "view",
					"type": "function"
				},
				{
					"inputs": [],
					"name": "getNumberOfNotCommittedTransactions",
					"outputs": [
						{
							"internalType": "uint256",
							"name": "",
							"type": "uint256"
						}
					],
					"stateMutability": "view",
					"type": "function"
				},
				{
					"inputs": [
						{
							"internalType": "address",
							"name": "_sender",
							"type": "address"
						},
						{
							"internalType": "address",
							"name": "receiver",
							"type": "address"
						},
						{
							"internalType": "uint256",
							"name": "_energyAmount",
							"type": "uint256"
						},
						{
							"internalType": "uint256",
							"name": "_price",
							"type": "uint256"
						},
						{
							"internalType": "uint256",
							"name": "_validUntil",
							"type": "uint256"
						},
						{
							"internalType": "bool",
							"name": "isBuyTransaction",
							"type": "bool"
						}
					],
					"name": "initiateTransaction",
					"outputs": [],
					"stateMutability": "nonpayable",
					"type": "function"
				},
				{
					"inputs": [
						{
							"internalType": "uint256",
							"name": "",
							"type": "uint256"
						}
					],
					"name": "pendingTransactions",
					"outputs": [
						{
							"internalType": "uint256",
							"name": "",
							"type": "uint256"
						}
					],
					"stateMutability": "view",
					"type": "function"
				},
				{
					"inputs": [
						{
							"internalType": "address",
							"name": "_userAddress",
							"type": "address"
						}
					],
					"name": "retrieveUserInfo",
					"outputs": [
						{
							"internalType": "string",
							"name": "",
							"type": "string"
						},
						{
							"internalType": "int256",
							"name": "",
							"type": "int256"
						},
						{
							"internalType": "int256",
							"name": "",
							"type": "int256"
						},
						{
							"internalType": "uint256",
							"name": "",
							"type": "uint256"
						},
						{
							"internalType": "uint256",
							"name": "",
							"type": "uint256"
						},
						{
							"internalType": "bool",
							"name": "",
							"type": "bool"
						}
					],
					"stateMutability": "view",
					"type": "function"
				},
				{
					"inputs": [
						{
							"internalType": "uint256",
							"name": "",
							"type": "uint256"
						}
					],
					"name": "transactions",
					"outputs": [
						{
							"internalType": "uint256",
							"name": "id",
							"type": "uint256"
						},
						{
							"internalType": "address",
							"name": "initiator",
							"type": "address"
						},
						{
							"internalType": "address",
							"name": "receiver",
							"type": "address"
						},
						{
							"internalType": "uint256",
							"name": "energyAmount",
							"type": "uint256"
						},
						{
							"internalType": "uint256",
							"name": "price",
							"type": "uint256"
						},
						{
							"internalType": "uint256",
							"name": "validUntil",
							"type": "uint256"
						},
						{
							"internalType": "bool",
							"name": "committed",
							"type": "bool"
						},
						{
							"internalType": "string",
							"name": "status",
							"type": "string"
						},
						{
							"internalType": "enum EnergyTradingContract.TransactionType",
							"name": "transactionType",
							"type": "uint8"
						}
					],
					"stateMutability": "view",
					"type": "function"
				}
			],
			"devdoc": {
				"kind": "dev",
				"methods": {},
				"version": 1
			},
			"evm": {
				"assembly": "    /* \"contracts/commitTransaction.sol\":375:5273  contract EnergyTradingContract {... */\n  mstore(0x40, 0x80)\n    /* \"contracts/commitTransaction.sol\":923:924  1 */\n  0x01\n    /* \"contracts/commitTransaction.sol\":890:924  uint private nextTransactionId = 1 */\n  dup1\n  sstore\n    /* \"contracts/commitTransaction.sol\":440:543  constructor(address _mainContractAddress) {... */\n  callvalue\n  dup1\n  iszero\n  tag_1\n  jumpi\n  0x00\n  dup1\n  revert\ntag_1:\n  pop\n  mload(0x40)\n  sub(codesize, bytecodeSize)\n  dup1\n  bytecodeSize\n  dup4\n  codecopy\n  dup2\n  dup2\n  add\n  0x40\n  mstore\n  dup2\n  add\n  swap1\n  tag_2\n  swap2\n  swap1\n  tag_3\n  jump\t// in\ntag_2:\n    /* \"contracts/commitTransaction.sol\":514:534  _mainContractAddress */\n  dup1\n    /* \"contracts/commitTransaction.sol\":493:505  mainContract */\n  0x00\n  dup1\n    /* \"contracts/commitTransaction.sol\":493:535  mainContract = IMain(_mainContractAddress) */\n  0x0100\n  exp\n  dup2\n  sload\n  dup2\n  0xffffffffffffffffffffffffffffffffffffffff\n  mul\n  not\n  and\n  swap1\n  dup4\n  0xffffffffffffffffffffffffffffffffffffffff\n  and\n  mul\n  or\n  swap1\n  sstore\n  pop\n    /* \"contracts/commitTransaction.sol\":440:543  constructor(address _mainContractAddress) {... */\n  pop\n    /* \"contracts/commitTransaction.sol\":375:5273  contract EnergyTradingContract {... */\n  jump(tag_6)\n    /* \"#utility.yul\":88:205   */\ntag_8:\n    /* \"#utility.yul\":197:198   */\n  0x00\n    /* \"#utility.yul\":194:195   */\n  dup1\n    /* \"#utility.yul\":187:199   */\n  revert\n    /* \"#utility.yul\":334:460   */\ntag_10:\n    /* \"#utility.yul\":371:378   */\n  0x00\n    /* \"#utility.yul\":411:453   */\n  0xffffffffffffffffffffffffffffffffffffffff\n    /* \"#utility.yul\":404:409   */\n  dup3\n    /* \"#utility.yul\":400:454   */\n  and\n    /* \"#utility.yul\":389:454   */\n  swap1\n  pop\n    /* \"#utility.yul\":334:460   */\n  swap2\n  swap1\n  pop\n  jump\t// out\n    /* \"#utility.yul\":466:562   */\ntag_11:\n    /* \"#utility.yul\":503:510   */\n  0x00\n    /* \"#utility.yul\":532:556   */\n  tag_20\n    /* \"#utility.yul\":550:555   */\n  dup3\n    /* \"#utility.yul\":532:556   */\n  tag_10\n  jump\t// in\ntag_20:\n    /* \"#utility.yul\":521:556   */\n  swap1\n  pop\n    /* \"#utility.yul\":466:562   */\n  swap2\n  swap1\n  pop\n  jump\t// out\n    /* \"#utility.yul\":568:690   */\ntag_12:\n    /* \"#utility.yul\":641:665   */\n  tag_22\n    /* \"#utility.yul\":659:664   */\n  dup2\n    /* \"#utility.yul\":641:665   */\n  tag_11\n  jump\t// in\ntag_22:\n    /* \"#utility.yul\":634:639   */\n  dup2\n    /* \"#utility.yul\":631:666   */\n  eq\n    /* \"#utility.yul\":621:684   */\n  tag_23\n  jumpi\n    /* \"#utility.yul\":680:681   */\n  0x00\n    /* \"#utility.yul\":677:678   */\n  dup1\n    /* \"#utility.yul\":670:682   */\n  revert\n    /* \"#utility.yul\":621:684   */\ntag_23:\n    /* \"#utility.yul\":568:690   */\n  pop\n  jump\t// out\n    /* \"#utility.yul\":696:839   */\ntag_13:\n    /* \"#utility.yul\":753:758   */\n  0x00\n    /* \"#utility.yul\":784:790   */\n  dup2\n    /* \"#utility.yul\":778:791   */\n  mload\n    /* \"#utility.yul\":769:791   */\n  swap1\n  pop\n    /* \"#utility.yul\":800:833   */\n  tag_25\n    /* \"#utility.yul\":827:832   */\n  dup2\n    /* \"#utility.yul\":800:833   */\n  tag_12\n  jump\t// in\ntag_25:\n    /* \"#utility.yul\":696:839   */\n  swap3\n  swap2\n  pop\n  pop\n  jump\t// out\n    /* \"#utility.yul\":845:1196   */\ntag_3:\n    /* \"#utility.yul\":915:921   */\n  0x00\n    /* \"#utility.yul\":964:966   */\n  0x20\n    /* \"#utility.yul\":952:961   */\n  dup3\n    /* \"#utility.yul\":943:950   */\n  dup5\n    /* \"#utility.yul\":939:962   */\n  sub\n    /* \"#utility.yul\":935:967   */\n  slt\n    /* \"#utility.yul\":932:1051   */\n  iszero\n  tag_27\n  jumpi\n    /* \"#utility.yul\":970:1049   */\n  tag_28\n  tag_8\n  jump\t// in\ntag_28:\n    /* \"#utility.yul\":932:1051   */\ntag_27:\n    /* \"#utility.yul\":1090:1091   */\n  0x00\n    /* \"#utility.yul\":1115:1179   */\n  tag_29\n    /* \"#utility.yul\":1171:1178   */\n  dup5\n    /* \"#utility.yul\":1162:1168   */\n  dup3\n    /* \"#utility.yul\":1151:1160   */\n  dup6\n    /* \"#utility.yul\":1147:1169   */\n  add\n    /* \"#utility.yul\":1115:1179   */\n  tag_13\n  jump\t// in\ntag_29:\n    /* \"#utility.yul\":1105:1179   */\n  swap2\n  pop\n    /* \"#utility.yul\":1061:1189   */\n  pop\n    /* \"#utility.yul\":845:1196   */\n  swap3\n  swap2\n  pop\n  pop\n  jump\t// out\n    /* \"contracts/commitTransaction.sol\":375:5273  contract EnergyTradingContract {... */\ntag_6:\n  dataSize(sub_0)\n  dup1\n  dataOffset(sub_0)\n  0x00\n  codecopy\n  0x00\n  return\nstop\n\nsub_0: assembly {\n        /* \"contracts/commitTransaction.sol\":375:5273  contract EnergyTradingContract {... */\n      mstore(0x40, 0x80)\n      callvalue\n      dup1\n      iszero\n      tag_1\n      jumpi\n      0x00\n      dup1\n      revert\n    tag_1:\n      pop\n      jumpi(tag_2, lt(calldatasize, 0x04))\n      shr(0xe0, calldataload(0x00))\n      dup1\n      0x9ace38c2\n      gt\n      tag_11\n      jumpi\n      dup1\n      0x9ace38c2\n      eq\n      tag_7\n      jumpi\n      dup1\n      0xa9878c62\n      eq\n      tag_8\n      jumpi\n      dup1\n      0xb1fce8c3\n      eq\n      tag_9\n      jumpi\n      dup1\n      0xc0fa3f4b\n      eq\n      tag_10\n      jumpi\n      jump(tag_2)\n    tag_11:\n      dup1\n      0x0b0f9dc3\n      eq\n      tag_3\n      jumpi\n      dup1\n      0x4439a702\n      eq\n      tag_4\n      jumpi\n      dup1\n      0x4d51573f\n      eq\n      tag_5\n      jumpi\n      dup1\n      0x63a8374d\n      eq\n      tag_6\n      jumpi\n    tag_2:\n      0x00\n      dup1\n      revert\n        /* \"contracts/commitTransaction.sol\":2152:4050  function commitTransaction(uint _transactionId, bool _accepted) public {... */\n    tag_3:\n      tag_12\n      0x04\n      dup1\n      calldatasize\n      sub\n      dup2\n      add\n      swap1\n      tag_13\n      swap2\n      swap1\n      tag_14\n      jump\t// in\n    tag_13:\n      tag_15\n      jump\t// in\n    tag_12:\n      stop\n        /* \"contracts/commitTransaction.sol\":1328:2144  function initiateTransaction(... */\n    tag_4:\n      tag_16\n      0x04\n      dup1\n      calldatasize\n      sub\n      dup2\n      add\n      swap1\n      tag_17\n      swap2\n      swap1\n      tag_18\n      jump\t// in\n    tag_17:\n      tag_19\n      jump\t// in\n    tag_16:\n      stop\n        /* \"contracts/commitTransaction.sol\":5034:5270  function retrieveUserInfo(... */\n    tag_5:\n      tag_20\n      0x04\n      dup1\n      calldatasize\n      sub\n      dup2\n      add\n      swap1\n      tag_21\n      swap2\n      swap1\n      tag_22\n      jump\t// in\n    tag_21:\n      tag_23\n      jump\t// in\n    tag_20:\n      mload(0x40)\n      tag_24\n      swap7\n      swap6\n      swap5\n      swap4\n      swap3\n      swap2\n      swap1\n      tag_25\n      jump\t// in\n    tag_24:\n      mload(0x40)\n      dup1\n      swap2\n      sub\n      swap1\n      return\n        /* \"contracts/commitTransaction.sol\":986:1019  uint[] public pendingTransactions */\n    tag_6:\n      tag_26\n      0x04\n      dup1\n      calldatasize\n      sub\n      dup2\n      add\n      swap1\n      tag_27\n      swap2\n      swap1\n      tag_28\n      jump\t// in\n    tag_27:\n      tag_29\n      jump\t// in\n    tag_26:\n      mload(0x40)\n      tag_30\n      swap2\n      swap1\n      tag_31\n      jump\t// in\n    tag_30:\n      mload(0x40)\n      dup1\n      swap2\n      sub\n      swap1\n      return\n        /* \"contracts/commitTransaction.sol\":931:979  mapping(uint => Transaction) public transactions */\n    tag_7:\n      tag_32\n      0x04\n      dup1\n      calldatasize\n      sub\n      dup2\n      add\n      swap1\n      tag_33\n      swap2\n      swap1\n      tag_28\n      jump\t// in\n    tag_33:\n      tag_34\n      jump\t// in\n    tag_32:\n      mload(0x40)\n      tag_35\n      swap10\n      swap9\n      swap8\n      swap7\n      swap6\n      swap5\n      swap4\n      swap3\n      swap2\n      swap1\n      tag_36\n      jump\t// in\n    tag_35:\n      mload(0x40)\n      dup1\n      swap2\n      sub\n      swap1\n      return\n        /* \"contracts/commitTransaction.sol\":4192:4600  function getAllPendingTransactions()... */\n    tag_8:\n      tag_37\n      tag_38\n      jump\t// in\n    tag_37:\n      mload(0x40)\n      tag_39\n      swap2\n      swap1\n      tag_40\n      jump\t// in\n    tag_39:\n      mload(0x40)\n      dup1\n      swap2\n      sub\n      swap1\n      return\n        /* \"contracts/commitTransaction.sol\":4606:5028  function getAllCommittedTransactions()... */\n    tag_9:\n      tag_41\n      tag_42\n      jump\t// in\n    tag_41:\n      mload(0x40)\n      tag_43\n      swap2\n      swap1\n      tag_40\n      jump\t// in\n    tag_43:\n      mload(0x40)\n      dup1\n      swap2\n      sub\n      swap1\n      return\n        /* \"contracts/commitTransaction.sol\":4058:4184  function getNumberOfNotCommittedTransactions() public view returns (uint) {... */\n    tag_10:\n      tag_44\n      tag_45\n      jump\t// in\n    tag_44:\n      mload(0x40)\n      tag_46\n      swap2\n      swap1\n      tag_31\n      jump\t// in\n    tag_46:\n      mload(0x40)\n      dup1\n      swap2\n      sub\n      swap1\n      return\n        /* \"contracts/commitTransaction.sol\":2152:4050  function commitTransaction(uint _transactionId, bool _accepted) public {... */\n    tag_15:\n        /* \"contracts/commitTransaction.sol\":2275:2279  true */\n      0x01\n        /* \"contracts/commitTransaction.sol\":2234:2246  transactions */\n      0x02\n        /* \"contracts/commitTransaction.sol\":2234:2262  transactions[_transactionId] */\n      0x00\n        /* \"contracts/commitTransaction.sol\":2247:2261  _transactionId */\n      dup5\n        /* \"contracts/commitTransaction.sol\":2234:2262  transactions[_transactionId] */\n      dup2\n      mstore\n      0x20\n      add\n      swap1\n      dup2\n      mstore\n      0x20\n      add\n      0x00\n      keccak256\n        /* \"contracts/commitTransaction.sol\":2234:2272  transactions[_transactionId].committed */\n      0x06\n      add\n      0x00\n        /* \"contracts/commitTransaction.sol\":2234:2279  transactions[_transactionId].committed = true */\n      0x0100\n      exp\n      dup2\n      sload\n      dup2\n      0xff\n      mul\n      not\n      and\n      swap1\n      dup4\n      iszero\n      iszero\n      mul\n      or\n      swap1\n      sstore\n      pop\n        /* \"contracts/commitTransaction.sol\":2328:2337  _accepted */\n      dup1\n        /* \"contracts/commitTransaction.sol\":2328:2389  _accepted... */\n      tag_48\n      jumpi\n      mload(0x40)\n      dup1\n      0x40\n      add\n      0x40\n      mstore\n      dup1\n      0x08\n      dup2\n      mstore\n      0x20\n      add\n      0x52656a6563746564000000000000000000000000000000000000000000000000\n      dup2\n      mstore\n      pop\n      jump(tag_49)\n    tag_48:\n      mload(0x40)\n      dup1\n      0x40\n      add\n      0x40\n      mstore\n      dup1\n      0x08\n      dup2\n      mstore\n      0x20\n      add\n      0x4163636570746564000000000000000000000000000000000000000000000000\n      dup2\n      mstore\n      pop\n    tag_49:\n        /* \"contracts/commitTransaction.sol\":2290:2302  transactions */\n      0x02\n        /* \"contracts/commitTransaction.sol\":2290:2318  transactions[_transactionId] */\n      0x00\n        /* \"contracts/commitTransaction.sol\":2303:2317  _transactionId */\n      dup5\n        /* \"contracts/commitTransaction.sol\":2290:2318  transactions[_transactionId] */\n      dup2\n      mstore\n      0x20\n      add\n      swap1\n      dup2\n      mstore\n      0x20\n      add\n      0x00\n      keccak256\n        /* \"contracts/commitTransaction.sol\":2290:2325  transactions[_transactionId].status */\n      0x07\n      add\n        /* \"contracts/commitTransaction.sol\":2290:2389  transactions[_transactionId].status = _accepted... */\n      swap1\n      dup2\n      tag_50\n      swap2\n      swap1\n      tag_51\n      jump\t// in\n    tag_50:\n      pop\n        /* \"contracts/commitTransaction.sol\":2402:2423  committedTransactions */\n      0x04\n        /* \"contracts/commitTransaction.sol\":2429:2443  _transactionId */\n      dup3\n        /* \"contracts/commitTransaction.sol\":2402:2444  committedTransactions.push(_transactionId) */\n      swap1\n      dup1\n      0x01\n      dup2\n      sload\n      add\n      dup1\n      dup3\n      sstore\n      dup1\n      swap2\n      pop\n      pop\n      0x01\n      swap1\n      sub\n      swap1\n      0x00\n      mstore\n      keccak256(0x00, 0x20)\n      add\n      0x00\n      swap1\n      swap2\n      swap1\n      swap2\n      swap1\n      swap2\n      pop\n      sstore\n        /* \"contracts/commitTransaction.sol\":2460:2466  uint i */\n      0x00\n        /* \"contracts/commitTransaction.sol\":2455:2800  for (uint i = 0; i < pendingTransactions.length; i++) {... */\n    tag_53:\n        /* \"contracts/commitTransaction.sol\":2476:2495  pendingTransactions */\n      0x03\n        /* \"contracts/commitTransaction.sol\":2476:2502  pendingTransactions.length */\n      dup1\n      sload\n      swap1\n      pop\n        /* \"contracts/commitTransaction.sol\":2472:2473  i */\n      dup2\n        /* \"contracts/commitTransaction.sol\":2472:2502  i < pendingTransactions.length */\n      lt\n        /* \"contracts/commitTransaction.sol\":2455:2800  for (uint i = 0; i < pendingTransactions.length; i++) {... */\n      iszero\n      tag_54\n      jumpi\n        /* \"contracts/commitTransaction.sol\":2554:2568  _transactionId */\n      dup3\n        /* \"contracts/commitTransaction.sol\":2528:2547  pendingTransactions */\n      0x03\n        /* \"contracts/commitTransaction.sol\":2548:2549  i */\n      dup3\n        /* \"contracts/commitTransaction.sol\":2528:2550  pendingTransactions[i] */\n      dup2\n      sload\n      dup2\n      lt\n      tag_56\n      jumpi\n      tag_57\n      tag_58\n      jump\t// in\n    tag_57:\n    tag_56:\n      swap1\n      0x00\n      mstore\n      keccak256(0x00, 0x20)\n      add\n      sload\n        /* \"contracts/commitTransaction.sol\":2528:2568  pendingTransactions[i] == _transactionId */\n      sub\n        /* \"contracts/commitTransaction.sol\":2524:2789  if (pendingTransactions[i] == _transactionId) {... */\n      tag_60\n      jumpi\n        /* \"contracts/commitTransaction.sol\":2614:2633  pendingTransactions */\n      0x03\n        /* \"contracts/commitTransaction.sol\":2685:2686  1 */\n      0x01\n        /* \"contracts/commitTransaction.sol\":2656:2675  pendingTransactions */\n      0x03\n        /* \"contracts/commitTransaction.sol\":2656:2682  pendingTransactions.length */\n      dup1\n      sload\n      swap1\n      pop\n        /* \"contracts/commitTransaction.sol\":2656:2686  pendingTransactions.length - 1 */\n      tag_61\n      swap2\n      swap1\n      tag_62\n      jump\t// in\n    tag_61:\n        /* \"contracts/commitTransaction.sol\":2614:2705  pendingTransactions[... */\n      dup2\n      sload\n      dup2\n      lt\n      tag_63\n      jumpi\n      tag_64\n      tag_58\n      jump\t// in\n    tag_64:\n    tag_63:\n      swap1\n      0x00\n      mstore\n      keccak256(0x00, 0x20)\n      add\n      sload\n        /* \"contracts/commitTransaction.sol\":2589:2608  pendingTransactions */\n      0x03\n        /* \"contracts/commitTransaction.sol\":2609:2610  i */\n      dup3\n        /* \"contracts/commitTransaction.sol\":2589:2611  pendingTransactions[i] */\n      dup2\n      sload\n      dup2\n      lt\n      tag_66\n      jumpi\n      tag_67\n      tag_58\n      jump\t// in\n    tag_67:\n    tag_66:\n      swap1\n      0x00\n      mstore\n      keccak256(0x00, 0x20)\n      add\n        /* \"contracts/commitTransaction.sol\":2589:2705  pendingTransactions[i] = pendingTransactions[... */\n      dup2\n      swap1\n      sstore\n      pop\n        /* \"contracts/commitTransaction.sol\":2724:2743  pendingTransactions */\n      0x03\n        /* \"contracts/commitTransaction.sol\":2724:2749  pendingTransactions.pop() */\n      dup1\n      sload\n      dup1\n      tag_69\n      jumpi\n      tag_70\n      tag_71\n      jump\t// in\n    tag_70:\n    tag_69:\n      0x01\n      swap1\n      sub\n      dup2\n      dup2\n      swap1\n      0x00\n      mstore\n      keccak256(0x00, 0x20)\n      add\n      0x00\n      swap1\n      sstore\n      swap1\n      sstore\n        /* \"contracts/commitTransaction.sol\":2768:2773  break */\n      jump(tag_54)\n        /* \"contracts/commitTransaction.sol\":2524:2789  if (pendingTransactions[i] == _transactionId) {... */\n    tag_60:\n        /* \"contracts/commitTransaction.sol\":2504:2507  i++ */\n      dup1\n      dup1\n      tag_73\n      swap1\n      tag_74\n      jump\t// in\n    tag_73:\n      swap2\n      pop\n      pop\n        /* \"contracts/commitTransaction.sol\":2455:2800  for (uint i = 0; i < pendingTransactions.length; i++) {... */\n      jump(tag_53)\n    tag_54:\n      pop\n        /* \"contracts/commitTransaction.sol\":2814:2823  _accepted */\n      dup1\n        /* \"contracts/commitTransaction.sol\":2810:3891  if (_accepted) {... */\n      iszero\n      tag_75\n      jumpi\n        /* \"contracts/commitTransaction.sol\":2840:2871  Transaction storage transaction */\n      0x00\n        /* \"contracts/commitTransaction.sol\":2874:2886  transactions */\n      0x02\n        /* \"contracts/commitTransaction.sol\":2874:2902  transactions[_transactionId] */\n      0x00\n        /* \"contracts/commitTransaction.sol\":2887:2901  _transactionId */\n      dup5\n        /* \"contracts/commitTransaction.sol\":2874:2902  transactions[_transactionId] */\n      dup2\n      mstore\n      0x20\n      add\n      swap1\n      dup2\n      mstore\n      0x20\n      add\n      0x00\n      keccak256\n        /* \"contracts/commitTransaction.sol\":2840:2902  Transaction storage transaction = transactions[_transactionId] */\n      swap1\n      pop\n        /* \"contracts/commitTransaction.sol\":2926:2956  uint256 initiatorEnergyBalance */\n      0x00\n        /* \"contracts/commitTransaction.sol\":2964:2976  mainContract */\n      dup1\n      0x00\n      swap1\n      sload\n      swap1\n      0x0100\n      exp\n      swap1\n      div\n      0xffffffffffffffffffffffffffffffffffffffff\n      and\n        /* \"contracts/commitTransaction.sol\":2964:3006  mainContract... */\n      0xffffffffffffffffffffffffffffffffffffffff\n      and\n      0x6386c1c7\n        /* \"contracts/commitTransaction.sol\":3007:3018  transaction */\n      dup4\n        /* \"contracts/commitTransaction.sol\":3007:3028  transaction.initiator */\n      0x01\n      add\n      0x00\n      swap1\n      sload\n      swap1\n      0x0100\n      exp\n      swap1\n      div\n      0xffffffffffffffffffffffffffffffffffffffff\n      and\n        /* \"contracts/commitTransaction.sol\":2964:3029  mainContract... */\n      mload(0x40)\n      dup3\n      0xffffffff\n      and\n      0xe0\n      shl\n      dup2\n      mstore\n      0x04\n      add\n      tag_76\n      swap2\n      swap1\n      tag_77\n      jump\t// in\n    tag_76:\n      0x00\n      mload(0x40)\n      dup1\n      dup4\n      sub\n      dup2\n      dup7\n      gas\n      staticcall\n      iszero\n      dup1\n      iszero\n      tag_79\n      jumpi\n      returndatasize\n      0x00\n      dup1\n      returndatacopy\n      revert(0x00, returndatasize)\n    tag_79:\n      pop\n      pop\n      pop\n      pop\n      mload(0x40)\n      returndatasize\n      0x00\n      dup3\n      returndatacopy\n      returndatasize\n      not(0x1f)\n      0x1f\n      dup3\n      add\n      and\n      dup3\n      add\n      dup1\n      0x40\n      mstore\n      pop\n      dup2\n      add\n      swap1\n      tag_80\n      swap2\n      swap1\n      tag_81\n      jump\t// in\n    tag_80:\n        /* \"contracts/commitTransaction.sol\":2919:3029  (, , , uint256 initiatorEnergyBalance, , ) = mainContract... */\n      pop\n      pop\n      swap4\n      pop\n      pop\n      pop\n      pop\n        /* \"contracts/commitTransaction.sol\":3051:3080  uint256 receiverEnergyBalance */\n      0x00\n        /* \"contracts/commitTransaction.sol\":3088:3100  mainContract */\n      dup1\n      0x00\n      swap1\n      sload\n      swap1\n      0x0100\n      exp\n      swap1\n      div\n      0xffffffffffffffffffffffffffffffffffffffff\n      and\n        /* \"contracts/commitTransaction.sol\":3088:3130  mainContract... */\n      0xffffffffffffffffffffffffffffffffffffffff\n      and\n      0x6386c1c7\n        /* \"contracts/commitTransaction.sol\":3131:3142  transaction */\n      dup5\n        /* \"contracts/commitTransaction.sol\":3131:3151  transaction.receiver */\n      0x02\n      add\n      0x00\n      swap1\n      sload\n      swap1\n      0x0100\n      exp\n      swap1\n      div\n      0xffffffffffffffffffffffffffffffffffffffff\n      and\n        /* \"contracts/commitTransaction.sol\":3088:3152  mainContract... */\n      mload(0x40)\n      dup3\n      0xffffffff\n      and\n      0xe0\n      shl\n      dup2\n      mstore\n      0x04\n      add\n      tag_82\n      swap2\n      swap1\n      tag_77\n      jump\t// in\n    tag_82:\n      0x00\n      mload(0x40)\n      dup1\n      dup4\n      sub\n      dup2\n      dup7\n      gas\n      staticcall\n      iszero\n      dup1\n      iszero\n      tag_84\n      jumpi\n      returndatasize\n      0x00\n      dup1\n      returndatacopy\n      revert(0x00, returndatasize)\n    tag_84:\n      pop\n      pop\n      pop\n      pop\n      mload(0x40)\n      returndatasize\n      0x00\n      dup3\n      returndatacopy\n      returndatasize\n      not(0x1f)\n      0x1f\n      dup3\n      add\n      and\n      dup3\n      add\n      dup1\n      0x40\n      mstore\n      pop\n      dup2\n      add\n      swap1\n      tag_85\n      swap2\n      swap1\n      tag_81\n      jump\t// in\n    tag_85:\n        /* \"contracts/commitTransaction.sol\":3044:3152  (, , , uint256 receiverEnergyBalance, , ) = mainContract... */\n      pop\n      pop\n      swap4\n      pop\n      pop\n      pop\n      pop\n        /* \"contracts/commitTransaction.sol\":3204:3223  TransactionType.Buy */\n      0x00\n        /* \"contracts/commitTransaction.sol\":3173:3223  transaction.transactionType == TransactionType.Buy */\n      0x01\n      dup2\n      gt\n      iszero\n      tag_86\n      jumpi\n      tag_87\n      tag_88\n      jump\t// in\n    tag_87:\n    tag_86:\n        /* \"contracts/commitTransaction.sol\":3173:3184  transaction */\n      dup4\n        /* \"contracts/commitTransaction.sol\":3173:3200  transaction.transactionType */\n      0x08\n      add\n      0x00\n      swap1\n      sload\n      swap1\n      0x0100\n      exp\n      swap1\n      div\n      0xff\n      and\n        /* \"contracts/commitTransaction.sol\":3173:3223  transaction.transactionType == TransactionType.Buy */\n      0x01\n      dup2\n      gt\n      iszero\n      tag_89\n      jumpi\n      tag_90\n      tag_88\n      jump\t// in\n    tag_90:\n    tag_89:\n      sub\n        /* \"contracts/commitTransaction.sol\":3169:3594  if (transaction.transactionType == TransactionType.Buy) {... */\n      tag_91\n      jumpi\n        /* \"contracts/commitTransaction.sol\":3270:3281  transaction */\n      dup3\n        /* \"contracts/commitTransaction.sol\":3270:3294  transaction.energyAmount */\n      0x03\n      add\n      sload\n        /* \"contracts/commitTransaction.sol\":3244:3294  initiatorEnergyBalance += transaction.energyAmount */\n      dup3\n      tag_92\n      swap2\n      swap1\n      tag_93\n      jump\t// in\n    tag_92:\n      swap2\n      pop\n        /* \"contracts/commitTransaction.sol\":3338:3349  transaction */\n      dup3\n        /* \"contracts/commitTransaction.sol\":3338:3362  transaction.energyAmount */\n      0x03\n      add\n      sload\n        /* \"contracts/commitTransaction.sol\":3313:3362  receiverEnergyBalance -= transaction.energyAmount */\n      dup2\n      tag_94\n      swap2\n      swap1\n      tag_62\n      jump\t// in\n    tag_94:\n      swap1\n      pop\n        /* \"contracts/commitTransaction.sol\":3169:3594  if (transaction.transactionType == TransactionType.Buy) {... */\n      jump(tag_95)\n    tag_91:\n        /* \"contracts/commitTransaction.sol\":3419:3439  TransactionType.Sell */\n      0x01\n        /* \"contracts/commitTransaction.sol\":3388:3439  transaction.transactionType == TransactionType.Sell */\n      dup1\n      dup2\n      gt\n      iszero\n      tag_96\n      jumpi\n      tag_97\n      tag_88\n      jump\t// in\n    tag_97:\n    tag_96:\n        /* \"contracts/commitTransaction.sol\":3388:3399  transaction */\n      dup4\n        /* \"contracts/commitTransaction.sol\":3388:3415  transaction.transactionType */\n      0x08\n      add\n      0x00\n      swap1\n      sload\n      swap1\n      0x0100\n      exp\n      swap1\n      div\n      0xff\n      and\n        /* \"contracts/commitTransaction.sol\":3388:3439  transaction.transactionType == TransactionType.Sell */\n      0x01\n      dup2\n      gt\n      iszero\n      tag_98\n      jumpi\n      tag_99\n      tag_88\n      jump\t// in\n    tag_99:\n    tag_98:\n      sub\n        /* \"contracts/commitTransaction.sol\":3384:3594  if (transaction.transactionType == TransactionType.Sell) {... */\n      tag_100\n      jumpi\n        /* \"contracts/commitTransaction.sol\":3486:3497  transaction */\n      dup3\n        /* \"contracts/commitTransaction.sol\":3486:3510  transaction.energyAmount */\n      0x03\n      add\n      sload\n        /* \"contracts/commitTransaction.sol\":3460:3510  initiatorEnergyBalance -= transaction.energyAmount */\n      dup3\n      tag_101\n      swap2\n      swap1\n      tag_62\n      jump\t// in\n    tag_101:\n      swap2\n      pop\n        /* \"contracts/commitTransaction.sol\":3554:3565  transaction */\n      dup3\n        /* \"contracts/commitTransaction.sol\":3554:3578  transaction.energyAmount */\n      0x03\n      add\n      sload\n        /* \"contracts/commitTransaction.sol\":3529:3578  receiverEnergyBalance += transaction.energyAmount */\n      dup2\n      tag_102\n      swap2\n      swap1\n      tag_93\n      jump\t// in\n    tag_102:\n      swap1\n      pop\n        /* \"contracts/commitTransaction.sol\":3384:3594  if (transaction.transactionType == TransactionType.Sell) {... */\n    tag_100:\n        /* \"contracts/commitTransaction.sol\":3169:3594  if (transaction.transactionType == TransactionType.Buy) {... */\n    tag_95:\n        /* \"contracts/commitTransaction.sol\":3610:3622  mainContract */\n      0x00\n      dup1\n      sload\n      swap1\n      0x0100\n      exp\n      swap1\n      div\n      0xffffffffffffffffffffffffffffffffffffffff\n      and\n        /* \"contracts/commitTransaction.sol\":3610:3642  mainContract.updateEnergyBalance */\n      0xffffffffffffffffffffffffffffffffffffffff\n      and\n      0xaf7ccfa7\n        /* \"contracts/commitTransaction.sol\":3661:3672  transaction */\n      dup5\n        /* \"contracts/commitTransaction.sol\":3661:3682  transaction.initiator */\n      0x01\n      add\n      0x00\n      swap1\n      sload\n      swap1\n      0x0100\n      exp\n      swap1\n      div\n      0xffffffffffffffffffffffffffffffffffffffff\n      and\n        /* \"contracts/commitTransaction.sol\":3701:3723  initiatorEnergyBalance */\n      dup5\n        /* \"contracts/commitTransaction.sol\":3610:3738  mainContract.updateEnergyBalance(... */\n      mload(0x40)\n      dup4\n      0xffffffff\n      and\n      0xe0\n      shl\n      dup2\n      mstore\n      0x04\n      add\n      tag_103\n      swap3\n      swap2\n      swap1\n      tag_104\n      jump\t// in\n    tag_103:\n      0x00\n      mload(0x40)\n      dup1\n      dup4\n      sub\n      dup2\n      0x00\n      dup8\n      dup1\n      extcodesize\n      iszero\n      dup1\n      iszero\n      tag_105\n      jumpi\n      0x00\n      dup1\n      revert\n    tag_105:\n      pop\n      gas\n      call\n      iszero\n      dup1\n      iszero\n      tag_107\n      jumpi\n      returndatasize\n      0x00\n      dup1\n      returndatacopy\n      revert(0x00, returndatasize)\n    tag_107:\n      pop\n      pop\n      pop\n      pop\n        /* \"contracts/commitTransaction.sol\":3753:3765  mainContract */\n      0x00\n      dup1\n      sload\n      swap1\n      0x0100\n      exp\n      swap1\n      div\n      0xffffffffffffffffffffffffffffffffffffffff\n      and\n        /* \"contracts/commitTransaction.sol\":3753:3785  mainContract.updateEnergyBalance */\n      0xffffffffffffffffffffffffffffffffffffffff\n      and\n      0xaf7ccfa7\n        /* \"contracts/commitTransaction.sol\":3804:3815  transaction */\n      dup5\n        /* \"contracts/commitTransaction.sol\":3804:3824  transaction.receiver */\n      0x02\n      add\n      0x00\n      swap1\n      sload\n      swap1\n      0x0100\n      exp\n      swap1\n      div\n      0xffffffffffffffffffffffffffffffffffffffff\n      and\n        /* \"contracts/commitTransaction.sol\":3843:3864  receiverEnergyBalance */\n      dup4\n        /* \"contracts/commitTransaction.sol\":3753:3879  mainContract.updateEnergyBalance(... */\n      mload(0x40)\n      dup4\n      0xffffffff\n      and\n      0xe0\n      shl\n      dup2\n      mstore\n      0x04\n      add\n      tag_108\n      swap3\n      swap2\n      swap1\n      tag_104\n      jump\t// in\n    tag_108:\n      0x00\n      mload(0x40)\n      dup1\n      dup4\n      sub\n      dup2\n      0x00\n      dup8\n      dup1\n      extcodesize\n      iszero\n      dup1\n      iszero\n      tag_109\n      jumpi\n      0x00\n      dup1\n      revert\n    tag_109:\n      pop\n      gas\n      call\n      iszero\n      dup1\n      iszero\n      tag_111\n      jumpi\n      returndatasize\n      0x00\n      dup1\n      returndatacopy\n      revert(0x00, returndatasize)\n    tag_111:\n      pop\n      pop\n      pop\n      pop\n        /* \"contracts/commitTransaction.sol\":2825:3891  {... */\n      pop\n      pop\n      pop\n        /* \"contracts/commitTransaction.sol\":2810:3891  if (_accepted) {... */\n    tag_75:\n        /* \"contracts/commitTransaction.sol\":3908:4042  TransactionCommitted(... */\n      0xb6cdb9654a453b960ec5fe6f18502a3f0dd823ed74ddc4f68a16b3210265ea5b\n        /* \"contracts/commitTransaction.sol\":3943:3957  _transactionId */\n      dup3\n        /* \"contracts/commitTransaction.sol\":3972:3981  _accepted */\n      dup3\n        /* \"contracts/commitTransaction.sol\":3996:4008  transactions */\n      0x02\n        /* \"contracts/commitTransaction.sol\":3996:4024  transactions[_transactionId] */\n      0x00\n        /* \"contracts/commitTransaction.sol\":4009:4023  _transactionId */\n      dup7\n        /* \"contracts/commitTransaction.sol\":3996:4024  transactions[_transactionId] */\n      dup2\n      mstore\n      0x20\n      add\n      swap1\n      dup2\n      mstore\n      0x20\n      add\n      0x00\n      keccak256\n        /* \"contracts/commitTransaction.sol\":3996:4031  transactions[_transactionId].status */\n      0x07\n      add\n        /* \"contracts/commitTransaction.sol\":3908:4042  TransactionCommitted(... */\n      mload(0x40)\n      tag_112\n      swap4\n      swap3\n      swap2\n      swap1\n      tag_113\n      jump\t// in\n    tag_112:\n      mload(0x40)\n      dup1\n      swap2\n      sub\n      swap1\n      log1\n        /* \"contracts/commitTransaction.sol\":2152:4050  function commitTransaction(uint _transactionId, bool _accepted) public {... */\n      pop\n      pop\n      jump\t// out\n        /* \"contracts/commitTransaction.sol\":1328:2144  function initiateTransaction(... */\n    tag_19:\n        /* \"contracts/commitTransaction.sol\":1545:1563  uint transactionId */\n      0x00\n        /* \"contracts/commitTransaction.sol\":1566:1583  nextTransactionId */\n      0x01\n      0x00\n        /* \"contracts/commitTransaction.sol\":1566:1585  nextTransactionId++ */\n      dup2\n      sload\n      dup1\n      swap3\n      swap2\n      swap1\n      tag_115\n      swap1\n      tag_74\n      jump\t// in\n    tag_115:\n      swap2\n      swap1\n      pop\n      sstore\n        /* \"contracts/commitTransaction.sol\":1545:1585  uint transactionId = nextTransactionId++ */\n      swap1\n      pop\n        /* \"contracts/commitTransaction.sol\":1596:1627  TransactionType transactionType */\n      0x00\n        /* \"contracts/commitTransaction.sol\":1630:1646  isBuyTransaction */\n      dup3\n        /* \"contracts/commitTransaction.sol\":1630:1717  isBuyTransaction... */\n      tag_116\n      jumpi\n        /* \"contracts/commitTransaction.sol\":1697:1717  TransactionType.Sell */\n      0x01\n        /* \"contracts/commitTransaction.sol\":1630:1717  isBuyTransaction... */\n      jump(tag_117)\n    tag_116:\n        /* \"contracts/commitTransaction.sol\":1662:1681  TransactionType.Buy */\n      0x00\n        /* \"contracts/commitTransaction.sol\":1630:1717  isBuyTransaction... */\n    tag_117:\n        /* \"contracts/commitTransaction.sol\":1596:1717  TransactionType transactionType = isBuyTransaction... */\n      swap1\n      pop\n        /* \"contracts/commitTransaction.sol\":1760:2004  Transaction(... */\n      mload(0x40)\n      dup1\n      0x0120\n      add\n      0x40\n      mstore\n      dup1\n        /* \"contracts/commitTransaction.sol\":1786:1799  transactionId */\n      dup4\n        /* \"contracts/commitTransaction.sol\":1760:2004  Transaction(... */\n      dup2\n      mstore\n      0x20\n      add\n        /* \"contracts/commitTransaction.sol\":1814:1821  _sender */\n      dup10\n        /* \"contracts/commitTransaction.sol\":1760:2004  Transaction(... */\n      0xffffffffffffffffffffffffffffffffffffffff\n      and\n      dup2\n      mstore\n      0x20\n      add\n        /* \"contracts/commitTransaction.sol\":1836:1844  receiver */\n      dup9\n        /* \"contracts/commitTransaction.sol\":1760:2004  Transaction(... */\n      0xffffffffffffffffffffffffffffffffffffffff\n      and\n      dup2\n      mstore\n      0x20\n      add\n        /* \"contracts/commitTransaction.sol\":1859:1872  _energyAmount */\n      dup8\n        /* \"contracts/commitTransaction.sol\":1760:2004  Transaction(... */\n      dup2\n      mstore\n      0x20\n      add\n        /* \"contracts/commitTransaction.sol\":1887:1893  _price */\n      dup7\n        /* \"contracts/commitTransaction.sol\":1760:2004  Transaction(... */\n      dup2\n      mstore\n      0x20\n      add\n        /* \"contracts/commitTransaction.sol\":1908:1919  _validUntil */\n      dup6\n        /* \"contracts/commitTransaction.sol\":1760:2004  Transaction(... */\n      dup2\n      mstore\n      0x20\n      add\n        /* \"contracts/commitTransaction.sol\":1934:1939  false */\n      0x00\n        /* \"contracts/commitTransaction.sol\":1760:2004  Transaction(... */\n      iszero\n      iszero\n      dup2\n      mstore\n      0x20\n      add\n      mload(0x40)\n      dup1\n      0x40\n      add\n      0x40\n      mstore\n      dup1\n      0x07\n      dup2\n      mstore\n      0x20\n      add\n      0x70656e64696e6700000000000000000000000000000000000000000000000000\n      dup2\n      mstore\n      pop\n      dup2\n      mstore\n      0x20\n      add\n        /* \"contracts/commitTransaction.sol\":1978:1993  transactionType */\n      dup3\n        /* \"contracts/commitTransaction.sol\":1760:2004  Transaction(... */\n      0x01\n      dup2\n      gt\n      iszero\n      tag_118\n      jumpi\n      tag_119\n      tag_88\n      jump\t// in\n    tag_119:\n    tag_118:\n      dup2\n      mstore\n      pop\n        /* \"contracts/commitTransaction.sol\":1730:1742  transactions */\n      0x02\n        /* \"contracts/commitTransaction.sol\":1730:1757  transactions[transactionId] */\n      0x00\n        /* \"contracts/commitTransaction.sol\":1743:1756  transactionId */\n      dup5\n        /* \"contracts/commitTransaction.sol\":1730:1757  transactions[transactionId] */\n      dup2\n      mstore\n      0x20\n      add\n      swap1\n      dup2\n      mstore\n      0x20\n      add\n      0x00\n      keccak256\n        /* \"contracts/commitTransaction.sol\":1730:2004  transactions[transactionId] = Transaction(... */\n      0x00\n      dup3\n      add\n      mload\n      dup2\n      0x00\n      add\n      sstore\n      0x20\n      dup3\n      add\n      mload\n      dup2\n      0x01\n      add\n      exp(0x0100, 0x00)\n      dup2\n      sload\n      dup2\n      0xffffffffffffffffffffffffffffffffffffffff\n      mul\n      not\n      and\n      swap1\n      dup4\n      0xffffffffffffffffffffffffffffffffffffffff\n      and\n      mul\n      or\n      swap1\n      sstore\n      pop\n      0x40\n      dup3\n      add\n      mload\n      dup2\n      0x02\n      add\n      exp(0x0100, 0x00)\n      dup2\n      sload\n      dup2\n      0xffffffffffffffffffffffffffffffffffffffff\n      mul\n      not\n      and\n      swap1\n      dup4\n      0xffffffffffffffffffffffffffffffffffffffff\n      and\n      mul\n      or\n      swap1\n      sstore\n      pop\n      0x60\n      dup3\n      add\n      mload\n      dup2\n      0x03\n      add\n      sstore\n      0x80\n      dup3\n      add\n      mload\n      dup2\n      0x04\n      add\n      sstore\n      0xa0\n      dup3\n      add\n      mload\n      dup2\n      0x05\n      add\n      sstore\n      0xc0\n      dup3\n      add\n      mload\n      dup2\n      0x06\n      add\n      exp(0x0100, 0x00)\n      dup2\n      sload\n      dup2\n      0xff\n      mul\n      not\n      and\n      swap1\n      dup4\n      iszero\n      iszero\n      mul\n      or\n      swap1\n      sstore\n      pop\n      0xe0\n      dup3\n      add\n      mload\n      dup2\n      0x07\n      add\n      swap1\n      dup2\n      tag_120\n      swap2\n      swap1\n      tag_51\n      jump\t// in\n    tag_120:\n      pop\n      0x0100\n      dup3\n      add\n      mload\n      dup2\n      0x08\n      add\n      exp(0x0100, 0x00)\n      dup2\n      sload\n      dup2\n      0xff\n      mul\n      not\n      and\n      swap1\n      dup4\n      0x01\n      dup2\n      gt\n      iszero\n      tag_121\n      jumpi\n      tag_122\n      tag_88\n      jump\t// in\n    tag_122:\n    tag_121:\n      mul\n      or\n      swap1\n      sstore\n      pop\n      swap1\n      pop\n      pop\n        /* \"contracts/commitTransaction.sol\":2017:2036  pendingTransactions */\n      0x03\n        /* \"contracts/commitTransaction.sol\":2042:2055  transactionId */\n      dup3\n        /* \"contracts/commitTransaction.sol\":2017:2056  pendingTransactions.push(transactionId) */\n      swap1\n      dup1\n      0x01\n      dup2\n      sload\n      add\n      dup1\n      dup3\n      sstore\n      dup1\n      swap2\n      pop\n      pop\n      0x01\n      swap1\n      sub\n      swap1\n      0x00\n      mstore\n      keccak256(0x00, 0x20)\n      add\n      0x00\n      swap1\n      swap2\n      swap1\n      swap2\n      swap1\n      swap2\n      pop\n      sstore\n        /* \"contracts/commitTransaction.sol\":2074:2136  TransactionInitiated(transactionId, receiver, transactionType) */\n      0x6f2fac3f769ed900eb9891a73caa7b5267ce788a20299805ce4b85934cb200f5\n        /* \"contracts/commitTransaction.sol\":2095:2108  transactionId */\n      dup3\n        /* \"contracts/commitTransaction.sol\":2110:2118  receiver */\n      dup9\n        /* \"contracts/commitTransaction.sol\":2120:2135  transactionType */\n      dup4\n        /* \"contracts/commitTransaction.sol\":2074:2136  TransactionInitiated(transactionId, receiver, transactionType) */\n      mload(0x40)\n      tag_124\n      swap4\n      swap3\n      swap2\n      swap1\n      tag_125\n      jump\t// in\n    tag_124:\n      mload(0x40)\n      dup1\n      swap2\n      sub\n      swap1\n      log1\n        /* \"contracts/commitTransaction.sol\":1534:2144  {... */\n      pop\n      pop\n        /* \"contracts/commitTransaction.sol\":1328:2144  function initiateTransaction(... */\n      pop\n      pop\n      pop\n      pop\n      pop\n      pop\n      jump\t// out\n        /* \"contracts/commitTransaction.sol\":5034:5270  function retrieveUserInfo(... */\n    tag_23:\n        /* \"contracts/commitTransaction.sol\":5146:5159  string memory */\n      0x60\n        /* \"contracts/commitTransaction.sol\":5161:5167  int256 */\n      0x00\n        /* \"contracts/commitTransaction.sol\":5169:5175  int256 */\n      dup1\n        /* \"contracts/commitTransaction.sol\":5177:5184  uint256 */\n      0x00\n        /* \"contracts/commitTransaction.sol\":5186:5193  uint256 */\n      dup1\n        /* \"contracts/commitTransaction.sol\":5195:5199  bool */\n      0x00\n        /* \"contracts/commitTransaction.sol\":5224:5236  mainContract */\n      dup1\n      0x00\n      swap1\n      sload\n      swap1\n      0x0100\n      exp\n      swap1\n      div\n      0xffffffffffffffffffffffffffffffffffffffff\n      and\n        /* \"contracts/commitTransaction.sol\":5224:5248  mainContract.getUserInfo */\n      0xffffffffffffffffffffffffffffffffffffffff\n      and\n      0x6386c1c7\n        /* \"contracts/commitTransaction.sol\":5249:5261  _userAddress */\n      dup9\n        /* \"contracts/commitTransaction.sol\":5224:5262  mainContract.getUserInfo(_userAddress) */\n      mload(0x40)\n      dup3\n      0xffffffff\n      and\n      0xe0\n      shl\n      dup2\n      mstore\n      0x04\n      add\n      tag_127\n      swap2\n      swap1\n      tag_77\n      jump\t// in\n    tag_127:\n      0x00\n      mload(0x40)\n      dup1\n      dup4\n      sub\n      dup2\n      dup7\n      gas\n      staticcall\n      iszero\n      dup1\n      iszero\n      tag_129\n      jumpi\n      returndatasize\n      0x00\n      dup1\n      returndatacopy\n      revert(0x00, returndatasize)\n    tag_129:\n      pop\n      pop\n      pop\n      pop\n      mload(0x40)\n      returndatasize\n      0x00\n      dup3\n      returndatacopy\n      returndatasize\n      not(0x1f)\n      0x1f\n      dup3\n      add\n      and\n      dup3\n      add\n      dup1\n      0x40\n      mstore\n      pop\n      dup2\n      add\n      swap1\n      tag_130\n      swap2\n      swap1\n      tag_81\n      jump\t// in\n    tag_130:\n        /* \"contracts/commitTransaction.sol\":5217:5262  return mainContract.getUserInfo(_userAddress) */\n      swap6\n      pop\n      swap6\n      pop\n      swap6\n      pop\n      swap6\n      pop\n      swap6\n      pop\n      swap6\n      pop\n        /* \"contracts/commitTransaction.sol\":5034:5270  function retrieveUserInfo(... */\n      swap2\n      swap4\n      swap6\n      pop\n      swap2\n      swap4\n      swap6\n      jump\t// out\n        /* \"contracts/commitTransaction.sol\":986:1019  uint[] public pendingTransactions */\n    tag_29:\n      0x03\n      dup2\n      dup2\n      sload\n      dup2\n      lt\n      tag_131\n      jumpi\n      0x00\n      dup1\n      revert\n    tag_131:\n      swap1\n      0x00\n      mstore\n      keccak256(0x00, 0x20)\n      add\n      0x00\n      swap2\n      pop\n      swap1\n      pop\n      sload\n      dup2\n      jump\t// out\n        /* \"contracts/commitTransaction.sol\":931:979  mapping(uint => Transaction) public transactions */\n    tag_34:\n      mstore(0x20, 0x02)\n      dup1\n      0x00\n      mstore\n      keccak256(0x00, 0x40)\n      0x00\n      swap2\n      pop\n      swap1\n      pop\n      dup1\n      0x00\n      add\n      sload\n      swap1\n      dup1\n      0x01\n      add\n      0x00\n      swap1\n      sload\n      swap1\n      0x0100\n      exp\n      swap1\n      div\n      0xffffffffffffffffffffffffffffffffffffffff\n      and\n      swap1\n      dup1\n      0x02\n      add\n      0x00\n      swap1\n      sload\n      swap1\n      0x0100\n      exp\n      swap1\n      div\n      0xffffffffffffffffffffffffffffffffffffffff\n      and\n      swap1\n      dup1\n      0x03\n      add\n      sload\n      swap1\n      dup1\n      0x04\n      add\n      sload\n      swap1\n      dup1\n      0x05\n      add\n      sload\n      swap1\n      dup1\n      0x06\n      add\n      0x00\n      swap1\n      sload\n      swap1\n      0x0100\n      exp\n      swap1\n      div\n      0xff\n      and\n      swap1\n      dup1\n      0x07\n      add\n      dup1\n      sload\n      tag_133\n      swap1\n      tag_134\n      jump\t// in\n    tag_133:\n      dup1\n      0x1f\n      add\n      0x20\n      dup1\n      swap2\n      div\n      mul\n      0x20\n      add\n      mload(0x40)\n      swap1\n      dup2\n      add\n      0x40\n      mstore\n      dup1\n      swap3\n      swap2\n      swap1\n      dup2\n      dup2\n      mstore\n      0x20\n      add\n      dup3\n      dup1\n      sload\n      tag_135\n      swap1\n      tag_134\n      jump\t// in\n    tag_135:\n      dup1\n      iszero\n      tag_136\n      jumpi\n      dup1\n      0x1f\n      lt\n      tag_137\n      jumpi\n      0x0100\n      dup1\n      dup4\n      sload\n      div\n      mul\n      dup4\n      mstore\n      swap2\n      0x20\n      add\n      swap2\n      jump(tag_136)\n    tag_137:\n      dup3\n      add\n      swap2\n      swap1\n      0x00\n      mstore\n      keccak256(0x00, 0x20)\n      swap1\n    tag_138:\n      dup2\n      sload\n      dup2\n      mstore\n      swap1\n      0x01\n      add\n      swap1\n      0x20\n      add\n      dup1\n      dup4\n      gt\n      tag_138\n      jumpi\n      dup3\n      swap1\n      sub\n      0x1f\n      and\n      dup3\n      add\n      swap2\n    tag_136:\n      pop\n      pop\n      pop\n      pop\n      pop\n      swap1\n      dup1\n      0x08\n      add\n      0x00\n      swap1\n      sload\n      swap1\n      0x0100\n      exp\n      swap1\n      div\n      0xff\n      and\n      swap1\n      pop\n      dup10\n      jump\t// out\n        /* \"contracts/commitTransaction.sol\":4192:4600  function getAllPendingTransactions()... */\n    tag_38:\n        /* \"contracts/commitTransaction.sol\":4277:4297  Transaction[] memory */\n      0x60\n        /* \"contracts/commitTransaction.sol\":4315:4347  Transaction[] memory pendingData */\n      0x00\n        /* \"contracts/commitTransaction.sol\":4382:4401  pendingTransactions */\n      0x03\n        /* \"contracts/commitTransaction.sol\":4382:4408  pendingTransactions.length */\n      dup1\n      sload\n      swap1\n      pop\n        /* \"contracts/commitTransaction.sol\":4350:4419  new Transaction[](... */\n      0xffffffffffffffff\n      dup2\n      gt\n      iszero\n      tag_140\n      jumpi\n      tag_141\n      tag_142\n      jump\t// in\n    tag_141:\n    tag_140:\n      mload(0x40)\n      swap1\n      dup1\n      dup3\n      mstore\n      dup1\n      0x20\n      mul\n      0x20\n      add\n      dup3\n      add\n      0x40\n      mstore\n      dup1\n      iszero\n      tag_143\n      jumpi\n      dup2\n      0x20\n      add\n    tag_144:\n      tag_145\n      tag_146\n      jump\t// in\n    tag_145:\n      dup2\n      mstore\n      0x20\n      add\n      swap1\n      0x01\n      swap1\n      sub\n      swap1\n      dup2\n      tag_144\n      jumpi\n      swap1\n      pop\n    tag_143:\n      pop\n        /* \"contracts/commitTransaction.sol\":4315:4419  Transaction[] memory pendingData = new Transaction[](... */\n      swap1\n      pop\n        /* \"contracts/commitTransaction.sol\":4435:4441  uint i */\n      0x00\n        /* \"contracts/commitTransaction.sol\":4430:4564  for (uint i = 0; i < pendingTransactions.length; i++) {... */\n    tag_147:\n        /* \"contracts/commitTransaction.sol\":4451:4470  pendingTransactions */\n      0x03\n        /* \"contracts/commitTransaction.sol\":4451:4477  pendingTransactions.length */\n      dup1\n      sload\n      swap1\n      pop\n        /* \"contracts/commitTransaction.sol\":4447:4448  i */\n      dup2\n        /* \"contracts/commitTransaction.sol\":4447:4477  i < pendingTransactions.length */\n      lt\n        /* \"contracts/commitTransaction.sol\":4430:4564  for (uint i = 0; i < pendingTransactions.length; i++) {... */\n      iszero\n      tag_148\n      jumpi\n        /* \"contracts/commitTransaction.sol\":4516:4528  transactions */\n      0x02\n        /* \"contracts/commitTransaction.sol\":4516:4552  transactions[pendingTransactions[i]] */\n      0x00\n        /* \"contracts/commitTransaction.sol\":4529:4548  pendingTransactions */\n      0x03\n        /* \"contracts/commitTransaction.sol\":4549:4550  i */\n      dup4\n        /* \"contracts/commitTransaction.sol\":4529:4551  pendingTransactions[i] */\n      dup2\n      sload\n      dup2\n      lt\n      tag_150\n      jumpi\n      tag_151\n      tag_58\n      jump\t// in\n    tag_151:\n    tag_150:\n      swap1\n      0x00\n      mstore\n      keccak256(0x00, 0x20)\n      add\n      sload\n        /* \"contracts/commitTransaction.sol\":4516:4552  transactions[pendingTransactions[i]] */\n      dup2\n      mstore\n      0x20\n      add\n      swap1\n      dup2\n      mstore\n      0x20\n      add\n      0x00\n      keccak256\n        /* \"contracts/commitTransaction.sol\":4499:4552  pendingData[i] = transactions[pendingTransactions[i]] */\n      mload(0x40)\n      dup1\n      0x0120\n      add\n      0x40\n      mstore\n      swap1\n      dup2\n      0x00\n      dup3\n      add\n      sload\n      dup2\n      mstore\n      0x20\n      add\n      0x01\n      dup3\n      add\n      0x00\n      swap1\n      sload\n      swap1\n      0x0100\n      exp\n      swap1\n      div\n      0xffffffffffffffffffffffffffffffffffffffff\n      and\n      0xffffffffffffffffffffffffffffffffffffffff\n      and\n      0xffffffffffffffffffffffffffffffffffffffff\n      and\n      dup2\n      mstore\n      0x20\n      add\n      0x02\n      dup3\n      add\n      0x00\n      swap1\n      sload\n      swap1\n      0x0100\n      exp\n      swap1\n      div\n      0xffffffffffffffffffffffffffffffffffffffff\n      and\n      0xffffffffffffffffffffffffffffffffffffffff\n      and\n      0xffffffffffffffffffffffffffffffffffffffff\n      and\n      dup2\n      mstore\n      0x20\n      add\n      0x03\n      dup3\n      add\n      sload\n      dup2\n      mstore\n      0x20\n      add\n      0x04\n      dup3\n      add\n      sload\n      dup2\n      mstore\n      0x20\n      add\n      0x05\n      dup3\n      add\n      sload\n      dup2\n      mstore\n      0x20\n      add\n      0x06\n      dup3\n      add\n      0x00\n      swap1\n      sload\n      swap1\n      0x0100\n      exp\n      swap1\n      div\n      0xff\n      and\n      iszero\n      iszero\n      iszero\n      iszero\n      dup2\n      mstore\n      0x20\n      add\n      0x07\n      dup3\n      add\n      dup1\n      sload\n      tag_153\n      swap1\n      tag_134\n      jump\t// in\n    tag_153:\n      dup1\n      0x1f\n      add\n      0x20\n      dup1\n      swap2\n      div\n      mul\n      0x20\n      add\n      mload(0x40)\n      swap1\n      dup2\n      add\n      0x40\n      mstore\n      dup1\n      swap3\n      swap2\n      swap1\n      dup2\n      dup2\n      mstore\n      0x20\n      add\n      dup3\n      dup1\n      sload\n      tag_154\n      swap1\n      tag_134\n      jump\t// in\n    tag_154:\n      dup1\n      iszero\n      tag_155\n      jumpi\n      dup1\n      0x1f\n      lt\n      tag_156\n      jumpi\n      0x0100\n      dup1\n      dup4\n      sload\n      div\n      mul\n      dup4\n      mstore\n      swap2\n      0x20\n      add\n      swap2\n      jump(tag_155)\n    tag_156:\n      dup3\n      add\n      swap2\n      swap1\n      0x00\n      mstore\n      keccak256(0x00, 0x20)\n      swap1\n    tag_157:\n      dup2\n      sload\n      dup2\n      mstore\n      swap1\n      0x01\n      add\n      swap1\n      0x20\n      add\n      dup1\n      dup4\n      gt\n      tag_157\n      jumpi\n      dup3\n      swap1\n      sub\n      0x1f\n      and\n      dup3\n      add\n      swap2\n    tag_155:\n      pop\n      pop\n      pop\n      pop\n      pop\n      dup2\n      mstore\n      0x20\n      add\n      0x08\n      dup3\n      add\n      0x00\n      swap1\n      sload\n      swap1\n      0x0100\n      exp\n      swap1\n      div\n      0xff\n      and\n      0x01\n      dup2\n      gt\n      iszero\n      tag_158\n      jumpi\n      tag_159\n      tag_88\n      jump\t// in\n    tag_159:\n    tag_158:\n      0x01\n      dup2\n      gt\n      iszero\n      tag_160\n      jumpi\n      tag_161\n      tag_88\n      jump\t// in\n    tag_161:\n    tag_160:\n      dup2\n      mstore\n      pop\n      pop\n        /* \"contracts/commitTransaction.sol\":4499:4510  pendingData */\n      dup3\n        /* \"contracts/commitTransaction.sol\":4511:4512  i */\n      dup3\n        /* \"contracts/commitTransaction.sol\":4499:4513  pendingData[i] */\n      dup2\n      mload\n      dup2\n      lt\n      tag_162\n      jumpi\n      tag_163\n      tag_58\n      jump\t// in\n    tag_163:\n    tag_162:\n      0x20\n      mul\n      0x20\n      add\n      add\n        /* \"contracts/commitTransaction.sol\":4499:4552  pendingData[i] = transactions[pendingTransactions[i]] */\n      dup2\n      swap1\n      mstore\n      pop\n        /* \"contracts/commitTransaction.sol\":4479:4482  i++ */\n      dup1\n      dup1\n      tag_164\n      swap1\n      tag_74\n      jump\t// in\n    tag_164:\n      swap2\n      pop\n      pop\n        /* \"contracts/commitTransaction.sol\":4430:4564  for (uint i = 0; i < pendingTransactions.length; i++) {... */\n      jump(tag_147)\n    tag_148:\n      pop\n        /* \"contracts/commitTransaction.sol\":4581:4592  pendingData */\n      dup1\n        /* \"contracts/commitTransaction.sol\":4574:4592  return pendingData */\n      swap2\n      pop\n      pop\n        /* \"contracts/commitTransaction.sol\":4192:4600  function getAllPendingTransactions()... */\n      swap1\n      jump\t// out\n        /* \"contracts/commitTransaction.sol\":4606:5028  function getAllCommittedTransactions()... */\n    tag_42:\n        /* \"contracts/commitTransaction.sol\":4693:4713  Transaction[] memory */\n      0x60\n        /* \"contracts/commitTransaction.sol\":4731:4765  Transaction[] memory committedData */\n      0x00\n        /* \"contracts/commitTransaction.sol\":4800:4821  committedTransactions */\n      0x04\n        /* \"contracts/commitTransaction.sol\":4800:4828  committedTransactions.length */\n      dup1\n      sload\n      swap1\n      pop\n        /* \"contracts/commitTransaction.sol\":4768:4839  new Transaction[](... */\n      0xffffffffffffffff\n      dup2\n      gt\n      iszero\n      tag_166\n      jumpi\n      tag_167\n      tag_142\n      jump\t// in\n    tag_167:\n    tag_166:\n      mload(0x40)\n      swap1\n      dup1\n      dup3\n      mstore\n      dup1\n      0x20\n      mul\n      0x20\n      add\n      dup3\n      add\n      0x40\n      mstore\n      dup1\n      iszero\n      tag_168\n      jumpi\n      dup2\n      0x20\n      add\n    tag_169:\n      tag_170\n      tag_146\n      jump\t// in\n    tag_170:\n      dup2\n      mstore\n      0x20\n      add\n      swap1\n      0x01\n      swap1\n      sub\n      swap1\n      dup2\n      tag_169\n      jumpi\n      swap1\n      pop\n    tag_168:\n      pop\n        /* \"contracts/commitTransaction.sol\":4731:4839  Transaction[] memory committedData = new Transaction[](... */\n      swap1\n      pop\n        /* \"contracts/commitTransaction.sol\":4855:4861  uint i */\n      0x00\n        /* \"contracts/commitTransaction.sol\":4850:4990  for (uint i = 0; i < committedTransactions.length; i++) {... */\n    tag_171:\n        /* \"contracts/commitTransaction.sol\":4871:4892  committedTransactions */\n      0x04\n        /* \"contracts/commitTransaction.sol\":4871:4899  committedTransactions.length */\n      dup1\n      sload\n      swap1\n      pop\n        /* \"contracts/commitTransaction.sol\":4867:4868  i */\n      dup2\n        /* \"contracts/commitTransaction.sol\":4867:4899  i < committedTransactions.length */\n      lt\n        /* \"contracts/commitTransaction.sol\":4850:4990  for (uint i = 0; i < committedTransactions.length; i++) {... */\n      iszero\n      tag_172\n      jumpi\n        /* \"contracts/commitTransaction.sol\":4940:4952  transactions */\n      0x02\n        /* \"contracts/commitTransaction.sol\":4940:4978  transactions[committedTransactions[i]] */\n      0x00\n        /* \"contracts/commitTransaction.sol\":4953:4974  committedTransactions */\n      0x04\n        /* \"contracts/commitTransaction.sol\":4975:4976  i */\n      dup4\n        /* \"contracts/commitTransaction.sol\":4953:4977  committedTransactions[i] */\n      dup2\n      sload\n      dup2\n      lt\n      tag_174\n      jumpi\n      tag_175\n      tag_58\n      jump\t// in\n    tag_175:\n    tag_174:\n      swap1\n      0x00\n      mstore\n      keccak256(0x00, 0x20)\n      add\n      sload\n        /* \"contracts/commitTransaction.sol\":4940:4978  transactions[committedTransactions[i]] */\n      dup2\n      mstore\n      0x20\n      add\n      swap1\n      dup2\n      mstore\n      0x20\n      add\n      0x00\n      keccak256\n        /* \"contracts/commitTransaction.sol\":4921:4978  committedData[i] = transactions[committedTransactions[i]] */\n      mload(0x40)\n      dup1\n      0x0120\n      add\n      0x40\n      mstore\n      swap1\n      dup2\n      0x00\n      dup3\n      add\n      sload\n      dup2\n      mstore\n      0x20\n      add\n      0x01\n      dup3\n      add\n      0x00\n      swap1\n      sload\n      swap1\n      0x0100\n      exp\n      swap1\n      div\n      0xffffffffffffffffffffffffffffffffffffffff\n      and\n      0xffffffffffffffffffffffffffffffffffffffff\n      and\n      0xffffffffffffffffffffffffffffffffffffffff\n      and\n      dup2\n      mstore\n      0x20\n      add\n      0x02\n      dup3\n      add\n      0x00\n      swap1\n      sload\n      swap1\n      0x0100\n      exp\n      swap1\n      div\n      0xffffffffffffffffffffffffffffffffffffffff\n      and\n      0xffffffffffffffffffffffffffffffffffffffff\n      and\n      0xffffffffffffffffffffffffffffffffffffffff\n      and\n      dup2\n      mstore\n      0x20\n      add\n      0x03\n      dup3\n      add\n      sload\n      dup2\n      mstore\n      0x20\n      add\n      0x04\n      dup3\n      add\n      sload\n      dup2\n      mstore\n      0x20\n      add\n      0x05\n      dup3\n      add\n      sload\n      dup2\n      mstore\n      0x20\n      add\n      0x06\n      dup3\n      add\n      0x00\n      swap1\n      sload\n      swap1\n      0x0100\n      exp\n      swap1\n      div\n      0xff\n      and\n      iszero\n      iszero\n      iszero\n      iszero\n      dup2\n      mstore\n      0x20\n      add\n      0x07\n      dup3\n      add\n      dup1\n      sload\n      tag_177\n      swap1\n      tag_134\n      jump\t// in\n    tag_177:\n      dup1\n      0x1f\n      add\n      0x20\n      dup1\n      swap2\n      div\n      mul\n      0x20\n      add\n      mload(0x40)\n      swap1\n      dup2\n      add\n      0x40\n      mstore\n      dup1\n      swap3\n      swap2\n      swap1\n      dup2\n      dup2\n      mstore\n      0x20\n      add\n      dup3\n      dup1\n      sload\n      tag_178\n      swap1\n      tag_134\n      jump\t// in\n    tag_178:\n      dup1\n      iszero\n      tag_179\n      jumpi\n      dup1\n      0x1f\n      lt\n      tag_180\n      jumpi\n      0x0100\n      dup1\n      dup4\n      sload\n      div\n      mul\n      dup4\n      mstore\n      swap2\n      0x20\n      add\n      swap2\n      jump(tag_179)\n    tag_180:\n      dup3\n      add\n      swap2\n      swap1\n      0x00\n      mstore\n      keccak256(0x00, 0x20)\n      swap1\n    tag_181:\n      dup2\n      sload\n      dup2\n      mstore\n      swap1\n      0x01\n      add\n      swap1\n      0x20\n      add\n      dup1\n      dup4\n      gt\n      tag_181\n      jumpi\n      dup3\n      swap1\n      sub\n      0x1f\n      and\n      dup3\n      add\n      swap2\n    tag_179:\n      pop\n      pop\n      pop\n      pop\n      pop\n      dup2\n      mstore\n      0x20\n      add\n      0x08\n      dup3\n      add\n      0x00\n      swap1\n      sload\n      swap1\n      0x0100\n      exp\n      swap1\n      div\n      0xff\n      and\n      0x01\n      dup2\n      gt\n      iszero\n      tag_182\n      jumpi\n      tag_183\n      tag_88\n      jump\t// in\n    tag_183:\n    tag_182:\n      0x01\n      dup2\n      gt\n      iszero\n      tag_184\n      jumpi\n      tag_185\n      tag_88\n      jump\t// in\n    tag_185:\n    tag_184:\n      dup2\n      mstore\n      pop\n      pop\n        /* \"contracts/commitTransaction.sol\":4921:4934  committedData */\n      dup3\n        /* \"contracts/commitTransaction.sol\":4935:4936  i */\n      dup3\n        /* \"contracts/commitTransaction.sol\":4921:4937  committedData[i] */\n      dup2\n      mload\n      dup2\n      lt\n      tag_186\n      jumpi\n      tag_187\n      tag_58\n      jump\t// in\n    tag_187:\n    tag_186:\n      0x20\n      mul\n      0x20\n      add\n      add\n        /* \"contracts/commitTransaction.sol\":4921:4978  committedData[i] = transactions[committedTransactions[i]] */\n      dup2\n      swap1\n      mstore\n      pop\n        /* \"contracts/commitTransaction.sol\":4901:4904  i++ */\n      dup1\n      dup1\n      tag_188\n      swap1\n      tag_74\n      jump\t// in\n    tag_188:\n      swap2\n      pop\n      pop\n        /* \"contracts/commitTransaction.sol\":4850:4990  for (uint i = 0; i < committedTransactions.length; i++) {... */\n      jump(tag_171)\n    tag_172:\n      pop\n        /* \"contracts/commitTransaction.sol\":5007:5020  committedData */\n      dup1\n        /* \"contracts/commitTransaction.sol\":5000:5020  return committedData */\n      swap2\n      pop\n      pop\n        /* \"contracts/commitTransaction.sol\":4606:5028  function getAllCommittedTransactions()... */\n      swap1\n      jump\t// out\n        /* \"contracts/commitTransaction.sol\":4058:4184  function getNumberOfNotCommittedTransactions() public view returns (uint) {... */\n    tag_45:\n        /* \"contracts/commitTransaction.sol\":4126:4130  uint */\n      0x00\n        /* \"contracts/commitTransaction.sol\":4150:4169  pendingTransactions */\n      0x03\n        /* \"contracts/commitTransaction.sol\":4150:4176  pendingTransactions.length */\n      dup1\n      sload\n      swap1\n      pop\n        /* \"contracts/commitTransaction.sol\":4143:4176  return pendingTransactions.length */\n      swap1\n      pop\n        /* \"contracts/commitTransaction.sol\":4058:4184  function getNumberOfNotCommittedTransactions() public view returns (uint) {... */\n      swap1\n      jump\t// out\n    tag_146:\n      mload(0x40)\n      dup1\n      0x0120\n      add\n      0x40\n      mstore\n      dup1\n      0x00\n      dup2\n      mstore\n      0x20\n      add\n      and(0xffffffffffffffffffffffffffffffffffffffff, 0x00)\n      dup2\n      mstore\n      0x20\n      add\n      and(0xffffffffffffffffffffffffffffffffffffffff, 0x00)\n      dup2\n      mstore\n      0x20\n      add\n      0x00\n      dup2\n      mstore\n      0x20\n      add\n      0x00\n      dup2\n      mstore\n      0x20\n      add\n      0x00\n      dup2\n      mstore\n      0x20\n      add\n      iszero(iszero(0x00))\n      dup2\n      mstore\n      0x20\n      add\n      0x60\n      dup2\n      mstore\n      0x20\n      add\n      0x00\n      0x01\n      dup2\n      gt\n      iszero\n      tag_190\n      jumpi\n      tag_191\n      tag_88\n      jump\t// in\n    tag_191:\n    tag_190:\n      dup2\n      mstore\n      pop\n      swap1\n      jump\t// out\n        /* \"#utility.yul\":7:82   */\n    tag_192:\n        /* \"#utility.yul\":40:46   */\n      0x00\n        /* \"#utility.yul\":73:75   */\n      0x40\n        /* \"#utility.yul\":67:76   */\n      mload\n        /* \"#utility.yul\":57:76   */\n      swap1\n      pop\n        /* \"#utility.yul\":7:82   */\n      swap1\n      jump\t// out\n        /* \"#utility.yul\":88:205   */\n    tag_193:\n        /* \"#utility.yul\":197:198   */\n      0x00\n        /* \"#utility.yul\":194:195   */\n      dup1\n        /* \"#utility.yul\":187:199   */\n      revert\n        /* \"#utility.yul\":211:328   */\n    tag_194:\n        /* \"#utility.yul\":320:321   */\n      0x00\n        /* \"#utility.yul\":317:318   */\n      dup1\n        /* \"#utility.yul\":310:322   */\n      revert\n        /* \"#utility.yul\":334:411   */\n    tag_195:\n        /* \"#utility.yul\":371:378   */\n      0x00\n        /* \"#utility.yul\":400:405   */\n      dup2\n        /* \"#utility.yul\":389:405   */\n      swap1\n      pop\n        /* \"#utility.yul\":334:411   */\n      swap2\n      swap1\n      pop\n      jump\t// out\n        /* \"#utility.yul\":417:539   */\n    tag_196:\n        /* \"#utility.yul\":490:514   */\n      tag_267\n        /* \"#utility.yul\":508:513   */\n      dup2\n        /* \"#utility.yul\":490:514   */\n      tag_195\n      jump\t// in\n    tag_267:\n        /* \"#utility.yul\":483:488   */\n      dup2\n        /* \"#utility.yul\":480:515   */\n      eq\n        /* \"#utility.yul\":470:533   */\n      tag_268\n      jumpi\n        /* \"#utility.yul\":529:530   */\n      0x00\n        /* \"#utility.yul\":526:527   */\n      dup1\n        /* \"#utility.yul\":519:531   */\n      revert\n        /* \"#utility.yul\":470:533   */\n    tag_268:\n        /* \"#utility.yul\":417:539   */\n      pop\n      jump\t// out\n        /* \"#utility.yul\":545:684   */\n    tag_197:\n        /* \"#utility.yul\":591:596   */\n      0x00\n        /* \"#utility.yul\":629:635   */\n      dup2\n        /* \"#utility.yul\":616:636   */\n      calldataload\n        /* \"#utility.yul\":607:636   */\n      swap1\n      pop\n        /* \"#utility.yul\":645:678   */\n      tag_270\n        /* \"#utility.yul\":672:677   */\n      dup2\n        /* \"#utility.yul\":645:678   */\n      tag_196\n      jump\t// in\n    tag_270:\n        /* \"#utility.yul\":545:684   */\n      swap3\n      swap2\n      pop\n      pop\n      jump\t// out\n        /* \"#utility.yul\":690:780   */\n    tag_198:\n        /* \"#utility.yul\":724:731   */\n      0x00\n        /* \"#utility.yul\":767:772   */\n      dup2\n        /* \"#utility.yul\":760:773   */\n      iszero\n        /* \"#utility.yul\":753:774   */\n      iszero\n        /* \"#utility.yul\":742:774   */\n      swap1\n      pop\n        /* \"#utility.yul\":690:780   */\n      swap2\n      swap1\n      pop\n      jump\t// out\n        /* \"#utility.yul\":786:902   */\n    tag_199:\n        /* \"#utility.yul\":856:877   */\n      tag_273\n        /* \"#utility.yul\":871:876   */\n      dup2\n        /* \"#utility.yul\":856:877   */\n      tag_198\n      jump\t// in\n    tag_273:\n        /* \"#utility.yul\":849:854   */\n      dup2\n        /* \"#utility.yul\":846:878   */\n      eq\n        /* \"#utility.yul\":836:896   */\n      tag_274\n      jumpi\n        /* \"#utility.yul\":892:893   */\n      0x00\n        /* \"#utility.yul\":889:890   */\n      dup1\n        /* \"#utility.yul\":882:894   */\n      revert\n        /* \"#utility.yul\":836:896   */\n    tag_274:\n        /* \"#utility.yul\":786:902   */\n      pop\n      jump\t// out\n        /* \"#utility.yul\":908:1041   */\n    tag_200:\n        /* \"#utility.yul\":951:956   */\n      0x00\n        /* \"#utility.yul\":989:995   */\n      dup2\n        /* \"#utility.yul\":976:996   */\n      calldataload\n        /* \"#utility.yul\":967:996   */\n      swap1\n      pop\n        /* \"#utility.yul\":1005:1035   */\n      tag_276\n        /* \"#utility.yul\":1029:1034   */\n      dup2\n        /* \"#utility.yul\":1005:1035   */\n      tag_199\n      jump\t// in\n    tag_276:\n        /* \"#utility.yul\":908:1041   */\n      swap3\n      swap2\n      pop\n      pop\n      jump\t// out\n        /* \"#utility.yul\":1047:1515   */\n    tag_14:\n        /* \"#utility.yul\":1112:1118   */\n      0x00\n        /* \"#utility.yul\":1120:1126   */\n      dup1\n        /* \"#utility.yul\":1169:1171   */\n      0x40\n        /* \"#utility.yul\":1157:1166   */\n      dup4\n        /* \"#utility.yul\":1148:1155   */\n      dup6\n        /* \"#utility.yul\":1144:1167   */\n      sub\n        /* \"#utility.yul\":1140:1172   */\n      slt\n        /* \"#utility.yul\":1137:1256   */\n      iszero\n      tag_278\n      jumpi\n        /* \"#utility.yul\":1175:1254   */\n      tag_279\n      tag_193\n      jump\t// in\n    tag_279:\n        /* \"#utility.yul\":1137:1256   */\n    tag_278:\n        /* \"#utility.yul\":1295:1296   */\n      0x00\n        /* \"#utility.yul\":1320:1373   */\n      tag_280\n        /* \"#utility.yul\":1365:1372   */\n      dup6\n        /* \"#utility.yul\":1356:1362   */\n      dup3\n        /* \"#utility.yul\":1345:1354   */\n      dup7\n        /* \"#utility.yul\":1341:1363   */\n      add\n        /* \"#utility.yul\":1320:1373   */\n      tag_197\n      jump\t// in\n    tag_280:\n        /* \"#utility.yul\":1310:1373   */\n      swap3\n      pop\n        /* \"#utility.yul\":1266:1383   */\n      pop\n        /* \"#utility.yul\":1422:1424   */\n      0x20\n        /* \"#utility.yul\":1448:1498   */\n      tag_281\n        /* \"#utility.yul\":1490:1497   */\n      dup6\n        /* \"#utility.yul\":1481:1487   */\n      dup3\n        /* \"#utility.yul\":1470:1479   */\n      dup7\n        /* \"#utility.yul\":1466:1488   */\n      add\n        /* \"#utility.yul\":1448:1498   */\n      tag_200\n      jump\t// in\n    tag_281:\n        /* \"#utility.yul\":1438:1498   */\n      swap2\n      pop\n        /* \"#utility.yul\":1393:1508   */\n      pop\n        /* \"#utility.yul\":1047:1515   */\n      swap3\n      pop\n      swap3\n      swap1\n      pop\n      jump\t// out\n        /* \"#utility.yul\":1521:1647   */\n    tag_201:\n        /* \"#utility.yul\":1558:1565   */\n      0x00\n        /* \"#utility.yul\":1598:1640   */\n      0xffffffffffffffffffffffffffffffffffffffff\n        /* \"#utility.yul\":1591:1596   */\n      dup3\n        /* \"#utility.yul\":1587:1641   */\n      and\n        /* \"#utility.yul\":1576:1641   */\n      swap1\n      pop\n        /* \"#utility.yul\":1521:1647   */\n      swap2\n      swap1\n      pop\n      jump\t// out\n        /* \"#utility.yul\":1653:1749   */\n    tag_202:\n        /* \"#utility.yul\":1690:1697   */\n      0x00\n        /* \"#utility.yul\":1719:1743   */\n      tag_284\n        /* \"#utility.yul\":1737:1742   */\n      dup3\n        /* \"#utility.yul\":1719:1743   */\n      tag_201\n      jump\t// in\n    tag_284:\n        /* \"#utility.yul\":1708:1743   */\n      swap1\n      pop\n        /* \"#utility.yul\":1653:1749   */\n      swap2\n      swap1\n      pop\n      jump\t// out\n        /* \"#utility.yul\":1755:1877   */\n    tag_203:\n        /* \"#utility.yul\":1828:1852   */\n      tag_286\n        /* \"#utility.yul\":1846:1851   */\n      dup2\n        /* \"#utility.yul\":1828:1852   */\n      tag_202\n      jump\t// in\n    tag_286:\n        /* \"#utility.yul\":1821:1826   */\n      dup2\n        /* \"#utility.yul\":1818:1853   */\n      eq\n        /* \"#utility.yul\":1808:1871   */\n      tag_287\n      jumpi\n        /* \"#utility.yul\":1867:1868   */\n      0x00\n        /* \"#utility.yul\":1864:1865   */\n      dup1\n        /* \"#utility.yul\":1857:1869   */\n      revert\n        /* \"#utility.yul\":1808:1871   */\n    tag_287:\n        /* \"#utility.yul\":1755:1877   */\n      pop\n      jump\t// out\n        /* \"#utility.yul\":1883:2022   */\n    tag_204:\n        /* \"#utility.yul\":1929:1934   */\n      0x00\n        /* \"#utility.yul\":1967:1973   */\n      dup2\n        /* \"#utility.yul\":1954:1974   */\n      calldataload\n        /* \"#utility.yul\":1945:1974   */\n      swap1\n      pop\n        /* \"#utility.yul\":1983:2016   */\n      tag_289\n        /* \"#utility.yul\":2010:2015   */\n      dup2\n        /* \"#utility.yul\":1983:2016   */\n      tag_203\n      jump\t// in\n    tag_289:\n        /* \"#utility.yul\":1883:2022   */\n      swap3\n      swap2\n      pop\n      pop\n      jump\t// out\n        /* \"#utility.yul\":2028:3079   */\n    tag_18:\n        /* \"#utility.yul\":2129:2135   */\n      0x00\n        /* \"#utility.yul\":2137:2143   */\n      dup1\n        /* \"#utility.yul\":2145:2151   */\n      0x00\n        /* \"#utility.yul\":2153:2159   */\n      dup1\n        /* \"#utility.yul\":2161:2167   */\n      0x00\n        /* \"#utility.yul\":2169:2175   */\n      dup1\n        /* \"#utility.yul\":2218:2221   */\n      0xc0\n        /* \"#utility.yul\":2206:2215   */\n      dup8\n        /* \"#utility.yul\":2197:2204   */\n      dup10\n        /* \"#utility.yul\":2193:2216   */\n      sub\n        /* \"#utility.yul\":2189:2222   */\n      slt\n        /* \"#utility.yul\":2186:2306   */\n      iszero\n      tag_291\n      jumpi\n        /* \"#utility.yul\":2225:2304   */\n      tag_292\n      tag_193\n      jump\t// in\n    tag_292:\n        /* \"#utility.yul\":2186:2306   */\n    tag_291:\n        /* \"#utility.yul\":2345:2346   */\n      0x00\n        /* \"#utility.yul\":2370:2423   */\n      tag_293\n        /* \"#utility.yul\":2415:2422   */\n      dup10\n        /* \"#utility.yul\":2406:2412   */\n      dup3\n        /* \"#utility.yul\":2395:2404   */\n      dup11\n        /* \"#utility.yul\":2391:2413   */\n      add\n        /* \"#utility.yul\":2370:2423   */\n      tag_204\n      jump\t// in\n    tag_293:\n        /* \"#utility.yul\":2360:2423   */\n      swap7\n      pop\n        /* \"#utility.yul\":2316:2433   */\n      pop\n        /* \"#utility.yul\":2472:2474   */\n      0x20\n        /* \"#utility.yul\":2498:2551   */\n      tag_294\n        /* \"#utility.yul\":2543:2550   */\n      dup10\n        /* \"#utility.yul\":2534:2540   */\n      dup3\n        /* \"#utility.yul\":2523:2532   */\n      dup11\n        /* \"#utility.yul\":2519:2541   */\n      add\n        /* \"#utility.yul\":2498:2551   */\n      tag_204\n      jump\t// in\n    tag_294:\n        /* \"#utility.yul\":2488:2551   */\n      swap6\n      pop\n        /* \"#utility.yul\":2443:2561   */\n      pop\n        /* \"#utility.yul\":2600:2602   */\n      0x40\n        /* \"#utility.yul\":2626:2679   */\n      tag_295\n        /* \"#utility.yul\":2671:2678   */\n      dup10\n        /* \"#utility.yul\":2662:2668   */\n      dup3\n        /* \"#utility.yul\":2651:2660   */\n      dup11\n        /* \"#utility.yul\":2647:2669   */\n      add\n        /* \"#utility.yul\":2626:2679   */\n      tag_197\n      jump\t// in\n    tag_295:\n        /* \"#utility.yul\":2616:2679   */\n      swap5\n      pop\n        /* \"#utility.yul\":2571:2689   */\n      pop\n        /* \"#utility.yul\":2728:2730   */\n      0x60\n        /* \"#utility.yul\":2754:2807   */\n      tag_296\n        /* \"#utility.yul\":2799:2806   */\n      dup10\n        /* \"#utility.yul\":2790:2796   */\n      dup3\n        /* \"#utility.yul\":2779:2788   */\n      dup11\n        /* \"#utility.yul\":2775:2797   */\n      add\n        /* \"#utility.yul\":2754:2807   */\n      tag_197\n      jump\t// in\n    tag_296:\n        /* \"#utility.yul\":2744:2807   */\n      swap4\n      pop\n        /* \"#utility.yul\":2699:2817   */\n      pop\n        /* \"#utility.yul\":2856:2859   */\n      0x80\n        /* \"#utility.yul\":2883:2936   */\n      tag_297\n        /* \"#utility.yul\":2928:2935   */\n      dup10\n        /* \"#utility.yul\":2919:2925   */\n      dup3\n        /* \"#utility.yul\":2908:2917   */\n      dup11\n        /* \"#utility.yul\":2904:2926   */\n      add\n        /* \"#utility.yul\":2883:2936   */\n      tag_197\n      jump\t// in\n    tag_297:\n        /* \"#utility.yul\":2873:2936   */\n      swap3\n      pop\n        /* \"#utility.yul\":2827:2946   */\n      pop\n        /* \"#utility.yul\":2985:2988   */\n      0xa0\n        /* \"#utility.yul\":3012:3062   */\n      tag_298\n        /* \"#utility.yul\":3054:3061   */\n      dup10\n        /* \"#utility.yul\":3045:3051   */\n      dup3\n        /* \"#utility.yul\":3034:3043   */\n      dup11\n        /* \"#utility.yul\":3030:3052   */\n      add\n        /* \"#utility.yul\":3012:3062   */\n      tag_200\n      jump\t// in\n    tag_298:\n        /* \"#utility.yul\":3002:3062   */\n      swap2\n      pop\n        /* \"#utility.yul\":2956:3072   */\n      pop\n        /* \"#utility.yul\":2028:3079   */\n      swap3\n      swap6\n      pop\n      swap3\n      swap6\n      pop\n      swap3\n      swap6\n      jump\t// out\n        /* \"#utility.yul\":3085:3414   */\n    tag_22:\n        /* \"#utility.yul\":3144:3150   */\n      0x00\n        /* \"#utility.yul\":3193:3195   */\n      0x20\n        /* \"#utility.yul\":3181:3190   */\n      dup3\n        /* \"#utility.yul\":3172:3179   */\n      dup5\n        /* \"#utility.yul\":3168:3191   */\n      sub\n        /* \"#utility.yul\":3164:3196   */\n      slt\n        /* \"#utility.yul\":3161:3280   */\n      iszero\n      tag_300\n      jumpi\n        /* \"#utility.yul\":3199:3278   */\n      tag_301\n      tag_193\n      jump\t// in\n    tag_301:\n        /* \"#utility.yul\":3161:3280   */\n    tag_300:\n        /* \"#utility.yul\":3319:3320   */\n      0x00\n        /* \"#utility.yul\":3344:3397   */\n      tag_302\n        /* \"#utility.yul\":3389:3396   */\n      dup5\n        /* \"#utility.yul\":3380:3386   */\n      dup3\n        /* \"#utility.yul\":3369:3378   */\n      dup6\n        /* \"#utility.yul\":3365:3387   */\n      add\n        /* \"#utility.yul\":3344:3397   */\n      tag_204\n      jump\t// in\n    tag_302:\n        /* \"#utility.yul\":3334:3397   */\n      swap2\n      pop\n        /* \"#utility.yul\":3290:3407   */\n      pop\n        /* \"#utility.yul\":3085:3414   */\n      swap3\n      swap2\n      pop\n      pop\n      jump\t// out\n        /* \"#utility.yul\":3420:3519   */\n    tag_205:\n        /* \"#utility.yul\":3472:3478   */\n      0x00\n        /* \"#utility.yul\":3506:3511   */\n      dup2\n        /* \"#utility.yul\":3500:3512   */\n      mload\n        /* \"#utility.yul\":3490:3512   */\n      swap1\n      pop\n        /* \"#utility.yul\":3420:3519   */\n      swap2\n      swap1\n      pop\n      jump\t// out\n        /* \"#utility.yul\":3525:3694   */\n    tag_206:\n        /* \"#utility.yul\":3609:3620   */\n      0x00\n        /* \"#utility.yul\":3643:3649   */\n      dup3\n        /* \"#utility.yul\":3638:3641   */\n      dup3\n        /* \"#utility.yul\":3631:3650   */\n      mstore\n        /* \"#utility.yul\":3683:3687   */\n      0x20\n        /* \"#utility.yul\":3678:3681   */\n      dup3\n        /* \"#utility.yul\":3674:3688   */\n      add\n        /* \"#utility.yul\":3659:3688   */\n      swap1\n      pop\n        /* \"#utility.yul\":3525:3694   */\n      swap3\n      swap2\n      pop\n      pop\n      jump\t// out\n        /* \"#utility.yul\":3700:3946   */\n    tag_207:\n        /* \"#utility.yul\":3781:3782   */\n      0x00\n        /* \"#utility.yul\":3791:3904   */\n    tag_306:\n        /* \"#utility.yul\":3805:3811   */\n      dup4\n        /* \"#utility.yul\":3802:3803   */\n      dup2\n        /* \"#utility.yul\":3799:3812   */\n      lt\n        /* \"#utility.yul\":3791:3904   */\n      iszero\n      tag_308\n      jumpi\n        /* \"#utility.yul\":3890:3891   */\n      dup1\n        /* \"#utility.yul\":3885:3888   */\n      dup3\n        /* \"#utility.yul\":3881:3892   */\n      add\n        /* \"#utility.yul\":3875:3893   */\n      mload\n        /* \"#utility.yul\":3871:3872   */\n      dup2\n        /* \"#utility.yul\":3866:3869   */\n      dup5\n        /* \"#utility.yul\":3862:3873   */\n      add\n        /* \"#utility.yul\":3855:3894   */\n      mstore\n        /* \"#utility.yul\":3827:3829   */\n      0x20\n        /* \"#utility.yul\":3824:3825   */\n      dup2\n        /* \"#utility.yul\":3820:3830   */\n      add\n        /* \"#utility.yul\":3815:3830   */\n      swap1\n      pop\n        /* \"#utility.yul\":3791:3904   */\n      jump(tag_306)\n    tag_308:\n        /* \"#utility.yul\":3938:3939   */\n      0x00\n        /* \"#utility.yul\":3929:3935   */\n      dup5\n        /* \"#utility.yul\":3924:3927   */\n      dup5\n        /* \"#utility.yul\":3920:3936   */\n      add\n        /* \"#utility.yul\":3913:3940   */\n      mstore\n        /* \"#utility.yul\":3762:3946   */\n      pop\n        /* \"#utility.yul\":3700:3946   */\n      pop\n      pop\n      pop\n      jump\t// out\n        /* \"#utility.yul\":3952:4054   */\n    tag_208:\n        /* \"#utility.yul\":3993:3999   */\n      0x00\n        /* \"#utility.yul\":4044:4046   */\n      0x1f\n        /* \"#utility.yul\":4040:4047   */\n      not\n        /* \"#utility.yul\":4035:4037   */\n      0x1f\n        /* \"#utility.yul\":4028:4033   */\n      dup4\n        /* \"#utility.yul\":4024:4038   */\n      add\n        /* \"#utility.yul\":4020:4048   */\n      and\n        /* \"#utility.yul\":4010:4048   */\n      swap1\n      pop\n        /* \"#utility.yul\":3952:4054   */\n      swap2\n      swap1\n      pop\n      jump\t// out\n        /* \"#utility.yul\":4060:4437   */\n    tag_209:\n        /* \"#utility.yul\":4148:4151   */\n      0x00\n        /* \"#utility.yul\":4176:4215   */\n      tag_311\n        /* \"#utility.yul\":4209:4214   */\n      dup3\n        /* \"#utility.yul\":4176:4215   */\n      tag_205\n      jump\t// in\n    tag_311:\n        /* \"#utility.yul\":4231:4302   */\n      tag_312\n        /* \"#utility.yul\":4295:4301   */\n      dup2\n        /* \"#utility.yul\":4290:4293   */\n      dup6\n        /* \"#utility.yul\":4231:4302   */\n      tag_206\n      jump\t// in\n    tag_312:\n        /* \"#utility.yul\":4224:4302   */\n      swap4\n      pop\n        /* \"#utility.yul\":4311:4376   */\n      tag_313\n        /* \"#utility.yul\":4369:4375   */\n      dup2\n        /* \"#utility.yul\":4364:4367   */\n      dup6\n        /* \"#utility.yul\":4357:4361   */\n      0x20\n        /* \"#utility.yul\":4350:4355   */\n      dup7\n        /* \"#utility.yul\":4346:4362   */\n      add\n        /* \"#utility.yul\":4311:4376   */\n      tag_207\n      jump\t// in\n    tag_313:\n        /* \"#utility.yul\":4401:4430   */\n      tag_314\n        /* \"#utility.yul\":4423:4429   */\n      dup2\n        /* \"#utility.yul\":4401:4430   */\n      tag_208\n      jump\t// in\n    tag_314:\n        /* \"#utility.yul\":4396:4399   */\n      dup5\n        /* \"#utility.yul\":4392:4431   */\n      add\n        /* \"#utility.yul\":4385:4431   */\n      swap2\n      pop\n        /* \"#utility.yul\":4152:4437   */\n      pop\n        /* \"#utility.yul\":4060:4437   */\n      swap3\n      swap2\n      pop\n      pop\n      jump\t// out\n        /* \"#utility.yul\":4443:4519   */\n    tag_210:\n        /* \"#utility.yul\":4479:4486   */\n      0x00\n        /* \"#utility.yul\":4508:4513   */\n      dup2\n        /* \"#utility.yul\":4497:4513   */\n      swap1\n      pop\n        /* \"#utility.yul\":4443:4519   */\n      swap2\n      swap1\n      pop\n      jump\t// out\n        /* \"#utility.yul\":4525:4640   */\n    tag_211:\n        /* \"#utility.yul\":4610:4633   */\n      tag_317\n        /* \"#utility.yul\":4627:4632   */\n      dup2\n        /* \"#utility.yul\":4610:4633   */\n      tag_210\n      jump\t// in\n    tag_317:\n        /* \"#utility.yul\":4605:4608   */\n      dup3\n        /* \"#utility.yul\":4598:4634   */\n      mstore\n        /* \"#utility.yul\":4525:4640   */\n      pop\n      pop\n      jump\t// out\n        /* \"#utility.yul\":4646:4764   */\n    tag_212:\n        /* \"#utility.yul\":4733:4757   */\n      tag_319\n        /* \"#utility.yul\":4751:4756   */\n      dup2\n        /* \"#utility.yul\":4733:4757   */\n      tag_195\n      jump\t// in\n    tag_319:\n        /* \"#utility.yul\":4728:4731   */\n      dup3\n        /* \"#utility.yul\":4721:4758   */\n      mstore\n        /* \"#utility.yul\":4646:4764   */\n      pop\n      pop\n      jump\t// out\n        /* \"#utility.yul\":4770:4879   */\n    tag_213:\n        /* \"#utility.yul\":4851:4872   */\n      tag_321\n        /* \"#utility.yul\":4866:4871   */\n      dup2\n        /* \"#utility.yul\":4851:4872   */\n      tag_198\n      jump\t// in\n    tag_321:\n        /* \"#utility.yul\":4846:4849   */\n      dup3\n        /* \"#utility.yul\":4839:4873   */\n      mstore\n        /* \"#utility.yul\":4770:4879   */\n      pop\n      pop\n      jump\t// out\n        /* \"#utility.yul\":4885:5731   */\n    tag_25:\n        /* \"#utility.yul\":5128:5132   */\n      0x00\n        /* \"#utility.yul\":5166:5169   */\n      0xc0\n        /* \"#utility.yul\":5155:5164   */\n      dup3\n        /* \"#utility.yul\":5151:5170   */\n      add\n        /* \"#utility.yul\":5143:5170   */\n      swap1\n      pop\n        /* \"#utility.yul\":5216:5225   */\n      dup2\n        /* \"#utility.yul\":5210:5214   */\n      dup2\n        /* \"#utility.yul\":5206:5226   */\n      sub\n        /* \"#utility.yul\":5202:5203   */\n      0x00\n        /* \"#utility.yul\":5191:5200   */\n      dup4\n        /* \"#utility.yul\":5187:5204   */\n      add\n        /* \"#utility.yul\":5180:5227   */\n      mstore\n        /* \"#utility.yul\":5244:5322   */\n      tag_323\n        /* \"#utility.yul\":5317:5321   */\n      dup2\n        /* \"#utility.yul\":5308:5314   */\n      dup10\n        /* \"#utility.yul\":5244:5322   */\n      tag_209\n      jump\t// in\n    tag_323:\n        /* \"#utility.yul\":5236:5322   */\n      swap1\n      pop\n        /* \"#utility.yul\":5332:5402   */\n      tag_324\n        /* \"#utility.yul\":5398:5400   */\n      0x20\n        /* \"#utility.yul\":5387:5396   */\n      dup4\n        /* \"#utility.yul\":5383:5401   */\n      add\n        /* \"#utility.yul\":5374:5380   */\n      dup9\n        /* \"#utility.yul\":5332:5402   */\n      tag_211\n      jump\t// in\n    tag_324:\n        /* \"#utility.yul\":5412:5482   */\n      tag_325\n        /* \"#utility.yul\":5478:5480   */\n      0x40\n        /* \"#utility.yul\":5467:5476   */\n      dup4\n        /* \"#utility.yul\":5463:5481   */\n      add\n        /* \"#utility.yul\":5454:5460   */\n      dup8\n        /* \"#utility.yul\":5412:5482   */\n      tag_211\n      jump\t// in\n    tag_325:\n        /* \"#utility.yul\":5492:5564   */\n      tag_326\n        /* \"#utility.yul\":5560:5562   */\n      0x60\n        /* \"#utility.yul\":5549:5558   */\n      dup4\n        /* \"#utility.yul\":5545:5563   */\n      add\n        /* \"#utility.yul\":5536:5542   */\n      dup7\n        /* \"#utility.yul\":5492:5564   */\n      tag_212\n      jump\t// in\n    tag_326:\n        /* \"#utility.yul\":5574:5647   */\n      tag_327\n        /* \"#utility.yul\":5642:5645   */\n      0x80\n        /* \"#utility.yul\":5631:5640   */\n      dup4\n        /* \"#utility.yul\":5627:5646   */\n      add\n        /* \"#utility.yul\":5618:5624   */\n      dup6\n        /* \"#utility.yul\":5574:5647   */\n      tag_212\n      jump\t// in\n    tag_327:\n        /* \"#utility.yul\":5657:5724   */\n      tag_328\n        /* \"#utility.yul\":5719:5722   */\n      0xa0\n        /* \"#utility.yul\":5708:5717   */\n      dup4\n        /* \"#utility.yul\":5704:5723   */\n      add\n        /* \"#utility.yul\":5695:5701   */\n      dup5\n        /* \"#utility.yul\":5657:5724   */\n      tag_213\n      jump\t// in\n    tag_328:\n        /* \"#utility.yul\":4885:5731   */\n      swap8\n      swap7\n      pop\n      pop\n      pop\n      pop\n      pop\n      pop\n      pop\n      jump\t// out\n        /* \"#utility.yul\":5737:6066   */\n    tag_28:\n        /* \"#utility.yul\":5796:5802   */\n      0x00\n        /* \"#utility.yul\":5845:5847   */\n      0x20\n        /* \"#utility.yul\":5833:5842   */\n      dup3\n        /* \"#utility.yul\":5824:5831   */\n      dup5\n        /* \"#utility.yul\":5820:5843   */\n      sub\n        /* \"#utility.yul\":5816:5848   */\n      slt\n        /* \"#utility.yul\":5813:5932   */\n      iszero\n      tag_330\n      jumpi\n        /* \"#utility.yul\":5851:5930   */\n      tag_331\n      tag_193\n      jump\t// in\n    tag_331:\n        /* \"#utility.yul\":5813:5932   */\n    tag_330:\n        /* \"#utility.yul\":5971:5972   */\n      0x00\n        /* \"#utility.yul\":5996:6049   */\n      tag_332\n        /* \"#utility.yul\":6041:6048   */\n      dup5\n        /* \"#utility.yul\":6032:6038   */\n      dup3\n        /* \"#utility.yul\":6021:6030   */\n      dup6\n        /* \"#utility.yul\":6017:6039   */\n      add\n        /* \"#utility.yul\":5996:6049   */\n      tag_197\n      jump\t// in\n    tag_332:\n        /* \"#utility.yul\":5986:6049   */\n      swap2\n      pop\n        /* \"#utility.yul\":5942:6059   */\n      pop\n        /* \"#utility.yul\":5737:6066   */\n      swap3\n      swap2\n      pop\n      pop\n      jump\t// out\n        /* \"#utility.yul\":6072:6294   */\n    tag_31:\n        /* \"#utility.yul\":6165:6169   */\n      0x00\n        /* \"#utility.yul\":6203:6205   */\n      0x20\n        /* \"#utility.yul\":6192:6201   */\n      dup3\n        /* \"#utility.yul\":6188:6206   */\n      add\n        /* \"#utility.yul\":6180:6206   */\n      swap1\n      pop\n        /* \"#utility.yul\":6216:6287   */\n      tag_334\n        /* \"#utility.yul\":6284:6285   */\n      0x00\n        /* \"#utility.yul\":6273:6282   */\n      dup4\n        /* \"#utility.yul\":6269:6286   */\n      add\n        /* \"#utility.yul\":6260:6266   */\n      dup5\n        /* \"#utility.yul\":6216:6287   */\n      tag_212\n      jump\t// in\n    tag_334:\n        /* \"#utility.yul\":6072:6294   */\n      swap3\n      swap2\n      pop\n      pop\n      jump\t// out\n        /* \"#utility.yul\":6300:6418   */\n    tag_214:\n        /* \"#utility.yul\":6387:6411   */\n      tag_336\n        /* \"#utility.yul\":6405:6410   */\n      dup2\n        /* \"#utility.yul\":6387:6411   */\n      tag_202\n      jump\t// in\n    tag_336:\n        /* \"#utility.yul\":6382:6385   */\n      dup3\n        /* \"#utility.yul\":6375:6412   */\n      mstore\n        /* \"#utility.yul\":6300:6418   */\n      pop\n      pop\n      jump\t// out\n        /* \"#utility.yul\":6424:6604   */\n    tag_88:\n        /* \"#utility.yul\":6472:6549   */\n      0x4e487b7100000000000000000000000000000000000000000000000000000000\n        /* \"#utility.yul\":6469:6470   */\n      0x00\n        /* \"#utility.yul\":6462:6550   */\n      mstore\n        /* \"#utility.yul\":6569:6573   */\n      0x21\n        /* \"#utility.yul\":6566:6567   */\n      0x04\n        /* \"#utility.yul\":6559:6574   */\n      mstore\n        /* \"#utility.yul\":6593:6597   */\n      0x24\n        /* \"#utility.yul\":6590:6591   */\n      0x00\n        /* \"#utility.yul\":6583:6598   */\n      revert\n        /* \"#utility.yul\":6610:6733   */\n    tag_215:\n        /* \"#utility.yul\":6701:6702   */\n      0x02\n        /* \"#utility.yul\":6694:6699   */\n      dup2\n        /* \"#utility.yul\":6691:6703   */\n      lt\n        /* \"#utility.yul\":6681:6727   */\n      tag_339\n      jumpi\n        /* \"#utility.yul\":6707:6725   */\n      tag_340\n      tag_88\n      jump\t// in\n    tag_340:\n        /* \"#utility.yul\":6681:6727   */\n    tag_339:\n        /* \"#utility.yul\":6610:6733   */\n      pop\n      jump\t// out\n        /* \"#utility.yul\":6739:6886   */\n    tag_216:\n        /* \"#utility.yul\":6794:6801   */\n      0x00\n        /* \"#utility.yul\":6823:6828   */\n      dup2\n        /* \"#utility.yul\":6812:6828   */\n      swap1\n      pop\n        /* \"#utility.yul\":6829:6880   */\n      tag_342\n        /* \"#utility.yul\":6874:6879   */\n      dup3\n        /* \"#utility.yul\":6829:6880   */\n      tag_215\n      jump\t// in\n    tag_342:\n        /* \"#utility.yul\":6739:6886   */\n      swap2\n      swap1\n      pop\n      jump\t// out\n        /* \"#utility.yul\":6892:7039   */\n    tag_217:\n        /* \"#utility.yul\":6958:6967   */\n      0x00\n        /* \"#utility.yul\":6991:7033   */\n      tag_344\n        /* \"#utility.yul\":7027:7032   */\n      dup3\n        /* \"#utility.yul\":6991:7033   */\n      tag_216\n      jump\t// in\n    tag_344:\n        /* \"#utility.yul\":6978:7033   */\n      swap1\n      pop\n        /* \"#utility.yul\":6892:7039   */\n      swap2\n      swap1\n      pop\n      jump\t// out\n        /* \"#utility.yul\":7045:7208   */\n    tag_218:\n        /* \"#utility.yul\":7148:7201   */\n      tag_346\n        /* \"#utility.yul\":7195:7200   */\n      dup2\n        /* \"#utility.yul\":7148:7201   */\n      tag_217\n      jump\t// in\n    tag_346:\n        /* \"#utility.yul\":7143:7146   */\n      dup3\n        /* \"#utility.yul\":7136:7202   */\n      mstore\n        /* \"#utility.yul\":7045:7208   */\n      pop\n      pop\n      jump\t// out\n        /* \"#utility.yul\":7214:8433   */\n    tag_36:\n        /* \"#utility.yul\":7561:7565   */\n      0x00\n        /* \"#utility.yul\":7599:7602   */\n      0x0120\n        /* \"#utility.yul\":7588:7597   */\n      dup3\n        /* \"#utility.yul\":7584:7603   */\n      add\n        /* \"#utility.yul\":7576:7603   */\n      swap1\n      pop\n        /* \"#utility.yul\":7613:7684   */\n      tag_348\n        /* \"#utility.yul\":7681:7682   */\n      0x00\n        /* \"#utility.yul\":7670:7679   */\n      dup4\n        /* \"#utility.yul\":7666:7683   */\n      add\n        /* \"#utility.yul\":7657:7663   */\n      dup13\n        /* \"#utility.yul\":7613:7684   */\n      tag_212\n      jump\t// in\n    tag_348:\n        /* \"#utility.yul\":7694:7766   */\n      tag_349\n        /* \"#utility.yul\":7762:7764   */\n      0x20\n        /* \"#utility.yul\":7751:7760   */\n      dup4\n        /* \"#utility.yul\":7747:7765   */\n      add\n        /* \"#utility.yul\":7738:7744   */\n      dup12\n        /* \"#utility.yul\":7694:7766   */\n      tag_214\n      jump\t// in\n    tag_349:\n        /* \"#utility.yul\":7776:7848   */\n      tag_350\n        /* \"#utility.yul\":7844:7846   */\n      0x40\n        /* \"#utility.yul\":7833:7842   */\n      dup4\n        /* \"#utility.yul\":7829:7847   */\n      add\n        /* \"#utility.yul\":7820:7826   */\n      dup11\n        /* \"#utility.yul\":7776:7848   */\n      tag_214\n      jump\t// in\n    tag_350:\n        /* \"#utility.yul\":7858:7930   */\n      tag_351\n        /* \"#utility.yul\":7926:7928   */\n      0x60\n        /* \"#utility.yul\":7915:7924   */\n      dup4\n        /* \"#utility.yul\":7911:7929   */\n      add\n        /* \"#utility.yul\":7902:7908   */\n      dup10\n        /* \"#utility.yul\":7858:7930   */\n      tag_212\n      jump\t// in\n    tag_351:\n        /* \"#utility.yul\":7940:8013   */\n      tag_352\n        /* \"#utility.yul\":8008:8011   */\n      0x80\n        /* \"#utility.yul\":7997:8006   */\n      dup4\n        /* \"#utility.yul\":7993:8012   */\n      add\n        /* \"#utility.yul\":7984:7990   */\n      dup9\n        /* \"#utility.yul\":7940:8013   */\n      tag_212\n      jump\t// in\n    tag_352:\n        /* \"#utility.yul\":8023:8096   */\n      tag_353\n        /* \"#utility.yul\":8091:8094   */\n      0xa0\n        /* \"#utility.yul\":8080:8089   */\n      dup4\n        /* \"#utility.yul\":8076:8095   */\n      add\n        /* \"#utility.yul\":8067:8073   */\n      dup8\n        /* \"#utility.yul\":8023:8096   */\n      tag_212\n      jump\t// in\n    tag_353:\n        /* \"#utility.yul\":8106:8173   */\n      tag_354\n        /* \"#utility.yul\":8168:8171   */\n      0xc0\n        /* \"#utility.yul\":8157:8166   */\n      dup4\n        /* \"#utility.yul\":8153:8172   */\n      add\n        /* \"#utility.yul\":8144:8150   */\n      dup7\n        /* \"#utility.yul\":8106:8173   */\n      tag_213\n      jump\t// in\n    tag_354:\n        /* \"#utility.yul\":8221:8230   */\n      dup2\n        /* \"#utility.yul\":8215:8219   */\n      dup2\n        /* \"#utility.yul\":8211:8231   */\n      sub\n        /* \"#utility.yul\":8205:8208   */\n      0xe0\n        /* \"#utility.yul\":8194:8203   */\n      dup4\n        /* \"#utility.yul\":8190:8209   */\n      add\n        /* \"#utility.yul\":8183:8232   */\n      mstore\n        /* \"#utility.yul\":8249:8327   */\n      tag_355\n        /* \"#utility.yul\":8322:8326   */\n      dup2\n        /* \"#utility.yul\":8313:8319   */\n      dup6\n        /* \"#utility.yul\":8249:8327   */\n      tag_209\n      jump\t// in\n    tag_355:\n        /* \"#utility.yul\":8241:8327   */\n      swap1\n      pop\n        /* \"#utility.yul\":8337:8426   */\n      tag_356\n        /* \"#utility.yul\":8421:8424   */\n      0x0100\n        /* \"#utility.yul\":8410:8419   */\n      dup4\n        /* \"#utility.yul\":8406:8425   */\n      add\n        /* \"#utility.yul\":8397:8403   */\n      dup5\n        /* \"#utility.yul\":8337:8426   */\n      tag_218\n      jump\t// in\n    tag_356:\n        /* \"#utility.yul\":7214:8433   */\n      swap11\n      swap10\n      pop\n      pop\n      pop\n      pop\n      pop\n      pop\n      pop\n      pop\n      pop\n      pop\n      jump\t// out\n        /* \"#utility.yul\":8439:8580   */\n    tag_219:\n        /* \"#utility.yul\":8533:8539   */\n      0x00\n        /* \"#utility.yul\":8567:8572   */\n      dup2\n        /* \"#utility.yul\":8561:8573   */\n      mload\n        /* \"#utility.yul\":8551:8573   */\n      swap1\n      pop\n        /* \"#utility.yul\":8439:8580   */\n      swap2\n      swap1\n      pop\n      jump\t// out\n        /* \"#utility.yul\":8586:8797   */\n    tag_220:\n        /* \"#utility.yul\":8712:8723   */\n      0x00\n        /* \"#utility.yul\":8746:8752   */\n      dup3\n        /* \"#utility.yul\":8741:8744   */\n      dup3\n        /* \"#utility.yul\":8734:8753   */\n      mstore\n        /* \"#utility.yul\":8786:8790   */\n      0x20\n        /* \"#utility.yul\":8781:8784   */\n      dup3\n        /* \"#utility.yul\":8777:8791   */\n      add\n        /* \"#utility.yul\":8762:8791   */\n      swap1\n      pop\n        /* \"#utility.yul\":8586:8797   */\n      swap3\n      swap2\n      pop\n      pop\n      jump\t// out\n        /* \"#utility.yul\":8803:8962   */\n    tag_221:\n        /* \"#utility.yul\":8897:8901   */\n      0x00\n        /* \"#utility.yul\":8920:8923   */\n      dup2\n        /* \"#utility.yul\":8912:8923   */\n      swap1\n      pop\n        /* \"#utility.yul\":8950:8954   */\n      0x20\n        /* \"#utility.yul\":8945:8948   */\n      dup3\n        /* \"#utility.yul\":8941:8955   */\n      add\n        /* \"#utility.yul\":8933:8955   */\n      swap1\n      pop\n        /* \"#utility.yul\":8803:8962   */\n      swap2\n      swap1\n      pop\n      jump\t// out\n        /* \"#utility.yul\":8968:9076   */\n    tag_222:\n        /* \"#utility.yul\":9045:9069   */\n      tag_361\n        /* \"#utility.yul\":9063:9068   */\n      dup2\n        /* \"#utility.yul\":9045:9069   */\n      tag_195\n      jump\t// in\n    tag_361:\n        /* \"#utility.yul\":9040:9043   */\n      dup3\n        /* \"#utility.yul\":9033:9070   */\n      mstore\n        /* \"#utility.yul\":8968:9076   */\n      pop\n      pop\n      jump\t// out\n        /* \"#utility.yul\":9082:9190   */\n    tag_223:\n        /* \"#utility.yul\":9159:9183   */\n      tag_363\n        /* \"#utility.yul\":9177:9182   */\n      dup2\n        /* \"#utility.yul\":9159:9183   */\n      tag_202\n      jump\t// in\n    tag_363:\n        /* \"#utility.yul\":9154:9157   */\n      dup3\n        /* \"#utility.yul\":9147:9184   */\n      mstore\n        /* \"#utility.yul\":9082:9190   */\n      pop\n      pop\n      jump\t// out\n        /* \"#utility.yul\":9196:9295   */\n    tag_224:\n        /* \"#utility.yul\":9267:9288   */\n      tag_365\n        /* \"#utility.yul\":9282:9287   */\n      dup2\n        /* \"#utility.yul\":9267:9288   */\n      tag_198\n      jump\t// in\n    tag_365:\n        /* \"#utility.yul\":9262:9265   */\n      dup3\n        /* \"#utility.yul\":9255:9289   */\n      mstore\n        /* \"#utility.yul\":9196:9295   */\n      pop\n      pop\n      jump\t// out\n        /* \"#utility.yul\":9301:9460   */\n    tag_225:\n        /* \"#utility.yul\":9375:9386   */\n      0x00\n        /* \"#utility.yul\":9409:9415   */\n      dup3\n        /* \"#utility.yul\":9404:9407   */\n      dup3\n        /* \"#utility.yul\":9397:9416   */\n      mstore\n        /* \"#utility.yul\":9449:9453   */\n      0x20\n        /* \"#utility.yul\":9444:9447   */\n      dup3\n        /* \"#utility.yul\":9440:9454   */\n      add\n        /* \"#utility.yul\":9425:9454   */\n      swap1\n      pop\n        /* \"#utility.yul\":9301:9460   */\n      swap3\n      swap2\n      pop\n      pop\n      jump\t// out\n        /* \"#utility.yul\":9466:9823   */\n    tag_226:\n        /* \"#utility.yul\":9544:9547   */\n      0x00\n        /* \"#utility.yul\":9572:9611   */\n      tag_368\n        /* \"#utility.yul\":9605:9610   */\n      dup3\n        /* \"#utility.yul\":9572:9611   */\n      tag_205\n      jump\t// in\n    tag_368:\n        /* \"#utility.yul\":9627:9688   */\n      tag_369\n        /* \"#utility.yul\":9681:9687   */\n      dup2\n        /* \"#utility.yul\":9676:9679   */\n      dup6\n        /* \"#utility.yul\":9627:9688   */\n      tag_225\n      jump\t// in\n    tag_369:\n        /* \"#utility.yul\":9620:9688   */\n      swap4\n      pop\n        /* \"#utility.yul\":9697:9762   */\n      tag_370\n        /* \"#utility.yul\":9755:9761   */\n      dup2\n        /* \"#utility.yul\":9750:9753   */\n      dup6\n        /* \"#utility.yul\":9743:9747   */\n      0x20\n        /* \"#utility.yul\":9736:9741   */\n      dup7\n        /* \"#utility.yul\":9732:9748   */\n      add\n        /* \"#utility.yul\":9697:9762   */\n      tag_207\n      jump\t// in\n    tag_370:\n        /* \"#utility.yul\":9787:9816   */\n      tag_371\n        /* \"#utility.yul\":9809:9815   */\n      dup2\n        /* \"#utility.yul\":9787:9816   */\n      tag_208\n      jump\t// in\n    tag_371:\n        /* \"#utility.yul\":9782:9785   */\n      dup5\n        /* \"#utility.yul\":9778:9817   */\n      add\n        /* \"#utility.yul\":9771:9817   */\n      swap2\n      pop\n        /* \"#utility.yul\":9548:9823   */\n      pop\n        /* \"#utility.yul\":9466:9823   */\n      swap3\n      swap2\n      pop\n      pop\n      jump\t// out\n        /* \"#utility.yul\":9829:9982   */\n    tag_227:\n        /* \"#utility.yul\":9922:9975   */\n      tag_373\n        /* \"#utility.yul\":9969:9974   */\n      dup2\n        /* \"#utility.yul\":9922:9975   */\n      tag_217\n      jump\t// in\n    tag_373:\n        /* \"#utility.yul\":9917:9920   */\n      dup3\n        /* \"#utility.yul\":9910:9976   */\n      mstore\n        /* \"#utility.yul\":9829:9982   */\n      pop\n      pop\n      jump\t// out\n        /* \"#utility.yul\":10080:11954   */\n    tag_228:\n        /* \"#utility.yul\":10193:10196   */\n      0x00\n        /* \"#utility.yul\":10229:10235   */\n      0x0120\n        /* \"#utility.yul\":10224:10227   */\n      dup4\n        /* \"#utility.yul\":10220:10236   */\n      add\n        /* \"#utility.yul\":10316:10320   */\n      0x00\n        /* \"#utility.yul\":10309:10314   */\n      dup4\n        /* \"#utility.yul\":10305:10321   */\n      add\n        /* \"#utility.yul\":10299:10322   */\n      mload\n        /* \"#utility.yul\":10335:10398   */\n      tag_375\n        /* \"#utility.yul\":10392:10396   */\n      0x00\n        /* \"#utility.yul\":10387:10390   */\n      dup7\n        /* \"#utility.yul\":10383:10397   */\n      add\n        /* \"#utility.yul\":10369:10381   */\n      dup3\n        /* \"#utility.yul\":10335:10398   */\n      tag_222\n      jump\t// in\n    tag_375:\n        /* \"#utility.yul\":10246:10408   */\n      pop\n        /* \"#utility.yul\":10495:10499   */\n      0x20\n        /* \"#utility.yul\":10488:10493   */\n      dup4\n        /* \"#utility.yul\":10484:10500   */\n      add\n        /* \"#utility.yul\":10478:10501   */\n      mload\n        /* \"#utility.yul\":10514:10577   */\n      tag_376\n        /* \"#utility.yul\":10571:10575   */\n      0x20\n        /* \"#utility.yul\":10566:10569   */\n      dup7\n        /* \"#utility.yul\":10562:10576   */\n      add\n        /* \"#utility.yul\":10548:10560   */\n      dup3\n        /* \"#utility.yul\":10514:10577   */\n      tag_223\n      jump\t// in\n    tag_376:\n        /* \"#utility.yul\":10418:10587   */\n      pop\n        /* \"#utility.yul\":10673:10677   */\n      0x40\n        /* \"#utility.yul\":10666:10671   */\n      dup4\n        /* \"#utility.yul\":10662:10678   */\n      add\n        /* \"#utility.yul\":10656:10679   */\n      mload\n        /* \"#utility.yul\":10692:10755   */\n      tag_377\n        /* \"#utility.yul\":10749:10753   */\n      0x40\n        /* \"#utility.yul\":10744:10747   */\n      dup7\n        /* \"#utility.yul\":10740:10754   */\n      add\n        /* \"#utility.yul\":10726:10738   */\n      dup3\n        /* \"#utility.yul\":10692:10755   */\n      tag_223\n      jump\t// in\n    tag_377:\n        /* \"#utility.yul\":10597:10765   */\n      pop\n        /* \"#utility.yul\":10855:10859   */\n      0x60\n        /* \"#utility.yul\":10848:10853   */\n      dup4\n        /* \"#utility.yul\":10844:10860   */\n      add\n        /* \"#utility.yul\":10838:10861   */\n      mload\n        /* \"#utility.yul\":10874:10937   */\n      tag_378\n        /* \"#utility.yul\":10931:10935   */\n      0x60\n        /* \"#utility.yul\":10926:10929   */\n      dup7\n        /* \"#utility.yul\":10922:10936   */\n      add\n        /* \"#utility.yul\":10908:10920   */\n      dup3\n        /* \"#utility.yul\":10874:10937   */\n      tag_222\n      jump\t// in\n    tag_378:\n        /* \"#utility.yul\":10775:10947   */\n      pop\n        /* \"#utility.yul\":11030:11034   */\n      0x80\n        /* \"#utility.yul\":11023:11028   */\n      dup4\n        /* \"#utility.yul\":11019:11035   */\n      add\n        /* \"#utility.yul\":11013:11036   */\n      mload\n        /* \"#utility.yul\":11049:11112   */\n      tag_379\n        /* \"#utility.yul\":11106:11110   */\n      0x80\n        /* \"#utility.yul\":11101:11104   */\n      dup7\n        /* \"#utility.yul\":11097:11111   */\n      add\n        /* \"#utility.yul\":11083:11095   */\n      dup3\n        /* \"#utility.yul\":11049:11112   */\n      tag_222\n      jump\t// in\n    tag_379:\n        /* \"#utility.yul\":10957:11122   */\n      pop\n        /* \"#utility.yul\":11210:11214   */\n      0xa0\n        /* \"#utility.yul\":11203:11208   */\n      dup4\n        /* \"#utility.yul\":11199:11215   */\n      add\n        /* \"#utility.yul\":11193:11216   */\n      mload\n        /* \"#utility.yul\":11229:11292   */\n      tag_380\n        /* \"#utility.yul\":11286:11290   */\n      0xa0\n        /* \"#utility.yul\":11281:11284   */\n      dup7\n        /* \"#utility.yul\":11277:11291   */\n      add\n        /* \"#utility.yul\":11263:11275   */\n      dup3\n        /* \"#utility.yul\":11229:11292   */\n      tag_222\n      jump\t// in\n    tag_380:\n        /* \"#utility.yul\":11132:11302   */\n      pop\n        /* \"#utility.yul\":11389:11393   */\n      0xc0\n        /* \"#utility.yul\":11382:11387   */\n      dup4\n        /* \"#utility.yul\":11378:11394   */\n      add\n        /* \"#utility.yul\":11372:11395   */\n      mload\n        /* \"#utility.yul\":11408:11465   */\n      tag_381\n        /* \"#utility.yul\":11459:11463   */\n      0xc0\n        /* \"#utility.yul\":11454:11457   */\n      dup7\n        /* \"#utility.yul\":11450:11464   */\n      add\n        /* \"#utility.yul\":11436:11448   */\n      dup3\n        /* \"#utility.yul\":11408:11465   */\n      tag_224\n      jump\t// in\n    tag_381:\n        /* \"#utility.yul\":11312:11475   */\n      pop\n        /* \"#utility.yul\":11559:11563   */\n      0xe0\n        /* \"#utility.yul\":11552:11557   */\n      dup4\n        /* \"#utility.yul\":11548:11564   */\n      add\n        /* \"#utility.yul\":11542:11565   */\n      mload\n        /* \"#utility.yul\":11612:11615   */\n      dup5\n        /* \"#utility.yul\":11606:11610   */\n      dup3\n        /* \"#utility.yul\":11602:11616   */\n      sub\n        /* \"#utility.yul\":11595:11599   */\n      0xe0\n        /* \"#utility.yul\":11590:11593   */\n      dup7\n        /* \"#utility.yul\":11586:11600   */\n      add\n        /* \"#utility.yul\":11579:11617   */\n      mstore\n        /* \"#utility.yul\":11638:11711   */\n      tag_382\n        /* \"#utility.yul\":11706:11710   */\n      dup3\n        /* \"#utility.yul\":11692:11704   */\n      dup3\n        /* \"#utility.yul\":11638:11711   */\n      tag_226\n      jump\t// in\n    tag_382:\n        /* \"#utility.yul\":11630:11711   */\n      swap2\n      pop\n        /* \"#utility.yul\":11485:11722   */\n      pop\n        /* \"#utility.yul\":11815:11821   */\n      0x0100\n        /* \"#utility.yul\":11808:11813   */\n      dup4\n        /* \"#utility.yul\":11804:11822   */\n      add\n        /* \"#utility.yul\":11798:11823   */\n      mload\n        /* \"#utility.yul\":11836:11917   */\n      tag_383\n        /* \"#utility.yul\":11909:11915   */\n      0x0100\n        /* \"#utility.yul\":11904:11907   */\n      dup7\n        /* \"#utility.yul\":11900:11916   */\n      add\n        /* \"#utility.yul\":11886:11898   */\n      dup3\n        /* \"#utility.yul\":11836:11917   */\n      tag_227\n      jump\t// in\n    tag_383:\n        /* \"#utility.yul\":11732:11927   */\n      pop\n        /* \"#utility.yul\":11944:11948   */\n      dup1\n        /* \"#utility.yul\":11937:11948   */\n      swap2\n      pop\n        /* \"#utility.yul\":10198:11954   */\n      pop\n        /* \"#utility.yul\":10080:11954   */\n      swap3\n      swap2\n      pop\n      pop\n      jump\t// out\n        /* \"#utility.yul\":11960:12224   */\n    tag_229:\n        /* \"#utility.yul\":12083:12093   */\n      0x00\n        /* \"#utility.yul\":12118:12218   */\n      tag_385\n        /* \"#utility.yul\":12214:12217   */\n      dup4\n        /* \"#utility.yul\":12206:12212   */\n      dup4\n        /* \"#utility.yul\":12118:12218   */\n      tag_228\n      jump\t// in\n    tag_385:\n        /* \"#utility.yul\":12104:12218   */\n      swap1\n      pop\n        /* \"#utility.yul\":11960:12224   */\n      swap3\n      swap2\n      pop\n      pop\n      jump\t// out\n        /* \"#utility.yul\":12230:12370   */\n    tag_230:\n        /* \"#utility.yul\":12327:12331   */\n      0x00\n        /* \"#utility.yul\":12359:12363   */\n      0x20\n        /* \"#utility.yul\":12354:12357   */\n      dup3\n        /* \"#utility.yul\":12350:12364   */\n      add\n        /* \"#utility.yul\":12342:12364   */\n      swap1\n      pop\n        /* \"#utility.yul\":12230:12370   */\n      swap2\n      swap1\n      pop\n      jump\t// out\n        /* \"#utility.yul\":12472:13599   */\n    tag_231:\n        /* \"#utility.yul\":12645:12648   */\n      0x00\n        /* \"#utility.yul\":12674:12755   */\n      tag_388\n        /* \"#utility.yul\":12749:12754   */\n      dup3\n        /* \"#utility.yul\":12674:12755   */\n      tag_219\n      jump\t// in\n    tag_388:\n        /* \"#utility.yul\":12771:12884   */\n      tag_389\n        /* \"#utility.yul\":12877:12883   */\n      dup2\n        /* \"#utility.yul\":12872:12875   */\n      dup6\n        /* \"#utility.yul\":12771:12884   */\n      tag_220\n      jump\t// in\n    tag_389:\n        /* \"#utility.yul\":12764:12884   */\n      swap4\n      pop\n        /* \"#utility.yul\":12910:12913   */\n      dup4\n        /* \"#utility.yul\":12955:12959   */\n      0x20\n        /* \"#utility.yul\":12947:12953   */\n      dup3\n        /* \"#utility.yul\":12943:12960   */\n      mul\n        /* \"#utility.yul\":12938:12941   */\n      dup6\n        /* \"#utility.yul\":12934:12961   */\n      add\n        /* \"#utility.yul\":12985:13068   */\n      tag_390\n        /* \"#utility.yul\":13062:13067   */\n      dup6\n        /* \"#utility.yul\":12985:13068   */\n      tag_221\n      jump\t// in\n    tag_390:\n        /* \"#utility.yul\":13091:13098   */\n      dup1\n        /* \"#utility.yul\":13122:13123   */\n      0x00\n        /* \"#utility.yul\":13107:13554   */\n    tag_391:\n        /* \"#utility.yul\":13132:13138   */\n      dup6\n        /* \"#utility.yul\":13129:13130   */\n      dup2\n        /* \"#utility.yul\":13126:13139   */\n      lt\n        /* \"#utility.yul\":13107:13554   */\n      iszero\n      tag_393\n      jumpi\n        /* \"#utility.yul\":13203:13212   */\n      dup5\n        /* \"#utility.yul\":13197:13201   */\n      dup5\n        /* \"#utility.yul\":13193:13213   */\n      sub\n        /* \"#utility.yul\":13188:13191   */\n      dup10\n        /* \"#utility.yul\":13181:13214   */\n      mstore\n        /* \"#utility.yul\":13254:13260   */\n      dup2\n        /* \"#utility.yul\":13248:13261   */\n      mload\n        /* \"#utility.yul\":13282:13400   */\n      tag_394\n        /* \"#utility.yul\":13395:13399   */\n      dup6\n        /* \"#utility.yul\":13380:13393   */\n      dup3\n        /* \"#utility.yul\":13282:13400   */\n      tag_229\n      jump\t// in\n    tag_394:\n        /* \"#utility.yul\":13274:13400   */\n      swap5\n      pop\n        /* \"#utility.yul\":13423:13510   */\n      tag_395\n        /* \"#utility.yul\":13503:13509   */\n      dup4\n        /* \"#utility.yul\":13423:13510   */\n      tag_230\n      jump\t// in\n    tag_395:\n        /* \"#utility.yul\":13413:13510   */\n      swap3\n      pop\n        /* \"#utility.yul\":13539:13543   */\n      0x20\n        /* \"#utility.yul\":13534:13537   */\n      dup11\n        /* \"#utility.yul\":13530:13544   */\n      add\n        /* \"#utility.yul\":13523:13544   */\n      swap10\n      pop\n        /* \"#utility.yul\":13167:13554   */\n      pop\n        /* \"#utility.yul\":13154:13155   */\n      0x01\n        /* \"#utility.yul\":13151:13152   */\n      dup2\n        /* \"#utility.yul\":13147:13156   */\n      add\n        /* \"#utility.yul\":13142:13156   */\n      swap1\n      pop\n        /* \"#utility.yul\":13107:13554   */\n      jump(tag_391)\n    tag_393:\n        /* \"#utility.yul\":13111:13125   */\n      pop\n        /* \"#utility.yul\":13570:13574   */\n      dup3\n        /* \"#utility.yul\":13563:13574   */\n      swap8\n      pop\n        /* \"#utility.yul\":13590:13593   */\n      dup8\n        /* \"#utility.yul\":13583:13593   */\n      swap6\n      pop\n        /* \"#utility.yul\":12650:13599   */\n      pop\n      pop\n      pop\n      pop\n      pop\n        /* \"#utility.yul\":12472:13599   */\n      swap3\n      swap2\n      pop\n      pop\n      jump\t// out\n        /* \"#utility.yul\":13605:14086   */\n    tag_40:\n        /* \"#utility.yul\":13802:13806   */\n      0x00\n        /* \"#utility.yul\":13840:13842   */\n      0x20\n        /* \"#utility.yul\":13829:13838   */\n      dup3\n        /* \"#utility.yul\":13825:13843   */\n      add\n        /* \"#utility.yul\":13817:13843   */\n      swap1\n      pop\n        /* \"#utility.yul\":13889:13898   */\n      dup2\n        /* \"#utility.yul\":13883:13887   */\n      dup2\n        /* \"#utility.yul\":13879:13899   */\n      sub\n        /* \"#utility.yul\":13875:13876   */\n      0x00\n        /* \"#utility.yul\":13864:13873   */\n      dup4\n        /* \"#utility.yul\":13860:13877   */\n      add\n        /* \"#utility.yul\":13853:13900   */\n      mstore\n        /* \"#utility.yul\":13917:14079   */\n      tag_397\n        /* \"#utility.yul\":14074:14078   */\n      dup2\n        /* \"#utility.yul\":14065:14071   */\n      dup5\n        /* \"#utility.yul\":13917:14079   */\n      tag_231\n      jump\t// in\n    tag_397:\n        /* \"#utility.yul\":13909:14079   */\n      swap1\n      pop\n        /* \"#utility.yul\":13605:14086   */\n      swap3\n      swap2\n      pop\n      pop\n      jump\t// out\n        /* \"#utility.yul\":14092:14272   */\n    tag_142:\n        /* \"#utility.yul\":14140:14217   */\n      0x4e487b7100000000000000000000000000000000000000000000000000000000\n        /* \"#utility.yul\":14137:14138   */\n      0x00\n        /* \"#utility.yul\":14130:14218   */\n      mstore\n        /* \"#utility.yul\":14237:14241   */\n      0x41\n        /* \"#utility.yul\":14234:14235   */\n      0x04\n        /* \"#utility.yul\":14227:14242   */\n      mstore\n        /* \"#utility.yul\":14261:14265   */\n      0x24\n        /* \"#utility.yul\":14258:14259   */\n      0x00\n        /* \"#utility.yul\":14251:14266   */\n      revert\n        /* \"#utility.yul\":14278:14458   */\n    tag_232:\n        /* \"#utility.yul\":14326:14403   */\n      0x4e487b7100000000000000000000000000000000000000000000000000000000\n        /* \"#utility.yul\":14323:14324   */\n      0x00\n        /* \"#utility.yul\":14316:14404   */\n      mstore\n        /* \"#utility.yul\":14423:14427   */\n      0x22\n        /* \"#utility.yul\":14420:14421   */\n      0x04\n        /* \"#utility.yul\":14413:14428   */\n      mstore\n        /* \"#utility.yul\":14447:14451   */\n      0x24\n        /* \"#utility.yul\":14444:14445   */\n      0x00\n        /* \"#utility.yul\":14437:14452   */\n      revert\n        /* \"#utility.yul\":14464:14784   */\n    tag_134:\n        /* \"#utility.yul\":14508:14514   */\n      0x00\n        /* \"#utility.yul\":14545:14546   */\n      0x02\n        /* \"#utility.yul\":14539:14543   */\n      dup3\n        /* \"#utility.yul\":14535:14547   */\n      div\n        /* \"#utility.yul\":14525:14547   */\n      swap1\n      pop\n        /* \"#utility.yul\":14592:14593   */\n      0x01\n        /* \"#utility.yul\":14586:14590   */\n      dup3\n        /* \"#utility.yul\":14582:14594   */\n      and\n        /* \"#utility.yul\":14613:14631   */\n      dup1\n        /* \"#utility.yul\":14603:14684   */\n      tag_401\n      jumpi\n        /* \"#utility.yul\":14669:14673   */\n      0x7f\n        /* \"#utility.yul\":14661:14667   */\n      dup3\n        /* \"#utility.yul\":14657:14674   */\n      and\n        /* \"#utility.yul\":14647:14674   */\n      swap2\n      pop\n        /* \"#utility.yul\":14603:14684   */\n    tag_401:\n        /* \"#utility.yul\":14731:14733   */\n      0x20\n        /* \"#utility.yul\":14723:14729   */\n      dup3\n        /* \"#utility.yul\":14720:14734   */\n      lt\n        /* \"#utility.yul\":14700:14718   */\n      dup2\n        /* \"#utility.yul\":14697:14735   */\n      sub\n        /* \"#utility.yul\":14694:14778   */\n      tag_402\n      jumpi\n        /* \"#utility.yul\":14750:14768   */\n      tag_403\n      tag_232\n      jump\t// in\n    tag_403:\n        /* \"#utility.yul\":14694:14778   */\n    tag_402:\n        /* \"#utility.yul\":14515:14784   */\n      pop\n        /* \"#utility.yul\":14464:14784   */\n      swap2\n      swap1\n      pop\n      jump\t// out\n        /* \"#utility.yul\":14790:14931   */\n    tag_233:\n        /* \"#utility.yul\":14839:14843   */\n      0x00\n        /* \"#utility.yul\":14862:14865   */\n      dup2\n        /* \"#utility.yul\":14854:14865   */\n      swap1\n      pop\n        /* \"#utility.yul\":14885:14888   */\n      dup2\n        /* \"#utility.yul\":14882:14883   */\n      0x00\n        /* \"#utility.yul\":14875:14889   */\n      mstore\n        /* \"#utility.yul\":14919:14923   */\n      0x20\n        /* \"#utility.yul\":14916:14917   */\n      0x00\n        /* \"#utility.yul\":14906:14924   */\n      keccak256\n        /* \"#utility.yul\":14898:14924   */\n      swap1\n      pop\n        /* \"#utility.yul\":14790:14931   */\n      swap2\n      swap1\n      pop\n      jump\t// out\n        /* \"#utility.yul\":14937:15030   */\n    tag_234:\n        /* \"#utility.yul\":14974:14980   */\n      0x00\n        /* \"#utility.yul\":15021:15023   */\n      0x20\n        /* \"#utility.yul\":15016:15018   */\n      0x1f\n        /* \"#utility.yul\":15009:15014   */\n      dup4\n        /* \"#utility.yul\":15005:15019   */\n      add\n        /* \"#utility.yul\":15001:15024   */\n      div\n        /* \"#utility.yul\":14991:15024   */\n      swap1\n      pop\n        /* \"#utility.yul\":14937:15030   */\n      swap2\n      swap1\n      pop\n      jump\t// out\n        /* \"#utility.yul\":15036:15143   */\n    tag_235:\n        /* \"#utility.yul\":15080:15088   */\n      0x00\n        /* \"#utility.yul\":15130:15135   */\n      dup3\n        /* \"#utility.yul\":15124:15128   */\n      dup3\n        /* \"#utility.yul\":15120:15136   */\n      shl\n        /* \"#utility.yul\":15099:15136   */\n      swap1\n      pop\n        /* \"#utility.yul\":15036:15143   */\n      swap3\n      swap2\n      pop\n      pop\n      jump\t// out\n        /* \"#utility.yul\":15149:15542   */\n    tag_236:\n        /* \"#utility.yul\":15218:15224   */\n      0x00\n        /* \"#utility.yul\":15268:15269   */\n      0x08\n        /* \"#utility.yul\":15256:15266   */\n      dup4\n        /* \"#utility.yul\":15252:15270   */\n      mul\n        /* \"#utility.yul\":15291:15388   */\n      tag_408\n        /* \"#utility.yul\":15321:15387   */\n      0xffffffffffffffffffffffffffffffffffffffffffffffffffffffffffffffff\n        /* \"#utility.yul\":15310:15319   */\n      dup3\n        /* \"#utility.yul\":15291:15388   */\n      tag_235\n      jump\t// in\n    tag_408:\n        /* \"#utility.yul\":15409:15448   */\n      tag_409\n        /* \"#utility.yul\":15439:15447   */\n      dup7\n        /* \"#utility.yul\":15428:15437   */\n      dup4\n        /* \"#utility.yul\":15409:15448   */\n      tag_235\n      jump\t// in\n    tag_409:\n        /* \"#utility.yul\":15397:15448   */\n      swap6\n      pop\n        /* \"#utility.yul\":15481:15485   */\n      dup1\n        /* \"#utility.yul\":15477:15486   */\n      not\n        /* \"#utility.yul\":15470:15475   */\n      dup5\n        /* \"#utility.yul\":15466:15487   */\n      and\n        /* \"#utility.yul\":15457:15487   */\n      swap4\n      pop\n        /* \"#utility.yul\":15530:15534   */\n      dup1\n        /* \"#utility.yul\":15520:15528   */\n      dup7\n        /* \"#utility.yul\":15516:15535   */\n      and\n        /* \"#utility.yul\":15509:15514   */\n      dup5\n        /* \"#utility.yul\":15506:15536   */\n      or\n        /* \"#utility.yul\":15496:15536   */\n      swap3\n      pop\n        /* \"#utility.yul\":15225:15542   */\n      pop\n      pop\n        /* \"#utility.yul\":15149:15542   */\n      swap4\n      swap3\n      pop\n      pop\n      pop\n      jump\t// out\n        /* \"#utility.yul\":15548:15608   */\n    tag_237:\n        /* \"#utility.yul\":15576:15579   */\n      0x00\n        /* \"#utility.yul\":15597:15602   */\n      dup2\n        /* \"#utility.yul\":15590:15602   */\n      swap1\n      pop\n        /* \"#utility.yul\":15548:15608   */\n      swap2\n      swap1\n      pop\n      jump\t// out\n        /* \"#utility.yul\":15614:15756   */\n    tag_238:\n        /* \"#utility.yul\":15664:15673   */\n      0x00\n        /* \"#utility.yul\":15697:15750   */\n      tag_412\n        /* \"#utility.yul\":15715:15749   */\n      tag_413\n        /* \"#utility.yul\":15724:15748   */\n      tag_414\n        /* \"#utility.yul\":15742:15747   */\n      dup5\n        /* \"#utility.yul\":15724:15748   */\n      tag_195\n      jump\t// in\n    tag_414:\n        /* \"#utility.yul\":15715:15749   */\n      tag_237\n      jump\t// in\n    tag_413:\n        /* \"#utility.yul\":15697:15750   */\n      tag_195\n      jump\t// in\n    tag_412:\n        /* \"#utility.yul\":15684:15750   */\n      swap1\n      pop\n        /* \"#utility.yul\":15614:15756   */\n      swap2\n      swap1\n      pop\n      jump\t// out\n        /* \"#utility.yul\":15762:15837   */\n    tag_239:\n        /* \"#utility.yul\":15805:15808   */\n      0x00\n        /* \"#utility.yul\":15826:15831   */\n      dup2\n        /* \"#utility.yul\":15819:15831   */\n      swap1\n      pop\n        /* \"#utility.yul\":15762:15837   */\n      swap2\n      swap1\n      pop\n      jump\t// out\n        /* \"#utility.yul\":15843:16112   */\n    tag_240:\n        /* \"#utility.yul\":15953:15992   */\n      tag_417\n        /* \"#utility.yul\":15984:15991   */\n      dup4\n        /* \"#utility.yul\":15953:15992   */\n      tag_238\n      jump\t// in\n    tag_417:\n        /* \"#utility.yul\":16014:16105   */\n      tag_418\n        /* \"#utility.yul\":16063:16104   */\n      tag_419\n        /* \"#utility.yul\":16087:16103   */\n      dup3\n        /* \"#utility.yul\":16063:16104   */\n      tag_239\n      jump\t// in\n    tag_419:\n        /* \"#utility.yul\":16055:16061   */\n      dup5\n        /* \"#utility.yul\":16048:16052   */\n      dup5\n        /* \"#utility.yul\":16042:16053   */\n      sload\n        /* \"#utility.yul\":16014:16105   */\n      tag_236\n      jump\t// in\n    tag_418:\n        /* \"#utility.yul\":16008:16012   */\n      dup3\n        /* \"#utility.yul\":16001:16106   */\n      sstore\n        /* \"#utility.yul\":15919:16112   */\n      pop\n        /* \"#utility.yul\":15843:16112   */\n      pop\n      pop\n      pop\n      jump\t// out\n        /* \"#utility.yul\":16118:16191   */\n    tag_241:\n        /* \"#utility.yul\":16163:16166   */\n      0x00\n        /* \"#utility.yul\":16118:16191   */\n      swap1\n      jump\t// out\n        /* \"#utility.yul\":16197:16386   */\n    tag_242:\n        /* \"#utility.yul\":16274:16306   */\n      tag_422\n      tag_241\n      jump\t// in\n    tag_422:\n        /* \"#utility.yul\":16315:16380   */\n      tag_423\n        /* \"#utility.yul\":16373:16379   */\n      dup2\n        /* \"#utility.yul\":16365:16371   */\n      dup5\n        /* \"#utility.yul\":16359:16363   */\n      dup5\n        /* \"#utility.yul\":16315:16380   */\n      tag_240\n      jump\t// in\n    tag_423:\n        /* \"#utility.yul\":16250:16386   */\n      pop\n        /* \"#utility.yul\":16197:16386   */\n      pop\n      pop\n      jump\t// out\n        /* \"#utility.yul\":16392:16578   */\n    tag_243:\n        /* \"#utility.yul\":16452:16572   */\n    tag_425:\n        /* \"#utility.yul\":16469:16472   */\n      dup2\n        /* \"#utility.yul\":16462:16467   */\n      dup2\n        /* \"#utility.yul\":16459:16473   */\n      lt\n        /* \"#utility.yul\":16452:16572   */\n      iszero\n      tag_427\n      jumpi\n        /* \"#utility.yul\":16523:16562   */\n      tag_428\n        /* \"#utility.yul\":16560:16561   */\n      0x00\n        /* \"#utility.yul\":16553:16558   */\n      dup3\n        /* \"#utility.yul\":16523:16562   */\n      tag_242\n      jump\t// in\n    tag_428:\n        /* \"#utility.yul\":16496:16497   */\n      0x01\n        /* \"#utility.yul\":16489:16494   */\n      dup2\n        /* \"#utility.yul\":16485:16498   */\n      add\n        /* \"#utility.yul\":16476:16498   */\n      swap1\n      pop\n        /* \"#utility.yul\":16452:16572   */\n      jump(tag_425)\n    tag_427:\n        /* \"#utility.yul\":16392:16578   */\n      pop\n      pop\n      jump\t// out\n        /* \"#utility.yul\":16584:17127   */\n    tag_244:\n        /* \"#utility.yul\":16685:16687   */\n      0x1f\n        /* \"#utility.yul\":16680:16683   */\n      dup3\n        /* \"#utility.yul\":16677:16688   */\n      gt\n        /* \"#utility.yul\":16674:17120   */\n      iszero\n      tag_430\n      jumpi\n        /* \"#utility.yul\":16719:16757   */\n      tag_431\n        /* \"#utility.yul\":16751:16756   */\n      dup2\n        /* \"#utility.yul\":16719:16757   */\n      tag_233\n      jump\t// in\n    tag_431:\n        /* \"#utility.yul\":16803:16832   */\n      tag_432\n        /* \"#utility.yul\":16821:16831   */\n      dup5\n        /* \"#utility.yul\":16803:16832   */\n      tag_234\n      jump\t// in\n    tag_432:\n        /* \"#utility.yul\":16793:16801   */\n      dup2\n        /* \"#utility.yul\":16789:16833   */\n      add\n        /* \"#utility.yul\":16986:16988   */\n      0x20\n        /* \"#utility.yul\":16974:16984   */\n      dup6\n        /* \"#utility.yul\":16971:16989   */\n      lt\n        /* \"#utility.yul\":16968:17017   */\n      iszero\n      tag_433\n      jumpi\n        /* \"#utility.yul\":17007:17015   */\n      dup2\n        /* \"#utility.yul\":16992:17015   */\n      swap1\n      pop\n        /* \"#utility.yul\":16968:17017   */\n    tag_433:\n        /* \"#utility.yul\":17030:17110   */\n      tag_434\n        /* \"#utility.yul\":17086:17108   */\n      tag_435\n        /* \"#utility.yul\":17104:17107   */\n      dup6\n        /* \"#utility.yul\":17086:17108   */\n      tag_234\n      jump\t// in\n    tag_435:\n        /* \"#utility.yul\":17076:17084   */\n      dup4\n        /* \"#utility.yul\":17072:17109   */\n      add\n        /* \"#utility.yul\":17059:17070   */\n      dup3\n        /* \"#utility.yul\":17030:17110   */\n      tag_243\n      jump\t// in\n    tag_434:\n        /* \"#utility.yul\":16689:17120   */\n      pop\n      pop\n        /* \"#utility.yul\":16674:17120   */\n    tag_430:\n        /* \"#utility.yul\":16584:17127   */\n      pop\n      pop\n      pop\n      jump\t// out\n        /* \"#utility.yul\":17133:17250   */\n    tag_245:\n        /* \"#utility.yul\":17187:17195   */\n      0x00\n        /* \"#utility.yul\":17237:17242   */\n      dup3\n        /* \"#utility.yul\":17231:17235   */\n      dup3\n        /* \"#utility.yul\":17227:17243   */\n      shr\n        /* \"#utility.yul\":17206:17243   */\n      swap1\n      pop\n        /* \"#utility.yul\":17133:17250   */\n      swap3\n      swap2\n      pop\n      pop\n      jump\t// out\n        /* \"#utility.yul\":17256:17425   */\n    tag_246:\n        /* \"#utility.yul\":17300:17306   */\n      0x00\n        /* \"#utility.yul\":17333:17384   */\n      tag_438\n        /* \"#utility.yul\":17381:17382   */\n      0x00\n        /* \"#utility.yul\":17377:17383   */\n      not\n        /* \"#utility.yul\":17369:17374   */\n      dup5\n        /* \"#utility.yul\":17366:17367   */\n      0x08\n        /* \"#utility.yul\":17362:17375   */\n      mul\n        /* \"#utility.yul\":17333:17384   */\n      tag_245\n      jump\t// in\n    tag_438:\n        /* \"#utility.yul\":17329:17385   */\n      not\n        /* \"#utility.yul\":17414:17418   */\n      dup1\n        /* \"#utility.yul\":17408:17412   */\n      dup4\n        /* \"#utility.yul\":17404:17419   */\n      and\n        /* \"#utility.yul\":17394:17419   */\n      swap2\n      pop\n        /* \"#utility.yul\":17307:17425   */\n      pop\n        /* \"#utility.yul\":17256:17425   */\n      swap3\n      swap2\n      pop\n      pop\n      jump\t// out\n        /* \"#utility.yul\":17430:17725   */\n    tag_247:\n        /* \"#utility.yul\":17506:17510   */\n      0x00\n        /* \"#utility.yul\":17652:17681   */\n      tag_440\n        /* \"#utility.yul\":17677:17680   */\n      dup4\n        /* \"#utility.yul\":17671:17675   */\n      dup4\n        /* \"#utility.yul\":17652:17681   */\n      tag_246\n      jump\t// in\n    tag_440:\n        /* \"#utility.yul\":17644:17681   */\n      swap2\n      pop\n        /* \"#utility.yul\":17714:17717   */\n      dup3\n        /* \"#utility.yul\":17711:17712   */\n      0x02\n        /* \"#utility.yul\":17707:17718   */\n      mul\n        /* \"#utility.yul\":17701:17705   */\n      dup3\n        /* \"#utility.yul\":17698:17719   */\n      or\n        /* \"#utility.yul\":17690:17719   */\n      swap1\n      pop\n        /* \"#utility.yul\":17430:17725   */\n      swap3\n      swap2\n      pop\n      pop\n      jump\t// out\n        /* \"#utility.yul\":17730:19125   */\n    tag_51:\n        /* \"#utility.yul\":17847:17884   */\n      tag_442\n        /* \"#utility.yul\":17880:17883   */\n      dup3\n        /* \"#utility.yul\":17847:17884   */\n      tag_205\n      jump\t// in\n    tag_442:\n        /* \"#utility.yul\":17949:17967   */\n      0xffffffffffffffff\n        /* \"#utility.yul\":17941:17947   */\n      dup2\n        /* \"#utility.yul\":17938:17968   */\n      gt\n        /* \"#utility.yul\":17935:17991   */\n      iszero\n      tag_443\n      jumpi\n        /* \"#utility.yul\":17971:17989   */\n      tag_444\n      tag_142\n      jump\t// in\n    tag_444:\n        /* \"#utility.yul\":17935:17991   */\n    tag_443:\n        /* \"#utility.yul\":18015:18053   */\n      tag_445\n        /* \"#utility.yul\":18047:18051   */\n      dup3\n        /* \"#utility.yul\":18041:18052   */\n      sload\n        /* \"#utility.yul\":18015:18053   */\n      tag_134\n      jump\t// in\n    tag_445:\n        /* \"#utility.yul\":18100:18167   */\n      tag_446\n        /* \"#utility.yul\":18160:18166   */\n      dup3\n        /* \"#utility.yul\":18152:18158   */\n      dup3\n        /* \"#utility.yul\":18146:18150   */\n      dup6\n        /* \"#utility.yul\":18100:18167   */\n      tag_244\n      jump\t// in\n    tag_446:\n        /* \"#utility.yul\":18194:18195   */\n      0x00\n        /* \"#utility.yul\":18218:18222   */\n      0x20\n        /* \"#utility.yul\":18205:18222   */\n      swap1\n      pop\n        /* \"#utility.yul\":18250:18252   */\n      0x1f\n        /* \"#utility.yul\":18242:18248   */\n      dup4\n        /* \"#utility.yul\":18239:18253   */\n      gt\n        /* \"#utility.yul\":18267:18268   */\n      0x01\n        /* \"#utility.yul\":18262:18880   */\n      dup2\n      eq\n      tag_448\n      jumpi\n        /* \"#utility.yul\":18924:18925   */\n      0x00\n        /* \"#utility.yul\":18941:18947   */\n      dup5\n        /* \"#utility.yul\":18938:19015   */\n      iszero\n      tag_449\n      jumpi\n        /* \"#utility.yul\":18990:18999   */\n      dup3\n        /* \"#utility.yul\":18985:18988   */\n      dup8\n        /* \"#utility.yul\":18981:19000   */\n      add\n        /* \"#utility.yul\":18975:19001   */\n      mload\n        /* \"#utility.yul\":18966:19001   */\n      swap1\n      pop\n        /* \"#utility.yul\":18938:19015   */\n    tag_449:\n        /* \"#utility.yul\":19041:19108   */\n      tag_450\n        /* \"#utility.yul\":19101:19107   */\n      dup6\n        /* \"#utility.yul\":19094:19099   */\n      dup3\n        /* \"#utility.yul\":19041:19108   */\n      tag_247\n      jump\t// in\n    tag_450:\n        /* \"#utility.yul\":19035:19039   */\n      dup7\n        /* \"#utility.yul\":19028:19109   */\n      sstore\n        /* \"#utility.yul\":18897:19119   */\n      pop\n        /* \"#utility.yul\":18232:19119   */\n      jump(tag_447)\n        /* \"#utility.yul\":18262:18880   */\n    tag_448:\n        /* \"#utility.yul\":18314:18318   */\n      0x1f\n        /* \"#utility.yul\":18310:18319   */\n      not\n        /* \"#utility.yul\":18302:18308   */\n      dup5\n        /* \"#utility.yul\":18298:18320   */\n      and\n        /* \"#utility.yul\":18348:18385   */\n      tag_451\n        /* \"#utility.yul\":18380:18384   */\n      dup7\n        /* \"#utility.yul\":18348:18385   */\n      tag_233\n      jump\t// in\n    tag_451:\n        /* \"#utility.yul\":18407:18408   */\n      0x00\n        /* \"#utility.yul\":18421:18629   */\n    tag_452:\n        /* \"#utility.yul\":18435:18442   */\n      dup3\n        /* \"#utility.yul\":18432:18433   */\n      dup2\n        /* \"#utility.yul\":18429:18443   */\n      lt\n        /* \"#utility.yul\":18421:18629   */\n      iszero\n      tag_454\n      jumpi\n        /* \"#utility.yul\":18514:18523   */\n      dup5\n        /* \"#utility.yul\":18509:18512   */\n      dup10\n        /* \"#utility.yul\":18505:18524   */\n      add\n        /* \"#utility.yul\":18499:18525   */\n      mload\n        /* \"#utility.yul\":18491:18497   */\n      dup3\n        /* \"#utility.yul\":18484:18526   */\n      sstore\n        /* \"#utility.yul\":18565:18566   */\n      0x01\n        /* \"#utility.yul\":18557:18563   */\n      dup3\n        /* \"#utility.yul\":18553:18567   */\n      add\n        /* \"#utility.yul\":18543:18567   */\n      swap2\n      pop\n        /* \"#utility.yul\":18612:18614   */\n      0x20\n        /* \"#utility.yul\":18601:18610   */\n      dup6\n        /* \"#utility.yul\":18597:18615   */\n      add\n        /* \"#utility.yul\":18584:18615   */\n      swap5\n      pop\n        /* \"#utility.yul\":18458:18462   */\n      0x20\n        /* \"#utility.yul\":18455:18456   */\n      dup2\n        /* \"#utility.yul\":18451:18463   */\n      add\n        /* \"#utility.yul\":18446:18463   */\n      swap1\n      pop\n        /* \"#utility.yul\":18421:18629   */\n      jump(tag_452)\n    tag_454:\n        /* \"#utility.yul\":18657:18663   */\n      dup7\n        /* \"#utility.yul\":18648:18655   */\n      dup4\n        /* \"#utility.yul\":18645:18664   */\n      lt\n        /* \"#utility.yul\":18642:18821   */\n      iszero\n      tag_455\n      jumpi\n        /* \"#utility.yul\":18715:18724   */\n      dup5\n        /* \"#utility.yul\":18710:18713   */\n      dup10\n        /* \"#utility.yul\":18706:18725   */\n      add\n        /* \"#utility.yul\":18700:18726   */\n      mload\n        /* \"#utility.yul\":18758:18806   */\n      tag_456\n        /* \"#utility.yul\":18800:18804   */\n      0x1f\n        /* \"#utility.yul\":18792:18798   */\n      dup10\n        /* \"#utility.yul\":18788:18805   */\n      and\n        /* \"#utility.yul\":18777:18786   */\n      dup3\n        /* \"#utility.yul\":18758:18806   */\n      tag_246\n      jump\t// in\n    tag_456:\n        /* \"#utility.yul\":18750:18756   */\n      dup4\n        /* \"#utility.yul\":18743:18807   */\n      sstore\n        /* \"#utility.yul\":18665:18821   */\n      pop\n        /* \"#utility.yul\":18642:18821   */\n    tag_455:\n        /* \"#utility.yul\":18867:18868   */\n      0x01\n        /* \"#utility.yul\":18863:18864   */\n      0x02\n        /* \"#utility.yul\":18855:18861   */\n      dup9\n        /* \"#utility.yul\":18851:18865   */\n      mul\n        /* \"#utility.yul\":18847:18869   */\n      add\n        /* \"#utility.yul\":18841:18845   */\n      dup9\n        /* \"#utility.yul\":18834:18870   */\n      sstore\n        /* \"#utility.yul\":18269:18880   */\n      pop\n      pop\n      pop\n        /* \"#utility.yul\":18232:19119   */\n    tag_447:\n      pop\n        /* \"#utility.yul\":17822:19125   */\n      pop\n      pop\n      pop\n        /* \"#utility.yul\":17730:19125   */\n      pop\n      pop\n      jump\t// out\n        /* \"#utility.yul\":19131:19311   */\n    tag_58:\n        /* \"#utility.yul\":19179:19256   */\n      0x4e487b7100000000000000000000000000000000000000000000000000000000\n        /* \"#utility.yul\":19176:19177   */\n      0x00\n        /* \"#utility.yul\":19169:19257   */\n      mstore\n        /* \"#utility.yul\":19276:19280   */\n      0x32\n        /* \"#utility.yul\":19273:19274   */\n      0x04\n        /* \"#utility.yul\":19266:19281   */\n      mstore\n        /* \"#utility.yul\":19300:19304   */\n      0x24\n        /* \"#utility.yul\":19297:19298   */\n      0x00\n        /* \"#utility.yul\":19290:19305   */\n      revert\n        /* \"#utility.yul\":19317:19497   */\n    tag_248:\n        /* \"#utility.yul\":19365:19442   */\n      0x4e487b7100000000000000000000000000000000000000000000000000000000\n        /* \"#utility.yul\":19362:19363   */\n      0x00\n        /* \"#utility.yul\":19355:19443   */\n      mstore\n        /* \"#utility.yul\":19462:19466   */\n      0x11\n        /* \"#utility.yul\":19459:19460   */\n      0x04\n        /* \"#utility.yul\":19452:19467   */\n      mstore\n        /* \"#utility.yul\":19486:19490   */\n      0x24\n        /* \"#utility.yul\":19483:19484   */\n      0x00\n        /* \"#utility.yul\":19476:19491   */\n      revert\n        /* \"#utility.yul\":19503:19697   */\n    tag_62:\n        /* \"#utility.yul\":19543:19547   */\n      0x00\n        /* \"#utility.yul\":19563:19583   */\n      tag_460\n        /* \"#utility.yul\":19581:19582   */\n      dup3\n        /* \"#utility.yul\":19563:19583   */\n      tag_195\n      jump\t// in\n    tag_460:\n        /* \"#utility.yul\":19558:19583   */\n      swap2\n      pop\n        /* \"#utility.yul\":19597:19617   */\n      tag_461\n        /* \"#utility.yul\":19615:19616   */\n      dup4\n        /* \"#utility.yul\":19597:19617   */\n      tag_195\n      jump\t// in\n    tag_461:\n        /* \"#utility.yul\":19592:19617   */\n      swap3\n      pop\n        /* \"#utility.yul\":19641:19642   */\n      dup3\n        /* \"#utility.yul\":19638:19639   */\n      dup3\n        /* \"#utility.yul\":19634:19643   */\n      sub\n        /* \"#utility.yul\":19626:19643   */\n      swap1\n      pop\n        /* \"#utility.yul\":19665:19666   */\n      dup2\n        /* \"#utility.yul\":19659:19663   */\n      dup2\n        /* \"#utility.yul\":19656:19667   */\n      gt\n        /* \"#utility.yul\":19653:19690   */\n      iszero\n      tag_462\n      jumpi\n        /* \"#utility.yul\":19670:19688   */\n      tag_463\n      tag_248\n      jump\t// in\n    tag_463:\n        /* \"#utility.yul\":19653:19690   */\n    tag_462:\n        /* \"#utility.yul\":19503:19697   */\n      swap3\n      swap2\n      pop\n      pop\n      jump\t// out\n        /* \"#utility.yul\":19703:19883   */\n    tag_71:\n        /* \"#utility.yul\":19751:19828   */\n      0x4e487b7100000000000000000000000000000000000000000000000000000000\n        /* \"#utility.yul\":19748:19749   */\n      0x00\n        /* \"#utility.yul\":19741:19829   */\n      mstore\n        /* \"#utility.yul\":19848:19852   */\n      0x31\n        /* \"#utility.yul\":19845:19846   */\n      0x04\n        /* \"#utility.yul\":19838:19853   */\n      mstore\n        /* \"#utility.yul\":19872:19876   */\n      0x24\n        /* \"#utility.yul\":19869:19870   */\n      0x00\n        /* \"#utility.yul\":19862:19877   */\n      revert\n        /* \"#utility.yul\":19889:20122   */\n    tag_74:\n        /* \"#utility.yul\":19928:19931   */\n      0x00\n        /* \"#utility.yul\":19951:19975   */\n      tag_466\n        /* \"#utility.yul\":19969:19974   */\n      dup3\n        /* \"#utility.yul\":19951:19975   */\n      tag_195\n      jump\t// in\n    tag_466:\n        /* \"#utility.yul\":19942:19975   */\n      swap2\n      pop\n        /* \"#utility.yul\":19997:20063   */\n      0xffffffffffffffffffffffffffffffffffffffffffffffffffffffffffffffff\n        /* \"#utility.yul\":19990:19995   */\n      dup3\n        /* \"#utility.yul\":19987:20064   */\n      sub\n        /* \"#utility.yul\":19984:20087   */\n      tag_467\n      jumpi\n        /* \"#utility.yul\":20067:20085   */\n      tag_468\n      tag_248\n      jump\t// in\n    tag_468:\n        /* \"#utility.yul\":19984:20087   */\n    tag_467:\n        /* \"#utility.yul\":20114:20115   */\n      0x01\n        /* \"#utility.yul\":20107:20112   */\n      dup3\n        /* \"#utility.yul\":20103:20116   */\n      add\n        /* \"#utility.yul\":20096:20116   */\n      swap1\n      pop\n        /* \"#utility.yul\":19889:20122   */\n      swap2\n      swap1\n      pop\n      jump\t// out\n        /* \"#utility.yul\":20128:20350   */\n    tag_77:\n        /* \"#utility.yul\":20221:20225   */\n      0x00\n        /* \"#utility.yul\":20259:20261   */\n      0x20\n        /* \"#utility.yul\":20248:20257   */\n      dup3\n        /* \"#utility.yul\":20244:20262   */\n      add\n        /* \"#utility.yul\":20236:20262   */\n      swap1\n      pop\n        /* \"#utility.yul\":20272:20343   */\n      tag_470\n        /* \"#utility.yul\":20340:20341   */\n      0x00\n        /* \"#utility.yul\":20329:20338   */\n      dup4\n        /* \"#utility.yul\":20325:20342   */\n      add\n        /* \"#utility.yul\":20316:20322   */\n      dup5\n        /* \"#utility.yul\":20272:20343   */\n      tag_214\n      jump\t// in\n    tag_470:\n        /* \"#utility.yul\":20128:20350   */\n      swap3\n      swap2\n      pop\n      pop\n      jump\t// out\n        /* \"#utility.yul\":20356:20473   */\n    tag_249:\n        /* \"#utility.yul\":20465:20466   */\n      0x00\n        /* \"#utility.yul\":20462:20463   */\n      dup1\n        /* \"#utility.yul\":20455:20467   */\n      revert\n        /* \"#utility.yul\":20479:20596   */\n    tag_250:\n        /* \"#utility.yul\":20588:20589   */\n      0x00\n        /* \"#utility.yul\":20585:20586   */\n      dup1\n        /* \"#utility.yul\":20578:20590   */\n      revert\n        /* \"#utility.yul\":20602:20883   */\n    tag_251:\n        /* \"#utility.yul\":20685:20712   */\n      tag_474\n        /* \"#utility.yul\":20707:20711   */\n      dup3\n        /* \"#utility.yul\":20685:20712   */\n      tag_208\n      jump\t// in\n    tag_474:\n        /* \"#utility.yul\":20677:20683   */\n      dup2\n        /* \"#utility.yul\":20673:20713   */\n      add\n        /* \"#utility.yul\":20815:20821   */\n      dup2\n        /* \"#utility.yul\":20803:20813   */\n      dup2\n        /* \"#utility.yul\":20800:20822   */\n      lt\n        /* \"#utility.yul\":20779:20797   */\n      0xffffffffffffffff\n        /* \"#utility.yul\":20767:20777   */\n      dup3\n        /* \"#utility.yul\":20764:20798   */\n      gt\n        /* \"#utility.yul\":20761:20823   */\n      or\n        /* \"#utility.yul\":20758:20846   */\n      iszero\n      tag_475\n      jumpi\n        /* \"#utility.yul\":20826:20844   */\n      tag_476\n      tag_142\n      jump\t// in\n    tag_476:\n        /* \"#utility.yul\":20758:20846   */\n    tag_475:\n        /* \"#utility.yul\":20866:20876   */\n      dup1\n        /* \"#utility.yul\":20862:20864   */\n      0x40\n        /* \"#utility.yul\":20855:20877   */\n      mstore\n        /* \"#utility.yul\":20645:20883   */\n      pop\n        /* \"#utility.yul\":20602:20883   */\n      pop\n      pop\n      jump\t// out\n        /* \"#utility.yul\":20889:21018   */\n    tag_252:\n        /* \"#utility.yul\":20923:20929   */\n      0x00\n        /* \"#utility.yul\":20950:20970   */\n      tag_478\n      tag_192\n      jump\t// in\n    tag_478:\n        /* \"#utility.yul\":20940:20970   */\n      swap1\n      pop\n        /* \"#utility.yul\":20979:21012   */\n      tag_479\n        /* \"#utility.yul\":21007:21011   */\n      dup3\n        /* \"#utility.yul\":20999:21005   */\n      dup3\n        /* \"#utility.yul\":20979:21012   */\n      tag_251\n      jump\t// in\n    tag_479:\n        /* \"#utility.yul\":20889:21018   */\n      swap2\n      swap1\n      pop\n      jump\t// out\n        /* \"#utility.yul\":21024:21332   */\n    tag_253:\n        /* \"#utility.yul\":21086:21090   */\n      0x00\n        /* \"#utility.yul\":21176:21194   */\n      0xffffffffffffffff\n        /* \"#utility.yul\":21168:21174   */\n      dup3\n        /* \"#utility.yul\":21165:21195   */\n      gt\n        /* \"#utility.yul\":21162:21218   */\n      iszero\n      tag_481\n      jumpi\n        /* \"#utility.yul\":21198:21216   */\n      tag_482\n      tag_142\n      jump\t// in\n    tag_482:\n        /* \"#utility.yul\":21162:21218   */\n    tag_481:\n        /* \"#utility.yul\":21236:21265   */\n      tag_483\n        /* \"#utility.yul\":21258:21264   */\n      dup3\n        /* \"#utility.yul\":21236:21265   */\n      tag_208\n      jump\t// in\n    tag_483:\n        /* \"#utility.yul\":21228:21265   */\n      swap1\n      pop\n        /* \"#utility.yul\":21320:21324   */\n      0x20\n        /* \"#utility.yul\":21314:21318   */\n      dup2\n        /* \"#utility.yul\":21310:21325   */\n      add\n        /* \"#utility.yul\":21302:21325   */\n      swap1\n      pop\n        /* \"#utility.yul\":21024:21332   */\n      swap2\n      swap1\n      pop\n      jump\t// out\n        /* \"#utility.yul\":21338:21772   */\n    tag_254:\n        /* \"#utility.yul\":21427:21432   */\n      0x00\n        /* \"#utility.yul\":21452:21518   */\n      tag_485\n        /* \"#utility.yul\":21468:21517   */\n      tag_486\n        /* \"#utility.yul\":21510:21516   */\n      dup5\n        /* \"#utility.yul\":21468:21517   */\n      tag_253\n      jump\t// in\n    tag_486:\n        /* \"#utility.yul\":21452:21518   */\n      tag_252\n      jump\t// in\n    tag_485:\n        /* \"#utility.yul\":21443:21518   */\n      swap1\n      pop\n        /* \"#utility.yul\":21541:21547   */\n      dup3\n        /* \"#utility.yul\":21534:21539   */\n      dup2\n        /* \"#utility.yul\":21527:21548   */\n      mstore\n        /* \"#utility.yul\":21579:21583   */\n      0x20\n        /* \"#utility.yul\":21572:21577   */\n      dup2\n        /* \"#utility.yul\":21568:21584   */\n      add\n        /* \"#utility.yul\":21617:21620   */\n      dup5\n        /* \"#utility.yul\":21608:21614   */\n      dup5\n        /* \"#utility.yul\":21603:21606   */\n      dup5\n        /* \"#utility.yul\":21599:21615   */\n      add\n        /* \"#utility.yul\":21596:21621   */\n      gt\n        /* \"#utility.yul\":21593:21705   */\n      iszero\n      tag_487\n      jumpi\n        /* \"#utility.yul\":21624:21703   */\n      tag_488\n      tag_250\n      jump\t// in\n    tag_488:\n        /* \"#utility.yul\":21593:21705   */\n    tag_487:\n        /* \"#utility.yul\":21714:21766   */\n      tag_489\n        /* \"#utility.yul\":21759:21765   */\n      dup5\n        /* \"#utility.yul\":21754:21757   */\n      dup3\n        /* \"#utility.yul\":21749:21752   */\n      dup6\n        /* \"#utility.yul\":21714:21766   */\n      tag_207\n      jump\t// in\n    tag_489:\n        /* \"#utility.yul\":21433:21772   */\n      pop\n        /* \"#utility.yul\":21338:21772   */\n      swap4\n      swap3\n      pop\n      pop\n      pop\n      jump\t// out\n        /* \"#utility.yul\":21792:22147   */\n    tag_255:\n        /* \"#utility.yul\":21859:21864   */\n      0x00\n        /* \"#utility.yul\":21908:21911   */\n      dup3\n        /* \"#utility.yul\":21901:21905   */\n      0x1f\n        /* \"#utility.yul\":21893:21899   */\n      dup4\n        /* \"#utility.yul\":21889:21906   */\n      add\n        /* \"#utility.yul\":21885:21912   */\n      slt\n        /* \"#utility.yul\":21875:21997   */\n      tag_491\n      jumpi\n        /* \"#utility.yul\":21916:21995   */\n      tag_492\n      tag_249\n      jump\t// in\n    tag_492:\n        /* \"#utility.yul\":21875:21997   */\n    tag_491:\n        /* \"#utility.yul\":22026:22032   */\n      dup2\n        /* \"#utility.yul\":22020:22033   */\n      mload\n        /* \"#utility.yul\":22051:22141   */\n      tag_493\n        /* \"#utility.yul\":22137:22140   */\n      dup5\n        /* \"#utility.yul\":22129:22135   */\n      dup3\n        /* \"#utility.yul\":22122:22126   */\n      0x20\n        /* \"#utility.yul\":22114:22120   */\n      dup7\n        /* \"#utility.yul\":22110:22127   */\n      add\n        /* \"#utility.yul\":22051:22141   */\n      tag_254\n      jump\t// in\n    tag_493:\n        /* \"#utility.yul\":22042:22141   */\n      swap2\n      pop\n        /* \"#utility.yul\":21865:22147   */\n      pop\n        /* \"#utility.yul\":21792:22147   */\n      swap3\n      swap2\n      pop\n      pop\n      jump\t// out\n        /* \"#utility.yul\":22153:22273   */\n    tag_256:\n        /* \"#utility.yul\":22225:22248   */\n      tag_495\n        /* \"#utility.yul\":22242:22247   */\n      dup2\n        /* \"#utility.yul\":22225:22248   */\n      tag_210\n      jump\t// in\n    tag_495:\n        /* \"#utility.yul\":22218:22223   */\n      dup2\n        /* \"#utility.yul\":22215:22249   */\n      eq\n        /* \"#utility.yul\":22205:22267   */\n      tag_496\n      jumpi\n        /* \"#utility.yul\":22263:22264   */\n      0x00\n        /* \"#utility.yul\":22260:22261   */\n      dup1\n        /* \"#utility.yul\":22253:22265   */\n      revert\n        /* \"#utility.yul\":22205:22267   */\n    tag_496:\n        /* \"#utility.yul\":22153:22273   */\n      pop\n      jump\t// out\n        /* \"#utility.yul\":22279:22420   */\n    tag_257:\n        /* \"#utility.yul\":22335:22340   */\n      0x00\n        /* \"#utility.yul\":22366:22372   */\n      dup2\n        /* \"#utility.yul\":22360:22373   */\n      mload\n        /* \"#utility.yul\":22351:22373   */\n      swap1\n      pop\n        /* \"#utility.yul\":22382:22414   */\n      tag_498\n        /* \"#utility.yul\":22408:22413   */\n      dup2\n        /* \"#utility.yul\":22382:22414   */\n      tag_256\n      jump\t// in\n    tag_498:\n        /* \"#utility.yul\":22279:22420   */\n      swap3\n      swap2\n      pop\n      pop\n      jump\t// out\n        /* \"#utility.yul\":22426:22569   */\n    tag_258:\n        /* \"#utility.yul\":22483:22488   */\n      0x00\n        /* \"#utility.yul\":22514:22520   */\n      dup2\n        /* \"#utility.yul\":22508:22521   */\n      mload\n        /* \"#utility.yul\":22499:22521   */\n      swap1\n      pop\n        /* \"#utility.yul\":22530:22563   */\n      tag_500\n        /* \"#utility.yul\":22557:22562   */\n      dup2\n        /* \"#utility.yul\":22530:22563   */\n      tag_196\n      jump\t// in\n    tag_500:\n        /* \"#utility.yul\":22426:22569   */\n      swap3\n      swap2\n      pop\n      pop\n      jump\t// out\n        /* \"#utility.yul\":22575:22712   */\n    tag_259:\n        /* \"#utility.yul\":22629:22634   */\n      0x00\n        /* \"#utility.yul\":22660:22666   */\n      dup2\n        /* \"#utility.yul\":22654:22667   */\n      mload\n        /* \"#utility.yul\":22645:22667   */\n      swap1\n      pop\n        /* \"#utility.yul\":22676:22706   */\n      tag_502\n        /* \"#utility.yul\":22700:22705   */\n      dup2\n        /* \"#utility.yul\":22676:22706   */\n      tag_199\n      jump\t// in\n    tag_502:\n        /* \"#utility.yul\":22575:22712   */\n      swap3\n      swap2\n      pop\n      pop\n      jump\t// out\n        /* \"#utility.yul\":22718:24015   */\n    tag_81:\n        /* \"#utility.yul\":22838:22844   */\n      0x00\n        /* \"#utility.yul\":22846:22852   */\n      dup1\n        /* \"#utility.yul\":22854:22860   */\n      0x00\n        /* \"#utility.yul\":22862:22868   */\n      dup1\n        /* \"#utility.yul\":22870:22876   */\n      0x00\n        /* \"#utility.yul\":22878:22884   */\n      dup1\n        /* \"#utility.yul\":22927:22930   */\n      0xc0\n        /* \"#utility.yul\":22915:22924   */\n      dup8\n        /* \"#utility.yul\":22906:22913   */\n      dup10\n        /* \"#utility.yul\":22902:22925   */\n      sub\n        /* \"#utility.yul\":22898:22931   */\n      slt\n        /* \"#utility.yul\":22895:23015   */\n      iszero\n      tag_504\n      jumpi\n        /* \"#utility.yul\":22934:23013   */\n      tag_505\n      tag_193\n      jump\t// in\n    tag_505:\n        /* \"#utility.yul\":22895:23015   */\n    tag_504:\n        /* \"#utility.yul\":23075:23076   */\n      0x00\n        /* \"#utility.yul\":23064:23073   */\n      dup8\n        /* \"#utility.yul\":23060:23077   */\n      add\n        /* \"#utility.yul\":23054:23078   */\n      mload\n        /* \"#utility.yul\":23105:23123   */\n      0xffffffffffffffff\n        /* \"#utility.yul\":23097:23103   */\n      dup2\n        /* \"#utility.yul\":23094:23124   */\n      gt\n        /* \"#utility.yul\":23091:23208   */\n      iszero\n      tag_506\n      jumpi\n        /* \"#utility.yul\":23127:23206   */\n      tag_507\n      tag_194\n      jump\t// in\n    tag_507:\n        /* \"#utility.yul\":23091:23208   */\n    tag_506:\n        /* \"#utility.yul\":23232:23306   */\n      tag_508\n        /* \"#utility.yul\":23298:23305   */\n      dup10\n        /* \"#utility.yul\":23289:23295   */\n      dup3\n        /* \"#utility.yul\":23278:23287   */\n      dup11\n        /* \"#utility.yul\":23274:23296   */\n      add\n        /* \"#utility.yul\":23232:23306   */\n      tag_255\n      jump\t// in\n    tag_508:\n        /* \"#utility.yul\":23222:23306   */\n      swap7\n      pop\n        /* \"#utility.yul\":23025:23316   */\n      pop\n        /* \"#utility.yul\":23355:23357   */\n      0x20\n        /* \"#utility.yul\":23381:23444   */\n      tag_509\n        /* \"#utility.yul\":23436:23443   */\n      dup10\n        /* \"#utility.yul\":23427:23433   */\n      dup3\n        /* \"#utility.yul\":23416:23425   */\n      dup11\n        /* \"#utility.yul\":23412:23434   */\n      add\n        /* \"#utility.yul\":23381:23444   */\n      tag_257\n      jump\t// in\n    tag_509:\n        /* \"#utility.yul\":23371:23444   */\n      swap6\n      pop\n        /* \"#utility.yul\":23326:23454   */\n      pop\n        /* \"#utility.yul\":23493:23495   */\n      0x40\n        /* \"#utility.yul\":23519:23582   */\n      tag_510\n        /* \"#utility.yul\":23574:23581   */\n      dup10\n        /* \"#utility.yul\":23565:23571   */\n      dup3\n        /* \"#utility.yul\":23554:23563   */\n      dup11\n        /* \"#utility.yul\":23550:23572   */\n      add\n        /* \"#utility.yul\":23519:23582   */\n      tag_257\n      jump\t// in\n    tag_510:\n        /* \"#utility.yul\":23509:23582   */\n      swap5\n      pop\n        /* \"#utility.yul\":23464:23592   */\n      pop\n        /* \"#utility.yul\":23631:23633   */\n      0x60\n        /* \"#utility.yul\":23657:23721   */\n      tag_511\n        /* \"#utility.yul\":23713:23720   */\n      dup10\n        /* \"#utility.yul\":23704:23710   */\n      dup3\n        /* \"#utility.yul\":23693:23702   */\n      dup11\n        /* \"#utility.yul\":23689:23711   */\n      add\n        /* \"#utility.yul\":23657:23721   */\n      tag_258\n      jump\t// in\n    tag_511:\n        /* \"#utility.yul\":23647:23721   */\n      swap4\n      pop\n        /* \"#utility.yul\":23602:23731   */\n      pop\n        /* \"#utility.yul\":23770:23773   */\n      0x80\n        /* \"#utility.yul\":23797:23861   */\n      tag_512\n        /* \"#utility.yul\":23853:23860   */\n      dup10\n        /* \"#utility.yul\":23844:23850   */\n      dup3\n        /* \"#utility.yul\":23833:23842   */\n      dup11\n        /* \"#utility.yul\":23829:23851   */\n      add\n        /* \"#utility.yul\":23797:23861   */\n      tag_258\n      jump\t// in\n    tag_512:\n        /* \"#utility.yul\":23787:23861   */\n      swap3\n      pop\n        /* \"#utility.yul\":23741:23871   */\n      pop\n        /* \"#utility.yul\":23910:23913   */\n      0xa0\n        /* \"#utility.yul\":23937:23998   */\n      tag_513\n        /* \"#utility.yul\":23990:23997   */\n      dup10\n        /* \"#utility.yul\":23981:23987   */\n      dup3\n        /* \"#utility.yul\":23970:23979   */\n      dup11\n        /* \"#utility.yul\":23966:23988   */\n      add\n        /* \"#utility.yul\":23937:23998   */\n      tag_259\n      jump\t// in\n    tag_513:\n        /* \"#utility.yul\":23927:23998   */\n      swap2\n      pop\n        /* \"#utility.yul\":23881:24008   */\n      pop\n        /* \"#utility.yul\":22718:24015   */\n      swap3\n      swap6\n      pop\n      swap3\n      swap6\n      pop\n      swap3\n      swap6\n      jump\t// out\n        /* \"#utility.yul\":24021:24212   */\n    tag_93:\n        /* \"#utility.yul\":24061:24064   */\n      0x00\n        /* \"#utility.yul\":24080:24100   */\n      tag_515\n        /* \"#utility.yul\":24098:24099   */\n      dup3\n        /* \"#utility.yul\":24080:24100   */\n      tag_195\n      jump\t// in\n    tag_515:\n        /* \"#utility.yul\":24075:24100   */\n      swap2\n      pop\n        /* \"#utility.yul\":24114:24134   */\n      tag_516\n        /* \"#utility.yul\":24132:24133   */\n      dup4\n        /* \"#utility.yul\":24114:24134   */\n      tag_195\n      jump\t// in\n    tag_516:\n        /* \"#utility.yul\":24109:24134   */\n      swap3\n      pop\n        /* \"#utility.yul\":24157:24158   */\n      dup3\n        /* \"#utility.yul\":24154:24155   */\n      dup3\n        /* \"#utility.yul\":24150:24159   */\n      add\n        /* \"#utility.yul\":24143:24159   */\n      swap1\n      pop\n        /* \"#utility.yul\":24178:24181   */\n      dup1\n        /* \"#utility.yul\":24175:24176   */\n      dup3\n        /* \"#utility.yul\":24172:24182   */\n      gt\n        /* \"#utility.yul\":24169:24205   */\n      iszero\n      tag_517\n      jumpi\n        /* \"#utility.yul\":24185:24203   */\n      tag_518\n      tag_248\n      jump\t// in\n    tag_518:\n        /* \"#utility.yul\":24169:24205   */\n    tag_517:\n        /* \"#utility.yul\":24021:24212   */\n      swap3\n      swap2\n      pop\n      pop\n      jump\t// out\n        /* \"#utility.yul\":24218:24550   */\n    tag_104:\n        /* \"#utility.yul\":24339:24343   */\n      0x00\n        /* \"#utility.yul\":24377:24379   */\n      0x40\n        /* \"#utility.yul\":24366:24375   */\n      dup3\n        /* \"#utility.yul\":24362:24380   */\n      add\n        /* \"#utility.yul\":24354:24380   */\n      swap1\n      pop\n        /* \"#utility.yul\":24390:24461   */\n      tag_520\n        /* \"#utility.yul\":24458:24459   */\n      0x00\n        /* \"#utility.yul\":24447:24456   */\n      dup4\n        /* \"#utility.yul\":24443:24460   */\n      add\n        /* \"#utility.yul\":24434:24440   */\n      dup6\n        /* \"#utility.yul\":24390:24461   */\n      tag_214\n      jump\t// in\n    tag_520:\n        /* \"#utility.yul\":24471:24543   */\n      tag_521\n        /* \"#utility.yul\":24539:24541   */\n      0x20\n        /* \"#utility.yul\":24528:24537   */\n      dup4\n        /* \"#utility.yul\":24524:24542   */\n      add\n        /* \"#utility.yul\":24515:24521   */\n      dup5\n        /* \"#utility.yul\":24471:24543   */\n      tag_212\n      jump\t// in\n    tag_521:\n        /* \"#utility.yul\":24218:24550   */\n      swap4\n      swap3\n      pop\n      pop\n      pop\n      jump\t// out\n        /* \"#utility.yul\":24580:25411   */\n    tag_260:\n        /* \"#utility.yul\":24665:24668   */\n      0x00\n        /* \"#utility.yul\":24702:24707   */\n      dup2\n        /* \"#utility.yul\":24696:24708   */\n      sload\n        /* \"#utility.yul\":24731:24767   */\n      tag_523\n        /* \"#utility.yul\":24757:24766   */\n      dup2\n        /* \"#utility.yul\":24731:24767   */\n      tag_134\n      jump\t// in\n    tag_523:\n        /* \"#utility.yul\":24783:24854   */\n      tag_524\n        /* \"#utility.yul\":24847:24853   */\n      dup2\n        /* \"#utility.yul\":24842:24845   */\n      dup7\n        /* \"#utility.yul\":24783:24854   */\n      tag_206\n      jump\t// in\n    tag_524:\n        /* \"#utility.yul\":24776:24854   */\n      swap5\n      pop\n        /* \"#utility.yul\":24885:24886   */\n      0x01\n        /* \"#utility.yul\":24874:24883   */\n      dup3\n        /* \"#utility.yul\":24870:24887   */\n      and\n        /* \"#utility.yul\":24901:24902   */\n      0x00\n        /* \"#utility.yul\":24896:25060   */\n      dup2\n      eq\n      tag_526\n      jumpi\n        /* \"#utility.yul\":25074:25075   */\n      0x01\n        /* \"#utility.yul\":25069:25405   */\n      dup2\n      eq\n      tag_527\n      jumpi\n        /* \"#utility.yul\":24863:25405   */\n      jump(tag_525)\n        /* \"#utility.yul\":24896:25060   */\n    tag_526:\n        /* \"#utility.yul\":24980:24984   */\n      0xff\n        /* \"#utility.yul\":24976:24985   */\n      not\n        /* \"#utility.yul\":24965:24974   */\n      dup4\n        /* \"#utility.yul\":24961:24986   */\n      and\n        /* \"#utility.yul\":24956:24959   */\n      dup7\n        /* \"#utility.yul\":24949:24987   */\n      mstore\n        /* \"#utility.yul\":25040:25046   */\n      dup2\n        /* \"#utility.yul\":25033:25047   */\n      iszero\n        /* \"#utility.yul\":25026:25048   */\n      iszero\n        /* \"#utility.yul\":25020:25024   */\n      0x20\n        /* \"#utility.yul\":25016:25049   */\n      mul\n        /* \"#utility.yul\":25011:25014   */\n      dup7\n        /* \"#utility.yul\":25007:25050   */\n      add\n        /* \"#utility.yul\":25000:25050   */\n      swap4\n      pop\n        /* \"#utility.yul\":24896:25060   */\n      jump(tag_525)\n        /* \"#utility.yul\":25069:25405   */\n    tag_527:\n        /* \"#utility.yul\":25136:25174   */\n      tag_528\n        /* \"#utility.yul\":25168:25173   */\n      dup6\n        /* \"#utility.yul\":25136:25174   */\n      tag_233\n      jump\t// in\n    tag_528:\n        /* \"#utility.yul\":25196:25197   */\n      0x00\n        /* \"#utility.yul\":25210:25364   */\n    tag_529:\n        /* \"#utility.yul\":25224:25230   */\n      dup4\n        /* \"#utility.yul\":25221:25222   */\n      dup2\n        /* \"#utility.yul\":25218:25231   */\n      lt\n        /* \"#utility.yul\":25210:25364   */\n      iszero\n      tag_531\n      jumpi\n        /* \"#utility.yul\":25298:25305   */\n      dup2\n        /* \"#utility.yul\":25292:25306   */\n      sload\n        /* \"#utility.yul\":25288:25289   */\n      dup2\n        /* \"#utility.yul\":25283:25286   */\n      dup10\n        /* \"#utility.yul\":25279:25290   */\n      add\n        /* \"#utility.yul\":25272:25307   */\n      mstore\n        /* \"#utility.yul\":25348:25349   */\n      0x01\n        /* \"#utility.yul\":25339:25346   */\n      dup3\n        /* \"#utility.yul\":25335:25350   */\n      add\n        /* \"#utility.yul\":25324:25350   */\n      swap2\n      pop\n        /* \"#utility.yul\":25246:25250   */\n      0x20\n        /* \"#utility.yul\":25243:25244   */\n      dup2\n        /* \"#utility.yul\":25239:25251   */\n      add\n        /* \"#utility.yul\":25234:25251   */\n      swap1\n      pop\n        /* \"#utility.yul\":25210:25364   */\n      jump(tag_529)\n    tag_531:\n        /* \"#utility.yul\":25393:25394   */\n      dup1\n        /* \"#utility.yul\":25388:25391   */\n      dup9\n        /* \"#utility.yul\":25384:25395   */\n      add\n        /* \"#utility.yul\":25377:25395   */\n      swap6\n      pop\n        /* \"#utility.yul\":25076:25405   */\n      pop\n      pop\n        /* \"#utility.yul\":24863:25405   */\n    tag_525:\n      pop\n        /* \"#utility.yul\":24669:25411   */\n      pop\n      pop\n        /* \"#utility.yul\":24580:25411   */\n      swap3\n      swap2\n      pop\n      pop\n      jump\t// out\n        /* \"#utility.yul\":25417:25932   */\n    tag_113:\n        /* \"#utility.yul\":25577:25581   */\n      0x00\n        /* \"#utility.yul\":25615:25617   */\n      0x60\n        /* \"#utility.yul\":25604:25613   */\n      dup3\n        /* \"#utility.yul\":25600:25618   */\n      add\n        /* \"#utility.yul\":25592:25618   */\n      swap1\n      pop\n        /* \"#utility.yul\":25628:25699   */\n      tag_533\n        /* \"#utility.yul\":25696:25697   */\n      0x00\n        /* \"#utility.yul\":25685:25694   */\n      dup4\n        /* \"#utility.yul\":25681:25698   */\n      add\n        /* \"#utility.yul\":25672:25678   */\n      dup7\n        /* \"#utility.yul\":25628:25699   */\n      tag_212\n      jump\t// in\n    tag_533:\n        /* \"#utility.yul\":25709:25775   */\n      tag_534\n        /* \"#utility.yul\":25771:25773   */\n      0x20\n        /* \"#utility.yul\":25760:25769   */\n      dup4\n        /* \"#utility.yul\":25756:25774   */\n      add\n        /* \"#utility.yul\":25747:25753   */\n      dup6\n        /* \"#utility.yul\":25709:25775   */\n      tag_213\n      jump\t// in\n    tag_534:\n        /* \"#utility.yul\":25822:25831   */\n      dup2\n        /* \"#utility.yul\":25816:25820   */\n      dup2\n        /* \"#utility.yul\":25812:25832   */\n      sub\n        /* \"#utility.yul\":25807:25809   */\n      0x40\n        /* \"#utility.yul\":25796:25805   */\n      dup4\n        /* \"#utility.yul\":25792:25810   */\n      add\n        /* \"#utility.yul\":25785:25833   */\n      mstore\n        /* \"#utility.yul\":25850:25925   */\n      tag_535\n        /* \"#utility.yul\":25920:25924   */\n      dup2\n        /* \"#utility.yul\":25911:25917   */\n      dup5\n        /* \"#utility.yul\":25850:25925   */\n      tag_260\n      jump\t// in\n    tag_535:\n        /* \"#utility.yul\":25842:25925   */\n      swap1\n      pop\n        /* \"#utility.yul\":25417:25932   */\n      swap5\n      swap4\n      pop\n      pop\n      pop\n      pop\n      jump\t// out\n        /* \"#utility.yul\":25938:26412   */\n    tag_125:\n        /* \"#utility.yul\":26103:26107   */\n      0x00\n        /* \"#utility.yul\":26141:26143   */\n      0x60\n        /* \"#utility.yul\":26130:26139   */\n      dup3\n        /* \"#utility.yul\":26126:26144   */\n      add\n        /* \"#utility.yul\":26118:26144   */\n      swap1\n      pop\n        /* \"#utility.yul\":26154:26225   */\n      tag_537\n        /* \"#utility.yul\":26222:26223   */\n      0x00\n        /* \"#utility.yul\":26211:26220   */\n      dup4\n        /* \"#utility.yul\":26207:26224   */\n      add\n        /* \"#utility.yul\":26198:26204   */\n      dup7\n        /* \"#utility.yul\":26154:26225   */\n      tag_212\n      jump\t// in\n    tag_537:\n        /* \"#utility.yul\":26235:26307   */\n      tag_538\n        /* \"#utility.yul\":26303:26305   */\n      0x20\n        /* \"#utility.yul\":26292:26301   */\n      dup4\n        /* \"#utility.yul\":26288:26306   */\n      add\n        /* \"#utility.yul\":26279:26285   */\n      dup6\n        /* \"#utility.yul\":26235:26307   */\n      tag_214\n      jump\t// in\n    tag_538:\n        /* \"#utility.yul\":26317:26405   */\n      tag_539\n        /* \"#utility.yul\":26401:26403   */\n      0x40\n        /* \"#utility.yul\":26390:26399   */\n      dup4\n        /* \"#utility.yul\":26386:26404   */\n      add\n        /* \"#utility.yul\":26377:26383   */\n      dup5\n        /* \"#utility.yul\":26317:26405   */\n      tag_218\n      jump\t// in\n    tag_539:\n        /* \"#utility.yul\":25938:26412   */\n      swap5\n      swap4\n      pop\n      pop\n      pop\n      pop\n      jump\t// out\n\n    auxdata: 0xa26469706673582212202d5e53beeac9326224d11418f5032f1d5ebe3228b486329a52a6274053450f9164736f6c63430008140033\n}\n",
				"bytecode": {
					"linkReferences": {},
					"object": "60806040526001805534801562000014575f80fd5b50604051620020a1380380620020a183398181016040528101906200003a9190620000e5565b805f806101000a81548173ffffffffffffffffffffffffffffffffffffffff021916908373ffffffffffffffffffffffffffffffffffffffff1602179055505062000115565b5f80fd5b5f73ffffffffffffffffffffffffffffffffffffffff82169050919050565b5f620000af8262000084565b9050919050565b620000c181620000a3565b8114620000cc575f80fd5b50565b5f81519050620000df81620000b6565b92915050565b5f60208284031215620000fd57620000fc62000080565b5b5f6200010c84828501620000cf565b91505092915050565b611f7e80620001235f395ff3fe608060405234801561000f575f80fd5b5060043610610086575f3560e01c80639ace38c2116100595780639ace38c214610127578063a9878c621461015f578063b1fce8c31461017d578063c0fa3f4b1461019b57610086565b80630b0f9dc31461008a5780634439a702146100a65780634d51573f146100c257806363a8374d146100f7575b5f80fd5b6100a4600480360381019061009f9190611219565b6101b9565b005b6100c060048036038101906100bb91906112b1565b610776565b005b6100dc60048036038101906100d7919061133a565b6109eb565b6040516100ee96959493929190611425565b60405180910390f35b610111600480360381019061010c919061148b565b610aa2565b60405161011e91906114b6565b60405180910390f35b610141600480360381019061013c919061148b565b610ac2565b60405161015699989796959493929190611551565b60405180910390f35b610167610be8565b60405161017491906117e4565b60405180910390f35b610185610e7c565b60405161019291906117e4565b60405180910390f35b6101a3611110565b6040516101b091906114b6565b60405180910390f35b600160025f8481526020019081526020015f206006015f6101000a81548160ff02191690831515021790555080610225576040518060400160405280600881526020017f52656a656374656400000000000000000000000000000000000000000000000081525061025c565b6040518060400160405280600881526020017f41636365707465640000000000000000000000000000000000000000000000008152505b60025f8481526020019081526020015f20600701908161027c9190611a2b565b50600482908060018154018082558091505060019003905f5260205f20015f90919091909150555f5b6003805490508110156103605782600382815481106102c7576102c6611afa565b5b905f5260205f2001540361034d57600360016003805490506102e99190611b54565b815481106102fa576102f9611afa565b5b905f5260205f2001546003828154811061031757610316611afa565b5b905f5260205f200181905550600380548061033557610334611b87565b5b600190038181905f5260205f20015f90559055610360565b808061035890611bb4565b9150506102a5565b508015610724575f60025f8481526020019081526020015f2090505f805f9054906101000a900473ffffffffffffffffffffffffffffffffffffffff1673ffffffffffffffffffffffffffffffffffffffff16636386c1c7836001015f9054906101000a900473ffffffffffffffffffffffffffffffffffffffff166040518263ffffffff1660e01b81526004016103f89190611bfb565b5f60405180830381865afa158015610412573d5f803e3d5ffd5b505050506040513d5f823e3d601f19601f8201168201806040525081019061043a9190611d57565b505093505050505f805f9054906101000a900473ffffffffffffffffffffffffffffffffffffffff1673ffffffffffffffffffffffffffffffffffffffff16636386c1c7846002015f9054906101000a900473ffffffffffffffffffffffffffffffffffffffff166040518263ffffffff1660e01b81526004016104be9190611bfb565b5f60405180830381865afa1580156104d8573d5f803e3d5ffd5b505050506040513d5f823e3d601f19601f820116820180604052508101906105009190611d57565b505093505050505f600181111561051a576105196114de565b5b836008015f9054906101000a900460ff16600181111561053d5761053c6114de565b5b0361056b578260030154826105529190611dfc565b91508260030154816105649190611b54565b90506105cc565b60018081111561057e5761057d6114de565b5b836008015f9054906101000a900460ff1660018111156105a1576105a06114de565b5b036105cb578260030154826105b69190611b54565b91508260030154816105c89190611dfc565b90505b5b5f8054906101000a900473ffffffffffffffffffffffffffffffffffffffff1673ffffffffffffffffffffffffffffffffffffffff1663af7ccfa7846001015f9054906101000a900473ffffffffffffffffffffffffffffffffffffffff16846040518363ffffffff1660e01b8152600401610649929190611e2f565b5f604051808303815f87803b158015610660575f80fd5b505af1158015610672573d5f803e3d5ffd5b505050505f8054906101000a900473ffffffffffffffffffffffffffffffffffffffff1673ffffffffffffffffffffffffffffffffffffffff1663af7ccfa7846002015f9054906101000a900473ffffffffffffffffffffffffffffffffffffffff16836040518363ffffffff1660e01b81526004016106f3929190611e2f565b5f604051808303815f87803b15801561070a575f80fd5b505af115801561071c573d5f803e3d5ffd5b505050505050505b7fb6cdb9654a453b960ec5fe6f18502a3f0dd823ed74ddc4f68a16b3210265ea5b828260025f8681526020019081526020015f2060070160405161076a93929190611ed7565b60405180910390a15050565b5f60015f81548092919061078990611bb4565b9190505590505f8261079c57600161079e565b5f5b90506040518061012001604052808381526020018973ffffffffffffffffffffffffffffffffffffffff1681526020018873ffffffffffffffffffffffffffffffffffffffff1681526020018781526020018681526020018581526020015f151581526020016040518060400160405280600781526020017f70656e64696e67000000000000000000000000000000000000000000000000008152508152602001826001811115610852576108516114de565b5b81525060025f8481526020019081526020015f205f820151815f01556020820151816001015f6101000a81548173ffffffffffffffffffffffffffffffffffffffff021916908373ffffffffffffffffffffffffffffffffffffffff1602179055506040820151816002015f6101000a81548173ffffffffffffffffffffffffffffffffffffffff021916908373ffffffffffffffffffffffffffffffffffffffff160217905550606082015181600301556080820151816004015560a0820151816005015560c0820151816006015f6101000a81548160ff02191690831515021790555060e082015181600701908161094c9190611a2b565b50610100820151816008015f6101000a81548160ff02191690836001811115610978576109776114de565b5b0217905550905050600382908060018154018082558091505060019003905f5260205f20015f90919091909150557f6f2fac3f769ed900eb9891a73caa7b5267ce788a20299805ce4b85934cb200f58288836040516109d993929190611f13565b60405180910390a15050505050505050565b60605f805f805f805f9054906101000a900473ffffffffffffffffffffffffffffffffffffffff1673ffffffffffffffffffffffffffffffffffffffff16636386c1c7886040518263ffffffff1660e01b8152600401610a4b9190611bfb565b5f60405180830381865afa158015610a65573d5f803e3d5ffd5b505050506040513d5f823e3d601f19601f82011682018060405250810190610a8d9190611d57565b95509550955095509550955091939550919395565b60038181548110610ab1575f80fd5b905f5260205f20015f915090505481565b6002602052805f5260405f205f91509050805f015490806001015f9054906101000a900473ffffffffffffffffffffffffffffffffffffffff1690806002015f9054906101000a900473ffffffffffffffffffffffffffffffffffffffff1690806003015490806004015490806005015490806006015f9054906101000a900460ff1690806007018054610b559061185e565b80601f0160208091040260200160405190810160405280929190818152602001828054610b819061185e565b8015610bcc5780601f10610ba357610100808354040283529160200191610bcc565b820191905f5260205f20905b815481529060010190602001808311610baf57829003601f168201915b505050505090806008015f9054906101000a900460ff16905089565b60605f60038054905067ffffffffffffffff811115610c0a57610c09611804565b5b604051908082528060200260200182016040528015610c4357816020015b610c3061111c565b815260200190600190039081610c285790505b5090505f5b600380549050811015610e745760025f60038381548110610c6c57610c6b611afa565b5b905f5260205f20015481526020019081526020015f20604051806101200160405290815f8201548152602001600182015f9054906101000a900473ffffffffffffffffffffffffffffffffffffffff1673ffffffffffffffffffffffffffffffffffffffff1673ffffffffffffffffffffffffffffffffffffffff168152602001600282015f9054906101000a900473ffffffffffffffffffffffffffffffffffffffff1673ffffffffffffffffffffffffffffffffffffffff1673ffffffffffffffffffffffffffffffffffffffff168152602001600382015481526020016004820154815260200160058201548152602001600682015f9054906101000a900460ff16151515158152602001600782018054610d899061185e565b80601f0160208091040260200160405190810160405280929190818152602001828054610db59061185e565b8015610e005780601f10610dd757610100808354040283529160200191610e00565b820191905f5260205f20905b815481529060010190602001808311610de357829003601f168201915b50505050508152602001600882015f9054906101000a900460ff166001811115610e2d57610e2c6114de565b5b6001811115610e3f57610e3e6114de565b5b81525050828281518110610e5657610e55611afa565b5b60200260200101819052508080610e6c90611bb4565b915050610c48565b508091505090565b60605f60048054905067ffffffffffffffff811115610e9e57610e9d611804565b5b604051908082528060200260200182016040528015610ed757816020015b610ec461111c565b815260200190600190039081610ebc5790505b5090505f5b6004805490508110156111085760025f60048381548110610f0057610eff611afa565b5b905f5260205f20015481526020019081526020015f20604051806101200160405290815f8201548152602001600182015f9054906101000a900473ffffffffffffffffffffffffffffffffffffffff1673ffffffffffffffffffffffffffffffffffffffff1673ffffffffffffffffffffffffffffffffffffffff168152602001600282015f9054906101000a900473ffffffffffffffffffffffffffffffffffffffff1673ffffffffffffffffffffffffffffffffffffffff1673ffffffffffffffffffffffffffffffffffffffff168152602001600382015481526020016004820154815260200160058201548152602001600682015f9054906101000a900460ff1615151515815260200160078201805461101d9061185e565b80601f01602080910402602001604051908101604052809291908181526020018280546110499061185e565b80156110945780601f1061106b57610100808354040283529160200191611094565b820191905f5260205f20905b81548152906001019060200180831161107757829003601f168201915b50505050508152602001600882015f9054906101000a900460ff1660018111156110c1576110c06114de565b5b60018111156110d3576110d26114de565b5b815250508282815181106110ea576110e9611afa565b5b6020026020010181905250808061110090611bb4565b915050610edc565b508091505090565b5f600380549050905090565b6040518061012001604052805f81526020015f73ffffffffffffffffffffffffffffffffffffffff1681526020015f73ffffffffffffffffffffffffffffffffffffffff1681526020015f81526020015f81526020015f81526020015f15158152602001606081526020015f600181111561119a576111996114de565b5b81525090565b5f604051905090565b5f80fd5b5f80fd5b5f819050919050565b6111c3816111b1565b81146111cd575f80fd5b50565b5f813590506111de816111ba565b92915050565b5f8115159050919050565b6111f8816111e4565b8114611202575f80fd5b50565b5f81359050611213816111ef565b92915050565b5f806040838503121561122f5761122e6111a9565b5b5f61123c858286016111d0565b925050602061124d85828601611205565b9150509250929050565b5f73ffffffffffffffffffffffffffffffffffffffff82169050919050565b5f61128082611257565b9050919050565b61129081611276565b811461129a575f80fd5b50565b5f813590506112ab81611287565b92915050565b5f805f805f8060c087890312156112cb576112ca6111a9565b5b5f6112d889828a0161129d565b96505060206112e989828a0161129d565b95505060406112fa89828a016111d0565b945050606061130b89828a016111d0565b935050608061131c89828a016111d0565b92505060a061132d89828a01611205565b9150509295509295509295565b5f6020828403121561134f5761134e6111a9565b5b5f61135c8482850161129d565b91505092915050565b5f81519050919050565b5f82825260208201905092915050565b5f5b8381101561139c578082015181840152602081019050611381565b5f8484015250505050565b5f601f19601f8301169050919050565b5f6113c182611365565b6113cb818561136f565b93506113db81856020860161137f565b6113e4816113a7565b840191505092915050565b5f819050919050565b611401816113ef565b82525050565b611410816111b1565b82525050565b61141f816111e4565b82525050565b5f60c0820190508181035f83015261143d81896113b7565b905061144c60208301886113f8565b61145960408301876113f8565b6114666060830186611407565b6114736080830185611407565b61148060a0830184611416565b979650505050505050565b5f602082840312156114a05761149f6111a9565b5b5f6114ad848285016111d0565b91505092915050565b5f6020820190506114c95f830184611407565b92915050565b6114d881611276565b82525050565b7f4e487b71000000000000000000000000000000000000000000000000000000005f52602160045260245ffd5b6002811061151c5761151b6114de565b5b50565b5f81905061152c8261150b565b919050565b5f61153b8261151f565b9050919050565b61154b81611531565b82525050565b5f610120820190506115655f83018c611407565b611572602083018b6114cf565b61157f604083018a6114cf565b61158c6060830189611407565b6115996080830188611407565b6115a660a0830187611407565b6115b360c0830186611416565b81810360e08301526115c581856113b7565b90506115d5610100830184611542565b9a9950505050505050505050565b5f81519050919050565b5f82825260208201905092915050565b5f819050602082019050919050565b611615816111b1565b82525050565b61162481611276565b82525050565b611633816111e4565b82525050565b5f82825260208201905092915050565b5f61165382611365565b61165d8185611639565b935061166d81856020860161137f565b611676816113a7565b840191505092915050565b61168a81611531565b82525050565b5f61012083015f8301516116a65f86018261160c565b5060208301516116b9602086018261161b565b5060408301516116cc604086018261161b565b5060608301516116df606086018261160c565b5060808301516116f2608086018261160c565b5060a083015161170560a086018261160c565b5060c083015161171860c086018261162a565b5060e083015184820360e08601526117308282611649565b915050610100830151611747610100860182611681565b508091505092915050565b5f61175d8383611690565b905092915050565b5f602082019050919050565b5f61177b826115e3565b61178581856115ed565b935083602082028501611797856115fd565b805f5b858110156117d257848403895281516117b38582611752565b94506117be83611765565b925060208a0199505060018101905061179a565b50829750879550505050505092915050565b5f6020820190508181035f8301526117fc8184611771565b905092915050565b7f4e487b71000000000000000000000000000000000000000000000000000000005f52604160045260245ffd5b7f4e487b71000000000000000000000000000000000000000000000000000000005f52602260045260245ffd5b5f600282049050600182168061187557607f821691505b60208210810361188857611887611831565b5b50919050565b5f819050815f5260205f209050919050565b5f6020601f8301049050919050565b5f82821b905092915050565b5f600883026118ea7fffffffffffffffffffffffffffffffffffffffffffffffffffffffffffffffff826118af565b6118f486836118af565b95508019841693508086168417925050509392505050565b5f819050919050565b5f61192f61192a611925846111b1565b61190c565b6111b1565b9050919050565b5f819050919050565b61194883611915565b61195c61195482611936565b8484546118bb565b825550505050565b5f90565b611970611964565b61197b81848461193f565b505050565b5b8181101561199e576119935f82611968565b600181019050611981565b5050565b601f8211156119e3576119b48161188e565b6119bd846118a0565b810160208510156119cc578190505b6119e06119d8856118a0565b830182611980565b50505b505050565b5f82821c905092915050565b5f611a035f19846008026119e8565b1980831691505092915050565b5f611a1b83836119f4565b9150826002028217905092915050565b611a3482611365565b67ffffffffffffffff811115611a4d57611a4c611804565b5b611a57825461185e565b611a628282856119a2565b5f60209050601f831160018114611a93575f8415611a81578287015190505b611a8b8582611a10565b865550611af2565b601f198416611aa18661188e565b5f5b82811015611ac857848901518255600182019150602085019450602081019050611aa3565b86831015611ae55784890151611ae1601f8916826119f4565b8355505b6001600288020188555050505b505050505050565b7f4e487b71000000000000000000000000000000000000000000000000000000005f52603260045260245ffd5b7f4e487b71000000000000000000000000000000000000000000000000000000005f52601160045260245ffd5b5f611b5e826111b1565b9150611b69836111b1565b9250828203905081811115611b8157611b80611b27565b5b92915050565b7f4e487b71000000000000000000000000000000000000000000000000000000005f52603160045260245ffd5b5f611bbe826111b1565b91507fffffffffffffffffffffffffffffffffffffffffffffffffffffffffffffffff8203611bf057611bef611b27565b5b600182019050919050565b5f602082019050611c0e5f8301846114cf565b92915050565b5f80fd5b5f80fd5b611c25826113a7565b810181811067ffffffffffffffff82111715611c4457611c43611804565b5b80604052505050565b5f611c566111a0565b9050611c628282611c1c565b919050565b5f67ffffffffffffffff821115611c8157611c80611804565b5b611c8a826113a7565b9050602081019050919050565b5f611ca9611ca484611c67565b611c4d565b905082815260208101848484011115611cc557611cc4611c18565b5b611cd084828561137f565b509392505050565b5f82601f830112611cec57611ceb611c14565b5b8151611cfc848260208601611c97565b91505092915050565b611d0e816113ef565b8114611d18575f80fd5b50565b5f81519050611d2981611d05565b92915050565b5f81519050611d3d816111ba565b92915050565b5f81519050611d51816111ef565b92915050565b5f805f805f8060c08789031215611d7157611d706111a9565b5b5f87015167ffffffffffffffff811115611d8e57611d8d6111ad565b5b611d9a89828a01611cd8565b9650506020611dab89828a01611d1b565b9550506040611dbc89828a01611d1b565b9450506060611dcd89828a01611d2f565b9350506080611dde89828a01611d2f565b92505060a0611def89828a01611d43565b9150509295509295509295565b5f611e06826111b1565b9150611e11836111b1565b9250828201905080821115611e2957611e28611b27565b5b92915050565b5f604082019050611e425f8301856114cf565b611e4f6020830184611407565b9392505050565b5f8154611e628161185e565b611e6c818661136f565b9450600182165f8114611e865760018114611e9c57611ece565b60ff198316865281151560200286019350611ece565b611ea58561188e565b5f5b83811015611ec657815481890152600182019150602081019050611ea7565b808801955050505b50505092915050565b5f606082019050611eea5f830186611407565b611ef76020830185611416565b8181036040830152611f098184611e56565b9050949350505050565b5f606082019050611f265f830186611407565b611f3360208301856114cf565b611f406040830184611542565b94935050505056fea26469706673582212202d5e53beeac9326224d11418f5032f1d5ebe3228b486329a52a6274053450f9164736f6c63430008140033",
					"opcodes": "PUSH1 0x80 PUSH1 0x40 MSTORE PUSH1 0x1 DUP1 SSTORE CALLVALUE DUP1 ISZERO PUSH3 0x14 JUMPI PUSH0 DUP1 REVERT JUMPDEST POP PUSH1 0x40 MLOAD PUSH3 0x20A1 CODESIZE SUB DUP1 PUSH3 0x20A1 DUP4 CODECOPY DUP2 DUP2 ADD PUSH1 0x40 MSTORE DUP2 ADD SWAP1 PUSH3 0x3A SWAP2 SWAP1 PUSH3 0xE5 JUMP JUMPDEST DUP1 PUSH0 DUP1 PUSH2 0x100 EXP DUP2 SLOAD DUP2 PUSH20 0xFFFFFFFFFFFFFFFFFFFFFFFFFFFFFFFFFFFFFFFF MUL NOT AND SWAP1 DUP4 PUSH20 0xFFFFFFFFFFFFFFFFFFFFFFFFFFFFFFFFFFFFFFFF AND MUL OR SWAP1 SSTORE POP POP PUSH3 0x115 JUMP JUMPDEST PUSH0 DUP1 REVERT JUMPDEST PUSH0 PUSH20 0xFFFFFFFFFFFFFFFFFFFFFFFFFFFFFFFFFFFFFFFF DUP3 AND SWAP1 POP SWAP2 SWAP1 POP JUMP JUMPDEST PUSH0 PUSH3 0xAF DUP3 PUSH3 0x84 JUMP JUMPDEST SWAP1 POP SWAP2 SWAP1 POP JUMP JUMPDEST PUSH3 0xC1 DUP2 PUSH3 0xA3 JUMP JUMPDEST DUP2 EQ PUSH3 0xCC JUMPI PUSH0 DUP1 REVERT JUMPDEST POP JUMP JUMPDEST PUSH0 DUP2 MLOAD SWAP1 POP PUSH3 0xDF DUP2 PUSH3 0xB6 JUMP JUMPDEST SWAP3 SWAP2 POP POP JUMP JUMPDEST PUSH0 PUSH1 0x20 DUP3 DUP5 SUB SLT ISZERO PUSH3 0xFD JUMPI PUSH3 0xFC PUSH3 0x80 JUMP JUMPDEST JUMPDEST PUSH0 PUSH3 0x10C DUP5 DUP3 DUP6 ADD PUSH3 0xCF JUMP JUMPDEST SWAP2 POP POP SWAP3 SWAP2 POP POP JUMP JUMPDEST PUSH2 0x1F7E DUP1 PUSH3 0x123 PUSH0 CODECOPY PUSH0 RETURN INVALID PUSH1 0x80 PUSH1 0x40 MSTORE CALLVALUE DUP1 ISZERO PUSH2 0xF JUMPI PUSH0 DUP1 REVERT JUMPDEST POP PUSH1 0x4 CALLDATASIZE LT PUSH2 0x86 JUMPI PUSH0 CALLDATALOAD PUSH1 0xE0 SHR DUP1 PUSH4 0x9ACE38C2 GT PUSH2 0x59 JUMPI DUP1 PUSH4 0x9ACE38C2 EQ PUSH2 0x127 JUMPI DUP1 PUSH4 0xA9878C62 EQ PUSH2 0x15F JUMPI DUP1 PUSH4 0xB1FCE8C3 EQ PUSH2 0x17D JUMPI DUP1 PUSH4 0xC0FA3F4B EQ PUSH2 0x19B JUMPI PUSH2 0x86 JUMP JUMPDEST DUP1 PUSH4 0xB0F9DC3 EQ PUSH2 0x8A JUMPI DUP1 PUSH4 0x4439A702 EQ PUSH2 0xA6 JUMPI DUP1 PUSH4 0x4D51573F EQ PUSH2 0xC2 JUMPI DUP1 PUSH4 0x63A8374D EQ PUSH2 0xF7 JUMPI JUMPDEST PUSH0 DUP1 REVERT JUMPDEST PUSH2 0xA4 PUSH1 0x4 DUP1 CALLDATASIZE SUB DUP2 ADD SWAP1 PUSH2 0x9F SWAP2 SWAP1 PUSH2 0x1219 JUMP JUMPDEST PUSH2 0x1B9 JUMP JUMPDEST STOP JUMPDEST PUSH2 0xC0 PUSH1 0x4 DUP1 CALLDATASIZE SUB DUP2 ADD SWAP1 PUSH2 0xBB SWAP2 SWAP1 PUSH2 0x12B1 JUMP JUMPDEST PUSH2 0x776 JUMP JUMPDEST STOP JUMPDEST PUSH2 0xDC PUSH1 0x4 DUP1 CALLDATASIZE SUB DUP2 ADD SWAP1 PUSH2 0xD7 SWAP2 SWAP1 PUSH2 0x133A JUMP JUMPDEST PUSH2 0x9EB JUMP JUMPDEST PUSH1 0x40 MLOAD PUSH2 0xEE SWAP7 SWAP6 SWAP5 SWAP4 SWAP3 SWAP2 SWAP1 PUSH2 0x1425 JUMP JUMPDEST PUSH1 0x40 MLOAD DUP1 SWAP2 SUB SWAP1 RETURN JUMPDEST PUSH2 0x111 PUSH1 0x4 DUP1 CALLDATASIZE SUB DUP2 ADD SWAP1 PUSH2 0x10C SWAP2 SWAP1 PUSH2 0x148B JUMP JUMPDEST PUSH2 0xAA2 JUMP JUMPDEST PUSH1 0x40 MLOAD PUSH2 0x11E SWAP2 SWAP1 PUSH2 0x14B6 JUMP JUMPDEST PUSH1 0x40 MLOAD DUP1 SWAP2 SUB SWAP1 RETURN JUMPDEST PUSH2 0x141 PUSH1 0x4 DUP1 CALLDATASIZE SUB DUP2 ADD SWAP1 PUSH2 0x13C SWAP2 SWAP1 PUSH2 0x148B JUMP JUMPDEST PUSH2 0xAC2 JUMP JUMPDEST PUSH1 0x40 MLOAD PUSH2 0x156 SWAP10 SWAP9 SWAP8 SWAP7 SWAP6 SWAP5 SWAP4 SWAP3 SWAP2 SWAP1 PUSH2 0x1551 JUMP JUMPDEST PUSH1 0x40 MLOAD DUP1 SWAP2 SUB SWAP1 RETURN JUMPDEST PUSH2 0x167 PUSH2 0xBE8 JUMP JUMPDEST PUSH1 0x40 MLOAD PUSH2 0x174 SWAP2 SWAP1 PUSH2 0x17E4 JUMP JUMPDEST PUSH1 0x40 MLOAD DUP1 SWAP2 SUB SWAP1 RETURN JUMPDEST PUSH2 0x185 PUSH2 0xE7C JUMP JUMPDEST PUSH1 0x40 MLOAD PUSH2 0x192 SWAP2 SWAP1 PUSH2 0x17E4 JUMP JUMPDEST PUSH1 0x40 MLOAD DUP1 SWAP2 SUB SWAP1 RETURN JUMPDEST PUSH2 0x1A3 PUSH2 0x1110 JUMP JUMPDEST PUSH1 0x40 MLOAD PUSH2 0x1B0 SWAP2 SWAP1 PUSH2 0x14B6 JUMP JUMPDEST PUSH1 0x40 MLOAD DUP1 SWAP2 SUB SWAP1 RETURN JUMPDEST PUSH1 0x1 PUSH1 0x2 PUSH0 DUP5 DUP2 MSTORE PUSH1 0x20 ADD SWAP1 DUP2 MSTORE PUSH1 0x20 ADD PUSH0 KECCAK256 PUSH1 0x6 ADD PUSH0 PUSH2 0x100 EXP DUP2 SLOAD DUP2 PUSH1 0xFF MUL NOT AND SWAP1 DUP4 ISZERO ISZERO MUL OR SWAP1 SSTORE POP DUP1 PUSH2 0x225 JUMPI PUSH1 0x40 MLOAD DUP1 PUSH1 0x40 ADD PUSH1 0x40 MSTORE DUP1 PUSH1 0x8 DUP2 MSTORE PUSH1 0x20 ADD PUSH32 0x52656A6563746564000000000000000000000000000000000000000000000000 DUP2 MSTORE POP PUSH2 0x25C JUMP JUMPDEST PUSH1 0x40 MLOAD DUP1 PUSH1 0x40 ADD PUSH1 0x40 MSTORE DUP1 PUSH1 0x8 DUP2 MSTORE PUSH1 0x20 ADD PUSH32 0x4163636570746564000000000000000000000000000000000000000000000000 DUP2 MSTORE POP JUMPDEST PUSH1 0x2 PUSH0 DUP5 DUP2 MSTORE PUSH1 0x20 ADD SWAP1 DUP2 MSTORE PUSH1 0x20 ADD PUSH0 KECCAK256 PUSH1 0x7 ADD SWAP1 DUP2 PUSH2 0x27C SWAP2 SWAP1 PUSH2 0x1A2B JUMP JUMPDEST POP PUSH1 0x4 DUP3 SWAP1 DUP1 PUSH1 0x1 DUP2 SLOAD ADD DUP1 DUP3 SSTORE DUP1 SWAP2 POP POP PUSH1 0x1 SWAP1 SUB SWAP1 PUSH0 MSTORE PUSH1 0x20 PUSH0 KECCAK256 ADD PUSH0 SWAP1 SWAP2 SWAP1 SWAP2 SWAP1 SWAP2 POP SSTORE PUSH0 JUMPDEST PUSH1 0x3 DUP1 SLOAD SWAP1 POP DUP2 LT ISZERO PUSH2 0x360 JUMPI DUP3 PUSH1 0x3 DUP3 DUP2 SLOAD DUP2 LT PUSH2 0x2C7 JUMPI PUSH2 0x2C6 PUSH2 0x1AFA JUMP JUMPDEST JUMPDEST SWAP1 PUSH0 MSTORE PUSH1 0x20 PUSH0 KECCAK256 ADD SLOAD SUB PUSH2 0x34D JUMPI PUSH1 0x3 PUSH1 0x1 PUSH1 0x3 DUP1 SLOAD SWAP1 POP PUSH2 0x2E9 SWAP2 SWAP1 PUSH2 0x1B54 JUMP JUMPDEST DUP2 SLOAD DUP2 LT PUSH2 0x2FA JUMPI PUSH2 0x2F9 PUSH2 0x1AFA JUMP JUMPDEST JUMPDEST SWAP1 PUSH0 MSTORE PUSH1 0x20 PUSH0 KECCAK256 ADD SLOAD PUSH1 0x3 DUP3 DUP2 SLOAD DUP2 LT PUSH2 0x317 JUMPI PUSH2 0x316 PUSH2 0x1AFA JUMP JUMPDEST JUMPDEST SWAP1 PUSH0 MSTORE PUSH1 0x20 PUSH0 KECCAK256 ADD DUP2 SWAP1 SSTORE POP PUSH1 0x3 DUP1 SLOAD DUP1 PUSH2 0x335 JUMPI PUSH2 0x334 PUSH2 0x1B87 JUMP JUMPDEST JUMPDEST PUSH1 0x1 SWAP1 SUB DUP2 DUP2 SWAP1 PUSH0 MSTORE PUSH1 0x20 PUSH0 KECCAK256 ADD PUSH0 SWAP1 SSTORE SWAP1 SSTORE PUSH2 0x360 JUMP JUMPDEST DUP1 DUP1 PUSH2 0x358 SWAP1 PUSH2 0x1BB4 JUMP JUMPDEST SWAP2 POP POP PUSH2 0x2A5 JUMP JUMPDEST POP DUP1 ISZERO PUSH2 0x724 JUMPI PUSH0 PUSH1 0x2 PUSH0 DUP5 DUP2 MSTORE PUSH1 0x20 ADD SWAP1 DUP2 MSTORE PUSH1 0x20 ADD PUSH0 KECCAK256 SWAP1 POP PUSH0 DUP1 PUSH0 SWAP1 SLOAD SWAP1 PUSH2 0x100 EXP SWAP1 DIV PUSH20 0xFFFFFFFFFFFFFFFFFFFFFFFFFFFFFFFFFFFFFFFF AND PUSH20 0xFFFFFFFFFFFFFFFFFFFFFFFFFFFFFFFFFFFFFFFF AND PUSH4 0x6386C1C7 DUP4 PUSH1 0x1 ADD PUSH0 SWAP1 SLOAD SWAP1 PUSH2 0x100 EXP SWAP1 DIV PUSH20 0xFFFFFFFFFFFFFFFFFFFFFFFFFFFFFFFFFFFFFFFF AND PUSH1 0x40 MLOAD DUP3 PUSH4 0xFFFFFFFF AND PUSH1 0xE0 SHL DUP2 MSTORE PUSH1 0x4 ADD PUSH2 0x3F8 SWAP2 SWAP1 PUSH2 0x1BFB JUMP JUMPDEST PUSH0 PUSH1 0x40 MLOAD DUP1 DUP4 SUB DUP2 DUP7 GAS STATICCALL ISZERO DUP1 ISZERO PUSH2 0x412 JUMPI RETURNDATASIZE PUSH0 DUP1 RETURNDATACOPY RETURNDATASIZE PUSH0 REVERT JUMPDEST POP POP POP POP PUSH1 0x40 MLOAD RETURNDATASIZE PUSH0 DUP3 RETURNDATACOPY RETURNDATASIZE PUSH1 0x1F NOT PUSH1 0x1F DUP3 ADD AND DUP3 ADD DUP1 PUSH1 0x40 MSTORE POP DUP2 ADD SWAP1 PUSH2 0x43A SWAP2 SWAP1 PUSH2 0x1D57 JUMP JUMPDEST POP POP SWAP4 POP POP POP POP PUSH0 DUP1 PUSH0 SWAP1 SLOAD SWAP1 PUSH2 0x100 EXP SWAP1 DIV PUSH20 0xFFFFFFFFFFFFFFFFFFFFFFFFFFFFFFFFFFFFFFFF AND PUSH20 0xFFFFFFFFFFFFFFFFFFFFFFFFFFFFFFFFFFFFFFFF AND PUSH4 0x6386C1C7 DUP5 PUSH1 0x2 ADD PUSH0 SWAP1 SLOAD SWAP1 PUSH2 0x100 EXP SWAP1 DIV PUSH20 0xFFFFFFFFFFFFFFFFFFFFFFFFFFFFFFFFFFFFFFFF AND PUSH1 0x40 MLOAD DUP3 PUSH4 0xFFFFFFFF AND PUSH1 0xE0 SHL DUP2 MSTORE PUSH1 0x4 ADD PUSH2 0x4BE SWAP2 SWAP1 PUSH2 0x1BFB JUMP JUMPDEST PUSH0 PUSH1 0x40 MLOAD DUP1 DUP4 SUB DUP2 DUP7 GAS STATICCALL ISZERO DUP1 ISZERO PUSH2 0x4D8 JUMPI RETURNDATASIZE PUSH0 DUP1 RETURNDATACOPY RETURNDATASIZE PUSH0 REVERT JUMPDEST POP POP POP POP PUSH1 0x40 MLOAD RETURNDATASIZE PUSH0 DUP3 RETURNDATACOPY RETURNDATASIZE PUSH1 0x1F NOT PUSH1 0x1F DUP3 ADD AND DUP3 ADD DUP1 PUSH1 0x40 MSTORE POP DUP2 ADD SWAP1 PUSH2 0x500 SWAP2 SWAP1 PUSH2 0x1D57 JUMP JUMPDEST POP POP SWAP4 POP POP POP POP PUSH0 PUSH1 0x1 DUP2 GT ISZERO PUSH2 0x51A JUMPI PUSH2 0x519 PUSH2 0x14DE JUMP JUMPDEST JUMPDEST DUP4 PUSH1 0x8 ADD PUSH0 SWAP1 SLOAD SWAP1 PUSH2 0x100 EXP SWAP1 DIV PUSH1 0xFF AND PUSH1 0x1 DUP2 GT ISZERO PUSH2 0x53D JUMPI PUSH2 0x53C PUSH2 0x14DE JUMP JUMPDEST JUMPDEST SUB PUSH2 0x56B JUMPI DUP3 PUSH1 0x3 ADD SLOAD DUP3 PUSH2 0x552 SWAP2 SWAP1 PUSH2 0x1DFC JUMP JUMPDEST SWAP2 POP DUP3 PUSH1 0x3 ADD SLOAD DUP2 PUSH2 0x564 SWAP2 SWAP1 PUSH2 0x1B54 JUMP JUMPDEST SWAP1 POP PUSH2 0x5CC JUMP JUMPDEST PUSH1 0x1 DUP1 DUP2 GT ISZERO PUSH2 0x57E JUMPI PUSH2 0x57D PUSH2 0x14DE JUMP JUMPDEST JUMPDEST DUP4 PUSH1 0x8 ADD PUSH0 SWAP1 SLOAD SWAP1 PUSH2 0x100 EXP SWAP1 DIV PUSH1 0xFF AND PUSH1 0x1 DUP2 GT ISZERO PUSH2 0x5A1 JUMPI PUSH2 0x5A0 PUSH2 0x14DE JUMP JUMPDEST JUMPDEST SUB PUSH2 0x5CB JUMPI DUP3 PUSH1 0x3 ADD SLOAD DUP3 PUSH2 0x5B6 SWAP2 SWAP1 PUSH2 0x1B54 JUMP JUMPDEST SWAP2 POP DUP3 PUSH1 0x3 ADD SLOAD DUP2 PUSH2 0x5C8 SWAP2 SWAP1 PUSH2 0x1DFC JUMP JUMPDEST SWAP1 POP JUMPDEST JUMPDEST PUSH0 DUP1 SLOAD SWAP1 PUSH2 0x100 EXP SWAP1 DIV PUSH20 0xFFFFFFFFFFFFFFFFFFFFFFFFFFFFFFFFFFFFFFFF AND PUSH20 0xFFFFFFFFFFFFFFFFFFFFFFFFFFFFFFFFFFFFFFFF AND PUSH4 0xAF7CCFA7 DUP5 PUSH1 0x1 ADD PUSH0 SWAP1 SLOAD SWAP1 PUSH2 0x100 EXP SWAP1 DIV PUSH20 0xFFFFFFFFFFFFFFFFFFFFFFFFFFFFFFFFFFFFFFFF AND DUP5 PUSH1 0x40 MLOAD DUP4 PUSH4 0xFFFFFFFF AND PUSH1 0xE0 SHL DUP2 MSTORE PUSH1 0x4 ADD PUSH2 0x649 SWAP3 SWAP2 SWAP1 PUSH2 0x1E2F JUMP JUMPDEST PUSH0 PUSH1 0x40 MLOAD DUP1 DUP4 SUB DUP2 PUSH0 DUP8 DUP1 EXTCODESIZE ISZERO DUP1 ISZERO PUSH2 0x660 JUMPI PUSH0 DUP1 REVERT JUMPDEST POP GAS CALL ISZERO DUP1 ISZERO PUSH2 0x672 JUMPI RETURNDATASIZE PUSH0 DUP1 RETURNDATACOPY RETURNDATASIZE PUSH0 REVERT JUMPDEST POP POP POP POP PUSH0 DUP1 SLOAD SWAP1 PUSH2 0x100 EXP SWAP1 DIV PUSH20 0xFFFFFFFFFFFFFFFFFFFFFFFFFFFFFFFFFFFFFFFF AND PUSH20 0xFFFFFFFFFFFFFFFFFFFFFFFFFFFFFFFFFFFFFFFF AND PUSH4 0xAF7CCFA7 DUP5 PUSH1 0x2 ADD PUSH0 SWAP1 SLOAD SWAP1 PUSH2 0x100 EXP SWAP1 DIV PUSH20 0xFFFFFFFFFFFFFFFFFFFFFFFFFFFFFFFFFFFFFFFF AND DUP4 PUSH1 0x40 MLOAD DUP4 PUSH4 0xFFFFFFFF AND PUSH1 0xE0 SHL DUP2 MSTORE PUSH1 0x4 ADD PUSH2 0x6F3 SWAP3 SWAP2 SWAP1 PUSH2 0x1E2F JUMP JUMPDEST PUSH0 PUSH1 0x40 MLOAD DUP1 DUP4 SUB DUP2 PUSH0 DUP8 DUP1 EXTCODESIZE ISZERO DUP1 ISZERO PUSH2 0x70A JUMPI PUSH0 DUP1 REVERT JUMPDEST POP GAS CALL ISZERO DUP1 ISZERO PUSH2 0x71C JUMPI RETURNDATASIZE PUSH0 DUP1 RETURNDATACOPY RETURNDATASIZE PUSH0 REVERT JUMPDEST POP POP POP POP POP POP POP JUMPDEST PUSH32 0xB6CDB9654A453B960EC5FE6F18502A3F0DD823ED74DDC4F68A16B3210265EA5B DUP3 DUP3 PUSH1 0x2 PUSH0 DUP7 DUP2 MSTORE PUSH1 0x20 ADD SWAP1 DUP2 MSTORE PUSH1 0x20 ADD PUSH0 KECCAK256 PUSH1 0x7 ADD PUSH1 0x40 MLOAD PUSH2 0x76A SWAP4 SWAP3 SWAP2 SWAP1 PUSH2 0x1ED7 JUMP JUMPDEST PUSH1 0x40 MLOAD DUP1 SWAP2 SUB SWAP1 LOG1 POP POP JUMP JUMPDEST PUSH0 PUSH1 0x1 PUSH0 DUP2 SLOAD DUP1 SWAP3 SWAP2 SWAP1 PUSH2 0x789 SWAP1 PUSH2 0x1BB4 JUMP JUMPDEST SWAP2 SWAP1 POP SSTORE SWAP1 POP PUSH0 DUP3 PUSH2 0x79C JUMPI PUSH1 0x1 PUSH2 0x79E JUMP JUMPDEST PUSH0 JUMPDEST SWAP1 POP PUSH1 0x40 MLOAD DUP1 PUSH2 0x120 ADD PUSH1 0x40 MSTORE DUP1 DUP4 DUP2 MSTORE PUSH1 0x20 ADD DUP10 PUSH20 0xFFFFFFFFFFFFFFFFFFFFFFFFFFFFFFFFFFFFFFFF AND DUP2 MSTORE PUSH1 0x20 ADD DUP9 PUSH20 0xFFFFFFFFFFFFFFFFFFFFFFFFFFFFFFFFFFFFFFFF AND DUP2 MSTORE PUSH1 0x20 ADD DUP8 DUP2 MSTORE PUSH1 0x20 ADD DUP7 DUP2 MSTORE PUSH1 0x20 ADD DUP6 DUP2 MSTORE PUSH1 0x20 ADD PUSH0 ISZERO ISZERO DUP2 MSTORE PUSH1 0x20 ADD PUSH1 0x40 MLOAD DUP1 PUSH1 0x40 ADD PUSH1 0x40 MSTORE DUP1 PUSH1 0x7 DUP2 MSTORE PUSH1 0x20 ADD PUSH32 0x70656E64696E6700000000000000000000000000000000000000000000000000 DUP2 MSTORE POP DUP2 MSTORE PUSH1 0x20 ADD DUP3 PUSH1 0x1 DUP2 GT ISZERO PUSH2 0x852 JUMPI PUSH2 0x851 PUSH2 0x14DE JUMP JUMPDEST JUMPDEST DUP2 MSTORE POP PUSH1 0x2 PUSH0 DUP5 DUP2 MSTORE PUSH1 0x20 ADD SWAP1 DUP2 MSTORE PUSH1 0x20 ADD PUSH0 KECCAK256 PUSH0 DUP3 ADD MLOAD DUP2 PUSH0 ADD SSTORE PUSH1 0x20 DUP3 ADD MLOAD DUP2 PUSH1 0x1 ADD PUSH0 PUSH2 0x100 EXP DUP2 SLOAD DUP2 PUSH20 0xFFFFFFFFFFFFFFFFFFFFFFFFFFFFFFFFFFFFFFFF MUL NOT AND SWAP1 DUP4 PUSH20 0xFFFFFFFFFFFFFFFFFFFFFFFFFFFFFFFFFFFFFFFF AND MUL OR SWAP1 SSTORE POP PUSH1 0x40 DUP3 ADD MLOAD DUP2 PUSH1 0x2 ADD PUSH0 PUSH2 0x100 EXP DUP2 SLOAD DUP2 PUSH20 0xFFFFFFFFFFFFFFFFFFFFFFFFFFFFFFFFFFFFFFFF MUL NOT AND SWAP1 DUP4 PUSH20 0xFFFFFFFFFFFFFFFFFFFFFFFFFFFFFFFFFFFFFFFF AND MUL OR SWAP1 SSTORE POP PUSH1 0x60 DUP3 ADD MLOAD DUP2 PUSH1 0x3 ADD SSTORE PUSH1 0x80 DUP3 ADD MLOAD DUP2 PUSH1 0x4 ADD SSTORE PUSH1 0xA0 DUP3 ADD MLOAD DUP2 PUSH1 0x5 ADD SSTORE PUSH1 0xC0 DUP3 ADD MLOAD DUP2 PUSH1 0x6 ADD PUSH0 PUSH2 0x100 EXP DUP2 SLOAD DUP2 PUSH1 0xFF MUL NOT AND SWAP1 DUP4 ISZERO ISZERO MUL OR SWAP1 SSTORE POP PUSH1 0xE0 DUP3 ADD MLOAD DUP2 PUSH1 0x7 ADD SWAP1 DUP2 PUSH2 0x94C SWAP2 SWAP1 PUSH2 0x1A2B JUMP JUMPDEST POP PUSH2 0x100 DUP3 ADD MLOAD DUP2 PUSH1 0x8 ADD PUSH0 PUSH2 0x100 EXP DUP2 SLOAD DUP2 PUSH1 0xFF MUL NOT AND SWAP1 DUP4 PUSH1 0x1 DUP2 GT ISZERO PUSH2 0x978 JUMPI PUSH2 0x977 PUSH2 0x14DE JUMP JUMPDEST JUMPDEST MUL OR SWAP1 SSTORE POP SWAP1 POP POP PUSH1 0x3 DUP3 SWAP1 DUP1 PUSH1 0x1 DUP2 SLOAD ADD DUP1 DUP3 SSTORE DUP1 SWAP2 POP POP PUSH1 0x1 SWAP1 SUB SWAP1 PUSH0 MSTORE PUSH1 0x20 PUSH0 KECCAK256 ADD PUSH0 SWAP1 SWAP2 SWAP1 SWAP2 SWAP1 SWAP2 POP SSTORE PUSH32 0x6F2FAC3F769ED900EB9891A73CAA7B5267CE788A20299805CE4B85934CB200F5 DUP3 DUP9 DUP4 PUSH1 0x40 MLOAD PUSH2 0x9D9 SWAP4 SWAP3 SWAP2 SWAP1 PUSH2 0x1F13 JUMP JUMPDEST PUSH1 0x40 MLOAD DUP1 SWAP2 SUB SWAP1 LOG1 POP POP POP POP POP POP POP POP JUMP JUMPDEST PUSH1 0x60 PUSH0 DUP1 PUSH0 DUP1 PUSH0 DUP1 PUSH0 SWAP1 SLOAD SWAP1 PUSH2 0x100 EXP SWAP1 DIV PUSH20 0xFFFFFFFFFFFFFFFFFFFFFFFFFFFFFFFFFFFFFFFF AND PUSH20 0xFFFFFFFFFFFFFFFFFFFFFFFFFFFFFFFFFFFFFFFF AND PUSH4 0x6386C1C7 DUP9 PUSH1 0x40 MLOAD DUP3 PUSH4 0xFFFFFFFF AND PUSH1 0xE0 SHL DUP2 MSTORE PUSH1 0x4 ADD PUSH2 0xA4B SWAP2 SWAP1 PUSH2 0x1BFB JUMP JUMPDEST PUSH0 PUSH1 0x40 MLOAD DUP1 DUP4 SUB DUP2 DUP7 GAS STATICCALL ISZERO DUP1 ISZERO PUSH2 0xA65 JUMPI RETURNDATASIZE PUSH0 DUP1 RETURNDATACOPY RETURNDATASIZE PUSH0 REVERT JUMPDEST POP POP POP POP PUSH1 0x40 MLOAD RETURNDATASIZE PUSH0 DUP3 RETURNDATACOPY RETURNDATASIZE PUSH1 0x1F NOT PUSH1 0x1F DUP3 ADD AND DUP3 ADD DUP1 PUSH1 0x40 MSTORE POP DUP2 ADD SWAP1 PUSH2 0xA8D SWAP2 SWAP1 PUSH2 0x1D57 JUMP JUMPDEST SWAP6 POP SWAP6 POP SWAP6 POP SWAP6 POP SWAP6 POP SWAP6 POP SWAP2 SWAP4 SWAP6 POP SWAP2 SWAP4 SWAP6 JUMP JUMPDEST PUSH1 0x3 DUP2 DUP2 SLOAD DUP2 LT PUSH2 0xAB1 JUMPI PUSH0 DUP1 REVERT JUMPDEST SWAP1 PUSH0 MSTORE PUSH1 0x20 PUSH0 KECCAK256 ADD PUSH0 SWAP2 POP SWAP1 POP SLOAD DUP2 JUMP JUMPDEST PUSH1 0x2 PUSH1 0x20 MSTORE DUP1 PUSH0 MSTORE PUSH1 0x40 PUSH0 KECCAK256 PUSH0 SWAP2 POP SWAP1 POP DUP1 PUSH0 ADD SLOAD SWAP1 DUP1 PUSH1 0x1 ADD PUSH0 SWAP1 SLOAD SWAP1 PUSH2 0x100 EXP SWAP1 DIV PUSH20 0xFFFFFFFFFFFFFFFFFFFFFFFFFFFFFFFFFFFFFFFF AND SWAP1 DUP1 PUSH1 0x2 ADD PUSH0 SWAP1 SLOAD SWAP1 PUSH2 0x100 EXP SWAP1 DIV PUSH20 0xFFFFFFFFFFFFFFFFFFFFFFFFFFFFFFFFFFFFFFFF AND SWAP1 DUP1 PUSH1 0x3 ADD SLOAD SWAP1 DUP1 PUSH1 0x4 ADD SLOAD SWAP1 DUP1 PUSH1 0x5 ADD SLOAD SWAP1 DUP1 PUSH1 0x6 ADD PUSH0 SWAP1 SLOAD SWAP1 PUSH2 0x100 EXP SWAP1 DIV PUSH1 0xFF AND SWAP1 DUP1 PUSH1 0x7 ADD DUP1 SLOAD PUSH2 0xB55 SWAP1 PUSH2 0x185E JUMP JUMPDEST DUP1 PUSH1 0x1F ADD PUSH1 0x20 DUP1 SWAP2 DIV MUL PUSH1 0x20 ADD PUSH1 0x40 MLOAD SWAP1 DUP2 ADD PUSH1 0x40 MSTORE DUP1 SWAP3 SWAP2 SWAP1 DUP2 DUP2 MSTORE PUSH1 0x20 ADD DUP3 DUP1 SLOAD PUSH2 0xB81 SWAP1 PUSH2 0x185E JUMP JUMPDEST DUP1 ISZERO PUSH2 0xBCC JUMPI DUP1 PUSH1 0x1F LT PUSH2 0xBA3 JUMPI PUSH2 0x100 DUP1 DUP4 SLOAD DIV MUL DUP4 MSTORE SWAP2 PUSH1 0x20 ADD SWAP2 PUSH2 0xBCC JUMP JUMPDEST DUP3 ADD SWAP2 SWAP1 PUSH0 MSTORE PUSH1 0x20 PUSH0 KECCAK256 SWAP1 JUMPDEST DUP2 SLOAD DUP2 MSTORE SWAP1 PUSH1 0x1 ADD SWAP1 PUSH1 0x20 ADD DUP1 DUP4 GT PUSH2 0xBAF JUMPI DUP3 SWAP1 SUB PUSH1 0x1F AND DUP3 ADD SWAP2 JUMPDEST POP POP POP POP POP SWAP1 DUP1 PUSH1 0x8 ADD PUSH0 SWAP1 SLOAD SWAP1 PUSH2 0x100 EXP SWAP1 DIV PUSH1 0xFF AND SWAP1 POP DUP10 JUMP JUMPDEST PUSH1 0x60 PUSH0 PUSH1 0x3 DUP1 SLOAD SWAP1 POP PUSH8 0xFFFFFFFFFFFFFFFF DUP2 GT ISZERO PUSH2 0xC0A JUMPI PUSH2 0xC09 PUSH2 0x1804 JUMP JUMPDEST JUMPDEST PUSH1 0x40 MLOAD SWAP1 DUP1 DUP3 MSTORE DUP1 PUSH1 0x20 MUL PUSH1 0x20 ADD DUP3 ADD PUSH1 0x40 MSTORE DUP1 ISZERO PUSH2 0xC43 JUMPI DUP2 PUSH1 0x20 ADD JUMPDEST PUSH2 0xC30 PUSH2 0x111C JUMP JUMPDEST DUP2 MSTORE PUSH1 0x20 ADD SWAP1 PUSH1 0x1 SWAP1 SUB SWAP1 DUP2 PUSH2 0xC28 JUMPI SWAP1 POP JUMPDEST POP SWAP1 POP PUSH0 JUMPDEST PUSH1 0x3 DUP1 SLOAD SWAP1 POP DUP2 LT ISZERO PUSH2 0xE74 JUMPI PUSH1 0x2 PUSH0 PUSH1 0x3 DUP4 DUP2 SLOAD DUP2 LT PUSH2 0xC6C JUMPI PUSH2 0xC6B PUSH2 0x1AFA JUMP JUMPDEST JUMPDEST SWAP1 PUSH0 MSTORE PUSH1 0x20 PUSH0 KECCAK256 ADD SLOAD DUP2 MSTORE PUSH1 0x20 ADD SWAP1 DUP2 MSTORE PUSH1 0x20 ADD PUSH0 KECCAK256 PUSH1 0x40 MLOAD DUP1 PUSH2 0x120 ADD PUSH1 0x40 MSTORE SWAP1 DUP2 PUSH0 DUP3 ADD SLOAD DUP2 MSTORE PUSH1 0x20 ADD PUSH1 0x1 DUP3 ADD PUSH0 SWAP1 SLOAD SWAP1 PUSH2 0x100 EXP SWAP1 DIV PUSH20 0xFFFFFFFFFFFFFFFFFFFFFFFFFFFFFFFFFFFFFFFF AND PUSH20 0xFFFFFFFFFFFFFFFFFFFFFFFFFFFFFFFFFFFFFFFF AND PUSH20 0xFFFFFFFFFFFFFFFFFFFFFFFFFFFFFFFFFFFFFFFF AND DUP2 MSTORE PUSH1 0x20 ADD PUSH1 0x2 DUP3 ADD PUSH0 SWAP1 SLOAD SWAP1 PUSH2 0x100 EXP SWAP1 DIV PUSH20 0xFFFFFFFFFFFFFFFFFFFFFFFFFFFFFFFFFFFFFFFF AND PUSH20 0xFFFFFFFFFFFFFFFFFFFFFFFFFFFFFFFFFFFFFFFF AND PUSH20 0xFFFFFFFFFFFFFFFFFFFFFFFFFFFFFFFFFFFFFFFF AND DUP2 MSTORE PUSH1 0x20 ADD PUSH1 0x3 DUP3 ADD SLOAD DUP2 MSTORE PUSH1 0x20 ADD PUSH1 0x4 DUP3 ADD SLOAD DUP2 MSTORE PUSH1 0x20 ADD PUSH1 0x5 DUP3 ADD SLOAD DUP2 MSTORE PUSH1 0x20 ADD PUSH1 0x6 DUP3 ADD PUSH0 SWAP1 SLOAD SWAP1 PUSH2 0x100 EXP SWAP1 DIV PUSH1 0xFF AND ISZERO ISZERO ISZERO ISZERO DUP2 MSTORE PUSH1 0x20 ADD PUSH1 0x7 DUP3 ADD DUP1 SLOAD PUSH2 0xD89 SWAP1 PUSH2 0x185E JUMP JUMPDEST DUP1 PUSH1 0x1F ADD PUSH1 0x20 DUP1 SWAP2 DIV MUL PUSH1 0x20 ADD PUSH1 0x40 MLOAD SWAP1 DUP2 ADD PUSH1 0x40 MSTORE DUP1 SWAP3 SWAP2 SWAP1 DUP2 DUP2 MSTORE PUSH1 0x20 ADD DUP3 DUP1 SLOAD PUSH2 0xDB5 SWAP1 PUSH2 0x185E JUMP JUMPDEST DUP1 ISZERO PUSH2 0xE00 JUMPI DUP1 PUSH1 0x1F LT PUSH2 0xDD7 JUMPI PUSH2 0x100 DUP1 DUP4 SLOAD DIV MUL DUP4 MSTORE SWAP2 PUSH1 0x20 ADD SWAP2 PUSH2 0xE00 JUMP JUMPDEST DUP3 ADD SWAP2 SWAP1 PUSH0 MSTORE PUSH1 0x20 PUSH0 KECCAK256 SWAP1 JUMPDEST DUP2 SLOAD DUP2 MSTORE SWAP1 PUSH1 0x1 ADD SWAP1 PUSH1 0x20 ADD DUP1 DUP4 GT PUSH2 0xDE3 JUMPI DUP3 SWAP1 SUB PUSH1 0x1F AND DUP3 ADD SWAP2 JUMPDEST POP POP POP POP POP DUP2 MSTORE PUSH1 0x20 ADD PUSH1 0x8 DUP3 ADD PUSH0 SWAP1 SLOAD SWAP1 PUSH2 0x100 EXP SWAP1 DIV PUSH1 0xFF AND PUSH1 0x1 DUP2 GT ISZERO PUSH2 0xE2D JUMPI PUSH2 0xE2C PUSH2 0x14DE JUMP JUMPDEST JUMPDEST PUSH1 0x1 DUP2 GT ISZERO PUSH2 0xE3F JUMPI PUSH2 0xE3E PUSH2 0x14DE JUMP JUMPDEST JUMPDEST DUP2 MSTORE POP POP DUP3 DUP3 DUP2 MLOAD DUP2 LT PUSH2 0xE56 JUMPI PUSH2 0xE55 PUSH2 0x1AFA JUMP JUMPDEST JUMPDEST PUSH1 0x20 MUL PUSH1 0x20 ADD ADD DUP2 SWAP1 MSTORE POP DUP1 DUP1 PUSH2 0xE6C SWAP1 PUSH2 0x1BB4 JUMP JUMPDEST SWAP2 POP POP PUSH2 0xC48 JUMP JUMPDEST POP DUP1 SWAP2 POP POP SWAP1 JUMP JUMPDEST PUSH1 0x60 PUSH0 PUSH1 0x4 DUP1 SLOAD SWAP1 POP PUSH8 0xFFFFFFFFFFFFFFFF DUP2 GT ISZERO PUSH2 0xE9E JUMPI PUSH2 0xE9D PUSH2 0x1804 JUMP JUMPDEST JUMPDEST PUSH1 0x40 MLOAD SWAP1 DUP1 DUP3 MSTORE DUP1 PUSH1 0x20 MUL PUSH1 0x20 ADD DUP3 ADD PUSH1 0x40 MSTORE DUP1 ISZERO PUSH2 0xED7 JUMPI DUP2 PUSH1 0x20 ADD JUMPDEST PUSH2 0xEC4 PUSH2 0x111C JUMP JUMPDEST DUP2 MSTORE PUSH1 0x20 ADD SWAP1 PUSH1 0x1 SWAP1 SUB SWAP1 DUP2 PUSH2 0xEBC JUMPI SWAP1 POP JUMPDEST POP SWAP1 POP PUSH0 JUMPDEST PUSH1 0x4 DUP1 SLOAD SWAP1 POP DUP2 LT ISZERO PUSH2 0x1108 JUMPI PUSH1 0x2 PUSH0 PUSH1 0x4 DUP4 DUP2 SLOAD DUP2 LT PUSH2 0xF00 JUMPI PUSH2 0xEFF PUSH2 0x1AFA JUMP JUMPDEST JUMPDEST SWAP1 PUSH0 MSTORE PUSH1 0x20 PUSH0 KECCAK256 ADD SLOAD DUP2 MSTORE PUSH1 0x20 ADD SWAP1 DUP2 MSTORE PUSH1 0x20 ADD PUSH0 KECCAK256 PUSH1 0x40 MLOAD DUP1 PUSH2 0x120 ADD PUSH1 0x40 MSTORE SWAP1 DUP2 PUSH0 DUP3 ADD SLOAD DUP2 MSTORE PUSH1 0x20 ADD PUSH1 0x1 DUP3 ADD PUSH0 SWAP1 SLOAD SWAP1 PUSH2 0x100 EXP SWAP1 DIV PUSH20 0xFFFFFFFFFFFFFFFFFFFFFFFFFFFFFFFFFFFFFFFF AND PUSH20 0xFFFFFFFFFFFFFFFFFFFFFFFFFFFFFFFFFFFFFFFF AND PUSH20 0xFFFFFFFFFFFFFFFFFFFFFFFFFFFFFFFFFFFFFFFF AND DUP2 MSTORE PUSH1 0x20 ADD PUSH1 0x2 DUP3 ADD PUSH0 SWAP1 SLOAD SWAP1 PUSH2 0x100 EXP SWAP1 DIV PUSH20 0xFFFFFFFFFFFFFFFFFFFFFFFFFFFFFFFFFFFFFFFF AND PUSH20 0xFFFFFFFFFFFFFFFFFFFFFFFFFFFFFFFFFFFFFFFF AND PUSH20 0xFFFFFFFFFFFFFFFFFFFFFFFFFFFFFFFFFFFFFFFF AND DUP2 MSTORE PUSH1 0x20 ADD PUSH1 0x3 DUP3 ADD SLOAD DUP2 MSTORE PUSH1 0x20 ADD PUSH1 0x4 DUP3 ADD SLOAD DUP2 MSTORE PUSH1 0x20 ADD PUSH1 0x5 DUP3 ADD SLOAD DUP2 MSTORE PUSH1 0x20 ADD PUSH1 0x6 DUP3 ADD PUSH0 SWAP1 SLOAD SWAP1 PUSH2 0x100 EXP SWAP1 DIV PUSH1 0xFF AND ISZERO ISZERO ISZERO ISZERO DUP2 MSTORE PUSH1 0x20 ADD PUSH1 0x7 DUP3 ADD DUP1 SLOAD PUSH2 0x101D SWAP1 PUSH2 0x185E JUMP JUMPDEST DUP1 PUSH1 0x1F ADD PUSH1 0x20 DUP1 SWAP2 DIV MUL PUSH1 0x20 ADD PUSH1 0x40 MLOAD SWAP1 DUP2 ADD PUSH1 0x40 MSTORE DUP1 SWAP3 SWAP2 SWAP1 DUP2 DUP2 MSTORE PUSH1 0x20 ADD DUP3 DUP1 SLOAD PUSH2 0x1049 SWAP1 PUSH2 0x185E JUMP JUMPDEST DUP1 ISZERO PUSH2 0x1094 JUMPI DUP1 PUSH1 0x1F LT PUSH2 0x106B JUMPI PUSH2 0x100 DUP1 DUP4 SLOAD DIV MUL DUP4 MSTORE SWAP2 PUSH1 0x20 ADD SWAP2 PUSH2 0x1094 JUMP JUMPDEST DUP3 ADD SWAP2 SWAP1 PUSH0 MSTORE PUSH1 0x20 PUSH0 KECCAK256 SWAP1 JUMPDEST DUP2 SLOAD DUP2 MSTORE SWAP1 PUSH1 0x1 ADD SWAP1 PUSH1 0x20 ADD DUP1 DUP4 GT PUSH2 0x1077 JUMPI DUP3 SWAP1 SUB PUSH1 0x1F AND DUP3 ADD SWAP2 JUMPDEST POP POP POP POP POP DUP2 MSTORE PUSH1 0x20 ADD PUSH1 0x8 DUP3 ADD PUSH0 SWAP1 SLOAD SWAP1 PUSH2 0x100 EXP SWAP1 DIV PUSH1 0xFF AND PUSH1 0x1 DUP2 GT ISZERO PUSH2 0x10C1 JUMPI PUSH2 0x10C0 PUSH2 0x14DE JUMP JUMPDEST JUMPDEST PUSH1 0x1 DUP2 GT ISZERO PUSH2 0x10D3 JUMPI PUSH2 0x10D2 PUSH2 0x14DE JUMP JUMPDEST JUMPDEST DUP2 MSTORE POP POP DUP3 DUP3 DUP2 MLOAD DUP2 LT PUSH2 0x10EA JUMPI PUSH2 0x10E9 PUSH2 0x1AFA JUMP JUMPDEST JUMPDEST PUSH1 0x20 MUL PUSH1 0x20 ADD ADD DUP2 SWAP1 MSTORE POP DUP1 DUP1 PUSH2 0x1100 SWAP1 PUSH2 0x1BB4 JUMP JUMPDEST SWAP2 POP POP PUSH2 0xEDC JUMP JUMPDEST POP DUP1 SWAP2 POP POP SWAP1 JUMP JUMPDEST PUSH0 PUSH1 0x3 DUP1 SLOAD SWAP1 POP SWAP1 POP SWAP1 JUMP JUMPDEST PUSH1 0x40 MLOAD DUP1 PUSH2 0x120 ADD PUSH1 0x40 MSTORE DUP1 PUSH0 DUP2 MSTORE PUSH1 0x20 ADD PUSH0 PUSH20 0xFFFFFFFFFFFFFFFFFFFFFFFFFFFFFFFFFFFFFFFF AND DUP2 MSTORE PUSH1 0x20 ADD PUSH0 PUSH20 0xFFFFFFFFFFFFFFFFFFFFFFFFFFFFFFFFFFFFFFFF AND DUP2 MSTORE PUSH1 0x20 ADD PUSH0 DUP2 MSTORE PUSH1 0x20 ADD PUSH0 DUP2 MSTORE PUSH1 0x20 ADD PUSH0 DUP2 MSTORE PUSH1 0x20 ADD PUSH0 ISZERO ISZERO DUP2 MSTORE PUSH1 0x20 ADD PUSH1 0x60 DUP2 MSTORE PUSH1 0x20 ADD PUSH0 PUSH1 0x1 DUP2 GT ISZERO PUSH2 0x119A JUMPI PUSH2 0x1199 PUSH2 0x14DE JUMP JUMPDEST JUMPDEST DUP2 MSTORE POP SWAP1 JUMP JUMPDEST PUSH0 PUSH1 0x40 MLOAD SWAP1 POP SWAP1 JUMP JUMPDEST PUSH0 DUP1 REVERT JUMPDEST PUSH0 DUP1 REVERT JUMPDEST PUSH0 DUP2 SWAP1 POP SWAP2 SWAP1 POP JUMP JUMPDEST PUSH2 0x11C3 DUP2 PUSH2 0x11B1 JUMP JUMPDEST DUP2 EQ PUSH2 0x11CD JUMPI PUSH0 DUP1 REVERT JUMPDEST POP JUMP JUMPDEST PUSH0 DUP2 CALLDATALOAD SWAP1 POP PUSH2 0x11DE DUP2 PUSH2 0x11BA JUMP JUMPDEST SWAP3 SWAP2 POP POP JUMP JUMPDEST PUSH0 DUP2 ISZERO ISZERO SWAP1 POP SWAP2 SWAP1 POP JUMP JUMPDEST PUSH2 0x11F8 DUP2 PUSH2 0x11E4 JUMP JUMPDEST DUP2 EQ PUSH2 0x1202 JUMPI PUSH0 DUP1 REVERT JUMPDEST POP JUMP JUMPDEST PUSH0 DUP2 CALLDATALOAD SWAP1 POP PUSH2 0x1213 DUP2 PUSH2 0x11EF JUMP JUMPDEST SWAP3 SWAP2 POP POP JUMP JUMPDEST PUSH0 DUP1 PUSH1 0x40 DUP4 DUP6 SUB SLT ISZERO PUSH2 0x122F JUMPI PUSH2 0x122E PUSH2 0x11A9 JUMP JUMPDEST JUMPDEST PUSH0 PUSH2 0x123C DUP6 DUP3 DUP7 ADD PUSH2 0x11D0 JUMP JUMPDEST SWAP3 POP POP PUSH1 0x20 PUSH2 0x124D DUP6 DUP3 DUP7 ADD PUSH2 0x1205 JUMP JUMPDEST SWAP2 POP POP SWAP3 POP SWAP3 SWAP1 POP JUMP JUMPDEST PUSH0 PUSH20 0xFFFFFFFFFFFFFFFFFFFFFFFFFFFFFFFFFFFFFFFF DUP3 AND SWAP1 POP SWAP2 SWAP1 POP JUMP JUMPDEST PUSH0 PUSH2 0x1280 DUP3 PUSH2 0x1257 JUMP JUMPDEST SWAP1 POP SWAP2 SWAP1 POP JUMP JUMPDEST PUSH2 0x1290 DUP2 PUSH2 0x1276 JUMP JUMPDEST DUP2 EQ PUSH2 0x129A JUMPI PUSH0 DUP1 REVERT JUMPDEST POP JUMP JUMPDEST PUSH0 DUP2 CALLDATALOAD SWAP1 POP PUSH2 0x12AB DUP2 PUSH2 0x1287 JUMP JUMPDEST SWAP3 SWAP2 POP POP JUMP JUMPDEST PUSH0 DUP1 PUSH0 DUP1 PUSH0 DUP1 PUSH1 0xC0 DUP8 DUP10 SUB SLT ISZERO PUSH2 0x12CB JUMPI PUSH2 0x12CA PUSH2 0x11A9 JUMP JUMPDEST JUMPDEST PUSH0 PUSH2 0x12D8 DUP10 DUP3 DUP11 ADD PUSH2 0x129D JUMP JUMPDEST SWAP7 POP POP PUSH1 0x20 PUSH2 0x12E9 DUP10 DUP3 DUP11 ADD PUSH2 0x129D JUMP JUMPDEST SWAP6 POP POP PUSH1 0x40 PUSH2 0x12FA DUP10 DUP3 DUP11 ADD PUSH2 0x11D0 JUMP JUMPDEST SWAP5 POP POP PUSH1 0x60 PUSH2 0x130B DUP10 DUP3 DUP11 ADD PUSH2 0x11D0 JUMP JUMPDEST SWAP4 POP POP PUSH1 0x80 PUSH2 0x131C DUP10 DUP3 DUP11 ADD PUSH2 0x11D0 JUMP JUMPDEST SWAP3 POP POP PUSH1 0xA0 PUSH2 0x132D DUP10 DUP3 DUP11 ADD PUSH2 0x1205 JUMP JUMPDEST SWAP2 POP POP SWAP3 SWAP6 POP SWAP3 SWAP6 POP SWAP3 SWAP6 JUMP JUMPDEST PUSH0 PUSH1 0x20 DUP3 DUP5 SUB SLT ISZERO PUSH2 0x134F JUMPI PUSH2 0x134E PUSH2 0x11A9 JUMP JUMPDEST JUMPDEST PUSH0 PUSH2 0x135C DUP5 DUP3 DUP6 ADD PUSH2 0x129D JUMP JUMPDEST SWAP2 POP POP SWAP3 SWAP2 POP POP JUMP JUMPDEST PUSH0 DUP2 MLOAD SWAP1 POP SWAP2 SWAP1 POP JUMP JUMPDEST PUSH0 DUP3 DUP3 MSTORE PUSH1 0x20 DUP3 ADD SWAP1 POP SWAP3 SWAP2 POP POP JUMP JUMPDEST PUSH0 JUMPDEST DUP4 DUP2 LT ISZERO PUSH2 0x139C JUMPI DUP1 DUP3 ADD MLOAD DUP2 DUP5 ADD MSTORE PUSH1 0x20 DUP2 ADD SWAP1 POP PUSH2 0x1381 JUMP JUMPDEST PUSH0 DUP5 DUP5 ADD MSTORE POP POP POP POP JUMP JUMPDEST PUSH0 PUSH1 0x1F NOT PUSH1 0x1F DUP4 ADD AND SWAP1 POP SWAP2 SWAP1 POP JUMP JUMPDEST PUSH0 PUSH2 0x13C1 DUP3 PUSH2 0x1365 JUMP JUMPDEST PUSH2 0x13CB DUP2 DUP6 PUSH2 0x136F JUMP JUMPDEST SWAP4 POP PUSH2 0x13DB DUP2 DUP6 PUSH1 0x20 DUP7 ADD PUSH2 0x137F JUMP JUMPDEST PUSH2 0x13E4 DUP2 PUSH2 0x13A7 JUMP JUMPDEST DUP5 ADD SWAP2 POP POP SWAP3 SWAP2 POP POP JUMP JUMPDEST PUSH0 DUP2 SWAP1 POP SWAP2 SWAP1 POP JUMP JUMPDEST PUSH2 0x1401 DUP2 PUSH2 0x13EF JUMP JUMPDEST DUP3 MSTORE POP POP JUMP JUMPDEST PUSH2 0x1410 DUP2 PUSH2 0x11B1 JUMP JUMPDEST DUP3 MSTORE POP POP JUMP JUMPDEST PUSH2 0x141F DUP2 PUSH2 0x11E4 JUMP JUMPDEST DUP3 MSTORE POP POP JUMP JUMPDEST PUSH0 PUSH1 0xC0 DUP3 ADD SWAP1 POP DUP2 DUP2 SUB PUSH0 DUP4 ADD MSTORE PUSH2 0x143D DUP2 DUP10 PUSH2 0x13B7 JUMP JUMPDEST SWAP1 POP PUSH2 0x144C PUSH1 0x20 DUP4 ADD DUP9 PUSH2 0x13F8 JUMP JUMPDEST PUSH2 0x1459 PUSH1 0x40 DUP4 ADD DUP8 PUSH2 0x13F8 JUMP JUMPDEST PUSH2 0x1466 PUSH1 0x60 DUP4 ADD DUP7 PUSH2 0x1407 JUMP JUMPDEST PUSH2 0x1473 PUSH1 0x80 DUP4 ADD DUP6 PUSH2 0x1407 JUMP JUMPDEST PUSH2 0x1480 PUSH1 0xA0 DUP4 ADD DUP5 PUSH2 0x1416 JUMP JUMPDEST SWAP8 SWAP7 POP POP POP POP POP POP POP JUMP JUMPDEST PUSH0 PUSH1 0x20 DUP3 DUP5 SUB SLT ISZERO PUSH2 0x14A0 JUMPI PUSH2 0x149F PUSH2 0x11A9 JUMP JUMPDEST JUMPDEST PUSH0 PUSH2 0x14AD DUP5 DUP3 DUP6 ADD PUSH2 0x11D0 JUMP JUMPDEST SWAP2 POP POP SWAP3 SWAP2 POP POP JUMP JUMPDEST PUSH0 PUSH1 0x20 DUP3 ADD SWAP1 POP PUSH2 0x14C9 PUSH0 DUP4 ADD DUP5 PUSH2 0x1407 JUMP JUMPDEST SWAP3 SWAP2 POP POP JUMP JUMPDEST PUSH2 0x14D8 DUP2 PUSH2 0x1276 JUMP JUMPDEST DUP3 MSTORE POP POP JUMP JUMPDEST PUSH32 0x4E487B7100000000000000000000000000000000000000000000000000000000 PUSH0 MSTORE PUSH1 0x21 PUSH1 0x4 MSTORE PUSH1 0x24 PUSH0 REVERT JUMPDEST PUSH1 0x2 DUP2 LT PUSH2 0x151C JUMPI PUSH2 0x151B PUSH2 0x14DE JUMP JUMPDEST JUMPDEST POP JUMP JUMPDEST PUSH0 DUP2 SWAP1 POP PUSH2 0x152C DUP3 PUSH2 0x150B JUMP JUMPDEST SWAP2 SWAP1 POP JUMP JUMPDEST PUSH0 PUSH2 0x153B DUP3 PUSH2 0x151F JUMP JUMPDEST SWAP1 POP SWAP2 SWAP1 POP JUMP JUMPDEST PUSH2 0x154B DUP2 PUSH2 0x1531 JUMP JUMPDEST DUP3 MSTORE POP POP JUMP JUMPDEST PUSH0 PUSH2 0x120 DUP3 ADD SWAP1 POP PUSH2 0x1565 PUSH0 DUP4 ADD DUP13 PUSH2 0x1407 JUMP JUMPDEST PUSH2 0x1572 PUSH1 0x20 DUP4 ADD DUP12 PUSH2 0x14CF JUMP JUMPDEST PUSH2 0x157F PUSH1 0x40 DUP4 ADD DUP11 PUSH2 0x14CF JUMP JUMPDEST PUSH2 0x158C PUSH1 0x60 DUP4 ADD DUP10 PUSH2 0x1407 JUMP JUMPDEST PUSH2 0x1599 PUSH1 0x80 DUP4 ADD DUP9 PUSH2 0x1407 JUMP JUMPDEST PUSH2 0x15A6 PUSH1 0xA0 DUP4 ADD DUP8 PUSH2 0x1407 JUMP JUMPDEST PUSH2 0x15B3 PUSH1 0xC0 DUP4 ADD DUP7 PUSH2 0x1416 JUMP JUMPDEST DUP2 DUP2 SUB PUSH1 0xE0 DUP4 ADD MSTORE PUSH2 0x15C5 DUP2 DUP6 PUSH2 0x13B7 JUMP JUMPDEST SWAP1 POP PUSH2 0x15D5 PUSH2 0x100 DUP4 ADD DUP5 PUSH2 0x1542 JUMP JUMPDEST SWAP11 SWAP10 POP POP POP POP POP POP POP POP POP POP JUMP JUMPDEST PUSH0 DUP2 MLOAD SWAP1 POP SWAP2 SWAP1 POP JUMP JUMPDEST PUSH0 DUP3 DUP3 MSTORE PUSH1 0x20 DUP3 ADD SWAP1 POP SWAP3 SWAP2 POP POP JUMP JUMPDEST PUSH0 DUP2 SWAP1 POP PUSH1 0x20 DUP3 ADD SWAP1 POP SWAP2 SWAP1 POP JUMP JUMPDEST PUSH2 0x1615 DUP2 PUSH2 0x11B1 JUMP JUMPDEST DUP3 MSTORE POP POP JUMP JUMPDEST PUSH2 0x1624 DUP2 PUSH2 0x1276 JUMP JUMPDEST DUP3 MSTORE POP POP JUMP JUMPDEST PUSH2 0x1633 DUP2 PUSH2 0x11E4 JUMP JUMPDEST DUP3 MSTORE POP POP JUMP JUMPDEST PUSH0 DUP3 DUP3 MSTORE PUSH1 0x20 DUP3 ADD SWAP1 POP SWAP3 SWAP2 POP POP JUMP JUMPDEST PUSH0 PUSH2 0x1653 DUP3 PUSH2 0x1365 JUMP JUMPDEST PUSH2 0x165D DUP2 DUP6 PUSH2 0x1639 JUMP JUMPDEST SWAP4 POP PUSH2 0x166D DUP2 DUP6 PUSH1 0x20 DUP7 ADD PUSH2 0x137F JUMP JUMPDEST PUSH2 0x1676 DUP2 PUSH2 0x13A7 JUMP JUMPDEST DUP5 ADD SWAP2 POP POP SWAP3 SWAP2 POP POP JUMP JUMPDEST PUSH2 0x168A DUP2 PUSH2 0x1531 JUMP JUMPDEST DUP3 MSTORE POP POP JUMP JUMPDEST PUSH0 PUSH2 0x120 DUP4 ADD PUSH0 DUP4 ADD MLOAD PUSH2 0x16A6 PUSH0 DUP7 ADD DUP3 PUSH2 0x160C JUMP JUMPDEST POP PUSH1 0x20 DUP4 ADD MLOAD PUSH2 0x16B9 PUSH1 0x20 DUP7 ADD DUP3 PUSH2 0x161B JUMP JUMPDEST POP PUSH1 0x40 DUP4 ADD MLOAD PUSH2 0x16CC PUSH1 0x40 DUP7 ADD DUP3 PUSH2 0x161B JUMP JUMPDEST POP PUSH1 0x60 DUP4 ADD MLOAD PUSH2 0x16DF PUSH1 0x60 DUP7 ADD DUP3 PUSH2 0x160C JUMP JUMPDEST POP PUSH1 0x80 DUP4 ADD MLOAD PUSH2 0x16F2 PUSH1 0x80 DUP7 ADD DUP3 PUSH2 0x160C JUMP JUMPDEST POP PUSH1 0xA0 DUP4 ADD MLOAD PUSH2 0x1705 PUSH1 0xA0 DUP7 ADD DUP3 PUSH2 0x160C JUMP JUMPDEST POP PUSH1 0xC0 DUP4 ADD MLOAD PUSH2 0x1718 PUSH1 0xC0 DUP7 ADD DUP3 PUSH2 0x162A JUMP JUMPDEST POP PUSH1 0xE0 DUP4 ADD MLOAD DUP5 DUP3 SUB PUSH1 0xE0 DUP7 ADD MSTORE PUSH2 0x1730 DUP3 DUP3 PUSH2 0x1649 JUMP JUMPDEST SWAP2 POP POP PUSH2 0x100 DUP4 ADD MLOAD PUSH2 0x1747 PUSH2 0x100 DUP7 ADD DUP3 PUSH2 0x1681 JUMP JUMPDEST POP DUP1 SWAP2 POP POP SWAP3 SWAP2 POP POP JUMP JUMPDEST PUSH0 PUSH2 0x175D DUP4 DUP4 PUSH2 0x1690 JUMP JUMPDEST SWAP1 POP SWAP3 SWAP2 POP POP JUMP JUMPDEST PUSH0 PUSH1 0x20 DUP3 ADD SWAP1 POP SWAP2 SWAP1 POP JUMP JUMPDEST PUSH0 PUSH2 0x177B DUP3 PUSH2 0x15E3 JUMP JUMPDEST PUSH2 0x1785 DUP2 DUP6 PUSH2 0x15ED JUMP JUMPDEST SWAP4 POP DUP4 PUSH1 0x20 DUP3 MUL DUP6 ADD PUSH2 0x1797 DUP6 PUSH2 0x15FD JUMP JUMPDEST DUP1 PUSH0 JUMPDEST DUP6 DUP2 LT ISZERO PUSH2 0x17D2 JUMPI DUP5 DUP5 SUB DUP10 MSTORE DUP2 MLOAD PUSH2 0x17B3 DUP6 DUP3 PUSH2 0x1752 JUMP JUMPDEST SWAP5 POP PUSH2 0x17BE DUP4 PUSH2 0x1765 JUMP JUMPDEST SWAP3 POP PUSH1 0x20 DUP11 ADD SWAP10 POP POP PUSH1 0x1 DUP2 ADD SWAP1 POP PUSH2 0x179A JUMP JUMPDEST POP DUP3 SWAP8 POP DUP8 SWAP6 POP POP POP POP POP POP SWAP3 SWAP2 POP POP JUMP JUMPDEST PUSH0 PUSH1 0x20 DUP3 ADD SWAP1 POP DUP2 DUP2 SUB PUSH0 DUP4 ADD MSTORE PUSH2 0x17FC DUP2 DUP5 PUSH2 0x1771 JUMP JUMPDEST SWAP1 POP SWAP3 SWAP2 POP POP JUMP JUMPDEST PUSH32 0x4E487B7100000000000000000000000000000000000000000000000000000000 PUSH0 MSTORE PUSH1 0x41 PUSH1 0x4 MSTORE PUSH1 0x24 PUSH0 REVERT JUMPDEST PUSH32 0x4E487B7100000000000000000000000000000000000000000000000000000000 PUSH0 MSTORE PUSH1 0x22 PUSH1 0x4 MSTORE PUSH1 0x24 PUSH0 REVERT JUMPDEST PUSH0 PUSH1 0x2 DUP3 DIV SWAP1 POP PUSH1 0x1 DUP3 AND DUP1 PUSH2 0x1875 JUMPI PUSH1 0x7F DUP3 AND SWAP2 POP JUMPDEST PUSH1 0x20 DUP3 LT DUP2 SUB PUSH2 0x1888 JUMPI PUSH2 0x1887 PUSH2 0x1831 JUMP JUMPDEST JUMPDEST POP SWAP2 SWAP1 POP JUMP JUMPDEST PUSH0 DUP2 SWAP1 POP DUP2 PUSH0 MSTORE PUSH1 0x20 PUSH0 KECCAK256 SWAP1 POP SWAP2 SWAP1 POP JUMP JUMPDEST PUSH0 PUSH1 0x20 PUSH1 0x1F DUP4 ADD DIV SWAP1 POP SWAP2 SWAP1 POP JUMP JUMPDEST PUSH0 DUP3 DUP3 SHL SWAP1 POP SWAP3 SWAP2 POP POP JUMP JUMPDEST PUSH0 PUSH1 0x8 DUP4 MUL PUSH2 0x18EA PUSH32 0xFFFFFFFFFFFFFFFFFFFFFFFFFFFFFFFFFFFFFFFFFFFFFFFFFFFFFFFFFFFFFFFF DUP3 PUSH2 0x18AF JUMP JUMPDEST PUSH2 0x18F4 DUP7 DUP4 PUSH2 0x18AF JUMP JUMPDEST SWAP6 POP DUP1 NOT DUP5 AND SWAP4 POP DUP1 DUP7 AND DUP5 OR SWAP3 POP POP POP SWAP4 SWAP3 POP POP POP JUMP JUMPDEST PUSH0 DUP2 SWAP1 POP SWAP2 SWAP1 POP JUMP JUMPDEST PUSH0 PUSH2 0x192F PUSH2 0x192A PUSH2 0x1925 DUP5 PUSH2 0x11B1 JUMP JUMPDEST PUSH2 0x190C JUMP JUMPDEST PUSH2 0x11B1 JUMP JUMPDEST SWAP1 POP SWAP2 SWAP1 POP JUMP JUMPDEST PUSH0 DUP2 SWAP1 POP SWAP2 SWAP1 POP JUMP JUMPDEST PUSH2 0x1948 DUP4 PUSH2 0x1915 JUMP JUMPDEST PUSH2 0x195C PUSH2 0x1954 DUP3 PUSH2 0x1936 JUMP JUMPDEST DUP5 DUP5 SLOAD PUSH2 0x18BB JUMP JUMPDEST DUP3 SSTORE POP POP POP POP JUMP JUMPDEST PUSH0 SWAP1 JUMP JUMPDEST PUSH2 0x1970 PUSH2 0x1964 JUMP JUMPDEST PUSH2 0x197B DUP2 DUP5 DUP5 PUSH2 0x193F JUMP JUMPDEST POP POP POP JUMP JUMPDEST JUMPDEST DUP2 DUP2 LT ISZERO PUSH2 0x199E JUMPI PUSH2 0x1993 PUSH0 DUP3 PUSH2 0x1968 JUMP JUMPDEST PUSH1 0x1 DUP2 ADD SWAP1 POP PUSH2 0x1981 JUMP JUMPDEST POP POP JUMP JUMPDEST PUSH1 0x1F DUP3 GT ISZERO PUSH2 0x19E3 JUMPI PUSH2 0x19B4 DUP2 PUSH2 0x188E JUMP JUMPDEST PUSH2 0x19BD DUP5 PUSH2 0x18A0 JUMP JUMPDEST DUP2 ADD PUSH1 0x20 DUP6 LT ISZERO PUSH2 0x19CC JUMPI DUP2 SWAP1 POP JUMPDEST PUSH2 0x19E0 PUSH2 0x19D8 DUP6 PUSH2 0x18A0 JUMP JUMPDEST DUP4 ADD DUP3 PUSH2 0x1980 JUMP JUMPDEST POP POP JUMPDEST POP POP POP JUMP JUMPDEST PUSH0 DUP3 DUP3 SHR SWAP1 POP SWAP3 SWAP2 POP POP JUMP JUMPDEST PUSH0 PUSH2 0x1A03 PUSH0 NOT DUP5 PUSH1 0x8 MUL PUSH2 0x19E8 JUMP JUMPDEST NOT DUP1 DUP4 AND SWAP2 POP POP SWAP3 SWAP2 POP POP JUMP JUMPDEST PUSH0 PUSH2 0x1A1B DUP4 DUP4 PUSH2 0x19F4 JUMP JUMPDEST SWAP2 POP DUP3 PUSH1 0x2 MUL DUP3 OR SWAP1 POP SWAP3 SWAP2 POP POP JUMP JUMPDEST PUSH2 0x1A34 DUP3 PUSH2 0x1365 JUMP JUMPDEST PUSH8 0xFFFFFFFFFFFFFFFF DUP2 GT ISZERO PUSH2 0x1A4D JUMPI PUSH2 0x1A4C PUSH2 0x1804 JUMP JUMPDEST JUMPDEST PUSH2 0x1A57 DUP3 SLOAD PUSH2 0x185E JUMP JUMPDEST PUSH2 0x1A62 DUP3 DUP3 DUP6 PUSH2 0x19A2 JUMP JUMPDEST PUSH0 PUSH1 0x20 SWAP1 POP PUSH1 0x1F DUP4 GT PUSH1 0x1 DUP2 EQ PUSH2 0x1A93 JUMPI PUSH0 DUP5 ISZERO PUSH2 0x1A81 JUMPI DUP3 DUP8 ADD MLOAD SWAP1 POP JUMPDEST PUSH2 0x1A8B DUP6 DUP3 PUSH2 0x1A10 JUMP JUMPDEST DUP7 SSTORE POP PUSH2 0x1AF2 JUMP JUMPDEST PUSH1 0x1F NOT DUP5 AND PUSH2 0x1AA1 DUP7 PUSH2 0x188E JUMP JUMPDEST PUSH0 JUMPDEST DUP3 DUP2 LT ISZERO PUSH2 0x1AC8 JUMPI DUP5 DUP10 ADD MLOAD DUP3 SSTORE PUSH1 0x1 DUP3 ADD SWAP2 POP PUSH1 0x20 DUP6 ADD SWAP5 POP PUSH1 0x20 DUP2 ADD SWAP1 POP PUSH2 0x1AA3 JUMP JUMPDEST DUP7 DUP4 LT ISZERO PUSH2 0x1AE5 JUMPI DUP5 DUP10 ADD MLOAD PUSH2 0x1AE1 PUSH1 0x1F DUP10 AND DUP3 PUSH2 0x19F4 JUMP JUMPDEST DUP4 SSTORE POP JUMPDEST PUSH1 0x1 PUSH1 0x2 DUP9 MUL ADD DUP9 SSTORE POP POP POP JUMPDEST POP POP POP POP POP POP JUMP JUMPDEST PUSH32 0x4E487B7100000000000000000000000000000000000000000000000000000000 PUSH0 MSTORE PUSH1 0x32 PUSH1 0x4 MSTORE PUSH1 0x24 PUSH0 REVERT JUMPDEST PUSH32 0x4E487B7100000000000000000000000000000000000000000000000000000000 PUSH0 MSTORE PUSH1 0x11 PUSH1 0x4 MSTORE PUSH1 0x24 PUSH0 REVERT JUMPDEST PUSH0 PUSH2 0x1B5E DUP3 PUSH2 0x11B1 JUMP JUMPDEST SWAP2 POP PUSH2 0x1B69 DUP4 PUSH2 0x11B1 JUMP JUMPDEST SWAP3 POP DUP3 DUP3 SUB SWAP1 POP DUP2 DUP2 GT ISZERO PUSH2 0x1B81 JUMPI PUSH2 0x1B80 PUSH2 0x1B27 JUMP JUMPDEST JUMPDEST SWAP3 SWAP2 POP POP JUMP JUMPDEST PUSH32 0x4E487B7100000000000000000000000000000000000000000000000000000000 PUSH0 MSTORE PUSH1 0x31 PUSH1 0x4 MSTORE PUSH1 0x24 PUSH0 REVERT JUMPDEST PUSH0 PUSH2 0x1BBE DUP3 PUSH2 0x11B1 JUMP JUMPDEST SWAP2 POP PUSH32 0xFFFFFFFFFFFFFFFFFFFFFFFFFFFFFFFFFFFFFFFFFFFFFFFFFFFFFFFFFFFFFFFF DUP3 SUB PUSH2 0x1BF0 JUMPI PUSH2 0x1BEF PUSH2 0x1B27 JUMP JUMPDEST JUMPDEST PUSH1 0x1 DUP3 ADD SWAP1 POP SWAP2 SWAP1 POP JUMP JUMPDEST PUSH0 PUSH1 0x20 DUP3 ADD SWAP1 POP PUSH2 0x1C0E PUSH0 DUP4 ADD DUP5 PUSH2 0x14CF JUMP JUMPDEST SWAP3 SWAP2 POP POP JUMP JUMPDEST PUSH0 DUP1 REVERT JUMPDEST PUSH0 DUP1 REVERT JUMPDEST PUSH2 0x1C25 DUP3 PUSH2 0x13A7 JUMP JUMPDEST DUP2 ADD DUP2 DUP2 LT PUSH8 0xFFFFFFFFFFFFFFFF DUP3 GT OR ISZERO PUSH2 0x1C44 JUMPI PUSH2 0x1C43 PUSH2 0x1804 JUMP JUMPDEST JUMPDEST DUP1 PUSH1 0x40 MSTORE POP POP POP JUMP JUMPDEST PUSH0 PUSH2 0x1C56 PUSH2 0x11A0 JUMP JUMPDEST SWAP1 POP PUSH2 0x1C62 DUP3 DUP3 PUSH2 0x1C1C JUMP JUMPDEST SWAP2 SWAP1 POP JUMP JUMPDEST PUSH0 PUSH8 0xFFFFFFFFFFFFFFFF DUP3 GT ISZERO PUSH2 0x1C81 JUMPI PUSH2 0x1C80 PUSH2 0x1804 JUMP JUMPDEST JUMPDEST PUSH2 0x1C8A DUP3 PUSH2 0x13A7 JUMP JUMPDEST SWAP1 POP PUSH1 0x20 DUP2 ADD SWAP1 POP SWAP2 SWAP1 POP JUMP JUMPDEST PUSH0 PUSH2 0x1CA9 PUSH2 0x1CA4 DUP5 PUSH2 0x1C67 JUMP JUMPDEST PUSH2 0x1C4D JUMP JUMPDEST SWAP1 POP DUP3 DUP2 MSTORE PUSH1 0x20 DUP2 ADD DUP5 DUP5 DUP5 ADD GT ISZERO PUSH2 0x1CC5 JUMPI PUSH2 0x1CC4 PUSH2 0x1C18 JUMP JUMPDEST JUMPDEST PUSH2 0x1CD0 DUP5 DUP3 DUP6 PUSH2 0x137F JUMP JUMPDEST POP SWAP4 SWAP3 POP POP POP JUMP JUMPDEST PUSH0 DUP3 PUSH1 0x1F DUP4 ADD SLT PUSH2 0x1CEC JUMPI PUSH2 0x1CEB PUSH2 0x1C14 JUMP JUMPDEST JUMPDEST DUP2 MLOAD PUSH2 0x1CFC DUP5 DUP3 PUSH1 0x20 DUP7 ADD PUSH2 0x1C97 JUMP JUMPDEST SWAP2 POP POP SWAP3 SWAP2 POP POP JUMP JUMPDEST PUSH2 0x1D0E DUP2 PUSH2 0x13EF JUMP JUMPDEST DUP2 EQ PUSH2 0x1D18 JUMPI PUSH0 DUP1 REVERT JUMPDEST POP JUMP JUMPDEST PUSH0 DUP2 MLOAD SWAP1 POP PUSH2 0x1D29 DUP2 PUSH2 0x1D05 JUMP JUMPDEST SWAP3 SWAP2 POP POP JUMP JUMPDEST PUSH0 DUP2 MLOAD SWAP1 POP PUSH2 0x1D3D DUP2 PUSH2 0x11BA JUMP JUMPDEST SWAP3 SWAP2 POP POP JUMP JUMPDEST PUSH0 DUP2 MLOAD SWAP1 POP PUSH2 0x1D51 DUP2 PUSH2 0x11EF JUMP JUMPDEST SWAP3 SWAP2 POP POP JUMP JUMPDEST PUSH0 DUP1 PUSH0 DUP1 PUSH0 DUP1 PUSH1 0xC0 DUP8 DUP10 SUB SLT ISZERO PUSH2 0x1D71 JUMPI PUSH2 0x1D70 PUSH2 0x11A9 JUMP JUMPDEST JUMPDEST PUSH0 DUP8 ADD MLOAD PUSH8 0xFFFFFFFFFFFFFFFF DUP2 GT ISZERO PUSH2 0x1D8E JUMPI PUSH2 0x1D8D PUSH2 0x11AD JUMP JUMPDEST JUMPDEST PUSH2 0x1D9A DUP10 DUP3 DUP11 ADD PUSH2 0x1CD8 JUMP JUMPDEST SWAP7 POP POP PUSH1 0x20 PUSH2 0x1DAB DUP10 DUP3 DUP11 ADD PUSH2 0x1D1B JUMP JUMPDEST SWAP6 POP POP PUSH1 0x40 PUSH2 0x1DBC DUP10 DUP3 DUP11 ADD PUSH2 0x1D1B JUMP JUMPDEST SWAP5 POP POP PUSH1 0x60 PUSH2 0x1DCD DUP10 DUP3 DUP11 ADD PUSH2 0x1D2F JUMP JUMPDEST SWAP4 POP POP PUSH1 0x80 PUSH2 0x1DDE DUP10 DUP3 DUP11 ADD PUSH2 0x1D2F JUMP JUMPDEST SWAP3 POP POP PUSH1 0xA0 PUSH2 0x1DEF DUP10 DUP3 DUP11 ADD PUSH2 0x1D43 JUMP JUMPDEST SWAP2 POP POP SWAP3 SWAP6 POP SWAP3 SWAP6 POP SWAP3 SWAP6 JUMP JUMPDEST PUSH0 PUSH2 0x1E06 DUP3 PUSH2 0x11B1 JUMP JUMPDEST SWAP2 POP PUSH2 0x1E11 DUP4 PUSH2 0x11B1 JUMP JUMPDEST SWAP3 POP DUP3 DUP3 ADD SWAP1 POP DUP1 DUP3 GT ISZERO PUSH2 0x1E29 JUMPI PUSH2 0x1E28 PUSH2 0x1B27 JUMP JUMPDEST JUMPDEST SWAP3 SWAP2 POP POP JUMP JUMPDEST PUSH0 PUSH1 0x40 DUP3 ADD SWAP1 POP PUSH2 0x1E42 PUSH0 DUP4 ADD DUP6 PUSH2 0x14CF JUMP JUMPDEST PUSH2 0x1E4F PUSH1 0x20 DUP4 ADD DUP5 PUSH2 0x1407 JUMP JUMPDEST SWAP4 SWAP3 POP POP POP JUMP JUMPDEST PUSH0 DUP2 SLOAD PUSH2 0x1E62 DUP2 PUSH2 0x185E JUMP JUMPDEST PUSH2 0x1E6C DUP2 DUP7 PUSH2 0x136F JUMP JUMPDEST SWAP5 POP PUSH1 0x1 DUP3 AND PUSH0 DUP2 EQ PUSH2 0x1E86 JUMPI PUSH1 0x1 DUP2 EQ PUSH2 0x1E9C JUMPI PUSH2 0x1ECE JUMP JUMPDEST PUSH1 0xFF NOT DUP4 AND DUP7 MSTORE DUP2 ISZERO ISZERO PUSH1 0x20 MUL DUP7 ADD SWAP4 POP PUSH2 0x1ECE JUMP JUMPDEST PUSH2 0x1EA5 DUP6 PUSH2 0x188E JUMP JUMPDEST PUSH0 JUMPDEST DUP4 DUP2 LT ISZERO PUSH2 0x1EC6 JUMPI DUP2 SLOAD DUP2 DUP10 ADD MSTORE PUSH1 0x1 DUP3 ADD SWAP2 POP PUSH1 0x20 DUP2 ADD SWAP1 POP PUSH2 0x1EA7 JUMP JUMPDEST DUP1 DUP9 ADD SWAP6 POP POP POP JUMPDEST POP POP POP SWAP3 SWAP2 POP POP JUMP JUMPDEST PUSH0 PUSH1 0x60 DUP3 ADD SWAP1 POP PUSH2 0x1EEA PUSH0 DUP4 ADD DUP7 PUSH2 0x1407 JUMP JUMPDEST PUSH2 0x1EF7 PUSH1 0x20 DUP4 ADD DUP6 PUSH2 0x1416 JUMP JUMPDEST DUP2 DUP2 SUB PUSH1 0x40 DUP4 ADD MSTORE PUSH2 0x1F09 DUP2 DUP5 PUSH2 0x1E56 JUMP JUMPDEST SWAP1 POP SWAP5 SWAP4 POP POP POP POP JUMP JUMPDEST PUSH0 PUSH1 0x60 DUP3 ADD SWAP1 POP PUSH2 0x1F26 PUSH0 DUP4 ADD DUP7 PUSH2 0x1407 JUMP JUMPDEST PUSH2 0x1F33 PUSH1 0x20 DUP4 ADD DUP6 PUSH2 0x14CF JUMP JUMPDEST PUSH2 0x1F40 PUSH1 0x40 DUP4 ADD DUP5 PUSH2 0x1542 JUMP JUMPDEST SWAP5 SWAP4 POP POP POP POP JUMP INVALID LOG2 PUSH5 0x6970667358 0x22 SLT KECCAK256 0x2D 0x5E MSTORE8 0xBE 0xEA 0xC9 ORIGIN PUSH3 0x24D114 XOR CREATE2 SUB 0x2F SAR 0x5E 0xBE ORIGIN 0x28 0xB4 DUP7 ORIGIN SWAP11 MSTORE 0xA6 0x27 BLOCKHASH MSTORE8 GASLIMIT 0xF SWAP2 PUSH5 0x736F6C6343 STOP ADDMOD EQ STOP CALLER "
				},
				"gasEstimates": {
					"creation": {
						"codeDepositCost": "1612400",
						"executionCost": "infinite",
						"totalCost": "infinite"
					},
					"external": {
						"commitTransaction(uint256,bool)": "infinite",
						"getAllCommittedTransactions()": "infinite",
						"getAllPendingTransactions()": "infinite",
						"getNumberOfNotCommittedTransactions()": "2506",
						"initiateTransaction(address,address,uint256,uint256,uint256,bool)": "infinite",
						"pendingTransactions(uint256)": "infinite",
						"retrieveUserInfo(address)": "infinite",
						"transactions(uint256)": "infinite"
					}
				},
				"methodIdentifiers": {
					"commitTransaction(uint256,bool)": "0b0f9dc3",
					"getAllCommittedTransactions()": "b1fce8c3",
					"getAllPendingTransactions()": "a9878c62",
					"getNumberOfNotCommittedTransactions()": "c0fa3f4b",
					"initiateTransaction(address,address,uint256,uint256,uint256,bool)": "4439a702",
					"pendingTransactions(uint256)": "63a8374d",
					"retrieveUserInfo(address)": "4d51573f",
					"transactions(uint256)": "9ace38c2"
				}
			},
			"storageLayout": {
				"storage": [
					{
						"astId": 29,
						"contract": "contracts/commitTransaction.sol:EnergyTradingContract",
						"label": "mainContract",
						"offset": 0,
						"slot": "0",
						"type": "t_contract(IMain)26"
					},
					{
						"astId": 67,
						"contract": "contracts/commitTransaction.sol:EnergyTradingContract",
						"label": "nextTransactionId",
						"offset": 0,
						"slot": "1",
						"type": "t_uint256"
					},
					{
						"astId": 72,
						"contract": "contracts/commitTransaction.sol:EnergyTradingContract",
						"label": "transactions",
						"offset": 0,
						"slot": "2",
						"type": "t_mapping(t_uint256,t_struct(Transaction)64_storage)"
					},
					{
						"astId": 75,
						"contract": "contracts/commitTransaction.sol:EnergyTradingContract",
						"label": "pendingTransactions",
						"offset": 0,
						"slot": "3",
						"type": "t_array(t_uint256)dyn_storage"
					},
					{
						"astId": 78,
						"contract": "contracts/commitTransaction.sol:EnergyTradingContract",
						"label": "committedTransactions",
						"offset": 0,
						"slot": "4",
						"type": "t_array(t_uint256)dyn_storage"
					}
				],
				"types": {
					"t_address": {
						"encoding": "inplace",
						"label": "address",
						"numberOfBytes": "20"
					},
					"t_array(t_uint256)dyn_storage": {
						"base": "t_uint256",
						"encoding": "dynamic_array",
						"label": "uint256[]",
						"numberOfBytes": "32"
					},
					"t_bool": {
						"encoding": "inplace",
						"label": "bool",
						"numberOfBytes": "1"
					},
					"t_contract(IMain)26": {
						"encoding": "inplace",
						"label": "contract IMain",
						"numberOfBytes": "20"
					},
					"t_enum(TransactionType)44": {
						"encoding": "inplace",
						"label": "enum EnergyTradingContract.TransactionType",
						"numberOfBytes": "1"
					},
					"t_mapping(t_uint256,t_struct(Transaction)64_storage)": {
						"encoding": "mapping",
						"key": "t_uint256",
						"label": "mapping(uint256 => struct EnergyTradingContract.Transaction)",
						"numberOfBytes": "32",
						"value": "t_struct(Transaction)64_storage"
					},
					"t_string_storage": {
						"encoding": "bytes",
						"label": "string",
						"numberOfBytes": "32"
					},
					"t_struct(Transaction)64_storage": {
						"encoding": "inplace",
						"label": "struct EnergyTradingContract.Transaction",
						"members": [
							{
								"astId": 46,
								"contract": "contracts/commitTransaction.sol:EnergyTradingContract",
								"label": "id",
								"offset": 0,
								"slot": "0",
								"type": "t_uint256"
							},
							{
								"astId": 48,
								"contract": "contracts/commitTransaction.sol:EnergyTradingContract",
								"label": "initiator",
								"offset": 0,
								"slot": "1",
								"type": "t_address"
							},
							{
								"astId": 50,
								"contract": "contracts/commitTransaction.sol:EnergyTradingContract",
								"label": "receiver",
								"offset": 0,
								"slot": "2",
								"type": "t_address"
							},
							{
								"astId": 52,
								"contract": "contracts/commitTransaction.sol:EnergyTradingContract",
								"label": "energyAmount",
								"offset": 0,
								"slot": "3",
								"type": "t_uint256"
							},
							{
								"astId": 54,
								"contract": "contracts/commitTransaction.sol:EnergyTradingContract",
								"label": "price",
								"offset": 0,
								"slot": "4",
								"type": "t_uint256"
							},
							{
								"astId": 56,
								"contract": "contracts/commitTransaction.sol:EnergyTradingContract",
								"label": "validUntil",
								"offset": 0,
								"slot": "5",
								"type": "t_uint256"
							},
							{
								"astId": 58,
								"contract": "contracts/commitTransaction.sol:EnergyTradingContract",
								"label": "committed",
								"offset": 0,
								"slot": "6",
								"type": "t_bool"
							},
							{
								"astId": 60,
								"contract": "contracts/commitTransaction.sol:EnergyTradingContract",
								"label": "status",
								"offset": 0,
								"slot": "7",
								"type": "t_string_storage"
							},
							{
								"astId": 63,
								"contract": "contracts/commitTransaction.sol:EnergyTradingContract",
								"label": "transactionType",
								"offset": 0,
								"slot": "8",
								"type": "t_enum(TransactionType)44"
							}
						],
						"numberOfBytes": "288"
					},
					"t_uint256": {
						"encoding": "inplace",
						"label": "uint256",
						"numberOfBytes": "32"
					}
				}
			},
			"userdoc": {
				"kind": "user",
				"methods": {},
				"version": 1
			}
		}
	}
}