{
	"contracts/RegisterationContract.sol": {
		"EnergyAsset": {
			"abi": [
				{
					"inputs": [],
					"stateMutability": "nonpayable",
					"type": "constructor"
				},
				{
					"inputs": [
						{
							"internalType": "address",
							"name": "sender",
							"type": "address"
						},
						{
							"internalType": "uint256",
							"name": "tokenId",
							"type": "uint256"
						},
						{
							"internalType": "address",
							"name": "owner",
							"type": "address"
						}
					],
					"name": "ERC721IncorrectOwner",
					"type": "error"
				},
				{
					"inputs": [
						{
							"internalType": "address",
							"name": "operator",
							"type": "address"
						},
						{
							"internalType": "uint256",
							"name": "tokenId",
							"type": "uint256"
						}
					],
					"name": "ERC721InsufficientApproval",
					"type": "error"
				},
				{
					"inputs": [
						{
							"internalType": "address",
							"name": "approver",
							"type": "address"
						}
					],
					"name": "ERC721InvalidApprover",
					"type": "error"
				},
				{
					"inputs": [
						{
							"internalType": "address",
							"name": "operator",
							"type": "address"
						}
					],
					"name": "ERC721InvalidOperator",
					"type": "error"
				},
				{
					"inputs": [
						{
							"internalType": "address",
							"name": "owner",
							"type": "address"
						}
					],
					"name": "ERC721InvalidOwner",
					"type": "error"
				},
				{
					"inputs": [
						{
							"internalType": "address",
							"name": "receiver",
							"type": "address"
						}
					],
					"name": "ERC721InvalidReceiver",
					"type": "error"
				},
				{
					"inputs": [
						{
							"internalType": "address",
							"name": "sender",
							"type": "address"
						}
					],
					"name": "ERC721InvalidSender",
					"type": "error"
				},
				{
					"inputs": [
						{
							"internalType": "uint256",
							"name": "tokenId",
							"type": "uint256"
						}
					],
					"name": "ERC721NonexistentToken",
					"type": "error"
				},
				{
					"anonymous": false,
					"inputs": [
						{
							"indexed": true,
							"internalType": "address",
							"name": "owner",
							"type": "address"
						},
						{
							"indexed": true,
							"internalType": "address",
							"name": "approved",
							"type": "address"
						},
						{
							"indexed": true,
							"internalType": "uint256",
							"name": "tokenId",
							"type": "uint256"
						}
					],
					"name": "Approval",
					"type": "event"
				},
				{
					"anonymous": false,
					"inputs": [
						{
							"indexed": true,
							"internalType": "address",
							"name": "owner",
							"type": "address"
						},
						{
							"indexed": true,
							"internalType": "address",
							"name": "operator",
							"type": "address"
						},
						{
							"indexed": false,
							"internalType": "bool",
							"name": "approved",
							"type": "bool"
						}
					],
					"name": "ApprovalForAll",
					"type": "event"
				},
				{
					"anonymous": false,
					"inputs": [
						{
							"indexed": false,
							"internalType": "uint256",
							"name": "_fromTokenId",
							"type": "uint256"
						},
						{
							"indexed": false,
							"internalType": "uint256",
							"name": "_toTokenId",
							"type": "uint256"
						}
					],
					"name": "BatchMetadataUpdate",
					"type": "event"
				},
				{
					"anonymous": false,
					"inputs": [
						{
							"indexed": false,
							"internalType": "uint256",
							"name": "_tokenId",
							"type": "uint256"
						}
					],
					"name": "MetadataUpdate",
					"type": "event"
				},
				{
					"anonymous": false,
					"inputs": [
						{
							"indexed": true,
							"internalType": "address",
							"name": "from",
							"type": "address"
						},
						{
							"indexed": true,
							"internalType": "address",
							"name": "to",
							"type": "address"
						},
						{
							"indexed": true,
							"internalType": "uint256",
							"name": "tokenId",
							"type": "uint256"
						}
					],
					"name": "Transfer",
					"type": "event"
				},
				{
					"inputs": [
						{
							"internalType": "address",
							"name": "to",
							"type": "address"
						},
						{
							"internalType": "uint256",
							"name": "tokenId",
							"type": "uint256"
						}
					],
					"name": "approve",
					"outputs": [],
					"stateMutability": "nonpayable",
					"type": "function"
				},
				{
					"inputs": [
						{
							"internalType": "address",
							"name": "owner",
							"type": "address"
						}
					],
					"name": "balanceOf",
					"outputs": [
						{
							"internalType": "uint256",
							"name": "",
							"type": "uint256"
						}
					],
					"stateMutability": "view",
					"type": "function"
				},
				{
					"inputs": [
						{
							"internalType": "uint256",
							"name": "tokenId",
							"type": "uint256"
						}
					],
					"name": "getApproved",
					"outputs": [
						{
							"internalType": "address",
							"name": "",
							"type": "address"
						}
					],
					"stateMutability": "view",
					"type": "function"
				},
				{
					"inputs": [
						{
							"internalType": "address",
							"name": "owner",
							"type": "address"
						},
						{
							"internalType": "address",
							"name": "operator",
							"type": "address"
						}
					],
					"name": "isApprovedForAll",
					"outputs": [
						{
							"internalType": "bool",
							"name": "",
							"type": "bool"
						}
					],
					"stateMutability": "view",
					"type": "function"
				},
				{
					"inputs": [],
					"name": "name",
					"outputs": [
						{
							"internalType": "string",
							"name": "",
							"type": "string"
						}
					],
					"stateMutability": "view",
					"type": "function"
				},
				{
					"inputs": [
						{
							"internalType": "uint256",
							"name": "tokenId",
							"type": "uint256"
						}
					],
					"name": "ownerOf",
					"outputs": [
						{
							"internalType": "address",
							"name": "",
							"type": "address"
						}
					],
					"stateMutability": "view",
					"type": "function"
				},
				{
					"inputs": [
						{
							"internalType": "address",
							"name": "user",
							"type": "address"
						},
						{
							"internalType": "string",
							"name": "tokenURI",
							"type": "string"
						}
					],
					"name": "registerAsset",
					"outputs": [
						{
							"internalType": "uint256",
							"name": "",
							"type": "uint256"
						}
					],
					"stateMutability": "nonpayable",
					"type": "function"
				},
				{
					"inputs": [
						{
							"internalType": "address",
							"name": "from",
							"type": "address"
						},
						{
							"internalType": "address",
							"name": "to",
							"type": "address"
						},
						{
							"internalType": "uint256",
							"name": "tokenId",
							"type": "uint256"
						}
					],
					"name": "safeTransferFrom",
					"outputs": [],
					"stateMutability": "nonpayable",
					"type": "function"
				},
				{
					"inputs": [
						{
							"internalType": "address",
							"name": "from",
							"type": "address"
						},
						{
							"internalType": "address",
							"name": "to",
							"type": "address"
						},
						{
							"internalType": "uint256",
							"name": "tokenId",
							"type": "uint256"
						},
						{
							"internalType": "bytes",
							"name": "data",
							"type": "bytes"
						}
					],
					"name": "safeTransferFrom",
					"outputs": [],
					"stateMutability": "nonpayable",
					"type": "function"
				},
				{
					"inputs": [
						{
							"internalType": "address",
							"name": "operator",
							"type": "address"
						},
						{
							"internalType": "bool",
							"name": "approved",
							"type": "bool"
						}
					],
					"name": "setApprovalForAll",
					"outputs": [],
					"stateMutability": "nonpayable",
					"type": "function"
				},
				{
					"inputs": [
						{
							"internalType": "bytes4",
							"name": "interfaceId",
							"type": "bytes4"
						}
					],
					"name": "supportsInterface",
					"outputs": [
						{
							"internalType": "bool",
							"name": "",
							"type": "bool"
						}
					],
					"stateMutability": "view",
					"type": "function"
				},
				{
					"inputs": [],
					"name": "symbol",
					"outputs": [
						{
							"internalType": "string",
							"name": "",
							"type": "string"
						}
					],
					"stateMutability": "view",
					"type": "function"
				},
				{
					"inputs": [
						{
							"internalType": "uint256",
							"name": "tokenId",
							"type": "uint256"
						}
					],
					"name": "tokenURI",
					"outputs": [
						{
							"internalType": "string",
							"name": "",
							"type": "string"
						}
					],
					"stateMutability": "view",
					"type": "function"
				},
				{
					"inputs": [
						{
							"internalType": "address",
							"name": "from",
							"type": "address"
						},
						{
							"internalType": "address",
							"name": "to",
							"type": "address"
						},
						{
							"internalType": "uint256",
							"name": "tokenId",
							"type": "uint256"
						}
					],
					"name": "transferFrom",
					"outputs": [],
					"stateMutability": "nonpayable",
					"type": "function"
				}
			],
			"devdoc": {
				"errors": {
					"ERC721IncorrectOwner(address,uint256,address)": [
						{
							"details": "Indicates an error related to the ownership over a particular token. Used in transfers.",
							"params": {
								"owner": "Address of the current owner of a token.",
								"sender": "Address whose tokens are being transferred.",
								"tokenId": "Identifier number of a token."
							}
						}
					],
					"ERC721InsufficientApproval(address,uint256)": [
						{
							"details": "Indicates a failure with the `operator`’s approval. Used in transfers.",
							"params": {
								"operator": "Address that may be allowed to operate on tokens without being their owner.",
								"tokenId": "Identifier number of a token."
							}
						}
					],
					"ERC721InvalidApprover(address)": [
						{
							"details": "Indicates a failure with the `approver` of a token to be approved. Used in approvals.",
							"params": {
								"approver": "Address initiating an approval operation."
							}
						}
					],
					"ERC721InvalidOperator(address)": [
						{
							"details": "Indicates a failure with the `operator` to be approved. Used in approvals.",
							"params": {
								"operator": "Address that may be allowed to operate on tokens without being their owner."
							}
						}
					],
					"ERC721InvalidOwner(address)": [
						{
							"details": "Indicates that an address can't be an owner. For example, `address(0)` is a forbidden owner in EIP-20. Used in balance queries.",
							"params": {
								"owner": "Address of the current owner of a token."
							}
						}
					],
					"ERC721InvalidReceiver(address)": [
						{
							"details": "Indicates a failure with the token `receiver`. Used in transfers.",
							"params": {
								"receiver": "Address to which tokens are being transferred."
							}
						}
					],
					"ERC721InvalidSender(address)": [
						{
							"details": "Indicates a failure with the token `sender`. Used in transfers.",
							"params": {
								"sender": "Address whose tokens are being transferred."
							}
						}
					],
					"ERC721NonexistentToken(uint256)": [
						{
							"details": "Indicates a `tokenId` whose `owner` is the zero address.",
							"params": {
								"tokenId": "Identifier number of a token."
							}
						}
					]
				},
				"events": {
					"Approval(address,address,uint256)": {
						"details": "Emitted when `owner` enables `approved` to manage the `tokenId` token."
					},
					"ApprovalForAll(address,address,bool)": {
						"details": "Emitted when `owner` enables or disables (`approved`) `operator` to manage all of its assets."
					},
					"BatchMetadataUpdate(uint256,uint256)": {
						"details": "This event emits when the metadata of a range of tokens is changed. So that the third-party platforms such as NFT market could timely update the images and related attributes of the NFTs."
					},
					"MetadataUpdate(uint256)": {
						"details": "This event emits when the metadata of a token is changed. So that the third-party platforms such as NFT market could timely update the images and related attributes of the NFT."
					},
					"Transfer(address,address,uint256)": {
						"details": "Emitted when `tokenId` token is transferred from `from` to `to`."
					}
				},
				"kind": "dev",
				"methods": {
					"approve(address,uint256)": {
						"details": "See {IERC721-approve}."
					},
					"balanceOf(address)": {
						"details": "See {IERC721-balanceOf}."
					},
					"getApproved(uint256)": {
						"details": "See {IERC721-getApproved}."
					},
					"isApprovedForAll(address,address)": {
						"details": "See {IERC721-isApprovedForAll}."
					},
					"name()": {
						"details": "See {IERC721Metadata-name}."
					},
					"ownerOf(uint256)": {
						"details": "See {IERC721-ownerOf}."
					},
					"safeTransferFrom(address,address,uint256)": {
						"details": "See {IERC721-safeTransferFrom}."
					},
					"safeTransferFrom(address,address,uint256,bytes)": {
						"details": "See {IERC721-safeTransferFrom}."
					},
					"setApprovalForAll(address,bool)": {
						"details": "See {IERC721-setApprovalForAll}."
					},
					"supportsInterface(bytes4)": {
						"details": "See {IERC165-supportsInterface}"
					},
					"symbol()": {
						"details": "See {IERC721Metadata-symbol}."
					},
					"tokenURI(uint256)": {
						"details": "See {IERC721Metadata-tokenURI}."
					},
					"transferFrom(address,address,uint256)": {
						"details": "See {IERC721-transferFrom}."
					}
				},
				"version": 1
			},
			"evm": {
				"assembly": "    /* \"contracts/RegisterationContract.sol\":201:655  contract EnergyAsset is ERC721URIStorage {... */\n  mstore(0x40, 0x80)\n    /* \"contracts/RegisterationContract.sol\":283:284  0 */\n  0x00\n    /* \"contracts/RegisterationContract.sol\":249:284  uint256 private _currentTokenId = 0 */\n  0x07\n  sstore\n    /* \"contracts/RegisterationContract.sol\":293:339  constructor() ERC721(\"EnergyAsset\", \"ENGA\") {} */\n  callvalue\n  dup1\n  iszero\n  tag_1\n  jumpi\n  0x00\n  dup1\n  revert\ntag_1:\n  pop\n    /* \"@openzeppelin/contracts/token/ERC721/ERC721.sol\":1381:1494  constructor(string memory name_, string memory symbol_) {... */\n  mload(0x40)\n  dup1\n  0x40\n  add\n  0x40\n  mstore\n  dup1\n  0x0b\n  dup2\n  mstore\n  0x20\n  add\n  0x456e657267794173736574000000000000000000000000000000000000000000\n  dup2\n  mstore\n  pop\n  mload(0x40)\n  dup1\n  0x40\n  add\n  0x40\n  mstore\n  dup1\n  0x04\n  dup2\n  mstore\n  0x20\n  add\n  0x454e474100000000000000000000000000000000000000000000000000000000\n  dup2\n  mstore\n  pop\n    /* \"@openzeppelin/contracts/token/ERC721/ERC721.sol\":1455:1460  name_ */\n  dup2\n    /* \"@openzeppelin/contracts/token/ERC721/ERC721.sol\":1447:1452  _name */\n  0x00\n    /* \"@openzeppelin/contracts/token/ERC721/ERC721.sol\":1447:1460  _name = name_ */\n  swap1\n  dup2\n  tag_5\n  swap2\n  swap1\n  tag_6\n  jump\t// in\ntag_5:\n  pop\n    /* \"@openzeppelin/contracts/token/ERC721/ERC721.sol\":1480:1487  symbol_ */\n  dup1\n    /* \"@openzeppelin/contracts/token/ERC721/ERC721.sol\":1470:1477  _symbol */\n  0x01\n    /* \"@openzeppelin/contracts/token/ERC721/ERC721.sol\":1470:1487  _symbol = symbol_ */\n  swap1\n  dup2\n  tag_7\n  swap2\n  swap1\n  tag_6\n  jump\t// in\ntag_7:\n  pop\n    /* \"@openzeppelin/contracts/token/ERC721/ERC721.sol\":1381:1494  constructor(string memory name_, string memory symbol_) {... */\n  pop\n  pop\n    /* \"contracts/RegisterationContract.sol\":201:655  contract EnergyAsset is ERC721URIStorage {... */\n  jump(tag_9)\n    /* \"#utility.yul\":7:106   */\ntag_10:\n    /* \"#utility.yul\":59:65   */\n  0x00\n    /* \"#utility.yul\":93:98   */\n  dup2\n    /* \"#utility.yul\":87:99   */\n  mload\n    /* \"#utility.yul\":77:99   */\n  swap1\n  pop\n    /* \"#utility.yul\":7:106   */\n  swap2\n  swap1\n  pop\n  jump\t// out\n    /* \"#utility.yul\":112:292   */\ntag_11:\n    /* \"#utility.yul\":160:237   */\n  0x4e487b7100000000000000000000000000000000000000000000000000000000\n    /* \"#utility.yul\":157:158   */\n  0x00\n    /* \"#utility.yul\":150:238   */\n  mstore\n    /* \"#utility.yul\":257:261   */\n  0x41\n    /* \"#utility.yul\":254:255   */\n  0x04\n    /* \"#utility.yul\":247:262   */\n  mstore\n    /* \"#utility.yul\":281:285   */\n  0x24\n    /* \"#utility.yul\":278:279   */\n  0x00\n    /* \"#utility.yul\":271:286   */\n  revert\n    /* \"#utility.yul\":298:478   */\ntag_12:\n    /* \"#utility.yul\":346:423   */\n  0x4e487b7100000000000000000000000000000000000000000000000000000000\n    /* \"#utility.yul\":343:344   */\n  0x00\n    /* \"#utility.yul\":336:424   */\n  mstore\n    /* \"#utility.yul\":443:447   */\n  0x22\n    /* \"#utility.yul\":440:441   */\n  0x04\n    /* \"#utility.yul\":433:448   */\n  mstore\n    /* \"#utility.yul\":467:471   */\n  0x24\n    /* \"#utility.yul\":464:465   */\n  0x00\n    /* \"#utility.yul\":457:472   */\n  revert\n    /* \"#utility.yul\":484:804   */\ntag_13:\n    /* \"#utility.yul\":528:534   */\n  0x00\n    /* \"#utility.yul\":565:566   */\n  0x02\n    /* \"#utility.yul\":559:563   */\n  dup3\n    /* \"#utility.yul\":555:567   */\n  div\n    /* \"#utility.yul\":545:567   */\n  swap1\n  pop\n    /* \"#utility.yul\":612:613   */\n  0x01\n    /* \"#utility.yul\":606:610   */\n  dup3\n    /* \"#utility.yul\":602:614   */\n  and\n    /* \"#utility.yul\":633:651   */\n  dup1\n    /* \"#utility.yul\":623:704   */\n  tag_35\n  jumpi\n    /* \"#utility.yul\":689:693   */\n  0x7f\n    /* \"#utility.yul\":681:687   */\n  dup3\n    /* \"#utility.yul\":677:694   */\n  and\n    /* \"#utility.yul\":667:694   */\n  swap2\n  pop\n    /* \"#utility.yul\":623:704   */\ntag_35:\n    /* \"#utility.yul\":751:753   */\n  0x20\n    /* \"#utility.yul\":743:749   */\n  dup3\n    /* \"#utility.yul\":740:754   */\n  lt\n    /* \"#utility.yul\":720:738   */\n  dup2\n    /* \"#utility.yul\":717:755   */\n  sub\n    /* \"#utility.yul\":714:798   */\n  tag_36\n  jumpi\n    /* \"#utility.yul\":770:788   */\n  tag_37\n  tag_12\n  jump\t// in\ntag_37:\n    /* \"#utility.yul\":714:798   */\ntag_36:\n    /* \"#utility.yul\":535:804   */\n  pop\n    /* \"#utility.yul\":484:804   */\n  swap2\n  swap1\n  pop\n  jump\t// out\n    /* \"#utility.yul\":810:951   */\ntag_14:\n    /* \"#utility.yul\":859:863   */\n  0x00\n    /* \"#utility.yul\":882:885   */\n  dup2\n    /* \"#utility.yul\":874:885   */\n  swap1\n  pop\n    /* \"#utility.yul\":905:908   */\n  dup2\n    /* \"#utility.yul\":902:903   */\n  0x00\n    /* \"#utility.yul\":895:909   */\n  mstore\n    /* \"#utility.yul\":939:943   */\n  0x20\n    /* \"#utility.yul\":936:937   */\n  0x00\n    /* \"#utility.yul\":926:944   */\n  keccak256\n    /* \"#utility.yul\":918:944   */\n  swap1\n  pop\n    /* \"#utility.yul\":810:951   */\n  swap2\n  swap1\n  pop\n  jump\t// out\n    /* \"#utility.yul\":957:1050   */\ntag_15:\n    /* \"#utility.yul\":994:1000   */\n  0x00\n    /* \"#utility.yul\":1041:1043   */\n  0x20\n    /* \"#utility.yul\":1036:1038   */\n  0x1f\n    /* \"#utility.yul\":1029:1034   */\n  dup4\n    /* \"#utility.yul\":1025:1039   */\n  add\n    /* \"#utility.yul\":1021:1044   */\n  div\n    /* \"#utility.yul\":1011:1044   */\n  swap1\n  pop\n    /* \"#utility.yul\":957:1050   */\n  swap2\n  swap1\n  pop\n  jump\t// out\n    /* \"#utility.yul\":1056:1163   */\ntag_16:\n    /* \"#utility.yul\":1100:1108   */\n  0x00\n    /* \"#utility.yul\":1150:1155   */\n  dup3\n    /* \"#utility.yul\":1144:1148   */\n  dup3\n    /* \"#utility.yul\":1140:1156   */\n  shl\n    /* \"#utility.yul\":1119:1156   */\n  swap1\n  pop\n    /* \"#utility.yul\":1056:1163   */\n  swap3\n  swap2\n  pop\n  pop\n  jump\t// out\n    /* \"#utility.yul\":1169:1562   */\ntag_17:\n    /* \"#utility.yul\":1238:1244   */\n  0x00\n    /* \"#utility.yul\":1288:1289   */\n  0x08\n    /* \"#utility.yul\":1276:1286   */\n  dup4\n    /* \"#utility.yul\":1272:1290   */\n  mul\n    /* \"#utility.yul\":1311:1408   */\n  tag_42\n    /* \"#utility.yul\":1341:1407   */\n  0xffffffffffffffffffffffffffffffffffffffffffffffffffffffffffffffff\n    /* \"#utility.yul\":1330:1339   */\n  dup3\n    /* \"#utility.yul\":1311:1408   */\n  tag_16\n  jump\t// in\ntag_42:\n    /* \"#utility.yul\":1429:1468   */\n  tag_43\n    /* \"#utility.yul\":1459:1467   */\n  dup7\n    /* \"#utility.yul\":1448:1457   */\n  dup4\n    /* \"#utility.yul\":1429:1468   */\n  tag_16\n  jump\t// in\ntag_43:\n    /* \"#utility.yul\":1417:1468   */\n  swap6\n  pop\n    /* \"#utility.yul\":1501:1505   */\n  dup1\n    /* \"#utility.yul\":1497:1506   */\n  not\n    /* \"#utility.yul\":1490:1495   */\n  dup5\n    /* \"#utility.yul\":1486:1507   */\n  and\n    /* \"#utility.yul\":1477:1507   */\n  swap4\n  pop\n    /* \"#utility.yul\":1550:1554   */\n  dup1\n    /* \"#utility.yul\":1540:1548   */\n  dup7\n    /* \"#utility.yul\":1536:1555   */\n  and\n    /* \"#utility.yul\":1529:1534   */\n  dup5\n    /* \"#utility.yul\":1526:1556   */\n  or\n    /* \"#utility.yul\":1516:1556   */\n  swap3\n  pop\n    /* \"#utility.yul\":1245:1562   */\n  pop\n  pop\n    /* \"#utility.yul\":1169:1562   */\n  swap4\n  swap3\n  pop\n  pop\n  pop\n  jump\t// out\n    /* \"#utility.yul\":1568:1645   */\ntag_18:\n    /* \"#utility.yul\":1605:1612   */\n  0x00\n    /* \"#utility.yul\":1634:1639   */\n  dup2\n    /* \"#utility.yul\":1623:1639   */\n  swap1\n  pop\n    /* \"#utility.yul\":1568:1645   */\n  swap2\n  swap1\n  pop\n  jump\t// out\n    /* \"#utility.yul\":1651:1711   */\ntag_19:\n    /* \"#utility.yul\":1679:1682   */\n  0x00\n    /* \"#utility.yul\":1700:1705   */\n  dup2\n    /* \"#utility.yul\":1693:1705   */\n  swap1\n  pop\n    /* \"#utility.yul\":1651:1711   */\n  swap2\n  swap1\n  pop\n  jump\t// out\n    /* \"#utility.yul\":1717:1859   */\ntag_20:\n    /* \"#utility.yul\":1767:1776   */\n  0x00\n    /* \"#utility.yul\":1800:1853   */\n  tag_47\n    /* \"#utility.yul\":1818:1852   */\n  tag_48\n    /* \"#utility.yul\":1827:1851   */\n  tag_49\n    /* \"#utility.yul\":1845:1850   */\n  dup5\n    /* \"#utility.yul\":1827:1851   */\n  tag_18\n  jump\t// in\ntag_49:\n    /* \"#utility.yul\":1818:1852   */\n  tag_19\n  jump\t// in\ntag_48:\n    /* \"#utility.yul\":1800:1853   */\n  tag_18\n  jump\t// in\ntag_47:\n    /* \"#utility.yul\":1787:1853   */\n  swap1\n  pop\n    /* \"#utility.yul\":1717:1859   */\n  swap2\n  swap1\n  pop\n  jump\t// out\n    /* \"#utility.yul\":1865:1940   */\ntag_21:\n    /* \"#utility.yul\":1908:1911   */\n  0x00\n    /* \"#utility.yul\":1929:1934   */\n  dup2\n    /* \"#utility.yul\":1922:1934   */\n  swap1\n  pop\n    /* \"#utility.yul\":1865:1940   */\n  swap2\n  swap1\n  pop\n  jump\t// out\n    /* \"#utility.yul\":1946:2215   */\ntag_22:\n    /* \"#utility.yul\":2056:2095   */\n  tag_52\n    /* \"#utility.yul\":2087:2094   */\n  dup4\n    /* \"#utility.yul\":2056:2095   */\n  tag_20\n  jump\t// in\ntag_52:\n    /* \"#utility.yul\":2117:2208   */\n  tag_53\n    /* \"#utility.yul\":2166:2207   */\n  tag_54\n    /* \"#utility.yul\":2190:2206   */\n  dup3\n    /* \"#utility.yul\":2166:2207   */\n  tag_21\n  jump\t// in\ntag_54:\n    /* \"#utility.yul\":2158:2164   */\n  dup5\n    /* \"#utility.yul\":2151:2155   */\n  dup5\n    /* \"#utility.yul\":2145:2156   */\n  sload\n    /* \"#utility.yul\":2117:2208   */\n  tag_17\n  jump\t// in\ntag_53:\n    /* \"#utility.yul\":2111:2115   */\n  dup3\n    /* \"#utility.yul\":2104:2209   */\n  sstore\n    /* \"#utility.yul\":2022:2215   */\n  pop\n    /* \"#utility.yul\":1946:2215   */\n  pop\n  pop\n  pop\n  jump\t// out\n    /* \"#utility.yul\":2221:2294   */\ntag_23:\n    /* \"#utility.yul\":2266:2269   */\n  0x00\n    /* \"#utility.yul\":2221:2294   */\n  swap1\n  jump\t// out\n    /* \"#utility.yul\":2300:2489   */\ntag_24:\n    /* \"#utility.yul\":2377:2409   */\n  tag_57\n  tag_23\n  jump\t// in\ntag_57:\n    /* \"#utility.yul\":2418:2483   */\n  tag_58\n    /* \"#utility.yul\":2476:2482   */\n  dup2\n    /* \"#utility.yul\":2468:2474   */\n  dup5\n    /* \"#utility.yul\":2462:2466   */\n  dup5\n    /* \"#utility.yul\":2418:2483   */\n  tag_22\n  jump\t// in\ntag_58:\n    /* \"#utility.yul\":2353:2489   */\n  pop\n    /* \"#utility.yul\":2300:2489   */\n  pop\n  pop\n  jump\t// out\n    /* \"#utility.yul\":2495:2681   */\ntag_25:\n    /* \"#utility.yul\":2555:2675   */\ntag_60:\n    /* \"#utility.yul\":2572:2575   */\n  dup2\n    /* \"#utility.yul\":2565:2570   */\n  dup2\n    /* \"#utility.yul\":2562:2576   */\n  lt\n    /* \"#utility.yul\":2555:2675   */\n  iszero\n  tag_62\n  jumpi\n    /* \"#utility.yul\":2626:2665   */\n  tag_63\n    /* \"#utility.yul\":2663:2664   */\n  0x00\n    /* \"#utility.yul\":2656:2661   */\n  dup3\n    /* \"#utility.yul\":2626:2665   */\n  tag_24\n  jump\t// in\ntag_63:\n    /* \"#utility.yul\":2599:2600   */\n  0x01\n    /* \"#utility.yul\":2592:2597   */\n  dup2\n    /* \"#utility.yul\":2588:2601   */\n  add\n    /* \"#utility.yul\":2579:2601   */\n  swap1\n  pop\n    /* \"#utility.yul\":2555:2675   */\n  jump(tag_60)\ntag_62:\n    /* \"#utility.yul\":2495:2681   */\n  pop\n  pop\n  jump\t// out\n    /* \"#utility.yul\":2687:3230   */\ntag_26:\n    /* \"#utility.yul\":2788:2790   */\n  0x1f\n    /* \"#utility.yul\":2783:2786   */\n  dup3\n    /* \"#utility.yul\":2780:2791   */\n  gt\n    /* \"#utility.yul\":2777:3223   */\n  iszero\n  tag_65\n  jumpi\n    /* \"#utility.yul\":2822:2860   */\n  tag_66\n    /* \"#utility.yul\":2854:2859   */\n  dup2\n    /* \"#utility.yul\":2822:2860   */\n  tag_14\n  jump\t// in\ntag_66:\n    /* \"#utility.yul\":2906:2935   */\n  tag_67\n    /* \"#utility.yul\":2924:2934   */\n  dup5\n    /* \"#utility.yul\":2906:2935   */\n  tag_15\n  jump\t// in\ntag_67:\n    /* \"#utility.yul\":2896:2904   */\n  dup2\n    /* \"#utility.yul\":2892:2936   */\n  add\n    /* \"#utility.yul\":3089:3091   */\n  0x20\n    /* \"#utility.yul\":3077:3087   */\n  dup6\n    /* \"#utility.yul\":3074:3092   */\n  lt\n    /* \"#utility.yul\":3071:3120   */\n  iszero\n  tag_68\n  jumpi\n    /* \"#utility.yul\":3110:3118   */\n  dup2\n    /* \"#utility.yul\":3095:3118   */\n  swap1\n  pop\n    /* \"#utility.yul\":3071:3120   */\ntag_68:\n    /* \"#utility.yul\":3133:3213   */\n  tag_69\n    /* \"#utility.yul\":3189:3211   */\n  tag_70\n    /* \"#utility.yul\":3207:3210   */\n  dup6\n    /* \"#utility.yul\":3189:3211   */\n  tag_15\n  jump\t// in\ntag_70:\n    /* \"#utility.yul\":3179:3187   */\n  dup4\n    /* \"#utility.yul\":3175:3212   */\n  add\n    /* \"#utility.yul\":3162:3173   */\n  dup3\n    /* \"#utility.yul\":3133:3213   */\n  tag_25\n  jump\t// in\ntag_69:\n    /* \"#utility.yul\":2792:3223   */\n  pop\n  pop\n    /* \"#utility.yul\":2777:3223   */\ntag_65:\n    /* \"#utility.yul\":2687:3230   */\n  pop\n  pop\n  pop\n  jump\t// out\n    /* \"#utility.yul\":3236:3353   */\ntag_27:\n    /* \"#utility.yul\":3290:3298   */\n  0x00\n    /* \"#utility.yul\":3340:3345   */\n  dup3\n    /* \"#utility.yul\":3334:3338   */\n  dup3\n    /* \"#utility.yul\":3330:3346   */\n  shr\n    /* \"#utility.yul\":3309:3346   */\n  swap1\n  pop\n    /* \"#utility.yul\":3236:3353   */\n  swap3\n  swap2\n  pop\n  pop\n  jump\t// out\n    /* \"#utility.yul\":3359:3528   */\ntag_28:\n    /* \"#utility.yul\":3403:3409   */\n  0x00\n    /* \"#utility.yul\":3436:3487   */\n  tag_73\n    /* \"#utility.yul\":3484:3485   */\n  0x00\n    /* \"#utility.yul\":3480:3486   */\n  not\n    /* \"#utility.yul\":3472:3477   */\n  dup5\n    /* \"#utility.yul\":3469:3470   */\n  0x08\n    /* \"#utility.yul\":3465:3478   */\n  mul\n    /* \"#utility.yul\":3436:3487   */\n  tag_27\n  jump\t// in\ntag_73:\n    /* \"#utility.yul\":3432:3488   */\n  not\n    /* \"#utility.yul\":3517:3521   */\n  dup1\n    /* \"#utility.yul\":3511:3515   */\n  dup4\n    /* \"#utility.yul\":3507:3522   */\n  and\n    /* \"#utility.yul\":3497:3522   */\n  swap2\n  pop\n    /* \"#utility.yul\":3410:3528   */\n  pop\n    /* \"#utility.yul\":3359:3528   */\n  swap3\n  swap2\n  pop\n  pop\n  jump\t// out\n    /* \"#utility.yul\":3533:3828   */\ntag_29:\n    /* \"#utility.yul\":3609:3613   */\n  0x00\n    /* \"#utility.yul\":3755:3784   */\n  tag_75\n    /* \"#utility.yul\":3780:3783   */\n  dup4\n    /* \"#utility.yul\":3774:3778   */\n  dup4\n    /* \"#utility.yul\":3755:3784   */\n  tag_28\n  jump\t// in\ntag_75:\n    /* \"#utility.yul\":3747:3784   */\n  swap2\n  pop\n    /* \"#utility.yul\":3817:3820   */\n  dup3\n    /* \"#utility.yul\":3814:3815   */\n  0x02\n    /* \"#utility.yul\":3810:3821   */\n  mul\n    /* \"#utility.yul\":3804:3808   */\n  dup3\n    /* \"#utility.yul\":3801:3822   */\n  or\n    /* \"#utility.yul\":3793:3822   */\n  swap1\n  pop\n    /* \"#utility.yul\":3533:3828   */\n  swap3\n  swap2\n  pop\n  pop\n  jump\t// out\n    /* \"#utility.yul\":3833:5228   */\ntag_6:\n    /* \"#utility.yul\":3950:3987   */\n  tag_77\n    /* \"#utility.yul\":3983:3986   */\n  dup3\n    /* \"#utility.yul\":3950:3987   */\n  tag_10\n  jump\t// in\ntag_77:\n    /* \"#utility.yul\":4052:4070   */\n  0xffffffffffffffff\n    /* \"#utility.yul\":4044:4050   */\n  dup2\n    /* \"#utility.yul\":4041:4071   */\n  gt\n    /* \"#utility.yul\":4038:4094   */\n  iszero\n  tag_78\n  jumpi\n    /* \"#utility.yul\":4074:4092   */\n  tag_79\n  tag_11\n  jump\t// in\ntag_79:\n    /* \"#utility.yul\":4038:4094   */\ntag_78:\n    /* \"#utility.yul\":4118:4156   */\n  tag_80\n    /* \"#utility.yul\":4150:4154   */\n  dup3\n    /* \"#utility.yul\":4144:4155   */\n  sload\n    /* \"#utility.yul\":4118:4156   */\n  tag_13\n  jump\t// in\ntag_80:\n    /* \"#utility.yul\":4203:4270   */\n  tag_81\n    /* \"#utility.yul\":4263:4269   */\n  dup3\n    /* \"#utility.yul\":4255:4261   */\n  dup3\n    /* \"#utility.yul\":4249:4253   */\n  dup6\n    /* \"#utility.yul\":4203:4270   */\n  tag_26\n  jump\t// in\ntag_81:\n    /* \"#utility.yul\":4297:4298   */\n  0x00\n    /* \"#utility.yul\":4321:4325   */\n  0x20\n    /* \"#utility.yul\":4308:4325   */\n  swap1\n  pop\n    /* \"#utility.yul\":4353:4355   */\n  0x1f\n    /* \"#utility.yul\":4345:4351   */\n  dup4\n    /* \"#utility.yul\":4342:4356   */\n  gt\n    /* \"#utility.yul\":4370:4371   */\n  0x01\n    /* \"#utility.yul\":4365:4983   */\n  dup2\n  eq\n  tag_83\n  jumpi\n    /* \"#utility.yul\":5027:5028   */\n  0x00\n    /* \"#utility.yul\":5044:5050   */\n  dup5\n    /* \"#utility.yul\":5041:5118   */\n  iszero\n  tag_84\n  jumpi\n    /* \"#utility.yul\":5093:5102   */\n  dup3\n    /* \"#utility.yul\":5088:5091   */\n  dup8\n    /* \"#utility.yul\":5084:5103   */\n  add\n    /* \"#utility.yul\":5078:5104   */\n  mload\n    /* \"#utility.yul\":5069:5104   */\n  swap1\n  pop\n    /* \"#utility.yul\":5041:5118   */\ntag_84:\n    /* \"#utility.yul\":5144:5211   */\n  tag_85\n    /* \"#utility.yul\":5204:5210   */\n  dup6\n    /* \"#utility.yul\":5197:5202   */\n  dup3\n    /* \"#utility.yul\":5144:5211   */\n  tag_29\n  jump\t// in\ntag_85:\n    /* \"#utility.yul\":5138:5142   */\n  dup7\n    /* \"#utility.yul\":5131:5212   */\n  sstore\n    /* \"#utility.yul\":5000:5222   */\n  pop\n    /* \"#utility.yul\":4335:5222   */\n  jump(tag_82)\n    /* \"#utility.yul\":4365:4983   */\ntag_83:\n    /* \"#utility.yul\":4417:4421   */\n  0x1f\n    /* \"#utility.yul\":4413:4422   */\n  not\n    /* \"#utility.yul\":4405:4411   */\n  dup5\n    /* \"#utility.yul\":4401:4423   */\n  and\n    /* \"#utility.yul\":4451:4488   */\n  tag_86\n    /* \"#utility.yul\":4483:4487   */\n  dup7\n    /* \"#utility.yul\":4451:4488   */\n  tag_14\n  jump\t// in\ntag_86:\n    /* \"#utility.yul\":4510:4511   */\n  0x00\n    /* \"#utility.yul\":4524:4732   */\ntag_87:\n    /* \"#utility.yul\":4538:4545   */\n  dup3\n    /* \"#utility.yul\":4535:4536   */\n  dup2\n    /* \"#utility.yul\":4532:4546   */\n  lt\n    /* \"#utility.yul\":4524:4732   */\n  iszero\n  tag_89\n  jumpi\n    /* \"#utility.yul\":4617:4626   */\n  dup5\n    /* \"#utility.yul\":4612:4615   */\n  dup10\n    /* \"#utility.yul\":4608:4627   */\n  add\n    /* \"#utility.yul\":4602:4628   */\n  mload\n    /* \"#utility.yul\":4594:4600   */\n  dup3\n    /* \"#utility.yul\":4587:4629   */\n  sstore\n    /* \"#utility.yul\":4668:4669   */\n  0x01\n    /* \"#utility.yul\":4660:4666   */\n  dup3\n    /* \"#utility.yul\":4656:4670   */\n  add\n    /* \"#utility.yul\":4646:4670   */\n  swap2\n  pop\n    /* \"#utility.yul\":4715:4717   */\n  0x20\n    /* \"#utility.yul\":4704:4713   */\n  dup6\n    /* \"#utility.yul\":4700:4718   */\n  add\n    /* \"#utility.yul\":4687:4718   */\n  swap5\n  pop\n    /* \"#utility.yul\":4561:4565   */\n  0x20\n    /* \"#utility.yul\":4558:4559   */\n  dup2\n    /* \"#utility.yul\":4554:4566   */\n  add\n    /* \"#utility.yul\":4549:4566   */\n  swap1\n  pop\n    /* \"#utility.yul\":4524:4732   */\n  jump(tag_87)\ntag_89:\n    /* \"#utility.yul\":4760:4766   */\n  dup7\n    /* \"#utility.yul\":4751:4758   */\n  dup4\n    /* \"#utility.yul\":4748:4767   */\n  lt\n    /* \"#utility.yul\":4745:4924   */\n  iszero\n  tag_90\n  jumpi\n    /* \"#utility.yul\":4818:4827   */\n  dup5\n    /* \"#utility.yul\":4813:4816   */\n  dup10\n    /* \"#utility.yul\":4809:4828   */\n  add\n    /* \"#utility.yul\":4803:4829   */\n  mload\n    /* \"#utility.yul\":4861:4909   */\n  tag_91\n    /* \"#utility.yul\":4903:4907   */\n  0x1f\n    /* \"#utility.yul\":4895:4901   */\n  dup10\n    /* \"#utility.yul\":4891:4908   */\n  and\n    /* \"#utility.yul\":4880:4889   */\n  dup3\n    /* \"#utility.yul\":4861:4909   */\n  tag_28\n  jump\t// in\ntag_91:\n    /* \"#utility.yul\":4853:4859   */\n  dup4\n    /* \"#utility.yul\":4846:4910   */\n  sstore\n    /* \"#utility.yul\":4768:4924   */\n  pop\n    /* \"#utility.yul\":4745:4924   */\ntag_90:\n    /* \"#utility.yul\":4970:4971   */\n  0x01\n    /* \"#utility.yul\":4966:4967   */\n  0x02\n    /* \"#utility.yul\":4958:4964   */\n  dup9\n    /* \"#utility.yul\":4954:4968   */\n  mul\n    /* \"#utility.yul\":4950:4972   */\n  add\n    /* \"#utility.yul\":4944:4948   */\n  dup9\n    /* \"#utility.yul\":4937:4973   */\n  sstore\n    /* \"#utility.yul\":4372:4983   */\n  pop\n  pop\n  pop\n    /* \"#utility.yul\":4335:5222   */\ntag_82:\n  pop\n    /* \"#utility.yul\":3925:5228   */\n  pop\n  pop\n  pop\n    /* \"#utility.yul\":3833:5228   */\n  pop\n  pop\n  jump\t// out\n    /* \"contracts/RegisterationContract.sol\":201:655  contract EnergyAsset is ERC721URIStorage {... */\ntag_9:\n  dataSize(sub_0)\n  dup1\n  dataOffset(sub_0)\n  0x00\n  codecopy\n  0x00\n  return\nstop\n\nsub_0: assembly {\n        /* \"contracts/RegisterationContract.sol\":201:655  contract EnergyAsset is ERC721URIStorage {... */\n      mstore(0x40, 0x80)\n      callvalue\n      dup1\n      iszero\n      tag_1\n      jumpi\n      0x00\n      dup1\n      revert\n    tag_1:\n      pop\n      jumpi(tag_2, lt(calldatasize, 0x04))\n      shr(0xe0, calldataload(0x00))\n      dup1\n      0x70a08231\n      gt\n      tag_17\n      jumpi\n      dup1\n      0xb4a5a983\n      gt\n      tag_18\n      jumpi\n      dup1\n      0xb4a5a983\n      eq\n      tag_13\n      jumpi\n      dup1\n      0xb88d4fde\n      eq\n      tag_14\n      jumpi\n      dup1\n      0xc87b56dd\n      eq\n      tag_15\n      jumpi\n      dup1\n      0xe985e9c5\n      eq\n      tag_16\n      jumpi\n      jump(tag_2)\n    tag_18:\n      dup1\n      0x70a08231\n      eq\n      tag_10\n      jumpi\n      dup1\n      0x95d89b41\n      eq\n      tag_11\n      jumpi\n      dup1\n      0xa22cb465\n      eq\n      tag_12\n      jumpi\n      jump(tag_2)\n    tag_17:\n      dup1\n      0x095ea7b3\n      gt\n      tag_19\n      jumpi\n      dup1\n      0x095ea7b3\n      eq\n      tag_6\n      jumpi\n      dup1\n      0x23b872dd\n      eq\n      tag_7\n      jumpi\n      dup1\n      0x42842e0e\n      eq\n      tag_8\n      jumpi\n      dup1\n      0x6352211e\n      eq\n      tag_9\n      jumpi\n      jump(tag_2)\n    tag_19:\n      dup1\n      0x01ffc9a7\n      eq\n      tag_3\n      jumpi\n      dup1\n      0x06fdde03\n      eq\n      tag_4\n      jumpi\n      dup1\n      0x081812fc\n      eq\n      tag_5\n      jumpi\n    tag_2:\n      0x00\n      dup1\n      revert\n        /* \"@openzeppelin/contracts/token/ERC721/extensions/ERC721URIStorage.sol\":937:1144  function supportsInterface(bytes4 interfaceId) public view virtual override(ERC721, IERC165) returns (bool) {... */\n    tag_3:\n      tag_20\n      0x04\n      dup1\n      calldatasize\n      sub\n      dup2\n      add\n      swap1\n      tag_21\n      swap2\n      swap1\n      tag_22\n      jump\t// in\n    tag_21:\n      tag_23\n      jump\t// in\n    tag_20:\n      mload(0x40)\n      tag_24\n      swap2\n      swap1\n      tag_25\n      jump\t// in\n    tag_24:\n      mload(0x40)\n      dup1\n      swap2\n      sub\n      swap1\n      return\n        /* \"@openzeppelin/contracts/token/ERC721/ERC721.sol\":2365:2454  function name() public view virtual returns (string memory) {... */\n    tag_4:\n      tag_26\n      tag_27\n      jump\t// in\n    tag_26:\n      mload(0x40)\n      tag_28\n      swap2\n      swap1\n      tag_29\n      jump\t// in\n    tag_28:\n      mload(0x40)\n      dup1\n      swap2\n      sub\n      swap1\n      return\n        /* \"@openzeppelin/contracts/token/ERC721/ERC721.sol\":3497:3651  function getApproved(uint256 tokenId) public view virtual returns (address) {... */\n    tag_5:\n      tag_30\n      0x04\n      dup1\n      calldatasize\n      sub\n      dup2\n      add\n      swap1\n      tag_31\n      swap2\n      swap1\n      tag_32\n      jump\t// in\n    tag_31:\n      tag_33\n      jump\t// in\n    tag_30:\n      mload(0x40)\n      tag_34\n      swap2\n      swap1\n      tag_35\n      jump\t// in\n    tag_34:\n      mload(0x40)\n      dup1\n      swap2\n      sub\n      swap1\n      return\n        /* \"@openzeppelin/contracts/token/ERC721/ERC721.sol\":3323:3436  function approve(address to, uint256 tokenId) public virtual {... */\n    tag_6:\n      tag_36\n      0x04\n      dup1\n      calldatasize\n      sub\n      dup2\n      add\n      swap1\n      tag_37\n      swap2\n      swap1\n      tag_38\n      jump\t// in\n    tag_37:\n      tag_39\n      jump\t// in\n    tag_36:\n      stop\n        /* \"@openzeppelin/contracts/token/ERC721/ERC721.sol\":4143:4721  function transferFrom(address from, address to, uint256 tokenId) public virtual {... */\n    tag_7:\n      tag_40\n      0x04\n      dup1\n      calldatasize\n      sub\n      dup2\n      add\n      swap1\n      tag_41\n      swap2\n      swap1\n      tag_42\n      jump\t// in\n    tag_41:\n      tag_43\n      jump\t// in\n    tag_40:\n      stop\n        /* \"@openzeppelin/contracts/token/ERC721/ERC721.sol\":4787:4919  function safeTransferFrom(address from, address to, uint256 tokenId) public {... */\n    tag_8:\n      tag_44\n      0x04\n      dup1\n      calldatasize\n      sub\n      dup2\n      add\n      swap1\n      tag_45\n      swap2\n      swap1\n      tag_42\n      jump\t// in\n    tag_45:\n      tag_46\n      jump\t// in\n    tag_44:\n      stop\n        /* \"@openzeppelin/contracts/token/ERC721/ERC721.sol\":2185:2303  function ownerOf(uint256 tokenId) public view virtual returns (address) {... */\n    tag_9:\n      tag_47\n      0x04\n      dup1\n      calldatasize\n      sub\n      dup2\n      add\n      swap1\n      tag_48\n      swap2\n      swap1\n      tag_32\n      jump\t// in\n    tag_48:\n      tag_49\n      jump\t// in\n    tag_47:\n      mload(0x40)\n      tag_50\n      swap2\n      swap1\n      tag_35\n      jump\t// in\n    tag_50:\n      mload(0x40)\n      dup1\n      swap2\n      sub\n      swap1\n      return\n        /* \"@openzeppelin/contracts/token/ERC721/ERC721.sol\":1920:2128  function balanceOf(address owner) public view virtual returns (uint256) {... */\n    tag_10:\n      tag_51\n      0x04\n      dup1\n      calldatasize\n      sub\n      dup2\n      add\n      swap1\n      tag_52\n      swap2\n      swap1\n      tag_53\n      jump\t// in\n    tag_52:\n      tag_54\n      jump\t// in\n    tag_51:\n      mload(0x40)\n      tag_55\n      swap2\n      swap1\n      tag_56\n      jump\t// in\n    tag_55:\n      mload(0x40)\n      dup1\n      swap2\n      sub\n      swap1\n      return\n        /* \"@openzeppelin/contracts/token/ERC721/ERC721.sol\":2518:2611  function symbol() public view virtual returns (string memory) {... */\n    tag_11:\n      tag_57\n      tag_58\n      jump\t// in\n    tag_57:\n      mload(0x40)\n      tag_59\n      swap2\n      swap1\n      tag_29\n      jump\t// in\n    tag_59:\n      mload(0x40)\n      dup1\n      swap2\n      sub\n      swap1\n      return\n        /* \"@openzeppelin/contracts/token/ERC721/ERC721.sol\":3718:3862  function setApprovalForAll(address operator, bool approved) public virtual {... */\n    tag_12:\n      tag_60\n      0x04\n      dup1\n      calldatasize\n      sub\n      dup2\n      add\n      swap1\n      tag_61\n      swap2\n      swap1\n      tag_62\n      jump\t// in\n    tag_61:\n      tag_63\n      jump\t// in\n    tag_60:\n      stop\n        /* \"contracts/RegisterationContract.sol\":347:652  function registerAsset(address user, string memory tokenURI) public returns (uint256) {... */\n    tag_13:\n      tag_64\n      0x04\n      dup1\n      calldatasize\n      sub\n      dup2\n      add\n      swap1\n      tag_65\n      swap2\n      swap1\n      tag_66\n      jump\t// in\n    tag_65:\n      tag_67\n      jump\t// in\n    tag_64:\n      mload(0x40)\n      tag_68\n      swap2\n      swap1\n      tag_56\n      jump\t// in\n    tag_68:\n      mload(0x40)\n      dup1\n      swap2\n      sub\n      swap1\n      return\n        /* \"@openzeppelin/contracts/token/ERC721/ERC721.sol\":4985:5193  function safeTransferFrom(address from, address to, uint256 tokenId, bytes memory data) public virtual {... */\n    tag_14:\n      tag_69\n      0x04\n      dup1\n      calldatasize\n      sub\n      dup2\n      add\n      swap1\n      tag_70\n      swap2\n      swap1\n      tag_71\n      jump\t// in\n    tag_70:\n      tag_72\n      jump\t// in\n    tag_69:\n      stop\n        /* \"@openzeppelin/contracts/token/ERC721/extensions/ERC721URIStorage.sol\":1210:1803  function tokenURI(uint256 tokenId) public view virtual override returns (string memory) {... */\n    tag_15:\n      tag_73\n      0x04\n      dup1\n      calldatasize\n      sub\n      dup2\n      add\n      swap1\n      tag_74\n      swap2\n      swap1\n      tag_32\n      jump\t// in\n    tag_74:\n      tag_75\n      jump\t// in\n    tag_73:\n      mload(0x40)\n      tag_76\n      swap2\n      swap1\n      tag_29\n      jump\t// in\n    tag_76:\n      mload(0x40)\n      dup1\n      swap2\n      sub\n      swap1\n      return\n        /* \"@openzeppelin/contracts/token/ERC721/ERC721.sol\":3928:4081  function isApprovedForAll(address owner, address operator) public view virtual returns (bool) {... */\n    tag_16:\n      tag_77\n      0x04\n      dup1\n      calldatasize\n      sub\n      dup2\n      add\n      swap1\n      tag_78\n      swap2\n      swap1\n      tag_79\n      jump\t// in\n    tag_78:\n      tag_80\n      jump\t// in\n    tag_77:\n      mload(0x40)\n      tag_81\n      swap2\n      swap1\n      tag_25\n      jump\t// in\n    tag_81:\n      mload(0x40)\n      dup1\n      swap2\n      sub\n      swap1\n      return\n        /* \"@openzeppelin/contracts/token/ERC721/extensions/ERC721URIStorage.sol\":937:1144  function supportsInterface(bytes4 interfaceId) public view virtual override(ERC721, IERC165) returns (bool) {... */\n    tag_23:\n        /* \"@openzeppelin/contracts/token/ERC721/extensions/ERC721URIStorage.sol\":1039:1043  bool */\n      0x00\n        /* \"@openzeppelin/contracts/token/ERC721/extensions/ERC721URIStorage.sol\":760:770  0x49064906 */\n      0x49064906\n        /* \"@openzeppelin/contracts/token/ERC721/extensions/ERC721URIStorage.sol\":753:771  bytes4(0x49064906) */\n      0xe0\n      shl\n        /* \"@openzeppelin/contracts/token/ERC721/extensions/ERC721URIStorage.sol\":1062:1097  interfaceId == ERC4906_INTERFACE_ID */\n      not(0xffffffffffffffffffffffffffffffffffffffffffffffffffffffff)\n      and\n        /* \"@openzeppelin/contracts/token/ERC721/extensions/ERC721URIStorage.sol\":1062:1073  interfaceId */\n      dup3\n        /* \"@openzeppelin/contracts/token/ERC721/extensions/ERC721URIStorage.sol\":1062:1097  interfaceId == ERC4906_INTERFACE_ID */\n      not(0xffffffffffffffffffffffffffffffffffffffffffffffffffffffff)\n      and\n      eq\n        /* \"@openzeppelin/contracts/token/ERC721/extensions/ERC721URIStorage.sol\":1062:1137  interfaceId == ERC4906_INTERFACE_ID || super.supportsInterface(interfaceId) */\n      dup1\n      tag_83\n      jumpi\n      pop\n        /* \"@openzeppelin/contracts/token/ERC721/extensions/ERC721URIStorage.sol\":1101:1137  super.supportsInterface(interfaceId) */\n      tag_84\n        /* \"@openzeppelin/contracts/token/ERC721/extensions/ERC721URIStorage.sol\":1125:1136  interfaceId */\n      dup3\n        /* \"@openzeppelin/contracts/token/ERC721/extensions/ERC721URIStorage.sol\":1101:1124  super.supportsInterface */\n      tag_85\n        /* \"@openzeppelin/contracts/token/ERC721/extensions/ERC721URIStorage.sol\":1101:1137  super.supportsInterface(interfaceId) */\n      jump\t// in\n    tag_84:\n        /* \"@openzeppelin/contracts/token/ERC721/extensions/ERC721URIStorage.sol\":1062:1137  interfaceId == ERC4906_INTERFACE_ID || super.supportsInterface(interfaceId) */\n    tag_83:\n        /* \"@openzeppelin/contracts/token/ERC721/extensions/ERC721URIStorage.sol\":1055:1137  return interfaceId == ERC4906_INTERFACE_ID || super.supportsInterface(interfaceId) */\n      swap1\n      pop\n        /* \"@openzeppelin/contracts/token/ERC721/extensions/ERC721URIStorage.sol\":937:1144  function supportsInterface(bytes4 interfaceId) public view virtual override(ERC721, IERC165) returns (bool) {... */\n      swap2\n      swap1\n      pop\n      jump\t// out\n        /* \"@openzeppelin/contracts/token/ERC721/ERC721.sol\":2365:2454  function name() public view virtual returns (string memory) {... */\n    tag_27:\n        /* \"@openzeppelin/contracts/token/ERC721/ERC721.sol\":2410:2423  string memory */\n      0x60\n        /* \"@openzeppelin/contracts/token/ERC721/ERC721.sol\":2442:2447  _name */\n      0x00\n        /* \"@openzeppelin/contracts/token/ERC721/ERC721.sol\":2435:2447  return _name */\n      dup1\n      sload\n      tag_87\n      swap1\n      tag_88\n      jump\t// in\n    tag_87:\n      dup1\n      0x1f\n      add\n      0x20\n      dup1\n      swap2\n      div\n      mul\n      0x20\n      add\n      mload(0x40)\n      swap1\n      dup2\n      add\n      0x40\n      mstore\n      dup1\n      swap3\n      swap2\n      swap1\n      dup2\n      dup2\n      mstore\n      0x20\n      add\n      dup3\n      dup1\n      sload\n      tag_89\n      swap1\n      tag_88\n      jump\t// in\n    tag_89:\n      dup1\n      iszero\n      tag_90\n      jumpi\n      dup1\n      0x1f\n      lt\n      tag_91\n      jumpi\n      0x0100\n      dup1\n      dup4\n      sload\n      div\n      mul\n      dup4\n      mstore\n      swap2\n      0x20\n      add\n      swap2\n      jump(tag_90)\n    tag_91:\n      dup3\n      add\n      swap2\n      swap1\n      0x00\n      mstore\n      keccak256(0x00, 0x20)\n      swap1\n    tag_92:\n      dup2\n      sload\n      dup2\n      mstore\n      swap1\n      0x01\n      add\n      swap1\n      0x20\n      add\n      dup1\n      dup4\n      gt\n      tag_92\n      jumpi\n      dup3\n      swap1\n      sub\n      0x1f\n      and\n      dup3\n      add\n      swap2\n    tag_90:\n      pop\n      pop\n      pop\n      pop\n      pop\n      swap1\n      pop\n        /* \"@openzeppelin/contracts/token/ERC721/ERC721.sol\":2365:2454  function name() public view virtual returns (string memory) {... */\n      swap1\n      jump\t// out\n        /* \"@openzeppelin/contracts/token/ERC721/ERC721.sol\":3497:3651  function getApproved(uint256 tokenId) public view virtual returns (address) {... */\n    tag_33:\n        /* \"@openzeppelin/contracts/token/ERC721/ERC721.sol\":3564:3571  address */\n      0x00\n        /* \"@openzeppelin/contracts/token/ERC721/ERC721.sol\":3583:3605  _requireOwned(tokenId) */\n      tag_94\n        /* \"@openzeppelin/contracts/token/ERC721/ERC721.sol\":3597:3604  tokenId */\n      dup3\n        /* \"@openzeppelin/contracts/token/ERC721/ERC721.sol\":3583:3596  _requireOwned */\n      tag_95\n        /* \"@openzeppelin/contracts/token/ERC721/ERC721.sol\":3583:3605  _requireOwned(tokenId) */\n      jump\t// in\n    tag_94:\n      pop\n        /* \"@openzeppelin/contracts/token/ERC721/ERC721.sol\":3623:3644  _getApproved(tokenId) */\n      tag_96\n        /* \"@openzeppelin/contracts/token/ERC721/ERC721.sol\":3636:3643  tokenId */\n      dup3\n        /* \"@openzeppelin/contracts/token/ERC721/ERC721.sol\":3623:3635  _getApproved */\n      tag_97\n        /* \"@openzeppelin/contracts/token/ERC721/ERC721.sol\":3623:3644  _getApproved(tokenId) */\n      jump\t// in\n    tag_96:\n        /* \"@openzeppelin/contracts/token/ERC721/ERC721.sol\":3616:3644  return _getApproved(tokenId) */\n      swap1\n      pop\n        /* \"@openzeppelin/contracts/token/ERC721/ERC721.sol\":3497:3651  function getApproved(uint256 tokenId) public view virtual returns (address) {... */\n      swap2\n      swap1\n      pop\n      jump\t// out\n        /* \"@openzeppelin/contracts/token/ERC721/ERC721.sol\":3323:3436  function approve(address to, uint256 tokenId) public virtual {... */\n    tag_39:\n        /* \"@openzeppelin/contracts/token/ERC721/ERC721.sol\":3394:3429  _approve(to, tokenId, _msgSender()) */\n      tag_99\n        /* \"@openzeppelin/contracts/token/ERC721/ERC721.sol\":3403:3405  to */\n      dup3\n        /* \"@openzeppelin/contracts/token/ERC721/ERC721.sol\":3407:3414  tokenId */\n      dup3\n        /* \"@openzeppelin/contracts/token/ERC721/ERC721.sol\":3416:3428  _msgSender() */\n      tag_100\n        /* \"@openzeppelin/contracts/token/ERC721/ERC721.sol\":3416:3426  _msgSender */\n      tag_101\n        /* \"@openzeppelin/contracts/token/ERC721/ERC721.sol\":3416:3428  _msgSender() */\n      jump\t// in\n    tag_100:\n        /* \"@openzeppelin/contracts/token/ERC721/ERC721.sol\":3394:3402  _approve */\n      tag_102\n        /* \"@openzeppelin/contracts/token/ERC721/ERC721.sol\":3394:3429  _approve(to, tokenId, _msgSender()) */\n      jump\t// in\n    tag_99:\n        /* \"@openzeppelin/contracts/token/ERC721/ERC721.sol\":3323:3436  function approve(address to, uint256 tokenId) public virtual {... */\n      pop\n      pop\n      jump\t// out\n        /* \"@openzeppelin/contracts/token/ERC721/ERC721.sol\":4143:4721  function transferFrom(address from, address to, uint256 tokenId) public virtual {... */\n    tag_43:\n        /* \"@openzeppelin/contracts/token/ERC721/ERC721.sol\":4251:4252  0 */\n      0x00\n        /* \"@openzeppelin/contracts/token/ERC721/ERC721.sol\":4237:4253  to == address(0) */\n      0xffffffffffffffffffffffffffffffffffffffff\n      and\n        /* \"@openzeppelin/contracts/token/ERC721/ERC721.sol\":4237:4239  to */\n      dup3\n        /* \"@openzeppelin/contracts/token/ERC721/ERC721.sol\":4237:4253  to == address(0) */\n      0xffffffffffffffffffffffffffffffffffffffff\n      and\n      sub\n        /* \"@openzeppelin/contracts/token/ERC721/ERC721.sol\":4233:4320  if (to == address(0)) {... */\n      tag_104\n      jumpi\n        /* \"@openzeppelin/contracts/token/ERC721/ERC721.sol\":4306:4307  0 */\n      0x00\n        /* \"@openzeppelin/contracts/token/ERC721/ERC721.sol\":4276:4309  ERC721InvalidReceiver(address(0)) */\n      mload(0x40)\n      0x64a0ae9200000000000000000000000000000000000000000000000000000000\n      dup2\n      mstore\n      0x04\n      add\n      tag_105\n      swap2\n      swap1\n      tag_35\n      jump\t// in\n    tag_105:\n      mload(0x40)\n      dup1\n      swap2\n      sub\n      swap1\n      revert\n        /* \"@openzeppelin/contracts/token/ERC721/ERC721.sol\":4233:4320  if (to == address(0)) {... */\n    tag_104:\n        /* \"@openzeppelin/contracts/token/ERC721/ERC721.sol\":4538:4559  address previousOwner */\n      0x00\n        /* \"@openzeppelin/contracts/token/ERC721/ERC721.sol\":4562:4596  _update(to, tokenId, _msgSender()) */\n      tag_106\n        /* \"@openzeppelin/contracts/token/ERC721/ERC721.sol\":4570:4572  to */\n      dup4\n        /* \"@openzeppelin/contracts/token/ERC721/ERC721.sol\":4574:4581  tokenId */\n      dup4\n        /* \"@openzeppelin/contracts/token/ERC721/ERC721.sol\":4583:4595  _msgSender() */\n      tag_107\n        /* \"@openzeppelin/contracts/token/ERC721/ERC721.sol\":4583:4593  _msgSender */\n      tag_101\n        /* \"@openzeppelin/contracts/token/ERC721/ERC721.sol\":4583:4595  _msgSender() */\n      jump\t// in\n    tag_107:\n        /* \"@openzeppelin/contracts/token/ERC721/ERC721.sol\":4562:4569  _update */\n      tag_108\n        /* \"@openzeppelin/contracts/token/ERC721/ERC721.sol\":4562:4596  _update(to, tokenId, _msgSender()) */\n      jump\t// in\n    tag_106:\n        /* \"@openzeppelin/contracts/token/ERC721/ERC721.sol\":4538:4596  address previousOwner = _update(to, tokenId, _msgSender()) */\n      swap1\n      pop\n        /* \"@openzeppelin/contracts/token/ERC721/ERC721.sol\":4627:4631  from */\n      dup4\n        /* \"@openzeppelin/contracts/token/ERC721/ERC721.sol\":4610:4631  previousOwner != from */\n      0xffffffffffffffffffffffffffffffffffffffff\n      and\n        /* \"@openzeppelin/contracts/token/ERC721/ERC721.sol\":4610:4623  previousOwner */\n      dup2\n        /* \"@openzeppelin/contracts/token/ERC721/ERC721.sol\":4610:4631  previousOwner != from */\n      0xffffffffffffffffffffffffffffffffffffffff\n      and\n      eq\n        /* \"@openzeppelin/contracts/token/ERC721/ERC721.sol\":4606:4715  if (previousOwner != from) {... */\n      tag_109\n      jumpi\n        /* \"@openzeppelin/contracts/token/ERC721/ERC721.sol\":4675:4679  from */\n      dup4\n        /* \"@openzeppelin/contracts/token/ERC721/ERC721.sol\":4681:4688  tokenId */\n      dup3\n        /* \"@openzeppelin/contracts/token/ERC721/ERC721.sol\":4690:4703  previousOwner */\n      dup3\n        /* \"@openzeppelin/contracts/token/ERC721/ERC721.sol\":4654:4704  ERC721IncorrectOwner(from, tokenId, previousOwner) */\n      mload(0x40)\n      0x64283d7b00000000000000000000000000000000000000000000000000000000\n      dup2\n      mstore\n      0x04\n      add\n      tag_110\n      swap4\n      swap3\n      swap2\n      swap1\n      tag_111\n      jump\t// in\n    tag_110:\n      mload(0x40)\n      dup1\n      swap2\n      sub\n      swap1\n      revert\n        /* \"@openzeppelin/contracts/token/ERC721/ERC721.sol\":4606:4715  if (previousOwner != from) {... */\n    tag_109:\n        /* \"@openzeppelin/contracts/token/ERC721/ERC721.sol\":4223:4721  {... */\n      pop\n        /* \"@openzeppelin/contracts/token/ERC721/ERC721.sol\":4143:4721  function transferFrom(address from, address to, uint256 tokenId) public virtual {... */\n      pop\n      pop\n      pop\n      jump\t// out\n        /* \"@openzeppelin/contracts/token/ERC721/ERC721.sol\":4787:4919  function safeTransferFrom(address from, address to, uint256 tokenId) public {... */\n    tag_46:\n        /* \"@openzeppelin/contracts/token/ERC721/ERC721.sol\":4873:4912  safeTransferFrom(from, to, tokenId, \"\") */\n      tag_113\n        /* \"@openzeppelin/contracts/token/ERC721/ERC721.sol\":4890:4894  from */\n      dup4\n        /* \"@openzeppelin/contracts/token/ERC721/ERC721.sol\":4896:4898  to */\n      dup4\n        /* \"@openzeppelin/contracts/token/ERC721/ERC721.sol\":4900:4907  tokenId */\n      dup4\n        /* \"@openzeppelin/contracts/token/ERC721/ERC721.sol\":4873:4912  safeTransferFrom(from, to, tokenId, \"\") */\n      mload(0x40)\n      dup1\n      0x20\n      add\n      0x40\n      mstore\n      dup1\n      0x00\n      dup2\n      mstore\n      pop\n        /* \"@openzeppelin/contracts/token/ERC721/ERC721.sol\":4873:4889  safeTransferFrom */\n      tag_72\n        /* \"@openzeppelin/contracts/token/ERC721/ERC721.sol\":4873:4912  safeTransferFrom(from, to, tokenId, \"\") */\n      jump\t// in\n    tag_113:\n        /* \"@openzeppelin/contracts/token/ERC721/ERC721.sol\":4787:4919  function safeTransferFrom(address from, address to, uint256 tokenId) public {... */\n      pop\n      pop\n      pop\n      jump\t// out\n        /* \"@openzeppelin/contracts/token/ERC721/ERC721.sol\":2185:2303  function ownerOf(uint256 tokenId) public view virtual returns (address) {... */\n    tag_49:\n        /* \"@openzeppelin/contracts/token/ERC721/ERC721.sol\":2248:2255  address */\n      0x00\n        /* \"@openzeppelin/contracts/token/ERC721/ERC721.sol\":2274:2296  _requireOwned(tokenId) */\n      tag_115\n        /* \"@openzeppelin/contracts/token/ERC721/ERC721.sol\":2288:2295  tokenId */\n      dup3\n        /* \"@openzeppelin/contracts/token/ERC721/ERC721.sol\":2274:2287  _requireOwned */\n      tag_95\n        /* \"@openzeppelin/contracts/token/ERC721/ERC721.sol\":2274:2296  _requireOwned(tokenId) */\n      jump\t// in\n    tag_115:\n        /* \"@openzeppelin/contracts/token/ERC721/ERC721.sol\":2267:2296  return _requireOwned(tokenId) */\n      swap1\n      pop\n        /* \"@openzeppelin/contracts/token/ERC721/ERC721.sol\":2185:2303  function ownerOf(uint256 tokenId) public view virtual returns (address) {... */\n      swap2\n      swap1\n      pop\n      jump\t// out\n        /* \"@openzeppelin/contracts/token/ERC721/ERC721.sol\":1920:2128  function balanceOf(address owner) public view virtual returns (uint256) {... */\n    tag_54:\n        /* \"@openzeppelin/contracts/token/ERC721/ERC721.sol\":1983:1990  uint256 */\n      0x00\n        /* \"@openzeppelin/contracts/token/ERC721/ERC721.sol\":2023:2024  0 */\n      dup1\n        /* \"@openzeppelin/contracts/token/ERC721/ERC721.sol\":2006:2025  owner == address(0) */\n      0xffffffffffffffffffffffffffffffffffffffff\n      and\n        /* \"@openzeppelin/contracts/token/ERC721/ERC721.sol\":2006:2011  owner */\n      dup3\n        /* \"@openzeppelin/contracts/token/ERC721/ERC721.sol\":2006:2025  owner == address(0) */\n      0xffffffffffffffffffffffffffffffffffffffff\n      and\n      sub\n        /* \"@openzeppelin/contracts/token/ERC721/ERC721.sol\":2002:2089  if (owner == address(0)) {... */\n      tag_117\n      jumpi\n        /* \"@openzeppelin/contracts/token/ERC721/ERC721.sol\":2075:2076  0 */\n      0x00\n        /* \"@openzeppelin/contracts/token/ERC721/ERC721.sol\":2048:2078  ERC721InvalidOwner(address(0)) */\n      mload(0x40)\n      0x89c62b6400000000000000000000000000000000000000000000000000000000\n      dup2\n      mstore\n      0x04\n      add\n      tag_118\n      swap2\n      swap1\n      tag_35\n      jump\t// in\n    tag_118:\n      mload(0x40)\n      dup1\n      swap2\n      sub\n      swap1\n      revert\n        /* \"@openzeppelin/contracts/token/ERC721/ERC721.sol\":2002:2089  if (owner == address(0)) {... */\n    tag_117:\n        /* \"@openzeppelin/contracts/token/ERC721/ERC721.sol\":2105:2114  _balances */\n      0x03\n        /* \"@openzeppelin/contracts/token/ERC721/ERC721.sol\":2105:2121  _balances[owner] */\n      0x00\n        /* \"@openzeppelin/contracts/token/ERC721/ERC721.sol\":2115:2120  owner */\n      dup4\n        /* \"@openzeppelin/contracts/token/ERC721/ERC721.sol\":2105:2121  _balances[owner] */\n      0xffffffffffffffffffffffffffffffffffffffff\n      and\n      0xffffffffffffffffffffffffffffffffffffffff\n      and\n      dup2\n      mstore\n      0x20\n      add\n      swap1\n      dup2\n      mstore\n      0x20\n      add\n      0x00\n      keccak256\n      sload\n        /* \"@openzeppelin/contracts/token/ERC721/ERC721.sol\":2098:2121  return _balances[owner] */\n      swap1\n      pop\n        /* \"@openzeppelin/contracts/token/ERC721/ERC721.sol\":1920:2128  function balanceOf(address owner) public view virtual returns (uint256) {... */\n      swap2\n      swap1\n      pop\n      jump\t// out\n        /* \"@openzeppelin/contracts/token/ERC721/ERC721.sol\":2518:2611  function symbol() public view virtual returns (string memory) {... */\n    tag_58:\n        /* \"@openzeppelin/contracts/token/ERC721/ERC721.sol\":2565:2578  string memory */\n      0x60\n        /* \"@openzeppelin/contracts/token/ERC721/ERC721.sol\":2597:2604  _symbol */\n      0x01\n        /* \"@openzeppelin/contracts/token/ERC721/ERC721.sol\":2590:2604  return _symbol */\n      dup1\n      sload\n      tag_120\n      swap1\n      tag_88\n      jump\t// in\n    tag_120:\n      dup1\n      0x1f\n      add\n      0x20\n      dup1\n      swap2\n      div\n      mul\n      0x20\n      add\n      mload(0x40)\n      swap1\n      dup2\n      add\n      0x40\n      mstore\n      dup1\n      swap3\n      swap2\n      swap1\n      dup2\n      dup2\n      mstore\n      0x20\n      add\n      dup3\n      dup1\n      sload\n      tag_121\n      swap1\n      tag_88\n      jump\t// in\n    tag_121:\n      dup1\n      iszero\n      tag_122\n      jumpi\n      dup1\n      0x1f\n      lt\n      tag_123\n      jumpi\n      0x0100\n      dup1\n      dup4\n      sload\n      div\n      mul\n      dup4\n      mstore\n      swap2\n      0x20\n      add\n      swap2\n      jump(tag_122)\n    tag_123:\n      dup3\n      add\n      swap2\n      swap1\n      0x00\n      mstore\n      keccak256(0x00, 0x20)\n      swap1\n    tag_124:\n      dup2\n      sload\n      dup2\n      mstore\n      swap1\n      0x01\n      add\n      swap1\n      0x20\n      add\n      dup1\n      dup4\n      gt\n      tag_124\n      jumpi\n      dup3\n      swap1\n      sub\n      0x1f\n      and\n      dup3\n      add\n      swap2\n    tag_122:\n      pop\n      pop\n      pop\n      pop\n      pop\n      swap1\n      pop\n        /* \"@openzeppelin/contracts/token/ERC721/ERC721.sol\":2518:2611  function symbol() public view virtual returns (string memory) {... */\n      swap1\n      jump\t// out\n        /* \"@openzeppelin/contracts/token/ERC721/ERC721.sol\":3718:3862  function setApprovalForAll(address operator, bool approved) public virtual {... */\n    tag_63:\n        /* \"@openzeppelin/contracts/token/ERC721/ERC721.sol\":3803:3855  _setApprovalForAll(_msgSender(), operator, approved) */\n      tag_126\n        /* \"@openzeppelin/contracts/token/ERC721/ERC721.sol\":3822:3834  _msgSender() */\n      tag_127\n        /* \"@openzeppelin/contracts/token/ERC721/ERC721.sol\":3822:3832  _msgSender */\n      tag_101\n        /* \"@openzeppelin/contracts/token/ERC721/ERC721.sol\":3822:3834  _msgSender() */\n      jump\t// in\n    tag_127:\n        /* \"@openzeppelin/contracts/token/ERC721/ERC721.sol\":3836:3844  operator */\n      dup4\n        /* \"@openzeppelin/contracts/token/ERC721/ERC721.sol\":3846:3854  approved */\n      dup4\n        /* \"@openzeppelin/contracts/token/ERC721/ERC721.sol\":3803:3821  _setApprovalForAll */\n      tag_128\n        /* \"@openzeppelin/contracts/token/ERC721/ERC721.sol\":3803:3855  _setApprovalForAll(_msgSender(), operator, approved) */\n      jump\t// in\n    tag_126:\n        /* \"@openzeppelin/contracts/token/ERC721/ERC721.sol\":3718:3862  function setApprovalForAll(address operator, bool approved) public virtual {... */\n      pop\n      pop\n      jump\t// out\n        /* \"contracts/RegisterationContract.sol\":347:652  function registerAsset(address user, string memory tokenURI) public returns (uint256) {... */\n    tag_67:\n        /* \"contracts/RegisterationContract.sol\":424:431  uint256 */\n      0x00\n        /* \"contracts/RegisterationContract.sol\":463:464  1 */\n      0x01\n        /* \"contracts/RegisterationContract.sol\":444:459  _currentTokenId */\n      0x07\n      0x00\n        /* \"contracts/RegisterationContract.sol\":444:464  _currentTokenId += 1 */\n      dup3\n      dup3\n      sload\n      tag_130\n      swap2\n      swap1\n      tag_131\n      jump\t// in\n    tag_130:\n      swap3\n      pop\n      pop\n      dup2\n      swap1\n      sstore\n      pop\n        /* \"contracts/RegisterationContract.sol\":503:520  uint256 newItemId */\n      0x00\n        /* \"contracts/RegisterationContract.sol\":523:538  _currentTokenId */\n      sload(0x07)\n        /* \"contracts/RegisterationContract.sol\":503:538  uint256 newItemId = _currentTokenId */\n      swap1\n      pop\n        /* \"contracts/RegisterationContract.sol\":549:571  _mint(user, newItemId) */\n      tag_132\n        /* \"contracts/RegisterationContract.sol\":555:559  user */\n      dup5\n        /* \"contracts/RegisterationContract.sol\":561:570  newItemId */\n      dup3\n        /* \"contracts/RegisterationContract.sol\":549:554  _mint */\n      tag_133\n        /* \"contracts/RegisterationContract.sol\":549:571  _mint(user, newItemId) */\n      jump\t// in\n    tag_132:\n        /* \"contracts/RegisterationContract.sol\":582:615  _setTokenURI(newItemId, tokenURI) */\n      tag_134\n        /* \"contracts/RegisterationContract.sol\":595:604  newItemId */\n      dup2\n        /* \"contracts/RegisterationContract.sol\":606:614  tokenURI */\n      dup5\n        /* \"contracts/RegisterationContract.sol\":582:594  _setTokenURI */\n      tag_135\n        /* \"contracts/RegisterationContract.sol\":582:615  _setTokenURI(newItemId, tokenURI) */\n      jump\t// in\n    tag_134:\n        /* \"contracts/RegisterationContract.sol\":635:644  newItemId */\n      dup1\n        /* \"contracts/RegisterationContract.sol\":628:644  return newItemId */\n      swap2\n      pop\n      pop\n        /* \"contracts/RegisterationContract.sol\":347:652  function registerAsset(address user, string memory tokenURI) public returns (uint256) {... */\n      swap3\n      swap2\n      pop\n      pop\n      jump\t// out\n        /* \"@openzeppelin/contracts/token/ERC721/ERC721.sol\":4985:5193  function safeTransferFrom(address from, address to, uint256 tokenId, bytes memory data) public virtual {... */\n    tag_72:\n        /* \"@openzeppelin/contracts/token/ERC721/ERC721.sol\":5098:5129  transferFrom(from, to, tokenId) */\n      tag_137\n        /* \"@openzeppelin/contracts/token/ERC721/ERC721.sol\":5111:5115  from */\n      dup5\n        /* \"@openzeppelin/contracts/token/ERC721/ERC721.sol\":5117:5119  to */\n      dup5\n        /* \"@openzeppelin/contracts/token/ERC721/ERC721.sol\":5121:5128  tokenId */\n      dup5\n        /* \"@openzeppelin/contracts/token/ERC721/ERC721.sol\":5098:5110  transferFrom */\n      tag_43\n        /* \"@openzeppelin/contracts/token/ERC721/ERC721.sol\":5098:5129  transferFrom(from, to, tokenId) */\n      jump\t// in\n    tag_137:\n        /* \"@openzeppelin/contracts/token/ERC721/ERC721.sol\":5139:5186  _checkOnERC721Received(from, to, tokenId, data) */\n      tag_138\n        /* \"@openzeppelin/contracts/token/ERC721/ERC721.sol\":5162:5166  from */\n      dup5\n        /* \"@openzeppelin/contracts/token/ERC721/ERC721.sol\":5168:5170  to */\n      dup5\n        /* \"@openzeppelin/contracts/token/ERC721/ERC721.sol\":5172:5179  tokenId */\n      dup5\n        /* \"@openzeppelin/contracts/token/ERC721/ERC721.sol\":5181:5185  data */\n      dup5\n        /* \"@openzeppelin/contracts/token/ERC721/ERC721.sol\":5139:5161  _checkOnERC721Received */\n      tag_139\n        /* \"@openzeppelin/contracts/token/ERC721/ERC721.sol\":5139:5186  _checkOnERC721Received(from, to, tokenId, data) */\n      jump\t// in\n    tag_138:\n        /* \"@openzeppelin/contracts/token/ERC721/ERC721.sol\":4985:5193  function safeTransferFrom(address from, address to, uint256 tokenId, bytes memory data) public virtual {... */\n      pop\n      pop\n      pop\n      pop\n      jump\t// out\n        /* \"@openzeppelin/contracts/token/ERC721/extensions/ERC721URIStorage.sol\":1210:1803  function tokenURI(uint256 tokenId) public view virtual override returns (string memory) {... */\n    tag_75:\n        /* \"@openzeppelin/contracts/token/ERC721/extensions/ERC721URIStorage.sol\":1283:1296  string memory */\n      0x60\n        /* \"@openzeppelin/contracts/token/ERC721/extensions/ERC721URIStorage.sol\":1308:1330  _requireOwned(tokenId) */\n      tag_141\n        /* \"@openzeppelin/contracts/token/ERC721/extensions/ERC721URIStorage.sol\":1322:1329  tokenId */\n      dup3\n        /* \"@openzeppelin/contracts/token/ERC721/extensions/ERC721URIStorage.sol\":1308:1321  _requireOwned */\n      tag_95\n        /* \"@openzeppelin/contracts/token/ERC721/extensions/ERC721URIStorage.sol\":1308:1330  _requireOwned(tokenId) */\n      jump\t// in\n    tag_141:\n      pop\n        /* \"@openzeppelin/contracts/token/ERC721/extensions/ERC721URIStorage.sol\":1341:1364  string memory _tokenURI */\n      0x00\n        /* \"@openzeppelin/contracts/token/ERC721/extensions/ERC721URIStorage.sol\":1367:1377  _tokenURIs */\n      0x06\n        /* \"@openzeppelin/contracts/token/ERC721/extensions/ERC721URIStorage.sol\":1367:1386  _tokenURIs[tokenId] */\n      0x00\n        /* \"@openzeppelin/contracts/token/ERC721/extensions/ERC721URIStorage.sol\":1378:1385  tokenId */\n      dup5\n        /* \"@openzeppelin/contracts/token/ERC721/extensions/ERC721URIStorage.sol\":1367:1386  _tokenURIs[tokenId] */\n      dup2\n      mstore\n      0x20\n      add\n      swap1\n      dup2\n      mstore\n      0x20\n      add\n      0x00\n      keccak256\n        /* \"@openzeppelin/contracts/token/ERC721/extensions/ERC721URIStorage.sol\":1341:1386  string memory _tokenURI = _tokenURIs[tokenId] */\n      dup1\n      sload\n      tag_142\n      swap1\n      tag_88\n      jump\t// in\n    tag_142:\n      dup1\n      0x1f\n      add\n      0x20\n      dup1\n      swap2\n      div\n      mul\n      0x20\n      add\n      mload(0x40)\n      swap1\n      dup2\n      add\n      0x40\n      mstore\n      dup1\n      swap3\n      swap2\n      swap1\n      dup2\n      dup2\n      mstore\n      0x20\n      add\n      dup3\n      dup1\n      sload\n      tag_143\n      swap1\n      tag_88\n      jump\t// in\n    tag_143:\n      dup1\n      iszero\n      tag_144\n      jumpi\n      dup1\n      0x1f\n      lt\n      tag_145\n      jumpi\n      0x0100\n      dup1\n      dup4\n      sload\n      div\n      mul\n      dup4\n      mstore\n      swap2\n      0x20\n      add\n      swap2\n      jump(tag_144)\n    tag_145:\n      dup3\n      add\n      swap2\n      swap1\n      0x00\n      mstore\n      keccak256(0x00, 0x20)\n      swap1\n    tag_146:\n      dup2\n      sload\n      dup2\n      mstore\n      swap1\n      0x01\n      add\n      swap1\n      0x20\n      add\n      dup1\n      dup4\n      gt\n      tag_146\n      jumpi\n      dup3\n      swap1\n      sub\n      0x1f\n      and\n      dup3\n      add\n      swap2\n    tag_144:\n      pop\n      pop\n      pop\n      pop\n      pop\n      swap1\n      pop\n        /* \"@openzeppelin/contracts/token/ERC721/extensions/ERC721URIStorage.sol\":1396:1414  string memory base */\n      0x00\n        /* \"@openzeppelin/contracts/token/ERC721/extensions/ERC721URIStorage.sol\":1417:1427  _baseURI() */\n      tag_147\n        /* \"@openzeppelin/contracts/token/ERC721/extensions/ERC721URIStorage.sol\":1417:1425  _baseURI */\n      tag_148\n        /* \"@openzeppelin/contracts/token/ERC721/extensions/ERC721URIStorage.sol\":1417:1427  _baseURI() */\n      jump\t// in\n    tag_147:\n        /* \"@openzeppelin/contracts/token/ERC721/extensions/ERC721URIStorage.sol\":1396:1427  string memory base = _baseURI() */\n      swap1\n      pop\n        /* \"@openzeppelin/contracts/token/ERC721/extensions/ERC721URIStorage.sol\":1522:1523  0 */\n      0x00\n        /* \"@openzeppelin/contracts/token/ERC721/extensions/ERC721URIStorage.sol\":1506:1510  base */\n      dup2\n        /* \"@openzeppelin/contracts/token/ERC721/extensions/ERC721URIStorage.sol\":1500:1518  bytes(base).length */\n      mload\n        /* \"@openzeppelin/contracts/token/ERC721/extensions/ERC721URIStorage.sol\":1500:1523  bytes(base).length == 0 */\n      sub\n        /* \"@openzeppelin/contracts/token/ERC721/extensions/ERC721URIStorage.sol\":1496:1566  if (bytes(base).length == 0) {... */\n      tag_149\n      jumpi\n        /* \"@openzeppelin/contracts/token/ERC721/extensions/ERC721URIStorage.sol\":1546:1555  _tokenURI */\n      dup2\n        /* \"@openzeppelin/contracts/token/ERC721/extensions/ERC721URIStorage.sol\":1539:1555  return _tokenURI */\n      swap3\n      pop\n      pop\n      pop\n      jump(tag_140)\n        /* \"@openzeppelin/contracts/token/ERC721/extensions/ERC721URIStorage.sol\":1496:1566  if (bytes(base).length == 0) {... */\n    tag_149:\n        /* \"@openzeppelin/contracts/token/ERC721/extensions/ERC721URIStorage.sol\":1691:1692  0 */\n      0x00\n        /* \"@openzeppelin/contracts/token/ERC721/extensions/ERC721URIStorage.sol\":1671:1680  _tokenURI */\n      dup3\n        /* \"@openzeppelin/contracts/token/ERC721/extensions/ERC721URIStorage.sol\":1665:1688  bytes(_tokenURI).length */\n      mload\n        /* \"@openzeppelin/contracts/token/ERC721/extensions/ERC721URIStorage.sol\":1665:1692  bytes(_tokenURI).length > 0 */\n      gt\n        /* \"@openzeppelin/contracts/token/ERC721/extensions/ERC721URIStorage.sol\":1661:1756  if (bytes(_tokenURI).length > 0) {... */\n      iszero\n      tag_150\n      jumpi\n        /* \"@openzeppelin/contracts/token/ERC721/extensions/ERC721URIStorage.sol\":1729:1733  base */\n      dup1\n        /* \"@openzeppelin/contracts/token/ERC721/extensions/ERC721URIStorage.sol\":1735:1744  _tokenURI */\n      dup3\n        /* \"@openzeppelin/contracts/token/ERC721/extensions/ERC721URIStorage.sol\":1715:1745  string.concat(base, _tokenURI) */\n      add(0x20, mload(0x40))\n      tag_151\n      swap3\n      swap2\n      swap1\n      tag_152\n      jump\t// in\n    tag_151:\n      mload(0x40)\n      0x20\n      dup2\n      dup4\n      sub\n      sub\n      dup2\n      mstore\n      swap1\n      0x40\n      mstore\n        /* \"@openzeppelin/contracts/token/ERC721/extensions/ERC721URIStorage.sol\":1708:1745  return string.concat(base, _tokenURI) */\n      swap3\n      pop\n      pop\n      pop\n      jump(tag_140)\n        /* \"@openzeppelin/contracts/token/ERC721/extensions/ERC721URIStorage.sol\":1661:1756  if (bytes(_tokenURI).length > 0) {... */\n    tag_150:\n        /* \"@openzeppelin/contracts/token/ERC721/extensions/ERC721URIStorage.sol\":1773:1796  super.tokenURI(tokenId) */\n      tag_153\n        /* \"@openzeppelin/contracts/token/ERC721/extensions/ERC721URIStorage.sol\":1788:1795  tokenId */\n      dup5\n        /* \"@openzeppelin/contracts/token/ERC721/extensions/ERC721URIStorage.sol\":1773:1787  super.tokenURI */\n      tag_154\n        /* \"@openzeppelin/contracts/token/ERC721/extensions/ERC721URIStorage.sol\":1773:1796  super.tokenURI(tokenId) */\n      jump\t// in\n    tag_153:\n        /* \"@openzeppelin/contracts/token/ERC721/extensions/ERC721URIStorage.sol\":1766:1796  return super.tokenURI(tokenId) */\n      swap3\n      pop\n      pop\n      pop\n        /* \"@openzeppelin/contracts/token/ERC721/extensions/ERC721URIStorage.sol\":1210:1803  function tokenURI(uint256 tokenId) public view virtual override returns (string memory) {... */\n    tag_140:\n      swap2\n      swap1\n      pop\n      jump\t// out\n        /* \"@openzeppelin/contracts/token/ERC721/ERC721.sol\":3928:4081  function isApprovedForAll(address owner, address operator) public view virtual returns (bool) {... */\n    tag_80:\n        /* \"@openzeppelin/contracts/token/ERC721/ERC721.sol\":4016:4020  bool */\n      0x00\n        /* \"@openzeppelin/contracts/token/ERC721/ERC721.sol\":4039:4057  _operatorApprovals */\n      0x05\n        /* \"@openzeppelin/contracts/token/ERC721/ERC721.sol\":4039:4064  _operatorApprovals[owner] */\n      0x00\n        /* \"@openzeppelin/contracts/token/ERC721/ERC721.sol\":4058:4063  owner */\n      dup5\n        /* \"@openzeppelin/contracts/token/ERC721/ERC721.sol\":4039:4064  _operatorApprovals[owner] */\n      0xffffffffffffffffffffffffffffffffffffffff\n      and\n      0xffffffffffffffffffffffffffffffffffffffff\n      and\n      dup2\n      mstore\n      0x20\n      add\n      swap1\n      dup2\n      mstore\n      0x20\n      add\n      0x00\n      keccak256\n        /* \"@openzeppelin/contracts/token/ERC721/ERC721.sol\":4039:4074  _operatorApprovals[owner][operator] */\n      0x00\n        /* \"@openzeppelin/contracts/token/ERC721/ERC721.sol\":4065:4073  operator */\n      dup4\n        /* \"@openzeppelin/contracts/token/ERC721/ERC721.sol\":4039:4074  _operatorApprovals[owner][operator] */\n      0xffffffffffffffffffffffffffffffffffffffff\n      and\n      0xffffffffffffffffffffffffffffffffffffffff\n      and\n      dup2\n      mstore\n      0x20\n      add\n      swap1\n      dup2\n      mstore\n      0x20\n      add\n      0x00\n      keccak256\n      0x00\n      swap1\n      sload\n      swap1\n      0x0100\n      exp\n      swap1\n      div\n      0xff\n      and\n        /* \"@openzeppelin/contracts/token/ERC721/ERC721.sol\":4032:4074  return _operatorApprovals[owner][operator] */\n      swap1\n      pop\n        /* \"@openzeppelin/contracts/token/ERC721/ERC721.sol\":3928:4081  function isApprovedForAll(address owner, address operator) public view virtual returns (bool) {... */\n      swap3\n      swap2\n      pop\n      pop\n      jump\t// out\n        /* \"@openzeppelin/contracts/token/ERC721/ERC721.sol\":1561:1861  function supportsInterface(bytes4 interfaceId) public view virtual override(ERC165, IERC165) returns (bool) {... */\n    tag_85:\n        /* \"@openzeppelin/contracts/token/ERC721/ERC721.sol\":1663:1667  bool */\n      0x00\n        /* \"@openzeppelin/contracts/token/ERC721/ERC721.sol\":1713:1738  type(IERC721).interfaceId */\n      0x80ac58cd00000000000000000000000000000000000000000000000000000000\n        /* \"@openzeppelin/contracts/token/ERC721/ERC721.sol\":1698:1738  interfaceId == type(IERC721).interfaceId */\n      not(0xffffffffffffffffffffffffffffffffffffffffffffffffffffffff)\n      and\n        /* \"@openzeppelin/contracts/token/ERC721/ERC721.sol\":1698:1709  interfaceId */\n      dup3\n        /* \"@openzeppelin/contracts/token/ERC721/ERC721.sol\":1698:1738  interfaceId == type(IERC721).interfaceId */\n      not(0xffffffffffffffffffffffffffffffffffffffffffffffffffffffff)\n      and\n      eq\n        /* \"@openzeppelin/contracts/token/ERC721/ERC721.sol\":1698:1802  interfaceId == type(IERC721).interfaceId ||... */\n      dup1\n      tag_157\n      jumpi\n      pop\n        /* \"@openzeppelin/contracts/token/ERC721/ERC721.sol\":1769:1802  type(IERC721Metadata).interfaceId */\n      0x5b5e139f00000000000000000000000000000000000000000000000000000000\n        /* \"@openzeppelin/contracts/token/ERC721/ERC721.sol\":1754:1802  interfaceId == type(IERC721Metadata).interfaceId */\n      not(0xffffffffffffffffffffffffffffffffffffffffffffffffffffffff)\n      and\n        /* \"@openzeppelin/contracts/token/ERC721/ERC721.sol\":1754:1765  interfaceId */\n      dup3\n        /* \"@openzeppelin/contracts/token/ERC721/ERC721.sol\":1754:1802  interfaceId == type(IERC721Metadata).interfaceId */\n      not(0xffffffffffffffffffffffffffffffffffffffffffffffffffffffff)\n      and\n      eq\n        /* \"@openzeppelin/contracts/token/ERC721/ERC721.sol\":1698:1802  interfaceId == type(IERC721).interfaceId ||... */\n    tag_157:\n        /* \"@openzeppelin/contracts/token/ERC721/ERC721.sol\":1698:1854  interfaceId == type(IERC721).interfaceId ||... */\n      dup1\n      tag_158\n      jumpi\n      pop\n        /* \"@openzeppelin/contracts/token/ERC721/ERC721.sol\":1818:1854  super.supportsInterface(interfaceId) */\n      tag_159\n        /* \"@openzeppelin/contracts/token/ERC721/ERC721.sol\":1842:1853  interfaceId */\n      dup3\n        /* \"@openzeppelin/contracts/token/ERC721/ERC721.sol\":1818:1841  super.supportsInterface */\n      tag_160\n        /* \"@openzeppelin/contracts/token/ERC721/ERC721.sol\":1818:1854  super.supportsInterface(interfaceId) */\n      jump\t// in\n    tag_159:\n        /* \"@openzeppelin/contracts/token/ERC721/ERC721.sol\":1698:1854  interfaceId == type(IERC721).interfaceId ||... */\n    tag_158:\n        /* \"@openzeppelin/contracts/token/ERC721/ERC721.sol\":1679:1854  return... */\n      swap1\n      pop\n        /* \"@openzeppelin/contracts/token/ERC721/ERC721.sol\":1561:1861  function supportsInterface(bytes4 interfaceId) public view virtual override(ERC165, IERC165) returns (bool) {... */\n      swap2\n      swap1\n      pop\n      jump\t// out\n        /* \"@openzeppelin/contracts/token/ERC721/ERC721.sol\":16138:16379  function _requireOwned(uint256 tokenId) internal view returns (address) {... */\n    tag_95:\n        /* \"@openzeppelin/contracts/token/ERC721/ERC721.sol\":16201:16208  address */\n      0x00\n        /* \"@openzeppelin/contracts/token/ERC721/ERC721.sol\":16220:16233  address owner */\n      dup1\n        /* \"@openzeppelin/contracts/token/ERC721/ERC721.sol\":16236:16253  _ownerOf(tokenId) */\n      tag_162\n        /* \"@openzeppelin/contracts/token/ERC721/ERC721.sol\":16245:16252  tokenId */\n      dup4\n        /* \"@openzeppelin/contracts/token/ERC721/ERC721.sol\":16236:16244  _ownerOf */\n      tag_163\n        /* \"@openzeppelin/contracts/token/ERC721/ERC721.sol\":16236:16253  _ownerOf(tokenId) */\n      jump\t// in\n    tag_162:\n        /* \"@openzeppelin/contracts/token/ERC721/ERC721.sol\":16220:16253  address owner = _ownerOf(tokenId) */\n      swap1\n      pop\n        /* \"@openzeppelin/contracts/token/ERC721/ERC721.sol\":16284:16285  0 */\n      0x00\n        /* \"@openzeppelin/contracts/token/ERC721/ERC721.sol\":16267:16286  owner == address(0) */\n      0xffffffffffffffffffffffffffffffffffffffff\n      and\n        /* \"@openzeppelin/contracts/token/ERC721/ERC721.sol\":16267:16272  owner */\n      dup2\n        /* \"@openzeppelin/contracts/token/ERC721/ERC721.sol\":16267:16286  owner == address(0) */\n      0xffffffffffffffffffffffffffffffffffffffff\n      and\n      sub\n        /* \"@openzeppelin/contracts/token/ERC721/ERC721.sol\":16263:16351  if (owner == address(0)) {... */\n      tag_164\n      jumpi\n        /* \"@openzeppelin/contracts/token/ERC721/ERC721.sol\":16332:16339  tokenId */\n      dup3\n        /* \"@openzeppelin/contracts/token/ERC721/ERC721.sol\":16309:16340  ERC721NonexistentToken(tokenId) */\n      mload(0x40)\n      0x7e27328900000000000000000000000000000000000000000000000000000000\n      dup2\n      mstore\n      0x04\n      add\n      tag_165\n      swap2\n      swap1\n      tag_56\n      jump\t// in\n    tag_165:\n      mload(0x40)\n      dup1\n      swap2\n      sub\n      swap1\n      revert\n        /* \"@openzeppelin/contracts/token/ERC721/ERC721.sol\":16263:16351  if (owner == address(0)) {... */\n    tag_164:\n        /* \"@openzeppelin/contracts/token/ERC721/ERC721.sol\":16367:16372  owner */\n      dup1\n        /* \"@openzeppelin/contracts/token/ERC721/ERC721.sol\":16360:16372  return owner */\n      swap2\n      pop\n      pop\n        /* \"@openzeppelin/contracts/token/ERC721/ERC721.sol\":16138:16379  function _requireOwned(uint256 tokenId) internal view returns (address) {... */\n      swap2\n      swap1\n      pop\n      jump\t// out\n        /* \"@openzeppelin/contracts/token/ERC721/ERC721.sol\":5938:6065  function _getApproved(uint256 tokenId) internal view virtual returns (address) {... */\n    tag_97:\n        /* \"@openzeppelin/contracts/token/ERC721/ERC721.sol\":6008:6015  address */\n      0x00\n        /* \"@openzeppelin/contracts/token/ERC721/ERC721.sol\":6034:6049  _tokenApprovals */\n      0x04\n        /* \"@openzeppelin/contracts/token/ERC721/ERC721.sol\":6034:6058  _tokenApprovals[tokenId] */\n      0x00\n        /* \"@openzeppelin/contracts/token/ERC721/ERC721.sol\":6050:6057  tokenId */\n      dup4\n        /* \"@openzeppelin/contracts/token/ERC721/ERC721.sol\":6034:6058  _tokenApprovals[tokenId] */\n      dup2\n      mstore\n      0x20\n      add\n      swap1\n      dup2\n      mstore\n      0x20\n      add\n      0x00\n      keccak256\n      0x00\n      swap1\n      sload\n      swap1\n      0x0100\n      exp\n      swap1\n      div\n      0xffffffffffffffffffffffffffffffffffffffff\n      and\n        /* \"@openzeppelin/contracts/token/ERC721/ERC721.sol\":6027:6058  return _tokenApprovals[tokenId] */\n      swap1\n      pop\n        /* \"@openzeppelin/contracts/token/ERC721/ERC721.sol\":5938:6065  function _getApproved(uint256 tokenId) internal view virtual returns (address) {... */\n      swap2\n      swap1\n      pop\n      jump\t// out\n        /* \"@openzeppelin/contracts/utils/Context.sol\":656:752  function _msgSender() internal view virtual returns (address) {... */\n    tag_101:\n        /* \"@openzeppelin/contracts/utils/Context.sol\":709:716  address */\n      0x00\n        /* \"@openzeppelin/contracts/utils/Context.sol\":735:745  msg.sender */\n      caller\n        /* \"@openzeppelin/contracts/utils/Context.sol\":728:745  return msg.sender */\n      swap1\n      pop\n        /* \"@openzeppelin/contracts/utils/Context.sol\":656:752  function _msgSender() internal view virtual returns (address) {... */\n      swap1\n      jump\t// out\n        /* \"@openzeppelin/contracts/token/ERC721/ERC721.sol\":14418:14538  function _approve(address to, uint256 tokenId, address auth) internal {... */\n    tag_102:\n        /* \"@openzeppelin/contracts/token/ERC721/ERC721.sol\":14498:14531  _approve(to, tokenId, auth, true) */\n      tag_169\n        /* \"@openzeppelin/contracts/token/ERC721/ERC721.sol\":14507:14509  to */\n      dup4\n        /* \"@openzeppelin/contracts/token/ERC721/ERC721.sol\":14511:14518  tokenId */\n      dup4\n        /* \"@openzeppelin/contracts/token/ERC721/ERC721.sol\":14520:14524  auth */\n      dup4\n        /* \"@openzeppelin/contracts/token/ERC721/ERC721.sol\":14526:14530  true */\n      0x01\n        /* \"@openzeppelin/contracts/token/ERC721/ERC721.sol\":14498:14506  _approve */\n      tag_170\n        /* \"@openzeppelin/contracts/token/ERC721/ERC721.sol\":14498:14531  _approve(to, tokenId, auth, true) */\n      jump\t// in\n    tag_169:\n        /* \"@openzeppelin/contracts/token/ERC721/ERC721.sol\":14418:14538  function _approve(address to, uint256 tokenId, address auth) internal {... */\n      pop\n      pop\n      pop\n      jump\t// out\n        /* \"@openzeppelin/contracts/token/ERC721/ERC721.sol\":8838:9633  function _update(address to, uint256 tokenId, address auth) internal virtual returns (address) {... */\n    tag_108:\n        /* \"@openzeppelin/contracts/token/ERC721/ERC721.sol\":8924:8931  address */\n      0x00\n        /* \"@openzeppelin/contracts/token/ERC721/ERC721.sol\":8943:8955  address from */\n      dup1\n        /* \"@openzeppelin/contracts/token/ERC721/ERC721.sol\":8958:8975  _ownerOf(tokenId) */\n      tag_172\n        /* \"@openzeppelin/contracts/token/ERC721/ERC721.sol\":8967:8974  tokenId */\n      dup5\n        /* \"@openzeppelin/contracts/token/ERC721/ERC721.sol\":8958:8966  _ownerOf */\n      tag_163\n        /* \"@openzeppelin/contracts/token/ERC721/ERC721.sol\":8958:8975  _ownerOf(tokenId) */\n      jump\t// in\n    tag_172:\n        /* \"@openzeppelin/contracts/token/ERC721/ERC721.sol\":8943:8975  address from = _ownerOf(tokenId) */\n      swap1\n      pop\n        /* \"@openzeppelin/contracts/token/ERC721/ERC721.sol\":9051:9052  0 */\n      0x00\n        /* \"@openzeppelin/contracts/token/ERC721/ERC721.sol\":9035:9053  auth != address(0) */\n      0xffffffffffffffffffffffffffffffffffffffff\n      and\n        /* \"@openzeppelin/contracts/token/ERC721/ERC721.sol\":9035:9039  auth */\n      dup4\n        /* \"@openzeppelin/contracts/token/ERC721/ERC721.sol\":9035:9053  auth != address(0) */\n      0xffffffffffffffffffffffffffffffffffffffff\n      and\n      eq\n        /* \"@openzeppelin/contracts/token/ERC721/ERC721.sol\":9031:9117  if (auth != address(0)) {... */\n      tag_173\n      jumpi\n        /* \"@openzeppelin/contracts/token/ERC721/ERC721.sol\":9069:9106  _checkAuthorized(from, auth, tokenId) */\n      tag_174\n        /* \"@openzeppelin/contracts/token/ERC721/ERC721.sol\":9086:9090  from */\n      dup2\n        /* \"@openzeppelin/contracts/token/ERC721/ERC721.sol\":9092:9096  auth */\n      dup5\n        /* \"@openzeppelin/contracts/token/ERC721/ERC721.sol\":9098:9105  tokenId */\n      dup7\n        /* \"@openzeppelin/contracts/token/ERC721/ERC721.sol\":9069:9085  _checkAuthorized */\n      tag_175\n        /* \"@openzeppelin/contracts/token/ERC721/ERC721.sol\":9069:9106  _checkAuthorized(from, auth, tokenId) */\n      jump\t// in\n    tag_174:\n        /* \"@openzeppelin/contracts/token/ERC721/ERC721.sol\":9031:9117  if (auth != address(0)) {... */\n    tag_173:\n        /* \"@openzeppelin/contracts/token/ERC721/ERC721.sol\":9177:9178  0 */\n      0x00\n        /* \"@openzeppelin/contracts/token/ERC721/ERC721.sol\":9161:9179  from != address(0) */\n      0xffffffffffffffffffffffffffffffffffffffff\n      and\n        /* \"@openzeppelin/contracts/token/ERC721/ERC721.sol\":9161:9165  from */\n      dup2\n        /* \"@openzeppelin/contracts/token/ERC721/ERC721.sol\":9161:9179  from != address(0) */\n      0xffffffffffffffffffffffffffffffffffffffff\n      and\n      eq\n        /* \"@openzeppelin/contracts/token/ERC721/ERC721.sol\":9157:9413  if (from != address(0)) {... */\n      tag_176\n      jumpi\n        /* \"@openzeppelin/contracts/token/ERC721/ERC721.sol\":9277:9325  _approve(address(0), tokenId, address(0), false) */\n      tag_177\n        /* \"@openzeppelin/contracts/token/ERC721/ERC721.sol\":9294:9295  0 */\n      0x00\n        /* \"@openzeppelin/contracts/token/ERC721/ERC721.sol\":9298:9305  tokenId */\n      dup6\n        /* \"@openzeppelin/contracts/token/ERC721/ERC721.sol\":9315:9316  0 */\n      0x00\n        /* \"@openzeppelin/contracts/token/ERC721/ERC721.sol\":9319:9324  false */\n      dup1\n        /* \"@openzeppelin/contracts/token/ERC721/ERC721.sol\":9277:9285  _approve */\n      tag_170\n        /* \"@openzeppelin/contracts/token/ERC721/ERC721.sol\":9277:9325  _approve(address(0), tokenId, address(0), false) */\n      jump\t// in\n    tag_177:\n        /* \"@openzeppelin/contracts/token/ERC721/ERC721.sol\":9387:9388  1 */\n      0x01\n        /* \"@openzeppelin/contracts/token/ERC721/ERC721.sol\":9368:9377  _balances */\n      0x03\n        /* \"@openzeppelin/contracts/token/ERC721/ERC721.sol\":9368:9383  _balances[from] */\n      0x00\n        /* \"@openzeppelin/contracts/token/ERC721/ERC721.sol\":9378:9382  from */\n      dup4\n        /* \"@openzeppelin/contracts/token/ERC721/ERC721.sol\":9368:9383  _balances[from] */\n      0xffffffffffffffffffffffffffffffffffffffff\n      and\n      0xffffffffffffffffffffffffffffffffffffffff\n      and\n      dup2\n      mstore\n      0x20\n      add\n      swap1\n      dup2\n      mstore\n      0x20\n      add\n      0x00\n      keccak256\n      0x00\n        /* \"@openzeppelin/contracts/token/ERC721/ERC721.sol\":9368:9388  _balances[from] -= 1 */\n      dup3\n      dup3\n      sload\n      sub\n      swap3\n      pop\n      pop\n      dup2\n      swap1\n      sstore\n      pop\n        /* \"@openzeppelin/contracts/token/ERC721/ERC721.sol\":9157:9413  if (from != address(0)) {... */\n    tag_176:\n        /* \"@openzeppelin/contracts/token/ERC721/ERC721.sol\":9441:9442  0 */\n      0x00\n        /* \"@openzeppelin/contracts/token/ERC721/ERC721.sol\":9427:9443  to != address(0) */\n      0xffffffffffffffffffffffffffffffffffffffff\n      and\n        /* \"@openzeppelin/contracts/token/ERC721/ERC721.sol\":9427:9429  to */\n      dup6\n        /* \"@openzeppelin/contracts/token/ERC721/ERC721.sol\":9427:9443  to != address(0) */\n      0xffffffffffffffffffffffffffffffffffffffff\n      and\n      eq\n        /* \"@openzeppelin/contracts/token/ERC721/ERC721.sol\":9423:9530  if (to != address(0)) {... */\n      tag_178\n      jumpi\n        /* \"@openzeppelin/contracts/token/ERC721/ERC721.sol\":9504:9505  1 */\n      0x01\n        /* \"@openzeppelin/contracts/token/ERC721/ERC721.sol\":9487:9496  _balances */\n      0x03\n        /* \"@openzeppelin/contracts/token/ERC721/ERC721.sol\":9487:9500  _balances[to] */\n      0x00\n        /* \"@openzeppelin/contracts/token/ERC721/ERC721.sol\":9497:9499  to */\n      dup8\n        /* \"@openzeppelin/contracts/token/ERC721/ERC721.sol\":9487:9500  _balances[to] */\n      0xffffffffffffffffffffffffffffffffffffffff\n      and\n      0xffffffffffffffffffffffffffffffffffffffff\n      and\n      dup2\n      mstore\n      0x20\n      add\n      swap1\n      dup2\n      mstore\n      0x20\n      add\n      0x00\n      keccak256\n      0x00\n        /* \"@openzeppelin/contracts/token/ERC721/ERC721.sol\":9487:9505  _balances[to] += 1 */\n      dup3\n      dup3\n      sload\n      add\n      swap3\n      pop\n      pop\n      dup2\n      swap1\n      sstore\n      pop\n        /* \"@openzeppelin/contracts/token/ERC721/ERC721.sol\":9423:9530  if (to != address(0)) {... */\n    tag_178:\n        /* \"@openzeppelin/contracts/token/ERC721/ERC721.sol\":9559:9561  to */\n      dup5\n        /* \"@openzeppelin/contracts/token/ERC721/ERC721.sol\":9540:9547  _owners */\n      0x02\n        /* \"@openzeppelin/contracts/token/ERC721/ERC721.sol\":9540:9556  _owners[tokenId] */\n      0x00\n        /* \"@openzeppelin/contracts/token/ERC721/ERC721.sol\":9548:9555  tokenId */\n      dup7\n        /* \"@openzeppelin/contracts/token/ERC721/ERC721.sol\":9540:9556  _owners[tokenId] */\n      dup2\n      mstore\n      0x20\n      add\n      swap1\n      dup2\n      mstore\n      0x20\n      add\n      0x00\n      keccak256\n      0x00\n        /* \"@openzeppelin/contracts/token/ERC721/ERC721.sol\":9540:9561  _owners[tokenId] = to */\n      0x0100\n      exp\n      dup2\n      sload\n      dup2\n      0xffffffffffffffffffffffffffffffffffffffff\n      mul\n      not\n      and\n      swap1\n      dup4\n      0xffffffffffffffffffffffffffffffffffffffff\n      and\n      mul\n      or\n      swap1\n      sstore\n      pop\n        /* \"@openzeppelin/contracts/token/ERC721/ERC721.sol\":9596:9603  tokenId */\n      dup4\n        /* \"@openzeppelin/contracts/token/ERC721/ERC721.sol\":9592:9594  to */\n      dup6\n        /* \"@openzeppelin/contracts/token/ERC721/ERC721.sol\":9577:9604  Transfer(from, to, tokenId) */\n      0xffffffffffffffffffffffffffffffffffffffff\n      and\n        /* \"@openzeppelin/contracts/token/ERC721/ERC721.sol\":9586:9590  from */\n      dup3\n        /* \"@openzeppelin/contracts/token/ERC721/ERC721.sol\":9577:9604  Transfer(from, to, tokenId) */\n      0xffffffffffffffffffffffffffffffffffffffff\n      and\n      0xddf252ad1be2c89b69c2b068fc378daa952ba7f163c4a11628f55a4df523b3ef\n      mload(0x40)\n      mload(0x40)\n      dup1\n      swap2\n      sub\n      swap1\n      log4\n        /* \"@openzeppelin/contracts/token/ERC721/ERC721.sol\":9622:9626  from */\n      dup1\n        /* \"@openzeppelin/contracts/token/ERC721/ERC721.sol\":9615:9626  return from */\n      swap2\n      pop\n      pop\n        /* \"@openzeppelin/contracts/token/ERC721/ERC721.sol\":8838:9633  function _update(address to, uint256 tokenId, address auth) internal virtual returns (address) {... */\n      swap4\n      swap3\n      pop\n      pop\n      pop\n      jump\t// out\n        /* \"@openzeppelin/contracts/token/ERC721/ERC721.sol\":15591:15903  function _setApprovalForAll(address owner, address operator, bool approved) internal virtual {... */\n    tag_128:\n        /* \"@openzeppelin/contracts/token/ERC721/ERC721.sol\":15718:15719  0 */\n      0x00\n        /* \"@openzeppelin/contracts/token/ERC721/ERC721.sol\":15698:15720  operator == address(0) */\n      0xffffffffffffffffffffffffffffffffffffffff\n      and\n        /* \"@openzeppelin/contracts/token/ERC721/ERC721.sol\":15698:15706  operator */\n      dup3\n        /* \"@openzeppelin/contracts/token/ERC721/ERC721.sol\":15698:15720  operator == address(0) */\n      0xffffffffffffffffffffffffffffffffffffffff\n      and\n      sub\n        /* \"@openzeppelin/contracts/token/ERC721/ERC721.sol\":15694:15785  if (operator == address(0)) {... */\n      tag_180\n      jumpi\n        /* \"@openzeppelin/contracts/token/ERC721/ERC721.sol\":15765:15773  operator */\n      dup2\n        /* \"@openzeppelin/contracts/token/ERC721/ERC721.sol\":15743:15774  ERC721InvalidOperator(operator) */\n      mload(0x40)\n      0x5b08ba1800000000000000000000000000000000000000000000000000000000\n      dup2\n      mstore\n      0x04\n      add\n      tag_181\n      swap2\n      swap1\n      tag_35\n      jump\t// in\n    tag_181:\n      mload(0x40)\n      dup1\n      swap2\n      sub\n      swap1\n      revert\n        /* \"@openzeppelin/contracts/token/ERC721/ERC721.sol\":15694:15785  if (operator == address(0)) {... */\n    tag_180:\n        /* \"@openzeppelin/contracts/token/ERC721/ERC721.sol\":15832:15840  approved */\n      dup1\n        /* \"@openzeppelin/contracts/token/ERC721/ERC721.sol\":15794:15812  _operatorApprovals */\n      0x05\n        /* \"@openzeppelin/contracts/token/ERC721/ERC721.sol\":15794:15819  _operatorApprovals[owner] */\n      0x00\n        /* \"@openzeppelin/contracts/token/ERC721/ERC721.sol\":15813:15818  owner */\n      dup6\n        /* \"@openzeppelin/contracts/token/ERC721/ERC721.sol\":15794:15819  _operatorApprovals[owner] */\n      0xffffffffffffffffffffffffffffffffffffffff\n      and\n      0xffffffffffffffffffffffffffffffffffffffff\n      and\n      dup2\n      mstore\n      0x20\n      add\n      swap1\n      dup2\n      mstore\n      0x20\n      add\n      0x00\n      keccak256\n        /* \"@openzeppelin/contracts/token/ERC721/ERC721.sol\":15794:15829  _operatorApprovals[owner][operator] */\n      0x00\n        /* \"@openzeppelin/contracts/token/ERC721/ERC721.sol\":15820:15828  operator */\n      dup5\n        /* \"@openzeppelin/contracts/token/ERC721/ERC721.sol\":15794:15829  _operatorApprovals[owner][operator] */\n      0xffffffffffffffffffffffffffffffffffffffff\n      and\n      0xffffffffffffffffffffffffffffffffffffffff\n      and\n      dup2\n      mstore\n      0x20\n      add\n      swap1\n      dup2\n      mstore\n      0x20\n      add\n      0x00\n      keccak256\n      0x00\n        /* \"@openzeppelin/contracts/token/ERC721/ERC721.sol\":15794:15840  _operatorApprovals[owner][operator] = approved */\n      0x0100\n      exp\n      dup2\n      sload\n      dup2\n      0xff\n      mul\n      not\n      and\n      swap1\n      dup4\n      iszero\n      iszero\n      mul\n      or\n      swap1\n      sstore\n      pop\n        /* \"@openzeppelin/contracts/token/ERC721/ERC721.sol\":15877:15885  operator */\n      dup2\n        /* \"@openzeppelin/contracts/token/ERC721/ERC721.sol\":15855:15896  ApprovalForAll(owner, operator, approved) */\n      0xffffffffffffffffffffffffffffffffffffffff\n      and\n        /* \"@openzeppelin/contracts/token/ERC721/ERC721.sol\":15870:15875  owner */\n      dup4\n        /* \"@openzeppelin/contracts/token/ERC721/ERC721.sol\":15855:15896  ApprovalForAll(owner, operator, approved) */\n      0xffffffffffffffffffffffffffffffffffffffff\n      and\n      0x17307eab39ab6107e8899845ad3d59bd9653f200f220920489ca2b5937696c31\n        /* \"@openzeppelin/contracts/token/ERC721/ERC721.sol\":15887:15895  approved */\n      dup4\n        /* \"@openzeppelin/contracts/token/ERC721/ERC721.sol\":15855:15896  ApprovalForAll(owner, operator, approved) */\n      mload(0x40)\n      tag_182\n      swap2\n      swap1\n      tag_25\n      jump\t// in\n    tag_182:\n      mload(0x40)\n      dup1\n      swap2\n      sub\n      swap1\n      log3\n        /* \"@openzeppelin/contracts/token/ERC721/ERC721.sol\":15591:15903  function _setApprovalForAll(address owner, address operator, bool approved) internal virtual {... */\n      pop\n      pop\n      pop\n      jump\t// out\n        /* \"@openzeppelin/contracts/token/ERC721/ERC721.sol\":9955:10282  function _mint(address to, uint256 tokenId) internal {... */\n    tag_133:\n        /* \"@openzeppelin/contracts/token/ERC721/ERC721.sol\":10036:10037  0 */\n      0x00\n        /* \"@openzeppelin/contracts/token/ERC721/ERC721.sol\":10022:10038  to == address(0) */\n      0xffffffffffffffffffffffffffffffffffffffff\n      and\n        /* \"@openzeppelin/contracts/token/ERC721/ERC721.sol\":10022:10024  to */\n      dup3\n        /* \"@openzeppelin/contracts/token/ERC721/ERC721.sol\":10022:10038  to == address(0) */\n      0xffffffffffffffffffffffffffffffffffffffff\n      and\n      sub\n        /* \"@openzeppelin/contracts/token/ERC721/ERC721.sol\":10018:10105  if (to == address(0)) {... */\n      tag_184\n      jumpi\n        /* \"@openzeppelin/contracts/token/ERC721/ERC721.sol\":10091:10092  0 */\n      0x00\n        /* \"@openzeppelin/contracts/token/ERC721/ERC721.sol\":10061:10094  ERC721InvalidReceiver(address(0)) */\n      mload(0x40)\n      0x64a0ae9200000000000000000000000000000000000000000000000000000000\n      dup2\n      mstore\n      0x04\n      add\n      tag_185\n      swap2\n      swap1\n      tag_35\n      jump\t// in\n    tag_185:\n      mload(0x40)\n      dup1\n      swap2\n      sub\n      swap1\n      revert\n        /* \"@openzeppelin/contracts/token/ERC721/ERC721.sol\":10018:10105  if (to == address(0)) {... */\n    tag_184:\n        /* \"@openzeppelin/contracts/token/ERC721/ERC721.sol\":10114:10135  address previousOwner */\n      0x00\n        /* \"@openzeppelin/contracts/token/ERC721/ERC721.sol\":10138:10170  _update(to, tokenId, address(0)) */\n      tag_186\n        /* \"@openzeppelin/contracts/token/ERC721/ERC721.sol\":10146:10148  to */\n      dup4\n        /* \"@openzeppelin/contracts/token/ERC721/ERC721.sol\":10150:10157  tokenId */\n      dup4\n        /* \"@openzeppelin/contracts/token/ERC721/ERC721.sol\":10167:10168  0 */\n      0x00\n        /* \"@openzeppelin/contracts/token/ERC721/ERC721.sol\":10138:10145  _update */\n      tag_108\n        /* \"@openzeppelin/contracts/token/ERC721/ERC721.sol\":10138:10170  _update(to, tokenId, address(0)) */\n      jump\t// in\n    tag_186:\n        /* \"@openzeppelin/contracts/token/ERC721/ERC721.sol\":10114:10170  address previousOwner = _update(to, tokenId, address(0)) */\n      swap1\n      pop\n        /* \"@openzeppelin/contracts/token/ERC721/ERC721.sol\":10209:10210  0 */\n      0x00\n        /* \"@openzeppelin/contracts/token/ERC721/ERC721.sol\":10184:10211  previousOwner != address(0) */\n      0xffffffffffffffffffffffffffffffffffffffff\n      and\n        /* \"@openzeppelin/contracts/token/ERC721/ERC721.sol\":10184:10197  previousOwner */\n      dup2\n        /* \"@openzeppelin/contracts/token/ERC721/ERC721.sol\":10184:10211  previousOwner != address(0) */\n      0xffffffffffffffffffffffffffffffffffffffff\n      and\n      eq\n        /* \"@openzeppelin/contracts/token/ERC721/ERC721.sol\":10180:10276  if (previousOwner != address(0)) {... */\n      tag_187\n      jumpi\n        /* \"@openzeppelin/contracts/token/ERC721/ERC721.sol\":10262:10263  0 */\n      0x00\n        /* \"@openzeppelin/contracts/token/ERC721/ERC721.sol\":10234:10265  ERC721InvalidSender(address(0)) */\n      mload(0x40)\n      0x73c6ac6e00000000000000000000000000000000000000000000000000000000\n      dup2\n      mstore\n      0x04\n      add\n      tag_188\n      swap2\n      swap1\n      tag_35\n      jump\t// in\n    tag_188:\n      mload(0x40)\n      dup1\n      swap2\n      sub\n      swap1\n      revert\n        /* \"@openzeppelin/contracts/token/ERC721/ERC721.sol\":10180:10276  if (previousOwner != address(0)) {... */\n    tag_187:\n        /* \"@openzeppelin/contracts/token/ERC721/ERC721.sol\":10008:10282  {... */\n      pop\n        /* \"@openzeppelin/contracts/token/ERC721/ERC721.sol\":9955:10282  function _mint(address to, uint256 tokenId) internal {... */\n      pop\n      pop\n      jump\t// out\n        /* \"@openzeppelin/contracts/token/ERC721/extensions/ERC721URIStorage.sol\":1922:2089  function _setTokenURI(uint256 tokenId, string memory _tokenURI) internal virtual {... */\n    tag_135:\n        /* \"@openzeppelin/contracts/token/ERC721/extensions/ERC721URIStorage.sol\":2035:2044  _tokenURI */\n      dup1\n        /* \"@openzeppelin/contracts/token/ERC721/extensions/ERC721URIStorage.sol\":2013:2023  _tokenURIs */\n      0x06\n        /* \"@openzeppelin/contracts/token/ERC721/extensions/ERC721URIStorage.sol\":2013:2032  _tokenURIs[tokenId] */\n      0x00\n        /* \"@openzeppelin/contracts/token/ERC721/extensions/ERC721URIStorage.sol\":2024:2031  tokenId */\n      dup5\n        /* \"@openzeppelin/contracts/token/ERC721/extensions/ERC721URIStorage.sol\":2013:2032  _tokenURIs[tokenId] */\n      dup2\n      mstore\n      0x20\n      add\n      swap1\n      dup2\n      mstore\n      0x20\n      add\n      0x00\n      keccak256\n        /* \"@openzeppelin/contracts/token/ERC721/extensions/ERC721URIStorage.sol\":2013:2044  _tokenURIs[tokenId] = _tokenURI */\n      swap1\n      dup2\n      tag_190\n      swap2\n      swap1\n      tag_191\n      jump\t// in\n    tag_190:\n      pop\n        /* \"@openzeppelin/contracts/token/ERC721/extensions/ERC721URIStorage.sol\":2059:2082  MetadataUpdate(tokenId) */\n      0xf8e1a15aba9398e019f0b49df1a4fde98ee17ae345cb5f6b5e2c27f5033e8ce7\n        /* \"@openzeppelin/contracts/token/ERC721/extensions/ERC721URIStorage.sol\":2074:2081  tokenId */\n      dup3\n        /* \"@openzeppelin/contracts/token/ERC721/extensions/ERC721URIStorage.sol\":2059:2082  MetadataUpdate(tokenId) */\n      mload(0x40)\n      tag_192\n      swap2\n      swap1\n      tag_56\n      jump\t// in\n    tag_192:\n      mload(0x40)\n      dup1\n      swap2\n      sub\n      swap1\n      log1\n        /* \"@openzeppelin/contracts/token/ERC721/extensions/ERC721URIStorage.sol\":1922:2089  function _setTokenURI(uint256 tokenId, string memory _tokenURI) internal virtual {... */\n      pop\n      pop\n      jump\t// out\n        /* \"@openzeppelin/contracts/token/ERC721/ERC721.sol\":16918:17700  function _checkOnERC721Received(address from, address to, uint256 tokenId, bytes memory data) private {... */\n    tag_139:\n        /* \"@openzeppelin/contracts/token/ERC721/ERC721.sol\":17051:17052  0 */\n      0x00\n        /* \"@openzeppelin/contracts/token/ERC721/ERC721.sol\":17034:17036  to */\n      dup4\n        /* \"@openzeppelin/contracts/token/ERC721/ERC721.sol\":17034:17048  to.code.length */\n      0xffffffffffffffffffffffffffffffffffffffff\n      and\n      extcodesize\n        /* \"@openzeppelin/contracts/token/ERC721/ERC721.sol\":17034:17052  to.code.length > 0 */\n      gt\n        /* \"@openzeppelin/contracts/token/ERC721/ERC721.sol\":17030:17694  if (to.code.length > 0) {... */\n      iszero\n      tag_194\n      jumpi\n        /* \"@openzeppelin/contracts/token/ERC721/ERC721.sol\":17088:17090  to */\n      dup3\n        /* \"@openzeppelin/contracts/token/ERC721/ERC721.sol\":17072:17108  IERC721Receiver(to).onERC721Received */\n      0xffffffffffffffffffffffffffffffffffffffff\n      and\n      0x150b7a02\n        /* \"@openzeppelin/contracts/token/ERC721/ERC721.sol\":17109:17121  _msgSender() */\n      tag_195\n        /* \"@openzeppelin/contracts/token/ERC721/ERC721.sol\":17109:17119  _msgSender */\n      tag_101\n        /* \"@openzeppelin/contracts/token/ERC721/ERC721.sol\":17109:17121  _msgSender() */\n      jump\t// in\n    tag_195:\n        /* \"@openzeppelin/contracts/token/ERC721/ERC721.sol\":17123:17127  from */\n      dup7\n        /* \"@openzeppelin/contracts/token/ERC721/ERC721.sol\":17129:17136  tokenId */\n      dup6\n        /* \"@openzeppelin/contracts/token/ERC721/ERC721.sol\":17138:17142  data */\n      dup6\n        /* \"@openzeppelin/contracts/token/ERC721/ERC721.sol\":17072:17143  IERC721Receiver(to).onERC721Received(_msgSender(), from, tokenId, data) */\n      mload(0x40)\n      dup6\n      0xffffffff\n      and\n      0xe0\n      shl\n      dup2\n      mstore\n      0x04\n      add\n      tag_196\n      swap5\n      swap4\n      swap3\n      swap2\n      swap1\n      tag_197\n      jump\t// in\n    tag_196:\n      0x20\n      mload(0x40)\n      dup1\n      dup4\n      sub\n      dup2\n      0x00\n      dup8\n      gas\n      call\n      swap3\n      pop\n      pop\n      pop\n      dup1\n      iszero\n      tag_198\n      jumpi\n      pop\n      mload(0x40)\n      returndatasize\n      not(0x1f)\n      0x1f\n      dup3\n      add\n      and\n      dup3\n      add\n      dup1\n      0x40\n      mstore\n      pop\n      dup2\n      add\n      swap1\n      tag_199\n      swap2\n      swap1\n      tag_200\n      jump\t// in\n    tag_199:\n      0x01\n    tag_198:\n        /* \"@openzeppelin/contracts/token/ERC721/ERC721.sol\":17068:17684  try IERC721Receiver(to).onERC721Received(_msgSender(), from, tokenId, data) returns (bytes4 retval) {... */\n      tag_201\n      jumpi\n      returndatasize\n      dup1\n      0x00\n      dup2\n      eq\n      tag_206\n      jumpi\n      mload(0x40)\n      swap2\n      pop\n      and(add(returndatasize, 0x3f), not(0x1f))\n      dup3\n      add\n      0x40\n      mstore\n      returndatasize\n      dup3\n      mstore\n      returndatasize\n      0x00\n      0x20\n      dup5\n      add\n      returndatacopy\n      jump(tag_205)\n    tag_206:\n      0x60\n      swap2\n      pop\n    tag_205:\n      pop\n        /* \"@openzeppelin/contracts/token/ERC721/ERC721.sol\":17398:17399  0 */\n      0x00\n        /* \"@openzeppelin/contracts/token/ERC721/ERC721.sol\":17381:17387  reason */\n      dup2\n        /* \"@openzeppelin/contracts/token/ERC721/ERC721.sol\":17381:17394  reason.length */\n      mload\n        /* \"@openzeppelin/contracts/token/ERC721/ERC721.sol\":17381:17399  reason.length == 0 */\n      sub\n        /* \"@openzeppelin/contracts/token/ERC721/ERC721.sol\":17377:17670  if (reason.length == 0) {... */\n      tag_207\n      jumpi\n        /* \"@openzeppelin/contracts/token/ERC721/ERC721.sol\":17452:17454  to */\n      dup4\n        /* \"@openzeppelin/contracts/token/ERC721/ERC721.sol\":17430:17455  ERC721InvalidReceiver(to) */\n      mload(0x40)\n      0x64a0ae9200000000000000000000000000000000000000000000000000000000\n      dup2\n      mstore\n      0x04\n      add\n      tag_208\n      swap2\n      swap1\n      tag_35\n      jump\t// in\n    tag_208:\n      mload(0x40)\n      dup1\n      swap2\n      sub\n      swap1\n      revert\n        /* \"@openzeppelin/contracts/token/ERC721/ERC721.sol\":17377:17670  if (reason.length == 0) {... */\n    tag_207:\n        /* \"@openzeppelin/contracts/token/ERC721/ERC721.sol\":17622:17628  reason */\n      dup1\n        /* \"@openzeppelin/contracts/token/ERC721/ERC721.sol\":17616:17629  mload(reason) */\n      mload\n        /* \"@openzeppelin/contracts/token/ERC721/ERC721.sol\":17607:17613  reason */\n      dup2\n        /* \"@openzeppelin/contracts/token/ERC721/ERC721.sol\":17603:17605  32 */\n      0x20\n        /* \"@openzeppelin/contracts/token/ERC721/ERC721.sol\":17599:17614  add(32, reason) */\n      add\n        /* \"@openzeppelin/contracts/token/ERC721/ERC721.sol\":17592:17630  revert(add(32, reason), mload(reason)) */\n      revert\n        /* \"@openzeppelin/contracts/token/ERC721/ERC721.sol\":17068:17684  try IERC721Receiver(to).onERC721Received(_msgSender(), from, tokenId, data) returns (bytes4 retval) {... */\n    tag_201:\n        /* \"@openzeppelin/contracts/token/ERC721/ERC721.sol\":17200:17241  IERC721Receiver.onERC721Received.selector */\n      shl(0xe0, 0x150b7a02)\n        /* \"@openzeppelin/contracts/token/ERC721/ERC721.sol\":17190:17241  retval != IERC721Receiver.onERC721Received.selector */\n      not(0xffffffffffffffffffffffffffffffffffffffffffffffffffffffff)\n      and\n        /* \"@openzeppelin/contracts/token/ERC721/ERC721.sol\":17190:17196  retval */\n      dup2\n        /* \"@openzeppelin/contracts/token/ERC721/ERC721.sol\":17190:17241  retval != IERC721Receiver.onERC721Received.selector */\n      not(0xffffffffffffffffffffffffffffffffffffffffffffffffffffffff)\n      and\n      eq\n        /* \"@openzeppelin/contracts/token/ERC721/ERC721.sol\":17186:17316  if (retval != IERC721Receiver.onERC721Received.selector) {... */\n      tag_211\n      jumpi\n        /* \"@openzeppelin/contracts/token/ERC721/ERC721.sol\":17294:17296  to */\n      dup4\n        /* \"@openzeppelin/contracts/token/ERC721/ERC721.sol\":17272:17297  ERC721InvalidReceiver(to) */\n      mload(0x40)\n      0x64a0ae9200000000000000000000000000000000000000000000000000000000\n      dup2\n      mstore\n      0x04\n      add\n      tag_212\n      swap2\n      swap1\n      tag_35\n      jump\t// in\n    tag_212:\n      mload(0x40)\n      dup1\n      swap2\n      sub\n      swap1\n      revert\n        /* \"@openzeppelin/contracts/token/ERC721/ERC721.sol\":17186:17316  if (retval != IERC721Receiver.onERC721Received.selector) {... */\n    tag_211:\n        /* \"@openzeppelin/contracts/token/ERC721/ERC721.sol\":17144:17330  returns (bytes4 retval) {... */\n      pop\n        /* \"@openzeppelin/contracts/token/ERC721/ERC721.sol\":17030:17694  if (to.code.length > 0) {... */\n    tag_194:\n        /* \"@openzeppelin/contracts/token/ERC721/ERC721.sol\":16918:17700  function _checkOnERC721Received(address from, address to, uint256 tokenId, bytes memory data) private {... */\n      pop\n      pop\n      pop\n      pop\n      jump\t// out\n        /* \"@openzeppelin/contracts/token/ERC721/ERC721.sol\":3174:3266  function _baseURI() internal view virtual returns (string memory) {... */\n    tag_148:\n        /* \"@openzeppelin/contracts/token/ERC721/ERC721.sol\":3225:3238  string memory */\n      0x60\n        /* \"@openzeppelin/contracts/token/ERC721/ERC721.sol\":3250:3259  return \"\" */\n      mload(0x40)\n      dup1\n      0x20\n      add\n      0x40\n      mstore\n      dup1\n      0x00\n      dup2\n      mstore\n      pop\n      swap1\n      pop\n        /* \"@openzeppelin/contracts/token/ERC721/ERC721.sol\":3174:3266  function _baseURI() internal view virtual returns (string memory) {... */\n      swap1\n      jump\t// out\n        /* \"@openzeppelin/contracts/token/ERC721/ERC721.sol\":2677:2932  function tokenURI(uint256 tokenId) public view virtual returns (string memory) {... */\n    tag_154:\n        /* \"@openzeppelin/contracts/token/ERC721/ERC721.sol\":2741:2754  string memory */\n      0x60\n        /* \"@openzeppelin/contracts/token/ERC721/ERC721.sol\":2766:2788  _requireOwned(tokenId) */\n      tag_215\n        /* \"@openzeppelin/contracts/token/ERC721/ERC721.sol\":2780:2787  tokenId */\n      dup3\n        /* \"@openzeppelin/contracts/token/ERC721/ERC721.sol\":2766:2779  _requireOwned */\n      tag_95\n        /* \"@openzeppelin/contracts/token/ERC721/ERC721.sol\":2766:2788  _requireOwned(tokenId) */\n      jump\t// in\n    tag_215:\n      pop\n        /* \"@openzeppelin/contracts/token/ERC721/ERC721.sol\":2799:2820  string memory baseURI */\n      0x00\n        /* \"@openzeppelin/contracts/token/ERC721/ERC721.sol\":2823:2833  _baseURI() */\n      tag_216\n        /* \"@openzeppelin/contracts/token/ERC721/ERC721.sol\":2823:2831  _baseURI */\n      tag_148\n        /* \"@openzeppelin/contracts/token/ERC721/ERC721.sol\":2823:2833  _baseURI() */\n      jump\t// in\n    tag_216:\n        /* \"@openzeppelin/contracts/token/ERC721/ERC721.sol\":2799:2833  string memory baseURI = _baseURI() */\n      swap1\n      pop\n        /* \"@openzeppelin/contracts/token/ERC721/ERC721.sol\":2874:2875  0 */\n      0x00\n        /* \"@openzeppelin/contracts/token/ERC721/ERC721.sol\":2856:2863  baseURI */\n      dup2\n        /* \"@openzeppelin/contracts/token/ERC721/ERC721.sol\":2850:2871  bytes(baseURI).length */\n      mload\n        /* \"@openzeppelin/contracts/token/ERC721/ERC721.sol\":2850:2875  bytes(baseURI).length > 0 */\n      gt\n        /* \"@openzeppelin/contracts/token/ERC721/ERC721.sol\":2850:2925  bytes(baseURI).length > 0 ? string.concat(baseURI, tokenId.toString()) : \"\" */\n      tag_217\n      jumpi\n      mload(0x40)\n      dup1\n      0x20\n      add\n      0x40\n      mstore\n      dup1\n      0x00\n      dup2\n      mstore\n      pop\n      jump(tag_218)\n    tag_217:\n        /* \"@openzeppelin/contracts/token/ERC721/ERC721.sol\":2892:2899  baseURI */\n      dup1\n        /* \"@openzeppelin/contracts/token/ERC721/ERC721.sol\":2901:2919  tokenId.toString() */\n      tag_219\n        /* \"@openzeppelin/contracts/token/ERC721/ERC721.sol\":2901:2908  tokenId */\n      dup5\n        /* \"@openzeppelin/contracts/token/ERC721/ERC721.sol\":2901:2917  tokenId.toString */\n      tag_220\n        /* \"@openzeppelin/contracts/token/ERC721/ERC721.sol\":2901:2919  tokenId.toString() */\n      jump\t// in\n    tag_219:\n        /* \"@openzeppelin/contracts/token/ERC721/ERC721.sol\":2878:2920  string.concat(baseURI, tokenId.toString()) */\n      add(0x20, mload(0x40))\n      tag_221\n      swap3\n      swap2\n      swap1\n      tag_152\n      jump\t// in\n    tag_221:\n      mload(0x40)\n      0x20\n      dup2\n      dup4\n      sub\n      sub\n      dup2\n      mstore\n      swap1\n      0x40\n      mstore\n        /* \"@openzeppelin/contracts/token/ERC721/ERC721.sol\":2850:2925  bytes(baseURI).length > 0 ? string.concat(baseURI, tokenId.toString()) : \"\" */\n    tag_218:\n        /* \"@openzeppelin/contracts/token/ERC721/ERC721.sol\":2843:2925  return bytes(baseURI).length > 0 ? string.concat(baseURI, tokenId.toString()) : \"\" */\n      swap2\n      pop\n      pop\n        /* \"@openzeppelin/contracts/token/ERC721/ERC721.sol\":2677:2932  function tokenURI(uint256 tokenId) public view virtual returns (string memory) {... */\n      swap2\n      swap1\n      pop\n      jump\t// out\n        /* \"@openzeppelin/contracts/utils/introspection/ERC165.sol\":762:908  function supportsInterface(bytes4 interfaceId) public view virtual returns (bool) {... */\n    tag_160:\n        /* \"@openzeppelin/contracts/utils/introspection/ERC165.sol\":838:842  bool */\n      0x00\n        /* \"@openzeppelin/contracts/utils/introspection/ERC165.sol\":876:901  type(IERC165).interfaceId */\n      0x01ffc9a700000000000000000000000000000000000000000000000000000000\n        /* \"@openzeppelin/contracts/utils/introspection/ERC165.sol\":861:901  interfaceId == type(IERC165).interfaceId */\n      not(0xffffffffffffffffffffffffffffffffffffffffffffffffffffffff)\n      and\n        /* \"@openzeppelin/contracts/utils/introspection/ERC165.sol\":861:872  interfaceId */\n      dup3\n        /* \"@openzeppelin/contracts/utils/introspection/ERC165.sol\":861:901  interfaceId == type(IERC165).interfaceId */\n      not(0xffffffffffffffffffffffffffffffffffffffffffffffffffffffff)\n      and\n      eq\n        /* \"@openzeppelin/contracts/utils/introspection/ERC165.sol\":854:901  return interfaceId == type(IERC165).interfaceId */\n      swap1\n      pop\n        /* \"@openzeppelin/contracts/utils/introspection/ERC165.sol\":762:908  function supportsInterface(bytes4 interfaceId) public view virtual returns (bool) {... */\n      swap2\n      swap1\n      pop\n      jump\t// out\n        /* \"@openzeppelin/contracts/token/ERC721/ERC721.sol\":5707:5822  function _ownerOf(uint256 tokenId) internal view virtual returns (address) {... */\n    tag_163:\n        /* \"@openzeppelin/contracts/token/ERC721/ERC721.sol\":5773:5780  address */\n      0x00\n        /* \"@openzeppelin/contracts/token/ERC721/ERC721.sol\":5799:5806  _owners */\n      0x02\n        /* \"@openzeppelin/contracts/token/ERC721/ERC721.sol\":5799:5815  _owners[tokenId] */\n      0x00\n        /* \"@openzeppelin/contracts/token/ERC721/ERC721.sol\":5807:5814  tokenId */\n      dup4\n        /* \"@openzeppelin/contracts/token/ERC721/ERC721.sol\":5799:5815  _owners[tokenId] */\n      dup2\n      mstore\n      0x20\n      add\n      swap1\n      dup2\n      mstore\n      0x20\n      add\n      0x00\n      keccak256\n      0x00\n      swap1\n      sload\n      swap1\n      0x0100\n      exp\n      swap1\n      div\n      0xffffffffffffffffffffffffffffffffffffffff\n      and\n        /* \"@openzeppelin/contracts/token/ERC721/ERC721.sol\":5792:5815  return _owners[tokenId] */\n      swap1\n      pop\n        /* \"@openzeppelin/contracts/token/ERC721/ERC721.sol\":5707:5822  function _ownerOf(uint256 tokenId) internal view virtual returns (address) {... */\n      swap2\n      swap1\n      pop\n      jump\t// out\n        /* \"@openzeppelin/contracts/token/ERC721/ERC721.sol\":14720:15382  function _approve(address to, uint256 tokenId, address auth, bool emitEvent) internal virtual {... */\n    tag_170:\n        /* \"@openzeppelin/contracts/token/ERC721/ERC721.sol\":14880:14889  emitEvent */\n      dup1\n        /* \"@openzeppelin/contracts/token/ERC721/ERC721.sol\":14880:14911  emitEvent || auth != address(0) */\n      dup1\n      tag_225\n      jumpi\n      pop\n        /* \"@openzeppelin/contracts/token/ERC721/ERC721.sol\":14909:14910  0 */\n      0x00\n        /* \"@openzeppelin/contracts/token/ERC721/ERC721.sol\":14893:14911  auth != address(0) */\n      0xffffffffffffffffffffffffffffffffffffffff\n      and\n        /* \"@openzeppelin/contracts/token/ERC721/ERC721.sol\":14893:14897  auth */\n      dup3\n        /* \"@openzeppelin/contracts/token/ERC721/ERC721.sol\":14893:14911  auth != address(0) */\n      0xffffffffffffffffffffffffffffffffffffffff\n      and\n      eq\n      iszero\n        /* \"@openzeppelin/contracts/token/ERC721/ERC721.sol\":14880:14911  emitEvent || auth != address(0) */\n    tag_225:\n        /* \"@openzeppelin/contracts/token/ERC721/ERC721.sol\":14876:15336  if (emitEvent || auth != address(0)) {... */\n      iszero\n      tag_226\n      jumpi\n        /* \"@openzeppelin/contracts/token/ERC721/ERC721.sol\":14927:14940  address owner */\n      0x00\n        /* \"@openzeppelin/contracts/token/ERC721/ERC721.sol\":14943:14965  _requireOwned(tokenId) */\n      tag_227\n        /* \"@openzeppelin/contracts/token/ERC721/ERC721.sol\":14957:14964  tokenId */\n      dup5\n        /* \"@openzeppelin/contracts/token/ERC721/ERC721.sol\":14943:14956  _requireOwned */\n      tag_95\n        /* \"@openzeppelin/contracts/token/ERC721/ERC721.sol\":14943:14965  _requireOwned(tokenId) */\n      jump\t// in\n    tag_227:\n        /* \"@openzeppelin/contracts/token/ERC721/ERC721.sol\":14927:14965  address owner = _requireOwned(tokenId) */\n      swap1\n      pop\n        /* \"@openzeppelin/contracts/token/ERC721/ERC721.sol\":15109:15110  0 */\n      0x00\n        /* \"@openzeppelin/contracts/token/ERC721/ERC721.sol\":15093:15111  auth != address(0) */\n      0xffffffffffffffffffffffffffffffffffffffff\n      and\n        /* \"@openzeppelin/contracts/token/ERC721/ERC721.sol\":15093:15097  auth */\n      dup4\n        /* \"@openzeppelin/contracts/token/ERC721/ERC721.sol\":15093:15111  auth != address(0) */\n      0xffffffffffffffffffffffffffffffffffffffff\n      and\n      eq\n      iszero\n        /* \"@openzeppelin/contracts/token/ERC721/ERC721.sol\":15093:15128  auth != address(0) && owner != auth */\n      dup1\n      iszero\n      tag_228\n      jumpi\n      pop\n        /* \"@openzeppelin/contracts/token/ERC721/ERC721.sol\":15124:15128  auth */\n      dup3\n        /* \"@openzeppelin/contracts/token/ERC721/ERC721.sol\":15115:15128  owner != auth */\n      0xffffffffffffffffffffffffffffffffffffffff\n      and\n        /* \"@openzeppelin/contracts/token/ERC721/ERC721.sol\":15115:15120  owner */\n      dup2\n        /* \"@openzeppelin/contracts/token/ERC721/ERC721.sol\":15115:15128  owner != auth */\n      0xffffffffffffffffffffffffffffffffffffffff\n      and\n      eq\n      iszero\n        /* \"@openzeppelin/contracts/token/ERC721/ERC721.sol\":15093:15128  auth != address(0) && owner != auth */\n    tag_228:\n        /* \"@openzeppelin/contracts/token/ERC721/ERC721.sol\":15093:15162  auth != address(0) && owner != auth && !isApprovedForAll(owner, auth) */\n      dup1\n      iszero\n      tag_229\n      jumpi\n      pop\n        /* \"@openzeppelin/contracts/token/ERC721/ERC721.sol\":15133:15162  isApprovedForAll(owner, auth) */\n      tag_230\n        /* \"@openzeppelin/contracts/token/ERC721/ERC721.sol\":15150:15155  owner */\n      dup2\n        /* \"@openzeppelin/contracts/token/ERC721/ERC721.sol\":15157:15161  auth */\n      dup5\n        /* \"@openzeppelin/contracts/token/ERC721/ERC721.sol\":15133:15149  isApprovedForAll */\n      tag_80\n        /* \"@openzeppelin/contracts/token/ERC721/ERC721.sol\":15133:15162  isApprovedForAll(owner, auth) */\n      jump\t// in\n    tag_230:\n        /* \"@openzeppelin/contracts/token/ERC721/ERC721.sol\":15132:15162  !isApprovedForAll(owner, auth) */\n      iszero\n        /* \"@openzeppelin/contracts/token/ERC721/ERC721.sol\":15093:15162  auth != address(0) && owner != auth && !isApprovedForAll(owner, auth) */\n    tag_229:\n        /* \"@openzeppelin/contracts/token/ERC721/ERC721.sol\":15089:15231  if (auth != address(0) && owner != auth && !isApprovedForAll(owner, auth)) {... */\n      iszero\n      tag_231\n      jumpi\n        /* \"@openzeppelin/contracts/token/ERC721/ERC721.sol\":15211:15215  auth */\n      dup3\n        /* \"@openzeppelin/contracts/token/ERC721/ERC721.sol\":15189:15216  ERC721InvalidApprover(auth) */\n      mload(0x40)\n      0xa9fbf51f00000000000000000000000000000000000000000000000000000000\n      dup2\n      mstore\n      0x04\n      add\n      tag_232\n      swap2\n      swap1\n      tag_35\n      jump\t// in\n    tag_232:\n      mload(0x40)\n      dup1\n      swap2\n      sub\n      swap1\n      revert\n        /* \"@openzeppelin/contracts/token/ERC721/ERC721.sol\":15089:15231  if (auth != address(0) && owner != auth && !isApprovedForAll(owner, auth)) {... */\n    tag_231:\n        /* \"@openzeppelin/contracts/token/ERC721/ERC721.sol\":15249:15258  emitEvent */\n      dup2\n        /* \"@openzeppelin/contracts/token/ERC721/ERC721.sol\":15245:15326  if (emitEvent) {... */\n      iszero\n      tag_233\n      jumpi\n        /* \"@openzeppelin/contracts/token/ERC721/ERC721.sol\":15303:15310  tokenId */\n      dup4\n        /* \"@openzeppelin/contracts/token/ERC721/ERC721.sol\":15299:15301  to */\n      dup6\n        /* \"@openzeppelin/contracts/token/ERC721/ERC721.sol\":15283:15311  Approval(owner, to, tokenId) */\n      0xffffffffffffffffffffffffffffffffffffffff\n      and\n        /* \"@openzeppelin/contracts/token/ERC721/ERC721.sol\":15292:15297  owner */\n      dup3\n        /* \"@openzeppelin/contracts/token/ERC721/ERC721.sol\":15283:15311  Approval(owner, to, tokenId) */\n      0xffffffffffffffffffffffffffffffffffffffff\n      and\n      0x8c5be1e5ebec7d5bd14f71427d1e84f3dd0314c0f7b2291e5b200ac8c7c3b925\n      mload(0x40)\n      mload(0x40)\n      dup1\n      swap2\n      sub\n      swap1\n      log4\n        /* \"@openzeppelin/contracts/token/ERC721/ERC721.sol\":15245:15326  if (emitEvent) {... */\n    tag_233:\n        /* \"@openzeppelin/contracts/token/ERC721/ERC721.sol\":14913:15336  {... */\n      pop\n        /* \"@openzeppelin/contracts/token/ERC721/ERC721.sol\":14876:15336  if (emitEvent || auth != address(0)) {... */\n    tag_226:\n        /* \"@openzeppelin/contracts/token/ERC721/ERC721.sol\":15373:15375  to */\n      dup4\n        /* \"@openzeppelin/contracts/token/ERC721/ERC721.sol\":15346:15361  _tokenApprovals */\n      0x04\n        /* \"@openzeppelin/contracts/token/ERC721/ERC721.sol\":15346:15370  _tokenApprovals[tokenId] */\n      0x00\n        /* \"@openzeppelin/contracts/token/ERC721/ERC721.sol\":15362:15369  tokenId */\n      dup6\n        /* \"@openzeppelin/contracts/token/ERC721/ERC721.sol\":15346:15370  _tokenApprovals[tokenId] */\n      dup2\n      mstore\n      0x20\n      add\n      swap1\n      dup2\n      mstore\n      0x20\n      add\n      0x00\n      keccak256\n      0x00\n        /* \"@openzeppelin/contracts/token/ERC721/ERC721.sol\":15346:15375  _tokenApprovals[tokenId] = to */\n      0x0100\n      exp\n      dup2\n      sload\n      dup2\n      0xffffffffffffffffffffffffffffffffffffffff\n      mul\n      not\n      and\n      swap1\n      dup4\n      0xffffffffffffffffffffffffffffffffffffffff\n      and\n      mul\n      or\n      swap1\n      sstore\n      pop\n        /* \"@openzeppelin/contracts/token/ERC721/ERC721.sol\":14720:15382  function _approve(address to, uint256 tokenId, address auth, bool emitEvent) internal virtual {... */\n      pop\n      pop\n      pop\n      pop\n      jump\t// out\n        /* \"@openzeppelin/contracts/token/ERC721/ERC721.sol\":7082:7450  function _checkAuthorized(address owner, address spender, uint256 tokenId) internal view virtual {... */\n    tag_175:\n        /* \"@openzeppelin/contracts/token/ERC721/ERC721.sol\":7194:7232  _isAuthorized(owner, spender, tokenId) */\n      tag_235\n        /* \"@openzeppelin/contracts/token/ERC721/ERC721.sol\":7208:7213  owner */\n      dup4\n        /* \"@openzeppelin/contracts/token/ERC721/ERC721.sol\":7215:7222  spender */\n      dup4\n        /* \"@openzeppelin/contracts/token/ERC721/ERC721.sol\":7224:7231  tokenId */\n      dup4\n        /* \"@openzeppelin/contracts/token/ERC721/ERC721.sol\":7194:7207  _isAuthorized */\n      tag_236\n        /* \"@openzeppelin/contracts/token/ERC721/ERC721.sol\":7194:7232  _isAuthorized(owner, spender, tokenId) */\n      jump\t// in\n    tag_235:\n        /* \"@openzeppelin/contracts/token/ERC721/ERC721.sol\":7189:7444  if (!_isAuthorized(owner, spender, tokenId)) {... */\n      tag_237\n      jumpi\n        /* \"@openzeppelin/contracts/token/ERC721/ERC721.sol\":7269:7270  0 */\n      0x00\n        /* \"@openzeppelin/contracts/token/ERC721/ERC721.sol\":7252:7271  owner == address(0) */\n      0xffffffffffffffffffffffffffffffffffffffff\n      and\n        /* \"@openzeppelin/contracts/token/ERC721/ERC721.sol\":7252:7257  owner */\n      dup4\n        /* \"@openzeppelin/contracts/token/ERC721/ERC721.sol\":7252:7271  owner == address(0) */\n      0xffffffffffffffffffffffffffffffffffffffff\n      and\n      sub\n        /* \"@openzeppelin/contracts/token/ERC721/ERC721.sol\":7248:7434  if (owner == address(0)) {... */\n      tag_238\n      jumpi\n        /* \"@openzeppelin/contracts/token/ERC721/ERC721.sol\":7321:7328  tokenId */\n      dup1\n        /* \"@openzeppelin/contracts/token/ERC721/ERC721.sol\":7298:7329  ERC721NonexistentToken(tokenId) */\n      mload(0x40)\n      0x7e27328900000000000000000000000000000000000000000000000000000000\n      dup2\n      mstore\n      0x04\n      add\n      tag_239\n      swap2\n      swap1\n      tag_56\n      jump\t// in\n    tag_239:\n      mload(0x40)\n      dup1\n      swap2\n      sub\n      swap1\n      revert\n        /* \"@openzeppelin/contracts/token/ERC721/ERC721.sol\":7248:7434  if (owner == address(0)) {... */\n    tag_238:\n        /* \"@openzeppelin/contracts/token/ERC721/ERC721.sol\":7402:7409  spender */\n      dup2\n        /* \"@openzeppelin/contracts/token/ERC721/ERC721.sol\":7411:7418  tokenId */\n      dup2\n        /* \"@openzeppelin/contracts/token/ERC721/ERC721.sol\":7375:7419  ERC721InsufficientApproval(spender, tokenId) */\n      mload(0x40)\n      0x177e802f00000000000000000000000000000000000000000000000000000000\n      dup2\n      mstore\n      0x04\n      add\n      tag_241\n      swap3\n      swap2\n      swap1\n      tag_242\n      jump\t// in\n    tag_241:\n      mload(0x40)\n      dup1\n      swap2\n      sub\n      swap1\n      revert\n        /* \"@openzeppelin/contracts/token/ERC721/ERC721.sol\":7189:7444  if (!_isAuthorized(owner, spender, tokenId)) {... */\n    tag_237:\n        /* \"@openzeppelin/contracts/token/ERC721/ERC721.sol\":7082:7450  function _checkAuthorized(address owner, address spender, uint256 tokenId) internal view virtual {... */\n      pop\n      pop\n      pop\n      jump\t// out\n        /* \"@openzeppelin/contracts/utils/Strings.sol\":637:1335  function toString(uint256 value) internal pure returns (string memory) {... */\n    tag_220:\n        /* \"@openzeppelin/contracts/utils/Strings.sol\":693:706  string memory */\n      0x60\n        /* \"@openzeppelin/contracts/utils/Strings.sol\":742:756  uint256 length */\n      0x00\n        /* \"@openzeppelin/contracts/utils/Strings.sol\":779:780  1 */\n      0x01\n        /* \"@openzeppelin/contracts/utils/Strings.sol\":759:776  Math.log10(value) */\n      tag_244\n        /* \"@openzeppelin/contracts/utils/Strings.sol\":770:775  value */\n      dup5\n        /* \"@openzeppelin/contracts/utils/Strings.sol\":759:769  Math.log10 */\n      tag_245\n        /* \"@openzeppelin/contracts/utils/Strings.sol\":759:776  Math.log10(value) */\n      jump\t// in\n    tag_244:\n        /* \"@openzeppelin/contracts/utils/Strings.sol\":759:780  Math.log10(value) + 1 */\n      add\n        /* \"@openzeppelin/contracts/utils/Strings.sol\":742:780  uint256 length = Math.log10(value) + 1 */\n      swap1\n      pop\n        /* \"@openzeppelin/contracts/utils/Strings.sol\":794:814  string memory buffer */\n      0x00\n        /* \"@openzeppelin/contracts/utils/Strings.sol\":828:834  length */\n      dup2\n        /* \"@openzeppelin/contracts/utils/Strings.sol\":817:835  new string(length) */\n      0xffffffffffffffff\n      dup2\n      gt\n      iszero\n      tag_246\n      jumpi\n      tag_247\n      tag_248\n      jump\t// in\n    tag_247:\n    tag_246:\n      mload(0x40)\n      swap1\n      dup1\n      dup3\n      mstore\n      dup1\n      0x1f\n      add\n      not(0x1f)\n      and\n      0x20\n      add\n      dup3\n      add\n      0x40\n      mstore\n      dup1\n      iszero\n      tag_249\n      jumpi\n      dup2\n      0x20\n      add\n      0x01\n      dup3\n      mul\n      dup1\n      calldatasize\n      dup4\n      calldatacopy\n      dup1\n      dup3\n      add\n      swap2\n      pop\n      pop\n      swap1\n      pop\n    tag_249:\n      pop\n        /* \"@openzeppelin/contracts/utils/Strings.sol\":794:835  string memory buffer = new string(length) */\n      swap1\n      pop\n        /* \"@openzeppelin/contracts/utils/Strings.sol\":849:860  uint256 ptr */\n      0x00\n        /* \"@openzeppelin/contracts/utils/Strings.sol\":975:981  length */\n      dup3\n        /* \"@openzeppelin/contracts/utils/Strings.sol\":971:973  32 */\n      0x20\n        /* \"@openzeppelin/contracts/utils/Strings.sol\":967:982  add(32, length) */\n      add\n        /* \"@openzeppelin/contracts/utils/Strings.sol\":959:965  buffer */\n      dup3\n        /* \"@openzeppelin/contracts/utils/Strings.sol\":955:983  add(buffer, add(32, length)) */\n      add\n        /* \"@openzeppelin/contracts/utils/Strings.sol\":948:983  ptr := add(buffer, add(32, length)) */\n      swap1\n      pop\n        /* \"@openzeppelin/contracts/utils/Strings.sol\":1010:1292  while (true) {... */\n    tag_250:\n        /* \"@openzeppelin/contracts/utils/Strings.sol\":1017:1021  true */\n      0x01\n        /* \"@openzeppelin/contracts/utils/Strings.sol\":1010:1292  while (true) {... */\n      iszero\n      tag_251\n      jumpi\n        /* \"@openzeppelin/contracts/utils/Strings.sol\":1041:1046  ptr-- */\n      dup1\n      dup1\n      0x01\n      swap1\n      sub\n      swap2\n      pop\n      pop\n        /* \"@openzeppelin/contracts/utils/Strings.sol\":1180:1190  HEX_DIGITS */\n      0x3031323334353637383961626364656600000000000000000000000000000000\n        /* \"@openzeppelin/contracts/utils/Strings.sol\":1175:1177  10 */\n      0x0a\n        /* \"@openzeppelin/contracts/utils/Strings.sol\":1168:1173  value */\n      dup7\n        /* \"@openzeppelin/contracts/utils/Strings.sol\":1164:1178  mod(value, 10) */\n      mod\n        /* \"@openzeppelin/contracts/utils/Strings.sol\":1159:1191  byte(mod(value, 10), HEX_DIGITS) */\n      byte\n        /* \"@openzeppelin/contracts/utils/Strings.sol\":1154:1157  ptr */\n      dup2\n        /* \"@openzeppelin/contracts/utils/Strings.sol\":1146:1192  mstore8(ptr, byte(mod(value, 10), HEX_DIGITS)) */\n      mstore8\n        /* \"@openzeppelin/contracts/utils/Strings.sol\":1236:1238  10 */\n      0x0a\n        /* \"@openzeppelin/contracts/utils/Strings.sol\":1227:1238  value /= 10 */\n      dup6\n      dup2\n      tag_252\n      jumpi\n      tag_253\n      tag_254\n      jump\t// in\n    tag_253:\n    tag_252:\n      div\n      swap5\n      pop\n        /* \"@openzeppelin/contracts/utils/Strings.sol\":1269:1270  0 */\n      0x00\n        /* \"@openzeppelin/contracts/utils/Strings.sol\":1260:1265  value */\n      dup6\n        /* \"@openzeppelin/contracts/utils/Strings.sol\":1260:1270  value == 0 */\n      sub\n        /* \"@openzeppelin/contracts/utils/Strings.sol\":1010:1292  while (true) {... */\n      tag_250\n        /* \"@openzeppelin/contracts/utils/Strings.sol\":1256:1277  if (value == 0) break */\n      jumpi\n        /* \"@openzeppelin/contracts/utils/Strings.sol\":1010:1292  while (true) {... */\n    tag_251:\n        /* \"@openzeppelin/contracts/utils/Strings.sol\":1312:1318  buffer */\n      dup2\n        /* \"@openzeppelin/contracts/utils/Strings.sol\":1305:1318  return buffer */\n      swap4\n      pop\n      pop\n      pop\n      pop\n        /* \"@openzeppelin/contracts/utils/Strings.sol\":637:1335  function toString(uint256 value) internal pure returns (string memory) {... */\n      swap2\n      swap1\n      pop\n      jump\t// out\n        /* \"@openzeppelin/contracts/token/ERC721/ERC721.sol\":6376:6648  function _isAuthorized(address owner, address spender, uint256 tokenId) internal view virtual returns (bool) {... */\n    tag_236:\n        /* \"@openzeppelin/contracts/token/ERC721/ERC721.sol\":6479:6483  bool */\n      0x00\n        /* \"@openzeppelin/contracts/token/ERC721/ERC721.sol\":6533:6534  0 */\n      dup1\n        /* \"@openzeppelin/contracts/token/ERC721/ERC721.sol\":6514:6535  spender != address(0) */\n      0xffffffffffffffffffffffffffffffffffffffff\n      and\n        /* \"@openzeppelin/contracts/token/ERC721/ERC721.sol\":6514:6521  spender */\n      dup4\n        /* \"@openzeppelin/contracts/token/ERC721/ERC721.sol\":6514:6535  spender != address(0) */\n      0xffffffffffffffffffffffffffffffffffffffff\n      and\n      eq\n      iszero\n        /* \"@openzeppelin/contracts/token/ERC721/ERC721.sol\":6514:6641  spender != address(0) &&... */\n      dup1\n      iszero\n      tag_257\n      jumpi\n      pop\n        /* \"@openzeppelin/contracts/token/ERC721/ERC721.sol\":6561:6568  spender */\n      dup3\n        /* \"@openzeppelin/contracts/token/ERC721/ERC721.sol\":6552:6568  owner == spender */\n      0xffffffffffffffffffffffffffffffffffffffff\n      and\n        /* \"@openzeppelin/contracts/token/ERC721/ERC721.sol\":6552:6557  owner */\n      dup5\n        /* \"@openzeppelin/contracts/token/ERC721/ERC721.sol\":6552:6568  owner == spender */\n      0xffffffffffffffffffffffffffffffffffffffff\n      and\n      eq\n        /* \"@openzeppelin/contracts/token/ERC721/ERC721.sol\":6552:6604  owner == spender || isApprovedForAll(owner, spender) */\n      dup1\n      tag_258\n      jumpi\n      pop\n        /* \"@openzeppelin/contracts/token/ERC721/ERC721.sol\":6572:6604  isApprovedForAll(owner, spender) */\n      tag_259\n        /* \"@openzeppelin/contracts/token/ERC721/ERC721.sol\":6589:6594  owner */\n      dup5\n        /* \"@openzeppelin/contracts/token/ERC721/ERC721.sol\":6596:6603  spender */\n      dup5\n        /* \"@openzeppelin/contracts/token/ERC721/ERC721.sol\":6572:6588  isApprovedForAll */\n      tag_80\n        /* \"@openzeppelin/contracts/token/ERC721/ERC721.sol\":6572:6604  isApprovedForAll(owner, spender) */\n      jump\t// in\n    tag_259:\n        /* \"@openzeppelin/contracts/token/ERC721/ERC721.sol\":6552:6604  owner == spender || isApprovedForAll(owner, spender) */\n    tag_258:\n        /* \"@openzeppelin/contracts/token/ERC721/ERC721.sol\":6552:6640  owner == spender || isApprovedForAll(owner, spender) || _getApproved(tokenId) == spender */\n      dup1\n      tag_260\n      jumpi\n      pop\n        /* \"@openzeppelin/contracts/token/ERC721/ERC721.sol\":6633:6640  spender */\n      dup3\n        /* \"@openzeppelin/contracts/token/ERC721/ERC721.sol\":6608:6640  _getApproved(tokenId) == spender */\n      0xffffffffffffffffffffffffffffffffffffffff\n      and\n        /* \"@openzeppelin/contracts/token/ERC721/ERC721.sol\":6608:6629  _getApproved(tokenId) */\n      tag_261\n        /* \"@openzeppelin/contracts/token/ERC721/ERC721.sol\":6621:6628  tokenId */\n      dup4\n        /* \"@openzeppelin/contracts/token/ERC721/ERC721.sol\":6608:6620  _getApproved */\n      tag_97\n        /* \"@openzeppelin/contracts/token/ERC721/ERC721.sol\":6608:6629  _getApproved(tokenId) */\n      jump\t// in\n    tag_261:\n        /* \"@openzeppelin/contracts/token/ERC721/ERC721.sol\":6608:6640  _getApproved(tokenId) == spender */\n      0xffffffffffffffffffffffffffffffffffffffff\n      and\n      eq\n        /* \"@openzeppelin/contracts/token/ERC721/ERC721.sol\":6552:6640  owner == spender || isApprovedForAll(owner, spender) || _getApproved(tokenId) == spender */\n    tag_260:\n        /* \"@openzeppelin/contracts/token/ERC721/ERC721.sol\":6514:6641  spender != address(0) &&... */\n    tag_257:\n        /* \"@openzeppelin/contracts/token/ERC721/ERC721.sol\":6495:6641  return... */\n      swap1\n      pop\n        /* \"@openzeppelin/contracts/token/ERC721/ERC721.sol\":6376:6648  function _isAuthorized(address owner, address spender, uint256 tokenId) internal view virtual returns (bool) {... */\n      swap4\n      swap3\n      pop\n      pop\n      pop\n      jump\t// out\n        /* \"@openzeppelin/contracts/utils/math/Math.sol\":12214:13130  function log10(uint256 value) internal pure returns (uint256) {... */\n    tag_245:\n        /* \"@openzeppelin/contracts/utils/math/Math.sol\":12267:12274  uint256 */\n      0x00\n        /* \"@openzeppelin/contracts/utils/math/Math.sol\":12286:12300  uint256 result */\n      dup1\n        /* \"@openzeppelin/contracts/utils/math/Math.sol\":12303:12304  0 */\n      0x00\n        /* \"@openzeppelin/contracts/utils/math/Math.sol\":12286:12304  uint256 result = 0 */\n      swap1\n      pop\n        /* \"@openzeppelin/contracts/utils/math/Math.sol\":12351:12359  10 ** 64 */\n      0x184f03e93ff9f4daa797ed6e38ed64bf6a1f010000000000000000\n        /* \"@openzeppelin/contracts/utils/math/Math.sol\":12342:12347  value */\n      dup4\n        /* \"@openzeppelin/contracts/utils/math/Math.sol\":12342:12359  value >= 10 ** 64 */\n      lt\n        /* \"@openzeppelin/contracts/utils/math/Math.sol\":12338:12441  if (value >= 10 ** 64) {... */\n      tag_263\n      jumpi\n        /* \"@openzeppelin/contracts/utils/math/Math.sol\":12388:12396  10 ** 64 */\n      0x184f03e93ff9f4daa797ed6e38ed64bf6a1f010000000000000000\n        /* \"@openzeppelin/contracts/utils/math/Math.sol\":12379:12396  value /= 10 ** 64 */\n      dup4\n      dup2\n      tag_264\n      jumpi\n      tag_265\n      tag_254\n      jump\t// in\n    tag_265:\n    tag_264:\n      div\n      swap3\n      pop\n        /* \"@openzeppelin/contracts/utils/math/Math.sol\":12424:12426  64 */\n      0x40\n        /* \"@openzeppelin/contracts/utils/math/Math.sol\":12414:12426  result += 64 */\n      dup2\n      add\n      swap1\n      pop\n        /* \"@openzeppelin/contracts/utils/math/Math.sol\":12338:12441  if (value >= 10 ** 64) {... */\n    tag_263:\n        /* \"@openzeppelin/contracts/utils/math/Math.sol\":12467:12475  10 ** 32 */\n      0x04ee2d6d415b85acef8100000000\n        /* \"@openzeppelin/contracts/utils/math/Math.sol\":12458:12463  value */\n      dup4\n        /* \"@openzeppelin/contracts/utils/math/Math.sol\":12458:12475  value >= 10 ** 32 */\n      lt\n        /* \"@openzeppelin/contracts/utils/math/Math.sol\":12454:12557  if (value >= 10 ** 32) {... */\n      tag_266\n      jumpi\n        /* \"@openzeppelin/contracts/utils/math/Math.sol\":12504:12512  10 ** 32 */\n      0x04ee2d6d415b85acef8100000000\n        /* \"@openzeppelin/contracts/utils/math/Math.sol\":12495:12512  value /= 10 ** 32 */\n      dup4\n      dup2\n      tag_267\n      jumpi\n      tag_268\n      tag_254\n      jump\t// in\n    tag_268:\n    tag_267:\n      div\n      swap3\n      pop\n        /* \"@openzeppelin/contracts/utils/math/Math.sol\":12540:12542  32 */\n      0x20\n        /* \"@openzeppelin/contracts/utils/math/Math.sol\":12530:12542  result += 32 */\n      dup2\n      add\n      swap1\n      pop\n        /* \"@openzeppelin/contracts/utils/math/Math.sol\":12454:12557  if (value >= 10 ** 32) {... */\n    tag_266:\n        /* \"@openzeppelin/contracts/utils/math/Math.sol\":12583:12591  10 ** 16 */\n      0x2386f26fc10000\n        /* \"@openzeppelin/contracts/utils/math/Math.sol\":12574:12579  value */\n      dup4\n        /* \"@openzeppelin/contracts/utils/math/Math.sol\":12574:12591  value >= 10 ** 16 */\n      lt\n        /* \"@openzeppelin/contracts/utils/math/Math.sol\":12570:12673  if (value >= 10 ** 16) {... */\n      tag_269\n      jumpi\n        /* \"@openzeppelin/contracts/utils/math/Math.sol\":12620:12628  10 ** 16 */\n      0x2386f26fc10000\n        /* \"@openzeppelin/contracts/utils/math/Math.sol\":12611:12628  value /= 10 ** 16 */\n      dup4\n      dup2\n      tag_270\n      jumpi\n      tag_271\n      tag_254\n      jump\t// in\n    tag_271:\n    tag_270:\n      div\n      swap3\n      pop\n        /* \"@openzeppelin/contracts/utils/math/Math.sol\":12656:12658  16 */\n      0x10\n        /* \"@openzeppelin/contracts/utils/math/Math.sol\":12646:12658  result += 16 */\n      dup2\n      add\n      swap1\n      pop\n        /* \"@openzeppelin/contracts/utils/math/Math.sol\":12570:12673  if (value >= 10 ** 16) {... */\n    tag_269:\n        /* \"@openzeppelin/contracts/utils/math/Math.sol\":12699:12706  10 ** 8 */\n      0x05f5e100\n        /* \"@openzeppelin/contracts/utils/math/Math.sol\":12690:12695  value */\n      dup4\n        /* \"@openzeppelin/contracts/utils/math/Math.sol\":12690:12706  value >= 10 ** 8 */\n      lt\n        /* \"@openzeppelin/contracts/utils/math/Math.sol\":12686:12786  if (value >= 10 ** 8) {... */\n      tag_272\n      jumpi\n        /* \"@openzeppelin/contracts/utils/math/Math.sol\":12735:12742  10 ** 8 */\n      0x05f5e100\n        /* \"@openzeppelin/contracts/utils/math/Math.sol\":12726:12742  value /= 10 ** 8 */\n      dup4\n      dup2\n      tag_273\n      jumpi\n      tag_274\n      tag_254\n      jump\t// in\n    tag_274:\n    tag_273:\n      div\n      swap3\n      pop\n        /* \"@openzeppelin/contracts/utils/math/Math.sol\":12770:12771  8 */\n      0x08\n        /* \"@openzeppelin/contracts/utils/math/Math.sol\":12760:12771  result += 8 */\n      dup2\n      add\n      swap1\n      pop\n        /* \"@openzeppelin/contracts/utils/math/Math.sol\":12686:12786  if (value >= 10 ** 8) {... */\n    tag_272:\n        /* \"@openzeppelin/contracts/utils/math/Math.sol\":12812:12819  10 ** 4 */\n      0x2710\n        /* \"@openzeppelin/contracts/utils/math/Math.sol\":12803:12808  value */\n      dup4\n        /* \"@openzeppelin/contracts/utils/math/Math.sol\":12803:12819  value >= 10 ** 4 */\n      lt\n        /* \"@openzeppelin/contracts/utils/math/Math.sol\":12799:12899  if (value >= 10 ** 4) {... */\n      tag_275\n      jumpi\n        /* \"@openzeppelin/contracts/utils/math/Math.sol\":12848:12855  10 ** 4 */\n      0x2710\n        /* \"@openzeppelin/contracts/utils/math/Math.sol\":12839:12855  value /= 10 ** 4 */\n      dup4\n      dup2\n      tag_276\n      jumpi\n      tag_277\n      tag_254\n      jump\t// in\n    tag_277:\n    tag_276:\n      div\n      swap3\n      pop\n        /* \"@openzeppelin/contracts/utils/math/Math.sol\":12883:12884  4 */\n      0x04\n        /* \"@openzeppelin/contracts/utils/math/Math.sol\":12873:12884  result += 4 */\n      dup2\n      add\n      swap1\n      pop\n        /* \"@openzeppelin/contracts/utils/math/Math.sol\":12799:12899  if (value >= 10 ** 4) {... */\n    tag_275:\n        /* \"@openzeppelin/contracts/utils/math/Math.sol\":12925:12932  10 ** 2 */\n      0x64\n        /* \"@openzeppelin/contracts/utils/math/Math.sol\":12916:12921  value */\n      dup4\n        /* \"@openzeppelin/contracts/utils/math/Math.sol\":12916:12932  value >= 10 ** 2 */\n      lt\n        /* \"@openzeppelin/contracts/utils/math/Math.sol\":12912:13012  if (value >= 10 ** 2) {... */\n      tag_278\n      jumpi\n        /* \"@openzeppelin/contracts/utils/math/Math.sol\":12961:12968  10 ** 2 */\n      0x64\n        /* \"@openzeppelin/contracts/utils/math/Math.sol\":12952:12968  value /= 10 ** 2 */\n      dup4\n      dup2\n      tag_279\n      jumpi\n      tag_280\n      tag_254\n      jump\t// in\n    tag_280:\n    tag_279:\n      div\n      swap3\n      pop\n        /* \"@openzeppelin/contracts/utils/math/Math.sol\":12996:12997  2 */\n      0x02\n        /* \"@openzeppelin/contracts/utils/math/Math.sol\":12986:12997  result += 2 */\n      dup2\n      add\n      swap1\n      pop\n        /* \"@openzeppelin/contracts/utils/math/Math.sol\":12912:13012  if (value >= 10 ** 2) {... */\n    tag_278:\n        /* \"@openzeppelin/contracts/utils/math/Math.sol\":13038:13045  10 ** 1 */\n      0x0a\n        /* \"@openzeppelin/contracts/utils/math/Math.sol\":13029:13034  value */\n      dup4\n        /* \"@openzeppelin/contracts/utils/math/Math.sol\":13029:13045  value >= 10 ** 1 */\n      lt\n        /* \"@openzeppelin/contracts/utils/math/Math.sol\":13025:13091  if (value >= 10 ** 1) {... */\n      tag_281\n      jumpi\n        /* \"@openzeppelin/contracts/utils/math/Math.sol\":13075:13076  1 */\n      0x01\n        /* \"@openzeppelin/contracts/utils/math/Math.sol\":13065:13076  result += 1 */\n      dup2\n      add\n      swap1\n      pop\n        /* \"@openzeppelin/contracts/utils/math/Math.sol\":13025:13091  if (value >= 10 ** 1) {... */\n    tag_281:\n        /* \"@openzeppelin/contracts/utils/math/Math.sol\":13117:13123  result */\n      dup1\n        /* \"@openzeppelin/contracts/utils/math/Math.sol\":13110:13123  return result */\n      swap2\n      pop\n      pop\n        /* \"@openzeppelin/contracts/utils/math/Math.sol\":12214:13130  function log10(uint256 value) internal pure returns (uint256) {... */\n      swap2\n      swap1\n      pop\n      jump\t// out\n        /* \"#utility.yul\":7:82   */\n    tag_282:\n        /* \"#utility.yul\":40:46   */\n      0x00\n        /* \"#utility.yul\":73:75   */\n      0x40\n        /* \"#utility.yul\":67:76   */\n      mload\n        /* \"#utility.yul\":57:76   */\n      swap1\n      pop\n        /* \"#utility.yul\":7:82   */\n      swap1\n      jump\t// out\n        /* \"#utility.yul\":88:205   */\n    tag_283:\n        /* \"#utility.yul\":197:198   */\n      0x00\n        /* \"#utility.yul\":194:195   */\n      dup1\n        /* \"#utility.yul\":187:199   */\n      revert\n        /* \"#utility.yul\":211:328   */\n    tag_284:\n        /* \"#utility.yul\":320:321   */\n      0x00\n        /* \"#utility.yul\":317:318   */\n      dup1\n        /* \"#utility.yul\":310:322   */\n      revert\n        /* \"#utility.yul\":334:483   */\n    tag_285:\n        /* \"#utility.yul\":370:377   */\n      0x00\n        /* \"#utility.yul\":410:476   */\n      0xffffffff00000000000000000000000000000000000000000000000000000000\n        /* \"#utility.yul\":403:408   */\n      dup3\n        /* \"#utility.yul\":399:477   */\n      and\n        /* \"#utility.yul\":388:477   */\n      swap1\n      pop\n        /* \"#utility.yul\":334:483   */\n      swap2\n      swap1\n      pop\n      jump\t// out\n        /* \"#utility.yul\":489:609   */\n    tag_286:\n        /* \"#utility.yul\":561:584   */\n      tag_346\n        /* \"#utility.yul\":578:583   */\n      dup2\n        /* \"#utility.yul\":561:584   */\n      tag_285\n      jump\t// in\n    tag_346:\n        /* \"#utility.yul\":554:559   */\n      dup2\n        /* \"#utility.yul\":551:585   */\n      eq\n        /* \"#utility.yul\":541:603   */\n      tag_347\n      jumpi\n        /* \"#utility.yul\":599:600   */\n      0x00\n        /* \"#utility.yul\":596:597   */\n      dup1\n        /* \"#utility.yul\":589:601   */\n      revert\n        /* \"#utility.yul\":541:603   */\n    tag_347:\n        /* \"#utility.yul\":489:609   */\n      pop\n      jump\t// out\n        /* \"#utility.yul\":615:752   */\n    tag_287:\n        /* \"#utility.yul\":660:665   */\n      0x00\n        /* \"#utility.yul\":698:704   */\n      dup2\n        /* \"#utility.yul\":685:705   */\n      calldataload\n        /* \"#utility.yul\":676:705   */\n      swap1\n      pop\n        /* \"#utility.yul\":714:746   */\n      tag_349\n        /* \"#utility.yul\":740:745   */\n      dup2\n        /* \"#utility.yul\":714:746   */\n      tag_286\n      jump\t// in\n    tag_349:\n        /* \"#utility.yul\":615:752   */\n      swap3\n      swap2\n      pop\n      pop\n      jump\t// out\n        /* \"#utility.yul\":758:1085   */\n    tag_22:\n        /* \"#utility.yul\":816:822   */\n      0x00\n        /* \"#utility.yul\":865:867   */\n      0x20\n        /* \"#utility.yul\":853:862   */\n      dup3\n        /* \"#utility.yul\":844:851   */\n      dup5\n        /* \"#utility.yul\":840:863   */\n      sub\n        /* \"#utility.yul\":836:868   */\n      slt\n        /* \"#utility.yul\":833:952   */\n      iszero\n      tag_351\n      jumpi\n        /* \"#utility.yul\":871:950   */\n      tag_352\n      tag_283\n      jump\t// in\n    tag_352:\n        /* \"#utility.yul\":833:952   */\n    tag_351:\n        /* \"#utility.yul\":991:992   */\n      0x00\n        /* \"#utility.yul\":1016:1068   */\n      tag_353\n        /* \"#utility.yul\":1060:1067   */\n      dup5\n        /* \"#utility.yul\":1051:1057   */\n      dup3\n        /* \"#utility.yul\":1040:1049   */\n      dup6\n        /* \"#utility.yul\":1036:1058   */\n      add\n        /* \"#utility.yul\":1016:1068   */\n      tag_287\n      jump\t// in\n    tag_353:\n        /* \"#utility.yul\":1006:1068   */\n      swap2\n      pop\n        /* \"#utility.yul\":962:1078   */\n      pop\n        /* \"#utility.yul\":758:1085   */\n      swap3\n      swap2\n      pop\n      pop\n      jump\t// out\n        /* \"#utility.yul\":1091:1181   */\n    tag_288:\n        /* \"#utility.yul\":1125:1132   */\n      0x00\n        /* \"#utility.yul\":1168:1173   */\n      dup2\n        /* \"#utility.yul\":1161:1174   */\n      iszero\n        /* \"#utility.yul\":1154:1175   */\n      iszero\n        /* \"#utility.yul\":1143:1175   */\n      swap1\n      pop\n        /* \"#utility.yul\":1091:1181   */\n      swap2\n      swap1\n      pop\n      jump\t// out\n        /* \"#utility.yul\":1187:1296   */\n    tag_289:\n        /* \"#utility.yul\":1268:1289   */\n      tag_356\n        /* \"#utility.yul\":1283:1288   */\n      dup2\n        /* \"#utility.yul\":1268:1289   */\n      tag_288\n      jump\t// in\n    tag_356:\n        /* \"#utility.yul\":1263:1266   */\n      dup3\n        /* \"#utility.yul\":1256:1290   */\n      mstore\n        /* \"#utility.yul\":1187:1296   */\n      pop\n      pop\n      jump\t// out\n        /* \"#utility.yul\":1302:1512   */\n    tag_25:\n        /* \"#utility.yul\":1389:1393   */\n      0x00\n        /* \"#utility.yul\":1427:1429   */\n      0x20\n        /* \"#utility.yul\":1416:1425   */\n      dup3\n        /* \"#utility.yul\":1412:1430   */\n      add\n        /* \"#utility.yul\":1404:1430   */\n      swap1\n      pop\n        /* \"#utility.yul\":1440:1505   */\n      tag_358\n        /* \"#utility.yul\":1502:1503   */\n      0x00\n        /* \"#utility.yul\":1491:1500   */\n      dup4\n        /* \"#utility.yul\":1487:1504   */\n      add\n        /* \"#utility.yul\":1478:1484   */\n      dup5\n        /* \"#utility.yul\":1440:1505   */\n      tag_289\n      jump\t// in\n    tag_358:\n        /* \"#utility.yul\":1302:1512   */\n      swap3\n      swap2\n      pop\n      pop\n      jump\t// out\n        /* \"#utility.yul\":1518:1617   */\n    tag_290:\n        /* \"#utility.yul\":1570:1576   */\n      0x00\n        /* \"#utility.yul\":1604:1609   */\n      dup2\n        /* \"#utility.yul\":1598:1610   */\n      mload\n        /* \"#utility.yul\":1588:1610   */\n      swap1\n      pop\n        /* \"#utility.yul\":1518:1617   */\n      swap2\n      swap1\n      pop\n      jump\t// out\n        /* \"#utility.yul\":1623:1792   */\n    tag_291:\n        /* \"#utility.yul\":1707:1718   */\n      0x00\n        /* \"#utility.yul\":1741:1747   */\n      dup3\n        /* \"#utility.yul\":1736:1739   */\n      dup3\n        /* \"#utility.yul\":1729:1748   */\n      mstore\n        /* \"#utility.yul\":1781:1785   */\n      0x20\n        /* \"#utility.yul\":1776:1779   */\n      dup3\n        /* \"#utility.yul\":1772:1786   */\n      add\n        /* \"#utility.yul\":1757:1786   */\n      swap1\n      pop\n        /* \"#utility.yul\":1623:1792   */\n      swap3\n      swap2\n      pop\n      pop\n      jump\t// out\n        /* \"#utility.yul\":1798:2044   */\n    tag_292:\n        /* \"#utility.yul\":1879:1880   */\n      0x00\n        /* \"#utility.yul\":1889:2002   */\n    tag_362:\n        /* \"#utility.yul\":1903:1909   */\n      dup4\n        /* \"#utility.yul\":1900:1901   */\n      dup2\n        /* \"#utility.yul\":1897:1910   */\n      lt\n        /* \"#utility.yul\":1889:2002   */\n      iszero\n      tag_364\n      jumpi\n        /* \"#utility.yul\":1988:1989   */\n      dup1\n        /* \"#utility.yul\":1983:1986   */\n      dup3\n        /* \"#utility.yul\":1979:1990   */\n      add\n        /* \"#utility.yul\":1973:1991   */\n      mload\n        /* \"#utility.yul\":1969:1970   */\n      dup2\n        /* \"#utility.yul\":1964:1967   */\n      dup5\n        /* \"#utility.yul\":1960:1971   */\n      add\n        /* \"#utility.yul\":1953:1992   */\n      mstore\n        /* \"#utility.yul\":1925:1927   */\n      0x20\n        /* \"#utility.yul\":1922:1923   */\n      dup2\n        /* \"#utility.yul\":1918:1928   */\n      add\n        /* \"#utility.yul\":1913:1928   */\n      swap1\n      pop\n        /* \"#utility.yul\":1889:2002   */\n      jump(tag_362)\n    tag_364:\n        /* \"#utility.yul\":2036:2037   */\n      0x00\n        /* \"#utility.yul\":2027:2033   */\n      dup5\n        /* \"#utility.yul\":2022:2025   */\n      dup5\n        /* \"#utility.yul\":2018:2034   */\n      add\n        /* \"#utility.yul\":2011:2038   */\n      mstore\n        /* \"#utility.yul\":1860:2044   */\n      pop\n        /* \"#utility.yul\":1798:2044   */\n      pop\n      pop\n      pop\n      jump\t// out\n        /* \"#utility.yul\":2050:2152   */\n    tag_293:\n        /* \"#utility.yul\":2091:2097   */\n      0x00\n        /* \"#utility.yul\":2142:2144   */\n      0x1f\n        /* \"#utility.yul\":2138:2145   */\n      not\n        /* \"#utility.yul\":2133:2135   */\n      0x1f\n        /* \"#utility.yul\":2126:2131   */\n      dup4\n        /* \"#utility.yul\":2122:2136   */\n      add\n        /* \"#utility.yul\":2118:2146   */\n      and\n        /* \"#utility.yul\":2108:2146   */\n      swap1\n      pop\n        /* \"#utility.yul\":2050:2152   */\n      swap2\n      swap1\n      pop\n      jump\t// out\n        /* \"#utility.yul\":2158:2535   */\n    tag_294:\n        /* \"#utility.yul\":2246:2249   */\n      0x00\n        /* \"#utility.yul\":2274:2313   */\n      tag_367\n        /* \"#utility.yul\":2307:2312   */\n      dup3\n        /* \"#utility.yul\":2274:2313   */\n      tag_290\n      jump\t// in\n    tag_367:\n        /* \"#utility.yul\":2329:2400   */\n      tag_368\n        /* \"#utility.yul\":2393:2399   */\n      dup2\n        /* \"#utility.yul\":2388:2391   */\n      dup6\n        /* \"#utility.yul\":2329:2400   */\n      tag_291\n      jump\t// in\n    tag_368:\n        /* \"#utility.yul\":2322:2400   */\n      swap4\n      pop\n        /* \"#utility.yul\":2409:2474   */\n      tag_369\n        /* \"#utility.yul\":2467:2473   */\n      dup2\n        /* \"#utility.yul\":2462:2465   */\n      dup6\n        /* \"#utility.yul\":2455:2459   */\n      0x20\n        /* \"#utility.yul\":2448:2453   */\n      dup7\n        /* \"#utility.yul\":2444:2460   */\n      add\n        /* \"#utility.yul\":2409:2474   */\n      tag_292\n      jump\t// in\n    tag_369:\n        /* \"#utility.yul\":2499:2528   */\n      tag_370\n        /* \"#utility.yul\":2521:2527   */\n      dup2\n        /* \"#utility.yul\":2499:2528   */\n      tag_293\n      jump\t// in\n    tag_370:\n        /* \"#utility.yul\":2494:2497   */\n      dup5\n        /* \"#utility.yul\":2490:2529   */\n      add\n        /* \"#utility.yul\":2483:2529   */\n      swap2\n      pop\n        /* \"#utility.yul\":2250:2535   */\n      pop\n        /* \"#utility.yul\":2158:2535   */\n      swap3\n      swap2\n      pop\n      pop\n      jump\t// out\n        /* \"#utility.yul\":2541:2854   */\n    tag_29:\n        /* \"#utility.yul\":2654:2658   */\n      0x00\n        /* \"#utility.yul\":2692:2694   */\n      0x20\n        /* \"#utility.yul\":2681:2690   */\n      dup3\n        /* \"#utility.yul\":2677:2695   */\n      add\n        /* \"#utility.yul\":2669:2695   */\n      swap1\n      pop\n        /* \"#utility.yul\":2741:2750   */\n      dup2\n        /* \"#utility.yul\":2735:2739   */\n      dup2\n        /* \"#utility.yul\":2731:2751   */\n      sub\n        /* \"#utility.yul\":2727:2728   */\n      0x00\n        /* \"#utility.yul\":2716:2725   */\n      dup4\n        /* \"#utility.yul\":2712:2729   */\n      add\n        /* \"#utility.yul\":2705:2752   */\n      mstore\n        /* \"#utility.yul\":2769:2847   */\n      tag_372\n        /* \"#utility.yul\":2842:2846   */\n      dup2\n        /* \"#utility.yul\":2833:2839   */\n      dup5\n        /* \"#utility.yul\":2769:2847   */\n      tag_294\n      jump\t// in\n    tag_372:\n        /* \"#utility.yul\":2761:2847   */\n      swap1\n      pop\n        /* \"#utility.yul\":2541:2854   */\n      swap3\n      swap2\n      pop\n      pop\n      jump\t// out\n        /* \"#utility.yul\":2860:2937   */\n    tag_295:\n        /* \"#utility.yul\":2897:2904   */\n      0x00\n        /* \"#utility.yul\":2926:2931   */\n      dup2\n        /* \"#utility.yul\":2915:2931   */\n      swap1\n      pop\n        /* \"#utility.yul\":2860:2937   */\n      swap2\n      swap1\n      pop\n      jump\t// out\n        /* \"#utility.yul\":2943:3065   */\n    tag_296:\n        /* \"#utility.yul\":3016:3040   */\n      tag_375\n        /* \"#utility.yul\":3034:3039   */\n      dup2\n        /* \"#utility.yul\":3016:3040   */\n      tag_295\n      jump\t// in\n    tag_375:\n        /* \"#utility.yul\":3009:3014   */\n      dup2\n        /* \"#utility.yul\":3006:3041   */\n      eq\n        /* \"#utility.yul\":2996:3059   */\n      tag_376\n      jumpi\n        /* \"#utility.yul\":3055:3056   */\n      0x00\n        /* \"#utility.yul\":3052:3053   */\n      dup1\n        /* \"#utility.yul\":3045:3057   */\n      revert\n        /* \"#utility.yul\":2996:3059   */\n    tag_376:\n        /* \"#utility.yul\":2943:3065   */\n      pop\n      jump\t// out\n        /* \"#utility.yul\":3071:3210   */\n    tag_297:\n        /* \"#utility.yul\":3117:3122   */\n      0x00\n        /* \"#utility.yul\":3155:3161   */\n      dup2\n        /* \"#utility.yul\":3142:3162   */\n      calldataload\n        /* \"#utility.yul\":3133:3162   */\n      swap1\n      pop\n        /* \"#utility.yul\":3171:3204   */\n      tag_378\n        /* \"#utility.yul\":3198:3203   */\n      dup2\n        /* \"#utility.yul\":3171:3204   */\n      tag_296\n      jump\t// in\n    tag_378:\n        /* \"#utility.yul\":3071:3210   */\n      swap3\n      swap2\n      pop\n      pop\n      jump\t// out\n        /* \"#utility.yul\":3216:3545   */\n    tag_32:\n        /* \"#utility.yul\":3275:3281   */\n      0x00\n        /* \"#utility.yul\":3324:3326   */\n      0x20\n        /* \"#utility.yul\":3312:3321   */\n      dup3\n        /* \"#utility.yul\":3303:3310   */\n      dup5\n        /* \"#utility.yul\":3299:3322   */\n      sub\n        /* \"#utility.yul\":3295:3327   */\n      slt\n        /* \"#utility.yul\":3292:3411   */\n      iszero\n      tag_380\n      jumpi\n        /* \"#utility.yul\":3330:3409   */\n      tag_381\n      tag_283\n      jump\t// in\n    tag_381:\n        /* \"#utility.yul\":3292:3411   */\n    tag_380:\n        /* \"#utility.yul\":3450:3451   */\n      0x00\n        /* \"#utility.yul\":3475:3528   */\n      tag_382\n        /* \"#utility.yul\":3520:3527   */\n      dup5\n        /* \"#utility.yul\":3511:3517   */\n      dup3\n        /* \"#utility.yul\":3500:3509   */\n      dup6\n        /* \"#utility.yul\":3496:3518   */\n      add\n        /* \"#utility.yul\":3475:3528   */\n      tag_297\n      jump\t// in\n    tag_382:\n        /* \"#utility.yul\":3465:3528   */\n      swap2\n      pop\n        /* \"#utility.yul\":3421:3538   */\n      pop\n        /* \"#utility.yul\":3216:3545   */\n      swap3\n      swap2\n      pop\n      pop\n      jump\t// out\n        /* \"#utility.yul\":3551:3677   */\n    tag_298:\n        /* \"#utility.yul\":3588:3595   */\n      0x00\n        /* \"#utility.yul\":3628:3670   */\n      0xffffffffffffffffffffffffffffffffffffffff\n        /* \"#utility.yul\":3621:3626   */\n      dup3\n        /* \"#utility.yul\":3617:3671   */\n      and\n        /* \"#utility.yul\":3606:3671   */\n      swap1\n      pop\n        /* \"#utility.yul\":3551:3677   */\n      swap2\n      swap1\n      pop\n      jump\t// out\n        /* \"#utility.yul\":3683:3779   */\n    tag_299:\n        /* \"#utility.yul\":3720:3727   */\n      0x00\n        /* \"#utility.yul\":3749:3773   */\n      tag_385\n        /* \"#utility.yul\":3767:3772   */\n      dup3\n        /* \"#utility.yul\":3749:3773   */\n      tag_298\n      jump\t// in\n    tag_385:\n        /* \"#utility.yul\":3738:3773   */\n      swap1\n      pop\n        /* \"#utility.yul\":3683:3779   */\n      swap2\n      swap1\n      pop\n      jump\t// out\n        /* \"#utility.yul\":3785:3903   */\n    tag_300:\n        /* \"#utility.yul\":3872:3896   */\n      tag_387\n        /* \"#utility.yul\":3890:3895   */\n      dup2\n        /* \"#utility.yul\":3872:3896   */\n      tag_299\n      jump\t// in\n    tag_387:\n        /* \"#utility.yul\":3867:3870   */\n      dup3\n        /* \"#utility.yul\":3860:3897   */\n      mstore\n        /* \"#utility.yul\":3785:3903   */\n      pop\n      pop\n      jump\t// out\n        /* \"#utility.yul\":3909:4131   */\n    tag_35:\n        /* \"#utility.yul\":4002:4006   */\n      0x00\n        /* \"#utility.yul\":4040:4042   */\n      0x20\n        /* \"#utility.yul\":4029:4038   */\n      dup3\n        /* \"#utility.yul\":4025:4043   */\n      add\n        /* \"#utility.yul\":4017:4043   */\n      swap1\n      pop\n        /* \"#utility.yul\":4053:4124   */\n      tag_389\n        /* \"#utility.yul\":4121:4122   */\n      0x00\n        /* \"#utility.yul\":4110:4119   */\n      dup4\n        /* \"#utility.yul\":4106:4123   */\n      add\n        /* \"#utility.yul\":4097:4103   */\n      dup5\n        /* \"#utility.yul\":4053:4124   */\n      tag_300\n      jump\t// in\n    tag_389:\n        /* \"#utility.yul\":3909:4131   */\n      swap3\n      swap2\n      pop\n      pop\n      jump\t// out\n        /* \"#utility.yul\":4137:4259   */\n    tag_301:\n        /* \"#utility.yul\":4210:4234   */\n      tag_391\n        /* \"#utility.yul\":4228:4233   */\n      dup2\n        /* \"#utility.yul\":4210:4234   */\n      tag_299\n      jump\t// in\n    tag_391:\n        /* \"#utility.yul\":4203:4208   */\n      dup2\n        /* \"#utility.yul\":4200:4235   */\n      eq\n        /* \"#utility.yul\":4190:4253   */\n      tag_392\n      jumpi\n        /* \"#utility.yul\":4249:4250   */\n      0x00\n        /* \"#utility.yul\":4246:4247   */\n      dup1\n        /* \"#utility.yul\":4239:4251   */\n      revert\n        /* \"#utility.yul\":4190:4253   */\n    tag_392:\n        /* \"#utility.yul\":4137:4259   */\n      pop\n      jump\t// out\n        /* \"#utility.yul\":4265:4404   */\n    tag_302:\n        /* \"#utility.yul\":4311:4316   */\n      0x00\n        /* \"#utility.yul\":4349:4355   */\n      dup2\n        /* \"#utility.yul\":4336:4356   */\n      calldataload\n        /* \"#utility.yul\":4327:4356   */\n      swap1\n      pop\n        /* \"#utility.yul\":4365:4398   */\n      tag_394\n        /* \"#utility.yul\":4392:4397   */\n      dup2\n        /* \"#utility.yul\":4365:4398   */\n      tag_301\n      jump\t// in\n    tag_394:\n        /* \"#utility.yul\":4265:4404   */\n      swap3\n      swap2\n      pop\n      pop\n      jump\t// out\n        /* \"#utility.yul\":4410:4884   */\n    tag_38:\n        /* \"#utility.yul\":4478:4484   */\n      0x00\n        /* \"#utility.yul\":4486:4492   */\n      dup1\n        /* \"#utility.yul\":4535:4537   */\n      0x40\n        /* \"#utility.yul\":4523:4532   */\n      dup4\n        /* \"#utility.yul\":4514:4521   */\n      dup6\n        /* \"#utility.yul\":4510:4533   */\n      sub\n        /* \"#utility.yul\":4506:4538   */\n      slt\n        /* \"#utility.yul\":4503:4622   */\n      iszero\n      tag_396\n      jumpi\n        /* \"#utility.yul\":4541:4620   */\n      tag_397\n      tag_283\n      jump\t// in\n    tag_397:\n        /* \"#utility.yul\":4503:4622   */\n    tag_396:\n        /* \"#utility.yul\":4661:4662   */\n      0x00\n        /* \"#utility.yul\":4686:4739   */\n      tag_398\n        /* \"#utility.yul\":4731:4738   */\n      dup6\n        /* \"#utility.yul\":4722:4728   */\n      dup3\n        /* \"#utility.yul\":4711:4720   */\n      dup7\n        /* \"#utility.yul\":4707:4729   */\n      add\n        /* \"#utility.yul\":4686:4739   */\n      tag_302\n      jump\t// in\n    tag_398:\n        /* \"#utility.yul\":4676:4739   */\n      swap3\n      pop\n        /* \"#utility.yul\":4632:4749   */\n      pop\n        /* \"#utility.yul\":4788:4790   */\n      0x20\n        /* \"#utility.yul\":4814:4867   */\n      tag_399\n        /* \"#utility.yul\":4859:4866   */\n      dup6\n        /* \"#utility.yul\":4850:4856   */\n      dup3\n        /* \"#utility.yul\":4839:4848   */\n      dup7\n        /* \"#utility.yul\":4835:4857   */\n      add\n        /* \"#utility.yul\":4814:4867   */\n      tag_297\n      jump\t// in\n    tag_399:\n        /* \"#utility.yul\":4804:4867   */\n      swap2\n      pop\n        /* \"#utility.yul\":4759:4877   */\n      pop\n        /* \"#utility.yul\":4410:4884   */\n      swap3\n      pop\n      swap3\n      swap1\n      pop\n      jump\t// out\n        /* \"#utility.yul\":4890:5509   */\n    tag_42:\n        /* \"#utility.yul\":4967:4973   */\n      0x00\n        /* \"#utility.yul\":4975:4981   */\n      dup1\n        /* \"#utility.yul\":4983:4989   */\n      0x00\n        /* \"#utility.yul\":5032:5034   */\n      0x60\n        /* \"#utility.yul\":5020:5029   */\n      dup5\n        /* \"#utility.yul\":5011:5018   */\n      dup7\n        /* \"#utility.yul\":5007:5030   */\n      sub\n        /* \"#utility.yul\":5003:5035   */\n      slt\n        /* \"#utility.yul\":5000:5119   */\n      iszero\n      tag_401\n      jumpi\n        /* \"#utility.yul\":5038:5117   */\n      tag_402\n      tag_283\n      jump\t// in\n    tag_402:\n        /* \"#utility.yul\":5000:5119   */\n    tag_401:\n        /* \"#utility.yul\":5158:5159   */\n      0x00\n        /* \"#utility.yul\":5183:5236   */\n      tag_403\n        /* \"#utility.yul\":5228:5235   */\n      dup7\n        /* \"#utility.yul\":5219:5225   */\n      dup3\n        /* \"#utility.yul\":5208:5217   */\n      dup8\n        /* \"#utility.yul\":5204:5226   */\n      add\n        /* \"#utility.yul\":5183:5236   */\n      tag_302\n      jump\t// in\n    tag_403:\n        /* \"#utility.yul\":5173:5236   */\n      swap4\n      pop\n        /* \"#utility.yul\":5129:5246   */\n      pop\n        /* \"#utility.yul\":5285:5287   */\n      0x20\n        /* \"#utility.yul\":5311:5364   */\n      tag_404\n        /* \"#utility.yul\":5356:5363   */\n      dup7\n        /* \"#utility.yul\":5347:5353   */\n      dup3\n        /* \"#utility.yul\":5336:5345   */\n      dup8\n        /* \"#utility.yul\":5332:5354   */\n      add\n        /* \"#utility.yul\":5311:5364   */\n      tag_302\n      jump\t// in\n    tag_404:\n        /* \"#utility.yul\":5301:5364   */\n      swap3\n      pop\n        /* \"#utility.yul\":5256:5374   */\n      pop\n        /* \"#utility.yul\":5413:5415   */\n      0x40\n        /* \"#utility.yul\":5439:5492   */\n      tag_405\n        /* \"#utility.yul\":5484:5491   */\n      dup7\n        /* \"#utility.yul\":5475:5481   */\n      dup3\n        /* \"#utility.yul\":5464:5473   */\n      dup8\n        /* \"#utility.yul\":5460:5482   */\n      add\n        /* \"#utility.yul\":5439:5492   */\n      tag_297\n      jump\t// in\n    tag_405:\n        /* \"#utility.yul\":5429:5492   */\n      swap2\n      pop\n        /* \"#utility.yul\":5384:5502   */\n      pop\n        /* \"#utility.yul\":4890:5509   */\n      swap3\n      pop\n      swap3\n      pop\n      swap3\n      jump\t// out\n        /* \"#utility.yul\":5515:5844   */\n    tag_53:\n        /* \"#utility.yul\":5574:5580   */\n      0x00\n        /* \"#utility.yul\":5623:5625   */\n      0x20\n        /* \"#utility.yul\":5611:5620   */\n      dup3\n        /* \"#utility.yul\":5602:5609   */\n      dup5\n        /* \"#utility.yul\":5598:5621   */\n      sub\n        /* \"#utility.yul\":5594:5626   */\n      slt\n        /* \"#utility.yul\":5591:5710   */\n      iszero\n      tag_407\n      jumpi\n        /* \"#utility.yul\":5629:5708   */\n      tag_408\n      tag_283\n      jump\t// in\n    tag_408:\n        /* \"#utility.yul\":5591:5710   */\n    tag_407:\n        /* \"#utility.yul\":5749:5750   */\n      0x00\n        /* \"#utility.yul\":5774:5827   */\n      tag_409\n        /* \"#utility.yul\":5819:5826   */\n      dup5\n        /* \"#utility.yul\":5810:5816   */\n      dup3\n        /* \"#utility.yul\":5799:5808   */\n      dup6\n        /* \"#utility.yul\":5795:5817   */\n      add\n        /* \"#utility.yul\":5774:5827   */\n      tag_302\n      jump\t// in\n    tag_409:\n        /* \"#utility.yul\":5764:5827   */\n      swap2\n      pop\n        /* \"#utility.yul\":5720:5837   */\n      pop\n        /* \"#utility.yul\":5515:5844   */\n      swap3\n      swap2\n      pop\n      pop\n      jump\t// out\n        /* \"#utility.yul\":5850:5968   */\n    tag_303:\n        /* \"#utility.yul\":5937:5961   */\n      tag_411\n        /* \"#utility.yul\":5955:5960   */\n      dup2\n        /* \"#utility.yul\":5937:5961   */\n      tag_295\n      jump\t// in\n    tag_411:\n        /* \"#utility.yul\":5932:5935   */\n      dup3\n        /* \"#utility.yul\":5925:5962   */\n      mstore\n        /* \"#utility.yul\":5850:5968   */\n      pop\n      pop\n      jump\t// out\n        /* \"#utility.yul\":5974:6196   */\n    tag_56:\n        /* \"#utility.yul\":6067:6071   */\n      0x00\n        /* \"#utility.yul\":6105:6107   */\n      0x20\n        /* \"#utility.yul\":6094:6103   */\n      dup3\n        /* \"#utility.yul\":6090:6108   */\n      add\n        /* \"#utility.yul\":6082:6108   */\n      swap1\n      pop\n        /* \"#utility.yul\":6118:6189   */\n      tag_413\n        /* \"#utility.yul\":6186:6187   */\n      0x00\n        /* \"#utility.yul\":6175:6184   */\n      dup4\n        /* \"#utility.yul\":6171:6188   */\n      add\n        /* \"#utility.yul\":6162:6168   */\n      dup5\n        /* \"#utility.yul\":6118:6189   */\n      tag_303\n      jump\t// in\n    tag_413:\n        /* \"#utility.yul\":5974:6196   */\n      swap3\n      swap2\n      pop\n      pop\n      jump\t// out\n        /* \"#utility.yul\":6202:6318   */\n    tag_304:\n        /* \"#utility.yul\":6272:6293   */\n      tag_415\n        /* \"#utility.yul\":6287:6292   */\n      dup2\n        /* \"#utility.yul\":6272:6293   */\n      tag_288\n      jump\t// in\n    tag_415:\n        /* \"#utility.yul\":6265:6270   */\n      dup2\n        /* \"#utility.yul\":6262:6294   */\n      eq\n        /* \"#utility.yul\":6252:6312   */\n      tag_416\n      jumpi\n        /* \"#utility.yul\":6308:6309   */\n      0x00\n        /* \"#utility.yul\":6305:6306   */\n      dup1\n        /* \"#utility.yul\":6298:6310   */\n      revert\n        /* \"#utility.yul\":6252:6312   */\n    tag_416:\n        /* \"#utility.yul\":6202:6318   */\n      pop\n      jump\t// out\n        /* \"#utility.yul\":6324:6457   */\n    tag_305:\n        /* \"#utility.yul\":6367:6372   */\n      0x00\n        /* \"#utility.yul\":6405:6411   */\n      dup2\n        /* \"#utility.yul\":6392:6412   */\n      calldataload\n        /* \"#utility.yul\":6383:6412   */\n      swap1\n      pop\n        /* \"#utility.yul\":6421:6451   */\n      tag_418\n        /* \"#utility.yul\":6445:6450   */\n      dup2\n        /* \"#utility.yul\":6421:6451   */\n      tag_304\n      jump\t// in\n    tag_418:\n        /* \"#utility.yul\":6324:6457   */\n      swap3\n      swap2\n      pop\n      pop\n      jump\t// out\n        /* \"#utility.yul\":6463:6931   */\n    tag_62:\n        /* \"#utility.yul\":6528:6534   */\n      0x00\n        /* \"#utility.yul\":6536:6542   */\n      dup1\n        /* \"#utility.yul\":6585:6587   */\n      0x40\n        /* \"#utility.yul\":6573:6582   */\n      dup4\n        /* \"#utility.yul\":6564:6571   */\n      dup6\n        /* \"#utility.yul\":6560:6583   */\n      sub\n        /* \"#utility.yul\":6556:6588   */\n      slt\n        /* \"#utility.yul\":6553:6672   */\n      iszero\n      tag_420\n      jumpi\n        /* \"#utility.yul\":6591:6670   */\n      tag_421\n      tag_283\n      jump\t// in\n    tag_421:\n        /* \"#utility.yul\":6553:6672   */\n    tag_420:\n        /* \"#utility.yul\":6711:6712   */\n      0x00\n        /* \"#utility.yul\":6736:6789   */\n      tag_422\n        /* \"#utility.yul\":6781:6788   */\n      dup6\n        /* \"#utility.yul\":6772:6778   */\n      dup3\n        /* \"#utility.yul\":6761:6770   */\n      dup7\n        /* \"#utility.yul\":6757:6779   */\n      add\n        /* \"#utility.yul\":6736:6789   */\n      tag_302\n      jump\t// in\n    tag_422:\n        /* \"#utility.yul\":6726:6789   */\n      swap3\n      pop\n        /* \"#utility.yul\":6682:6799   */\n      pop\n        /* \"#utility.yul\":6838:6840   */\n      0x20\n        /* \"#utility.yul\":6864:6914   */\n      tag_423\n        /* \"#utility.yul\":6906:6913   */\n      dup6\n        /* \"#utility.yul\":6897:6903   */\n      dup3\n        /* \"#utility.yul\":6886:6895   */\n      dup7\n        /* \"#utility.yul\":6882:6904   */\n      add\n        /* \"#utility.yul\":6864:6914   */\n      tag_305\n      jump\t// in\n    tag_423:\n        /* \"#utility.yul\":6854:6914   */\n      swap2\n      pop\n        /* \"#utility.yul\":6809:6924   */\n      pop\n        /* \"#utility.yul\":6463:6931   */\n      swap3\n      pop\n      swap3\n      swap1\n      pop\n      jump\t// out\n        /* \"#utility.yul\":6937:7054   */\n    tag_306:\n        /* \"#utility.yul\":7046:7047   */\n      0x00\n        /* \"#utility.yul\":7043:7044   */\n      dup1\n        /* \"#utility.yul\":7036:7048   */\n      revert\n        /* \"#utility.yul\":7060:7177   */\n    tag_307:\n        /* \"#utility.yul\":7169:7170   */\n      0x00\n        /* \"#utility.yul\":7166:7167   */\n      dup1\n        /* \"#utility.yul\":7159:7171   */\n      revert\n        /* \"#utility.yul\":7183:7363   */\n    tag_248:\n        /* \"#utility.yul\":7231:7308   */\n      0x4e487b7100000000000000000000000000000000000000000000000000000000\n        /* \"#utility.yul\":7228:7229   */\n      0x00\n        /* \"#utility.yul\":7221:7309   */\n      mstore\n        /* \"#utility.yul\":7328:7332   */\n      0x41\n        /* \"#utility.yul\":7325:7326   */\n      0x04\n        /* \"#utility.yul\":7318:7333   */\n      mstore\n        /* \"#utility.yul\":7352:7356   */\n      0x24\n        /* \"#utility.yul\":7349:7350   */\n      0x00\n        /* \"#utility.yul\":7342:7357   */\n      revert\n        /* \"#utility.yul\":7369:7650   */\n    tag_308:\n        /* \"#utility.yul\":7452:7479   */\n      tag_428\n        /* \"#utility.yul\":7474:7478   */\n      dup3\n        /* \"#utility.yul\":7452:7479   */\n      tag_293\n      jump\t// in\n    tag_428:\n        /* \"#utility.yul\":7444:7450   */\n      dup2\n        /* \"#utility.yul\":7440:7480   */\n      add\n        /* \"#utility.yul\":7582:7588   */\n      dup2\n        /* \"#utility.yul\":7570:7580   */\n      dup2\n        /* \"#utility.yul\":7567:7589   */\n      lt\n        /* \"#utility.yul\":7546:7564   */\n      0xffffffffffffffff\n        /* \"#utility.yul\":7534:7544   */\n      dup3\n        /* \"#utility.yul\":7531:7565   */\n      gt\n        /* \"#utility.yul\":7528:7590   */\n      or\n        /* \"#utility.yul\":7525:7613   */\n      iszero\n      tag_429\n      jumpi\n        /* \"#utility.yul\":7593:7611   */\n      tag_430\n      tag_248\n      jump\t// in\n    tag_430:\n        /* \"#utility.yul\":7525:7613   */\n    tag_429:\n        /* \"#utility.yul\":7633:7643   */\n      dup1\n        /* \"#utility.yul\":7629:7631   */\n      0x40\n        /* \"#utility.yul\":7622:7644   */\n      mstore\n        /* \"#utility.yul\":7412:7650   */\n      pop\n        /* \"#utility.yul\":7369:7650   */\n      pop\n      pop\n      jump\t// out\n        /* \"#utility.yul\":7656:7785   */\n    tag_309:\n        /* \"#utility.yul\":7690:7696   */\n      0x00\n        /* \"#utility.yul\":7717:7737   */\n      tag_432\n      tag_282\n      jump\t// in\n    tag_432:\n        /* \"#utility.yul\":7707:7737   */\n      swap1\n      pop\n        /* \"#utility.yul\":7746:7779   */\n      tag_433\n        /* \"#utility.yul\":7774:7778   */\n      dup3\n        /* \"#utility.yul\":7766:7772   */\n      dup3\n        /* \"#utility.yul\":7746:7779   */\n      tag_308\n      jump\t// in\n    tag_433:\n        /* \"#utility.yul\":7656:7785   */\n      swap2\n      swap1\n      pop\n      jump\t// out\n        /* \"#utility.yul\":7791:8099   */\n    tag_310:\n        /* \"#utility.yul\":7853:7857   */\n      0x00\n        /* \"#utility.yul\":7943:7961   */\n      0xffffffffffffffff\n        /* \"#utility.yul\":7935:7941   */\n      dup3\n        /* \"#utility.yul\":7932:7962   */\n      gt\n        /* \"#utility.yul\":7929:7985   */\n      iszero\n      tag_435\n      jumpi\n        /* \"#utility.yul\":7965:7983   */\n      tag_436\n      tag_248\n      jump\t// in\n    tag_436:\n        /* \"#utility.yul\":7929:7985   */\n    tag_435:\n        /* \"#utility.yul\":8003:8032   */\n      tag_437\n        /* \"#utility.yul\":8025:8031   */\n      dup3\n        /* \"#utility.yul\":8003:8032   */\n      tag_293\n      jump\t// in\n    tag_437:\n        /* \"#utility.yul\":7995:8032   */\n      swap1\n      pop\n        /* \"#utility.yul\":8087:8091   */\n      0x20\n        /* \"#utility.yul\":8081:8085   */\n      dup2\n        /* \"#utility.yul\":8077:8092   */\n      add\n        /* \"#utility.yul\":8069:8092   */\n      swap1\n      pop\n        /* \"#utility.yul\":7791:8099   */\n      swap2\n      swap1\n      pop\n      jump\t// out\n        /* \"#utility.yul\":8105:8251   */\n    tag_311:\n        /* \"#utility.yul\":8202:8208   */\n      dup3\n        /* \"#utility.yul\":8197:8200   */\n      dup2\n        /* \"#utility.yul\":8192:8195   */\n      dup4\n        /* \"#utility.yul\":8179:8209   */\n      calldatacopy\n        /* \"#utility.yul\":8243:8244   */\n      0x00\n        /* \"#utility.yul\":8234:8240   */\n      dup4\n        /* \"#utility.yul\":8229:8232   */\n      dup4\n        /* \"#utility.yul\":8225:8241   */\n      add\n        /* \"#utility.yul\":8218:8245   */\n      mstore\n        /* \"#utility.yul\":8105:8251   */\n      pop\n      pop\n      pop\n      jump\t// out\n        /* \"#utility.yul\":8257:8682   */\n    tag_312:\n        /* \"#utility.yul\":8335:8340   */\n      0x00\n        /* \"#utility.yul\":8360:8426   */\n      tag_440\n        /* \"#utility.yul\":8376:8425   */\n      tag_441\n        /* \"#utility.yul\":8418:8424   */\n      dup5\n        /* \"#utility.yul\":8376:8425   */\n      tag_310\n      jump\t// in\n    tag_441:\n        /* \"#utility.yul\":8360:8426   */\n      tag_309\n      jump\t// in\n    tag_440:\n        /* \"#utility.yul\":8351:8426   */\n      swap1\n      pop\n        /* \"#utility.yul\":8449:8455   */\n      dup3\n        /* \"#utility.yul\":8442:8447   */\n      dup2\n        /* \"#utility.yul\":8435:8456   */\n      mstore\n        /* \"#utility.yul\":8487:8491   */\n      0x20\n        /* \"#utility.yul\":8480:8485   */\n      dup2\n        /* \"#utility.yul\":8476:8492   */\n      add\n        /* \"#utility.yul\":8525:8528   */\n      dup5\n        /* \"#utility.yul\":8516:8522   */\n      dup5\n        /* \"#utility.yul\":8511:8514   */\n      dup5\n        /* \"#utility.yul\":8507:8523   */\n      add\n        /* \"#utility.yul\":8504:8529   */\n      gt\n        /* \"#utility.yul\":8501:8613   */\n      iszero\n      tag_442\n      jumpi\n        /* \"#utility.yul\":8532:8611   */\n      tag_443\n      tag_307\n      jump\t// in\n    tag_443:\n        /* \"#utility.yul\":8501:8613   */\n    tag_442:\n        /* \"#utility.yul\":8622:8676   */\n      tag_444\n        /* \"#utility.yul\":8669:8675   */\n      dup5\n        /* \"#utility.yul\":8664:8667   */\n      dup3\n        /* \"#utility.yul\":8659:8662   */\n      dup6\n        /* \"#utility.yul\":8622:8676   */\n      tag_311\n      jump\t// in\n    tag_444:\n        /* \"#utility.yul\":8341:8682   */\n      pop\n        /* \"#utility.yul\":8257:8682   */\n      swap4\n      swap3\n      pop\n      pop\n      pop\n      jump\t// out\n        /* \"#utility.yul\":8702:9042   */\n    tag_313:\n        /* \"#utility.yul\":8758:8763   */\n      0x00\n        /* \"#utility.yul\":8807:8810   */\n      dup3\n        /* \"#utility.yul\":8800:8804   */\n      0x1f\n        /* \"#utility.yul\":8792:8798   */\n      dup4\n        /* \"#utility.yul\":8788:8805   */\n      add\n        /* \"#utility.yul\":8784:8811   */\n      slt\n        /* \"#utility.yul\":8774:8896   */\n      tag_446\n      jumpi\n        /* \"#utility.yul\":8815:8894   */\n      tag_447\n      tag_306\n      jump\t// in\n    tag_447:\n        /* \"#utility.yul\":8774:8896   */\n    tag_446:\n        /* \"#utility.yul\":8932:8938   */\n      dup2\n        /* \"#utility.yul\":8919:8939   */\n      calldataload\n        /* \"#utility.yul\":8957:9036   */\n      tag_448\n        /* \"#utility.yul\":9032:9035   */\n      dup5\n        /* \"#utility.yul\":9024:9030   */\n      dup3\n        /* \"#utility.yul\":9017:9021   */\n      0x20\n        /* \"#utility.yul\":9009:9015   */\n      dup7\n        /* \"#utility.yul\":9005:9022   */\n      add\n        /* \"#utility.yul\":8957:9036   */\n      tag_312\n      jump\t// in\n    tag_448:\n        /* \"#utility.yul\":8948:9036   */\n      swap2\n      pop\n        /* \"#utility.yul\":8764:9042   */\n      pop\n        /* \"#utility.yul\":8702:9042   */\n      swap3\n      swap2\n      pop\n      pop\n      jump\t// out\n        /* \"#utility.yul\":9048:9702   */\n    tag_66:\n        /* \"#utility.yul\":9126:9132   */\n      0x00\n        /* \"#utility.yul\":9134:9140   */\n      dup1\n        /* \"#utility.yul\":9183:9185   */\n      0x40\n        /* \"#utility.yul\":9171:9180   */\n      dup4\n        /* \"#utility.yul\":9162:9169   */\n      dup6\n        /* \"#utility.yul\":9158:9181   */\n      sub\n        /* \"#utility.yul\":9154:9186   */\n      slt\n        /* \"#utility.yul\":9151:9270   */\n      iszero\n      tag_450\n      jumpi\n        /* \"#utility.yul\":9189:9268   */\n      tag_451\n      tag_283\n      jump\t// in\n    tag_451:\n        /* \"#utility.yul\":9151:9270   */\n    tag_450:\n        /* \"#utility.yul\":9309:9310   */\n      0x00\n        /* \"#utility.yul\":9334:9387   */\n      tag_452\n        /* \"#utility.yul\":9379:9386   */\n      dup6\n        /* \"#utility.yul\":9370:9376   */\n      dup3\n        /* \"#utility.yul\":9359:9368   */\n      dup7\n        /* \"#utility.yul\":9355:9377   */\n      add\n        /* \"#utility.yul\":9334:9387   */\n      tag_302\n      jump\t// in\n    tag_452:\n        /* \"#utility.yul\":9324:9387   */\n      swap3\n      pop\n        /* \"#utility.yul\":9280:9397   */\n      pop\n        /* \"#utility.yul\":9464:9466   */\n      0x20\n        /* \"#utility.yul\":9453:9462   */\n      dup4\n        /* \"#utility.yul\":9449:9467   */\n      add\n        /* \"#utility.yul\":9436:9468   */\n      calldataload\n        /* \"#utility.yul\":9495:9513   */\n      0xffffffffffffffff\n        /* \"#utility.yul\":9487:9493   */\n      dup2\n        /* \"#utility.yul\":9484:9514   */\n      gt\n        /* \"#utility.yul\":9481:9598   */\n      iszero\n      tag_453\n      jumpi\n        /* \"#utility.yul\":9517:9596   */\n      tag_454\n      tag_284\n      jump\t// in\n    tag_454:\n        /* \"#utility.yul\":9481:9598   */\n    tag_453:\n        /* \"#utility.yul\":9622:9685   */\n      tag_455\n        /* \"#utility.yul\":9677:9684   */\n      dup6\n        /* \"#utility.yul\":9668:9674   */\n      dup3\n        /* \"#utility.yul\":9657:9666   */\n      dup7\n        /* \"#utility.yul\":9653:9675   */\n      add\n        /* \"#utility.yul\":9622:9685   */\n      tag_313\n      jump\t// in\n    tag_455:\n        /* \"#utility.yul\":9612:9685   */\n      swap2\n      pop\n        /* \"#utility.yul\":9407:9695   */\n      pop\n        /* \"#utility.yul\":9048:9702   */\n      swap3\n      pop\n      swap3\n      swap1\n      pop\n      jump\t// out\n        /* \"#utility.yul\":9708:10015   */\n    tag_314:\n        /* \"#utility.yul\":9769:9773   */\n      0x00\n        /* \"#utility.yul\":9859:9877   */\n      0xffffffffffffffff\n        /* \"#utility.yul\":9851:9857   */\n      dup3\n        /* \"#utility.yul\":9848:9878   */\n      gt\n        /* \"#utility.yul\":9845:9901   */\n      iszero\n      tag_457\n      jumpi\n        /* \"#utility.yul\":9881:9899   */\n      tag_458\n      tag_248\n      jump\t// in\n    tag_458:\n        /* \"#utility.yul\":9845:9901   */\n    tag_457:\n        /* \"#utility.yul\":9919:9948   */\n      tag_459\n        /* \"#utility.yul\":9941:9947   */\n      dup3\n        /* \"#utility.yul\":9919:9948   */\n      tag_293\n      jump\t// in\n    tag_459:\n        /* \"#utility.yul\":9911:9948   */\n      swap1\n      pop\n        /* \"#utility.yul\":10003:10007   */\n      0x20\n        /* \"#utility.yul\":9997:10001   */\n      dup2\n        /* \"#utility.yul\":9993:10008   */\n      add\n        /* \"#utility.yul\":9985:10008   */\n      swap1\n      pop\n        /* \"#utility.yul\":9708:10015   */\n      swap2\n      swap1\n      pop\n      jump\t// out\n        /* \"#utility.yul\":10021:10444   */\n    tag_315:\n        /* \"#utility.yul\":10098:10103   */\n      0x00\n        /* \"#utility.yul\":10123:10188   */\n      tag_461\n        /* \"#utility.yul\":10139:10187   */\n      tag_462\n        /* \"#utility.yul\":10180:10186   */\n      dup5\n        /* \"#utility.yul\":10139:10187   */\n      tag_314\n      jump\t// in\n    tag_462:\n        /* \"#utility.yul\":10123:10188   */\n      tag_309\n      jump\t// in\n    tag_461:\n        /* \"#utility.yul\":10114:10188   */\n      swap1\n      pop\n        /* \"#utility.yul\":10211:10217   */\n      dup3\n        /* \"#utility.yul\":10204:10209   */\n      dup2\n        /* \"#utility.yul\":10197:10218   */\n      mstore\n        /* \"#utility.yul\":10249:10253   */\n      0x20\n        /* \"#utility.yul\":10242:10247   */\n      dup2\n        /* \"#utility.yul\":10238:10254   */\n      add\n        /* \"#utility.yul\":10287:10290   */\n      dup5\n        /* \"#utility.yul\":10278:10284   */\n      dup5\n        /* \"#utility.yul\":10273:10276   */\n      dup5\n        /* \"#utility.yul\":10269:10285   */\n      add\n        /* \"#utility.yul\":10266:10291   */\n      gt\n        /* \"#utility.yul\":10263:10375   */\n      iszero\n      tag_463\n      jumpi\n        /* \"#utility.yul\":10294:10373   */\n      tag_464\n      tag_307\n      jump\t// in\n    tag_464:\n        /* \"#utility.yul\":10263:10375   */\n    tag_463:\n        /* \"#utility.yul\":10384:10438   */\n      tag_465\n        /* \"#utility.yul\":10431:10437   */\n      dup5\n        /* \"#utility.yul\":10426:10429   */\n      dup3\n        /* \"#utility.yul\":10421:10424   */\n      dup6\n        /* \"#utility.yul\":10384:10438   */\n      tag_311\n      jump\t// in\n    tag_465:\n        /* \"#utility.yul\":10104:10444   */\n      pop\n        /* \"#utility.yul\":10021:10444   */\n      swap4\n      swap3\n      pop\n      pop\n      pop\n      jump\t// out\n        /* \"#utility.yul\":10463:10801   */\n    tag_316:\n        /* \"#utility.yul\":10518:10523   */\n      0x00\n        /* \"#utility.yul\":10567:10570   */\n      dup3\n        /* \"#utility.yul\":10560:10564   */\n      0x1f\n        /* \"#utility.yul\":10552:10558   */\n      dup4\n        /* \"#utility.yul\":10548:10565   */\n      add\n        /* \"#utility.yul\":10544:10571   */\n      slt\n        /* \"#utility.yul\":10534:10656   */\n      tag_467\n      jumpi\n        /* \"#utility.yul\":10575:10654   */\n      tag_468\n      tag_306\n      jump\t// in\n    tag_468:\n        /* \"#utility.yul\":10534:10656   */\n    tag_467:\n        /* \"#utility.yul\":10692:10698   */\n      dup2\n        /* \"#utility.yul\":10679:10699   */\n      calldataload\n        /* \"#utility.yul\":10717:10795   */\n      tag_469\n        /* \"#utility.yul\":10791:10794   */\n      dup5\n        /* \"#utility.yul\":10783:10789   */\n      dup3\n        /* \"#utility.yul\":10776:10780   */\n      0x20\n        /* \"#utility.yul\":10768:10774   */\n      dup7\n        /* \"#utility.yul\":10764:10781   */\n      add\n        /* \"#utility.yul\":10717:10795   */\n      tag_315\n      jump\t// in\n    tag_469:\n        /* \"#utility.yul\":10708:10795   */\n      swap2\n      pop\n        /* \"#utility.yul\":10524:10801   */\n      pop\n        /* \"#utility.yul\":10463:10801   */\n      swap3\n      swap2\n      pop\n      pop\n      jump\t// out\n        /* \"#utility.yul\":10807:11750   */\n    tag_71:\n        /* \"#utility.yul\":10902:10908   */\n      0x00\n        /* \"#utility.yul\":10910:10916   */\n      dup1\n        /* \"#utility.yul\":10918:10924   */\n      0x00\n        /* \"#utility.yul\":10926:10932   */\n      dup1\n        /* \"#utility.yul\":10975:10978   */\n      0x80\n        /* \"#utility.yul\":10963:10972   */\n      dup6\n        /* \"#utility.yul\":10954:10961   */\n      dup8\n        /* \"#utility.yul\":10950:10973   */\n      sub\n        /* \"#utility.yul\":10946:10979   */\n      slt\n        /* \"#utility.yul\":10943:11063   */\n      iszero\n      tag_471\n      jumpi\n        /* \"#utility.yul\":10982:11061   */\n      tag_472\n      tag_283\n      jump\t// in\n    tag_472:\n        /* \"#utility.yul\":10943:11063   */\n    tag_471:\n        /* \"#utility.yul\":11102:11103   */\n      0x00\n        /* \"#utility.yul\":11127:11180   */\n      tag_473\n        /* \"#utility.yul\":11172:11179   */\n      dup8\n        /* \"#utility.yul\":11163:11169   */\n      dup3\n        /* \"#utility.yul\":11152:11161   */\n      dup9\n        /* \"#utility.yul\":11148:11170   */\n      add\n        /* \"#utility.yul\":11127:11180   */\n      tag_302\n      jump\t// in\n    tag_473:\n        /* \"#utility.yul\":11117:11180   */\n      swap5\n      pop\n        /* \"#utility.yul\":11073:11190   */\n      pop\n        /* \"#utility.yul\":11229:11231   */\n      0x20\n        /* \"#utility.yul\":11255:11308   */\n      tag_474\n        /* \"#utility.yul\":11300:11307   */\n      dup8\n        /* \"#utility.yul\":11291:11297   */\n      dup3\n        /* \"#utility.yul\":11280:11289   */\n      dup9\n        /* \"#utility.yul\":11276:11298   */\n      add\n        /* \"#utility.yul\":11255:11308   */\n      tag_302\n      jump\t// in\n    tag_474:\n        /* \"#utility.yul\":11245:11308   */\n      swap4\n      pop\n        /* \"#utility.yul\":11200:11318   */\n      pop\n        /* \"#utility.yul\":11357:11359   */\n      0x40\n        /* \"#utility.yul\":11383:11436   */\n      tag_475\n        /* \"#utility.yul\":11428:11435   */\n      dup8\n        /* \"#utility.yul\":11419:11425   */\n      dup3\n        /* \"#utility.yul\":11408:11417   */\n      dup9\n        /* \"#utility.yul\":11404:11426   */\n      add\n        /* \"#utility.yul\":11383:11436   */\n      tag_297\n      jump\t// in\n    tag_475:\n        /* \"#utility.yul\":11373:11436   */\n      swap3\n      pop\n        /* \"#utility.yul\":11328:11446   */\n      pop\n        /* \"#utility.yul\":11513:11515   */\n      0x60\n        /* \"#utility.yul\":11502:11511   */\n      dup6\n        /* \"#utility.yul\":11498:11516   */\n      add\n        /* \"#utility.yul\":11485:11517   */\n      calldataload\n        /* \"#utility.yul\":11544:11562   */\n      0xffffffffffffffff\n        /* \"#utility.yul\":11536:11542   */\n      dup2\n        /* \"#utility.yul\":11533:11563   */\n      gt\n        /* \"#utility.yul\":11530:11647   */\n      iszero\n      tag_476\n      jumpi\n        /* \"#utility.yul\":11566:11645   */\n      tag_477\n      tag_284\n      jump\t// in\n    tag_477:\n        /* \"#utility.yul\":11530:11647   */\n    tag_476:\n        /* \"#utility.yul\":11671:11733   */\n      tag_478\n        /* \"#utility.yul\":11725:11732   */\n      dup8\n        /* \"#utility.yul\":11716:11722   */\n      dup3\n        /* \"#utility.yul\":11705:11714   */\n      dup9\n        /* \"#utility.yul\":11701:11723   */\n      add\n        /* \"#utility.yul\":11671:11733   */\n      tag_316\n      jump\t// in\n    tag_478:\n        /* \"#utility.yul\":11661:11733   */\n      swap2\n      pop\n        /* \"#utility.yul\":11456:11743   */\n      pop\n        /* \"#utility.yul\":10807:11750   */\n      swap3\n      swap6\n      swap2\n      swap5\n      pop\n      swap3\n      pop\n      jump\t// out\n        /* \"#utility.yul\":11756:12230   */\n    tag_79:\n        /* \"#utility.yul\":11824:11830   */\n      0x00\n        /* \"#utility.yul\":11832:11838   */\n      dup1\n        /* \"#utility.yul\":11881:11883   */\n      0x40\n        /* \"#utility.yul\":11869:11878   */\n      dup4\n        /* \"#utility.yul\":11860:11867   */\n      dup6\n        /* \"#utility.yul\":11856:11879   */\n      sub\n        /* \"#utility.yul\":11852:11884   */\n      slt\n        /* \"#utility.yul\":11849:11968   */\n      iszero\n      tag_480\n      jumpi\n        /* \"#utility.yul\":11887:11966   */\n      tag_481\n      tag_283\n      jump\t// in\n    tag_481:\n        /* \"#utility.yul\":11849:11968   */\n    tag_480:\n        /* \"#utility.yul\":12007:12008   */\n      0x00\n        /* \"#utility.yul\":12032:12085   */\n      tag_482\n        /* \"#utility.yul\":12077:12084   */\n      dup6\n        /* \"#utility.yul\":12068:12074   */\n      dup3\n        /* \"#utility.yul\":12057:12066   */\n      dup7\n        /* \"#utility.yul\":12053:12075   */\n      add\n        /* \"#utility.yul\":12032:12085   */\n      tag_302\n      jump\t// in\n    tag_482:\n        /* \"#utility.yul\":12022:12085   */\n      swap3\n      pop\n        /* \"#utility.yul\":11978:12095   */\n      pop\n        /* \"#utility.yul\":12134:12136   */\n      0x20\n        /* \"#utility.yul\":12160:12213   */\n      tag_483\n        /* \"#utility.yul\":12205:12212   */\n      dup6\n        /* \"#utility.yul\":12196:12202   */\n      dup3\n        /* \"#utility.yul\":12185:12194   */\n      dup7\n        /* \"#utility.yul\":12181:12203   */\n      add\n        /* \"#utility.yul\":12160:12213   */\n      tag_302\n      jump\t// in\n    tag_483:\n        /* \"#utility.yul\":12150:12213   */\n      swap2\n      pop\n        /* \"#utility.yul\":12105:12223   */\n      pop\n        /* \"#utility.yul\":11756:12230   */\n      swap3\n      pop\n      swap3\n      swap1\n      pop\n      jump\t// out\n        /* \"#utility.yul\":12236:12416   */\n    tag_317:\n        /* \"#utility.yul\":12284:12361   */\n      0x4e487b7100000000000000000000000000000000000000000000000000000000\n        /* \"#utility.yul\":12281:12282   */\n      0x00\n        /* \"#utility.yul\":12274:12362   */\n      mstore\n        /* \"#utility.yul\":12381:12385   */\n      0x22\n        /* \"#utility.yul\":12378:12379   */\n      0x04\n        /* \"#utility.yul\":12371:12386   */\n      mstore\n        /* \"#utility.yul\":12405:12409   */\n      0x24\n        /* \"#utility.yul\":12402:12403   */\n      0x00\n        /* \"#utility.yul\":12395:12410   */\n      revert\n        /* \"#utility.yul\":12422:12742   */\n    tag_88:\n        /* \"#utility.yul\":12466:12472   */\n      0x00\n        /* \"#utility.yul\":12503:12504   */\n      0x02\n        /* \"#utility.yul\":12497:12501   */\n      dup3\n        /* \"#utility.yul\":12493:12505   */\n      div\n        /* \"#utility.yul\":12483:12505   */\n      swap1\n      pop\n        /* \"#utility.yul\":12550:12551   */\n      0x01\n        /* \"#utility.yul\":12544:12548   */\n      dup3\n        /* \"#utility.yul\":12540:12552   */\n      and\n        /* \"#utility.yul\":12571:12589   */\n      dup1\n        /* \"#utility.yul\":12561:12642   */\n      tag_486\n      jumpi\n        /* \"#utility.yul\":12627:12631   */\n      0x7f\n        /* \"#utility.yul\":12619:12625   */\n      dup3\n        /* \"#utility.yul\":12615:12632   */\n      and\n        /* \"#utility.yul\":12605:12632   */\n      swap2\n      pop\n        /* \"#utility.yul\":12561:12642   */\n    tag_486:\n        /* \"#utility.yul\":12689:12691   */\n      0x20\n        /* \"#utility.yul\":12681:12687   */\n      dup3\n        /* \"#utility.yul\":12678:12692   */\n      lt\n        /* \"#utility.yul\":12658:12676   */\n      dup2\n        /* \"#utility.yul\":12655:12693   */\n      sub\n        /* \"#utility.yul\":12652:12736   */\n      tag_487\n      jumpi\n        /* \"#utility.yul\":12708:12726   */\n      tag_488\n      tag_317\n      jump\t// in\n    tag_488:\n        /* \"#utility.yul\":12652:12736   */\n    tag_487:\n        /* \"#utility.yul\":12473:12742   */\n      pop\n        /* \"#utility.yul\":12422:12742   */\n      swap2\n      swap1\n      pop\n      jump\t// out\n        /* \"#utility.yul\":12748:13190   */\n    tag_111:\n        /* \"#utility.yul\":12897:12901   */\n      0x00\n        /* \"#utility.yul\":12935:12937   */\n      0x60\n        /* \"#utility.yul\":12924:12933   */\n      dup3\n        /* \"#utility.yul\":12920:12938   */\n      add\n        /* \"#utility.yul\":12912:12938   */\n      swap1\n      pop\n        /* \"#utility.yul\":12948:13019   */\n      tag_490\n        /* \"#utility.yul\":13016:13017   */\n      0x00\n        /* \"#utility.yul\":13005:13014   */\n      dup4\n        /* \"#utility.yul\":13001:13018   */\n      add\n        /* \"#utility.yul\":12992:12998   */\n      dup7\n        /* \"#utility.yul\":12948:13019   */\n      tag_300\n      jump\t// in\n    tag_490:\n        /* \"#utility.yul\":13029:13101   */\n      tag_491\n        /* \"#utility.yul\":13097:13099   */\n      0x20\n        /* \"#utility.yul\":13086:13095   */\n      dup4\n        /* \"#utility.yul\":13082:13100   */\n      add\n        /* \"#utility.yul\":13073:13079   */\n      dup6\n        /* \"#utility.yul\":13029:13101   */\n      tag_303\n      jump\t// in\n    tag_491:\n        /* \"#utility.yul\":13111:13183   */\n      tag_492\n        /* \"#utility.yul\":13179:13181   */\n      0x40\n        /* \"#utility.yul\":13168:13177   */\n      dup4\n        /* \"#utility.yul\":13164:13182   */\n      add\n        /* \"#utility.yul\":13155:13161   */\n      dup5\n        /* \"#utility.yul\":13111:13183   */\n      tag_300\n      jump\t// in\n    tag_492:\n        /* \"#utility.yul\":12748:13190   */\n      swap5\n      swap4\n      pop\n      pop\n      pop\n      pop\n      jump\t// out\n        /* \"#utility.yul\":13196:13376   */\n    tag_318:\n        /* \"#utility.yul\":13244:13321   */\n      0x4e487b7100000000000000000000000000000000000000000000000000000000\n        /* \"#utility.yul\":13241:13242   */\n      0x00\n        /* \"#utility.yul\":13234:13322   */\n      mstore\n        /* \"#utility.yul\":13341:13345   */\n      0x11\n        /* \"#utility.yul\":13338:13339   */\n      0x04\n        /* \"#utility.yul\":13331:13346   */\n      mstore\n        /* \"#utility.yul\":13365:13369   */\n      0x24\n        /* \"#utility.yul\":13362:13363   */\n      0x00\n        /* \"#utility.yul\":13355:13370   */\n      revert\n        /* \"#utility.yul\":13382:13573   */\n    tag_131:\n        /* \"#utility.yul\":13422:13425   */\n      0x00\n        /* \"#utility.yul\":13441:13461   */\n      tag_495\n        /* \"#utility.yul\":13459:13460   */\n      dup3\n        /* \"#utility.yul\":13441:13461   */\n      tag_295\n      jump\t// in\n    tag_495:\n        /* \"#utility.yul\":13436:13461   */\n      swap2\n      pop\n        /* \"#utility.yul\":13475:13495   */\n      tag_496\n        /* \"#utility.yul\":13493:13494   */\n      dup4\n        /* \"#utility.yul\":13475:13495   */\n      tag_295\n      jump\t// in\n    tag_496:\n        /* \"#utility.yul\":13470:13495   */\n      swap3\n      pop\n        /* \"#utility.yul\":13518:13519   */\n      dup3\n        /* \"#utility.yul\":13515:13516   */\n      dup3\n        /* \"#utility.yul\":13511:13520   */\n      add\n        /* \"#utility.yul\":13504:13520   */\n      swap1\n      pop\n        /* \"#utility.yul\":13539:13542   */\n      dup1\n        /* \"#utility.yul\":13536:13537   */\n      dup3\n        /* \"#utility.yul\":13533:13543   */\n      gt\n        /* \"#utility.yul\":13530:13566   */\n      iszero\n      tag_497\n      jumpi\n        /* \"#utility.yul\":13546:13564   */\n      tag_498\n      tag_318\n      jump\t// in\n    tag_498:\n        /* \"#utility.yul\":13530:13566   */\n    tag_497:\n        /* \"#utility.yul\":13382:13573   */\n      swap3\n      swap2\n      pop\n      pop\n      jump\t// out\n        /* \"#utility.yul\":13579:13727   */\n    tag_319:\n        /* \"#utility.yul\":13681:13692   */\n      0x00\n        /* \"#utility.yul\":13718:13721   */\n      dup2\n        /* \"#utility.yul\":13703:13721   */\n      swap1\n      pop\n        /* \"#utility.yul\":13579:13727   */\n      swap3\n      swap2\n      pop\n      pop\n      jump\t// out\n        /* \"#utility.yul\":13733:14123   */\n    tag_320:\n        /* \"#utility.yul\":13839:13842   */\n      0x00\n        /* \"#utility.yul\":13867:13906   */\n      tag_501\n        /* \"#utility.yul\":13900:13905   */\n      dup3\n        /* \"#utility.yul\":13867:13906   */\n      tag_290\n      jump\t// in\n    tag_501:\n        /* \"#utility.yul\":13922:14011   */\n      tag_502\n        /* \"#utility.yul\":14004:14010   */\n      dup2\n        /* \"#utility.yul\":13999:14002   */\n      dup6\n        /* \"#utility.yul\":13922:14011   */\n      tag_319\n      jump\t// in\n    tag_502:\n        /* \"#utility.yul\":13915:14011   */\n      swap4\n      pop\n        /* \"#utility.yul\":14020:14085   */\n      tag_503\n        /* \"#utility.yul\":14078:14084   */\n      dup2\n        /* \"#utility.yul\":14073:14076   */\n      dup6\n        /* \"#utility.yul\":14066:14070   */\n      0x20\n        /* \"#utility.yul\":14059:14064   */\n      dup7\n        /* \"#utility.yul\":14055:14071   */\n      add\n        /* \"#utility.yul\":14020:14085   */\n      tag_292\n      jump\t// in\n    tag_503:\n        /* \"#utility.yul\":14110:14116   */\n      dup1\n        /* \"#utility.yul\":14105:14108   */\n      dup5\n        /* \"#utility.yul\":14101:14117   */\n      add\n        /* \"#utility.yul\":14094:14117   */\n      swap2\n      pop\n        /* \"#utility.yul\":13843:14123   */\n      pop\n        /* \"#utility.yul\":13733:14123   */\n      swap3\n      swap2\n      pop\n      pop\n      jump\t// out\n        /* \"#utility.yul\":14129:14564   */\n    tag_152:\n        /* \"#utility.yul\":14309:14312   */\n      0x00\n        /* \"#utility.yul\":14331:14426   */\n      tag_505\n        /* \"#utility.yul\":14422:14425   */\n      dup3\n        /* \"#utility.yul\":14413:14419   */\n      dup6\n        /* \"#utility.yul\":14331:14426   */\n      tag_320\n      jump\t// in\n    tag_505:\n        /* \"#utility.yul\":14324:14426   */\n      swap2\n      pop\n        /* \"#utility.yul\":14443:14538   */\n      tag_506\n        /* \"#utility.yul\":14534:14537   */\n      dup3\n        /* \"#utility.yul\":14525:14531   */\n      dup5\n        /* \"#utility.yul\":14443:14538   */\n      tag_320\n      jump\t// in\n    tag_506:\n        /* \"#utility.yul\":14436:14538   */\n      swap2\n      pop\n        /* \"#utility.yul\":14555:14558   */\n      dup2\n        /* \"#utility.yul\":14548:14558   */\n      swap1\n      pop\n        /* \"#utility.yul\":14129:14564   */\n      swap4\n      swap3\n      pop\n      pop\n      pop\n      jump\t// out\n        /* \"#utility.yul\":14570:14711   */\n    tag_321:\n        /* \"#utility.yul\":14619:14623   */\n      0x00\n        /* \"#utility.yul\":14642:14645   */\n      dup2\n        /* \"#utility.yul\":14634:14645   */\n      swap1\n      pop\n        /* \"#utility.yul\":14665:14668   */\n      dup2\n        /* \"#utility.yul\":14662:14663   */\n      0x00\n        /* \"#utility.yul\":14655:14669   */\n      mstore\n        /* \"#utility.yul\":14699:14703   */\n      0x20\n        /* \"#utility.yul\":14696:14697   */\n      0x00\n        /* \"#utility.yul\":14686:14704   */\n      keccak256\n        /* \"#utility.yul\":14678:14704   */\n      swap1\n      pop\n        /* \"#utility.yul\":14570:14711   */\n      swap2\n      swap1\n      pop\n      jump\t// out\n        /* \"#utility.yul\":14717:14810   */\n    tag_322:\n        /* \"#utility.yul\":14754:14760   */\n      0x00\n        /* \"#utility.yul\":14801:14803   */\n      0x20\n        /* \"#utility.yul\":14796:14798   */\n      0x1f\n        /* \"#utility.yul\":14789:14794   */\n      dup4\n        /* \"#utility.yul\":14785:14799   */\n      add\n        /* \"#utility.yul\":14781:14804   */\n      div\n        /* \"#utility.yul\":14771:14804   */\n      swap1\n      pop\n        /* \"#utility.yul\":14717:14810   */\n      swap2\n      swap1\n      pop\n      jump\t// out\n        /* \"#utility.yul\":14816:14923   */\n    tag_323:\n        /* \"#utility.yul\":14860:14868   */\n      0x00\n        /* \"#utility.yul\":14910:14915   */\n      dup3\n        /* \"#utility.yul\":14904:14908   */\n      dup3\n        /* \"#utility.yul\":14900:14916   */\n      shl\n        /* \"#utility.yul\":14879:14916   */\n      swap1\n      pop\n        /* \"#utility.yul\":14816:14923   */\n      swap3\n      swap2\n      pop\n      pop\n      jump\t// out\n        /* \"#utility.yul\":14929:15322   */\n    tag_324:\n        /* \"#utility.yul\":14998:15004   */\n      0x00\n        /* \"#utility.yul\":15048:15049   */\n      0x08\n        /* \"#utility.yul\":15036:15046   */\n      dup4\n        /* \"#utility.yul\":15032:15050   */\n      mul\n        /* \"#utility.yul\":15071:15168   */\n      tag_511\n        /* \"#utility.yul\":15101:15167   */\n      0xffffffffffffffffffffffffffffffffffffffffffffffffffffffffffffffff\n        /* \"#utility.yul\":15090:15099   */\n      dup3\n        /* \"#utility.yul\":15071:15168   */\n      tag_323\n      jump\t// in\n    tag_511:\n        /* \"#utility.yul\":15189:15228   */\n      tag_512\n        /* \"#utility.yul\":15219:15227   */\n      dup7\n        /* \"#utility.yul\":15208:15217   */\n      dup4\n        /* \"#utility.yul\":15189:15228   */\n      tag_323\n      jump\t// in\n    tag_512:\n        /* \"#utility.yul\":15177:15228   */\n      swap6\n      pop\n        /* \"#utility.yul\":15261:15265   */\n      dup1\n        /* \"#utility.yul\":15257:15266   */\n      not\n        /* \"#utility.yul\":15250:15255   */\n      dup5\n        /* \"#utility.yul\":15246:15267   */\n      and\n        /* \"#utility.yul\":15237:15267   */\n      swap4\n      pop\n        /* \"#utility.yul\":15310:15314   */\n      dup1\n        /* \"#utility.yul\":15300:15308   */\n      dup7\n        /* \"#utility.yul\":15296:15315   */\n      and\n        /* \"#utility.yul\":15289:15294   */\n      dup5\n        /* \"#utility.yul\":15286:15316   */\n      or\n        /* \"#utility.yul\":15276:15316   */\n      swap3\n      pop\n        /* \"#utility.yul\":15005:15322   */\n      pop\n      pop\n        /* \"#utility.yul\":14929:15322   */\n      swap4\n      swap3\n      pop\n      pop\n      pop\n      jump\t// out\n        /* \"#utility.yul\":15328:15388   */\n    tag_325:\n        /* \"#utility.yul\":15356:15359   */\n      0x00\n        /* \"#utility.yul\":15377:15382   */\n      dup2\n        /* \"#utility.yul\":15370:15382   */\n      swap1\n      pop\n        /* \"#utility.yul\":15328:15388   */\n      swap2\n      swap1\n      pop\n      jump\t// out\n        /* \"#utility.yul\":15394:15536   */\n    tag_326:\n        /* \"#utility.yul\":15444:15453   */\n      0x00\n        /* \"#utility.yul\":15477:15530   */\n      tag_515\n        /* \"#utility.yul\":15495:15529   */\n      tag_516\n        /* \"#utility.yul\":15504:15528   */\n      tag_517\n        /* \"#utility.yul\":15522:15527   */\n      dup5\n        /* \"#utility.yul\":15504:15528   */\n      tag_295\n      jump\t// in\n    tag_517:\n        /* \"#utility.yul\":15495:15529   */\n      tag_325\n      jump\t// in\n    tag_516:\n        /* \"#utility.yul\":15477:15530   */\n      tag_295\n      jump\t// in\n    tag_515:\n        /* \"#utility.yul\":15464:15530   */\n      swap1\n      pop\n        /* \"#utility.yul\":15394:15536   */\n      swap2\n      swap1\n      pop\n      jump\t// out\n        /* \"#utility.yul\":15542:15617   */\n    tag_327:\n        /* \"#utility.yul\":15585:15588   */\n      0x00\n        /* \"#utility.yul\":15606:15611   */\n      dup2\n        /* \"#utility.yul\":15599:15611   */\n      swap1\n      pop\n        /* \"#utility.yul\":15542:15617   */\n      swap2\n      swap1\n      pop\n      jump\t// out\n        /* \"#utility.yul\":15623:15892   */\n    tag_328:\n        /* \"#utility.yul\":15733:15772   */\n      tag_520\n        /* \"#utility.yul\":15764:15771   */\n      dup4\n        /* \"#utility.yul\":15733:15772   */\n      tag_326\n      jump\t// in\n    tag_520:\n        /* \"#utility.yul\":15794:15885   */\n      tag_521\n        /* \"#utility.yul\":15843:15884   */\n      tag_522\n        /* \"#utility.yul\":15867:15883   */\n      dup3\n        /* \"#utility.yul\":15843:15884   */\n      tag_327\n      jump\t// in\n    tag_522:\n        /* \"#utility.yul\":15835:15841   */\n      dup5\n        /* \"#utility.yul\":15828:15832   */\n      dup5\n        /* \"#utility.yul\":15822:15833   */\n      sload\n        /* \"#utility.yul\":15794:15885   */\n      tag_324\n      jump\t// in\n    tag_521:\n        /* \"#utility.yul\":15788:15792   */\n      dup3\n        /* \"#utility.yul\":15781:15886   */\n      sstore\n        /* \"#utility.yul\":15699:15892   */\n      pop\n        /* \"#utility.yul\":15623:15892   */\n      pop\n      pop\n      pop\n      jump\t// out\n        /* \"#utility.yul\":15898:15971   */\n    tag_329:\n        /* \"#utility.yul\":15943:15946   */\n      0x00\n        /* \"#utility.yul\":15898:15971   */\n      swap1\n      jump\t// out\n        /* \"#utility.yul\":15977:16166   */\n    tag_330:\n        /* \"#utility.yul\":16054:16086   */\n      tag_525\n      tag_329\n      jump\t// in\n    tag_525:\n        /* \"#utility.yul\":16095:16160   */\n      tag_526\n        /* \"#utility.yul\":16153:16159   */\n      dup2\n        /* \"#utility.yul\":16145:16151   */\n      dup5\n        /* \"#utility.yul\":16139:16143   */\n      dup5\n        /* \"#utility.yul\":16095:16160   */\n      tag_328\n      jump\t// in\n    tag_526:\n        /* \"#utility.yul\":16030:16166   */\n      pop\n        /* \"#utility.yul\":15977:16166   */\n      pop\n      pop\n      jump\t// out\n        /* \"#utility.yul\":16172:16358   */\n    tag_331:\n        /* \"#utility.yul\":16232:16352   */\n    tag_528:\n        /* \"#utility.yul\":16249:16252   */\n      dup2\n        /* \"#utility.yul\":16242:16247   */\n      dup2\n        /* \"#utility.yul\":16239:16253   */\n      lt\n        /* \"#utility.yul\":16232:16352   */\n      iszero\n      tag_530\n      jumpi\n        /* \"#utility.yul\":16303:16342   */\n      tag_531\n        /* \"#utility.yul\":16340:16341   */\n      0x00\n        /* \"#utility.yul\":16333:16338   */\n      dup3\n        /* \"#utility.yul\":16303:16342   */\n      tag_330\n      jump\t// in\n    tag_531:\n        /* \"#utility.yul\":16276:16277   */\n      0x01\n        /* \"#utility.yul\":16269:16274   */\n      dup2\n        /* \"#utility.yul\":16265:16278   */\n      add\n        /* \"#utility.yul\":16256:16278   */\n      swap1\n      pop\n        /* \"#utility.yul\":16232:16352   */\n      jump(tag_528)\n    tag_530:\n        /* \"#utility.yul\":16172:16358   */\n      pop\n      pop\n      jump\t// out\n        /* \"#utility.yul\":16364:16907   */\n    tag_332:\n        /* \"#utility.yul\":16465:16467   */\n      0x1f\n        /* \"#utility.yul\":16460:16463   */\n      dup3\n        /* \"#utility.yul\":16457:16468   */\n      gt\n        /* \"#utility.yul\":16454:16900   */\n      iszero\n      tag_533\n      jumpi\n        /* \"#utility.yul\":16499:16537   */\n      tag_534\n        /* \"#utility.yul\":16531:16536   */\n      dup2\n        /* \"#utility.yul\":16499:16537   */\n      tag_321\n      jump\t// in\n    tag_534:\n        /* \"#utility.yul\":16583:16612   */\n      tag_535\n        /* \"#utility.yul\":16601:16611   */\n      dup5\n        /* \"#utility.yul\":16583:16612   */\n      tag_322\n      jump\t// in\n    tag_535:\n        /* \"#utility.yul\":16573:16581   */\n      dup2\n        /* \"#utility.yul\":16569:16613   */\n      add\n        /* \"#utility.yul\":16766:16768   */\n      0x20\n        /* \"#utility.yul\":16754:16764   */\n      dup6\n        /* \"#utility.yul\":16751:16769   */\n      lt\n        /* \"#utility.yul\":16748:16797   */\n      iszero\n      tag_536\n      jumpi\n        /* \"#utility.yul\":16787:16795   */\n      dup2\n        /* \"#utility.yul\":16772:16795   */\n      swap1\n      pop\n        /* \"#utility.yul\":16748:16797   */\n    tag_536:\n        /* \"#utility.yul\":16810:16890   */\n      tag_537\n        /* \"#utility.yul\":16866:16888   */\n      tag_538\n        /* \"#utility.yul\":16884:16887   */\n      dup6\n        /* \"#utility.yul\":16866:16888   */\n      tag_322\n      jump\t// in\n    tag_538:\n        /* \"#utility.yul\":16856:16864   */\n      dup4\n        /* \"#utility.yul\":16852:16889   */\n      add\n        /* \"#utility.yul\":16839:16850   */\n      dup3\n        /* \"#utility.yul\":16810:16890   */\n      tag_331\n      jump\t// in\n    tag_537:\n        /* \"#utility.yul\":16469:16900   */\n      pop\n      pop\n        /* \"#utility.yul\":16454:16900   */\n    tag_533:\n        /* \"#utility.yul\":16364:16907   */\n      pop\n      pop\n      pop\n      jump\t// out\n        /* \"#utility.yul\":16913:17030   */\n    tag_333:\n        /* \"#utility.yul\":16967:16975   */\n      0x00\n        /* \"#utility.yul\":17017:17022   */\n      dup3\n        /* \"#utility.yul\":17011:17015   */\n      dup3\n        /* \"#utility.yul\":17007:17023   */\n      shr\n        /* \"#utility.yul\":16986:17023   */\n      swap1\n      pop\n        /* \"#utility.yul\":16913:17030   */\n      swap3\n      swap2\n      pop\n      pop\n      jump\t// out\n        /* \"#utility.yul\":17036:17205   */\n    tag_334:\n        /* \"#utility.yul\":17080:17086   */\n      0x00\n        /* \"#utility.yul\":17113:17164   */\n      tag_541\n        /* \"#utility.yul\":17161:17162   */\n      0x00\n        /* \"#utility.yul\":17157:17163   */\n      not\n        /* \"#utility.yul\":17149:17154   */\n      dup5\n        /* \"#utility.yul\":17146:17147   */\n      0x08\n        /* \"#utility.yul\":17142:17155   */\n      mul\n        /* \"#utility.yul\":17113:17164   */\n      tag_333\n      jump\t// in\n    tag_541:\n        /* \"#utility.yul\":17109:17165   */\n      not\n        /* \"#utility.yul\":17194:17198   */\n      dup1\n        /* \"#utility.yul\":17188:17192   */\n      dup4\n        /* \"#utility.yul\":17184:17199   */\n      and\n        /* \"#utility.yul\":17174:17199   */\n      swap2\n      pop\n        /* \"#utility.yul\":17087:17205   */\n      pop\n        /* \"#utility.yul\":17036:17205   */\n      swap3\n      swap2\n      pop\n      pop\n      jump\t// out\n        /* \"#utility.yul\":17210:17505   */\n    tag_335:\n        /* \"#utility.yul\":17286:17290   */\n      0x00\n        /* \"#utility.yul\":17432:17461   */\n      tag_543\n        /* \"#utility.yul\":17457:17460   */\n      dup4\n        /* \"#utility.yul\":17451:17455   */\n      dup4\n        /* \"#utility.yul\":17432:17461   */\n      tag_334\n      jump\t// in\n    tag_543:\n        /* \"#utility.yul\":17424:17461   */\n      swap2\n      pop\n        /* \"#utility.yul\":17494:17497   */\n      dup3\n        /* \"#utility.yul\":17491:17492   */\n      0x02\n        /* \"#utility.yul\":17487:17498   */\n      mul\n        /* \"#utility.yul\":17481:17485   */\n      dup3\n        /* \"#utility.yul\":17478:17499   */\n      or\n        /* \"#utility.yul\":17470:17499   */\n      swap1\n      pop\n        /* \"#utility.yul\":17210:17505   */\n      swap3\n      swap2\n      pop\n      pop\n      jump\t// out\n        /* \"#utility.yul\":17510:18905   */\n    tag_191:\n        /* \"#utility.yul\":17627:17664   */\n      tag_545\n        /* \"#utility.yul\":17660:17663   */\n      dup3\n        /* \"#utility.yul\":17627:17664   */\n      tag_290\n      jump\t// in\n    tag_545:\n        /* \"#utility.yul\":17729:17747   */\n      0xffffffffffffffff\n        /* \"#utility.yul\":17721:17727   */\n      dup2\n        /* \"#utility.yul\":17718:17748   */\n      gt\n        /* \"#utility.yul\":17715:17771   */\n      iszero\n      tag_546\n      jumpi\n        /* \"#utility.yul\":17751:17769   */\n      tag_547\n      tag_248\n      jump\t// in\n    tag_547:\n        /* \"#utility.yul\":17715:17771   */\n    tag_546:\n        /* \"#utility.yul\":17795:17833   */\n      tag_548\n        /* \"#utility.yul\":17827:17831   */\n      dup3\n        /* \"#utility.yul\":17821:17832   */\n      sload\n        /* \"#utility.yul\":17795:17833   */\n      tag_88\n      jump\t// in\n    tag_548:\n        /* \"#utility.yul\":17880:17947   */\n      tag_549\n        /* \"#utility.yul\":17940:17946   */\n      dup3\n        /* \"#utility.yul\":17932:17938   */\n      dup3\n        /* \"#utility.yul\":17926:17930   */\n      dup6\n        /* \"#utility.yul\":17880:17947   */\n      tag_332\n      jump\t// in\n    tag_549:\n        /* \"#utility.yul\":17974:17975   */\n      0x00\n        /* \"#utility.yul\":17998:18002   */\n      0x20\n        /* \"#utility.yul\":17985:18002   */\n      swap1\n      pop\n        /* \"#utility.yul\":18030:18032   */\n      0x1f\n        /* \"#utility.yul\":18022:18028   */\n      dup4\n        /* \"#utility.yul\":18019:18033   */\n      gt\n        /* \"#utility.yul\":18047:18048   */\n      0x01\n        /* \"#utility.yul\":18042:18660   */\n      dup2\n      eq\n      tag_551\n      jumpi\n        /* \"#utility.yul\":18704:18705   */\n      0x00\n        /* \"#utility.yul\":18721:18727   */\n      dup5\n        /* \"#utility.yul\":18718:18795   */\n      iszero\n      tag_552\n      jumpi\n        /* \"#utility.yul\":18770:18779   */\n      dup3\n        /* \"#utility.yul\":18765:18768   */\n      dup8\n        /* \"#utility.yul\":18761:18780   */\n      add\n        /* \"#utility.yul\":18755:18781   */\n      mload\n        /* \"#utility.yul\":18746:18781   */\n      swap1\n      pop\n        /* \"#utility.yul\":18718:18795   */\n    tag_552:\n        /* \"#utility.yul\":18821:18888   */\n      tag_553\n        /* \"#utility.yul\":18881:18887   */\n      dup6\n        /* \"#utility.yul\":18874:18879   */\n      dup3\n        /* \"#utility.yul\":18821:18888   */\n      tag_335\n      jump\t// in\n    tag_553:\n        /* \"#utility.yul\":18815:18819   */\n      dup7\n        /* \"#utility.yul\":18808:18889   */\n      sstore\n        /* \"#utility.yul\":18677:18899   */\n      pop\n        /* \"#utility.yul\":18012:18899   */\n      jump(tag_550)\n        /* \"#utility.yul\":18042:18660   */\n    tag_551:\n        /* \"#utility.yul\":18094:18098   */\n      0x1f\n        /* \"#utility.yul\":18090:18099   */\n      not\n        /* \"#utility.yul\":18082:18088   */\n      dup5\n        /* \"#utility.yul\":18078:18100   */\n      and\n        /* \"#utility.yul\":18128:18165   */\n      tag_554\n        /* \"#utility.yul\":18160:18164   */\n      dup7\n        /* \"#utility.yul\":18128:18165   */\n      tag_321\n      jump\t// in\n    tag_554:\n        /* \"#utility.yul\":18187:18188   */\n      0x00\n        /* \"#utility.yul\":18201:18409   */\n    tag_555:\n        /* \"#utility.yul\":18215:18222   */\n      dup3\n        /* \"#utility.yul\":18212:18213   */\n      dup2\n        /* \"#utility.yul\":18209:18223   */\n      lt\n        /* \"#utility.yul\":18201:18409   */\n      iszero\n      tag_557\n      jumpi\n        /* \"#utility.yul\":18294:18303   */\n      dup5\n        /* \"#utility.yul\":18289:18292   */\n      dup10\n        /* \"#utility.yul\":18285:18304   */\n      add\n        /* \"#utility.yul\":18279:18305   */\n      mload\n        /* \"#utility.yul\":18271:18277   */\n      dup3\n        /* \"#utility.yul\":18264:18306   */\n      sstore\n        /* \"#utility.yul\":18345:18346   */\n      0x01\n        /* \"#utility.yul\":18337:18343   */\n      dup3\n        /* \"#utility.yul\":18333:18347   */\n      add\n        /* \"#utility.yul\":18323:18347   */\n      swap2\n      pop\n        /* \"#utility.yul\":18392:18394   */\n      0x20\n        /* \"#utility.yul\":18381:18390   */\n      dup6\n        /* \"#utility.yul\":18377:18395   */\n      add\n        /* \"#utility.yul\":18364:18395   */\n      swap5\n      pop\n        /* \"#utility.yul\":18238:18242   */\n      0x20\n        /* \"#utility.yul\":18235:18236   */\n      dup2\n        /* \"#utility.yul\":18231:18243   */\n      add\n        /* \"#utility.yul\":18226:18243   */\n      swap1\n      pop\n        /* \"#utility.yul\":18201:18409   */\n      jump(tag_555)\n    tag_557:\n        /* \"#utility.yul\":18437:18443   */\n      dup7\n        /* \"#utility.yul\":18428:18435   */\n      dup4\n        /* \"#utility.yul\":18425:18444   */\n      lt\n        /* \"#utility.yul\":18422:18601   */\n      iszero\n      tag_558\n      jumpi\n        /* \"#utility.yul\":18495:18504   */\n      dup5\n        /* \"#utility.yul\":18490:18493   */\n      dup10\n        /* \"#utility.yul\":18486:18505   */\n      add\n        /* \"#utility.yul\":18480:18506   */\n      mload\n        /* \"#utility.yul\":18538:18586   */\n      tag_559\n        /* \"#utility.yul\":18580:18584   */\n      0x1f\n        /* \"#utility.yul\":18572:18578   */\n      dup10\n        /* \"#utility.yul\":18568:18585   */\n      and\n        /* \"#utility.yul\":18557:18566   */\n      dup3\n        /* \"#utility.yul\":18538:18586   */\n      tag_334\n      jump\t// in\n    tag_559:\n        /* \"#utility.yul\":18530:18536   */\n      dup4\n        /* \"#utility.yul\":18523:18587   */\n      sstore\n        /* \"#utility.yul\":18445:18601   */\n      pop\n        /* \"#utility.yul\":18422:18601   */\n    tag_558:\n        /* \"#utility.yul\":18647:18648   */\n      0x01\n        /* \"#utility.yul\":18643:18644   */\n      0x02\n        /* \"#utility.yul\":18635:18641   */\n      dup9\n        /* \"#utility.yul\":18631:18645   */\n      mul\n        /* \"#utility.yul\":18627:18649   */\n      add\n        /* \"#utility.yul\":18621:18625   */\n      dup9\n        /* \"#utility.yul\":18614:18650   */\n      sstore\n        /* \"#utility.yul\":18049:18660   */\n      pop\n      pop\n      pop\n        /* \"#utility.yul\":18012:18899   */\n    tag_550:\n      pop\n        /* \"#utility.yul\":17602:18905   */\n      pop\n      pop\n      pop\n        /* \"#utility.yul\":17510:18905   */\n      pop\n      pop\n      jump\t// out\n        /* \"#utility.yul\":18911:19009   */\n    tag_336:\n        /* \"#utility.yul\":18962:18968   */\n      0x00\n        /* \"#utility.yul\":18996:19001   */\n      dup2\n        /* \"#utility.yul\":18990:19002   */\n      mload\n        /* \"#utility.yul\":18980:19002   */\n      swap1\n      pop\n        /* \"#utility.yul\":18911:19009   */\n      swap2\n      swap1\n      pop\n      jump\t// out\n        /* \"#utility.yul\":19015:19183   */\n    tag_337:\n        /* \"#utility.yul\":19098:19109   */\n      0x00\n        /* \"#utility.yul\":19132:19138   */\n      dup3\n        /* \"#utility.yul\":19127:19130   */\n      dup3\n        /* \"#utility.yul\":19120:19139   */\n      mstore\n        /* \"#utility.yul\":19172:19176   */\n      0x20\n        /* \"#utility.yul\":19167:19170   */\n      dup3\n        /* \"#utility.yul\":19163:19177   */\n      add\n        /* \"#utility.yul\":19148:19177   */\n      swap1\n      pop\n        /* \"#utility.yul\":19015:19183   */\n      swap3\n      swap2\n      pop\n      pop\n      jump\t// out\n        /* \"#utility.yul\":19189:19562   */\n    tag_338:\n        /* \"#utility.yul\":19275:19278   */\n      0x00\n        /* \"#utility.yul\":19303:19341   */\n      tag_563\n        /* \"#utility.yul\":19335:19340   */\n      dup3\n        /* \"#utility.yul\":19303:19341   */\n      tag_336\n      jump\t// in\n    tag_563:\n        /* \"#utility.yul\":19357:19427   */\n      tag_564\n        /* \"#utility.yul\":19420:19426   */\n      dup2\n        /* \"#utility.yul\":19415:19418   */\n      dup6\n        /* \"#utility.yul\":19357:19427   */\n      tag_337\n      jump\t// in\n    tag_564:\n        /* \"#utility.yul\":19350:19427   */\n      swap4\n      pop\n        /* \"#utility.yul\":19436:19501   */\n      tag_565\n        /* \"#utility.yul\":19494:19500   */\n      dup2\n        /* \"#utility.yul\":19489:19492   */\n      dup6\n        /* \"#utility.yul\":19482:19486   */\n      0x20\n        /* \"#utility.yul\":19475:19480   */\n      dup7\n        /* \"#utility.yul\":19471:19487   */\n      add\n        /* \"#utility.yul\":19436:19501   */\n      tag_292\n      jump\t// in\n    tag_565:\n        /* \"#utility.yul\":19526:19555   */\n      tag_566\n        /* \"#utility.yul\":19548:19554   */\n      dup2\n        /* \"#utility.yul\":19526:19555   */\n      tag_293\n      jump\t// in\n    tag_566:\n        /* \"#utility.yul\":19521:19524   */\n      dup5\n        /* \"#utility.yul\":19517:19556   */\n      add\n        /* \"#utility.yul\":19510:19556   */\n      swap2\n      pop\n        /* \"#utility.yul\":19279:19562   */\n      pop\n        /* \"#utility.yul\":19189:19562   */\n      swap3\n      swap2\n      pop\n      pop\n      jump\t// out\n        /* \"#utility.yul\":19568:20208   */\n    tag_197:\n        /* \"#utility.yul\":19763:19767   */\n      0x00\n        /* \"#utility.yul\":19801:19804   */\n      0x80\n        /* \"#utility.yul\":19790:19799   */\n      dup3\n        /* \"#utility.yul\":19786:19805   */\n      add\n        /* \"#utility.yul\":19778:19805   */\n      swap1\n      pop\n        /* \"#utility.yul\":19815:19886   */\n      tag_568\n        /* \"#utility.yul\":19883:19884   */\n      0x00\n        /* \"#utility.yul\":19872:19881   */\n      dup4\n        /* \"#utility.yul\":19868:19885   */\n      add\n        /* \"#utility.yul\":19859:19865   */\n      dup8\n        /* \"#utility.yul\":19815:19886   */\n      tag_300\n      jump\t// in\n    tag_568:\n        /* \"#utility.yul\":19896:19968   */\n      tag_569\n        /* \"#utility.yul\":19964:19966   */\n      0x20\n        /* \"#utility.yul\":19953:19962   */\n      dup4\n        /* \"#utility.yul\":19949:19967   */\n      add\n        /* \"#utility.yul\":19940:19946   */\n      dup7\n        /* \"#utility.yul\":19896:19968   */\n      tag_300\n      jump\t// in\n    tag_569:\n        /* \"#utility.yul\":19978:20050   */\n      tag_570\n        /* \"#utility.yul\":20046:20048   */\n      0x40\n        /* \"#utility.yul\":20035:20044   */\n      dup4\n        /* \"#utility.yul\":20031:20049   */\n      add\n        /* \"#utility.yul\":20022:20028   */\n      dup6\n        /* \"#utility.yul\":19978:20050   */\n      tag_303\n      jump\t// in\n    tag_570:\n        /* \"#utility.yul\":20097:20106   */\n      dup2\n        /* \"#utility.yul\":20091:20095   */\n      dup2\n        /* \"#utility.yul\":20087:20107   */\n      sub\n        /* \"#utility.yul\":20082:20084   */\n      0x60\n        /* \"#utility.yul\":20071:20080   */\n      dup4\n        /* \"#utility.yul\":20067:20085   */\n      add\n        /* \"#utility.yul\":20060:20108   */\n      mstore\n        /* \"#utility.yul\":20125:20201   */\n      tag_571\n        /* \"#utility.yul\":20196:20200   */\n      dup2\n        /* \"#utility.yul\":20187:20193   */\n      dup5\n        /* \"#utility.yul\":20125:20201   */\n      tag_338\n      jump\t// in\n    tag_571:\n        /* \"#utility.yul\":20117:20201   */\n      swap1\n      pop\n        /* \"#utility.yul\":19568:20208   */\n      swap6\n      swap5\n      pop\n      pop\n      pop\n      pop\n      pop\n      jump\t// out\n        /* \"#utility.yul\":20214:20355   */\n    tag_339:\n        /* \"#utility.yul\":20270:20275   */\n      0x00\n        /* \"#utility.yul\":20301:20307   */\n      dup2\n        /* \"#utility.yul\":20295:20308   */\n      mload\n        /* \"#utility.yul\":20286:20308   */\n      swap1\n      pop\n        /* \"#utility.yul\":20317:20349   */\n      tag_573\n        /* \"#utility.yul\":20343:20348   */\n      dup2\n        /* \"#utility.yul\":20317:20349   */\n      tag_286\n      jump\t// in\n    tag_573:\n        /* \"#utility.yul\":20214:20355   */\n      swap3\n      swap2\n      pop\n      pop\n      jump\t// out\n        /* \"#utility.yul\":20361:20710   */\n    tag_200:\n        /* \"#utility.yul\":20430:20436   */\n      0x00\n        /* \"#utility.yul\":20479:20481   */\n      0x20\n        /* \"#utility.yul\":20467:20476   */\n      dup3\n        /* \"#utility.yul\":20458:20465   */\n      dup5\n        /* \"#utility.yul\":20454:20477   */\n      sub\n        /* \"#utility.yul\":20450:20482   */\n      slt\n        /* \"#utility.yul\":20447:20566   */\n      iszero\n      tag_575\n      jumpi\n        /* \"#utility.yul\":20485:20564   */\n      tag_576\n      tag_283\n      jump\t// in\n    tag_576:\n        /* \"#utility.yul\":20447:20566   */\n    tag_575:\n        /* \"#utility.yul\":20605:20606   */\n      0x00\n        /* \"#utility.yul\":20630:20693   */\n      tag_577\n        /* \"#utility.yul\":20685:20692   */\n      dup5\n        /* \"#utility.yul\":20676:20682   */\n      dup3\n        /* \"#utility.yul\":20665:20674   */\n      dup6\n        /* \"#utility.yul\":20661:20683   */\n      add\n        /* \"#utility.yul\":20630:20693   */\n      tag_339\n      jump\t// in\n    tag_577:\n        /* \"#utility.yul\":20620:20693   */\n      swap2\n      pop\n        /* \"#utility.yul\":20576:20703   */\n      pop\n        /* \"#utility.yul\":20361:20710   */\n      swap3\n      swap2\n      pop\n      pop\n      jump\t// out\n        /* \"#utility.yul\":20716:21048   */\n    tag_242:\n        /* \"#utility.yul\":20837:20841   */\n      0x00\n        /* \"#utility.yul\":20875:20877   */\n      0x40\n        /* \"#utility.yul\":20864:20873   */\n      dup3\n        /* \"#utility.yul\":20860:20878   */\n      add\n        /* \"#utility.yul\":20852:20878   */\n      swap1\n      pop\n        /* \"#utility.yul\":20888:20959   */\n      tag_579\n        /* \"#utility.yul\":20956:20957   */\n      0x00\n        /* \"#utility.yul\":20945:20954   */\n      dup4\n        /* \"#utility.yul\":20941:20958   */\n      add\n        /* \"#utility.yul\":20932:20938   */\n      dup6\n        /* \"#utility.yul\":20888:20959   */\n      tag_300\n      jump\t// in\n    tag_579:\n        /* \"#utility.yul\":20969:21041   */\n      tag_580\n        /* \"#utility.yul\":21037:21039   */\n      0x20\n        /* \"#utility.yul\":21026:21035   */\n      dup4\n        /* \"#utility.yul\":21022:21040   */\n      add\n        /* \"#utility.yul\":21013:21019   */\n      dup5\n        /* \"#utility.yul\":20969:21041   */\n      tag_303\n      jump\t// in\n    tag_580:\n        /* \"#utility.yul\":20716:21048   */\n      swap4\n      swap3\n      pop\n      pop\n      pop\n      jump\t// out\n        /* \"#utility.yul\":21054:21234   */\n    tag_254:\n        /* \"#utility.yul\":21102:21179   */\n      0x4e487b7100000000000000000000000000000000000000000000000000000000\n        /* \"#utility.yul\":21099:21100   */\n      0x00\n        /* \"#utility.yul\":21092:21180   */\n      mstore\n        /* \"#utility.yul\":21199:21203   */\n      0x12\n        /* \"#utility.yul\":21196:21197   */\n      0x04\n        /* \"#utility.yul\":21189:21204   */\n      mstore\n        /* \"#utility.yul\":21223:21227   */\n      0x24\n        /* \"#utility.yul\":21220:21221   */\n      0x00\n        /* \"#utility.yul\":21213:21228   */\n      revert\n\n    auxdata: 0xa2646970667358221220307fe7179b2d290672a653bce1167c8953b6edc496bfccf1ed834b3ccf58526e64736f6c63430008180033\n}\n",
				"bytecode": {
					"linkReferences": {},
					"object": "60806040525f60075534801562000014575f80fd5b506040518060400160405280600b81526020017f456e6572677941737365740000000000000000000000000000000000000000008152506040518060400160405280600481526020017f454e474100000000000000000000000000000000000000000000000000000000815250815f908162000091919062000310565b508060019081620000a3919062000310565b505050620003f4565b5f81519050919050565b7f4e487b71000000000000000000000000000000000000000000000000000000005f52604160045260245ffd5b7f4e487b71000000000000000000000000000000000000000000000000000000005f52602260045260245ffd5b5f60028204905060018216806200012857607f821691505b6020821081036200013e576200013d620000e3565b5b50919050565b5f819050815f5260205f209050919050565b5f6020601f8301049050919050565b5f82821b905092915050565b5f60088302620001a27fffffffffffffffffffffffffffffffffffffffffffffffffffffffffffffffff8262000165565b620001ae868362000165565b95508019841693508086168417925050509392505050565b5f819050919050565b5f819050919050565b5f620001f8620001f2620001ec84620001c6565b620001cf565b620001c6565b9050919050565b5f819050919050565b6200021383620001d8565b6200022b6200022282620001ff565b84845462000171565b825550505050565b5f90565b6200024162000233565b6200024e81848462000208565b505050565b5b818110156200027557620002695f8262000237565b60018101905062000254565b5050565b601f821115620002c4576200028e8162000144565b620002998462000156565b81016020851015620002a9578190505b620002c1620002b88562000156565b83018262000253565b50505b505050565b5f82821c905092915050565b5f620002e65f1984600802620002c9565b1980831691505092915050565b5f620003008383620002d5565b9150826002028217905092915050565b6200031b82620000ac565b67ffffffffffffffff811115620003375762000336620000b6565b5b62000343825462000110565b6200035082828562000279565b5f60209050601f83116001811462000386575f841562000371578287015190505b6200037d8582620002f3565b865550620003ec565b601f198416620003968662000144565b5f5b82811015620003bf5784890151825560018201915060208501945060208101905062000398565b86831015620003df5784890151620003db601f891682620002d5565b8355505b6001600288020188555050505b505050505050565b6122e380620004025f395ff3fe608060405234801561000f575f80fd5b50600436106100e8575f3560e01c806370a082311161008a578063b4a5a98311610064578063b4a5a98314610258578063b88d4fde14610288578063c87b56dd146102a4578063e985e9c5146102d4576100e8565b806370a08231146101ee57806395d89b411461021e578063a22cb4651461023c576100e8565b8063095ea7b3116100c6578063095ea7b31461016a57806323b872dd1461018657806342842e0e146101a25780636352211e146101be576100e8565b806301ffc9a7146100ec57806306fdde031461011c578063081812fc1461013a575b5f80fd5b610106600480360381019061010191906117b0565b610304565b60405161011391906117f5565b60405180910390f35b610124610364565b6040516101319190611898565b60405180910390f35b610154600480360381019061014f91906118eb565b6103f3565b6040516101619190611955565b60405180910390f35b610184600480360381019061017f9190611998565b61040e565b005b6101a0600480360381019061019b91906119d6565b610424565b005b6101bc60048036038101906101b791906119d6565b610523565b005b6101d860048036038101906101d391906118eb565b610542565b6040516101e59190611955565b60405180910390f35b61020860048036038101906102039190611a26565b610553565b6040516102159190611a60565b60405180910390f35b610226610609565b6040516102339190611898565b60405180910390f35b61025660048036038101906102519190611aa3565b610699565b005b610272600480360381019061026d9190611c0d565b6106af565b60405161027f9190611a60565b60405180910390f35b6102a2600480360381019061029d9190611d05565b6106ed565b005b6102be60048036038101906102b991906118eb565b61070a565b6040516102cb9190611898565b60405180910390f35b6102ee60048036038101906102e99190611d85565b610815565b6040516102fb91906117f5565b60405180910390f35b5f634906490660e01b7bffffffffffffffffffffffffffffffffffffffffffffffffffffffff1916827bffffffffffffffffffffffffffffffffffffffffffffffffffffffff1916148061035d575061035c826108a3565b5b9050919050565b60605f805461037290611df0565b80601f016020809104026020016040519081016040528092919081815260200182805461039e90611df0565b80156103e95780601f106103c0576101008083540402835291602001916103e9565b820191905f5260205f20905b8154815290600101906020018083116103cc57829003601f168201915b5050505050905090565b5f6103fd82610984565b5061040782610a0a565b9050919050565b610420828261041b610a43565b610a4a565b5050565b5f73ffffffffffffffffffffffffffffffffffffffff168273ffffffffffffffffffffffffffffffffffffffff1603610494575f6040517f64a0ae9200000000000000000000000000000000000000000000000000000000815260040161048b9190611955565b60405180910390fd5b5f6104a783836104a2610a43565b610a5c565b90508373ffffffffffffffffffffffffffffffffffffffff168173ffffffffffffffffffffffffffffffffffffffff161461051d578382826040517f64283d7b00000000000000000000000000000000000000000000000000000000815260040161051493929190611e20565b60405180910390fd5b50505050565b61053d83838360405180602001604052805f8152506106ed565b505050565b5f61054c82610984565b9050919050565b5f8073ffffffffffffffffffffffffffffffffffffffff168273ffffffffffffffffffffffffffffffffffffffff16036105c4575f6040517f89c62b640000000000000000000000000000000000000000000000000000000081526004016105bb9190611955565b60405180910390fd5b60035f8373ffffffffffffffffffffffffffffffffffffffff1673ffffffffffffffffffffffffffffffffffffffff1681526020019081526020015f20549050919050565b60606001805461061890611df0565b80601f016020809104026020016040519081016040528092919081815260200182805461064490611df0565b801561068f5780601f106106665761010080835404028352916020019161068f565b820191905f5260205f20905b81548152906001019060200180831161067257829003601f168201915b5050505050905090565b6106ab6106a4610a43565b8383610c67565b5050565b5f600160075f8282546106c29190611e82565b925050819055505f60075490506106d98482610dd0565b6106e38184610ec3565b8091505092915050565b6106f8848484610424565b61070484848484610f1d565b50505050565b606061071582610984565b505f60065f8481526020019081526020015f20805461073390611df0565b80601f016020809104026020016040519081016040528092919081815260200182805461075f90611df0565b80156107aa5780601f10610781576101008083540402835291602001916107aa565b820191905f5260205f20905b81548152906001019060200180831161078d57829003601f168201915b505050505090505f6107ba6110cf565b90505f8151036107ce578192505050610810565b5f825111156108025780826040516020016107ea929190611eef565b60405160208183030381529060405292505050610810565b61080b846110e5565b925050505b919050565b5f60055f8473ffffffffffffffffffffffffffffffffffffffff1673ffffffffffffffffffffffffffffffffffffffff1681526020019081526020015f205f8373ffffffffffffffffffffffffffffffffffffffff1673ffffffffffffffffffffffffffffffffffffffff1681526020019081526020015f205f9054906101000a900460ff16905092915050565b5f7f80ac58cd000000000000000000000000000000000000000000000000000000007bffffffffffffffffffffffffffffffffffffffffffffffffffffffff1916827bffffffffffffffffffffffffffffffffffffffffffffffffffffffff1916148061096d57507f5b5e139f000000000000000000000000000000000000000000000000000000007bffffffffffffffffffffffffffffffffffffffffffffffffffffffff1916827bffffffffffffffffffffffffffffffffffffffffffffffffffffffff1916145b8061097d575061097c8261114b565b5b9050919050565b5f8061098f836111b4565b90505f73ffffffffffffffffffffffffffffffffffffffff168173ffffffffffffffffffffffffffffffffffffffff1603610a0157826040517f7e2732890000000000000000000000000000000000000000000000000000000081526004016109f89190611a60565b60405180910390fd5b80915050919050565b5f60045f8381526020019081526020015f205f9054906101000a900473ffffffffffffffffffffffffffffffffffffffff169050919050565b5f33905090565b610a5783838360016111ed565b505050565b5f80610a67846111b4565b90505f73ffffffffffffffffffffffffffffffffffffffff168373ffffffffffffffffffffffffffffffffffffffff1614610aa857610aa78184866113ac565b5b5f73ffffffffffffffffffffffffffffffffffffffff168173ffffffffffffffffffffffffffffffffffffffff1614610b3357610ae75f855f806111ed565b600160035f8373ffffffffffffffffffffffffffffffffffffffff1673ffffffffffffffffffffffffffffffffffffffff1681526020019081526020015f205f82825403925050819055505b5f73ffffffffffffffffffffffffffffffffffffffff168573ffffffffffffffffffffffffffffffffffffffff1614610bb257600160035f8773ffffffffffffffffffffffffffffffffffffffff1673ffffffffffffffffffffffffffffffffffffffff1681526020019081526020015f205f82825401925050819055505b8460025f8681526020019081526020015f205f6101000a81548173ffffffffffffffffffffffffffffffffffffffff021916908373ffffffffffffffffffffffffffffffffffffffff160217905550838573ffffffffffffffffffffffffffffffffffffffff168273ffffffffffffffffffffffffffffffffffffffff167fddf252ad1be2c89b69c2b068fc378daa952ba7f163c4a11628f55a4df523b3ef60405160405180910390a4809150509392505050565b5f73ffffffffffffffffffffffffffffffffffffffff168273ffffffffffffffffffffffffffffffffffffffff1603610cd757816040517f5b08ba18000000000000000000000000000000000000000000000000000000008152600401610cce9190611955565b60405180910390fd5b8060055f8573ffffffffffffffffffffffffffffffffffffffff1673ffffffffffffffffffffffffffffffffffffffff1681526020019081526020015f205f8473ffffffffffffffffffffffffffffffffffffffff1673ffffffffffffffffffffffffffffffffffffffff1681526020019081526020015f205f6101000a81548160ff0219169083151502179055508173ffffffffffffffffffffffffffffffffffffffff168373ffffffffffffffffffffffffffffffffffffffff167f17307eab39ab6107e8899845ad3d59bd9653f200f220920489ca2b5937696c3183604051610dc391906117f5565b60405180910390a3505050565b5f73ffffffffffffffffffffffffffffffffffffffff168273ffffffffffffffffffffffffffffffffffffffff1603610e40575f6040517f64a0ae92000000000000000000000000000000000000000000000000000000008152600401610e379190611955565b60405180910390fd5b5f610e4c83835f610a5c565b90505f73ffffffffffffffffffffffffffffffffffffffff168173ffffffffffffffffffffffffffffffffffffffff1614610ebe575f6040517f73c6ac6e000000000000000000000000000000000000000000000000000000008152600401610eb59190611955565b60405180910390fd5b505050565b8060065f8481526020019081526020015f209081610ee191906120af565b507ff8e1a15aba9398e019f0b49df1a4fde98ee17ae345cb5f6b5e2c27f5033e8ce782604051610f119190611a60565b60405180910390a15050565b5f8373ffffffffffffffffffffffffffffffffffffffff163b11156110c9578273ffffffffffffffffffffffffffffffffffffffff1663150b7a02610f60610a43565b8685856040518563ffffffff1660e01b8152600401610f8294939291906121d0565b6020604051808303815f875af1925050508015610fbd57506040513d601f19601f82011682018060405250810190610fba919061222e565b60015b61103e573d805f8114610feb576040519150601f19603f3d011682016040523d82523d5f602084013e610ff0565b606091505b505f81510361103657836040517f64a0ae9200000000000000000000000000000000000000000000000000000000815260040161102d9190611955565b60405180910390fd5b805181602001fd5b63150b7a0260e01b7bffffffffffffffffffffffffffffffffffffffffffffffffffffffff1916817bffffffffffffffffffffffffffffffffffffffffffffffffffffffff1916146110c757836040517f64a0ae920000000000000000000000000000000000000000000000000000000081526004016110be9190611955565b60405180910390fd5b505b50505050565b606060405180602001604052805f815250905090565b60606110f082610984565b505f6110fa6110cf565b90505f8151116111185760405180602001604052805f815250611143565b806111228461146f565b604051602001611133929190611eef565b6040516020818303038152906040525b915050919050565b5f7f01ffc9a7000000000000000000000000000000000000000000000000000000007bffffffffffffffffffffffffffffffffffffffffffffffffffffffff1916827bffffffffffffffffffffffffffffffffffffffffffffffffffffffff1916149050919050565b5f60025f8381526020019081526020015f205f9054906101000a900473ffffffffffffffffffffffffffffffffffffffff169050919050565b808061122557505f73ffffffffffffffffffffffffffffffffffffffff168273ffffffffffffffffffffffffffffffffffffffff1614155b15611357575f61123484610984565b90505f73ffffffffffffffffffffffffffffffffffffffff168373ffffffffffffffffffffffffffffffffffffffff161415801561129e57508273ffffffffffffffffffffffffffffffffffffffff168173ffffffffffffffffffffffffffffffffffffffff1614155b80156112b157506112af8184610815565b155b156112f357826040517fa9fbf51f0000000000000000000000000000000000000000000000000000000081526004016112ea9190611955565b60405180910390fd5b811561135557838573ffffffffffffffffffffffffffffffffffffffff168273ffffffffffffffffffffffffffffffffffffffff167f8c5be1e5ebec7d5bd14f71427d1e84f3dd0314c0f7b2291e5b200ac8c7c3b92560405160405180910390a45b505b8360045f8581526020019081526020015f205f6101000a81548173ffffffffffffffffffffffffffffffffffffffff021916908373ffffffffffffffffffffffffffffffffffffffff16021790555050505050565b6113b7838383611539565b61146a575f73ffffffffffffffffffffffffffffffffffffffff168373ffffffffffffffffffffffffffffffffffffffff160361142b57806040517f7e2732890000000000000000000000000000000000000000000000000000000081526004016114229190611a60565b60405180910390fd5b81816040517f177e802f000000000000000000000000000000000000000000000000000000008152600401611461929190612259565b60405180910390fd5b505050565b60605f600161147d846115f9565b0190505f8167ffffffffffffffff81111561149b5761149a611ae9565b5b6040519080825280601f01601f1916602001820160405280156114cd5781602001600182028036833780820191505090505b5090505f82602001820190505b60011561152e578080600190039150507f3031323334353637383961626364656600000000000000000000000000000000600a86061a8153600a858161152357611522612280565b5b0494505f85036114da575b819350505050919050565b5f8073ffffffffffffffffffffffffffffffffffffffff168373ffffffffffffffffffffffffffffffffffffffff16141580156115f057508273ffffffffffffffffffffffffffffffffffffffff168473ffffffffffffffffffffffffffffffffffffffff1614806115b157506115b08484610815565b5b806115ef57508273ffffffffffffffffffffffffffffffffffffffff166115d783610a0a565b73ffffffffffffffffffffffffffffffffffffffff16145b5b90509392505050565b5f805f90507a184f03e93ff9f4daa797ed6e38ed64bf6a1f0100000000000000008310611655577a184f03e93ff9f4daa797ed6e38ed64bf6a1f010000000000000000838161164b5761164a612280565b5b0492506040810190505b6d04ee2d6d415b85acef81000000008310611692576d04ee2d6d415b85acef8100000000838161168857611687612280565b5b0492506020810190505b662386f26fc1000083106116c157662386f26fc1000083816116b7576116b6612280565b5b0492506010810190505b6305f5e10083106116ea576305f5e10083816116e0576116df612280565b5b0492506008810190505b612710831061170f57612710838161170557611704612280565b5b0492506004810190505b60648310611732576064838161172857611727612280565b5b0492506002810190505b600a8310611741576001810190505b80915050919050565b5f604051905090565b5f80fd5b5f80fd5b5f7fffffffff0000000000000000000000000000000000000000000000000000000082169050919050565b61178f8161175b565b8114611799575f80fd5b50565b5f813590506117aa81611786565b92915050565b5f602082840312156117c5576117c4611753565b5b5f6117d28482850161179c565b91505092915050565b5f8115159050919050565b6117ef816117db565b82525050565b5f6020820190506118085f8301846117e6565b92915050565b5f81519050919050565b5f82825260208201905092915050565b5f5b8381101561184557808201518184015260208101905061182a565b5f8484015250505050565b5f601f19601f8301169050919050565b5f61186a8261180e565b6118748185611818565b9350611884818560208601611828565b61188d81611850565b840191505092915050565b5f6020820190508181035f8301526118b08184611860565b905092915050565b5f819050919050565b6118ca816118b8565b81146118d4575f80fd5b50565b5f813590506118e5816118c1565b92915050565b5f60208284031215611900576118ff611753565b5b5f61190d848285016118d7565b91505092915050565b5f73ffffffffffffffffffffffffffffffffffffffff82169050919050565b5f61193f82611916565b9050919050565b61194f81611935565b82525050565b5f6020820190506119685f830184611946565b92915050565b61197781611935565b8114611981575f80fd5b50565b5f813590506119928161196e565b92915050565b5f80604083850312156119ae576119ad611753565b5b5f6119bb85828601611984565b92505060206119cc858286016118d7565b9150509250929050565b5f805f606084860312156119ed576119ec611753565b5b5f6119fa86828701611984565b9350506020611a0b86828701611984565b9250506040611a1c868287016118d7565b9150509250925092565b5f60208284031215611a3b57611a3a611753565b5b5f611a4884828501611984565b91505092915050565b611a5a816118b8565b82525050565b5f602082019050611a735f830184611a51565b92915050565b611a82816117db565b8114611a8c575f80fd5b50565b5f81359050611a9d81611a79565b92915050565b5f8060408385031215611ab957611ab8611753565b5b5f611ac685828601611984565b9250506020611ad785828601611a8f565b9150509250929050565b5f80fd5b5f80fd5b7f4e487b71000000000000000000000000000000000000000000000000000000005f52604160045260245ffd5b611b1f82611850565b810181811067ffffffffffffffff82111715611b3e57611b3d611ae9565b5b80604052505050565b5f611b5061174a565b9050611b5c8282611b16565b919050565b5f67ffffffffffffffff821115611b7b57611b7a611ae9565b5b611b8482611850565b9050602081019050919050565b828183375f83830152505050565b5f611bb1611bac84611b61565b611b47565b905082815260208101848484011115611bcd57611bcc611ae5565b5b611bd8848285611b91565b509392505050565b5f82601f830112611bf457611bf3611ae1565b5b8135611c04848260208601611b9f565b91505092915050565b5f8060408385031215611c2357611c22611753565b5b5f611c3085828601611984565b925050602083013567ffffffffffffffff811115611c5157611c50611757565b5b611c5d85828601611be0565b9150509250929050565b5f67ffffffffffffffff821115611c8157611c80611ae9565b5b611c8a82611850565b9050602081019050919050565b5f611ca9611ca484611c67565b611b47565b905082815260208101848484011115611cc557611cc4611ae5565b5b611cd0848285611b91565b509392505050565b5f82601f830112611cec57611ceb611ae1565b5b8135611cfc848260208601611c97565b91505092915050565b5f805f8060808587031215611d1d57611d1c611753565b5b5f611d2a87828801611984565b9450506020611d3b87828801611984565b9350506040611d4c878288016118d7565b925050606085013567ffffffffffffffff811115611d6d57611d6c611757565b5b611d7987828801611cd8565b91505092959194509250565b5f8060408385031215611d9b57611d9a611753565b5b5f611da885828601611984565b9250506020611db985828601611984565b9150509250929050565b7f4e487b71000000000000000000000000000000000000000000000000000000005f52602260045260245ffd5b5f6002820490506001821680611e0757607f821691505b602082108103611e1a57611e19611dc3565b5b50919050565b5f606082019050611e335f830186611946565b611e406020830185611a51565b611e4d6040830184611946565b949350505050565b7f4e487b71000000000000000000000000000000000000000000000000000000005f52601160045260245ffd5b5f611e8c826118b8565b9150611e97836118b8565b9250828201905080821115611eaf57611eae611e55565b5b92915050565b5f81905092915050565b5f611ec98261180e565b611ed38185611eb5565b9350611ee3818560208601611828565b80840191505092915050565b5f611efa8285611ebf565b9150611f068284611ebf565b91508190509392505050565b5f819050815f5260205f209050919050565b5f6020601f8301049050919050565b5f82821b905092915050565b5f60088302611f6e7fffffffffffffffffffffffffffffffffffffffffffffffffffffffffffffffff82611f33565b611f788683611f33565b95508019841693508086168417925050509392505050565b5f819050919050565b5f611fb3611fae611fa9846118b8565b611f90565b6118b8565b9050919050565b5f819050919050565b611fcc83611f99565b611fe0611fd882611fba565b848454611f3f565b825550505050565b5f90565b611ff4611fe8565b611fff818484611fc3565b505050565b5b81811015612022576120175f82611fec565b600181019050612005565b5050565b601f8211156120675761203881611f12565b61204184611f24565b81016020851015612050578190505b61206461205c85611f24565b830182612004565b50505b505050565b5f82821c905092915050565b5f6120875f198460080261206c565b1980831691505092915050565b5f61209f8383612078565b9150826002028217905092915050565b6120b88261180e565b67ffffffffffffffff8111156120d1576120d0611ae9565b5b6120db8254611df0565b6120e6828285612026565b5f60209050601f831160018114612117575f8415612105578287015190505b61210f8582612094565b865550612176565b601f19841661212586611f12565b5f5b8281101561214c57848901518255600182019150602085019450602081019050612127565b868310156121695784890151612165601f891682612078565b8355505b6001600288020188555050505b505050505050565b5f81519050919050565b5f82825260208201905092915050565b5f6121a28261217e565b6121ac8185612188565b93506121bc818560208601611828565b6121c581611850565b840191505092915050565b5f6080820190506121e35f830187611946565b6121f06020830186611946565b6121fd6040830185611a51565b818103606083015261220f8184612198565b905095945050505050565b5f8151905061222881611786565b92915050565b5f6020828403121561224357612242611753565b5b5f6122508482850161221a565b91505092915050565b5f60408201905061226c5f830185611946565b6122796020830184611a51565b9392505050565b7f4e487b71000000000000000000000000000000000000000000000000000000005f52601260045260245ffdfea2646970667358221220307fe7179b2d290672a653bce1167c8953b6edc496bfccf1ed834b3ccf58526e64736f6c63430008180033",
					"opcodes": "PUSH1 0x80 PUSH1 0x40 MSTORE PUSH0 PUSH1 0x7 SSTORE CALLVALUE DUP1 ISZERO PUSH3 0x14 JUMPI PUSH0 DUP1 REVERT JUMPDEST POP PUSH1 0x40 MLOAD DUP1 PUSH1 0x40 ADD PUSH1 0x40 MSTORE DUP1 PUSH1 0xB DUP2 MSTORE PUSH1 0x20 ADD PUSH32 0x456E657267794173736574000000000000000000000000000000000000000000 DUP2 MSTORE POP PUSH1 0x40 MLOAD DUP1 PUSH1 0x40 ADD PUSH1 0x40 MSTORE DUP1 PUSH1 0x4 DUP2 MSTORE PUSH1 0x20 ADD PUSH32 0x454E474100000000000000000000000000000000000000000000000000000000 DUP2 MSTORE POP DUP2 PUSH0 SWAP1 DUP2 PUSH3 0x91 SWAP2 SWAP1 PUSH3 0x310 JUMP JUMPDEST POP DUP1 PUSH1 0x1 SWAP1 DUP2 PUSH3 0xA3 SWAP2 SWAP1 PUSH3 0x310 JUMP JUMPDEST POP POP POP PUSH3 0x3F4 JUMP JUMPDEST PUSH0 DUP2 MLOAD SWAP1 POP SWAP2 SWAP1 POP JUMP JUMPDEST PUSH32 0x4E487B7100000000000000000000000000000000000000000000000000000000 PUSH0 MSTORE PUSH1 0x41 PUSH1 0x4 MSTORE PUSH1 0x24 PUSH0 REVERT JUMPDEST PUSH32 0x4E487B7100000000000000000000000000000000000000000000000000000000 PUSH0 MSTORE PUSH1 0x22 PUSH1 0x4 MSTORE PUSH1 0x24 PUSH0 REVERT JUMPDEST PUSH0 PUSH1 0x2 DUP3 DIV SWAP1 POP PUSH1 0x1 DUP3 AND DUP1 PUSH3 0x128 JUMPI PUSH1 0x7F DUP3 AND SWAP2 POP JUMPDEST PUSH1 0x20 DUP3 LT DUP2 SUB PUSH3 0x13E JUMPI PUSH3 0x13D PUSH3 0xE3 JUMP JUMPDEST JUMPDEST POP SWAP2 SWAP1 POP JUMP JUMPDEST PUSH0 DUP2 SWAP1 POP DUP2 PUSH0 MSTORE PUSH1 0x20 PUSH0 KECCAK256 SWAP1 POP SWAP2 SWAP1 POP JUMP JUMPDEST PUSH0 PUSH1 0x20 PUSH1 0x1F DUP4 ADD DIV SWAP1 POP SWAP2 SWAP1 POP JUMP JUMPDEST PUSH0 DUP3 DUP3 SHL SWAP1 POP SWAP3 SWAP2 POP POP JUMP JUMPDEST PUSH0 PUSH1 0x8 DUP4 MUL PUSH3 0x1A2 PUSH32 0xFFFFFFFFFFFFFFFFFFFFFFFFFFFFFFFFFFFFFFFFFFFFFFFFFFFFFFFFFFFFFFFF DUP3 PUSH3 0x165 JUMP JUMPDEST PUSH3 0x1AE DUP7 DUP4 PUSH3 0x165 JUMP JUMPDEST SWAP6 POP DUP1 NOT DUP5 AND SWAP4 POP DUP1 DUP7 AND DUP5 OR SWAP3 POP POP POP SWAP4 SWAP3 POP POP POP JUMP JUMPDEST PUSH0 DUP2 SWAP1 POP SWAP2 SWAP1 POP JUMP JUMPDEST PUSH0 DUP2 SWAP1 POP SWAP2 SWAP1 POP JUMP JUMPDEST PUSH0 PUSH3 0x1F8 PUSH3 0x1F2 PUSH3 0x1EC DUP5 PUSH3 0x1C6 JUMP JUMPDEST PUSH3 0x1CF JUMP JUMPDEST PUSH3 0x1C6 JUMP JUMPDEST SWAP1 POP SWAP2 SWAP1 POP JUMP JUMPDEST PUSH0 DUP2 SWAP1 POP SWAP2 SWAP1 POP JUMP JUMPDEST PUSH3 0x213 DUP4 PUSH3 0x1D8 JUMP JUMPDEST PUSH3 0x22B PUSH3 0x222 DUP3 PUSH3 0x1FF JUMP JUMPDEST DUP5 DUP5 SLOAD PUSH3 0x171 JUMP JUMPDEST DUP3 SSTORE POP POP POP POP JUMP JUMPDEST PUSH0 SWAP1 JUMP JUMPDEST PUSH3 0x241 PUSH3 0x233 JUMP JUMPDEST PUSH3 0x24E DUP2 DUP5 DUP5 PUSH3 0x208 JUMP JUMPDEST POP POP POP JUMP JUMPDEST JUMPDEST DUP2 DUP2 LT ISZERO PUSH3 0x275 JUMPI PUSH3 0x269 PUSH0 DUP3 PUSH3 0x237 JUMP JUMPDEST PUSH1 0x1 DUP2 ADD SWAP1 POP PUSH3 0x254 JUMP JUMPDEST POP POP JUMP JUMPDEST PUSH1 0x1F DUP3 GT ISZERO PUSH3 0x2C4 JUMPI PUSH3 0x28E DUP2 PUSH3 0x144 JUMP JUMPDEST PUSH3 0x299 DUP5 PUSH3 0x156 JUMP JUMPDEST DUP2 ADD PUSH1 0x20 DUP6 LT ISZERO PUSH3 0x2A9 JUMPI DUP2 SWAP1 POP JUMPDEST PUSH3 0x2C1 PUSH3 0x2B8 DUP6 PUSH3 0x156 JUMP JUMPDEST DUP4 ADD DUP3 PUSH3 0x253 JUMP JUMPDEST POP POP JUMPDEST POP POP POP JUMP JUMPDEST PUSH0 DUP3 DUP3 SHR SWAP1 POP SWAP3 SWAP2 POP POP JUMP JUMPDEST PUSH0 PUSH3 0x2E6 PUSH0 NOT DUP5 PUSH1 0x8 MUL PUSH3 0x2C9 JUMP JUMPDEST NOT DUP1 DUP4 AND SWAP2 POP POP SWAP3 SWAP2 POP POP JUMP JUMPDEST PUSH0 PUSH3 0x300 DUP4 DUP4 PUSH3 0x2D5 JUMP JUMPDEST SWAP2 POP DUP3 PUSH1 0x2 MUL DUP3 OR SWAP1 POP SWAP3 SWAP2 POP POP JUMP JUMPDEST PUSH3 0x31B DUP3 PUSH3 0xAC JUMP JUMPDEST PUSH8 0xFFFFFFFFFFFFFFFF DUP2 GT ISZERO PUSH3 0x337 JUMPI PUSH3 0x336 PUSH3 0xB6 JUMP JUMPDEST JUMPDEST PUSH3 0x343 DUP3 SLOAD PUSH3 0x110 JUMP JUMPDEST PUSH3 0x350 DUP3 DUP3 DUP6 PUSH3 0x279 JUMP JUMPDEST PUSH0 PUSH1 0x20 SWAP1 POP PUSH1 0x1F DUP4 GT PUSH1 0x1 DUP2 EQ PUSH3 0x386 JUMPI PUSH0 DUP5 ISZERO PUSH3 0x371 JUMPI DUP3 DUP8 ADD MLOAD SWAP1 POP JUMPDEST PUSH3 0x37D DUP6 DUP3 PUSH3 0x2F3 JUMP JUMPDEST DUP7 SSTORE POP PUSH3 0x3EC JUMP JUMPDEST PUSH1 0x1F NOT DUP5 AND PUSH3 0x396 DUP7 PUSH3 0x144 JUMP JUMPDEST PUSH0 JUMPDEST DUP3 DUP2 LT ISZERO PUSH3 0x3BF JUMPI DUP5 DUP10 ADD MLOAD DUP3 SSTORE PUSH1 0x1 DUP3 ADD SWAP2 POP PUSH1 0x20 DUP6 ADD SWAP5 POP PUSH1 0x20 DUP2 ADD SWAP1 POP PUSH3 0x398 JUMP JUMPDEST DUP7 DUP4 LT ISZERO PUSH3 0x3DF JUMPI DUP5 DUP10 ADD MLOAD PUSH3 0x3DB PUSH1 0x1F DUP10 AND DUP3 PUSH3 0x2D5 JUMP JUMPDEST DUP4 SSTORE POP JUMPDEST PUSH1 0x1 PUSH1 0x2 DUP9 MUL ADD DUP9 SSTORE POP POP POP JUMPDEST POP POP POP POP POP POP JUMP JUMPDEST PUSH2 0x22E3 DUP1 PUSH3 0x402 PUSH0 CODECOPY PUSH0 RETURN INVALID PUSH1 0x80 PUSH1 0x40 MSTORE CALLVALUE DUP1 ISZERO PUSH2 0xF JUMPI PUSH0 DUP1 REVERT JUMPDEST POP PUSH1 0x4 CALLDATASIZE LT PUSH2 0xE8 JUMPI PUSH0 CALLDATALOAD PUSH1 0xE0 SHR DUP1 PUSH4 0x70A08231 GT PUSH2 0x8A JUMPI DUP1 PUSH4 0xB4A5A983 GT PUSH2 0x64 JUMPI DUP1 PUSH4 0xB4A5A983 EQ PUSH2 0x258 JUMPI DUP1 PUSH4 0xB88D4FDE EQ PUSH2 0x288 JUMPI DUP1 PUSH4 0xC87B56DD EQ PUSH2 0x2A4 JUMPI DUP1 PUSH4 0xE985E9C5 EQ PUSH2 0x2D4 JUMPI PUSH2 0xE8 JUMP JUMPDEST DUP1 PUSH4 0x70A08231 EQ PUSH2 0x1EE JUMPI DUP1 PUSH4 0x95D89B41 EQ PUSH2 0x21E JUMPI DUP1 PUSH4 0xA22CB465 EQ PUSH2 0x23C JUMPI PUSH2 0xE8 JUMP JUMPDEST DUP1 PUSH4 0x95EA7B3 GT PUSH2 0xC6 JUMPI DUP1 PUSH4 0x95EA7B3 EQ PUSH2 0x16A JUMPI DUP1 PUSH4 0x23B872DD EQ PUSH2 0x186 JUMPI DUP1 PUSH4 0x42842E0E EQ PUSH2 0x1A2 JUMPI DUP1 PUSH4 0x6352211E EQ PUSH2 0x1BE JUMPI PUSH2 0xE8 JUMP JUMPDEST DUP1 PUSH4 0x1FFC9A7 EQ PUSH2 0xEC JUMPI DUP1 PUSH4 0x6FDDE03 EQ PUSH2 0x11C JUMPI DUP1 PUSH4 0x81812FC EQ PUSH2 0x13A JUMPI JUMPDEST PUSH0 DUP1 REVERT JUMPDEST PUSH2 0x106 PUSH1 0x4 DUP1 CALLDATASIZE SUB DUP2 ADD SWAP1 PUSH2 0x101 SWAP2 SWAP1 PUSH2 0x17B0 JUMP JUMPDEST PUSH2 0x304 JUMP JUMPDEST PUSH1 0x40 MLOAD PUSH2 0x113 SWAP2 SWAP1 PUSH2 0x17F5 JUMP JUMPDEST PUSH1 0x40 MLOAD DUP1 SWAP2 SUB SWAP1 RETURN JUMPDEST PUSH2 0x124 PUSH2 0x364 JUMP JUMPDEST PUSH1 0x40 MLOAD PUSH2 0x131 SWAP2 SWAP1 PUSH2 0x1898 JUMP JUMPDEST PUSH1 0x40 MLOAD DUP1 SWAP2 SUB SWAP1 RETURN JUMPDEST PUSH2 0x154 PUSH1 0x4 DUP1 CALLDATASIZE SUB DUP2 ADD SWAP1 PUSH2 0x14F SWAP2 SWAP1 PUSH2 0x18EB JUMP JUMPDEST PUSH2 0x3F3 JUMP JUMPDEST PUSH1 0x40 MLOAD PUSH2 0x161 SWAP2 SWAP1 PUSH2 0x1955 JUMP JUMPDEST PUSH1 0x40 MLOAD DUP1 SWAP2 SUB SWAP1 RETURN JUMPDEST PUSH2 0x184 PUSH1 0x4 DUP1 CALLDATASIZE SUB DUP2 ADD SWAP1 PUSH2 0x17F SWAP2 SWAP1 PUSH2 0x1998 JUMP JUMPDEST PUSH2 0x40E JUMP JUMPDEST STOP JUMPDEST PUSH2 0x1A0 PUSH1 0x4 DUP1 CALLDATASIZE SUB DUP2 ADD SWAP1 PUSH2 0x19B SWAP2 SWAP1 PUSH2 0x19D6 JUMP JUMPDEST PUSH2 0x424 JUMP JUMPDEST STOP JUMPDEST PUSH2 0x1BC PUSH1 0x4 DUP1 CALLDATASIZE SUB DUP2 ADD SWAP1 PUSH2 0x1B7 SWAP2 SWAP1 PUSH2 0x19D6 JUMP JUMPDEST PUSH2 0x523 JUMP JUMPDEST STOP JUMPDEST PUSH2 0x1D8 PUSH1 0x4 DUP1 CALLDATASIZE SUB DUP2 ADD SWAP1 PUSH2 0x1D3 SWAP2 SWAP1 PUSH2 0x18EB JUMP JUMPDEST PUSH2 0x542 JUMP JUMPDEST PUSH1 0x40 MLOAD PUSH2 0x1E5 SWAP2 SWAP1 PUSH2 0x1955 JUMP JUMPDEST PUSH1 0x40 MLOAD DUP1 SWAP2 SUB SWAP1 RETURN JUMPDEST PUSH2 0x208 PUSH1 0x4 DUP1 CALLDATASIZE SUB DUP2 ADD SWAP1 PUSH2 0x203 SWAP2 SWAP1 PUSH2 0x1A26 JUMP JUMPDEST PUSH2 0x553 JUMP JUMPDEST PUSH1 0x40 MLOAD PUSH2 0x215 SWAP2 SWAP1 PUSH2 0x1A60 JUMP JUMPDEST PUSH1 0x40 MLOAD DUP1 SWAP2 SUB SWAP1 RETURN JUMPDEST PUSH2 0x226 PUSH2 0x609 JUMP JUMPDEST PUSH1 0x40 MLOAD PUSH2 0x233 SWAP2 SWAP1 PUSH2 0x1898 JUMP JUMPDEST PUSH1 0x40 MLOAD DUP1 SWAP2 SUB SWAP1 RETURN JUMPDEST PUSH2 0x256 PUSH1 0x4 DUP1 CALLDATASIZE SUB DUP2 ADD SWAP1 PUSH2 0x251 SWAP2 SWAP1 PUSH2 0x1AA3 JUMP JUMPDEST PUSH2 0x699 JUMP JUMPDEST STOP JUMPDEST PUSH2 0x272 PUSH1 0x4 DUP1 CALLDATASIZE SUB DUP2 ADD SWAP1 PUSH2 0x26D SWAP2 SWAP1 PUSH2 0x1C0D JUMP JUMPDEST PUSH2 0x6AF JUMP JUMPDEST PUSH1 0x40 MLOAD PUSH2 0x27F SWAP2 SWAP1 PUSH2 0x1A60 JUMP JUMPDEST PUSH1 0x40 MLOAD DUP1 SWAP2 SUB SWAP1 RETURN JUMPDEST PUSH2 0x2A2 PUSH1 0x4 DUP1 CALLDATASIZE SUB DUP2 ADD SWAP1 PUSH2 0x29D SWAP2 SWAP1 PUSH2 0x1D05 JUMP JUMPDEST PUSH2 0x6ED JUMP JUMPDEST STOP JUMPDEST PUSH2 0x2BE PUSH1 0x4 DUP1 CALLDATASIZE SUB DUP2 ADD SWAP1 PUSH2 0x2B9 SWAP2 SWAP1 PUSH2 0x18EB JUMP JUMPDEST PUSH2 0x70A JUMP JUMPDEST PUSH1 0x40 MLOAD PUSH2 0x2CB SWAP2 SWAP1 PUSH2 0x1898 JUMP JUMPDEST PUSH1 0x40 MLOAD DUP1 SWAP2 SUB SWAP1 RETURN JUMPDEST PUSH2 0x2EE PUSH1 0x4 DUP1 CALLDATASIZE SUB DUP2 ADD SWAP1 PUSH2 0x2E9 SWAP2 SWAP1 PUSH2 0x1D85 JUMP JUMPDEST PUSH2 0x815 JUMP JUMPDEST PUSH1 0x40 MLOAD PUSH2 0x2FB SWAP2 SWAP1 PUSH2 0x17F5 JUMP JUMPDEST PUSH1 0x40 MLOAD DUP1 SWAP2 SUB SWAP1 RETURN JUMPDEST PUSH0 PUSH4 0x49064906 PUSH1 0xE0 SHL PUSH28 0xFFFFFFFFFFFFFFFFFFFFFFFFFFFFFFFFFFFFFFFFFFFFFFFFFFFFFFFF NOT AND DUP3 PUSH28 0xFFFFFFFFFFFFFFFFFFFFFFFFFFFFFFFFFFFFFFFFFFFFFFFFFFFFFFFF NOT AND EQ DUP1 PUSH2 0x35D JUMPI POP PUSH2 0x35C DUP3 PUSH2 0x8A3 JUMP JUMPDEST JUMPDEST SWAP1 POP SWAP2 SWAP1 POP JUMP JUMPDEST PUSH1 0x60 PUSH0 DUP1 SLOAD PUSH2 0x372 SWAP1 PUSH2 0x1DF0 JUMP JUMPDEST DUP1 PUSH1 0x1F ADD PUSH1 0x20 DUP1 SWAP2 DIV MUL PUSH1 0x20 ADD PUSH1 0x40 MLOAD SWAP1 DUP2 ADD PUSH1 0x40 MSTORE DUP1 SWAP3 SWAP2 SWAP1 DUP2 DUP2 MSTORE PUSH1 0x20 ADD DUP3 DUP1 SLOAD PUSH2 0x39E SWAP1 PUSH2 0x1DF0 JUMP JUMPDEST DUP1 ISZERO PUSH2 0x3E9 JUMPI DUP1 PUSH1 0x1F LT PUSH2 0x3C0 JUMPI PUSH2 0x100 DUP1 DUP4 SLOAD DIV MUL DUP4 MSTORE SWAP2 PUSH1 0x20 ADD SWAP2 PUSH2 0x3E9 JUMP JUMPDEST DUP3 ADD SWAP2 SWAP1 PUSH0 MSTORE PUSH1 0x20 PUSH0 KECCAK256 SWAP1 JUMPDEST DUP2 SLOAD DUP2 MSTORE SWAP1 PUSH1 0x1 ADD SWAP1 PUSH1 0x20 ADD DUP1 DUP4 GT PUSH2 0x3CC JUMPI DUP3 SWAP1 SUB PUSH1 0x1F AND DUP3 ADD SWAP2 JUMPDEST POP POP POP POP POP SWAP1 POP SWAP1 JUMP JUMPDEST PUSH0 PUSH2 0x3FD DUP3 PUSH2 0x984 JUMP JUMPDEST POP PUSH2 0x407 DUP3 PUSH2 0xA0A JUMP JUMPDEST SWAP1 POP SWAP2 SWAP1 POP JUMP JUMPDEST PUSH2 0x420 DUP3 DUP3 PUSH2 0x41B PUSH2 0xA43 JUMP JUMPDEST PUSH2 0xA4A JUMP JUMPDEST POP POP JUMP JUMPDEST PUSH0 PUSH20 0xFFFFFFFFFFFFFFFFFFFFFFFFFFFFFFFFFFFFFFFF AND DUP3 PUSH20 0xFFFFFFFFFFFFFFFFFFFFFFFFFFFFFFFFFFFFFFFF AND SUB PUSH2 0x494 JUMPI PUSH0 PUSH1 0x40 MLOAD PUSH32 0x64A0AE9200000000000000000000000000000000000000000000000000000000 DUP2 MSTORE PUSH1 0x4 ADD PUSH2 0x48B SWAP2 SWAP1 PUSH2 0x1955 JUMP JUMPDEST PUSH1 0x40 MLOAD DUP1 SWAP2 SUB SWAP1 REVERT JUMPDEST PUSH0 PUSH2 0x4A7 DUP4 DUP4 PUSH2 0x4A2 PUSH2 0xA43 JUMP JUMPDEST PUSH2 0xA5C JUMP JUMPDEST SWAP1 POP DUP4 PUSH20 0xFFFFFFFFFFFFFFFFFFFFFFFFFFFFFFFFFFFFFFFF AND DUP2 PUSH20 0xFFFFFFFFFFFFFFFFFFFFFFFFFFFFFFFFFFFFFFFF AND EQ PUSH2 0x51D JUMPI DUP4 DUP3 DUP3 PUSH1 0x40 MLOAD PUSH32 0x64283D7B00000000000000000000000000000000000000000000000000000000 DUP2 MSTORE PUSH1 0x4 ADD PUSH2 0x514 SWAP4 SWAP3 SWAP2 SWAP1 PUSH2 0x1E20 JUMP JUMPDEST PUSH1 0x40 MLOAD DUP1 SWAP2 SUB SWAP1 REVERT JUMPDEST POP POP POP POP JUMP JUMPDEST PUSH2 0x53D DUP4 DUP4 DUP4 PUSH1 0x40 MLOAD DUP1 PUSH1 0x20 ADD PUSH1 0x40 MSTORE DUP1 PUSH0 DUP2 MSTORE POP PUSH2 0x6ED JUMP JUMPDEST POP POP POP JUMP JUMPDEST PUSH0 PUSH2 0x54C DUP3 PUSH2 0x984 JUMP JUMPDEST SWAP1 POP SWAP2 SWAP1 POP JUMP JUMPDEST PUSH0 DUP1 PUSH20 0xFFFFFFFFFFFFFFFFFFFFFFFFFFFFFFFFFFFFFFFF AND DUP3 PUSH20 0xFFFFFFFFFFFFFFFFFFFFFFFFFFFFFFFFFFFFFFFF AND SUB PUSH2 0x5C4 JUMPI PUSH0 PUSH1 0x40 MLOAD PUSH32 0x89C62B6400000000000000000000000000000000000000000000000000000000 DUP2 MSTORE PUSH1 0x4 ADD PUSH2 0x5BB SWAP2 SWAP1 PUSH2 0x1955 JUMP JUMPDEST PUSH1 0x40 MLOAD DUP1 SWAP2 SUB SWAP1 REVERT JUMPDEST PUSH1 0x3 PUSH0 DUP4 PUSH20 0xFFFFFFFFFFFFFFFFFFFFFFFFFFFFFFFFFFFFFFFF AND PUSH20 0xFFFFFFFFFFFFFFFFFFFFFFFFFFFFFFFFFFFFFFFF AND DUP2 MSTORE PUSH1 0x20 ADD SWAP1 DUP2 MSTORE PUSH1 0x20 ADD PUSH0 KECCAK256 SLOAD SWAP1 POP SWAP2 SWAP1 POP JUMP JUMPDEST PUSH1 0x60 PUSH1 0x1 DUP1 SLOAD PUSH2 0x618 SWAP1 PUSH2 0x1DF0 JUMP JUMPDEST DUP1 PUSH1 0x1F ADD PUSH1 0x20 DUP1 SWAP2 DIV MUL PUSH1 0x20 ADD PUSH1 0x40 MLOAD SWAP1 DUP2 ADD PUSH1 0x40 MSTORE DUP1 SWAP3 SWAP2 SWAP1 DUP2 DUP2 MSTORE PUSH1 0x20 ADD DUP3 DUP1 SLOAD PUSH2 0x644 SWAP1 PUSH2 0x1DF0 JUMP JUMPDEST DUP1 ISZERO PUSH2 0x68F JUMPI DUP1 PUSH1 0x1F LT PUSH2 0x666 JUMPI PUSH2 0x100 DUP1 DUP4 SLOAD DIV MUL DUP4 MSTORE SWAP2 PUSH1 0x20 ADD SWAP2 PUSH2 0x68F JUMP JUMPDEST DUP3 ADD SWAP2 SWAP1 PUSH0 MSTORE PUSH1 0x20 PUSH0 KECCAK256 SWAP1 JUMPDEST DUP2 SLOAD DUP2 MSTORE SWAP1 PUSH1 0x1 ADD SWAP1 PUSH1 0x20 ADD DUP1 DUP4 GT PUSH2 0x672 JUMPI DUP3 SWAP1 SUB PUSH1 0x1F AND DUP3 ADD SWAP2 JUMPDEST POP POP POP POP POP SWAP1 POP SWAP1 JUMP JUMPDEST PUSH2 0x6AB PUSH2 0x6A4 PUSH2 0xA43 JUMP JUMPDEST DUP4 DUP4 PUSH2 0xC67 JUMP JUMPDEST POP POP JUMP JUMPDEST PUSH0 PUSH1 0x1 PUSH1 0x7 PUSH0 DUP3 DUP3 SLOAD PUSH2 0x6C2 SWAP2 SWAP1 PUSH2 0x1E82 JUMP JUMPDEST SWAP3 POP POP DUP2 SWAP1 SSTORE POP PUSH0 PUSH1 0x7 SLOAD SWAP1 POP PUSH2 0x6D9 DUP5 DUP3 PUSH2 0xDD0 JUMP JUMPDEST PUSH2 0x6E3 DUP2 DUP5 PUSH2 0xEC3 JUMP JUMPDEST DUP1 SWAP2 POP POP SWAP3 SWAP2 POP POP JUMP JUMPDEST PUSH2 0x6F8 DUP5 DUP5 DUP5 PUSH2 0x424 JUMP JUMPDEST PUSH2 0x704 DUP5 DUP5 DUP5 DUP5 PUSH2 0xF1D JUMP JUMPDEST POP POP POP POP JUMP JUMPDEST PUSH1 0x60 PUSH2 0x715 DUP3 PUSH2 0x984 JUMP JUMPDEST POP PUSH0 PUSH1 0x6 PUSH0 DUP5 DUP2 MSTORE PUSH1 0x20 ADD SWAP1 DUP2 MSTORE PUSH1 0x20 ADD PUSH0 KECCAK256 DUP1 SLOAD PUSH2 0x733 SWAP1 PUSH2 0x1DF0 JUMP JUMPDEST DUP1 PUSH1 0x1F ADD PUSH1 0x20 DUP1 SWAP2 DIV MUL PUSH1 0x20 ADD PUSH1 0x40 MLOAD SWAP1 DUP2 ADD PUSH1 0x40 MSTORE DUP1 SWAP3 SWAP2 SWAP1 DUP2 DUP2 MSTORE PUSH1 0x20 ADD DUP3 DUP1 SLOAD PUSH2 0x75F SWAP1 PUSH2 0x1DF0 JUMP JUMPDEST DUP1 ISZERO PUSH2 0x7AA JUMPI DUP1 PUSH1 0x1F LT PUSH2 0x781 JUMPI PUSH2 0x100 DUP1 DUP4 SLOAD DIV MUL DUP4 MSTORE SWAP2 PUSH1 0x20 ADD SWAP2 PUSH2 0x7AA JUMP JUMPDEST DUP3 ADD SWAP2 SWAP1 PUSH0 MSTORE PUSH1 0x20 PUSH0 KECCAK256 SWAP1 JUMPDEST DUP2 SLOAD DUP2 MSTORE SWAP1 PUSH1 0x1 ADD SWAP1 PUSH1 0x20 ADD DUP1 DUP4 GT PUSH2 0x78D JUMPI DUP3 SWAP1 SUB PUSH1 0x1F AND DUP3 ADD SWAP2 JUMPDEST POP POP POP POP POP SWAP1 POP PUSH0 PUSH2 0x7BA PUSH2 0x10CF JUMP JUMPDEST SWAP1 POP PUSH0 DUP2 MLOAD SUB PUSH2 0x7CE JUMPI DUP2 SWAP3 POP POP POP PUSH2 0x810 JUMP JUMPDEST PUSH0 DUP3 MLOAD GT ISZERO PUSH2 0x802 JUMPI DUP1 DUP3 PUSH1 0x40 MLOAD PUSH1 0x20 ADD PUSH2 0x7EA SWAP3 SWAP2 SWAP1 PUSH2 0x1EEF JUMP JUMPDEST PUSH1 0x40 MLOAD PUSH1 0x20 DUP2 DUP4 SUB SUB DUP2 MSTORE SWAP1 PUSH1 0x40 MSTORE SWAP3 POP POP POP PUSH2 0x810 JUMP JUMPDEST PUSH2 0x80B DUP5 PUSH2 0x10E5 JUMP JUMPDEST SWAP3 POP POP POP JUMPDEST SWAP2 SWAP1 POP JUMP JUMPDEST PUSH0 PUSH1 0x5 PUSH0 DUP5 PUSH20 0xFFFFFFFFFFFFFFFFFFFFFFFFFFFFFFFFFFFFFFFF AND PUSH20 0xFFFFFFFFFFFFFFFFFFFFFFFFFFFFFFFFFFFFFFFF AND DUP2 MSTORE PUSH1 0x20 ADD SWAP1 DUP2 MSTORE PUSH1 0x20 ADD PUSH0 KECCAK256 PUSH0 DUP4 PUSH20 0xFFFFFFFFFFFFFFFFFFFFFFFFFFFFFFFFFFFFFFFF AND PUSH20 0xFFFFFFFFFFFFFFFFFFFFFFFFFFFFFFFFFFFFFFFF AND DUP2 MSTORE PUSH1 0x20 ADD SWAP1 DUP2 MSTORE PUSH1 0x20 ADD PUSH0 KECCAK256 PUSH0 SWAP1 SLOAD SWAP1 PUSH2 0x100 EXP SWAP1 DIV PUSH1 0xFF AND SWAP1 POP SWAP3 SWAP2 POP POP JUMP JUMPDEST PUSH0 PUSH32 0x80AC58CD00000000000000000000000000000000000000000000000000000000 PUSH28 0xFFFFFFFFFFFFFFFFFFFFFFFFFFFFFFFFFFFFFFFFFFFFFFFFFFFFFFFF NOT AND DUP3 PUSH28 0xFFFFFFFFFFFFFFFFFFFFFFFFFFFFFFFFFFFFFFFFFFFFFFFFFFFFFFFF NOT AND EQ DUP1 PUSH2 0x96D JUMPI POP PUSH32 0x5B5E139F00000000000000000000000000000000000000000000000000000000 PUSH28 0xFFFFFFFFFFFFFFFFFFFFFFFFFFFFFFFFFFFFFFFFFFFFFFFFFFFFFFFF NOT AND DUP3 PUSH28 0xFFFFFFFFFFFFFFFFFFFFFFFFFFFFFFFFFFFFFFFFFFFFFFFFFFFFFFFF NOT AND EQ JUMPDEST DUP1 PUSH2 0x97D JUMPI POP PUSH2 0x97C DUP3 PUSH2 0x114B JUMP JUMPDEST JUMPDEST SWAP1 POP SWAP2 SWAP1 POP JUMP JUMPDEST PUSH0 DUP1 PUSH2 0x98F DUP4 PUSH2 0x11B4 JUMP JUMPDEST SWAP1 POP PUSH0 PUSH20 0xFFFFFFFFFFFFFFFFFFFFFFFFFFFFFFFFFFFFFFFF AND DUP2 PUSH20 0xFFFFFFFFFFFFFFFFFFFFFFFFFFFFFFFFFFFFFFFF AND SUB PUSH2 0xA01 JUMPI DUP3 PUSH1 0x40 MLOAD PUSH32 0x7E27328900000000000000000000000000000000000000000000000000000000 DUP2 MSTORE PUSH1 0x4 ADD PUSH2 0x9F8 SWAP2 SWAP1 PUSH2 0x1A60 JUMP JUMPDEST PUSH1 0x40 MLOAD DUP1 SWAP2 SUB SWAP1 REVERT JUMPDEST DUP1 SWAP2 POP POP SWAP2 SWAP1 POP JUMP JUMPDEST PUSH0 PUSH1 0x4 PUSH0 DUP4 DUP2 MSTORE PUSH1 0x20 ADD SWAP1 DUP2 MSTORE PUSH1 0x20 ADD PUSH0 KECCAK256 PUSH0 SWAP1 SLOAD SWAP1 PUSH2 0x100 EXP SWAP1 DIV PUSH20 0xFFFFFFFFFFFFFFFFFFFFFFFFFFFFFFFFFFFFFFFF AND SWAP1 POP SWAP2 SWAP1 POP JUMP JUMPDEST PUSH0 CALLER SWAP1 POP SWAP1 JUMP JUMPDEST PUSH2 0xA57 DUP4 DUP4 DUP4 PUSH1 0x1 PUSH2 0x11ED JUMP JUMPDEST POP POP POP JUMP JUMPDEST PUSH0 DUP1 PUSH2 0xA67 DUP5 PUSH2 0x11B4 JUMP JUMPDEST SWAP1 POP PUSH0 PUSH20 0xFFFFFFFFFFFFFFFFFFFFFFFFFFFFFFFFFFFFFFFF AND DUP4 PUSH20 0xFFFFFFFFFFFFFFFFFFFFFFFFFFFFFFFFFFFFFFFF AND EQ PUSH2 0xAA8 JUMPI PUSH2 0xAA7 DUP2 DUP5 DUP7 PUSH2 0x13AC JUMP JUMPDEST JUMPDEST PUSH0 PUSH20 0xFFFFFFFFFFFFFFFFFFFFFFFFFFFFFFFFFFFFFFFF AND DUP2 PUSH20 0xFFFFFFFFFFFFFFFFFFFFFFFFFFFFFFFFFFFFFFFF AND EQ PUSH2 0xB33 JUMPI PUSH2 0xAE7 PUSH0 DUP6 PUSH0 DUP1 PUSH2 0x11ED JUMP JUMPDEST PUSH1 0x1 PUSH1 0x3 PUSH0 DUP4 PUSH20 0xFFFFFFFFFFFFFFFFFFFFFFFFFFFFFFFFFFFFFFFF AND PUSH20 0xFFFFFFFFFFFFFFFFFFFFFFFFFFFFFFFFFFFFFFFF AND DUP2 MSTORE PUSH1 0x20 ADD SWAP1 DUP2 MSTORE PUSH1 0x20 ADD PUSH0 KECCAK256 PUSH0 DUP3 DUP3 SLOAD SUB SWAP3 POP POP DUP2 SWAP1 SSTORE POP JUMPDEST PUSH0 PUSH20 0xFFFFFFFFFFFFFFFFFFFFFFFFFFFFFFFFFFFFFFFF AND DUP6 PUSH20 0xFFFFFFFFFFFFFFFFFFFFFFFFFFFFFFFFFFFFFFFF AND EQ PUSH2 0xBB2 JUMPI PUSH1 0x1 PUSH1 0x3 PUSH0 DUP8 PUSH20 0xFFFFFFFFFFFFFFFFFFFFFFFFFFFFFFFFFFFFFFFF AND PUSH20 0xFFFFFFFFFFFFFFFFFFFFFFFFFFFFFFFFFFFFFFFF AND DUP2 MSTORE PUSH1 0x20 ADD SWAP1 DUP2 MSTORE PUSH1 0x20 ADD PUSH0 KECCAK256 PUSH0 DUP3 DUP3 SLOAD ADD SWAP3 POP POP DUP2 SWAP1 SSTORE POP JUMPDEST DUP5 PUSH1 0x2 PUSH0 DUP7 DUP2 MSTORE PUSH1 0x20 ADD SWAP1 DUP2 MSTORE PUSH1 0x20 ADD PUSH0 KECCAK256 PUSH0 PUSH2 0x100 EXP DUP2 SLOAD DUP2 PUSH20 0xFFFFFFFFFFFFFFFFFFFFFFFFFFFFFFFFFFFFFFFF MUL NOT AND SWAP1 DUP4 PUSH20 0xFFFFFFFFFFFFFFFFFFFFFFFFFFFFFFFFFFFFFFFF AND MUL OR SWAP1 SSTORE POP DUP4 DUP6 PUSH20 0xFFFFFFFFFFFFFFFFFFFFFFFFFFFFFFFFFFFFFFFF AND DUP3 PUSH20 0xFFFFFFFFFFFFFFFFFFFFFFFFFFFFFFFFFFFFFFFF AND PUSH32 0xDDF252AD1BE2C89B69C2B068FC378DAA952BA7F163C4A11628F55A4DF523B3EF PUSH1 0x40 MLOAD PUSH1 0x40 MLOAD DUP1 SWAP2 SUB SWAP1 LOG4 DUP1 SWAP2 POP POP SWAP4 SWAP3 POP POP POP JUMP JUMPDEST PUSH0 PUSH20 0xFFFFFFFFFFFFFFFFFFFFFFFFFFFFFFFFFFFFFFFF AND DUP3 PUSH20 0xFFFFFFFFFFFFFFFFFFFFFFFFFFFFFFFFFFFFFFFF AND SUB PUSH2 0xCD7 JUMPI DUP2 PUSH1 0x40 MLOAD PUSH32 0x5B08BA1800000000000000000000000000000000000000000000000000000000 DUP2 MSTORE PUSH1 0x4 ADD PUSH2 0xCCE SWAP2 SWAP1 PUSH2 0x1955 JUMP JUMPDEST PUSH1 0x40 MLOAD DUP1 SWAP2 SUB SWAP1 REVERT JUMPDEST DUP1 PUSH1 0x5 PUSH0 DUP6 PUSH20 0xFFFFFFFFFFFFFFFFFFFFFFFFFFFFFFFFFFFFFFFF AND PUSH20 0xFFFFFFFFFFFFFFFFFFFFFFFFFFFFFFFFFFFFFFFF AND DUP2 MSTORE PUSH1 0x20 ADD SWAP1 DUP2 MSTORE PUSH1 0x20 ADD PUSH0 KECCAK256 PUSH0 DUP5 PUSH20 0xFFFFFFFFFFFFFFFFFFFFFFFFFFFFFFFFFFFFFFFF AND PUSH20 0xFFFFFFFFFFFFFFFFFFFFFFFFFFFFFFFFFFFFFFFF AND DUP2 MSTORE PUSH1 0x20 ADD SWAP1 DUP2 MSTORE PUSH1 0x20 ADD PUSH0 KECCAK256 PUSH0 PUSH2 0x100 EXP DUP2 SLOAD DUP2 PUSH1 0xFF MUL NOT AND SWAP1 DUP4 ISZERO ISZERO MUL OR SWAP1 SSTORE POP DUP2 PUSH20 0xFFFFFFFFFFFFFFFFFFFFFFFFFFFFFFFFFFFFFFFF AND DUP4 PUSH20 0xFFFFFFFFFFFFFFFFFFFFFFFFFFFFFFFFFFFFFFFF AND PUSH32 0x17307EAB39AB6107E8899845AD3D59BD9653F200F220920489CA2B5937696C31 DUP4 PUSH1 0x40 MLOAD PUSH2 0xDC3 SWAP2 SWAP1 PUSH2 0x17F5 JUMP JUMPDEST PUSH1 0x40 MLOAD DUP1 SWAP2 SUB SWAP1 LOG3 POP POP POP JUMP JUMPDEST PUSH0 PUSH20 0xFFFFFFFFFFFFFFFFFFFFFFFFFFFFFFFFFFFFFFFF AND DUP3 PUSH20 0xFFFFFFFFFFFFFFFFFFFFFFFFFFFFFFFFFFFFFFFF AND SUB PUSH2 0xE40 JUMPI PUSH0 PUSH1 0x40 MLOAD PUSH32 0x64A0AE9200000000000000000000000000000000000000000000000000000000 DUP2 MSTORE PUSH1 0x4 ADD PUSH2 0xE37 SWAP2 SWAP1 PUSH2 0x1955 JUMP JUMPDEST PUSH1 0x40 MLOAD DUP1 SWAP2 SUB SWAP1 REVERT JUMPDEST PUSH0 PUSH2 0xE4C DUP4 DUP4 PUSH0 PUSH2 0xA5C JUMP JUMPDEST SWAP1 POP PUSH0 PUSH20 0xFFFFFFFFFFFFFFFFFFFFFFFFFFFFFFFFFFFFFFFF AND DUP2 PUSH20 0xFFFFFFFFFFFFFFFFFFFFFFFFFFFFFFFFFFFFFFFF AND EQ PUSH2 0xEBE JUMPI PUSH0 PUSH1 0x40 MLOAD PUSH32 0x73C6AC6E00000000000000000000000000000000000000000000000000000000 DUP2 MSTORE PUSH1 0x4 ADD PUSH2 0xEB5 SWAP2 SWAP1 PUSH2 0x1955 JUMP JUMPDEST PUSH1 0x40 MLOAD DUP1 SWAP2 SUB SWAP1 REVERT JUMPDEST POP POP POP JUMP JUMPDEST DUP1 PUSH1 0x6 PUSH0 DUP5 DUP2 MSTORE PUSH1 0x20 ADD SWAP1 DUP2 MSTORE PUSH1 0x20 ADD PUSH0 KECCAK256 SWAP1 DUP2 PUSH2 0xEE1 SWAP2 SWAP1 PUSH2 0x20AF JUMP JUMPDEST POP PUSH32 0xF8E1A15ABA9398E019F0B49DF1A4FDE98EE17AE345CB5F6B5E2C27F5033E8CE7 DUP3 PUSH1 0x40 MLOAD PUSH2 0xF11 SWAP2 SWAP1 PUSH2 0x1A60 JUMP JUMPDEST PUSH1 0x40 MLOAD DUP1 SWAP2 SUB SWAP1 LOG1 POP POP JUMP JUMPDEST PUSH0 DUP4 PUSH20 0xFFFFFFFFFFFFFFFFFFFFFFFFFFFFFFFFFFFFFFFF AND EXTCODESIZE GT ISZERO PUSH2 0x10C9 JUMPI DUP3 PUSH20 0xFFFFFFFFFFFFFFFFFFFFFFFFFFFFFFFFFFFFFFFF AND PUSH4 0x150B7A02 PUSH2 0xF60 PUSH2 0xA43 JUMP JUMPDEST DUP7 DUP6 DUP6 PUSH1 0x40 MLOAD DUP6 PUSH4 0xFFFFFFFF AND PUSH1 0xE0 SHL DUP2 MSTORE PUSH1 0x4 ADD PUSH2 0xF82 SWAP5 SWAP4 SWAP3 SWAP2 SWAP1 PUSH2 0x21D0 JUMP JUMPDEST PUSH1 0x20 PUSH1 0x40 MLOAD DUP1 DUP4 SUB DUP2 PUSH0 DUP8 GAS CALL SWAP3 POP POP POP DUP1 ISZERO PUSH2 0xFBD JUMPI POP PUSH1 0x40 MLOAD RETURNDATASIZE PUSH1 0x1F NOT PUSH1 0x1F DUP3 ADD AND DUP3 ADD DUP1 PUSH1 0x40 MSTORE POP DUP2 ADD SWAP1 PUSH2 0xFBA SWAP2 SWAP1 PUSH2 0x222E JUMP JUMPDEST PUSH1 0x1 JUMPDEST PUSH2 0x103E JUMPI RETURNDATASIZE DUP1 PUSH0 DUP2 EQ PUSH2 0xFEB JUMPI PUSH1 0x40 MLOAD SWAP2 POP PUSH1 0x1F NOT PUSH1 0x3F RETURNDATASIZE ADD AND DUP3 ADD PUSH1 0x40 MSTORE RETURNDATASIZE DUP3 MSTORE RETURNDATASIZE PUSH0 PUSH1 0x20 DUP5 ADD RETURNDATACOPY PUSH2 0xFF0 JUMP JUMPDEST PUSH1 0x60 SWAP2 POP JUMPDEST POP PUSH0 DUP2 MLOAD SUB PUSH2 0x1036 JUMPI DUP4 PUSH1 0x40 MLOAD PUSH32 0x64A0AE9200000000000000000000000000000000000000000000000000000000 DUP2 MSTORE PUSH1 0x4 ADD PUSH2 0x102D SWAP2 SWAP1 PUSH2 0x1955 JUMP JUMPDEST PUSH1 0x40 MLOAD DUP1 SWAP2 SUB SWAP1 REVERT JUMPDEST DUP1 MLOAD DUP2 PUSH1 0x20 ADD REVERT JUMPDEST PUSH4 0x150B7A02 PUSH1 0xE0 SHL PUSH28 0xFFFFFFFFFFFFFFFFFFFFFFFFFFFFFFFFFFFFFFFFFFFFFFFFFFFFFFFF NOT AND DUP2 PUSH28 0xFFFFFFFFFFFFFFFFFFFFFFFFFFFFFFFFFFFFFFFFFFFFFFFFFFFFFFFF NOT AND EQ PUSH2 0x10C7 JUMPI DUP4 PUSH1 0x40 MLOAD PUSH32 0x64A0AE9200000000000000000000000000000000000000000000000000000000 DUP2 MSTORE PUSH1 0x4 ADD PUSH2 0x10BE SWAP2 SWAP1 PUSH2 0x1955 JUMP JUMPDEST PUSH1 0x40 MLOAD DUP1 SWAP2 SUB SWAP1 REVERT JUMPDEST POP JUMPDEST POP POP POP POP JUMP JUMPDEST PUSH1 0x60 PUSH1 0x40 MLOAD DUP1 PUSH1 0x20 ADD PUSH1 0x40 MSTORE DUP1 PUSH0 DUP2 MSTORE POP SWAP1 POP SWAP1 JUMP JUMPDEST PUSH1 0x60 PUSH2 0x10F0 DUP3 PUSH2 0x984 JUMP JUMPDEST POP PUSH0 PUSH2 0x10FA PUSH2 0x10CF JUMP JUMPDEST SWAP1 POP PUSH0 DUP2 MLOAD GT PUSH2 0x1118 JUMPI PUSH1 0x40 MLOAD DUP1 PUSH1 0x20 ADD PUSH1 0x40 MSTORE DUP1 PUSH0 DUP2 MSTORE POP PUSH2 0x1143 JUMP JUMPDEST DUP1 PUSH2 0x1122 DUP5 PUSH2 0x146F JUMP JUMPDEST PUSH1 0x40 MLOAD PUSH1 0x20 ADD PUSH2 0x1133 SWAP3 SWAP2 SWAP1 PUSH2 0x1EEF JUMP JUMPDEST PUSH1 0x40 MLOAD PUSH1 0x20 DUP2 DUP4 SUB SUB DUP2 MSTORE SWAP1 PUSH1 0x40 MSTORE JUMPDEST SWAP2 POP POP SWAP2 SWAP1 POP JUMP JUMPDEST PUSH0 PUSH32 0x1FFC9A700000000000000000000000000000000000000000000000000000000 PUSH28 0xFFFFFFFFFFFFFFFFFFFFFFFFFFFFFFFFFFFFFFFFFFFFFFFFFFFFFFFF NOT AND DUP3 PUSH28 0xFFFFFFFFFFFFFFFFFFFFFFFFFFFFFFFFFFFFFFFFFFFFFFFFFFFFFFFF NOT AND EQ SWAP1 POP SWAP2 SWAP1 POP JUMP JUMPDEST PUSH0 PUSH1 0x2 PUSH0 DUP4 DUP2 MSTORE PUSH1 0x20 ADD SWAP1 DUP2 MSTORE PUSH1 0x20 ADD PUSH0 KECCAK256 PUSH0 SWAP1 SLOAD SWAP1 PUSH2 0x100 EXP SWAP1 DIV PUSH20 0xFFFFFFFFFFFFFFFFFFFFFFFFFFFFFFFFFFFFFFFF AND SWAP1 POP SWAP2 SWAP1 POP JUMP JUMPDEST DUP1 DUP1 PUSH2 0x1225 JUMPI POP PUSH0 PUSH20 0xFFFFFFFFFFFFFFFFFFFFFFFFFFFFFFFFFFFFFFFF AND DUP3 PUSH20 0xFFFFFFFFFFFFFFFFFFFFFFFFFFFFFFFFFFFFFFFF AND EQ ISZERO JUMPDEST ISZERO PUSH2 0x1357 JUMPI PUSH0 PUSH2 0x1234 DUP5 PUSH2 0x984 JUMP JUMPDEST SWAP1 POP PUSH0 PUSH20 0xFFFFFFFFFFFFFFFFFFFFFFFFFFFFFFFFFFFFFFFF AND DUP4 PUSH20 0xFFFFFFFFFFFFFFFFFFFFFFFFFFFFFFFFFFFFFFFF AND EQ ISZERO DUP1 ISZERO PUSH2 0x129E JUMPI POP DUP3 PUSH20 0xFFFFFFFFFFFFFFFFFFFFFFFFFFFFFFFFFFFFFFFF AND DUP2 PUSH20 0xFFFFFFFFFFFFFFFFFFFFFFFFFFFFFFFFFFFFFFFF AND EQ ISZERO JUMPDEST DUP1 ISZERO PUSH2 0x12B1 JUMPI POP PUSH2 0x12AF DUP2 DUP5 PUSH2 0x815 JUMP JUMPDEST ISZERO JUMPDEST ISZERO PUSH2 0x12F3 JUMPI DUP3 PUSH1 0x40 MLOAD PUSH32 0xA9FBF51F00000000000000000000000000000000000000000000000000000000 DUP2 MSTORE PUSH1 0x4 ADD PUSH2 0x12EA SWAP2 SWAP1 PUSH2 0x1955 JUMP JUMPDEST PUSH1 0x40 MLOAD DUP1 SWAP2 SUB SWAP1 REVERT JUMPDEST DUP2 ISZERO PUSH2 0x1355 JUMPI DUP4 DUP6 PUSH20 0xFFFFFFFFFFFFFFFFFFFFFFFFFFFFFFFFFFFFFFFF AND DUP3 PUSH20 0xFFFFFFFFFFFFFFFFFFFFFFFFFFFFFFFFFFFFFFFF AND PUSH32 0x8C5BE1E5EBEC7D5BD14F71427D1E84F3DD0314C0F7B2291E5B200AC8C7C3B925 PUSH1 0x40 MLOAD PUSH1 0x40 MLOAD DUP1 SWAP2 SUB SWAP1 LOG4 JUMPDEST POP JUMPDEST DUP4 PUSH1 0x4 PUSH0 DUP6 DUP2 MSTORE PUSH1 0x20 ADD SWAP1 DUP2 MSTORE PUSH1 0x20 ADD PUSH0 KECCAK256 PUSH0 PUSH2 0x100 EXP DUP2 SLOAD DUP2 PUSH20 0xFFFFFFFFFFFFFFFFFFFFFFFFFFFFFFFFFFFFFFFF MUL NOT AND SWAP1 DUP4 PUSH20 0xFFFFFFFFFFFFFFFFFFFFFFFFFFFFFFFFFFFFFFFF AND MUL OR SWAP1 SSTORE POP POP POP POP POP JUMP JUMPDEST PUSH2 0x13B7 DUP4 DUP4 DUP4 PUSH2 0x1539 JUMP JUMPDEST PUSH2 0x146A JUMPI PUSH0 PUSH20 0xFFFFFFFFFFFFFFFFFFFFFFFFFFFFFFFFFFFFFFFF AND DUP4 PUSH20 0xFFFFFFFFFFFFFFFFFFFFFFFFFFFFFFFFFFFFFFFF AND SUB PUSH2 0x142B JUMPI DUP1 PUSH1 0x40 MLOAD PUSH32 0x7E27328900000000000000000000000000000000000000000000000000000000 DUP2 MSTORE PUSH1 0x4 ADD PUSH2 0x1422 SWAP2 SWAP1 PUSH2 0x1A60 JUMP JUMPDEST PUSH1 0x40 MLOAD DUP1 SWAP2 SUB SWAP1 REVERT JUMPDEST DUP2 DUP2 PUSH1 0x40 MLOAD PUSH32 0x177E802F00000000000000000000000000000000000000000000000000000000 DUP2 MSTORE PUSH1 0x4 ADD PUSH2 0x1461 SWAP3 SWAP2 SWAP1 PUSH2 0x2259 JUMP JUMPDEST PUSH1 0x40 MLOAD DUP1 SWAP2 SUB SWAP1 REVERT JUMPDEST POP POP POP JUMP JUMPDEST PUSH1 0x60 PUSH0 PUSH1 0x1 PUSH2 0x147D DUP5 PUSH2 0x15F9 JUMP JUMPDEST ADD SWAP1 POP PUSH0 DUP2 PUSH8 0xFFFFFFFFFFFFFFFF DUP2 GT ISZERO PUSH2 0x149B JUMPI PUSH2 0x149A PUSH2 0x1AE9 JUMP JUMPDEST JUMPDEST PUSH1 0x40 MLOAD SWAP1 DUP1 DUP3 MSTORE DUP1 PUSH1 0x1F ADD PUSH1 0x1F NOT AND PUSH1 0x20 ADD DUP3 ADD PUSH1 0x40 MSTORE DUP1 ISZERO PUSH2 0x14CD JUMPI DUP2 PUSH1 0x20 ADD PUSH1 0x1 DUP3 MUL DUP1 CALLDATASIZE DUP4 CALLDATACOPY DUP1 DUP3 ADD SWAP2 POP POP SWAP1 POP JUMPDEST POP SWAP1 POP PUSH0 DUP3 PUSH1 0x20 ADD DUP3 ADD SWAP1 POP JUMPDEST PUSH1 0x1 ISZERO PUSH2 0x152E JUMPI DUP1 DUP1 PUSH1 0x1 SWAP1 SUB SWAP2 POP POP PUSH32 0x3031323334353637383961626364656600000000000000000000000000000000 PUSH1 0xA DUP7 MOD BYTE DUP2 MSTORE8 PUSH1 0xA DUP6 DUP2 PUSH2 0x1523 JUMPI PUSH2 0x1522 PUSH2 0x2280 JUMP JUMPDEST JUMPDEST DIV SWAP5 POP PUSH0 DUP6 SUB PUSH2 0x14DA JUMPI JUMPDEST DUP2 SWAP4 POP POP POP POP SWAP2 SWAP1 POP JUMP JUMPDEST PUSH0 DUP1 PUSH20 0xFFFFFFFFFFFFFFFFFFFFFFFFFFFFFFFFFFFFFFFF AND DUP4 PUSH20 0xFFFFFFFFFFFFFFFFFFFFFFFFFFFFFFFFFFFFFFFF AND EQ ISZERO DUP1 ISZERO PUSH2 0x15F0 JUMPI POP DUP3 PUSH20 0xFFFFFFFFFFFFFFFFFFFFFFFFFFFFFFFFFFFFFFFF AND DUP5 PUSH20 0xFFFFFFFFFFFFFFFFFFFFFFFFFFFFFFFFFFFFFFFF AND EQ DUP1 PUSH2 0x15B1 JUMPI POP PUSH2 0x15B0 DUP5 DUP5 PUSH2 0x815 JUMP JUMPDEST JUMPDEST DUP1 PUSH2 0x15EF JUMPI POP DUP3 PUSH20 0xFFFFFFFFFFFFFFFFFFFFFFFFFFFFFFFFFFFFFFFF AND PUSH2 0x15D7 DUP4 PUSH2 0xA0A JUMP JUMPDEST PUSH20 0xFFFFFFFFFFFFFFFFFFFFFFFFFFFFFFFFFFFFFFFF AND EQ JUMPDEST JUMPDEST SWAP1 POP SWAP4 SWAP3 POP POP POP JUMP JUMPDEST PUSH0 DUP1 PUSH0 SWAP1 POP PUSH27 0x184F03E93FF9F4DAA797ED6E38ED64BF6A1F010000000000000000 DUP4 LT PUSH2 0x1655 JUMPI PUSH27 0x184F03E93FF9F4DAA797ED6E38ED64BF6A1F010000000000000000 DUP4 DUP2 PUSH2 0x164B JUMPI PUSH2 0x164A PUSH2 0x2280 JUMP JUMPDEST JUMPDEST DIV SWAP3 POP PUSH1 0x40 DUP2 ADD SWAP1 POP JUMPDEST PUSH14 0x4EE2D6D415B85ACEF8100000000 DUP4 LT PUSH2 0x1692 JUMPI PUSH14 0x4EE2D6D415B85ACEF8100000000 DUP4 DUP2 PUSH2 0x1688 JUMPI PUSH2 0x1687 PUSH2 0x2280 JUMP JUMPDEST JUMPDEST DIV SWAP3 POP PUSH1 0x20 DUP2 ADD SWAP1 POP JUMPDEST PUSH7 0x2386F26FC10000 DUP4 LT PUSH2 0x16C1 JUMPI PUSH7 0x2386F26FC10000 DUP4 DUP2 PUSH2 0x16B7 JUMPI PUSH2 0x16B6 PUSH2 0x2280 JUMP JUMPDEST JUMPDEST DIV SWAP3 POP PUSH1 0x10 DUP2 ADD SWAP1 POP JUMPDEST PUSH4 0x5F5E100 DUP4 LT PUSH2 0x16EA JUMPI PUSH4 0x5F5E100 DUP4 DUP2 PUSH2 0x16E0 JUMPI PUSH2 0x16DF PUSH2 0x2280 JUMP JUMPDEST JUMPDEST DIV SWAP3 POP PUSH1 0x8 DUP2 ADD SWAP1 POP JUMPDEST PUSH2 0x2710 DUP4 LT PUSH2 0x170F JUMPI PUSH2 0x2710 DUP4 DUP2 PUSH2 0x1705 JUMPI PUSH2 0x1704 PUSH2 0x2280 JUMP JUMPDEST JUMPDEST DIV SWAP3 POP PUSH1 0x4 DUP2 ADD SWAP1 POP JUMPDEST PUSH1 0x64 DUP4 LT PUSH2 0x1732 JUMPI PUSH1 0x64 DUP4 DUP2 PUSH2 0x1728 JUMPI PUSH2 0x1727 PUSH2 0x2280 JUMP JUMPDEST JUMPDEST DIV SWAP3 POP PUSH1 0x2 DUP2 ADD SWAP1 POP JUMPDEST PUSH1 0xA DUP4 LT PUSH2 0x1741 JUMPI PUSH1 0x1 DUP2 ADD SWAP1 POP JUMPDEST DUP1 SWAP2 POP POP SWAP2 SWAP1 POP JUMP JUMPDEST PUSH0 PUSH1 0x40 MLOAD SWAP1 POP SWAP1 JUMP JUMPDEST PUSH0 DUP1 REVERT JUMPDEST PUSH0 DUP1 REVERT JUMPDEST PUSH0 PUSH32 0xFFFFFFFF00000000000000000000000000000000000000000000000000000000 DUP3 AND SWAP1 POP SWAP2 SWAP1 POP JUMP JUMPDEST PUSH2 0x178F DUP2 PUSH2 0x175B JUMP JUMPDEST DUP2 EQ PUSH2 0x1799 JUMPI PUSH0 DUP1 REVERT JUMPDEST POP JUMP JUMPDEST PUSH0 DUP2 CALLDATALOAD SWAP1 POP PUSH2 0x17AA DUP2 PUSH2 0x1786 JUMP JUMPDEST SWAP3 SWAP2 POP POP JUMP JUMPDEST PUSH0 PUSH1 0x20 DUP3 DUP5 SUB SLT ISZERO PUSH2 0x17C5 JUMPI PUSH2 0x17C4 PUSH2 0x1753 JUMP JUMPDEST JUMPDEST PUSH0 PUSH2 0x17D2 DUP5 DUP3 DUP6 ADD PUSH2 0x179C JUMP JUMPDEST SWAP2 POP POP SWAP3 SWAP2 POP POP JUMP JUMPDEST PUSH0 DUP2 ISZERO ISZERO SWAP1 POP SWAP2 SWAP1 POP JUMP JUMPDEST PUSH2 0x17EF DUP2 PUSH2 0x17DB JUMP JUMPDEST DUP3 MSTORE POP POP JUMP JUMPDEST PUSH0 PUSH1 0x20 DUP3 ADD SWAP1 POP PUSH2 0x1808 PUSH0 DUP4 ADD DUP5 PUSH2 0x17E6 JUMP JUMPDEST SWAP3 SWAP2 POP POP JUMP JUMPDEST PUSH0 DUP2 MLOAD SWAP1 POP SWAP2 SWAP1 POP JUMP JUMPDEST PUSH0 DUP3 DUP3 MSTORE PUSH1 0x20 DUP3 ADD SWAP1 POP SWAP3 SWAP2 POP POP JUMP JUMPDEST PUSH0 JUMPDEST DUP4 DUP2 LT ISZERO PUSH2 0x1845 JUMPI DUP1 DUP3 ADD MLOAD DUP2 DUP5 ADD MSTORE PUSH1 0x20 DUP2 ADD SWAP1 POP PUSH2 0x182A JUMP JUMPDEST PUSH0 DUP5 DUP5 ADD MSTORE POP POP POP POP JUMP JUMPDEST PUSH0 PUSH1 0x1F NOT PUSH1 0x1F DUP4 ADD AND SWAP1 POP SWAP2 SWAP1 POP JUMP JUMPDEST PUSH0 PUSH2 0x186A DUP3 PUSH2 0x180E JUMP JUMPDEST PUSH2 0x1874 DUP2 DUP6 PUSH2 0x1818 JUMP JUMPDEST SWAP4 POP PUSH2 0x1884 DUP2 DUP6 PUSH1 0x20 DUP7 ADD PUSH2 0x1828 JUMP JUMPDEST PUSH2 0x188D DUP2 PUSH2 0x1850 JUMP JUMPDEST DUP5 ADD SWAP2 POP POP SWAP3 SWAP2 POP POP JUMP JUMPDEST PUSH0 PUSH1 0x20 DUP3 ADD SWAP1 POP DUP2 DUP2 SUB PUSH0 DUP4 ADD MSTORE PUSH2 0x18B0 DUP2 DUP5 PUSH2 0x1860 JUMP JUMPDEST SWAP1 POP SWAP3 SWAP2 POP POP JUMP JUMPDEST PUSH0 DUP2 SWAP1 POP SWAP2 SWAP1 POP JUMP JUMPDEST PUSH2 0x18CA DUP2 PUSH2 0x18B8 JUMP JUMPDEST DUP2 EQ PUSH2 0x18D4 JUMPI PUSH0 DUP1 REVERT JUMPDEST POP JUMP JUMPDEST PUSH0 DUP2 CALLDATALOAD SWAP1 POP PUSH2 0x18E5 DUP2 PUSH2 0x18C1 JUMP JUMPDEST SWAP3 SWAP2 POP POP JUMP JUMPDEST PUSH0 PUSH1 0x20 DUP3 DUP5 SUB SLT ISZERO PUSH2 0x1900 JUMPI PUSH2 0x18FF PUSH2 0x1753 JUMP JUMPDEST JUMPDEST PUSH0 PUSH2 0x190D DUP5 DUP3 DUP6 ADD PUSH2 0x18D7 JUMP JUMPDEST SWAP2 POP POP SWAP3 SWAP2 POP POP JUMP JUMPDEST PUSH0 PUSH20 0xFFFFFFFFFFFFFFFFFFFFFFFFFFFFFFFFFFFFFFFF DUP3 AND SWAP1 POP SWAP2 SWAP1 POP JUMP JUMPDEST PUSH0 PUSH2 0x193F DUP3 PUSH2 0x1916 JUMP JUMPDEST SWAP1 POP SWAP2 SWAP1 POP JUMP JUMPDEST PUSH2 0x194F DUP2 PUSH2 0x1935 JUMP JUMPDEST DUP3 MSTORE POP POP JUMP JUMPDEST PUSH0 PUSH1 0x20 DUP3 ADD SWAP1 POP PUSH2 0x1968 PUSH0 DUP4 ADD DUP5 PUSH2 0x1946 JUMP JUMPDEST SWAP3 SWAP2 POP POP JUMP JUMPDEST PUSH2 0x1977 DUP2 PUSH2 0x1935 JUMP JUMPDEST DUP2 EQ PUSH2 0x1981 JUMPI PUSH0 DUP1 REVERT JUMPDEST POP JUMP JUMPDEST PUSH0 DUP2 CALLDATALOAD SWAP1 POP PUSH2 0x1992 DUP2 PUSH2 0x196E JUMP JUMPDEST SWAP3 SWAP2 POP POP JUMP JUMPDEST PUSH0 DUP1 PUSH1 0x40 DUP4 DUP6 SUB SLT ISZERO PUSH2 0x19AE JUMPI PUSH2 0x19AD PUSH2 0x1753 JUMP JUMPDEST JUMPDEST PUSH0 PUSH2 0x19BB DUP6 DUP3 DUP7 ADD PUSH2 0x1984 JUMP JUMPDEST SWAP3 POP POP PUSH1 0x20 PUSH2 0x19CC DUP6 DUP3 DUP7 ADD PUSH2 0x18D7 JUMP JUMPDEST SWAP2 POP POP SWAP3 POP SWAP3 SWAP1 POP JUMP JUMPDEST PUSH0 DUP1 PUSH0 PUSH1 0x60 DUP5 DUP7 SUB SLT ISZERO PUSH2 0x19ED JUMPI PUSH2 0x19EC PUSH2 0x1753 JUMP JUMPDEST JUMPDEST PUSH0 PUSH2 0x19FA DUP7 DUP3 DUP8 ADD PUSH2 0x1984 JUMP JUMPDEST SWAP4 POP POP PUSH1 0x20 PUSH2 0x1A0B DUP7 DUP3 DUP8 ADD PUSH2 0x1984 JUMP JUMPDEST SWAP3 POP POP PUSH1 0x40 PUSH2 0x1A1C DUP7 DUP3 DUP8 ADD PUSH2 0x18D7 JUMP JUMPDEST SWAP2 POP POP SWAP3 POP SWAP3 POP SWAP3 JUMP JUMPDEST PUSH0 PUSH1 0x20 DUP3 DUP5 SUB SLT ISZERO PUSH2 0x1A3B JUMPI PUSH2 0x1A3A PUSH2 0x1753 JUMP JUMPDEST JUMPDEST PUSH0 PUSH2 0x1A48 DUP5 DUP3 DUP6 ADD PUSH2 0x1984 JUMP JUMPDEST SWAP2 POP POP SWAP3 SWAP2 POP POP JUMP JUMPDEST PUSH2 0x1A5A DUP2 PUSH2 0x18B8 JUMP JUMPDEST DUP3 MSTORE POP POP JUMP JUMPDEST PUSH0 PUSH1 0x20 DUP3 ADD SWAP1 POP PUSH2 0x1A73 PUSH0 DUP4 ADD DUP5 PUSH2 0x1A51 JUMP JUMPDEST SWAP3 SWAP2 POP POP JUMP JUMPDEST PUSH2 0x1A82 DUP2 PUSH2 0x17DB JUMP JUMPDEST DUP2 EQ PUSH2 0x1A8C JUMPI PUSH0 DUP1 REVERT JUMPDEST POP JUMP JUMPDEST PUSH0 DUP2 CALLDATALOAD SWAP1 POP PUSH2 0x1A9D DUP2 PUSH2 0x1A79 JUMP JUMPDEST SWAP3 SWAP2 POP POP JUMP JUMPDEST PUSH0 DUP1 PUSH1 0x40 DUP4 DUP6 SUB SLT ISZERO PUSH2 0x1AB9 JUMPI PUSH2 0x1AB8 PUSH2 0x1753 JUMP JUMPDEST JUMPDEST PUSH0 PUSH2 0x1AC6 DUP6 DUP3 DUP7 ADD PUSH2 0x1984 JUMP JUMPDEST SWAP3 POP POP PUSH1 0x20 PUSH2 0x1AD7 DUP6 DUP3 DUP7 ADD PUSH2 0x1A8F JUMP JUMPDEST SWAP2 POP POP SWAP3 POP SWAP3 SWAP1 POP JUMP JUMPDEST PUSH0 DUP1 REVERT JUMPDEST PUSH0 DUP1 REVERT JUMPDEST PUSH32 0x4E487B7100000000000000000000000000000000000000000000000000000000 PUSH0 MSTORE PUSH1 0x41 PUSH1 0x4 MSTORE PUSH1 0x24 PUSH0 REVERT JUMPDEST PUSH2 0x1B1F DUP3 PUSH2 0x1850 JUMP JUMPDEST DUP2 ADD DUP2 DUP2 LT PUSH8 0xFFFFFFFFFFFFFFFF DUP3 GT OR ISZERO PUSH2 0x1B3E JUMPI PUSH2 0x1B3D PUSH2 0x1AE9 JUMP JUMPDEST JUMPDEST DUP1 PUSH1 0x40 MSTORE POP POP POP JUMP JUMPDEST PUSH0 PUSH2 0x1B50 PUSH2 0x174A JUMP JUMPDEST SWAP1 POP PUSH2 0x1B5C DUP3 DUP3 PUSH2 0x1B16 JUMP JUMPDEST SWAP2 SWAP1 POP JUMP JUMPDEST PUSH0 PUSH8 0xFFFFFFFFFFFFFFFF DUP3 GT ISZERO PUSH2 0x1B7B JUMPI PUSH2 0x1B7A PUSH2 0x1AE9 JUMP JUMPDEST JUMPDEST PUSH2 0x1B84 DUP3 PUSH2 0x1850 JUMP JUMPDEST SWAP1 POP PUSH1 0x20 DUP2 ADD SWAP1 POP SWAP2 SWAP1 POP JUMP JUMPDEST DUP3 DUP2 DUP4 CALLDATACOPY PUSH0 DUP4 DUP4 ADD MSTORE POP POP POP JUMP JUMPDEST PUSH0 PUSH2 0x1BB1 PUSH2 0x1BAC DUP5 PUSH2 0x1B61 JUMP JUMPDEST PUSH2 0x1B47 JUMP JUMPDEST SWAP1 POP DUP3 DUP2 MSTORE PUSH1 0x20 DUP2 ADD DUP5 DUP5 DUP5 ADD GT ISZERO PUSH2 0x1BCD JUMPI PUSH2 0x1BCC PUSH2 0x1AE5 JUMP JUMPDEST JUMPDEST PUSH2 0x1BD8 DUP5 DUP3 DUP6 PUSH2 0x1B91 JUMP JUMPDEST POP SWAP4 SWAP3 POP POP POP JUMP JUMPDEST PUSH0 DUP3 PUSH1 0x1F DUP4 ADD SLT PUSH2 0x1BF4 JUMPI PUSH2 0x1BF3 PUSH2 0x1AE1 JUMP JUMPDEST JUMPDEST DUP2 CALLDATALOAD PUSH2 0x1C04 DUP5 DUP3 PUSH1 0x20 DUP7 ADD PUSH2 0x1B9F JUMP JUMPDEST SWAP2 POP POP SWAP3 SWAP2 POP POP JUMP JUMPDEST PUSH0 DUP1 PUSH1 0x40 DUP4 DUP6 SUB SLT ISZERO PUSH2 0x1C23 JUMPI PUSH2 0x1C22 PUSH2 0x1753 JUMP JUMPDEST JUMPDEST PUSH0 PUSH2 0x1C30 DUP6 DUP3 DUP7 ADD PUSH2 0x1984 JUMP JUMPDEST SWAP3 POP POP PUSH1 0x20 DUP4 ADD CALLDATALOAD PUSH8 0xFFFFFFFFFFFFFFFF DUP2 GT ISZERO PUSH2 0x1C51 JUMPI PUSH2 0x1C50 PUSH2 0x1757 JUMP JUMPDEST JUMPDEST PUSH2 0x1C5D DUP6 DUP3 DUP7 ADD PUSH2 0x1BE0 JUMP JUMPDEST SWAP2 POP POP SWAP3 POP SWAP3 SWAP1 POP JUMP JUMPDEST PUSH0 PUSH8 0xFFFFFFFFFFFFFFFF DUP3 GT ISZERO PUSH2 0x1C81 JUMPI PUSH2 0x1C80 PUSH2 0x1AE9 JUMP JUMPDEST JUMPDEST PUSH2 0x1C8A DUP3 PUSH2 0x1850 JUMP JUMPDEST SWAP1 POP PUSH1 0x20 DUP2 ADD SWAP1 POP SWAP2 SWAP1 POP JUMP JUMPDEST PUSH0 PUSH2 0x1CA9 PUSH2 0x1CA4 DUP5 PUSH2 0x1C67 JUMP JUMPDEST PUSH2 0x1B47 JUMP JUMPDEST SWAP1 POP DUP3 DUP2 MSTORE PUSH1 0x20 DUP2 ADD DUP5 DUP5 DUP5 ADD GT ISZERO PUSH2 0x1CC5 JUMPI PUSH2 0x1CC4 PUSH2 0x1AE5 JUMP JUMPDEST JUMPDEST PUSH2 0x1CD0 DUP5 DUP3 DUP6 PUSH2 0x1B91 JUMP JUMPDEST POP SWAP4 SWAP3 POP POP POP JUMP JUMPDEST PUSH0 DUP3 PUSH1 0x1F DUP4 ADD SLT PUSH2 0x1CEC JUMPI PUSH2 0x1CEB PUSH2 0x1AE1 JUMP JUMPDEST JUMPDEST DUP2 CALLDATALOAD PUSH2 0x1CFC DUP5 DUP3 PUSH1 0x20 DUP7 ADD PUSH2 0x1C97 JUMP JUMPDEST SWAP2 POP POP SWAP3 SWAP2 POP POP JUMP JUMPDEST PUSH0 DUP1 PUSH0 DUP1 PUSH1 0x80 DUP6 DUP8 SUB SLT ISZERO PUSH2 0x1D1D JUMPI PUSH2 0x1D1C PUSH2 0x1753 JUMP JUMPDEST JUMPDEST PUSH0 PUSH2 0x1D2A DUP8 DUP3 DUP9 ADD PUSH2 0x1984 JUMP JUMPDEST SWAP5 POP POP PUSH1 0x20 PUSH2 0x1D3B DUP8 DUP3 DUP9 ADD PUSH2 0x1984 JUMP JUMPDEST SWAP4 POP POP PUSH1 0x40 PUSH2 0x1D4C DUP8 DUP3 DUP9 ADD PUSH2 0x18D7 JUMP JUMPDEST SWAP3 POP POP PUSH1 0x60 DUP6 ADD CALLDATALOAD PUSH8 0xFFFFFFFFFFFFFFFF DUP2 GT ISZERO PUSH2 0x1D6D JUMPI PUSH2 0x1D6C PUSH2 0x1757 JUMP JUMPDEST JUMPDEST PUSH2 0x1D79 DUP8 DUP3 DUP9 ADD PUSH2 0x1CD8 JUMP JUMPDEST SWAP2 POP POP SWAP3 SWAP6 SWAP2 SWAP5 POP SWAP3 POP JUMP JUMPDEST PUSH0 DUP1 PUSH1 0x40 DUP4 DUP6 SUB SLT ISZERO PUSH2 0x1D9B JUMPI PUSH2 0x1D9A PUSH2 0x1753 JUMP JUMPDEST JUMPDEST PUSH0 PUSH2 0x1DA8 DUP6 DUP3 DUP7 ADD PUSH2 0x1984 JUMP JUMPDEST SWAP3 POP POP PUSH1 0x20 PUSH2 0x1DB9 DUP6 DUP3 DUP7 ADD PUSH2 0x1984 JUMP JUMPDEST SWAP2 POP POP SWAP3 POP SWAP3 SWAP1 POP JUMP JUMPDEST PUSH32 0x4E487B7100000000000000000000000000000000000000000000000000000000 PUSH0 MSTORE PUSH1 0x22 PUSH1 0x4 MSTORE PUSH1 0x24 PUSH0 REVERT JUMPDEST PUSH0 PUSH1 0x2 DUP3 DIV SWAP1 POP PUSH1 0x1 DUP3 AND DUP1 PUSH2 0x1E07 JUMPI PUSH1 0x7F DUP3 AND SWAP2 POP JUMPDEST PUSH1 0x20 DUP3 LT DUP2 SUB PUSH2 0x1E1A JUMPI PUSH2 0x1E19 PUSH2 0x1DC3 JUMP JUMPDEST JUMPDEST POP SWAP2 SWAP1 POP JUMP JUMPDEST PUSH0 PUSH1 0x60 DUP3 ADD SWAP1 POP PUSH2 0x1E33 PUSH0 DUP4 ADD DUP7 PUSH2 0x1946 JUMP JUMPDEST PUSH2 0x1E40 PUSH1 0x20 DUP4 ADD DUP6 PUSH2 0x1A51 JUMP JUMPDEST PUSH2 0x1E4D PUSH1 0x40 DUP4 ADD DUP5 PUSH2 0x1946 JUMP JUMPDEST SWAP5 SWAP4 POP POP POP POP JUMP JUMPDEST PUSH32 0x4E487B7100000000000000000000000000000000000000000000000000000000 PUSH0 MSTORE PUSH1 0x11 PUSH1 0x4 MSTORE PUSH1 0x24 PUSH0 REVERT JUMPDEST PUSH0 PUSH2 0x1E8C DUP3 PUSH2 0x18B8 JUMP JUMPDEST SWAP2 POP PUSH2 0x1E97 DUP4 PUSH2 0x18B8 JUMP JUMPDEST SWAP3 POP DUP3 DUP3 ADD SWAP1 POP DUP1 DUP3 GT ISZERO PUSH2 0x1EAF JUMPI PUSH2 0x1EAE PUSH2 0x1E55 JUMP JUMPDEST JUMPDEST SWAP3 SWAP2 POP POP JUMP JUMPDEST PUSH0 DUP2 SWAP1 POP SWAP3 SWAP2 POP POP JUMP JUMPDEST PUSH0 PUSH2 0x1EC9 DUP3 PUSH2 0x180E JUMP JUMPDEST PUSH2 0x1ED3 DUP2 DUP6 PUSH2 0x1EB5 JUMP JUMPDEST SWAP4 POP PUSH2 0x1EE3 DUP2 DUP6 PUSH1 0x20 DUP7 ADD PUSH2 0x1828 JUMP JUMPDEST DUP1 DUP5 ADD SWAP2 POP POP SWAP3 SWAP2 POP POP JUMP JUMPDEST PUSH0 PUSH2 0x1EFA DUP3 DUP6 PUSH2 0x1EBF JUMP JUMPDEST SWAP2 POP PUSH2 0x1F06 DUP3 DUP5 PUSH2 0x1EBF JUMP JUMPDEST SWAP2 POP DUP2 SWAP1 POP SWAP4 SWAP3 POP POP POP JUMP JUMPDEST PUSH0 DUP2 SWAP1 POP DUP2 PUSH0 MSTORE PUSH1 0x20 PUSH0 KECCAK256 SWAP1 POP SWAP2 SWAP1 POP JUMP JUMPDEST PUSH0 PUSH1 0x20 PUSH1 0x1F DUP4 ADD DIV SWAP1 POP SWAP2 SWAP1 POP JUMP JUMPDEST PUSH0 DUP3 DUP3 SHL SWAP1 POP SWAP3 SWAP2 POP POP JUMP JUMPDEST PUSH0 PUSH1 0x8 DUP4 MUL PUSH2 0x1F6E PUSH32 0xFFFFFFFFFFFFFFFFFFFFFFFFFFFFFFFFFFFFFFFFFFFFFFFFFFFFFFFFFFFFFFFF DUP3 PUSH2 0x1F33 JUMP JUMPDEST PUSH2 0x1F78 DUP7 DUP4 PUSH2 0x1F33 JUMP JUMPDEST SWAP6 POP DUP1 NOT DUP5 AND SWAP4 POP DUP1 DUP7 AND DUP5 OR SWAP3 POP POP POP SWAP4 SWAP3 POP POP POP JUMP JUMPDEST PUSH0 DUP2 SWAP1 POP SWAP2 SWAP1 POP JUMP JUMPDEST PUSH0 PUSH2 0x1FB3 PUSH2 0x1FAE PUSH2 0x1FA9 DUP5 PUSH2 0x18B8 JUMP JUMPDEST PUSH2 0x1F90 JUMP JUMPDEST PUSH2 0x18B8 JUMP JUMPDEST SWAP1 POP SWAP2 SWAP1 POP JUMP JUMPDEST PUSH0 DUP2 SWAP1 POP SWAP2 SWAP1 POP JUMP JUMPDEST PUSH2 0x1FCC DUP4 PUSH2 0x1F99 JUMP JUMPDEST PUSH2 0x1FE0 PUSH2 0x1FD8 DUP3 PUSH2 0x1FBA JUMP JUMPDEST DUP5 DUP5 SLOAD PUSH2 0x1F3F JUMP JUMPDEST DUP3 SSTORE POP POP POP POP JUMP JUMPDEST PUSH0 SWAP1 JUMP JUMPDEST PUSH2 0x1FF4 PUSH2 0x1FE8 JUMP JUMPDEST PUSH2 0x1FFF DUP2 DUP5 DUP5 PUSH2 0x1FC3 JUMP JUMPDEST POP POP POP JUMP JUMPDEST JUMPDEST DUP2 DUP2 LT ISZERO PUSH2 0x2022 JUMPI PUSH2 0x2017 PUSH0 DUP3 PUSH2 0x1FEC JUMP JUMPDEST PUSH1 0x1 DUP2 ADD SWAP1 POP PUSH2 0x2005 JUMP JUMPDEST POP POP JUMP JUMPDEST PUSH1 0x1F DUP3 GT ISZERO PUSH2 0x2067 JUMPI PUSH2 0x2038 DUP2 PUSH2 0x1F12 JUMP JUMPDEST PUSH2 0x2041 DUP5 PUSH2 0x1F24 JUMP JUMPDEST DUP2 ADD PUSH1 0x20 DUP6 LT ISZERO PUSH2 0x2050 JUMPI DUP2 SWAP1 POP JUMPDEST PUSH2 0x2064 PUSH2 0x205C DUP6 PUSH2 0x1F24 JUMP JUMPDEST DUP4 ADD DUP3 PUSH2 0x2004 JUMP JUMPDEST POP POP JUMPDEST POP POP POP JUMP JUMPDEST PUSH0 DUP3 DUP3 SHR SWAP1 POP SWAP3 SWAP2 POP POP JUMP JUMPDEST PUSH0 PUSH2 0x2087 PUSH0 NOT DUP5 PUSH1 0x8 MUL PUSH2 0x206C JUMP JUMPDEST NOT DUP1 DUP4 AND SWAP2 POP POP SWAP3 SWAP2 POP POP JUMP JUMPDEST PUSH0 PUSH2 0x209F DUP4 DUP4 PUSH2 0x2078 JUMP JUMPDEST SWAP2 POP DUP3 PUSH1 0x2 MUL DUP3 OR SWAP1 POP SWAP3 SWAP2 POP POP JUMP JUMPDEST PUSH2 0x20B8 DUP3 PUSH2 0x180E JUMP JUMPDEST PUSH8 0xFFFFFFFFFFFFFFFF DUP2 GT ISZERO PUSH2 0x20D1 JUMPI PUSH2 0x20D0 PUSH2 0x1AE9 JUMP JUMPDEST JUMPDEST PUSH2 0x20DB DUP3 SLOAD PUSH2 0x1DF0 JUMP JUMPDEST PUSH2 0x20E6 DUP3 DUP3 DUP6 PUSH2 0x2026 JUMP JUMPDEST PUSH0 PUSH1 0x20 SWAP1 POP PUSH1 0x1F DUP4 GT PUSH1 0x1 DUP2 EQ PUSH2 0x2117 JUMPI PUSH0 DUP5 ISZERO PUSH2 0x2105 JUMPI DUP3 DUP8 ADD MLOAD SWAP1 POP JUMPDEST PUSH2 0x210F DUP6 DUP3 PUSH2 0x2094 JUMP JUMPDEST DUP7 SSTORE POP PUSH2 0x2176 JUMP JUMPDEST PUSH1 0x1F NOT DUP5 AND PUSH2 0x2125 DUP7 PUSH2 0x1F12 JUMP JUMPDEST PUSH0 JUMPDEST DUP3 DUP2 LT ISZERO PUSH2 0x214C JUMPI DUP5 DUP10 ADD MLOAD DUP3 SSTORE PUSH1 0x1 DUP3 ADD SWAP2 POP PUSH1 0x20 DUP6 ADD SWAP5 POP PUSH1 0x20 DUP2 ADD SWAP1 POP PUSH2 0x2127 JUMP JUMPDEST DUP7 DUP4 LT ISZERO PUSH2 0x2169 JUMPI DUP5 DUP10 ADD MLOAD PUSH2 0x2165 PUSH1 0x1F DUP10 AND DUP3 PUSH2 0x2078 JUMP JUMPDEST DUP4 SSTORE POP JUMPDEST PUSH1 0x1 PUSH1 0x2 DUP9 MUL ADD DUP9 SSTORE POP POP POP JUMPDEST POP POP POP POP POP POP JUMP JUMPDEST PUSH0 DUP2 MLOAD SWAP1 POP SWAP2 SWAP1 POP JUMP JUMPDEST PUSH0 DUP3 DUP3 MSTORE PUSH1 0x20 DUP3 ADD SWAP1 POP SWAP3 SWAP2 POP POP JUMP JUMPDEST PUSH0 PUSH2 0x21A2 DUP3 PUSH2 0x217E JUMP JUMPDEST PUSH2 0x21AC DUP2 DUP6 PUSH2 0x2188 JUMP JUMPDEST SWAP4 POP PUSH2 0x21BC DUP2 DUP6 PUSH1 0x20 DUP7 ADD PUSH2 0x1828 JUMP JUMPDEST PUSH2 0x21C5 DUP2 PUSH2 0x1850 JUMP JUMPDEST DUP5 ADD SWAP2 POP POP SWAP3 SWAP2 POP POP JUMP JUMPDEST PUSH0 PUSH1 0x80 DUP3 ADD SWAP1 POP PUSH2 0x21E3 PUSH0 DUP4 ADD DUP8 PUSH2 0x1946 JUMP JUMPDEST PUSH2 0x21F0 PUSH1 0x20 DUP4 ADD DUP7 PUSH2 0x1946 JUMP JUMPDEST PUSH2 0x21FD PUSH1 0x40 DUP4 ADD DUP6 PUSH2 0x1A51 JUMP JUMPDEST DUP2 DUP2 SUB PUSH1 0x60 DUP4 ADD MSTORE PUSH2 0x220F DUP2 DUP5 PUSH2 0x2198 JUMP JUMPDEST SWAP1 POP SWAP6 SWAP5 POP POP POP POP POP JUMP JUMPDEST PUSH0 DUP2 MLOAD SWAP1 POP PUSH2 0x2228 DUP2 PUSH2 0x1786 JUMP JUMPDEST SWAP3 SWAP2 POP POP JUMP JUMPDEST PUSH0 PUSH1 0x20 DUP3 DUP5 SUB SLT ISZERO PUSH2 0x2243 JUMPI PUSH2 0x2242 PUSH2 0x1753 JUMP JUMPDEST JUMPDEST PUSH0 PUSH2 0x2250 DUP5 DUP3 DUP6 ADD PUSH2 0x221A JUMP JUMPDEST SWAP2 POP POP SWAP3 SWAP2 POP POP JUMP JUMPDEST PUSH0 PUSH1 0x40 DUP3 ADD SWAP1 POP PUSH2 0x226C PUSH0 DUP4 ADD DUP6 PUSH2 0x1946 JUMP JUMPDEST PUSH2 0x2279 PUSH1 0x20 DUP4 ADD DUP5 PUSH2 0x1A51 JUMP JUMPDEST SWAP4 SWAP3 POP POP POP JUMP JUMPDEST PUSH32 0x4E487B7100000000000000000000000000000000000000000000000000000000 PUSH0 MSTORE PUSH1 0x12 PUSH1 0x4 MSTORE PUSH1 0x24 PUSH0 REVERT INVALID LOG2 PUSH5 0x6970667358 0x22 SLT KECCAK256 ADDRESS PUSH32 0xE7179B2D290672A653BCE1167C8953B6EDC496BFCCF1ED834B3CCF58526E6473 PUSH16 0x6C634300081800330000000000000000 "
				},
				"gasEstimates": {
					"creation": {
						"codeDepositCost": "1786200",
						"executionCost": "infinite",
						"totalCost": "infinite"
					},
					"external": {
						"approve(address,uint256)": "infinite",
						"balanceOf(address)": "infinite",
						"getApproved(uint256)": "infinite",
						"isApprovedForAll(address,address)": "infinite",
						"name()": "infinite",
						"ownerOf(uint256)": "infinite",
						"registerAsset(address,string)": "infinite",
						"safeTransferFrom(address,address,uint256)": "infinite",
						"safeTransferFrom(address,address,uint256,bytes)": "infinite",
						"setApprovalForAll(address,bool)": "infinite",
						"supportsInterface(bytes4)": "881",
						"symbol()": "infinite",
						"tokenURI(uint256)": "infinite",
						"transferFrom(address,address,uint256)": "infinite"
					}
				},
				"methodIdentifiers": {
					"approve(address,uint256)": "095ea7b3",
					"balanceOf(address)": "70a08231",
					"getApproved(uint256)": "081812fc",
					"isApprovedForAll(address,address)": "e985e9c5",
					"name()": "06fdde03",
					"ownerOf(uint256)": "6352211e",
					"registerAsset(address,string)": "b4a5a983",
					"safeTransferFrom(address,address,uint256)": "42842e0e",
					"safeTransferFrom(address,address,uint256,bytes)": "b88d4fde",
					"setApprovalForAll(address,bool)": "a22cb465",
					"supportsInterface(bytes4)": "01ffc9a7",
					"symbol()": "95d89b41",
					"tokenURI(uint256)": "c87b56dd",
					"transferFrom(address,address,uint256)": "23b872dd"
				}
			},
			"storageLayout": {
				"storage": [
					{
						"astId": 201,
						"contract": "contracts/RegisterationContract.sol:EnergyAsset",
						"label": "_name",
						"offset": 0,
						"slot": "0",
						"type": "t_string_storage"
					},
					{
						"astId": 203,
						"contract": "contracts/RegisterationContract.sol:EnergyAsset",
						"label": "_symbol",
						"offset": 0,
						"slot": "1",
						"type": "t_string_storage"
					},
					{
						"astId": 207,
						"contract": "contracts/RegisterationContract.sol:EnergyAsset",
						"label": "_owners",
						"offset": 0,
						"slot": "2",
						"type": "t_mapping(t_uint256,t_address)"
					},
					{
						"astId": 211,
						"contract": "contracts/RegisterationContract.sol:EnergyAsset",
						"label": "_balances",
						"offset": 0,
						"slot": "3",
						"type": "t_mapping(t_address,t_uint256)"
					},
					{
						"astId": 215,
						"contract": "contracts/RegisterationContract.sol:EnergyAsset",
						"label": "_tokenApprovals",
						"offset": 0,
						"slot": "4",
						"type": "t_mapping(t_uint256,t_address)"
					},
					{
						"astId": 221,
						"contract": "contracts/RegisterationContract.sol:EnergyAsset",
						"label": "_operatorApprovals",
						"offset": 0,
						"slot": "5",
						"type": "t_mapping(t_address,t_mapping(t_address,t_bool))"
					},
					{
						"astId": 1340,
						"contract": "contracts/RegisterationContract.sol:EnergyAsset",
						"label": "_tokenURIs",
						"offset": 0,
						"slot": "6",
						"type": "t_mapping(t_uint256,t_string_storage)"
					},
					{
						"astId": 2955,
						"contract": "contracts/RegisterationContract.sol:EnergyAsset",
						"label": "_currentTokenId",
						"offset": 0,
						"slot": "7",
						"type": "t_uint256"
					}
				],
				"types": {
					"t_address": {
						"encoding": "inplace",
						"label": "address",
						"numberOfBytes": "20"
					},
					"t_bool": {
						"encoding": "inplace",
						"label": "bool",
						"numberOfBytes": "1"
					},
					"t_mapping(t_address,t_bool)": {
						"encoding": "mapping",
						"key": "t_address",
						"label": "mapping(address => bool)",
						"numberOfBytes": "32",
						"value": "t_bool"
					},
					"t_mapping(t_address,t_mapping(t_address,t_bool))": {
						"encoding": "mapping",
						"key": "t_address",
						"label": "mapping(address => mapping(address => bool))",
						"numberOfBytes": "32",
						"value": "t_mapping(t_address,t_bool)"
					},
					"t_mapping(t_address,t_uint256)": {
						"encoding": "mapping",
						"key": "t_address",
						"label": "mapping(address => uint256)",
						"numberOfBytes": "32",
						"value": "t_uint256"
					},
					"t_mapping(t_uint256,t_address)": {
						"encoding": "mapping",
						"key": "t_uint256",
						"label": "mapping(uint256 => address)",
						"numberOfBytes": "32",
						"value": "t_address"
					},
					"t_mapping(t_uint256,t_string_storage)": {
						"encoding": "mapping",
						"key": "t_uint256",
						"label": "mapping(uint256 => string)",
						"numberOfBytes": "32",
						"value": "t_string_storage"
					},
					"t_string_storage": {
						"encoding": "bytes",
						"label": "string",
						"numberOfBytes": "32"
					},
					"t_uint256": {
						"encoding": "inplace",
						"label": "uint256",
						"numberOfBytes": "32"
					}
				}
			},
			"userdoc": {
				"kind": "user",
				"methods": {},
				"version": 1
			}
		}
	}
}