{
	"contracts/Main.sol": {
		"Main": {
			"abi": [
				{
					"inputs": [],
					"stateMutability": "nonpayable",
					"type": "constructor"
				},
				{
					"anonymous": false,
					"inputs": [
						{
							"indexed": true,
							"internalType": "address",
							"name": "userAddress",
							"type": "address"
						}
					],
					"name": "UserDeleted",
					"type": "event"
				},
				{
					"anonymous": false,
					"inputs": [
						{
							"indexed": true,
							"internalType": "address",
							"name": "userAddress",
							"type": "address"
						},
						{
							"indexed": false,
							"internalType": "string",
							"name": "username",
							"type": "string"
						},
						{
							"indexed": false,
							"internalType": "int256",
							"name": "latitude",
							"type": "int256"
						},
						{
							"indexed": false,
							"internalType": "int256",
							"name": "longitude",
							"type": "int256"
						},
						{
							"indexed": false,
							"internalType": "uint256",
							"name": "energyBalance",
							"type": "uint256"
						},
						{
							"indexed": false,
							"internalType": "uint256",
							"name": "tokensBalance",
							"type": "uint256"
						}
					],
					"name": "UserRegistered",
					"type": "event"
				},
				{
					"anonymous": false,
					"inputs": [
						{
							"indexed": true,
							"internalType": "address",
							"name": "userAddress",
							"type": "address"
						},
						{
							"indexed": false,
							"internalType": "string",
							"name": "username",
							"type": "string"
						},
						{
							"indexed": false,
							"internalType": "int256",
							"name": "latitude",
							"type": "int256"
						},
						{
							"indexed": false,
							"internalType": "int256",
							"name": "longitude",
							"type": "int256"
						},
						{
							"indexed": false,
							"internalType": "uint256",
							"name": "energyBalance",
							"type": "uint256"
						},
						{
							"indexed": false,
							"internalType": "uint256",
							"name": "tokensBalance",
							"type": "uint256"
						}
					],
					"name": "UserUpdated",
					"type": "event"
				},
				{
					"inputs": [],
					"name": "admin",
					"outputs": [
						{
							"internalType": "address",
							"name": "",
							"type": "address"
						}
					],
					"stateMutability": "view",
					"type": "function"
				},
				{
					"inputs": [
						{
							"internalType": "address",
							"name": "_userAddress",
							"type": "address"
						}
					],
					"name": "deleteUser",
					"outputs": [],
					"stateMutability": "nonpayable",
					"type": "function"
				},
				{
					"inputs": [],
					"name": "getAllUsersInfo",
					"outputs": [
						{
							"components": [
								{
									"internalType": "string",
									"name": "username",
									"type": "string"
								},
								{
									"internalType": "int256",
									"name": "latitude",
									"type": "int256"
								},
								{
									"internalType": "int256",
									"name": "longitude",
									"type": "int256"
								},
								{
									"internalType": "uint256",
									"name": "energyBalance",
									"type": "uint256"
								},
								{
									"internalType": "uint256",
									"name": "tokensBalance",
									"type": "uint256"
								},
								{
									"internalType": "bool",
									"name": "isRegistered",
									"type": "bool"
								}
							],
							"internalType": "struct Main.UserInfo[]",
							"name": "",
							"type": "tuple[]"
						}
					],
					"stateMutability": "view",
					"type": "function"
				},
				{
					"inputs": [],
					"name": "getUserAddresses",
					"outputs": [
						{
							"internalType": "address[]",
							"name": "",
							"type": "address[]"
						}
					],
					"stateMutability": "view",
					"type": "function"
				},
				{
					"inputs": [
						{
							"internalType": "address",
							"name": "_userAddress",
							"type": "address"
						}
					],
					"name": "getUserInfo",
					"outputs": [
						{
							"components": [
								{
									"internalType": "string",
									"name": "username",
									"type": "string"
								},
								{
									"internalType": "int256",
									"name": "latitude",
									"type": "int256"
								},
								{
									"internalType": "int256",
									"name": "longitude",
									"type": "int256"
								},
								{
									"internalType": "uint256",
									"name": "energyBalance",
									"type": "uint256"
								},
								{
									"internalType": "uint256",
									"name": "tokensBalance",
									"type": "uint256"
								},
								{
									"internalType": "bool",
									"name": "isRegistered",
									"type": "bool"
								}
							],
							"internalType": "struct Main.UserInfo",
							"name": "userInfo",
							"type": "tuple"
						}
					],
					"stateMutability": "view",
					"type": "function"
				},
				{
					"inputs": [
						{
							"internalType": "address",
							"name": "_userAddress",
							"type": "address"
						}
					],
					"name": "isUserRegistered",
					"outputs": [
						{
							"internalType": "bool",
							"name": "",
							"type": "bool"
						}
					],
					"stateMutability": "view",
					"type": "function"
				},
				{
					"inputs": [
						{
							"internalType": "string",
							"name": "_username",
							"type": "string"
						},
						{
							"internalType": "int256",
							"name": "_latitude",
							"type": "int256"
						},
						{
							"internalType": "int256",
							"name": "_longitude",
							"type": "int256"
						},
						{
							"internalType": "uint256",
							"name": "_energyBalance",
							"type": "uint256"
						},
						{
							"internalType": "uint256",
							"name": "_tokensBalance",
							"type": "uint256"
						}
					],
					"name": "registerUser",
					"outputs": [],
					"stateMutability": "nonpayable",
					"type": "function"
				},
				{
					"inputs": [
						{
							"internalType": "string",
							"name": "_username",
							"type": "string"
						},
						{
							"internalType": "int256",
							"name": "_latitude",
							"type": "int256"
						},
						{
							"internalType": "int256",
							"name": "_longitude",
							"type": "int256"
						},
						{
							"internalType": "uint256",
							"name": "_energyBalance",
							"type": "uint256"
						},
						{
							"internalType": "uint256",
							"name": "_tokensBalance",
							"type": "uint256"
						}
					],
					"name": "updateUser",
					"outputs": [],
					"stateMutability": "nonpayable",
					"type": "function"
				},
				{
					"inputs": [
						{
							"internalType": "address",
							"name": "",
							"type": "address"
						}
					],
					"name": "users",
					"outputs": [
						{
							"internalType": "string",
							"name": "username",
							"type": "string"
						},
						{
							"internalType": "int256",
							"name": "latitude",
							"type": "int256"
						},
						{
							"internalType": "int256",
							"name": "longitude",
							"type": "int256"
						},
						{
							"internalType": "uint256",
							"name": "energyBalance",
							"type": "uint256"
						},
						{
							"internalType": "uint256",
							"name": "tokensBalance",
							"type": "uint256"
						},
						{
							"internalType": "bool",
							"name": "isRegistered",
							"type": "bool"
						}
					],
					"stateMutability": "view",
					"type": "function"
				}
			],
			"devdoc": {
				"kind": "dev",
				"methods": {},
				"version": 1
			},
			"evm": {
				"assembly": "    /* \"contracts/Main.sol\":61:3914  contract Main {... */\n  mstore(0x40, 0x80)\n    /* \"contracts/Main.sol\":812:907  constructor() {... */\n  callvalue\n  dup1\n  iszero\n  tag_1\n  jumpi\n  0x00\n  dup1\n  revert\ntag_1:\n  pop\n    /* \"contracts/Main.sol\":845:855  msg.sender */\n  caller\n    /* \"contracts/Main.sol\":837:842  admin */\n  0x02\n  0x00\n    /* \"contracts/Main.sol\":837:855  admin = msg.sender */\n  0x0100\n  exp\n  dup2\n  sload\n  dup2\n  0xffffffffffffffffffffffffffffffffffffffff\n  mul\n  not\n  and\n  swap1\n  dup4\n  0xffffffffffffffffffffffffffffffffffffffff\n  and\n  mul\n  or\n  swap1\n  sstore\n  pop\n    /* \"contracts/Main.sol\":61:3914  contract Main {... */\n  dataSize(sub_0)\n  dup1\n  dataOffset(sub_0)\n  0x00\n  codecopy\n  0x00\n  return\nstop\n\nsub_0: assembly {\n        /* \"contracts/Main.sol\":61:3914  contract Main {... */\n      mstore(0x40, 0x80)\n      callvalue\n      dup1\n      iszero\n      tag_1\n      jumpi\n      0x00\n      dup1\n      revert\n    tag_1:\n      pop\n      jumpi(tag_2, lt(calldatasize, 0x04))\n      shr(0xe0, calldataload(0x00))\n      dup1\n      0x6386c1c7\n      gt\n      tag_12\n      jumpi\n      dup1\n      0x6386c1c7\n      eq\n      tag_7\n      jumpi\n      dup1\n      0xa591efde\n      eq\n      tag_8\n      jumpi\n      dup1\n      0xa87430ba\n      eq\n      tag_9\n      jumpi\n      dup1\n      0xc3bcf192\n      eq\n      tag_10\n      jumpi\n      dup1\n      0xf851a440\n      eq\n      tag_11\n      jumpi\n      jump(tag_2)\n    tag_12:\n      dup1\n      0x163f7522\n      eq\n      tag_3\n      jumpi\n      dup1\n      0x210c9154\n      eq\n      tag_4\n      jumpi\n      dup1\n      0x2fc00ba1\n      eq\n      tag_5\n      jumpi\n      dup1\n      0x5c60f226\n      eq\n      tag_6\n      jumpi\n    tag_2:\n      0x00\n      dup1\n      revert\n        /* \"contracts/Main.sol\":3579:3712  function isUserRegistered(address _userAddress) public view returns (bool) {... */\n    tag_3:\n      tag_13\n      0x04\n      dup1\n      calldatasize\n      sub\n      dup2\n      add\n      swap1\n      tag_14\n      swap2\n      swap1\n      tag_15\n      jump\t// in\n    tag_14:\n      tag_16\n      jump\t// in\n    tag_13:\n      mload(0x40)\n      tag_17\n      swap2\n      swap1\n      tag_18\n      jump\t// in\n    tag_17:\n      mload(0x40)\n      dup1\n      swap2\n      sub\n      swap1\n      return\n        /* \"contracts/Main.sol\":1164:1786  function registerUser(string memory _username, int256 _latitude, int256 _longitude, uint256 _energyBalance, uint256 _tokensBalance) public notRegistered {... */\n    tag_4:\n      tag_19\n      0x04\n      dup1\n      calldatasize\n      sub\n      dup2\n      add\n      swap1\n      tag_20\n      swap2\n      swap1\n      tag_21\n      jump\t// in\n    tag_20:\n      tag_22\n      jump\t// in\n    tag_19:\n      stop\n        /* \"contracts/Main.sol\":1794:2379  function updateUser(string memory _username, int256 _latitude, int256 _longitude, uint256 _energyBalance, uint256 _tokensBalance) public {... */\n    tag_5:\n      tag_23\n      0x04\n      dup1\n      calldatasize\n      sub\n      dup2\n      add\n      swap1\n      tag_24\n      swap2\n      swap1\n      tag_21\n      jump\t// in\n    tag_24:\n      tag_25\n      jump\t// in\n    tag_23:\n      stop\n        /* \"contracts/Main.sol\":2387:2944  function deleteUser(address _userAddress) public onlyAdmin {... */\n    tag_6:\n      tag_26\n      0x04\n      dup1\n      calldatasize\n      sub\n      dup2\n      add\n      swap1\n      tag_27\n      swap2\n      swap1\n      tag_15\n      jump\t// in\n    tag_27:\n      tag_28\n      jump\t// in\n    tag_26:\n      stop\n        /* \"contracts/Main.sol\":2952:3166  function getUserInfo(address _userAddress) public view returns (UserInfo memory userInfo) {... */\n    tag_7:\n      tag_29\n      0x04\n      dup1\n      calldatasize\n      sub\n      dup2\n      add\n      swap1\n      tag_30\n      swap2\n      swap1\n      tag_15\n      jump\t// in\n    tag_30:\n      tag_31\n      jump\t// in\n    tag_29:\n      mload(0x40)\n      tag_32\n      swap2\n      swap1\n      tag_33\n      jump\t// in\n    tag_32:\n      mload(0x40)\n      dup1\n      swap2\n      sub\n      swap1\n      return\n        /* \"contracts/Main.sol\":3805:3911  function getUserAddresses() public view returns (address[] memory) {... */\n    tag_8:\n      tag_34\n      tag_35\n      jump\t// in\n    tag_34:\n      mload(0x40)\n      tag_36\n      swap2\n      swap1\n      tag_37\n      jump\t// in\n    tag_36:\n      mload(0x40)\n      dup1\n      swap2\n      sub\n      swap1\n      return\n        /* \"contracts/Main.sol\":326:367  mapping(address => UserInfo) public users */\n    tag_9:\n      tag_38\n      0x04\n      dup1\n      calldatasize\n      sub\n      dup2\n      add\n      swap1\n      tag_39\n      swap2\n      swap1\n      tag_15\n      jump\t// in\n    tag_39:\n      tag_40\n      jump\t// in\n    tag_38:\n      mload(0x40)\n      tag_41\n      swap7\n      swap6\n      swap5\n      swap4\n      swap3\n      swap2\n      swap1\n      tag_42\n      jump\t// in\n    tag_41:\n      mload(0x40)\n      dup1\n      swap2\n      sub\n      swap1\n      return\n        /* \"contracts/Main.sol\":3176:3508  function getAllUsersInfo() public view returns (UserInfo[] memory) {... */\n    tag_10:\n      tag_43\n      tag_44\n      jump\t// in\n    tag_43:\n      mload(0x40)\n      tag_45\n      swap2\n      swap1\n      tag_46\n      jump\t// in\n    tag_45:\n      mload(0x40)\n      dup1\n      swap2\n      sub\n      swap1\n      return\n        /* \"contracts/Main.sol\":423:443  address public admin */\n    tag_11:\n      tag_47\n      tag_48\n      jump\t// in\n    tag_47:\n      mload(0x40)\n      tag_49\n      swap2\n      swap1\n      tag_50\n      jump\t// in\n    tag_49:\n      mload(0x40)\n      dup1\n      swap2\n      sub\n      swap1\n      return\n        /* \"contracts/Main.sol\":3579:3712  function isUserRegistered(address _userAddress) public view returns (bool) {... */\n    tag_16:\n        /* \"contracts/Main.sol\":3648:3652  bool */\n      0x00\n        /* \"contracts/Main.sol\":3672:3677  users */\n      0x01\n        /* \"contracts/Main.sol\":3672:3691  users[_userAddress] */\n      0x00\n        /* \"contracts/Main.sol\":3678:3690  _userAddress */\n      dup4\n        /* \"contracts/Main.sol\":3672:3691  users[_userAddress] */\n      0xffffffffffffffffffffffffffffffffffffffff\n      and\n      0xffffffffffffffffffffffffffffffffffffffff\n      and\n      dup2\n      mstore\n      0x20\n      add\n      swap1\n      dup2\n      mstore\n      0x20\n      add\n      0x00\n      keccak256\n        /* \"contracts/Main.sol\":3672:3704  users[_userAddress].isRegistered */\n      0x05\n      add\n      0x00\n      swap1\n      sload\n      swap1\n      0x0100\n      exp\n      swap1\n      div\n      0xff\n      and\n        /* \"contracts/Main.sol\":3665:3704  return users[_userAddress].isRegistered */\n      swap1\n      pop\n        /* \"contracts/Main.sol\":3579:3712  function isUserRegistered(address _userAddress) public view returns (bool) {... */\n      swap2\n      swap1\n      pop\n      jump\t// out\n        /* \"contracts/Main.sol\":1164:1786  function registerUser(string memory _username, int256 _latitude, int256 _longitude, uint256 _energyBalance, uint256 _tokensBalance) public notRegistered {... */\n    tag_22:\n        /* \"contracts/Main.sol\":1077:1082  users */\n      0x01\n        /* \"contracts/Main.sol\":1077:1094  users[msg.sender] */\n      0x00\n        /* \"contracts/Main.sol\":1083:1093  msg.sender */\n      caller\n        /* \"contracts/Main.sol\":1077:1094  users[msg.sender] */\n      0xffffffffffffffffffffffffffffffffffffffff\n      and\n      0xffffffffffffffffffffffffffffffffffffffff\n      and\n      dup2\n      mstore\n      0x20\n      add\n      swap1\n      dup2\n      mstore\n      0x20\n      add\n      0x00\n      keccak256\n        /* \"contracts/Main.sol\":1077:1107  users[msg.sender].isRegistered */\n      0x05\n      add\n      0x00\n      swap1\n      sload\n      swap1\n      0x0100\n      exp\n      swap1\n      div\n      0xff\n      and\n        /* \"contracts/Main.sol\":1076:1107  !users[msg.sender].isRegistered */\n      iszero\n        /* \"contracts/Main.sol\":1068:1136  require(!users[msg.sender].isRegistered, \"User already registered.\") */\n      tag_53\n      jumpi\n      mload(0x40)\n      0x08c379a000000000000000000000000000000000000000000000000000000000\n      dup2\n      mstore\n      0x04\n      add\n      tag_54\n      swap1\n      tag_55\n      jump\t// in\n    tag_54:\n      mload(0x40)\n      dup1\n      swap2\n      sub\n      swap1\n      revert\n    tag_53:\n        /* \"contracts/Main.sol\":1328:1352  UserInfo storage newUser */\n      0x00\n        /* \"contracts/Main.sol\":1355:1360  users */\n      0x01\n        /* \"contracts/Main.sol\":1355:1372  users[msg.sender] */\n      0x00\n        /* \"contracts/Main.sol\":1361:1371  msg.sender */\n      caller\n        /* \"contracts/Main.sol\":1355:1372  users[msg.sender] */\n      0xffffffffffffffffffffffffffffffffffffffff\n      and\n      0xffffffffffffffffffffffffffffffffffffffff\n      and\n      dup2\n      mstore\n      0x20\n      add\n      swap1\n      dup2\n      mstore\n      0x20\n      add\n      0x00\n      keccak256\n        /* \"contracts/Main.sol\":1328:1372  UserInfo storage newUser = users[msg.sender] */\n      swap1\n      pop\n        /* \"contracts/Main.sol\":1402:1411  _username */\n      dup6\n        /* \"contracts/Main.sol\":1383:1390  newUser */\n      dup2\n        /* \"contracts/Main.sol\":1383:1399  newUser.username */\n      0x00\n      add\n        /* \"contracts/Main.sol\":1383:1411  newUser.username = _username */\n      swap1\n      dup2\n      tag_57\n      swap2\n      swap1\n      tag_58\n      jump\t// in\n    tag_57:\n      pop\n        /* \"contracts/Main.sol\":1441:1450  _latitude */\n      dup5\n        /* \"contracts/Main.sol\":1422:1429  newUser */\n      dup2\n        /* \"contracts/Main.sol\":1422:1438  newUser.latitude */\n      0x01\n      add\n        /* \"contracts/Main.sol\":1422:1450  newUser.latitude = _latitude */\n      dup2\n      swap1\n      sstore\n      pop\n        /* \"contracts/Main.sol\":1481:1491  _longitude */\n      dup4\n        /* \"contracts/Main.sol\":1461:1468  newUser */\n      dup2\n        /* \"contracts/Main.sol\":1461:1478  newUser.longitude */\n      0x02\n      add\n        /* \"contracts/Main.sol\":1461:1491  newUser.longitude = _longitude */\n      dup2\n      swap1\n      sstore\n      pop\n        /* \"contracts/Main.sol\":1526:1540  _energyBalance */\n      dup3\n        /* \"contracts/Main.sol\":1502:1509  newUser */\n      dup2\n        /* \"contracts/Main.sol\":1502:1523  newUser.energyBalance */\n      0x03\n      add\n        /* \"contracts/Main.sol\":1502:1540  newUser.energyBalance = _energyBalance */\n      dup2\n      swap1\n      sstore\n      pop\n        /* \"contracts/Main.sol\":1575:1589  _tokensBalance */\n      dup2\n        /* \"contracts/Main.sol\":1551:1558  newUser */\n      dup2\n        /* \"contracts/Main.sol\":1551:1572  newUser.tokensBalance */\n      0x04\n      add\n        /* \"contracts/Main.sol\":1551:1589  newUser.tokensBalance = _tokensBalance */\n      dup2\n      swap1\n      sstore\n      pop\n        /* \"contracts/Main.sol\":1623:1627  true */\n      0x01\n        /* \"contracts/Main.sol\":1600:1607  newUser */\n      dup2\n        /* \"contracts/Main.sol\":1600:1620  newUser.isRegistered */\n      0x05\n      add\n      0x00\n        /* \"contracts/Main.sol\":1600:1627  newUser.isRegistered = true */\n      0x0100\n      exp\n      dup2\n      sload\n      dup2\n      0xff\n      mul\n      not\n      and\n      swap1\n      dup4\n      iszero\n      iszero\n      mul\n      or\n      swap1\n      sstore\n      pop\n        /* \"contracts/Main.sol\":1640:1653  userAddresses */\n      0x00\n        /* \"contracts/Main.sol\":1659:1669  msg.sender */\n      caller\n        /* \"contracts/Main.sol\":1640:1670  userAddresses.push(msg.sender) */\n      swap1\n      dup1\n      0x01\n      dup2\n      sload\n      add\n      dup1\n      dup3\n      sstore\n      dup1\n      swap2\n      pop\n      pop\n      0x01\n      swap1\n      sub\n      swap1\n      0x00\n      mstore\n      keccak256(0x00, 0x20)\n      add\n      0x00\n      swap1\n      swap2\n      swap1\n      swap2\n      swap1\n      swap2\n      0x0100\n      exp\n      dup2\n      sload\n      dup2\n      0xffffffffffffffffffffffffffffffffffffffff\n      mul\n      not\n      and\n      swap1\n      dup4\n      0xffffffffffffffffffffffffffffffffffffffff\n      and\n      mul\n      or\n      swap1\n      sstore\n      pop\n        /* \"contracts/Main.sol\":1701:1711  msg.sender */\n      caller\n        /* \"contracts/Main.sol\":1686:1778  UserRegistered(msg.sender, _username, _latitude, _longitude, _energyBalance, _tokensBalance) */\n      0xffffffffffffffffffffffffffffffffffffffff\n      and\n      0xa96c6e1d7341a1c22b8e45bf7b44369c06e82e7c6be9b784c233b125ec57d965\n        /* \"contracts/Main.sol\":1713:1722  _username */\n      dup8\n        /* \"contracts/Main.sol\":1724:1733  _latitude */\n      dup8\n        /* \"contracts/Main.sol\":1735:1745  _longitude */\n      dup8\n        /* \"contracts/Main.sol\":1747:1761  _energyBalance */\n      dup8\n        /* \"contracts/Main.sol\":1763:1777  _tokensBalance */\n      dup8\n        /* \"contracts/Main.sol\":1686:1778  UserRegistered(msg.sender, _username, _latitude, _longitude, _energyBalance, _tokensBalance) */\n      mload(0x40)\n      tag_60\n      swap6\n      swap5\n      swap4\n      swap3\n      swap2\n      swap1\n      tag_61\n      jump\t// in\n    tag_60:\n      mload(0x40)\n      dup1\n      swap2\n      sub\n      swap1\n      log2\n        /* \"contracts/Main.sol\":1317:1786  {... */\n      pop\n        /* \"contracts/Main.sol\":1164:1786  function registerUser(string memory _username, int256 _latitude, int256 _longitude, uint256 _energyBalance, uint256 _tokensBalance) public notRegistered {... */\n      pop\n      pop\n      pop\n      pop\n      pop\n      jump\t// out\n        /* \"contracts/Main.sol\":1794:2379  function updateUser(string memory _username, int256 _latitude, int256 _longitude, uint256 _energyBalance, uint256 _tokensBalance) public {... */\n    tag_25:\n        /* \"contracts/Main.sol\":1950:1955  users */\n      0x01\n        /* \"contracts/Main.sol\":1950:1967  users[msg.sender] */\n      0x00\n        /* \"contracts/Main.sol\":1956:1966  msg.sender */\n      caller\n        /* \"contracts/Main.sol\":1950:1967  users[msg.sender] */\n      0xffffffffffffffffffffffffffffffffffffffff\n      and\n      0xffffffffffffffffffffffffffffffffffffffff\n      and\n      dup2\n      mstore\n      0x20\n      add\n      swap1\n      dup2\n      mstore\n      0x20\n      add\n      0x00\n      keccak256\n        /* \"contracts/Main.sol\":1950:1980  users[msg.sender].isRegistered */\n      0x05\n      add\n      0x00\n      swap1\n      sload\n      swap1\n      0x0100\n      exp\n      swap1\n      div\n      0xff\n      and\n        /* \"contracts/Main.sol\":1942:2008  require(users[msg.sender].isRegistered, \"User is not registered.\") */\n      tag_63\n      jumpi\n      mload(0x40)\n      0x08c379a000000000000000000000000000000000000000000000000000000000\n      dup2\n      mstore\n      0x04\n      add\n      tag_64\n      swap1\n      tag_65\n      jump\t// in\n    tag_64:\n      mload(0x40)\n      dup1\n      swap2\n      sub\n      swap1\n      revert\n    tag_63:\n        /* \"contracts/Main.sol\":2021:2042  UserInfo storage user */\n      0x00\n        /* \"contracts/Main.sol\":2045:2050  users */\n      0x01\n        /* \"contracts/Main.sol\":2045:2062  users[msg.sender] */\n      0x00\n        /* \"contracts/Main.sol\":2051:2061  msg.sender */\n      caller\n        /* \"contracts/Main.sol\":2045:2062  users[msg.sender] */\n      0xffffffffffffffffffffffffffffffffffffffff\n      and\n      0xffffffffffffffffffffffffffffffffffffffff\n      and\n      dup2\n      mstore\n      0x20\n      add\n      swap1\n      dup2\n      mstore\n      0x20\n      add\n      0x00\n      keccak256\n        /* \"contracts/Main.sol\":2021:2062  UserInfo storage user = users[msg.sender] */\n      swap1\n      pop\n        /* \"contracts/Main.sol\":2089:2098  _username */\n      dup6\n        /* \"contracts/Main.sol\":2073:2077  user */\n      dup2\n        /* \"contracts/Main.sol\":2073:2086  user.username */\n      0x00\n      add\n        /* \"contracts/Main.sol\":2073:2098  user.username = _username */\n      swap1\n      dup2\n      tag_66\n      swap2\n      swap1\n      tag_58\n      jump\t// in\n    tag_66:\n      pop\n        /* \"contracts/Main.sol\":2125:2134  _latitude */\n      dup5\n        /* \"contracts/Main.sol\":2109:2113  user */\n      dup2\n        /* \"contracts/Main.sol\":2109:2122  user.latitude */\n      0x01\n      add\n        /* \"contracts/Main.sol\":2109:2134  user.latitude = _latitude */\n      dup2\n      swap1\n      sstore\n      pop\n        /* \"contracts/Main.sol\":2162:2172  _longitude */\n      dup4\n        /* \"contracts/Main.sol\":2145:2149  user */\n      dup2\n        /* \"contracts/Main.sol\":2145:2159  user.longitude */\n      0x02\n      add\n        /* \"contracts/Main.sol\":2145:2172  user.longitude = _longitude */\n      dup2\n      swap1\n      sstore\n      pop\n        /* \"contracts/Main.sol\":2204:2218  _energyBalance */\n      dup3\n        /* \"contracts/Main.sol\":2183:2187  user */\n      dup2\n        /* \"contracts/Main.sol\":2183:2201  user.energyBalance */\n      0x03\n      add\n        /* \"contracts/Main.sol\":2183:2218  user.energyBalance = _energyBalance */\n      dup2\n      swap1\n      sstore\n      pop\n        /* \"contracts/Main.sol\":2250:2264  _tokensBalance */\n      dup2\n        /* \"contracts/Main.sol\":2229:2233  user */\n      dup2\n        /* \"contracts/Main.sol\":2229:2247  user.tokensBalance */\n      0x04\n      add\n        /* \"contracts/Main.sol\":2229:2264  user.tokensBalance = _tokensBalance */\n      dup2\n      swap1\n      sstore\n      pop\n        /* \"contracts/Main.sol\":2294:2304  msg.sender */\n      caller\n        /* \"contracts/Main.sol\":2282:2371  UserUpdated(msg.sender, _username, _latitude, _longitude, _energyBalance, _tokensBalance) */\n      0xffffffffffffffffffffffffffffffffffffffff\n      and\n      0x18f5dfadc27470bf794c1463063c79a0bdd01ca6e7e3d25bd9c764dc07056ef7\n        /* \"contracts/Main.sol\":2306:2315  _username */\n      dup8\n        /* \"contracts/Main.sol\":2317:2326  _latitude */\n      dup8\n        /* \"contracts/Main.sol\":2328:2338  _longitude */\n      dup8\n        /* \"contracts/Main.sol\":2340:2354  _energyBalance */\n      dup8\n        /* \"contracts/Main.sol\":2356:2370  _tokensBalance */\n      dup8\n        /* \"contracts/Main.sol\":2282:2371  UserUpdated(msg.sender, _username, _latitude, _longitude, _energyBalance, _tokensBalance) */\n      mload(0x40)\n      tag_67\n      swap6\n      swap5\n      swap4\n      swap3\n      swap2\n      swap1\n      tag_61\n      jump\t// in\n    tag_67:\n      mload(0x40)\n      dup1\n      swap2\n      sub\n      swap1\n      log2\n        /* \"contracts/Main.sol\":1931:2379  {... */\n      pop\n        /* \"contracts/Main.sol\":1794:2379  function updateUser(string memory _username, int256 _latitude, int256 _longitude, uint256 _energyBalance, uint256 _tokensBalance) public {... */\n      pop\n      pop\n      pop\n      pop\n      pop\n      jump\t// out\n        /* \"contracts/Main.sol\":2387:2944  function deleteUser(address _userAddress) public onlyAdmin {... */\n    tag_28:\n        /* \"contracts/Main.sol\":969:974  admin */\n      0x02\n      0x00\n      swap1\n      sload\n      swap1\n      0x0100\n      exp\n      swap1\n      div\n      0xffffffffffffffffffffffffffffffffffffffff\n      and\n        /* \"contracts/Main.sol\":955:974  msg.sender == admin */\n      0xffffffffffffffffffffffffffffffffffffffff\n      and\n        /* \"contracts/Main.sol\":955:965  msg.sender */\n      caller\n        /* \"contracts/Main.sol\":955:974  msg.sender == admin */\n      0xffffffffffffffffffffffffffffffffffffffff\n      and\n      eq\n        /* \"contracts/Main.sol\":947:1004  require(msg.sender == admin, \"Only admin can call this.\") */\n      tag_69\n      jumpi\n      mload(0x40)\n      0x08c379a000000000000000000000000000000000000000000000000000000000\n      dup2\n      mstore\n      0x04\n      add\n      tag_70\n      swap1\n      tag_71\n      jump\t// in\n    tag_70:\n      mload(0x40)\n      dup1\n      swap2\n      sub\n      swap1\n      revert\n    tag_69:\n        /* \"contracts/Main.sol\":2465:2470  users */\n      0x01\n        /* \"contracts/Main.sol\":2465:2484  users[_userAddress] */\n      0x00\n        /* \"contracts/Main.sol\":2471:2483  _userAddress */\n      dup3\n        /* \"contracts/Main.sol\":2465:2484  users[_userAddress] */\n      0xffffffffffffffffffffffffffffffffffffffff\n      and\n      0xffffffffffffffffffffffffffffffffffffffff\n      and\n      dup2\n      mstore\n      0x20\n      add\n      swap1\n      dup2\n      mstore\n      0x20\n      add\n      0x00\n      keccak256\n        /* \"contracts/Main.sol\":2465:2497  users[_userAddress].isRegistered */\n      0x05\n      add\n      0x00\n      swap1\n      sload\n      swap1\n      0x0100\n      exp\n      swap1\n      div\n      0xff\n      and\n        /* \"contracts/Main.sol\":2457:2525  require(users[_userAddress].isRegistered, \"User is not registered.\") */\n      tag_73\n      jumpi\n      mload(0x40)\n      0x08c379a000000000000000000000000000000000000000000000000000000000\n      dup2\n      mstore\n      0x04\n      add\n      tag_74\n      swap1\n      tag_65\n      jump\t// in\n    tag_74:\n      mload(0x40)\n      dup1\n      swap2\n      sub\n      swap1\n      revert\n    tag_73:\n        /* \"contracts/Main.sol\":2545:2550  users */\n      0x01\n        /* \"contracts/Main.sol\":2545:2564  users[_userAddress] */\n      0x00\n        /* \"contracts/Main.sol\":2551:2563  _userAddress */\n      dup3\n        /* \"contracts/Main.sol\":2545:2564  users[_userAddress] */\n      0xffffffffffffffffffffffffffffffffffffffff\n      and\n      0xffffffffffffffffffffffffffffffffffffffff\n      and\n      dup2\n      mstore\n      0x20\n      add\n      swap1\n      dup2\n      mstore\n      0x20\n      add\n      0x00\n      keccak256\n      0x00\n        /* \"contracts/Main.sol\":2538:2564  delete users[_userAddress] */\n      dup1\n      dup3\n      add\n      0x00\n      tag_75\n      swap2\n      swap1\n      tag_76\n      jump\t// in\n    tag_75:\n      0x01\n      dup3\n      add\n      0x00\n      swap1\n      sstore\n      0x02\n      dup3\n      add\n      0x00\n      swap1\n      sstore\n      0x03\n      dup3\n      add\n      0x00\n      swap1\n      sstore\n      0x04\n      dup3\n      add\n      0x00\n      swap1\n      sstore\n      0x05\n      dup3\n      add\n      exp(0x0100, 0x00)\n      dup2\n      sload\n      swap1\n      0xff\n      mul\n      not\n      and\n      swap1\n      sstore\n      pop\n      pop\n        /* \"contracts/Main.sol\":2592:2604  _userAddress */\n      dup1\n        /* \"contracts/Main.sol\":2580:2605  UserDeleted(_userAddress) */\n      0xffffffffffffffffffffffffffffffffffffffff\n      and\n      0x4bc56f1321288dfb5b416cb3a7fd188723979f9e866c91d88eccf7fca039d039\n      mload(0x40)\n      mload(0x40)\n      dup1\n      swap2\n      sub\n      swap1\n      log2\n        /* \"contracts/Main.sol\":2675:2681  uint i */\n      0x00\n        /* \"contracts/Main.sol\":2670:2937  for (uint i = 0; i < userAddresses.length; i++) {... */\n    tag_77:\n        /* \"contracts/Main.sol\":2691:2704  userAddresses */\n      0x00\n        /* \"contracts/Main.sol\":2691:2711  userAddresses.length */\n      dup1\n      sload\n      swap1\n      pop\n        /* \"contracts/Main.sol\":2687:2688  i */\n      dup2\n        /* \"contracts/Main.sol\":2687:2711  i < userAddresses.length */\n      lt\n        /* \"contracts/Main.sol\":2670:2937  for (uint i = 0; i < userAddresses.length; i++) {... */\n      iszero\n      tag_78\n      jumpi\n        /* \"contracts/Main.sol\":2757:2769  _userAddress */\n      dup2\n        /* \"contracts/Main.sol\":2737:2769  userAddresses[i] == _userAddress */\n      0xffffffffffffffffffffffffffffffffffffffff\n      and\n        /* \"contracts/Main.sol\":2737:2750  userAddresses */\n      0x00\n        /* \"contracts/Main.sol\":2751:2752  i */\n      dup3\n        /* \"contracts/Main.sol\":2737:2753  userAddresses[i] */\n      dup2\n      sload\n      dup2\n      lt\n      tag_80\n      jumpi\n      tag_81\n      tag_82\n      jump\t// in\n    tag_81:\n    tag_80:\n      swap1\n      0x00\n      mstore\n      keccak256(0x00, 0x20)\n      add\n      0x00\n      swap1\n      sload\n      swap1\n      0x0100\n      exp\n      swap1\n      div\n      0xffffffffffffffffffffffffffffffffffffffff\n      and\n        /* \"contracts/Main.sol\":2737:2769  userAddresses[i] == _userAddress */\n      0xffffffffffffffffffffffffffffffffffffffff\n      and\n      sub\n        /* \"contracts/Main.sol\":2733:2926  if (userAddresses[i] == _userAddress) {... */\n      tag_84\n      jumpi\n        /* \"contracts/Main.sol\":2809:2822  userAddresses */\n      0x00\n        /* \"contracts/Main.sol\":2846:2847  1 */\n      0x01\n        /* \"contracts/Main.sol\":2823:2836  userAddresses */\n      0x00\n        /* \"contracts/Main.sol\":2823:2843  userAddresses.length */\n      dup1\n      sload\n      swap1\n      pop\n        /* \"contracts/Main.sol\":2823:2847  userAddresses.length - 1 */\n      tag_85\n      swap2\n      swap1\n      tag_86\n      jump\t// in\n    tag_85:\n        /* \"contracts/Main.sol\":2809:2848  userAddresses[userAddresses.length - 1] */\n      dup2\n      sload\n      dup2\n      lt\n      tag_87\n      jumpi\n      tag_88\n      tag_82\n      jump\t// in\n    tag_88:\n    tag_87:\n      swap1\n      0x00\n      mstore\n      keccak256(0x00, 0x20)\n      add\n      0x00\n      swap1\n      sload\n      swap1\n      0x0100\n      exp\n      swap1\n      div\n      0xffffffffffffffffffffffffffffffffffffffff\n      and\n        /* \"contracts/Main.sol\":2790:2803  userAddresses */\n      0x00\n        /* \"contracts/Main.sol\":2804:2805  i */\n      dup3\n        /* \"contracts/Main.sol\":2790:2806  userAddresses[i] */\n      dup2\n      sload\n      dup2\n      lt\n      tag_90\n      jumpi\n      tag_91\n      tag_82\n      jump\t// in\n    tag_91:\n    tag_90:\n      swap1\n      0x00\n      mstore\n      keccak256(0x00, 0x20)\n      add\n      0x00\n        /* \"contracts/Main.sol\":2790:2848  userAddresses[i] = userAddresses[userAddresses.length - 1] */\n      0x0100\n      exp\n      dup2\n      sload\n      dup2\n      0xffffffffffffffffffffffffffffffffffffffff\n      mul\n      not\n      and\n      swap1\n      dup4\n      0xffffffffffffffffffffffffffffffffffffffff\n      and\n      mul\n      or\n      swap1\n      sstore\n      pop\n        /* \"contracts/Main.sol\":2867:2880  userAddresses */\n      0x00\n        /* \"contracts/Main.sol\":2867:2886  userAddresses.pop() */\n      dup1\n      sload\n      dup1\n      tag_93\n      jumpi\n      tag_94\n      tag_95\n      jump\t// in\n    tag_94:\n    tag_93:\n      0x01\n      swap1\n      sub\n      dup2\n      dup2\n      swap1\n      0x00\n      mstore\n      keccak256(0x00, 0x20)\n      add\n      exp(0x0100, 0x00)\n      dup2\n      sload\n      swap1\n      0xffffffffffffffffffffffffffffffffffffffff\n      mul\n      not\n      and\n      swap1\n      sstore\n      swap1\n      sstore\n        /* \"contracts/Main.sol\":2905:2910  break */\n      jump(tag_78)\n        /* \"contracts/Main.sol\":2733:2926  if (userAddresses[i] == _userAddress) {... */\n    tag_84:\n        /* \"contracts/Main.sol\":2713:2716  i++ */\n      dup1\n      dup1\n      0x01\n      add\n      swap2\n      pop\n      pop\n        /* \"contracts/Main.sol\":2670:2937  for (uint i = 0; i < userAddresses.length; i++) {... */\n      jump(tag_77)\n    tag_78:\n      pop\n        /* \"contracts/Main.sol\":2387:2944  function deleteUser(address _userAddress) public onlyAdmin {... */\n      pop\n      jump\t// out\n        /* \"contracts/Main.sol\":2952:3166  function getUserInfo(address _userAddress) public view returns (UserInfo memory userInfo) {... */\n    tag_31:\n        /* \"contracts/Main.sol\":3016:3040  UserInfo memory userInfo */\n      tag_97\n      tag_98\n      jump\t// in\n    tag_97:\n        /* \"contracts/Main.sol\":3061:3066  users */\n      0x01\n        /* \"contracts/Main.sol\":3061:3080  users[_userAddress] */\n      0x00\n        /* \"contracts/Main.sol\":3067:3079  _userAddress */\n      dup4\n        /* \"contracts/Main.sol\":3061:3080  users[_userAddress] */\n      0xffffffffffffffffffffffffffffffffffffffff\n      and\n      0xffffffffffffffffffffffffffffffffffffffff\n      and\n      dup2\n      mstore\n      0x20\n      add\n      swap1\n      dup2\n      mstore\n      0x20\n      add\n      0x00\n      keccak256\n        /* \"contracts/Main.sol\":3061:3093  users[_userAddress].isRegistered */\n      0x05\n      add\n      0x00\n      swap1\n      sload\n      swap1\n      0x0100\n      exp\n      swap1\n      div\n      0xff\n      and\n        /* \"contracts/Main.sol\":3053:3121  require(users[_userAddress].isRegistered, \"User is not registered.\") */\n      tag_100\n      jumpi\n      mload(0x40)\n      0x08c379a000000000000000000000000000000000000000000000000000000000\n      dup2\n      mstore\n      0x04\n      add\n      tag_101\n      swap1\n      tag_65\n      jump\t// in\n    tag_101:\n      mload(0x40)\n      dup1\n      swap2\n      sub\n      swap1\n      revert\n    tag_100:\n        /* \"contracts/Main.sol\":3139:3144  users */\n      0x01\n        /* \"contracts/Main.sol\":3139:3158  users[_userAddress] */\n      0x00\n        /* \"contracts/Main.sol\":3145:3157  _userAddress */\n      dup4\n        /* \"contracts/Main.sol\":3139:3158  users[_userAddress] */\n      0xffffffffffffffffffffffffffffffffffffffff\n      and\n      0xffffffffffffffffffffffffffffffffffffffff\n      and\n      dup2\n      mstore\n      0x20\n      add\n      swap1\n      dup2\n      mstore\n      0x20\n      add\n      0x00\n      keccak256\n        /* \"contracts/Main.sol\":3132:3158  return users[_userAddress] */\n      mload(0x40)\n      dup1\n      0xc0\n      add\n      0x40\n      mstore\n      swap1\n      dup2\n      0x00\n      dup3\n      add\n      dup1\n      sload\n      tag_102\n      swap1\n      tag_103\n      jump\t// in\n    tag_102:\n      dup1\n      0x1f\n      add\n      0x20\n      dup1\n      swap2\n      div\n      mul\n      0x20\n      add\n      mload(0x40)\n      swap1\n      dup2\n      add\n      0x40\n      mstore\n      dup1\n      swap3\n      swap2\n      swap1\n      dup2\n      dup2\n      mstore\n      0x20\n      add\n      dup3\n      dup1\n      sload\n      tag_104\n      swap1\n      tag_103\n      jump\t// in\n    tag_104:\n      dup1\n      iszero\n      tag_105\n      jumpi\n      dup1\n      0x1f\n      lt\n      tag_106\n      jumpi\n      0x0100\n      dup1\n      dup4\n      sload\n      div\n      mul\n      dup4\n      mstore\n      swap2\n      0x20\n      add\n      swap2\n      jump(tag_105)\n    tag_106:\n      dup3\n      add\n      swap2\n      swap1\n      0x00\n      mstore\n      keccak256(0x00, 0x20)\n      swap1\n    tag_107:\n      dup2\n      sload\n      dup2\n      mstore\n      swap1\n      0x01\n      add\n      swap1\n      0x20\n      add\n      dup1\n      dup4\n      gt\n      tag_107\n      jumpi\n      dup3\n      swap1\n      sub\n      0x1f\n      and\n      dup3\n      add\n      swap2\n    tag_105:\n      pop\n      pop\n      pop\n      pop\n      pop\n      dup2\n      mstore\n      0x20\n      add\n      0x01\n      dup3\n      add\n      sload\n      dup2\n      mstore\n      0x20\n      add\n      0x02\n      dup3\n      add\n      sload\n      dup2\n      mstore\n      0x20\n      add\n      0x03\n      dup3\n      add\n      sload\n      dup2\n      mstore\n      0x20\n      add\n      0x04\n      dup3\n      add\n      sload\n      dup2\n      mstore\n      0x20\n      add\n      0x05\n      dup3\n      add\n      0x00\n      swap1\n      sload\n      swap1\n      0x0100\n      exp\n      swap1\n      div\n      0xff\n      and\n      iszero\n      iszero\n      iszero\n      iszero\n      dup2\n      mstore\n      pop\n      pop\n      swap1\n      pop\n        /* \"contracts/Main.sol\":2952:3166  function getUserInfo(address _userAddress) public view returns (UserInfo memory userInfo) {... */\n      swap2\n      swap1\n      pop\n      jump\t// out\n        /* \"contracts/Main.sol\":3805:3911  function getUserAddresses() public view returns (address[] memory) {... */\n    tag_35:\n        /* \"contracts/Main.sol\":3854:3870  address[] memory */\n      0x60\n        /* \"contracts/Main.sol\":3890:3903  userAddresses */\n      0x00\n        /* \"contracts/Main.sol\":3883:3903  return userAddresses */\n      dup1\n      sload\n      dup1\n      0x20\n      mul\n      0x20\n      add\n      mload(0x40)\n      swap1\n      dup2\n      add\n      0x40\n      mstore\n      dup1\n      swap3\n      swap2\n      swap1\n      dup2\n      dup2\n      mstore\n      0x20\n      add\n      dup3\n      dup1\n      sload\n      dup1\n      iszero\n      tag_109\n      jumpi\n      0x20\n      mul\n      dup3\n      add\n      swap2\n      swap1\n      0x00\n      mstore\n      keccak256(0x00, 0x20)\n      swap1\n    tag_110:\n      dup2\n      0x00\n      swap1\n      sload\n      swap1\n      0x0100\n      exp\n      swap1\n      div\n      0xffffffffffffffffffffffffffffffffffffffff\n      and\n      0xffffffffffffffffffffffffffffffffffffffff\n      and\n      dup2\n      mstore\n      0x20\n      add\n      swap1\n      0x01\n      add\n      swap1\n      dup1\n      dup4\n      gt\n      tag_110\n      jumpi\n    tag_109:\n      pop\n      pop\n      pop\n      pop\n      pop\n      swap1\n      pop\n        /* \"contracts/Main.sol\":3805:3911  function getUserAddresses() public view returns (address[] memory) {... */\n      swap1\n      jump\t// out\n        /* \"contracts/Main.sol\":326:367  mapping(address => UserInfo) public users */\n    tag_40:\n      mstore(0x20, 0x01)\n      dup1\n      0x00\n      mstore\n      keccak256(0x00, 0x40)\n      0x00\n      swap2\n      pop\n      swap1\n      pop\n      dup1\n      0x00\n      add\n      dup1\n      sload\n      tag_111\n      swap1\n      tag_103\n      jump\t// in\n    tag_111:\n      dup1\n      0x1f\n      add\n      0x20\n      dup1\n      swap2\n      div\n      mul\n      0x20\n      add\n      mload(0x40)\n      swap1\n      dup2\n      add\n      0x40\n      mstore\n      dup1\n      swap3\n      swap2\n      swap1\n      dup2\n      dup2\n      mstore\n      0x20\n      add\n      dup3\n      dup1\n      sload\n      tag_112\n      swap1\n      tag_103\n      jump\t// in\n    tag_112:\n      dup1\n      iszero\n      tag_113\n      jumpi\n      dup1\n      0x1f\n      lt\n      tag_114\n      jumpi\n      0x0100\n      dup1\n      dup4\n      sload\n      div\n      mul\n      dup4\n      mstore\n      swap2\n      0x20\n      add\n      swap2\n      jump(tag_113)\n    tag_114:\n      dup3\n      add\n      swap2\n      swap1\n      0x00\n      mstore\n      keccak256(0x00, 0x20)\n      swap1\n    tag_115:\n      dup2\n      sload\n      dup2\n      mstore\n      swap1\n      0x01\n      add\n      swap1\n      0x20\n      add\n      dup1\n      dup4\n      gt\n      tag_115\n      jumpi\n      dup3\n      swap1\n      sub\n      0x1f\n      and\n      dup3\n      add\n      swap2\n    tag_113:\n      pop\n      pop\n      pop\n      pop\n      pop\n      swap1\n      dup1\n      0x01\n      add\n      sload\n      swap1\n      dup1\n      0x02\n      add\n      sload\n      swap1\n      dup1\n      0x03\n      add\n      sload\n      swap1\n      dup1\n      0x04\n      add\n      sload\n      swap1\n      dup1\n      0x05\n      add\n      0x00\n      swap1\n      sload\n      swap1\n      0x0100\n      exp\n      swap1\n      div\n      0xff\n      and\n      swap1\n      pop\n      dup7\n      jump\t// out\n        /* \"contracts/Main.sol\":3176:3508  function getAllUsersInfo() public view returns (UserInfo[] memory) {... */\n    tag_44:\n        /* \"contracts/Main.sol\":3224:3241  UserInfo[] memory */\n      0x60\n        /* \"contracts/Main.sol\":3254:3277  UserInfo[] memory infos */\n      0x00\n        /* \"contracts/Main.sol\":3295:3308  userAddresses */\n      dup1\n        /* \"contracts/Main.sol\":3295:3315  userAddresses.length */\n      dup1\n      sload\n      swap1\n      pop\n        /* \"contracts/Main.sol\":3280:3316  new UserInfo[](userAddresses.length) */\n      0xffffffffffffffff\n      dup2\n      gt\n      iszero\n      tag_117\n      jumpi\n      tag_118\n      tag_119\n      jump\t// in\n    tag_118:\n    tag_117:\n      mload(0x40)\n      swap1\n      dup1\n      dup3\n      mstore\n      dup1\n      0x20\n      mul\n      0x20\n      add\n      dup3\n      add\n      0x40\n      mstore\n      dup1\n      iszero\n      tag_120\n      jumpi\n      dup2\n      0x20\n      add\n    tag_121:\n      tag_122\n      tag_98\n      jump\t// in\n    tag_122:\n      dup2\n      mstore\n      0x20\n      add\n      swap1\n      0x01\n      swap1\n      sub\n      swap1\n      dup2\n      tag_121\n      jumpi\n      swap1\n      pop\n    tag_120:\n      pop\n        /* \"contracts/Main.sol\":3254:3316  UserInfo[] memory infos = new UserInfo[](userAddresses.length) */\n      swap1\n      pop\n        /* \"contracts/Main.sol\":3332:3338  uint i */\n      0x00\n        /* \"contracts/Main.sol\":3327:3478  for (uint i = 0; i < userAddresses.length; i++) {... */\n    tag_123:\n        /* \"contracts/Main.sol\":3348:3361  userAddresses */\n      0x00\n        /* \"contracts/Main.sol\":3348:3368  userAddresses.length */\n      dup1\n      sload\n      swap1\n      pop\n        /* \"contracts/Main.sol\":3344:3345  i */\n      dup2\n        /* \"contracts/Main.sol\":3344:3368  i < userAddresses.length */\n      lt\n        /* \"contracts/Main.sol\":3327:3478  for (uint i = 0; i < userAddresses.length; i++) {... */\n      iszero\n      tag_124\n      jumpi\n        /* \"contracts/Main.sol\":3390:3406  address userAddr */\n      0x00\n        /* \"contracts/Main.sol\":3409:3422  userAddresses */\n      dup1\n        /* \"contracts/Main.sol\":3423:3424  i */\n      dup3\n        /* \"contracts/Main.sol\":3409:3425  userAddresses[i] */\n      dup2\n      sload\n      dup2\n      lt\n      tag_126\n      jumpi\n      tag_127\n      tag_82\n      jump\t// in\n    tag_127:\n    tag_126:\n      swap1\n      0x00\n      mstore\n      keccak256(0x00, 0x20)\n      add\n      0x00\n      swap1\n      sload\n      swap1\n      0x0100\n      exp\n      swap1\n      div\n      0xffffffffffffffffffffffffffffffffffffffff\n      and\n        /* \"contracts/Main.sol\":3390:3425  address userAddr = userAddresses[i] */\n      swap1\n      pop\n        /* \"contracts/Main.sol\":3451:3456  users */\n      0x01\n        /* \"contracts/Main.sol\":3451:3466  users[userAddr] */\n      0x00\n        /* \"contracts/Main.sol\":3457:3465  userAddr */\n      dup3\n        /* \"contracts/Main.sol\":3451:3466  users[userAddr] */\n      0xffffffffffffffffffffffffffffffffffffffff\n      and\n      0xffffffffffffffffffffffffffffffffffffffff\n      and\n      dup2\n      mstore\n      0x20\n      add\n      swap1\n      dup2\n      mstore\n      0x20\n      add\n      0x00\n      keccak256\n        /* \"contracts/Main.sol\":3440:3466  infos[i] = users[userAddr] */\n      mload(0x40)\n      dup1\n      0xc0\n      add\n      0x40\n      mstore\n      swap1\n      dup2\n      0x00\n      dup3\n      add\n      dup1\n      sload\n      tag_129\n      swap1\n      tag_103\n      jump\t// in\n    tag_129:\n      dup1\n      0x1f\n      add\n      0x20\n      dup1\n      swap2\n      div\n      mul\n      0x20\n      add\n      mload(0x40)\n      swap1\n      dup2\n      add\n      0x40\n      mstore\n      dup1\n      swap3\n      swap2\n      swap1\n      dup2\n      dup2\n      mstore\n      0x20\n      add\n      dup3\n      dup1\n      sload\n      tag_130\n      swap1\n      tag_103\n      jump\t// in\n    tag_130:\n      dup1\n      iszero\n      tag_131\n      jumpi\n      dup1\n      0x1f\n      lt\n      tag_132\n      jumpi\n      0x0100\n      dup1\n      dup4\n      sload\n      div\n      mul\n      dup4\n      mstore\n      swap2\n      0x20\n      add\n      swap2\n      jump(tag_131)\n    tag_132:\n      dup3\n      add\n      swap2\n      swap1\n      0x00\n      mstore\n      keccak256(0x00, 0x20)\n      swap1\n    tag_133:\n      dup2\n      sload\n      dup2\n      mstore\n      swap1\n      0x01\n      add\n      swap1\n      0x20\n      add\n      dup1\n      dup4\n      gt\n      tag_133\n      jumpi\n      dup3\n      swap1\n      sub\n      0x1f\n      and\n      dup3\n      add\n      swap2\n    tag_131:\n      pop\n      pop\n      pop\n      pop\n      pop\n      dup2\n      mstore\n      0x20\n      add\n      0x01\n      dup3\n      add\n      sload\n      dup2\n      mstore\n      0x20\n      add\n      0x02\n      dup3\n      add\n      sload\n      dup2\n      mstore\n      0x20\n      add\n      0x03\n      dup3\n      add\n      sload\n      dup2\n      mstore\n      0x20\n      add\n      0x04\n      dup3\n      add\n      sload\n      dup2\n      mstore\n      0x20\n      add\n      0x05\n      dup3\n      add\n      0x00\n      swap1\n      sload\n      swap1\n      0x0100\n      exp\n      swap1\n      div\n      0xff\n      and\n      iszero\n      iszero\n      iszero\n      iszero\n      dup2\n      mstore\n      pop\n      pop\n        /* \"contracts/Main.sol\":3440:3445  infos */\n      dup4\n        /* \"contracts/Main.sol\":3446:3447  i */\n      dup4\n        /* \"contracts/Main.sol\":3440:3448  infos[i] */\n      dup2\n      mload\n      dup2\n      lt\n      tag_134\n      jumpi\n      tag_135\n      tag_82\n      jump\t// in\n    tag_135:\n    tag_134:\n      0x20\n      mul\n      0x20\n      add\n      add\n        /* \"contracts/Main.sol\":3440:3466  infos[i] = users[userAddr] */\n      dup2\n      swap1\n      mstore\n      pop\n        /* \"contracts/Main.sol\":3375:3478  {... */\n      pop\n        /* \"contracts/Main.sol\":3370:3373  i++ */\n      dup1\n      dup1\n      0x01\n      add\n      swap2\n      pop\n      pop\n        /* \"contracts/Main.sol\":3327:3478  for (uint i = 0; i < userAddresses.length; i++) {... */\n      jump(tag_123)\n    tag_124:\n      pop\n        /* \"contracts/Main.sol\":3495:3500  infos */\n      dup1\n        /* \"contracts/Main.sol\":3488:3500  return infos */\n      swap2\n      pop\n      pop\n        /* \"contracts/Main.sol\":3176:3508  function getAllUsersInfo() public view returns (UserInfo[] memory) {... */\n      swap1\n      jump\t// out\n        /* \"contracts/Main.sol\":423:443  address public admin */\n    tag_48:\n      0x02\n      0x00\n      swap1\n      sload\n      swap1\n      0x0100\n      exp\n      swap1\n      div\n      0xffffffffffffffffffffffffffffffffffffffff\n      and\n      dup2\n      jump\t// out\n    tag_76:\n      pop\n      dup1\n      sload\n      tag_136\n      swap1\n      tag_103\n      jump\t// in\n    tag_136:\n      0x00\n      dup3\n      sstore\n      dup1\n      0x1f\n      lt\n      tag_138\n      jumpi\n      pop\n      jump(tag_137)\n    tag_138:\n      0x1f\n      add\n      0x20\n      swap1\n      div\n      swap1\n      0x00\n      mstore\n      keccak256(0x00, 0x20)\n      swap1\n      dup2\n      add\n      swap1\n      tag_139\n      swap2\n      swap1\n      tag_140\n      jump\t// in\n    tag_139:\n    tag_137:\n      pop\n      jump\t// out\n    tag_98:\n      mload(0x40)\n      dup1\n      0xc0\n      add\n      0x40\n      mstore\n      dup1\n      0x60\n      dup2\n      mstore\n      0x20\n      add\n      0x00\n      dup2\n      mstore\n      0x20\n      add\n      0x00\n      dup2\n      mstore\n      0x20\n      add\n      0x00\n      dup2\n      mstore\n      0x20\n      add\n      0x00\n      dup2\n      mstore\n      0x20\n      add\n      iszero(iszero(0x00))\n      dup2\n      mstore\n      pop\n      swap1\n      jump\t// out\n    tag_140:\n    tag_141:\n      dup1\n      dup3\n      gt\n      iszero\n      tag_142\n      jumpi\n      0x00\n      dup2\n      0x00\n      swap1\n      sstore\n      pop\n      0x01\n      add\n      jump(tag_141)\n    tag_142:\n      pop\n      swap1\n      jump\t// out\n        /* \"#utility.yul\":7:82   */\n    tag_143:\n        /* \"#utility.yul\":40:46   */\n      0x00\n        /* \"#utility.yul\":73:75   */\n      0x40\n        /* \"#utility.yul\":67:76   */\n      mload\n        /* \"#utility.yul\":57:76   */\n      swap1\n      pop\n        /* \"#utility.yul\":7:82   */\n      swap1\n      jump\t// out\n        /* \"#utility.yul\":88:205   */\n    tag_144:\n        /* \"#utility.yul\":197:198   */\n      0x00\n        /* \"#utility.yul\":194:195   */\n      dup1\n        /* \"#utility.yul\":187:199   */\n      revert\n        /* \"#utility.yul\":211:328   */\n    tag_145:\n        /* \"#utility.yul\":320:321   */\n      0x00\n        /* \"#utility.yul\":317:318   */\n      dup1\n        /* \"#utility.yul\":310:322   */\n      revert\n        /* \"#utility.yul\":334:460   */\n    tag_146:\n        /* \"#utility.yul\":371:378   */\n      0x00\n        /* \"#utility.yul\":411:453   */\n      0xffffffffffffffffffffffffffffffffffffffff\n        /* \"#utility.yul\":404:409   */\n      dup3\n        /* \"#utility.yul\":400:454   */\n      and\n        /* \"#utility.yul\":389:454   */\n      swap1\n      pop\n        /* \"#utility.yul\":334:460   */\n      swap2\n      swap1\n      pop\n      jump\t// out\n        /* \"#utility.yul\":466:562   */\n    tag_147:\n        /* \"#utility.yul\":503:510   */\n      0x00\n        /* \"#utility.yul\":532:556   */\n      tag_223\n        /* \"#utility.yul\":550:555   */\n      dup3\n        /* \"#utility.yul\":532:556   */\n      tag_146\n      jump\t// in\n    tag_223:\n        /* \"#utility.yul\":521:556   */\n      swap1\n      pop\n        /* \"#utility.yul\":466:562   */\n      swap2\n      swap1\n      pop\n      jump\t// out\n        /* \"#utility.yul\":568:690   */\n    tag_148:\n        /* \"#utility.yul\":641:665   */\n      tag_225\n        /* \"#utility.yul\":659:664   */\n      dup2\n        /* \"#utility.yul\":641:665   */\n      tag_147\n      jump\t// in\n    tag_225:\n        /* \"#utility.yul\":634:639   */\n      dup2\n        /* \"#utility.yul\":631:666   */\n      eq\n        /* \"#utility.yul\":621:684   */\n      tag_226\n      jumpi\n        /* \"#utility.yul\":680:681   */\n      0x00\n        /* \"#utility.yul\":677:678   */\n      dup1\n        /* \"#utility.yul\":670:682   */\n      revert\n        /* \"#utility.yul\":621:684   */\n    tag_226:\n        /* \"#utility.yul\":568:690   */\n      pop\n      jump\t// out\n        /* \"#utility.yul\":696:835   */\n    tag_149:\n        /* \"#utility.yul\":742:747   */\n      0x00\n        /* \"#utility.yul\":780:786   */\n      dup2\n        /* \"#utility.yul\":767:787   */\n      calldataload\n        /* \"#utility.yul\":758:787   */\n      swap1\n      pop\n        /* \"#utility.yul\":796:829   */\n      tag_228\n        /* \"#utility.yul\":823:828   */\n      dup2\n        /* \"#utility.yul\":796:829   */\n      tag_148\n      jump\t// in\n    tag_228:\n        /* \"#utility.yul\":696:835   */\n      swap3\n      swap2\n      pop\n      pop\n      jump\t// out\n        /* \"#utility.yul\":841:1170   */\n    tag_15:\n        /* \"#utility.yul\":900:906   */\n      0x00\n        /* \"#utility.yul\":949:951   */\n      0x20\n        /* \"#utility.yul\":937:946   */\n      dup3\n        /* \"#utility.yul\":928:935   */\n      dup5\n        /* \"#utility.yul\":924:947   */\n      sub\n        /* \"#utility.yul\":920:952   */\n      slt\n        /* \"#utility.yul\":917:1036   */\n      iszero\n      tag_230\n      jumpi\n        /* \"#utility.yul\":955:1034   */\n      tag_231\n      tag_144\n      jump\t// in\n    tag_231:\n        /* \"#utility.yul\":917:1036   */\n    tag_230:\n        /* \"#utility.yul\":1075:1076   */\n      0x00\n        /* \"#utility.yul\":1100:1153   */\n      tag_232\n        /* \"#utility.yul\":1145:1152   */\n      dup5\n        /* \"#utility.yul\":1136:1142   */\n      dup3\n        /* \"#utility.yul\":1125:1134   */\n      dup6\n        /* \"#utility.yul\":1121:1143   */\n      add\n        /* \"#utility.yul\":1100:1153   */\n      tag_149\n      jump\t// in\n    tag_232:\n        /* \"#utility.yul\":1090:1153   */\n      swap2\n      pop\n        /* \"#utility.yul\":1046:1163   */\n      pop\n        /* \"#utility.yul\":841:1170   */\n      swap3\n      swap2\n      pop\n      pop\n      jump\t// out\n        /* \"#utility.yul\":1176:1266   */\n    tag_150:\n        /* \"#utility.yul\":1210:1217   */\n      0x00\n        /* \"#utility.yul\":1253:1258   */\n      dup2\n        /* \"#utility.yul\":1246:1259   */\n      iszero\n        /* \"#utility.yul\":1239:1260   */\n      iszero\n        /* \"#utility.yul\":1228:1260   */\n      swap1\n      pop\n        /* \"#utility.yul\":1176:1266   */\n      swap2\n      swap1\n      pop\n      jump\t// out\n        /* \"#utility.yul\":1272:1381   */\n    tag_151:\n        /* \"#utility.yul\":1353:1374   */\n      tag_235\n        /* \"#utility.yul\":1368:1373   */\n      dup2\n        /* \"#utility.yul\":1353:1374   */\n      tag_150\n      jump\t// in\n    tag_235:\n        /* \"#utility.yul\":1348:1351   */\n      dup3\n        /* \"#utility.yul\":1341:1375   */\n      mstore\n        /* \"#utility.yul\":1272:1381   */\n      pop\n      pop\n      jump\t// out\n        /* \"#utility.yul\":1387:1597   */\n    tag_18:\n        /* \"#utility.yul\":1474:1478   */\n      0x00\n        /* \"#utility.yul\":1512:1514   */\n      0x20\n        /* \"#utility.yul\":1501:1510   */\n      dup3\n        /* \"#utility.yul\":1497:1515   */\n      add\n        /* \"#utility.yul\":1489:1515   */\n      swap1\n      pop\n        /* \"#utility.yul\":1525:1590   */\n      tag_237\n        /* \"#utility.yul\":1587:1588   */\n      0x00\n        /* \"#utility.yul\":1576:1585   */\n      dup4\n        /* \"#utility.yul\":1572:1589   */\n      add\n        /* \"#utility.yul\":1563:1569   */\n      dup5\n        /* \"#utility.yul\":1525:1590   */\n      tag_151\n      jump\t// in\n    tag_237:\n        /* \"#utility.yul\":1387:1597   */\n      swap3\n      swap2\n      pop\n      pop\n      jump\t// out\n        /* \"#utility.yul\":1603:1720   */\n    tag_152:\n        /* \"#utility.yul\":1712:1713   */\n      0x00\n        /* \"#utility.yul\":1709:1710   */\n      dup1\n        /* \"#utility.yul\":1702:1714   */\n      revert\n        /* \"#utility.yul\":1726:1843   */\n    tag_153:\n        /* \"#utility.yul\":1835:1836   */\n      0x00\n        /* \"#utility.yul\":1832:1833   */\n      dup1\n        /* \"#utility.yul\":1825:1837   */\n      revert\n        /* \"#utility.yul\":1849:1951   */\n    tag_154:\n        /* \"#utility.yul\":1890:1896   */\n      0x00\n        /* \"#utility.yul\":1941:1943   */\n      0x1f\n        /* \"#utility.yul\":1937:1944   */\n      not\n        /* \"#utility.yul\":1932:1934   */\n      0x1f\n        /* \"#utility.yul\":1925:1930   */\n      dup4\n        /* \"#utility.yul\":1921:1935   */\n      add\n        /* \"#utility.yul\":1917:1945   */\n      and\n        /* \"#utility.yul\":1907:1945   */\n      swap1\n      pop\n        /* \"#utility.yul\":1849:1951   */\n      swap2\n      swap1\n      pop\n      jump\t// out\n        /* \"#utility.yul\":1957:2137   */\n    tag_119:\n        /* \"#utility.yul\":2005:2082   */\n      0x4e487b7100000000000000000000000000000000000000000000000000000000\n        /* \"#utility.yul\":2002:2003   */\n      0x00\n        /* \"#utility.yul\":1995:2083   */\n      mstore\n        /* \"#utility.yul\":2102:2106   */\n      0x41\n        /* \"#utility.yul\":2099:2100   */\n      0x04\n        /* \"#utility.yul\":2092:2107   */\n      mstore\n        /* \"#utility.yul\":2126:2130   */\n      0x24\n        /* \"#utility.yul\":2123:2124   */\n      0x00\n        /* \"#utility.yul\":2116:2131   */\n      revert\n        /* \"#utility.yul\":2143:2424   */\n    tag_155:\n        /* \"#utility.yul\":2226:2253   */\n      tag_243\n        /* \"#utility.yul\":2248:2252   */\n      dup3\n        /* \"#utility.yul\":2226:2253   */\n      tag_154\n      jump\t// in\n    tag_243:\n        /* \"#utility.yul\":2218:2224   */\n      dup2\n        /* \"#utility.yul\":2214:2254   */\n      add\n        /* \"#utility.yul\":2356:2362   */\n      dup2\n        /* \"#utility.yul\":2344:2354   */\n      dup2\n        /* \"#utility.yul\":2341:2363   */\n      lt\n        /* \"#utility.yul\":2320:2338   */\n      0xffffffffffffffff\n        /* \"#utility.yul\":2308:2318   */\n      dup3\n        /* \"#utility.yul\":2305:2339   */\n      gt\n        /* \"#utility.yul\":2302:2364   */\n      or\n        /* \"#utility.yul\":2299:2387   */\n      iszero\n      tag_244\n      jumpi\n        /* \"#utility.yul\":2367:2385   */\n      tag_245\n      tag_119\n      jump\t// in\n    tag_245:\n        /* \"#utility.yul\":2299:2387   */\n    tag_244:\n        /* \"#utility.yul\":2407:2417   */\n      dup1\n        /* \"#utility.yul\":2403:2405   */\n      0x40\n        /* \"#utility.yul\":2396:2418   */\n      mstore\n        /* \"#utility.yul\":2186:2424   */\n      pop\n        /* \"#utility.yul\":2143:2424   */\n      pop\n      pop\n      jump\t// out\n        /* \"#utility.yul\":2430:2559   */\n    tag_156:\n        /* \"#utility.yul\":2464:2470   */\n      0x00\n        /* \"#utility.yul\":2491:2511   */\n      tag_247\n      tag_143\n      jump\t// in\n    tag_247:\n        /* \"#utility.yul\":2481:2511   */\n      swap1\n      pop\n        /* \"#utility.yul\":2520:2553   */\n      tag_248\n        /* \"#utility.yul\":2548:2552   */\n      dup3\n        /* \"#utility.yul\":2540:2546   */\n      dup3\n        /* \"#utility.yul\":2520:2553   */\n      tag_155\n      jump\t// in\n    tag_248:\n        /* \"#utility.yul\":2430:2559   */\n      swap2\n      swap1\n      pop\n      jump\t// out\n        /* \"#utility.yul\":2565:2873   */\n    tag_157:\n        /* \"#utility.yul\":2627:2631   */\n      0x00\n        /* \"#utility.yul\":2717:2735   */\n      0xffffffffffffffff\n        /* \"#utility.yul\":2709:2715   */\n      dup3\n        /* \"#utility.yul\":2706:2736   */\n      gt\n        /* \"#utility.yul\":2703:2759   */\n      iszero\n      tag_250\n      jumpi\n        /* \"#utility.yul\":2739:2757   */\n      tag_251\n      tag_119\n      jump\t// in\n    tag_251:\n        /* \"#utility.yul\":2703:2759   */\n    tag_250:\n        /* \"#utility.yul\":2777:2806   */\n      tag_252\n        /* \"#utility.yul\":2799:2805   */\n      dup3\n        /* \"#utility.yul\":2777:2806   */\n      tag_154\n      jump\t// in\n    tag_252:\n        /* \"#utility.yul\":2769:2806   */\n      swap1\n      pop\n        /* \"#utility.yul\":2861:2865   */\n      0x20\n        /* \"#utility.yul\":2855:2859   */\n      dup2\n        /* \"#utility.yul\":2851:2866   */\n      add\n        /* \"#utility.yul\":2843:2866   */\n      swap1\n      pop\n        /* \"#utility.yul\":2565:2873   */\n      swap2\n      swap1\n      pop\n      jump\t// out\n        /* \"#utility.yul\":2879:3025   */\n    tag_158:\n        /* \"#utility.yul\":2976:2982   */\n      dup3\n        /* \"#utility.yul\":2971:2974   */\n      dup2\n        /* \"#utility.yul\":2966:2969   */\n      dup4\n        /* \"#utility.yul\":2953:2983   */\n      calldatacopy\n        /* \"#utility.yul\":3017:3018   */\n      0x00\n        /* \"#utility.yul\":3008:3014   */\n      dup4\n        /* \"#utility.yul\":3003:3006   */\n      dup4\n        /* \"#utility.yul\":2999:3015   */\n      add\n        /* \"#utility.yul\":2992:3019   */\n      mstore\n        /* \"#utility.yul\":2879:3025   */\n      pop\n      pop\n      pop\n      jump\t// out\n        /* \"#utility.yul\":3031:3456   */\n    tag_159:\n        /* \"#utility.yul\":3109:3114   */\n      0x00\n        /* \"#utility.yul\":3134:3200   */\n      tag_255\n        /* \"#utility.yul\":3150:3199   */\n      tag_256\n        /* \"#utility.yul\":3192:3198   */\n      dup5\n        /* \"#utility.yul\":3150:3199   */\n      tag_157\n      jump\t// in\n    tag_256:\n        /* \"#utility.yul\":3134:3200   */\n      tag_156\n      jump\t// in\n    tag_255:\n        /* \"#utility.yul\":3125:3200   */\n      swap1\n      pop\n        /* \"#utility.yul\":3223:3229   */\n      dup3\n        /* \"#utility.yul\":3216:3221   */\n      dup2\n        /* \"#utility.yul\":3209:3230   */\n      mstore\n        /* \"#utility.yul\":3261:3265   */\n      0x20\n        /* \"#utility.yul\":3254:3259   */\n      dup2\n        /* \"#utility.yul\":3250:3266   */\n      add\n        /* \"#utility.yul\":3299:3302   */\n      dup5\n        /* \"#utility.yul\":3290:3296   */\n      dup5\n        /* \"#utility.yul\":3285:3288   */\n      dup5\n        /* \"#utility.yul\":3281:3297   */\n      add\n        /* \"#utility.yul\":3278:3303   */\n      gt\n        /* \"#utility.yul\":3275:3387   */\n      iszero\n      tag_257\n      jumpi\n        /* \"#utility.yul\":3306:3385   */\n      tag_258\n      tag_153\n      jump\t// in\n    tag_258:\n        /* \"#utility.yul\":3275:3387   */\n    tag_257:\n        /* \"#utility.yul\":3396:3450   */\n      tag_259\n        /* \"#utility.yul\":3443:3449   */\n      dup5\n        /* \"#utility.yul\":3438:3441   */\n      dup3\n        /* \"#utility.yul\":3433:3436   */\n      dup6\n        /* \"#utility.yul\":3396:3450   */\n      tag_158\n      jump\t// in\n    tag_259:\n        /* \"#utility.yul\":3115:3456   */\n      pop\n        /* \"#utility.yul\":3031:3456   */\n      swap4\n      swap3\n      pop\n      pop\n      pop\n      jump\t// out\n        /* \"#utility.yul\":3476:3816   */\n    tag_160:\n        /* \"#utility.yul\":3532:3537   */\n      0x00\n        /* \"#utility.yul\":3581:3584   */\n      dup3\n        /* \"#utility.yul\":3574:3578   */\n      0x1f\n        /* \"#utility.yul\":3566:3572   */\n      dup4\n        /* \"#utility.yul\":3562:3579   */\n      add\n        /* \"#utility.yul\":3558:3585   */\n      slt\n        /* \"#utility.yul\":3548:3670   */\n      tag_261\n      jumpi\n        /* \"#utility.yul\":3589:3668   */\n      tag_262\n      tag_152\n      jump\t// in\n    tag_262:\n        /* \"#utility.yul\":3548:3670   */\n    tag_261:\n        /* \"#utility.yul\":3706:3712   */\n      dup2\n        /* \"#utility.yul\":3693:3713   */\n      calldataload\n        /* \"#utility.yul\":3731:3810   */\n      tag_263\n        /* \"#utility.yul\":3806:3809   */\n      dup5\n        /* \"#utility.yul\":3798:3804   */\n      dup3\n        /* \"#utility.yul\":3791:3795   */\n      0x20\n        /* \"#utility.yul\":3783:3789   */\n      dup7\n        /* \"#utility.yul\":3779:3796   */\n      add\n        /* \"#utility.yul\":3731:3810   */\n      tag_159\n      jump\t// in\n    tag_263:\n        /* \"#utility.yul\":3722:3810   */\n      swap2\n      pop\n        /* \"#utility.yul\":3538:3816   */\n      pop\n        /* \"#utility.yul\":3476:3816   */\n      swap3\n      swap2\n      pop\n      pop\n      jump\t// out\n        /* \"#utility.yul\":3822:3898   */\n    tag_161:\n        /* \"#utility.yul\":3858:3865   */\n      0x00\n        /* \"#utility.yul\":3887:3892   */\n      dup2\n        /* \"#utility.yul\":3876:3892   */\n      swap1\n      pop\n        /* \"#utility.yul\":3822:3898   */\n      swap2\n      swap1\n      pop\n      jump\t// out\n        /* \"#utility.yul\":3904:4024   */\n    tag_162:\n        /* \"#utility.yul\":3976:3999   */\n      tag_266\n        /* \"#utility.yul\":3993:3998   */\n      dup2\n        /* \"#utility.yul\":3976:3999   */\n      tag_161\n      jump\t// in\n    tag_266:\n        /* \"#utility.yul\":3969:3974   */\n      dup2\n        /* \"#utility.yul\":3966:4000   */\n      eq\n        /* \"#utility.yul\":3956:4018   */\n      tag_267\n      jumpi\n        /* \"#utility.yul\":4014:4015   */\n      0x00\n        /* \"#utility.yul\":4011:4012   */\n      dup1\n        /* \"#utility.yul\":4004:4016   */\n      revert\n        /* \"#utility.yul\":3956:4018   */\n    tag_267:\n        /* \"#utility.yul\":3904:4024   */\n      pop\n      jump\t// out\n        /* \"#utility.yul\":4030:4167   */\n    tag_163:\n        /* \"#utility.yul\":4075:4080   */\n      0x00\n        /* \"#utility.yul\":4113:4119   */\n      dup2\n        /* \"#utility.yul\":4100:4120   */\n      calldataload\n        /* \"#utility.yul\":4091:4120   */\n      swap1\n      pop\n        /* \"#utility.yul\":4129:4161   */\n      tag_269\n        /* \"#utility.yul\":4155:4160   */\n      dup2\n        /* \"#utility.yul\":4129:4161   */\n      tag_162\n      jump\t// in\n    tag_269:\n        /* \"#utility.yul\":4030:4167   */\n      swap3\n      swap2\n      pop\n      pop\n      jump\t// out\n        /* \"#utility.yul\":4173:4250   */\n    tag_164:\n        /* \"#utility.yul\":4210:4217   */\n      0x00\n        /* \"#utility.yul\":4239:4244   */\n      dup2\n        /* \"#utility.yul\":4228:4244   */\n      swap1\n      pop\n        /* \"#utility.yul\":4173:4250   */\n      swap2\n      swap1\n      pop\n      jump\t// out\n        /* \"#utility.yul\":4256:4378   */\n    tag_165:\n        /* \"#utility.yul\":4329:4353   */\n      tag_272\n        /* \"#utility.yul\":4347:4352   */\n      dup2\n        /* \"#utility.yul\":4329:4353   */\n      tag_164\n      jump\t// in\n    tag_272:\n        /* \"#utility.yul\":4322:4327   */\n      dup2\n        /* \"#utility.yul\":4319:4354   */\n      eq\n        /* \"#utility.yul\":4309:4372   */\n      tag_273\n      jumpi\n        /* \"#utility.yul\":4368:4369   */\n      0x00\n        /* \"#utility.yul\":4365:4366   */\n      dup1\n        /* \"#utility.yul\":4358:4370   */\n      revert\n        /* \"#utility.yul\":4309:4372   */\n    tag_273:\n        /* \"#utility.yul\":4256:4378   */\n      pop\n      jump\t// out\n        /* \"#utility.yul\":4384:4523   */\n    tag_166:\n        /* \"#utility.yul\":4430:4435   */\n      0x00\n        /* \"#utility.yul\":4468:4474   */\n      dup2\n        /* \"#utility.yul\":4455:4475   */\n      calldataload\n        /* \"#utility.yul\":4446:4475   */\n      swap1\n      pop\n        /* \"#utility.yul\":4484:4517   */\n      tag_275\n        /* \"#utility.yul\":4511:4516   */\n      dup2\n        /* \"#utility.yul\":4484:4517   */\n      tag_165\n      jump\t// in\n    tag_275:\n        /* \"#utility.yul\":4384:4523   */\n      swap3\n      swap2\n      pop\n      pop\n      jump\t// out\n        /* \"#utility.yul\":4529:5616   */\n    tag_21:\n        /* \"#utility.yul\":4632:4638   */\n      0x00\n        /* \"#utility.yul\":4640:4646   */\n      dup1\n        /* \"#utility.yul\":4648:4654   */\n      0x00\n        /* \"#utility.yul\":4656:4662   */\n      dup1\n        /* \"#utility.yul\":4664:4670   */\n      0x00\n        /* \"#utility.yul\":4713:4716   */\n      0xa0\n        /* \"#utility.yul\":4701:4710   */\n      dup7\n        /* \"#utility.yul\":4692:4699   */\n      dup9\n        /* \"#utility.yul\":4688:4711   */\n      sub\n        /* \"#utility.yul\":4684:4717   */\n      slt\n        /* \"#utility.yul\":4681:4801   */\n      iszero\n      tag_277\n      jumpi\n        /* \"#utility.yul\":4720:4799   */\n      tag_278\n      tag_144\n      jump\t// in\n    tag_278:\n        /* \"#utility.yul\":4681:4801   */\n    tag_277:\n        /* \"#utility.yul\":4868:4869   */\n      0x00\n        /* \"#utility.yul\":4857:4866   */\n      dup7\n        /* \"#utility.yul\":4853:4870   */\n      add\n        /* \"#utility.yul\":4840:4871   */\n      calldataload\n        /* \"#utility.yul\":4898:4916   */\n      0xffffffffffffffff\n        /* \"#utility.yul\":4890:4896   */\n      dup2\n        /* \"#utility.yul\":4887:4917   */\n      gt\n        /* \"#utility.yul\":4884:5001   */\n      iszero\n      tag_279\n      jumpi\n        /* \"#utility.yul\":4920:4999   */\n      tag_280\n      tag_145\n      jump\t// in\n    tag_280:\n        /* \"#utility.yul\":4884:5001   */\n    tag_279:\n        /* \"#utility.yul\":5025:5088   */\n      tag_281\n        /* \"#utility.yul\":5080:5087   */\n      dup9\n        /* \"#utility.yul\":5071:5077   */\n      dup3\n        /* \"#utility.yul\":5060:5069   */\n      dup10\n        /* \"#utility.yul\":5056:5078   */\n      add\n        /* \"#utility.yul\":5025:5088   */\n      tag_160\n      jump\t// in\n    tag_281:\n        /* \"#utility.yul\":5015:5088   */\n      swap6\n      pop\n        /* \"#utility.yul\":4811:5098   */\n      pop\n        /* \"#utility.yul\":5137:5139   */\n      0x20\n        /* \"#utility.yul\":5163:5215   */\n      tag_282\n        /* \"#utility.yul\":5207:5214   */\n      dup9\n        /* \"#utility.yul\":5198:5204   */\n      dup3\n        /* \"#utility.yul\":5187:5196   */\n      dup10\n        /* \"#utility.yul\":5183:5205   */\n      add\n        /* \"#utility.yul\":5163:5215   */\n      tag_163\n      jump\t// in\n    tag_282:\n        /* \"#utility.yul\":5153:5215   */\n      swap5\n      pop\n        /* \"#utility.yul\":5108:5225   */\n      pop\n        /* \"#utility.yul\":5264:5266   */\n      0x40\n        /* \"#utility.yul\":5290:5342   */\n      tag_283\n        /* \"#utility.yul\":5334:5341   */\n      dup9\n        /* \"#utility.yul\":5325:5331   */\n      dup3\n        /* \"#utility.yul\":5314:5323   */\n      dup10\n        /* \"#utility.yul\":5310:5332   */\n      add\n        /* \"#utility.yul\":5290:5342   */\n      tag_163\n      jump\t// in\n    tag_283:\n        /* \"#utility.yul\":5280:5342   */\n      swap4\n      pop\n        /* \"#utility.yul\":5235:5352   */\n      pop\n        /* \"#utility.yul\":5391:5393   */\n      0x60\n        /* \"#utility.yul\":5417:5470   */\n      tag_284\n        /* \"#utility.yul\":5462:5469   */\n      dup9\n        /* \"#utility.yul\":5453:5459   */\n      dup3\n        /* \"#utility.yul\":5442:5451   */\n      dup10\n        /* \"#utility.yul\":5438:5460   */\n      add\n        /* \"#utility.yul\":5417:5470   */\n      tag_166\n      jump\t// in\n    tag_284:\n        /* \"#utility.yul\":5407:5470   */\n      swap3\n      pop\n        /* \"#utility.yul\":5362:5480   */\n      pop\n        /* \"#utility.yul\":5519:5522   */\n      0x80\n        /* \"#utility.yul\":5546:5599   */\n      tag_285\n        /* \"#utility.yul\":5591:5598   */\n      dup9\n        /* \"#utility.yul\":5582:5588   */\n      dup3\n        /* \"#utility.yul\":5571:5580   */\n      dup10\n        /* \"#utility.yul\":5567:5589   */\n      add\n        /* \"#utility.yul\":5546:5599   */\n      tag_166\n      jump\t// in\n    tag_285:\n        /* \"#utility.yul\":5536:5599   */\n      swap2\n      pop\n        /* \"#utility.yul\":5490:5609   */\n      pop\n        /* \"#utility.yul\":4529:5616   */\n      swap3\n      swap6\n      pop\n      swap3\n      swap6\n      swap1\n      swap4\n      pop\n      jump\t// out\n        /* \"#utility.yul\":5622:5721   */\n    tag_167:\n        /* \"#utility.yul\":5674:5680   */\n      0x00\n        /* \"#utility.yul\":5708:5713   */\n      dup2\n        /* \"#utility.yul\":5702:5714   */\n      mload\n        /* \"#utility.yul\":5692:5714   */\n      swap1\n      pop\n        /* \"#utility.yul\":5622:5721   */\n      swap2\n      swap1\n      pop\n      jump\t// out\n        /* \"#utility.yul\":5727:5886   */\n    tag_168:\n        /* \"#utility.yul\":5801:5812   */\n      0x00\n        /* \"#utility.yul\":5835:5841   */\n      dup3\n        /* \"#utility.yul\":5830:5833   */\n      dup3\n        /* \"#utility.yul\":5823:5842   */\n      mstore\n        /* \"#utility.yul\":5875:5879   */\n      0x20\n        /* \"#utility.yul\":5870:5873   */\n      dup3\n        /* \"#utility.yul\":5866:5880   */\n      add\n        /* \"#utility.yul\":5851:5880   */\n      swap1\n      pop\n        /* \"#utility.yul\":5727:5886   */\n      swap3\n      swap2\n      pop\n      pop\n      jump\t// out\n        /* \"#utility.yul\":5892:6138   */\n    tag_169:\n        /* \"#utility.yul\":5973:5974   */\n      0x00\n        /* \"#utility.yul\":5983:6096   */\n    tag_289:\n        /* \"#utility.yul\":5997:6003   */\n      dup4\n        /* \"#utility.yul\":5994:5995   */\n      dup2\n        /* \"#utility.yul\":5991:6004   */\n      lt\n        /* \"#utility.yul\":5983:6096   */\n      iszero\n      tag_291\n      jumpi\n        /* \"#utility.yul\":6082:6083   */\n      dup1\n        /* \"#utility.yul\":6077:6080   */\n      dup3\n        /* \"#utility.yul\":6073:6084   */\n      add\n        /* \"#utility.yul\":6067:6085   */\n      mload\n        /* \"#utility.yul\":6063:6064   */\n      dup2\n        /* \"#utility.yul\":6058:6061   */\n      dup5\n        /* \"#utility.yul\":6054:6065   */\n      add\n        /* \"#utility.yul\":6047:6086   */\n      mstore\n        /* \"#utility.yul\":6019:6021   */\n      0x20\n        /* \"#utility.yul\":6016:6017   */\n      dup2\n        /* \"#utility.yul\":6012:6022   */\n      add\n        /* \"#utility.yul\":6007:6022   */\n      swap1\n      pop\n        /* \"#utility.yul\":5983:6096   */\n      jump(tag_289)\n    tag_291:\n        /* \"#utility.yul\":6130:6131   */\n      0x00\n        /* \"#utility.yul\":6121:6127   */\n      dup5\n        /* \"#utility.yul\":6116:6119   */\n      dup5\n        /* \"#utility.yul\":6112:6128   */\n      add\n        /* \"#utility.yul\":6105:6132   */\n      mstore\n        /* \"#utility.yul\":5954:6138   */\n      pop\n        /* \"#utility.yul\":5892:6138   */\n      pop\n      pop\n      pop\n      jump\t// out\n        /* \"#utility.yul\":6144:6501   */\n    tag_170:\n        /* \"#utility.yul\":6222:6225   */\n      0x00\n        /* \"#utility.yul\":6250:6289   */\n      tag_293\n        /* \"#utility.yul\":6283:6288   */\n      dup3\n        /* \"#utility.yul\":6250:6289   */\n      tag_167\n      jump\t// in\n    tag_293:\n        /* \"#utility.yul\":6305:6366   */\n      tag_294\n        /* \"#utility.yul\":6359:6365   */\n      dup2\n        /* \"#utility.yul\":6354:6357   */\n      dup6\n        /* \"#utility.yul\":6305:6366   */\n      tag_168\n      jump\t// in\n    tag_294:\n        /* \"#utility.yul\":6298:6366   */\n      swap4\n      pop\n        /* \"#utility.yul\":6375:6440   */\n      tag_295\n        /* \"#utility.yul\":6433:6439   */\n      dup2\n        /* \"#utility.yul\":6428:6431   */\n      dup6\n        /* \"#utility.yul\":6421:6425   */\n      0x20\n        /* \"#utility.yul\":6414:6419   */\n      dup7\n        /* \"#utility.yul\":6410:6426   */\n      add\n        /* \"#utility.yul\":6375:6440   */\n      tag_169\n      jump\t// in\n    tag_295:\n        /* \"#utility.yul\":6465:6494   */\n      tag_296\n        /* \"#utility.yul\":6487:6493   */\n      dup2\n        /* \"#utility.yul\":6465:6494   */\n      tag_154\n      jump\t// in\n    tag_296:\n        /* \"#utility.yul\":6460:6463   */\n      dup5\n        /* \"#utility.yul\":6456:6495   */\n      add\n        /* \"#utility.yul\":6449:6495   */\n      swap2\n      pop\n        /* \"#utility.yul\":6226:6501   */\n      pop\n        /* \"#utility.yul\":6144:6501   */\n      swap3\n      swap2\n      pop\n      pop\n      jump\t// out\n        /* \"#utility.yul\":6507:6612   */\n    tag_171:\n        /* \"#utility.yul\":6582:6605   */\n      tag_298\n        /* \"#utility.yul\":6599:6604   */\n      dup2\n        /* \"#utility.yul\":6582:6605   */\n      tag_161\n      jump\t// in\n    tag_298:\n        /* \"#utility.yul\":6577:6580   */\n      dup3\n        /* \"#utility.yul\":6570:6606   */\n      mstore\n        /* \"#utility.yul\":6507:6612   */\n      pop\n      pop\n      jump\t// out\n        /* \"#utility.yul\":6618:6726   */\n    tag_172:\n        /* \"#utility.yul\":6695:6719   */\n      tag_300\n        /* \"#utility.yul\":6713:6718   */\n      dup2\n        /* \"#utility.yul\":6695:6719   */\n      tag_164\n      jump\t// in\n    tag_300:\n        /* \"#utility.yul\":6690:6693   */\n      dup3\n        /* \"#utility.yul\":6683:6720   */\n      mstore\n        /* \"#utility.yul\":6618:6726   */\n      pop\n      pop\n      jump\t// out\n        /* \"#utility.yul\":6732:6831   */\n    tag_173:\n        /* \"#utility.yul\":6803:6824   */\n      tag_302\n        /* \"#utility.yul\":6818:6823   */\n      dup2\n        /* \"#utility.yul\":6803:6824   */\n      tag_150\n      jump\t// in\n    tag_302:\n        /* \"#utility.yul\":6798:6801   */\n      dup3\n        /* \"#utility.yul\":6791:6825   */\n      mstore\n        /* \"#utility.yul\":6732:6831   */\n      pop\n      pop\n      jump\t// out\n        /* \"#utility.yul\":6889:8218   */\n    tag_174:\n        /* \"#utility.yul\":7006:7009   */\n      0x00\n        /* \"#utility.yul\":7042:7046   */\n      0xc0\n        /* \"#utility.yul\":7037:7040   */\n      dup4\n        /* \"#utility.yul\":7033:7047   */\n      add\n        /* \"#utility.yul\":7133:7137   */\n      0x00\n        /* \"#utility.yul\":7126:7131   */\n      dup4\n        /* \"#utility.yul\":7122:7138   */\n      add\n        /* \"#utility.yul\":7116:7139   */\n      mload\n        /* \"#utility.yul\":7186:7189   */\n      dup5\n        /* \"#utility.yul\":7180:7184   */\n      dup3\n        /* \"#utility.yul\":7176:7190   */\n      sub\n        /* \"#utility.yul\":7169:7173   */\n      0x00\n        /* \"#utility.yul\":7164:7167   */\n      dup7\n        /* \"#utility.yul\":7160:7174   */\n      add\n        /* \"#utility.yul\":7153:7191   */\n      mstore\n        /* \"#utility.yul\":7212:7285   */\n      tag_304\n        /* \"#utility.yul\":7280:7284   */\n      dup3\n        /* \"#utility.yul\":7266:7278   */\n      dup3\n        /* \"#utility.yul\":7212:7285   */\n      tag_170\n      jump\t// in\n    tag_304:\n        /* \"#utility.yul\":7204:7285   */\n      swap2\n      pop\n        /* \"#utility.yul\":7057:7296   */\n      pop\n        /* \"#utility.yul\":7382:7386   */\n      0x20\n        /* \"#utility.yul\":7375:7380   */\n      dup4\n        /* \"#utility.yul\":7371:7387   */\n      add\n        /* \"#utility.yul\":7365:7388   */\n      mload\n        /* \"#utility.yul\":7401:7462   */\n      tag_305\n        /* \"#utility.yul\":7456:7460   */\n      0x20\n        /* \"#utility.yul\":7451:7454   */\n      dup7\n        /* \"#utility.yul\":7447:7461   */\n      add\n        /* \"#utility.yul\":7433:7445   */\n      dup3\n        /* \"#utility.yul\":7401:7462   */\n      tag_171\n      jump\t// in\n    tag_305:\n        /* \"#utility.yul\":7306:7472   */\n      pop\n        /* \"#utility.yul\":7559:7563   */\n      0x40\n        /* \"#utility.yul\":7552:7557   */\n      dup4\n        /* \"#utility.yul\":7548:7564   */\n      add\n        /* \"#utility.yul\":7542:7565   */\n      mload\n        /* \"#utility.yul\":7578:7639   */\n      tag_306\n        /* \"#utility.yul\":7633:7637   */\n      0x40\n        /* \"#utility.yul\":7628:7631   */\n      dup7\n        /* \"#utility.yul\":7624:7638   */\n      add\n        /* \"#utility.yul\":7610:7622   */\n      dup3\n        /* \"#utility.yul\":7578:7639   */\n      tag_171\n      jump\t// in\n    tag_306:\n        /* \"#utility.yul\":7482:7649   */\n      pop\n        /* \"#utility.yul\":7740:7744   */\n      0x60\n        /* \"#utility.yul\":7733:7738   */\n      dup4\n        /* \"#utility.yul\":7729:7745   */\n      add\n        /* \"#utility.yul\":7723:7746   */\n      mload\n        /* \"#utility.yul\":7759:7822   */\n      tag_307\n        /* \"#utility.yul\":7816:7820   */\n      0x60\n        /* \"#utility.yul\":7811:7814   */\n      dup7\n        /* \"#utility.yul\":7807:7821   */\n      add\n        /* \"#utility.yul\":7793:7805   */\n      dup3\n        /* \"#utility.yul\":7759:7822   */\n      tag_172\n      jump\t// in\n    tag_307:\n        /* \"#utility.yul\":7659:7832   */\n      pop\n        /* \"#utility.yul\":7923:7927   */\n      0x80\n        /* \"#utility.yul\":7916:7921   */\n      dup4\n        /* \"#utility.yul\":7912:7928   */\n      add\n        /* \"#utility.yul\":7906:7929   */\n      mload\n        /* \"#utility.yul\":7942:8005   */\n      tag_308\n        /* \"#utility.yul\":7999:8003   */\n      0x80\n        /* \"#utility.yul\":7994:7997   */\n      dup7\n        /* \"#utility.yul\":7990:8004   */\n      add\n        /* \"#utility.yul\":7976:7988   */\n      dup3\n        /* \"#utility.yul\":7942:8005   */\n      tag_172\n      jump\t// in\n    tag_308:\n        /* \"#utility.yul\":7842:8015   */\n      pop\n        /* \"#utility.yul\":8105:8109   */\n      0xa0\n        /* \"#utility.yul\":8098:8103   */\n      dup4\n        /* \"#utility.yul\":8094:8110   */\n      add\n        /* \"#utility.yul\":8088:8111   */\n      mload\n        /* \"#utility.yul\":8124:8181   */\n      tag_309\n        /* \"#utility.yul\":8175:8179   */\n      0xa0\n        /* \"#utility.yul\":8170:8173   */\n      dup7\n        /* \"#utility.yul\":8166:8180   */\n      add\n        /* \"#utility.yul\":8152:8164   */\n      dup3\n        /* \"#utility.yul\":8124:8181   */\n      tag_173\n      jump\t// in\n    tag_309:\n        /* \"#utility.yul\":8025:8191   */\n      pop\n        /* \"#utility.yul\":8208:8212   */\n      dup1\n        /* \"#utility.yul\":8201:8212   */\n      swap2\n      pop\n        /* \"#utility.yul\":7011:8218   */\n      pop\n        /* \"#utility.yul\":6889:8218   */\n      swap3\n      swap2\n      pop\n      pop\n      jump\t// out\n        /* \"#utility.yul\":8224:8593   */\n    tag_33:\n        /* \"#utility.yul\":8365:8369   */\n      0x00\n        /* \"#utility.yul\":8403:8405   */\n      0x20\n        /* \"#utility.yul\":8392:8401   */\n      dup3\n        /* \"#utility.yul\":8388:8406   */\n      add\n        /* \"#utility.yul\":8380:8406   */\n      swap1\n      pop\n        /* \"#utility.yul\":8452:8461   */\n      dup2\n        /* \"#utility.yul\":8446:8450   */\n      dup2\n        /* \"#utility.yul\":8442:8462   */\n      sub\n        /* \"#utility.yul\":8438:8439   */\n      0x00\n        /* \"#utility.yul\":8427:8436   */\n      dup4\n        /* \"#utility.yul\":8423:8440   */\n      add\n        /* \"#utility.yul\":8416:8463   */\n      mstore\n        /* \"#utility.yul\":8480:8586   */\n      tag_311\n        /* \"#utility.yul\":8581:8585   */\n      dup2\n        /* \"#utility.yul\":8572:8578   */\n      dup5\n        /* \"#utility.yul\":8480:8586   */\n      tag_174\n      jump\t// in\n    tag_311:\n        /* \"#utility.yul\":8472:8586   */\n      swap1\n      pop\n        /* \"#utility.yul\":8224:8593   */\n      swap3\n      swap2\n      pop\n      pop\n      jump\t// out\n        /* \"#utility.yul\":8599:8713   */\n    tag_175:\n        /* \"#utility.yul\":8666:8672   */\n      0x00\n        /* \"#utility.yul\":8700:8705   */\n      dup2\n        /* \"#utility.yul\":8694:8706   */\n      mload\n        /* \"#utility.yul\":8684:8706   */\n      swap1\n      pop\n        /* \"#utility.yul\":8599:8713   */\n      swap2\n      swap1\n      pop\n      jump\t// out\n        /* \"#utility.yul\":8719:8903   */\n    tag_176:\n        /* \"#utility.yul\":8818:8829   */\n      0x00\n        /* \"#utility.yul\":8852:8858   */\n      dup3\n        /* \"#utility.yul\":8847:8850   */\n      dup3\n        /* \"#utility.yul\":8840:8859   */\n      mstore\n        /* \"#utility.yul\":8892:8896   */\n      0x20\n        /* \"#utility.yul\":8887:8890   */\n      dup3\n        /* \"#utility.yul\":8883:8897   */\n      add\n        /* \"#utility.yul\":8868:8897   */\n      swap1\n      pop\n        /* \"#utility.yul\":8719:8903   */\n      swap3\n      swap2\n      pop\n      pop\n      jump\t// out\n        /* \"#utility.yul\":8909:9041   */\n    tag_177:\n        /* \"#utility.yul\":8976:8980   */\n      0x00\n        /* \"#utility.yul\":8999:9002   */\n      dup2\n        /* \"#utility.yul\":8991:9002   */\n      swap1\n      pop\n        /* \"#utility.yul\":9029:9033   */\n      0x20\n        /* \"#utility.yul\":9024:9027   */\n      dup3\n        /* \"#utility.yul\":9020:9034   */\n      add\n        /* \"#utility.yul\":9012:9034   */\n      swap1\n      pop\n        /* \"#utility.yul\":8909:9041   */\n      swap2\n      swap1\n      pop\n      jump\t// out\n        /* \"#utility.yul\":9047:9155   */\n    tag_178:\n        /* \"#utility.yul\":9124:9148   */\n      tag_316\n        /* \"#utility.yul\":9142:9147   */\n      dup2\n        /* \"#utility.yul\":9124:9148   */\n      tag_147\n      jump\t// in\n    tag_316:\n        /* \"#utility.yul\":9119:9122   */\n      dup3\n        /* \"#utility.yul\":9112:9149   */\n      mstore\n        /* \"#utility.yul\":9047:9155   */\n      pop\n      pop\n      jump\t// out\n        /* \"#utility.yul\":9161:9340   */\n    tag_179:\n        /* \"#utility.yul\":9230:9240   */\n      0x00\n        /* \"#utility.yul\":9251:9297   */\n      tag_318\n        /* \"#utility.yul\":9293:9296   */\n      dup4\n        /* \"#utility.yul\":9285:9291   */\n      dup4\n        /* \"#utility.yul\":9251:9297   */\n      tag_178\n      jump\t// in\n    tag_318:\n        /* \"#utility.yul\":9329:9333   */\n      0x20\n        /* \"#utility.yul\":9324:9327   */\n      dup4\n        /* \"#utility.yul\":9320:9334   */\n      add\n        /* \"#utility.yul\":9306:9334   */\n      swap1\n      pop\n        /* \"#utility.yul\":9161:9340   */\n      swap3\n      swap2\n      pop\n      pop\n      jump\t// out\n        /* \"#utility.yul\":9346:9459   */\n    tag_180:\n        /* \"#utility.yul\":9416:9420   */\n      0x00\n        /* \"#utility.yul\":9448:9452   */\n      0x20\n        /* \"#utility.yul\":9443:9446   */\n      dup3\n        /* \"#utility.yul\":9439:9453   */\n      add\n        /* \"#utility.yul\":9431:9453   */\n      swap1\n      pop\n        /* \"#utility.yul\":9346:9459   */\n      swap2\n      swap1\n      pop\n      jump\t// out\n        /* \"#utility.yul\":9495:10227   */\n    tag_181:\n        /* \"#utility.yul\":9614:9617   */\n      0x00\n        /* \"#utility.yul\":9643:9697   */\n      tag_321\n        /* \"#utility.yul\":9691:9696   */\n      dup3\n        /* \"#utility.yul\":9643:9697   */\n      tag_175\n      jump\t// in\n    tag_321:\n        /* \"#utility.yul\":9713:9799   */\n      tag_322\n        /* \"#utility.yul\":9792:9798   */\n      dup2\n        /* \"#utility.yul\":9787:9790   */\n      dup6\n        /* \"#utility.yul\":9713:9799   */\n      tag_176\n      jump\t// in\n    tag_322:\n        /* \"#utility.yul\":9706:9799   */\n      swap4\n      pop\n        /* \"#utility.yul\":9823:9879   */\n      tag_323\n        /* \"#utility.yul\":9873:9878   */\n      dup4\n        /* \"#utility.yul\":9823:9879   */\n      tag_177\n      jump\t// in\n    tag_323:\n        /* \"#utility.yul\":9902:9909   */\n      dup1\n        /* \"#utility.yul\":9933:9934   */\n      0x00\n        /* \"#utility.yul\":9918:10202   */\n    tag_324:\n        /* \"#utility.yul\":9943:9949   */\n      dup4\n        /* \"#utility.yul\":9940:9941   */\n      dup2\n        /* \"#utility.yul\":9937:9950   */\n      lt\n        /* \"#utility.yul\":9918:10202   */\n      iszero\n      tag_326\n      jumpi\n        /* \"#utility.yul\":10019:10025   */\n      dup2\n        /* \"#utility.yul\":10013:10026   */\n      mload\n        /* \"#utility.yul\":10046:10109   */\n      tag_327\n        /* \"#utility.yul\":10105:10108   */\n      dup9\n        /* \"#utility.yul\":10090:10103   */\n      dup3\n        /* \"#utility.yul\":10046:10109   */\n      tag_179\n      jump\t// in\n    tag_327:\n        /* \"#utility.yul\":10039:10109   */\n      swap8\n      pop\n        /* \"#utility.yul\":10132:10192   */\n      tag_328\n        /* \"#utility.yul\":10185:10191   */\n      dup4\n        /* \"#utility.yul\":10132:10192   */\n      tag_180\n      jump\t// in\n    tag_328:\n        /* \"#utility.yul\":10122:10192   */\n      swap3\n      pop\n        /* \"#utility.yul\":9978:10202   */\n      pop\n        /* \"#utility.yul\":9965:9966   */\n      0x01\n        /* \"#utility.yul\":9962:9963   */\n      dup2\n        /* \"#utility.yul\":9958:9967   */\n      add\n        /* \"#utility.yul\":9953:9967   */\n      swap1\n      pop\n        /* \"#utility.yul\":9918:10202   */\n      jump(tag_324)\n    tag_326:\n        /* \"#utility.yul\":9922:9936   */\n      pop\n        /* \"#utility.yul\":10218:10221   */\n      dup6\n        /* \"#utility.yul\":10211:10221   */\n      swap4\n      pop\n        /* \"#utility.yul\":9619:10227   */\n      pop\n      pop\n      pop\n        /* \"#utility.yul\":9495:10227   */\n      swap3\n      swap2\n      pop\n      pop\n      jump\t// out\n        /* \"#utility.yul\":10233:10606   */\n    tag_37:\n        /* \"#utility.yul\":10376:10380   */\n      0x00\n        /* \"#utility.yul\":10414:10416   */\n      0x20\n        /* \"#utility.yul\":10403:10412   */\n      dup3\n        /* \"#utility.yul\":10399:10417   */\n      add\n        /* \"#utility.yul\":10391:10417   */\n      swap1\n      pop\n        /* \"#utility.yul\":10463:10472   */\n      dup2\n        /* \"#utility.yul\":10457:10461   */\n      dup2\n        /* \"#utility.yul\":10453:10473   */\n      sub\n        /* \"#utility.yul\":10449:10450   */\n      0x00\n        /* \"#utility.yul\":10438:10447   */\n      dup4\n        /* \"#utility.yul\":10434:10451   */\n      add\n        /* \"#utility.yul\":10427:10474   */\n      mstore\n        /* \"#utility.yul\":10491:10599   */\n      tag_330\n        /* \"#utility.yul\":10594:10598   */\n      dup2\n        /* \"#utility.yul\":10585:10591   */\n      dup5\n        /* \"#utility.yul\":10491:10599   */\n      tag_181\n      jump\t// in\n    tag_330:\n        /* \"#utility.yul\":10483:10599   */\n      swap1\n      pop\n        /* \"#utility.yul\":10233:10606   */\n      swap3\n      swap2\n      pop\n      pop\n      jump\t// out\n        /* \"#utility.yul\":10612:10781   */\n    tag_182:\n        /* \"#utility.yul\":10696:10707   */\n      0x00\n        /* \"#utility.yul\":10730:10736   */\n      dup3\n        /* \"#utility.yul\":10725:10728   */\n      dup3\n        /* \"#utility.yul\":10718:10737   */\n      mstore\n        /* \"#utility.yul\":10770:10774   */\n      0x20\n        /* \"#utility.yul\":10765:10768   */\n      dup3\n        /* \"#utility.yul\":10761:10775   */\n      add\n        /* \"#utility.yul\":10746:10775   */\n      swap1\n      pop\n        /* \"#utility.yul\":10612:10781   */\n      swap3\n      swap2\n      pop\n      pop\n      jump\t// out\n        /* \"#utility.yul\":10787:11164   */\n    tag_183:\n        /* \"#utility.yul\":10875:10878   */\n      0x00\n        /* \"#utility.yul\":10903:10942   */\n      tag_333\n        /* \"#utility.yul\":10936:10941   */\n      dup3\n        /* \"#utility.yul\":10903:10942   */\n      tag_167\n      jump\t// in\n    tag_333:\n        /* \"#utility.yul\":10958:11029   */\n      tag_334\n        /* \"#utility.yul\":11022:11028   */\n      dup2\n        /* \"#utility.yul\":11017:11020   */\n      dup6\n        /* \"#utility.yul\":10958:11029   */\n      tag_182\n      jump\t// in\n    tag_334:\n        /* \"#utility.yul\":10951:11029   */\n      swap4\n      pop\n        /* \"#utility.yul\":11038:11103   */\n      tag_335\n        /* \"#utility.yul\":11096:11102   */\n      dup2\n        /* \"#utility.yul\":11091:11094   */\n      dup6\n        /* \"#utility.yul\":11084:11088   */\n      0x20\n        /* \"#utility.yul\":11077:11082   */\n      dup7\n        /* \"#utility.yul\":11073:11089   */\n      add\n        /* \"#utility.yul\":11038:11103   */\n      tag_169\n      jump\t// in\n    tag_335:\n        /* \"#utility.yul\":11128:11157   */\n      tag_336\n        /* \"#utility.yul\":11150:11156   */\n      dup2\n        /* \"#utility.yul\":11128:11157   */\n      tag_154\n      jump\t// in\n    tag_336:\n        /* \"#utility.yul\":11123:11126   */\n      dup5\n        /* \"#utility.yul\":11119:11158   */\n      add\n        /* \"#utility.yul\":11112:11158   */\n      swap2\n      pop\n        /* \"#utility.yul\":10879:11164   */\n      pop\n        /* \"#utility.yul\":10787:11164   */\n      swap3\n      swap2\n      pop\n      pop\n      jump\t// out\n        /* \"#utility.yul\":11170:11285   */\n    tag_184:\n        /* \"#utility.yul\":11255:11278   */\n      tag_338\n        /* \"#utility.yul\":11272:11277   */\n      dup2\n        /* \"#utility.yul\":11255:11278   */\n      tag_161\n      jump\t// in\n    tag_338:\n        /* \"#utility.yul\":11250:11253   */\n      dup3\n        /* \"#utility.yul\":11243:11279   */\n      mstore\n        /* \"#utility.yul\":11170:11285   */\n      pop\n      pop\n      jump\t// out\n        /* \"#utility.yul\":11291:11409   */\n    tag_185:\n        /* \"#utility.yul\":11378:11402   */\n      tag_340\n        /* \"#utility.yul\":11396:11401   */\n      dup2\n        /* \"#utility.yul\":11378:11402   */\n      tag_164\n      jump\t// in\n    tag_340:\n        /* \"#utility.yul\":11373:11376   */\n      dup3\n        /* \"#utility.yul\":11366:11403   */\n      mstore\n        /* \"#utility.yul\":11291:11409   */\n      pop\n      pop\n      jump\t// out\n        /* \"#utility.yul\":11415:12261   */\n    tag_42:\n        /* \"#utility.yul\":11658:11662   */\n      0x00\n        /* \"#utility.yul\":11696:11699   */\n      0xc0\n        /* \"#utility.yul\":11685:11694   */\n      dup3\n        /* \"#utility.yul\":11681:11700   */\n      add\n        /* \"#utility.yul\":11673:11700   */\n      swap1\n      pop\n        /* \"#utility.yul\":11746:11755   */\n      dup2\n        /* \"#utility.yul\":11740:11744   */\n      dup2\n        /* \"#utility.yul\":11736:11756   */\n      sub\n        /* \"#utility.yul\":11732:11733   */\n      0x00\n        /* \"#utility.yul\":11721:11730   */\n      dup4\n        /* \"#utility.yul\":11717:11734   */\n      add\n        /* \"#utility.yul\":11710:11757   */\n      mstore\n        /* \"#utility.yul\":11774:11852   */\n      tag_342\n        /* \"#utility.yul\":11847:11851   */\n      dup2\n        /* \"#utility.yul\":11838:11844   */\n      dup10\n        /* \"#utility.yul\":11774:11852   */\n      tag_183\n      jump\t// in\n    tag_342:\n        /* \"#utility.yul\":11766:11852   */\n      swap1\n      pop\n        /* \"#utility.yul\":11862:11932   */\n      tag_343\n        /* \"#utility.yul\":11928:11930   */\n      0x20\n        /* \"#utility.yul\":11917:11926   */\n      dup4\n        /* \"#utility.yul\":11913:11931   */\n      add\n        /* \"#utility.yul\":11904:11910   */\n      dup9\n        /* \"#utility.yul\":11862:11932   */\n      tag_184\n      jump\t// in\n    tag_343:\n        /* \"#utility.yul\":11942:12012   */\n      tag_344\n        /* \"#utility.yul\":12008:12010   */\n      0x40\n        /* \"#utility.yul\":11997:12006   */\n      dup4\n        /* \"#utility.yul\":11993:12011   */\n      add\n        /* \"#utility.yul\":11984:11990   */\n      dup8\n        /* \"#utility.yul\":11942:12012   */\n      tag_184\n      jump\t// in\n    tag_344:\n        /* \"#utility.yul\":12022:12094   */\n      tag_345\n        /* \"#utility.yul\":12090:12092   */\n      0x60\n        /* \"#utility.yul\":12079:12088   */\n      dup4\n        /* \"#utility.yul\":12075:12093   */\n      add\n        /* \"#utility.yul\":12066:12072   */\n      dup7\n        /* \"#utility.yul\":12022:12094   */\n      tag_185\n      jump\t// in\n    tag_345:\n        /* \"#utility.yul\":12104:12177   */\n      tag_346\n        /* \"#utility.yul\":12172:12175   */\n      0x80\n        /* \"#utility.yul\":12161:12170   */\n      dup4\n        /* \"#utility.yul\":12157:12176   */\n      add\n        /* \"#utility.yul\":12148:12154   */\n      dup6\n        /* \"#utility.yul\":12104:12177   */\n      tag_185\n      jump\t// in\n    tag_346:\n        /* \"#utility.yul\":12187:12254   */\n      tag_347\n        /* \"#utility.yul\":12249:12252   */\n      0xa0\n        /* \"#utility.yul\":12238:12247   */\n      dup4\n        /* \"#utility.yul\":12234:12253   */\n      add\n        /* \"#utility.yul\":12225:12231   */\n      dup5\n        /* \"#utility.yul\":12187:12254   */\n      tag_151\n      jump\t// in\n    tag_347:\n        /* \"#utility.yul\":11415:12261   */\n      swap8\n      swap7\n      pop\n      pop\n      pop\n      pop\n      pop\n      pop\n      pop\n      jump\t// out\n        /* \"#utility.yul\":12267:12405   */\n    tag_186:\n        /* \"#utility.yul\":12358:12364   */\n      0x00\n        /* \"#utility.yul\":12392:12397   */\n      dup2\n        /* \"#utility.yul\":12386:12398   */\n      mload\n        /* \"#utility.yul\":12376:12398   */\n      swap1\n      pop\n        /* \"#utility.yul\":12267:12405   */\n      swap2\n      swap1\n      pop\n      jump\t// out\n        /* \"#utility.yul\":12411:12619   */\n    tag_187:\n        /* \"#utility.yul\":12534:12545   */\n      0x00\n        /* \"#utility.yul\":12568:12574   */\n      dup3\n        /* \"#utility.yul\":12563:12566   */\n      dup3\n        /* \"#utility.yul\":12556:12575   */\n      mstore\n        /* \"#utility.yul\":12608:12612   */\n      0x20\n        /* \"#utility.yul\":12603:12606   */\n      dup3\n        /* \"#utility.yul\":12599:12613   */\n      add\n        /* \"#utility.yul\":12584:12613   */\n      swap1\n      pop\n        /* \"#utility.yul\":12411:12619   */\n      swap3\n      swap2\n      pop\n      pop\n      jump\t// out\n        /* \"#utility.yul\":12625:12781   */\n    tag_188:\n        /* \"#utility.yul\":12716:12720   */\n      0x00\n        /* \"#utility.yul\":12739:12742   */\n      dup2\n        /* \"#utility.yul\":12731:12742   */\n      swap1\n      pop\n        /* \"#utility.yul\":12769:12773   */\n      0x20\n        /* \"#utility.yul\":12764:12767   */\n      dup3\n        /* \"#utility.yul\":12760:12774   */\n      add\n        /* \"#utility.yul\":12752:12774   */\n      swap1\n      pop\n        /* \"#utility.yul\":12625:12781   */\n      swap2\n      swap1\n      pop\n      jump\t// out\n        /* \"#utility.yul\":12839:14158   */\n    tag_189:\n        /* \"#utility.yul\":12946:12949   */\n      0x00\n        /* \"#utility.yul\":12982:12986   */\n      0xc0\n        /* \"#utility.yul\":12977:12980   */\n      dup4\n        /* \"#utility.yul\":12973:12987   */\n      add\n        /* \"#utility.yul\":13073:13077   */\n      0x00\n        /* \"#utility.yul\":13066:13071   */\n      dup4\n        /* \"#utility.yul\":13062:13078   */\n      add\n        /* \"#utility.yul\":13056:13079   */\n      mload\n        /* \"#utility.yul\":13126:13129   */\n      dup5\n        /* \"#utility.yul\":13120:13124   */\n      dup3\n        /* \"#utility.yul\":13116:13130   */\n      sub\n        /* \"#utility.yul\":13109:13113   */\n      0x00\n        /* \"#utility.yul\":13104:13107   */\n      dup7\n        /* \"#utility.yul\":13100:13114   */\n      add\n        /* \"#utility.yul\":13093:13131   */\n      mstore\n        /* \"#utility.yul\":13152:13225   */\n      tag_352\n        /* \"#utility.yul\":13220:13224   */\n      dup3\n        /* \"#utility.yul\":13206:13218   */\n      dup3\n        /* \"#utility.yul\":13152:13225   */\n      tag_170\n      jump\t// in\n    tag_352:\n        /* \"#utility.yul\":13144:13225   */\n      swap2\n      pop\n        /* \"#utility.yul\":12997:13236   */\n      pop\n        /* \"#utility.yul\":13322:13326   */\n      0x20\n        /* \"#utility.yul\":13315:13320   */\n      dup4\n        /* \"#utility.yul\":13311:13327   */\n      add\n        /* \"#utility.yul\":13305:13328   */\n      mload\n        /* \"#utility.yul\":13341:13402   */\n      tag_353\n        /* \"#utility.yul\":13396:13400   */\n      0x20\n        /* \"#utility.yul\":13391:13394   */\n      dup7\n        /* \"#utility.yul\":13387:13401   */\n      add\n        /* \"#utility.yul\":13373:13385   */\n      dup3\n        /* \"#utility.yul\":13341:13402   */\n      tag_171\n      jump\t// in\n    tag_353:\n        /* \"#utility.yul\":13246:13412   */\n      pop\n        /* \"#utility.yul\":13499:13503   */\n      0x40\n        /* \"#utility.yul\":13492:13497   */\n      dup4\n        /* \"#utility.yul\":13488:13504   */\n      add\n        /* \"#utility.yul\":13482:13505   */\n      mload\n        /* \"#utility.yul\":13518:13579   */\n      tag_354\n        /* \"#utility.yul\":13573:13577   */\n      0x40\n        /* \"#utility.yul\":13568:13571   */\n      dup7\n        /* \"#utility.yul\":13564:13578   */\n      add\n        /* \"#utility.yul\":13550:13562   */\n      dup3\n        /* \"#utility.yul\":13518:13579   */\n      tag_171\n      jump\t// in\n    tag_354:\n        /* \"#utility.yul\":13422:13589   */\n      pop\n        /* \"#utility.yul\":13680:13684   */\n      0x60\n        /* \"#utility.yul\":13673:13678   */\n      dup4\n        /* \"#utility.yul\":13669:13685   */\n      add\n        /* \"#utility.yul\":13663:13686   */\n      mload\n        /* \"#utility.yul\":13699:13762   */\n      tag_355\n        /* \"#utility.yul\":13756:13760   */\n      0x60\n        /* \"#utility.yul\":13751:13754   */\n      dup7\n        /* \"#utility.yul\":13747:13761   */\n      add\n        /* \"#utility.yul\":13733:13745   */\n      dup3\n        /* \"#utility.yul\":13699:13762   */\n      tag_172\n      jump\t// in\n    tag_355:\n        /* \"#utility.yul\":13599:13772   */\n      pop\n        /* \"#utility.yul\":13863:13867   */\n      0x80\n        /* \"#utility.yul\":13856:13861   */\n      dup4\n        /* \"#utility.yul\":13852:13868   */\n      add\n        /* \"#utility.yul\":13846:13869   */\n      mload\n        /* \"#utility.yul\":13882:13945   */\n      tag_356\n        /* \"#utility.yul\":13939:13943   */\n      0x80\n        /* \"#utility.yul\":13934:13937   */\n      dup7\n        /* \"#utility.yul\":13930:13944   */\n      add\n        /* \"#utility.yul\":13916:13928   */\n      dup3\n        /* \"#utility.yul\":13882:13945   */\n      tag_172\n      jump\t// in\n    tag_356:\n        /* \"#utility.yul\":13782:13955   */\n      pop\n        /* \"#utility.yul\":14045:14049   */\n      0xa0\n        /* \"#utility.yul\":14038:14043   */\n      dup4\n        /* \"#utility.yul\":14034:14050   */\n      add\n        /* \"#utility.yul\":14028:14051   */\n      mload\n        /* \"#utility.yul\":14064:14121   */\n      tag_357\n        /* \"#utility.yul\":14115:14119   */\n      0xa0\n        /* \"#utility.yul\":14110:14113   */\n      dup7\n        /* \"#utility.yul\":14106:14120   */\n      add\n        /* \"#utility.yul\":14092:14104   */\n      dup3\n        /* \"#utility.yul\":14064:14121   */\n      tag_173\n      jump\t// in\n    tag_357:\n        /* \"#utility.yul\":13965:14131   */\n      pop\n        /* \"#utility.yul\":14148:14152   */\n      dup1\n        /* \"#utility.yul\":14141:14152   */\n      swap2\n      pop\n        /* \"#utility.yul\":12951:14158   */\n      pop\n        /* \"#utility.yul\":12839:14158   */\n      swap3\n      swap2\n      pop\n      pop\n      jump\t// out\n        /* \"#utility.yul\":14164:14416   */\n    tag_190:\n        /* \"#utility.yul\":14281:14291   */\n      0x00\n        /* \"#utility.yul\":14316:14410   */\n      tag_359\n        /* \"#utility.yul\":14406:14409   */\n      dup4\n        /* \"#utility.yul\":14398:14404   */\n      dup4\n        /* \"#utility.yul\":14316:14410   */\n      tag_189\n      jump\t// in\n    tag_359:\n        /* \"#utility.yul\":14302:14410   */\n      swap1\n      pop\n        /* \"#utility.yul\":14164:14416   */\n      swap3\n      swap2\n      pop\n      pop\n      jump\t// out\n        /* \"#utility.yul\":14422:14559   */\n    tag_191:\n        /* \"#utility.yul\":14516:14520   */\n      0x00\n        /* \"#utility.yul\":14548:14552   */\n      0x20\n        /* \"#utility.yul\":14543:14546   */\n      dup3\n        /* \"#utility.yul\":14539:14553   */\n      add\n        /* \"#utility.yul\":14531:14553   */\n      swap1\n      pop\n        /* \"#utility.yul\":14422:14559   */\n      swap2\n      swap1\n      pop\n      jump\t// out\n        /* \"#utility.yul\":14621:15724   */\n    tag_192:\n        /* \"#utility.yul\":14788:14791   */\n      0x00\n        /* \"#utility.yul\":14817:14895   */\n      tag_362\n        /* \"#utility.yul\":14889:14894   */\n      dup3\n        /* \"#utility.yul\":14817:14895   */\n      tag_186\n      jump\t// in\n    tag_362:\n        /* \"#utility.yul\":14911:15021   */\n      tag_363\n        /* \"#utility.yul\":15014:15020   */\n      dup2\n        /* \"#utility.yul\":15009:15012   */\n      dup6\n        /* \"#utility.yul\":14911:15021   */\n      tag_187\n      jump\t// in\n    tag_363:\n        /* \"#utility.yul\":14904:15021   */\n      swap4\n      pop\n        /* \"#utility.yul\":15047:15050   */\n      dup4\n        /* \"#utility.yul\":15092:15096   */\n      0x20\n        /* \"#utility.yul\":15084:15090   */\n      dup3\n        /* \"#utility.yul\":15080:15097   */\n      mul\n        /* \"#utility.yul\":15075:15078   */\n      dup6\n        /* \"#utility.yul\":15071:15098   */\n      add\n        /* \"#utility.yul\":15122:15202   */\n      tag_364\n        /* \"#utility.yul\":15196:15201   */\n      dup6\n        /* \"#utility.yul\":15122:15202   */\n      tag_188\n      jump\t// in\n    tag_364:\n        /* \"#utility.yul\":15225:15232   */\n      dup1\n        /* \"#utility.yul\":15256:15257   */\n      0x00\n        /* \"#utility.yul\":15241:15679   */\n    tag_365:\n        /* \"#utility.yul\":15266:15272   */\n      dup6\n        /* \"#utility.yul\":15263:15264   */\n      dup2\n        /* \"#utility.yul\":15260:15273   */\n      lt\n        /* \"#utility.yul\":15241:15679   */\n      iszero\n      tag_367\n      jumpi\n        /* \"#utility.yul\":15337:15346   */\n      dup5\n        /* \"#utility.yul\":15331:15335   */\n      dup5\n        /* \"#utility.yul\":15327:15347   */\n      sub\n        /* \"#utility.yul\":15322:15325   */\n      dup10\n        /* \"#utility.yul\":15315:15348   */\n      mstore\n        /* \"#utility.yul\":15388:15394   */\n      dup2\n        /* \"#utility.yul\":15382:15395   */\n      mload\n        /* \"#utility.yul\":15416:15528   */\n      tag_368\n        /* \"#utility.yul\":15523:15527   */\n      dup6\n        /* \"#utility.yul\":15508:15521   */\n      dup3\n        /* \"#utility.yul\":15416:15528   */\n      tag_190\n      jump\t// in\n    tag_368:\n        /* \"#utility.yul\":15408:15528   */\n      swap5\n      pop\n        /* \"#utility.yul\":15551:15635   */\n      tag_369\n        /* \"#utility.yul\":15628:15634   */\n      dup4\n        /* \"#utility.yul\":15551:15635   */\n      tag_191\n      jump\t// in\n    tag_369:\n        /* \"#utility.yul\":15541:15635   */\n      swap3\n      pop\n        /* \"#utility.yul\":15664:15668   */\n      0x20\n        /* \"#utility.yul\":15659:15662   */\n      dup11\n        /* \"#utility.yul\":15655:15669   */\n      add\n        /* \"#utility.yul\":15648:15669   */\n      swap10\n      pop\n        /* \"#utility.yul\":15301:15679   */\n      pop\n        /* \"#utility.yul\":15288:15289   */\n      0x01\n        /* \"#utility.yul\":15285:15286   */\n      dup2\n        /* \"#utility.yul\":15281:15290   */\n      add\n        /* \"#utility.yul\":15276:15290   */\n      swap1\n      pop\n        /* \"#utility.yul\":15241:15679   */\n      jump(tag_365)\n    tag_367:\n        /* \"#utility.yul\":15245:15259   */\n      pop\n        /* \"#utility.yul\":15695:15699   */\n      dup3\n        /* \"#utility.yul\":15688:15699   */\n      swap8\n      pop\n        /* \"#utility.yul\":15715:15718   */\n      dup8\n        /* \"#utility.yul\":15708:15718   */\n      swap6\n      pop\n        /* \"#utility.yul\":14793:15724   */\n      pop\n      pop\n      pop\n      pop\n      pop\n        /* \"#utility.yul\":14621:15724   */\n      swap3\n      swap2\n      pop\n      pop\n      jump\t// out\n        /* \"#utility.yul\":15730:16199   */\n    tag_46:\n        /* \"#utility.yul\":15921:15925   */\n      0x00\n        /* \"#utility.yul\":15959:15961   */\n      0x20\n        /* \"#utility.yul\":15948:15957   */\n      dup3\n        /* \"#utility.yul\":15944:15962   */\n      add\n        /* \"#utility.yul\":15936:15962   */\n      swap1\n      pop\n        /* \"#utility.yul\":16008:16017   */\n      dup2\n        /* \"#utility.yul\":16002:16006   */\n      dup2\n        /* \"#utility.yul\":15998:16018   */\n      sub\n        /* \"#utility.yul\":15994:15995   */\n      0x00\n        /* \"#utility.yul\":15983:15992   */\n      dup4\n        /* \"#utility.yul\":15979:15996   */\n      add\n        /* \"#utility.yul\":15972:16019   */\n      mstore\n        /* \"#utility.yul\":16036:16192   */\n      tag_371\n        /* \"#utility.yul\":16187:16191   */\n      dup2\n        /* \"#utility.yul\":16178:16184   */\n      dup5\n        /* \"#utility.yul\":16036:16192   */\n      tag_192\n      jump\t// in\n    tag_371:\n        /* \"#utility.yul\":16028:16192   */\n      swap1\n      pop\n        /* \"#utility.yul\":15730:16199   */\n      swap3\n      swap2\n      pop\n      pop\n      jump\t// out\n        /* \"#utility.yul\":16205:16323   */\n    tag_193:\n        /* \"#utility.yul\":16292:16316   */\n      tag_373\n        /* \"#utility.yul\":16310:16315   */\n      dup2\n        /* \"#utility.yul\":16292:16316   */\n      tag_147\n      jump\t// in\n    tag_373:\n        /* \"#utility.yul\":16287:16290   */\n      dup3\n        /* \"#utility.yul\":16280:16317   */\n      mstore\n        /* \"#utility.yul\":16205:16323   */\n      pop\n      pop\n      jump\t// out\n        /* \"#utility.yul\":16329:16551   */\n    tag_50:\n        /* \"#utility.yul\":16422:16426   */\n      0x00\n        /* \"#utility.yul\":16460:16462   */\n      0x20\n        /* \"#utility.yul\":16449:16458   */\n      dup3\n        /* \"#utility.yul\":16445:16463   */\n      add\n        /* \"#utility.yul\":16437:16463   */\n      swap1\n      pop\n        /* \"#utility.yul\":16473:16544   */\n      tag_375\n        /* \"#utility.yul\":16541:16542   */\n      0x00\n        /* \"#utility.yul\":16530:16539   */\n      dup4\n        /* \"#utility.yul\":16526:16543   */\n      add\n        /* \"#utility.yul\":16517:16523   */\n      dup5\n        /* \"#utility.yul\":16473:16544   */\n      tag_193\n      jump\t// in\n    tag_375:\n        /* \"#utility.yul\":16329:16551   */\n      swap3\n      swap2\n      pop\n      pop\n      jump\t// out\n        /* \"#utility.yul\":16557:16731   */\n    tag_194:\n        /* \"#utility.yul\":16697:16723   */\n      0x5573657220616c726561647920726567697374657265642e0000000000000000\n        /* \"#utility.yul\":16693:16694   */\n      0x00\n        /* \"#utility.yul\":16685:16691   */\n      dup3\n        /* \"#utility.yul\":16681:16695   */\n      add\n        /* \"#utility.yul\":16674:16724   */\n      mstore\n        /* \"#utility.yul\":16557:16731   */\n      pop\n      jump\t// out\n        /* \"#utility.yul\":16737:17103   */\n    tag_195:\n        /* \"#utility.yul\":16879:16882   */\n      0x00\n        /* \"#utility.yul\":16900:16967   */\n      tag_378\n        /* \"#utility.yul\":16964:16966   */\n      0x18\n        /* \"#utility.yul\":16959:16962   */\n      dup4\n        /* \"#utility.yul\":16900:16967   */\n      tag_182\n      jump\t// in\n    tag_378:\n        /* \"#utility.yul\":16893:16967   */\n      swap2\n      pop\n        /* \"#utility.yul\":16976:17069   */\n      tag_379\n        /* \"#utility.yul\":17065:17068   */\n      dup3\n        /* \"#utility.yul\":16976:17069   */\n      tag_194\n      jump\t// in\n    tag_379:\n        /* \"#utility.yul\":17094:17096   */\n      0x20\n        /* \"#utility.yul\":17089:17092   */\n      dup3\n        /* \"#utility.yul\":17085:17097   */\n      add\n        /* \"#utility.yul\":17078:17097   */\n      swap1\n      pop\n        /* \"#utility.yul\":16737:17103   */\n      swap2\n      swap1\n      pop\n      jump\t// out\n        /* \"#utility.yul\":17109:17528   */\n    tag_55:\n        /* \"#utility.yul\":17275:17279   */\n      0x00\n        /* \"#utility.yul\":17313:17315   */\n      0x20\n        /* \"#utility.yul\":17302:17311   */\n      dup3\n        /* \"#utility.yul\":17298:17316   */\n      add\n        /* \"#utility.yul\":17290:17316   */\n      swap1\n      pop\n        /* \"#utility.yul\":17362:17371   */\n      dup2\n        /* \"#utility.yul\":17356:17360   */\n      dup2\n        /* \"#utility.yul\":17352:17372   */\n      sub\n        /* \"#utility.yul\":17348:17349   */\n      0x00\n        /* \"#utility.yul\":17337:17346   */\n      dup4\n        /* \"#utility.yul\":17333:17350   */\n      add\n        /* \"#utility.yul\":17326:17373   */\n      mstore\n        /* \"#utility.yul\":17390:17521   */\n      tag_381\n        /* \"#utility.yul\":17516:17520   */\n      dup2\n        /* \"#utility.yul\":17390:17521   */\n      tag_195\n      jump\t// in\n    tag_381:\n        /* \"#utility.yul\":17382:17521   */\n      swap1\n      pop\n        /* \"#utility.yul\":17109:17528   */\n      swap2\n      swap1\n      pop\n      jump\t// out\n        /* \"#utility.yul\":17534:17714   */\n    tag_196:\n        /* \"#utility.yul\":17582:17659   */\n      0x4e487b7100000000000000000000000000000000000000000000000000000000\n        /* \"#utility.yul\":17579:17580   */\n      0x00\n        /* \"#utility.yul\":17572:17660   */\n      mstore\n        /* \"#utility.yul\":17679:17683   */\n      0x22\n        /* \"#utility.yul\":17676:17677   */\n      0x04\n        /* \"#utility.yul\":17669:17684   */\n      mstore\n        /* \"#utility.yul\":17703:17707   */\n      0x24\n        /* \"#utility.yul\":17700:17701   */\n      0x00\n        /* \"#utility.yul\":17693:17708   */\n      revert\n        /* \"#utility.yul\":17720:18040   */\n    tag_103:\n        /* \"#utility.yul\":17764:17770   */\n      0x00\n        /* \"#utility.yul\":17801:17802   */\n      0x02\n        /* \"#utility.yul\":17795:17799   */\n      dup3\n        /* \"#utility.yul\":17791:17803   */\n      div\n        /* \"#utility.yul\":17781:17803   */\n      swap1\n      pop\n        /* \"#utility.yul\":17848:17849   */\n      0x01\n        /* \"#utility.yul\":17842:17846   */\n      dup3\n        /* \"#utility.yul\":17838:17850   */\n      and\n        /* \"#utility.yul\":17869:17887   */\n      dup1\n        /* \"#utility.yul\":17859:17940   */\n      tag_384\n      jumpi\n        /* \"#utility.yul\":17925:17929   */\n      0x7f\n        /* \"#utility.yul\":17917:17923   */\n      dup3\n        /* \"#utility.yul\":17913:17930   */\n      and\n        /* \"#utility.yul\":17903:17930   */\n      swap2\n      pop\n        /* \"#utility.yul\":17859:17940   */\n    tag_384:\n        /* \"#utility.yul\":17987:17989   */\n      0x20\n        /* \"#utility.yul\":17979:17985   */\n      dup3\n        /* \"#utility.yul\":17976:17990   */\n      lt\n        /* \"#utility.yul\":17956:17974   */\n      dup2\n        /* \"#utility.yul\":17953:17991   */\n      sub\n        /* \"#utility.yul\":17950:18034   */\n      tag_385\n      jumpi\n        /* \"#utility.yul\":18006:18024   */\n      tag_386\n      tag_196\n      jump\t// in\n    tag_386:\n        /* \"#utility.yul\":17950:18034   */\n    tag_385:\n        /* \"#utility.yul\":17771:18040   */\n      pop\n        /* \"#utility.yul\":17720:18040   */\n      swap2\n      swap1\n      pop\n      jump\t// out\n        /* \"#utility.yul\":18046:18187   */\n    tag_197:\n        /* \"#utility.yul\":18095:18099   */\n      0x00\n        /* \"#utility.yul\":18118:18121   */\n      dup2\n        /* \"#utility.yul\":18110:18121   */\n      swap1\n      pop\n        /* \"#utility.yul\":18141:18144   */\n      dup2\n        /* \"#utility.yul\":18138:18139   */\n      0x00\n        /* \"#utility.yul\":18131:18145   */\n      mstore\n        /* \"#utility.yul\":18175:18179   */\n      0x20\n        /* \"#utility.yul\":18172:18173   */\n      0x00\n        /* \"#utility.yul\":18162:18180   */\n      keccak256\n        /* \"#utility.yul\":18154:18180   */\n      swap1\n      pop\n        /* \"#utility.yul\":18046:18187   */\n      swap2\n      swap1\n      pop\n      jump\t// out\n        /* \"#utility.yul\":18193:18286   */\n    tag_198:\n        /* \"#utility.yul\":18230:18236   */\n      0x00\n        /* \"#utility.yul\":18277:18279   */\n      0x20\n        /* \"#utility.yul\":18272:18274   */\n      0x1f\n        /* \"#utility.yul\":18265:18270   */\n      dup4\n        /* \"#utility.yul\":18261:18275   */\n      add\n        /* \"#utility.yul\":18257:18280   */\n      div\n        /* \"#utility.yul\":18247:18280   */\n      swap1\n      pop\n        /* \"#utility.yul\":18193:18286   */\n      swap2\n      swap1\n      pop\n      jump\t// out\n        /* \"#utility.yul\":18292:18399   */\n    tag_199:\n        /* \"#utility.yul\":18336:18344   */\n      0x00\n        /* \"#utility.yul\":18386:18391   */\n      dup3\n        /* \"#utility.yul\":18380:18384   */\n      dup3\n        /* \"#utility.yul\":18376:18392   */\n      shl\n        /* \"#utility.yul\":18355:18392   */\n      swap1\n      pop\n        /* \"#utility.yul\":18292:18399   */\n      swap3\n      swap2\n      pop\n      pop\n      jump\t// out\n        /* \"#utility.yul\":18405:18798   */\n    tag_200:\n        /* \"#utility.yul\":18474:18480   */\n      0x00\n        /* \"#utility.yul\":18524:18525   */\n      0x08\n        /* \"#utility.yul\":18512:18522   */\n      dup4\n        /* \"#utility.yul\":18508:18526   */\n      mul\n        /* \"#utility.yul\":18547:18644   */\n      tag_391\n        /* \"#utility.yul\":18577:18643   */\n      0xffffffffffffffffffffffffffffffffffffffffffffffffffffffffffffffff\n        /* \"#utility.yul\":18566:18575   */\n      dup3\n        /* \"#utility.yul\":18547:18644   */\n      tag_199\n      jump\t// in\n    tag_391:\n        /* \"#utility.yul\":18665:18704   */\n      tag_392\n        /* \"#utility.yul\":18695:18703   */\n      dup7\n        /* \"#utility.yul\":18684:18693   */\n      dup4\n        /* \"#utility.yul\":18665:18704   */\n      tag_199\n      jump\t// in\n    tag_392:\n        /* \"#utility.yul\":18653:18704   */\n      swap6\n      pop\n        /* \"#utility.yul\":18737:18741   */\n      dup1\n        /* \"#utility.yul\":18733:18742   */\n      not\n        /* \"#utility.yul\":18726:18731   */\n      dup5\n        /* \"#utility.yul\":18722:18743   */\n      and\n        /* \"#utility.yul\":18713:18743   */\n      swap4\n      pop\n        /* \"#utility.yul\":18786:18790   */\n      dup1\n        /* \"#utility.yul\":18776:18784   */\n      dup7\n        /* \"#utility.yul\":18772:18791   */\n      and\n        /* \"#utility.yul\":18765:18770   */\n      dup5\n        /* \"#utility.yul\":18762:18792   */\n      or\n        /* \"#utility.yul\":18752:18792   */\n      swap3\n      pop\n        /* \"#utility.yul\":18481:18798   */\n      pop\n      pop\n        /* \"#utility.yul\":18405:18798   */\n      swap4\n      swap3\n      pop\n      pop\n      pop\n      jump\t// out\n        /* \"#utility.yul\":18804:18864   */\n    tag_201:\n        /* \"#utility.yul\":18832:18835   */\n      0x00\n        /* \"#utility.yul\":18853:18858   */\n      dup2\n        /* \"#utility.yul\":18846:18858   */\n      swap1\n      pop\n        /* \"#utility.yul\":18804:18864   */\n      swap2\n      swap1\n      pop\n      jump\t// out\n        /* \"#utility.yul\":18870:19012   */\n    tag_202:\n        /* \"#utility.yul\":18920:18929   */\n      0x00\n        /* \"#utility.yul\":18953:19006   */\n      tag_395\n        /* \"#utility.yul\":18971:19005   */\n      tag_396\n        /* \"#utility.yul\":18980:19004   */\n      tag_397\n        /* \"#utility.yul\":18998:19003   */\n      dup5\n        /* \"#utility.yul\":18980:19004   */\n      tag_164\n      jump\t// in\n    tag_397:\n        /* \"#utility.yul\":18971:19005   */\n      tag_201\n      jump\t// in\n    tag_396:\n        /* \"#utility.yul\":18953:19006   */\n      tag_164\n      jump\t// in\n    tag_395:\n        /* \"#utility.yul\":18940:19006   */\n      swap1\n      pop\n        /* \"#utility.yul\":18870:19012   */\n      swap2\n      swap1\n      pop\n      jump\t// out\n        /* \"#utility.yul\":19018:19093   */\n    tag_203:\n        /* \"#utility.yul\":19061:19064   */\n      0x00\n        /* \"#utility.yul\":19082:19087   */\n      dup2\n        /* \"#utility.yul\":19075:19087   */\n      swap1\n      pop\n        /* \"#utility.yul\":19018:19093   */\n      swap2\n      swap1\n      pop\n      jump\t// out\n        /* \"#utility.yul\":19099:19368   */\n    tag_204:\n        /* \"#utility.yul\":19209:19248   */\n      tag_400\n        /* \"#utility.yul\":19240:19247   */\n      dup4\n        /* \"#utility.yul\":19209:19248   */\n      tag_202\n      jump\t// in\n    tag_400:\n        /* \"#utility.yul\":19270:19361   */\n      tag_401\n        /* \"#utility.yul\":19319:19360   */\n      tag_402\n        /* \"#utility.yul\":19343:19359   */\n      dup3\n        /* \"#utility.yul\":19319:19360   */\n      tag_203\n      jump\t// in\n    tag_402:\n        /* \"#utility.yul\":19311:19317   */\n      dup5\n        /* \"#utility.yul\":19304:19308   */\n      dup5\n        /* \"#utility.yul\":19298:19309   */\n      sload\n        /* \"#utility.yul\":19270:19361   */\n      tag_200\n      jump\t// in\n    tag_401:\n        /* \"#utility.yul\":19264:19268   */\n      dup3\n        /* \"#utility.yul\":19257:19362   */\n      sstore\n        /* \"#utility.yul\":19175:19368   */\n      pop\n        /* \"#utility.yul\":19099:19368   */\n      pop\n      pop\n      pop\n      jump\t// out\n        /* \"#utility.yul\":19374:19447   */\n    tag_205:\n        /* \"#utility.yul\":19419:19422   */\n      0x00\n        /* \"#utility.yul\":19374:19447   */\n      swap1\n      jump\t// out\n        /* \"#utility.yul\":19453:19642   */\n    tag_206:\n        /* \"#utility.yul\":19530:19562   */\n      tag_405\n      tag_205\n      jump\t// in\n    tag_405:\n        /* \"#utility.yul\":19571:19636   */\n      tag_406\n        /* \"#utility.yul\":19629:19635   */\n      dup2\n        /* \"#utility.yul\":19621:19627   */\n      dup5\n        /* \"#utility.yul\":19615:19619   */\n      dup5\n        /* \"#utility.yul\":19571:19636   */\n      tag_204\n      jump\t// in\n    tag_406:\n        /* \"#utility.yul\":19506:19642   */\n      pop\n        /* \"#utility.yul\":19453:19642   */\n      pop\n      pop\n      jump\t// out\n        /* \"#utility.yul\":19648:19834   */\n    tag_207:\n        /* \"#utility.yul\":19708:19828   */\n    tag_408:\n        /* \"#utility.yul\":19725:19728   */\n      dup2\n        /* \"#utility.yul\":19718:19723   */\n      dup2\n        /* \"#utility.yul\":19715:19729   */\n      lt\n        /* \"#utility.yul\":19708:19828   */\n      iszero\n      tag_410\n      jumpi\n        /* \"#utility.yul\":19779:19818   */\n      tag_411\n        /* \"#utility.yul\":19816:19817   */\n      0x00\n        /* \"#utility.yul\":19809:19814   */\n      dup3\n        /* \"#utility.yul\":19779:19818   */\n      tag_206\n      jump\t// in\n    tag_411:\n        /* \"#utility.yul\":19752:19753   */\n      0x01\n        /* \"#utility.yul\":19745:19750   */\n      dup2\n        /* \"#utility.yul\":19741:19754   */\n      add\n        /* \"#utility.yul\":19732:19754   */\n      swap1\n      pop\n        /* \"#utility.yul\":19708:19828   */\n      jump(tag_408)\n    tag_410:\n        /* \"#utility.yul\":19648:19834   */\n      pop\n      pop\n      jump\t// out\n        /* \"#utility.yul\":19840:20383   */\n    tag_208:\n        /* \"#utility.yul\":19941:19943   */\n      0x1f\n        /* \"#utility.yul\":19936:19939   */\n      dup3\n        /* \"#utility.yul\":19933:19944   */\n      gt\n        /* \"#utility.yul\":19930:20376   */\n      iszero\n      tag_413\n      jumpi\n        /* \"#utility.yul\":19975:20013   */\n      tag_414\n        /* \"#utility.yul\":20007:20012   */\n      dup2\n        /* \"#utility.yul\":19975:20013   */\n      tag_197\n      jump\t// in\n    tag_414:\n        /* \"#utility.yul\":20059:20088   */\n      tag_415\n        /* \"#utility.yul\":20077:20087   */\n      dup5\n        /* \"#utility.yul\":20059:20088   */\n      tag_198\n      jump\t// in\n    tag_415:\n        /* \"#utility.yul\":20049:20057   */\n      dup2\n        /* \"#utility.yul\":20045:20089   */\n      add\n        /* \"#utility.yul\":20242:20244   */\n      0x20\n        /* \"#utility.yul\":20230:20240   */\n      dup6\n        /* \"#utility.yul\":20227:20245   */\n      lt\n        /* \"#utility.yul\":20224:20273   */\n      iszero\n      tag_416\n      jumpi\n        /* \"#utility.yul\":20263:20271   */\n      dup2\n        /* \"#utility.yul\":20248:20271   */\n      swap1\n      pop\n        /* \"#utility.yul\":20224:20273   */\n    tag_416:\n        /* \"#utility.yul\":20286:20366   */\n      tag_417\n        /* \"#utility.yul\":20342:20364   */\n      tag_418\n        /* \"#utility.yul\":20360:20363   */\n      dup6\n        /* \"#utility.yul\":20342:20364   */\n      tag_198\n      jump\t// in\n    tag_418:\n        /* \"#utility.yul\":20332:20340   */\n      dup4\n        /* \"#utility.yul\":20328:20365   */\n      add\n        /* \"#utility.yul\":20315:20326   */\n      dup3\n        /* \"#utility.yul\":20286:20366   */\n      tag_207\n      jump\t// in\n    tag_417:\n        /* \"#utility.yul\":19945:20376   */\n      pop\n      pop\n        /* \"#utility.yul\":19930:20376   */\n    tag_413:\n        /* \"#utility.yul\":19840:20383   */\n      pop\n      pop\n      pop\n      jump\t// out\n        /* \"#utility.yul\":20389:20506   */\n    tag_209:\n        /* \"#utility.yul\":20443:20451   */\n      0x00\n        /* \"#utility.yul\":20493:20498   */\n      dup3\n        /* \"#utility.yul\":20487:20491   */\n      dup3\n        /* \"#utility.yul\":20483:20499   */\n      shr\n        /* \"#utility.yul\":20462:20499   */\n      swap1\n      pop\n        /* \"#utility.yul\":20389:20506   */\n      swap3\n      swap2\n      pop\n      pop\n      jump\t// out\n        /* \"#utility.yul\":20512:20681   */\n    tag_210:\n        /* \"#utility.yul\":20556:20562   */\n      0x00\n        /* \"#utility.yul\":20589:20640   */\n      tag_421\n        /* \"#utility.yul\":20637:20638   */\n      0x00\n        /* \"#utility.yul\":20633:20639   */\n      not\n        /* \"#utility.yul\":20625:20630   */\n      dup5\n        /* \"#utility.yul\":20622:20623   */\n      0x08\n        /* \"#utility.yul\":20618:20631   */\n      mul\n        /* \"#utility.yul\":20589:20640   */\n      tag_209\n      jump\t// in\n    tag_421:\n        /* \"#utility.yul\":20585:20641   */\n      not\n        /* \"#utility.yul\":20670:20674   */\n      dup1\n        /* \"#utility.yul\":20664:20668   */\n      dup4\n        /* \"#utility.yul\":20660:20675   */\n      and\n        /* \"#utility.yul\":20650:20675   */\n      swap2\n      pop\n        /* \"#utility.yul\":20563:20681   */\n      pop\n        /* \"#utility.yul\":20512:20681   */\n      swap3\n      swap2\n      pop\n      pop\n      jump\t// out\n        /* \"#utility.yul\":20686:20981   */\n    tag_211:\n        /* \"#utility.yul\":20762:20766   */\n      0x00\n        /* \"#utility.yul\":20908:20937   */\n      tag_423\n        /* \"#utility.yul\":20933:20936   */\n      dup4\n        /* \"#utility.yul\":20927:20931   */\n      dup4\n        /* \"#utility.yul\":20908:20937   */\n      tag_210\n      jump\t// in\n    tag_423:\n        /* \"#utility.yul\":20900:20937   */\n      swap2\n      pop\n        /* \"#utility.yul\":20970:20973   */\n      dup3\n        /* \"#utility.yul\":20967:20968   */\n      0x02\n        /* \"#utility.yul\":20963:20974   */\n      mul\n        /* \"#utility.yul\":20957:20961   */\n      dup3\n        /* \"#utility.yul\":20954:20975   */\n      or\n        /* \"#utility.yul\":20946:20975   */\n      swap1\n      pop\n        /* \"#utility.yul\":20686:20981   */\n      swap3\n      swap2\n      pop\n      pop\n      jump\t// out\n        /* \"#utility.yul\":20986:22381   */\n    tag_58:\n        /* \"#utility.yul\":21103:21140   */\n      tag_425\n        /* \"#utility.yul\":21136:21139   */\n      dup3\n        /* \"#utility.yul\":21103:21140   */\n      tag_167\n      jump\t// in\n    tag_425:\n        /* \"#utility.yul\":21205:21223   */\n      0xffffffffffffffff\n        /* \"#utility.yul\":21197:21203   */\n      dup2\n        /* \"#utility.yul\":21194:21224   */\n      gt\n        /* \"#utility.yul\":21191:21247   */\n      iszero\n      tag_426\n      jumpi\n        /* \"#utility.yul\":21227:21245   */\n      tag_427\n      tag_119\n      jump\t// in\n    tag_427:\n        /* \"#utility.yul\":21191:21247   */\n    tag_426:\n        /* \"#utility.yul\":21271:21309   */\n      tag_428\n        /* \"#utility.yul\":21303:21307   */\n      dup3\n        /* \"#utility.yul\":21297:21308   */\n      sload\n        /* \"#utility.yul\":21271:21309   */\n      tag_103\n      jump\t// in\n    tag_428:\n        /* \"#utility.yul\":21356:21423   */\n      tag_429\n        /* \"#utility.yul\":21416:21422   */\n      dup3\n        /* \"#utility.yul\":21408:21414   */\n      dup3\n        /* \"#utility.yul\":21402:21406   */\n      dup6\n        /* \"#utility.yul\":21356:21423   */\n      tag_208\n      jump\t// in\n    tag_429:\n        /* \"#utility.yul\":21450:21451   */\n      0x00\n        /* \"#utility.yul\":21474:21478   */\n      0x20\n        /* \"#utility.yul\":21461:21478   */\n      swap1\n      pop\n        /* \"#utility.yul\":21506:21508   */\n      0x1f\n        /* \"#utility.yul\":21498:21504   */\n      dup4\n        /* \"#utility.yul\":21495:21509   */\n      gt\n        /* \"#utility.yul\":21523:21524   */\n      0x01\n        /* \"#utility.yul\":21518:22136   */\n      dup2\n      eq\n      tag_431\n      jumpi\n        /* \"#utility.yul\":22180:22181   */\n      0x00\n        /* \"#utility.yul\":22197:22203   */\n      dup5\n        /* \"#utility.yul\":22194:22271   */\n      iszero\n      tag_432\n      jumpi\n        /* \"#utility.yul\":22246:22255   */\n      dup3\n        /* \"#utility.yul\":22241:22244   */\n      dup8\n        /* \"#utility.yul\":22237:22256   */\n      add\n        /* \"#utility.yul\":22231:22257   */\n      mload\n        /* \"#utility.yul\":22222:22257   */\n      swap1\n      pop\n        /* \"#utility.yul\":22194:22271   */\n    tag_432:\n        /* \"#utility.yul\":22297:22364   */\n      tag_433\n        /* \"#utility.yul\":22357:22363   */\n      dup6\n        /* \"#utility.yul\":22350:22355   */\n      dup3\n        /* \"#utility.yul\":22297:22364   */\n      tag_211\n      jump\t// in\n    tag_433:\n        /* \"#utility.yul\":22291:22295   */\n      dup7\n        /* \"#utility.yul\":22284:22365   */\n      sstore\n        /* \"#utility.yul\":22153:22375   */\n      pop\n        /* \"#utility.yul\":21488:22375   */\n      jump(tag_430)\n        /* \"#utility.yul\":21518:22136   */\n    tag_431:\n        /* \"#utility.yul\":21570:21574   */\n      0x1f\n        /* \"#utility.yul\":21566:21575   */\n      not\n        /* \"#utility.yul\":21558:21564   */\n      dup5\n        /* \"#utility.yul\":21554:21576   */\n      and\n        /* \"#utility.yul\":21604:21641   */\n      tag_434\n        /* \"#utility.yul\":21636:21640   */\n      dup7\n        /* \"#utility.yul\":21604:21641   */\n      tag_197\n      jump\t// in\n    tag_434:\n        /* \"#utility.yul\":21663:21664   */\n      0x00\n        /* \"#utility.yul\":21677:21885   */\n    tag_435:\n        /* \"#utility.yul\":21691:21698   */\n      dup3\n        /* \"#utility.yul\":21688:21689   */\n      dup2\n        /* \"#utility.yul\":21685:21699   */\n      lt\n        /* \"#utility.yul\":21677:21885   */\n      iszero\n      tag_437\n      jumpi\n        /* \"#utility.yul\":21770:21779   */\n      dup5\n        /* \"#utility.yul\":21765:21768   */\n      dup10\n        /* \"#utility.yul\":21761:21780   */\n      add\n        /* \"#utility.yul\":21755:21781   */\n      mload\n        /* \"#utility.yul\":21747:21753   */\n      dup3\n        /* \"#utility.yul\":21740:21782   */\n      sstore\n        /* \"#utility.yul\":21821:21822   */\n      0x01\n        /* \"#utility.yul\":21813:21819   */\n      dup3\n        /* \"#utility.yul\":21809:21823   */\n      add\n        /* \"#utility.yul\":21799:21823   */\n      swap2\n      pop\n        /* \"#utility.yul\":21868:21870   */\n      0x20\n        /* \"#utility.yul\":21857:21866   */\n      dup6\n        /* \"#utility.yul\":21853:21871   */\n      add\n        /* \"#utility.yul\":21840:21871   */\n      swap5\n      pop\n        /* \"#utility.yul\":21714:21718   */\n      0x20\n        /* \"#utility.yul\":21711:21712   */\n      dup2\n        /* \"#utility.yul\":21707:21719   */\n      add\n        /* \"#utility.yul\":21702:21719   */\n      swap1\n      pop\n        /* \"#utility.yul\":21677:21885   */\n      jump(tag_435)\n    tag_437:\n        /* \"#utility.yul\":21913:21919   */\n      dup7\n        /* \"#utility.yul\":21904:21911   */\n      dup4\n        /* \"#utility.yul\":21901:21920   */\n      lt\n        /* \"#utility.yul\":21898:22077   */\n      iszero\n      tag_438\n      jumpi\n        /* \"#utility.yul\":21971:21980   */\n      dup5\n        /* \"#utility.yul\":21966:21969   */\n      dup10\n        /* \"#utility.yul\":21962:21981   */\n      add\n        /* \"#utility.yul\":21956:21982   */\n      mload\n        /* \"#utility.yul\":22014:22062   */\n      tag_439\n        /* \"#utility.yul\":22056:22060   */\n      0x1f\n        /* \"#utility.yul\":22048:22054   */\n      dup10\n        /* \"#utility.yul\":22044:22061   */\n      and\n        /* \"#utility.yul\":22033:22042   */\n      dup3\n        /* \"#utility.yul\":22014:22062   */\n      tag_210\n      jump\t// in\n    tag_439:\n        /* \"#utility.yul\":22006:22012   */\n      dup4\n        /* \"#utility.yul\":21999:22063   */\n      sstore\n        /* \"#utility.yul\":21921:22077   */\n      pop\n        /* \"#utility.yul\":21898:22077   */\n    tag_438:\n        /* \"#utility.yul\":22123:22124   */\n      0x01\n        /* \"#utility.yul\":22119:22120   */\n      0x02\n        /* \"#utility.yul\":22111:22117   */\n      dup9\n        /* \"#utility.yul\":22107:22121   */\n      mul\n        /* \"#utility.yul\":22103:22125   */\n      add\n        /* \"#utility.yul\":22097:22101   */\n      dup9\n        /* \"#utility.yul\":22090:22126   */\n      sstore\n        /* \"#utility.yul\":21525:22136   */\n      pop\n      pop\n      pop\n        /* \"#utility.yul\":21488:22375   */\n    tag_430:\n      pop\n        /* \"#utility.yul\":21078:22381   */\n      pop\n      pop\n      pop\n        /* \"#utility.yul\":20986:22381   */\n      pop\n      pop\n      jump\t// out\n        /* \"#utility.yul\":22387:23134   */\n    tag_61:\n        /* \"#utility.yul\":22608:22612   */\n      0x00\n        /* \"#utility.yul\":22646:22649   */\n      0xa0\n        /* \"#utility.yul\":22635:22644   */\n      dup3\n        /* \"#utility.yul\":22631:22650   */\n      add\n        /* \"#utility.yul\":22623:22650   */\n      swap1\n      pop\n        /* \"#utility.yul\":22696:22705   */\n      dup2\n        /* \"#utility.yul\":22690:22694   */\n      dup2\n        /* \"#utility.yul\":22686:22706   */\n      sub\n        /* \"#utility.yul\":22682:22683   */\n      0x00\n        /* \"#utility.yul\":22671:22680   */\n      dup4\n        /* \"#utility.yul\":22667:22684   */\n      add\n        /* \"#utility.yul\":22660:22707   */\n      mstore\n        /* \"#utility.yul\":22724:22802   */\n      tag_441\n        /* \"#utility.yul\":22797:22801   */\n      dup2\n        /* \"#utility.yul\":22788:22794   */\n      dup9\n        /* \"#utility.yul\":22724:22802   */\n      tag_183\n      jump\t// in\n    tag_441:\n        /* \"#utility.yul\":22716:22802   */\n      swap1\n      pop\n        /* \"#utility.yul\":22812:22882   */\n      tag_442\n        /* \"#utility.yul\":22878:22880   */\n      0x20\n        /* \"#utility.yul\":22867:22876   */\n      dup4\n        /* \"#utility.yul\":22863:22881   */\n      add\n        /* \"#utility.yul\":22854:22860   */\n      dup8\n        /* \"#utility.yul\":22812:22882   */\n      tag_184\n      jump\t// in\n    tag_442:\n        /* \"#utility.yul\":22892:22962   */\n      tag_443\n        /* \"#utility.yul\":22958:22960   */\n      0x40\n        /* \"#utility.yul\":22947:22956   */\n      dup4\n        /* \"#utility.yul\":22943:22961   */\n      add\n        /* \"#utility.yul\":22934:22940   */\n      dup7\n        /* \"#utility.yul\":22892:22962   */\n      tag_184\n      jump\t// in\n    tag_443:\n        /* \"#utility.yul\":22972:23044   */\n      tag_444\n        /* \"#utility.yul\":23040:23042   */\n      0x60\n        /* \"#utility.yul\":23029:23038   */\n      dup4\n        /* \"#utility.yul\":23025:23043   */\n      add\n        /* \"#utility.yul\":23016:23022   */\n      dup6\n        /* \"#utility.yul\":22972:23044   */\n      tag_185\n      jump\t// in\n    tag_444:\n        /* \"#utility.yul\":23054:23127   */\n      tag_445\n        /* \"#utility.yul\":23122:23125   */\n      0x80\n        /* \"#utility.yul\":23111:23120   */\n      dup4\n        /* \"#utility.yul\":23107:23126   */\n      add\n        /* \"#utility.yul\":23098:23104   */\n      dup5\n        /* \"#utility.yul\":23054:23127   */\n      tag_185\n      jump\t// in\n    tag_445:\n        /* \"#utility.yul\":22387:23134   */\n      swap7\n      swap6\n      pop\n      pop\n      pop\n      pop\n      pop\n      pop\n      jump\t// out\n        /* \"#utility.yul\":23140:23313   */\n    tag_212:\n        /* \"#utility.yul\":23280:23305   */\n      0x55736572206973206e6f7420726567697374657265642e000000000000000000\n        /* \"#utility.yul\":23276:23277   */\n      0x00\n        /* \"#utility.yul\":23268:23274   */\n      dup3\n        /* \"#utility.yul\":23264:23278   */\n      add\n        /* \"#utility.yul\":23257:23306   */\n      mstore\n        /* \"#utility.yul\":23140:23313   */\n      pop\n      jump\t// out\n        /* \"#utility.yul\":23319:23685   */\n    tag_213:\n        /* \"#utility.yul\":23461:23464   */\n      0x00\n        /* \"#utility.yul\":23482:23549   */\n      tag_448\n        /* \"#utility.yul\":23546:23548   */\n      0x17\n        /* \"#utility.yul\":23541:23544   */\n      dup4\n        /* \"#utility.yul\":23482:23549   */\n      tag_182\n      jump\t// in\n    tag_448:\n        /* \"#utility.yul\":23475:23549   */\n      swap2\n      pop\n        /* \"#utility.yul\":23558:23651   */\n      tag_449\n        /* \"#utility.yul\":23647:23650   */\n      dup3\n        /* \"#utility.yul\":23558:23651   */\n      tag_212\n      jump\t// in\n    tag_449:\n        /* \"#utility.yul\":23676:23678   */\n      0x20\n        /* \"#utility.yul\":23671:23674   */\n      dup3\n        /* \"#utility.yul\":23667:23679   */\n      add\n        /* \"#utility.yul\":23660:23679   */\n      swap1\n      pop\n        /* \"#utility.yul\":23319:23685   */\n      swap2\n      swap1\n      pop\n      jump\t// out\n        /* \"#utility.yul\":23691:24110   */\n    tag_65:\n        /* \"#utility.yul\":23857:23861   */\n      0x00\n        /* \"#utility.yul\":23895:23897   */\n      0x20\n        /* \"#utility.yul\":23884:23893   */\n      dup3\n        /* \"#utility.yul\":23880:23898   */\n      add\n        /* \"#utility.yul\":23872:23898   */\n      swap1\n      pop\n        /* \"#utility.yul\":23944:23953   */\n      dup2\n        /* \"#utility.yul\":23938:23942   */\n      dup2\n        /* \"#utility.yul\":23934:23954   */\n      sub\n        /* \"#utility.yul\":23930:23931   */\n      0x00\n        /* \"#utility.yul\":23919:23928   */\n      dup4\n        /* \"#utility.yul\":23915:23932   */\n      add\n        /* \"#utility.yul\":23908:23955   */\n      mstore\n        /* \"#utility.yul\":23972:24103   */\n      tag_451\n        /* \"#utility.yul\":24098:24102   */\n      dup2\n        /* \"#utility.yul\":23972:24103   */\n      tag_213\n      jump\t// in\n    tag_451:\n        /* \"#utility.yul\":23964:24103   */\n      swap1\n      pop\n        /* \"#utility.yul\":23691:24110   */\n      swap2\n      swap1\n      pop\n      jump\t// out\n        /* \"#utility.yul\":24116:24291   */\n    tag_214:\n        /* \"#utility.yul\":24256:24283   */\n      0x4f6e6c792061646d696e2063616e2063616c6c20746869732e00000000000000\n        /* \"#utility.yul\":24252:24253   */\n      0x00\n        /* \"#utility.yul\":24244:24250   */\n      dup3\n        /* \"#utility.yul\":24240:24254   */\n      add\n        /* \"#utility.yul\":24233:24284   */\n      mstore\n        /* \"#utility.yul\":24116:24291   */\n      pop\n      jump\t// out\n        /* \"#utility.yul\":24297:24663   */\n    tag_215:\n        /* \"#utility.yul\":24439:24442   */\n      0x00\n        /* \"#utility.yul\":24460:24527   */\n      tag_454\n        /* \"#utility.yul\":24524:24526   */\n      0x19\n        /* \"#utility.yul\":24519:24522   */\n      dup4\n        /* \"#utility.yul\":24460:24527   */\n      tag_182\n      jump\t// in\n    tag_454:\n        /* \"#utility.yul\":24453:24527   */\n      swap2\n      pop\n        /* \"#utility.yul\":24536:24629   */\n      tag_455\n        /* \"#utility.yul\":24625:24628   */\n      dup3\n        /* \"#utility.yul\":24536:24629   */\n      tag_214\n      jump\t// in\n    tag_455:\n        /* \"#utility.yul\":24654:24656   */\n      0x20\n        /* \"#utility.yul\":24649:24652   */\n      dup3\n        /* \"#utility.yul\":24645:24657   */\n      add\n        /* \"#utility.yul\":24638:24657   */\n      swap1\n      pop\n        /* \"#utility.yul\":24297:24663   */\n      swap2\n      swap1\n      pop\n      jump\t// out\n        /* \"#utility.yul\":24669:25088   */\n    tag_71:\n        /* \"#utility.yul\":24835:24839   */\n      0x00\n        /* \"#utility.yul\":24873:24875   */\n      0x20\n        /* \"#utility.yul\":24862:24871   */\n      dup3\n        /* \"#utility.yul\":24858:24876   */\n      add\n        /* \"#utility.yul\":24850:24876   */\n      swap1\n      pop\n        /* \"#utility.yul\":24922:24931   */\n      dup2\n        /* \"#utility.yul\":24916:24920   */\n      dup2\n        /* \"#utility.yul\":24912:24932   */\n      sub\n        /* \"#utility.yul\":24908:24909   */\n      0x00\n        /* \"#utility.yul\":24897:24906   */\n      dup4\n        /* \"#utility.yul\":24893:24910   */\n      add\n        /* \"#utility.yul\":24886:24933   */\n      mstore\n        /* \"#utility.yul\":24950:25081   */\n      tag_457\n        /* \"#utility.yul\":25076:25080   */\n      dup2\n        /* \"#utility.yul\":24950:25081   */\n      tag_215\n      jump\t// in\n    tag_457:\n        /* \"#utility.yul\":24942:25081   */\n      swap1\n      pop\n        /* \"#utility.yul\":24669:25088   */\n      swap2\n      swap1\n      pop\n      jump\t// out\n        /* \"#utility.yul\":25094:25274   */\n    tag_82:\n        /* \"#utility.yul\":25142:25219   */\n      0x4e487b7100000000000000000000000000000000000000000000000000000000\n        /* \"#utility.yul\":25139:25140   */\n      0x00\n        /* \"#utility.yul\":25132:25220   */\n      mstore\n        /* \"#utility.yul\":25239:25243   */\n      0x32\n        /* \"#utility.yul\":25236:25237   */\n      0x04\n        /* \"#utility.yul\":25229:25244   */\n      mstore\n        /* \"#utility.yul\":25263:25267   */\n      0x24\n        /* \"#utility.yul\":25260:25261   */\n      0x00\n        /* \"#utility.yul\":25253:25268   */\n      revert\n        /* \"#utility.yul\":25280:25460   */\n    tag_216:\n        /* \"#utility.yul\":25328:25405   */\n      0x4e487b7100000000000000000000000000000000000000000000000000000000\n        /* \"#utility.yul\":25325:25326   */\n      0x00\n        /* \"#utility.yul\":25318:25406   */\n      mstore\n        /* \"#utility.yul\":25425:25429   */\n      0x11\n        /* \"#utility.yul\":25422:25423   */\n      0x04\n        /* \"#utility.yul\":25415:25430   */\n      mstore\n        /* \"#utility.yul\":25449:25453   */\n      0x24\n        /* \"#utility.yul\":25446:25447   */\n      0x00\n        /* \"#utility.yul\":25439:25454   */\n      revert\n        /* \"#utility.yul\":25466:25660   */\n    tag_86:\n        /* \"#utility.yul\":25506:25510   */\n      0x00\n        /* \"#utility.yul\":25526:25546   */\n      tag_461\n        /* \"#utility.yul\":25544:25545   */\n      dup3\n        /* \"#utility.yul\":25526:25546   */\n      tag_164\n      jump\t// in\n    tag_461:\n        /* \"#utility.yul\":25521:25546   */\n      swap2\n      pop\n        /* \"#utility.yul\":25560:25580   */\n      tag_462\n        /* \"#utility.yul\":25578:25579   */\n      dup4\n        /* \"#utility.yul\":25560:25580   */\n      tag_164\n      jump\t// in\n    tag_462:\n        /* \"#utility.yul\":25555:25580   */\n      swap3\n      pop\n        /* \"#utility.yul\":25604:25605   */\n      dup3\n        /* \"#utility.yul\":25601:25602   */\n      dup3\n        /* \"#utility.yul\":25597:25606   */\n      sub\n        /* \"#utility.yul\":25589:25606   */\n      swap1\n      pop\n        /* \"#utility.yul\":25628:25629   */\n      dup2\n        /* \"#utility.yul\":25622:25626   */\n      dup2\n        /* \"#utility.yul\":25619:25630   */\n      gt\n        /* \"#utility.yul\":25616:25653   */\n      iszero\n      tag_463\n      jumpi\n        /* \"#utility.yul\":25633:25651   */\n      tag_464\n      tag_216\n      jump\t// in\n    tag_464:\n        /* \"#utility.yul\":25616:25653   */\n    tag_463:\n        /* \"#utility.yul\":25466:25660   */\n      swap3\n      swap2\n      pop\n      pop\n      jump\t// out\n        /* \"#utility.yul\":25666:25846   */\n    tag_95:\n        /* \"#utility.yul\":25714:25791   */\n      0x4e487b7100000000000000000000000000000000000000000000000000000000\n        /* \"#utility.yul\":25711:25712   */\n      0x00\n        /* \"#utility.yul\":25704:25792   */\n      mstore\n        /* \"#utility.yul\":25811:25815   */\n      0x31\n        /* \"#utility.yul\":25808:25809   */\n      0x04\n        /* \"#utility.yul\":25801:25816   */\n      mstore\n        /* \"#utility.yul\":25835:25839   */\n      0x24\n        /* \"#utility.yul\":25832:25833   */\n      0x00\n        /* \"#utility.yul\":25825:25840   */\n      revert\n\n    auxdata: 0xa2646970667358221220127e35681a2c3819877b7bcbbb242da48d764e47898af02b2bf3ffdb32931aa264736f6c63430008180033\n}\n",
				"bytecode": {
					"linkReferences": {},
					"object": "608060405234801561000f575f80fd5b503360025f6101000a81548173ffffffffffffffffffffffffffffffffffffffff021916908373ffffffffffffffffffffffffffffffffffffffff160217905550611b278061005d5f395ff3fe608060405234801561000f575f80fd5b5060043610610091575f3560e01c80636386c1c7116100645780636386c1c714610119578063a591efde14610149578063a87430ba14610167578063c3bcf1921461019c578063f851a440146101ba57610091565b8063163f752214610095578063210c9154146100c55780632fc00ba1146100e15780635c60f226146100fd575b5f80fd5b6100af60048036038101906100aa9190610ed2565b6101d8565b6040516100bc9190610f17565b60405180910390f35b6100df60048036038101906100da91906110d2565b61022d565b005b6100fb60048036038101906100f691906110d2565b610408565b005b61011760048036038101906101129190610ed2565b610567565b005b610133600480360381019061012e9190610ed2565b6108b9565b6040516101409190611292565b60405180910390f35b610151610a6d565b60405161015e9190611369565b60405180910390f35b610181600480360381019061017c9190610ed2565b610af7565b604051610193969594939291906113ef565b60405180910390f35b6101a4610bc1565b6040516101b19190611596565b60405180910390f35b6101c2610db7565b6040516101cf91906115c5565b60405180910390f35b5f60015f8373ffffffffffffffffffffffffffffffffffffffff1673ffffffffffffffffffffffffffffffffffffffff1681526020019081526020015f206005015f9054906101000a900460ff169050919050565b60015f3373ffffffffffffffffffffffffffffffffffffffff1673ffffffffffffffffffffffffffffffffffffffff1681526020019081526020015f206005015f9054906101000a900460ff16156102ba576040517f08c379a00000000000000000000000000000000000000000000000000000000081526004016102b190611628565b60405180910390fd5b5f60015f3373ffffffffffffffffffffffffffffffffffffffff1673ffffffffffffffffffffffffffffffffffffffff1681526020019081526020015f20905085815f01908161030a9190611840565b508481600101819055508381600201819055508281600301819055508181600401819055506001816005015f6101000a81548160ff0219169083151502179055505f33908060018154018082558091505060019003905f5260205f20015f9091909190916101000a81548173ffffffffffffffffffffffffffffffffffffffff021916908373ffffffffffffffffffffffffffffffffffffffff1602179055503373ffffffffffffffffffffffffffffffffffffffff167fa96c6e1d7341a1c22b8e45bf7b44369c06e82e7c6be9b784c233b125ec57d96587878787876040516103f895949392919061190f565b60405180910390a2505050505050565b60015f3373ffffffffffffffffffffffffffffffffffffffff1673ffffffffffffffffffffffffffffffffffffffff1681526020019081526020015f206005015f9054906101000a900460ff16610494576040517f08c379a000000000000000000000000000000000000000000000000000000000815260040161048b906119b1565b60405180910390fd5b5f60015f3373ffffffffffffffffffffffffffffffffffffffff1673ffffffffffffffffffffffffffffffffffffffff1681526020019081526020015f20905085815f0190816104e49190611840565b508481600101819055508381600201819055508281600301819055508181600401819055503373ffffffffffffffffffffffffffffffffffffffff167f18f5dfadc27470bf794c1463063c79a0bdd01ca6e7e3d25bd9c764dc07056ef7878787878760405161055795949392919061190f565b60405180910390a2505050505050565b60025f9054906101000a900473ffffffffffffffffffffffffffffffffffffffff1673ffffffffffffffffffffffffffffffffffffffff163373ffffffffffffffffffffffffffffffffffffffff16146105f6576040517f08c379a00000000000000000000000000000000000000000000000000000000081526004016105ed90611a19565b60405180910390fd5b60015f8273ffffffffffffffffffffffffffffffffffffffff1673ffffffffffffffffffffffffffffffffffffffff1681526020019081526020015f206005015f9054906101000a900460ff16610682576040517f08c379a0000000000000000000000000000000000000000000000000000000008152600401610679906119b1565b60405180910390fd5b60015f8273ffffffffffffffffffffffffffffffffffffffff1673ffffffffffffffffffffffffffffffffffffffff1681526020019081526020015f205f8082015f6106ce9190610ddc565b600182015f9055600282015f9055600382015f9055600482015f9055600582015f6101000a81549060ff021916905550508073ffffffffffffffffffffffffffffffffffffffff167f4bc56f1321288dfb5b416cb3a7fd188723979f9e866c91d88eccf7fca039d03960405160405180910390a25f5b5f805490508110156108b5578173ffffffffffffffffffffffffffffffffffffffff165f828154811061077a57610779611a37565b5b905f5260205f20015f9054906101000a900473ffffffffffffffffffffffffffffffffffffffff1673ffffffffffffffffffffffffffffffffffffffff16036108a8575f60015f805490506107cf9190611a91565b815481106107e0576107df611a37565b5b905f5260205f20015f9054906101000a900473ffffffffffffffffffffffffffffffffffffffff165f828154811061081b5761081a611a37565b5b905f5260205f20015f6101000a81548173ffffffffffffffffffffffffffffffffffffffff021916908373ffffffffffffffffffffffffffffffffffffffff1602179055505f80548061087157610870611ac4565b5b600190038181905f5260205f20015f6101000a81549073ffffffffffffffffffffffffffffffffffffffff021916905590556108b5565b8080600101915050610744565b5050565b6108c1610e19565b60015f8373ffffffffffffffffffffffffffffffffffffffff1673ffffffffffffffffffffffffffffffffffffffff1681526020019081526020015f206005015f9054906101000a900460ff1661094d576040517f08c379a0000000000000000000000000000000000000000000000000000000008152600401610944906119b1565b60405180910390fd5b60015f8373ffffffffffffffffffffffffffffffffffffffff1673ffffffffffffffffffffffffffffffffffffffff1681526020019081526020015f206040518060c00160405290815f820180546109a490611673565b80601f01602080910402602001604051908101604052809291908181526020018280546109d090611673565b8015610a1b5780601f106109f257610100808354040283529160200191610a1b565b820191905f5260205f20905b8154815290600101906020018083116109fe57829003601f168201915b5050505050815260200160018201548152602001600282015481526020016003820154815260200160048201548152602001600582015f9054906101000a900460ff1615151515815250509050919050565b60605f805480602002602001604051908101604052809291908181526020018280548015610aed57602002820191905f5260205f20905b815f9054906101000a900473ffffffffffffffffffffffffffffffffffffffff1673ffffffffffffffffffffffffffffffffffffffff1681526020019060010190808311610aa4575b5050505050905090565b6001602052805f5260405f205f91509050805f018054610b1690611673565b80601f0160208091040260200160405190810160405280929190818152602001828054610b4290611673565b8015610b8d5780601f10610b6457610100808354040283529160200191610b8d565b820191905f5260205f20905b815481529060010190602001808311610b7057829003601f168201915b505050505090806001015490806002015490806003015490806004015490806005015f9054906101000a900460ff16905086565b60605f808054905067ffffffffffffffff811115610be257610be1610f48565b5b604051908082528060200260200182016040528015610c1b57816020015b610c08610e19565b815260200190600190039081610c005790505b5090505f5b5f80549050811015610daf575f808281548110610c4057610c3f611a37565b5b905f5260205f20015f9054906101000a900473ffffffffffffffffffffffffffffffffffffffff16905060015f8273ffffffffffffffffffffffffffffffffffffffff1673ffffffffffffffffffffffffffffffffffffffff1681526020019081526020015f206040518060c00160405290815f82018054610cc190611673565b80601f0160208091040260200160405190810160405280929190818152602001828054610ced90611673565b8015610d385780601f10610d0f57610100808354040283529160200191610d38565b820191905f5260205f20905b815481529060010190602001808311610d1b57829003601f168201915b5050505050815260200160018201548152602001600282015481526020016003820154815260200160048201548152602001600582015f9054906101000a900460ff161515151581525050838381518110610d9657610d95611a37565b5b6020026020010181905250508080600101915050610c20565b508091505090565b60025f9054906101000a900473ffffffffffffffffffffffffffffffffffffffff1681565b508054610de890611673565b5f825580601f10610df95750610e16565b601f0160209004905f5260205f2090810190610e159190610e4c565b5b50565b6040518060c00160405280606081526020015f81526020015f81526020015f81526020015f81526020015f151581525090565b5b80821115610e63575f815f905550600101610e4d565b5090565b5f604051905090565b5f80fd5b5f80fd5b5f73ffffffffffffffffffffffffffffffffffffffff82169050919050565b5f610ea182610e78565b9050919050565b610eb181610e97565b8114610ebb575f80fd5b50565b5f81359050610ecc81610ea8565b92915050565b5f60208284031215610ee757610ee6610e70565b5b5f610ef484828501610ebe565b91505092915050565b5f8115159050919050565b610f1181610efd565b82525050565b5f602082019050610f2a5f830184610f08565b92915050565b5f80fd5b5f80fd5b5f601f19601f8301169050919050565b7f4e487b71000000000000000000000000000000000000000000000000000000005f52604160045260245ffd5b610f7e82610f38565b810181811067ffffffffffffffff82111715610f9d57610f9c610f48565b5b80604052505050565b5f610faf610e67565b9050610fbb8282610f75565b919050565b5f67ffffffffffffffff821115610fda57610fd9610f48565b5b610fe382610f38565b9050602081019050919050565b828183375f83830152505050565b5f61101061100b84610fc0565b610fa6565b90508281526020810184848401111561102c5761102b610f34565b5b611037848285610ff0565b509392505050565b5f82601f83011261105357611052610f30565b5b8135611063848260208601610ffe565b91505092915050565b5f819050919050565b61107e8161106c565b8114611088575f80fd5b50565b5f8135905061109981611075565b92915050565b5f819050919050565b6110b18161109f565b81146110bb575f80fd5b50565b5f813590506110cc816110a8565b92915050565b5f805f805f60a086880312156110eb576110ea610e70565b5b5f86013567ffffffffffffffff81111561110857611107610e74565b5b6111148882890161103f565b95505060206111258882890161108b565b94505060406111368882890161108b565b9350506060611147888289016110be565b9250506080611158888289016110be565b9150509295509295909350565b5f81519050919050565b5f82825260208201905092915050565b5f5b8381101561119c578082015181840152602081019050611181565b5f8484015250505050565b5f6111b182611165565b6111bb818561116f565b93506111cb81856020860161117f565b6111d481610f38565b840191505092915050565b6111e88161106c565b82525050565b6111f78161109f565b82525050565b61120681610efd565b82525050565b5f60c083015f8301518482035f86015261122682826111a7565b915050602083015161123b60208601826111df565b50604083015161124e60408601826111df565b50606083015161126160608601826111ee565b50608083015161127460808601826111ee565b5060a083015161128760a08601826111fd565b508091505092915050565b5f6020820190508181035f8301526112aa818461120c565b905092915050565b5f81519050919050565b5f82825260208201905092915050565b5f819050602082019050919050565b6112e481610e97565b82525050565b5f6112f583836112db565b60208301905092915050565b5f602082019050919050565b5f611317826112b2565b61132181856112bc565b935061132c836112cc565b805f5b8381101561135c57815161134388826112ea565b975061134e83611301565b92505060018101905061132f565b5085935050505092915050565b5f6020820190508181035f830152611381818461130d565b905092915050565b5f82825260208201905092915050565b5f6113a382611165565b6113ad8185611389565b93506113bd81856020860161117f565b6113c681610f38565b840191505092915050565b6113da8161106c565b82525050565b6113e98161109f565b82525050565b5f60c0820190508181035f8301526114078189611399565b905061141660208301886113d1565b61142360408301876113d1565b61143060608301866113e0565b61143d60808301856113e0565b61144a60a0830184610f08565b979650505050505050565b5f81519050919050565b5f82825260208201905092915050565b5f819050602082019050919050565b5f60c083015f8301518482035f86015261149882826111a7565b91505060208301516114ad60208601826111df565b5060408301516114c060408601826111df565b5060608301516114d360608601826111ee565b5060808301516114e660808601826111ee565b5060a08301516114f960a08601826111fd565b508091505092915050565b5f61150f838361147e565b905092915050565b5f602082019050919050565b5f61152d82611455565b611537818561145f565b9350836020820285016115498561146f565b805f5b8581101561158457848403895281516115658582611504565b945061157083611517565b925060208a0199505060018101905061154c565b50829750879550505050505092915050565b5f6020820190508181035f8301526115ae8184611523565b905092915050565b6115bf81610e97565b82525050565b5f6020820190506115d85f8301846115b6565b92915050565b7f5573657220616c726561647920726567697374657265642e00000000000000005f82015250565b5f611612601883611389565b915061161d826115de565b602082019050919050565b5f6020820190508181035f83015261163f81611606565b9050919050565b7f4e487b71000000000000000000000000000000000000000000000000000000005f52602260045260245ffd5b5f600282049050600182168061168a57607f821691505b60208210810361169d5761169c611646565b5b50919050565b5f819050815f5260205f209050919050565b5f6020601f8301049050919050565b5f82821b905092915050565b5f600883026116ff7fffffffffffffffffffffffffffffffffffffffffffffffffffffffffffffffff826116c4565b61170986836116c4565b95508019841693508086168417925050509392505050565b5f819050919050565b5f61174461173f61173a8461109f565b611721565b61109f565b9050919050565b5f819050919050565b61175d8361172a565b6117716117698261174b565b8484546116d0565b825550505050565b5f90565b611785611779565b611790818484611754565b505050565b5b818110156117b3576117a85f8261177d565b600181019050611796565b5050565b601f8211156117f8576117c9816116a3565b6117d2846116b5565b810160208510156117e1578190505b6117f56117ed856116b5565b830182611795565b50505b505050565b5f82821c905092915050565b5f6118185f19846008026117fd565b1980831691505092915050565b5f6118308383611809565b9150826002028217905092915050565b61184982611165565b67ffffffffffffffff81111561186257611861610f48565b5b61186c8254611673565b6118778282856117b7565b5f60209050601f8311600181146118a8575f8415611896578287015190505b6118a08582611825565b865550611907565b601f1984166118b6866116a3565b5f5b828110156118dd578489015182556001820191506020850194506020810190506118b8565b868310156118fa57848901516118f6601f891682611809565b8355505b6001600288020188555050505b505050505050565b5f60a0820190508181035f8301526119278188611399565b905061193660208301876113d1565b61194360408301866113d1565b61195060608301856113e0565b61195d60808301846113e0565b9695505050505050565b7f55736572206973206e6f7420726567697374657265642e0000000000000000005f82015250565b5f61199b601783611389565b91506119a682611967565b602082019050919050565b5f6020820190508181035f8301526119c88161198f565b9050919050565b7f4f6e6c792061646d696e2063616e2063616c6c20746869732e000000000000005f82015250565b5f611a03601983611389565b9150611a0e826119cf565b602082019050919050565b5f6020820190508181035f830152611a30816119f7565b9050919050565b7f4e487b71000000000000000000000000000000000000000000000000000000005f52603260045260245ffd5b7f4e487b71000000000000000000000000000000000000000000000000000000005f52601160045260245ffd5b5f611a9b8261109f565b9150611aa68361109f565b9250828203905081811115611abe57611abd611a64565b5b92915050565b7f4e487b71000000000000000000000000000000000000000000000000000000005f52603160045260245ffdfea2646970667358221220127e35681a2c3819877b7bcbbb242da48d764e47898af02b2bf3ffdb32931aa264736f6c63430008180033",
					"opcodes": "PUSH1 0x80 PUSH1 0x40 MSTORE CALLVALUE DUP1 ISZERO PUSH2 0xF JUMPI PUSH0 DUP1 REVERT JUMPDEST POP CALLER PUSH1 0x2 PUSH0 PUSH2 0x100 EXP DUP2 SLOAD DUP2 PUSH20 0xFFFFFFFFFFFFFFFFFFFFFFFFFFFFFFFFFFFFFFFF MUL NOT AND SWAP1 DUP4 PUSH20 0xFFFFFFFFFFFFFFFFFFFFFFFFFFFFFFFFFFFFFFFF AND MUL OR SWAP1 SSTORE POP PUSH2 0x1B27 DUP1 PUSH2 0x5D PUSH0 CODECOPY PUSH0 RETURN INVALID PUSH1 0x80 PUSH1 0x40 MSTORE CALLVALUE DUP1 ISZERO PUSH2 0xF JUMPI PUSH0 DUP1 REVERT JUMPDEST POP PUSH1 0x4 CALLDATASIZE LT PUSH2 0x91 JUMPI PUSH0 CALLDATALOAD PUSH1 0xE0 SHR DUP1 PUSH4 0x6386C1C7 GT PUSH2 0x64 JUMPI DUP1 PUSH4 0x6386C1C7 EQ PUSH2 0x119 JUMPI DUP1 PUSH4 0xA591EFDE EQ PUSH2 0x149 JUMPI DUP1 PUSH4 0xA87430BA EQ PUSH2 0x167 JUMPI DUP1 PUSH4 0xC3BCF192 EQ PUSH2 0x19C JUMPI DUP1 PUSH4 0xF851A440 EQ PUSH2 0x1BA JUMPI PUSH2 0x91 JUMP JUMPDEST DUP1 PUSH4 0x163F7522 EQ PUSH2 0x95 JUMPI DUP1 PUSH4 0x210C9154 EQ PUSH2 0xC5 JUMPI DUP1 PUSH4 0x2FC00BA1 EQ PUSH2 0xE1 JUMPI DUP1 PUSH4 0x5C60F226 EQ PUSH2 0xFD JUMPI JUMPDEST PUSH0 DUP1 REVERT JUMPDEST PUSH2 0xAF PUSH1 0x4 DUP1 CALLDATASIZE SUB DUP2 ADD SWAP1 PUSH2 0xAA SWAP2 SWAP1 PUSH2 0xED2 JUMP JUMPDEST PUSH2 0x1D8 JUMP JUMPDEST PUSH1 0x40 MLOAD PUSH2 0xBC SWAP2 SWAP1 PUSH2 0xF17 JUMP JUMPDEST PUSH1 0x40 MLOAD DUP1 SWAP2 SUB SWAP1 RETURN JUMPDEST PUSH2 0xDF PUSH1 0x4 DUP1 CALLDATASIZE SUB DUP2 ADD SWAP1 PUSH2 0xDA SWAP2 SWAP1 PUSH2 0x10D2 JUMP JUMPDEST PUSH2 0x22D JUMP JUMPDEST STOP JUMPDEST PUSH2 0xFB PUSH1 0x4 DUP1 CALLDATASIZE SUB DUP2 ADD SWAP1 PUSH2 0xF6 SWAP2 SWAP1 PUSH2 0x10D2 JUMP JUMPDEST PUSH2 0x408 JUMP JUMPDEST STOP JUMPDEST PUSH2 0x117 PUSH1 0x4 DUP1 CALLDATASIZE SUB DUP2 ADD SWAP1 PUSH2 0x112 SWAP2 SWAP1 PUSH2 0xED2 JUMP JUMPDEST PUSH2 0x567 JUMP JUMPDEST STOP JUMPDEST PUSH2 0x133 PUSH1 0x4 DUP1 CALLDATASIZE SUB DUP2 ADD SWAP1 PUSH2 0x12E SWAP2 SWAP1 PUSH2 0xED2 JUMP JUMPDEST PUSH2 0x8B9 JUMP JUMPDEST PUSH1 0x40 MLOAD PUSH2 0x140 SWAP2 SWAP1 PUSH2 0x1292 JUMP JUMPDEST PUSH1 0x40 MLOAD DUP1 SWAP2 SUB SWAP1 RETURN JUMPDEST PUSH2 0x151 PUSH2 0xA6D JUMP JUMPDEST PUSH1 0x40 MLOAD PUSH2 0x15E SWAP2 SWAP1 PUSH2 0x1369 JUMP JUMPDEST PUSH1 0x40 MLOAD DUP1 SWAP2 SUB SWAP1 RETURN JUMPDEST PUSH2 0x181 PUSH1 0x4 DUP1 CALLDATASIZE SUB DUP2 ADD SWAP1 PUSH2 0x17C SWAP2 SWAP1 PUSH2 0xED2 JUMP JUMPDEST PUSH2 0xAF7 JUMP JUMPDEST PUSH1 0x40 MLOAD PUSH2 0x193 SWAP7 SWAP6 SWAP5 SWAP4 SWAP3 SWAP2 SWAP1 PUSH2 0x13EF JUMP JUMPDEST PUSH1 0x40 MLOAD DUP1 SWAP2 SUB SWAP1 RETURN JUMPDEST PUSH2 0x1A4 PUSH2 0xBC1 JUMP JUMPDEST PUSH1 0x40 MLOAD PUSH2 0x1B1 SWAP2 SWAP1 PUSH2 0x1596 JUMP JUMPDEST PUSH1 0x40 MLOAD DUP1 SWAP2 SUB SWAP1 RETURN JUMPDEST PUSH2 0x1C2 PUSH2 0xDB7 JUMP JUMPDEST PUSH1 0x40 MLOAD PUSH2 0x1CF SWAP2 SWAP1 PUSH2 0x15C5 JUMP JUMPDEST PUSH1 0x40 MLOAD DUP1 SWAP2 SUB SWAP1 RETURN JUMPDEST PUSH0 PUSH1 0x1 PUSH0 DUP4 PUSH20 0xFFFFFFFFFFFFFFFFFFFFFFFFFFFFFFFFFFFFFFFF AND PUSH20 0xFFFFFFFFFFFFFFFFFFFFFFFFFFFFFFFFFFFFFFFF AND DUP2 MSTORE PUSH1 0x20 ADD SWAP1 DUP2 MSTORE PUSH1 0x20 ADD PUSH0 KECCAK256 PUSH1 0x5 ADD PUSH0 SWAP1 SLOAD SWAP1 PUSH2 0x100 EXP SWAP1 DIV PUSH1 0xFF AND SWAP1 POP SWAP2 SWAP1 POP JUMP JUMPDEST PUSH1 0x1 PUSH0 CALLER PUSH20 0xFFFFFFFFFFFFFFFFFFFFFFFFFFFFFFFFFFFFFFFF AND PUSH20 0xFFFFFFFFFFFFFFFFFFFFFFFFFFFFFFFFFFFFFFFF AND DUP2 MSTORE PUSH1 0x20 ADD SWAP1 DUP2 MSTORE PUSH1 0x20 ADD PUSH0 KECCAK256 PUSH1 0x5 ADD PUSH0 SWAP1 SLOAD SWAP1 PUSH2 0x100 EXP SWAP1 DIV PUSH1 0xFF AND ISZERO PUSH2 0x2BA JUMPI PUSH1 0x40 MLOAD PUSH32 0x8C379A000000000000000000000000000000000000000000000000000000000 DUP2 MSTORE PUSH1 0x4 ADD PUSH2 0x2B1 SWAP1 PUSH2 0x1628 JUMP JUMPDEST PUSH1 0x40 MLOAD DUP1 SWAP2 SUB SWAP1 REVERT JUMPDEST PUSH0 PUSH1 0x1 PUSH0 CALLER PUSH20 0xFFFFFFFFFFFFFFFFFFFFFFFFFFFFFFFFFFFFFFFF AND PUSH20 0xFFFFFFFFFFFFFFFFFFFFFFFFFFFFFFFFFFFFFFFF AND DUP2 MSTORE PUSH1 0x20 ADD SWAP1 DUP2 MSTORE PUSH1 0x20 ADD PUSH0 KECCAK256 SWAP1 POP DUP6 DUP2 PUSH0 ADD SWAP1 DUP2 PUSH2 0x30A SWAP2 SWAP1 PUSH2 0x1840 JUMP JUMPDEST POP DUP5 DUP2 PUSH1 0x1 ADD DUP2 SWAP1 SSTORE POP DUP4 DUP2 PUSH1 0x2 ADD DUP2 SWAP1 SSTORE POP DUP3 DUP2 PUSH1 0x3 ADD DUP2 SWAP1 SSTORE POP DUP2 DUP2 PUSH1 0x4 ADD DUP2 SWAP1 SSTORE POP PUSH1 0x1 DUP2 PUSH1 0x5 ADD PUSH0 PUSH2 0x100 EXP DUP2 SLOAD DUP2 PUSH1 0xFF MUL NOT AND SWAP1 DUP4 ISZERO ISZERO MUL OR SWAP1 SSTORE POP PUSH0 CALLER SWAP1 DUP1 PUSH1 0x1 DUP2 SLOAD ADD DUP1 DUP3 SSTORE DUP1 SWAP2 POP POP PUSH1 0x1 SWAP1 SUB SWAP1 PUSH0 MSTORE PUSH1 0x20 PUSH0 KECCAK256 ADD PUSH0 SWAP1 SWAP2 SWAP1 SWAP2 SWAP1 SWAP2 PUSH2 0x100 EXP DUP2 SLOAD DUP2 PUSH20 0xFFFFFFFFFFFFFFFFFFFFFFFFFFFFFFFFFFFFFFFF MUL NOT AND SWAP1 DUP4 PUSH20 0xFFFFFFFFFFFFFFFFFFFFFFFFFFFFFFFFFFFFFFFF AND MUL OR SWAP1 SSTORE POP CALLER PUSH20 0xFFFFFFFFFFFFFFFFFFFFFFFFFFFFFFFFFFFFFFFF AND PUSH32 0xA96C6E1D7341A1C22B8E45BF7B44369C06E82E7C6BE9B784C233B125EC57D965 DUP8 DUP8 DUP8 DUP8 DUP8 PUSH1 0x40 MLOAD PUSH2 0x3F8 SWAP6 SWAP5 SWAP4 SWAP3 SWAP2 SWAP1 PUSH2 0x190F JUMP JUMPDEST PUSH1 0x40 MLOAD DUP1 SWAP2 SUB SWAP1 LOG2 POP POP POP POP POP POP JUMP JUMPDEST PUSH1 0x1 PUSH0 CALLER PUSH20 0xFFFFFFFFFFFFFFFFFFFFFFFFFFFFFFFFFFFFFFFF AND PUSH20 0xFFFFFFFFFFFFFFFFFFFFFFFFFFFFFFFFFFFFFFFF AND DUP2 MSTORE PUSH1 0x20 ADD SWAP1 DUP2 MSTORE PUSH1 0x20 ADD PUSH0 KECCAK256 PUSH1 0x5 ADD PUSH0 SWAP1 SLOAD SWAP1 PUSH2 0x100 EXP SWAP1 DIV PUSH1 0xFF AND PUSH2 0x494 JUMPI PUSH1 0x40 MLOAD PUSH32 0x8C379A000000000000000000000000000000000000000000000000000000000 DUP2 MSTORE PUSH1 0x4 ADD PUSH2 0x48B SWAP1 PUSH2 0x19B1 JUMP JUMPDEST PUSH1 0x40 MLOAD DUP1 SWAP2 SUB SWAP1 REVERT JUMPDEST PUSH0 PUSH1 0x1 PUSH0 CALLER PUSH20 0xFFFFFFFFFFFFFFFFFFFFFFFFFFFFFFFFFFFFFFFF AND PUSH20 0xFFFFFFFFFFFFFFFFFFFFFFFFFFFFFFFFFFFFFFFF AND DUP2 MSTORE PUSH1 0x20 ADD SWAP1 DUP2 MSTORE PUSH1 0x20 ADD PUSH0 KECCAK256 SWAP1 POP DUP6 DUP2 PUSH0 ADD SWAP1 DUP2 PUSH2 0x4E4 SWAP2 SWAP1 PUSH2 0x1840 JUMP JUMPDEST POP DUP5 DUP2 PUSH1 0x1 ADD DUP2 SWAP1 SSTORE POP DUP4 DUP2 PUSH1 0x2 ADD DUP2 SWAP1 SSTORE POP DUP3 DUP2 PUSH1 0x3 ADD DUP2 SWAP1 SSTORE POP DUP2 DUP2 PUSH1 0x4 ADD DUP2 SWAP1 SSTORE POP CALLER PUSH20 0xFFFFFFFFFFFFFFFFFFFFFFFFFFFFFFFFFFFFFFFF AND PUSH32 0x18F5DFADC27470BF794C1463063C79A0BDD01CA6E7E3D25BD9C764DC07056EF7 DUP8 DUP8 DUP8 DUP8 DUP8 PUSH1 0x40 MLOAD PUSH2 0x557 SWAP6 SWAP5 SWAP4 SWAP3 SWAP2 SWAP1 PUSH2 0x190F JUMP JUMPDEST PUSH1 0x40 MLOAD DUP1 SWAP2 SUB SWAP1 LOG2 POP POP POP POP POP POP JUMP JUMPDEST PUSH1 0x2 PUSH0 SWAP1 SLOAD SWAP1 PUSH2 0x100 EXP SWAP1 DIV PUSH20 0xFFFFFFFFFFFFFFFFFFFFFFFFFFFFFFFFFFFFFFFF AND PUSH20 0xFFFFFFFFFFFFFFFFFFFFFFFFFFFFFFFFFFFFFFFF AND CALLER PUSH20 0xFFFFFFFFFFFFFFFFFFFFFFFFFFFFFFFFFFFFFFFF AND EQ PUSH2 0x5F6 JUMPI PUSH1 0x40 MLOAD PUSH32 0x8C379A000000000000000000000000000000000000000000000000000000000 DUP2 MSTORE PUSH1 0x4 ADD PUSH2 0x5ED SWAP1 PUSH2 0x1A19 JUMP JUMPDEST PUSH1 0x40 MLOAD DUP1 SWAP2 SUB SWAP1 REVERT JUMPDEST PUSH1 0x1 PUSH0 DUP3 PUSH20 0xFFFFFFFFFFFFFFFFFFFFFFFFFFFFFFFFFFFFFFFF AND PUSH20 0xFFFFFFFFFFFFFFFFFFFFFFFFFFFFFFFFFFFFFFFF AND DUP2 MSTORE PUSH1 0x20 ADD SWAP1 DUP2 MSTORE PUSH1 0x20 ADD PUSH0 KECCAK256 PUSH1 0x5 ADD PUSH0 SWAP1 SLOAD SWAP1 PUSH2 0x100 EXP SWAP1 DIV PUSH1 0xFF AND PUSH2 0x682 JUMPI PUSH1 0x40 MLOAD PUSH32 0x8C379A000000000000000000000000000000000000000000000000000000000 DUP2 MSTORE PUSH1 0x4 ADD PUSH2 0x679 SWAP1 PUSH2 0x19B1 JUMP JUMPDEST PUSH1 0x40 MLOAD DUP1 SWAP2 SUB SWAP1 REVERT JUMPDEST PUSH1 0x1 PUSH0 DUP3 PUSH20 0xFFFFFFFFFFFFFFFFFFFFFFFFFFFFFFFFFFFFFFFF AND PUSH20 0xFFFFFFFFFFFFFFFFFFFFFFFFFFFFFFFFFFFFFFFF AND DUP2 MSTORE PUSH1 0x20 ADD SWAP1 DUP2 MSTORE PUSH1 0x20 ADD PUSH0 KECCAK256 PUSH0 DUP1 DUP3 ADD PUSH0 PUSH2 0x6CE SWAP2 SWAP1 PUSH2 0xDDC JUMP JUMPDEST PUSH1 0x1 DUP3 ADD PUSH0 SWAP1 SSTORE PUSH1 0x2 DUP3 ADD PUSH0 SWAP1 SSTORE PUSH1 0x3 DUP3 ADD PUSH0 SWAP1 SSTORE PUSH1 0x4 DUP3 ADD PUSH0 SWAP1 SSTORE PUSH1 0x5 DUP3 ADD PUSH0 PUSH2 0x100 EXP DUP2 SLOAD SWAP1 PUSH1 0xFF MUL NOT AND SWAP1 SSTORE POP POP DUP1 PUSH20 0xFFFFFFFFFFFFFFFFFFFFFFFFFFFFFFFFFFFFFFFF AND PUSH32 0x4BC56F1321288DFB5B416CB3A7FD188723979F9E866C91D88ECCF7FCA039D039 PUSH1 0x40 MLOAD PUSH1 0x40 MLOAD DUP1 SWAP2 SUB SWAP1 LOG2 PUSH0 JUMPDEST PUSH0 DUP1 SLOAD SWAP1 POP DUP2 LT ISZERO PUSH2 0x8B5 JUMPI DUP2 PUSH20 0xFFFFFFFFFFFFFFFFFFFFFFFFFFFFFFFFFFFFFFFF AND PUSH0 DUP3 DUP2 SLOAD DUP2 LT PUSH2 0x77A JUMPI PUSH2 0x779 PUSH2 0x1A37 JUMP JUMPDEST JUMPDEST SWAP1 PUSH0 MSTORE PUSH1 0x20 PUSH0 KECCAK256 ADD PUSH0 SWAP1 SLOAD SWAP1 PUSH2 0x100 EXP SWAP1 DIV PUSH20 0xFFFFFFFFFFFFFFFFFFFFFFFFFFFFFFFFFFFFFFFF AND PUSH20 0xFFFFFFFFFFFFFFFFFFFFFFFFFFFFFFFFFFFFFFFF AND SUB PUSH2 0x8A8 JUMPI PUSH0 PUSH1 0x1 PUSH0 DUP1 SLOAD SWAP1 POP PUSH2 0x7CF SWAP2 SWAP1 PUSH2 0x1A91 JUMP JUMPDEST DUP2 SLOAD DUP2 LT PUSH2 0x7E0 JUMPI PUSH2 0x7DF PUSH2 0x1A37 JUMP JUMPDEST JUMPDEST SWAP1 PUSH0 MSTORE PUSH1 0x20 PUSH0 KECCAK256 ADD PUSH0 SWAP1 SLOAD SWAP1 PUSH2 0x100 EXP SWAP1 DIV PUSH20 0xFFFFFFFFFFFFFFFFFFFFFFFFFFFFFFFFFFFFFFFF AND PUSH0 DUP3 DUP2 SLOAD DUP2 LT PUSH2 0x81B JUMPI PUSH2 0x81A PUSH2 0x1A37 JUMP JUMPDEST JUMPDEST SWAP1 PUSH0 MSTORE PUSH1 0x20 PUSH0 KECCAK256 ADD PUSH0 PUSH2 0x100 EXP DUP2 SLOAD DUP2 PUSH20 0xFFFFFFFFFFFFFFFFFFFFFFFFFFFFFFFFFFFFFFFF MUL NOT AND SWAP1 DUP4 PUSH20 0xFFFFFFFFFFFFFFFFFFFFFFFFFFFFFFFFFFFFFFFF AND MUL OR SWAP1 SSTORE POP PUSH0 DUP1 SLOAD DUP1 PUSH2 0x871 JUMPI PUSH2 0x870 PUSH2 0x1AC4 JUMP JUMPDEST JUMPDEST PUSH1 0x1 SWAP1 SUB DUP2 DUP2 SWAP1 PUSH0 MSTORE PUSH1 0x20 PUSH0 KECCAK256 ADD PUSH0 PUSH2 0x100 EXP DUP2 SLOAD SWAP1 PUSH20 0xFFFFFFFFFFFFFFFFFFFFFFFFFFFFFFFFFFFFFFFF MUL NOT AND SWAP1 SSTORE SWAP1 SSTORE PUSH2 0x8B5 JUMP JUMPDEST DUP1 DUP1 PUSH1 0x1 ADD SWAP2 POP POP PUSH2 0x744 JUMP JUMPDEST POP POP JUMP JUMPDEST PUSH2 0x8C1 PUSH2 0xE19 JUMP JUMPDEST PUSH1 0x1 PUSH0 DUP4 PUSH20 0xFFFFFFFFFFFFFFFFFFFFFFFFFFFFFFFFFFFFFFFF AND PUSH20 0xFFFFFFFFFFFFFFFFFFFFFFFFFFFFFFFFFFFFFFFF AND DUP2 MSTORE PUSH1 0x20 ADD SWAP1 DUP2 MSTORE PUSH1 0x20 ADD PUSH0 KECCAK256 PUSH1 0x5 ADD PUSH0 SWAP1 SLOAD SWAP1 PUSH2 0x100 EXP SWAP1 DIV PUSH1 0xFF AND PUSH2 0x94D JUMPI PUSH1 0x40 MLOAD PUSH32 0x8C379A000000000000000000000000000000000000000000000000000000000 DUP2 MSTORE PUSH1 0x4 ADD PUSH2 0x944 SWAP1 PUSH2 0x19B1 JUMP JUMPDEST PUSH1 0x40 MLOAD DUP1 SWAP2 SUB SWAP1 REVERT JUMPDEST PUSH1 0x1 PUSH0 DUP4 PUSH20 0xFFFFFFFFFFFFFFFFFFFFFFFFFFFFFFFFFFFFFFFF AND PUSH20 0xFFFFFFFFFFFFFFFFFFFFFFFFFFFFFFFFFFFFFFFF AND DUP2 MSTORE PUSH1 0x20 ADD SWAP1 DUP2 MSTORE PUSH1 0x20 ADD PUSH0 KECCAK256 PUSH1 0x40 MLOAD DUP1 PUSH1 0xC0 ADD PUSH1 0x40 MSTORE SWAP1 DUP2 PUSH0 DUP3 ADD DUP1 SLOAD PUSH2 0x9A4 SWAP1 PUSH2 0x1673 JUMP JUMPDEST DUP1 PUSH1 0x1F ADD PUSH1 0x20 DUP1 SWAP2 DIV MUL PUSH1 0x20 ADD PUSH1 0x40 MLOAD SWAP1 DUP2 ADD PUSH1 0x40 MSTORE DUP1 SWAP3 SWAP2 SWAP1 DUP2 DUP2 MSTORE PUSH1 0x20 ADD DUP3 DUP1 SLOAD PUSH2 0x9D0 SWAP1 PUSH2 0x1673 JUMP JUMPDEST DUP1 ISZERO PUSH2 0xA1B JUMPI DUP1 PUSH1 0x1F LT PUSH2 0x9F2 JUMPI PUSH2 0x100 DUP1 DUP4 SLOAD DIV MUL DUP4 MSTORE SWAP2 PUSH1 0x20 ADD SWAP2 PUSH2 0xA1B JUMP JUMPDEST DUP3 ADD SWAP2 SWAP1 PUSH0 MSTORE PUSH1 0x20 PUSH0 KECCAK256 SWAP1 JUMPDEST DUP2 SLOAD DUP2 MSTORE SWAP1 PUSH1 0x1 ADD SWAP1 PUSH1 0x20 ADD DUP1 DUP4 GT PUSH2 0x9FE JUMPI DUP3 SWAP1 SUB PUSH1 0x1F AND DUP3 ADD SWAP2 JUMPDEST POP POP POP POP POP DUP2 MSTORE PUSH1 0x20 ADD PUSH1 0x1 DUP3 ADD SLOAD DUP2 MSTORE PUSH1 0x20 ADD PUSH1 0x2 DUP3 ADD SLOAD DUP2 MSTORE PUSH1 0x20 ADD PUSH1 0x3 DUP3 ADD SLOAD DUP2 MSTORE PUSH1 0x20 ADD PUSH1 0x4 DUP3 ADD SLOAD DUP2 MSTORE PUSH1 0x20 ADD PUSH1 0x5 DUP3 ADD PUSH0 SWAP1 SLOAD SWAP1 PUSH2 0x100 EXP SWAP1 DIV PUSH1 0xFF AND ISZERO ISZERO ISZERO ISZERO DUP2 MSTORE POP POP SWAP1 POP SWAP2 SWAP1 POP JUMP JUMPDEST PUSH1 0x60 PUSH0 DUP1 SLOAD DUP1 PUSH1 0x20 MUL PUSH1 0x20 ADD PUSH1 0x40 MLOAD SWAP1 DUP2 ADD PUSH1 0x40 MSTORE DUP1 SWAP3 SWAP2 SWAP1 DUP2 DUP2 MSTORE PUSH1 0x20 ADD DUP3 DUP1 SLOAD DUP1 ISZERO PUSH2 0xAED JUMPI PUSH1 0x20 MUL DUP3 ADD SWAP2 SWAP1 PUSH0 MSTORE PUSH1 0x20 PUSH0 KECCAK256 SWAP1 JUMPDEST DUP2 PUSH0 SWAP1 SLOAD SWAP1 PUSH2 0x100 EXP SWAP1 DIV PUSH20 0xFFFFFFFFFFFFFFFFFFFFFFFFFFFFFFFFFFFFFFFF AND PUSH20 0xFFFFFFFFFFFFFFFFFFFFFFFFFFFFFFFFFFFFFFFF AND DUP2 MSTORE PUSH1 0x20 ADD SWAP1 PUSH1 0x1 ADD SWAP1 DUP1 DUP4 GT PUSH2 0xAA4 JUMPI JUMPDEST POP POP POP POP POP SWAP1 POP SWAP1 JUMP JUMPDEST PUSH1 0x1 PUSH1 0x20 MSTORE DUP1 PUSH0 MSTORE PUSH1 0x40 PUSH0 KECCAK256 PUSH0 SWAP2 POP SWAP1 POP DUP1 PUSH0 ADD DUP1 SLOAD PUSH2 0xB16 SWAP1 PUSH2 0x1673 JUMP JUMPDEST DUP1 PUSH1 0x1F ADD PUSH1 0x20 DUP1 SWAP2 DIV MUL PUSH1 0x20 ADD PUSH1 0x40 MLOAD SWAP1 DUP2 ADD PUSH1 0x40 MSTORE DUP1 SWAP3 SWAP2 SWAP1 DUP2 DUP2 MSTORE PUSH1 0x20 ADD DUP3 DUP1 SLOAD PUSH2 0xB42 SWAP1 PUSH2 0x1673 JUMP JUMPDEST DUP1 ISZERO PUSH2 0xB8D JUMPI DUP1 PUSH1 0x1F LT PUSH2 0xB64 JUMPI PUSH2 0x100 DUP1 DUP4 SLOAD DIV MUL DUP4 MSTORE SWAP2 PUSH1 0x20 ADD SWAP2 PUSH2 0xB8D JUMP JUMPDEST DUP3 ADD SWAP2 SWAP1 PUSH0 MSTORE PUSH1 0x20 PUSH0 KECCAK256 SWAP1 JUMPDEST DUP2 SLOAD DUP2 MSTORE SWAP1 PUSH1 0x1 ADD SWAP1 PUSH1 0x20 ADD DUP1 DUP4 GT PUSH2 0xB70 JUMPI DUP3 SWAP1 SUB PUSH1 0x1F AND DUP3 ADD SWAP2 JUMPDEST POP POP POP POP POP SWAP1 DUP1 PUSH1 0x1 ADD SLOAD SWAP1 DUP1 PUSH1 0x2 ADD SLOAD SWAP1 DUP1 PUSH1 0x3 ADD SLOAD SWAP1 DUP1 PUSH1 0x4 ADD SLOAD SWAP1 DUP1 PUSH1 0x5 ADD PUSH0 SWAP1 SLOAD SWAP1 PUSH2 0x100 EXP SWAP1 DIV PUSH1 0xFF AND SWAP1 POP DUP7 JUMP JUMPDEST PUSH1 0x60 PUSH0 DUP1 DUP1 SLOAD SWAP1 POP PUSH8 0xFFFFFFFFFFFFFFFF DUP2 GT ISZERO PUSH2 0xBE2 JUMPI PUSH2 0xBE1 PUSH2 0xF48 JUMP JUMPDEST JUMPDEST PUSH1 0x40 MLOAD SWAP1 DUP1 DUP3 MSTORE DUP1 PUSH1 0x20 MUL PUSH1 0x20 ADD DUP3 ADD PUSH1 0x40 MSTORE DUP1 ISZERO PUSH2 0xC1B JUMPI DUP2 PUSH1 0x20 ADD JUMPDEST PUSH2 0xC08 PUSH2 0xE19 JUMP JUMPDEST DUP2 MSTORE PUSH1 0x20 ADD SWAP1 PUSH1 0x1 SWAP1 SUB SWAP1 DUP2 PUSH2 0xC00 JUMPI SWAP1 POP JUMPDEST POP SWAP1 POP PUSH0 JUMPDEST PUSH0 DUP1 SLOAD SWAP1 POP DUP2 LT ISZERO PUSH2 0xDAF JUMPI PUSH0 DUP1 DUP3 DUP2 SLOAD DUP2 LT PUSH2 0xC40 JUMPI PUSH2 0xC3F PUSH2 0x1A37 JUMP JUMPDEST JUMPDEST SWAP1 PUSH0 MSTORE PUSH1 0x20 PUSH0 KECCAK256 ADD PUSH0 SWAP1 SLOAD SWAP1 PUSH2 0x100 EXP SWAP1 DIV PUSH20 0xFFFFFFFFFFFFFFFFFFFFFFFFFFFFFFFFFFFFFFFF AND SWAP1 POP PUSH1 0x1 PUSH0 DUP3 PUSH20 0xFFFFFFFFFFFFFFFFFFFFFFFFFFFFFFFFFFFFFFFF AND PUSH20 0xFFFFFFFFFFFFFFFFFFFFFFFFFFFFFFFFFFFFFFFF AND DUP2 MSTORE PUSH1 0x20 ADD SWAP1 DUP2 MSTORE PUSH1 0x20 ADD PUSH0 KECCAK256 PUSH1 0x40 MLOAD DUP1 PUSH1 0xC0 ADD PUSH1 0x40 MSTORE SWAP1 DUP2 PUSH0 DUP3 ADD DUP1 SLOAD PUSH2 0xCC1 SWAP1 PUSH2 0x1673 JUMP JUMPDEST DUP1 PUSH1 0x1F ADD PUSH1 0x20 DUP1 SWAP2 DIV MUL PUSH1 0x20 ADD PUSH1 0x40 MLOAD SWAP1 DUP2 ADD PUSH1 0x40 MSTORE DUP1 SWAP3 SWAP2 SWAP1 DUP2 DUP2 MSTORE PUSH1 0x20 ADD DUP3 DUP1 SLOAD PUSH2 0xCED SWAP1 PUSH2 0x1673 JUMP JUMPDEST DUP1 ISZERO PUSH2 0xD38 JUMPI DUP1 PUSH1 0x1F LT PUSH2 0xD0F JUMPI PUSH2 0x100 DUP1 DUP4 SLOAD DIV MUL DUP4 MSTORE SWAP2 PUSH1 0x20 ADD SWAP2 PUSH2 0xD38 JUMP JUMPDEST DUP3 ADD SWAP2 SWAP1 PUSH0 MSTORE PUSH1 0x20 PUSH0 KECCAK256 SWAP1 JUMPDEST DUP2 SLOAD DUP2 MSTORE SWAP1 PUSH1 0x1 ADD SWAP1 PUSH1 0x20 ADD DUP1 DUP4 GT PUSH2 0xD1B JUMPI DUP3 SWAP1 SUB PUSH1 0x1F AND DUP3 ADD SWAP2 JUMPDEST POP POP POP POP POP DUP2 MSTORE PUSH1 0x20 ADD PUSH1 0x1 DUP3 ADD SLOAD DUP2 MSTORE PUSH1 0x20 ADD PUSH1 0x2 DUP3 ADD SLOAD DUP2 MSTORE PUSH1 0x20 ADD PUSH1 0x3 DUP3 ADD SLOAD DUP2 MSTORE PUSH1 0x20 ADD PUSH1 0x4 DUP3 ADD SLOAD DUP2 MSTORE PUSH1 0x20 ADD PUSH1 0x5 DUP3 ADD PUSH0 SWAP1 SLOAD SWAP1 PUSH2 0x100 EXP SWAP1 DIV PUSH1 0xFF AND ISZERO ISZERO ISZERO ISZERO DUP2 MSTORE POP POP DUP4 DUP4 DUP2 MLOAD DUP2 LT PUSH2 0xD96 JUMPI PUSH2 0xD95 PUSH2 0x1A37 JUMP JUMPDEST JUMPDEST PUSH1 0x20 MUL PUSH1 0x20 ADD ADD DUP2 SWAP1 MSTORE POP POP DUP1 DUP1 PUSH1 0x1 ADD SWAP2 POP POP PUSH2 0xC20 JUMP JUMPDEST POP DUP1 SWAP2 POP POP SWAP1 JUMP JUMPDEST PUSH1 0x2 PUSH0 SWAP1 SLOAD SWAP1 PUSH2 0x100 EXP SWAP1 DIV PUSH20 0xFFFFFFFFFFFFFFFFFFFFFFFFFFFFFFFFFFFFFFFF AND DUP2 JUMP JUMPDEST POP DUP1 SLOAD PUSH2 0xDE8 SWAP1 PUSH2 0x1673 JUMP JUMPDEST PUSH0 DUP3 SSTORE DUP1 PUSH1 0x1F LT PUSH2 0xDF9 JUMPI POP PUSH2 0xE16 JUMP JUMPDEST PUSH1 0x1F ADD PUSH1 0x20 SWAP1 DIV SWAP1 PUSH0 MSTORE PUSH1 0x20 PUSH0 KECCAK256 SWAP1 DUP2 ADD SWAP1 PUSH2 0xE15 SWAP2 SWAP1 PUSH2 0xE4C JUMP JUMPDEST JUMPDEST POP JUMP JUMPDEST PUSH1 0x40 MLOAD DUP1 PUSH1 0xC0 ADD PUSH1 0x40 MSTORE DUP1 PUSH1 0x60 DUP2 MSTORE PUSH1 0x20 ADD PUSH0 DUP2 MSTORE PUSH1 0x20 ADD PUSH0 DUP2 MSTORE PUSH1 0x20 ADD PUSH0 DUP2 MSTORE PUSH1 0x20 ADD PUSH0 DUP2 MSTORE PUSH1 0x20 ADD PUSH0 ISZERO ISZERO DUP2 MSTORE POP SWAP1 JUMP JUMPDEST JUMPDEST DUP1 DUP3 GT ISZERO PUSH2 0xE63 JUMPI PUSH0 DUP2 PUSH0 SWAP1 SSTORE POP PUSH1 0x1 ADD PUSH2 0xE4D JUMP JUMPDEST POP SWAP1 JUMP JUMPDEST PUSH0 PUSH1 0x40 MLOAD SWAP1 POP SWAP1 JUMP JUMPDEST PUSH0 DUP1 REVERT JUMPDEST PUSH0 DUP1 REVERT JUMPDEST PUSH0 PUSH20 0xFFFFFFFFFFFFFFFFFFFFFFFFFFFFFFFFFFFFFFFF DUP3 AND SWAP1 POP SWAP2 SWAP1 POP JUMP JUMPDEST PUSH0 PUSH2 0xEA1 DUP3 PUSH2 0xE78 JUMP JUMPDEST SWAP1 POP SWAP2 SWAP1 POP JUMP JUMPDEST PUSH2 0xEB1 DUP2 PUSH2 0xE97 JUMP JUMPDEST DUP2 EQ PUSH2 0xEBB JUMPI PUSH0 DUP1 REVERT JUMPDEST POP JUMP JUMPDEST PUSH0 DUP2 CALLDATALOAD SWAP1 POP PUSH2 0xECC DUP2 PUSH2 0xEA8 JUMP JUMPDEST SWAP3 SWAP2 POP POP JUMP JUMPDEST PUSH0 PUSH1 0x20 DUP3 DUP5 SUB SLT ISZERO PUSH2 0xEE7 JUMPI PUSH2 0xEE6 PUSH2 0xE70 JUMP JUMPDEST JUMPDEST PUSH0 PUSH2 0xEF4 DUP5 DUP3 DUP6 ADD PUSH2 0xEBE JUMP JUMPDEST SWAP2 POP POP SWAP3 SWAP2 POP POP JUMP JUMPDEST PUSH0 DUP2 ISZERO ISZERO SWAP1 POP SWAP2 SWAP1 POP JUMP JUMPDEST PUSH2 0xF11 DUP2 PUSH2 0xEFD JUMP JUMPDEST DUP3 MSTORE POP POP JUMP JUMPDEST PUSH0 PUSH1 0x20 DUP3 ADD SWAP1 POP PUSH2 0xF2A PUSH0 DUP4 ADD DUP5 PUSH2 0xF08 JUMP JUMPDEST SWAP3 SWAP2 POP POP JUMP JUMPDEST PUSH0 DUP1 REVERT JUMPDEST PUSH0 DUP1 REVERT JUMPDEST PUSH0 PUSH1 0x1F NOT PUSH1 0x1F DUP4 ADD AND SWAP1 POP SWAP2 SWAP1 POP JUMP JUMPDEST PUSH32 0x4E487B7100000000000000000000000000000000000000000000000000000000 PUSH0 MSTORE PUSH1 0x41 PUSH1 0x4 MSTORE PUSH1 0x24 PUSH0 REVERT JUMPDEST PUSH2 0xF7E DUP3 PUSH2 0xF38 JUMP JUMPDEST DUP2 ADD DUP2 DUP2 LT PUSH8 0xFFFFFFFFFFFFFFFF DUP3 GT OR ISZERO PUSH2 0xF9D JUMPI PUSH2 0xF9C PUSH2 0xF48 JUMP JUMPDEST JUMPDEST DUP1 PUSH1 0x40 MSTORE POP POP POP JUMP JUMPDEST PUSH0 PUSH2 0xFAF PUSH2 0xE67 JUMP JUMPDEST SWAP1 POP PUSH2 0xFBB DUP3 DUP3 PUSH2 0xF75 JUMP JUMPDEST SWAP2 SWAP1 POP JUMP JUMPDEST PUSH0 PUSH8 0xFFFFFFFFFFFFFFFF DUP3 GT ISZERO PUSH2 0xFDA JUMPI PUSH2 0xFD9 PUSH2 0xF48 JUMP JUMPDEST JUMPDEST PUSH2 0xFE3 DUP3 PUSH2 0xF38 JUMP JUMPDEST SWAP1 POP PUSH1 0x20 DUP2 ADD SWAP1 POP SWAP2 SWAP1 POP JUMP JUMPDEST DUP3 DUP2 DUP4 CALLDATACOPY PUSH0 DUP4 DUP4 ADD MSTORE POP POP POP JUMP JUMPDEST PUSH0 PUSH2 0x1010 PUSH2 0x100B DUP5 PUSH2 0xFC0 JUMP JUMPDEST PUSH2 0xFA6 JUMP JUMPDEST SWAP1 POP DUP3 DUP2 MSTORE PUSH1 0x20 DUP2 ADD DUP5 DUP5 DUP5 ADD GT ISZERO PUSH2 0x102C JUMPI PUSH2 0x102B PUSH2 0xF34 JUMP JUMPDEST JUMPDEST PUSH2 0x1037 DUP5 DUP3 DUP6 PUSH2 0xFF0 JUMP JUMPDEST POP SWAP4 SWAP3 POP POP POP JUMP JUMPDEST PUSH0 DUP3 PUSH1 0x1F DUP4 ADD SLT PUSH2 0x1053 JUMPI PUSH2 0x1052 PUSH2 0xF30 JUMP JUMPDEST JUMPDEST DUP2 CALLDATALOAD PUSH2 0x1063 DUP5 DUP3 PUSH1 0x20 DUP7 ADD PUSH2 0xFFE JUMP JUMPDEST SWAP2 POP POP SWAP3 SWAP2 POP POP JUMP JUMPDEST PUSH0 DUP2 SWAP1 POP SWAP2 SWAP1 POP JUMP JUMPDEST PUSH2 0x107E DUP2 PUSH2 0x106C JUMP JUMPDEST DUP2 EQ PUSH2 0x1088 JUMPI PUSH0 DUP1 REVERT JUMPDEST POP JUMP JUMPDEST PUSH0 DUP2 CALLDATALOAD SWAP1 POP PUSH2 0x1099 DUP2 PUSH2 0x1075 JUMP JUMPDEST SWAP3 SWAP2 POP POP JUMP JUMPDEST PUSH0 DUP2 SWAP1 POP SWAP2 SWAP1 POP JUMP JUMPDEST PUSH2 0x10B1 DUP2 PUSH2 0x109F JUMP JUMPDEST DUP2 EQ PUSH2 0x10BB JUMPI PUSH0 DUP1 REVERT JUMPDEST POP JUMP JUMPDEST PUSH0 DUP2 CALLDATALOAD SWAP1 POP PUSH2 0x10CC DUP2 PUSH2 0x10A8 JUMP JUMPDEST SWAP3 SWAP2 POP POP JUMP JUMPDEST PUSH0 DUP1 PUSH0 DUP1 PUSH0 PUSH1 0xA0 DUP7 DUP9 SUB SLT ISZERO PUSH2 0x10EB JUMPI PUSH2 0x10EA PUSH2 0xE70 JUMP JUMPDEST JUMPDEST PUSH0 DUP7 ADD CALLDATALOAD PUSH8 0xFFFFFFFFFFFFFFFF DUP2 GT ISZERO PUSH2 0x1108 JUMPI PUSH2 0x1107 PUSH2 0xE74 JUMP JUMPDEST JUMPDEST PUSH2 0x1114 DUP9 DUP3 DUP10 ADD PUSH2 0x103F JUMP JUMPDEST SWAP6 POP POP PUSH1 0x20 PUSH2 0x1125 DUP9 DUP3 DUP10 ADD PUSH2 0x108B JUMP JUMPDEST SWAP5 POP POP PUSH1 0x40 PUSH2 0x1136 DUP9 DUP3 DUP10 ADD PUSH2 0x108B JUMP JUMPDEST SWAP4 POP POP PUSH1 0x60 PUSH2 0x1147 DUP9 DUP3 DUP10 ADD PUSH2 0x10BE JUMP JUMPDEST SWAP3 POP POP PUSH1 0x80 PUSH2 0x1158 DUP9 DUP3 DUP10 ADD PUSH2 0x10BE JUMP JUMPDEST SWAP2 POP POP SWAP3 SWAP6 POP SWAP3 SWAP6 SWAP1 SWAP4 POP JUMP JUMPDEST PUSH0 DUP2 MLOAD SWAP1 POP SWAP2 SWAP1 POP JUMP JUMPDEST PUSH0 DUP3 DUP3 MSTORE PUSH1 0x20 DUP3 ADD SWAP1 POP SWAP3 SWAP2 POP POP JUMP JUMPDEST PUSH0 JUMPDEST DUP4 DUP2 LT ISZERO PUSH2 0x119C JUMPI DUP1 DUP3 ADD MLOAD DUP2 DUP5 ADD MSTORE PUSH1 0x20 DUP2 ADD SWAP1 POP PUSH2 0x1181 JUMP JUMPDEST PUSH0 DUP5 DUP5 ADD MSTORE POP POP POP POP JUMP JUMPDEST PUSH0 PUSH2 0x11B1 DUP3 PUSH2 0x1165 JUMP JUMPDEST PUSH2 0x11BB DUP2 DUP6 PUSH2 0x116F JUMP JUMPDEST SWAP4 POP PUSH2 0x11CB DUP2 DUP6 PUSH1 0x20 DUP7 ADD PUSH2 0x117F JUMP JUMPDEST PUSH2 0x11D4 DUP2 PUSH2 0xF38 JUMP JUMPDEST DUP5 ADD SWAP2 POP POP SWAP3 SWAP2 POP POP JUMP JUMPDEST PUSH2 0x11E8 DUP2 PUSH2 0x106C JUMP JUMPDEST DUP3 MSTORE POP POP JUMP JUMPDEST PUSH2 0x11F7 DUP2 PUSH2 0x109F JUMP JUMPDEST DUP3 MSTORE POP POP JUMP JUMPDEST PUSH2 0x1206 DUP2 PUSH2 0xEFD JUMP JUMPDEST DUP3 MSTORE POP POP JUMP JUMPDEST PUSH0 PUSH1 0xC0 DUP4 ADD PUSH0 DUP4 ADD MLOAD DUP5 DUP3 SUB PUSH0 DUP7 ADD MSTORE PUSH2 0x1226 DUP3 DUP3 PUSH2 0x11A7 JUMP JUMPDEST SWAP2 POP POP PUSH1 0x20 DUP4 ADD MLOAD PUSH2 0x123B PUSH1 0x20 DUP7 ADD DUP3 PUSH2 0x11DF JUMP JUMPDEST POP PUSH1 0x40 DUP4 ADD MLOAD PUSH2 0x124E PUSH1 0x40 DUP7 ADD DUP3 PUSH2 0x11DF JUMP JUMPDEST POP PUSH1 0x60 DUP4 ADD MLOAD PUSH2 0x1261 PUSH1 0x60 DUP7 ADD DUP3 PUSH2 0x11EE JUMP JUMPDEST POP PUSH1 0x80 DUP4 ADD MLOAD PUSH2 0x1274 PUSH1 0x80 DUP7 ADD DUP3 PUSH2 0x11EE JUMP JUMPDEST POP PUSH1 0xA0 DUP4 ADD MLOAD PUSH2 0x1287 PUSH1 0xA0 DUP7 ADD DUP3 PUSH2 0x11FD JUMP JUMPDEST POP DUP1 SWAP2 POP POP SWAP3 SWAP2 POP POP JUMP JUMPDEST PUSH0 PUSH1 0x20 DUP3 ADD SWAP1 POP DUP2 DUP2 SUB PUSH0 DUP4 ADD MSTORE PUSH2 0x12AA DUP2 DUP5 PUSH2 0x120C JUMP JUMPDEST SWAP1 POP SWAP3 SWAP2 POP POP JUMP JUMPDEST PUSH0 DUP2 MLOAD SWAP1 POP SWAP2 SWAP1 POP JUMP JUMPDEST PUSH0 DUP3 DUP3 MSTORE PUSH1 0x20 DUP3 ADD SWAP1 POP SWAP3 SWAP2 POP POP JUMP JUMPDEST PUSH0 DUP2 SWAP1 POP PUSH1 0x20 DUP3 ADD SWAP1 POP SWAP2 SWAP1 POP JUMP JUMPDEST PUSH2 0x12E4 DUP2 PUSH2 0xE97 JUMP JUMPDEST DUP3 MSTORE POP POP JUMP JUMPDEST PUSH0 PUSH2 0x12F5 DUP4 DUP4 PUSH2 0x12DB JUMP JUMPDEST PUSH1 0x20 DUP4 ADD SWAP1 POP SWAP3 SWAP2 POP POP JUMP JUMPDEST PUSH0 PUSH1 0x20 DUP3 ADD SWAP1 POP SWAP2 SWAP1 POP JUMP JUMPDEST PUSH0 PUSH2 0x1317 DUP3 PUSH2 0x12B2 JUMP JUMPDEST PUSH2 0x1321 DUP2 DUP6 PUSH2 0x12BC JUMP JUMPDEST SWAP4 POP PUSH2 0x132C DUP4 PUSH2 0x12CC JUMP JUMPDEST DUP1 PUSH0 JUMPDEST DUP4 DUP2 LT ISZERO PUSH2 0x135C JUMPI DUP2 MLOAD PUSH2 0x1343 DUP9 DUP3 PUSH2 0x12EA JUMP JUMPDEST SWAP8 POP PUSH2 0x134E DUP4 PUSH2 0x1301 JUMP JUMPDEST SWAP3 POP POP PUSH1 0x1 DUP2 ADD SWAP1 POP PUSH2 0x132F JUMP JUMPDEST POP DUP6 SWAP4 POP POP POP POP SWAP3 SWAP2 POP POP JUMP JUMPDEST PUSH0 PUSH1 0x20 DUP3 ADD SWAP1 POP DUP2 DUP2 SUB PUSH0 DUP4 ADD MSTORE PUSH2 0x1381 DUP2 DUP5 PUSH2 0x130D JUMP JUMPDEST SWAP1 POP SWAP3 SWAP2 POP POP JUMP JUMPDEST PUSH0 DUP3 DUP3 MSTORE PUSH1 0x20 DUP3 ADD SWAP1 POP SWAP3 SWAP2 POP POP JUMP JUMPDEST PUSH0 PUSH2 0x13A3 DUP3 PUSH2 0x1165 JUMP JUMPDEST PUSH2 0x13AD DUP2 DUP6 PUSH2 0x1389 JUMP JUMPDEST SWAP4 POP PUSH2 0x13BD DUP2 DUP6 PUSH1 0x20 DUP7 ADD PUSH2 0x117F JUMP JUMPDEST PUSH2 0x13C6 DUP2 PUSH2 0xF38 JUMP JUMPDEST DUP5 ADD SWAP2 POP POP SWAP3 SWAP2 POP POP JUMP JUMPDEST PUSH2 0x13DA DUP2 PUSH2 0x106C JUMP JUMPDEST DUP3 MSTORE POP POP JUMP JUMPDEST PUSH2 0x13E9 DUP2 PUSH2 0x109F JUMP JUMPDEST DUP3 MSTORE POP POP JUMP JUMPDEST PUSH0 PUSH1 0xC0 DUP3 ADD SWAP1 POP DUP2 DUP2 SUB PUSH0 DUP4 ADD MSTORE PUSH2 0x1407 DUP2 DUP10 PUSH2 0x1399 JUMP JUMPDEST SWAP1 POP PUSH2 0x1416 PUSH1 0x20 DUP4 ADD DUP9 PUSH2 0x13D1 JUMP JUMPDEST PUSH2 0x1423 PUSH1 0x40 DUP4 ADD DUP8 PUSH2 0x13D1 JUMP JUMPDEST PUSH2 0x1430 PUSH1 0x60 DUP4 ADD DUP7 PUSH2 0x13E0 JUMP JUMPDEST PUSH2 0x143D PUSH1 0x80 DUP4 ADD DUP6 PUSH2 0x13E0 JUMP JUMPDEST PUSH2 0x144A PUSH1 0xA0 DUP4 ADD DUP5 PUSH2 0xF08 JUMP JUMPDEST SWAP8 SWAP7 POP POP POP POP POP POP POP JUMP JUMPDEST PUSH0 DUP2 MLOAD SWAP1 POP SWAP2 SWAP1 POP JUMP JUMPDEST PUSH0 DUP3 DUP3 MSTORE PUSH1 0x20 DUP3 ADD SWAP1 POP SWAP3 SWAP2 POP POP JUMP JUMPDEST PUSH0 DUP2 SWAP1 POP PUSH1 0x20 DUP3 ADD SWAP1 POP SWAP2 SWAP1 POP JUMP JUMPDEST PUSH0 PUSH1 0xC0 DUP4 ADD PUSH0 DUP4 ADD MLOAD DUP5 DUP3 SUB PUSH0 DUP7 ADD MSTORE PUSH2 0x1498 DUP3 DUP3 PUSH2 0x11A7 JUMP JUMPDEST SWAP2 POP POP PUSH1 0x20 DUP4 ADD MLOAD PUSH2 0x14AD PUSH1 0x20 DUP7 ADD DUP3 PUSH2 0x11DF JUMP JUMPDEST POP PUSH1 0x40 DUP4 ADD MLOAD PUSH2 0x14C0 PUSH1 0x40 DUP7 ADD DUP3 PUSH2 0x11DF JUMP JUMPDEST POP PUSH1 0x60 DUP4 ADD MLOAD PUSH2 0x14D3 PUSH1 0x60 DUP7 ADD DUP3 PUSH2 0x11EE JUMP JUMPDEST POP PUSH1 0x80 DUP4 ADD MLOAD PUSH2 0x14E6 PUSH1 0x80 DUP7 ADD DUP3 PUSH2 0x11EE JUMP JUMPDEST POP PUSH1 0xA0 DUP4 ADD MLOAD PUSH2 0x14F9 PUSH1 0xA0 DUP7 ADD DUP3 PUSH2 0x11FD JUMP JUMPDEST POP DUP1 SWAP2 POP POP SWAP3 SWAP2 POP POP JUMP JUMPDEST PUSH0 PUSH2 0x150F DUP4 DUP4 PUSH2 0x147E JUMP JUMPDEST SWAP1 POP SWAP3 SWAP2 POP POP JUMP JUMPDEST PUSH0 PUSH1 0x20 DUP3 ADD SWAP1 POP SWAP2 SWAP1 POP JUMP JUMPDEST PUSH0 PUSH2 0x152D DUP3 PUSH2 0x1455 JUMP JUMPDEST PUSH2 0x1537 DUP2 DUP6 PUSH2 0x145F JUMP JUMPDEST SWAP4 POP DUP4 PUSH1 0x20 DUP3 MUL DUP6 ADD PUSH2 0x1549 DUP6 PUSH2 0x146F JUMP JUMPDEST DUP1 PUSH0 JUMPDEST DUP6 DUP2 LT ISZERO PUSH2 0x1584 JUMPI DUP5 DUP5 SUB DUP10 MSTORE DUP2 MLOAD PUSH2 0x1565 DUP6 DUP3 PUSH2 0x1504 JUMP JUMPDEST SWAP5 POP PUSH2 0x1570 DUP4 PUSH2 0x1517 JUMP JUMPDEST SWAP3 POP PUSH1 0x20 DUP11 ADD SWAP10 POP POP PUSH1 0x1 DUP2 ADD SWAP1 POP PUSH2 0x154C JUMP JUMPDEST POP DUP3 SWAP8 POP DUP8 SWAP6 POP POP POP POP POP POP SWAP3 SWAP2 POP POP JUMP JUMPDEST PUSH0 PUSH1 0x20 DUP3 ADD SWAP1 POP DUP2 DUP2 SUB PUSH0 DUP4 ADD MSTORE PUSH2 0x15AE DUP2 DUP5 PUSH2 0x1523 JUMP JUMPDEST SWAP1 POP SWAP3 SWAP2 POP POP JUMP JUMPDEST PUSH2 0x15BF DUP2 PUSH2 0xE97 JUMP JUMPDEST DUP3 MSTORE POP POP JUMP JUMPDEST PUSH0 PUSH1 0x20 DUP3 ADD SWAP1 POP PUSH2 0x15D8 PUSH0 DUP4 ADD DUP5 PUSH2 0x15B6 JUMP JUMPDEST SWAP3 SWAP2 POP POP JUMP JUMPDEST PUSH32 0x5573657220616C726561647920726567697374657265642E0000000000000000 PUSH0 DUP3 ADD MSTORE POP JUMP JUMPDEST PUSH0 PUSH2 0x1612 PUSH1 0x18 DUP4 PUSH2 0x1389 JUMP JUMPDEST SWAP2 POP PUSH2 0x161D DUP3 PUSH2 0x15DE JUMP JUMPDEST PUSH1 0x20 DUP3 ADD SWAP1 POP SWAP2 SWAP1 POP JUMP JUMPDEST PUSH0 PUSH1 0x20 DUP3 ADD SWAP1 POP DUP2 DUP2 SUB PUSH0 DUP4 ADD MSTORE PUSH2 0x163F DUP2 PUSH2 0x1606 JUMP JUMPDEST SWAP1 POP SWAP2 SWAP1 POP JUMP JUMPDEST PUSH32 0x4E487B7100000000000000000000000000000000000000000000000000000000 PUSH0 MSTORE PUSH1 0x22 PUSH1 0x4 MSTORE PUSH1 0x24 PUSH0 REVERT JUMPDEST PUSH0 PUSH1 0x2 DUP3 DIV SWAP1 POP PUSH1 0x1 DUP3 AND DUP1 PUSH2 0x168A JUMPI PUSH1 0x7F DUP3 AND SWAP2 POP JUMPDEST PUSH1 0x20 DUP3 LT DUP2 SUB PUSH2 0x169D JUMPI PUSH2 0x169C PUSH2 0x1646 JUMP JUMPDEST JUMPDEST POP SWAP2 SWAP1 POP JUMP JUMPDEST PUSH0 DUP2 SWAP1 POP DUP2 PUSH0 MSTORE PUSH1 0x20 PUSH0 KECCAK256 SWAP1 POP SWAP2 SWAP1 POP JUMP JUMPDEST PUSH0 PUSH1 0x20 PUSH1 0x1F DUP4 ADD DIV SWAP1 POP SWAP2 SWAP1 POP JUMP JUMPDEST PUSH0 DUP3 DUP3 SHL SWAP1 POP SWAP3 SWAP2 POP POP JUMP JUMPDEST PUSH0 PUSH1 0x8 DUP4 MUL PUSH2 0x16FF PUSH32 0xFFFFFFFFFFFFFFFFFFFFFFFFFFFFFFFFFFFFFFFFFFFFFFFFFFFFFFFFFFFFFFFF DUP3 PUSH2 0x16C4 JUMP JUMPDEST PUSH2 0x1709 DUP7 DUP4 PUSH2 0x16C4 JUMP JUMPDEST SWAP6 POP DUP1 NOT DUP5 AND SWAP4 POP DUP1 DUP7 AND DUP5 OR SWAP3 POP POP POP SWAP4 SWAP3 POP POP POP JUMP JUMPDEST PUSH0 DUP2 SWAP1 POP SWAP2 SWAP1 POP JUMP JUMPDEST PUSH0 PUSH2 0x1744 PUSH2 0x173F PUSH2 0x173A DUP5 PUSH2 0x109F JUMP JUMPDEST PUSH2 0x1721 JUMP JUMPDEST PUSH2 0x109F JUMP JUMPDEST SWAP1 POP SWAP2 SWAP1 POP JUMP JUMPDEST PUSH0 DUP2 SWAP1 POP SWAP2 SWAP1 POP JUMP JUMPDEST PUSH2 0x175D DUP4 PUSH2 0x172A JUMP JUMPDEST PUSH2 0x1771 PUSH2 0x1769 DUP3 PUSH2 0x174B JUMP JUMPDEST DUP5 DUP5 SLOAD PUSH2 0x16D0 JUMP JUMPDEST DUP3 SSTORE POP POP POP POP JUMP JUMPDEST PUSH0 SWAP1 JUMP JUMPDEST PUSH2 0x1785 PUSH2 0x1779 JUMP JUMPDEST PUSH2 0x1790 DUP2 DUP5 DUP5 PUSH2 0x1754 JUMP JUMPDEST POP POP POP JUMP JUMPDEST JUMPDEST DUP2 DUP2 LT ISZERO PUSH2 0x17B3 JUMPI PUSH2 0x17A8 PUSH0 DUP3 PUSH2 0x177D JUMP JUMPDEST PUSH1 0x1 DUP2 ADD SWAP1 POP PUSH2 0x1796 JUMP JUMPDEST POP POP JUMP JUMPDEST PUSH1 0x1F DUP3 GT ISZERO PUSH2 0x17F8 JUMPI PUSH2 0x17C9 DUP2 PUSH2 0x16A3 JUMP JUMPDEST PUSH2 0x17D2 DUP5 PUSH2 0x16B5 JUMP JUMPDEST DUP2 ADD PUSH1 0x20 DUP6 LT ISZERO PUSH2 0x17E1 JUMPI DUP2 SWAP1 POP JUMPDEST PUSH2 0x17F5 PUSH2 0x17ED DUP6 PUSH2 0x16B5 JUMP JUMPDEST DUP4 ADD DUP3 PUSH2 0x1795 JUMP JUMPDEST POP POP JUMPDEST POP POP POP JUMP JUMPDEST PUSH0 DUP3 DUP3 SHR SWAP1 POP SWAP3 SWAP2 POP POP JUMP JUMPDEST PUSH0 PUSH2 0x1818 PUSH0 NOT DUP5 PUSH1 0x8 MUL PUSH2 0x17FD JUMP JUMPDEST NOT DUP1 DUP4 AND SWAP2 POP POP SWAP3 SWAP2 POP POP JUMP JUMPDEST PUSH0 PUSH2 0x1830 DUP4 DUP4 PUSH2 0x1809 JUMP JUMPDEST SWAP2 POP DUP3 PUSH1 0x2 MUL DUP3 OR SWAP1 POP SWAP3 SWAP2 POP POP JUMP JUMPDEST PUSH2 0x1849 DUP3 PUSH2 0x1165 JUMP JUMPDEST PUSH8 0xFFFFFFFFFFFFFFFF DUP2 GT ISZERO PUSH2 0x1862 JUMPI PUSH2 0x1861 PUSH2 0xF48 JUMP JUMPDEST JUMPDEST PUSH2 0x186C DUP3 SLOAD PUSH2 0x1673 JUMP JUMPDEST PUSH2 0x1877 DUP3 DUP3 DUP6 PUSH2 0x17B7 JUMP JUMPDEST PUSH0 PUSH1 0x20 SWAP1 POP PUSH1 0x1F DUP4 GT PUSH1 0x1 DUP2 EQ PUSH2 0x18A8 JUMPI PUSH0 DUP5 ISZERO PUSH2 0x1896 JUMPI DUP3 DUP8 ADD MLOAD SWAP1 POP JUMPDEST PUSH2 0x18A0 DUP6 DUP3 PUSH2 0x1825 JUMP JUMPDEST DUP7 SSTORE POP PUSH2 0x1907 JUMP JUMPDEST PUSH1 0x1F NOT DUP5 AND PUSH2 0x18B6 DUP7 PUSH2 0x16A3 JUMP JUMPDEST PUSH0 JUMPDEST DUP3 DUP2 LT ISZERO PUSH2 0x18DD JUMPI DUP5 DUP10 ADD MLOAD DUP3 SSTORE PUSH1 0x1 DUP3 ADD SWAP2 POP PUSH1 0x20 DUP6 ADD SWAP5 POP PUSH1 0x20 DUP2 ADD SWAP1 POP PUSH2 0x18B8 JUMP JUMPDEST DUP7 DUP4 LT ISZERO PUSH2 0x18FA JUMPI DUP5 DUP10 ADD MLOAD PUSH2 0x18F6 PUSH1 0x1F DUP10 AND DUP3 PUSH2 0x1809 JUMP JUMPDEST DUP4 SSTORE POP JUMPDEST PUSH1 0x1 PUSH1 0x2 DUP9 MUL ADD DUP9 SSTORE POP POP POP JUMPDEST POP POP POP POP POP POP JUMP JUMPDEST PUSH0 PUSH1 0xA0 DUP3 ADD SWAP1 POP DUP2 DUP2 SUB PUSH0 DUP4 ADD MSTORE PUSH2 0x1927 DUP2 DUP9 PUSH2 0x1399 JUMP JUMPDEST SWAP1 POP PUSH2 0x1936 PUSH1 0x20 DUP4 ADD DUP8 PUSH2 0x13D1 JUMP JUMPDEST PUSH2 0x1943 PUSH1 0x40 DUP4 ADD DUP7 PUSH2 0x13D1 JUMP JUMPDEST PUSH2 0x1950 PUSH1 0x60 DUP4 ADD DUP6 PUSH2 0x13E0 JUMP JUMPDEST PUSH2 0x195D PUSH1 0x80 DUP4 ADD DUP5 PUSH2 0x13E0 JUMP JUMPDEST SWAP7 SWAP6 POP POP POP POP POP POP JUMP JUMPDEST PUSH32 0x55736572206973206E6F7420726567697374657265642E000000000000000000 PUSH0 DUP3 ADD MSTORE POP JUMP JUMPDEST PUSH0 PUSH2 0x199B PUSH1 0x17 DUP4 PUSH2 0x1389 JUMP JUMPDEST SWAP2 POP PUSH2 0x19A6 DUP3 PUSH2 0x1967 JUMP JUMPDEST PUSH1 0x20 DUP3 ADD SWAP1 POP SWAP2 SWAP1 POP JUMP JUMPDEST PUSH0 PUSH1 0x20 DUP3 ADD SWAP1 POP DUP2 DUP2 SUB PUSH0 DUP4 ADD MSTORE PUSH2 0x19C8 DUP2 PUSH2 0x198F JUMP JUMPDEST SWAP1 POP SWAP2 SWAP1 POP JUMP JUMPDEST PUSH32 0x4F6E6C792061646D696E2063616E2063616C6C20746869732E00000000000000 PUSH0 DUP3 ADD MSTORE POP JUMP JUMPDEST PUSH0 PUSH2 0x1A03 PUSH1 0x19 DUP4 PUSH2 0x1389 JUMP JUMPDEST SWAP2 POP PUSH2 0x1A0E DUP3 PUSH2 0x19CF JUMP JUMPDEST PUSH1 0x20 DUP3 ADD SWAP1 POP SWAP2 SWAP1 POP JUMP JUMPDEST PUSH0 PUSH1 0x20 DUP3 ADD SWAP1 POP DUP2 DUP2 SUB PUSH0 DUP4 ADD MSTORE PUSH2 0x1A30 DUP2 PUSH2 0x19F7 JUMP JUMPDEST SWAP1 POP SWAP2 SWAP1 POP JUMP JUMPDEST PUSH32 0x4E487B7100000000000000000000000000000000000000000000000000000000 PUSH0 MSTORE PUSH1 0x32 PUSH1 0x4 MSTORE PUSH1 0x24 PUSH0 REVERT JUMPDEST PUSH32 0x4E487B7100000000000000000000000000000000000000000000000000000000 PUSH0 MSTORE PUSH1 0x11 PUSH1 0x4 MSTORE PUSH1 0x24 PUSH0 REVERT JUMPDEST PUSH0 PUSH2 0x1A9B DUP3 PUSH2 0x109F JUMP JUMPDEST SWAP2 POP PUSH2 0x1AA6 DUP4 PUSH2 0x109F JUMP JUMPDEST SWAP3 POP DUP3 DUP3 SUB SWAP1 POP DUP2 DUP2 GT ISZERO PUSH2 0x1ABE JUMPI PUSH2 0x1ABD PUSH2 0x1A64 JUMP JUMPDEST JUMPDEST SWAP3 SWAP2 POP POP JUMP JUMPDEST PUSH32 0x4E487B7100000000000000000000000000000000000000000000000000000000 PUSH0 MSTORE PUSH1 0x31 PUSH1 0x4 MSTORE PUSH1 0x24 PUSH0 REVERT INVALID LOG2 PUSH5 0x6970667358 0x22 SLT KECCAK256 SLT PUSH31 0x35681A2C3819877B7BCBBB242DA48D764E47898AF02B2BF3FFDB32931AA264 PUSH20 0x6F6C634300081800330000000000000000000000 "
				},
				"gasEstimates": {
					"creation": {
						"codeDepositCost": "1390200",
						"executionCost": "25714",
						"totalCost": "1415914"
					},
					"external": {
						"admin()": "2596",
						"deleteUser(address)": "infinite",
						"getAllUsersInfo()": "infinite",
						"getUserAddresses()": "infinite",
						"getUserInfo(address)": "infinite",
						"isUserRegistered(address)": "2877",
						"registerUser(string,int256,int256,uint256,uint256)": "infinite",
						"updateUser(string,int256,int256,uint256,uint256)": "infinite",
						"users(address)": "infinite"
					}
				},
				"methodIdentifiers": {
					"admin()": "f851a440",
					"deleteUser(address)": "5c60f226",
					"getAllUsersInfo()": "c3bcf192",
					"getUserAddresses()": "a591efde",
					"getUserInfo(address)": "6386c1c7",
					"isUserRegistered(address)": "163f7522",
					"registerUser(string,int256,int256,uint256,uint256)": "210c9154",
					"updateUser(string,int256,int256,uint256,uint256)": "2fc00ba1",
					"users(address)": "a87430ba"
				}
			},
			"storageLayout": {
				"storage": [
					{
						"astId": 17,
						"contract": "contracts/Main.sol:Main",
						"label": "userAddresses",
						"offset": 0,
						"slot": "0",
						"type": "t_array(t_address)dyn_storage"
					},
					{
						"astId": 22,
						"contract": "contracts/Main.sol:Main",
						"label": "users",
						"offset": 0,
						"slot": "1",
						"type": "t_mapping(t_address,t_struct(UserInfo)14_storage)"
					},
					{
						"astId": 24,
						"contract": "contracts/Main.sol:Main",
						"label": "admin",
						"offset": 0,
						"slot": "2",
						"type": "t_address"
					}
				],
				"types": {
					"t_address": {
						"encoding": "inplace",
						"label": "address",
						"numberOfBytes": "20"
					},
					"t_array(t_address)dyn_storage": {
						"base": "t_address",
						"encoding": "dynamic_array",
						"label": "address[]",
						"numberOfBytes": "32"
					},
					"t_bool": {
						"encoding": "inplace",
						"label": "bool",
						"numberOfBytes": "1"
					},
					"t_int256": {
						"encoding": "inplace",
						"label": "int256",
						"numberOfBytes": "32"
					},
					"t_mapping(t_address,t_struct(UserInfo)14_storage)": {
						"encoding": "mapping",
						"key": "t_address",
						"label": "mapping(address => struct Main.UserInfo)",
						"numberOfBytes": "32",
						"value": "t_struct(UserInfo)14_storage"
					},
					"t_string_storage": {
						"encoding": "bytes",
						"label": "string",
						"numberOfBytes": "32"
					},
					"t_struct(UserInfo)14_storage": {
						"encoding": "inplace",
						"label": "struct Main.UserInfo",
						"members": [
							{
								"astId": 3,
								"contract": "contracts/Main.sol:Main",
								"label": "username",
								"offset": 0,
								"slot": "0",
								"type": "t_string_storage"
							},
							{
								"astId": 5,
								"contract": "contracts/Main.sol:Main",
								"label": "latitude",
								"offset": 0,
								"slot": "1",
								"type": "t_int256"
							},
							{
								"astId": 7,
								"contract": "contracts/Main.sol:Main",
								"label": "longitude",
								"offset": 0,
								"slot": "2",
								"type": "t_int256"
							},
							{
								"astId": 9,
								"contract": "contracts/Main.sol:Main",
								"label": "energyBalance",
								"offset": 0,
								"slot": "3",
								"type": "t_uint256"
							},
							{
								"astId": 11,
								"contract": "contracts/Main.sol:Main",
								"label": "tokensBalance",
								"offset": 0,
								"slot": "4",
								"type": "t_uint256"
							},
							{
								"astId": 13,
								"contract": "contracts/Main.sol:Main",
								"label": "isRegistered",
								"offset": 0,
								"slot": "5",
								"type": "t_bool"
							}
						],
						"numberOfBytes": "192"
					},
					"t_uint256": {
						"encoding": "inplace",
						"label": "uint256",
						"numberOfBytes": "32"
					}
				}
			},
			"userdoc": {
				"kind": "user",
				"methods": {},
				"version": 1
			}
		}
	}
}