{
	"data": {
		"bytecode": {
			"linkReferences": {},
			"object": "608060405260015f55348015610013575f80fd5b5061154d806100215f395ff3fe608060405234801561000f575f80fd5b5060043610610060575f3560e01c80630b0f9dc3146100645780630fa683d3146100805780632d7f9949146100b057806363a8374d146100cc578063b036d0ca14610104578063f692f5e714610137575b5f80fd5b61007e60048036038101906100799190610b9c565b610167565b005b61009a60048036038101906100959190610bda565b610382565b6040516100a79190610d17565b60405180910390f35b6100ca60048036038101906100c59190610d5b565b610544565b005b6100e660048036038101906100e19190610bda565b6107f3565b6040516100fb99989796959493929190610dff565b60405180910390f35b61011e60048036038101906101199190610bda565b6108c6565b60405161012e9493929190610f14565b60405180910390f35b610151600480360381019061014c9190610bda565b610984565b60405161015e9190611006565b60405180910390f35b5f60015f8481526020019081526020015f205f0154036101bc576040517f08c379a00000000000000000000000000000000000000000000000000000000081526004016101b390611070565b60405180910390fd5b60015f8381526020019081526020015f206007015f9054906101000a900460ff161561021d576040517f08c379a0000000000000000000000000000000000000000000000000000000008152600401610214906110d8565b60405180910390fd5b6001805f8481526020019081526020015f206007015f6101000a81548160ff0219169083151502179055505f81610289576040518060400160405280600881526020017f72656a65637465640000000000000000000000000000000000000000000000008152506102c0565b6040518060400160405280600881526020017f61636365707465640000000000000000000000000000000000000000000000008152505b9050604051806080016040528084815260200183151581526020014281526020018281525060025f8581526020019081526020015f205f820151815f01556020820151816001015f6101000a81548160ff02191690831515021790555060408201518160020155606082015181600301908161033c919061131d565b509050507ff23d5a95da285b29d3ca7aa5a829afa91f6ca5504f40c1034bf1b737b5ce71df8383834260405161037594939291906113ec565b60405180910390a1505050565b61038a610a6c565b60015f8381526020019081526020015f20604051806101200160405290815f8201548152602001600182015f9054906101000a900473ffffffffffffffffffffffffffffffffffffffff1673ffffffffffffffffffffffffffffffffffffffff1673ffffffffffffffffffffffffffffffffffffffff168152602001600282015f9054906101000a900473ffffffffffffffffffffffffffffffffffffffff1673ffffffffffffffffffffffffffffffffffffffff1673ffffffffffffffffffffffffffffffffffffffff168152602001600382015f9054906101000a900473ffffffffffffffffffffffffffffffffffffffff1673ffffffffffffffffffffffffffffffffffffffff1673ffffffffffffffffffffffffffffffffffffffff168152602001600482015481526020016005820154815260200160068201548152602001600782015f9054906101000a900460ff161515151581526020016007820160019054906101000a900473ffffffffffffffffffffffffffffffffffffffff1673ffffffffffffffffffffffffffffffffffffffff1673ffffffffffffffffffffffffffffffffffffffff16815250509050919050565b5f805f81548092919061055690611463565b9190505590505f8673ffffffffffffffffffffffffffffffffffffffff163373ffffffffffffffffffffffffffffffffffffffff16146105965786610598565b855b90506040518061012001604052808381526020013373ffffffffffffffffffffffffffffffffffffffff1681526020018873ffffffffffffffffffffffffffffffffffffffff1681526020018773ffffffffffffffffffffffffffffffffffffffff1681526020018681526020018581526020018481526020015f151581526020018273ffffffffffffffffffffffffffffffffffffffff1681525060015f8481526020019081526020015f205f820151815f01556020820151816001015f6101000a81548173ffffffffffffffffffffffffffffffffffffffff021916908373ffffffffffffffffffffffffffffffffffffffff1602179055506040820151816002015f6101000a81548173ffffffffffffffffffffffffffffffffffffffff021916908373ffffffffffffffffffffffffffffffffffffffff1602179055506060820151816003015f6101000a81548173ffffffffffffffffffffffffffffffffffffffff021916908373ffffffffffffffffffffffffffffffffffffffff1602179055506080820151816004015560a0820151816005015560c0820151816006015560e0820151816007015f6101000a81548160ff0219169083151502179055506101008201518160070160016101000a81548173ffffffffffffffffffffffffffffffffffffffff021916908373ffffffffffffffffffffffffffffffffffffffff1602179055509050507fc8a50de2d4b1694875cae9e3ef35a4c95d7026ef66e98c71865c0284210259ac823389898989896040516107e297969594939291906114aa565b60405180910390a150505050505050565b6001602052805f5260405f205f91509050805f015490806001015f9054906101000a900473ffffffffffffffffffffffffffffffffffffffff1690806002015f9054906101000a900473ffffffffffffffffffffffffffffffffffffffff1690806003015f9054906101000a900473ffffffffffffffffffffffffffffffffffffffff1690806004015490806005015490806006015490806007015f9054906101000a900460ff16908060070160019054906101000a900473ffffffffffffffffffffffffffffffffffffffff16905089565b6002602052805f5260405f205f91509050805f015490806001015f9054906101000a900460ff169080600201549080600301805461090390611150565b80601f016020809104026020016040519081016040528092919081815260200182805461092f90611150565b801561097a5780601f106109515761010080835404028352916020019161097a565b820191905f5260205f20905b81548152906001019060200180831161095d57829003601f168201915b5050505050905084565b61098c610b09565b60025f8381526020019081526020015f206040518060800160405290815f8201548152602001600182015f9054906101000a900460ff16151515158152602001600282015481526020016003820180546109e590611150565b80601f0160208091040260200160405190810160405280929190818152602001828054610a1190611150565b8015610a5c5780601f10610a3357610100808354040283529160200191610a5c565b820191905f5260205f20905b815481529060010190602001808311610a3f57829003601f168201915b5050505050815250509050919050565b6040518061012001604052805f81526020015f73ffffffffffffffffffffffffffffffffffffffff1681526020015f73ffffffffffffffffffffffffffffffffffffffff1681526020015f73ffffffffffffffffffffffffffffffffffffffff1681526020015f81526020015f81526020015f81526020015f151581526020015f73ffffffffffffffffffffffffffffffffffffffff1681525090565b60405180608001604052805f81526020015f151581526020015f8152602001606081525090565b5f80fd5b5f819050919050565b610b4681610b34565b8114610b50575f80fd5b50565b5f81359050610b6181610b3d565b92915050565b5f8115159050919050565b610b7b81610b67565b8114610b85575f80fd5b50565b5f81359050610b9681610b72565b92915050565b5f8060408385031215610bb257610bb1610b30565b5b5f610bbf85828601610b53565b9250506020610bd085828601610b88565b9150509250929050565b5f60208284031215610bef57610bee610b30565b5b5f610bfc84828501610b53565b91505092915050565b610c0e81610b34565b82525050565b5f73ffffffffffffffffffffffffffffffffffffffff82169050919050565b5f610c3d82610c14565b9050919050565b610c4d81610c33565b82525050565b610c5c81610b67565b82525050565b61012082015f820151610c775f850182610c05565b506020820151610c8a6020850182610c44565b506040820151610c9d6040850182610c44565b506060820151610cb06060850182610c44565b506080820151610cc36080850182610c05565b5060a0820151610cd660a0850182610c05565b5060c0820151610ce960c0850182610c05565b5060e0820151610cfc60e0850182610c53565b50610100820151610d11610100850182610c44565b50505050565b5f61012082019050610d2b5f830184610c62565b92915050565b610d3a81610c33565b8114610d44575f80fd5b50565b5f81359050610d5581610d31565b92915050565b5f805f805f60a08688031215610d7457610d73610b30565b5b5f610d8188828901610d47565b9550506020610d9288828901610d47565b9450506040610da388828901610b53565b9350506060610db488828901610b53565b9250506080610dc588828901610b53565b9150509295509295909350565b610ddb81610b34565b82525050565b610dea81610c33565b82525050565b610df981610b67565b82525050565b5f61012082019050610e135f83018c610dd2565b610e20602083018b610de1565b610e2d604083018a610de1565b610e3a6060830189610de1565b610e476080830188610dd2565b610e5460a0830187610dd2565b610e6160c0830186610dd2565b610e6e60e0830185610df0565b610e7c610100830184610de1565b9a9950505050505050505050565b5f81519050919050565b5f82825260208201905092915050565b5f5b83811015610ec1578082015181840152602081019050610ea6565b5f8484015250505050565b5f601f19601f8301169050919050565b5f610ee682610e8a565b610ef08185610e94565b9350610f00818560208601610ea4565b610f0981610ecc565b840191505092915050565b5f608082019050610f275f830187610dd2565b610f346020830186610df0565b610f416040830185610dd2565b8181036060830152610f538184610edc565b905095945050505050565b5f82825260208201905092915050565b5f610f7882610e8a565b610f828185610f5e565b9350610f92818560208601610ea4565b610f9b81610ecc565b840191505092915050565b5f608083015f830151610fbb5f860182610c05565b506020830151610fce6020860182610c53565b506040830151610fe16040860182610c05565b5060608301518482036060860152610ff98282610f6e565b9150508091505092915050565b5f6020820190508181035f83015261101e8184610fa6565b905092915050565b7f5472616e73616374696f6e20646f6573206e6f742065786973742e00000000005f82015250565b5f61105a601b83610e94565b915061106582611026565b602082019050919050565b5f6020820190508181035f8301526110878161104e565b9050919050565b7f5472616e73616374696f6e20616c726561647920636f6d6d69747465642e00005f82015250565b5f6110c2601e83610e94565b91506110cd8261108e565b602082019050919050565b5f6020820190508181035f8301526110ef816110b6565b9050919050565b7f4e487b71000000000000000000000000000000000000000000000000000000005f52604160045260245ffd5b7f4e487b71000000000000000000000000000000000000000000000000000000005f52602260045260245ffd5b5f600282049050600182168061116757607f821691505b60208210810361117a57611179611123565b5b50919050565b5f819050815f5260205f209050919050565b5f6020601f8301049050919050565b5f82821b905092915050565b5f600883026111dc7fffffffffffffffffffffffffffffffffffffffffffffffffffffffffffffffff826111a1565b6111e686836111a1565b95508019841693508086168417925050509392505050565b5f819050919050565b5f61122161121c61121784610b34565b6111fe565b610b34565b9050919050565b5f819050919050565b61123a83611207565b61124e61124682611228565b8484546111ad565b825550505050565b5f90565b611262611256565b61126d818484611231565b505050565b5b81811015611290576112855f8261125a565b600181019050611273565b5050565b601f8211156112d5576112a681611180565b6112af84611192565b810160208510156112be578190505b6112d26112ca85611192565b830182611272565b50505b505050565b5f82821c905092915050565b5f6112f55f19846008026112da565b1980831691505092915050565b5f61130d83836112e6565b9150826002028217905092915050565b61132682610e8a565b67ffffffffffffffff81111561133f5761133e6110f6565b5b6113498254611150565b611354828285611294565b5f60209050601f831160018114611385575f8415611373578287015190505b61137d8582611302565b8655506113e4565b601f19841661139386611180565b5f5b828110156113ba57848901518255600182019150602085019450602081019050611395565b868310156113d757848901516113d3601f8916826112e6565b8355505b6001600288020188555050505b505050505050565b5f6080820190506113ff5f830187610dd2565b61140c6020830186610df0565b818103604083015261141e8185610edc565b905061142d6060830184610dd2565b95945050505050565b7f4e487b71000000000000000000000000000000000000000000000000000000005f52601160045260245ffd5b5f61146d82610b34565b91507fffffffffffffffffffffffffffffffffffffffffffffffffffffffffffffffff820361149f5761149e611436565b5b600182019050919050565b5f60e0820190506114bd5f83018a610dd2565b6114ca6020830189610de1565b6114d76040830188610de1565b6114e46060830187610de1565b6114f16080830186610dd2565b6114fe60a0830185610dd2565b61150b60c0830184610dd2565b9897505050505050505056fea26469706673582212208e135269b21e5f32772b25d47efcf46f7aa27a649ef61efcd10cdefc4032712764736f6c63430008180033",
			"opcodes": "PUSH1 0x80 PUSH1 0x40 MSTORE PUSH1 0x1 PUSH0 SSTORE CALLVALUE DUP1 ISZERO PUSH2 0x13 JUMPI PUSH0 DUP1 REVERT JUMPDEST POP PUSH2 0x154D DUP1 PUSH2 0x21 PUSH0 CODECOPY PUSH0 RETURN INVALID PUSH1 0x80 PUSH1 0x40 MSTORE CALLVALUE DUP1 ISZERO PUSH2 0xF JUMPI PUSH0 DUP1 REVERT JUMPDEST POP PUSH1 0x4 CALLDATASIZE LT PUSH2 0x60 JUMPI PUSH0 CALLDATALOAD PUSH1 0xE0 SHR DUP1 PUSH4 0xB0F9DC3 EQ PUSH2 0x64 JUMPI DUP1 PUSH4 0xFA683D3 EQ PUSH2 0x80 JUMPI DUP1 PUSH4 0x2D7F9949 EQ PUSH2 0xB0 JUMPI DUP1 PUSH4 0x63A8374D EQ PUSH2 0xCC JUMPI DUP1 PUSH4 0xB036D0CA EQ PUSH2 0x104 JUMPI DUP1 PUSH4 0xF692F5E7 EQ PUSH2 0x137 JUMPI JUMPDEST PUSH0 DUP1 REVERT JUMPDEST PUSH2 0x7E PUSH1 0x4 DUP1 CALLDATASIZE SUB DUP2 ADD SWAP1 PUSH2 0x79 SWAP2 SWAP1 PUSH2 0xB9C JUMP JUMPDEST PUSH2 0x167 JUMP JUMPDEST STOP JUMPDEST PUSH2 0x9A PUSH1 0x4 DUP1 CALLDATASIZE SUB DUP2 ADD SWAP1 PUSH2 0x95 SWAP2 SWAP1 PUSH2 0xBDA JUMP JUMPDEST PUSH2 0x382 JUMP JUMPDEST PUSH1 0x40 MLOAD PUSH2 0xA7 SWAP2 SWAP1 PUSH2 0xD17 JUMP JUMPDEST PUSH1 0x40 MLOAD DUP1 SWAP2 SUB SWAP1 RETURN JUMPDEST PUSH2 0xCA PUSH1 0x4 DUP1 CALLDATASIZE SUB DUP2 ADD SWAP1 PUSH2 0xC5 SWAP2 SWAP1 PUSH2 0xD5B JUMP JUMPDEST PUSH2 0x544 JUMP JUMPDEST STOP JUMPDEST PUSH2 0xE6 PUSH1 0x4 DUP1 CALLDATASIZE SUB DUP2 ADD SWAP1 PUSH2 0xE1 SWAP2 SWAP1 PUSH2 0xBDA JUMP JUMPDEST PUSH2 0x7F3 JUMP JUMPDEST PUSH1 0x40 MLOAD PUSH2 0xFB SWAP10 SWAP9 SWAP8 SWAP7 SWAP6 SWAP5 SWAP4 SWAP3 SWAP2 SWAP1 PUSH2 0xDFF JUMP JUMPDEST PUSH1 0x40 MLOAD DUP1 SWAP2 SUB SWAP1 RETURN JUMPDEST PUSH2 0x11E PUSH1 0x4 DUP1 CALLDATASIZE SUB DUP2 ADD SWAP1 PUSH2 0x119 SWAP2 SWAP1 PUSH2 0xBDA JUMP JUMPDEST PUSH2 0x8C6 JUMP JUMPDEST PUSH1 0x40 MLOAD PUSH2 0x12E SWAP5 SWAP4 SWAP3 SWAP2 SWAP1 PUSH2 0xF14 JUMP JUMPDEST PUSH1 0x40 MLOAD DUP1 SWAP2 SUB SWAP1 RETURN JUMPDEST PUSH2 0x151 PUSH1 0x4 DUP1 CALLDATASIZE SUB DUP2 ADD SWAP1 PUSH2 0x14C SWAP2 SWAP1 PUSH2 0xBDA JUMP JUMPDEST PUSH2 0x984 JUMP JUMPDEST PUSH1 0x40 MLOAD PUSH2 0x15E SWAP2 SWAP1 PUSH2 0x1006 JUMP JUMPDEST PUSH1 0x40 MLOAD DUP1 SWAP2 SUB SWAP1 RETURN JUMPDEST PUSH0 PUSH1 0x1 PUSH0 DUP5 DUP2 MSTORE PUSH1 0x20 ADD SWAP1 DUP2 MSTORE PUSH1 0x20 ADD PUSH0 KECCAK256 PUSH0 ADD SLOAD SUB PUSH2 0x1BC JUMPI PUSH1 0x40 MLOAD PUSH32 0x8C379A000000000000000000000000000000000000000000000000000000000 DUP2 MSTORE PUSH1 0x4 ADD PUSH2 0x1B3 SWAP1 PUSH2 0x1070 JUMP JUMPDEST PUSH1 0x40 MLOAD DUP1 SWAP2 SUB SWAP1 REVERT JUMPDEST PUSH1 0x1 PUSH0 DUP4 DUP2 MSTORE PUSH1 0x20 ADD SWAP1 DUP2 MSTORE PUSH1 0x20 ADD PUSH0 KECCAK256 PUSH1 0x7 ADD PUSH0 SWAP1 SLOAD SWAP1 PUSH2 0x100 EXP SWAP1 DIV PUSH1 0xFF AND ISZERO PUSH2 0x21D JUMPI PUSH1 0x40 MLOAD PUSH32 0x8C379A000000000000000000000000000000000000000000000000000000000 DUP2 MSTORE PUSH1 0x4 ADD PUSH2 0x214 SWAP1 PUSH2 0x10D8 JUMP JUMPDEST PUSH1 0x40 MLOAD DUP1 SWAP2 SUB SWAP1 REVERT JUMPDEST PUSH1 0x1 DUP1 PUSH0 DUP5 DUP2 MSTORE PUSH1 0x20 ADD SWAP1 DUP2 MSTORE PUSH1 0x20 ADD PUSH0 KECCAK256 PUSH1 0x7 ADD PUSH0 PUSH2 0x100 EXP DUP2 SLOAD DUP2 PUSH1 0xFF MUL NOT AND SWAP1 DUP4 ISZERO ISZERO MUL OR SWAP1 SSTORE POP PUSH0 DUP2 PUSH2 0x289 JUMPI PUSH1 0x40 MLOAD DUP1 PUSH1 0x40 ADD PUSH1 0x40 MSTORE DUP1 PUSH1 0x8 DUP2 MSTORE PUSH1 0x20 ADD PUSH32 0x72656A6563746564000000000000000000000000000000000000000000000000 DUP2 MSTORE POP PUSH2 0x2C0 JUMP JUMPDEST PUSH1 0x40 MLOAD DUP1 PUSH1 0x40 ADD PUSH1 0x40 MSTORE DUP1 PUSH1 0x8 DUP2 MSTORE PUSH1 0x20 ADD PUSH32 0x6163636570746564000000000000000000000000000000000000000000000000 DUP2 MSTORE POP JUMPDEST SWAP1 POP PUSH1 0x40 MLOAD DUP1 PUSH1 0x80 ADD PUSH1 0x40 MSTORE DUP1 DUP5 DUP2 MSTORE PUSH1 0x20 ADD DUP4 ISZERO ISZERO DUP2 MSTORE PUSH1 0x20 ADD TIMESTAMP DUP2 MSTORE PUSH1 0x20 ADD DUP3 DUP2 MSTORE POP PUSH1 0x2 PUSH0 DUP6 DUP2 MSTORE PUSH1 0x20 ADD SWAP1 DUP2 MSTORE PUSH1 0x20 ADD PUSH0 KECCAK256 PUSH0 DUP3 ADD MLOAD DUP2 PUSH0 ADD SSTORE PUSH1 0x20 DUP3 ADD MLOAD DUP2 PUSH1 0x1 ADD PUSH0 PUSH2 0x100 EXP DUP2 SLOAD DUP2 PUSH1 0xFF MUL NOT AND SWAP1 DUP4 ISZERO ISZERO MUL OR SWAP1 SSTORE POP PUSH1 0x40 DUP3 ADD MLOAD DUP2 PUSH1 0x2 ADD SSTORE PUSH1 0x60 DUP3 ADD MLOAD DUP2 PUSH1 0x3 ADD SWAP1 DUP2 PUSH2 0x33C SWAP2 SWAP1 PUSH2 0x131D JUMP JUMPDEST POP SWAP1 POP POP PUSH32 0xF23D5A95DA285B29D3CA7AA5A829AFA91F6CA5504F40C1034BF1B737B5CE71DF DUP4 DUP4 DUP4 TIMESTAMP PUSH1 0x40 MLOAD PUSH2 0x375 SWAP5 SWAP4 SWAP3 SWAP2 SWAP1 PUSH2 0x13EC JUMP JUMPDEST PUSH1 0x40 MLOAD DUP1 SWAP2 SUB SWAP1 LOG1 POP POP POP JUMP JUMPDEST PUSH2 0x38A PUSH2 0xA6C JUMP JUMPDEST PUSH1 0x1 PUSH0 DUP4 DUP2 MSTORE PUSH1 0x20 ADD SWAP1 DUP2 MSTORE PUSH1 0x20 ADD PUSH0 KECCAK256 PUSH1 0x40 MLOAD DUP1 PUSH2 0x120 ADD PUSH1 0x40 MSTORE SWAP1 DUP2 PUSH0 DUP3 ADD SLOAD DUP2 MSTORE PUSH1 0x20 ADD PUSH1 0x1 DUP3 ADD PUSH0 SWAP1 SLOAD SWAP1 PUSH2 0x100 EXP SWAP1 DIV PUSH20 0xFFFFFFFFFFFFFFFFFFFFFFFFFFFFFFFFFFFFFFFF AND PUSH20 0xFFFFFFFFFFFFFFFFFFFFFFFFFFFFFFFFFFFFFFFF AND PUSH20 0xFFFFFFFFFFFFFFFFFFFFFFFFFFFFFFFFFFFFFFFF AND DUP2 MSTORE PUSH1 0x20 ADD PUSH1 0x2 DUP3 ADD PUSH0 SWAP1 SLOAD SWAP1 PUSH2 0x100 EXP SWAP1 DIV PUSH20 0xFFFFFFFFFFFFFFFFFFFFFFFFFFFFFFFFFFFFFFFF AND PUSH20 0xFFFFFFFFFFFFFFFFFFFFFFFFFFFFFFFFFFFFFFFF AND PUSH20 0xFFFFFFFFFFFFFFFFFFFFFFFFFFFFFFFFFFFFFFFF AND DUP2 MSTORE PUSH1 0x20 ADD PUSH1 0x3 DUP3 ADD PUSH0 SWAP1 SLOAD SWAP1 PUSH2 0x100 EXP SWAP1 DIV PUSH20 0xFFFFFFFFFFFFFFFFFFFFFFFFFFFFFFFFFFFFFFFF AND PUSH20 0xFFFFFFFFFFFFFFFFFFFFFFFFFFFFFFFFFFFFFFFF AND PUSH20 0xFFFFFFFFFFFFFFFFFFFFFFFFFFFFFFFFFFFFFFFF AND DUP2 MSTORE PUSH1 0x20 ADD PUSH1 0x4 DUP3 ADD SLOAD DUP2 MSTORE PUSH1 0x20 ADD PUSH1 0x5 DUP3 ADD SLOAD DUP2 MSTORE PUSH1 0x20 ADD PUSH1 0x6 DUP3 ADD SLOAD DUP2 MSTORE PUSH1 0x20 ADD PUSH1 0x7 DUP3 ADD PUSH0 SWAP1 SLOAD SWAP1 PUSH2 0x100 EXP SWAP1 DIV PUSH1 0xFF AND ISZERO ISZERO ISZERO ISZERO DUP2 MSTORE PUSH1 0x20 ADD PUSH1 0x7 DUP3 ADD PUSH1 0x1 SWAP1 SLOAD SWAP1 PUSH2 0x100 EXP SWAP1 DIV PUSH20 0xFFFFFFFFFFFFFFFFFFFFFFFFFFFFFFFFFFFFFFFF AND PUSH20 0xFFFFFFFFFFFFFFFFFFFFFFFFFFFFFFFFFFFFFFFF AND PUSH20 0xFFFFFFFFFFFFFFFFFFFFFFFFFFFFFFFFFFFFFFFF AND DUP2 MSTORE POP POP SWAP1 POP SWAP2 SWAP1 POP JUMP JUMPDEST PUSH0 DUP1 PUSH0 DUP2 SLOAD DUP1 SWAP3 SWAP2 SWAP1 PUSH2 0x556 SWAP1 PUSH2 0x1463 JUMP JUMPDEST SWAP2 SWAP1 POP SSTORE SWAP1 POP PUSH0 DUP7 PUSH20 0xFFFFFFFFFFFFFFFFFFFFFFFFFFFFFFFFFFFFFFFF AND CALLER PUSH20 0xFFFFFFFFFFFFFFFFFFFFFFFFFFFFFFFFFFFFFFFF AND EQ PUSH2 0x596 JUMPI DUP7 PUSH2 0x598 JUMP JUMPDEST DUP6 JUMPDEST SWAP1 POP PUSH1 0x40 MLOAD DUP1 PUSH2 0x120 ADD PUSH1 0x40 MSTORE DUP1 DUP4 DUP2 MSTORE PUSH1 0x20 ADD CALLER PUSH20 0xFFFFFFFFFFFFFFFFFFFFFFFFFFFFFFFFFFFFFFFF AND DUP2 MSTORE PUSH1 0x20 ADD DUP9 PUSH20 0xFFFFFFFFFFFFFFFFFFFFFFFFFFFFFFFFFFFFFFFF AND DUP2 MSTORE PUSH1 0x20 ADD DUP8 PUSH20 0xFFFFFFFFFFFFFFFFFFFFFFFFFFFFFFFFFFFFFFFF AND DUP2 MSTORE PUSH1 0x20 ADD DUP7 DUP2 MSTORE PUSH1 0x20 ADD DUP6 DUP2 MSTORE PUSH1 0x20 ADD DUP5 DUP2 MSTORE PUSH1 0x20 ADD PUSH0 ISZERO ISZERO DUP2 MSTORE PUSH1 0x20 ADD DUP3 PUSH20 0xFFFFFFFFFFFFFFFFFFFFFFFFFFFFFFFFFFFFFFFF AND DUP2 MSTORE POP PUSH1 0x1 PUSH0 DUP5 DUP2 MSTORE PUSH1 0x20 ADD SWAP1 DUP2 MSTORE PUSH1 0x20 ADD PUSH0 KECCAK256 PUSH0 DUP3 ADD MLOAD DUP2 PUSH0 ADD SSTORE PUSH1 0x20 DUP3 ADD MLOAD DUP2 PUSH1 0x1 ADD PUSH0 PUSH2 0x100 EXP DUP2 SLOAD DUP2 PUSH20 0xFFFFFFFFFFFFFFFFFFFFFFFFFFFFFFFFFFFFFFFF MUL NOT AND SWAP1 DUP4 PUSH20 0xFFFFFFFFFFFFFFFFFFFFFFFFFFFFFFFFFFFFFFFF AND MUL OR SWAP1 SSTORE POP PUSH1 0x40 DUP3 ADD MLOAD DUP2 PUSH1 0x2 ADD PUSH0 PUSH2 0x100 EXP DUP2 SLOAD DUP2 PUSH20 0xFFFFFFFFFFFFFFFFFFFFFFFFFFFFFFFFFFFFFFFF MUL NOT AND SWAP1 DUP4 PUSH20 0xFFFFFFFFFFFFFFFFFFFFFFFFFFFFFFFFFFFFFFFF AND MUL OR SWAP1 SSTORE POP PUSH1 0x60 DUP3 ADD MLOAD DUP2 PUSH1 0x3 ADD PUSH0 PUSH2 0x100 EXP DUP2 SLOAD DUP2 PUSH20 0xFFFFFFFFFFFFFFFFFFFFFFFFFFFFFFFFFFFFFFFF MUL NOT AND SWAP1 DUP4 PUSH20 0xFFFFFFFFFFFFFFFFFFFFFFFFFFFFFFFFFFFFFFFF AND MUL OR SWAP1 SSTORE POP PUSH1 0x80 DUP3 ADD MLOAD DUP2 PUSH1 0x4 ADD SSTORE PUSH1 0xA0 DUP3 ADD MLOAD DUP2 PUSH1 0x5 ADD SSTORE PUSH1 0xC0 DUP3 ADD MLOAD DUP2 PUSH1 0x6 ADD SSTORE PUSH1 0xE0 DUP3 ADD MLOAD DUP2 PUSH1 0x7 ADD PUSH0 PUSH2 0x100 EXP DUP2 SLOAD DUP2 PUSH1 0xFF MUL NOT AND SWAP1 DUP4 ISZERO ISZERO MUL OR SWAP1 SSTORE POP PUSH2 0x100 DUP3 ADD MLOAD DUP2 PUSH1 0x7 ADD PUSH1 0x1 PUSH2 0x100 EXP DUP2 SLOAD DUP2 PUSH20 0xFFFFFFFFFFFFFFFFFFFFFFFFFFFFFFFFFFFFFFFF MUL NOT AND SWAP1 DUP4 PUSH20 0xFFFFFFFFFFFFFFFFFFFFFFFFFFFFFFFFFFFFFFFF AND MUL OR SWAP1 SSTORE POP SWAP1 POP POP PUSH32 0xC8A50DE2D4B1694875CAE9E3EF35A4C95D7026EF66E98C71865C0284210259AC DUP3 CALLER DUP10 DUP10 DUP10 DUP10 DUP10 PUSH1 0x40 MLOAD PUSH2 0x7E2 SWAP8 SWAP7 SWAP6 SWAP5 SWAP4 SWAP3 SWAP2 SWAP1 PUSH2 0x14AA JUMP JUMPDEST PUSH1 0x40 MLOAD DUP1 SWAP2 SUB SWAP1 LOG1 POP POP POP POP POP POP POP JUMP JUMPDEST PUSH1 0x1 PUSH1 0x20 MSTORE DUP1 PUSH0 MSTORE PUSH1 0x40 PUSH0 KECCAK256 PUSH0 SWAP2 POP SWAP1 POP DUP1 PUSH0 ADD SLOAD SWAP1 DUP1 PUSH1 0x1 ADD PUSH0 SWAP1 SLOAD SWAP1 PUSH2 0x100 EXP SWAP1 DIV PUSH20 0xFFFFFFFFFFFFFFFFFFFFFFFFFFFFFFFFFFFFFFFF AND SWAP1 DUP1 PUSH1 0x2 ADD PUSH0 SWAP1 SLOAD SWAP1 PUSH2 0x100 EXP SWAP1 DIV PUSH20 0xFFFFFFFFFFFFFFFFFFFFFFFFFFFFFFFFFFFFFFFF AND SWAP1 DUP1 PUSH1 0x3 ADD PUSH0 SWAP1 SLOAD SWAP1 PUSH2 0x100 EXP SWAP1 DIV PUSH20 0xFFFFFFFFFFFFFFFFFFFFFFFFFFFFFFFFFFFFFFFF AND SWAP1 DUP1 PUSH1 0x4 ADD SLOAD SWAP1 DUP1 PUSH1 0x5 ADD SLOAD SWAP1 DUP1 PUSH1 0x6 ADD SLOAD SWAP1 DUP1 PUSH1 0x7 ADD PUSH0 SWAP1 SLOAD SWAP1 PUSH2 0x100 EXP SWAP1 DIV PUSH1 0xFF AND SWAP1 DUP1 PUSH1 0x7 ADD PUSH1 0x1 SWAP1 SLOAD SWAP1 PUSH2 0x100 EXP SWAP1 DIV PUSH20 0xFFFFFFFFFFFFFFFFFFFFFFFFFFFFFFFFFFFFFFFF AND SWAP1 POP DUP10 JUMP JUMPDEST PUSH1 0x2 PUSH1 0x20 MSTORE DUP1 PUSH0 MSTORE PUSH1 0x40 PUSH0 KECCAK256 PUSH0 SWAP2 POP SWAP1 POP DUP1 PUSH0 ADD SLOAD SWAP1 DUP1 PUSH1 0x1 ADD PUSH0 SWAP1 SLOAD SWAP1 PUSH2 0x100 EXP SWAP1 DIV PUSH1 0xFF AND SWAP1 DUP1 PUSH1 0x2 ADD SLOAD SWAP1 DUP1 PUSH1 0x3 ADD DUP1 SLOAD PUSH2 0x903 SWAP1 PUSH2 0x1150 JUMP JUMPDEST DUP1 PUSH1 0x1F ADD PUSH1 0x20 DUP1 SWAP2 DIV MUL PUSH1 0x20 ADD PUSH1 0x40 MLOAD SWAP1 DUP2 ADD PUSH1 0x40 MSTORE DUP1 SWAP3 SWAP2 SWAP1 DUP2 DUP2 MSTORE PUSH1 0x20 ADD DUP3 DUP1 SLOAD PUSH2 0x92F SWAP1 PUSH2 0x1150 JUMP JUMPDEST DUP1 ISZERO PUSH2 0x97A JUMPI DUP1 PUSH1 0x1F LT PUSH2 0x951 JUMPI PUSH2 0x100 DUP1 DUP4 SLOAD DIV MUL DUP4 MSTORE SWAP2 PUSH1 0x20 ADD SWAP2 PUSH2 0x97A JUMP JUMPDEST DUP3 ADD SWAP2 SWAP1 PUSH0 MSTORE PUSH1 0x20 PUSH0 KECCAK256 SWAP1 JUMPDEST DUP2 SLOAD DUP2 MSTORE SWAP1 PUSH1 0x1 ADD SWAP1 PUSH1 0x20 ADD DUP1 DUP4 GT PUSH2 0x95D JUMPI DUP3 SWAP1 SUB PUSH1 0x1F AND DUP3 ADD SWAP2 JUMPDEST POP POP POP POP POP SWAP1 POP DUP5 JUMP JUMPDEST PUSH2 0x98C PUSH2 0xB09 JUMP JUMPDEST PUSH1 0x2 PUSH0 DUP4 DUP2 MSTORE PUSH1 0x20 ADD SWAP1 DUP2 MSTORE PUSH1 0x20 ADD PUSH0 KECCAK256 PUSH1 0x40 MLOAD DUP1 PUSH1 0x80 ADD PUSH1 0x40 MSTORE SWAP1 DUP2 PUSH0 DUP3 ADD SLOAD DUP2 MSTORE PUSH1 0x20 ADD PUSH1 0x1 DUP3 ADD PUSH0 SWAP1 SLOAD SWAP1 PUSH2 0x100 EXP SWAP1 DIV PUSH1 0xFF AND ISZERO ISZERO ISZERO ISZERO DUP2 MSTORE PUSH1 0x20 ADD PUSH1 0x2 DUP3 ADD SLOAD DUP2 MSTORE PUSH1 0x20 ADD PUSH1 0x3 DUP3 ADD DUP1 SLOAD PUSH2 0x9E5 SWAP1 PUSH2 0x1150 JUMP JUMPDEST DUP1 PUSH1 0x1F ADD PUSH1 0x20 DUP1 SWAP2 DIV MUL PUSH1 0x20 ADD PUSH1 0x40 MLOAD SWAP1 DUP2 ADD PUSH1 0x40 MSTORE DUP1 SWAP3 SWAP2 SWAP1 DUP2 DUP2 MSTORE PUSH1 0x20 ADD DUP3 DUP1 SLOAD PUSH2 0xA11 SWAP1 PUSH2 0x1150 JUMP JUMPDEST DUP1 ISZERO PUSH2 0xA5C JUMPI DUP1 PUSH1 0x1F LT PUSH2 0xA33 JUMPI PUSH2 0x100 DUP1 DUP4 SLOAD DIV MUL DUP4 MSTORE SWAP2 PUSH1 0x20 ADD SWAP2 PUSH2 0xA5C JUMP JUMPDEST DUP3 ADD SWAP2 SWAP1 PUSH0 MSTORE PUSH1 0x20 PUSH0 KECCAK256 SWAP1 JUMPDEST DUP2 SLOAD DUP2 MSTORE SWAP1 PUSH1 0x1 ADD SWAP1 PUSH1 0x20 ADD DUP1 DUP4 GT PUSH2 0xA3F JUMPI DUP3 SWAP1 SUB PUSH1 0x1F AND DUP3 ADD SWAP2 JUMPDEST POP POP POP POP POP DUP2 MSTORE POP POP SWAP1 POP SWAP2 SWAP1 POP JUMP JUMPDEST PUSH1 0x40 MLOAD DUP1 PUSH2 0x120 ADD PUSH1 0x40 MSTORE DUP1 PUSH0 DUP2 MSTORE PUSH1 0x20 ADD PUSH0 PUSH20 0xFFFFFFFFFFFFFFFFFFFFFFFFFFFFFFFFFFFFFFFF AND DUP2 MSTORE PUSH1 0x20 ADD PUSH0 PUSH20 0xFFFFFFFFFFFFFFFFFFFFFFFFFFFFFFFFFFFFFFFF AND DUP2 MSTORE PUSH1 0x20 ADD PUSH0 PUSH20 0xFFFFFFFFFFFFFFFFFFFFFFFFFFFFFFFFFFFFFFFF AND DUP2 MSTORE PUSH1 0x20 ADD PUSH0 DUP2 MSTORE PUSH1 0x20 ADD PUSH0 DUP2 MSTORE PUSH1 0x20 ADD PUSH0 DUP2 MSTORE PUSH1 0x20 ADD PUSH0 ISZERO ISZERO DUP2 MSTORE PUSH1 0x20 ADD PUSH0 PUSH20 0xFFFFFFFFFFFFFFFFFFFFFFFFFFFFFFFFFFFFFFFF AND DUP2 MSTORE POP SWAP1 JUMP JUMPDEST PUSH1 0x40 MLOAD DUP1 PUSH1 0x80 ADD PUSH1 0x40 MSTORE DUP1 PUSH0 DUP2 MSTORE PUSH1 0x20 ADD PUSH0 ISZERO ISZERO DUP2 MSTORE PUSH1 0x20 ADD PUSH0 DUP2 MSTORE PUSH1 0x20 ADD PUSH1 0x60 DUP2 MSTORE POP SWAP1 JUMP JUMPDEST PUSH0 DUP1 REVERT JUMPDEST PUSH0 DUP2 SWAP1 POP SWAP2 SWAP1 POP JUMP JUMPDEST PUSH2 0xB46 DUP2 PUSH2 0xB34 JUMP JUMPDEST DUP2 EQ PUSH2 0xB50 JUMPI PUSH0 DUP1 REVERT JUMPDEST POP JUMP JUMPDEST PUSH0 DUP2 CALLDATALOAD SWAP1 POP PUSH2 0xB61 DUP2 PUSH2 0xB3D JUMP JUMPDEST SWAP3 SWAP2 POP POP JUMP JUMPDEST PUSH0 DUP2 ISZERO ISZERO SWAP1 POP SWAP2 SWAP1 POP JUMP JUMPDEST PUSH2 0xB7B DUP2 PUSH2 0xB67 JUMP JUMPDEST DUP2 EQ PUSH2 0xB85 JUMPI PUSH0 DUP1 REVERT JUMPDEST POP JUMP JUMPDEST PUSH0 DUP2 CALLDATALOAD SWAP1 POP PUSH2 0xB96 DUP2 PUSH2 0xB72 JUMP JUMPDEST SWAP3 SWAP2 POP POP JUMP JUMPDEST PUSH0 DUP1 PUSH1 0x40 DUP4 DUP6 SUB SLT ISZERO PUSH2 0xBB2 JUMPI PUSH2 0xBB1 PUSH2 0xB30 JUMP JUMPDEST JUMPDEST PUSH0 PUSH2 0xBBF DUP6 DUP3 DUP7 ADD PUSH2 0xB53 JUMP JUMPDEST SWAP3 POP POP PUSH1 0x20 PUSH2 0xBD0 DUP6 DUP3 DUP7 ADD PUSH2 0xB88 JUMP JUMPDEST SWAP2 POP POP SWAP3 POP SWAP3 SWAP1 POP JUMP JUMPDEST PUSH0 PUSH1 0x20 DUP3 DUP5 SUB SLT ISZERO PUSH2 0xBEF JUMPI PUSH2 0xBEE PUSH2 0xB30 JUMP JUMPDEST JUMPDEST PUSH0 PUSH2 0xBFC DUP5 DUP3 DUP6 ADD PUSH2 0xB53 JUMP JUMPDEST SWAP2 POP POP SWAP3 SWAP2 POP POP JUMP JUMPDEST PUSH2 0xC0E DUP2 PUSH2 0xB34 JUMP JUMPDEST DUP3 MSTORE POP POP JUMP JUMPDEST PUSH0 PUSH20 0xFFFFFFFFFFFFFFFFFFFFFFFFFFFFFFFFFFFFFFFF DUP3 AND SWAP1 POP SWAP2 SWAP1 POP JUMP JUMPDEST PUSH0 PUSH2 0xC3D DUP3 PUSH2 0xC14 JUMP JUMPDEST SWAP1 POP SWAP2 SWAP1 POP JUMP JUMPDEST PUSH2 0xC4D DUP2 PUSH2 0xC33 JUMP JUMPDEST DUP3 MSTORE POP POP JUMP JUMPDEST PUSH2 0xC5C DUP2 PUSH2 0xB67 JUMP JUMPDEST DUP3 MSTORE POP POP JUMP JUMPDEST PUSH2 0x120 DUP3 ADD PUSH0 DUP3 ADD MLOAD PUSH2 0xC77 PUSH0 DUP6 ADD DUP3 PUSH2 0xC05 JUMP JUMPDEST POP PUSH1 0x20 DUP3 ADD MLOAD PUSH2 0xC8A PUSH1 0x20 DUP6 ADD DUP3 PUSH2 0xC44 JUMP JUMPDEST POP PUSH1 0x40 DUP3 ADD MLOAD PUSH2 0xC9D PUSH1 0x40 DUP6 ADD DUP3 PUSH2 0xC44 JUMP JUMPDEST POP PUSH1 0x60 DUP3 ADD MLOAD PUSH2 0xCB0 PUSH1 0x60 DUP6 ADD DUP3 PUSH2 0xC44 JUMP JUMPDEST POP PUSH1 0x80 DUP3 ADD MLOAD PUSH2 0xCC3 PUSH1 0x80 DUP6 ADD DUP3 PUSH2 0xC05 JUMP JUMPDEST POP PUSH1 0xA0 DUP3 ADD MLOAD PUSH2 0xCD6 PUSH1 0xA0 DUP6 ADD DUP3 PUSH2 0xC05 JUMP JUMPDEST POP PUSH1 0xC0 DUP3 ADD MLOAD PUSH2 0xCE9 PUSH1 0xC0 DUP6 ADD DUP3 PUSH2 0xC05 JUMP JUMPDEST POP PUSH1 0xE0 DUP3 ADD MLOAD PUSH2 0xCFC PUSH1 0xE0 DUP6 ADD DUP3 PUSH2 0xC53 JUMP JUMPDEST POP PUSH2 0x100 DUP3 ADD MLOAD PUSH2 0xD11 PUSH2 0x100 DUP6 ADD DUP3 PUSH2 0xC44 JUMP JUMPDEST POP POP POP POP JUMP JUMPDEST PUSH0 PUSH2 0x120 DUP3 ADD SWAP1 POP PUSH2 0xD2B PUSH0 DUP4 ADD DUP5 PUSH2 0xC62 JUMP JUMPDEST SWAP3 SWAP2 POP POP JUMP JUMPDEST PUSH2 0xD3A DUP2 PUSH2 0xC33 JUMP JUMPDEST DUP2 EQ PUSH2 0xD44 JUMPI PUSH0 DUP1 REVERT JUMPDEST POP JUMP JUMPDEST PUSH0 DUP2 CALLDATALOAD SWAP1 POP PUSH2 0xD55 DUP2 PUSH2 0xD31 JUMP JUMPDEST SWAP3 SWAP2 POP POP JUMP JUMPDEST PUSH0 DUP1 PUSH0 DUP1 PUSH0 PUSH1 0xA0 DUP7 DUP9 SUB SLT ISZERO PUSH2 0xD74 JUMPI PUSH2 0xD73 PUSH2 0xB30 JUMP JUMPDEST JUMPDEST PUSH0 PUSH2 0xD81 DUP9 DUP3 DUP10 ADD PUSH2 0xD47 JUMP JUMPDEST SWAP6 POP POP PUSH1 0x20 PUSH2 0xD92 DUP9 DUP3 DUP10 ADD PUSH2 0xD47 JUMP JUMPDEST SWAP5 POP POP PUSH1 0x40 PUSH2 0xDA3 DUP9 DUP3 DUP10 ADD PUSH2 0xB53 JUMP JUMPDEST SWAP4 POP POP PUSH1 0x60 PUSH2 0xDB4 DUP9 DUP3 DUP10 ADD PUSH2 0xB53 JUMP JUMPDEST SWAP3 POP POP PUSH1 0x80 PUSH2 0xDC5 DUP9 DUP3 DUP10 ADD PUSH2 0xB53 JUMP JUMPDEST SWAP2 POP POP SWAP3 SWAP6 POP SWAP3 SWAP6 SWAP1 SWAP4 POP JUMP JUMPDEST PUSH2 0xDDB DUP2 PUSH2 0xB34 JUMP JUMPDEST DUP3 MSTORE POP POP JUMP JUMPDEST PUSH2 0xDEA DUP2 PUSH2 0xC33 JUMP JUMPDEST DUP3 MSTORE POP POP JUMP JUMPDEST PUSH2 0xDF9 DUP2 PUSH2 0xB67 JUMP JUMPDEST DUP3 MSTORE POP POP JUMP JUMPDEST PUSH0 PUSH2 0x120 DUP3 ADD SWAP1 POP PUSH2 0xE13 PUSH0 DUP4 ADD DUP13 PUSH2 0xDD2 JUMP JUMPDEST PUSH2 0xE20 PUSH1 0x20 DUP4 ADD DUP12 PUSH2 0xDE1 JUMP JUMPDEST PUSH2 0xE2D PUSH1 0x40 DUP4 ADD DUP11 PUSH2 0xDE1 JUMP JUMPDEST PUSH2 0xE3A PUSH1 0x60 DUP4 ADD DUP10 PUSH2 0xDE1 JUMP JUMPDEST PUSH2 0xE47 PUSH1 0x80 DUP4 ADD DUP9 PUSH2 0xDD2 JUMP JUMPDEST PUSH2 0xE54 PUSH1 0xA0 DUP4 ADD DUP8 PUSH2 0xDD2 JUMP JUMPDEST PUSH2 0xE61 PUSH1 0xC0 DUP4 ADD DUP7 PUSH2 0xDD2 JUMP JUMPDEST PUSH2 0xE6E PUSH1 0xE0 DUP4 ADD DUP6 PUSH2 0xDF0 JUMP JUMPDEST PUSH2 0xE7C PUSH2 0x100 DUP4 ADD DUP5 PUSH2 0xDE1 JUMP JUMPDEST SWAP11 SWAP10 POP POP POP POP POP POP POP POP POP POP JUMP JUMPDEST PUSH0 DUP2 MLOAD SWAP1 POP SWAP2 SWAP1 POP JUMP JUMPDEST PUSH0 DUP3 DUP3 MSTORE PUSH1 0x20 DUP3 ADD SWAP1 POP SWAP3 SWAP2 POP POP JUMP JUMPDEST PUSH0 JUMPDEST DUP4 DUP2 LT ISZERO PUSH2 0xEC1 JUMPI DUP1 DUP3 ADD MLOAD DUP2 DUP5 ADD MSTORE PUSH1 0x20 DUP2 ADD SWAP1 POP PUSH2 0xEA6 JUMP JUMPDEST PUSH0 DUP5 DUP5 ADD MSTORE POP POP POP POP JUMP JUMPDEST PUSH0 PUSH1 0x1F NOT PUSH1 0x1F DUP4 ADD AND SWAP1 POP SWAP2 SWAP1 POP JUMP JUMPDEST PUSH0 PUSH2 0xEE6 DUP3 PUSH2 0xE8A JUMP JUMPDEST PUSH2 0xEF0 DUP2 DUP6 PUSH2 0xE94 JUMP JUMPDEST SWAP4 POP PUSH2 0xF00 DUP2 DUP6 PUSH1 0x20 DUP7 ADD PUSH2 0xEA4 JUMP JUMPDEST PUSH2 0xF09 DUP2 PUSH2 0xECC JUMP JUMPDEST DUP5 ADD SWAP2 POP POP SWAP3 SWAP2 POP POP JUMP JUMPDEST PUSH0 PUSH1 0x80 DUP3 ADD SWAP1 POP PUSH2 0xF27 PUSH0 DUP4 ADD DUP8 PUSH2 0xDD2 JUMP JUMPDEST PUSH2 0xF34 PUSH1 0x20 DUP4 ADD DUP7 PUSH2 0xDF0 JUMP JUMPDEST PUSH2 0xF41 PUSH1 0x40 DUP4 ADD DUP6 PUSH2 0xDD2 JUMP JUMPDEST DUP2 DUP2 SUB PUSH1 0x60 DUP4 ADD MSTORE PUSH2 0xF53 DUP2 DUP5 PUSH2 0xEDC JUMP JUMPDEST SWAP1 POP SWAP6 SWAP5 POP POP POP POP POP JUMP JUMPDEST PUSH0 DUP3 DUP3 MSTORE PUSH1 0x20 DUP3 ADD SWAP1 POP SWAP3 SWAP2 POP POP JUMP JUMPDEST PUSH0 PUSH2 0xF78 DUP3 PUSH2 0xE8A JUMP JUMPDEST PUSH2 0xF82 DUP2 DUP6 PUSH2 0xF5E JUMP JUMPDEST SWAP4 POP PUSH2 0xF92 DUP2 DUP6 PUSH1 0x20 DUP7 ADD PUSH2 0xEA4 JUMP JUMPDEST PUSH2 0xF9B DUP2 PUSH2 0xECC JUMP JUMPDEST DUP5 ADD SWAP2 POP POP SWAP3 SWAP2 POP POP JUMP JUMPDEST PUSH0 PUSH1 0x80 DUP4 ADD PUSH0 DUP4 ADD MLOAD PUSH2 0xFBB PUSH0 DUP7 ADD DUP3 PUSH2 0xC05 JUMP JUMPDEST POP PUSH1 0x20 DUP4 ADD MLOAD PUSH2 0xFCE PUSH1 0x20 DUP7 ADD DUP3 PUSH2 0xC53 JUMP JUMPDEST POP PUSH1 0x40 DUP4 ADD MLOAD PUSH2 0xFE1 PUSH1 0x40 DUP7 ADD DUP3 PUSH2 0xC05 JUMP JUMPDEST POP PUSH1 0x60 DUP4 ADD MLOAD DUP5 DUP3 SUB PUSH1 0x60 DUP7 ADD MSTORE PUSH2 0xFF9 DUP3 DUP3 PUSH2 0xF6E JUMP JUMPDEST SWAP2 POP POP DUP1 SWAP2 POP POP SWAP3 SWAP2 POP POP JUMP JUMPDEST PUSH0 PUSH1 0x20 DUP3 ADD SWAP1 POP DUP2 DUP2 SUB PUSH0 DUP4 ADD MSTORE PUSH2 0x101E DUP2 DUP5 PUSH2 0xFA6 JUMP JUMPDEST SWAP1 POP SWAP3 SWAP2 POP POP JUMP JUMPDEST PUSH32 0x5472616E73616374696F6E20646F6573206E6F742065786973742E0000000000 PUSH0 DUP3 ADD MSTORE POP JUMP JUMPDEST PUSH0 PUSH2 0x105A PUSH1 0x1B DUP4 PUSH2 0xE94 JUMP JUMPDEST SWAP2 POP PUSH2 0x1065 DUP3 PUSH2 0x1026 JUMP JUMPDEST PUSH1 0x20 DUP3 ADD SWAP1 POP SWAP2 SWAP1 POP JUMP JUMPDEST PUSH0 PUSH1 0x20 DUP3 ADD SWAP1 POP DUP2 DUP2 SUB PUSH0 DUP4 ADD MSTORE PUSH2 0x1087 DUP2 PUSH2 0x104E JUMP JUMPDEST SWAP1 POP SWAP2 SWAP1 POP JUMP JUMPDEST PUSH32 0x5472616E73616374696F6E20616C726561647920636F6D6D69747465642E0000 PUSH0 DUP3 ADD MSTORE POP JUMP JUMPDEST PUSH0 PUSH2 0x10C2 PUSH1 0x1E DUP4 PUSH2 0xE94 JUMP JUMPDEST SWAP2 POP PUSH2 0x10CD DUP3 PUSH2 0x108E JUMP JUMPDEST PUSH1 0x20 DUP3 ADD SWAP1 POP SWAP2 SWAP1 POP JUMP JUMPDEST PUSH0 PUSH1 0x20 DUP3 ADD SWAP1 POP DUP2 DUP2 SUB PUSH0 DUP4 ADD MSTORE PUSH2 0x10EF DUP2 PUSH2 0x10B6 JUMP JUMPDEST SWAP1 POP SWAP2 SWAP1 POP JUMP JUMPDEST PUSH32 0x4E487B7100000000000000000000000000000000000000000000000000000000 PUSH0 MSTORE PUSH1 0x41 PUSH1 0x4 MSTORE PUSH1 0x24 PUSH0 REVERT JUMPDEST PUSH32 0x4E487B7100000000000000000000000000000000000000000000000000000000 PUSH0 MSTORE PUSH1 0x22 PUSH1 0x4 MSTORE PUSH1 0x24 PUSH0 REVERT JUMPDEST PUSH0 PUSH1 0x2 DUP3 DIV SWAP1 POP PUSH1 0x1 DUP3 AND DUP1 PUSH2 0x1167 JUMPI PUSH1 0x7F DUP3 AND SWAP2 POP JUMPDEST PUSH1 0x20 DUP3 LT DUP2 SUB PUSH2 0x117A JUMPI PUSH2 0x1179 PUSH2 0x1123 JUMP JUMPDEST JUMPDEST POP SWAP2 SWAP1 POP JUMP JUMPDEST PUSH0 DUP2 SWAP1 POP DUP2 PUSH0 MSTORE PUSH1 0x20 PUSH0 KECCAK256 SWAP1 POP SWAP2 SWAP1 POP JUMP JUMPDEST PUSH0 PUSH1 0x20 PUSH1 0x1F DUP4 ADD DIV SWAP1 POP SWAP2 SWAP1 POP JUMP JUMPDEST PUSH0 DUP3 DUP3 SHL SWAP1 POP SWAP3 SWAP2 POP POP JUMP JUMPDEST PUSH0 PUSH1 0x8 DUP4 MUL PUSH2 0x11DC PUSH32 0xFFFFFFFFFFFFFFFFFFFFFFFFFFFFFFFFFFFFFFFFFFFFFFFFFFFFFFFFFFFFFFFF DUP3 PUSH2 0x11A1 JUMP JUMPDEST PUSH2 0x11E6 DUP7 DUP4 PUSH2 0x11A1 JUMP JUMPDEST SWAP6 POP DUP1 NOT DUP5 AND SWAP4 POP DUP1 DUP7 AND DUP5 OR SWAP3 POP POP POP SWAP4 SWAP3 POP POP POP JUMP JUMPDEST PUSH0 DUP2 SWAP1 POP SWAP2 SWAP1 POP JUMP JUMPDEST PUSH0 PUSH2 0x1221 PUSH2 0x121C PUSH2 0x1217 DUP5 PUSH2 0xB34 JUMP JUMPDEST PUSH2 0x11FE JUMP JUMPDEST PUSH2 0xB34 JUMP JUMPDEST SWAP1 POP SWAP2 SWAP1 POP JUMP JUMPDEST PUSH0 DUP2 SWAP1 POP SWAP2 SWAP1 POP JUMP JUMPDEST PUSH2 0x123A DUP4 PUSH2 0x1207 JUMP JUMPDEST PUSH2 0x124E PUSH2 0x1246 DUP3 PUSH2 0x1228 JUMP JUMPDEST DUP5 DUP5 SLOAD PUSH2 0x11AD JUMP JUMPDEST DUP3 SSTORE POP POP POP POP JUMP JUMPDEST PUSH0 SWAP1 JUMP JUMPDEST PUSH2 0x1262 PUSH2 0x1256 JUMP JUMPDEST PUSH2 0x126D DUP2 DUP5 DUP5 PUSH2 0x1231 JUMP JUMPDEST POP POP POP JUMP JUMPDEST JUMPDEST DUP2 DUP2 LT ISZERO PUSH2 0x1290 JUMPI PUSH2 0x1285 PUSH0 DUP3 PUSH2 0x125A JUMP JUMPDEST PUSH1 0x1 DUP2 ADD SWAP1 POP PUSH2 0x1273 JUMP JUMPDEST POP POP JUMP JUMPDEST PUSH1 0x1F DUP3 GT ISZERO PUSH2 0x12D5 JUMPI PUSH2 0x12A6 DUP2 PUSH2 0x1180 JUMP JUMPDEST PUSH2 0x12AF DUP5 PUSH2 0x1192 JUMP JUMPDEST DUP2 ADD PUSH1 0x20 DUP6 LT ISZERO PUSH2 0x12BE JUMPI DUP2 SWAP1 POP JUMPDEST PUSH2 0x12D2 PUSH2 0x12CA DUP6 PUSH2 0x1192 JUMP JUMPDEST DUP4 ADD DUP3 PUSH2 0x1272 JUMP JUMPDEST POP POP JUMPDEST POP POP POP JUMP JUMPDEST PUSH0 DUP3 DUP3 SHR SWAP1 POP SWAP3 SWAP2 POP POP JUMP JUMPDEST PUSH0 PUSH2 0x12F5 PUSH0 NOT DUP5 PUSH1 0x8 MUL PUSH2 0x12DA JUMP JUMPDEST NOT DUP1 DUP4 AND SWAP2 POP POP SWAP3 SWAP2 POP POP JUMP JUMPDEST PUSH0 PUSH2 0x130D DUP4 DUP4 PUSH2 0x12E6 JUMP JUMPDEST SWAP2 POP DUP3 PUSH1 0x2 MUL DUP3 OR SWAP1 POP SWAP3 SWAP2 POP POP JUMP JUMPDEST PUSH2 0x1326 DUP3 PUSH2 0xE8A JUMP JUMPDEST PUSH8 0xFFFFFFFFFFFFFFFF DUP2 GT ISZERO PUSH2 0x133F JUMPI PUSH2 0x133E PUSH2 0x10F6 JUMP JUMPDEST JUMPDEST PUSH2 0x1349 DUP3 SLOAD PUSH2 0x1150 JUMP JUMPDEST PUSH2 0x1354 DUP3 DUP3 DUP6 PUSH2 0x1294 JUMP JUMPDEST PUSH0 PUSH1 0x20 SWAP1 POP PUSH1 0x1F DUP4 GT PUSH1 0x1 DUP2 EQ PUSH2 0x1385 JUMPI PUSH0 DUP5 ISZERO PUSH2 0x1373 JUMPI DUP3 DUP8 ADD MLOAD SWAP1 POP JUMPDEST PUSH2 0x137D DUP6 DUP3 PUSH2 0x1302 JUMP JUMPDEST DUP7 SSTORE POP PUSH2 0x13E4 JUMP JUMPDEST PUSH1 0x1F NOT DUP5 AND PUSH2 0x1393 DUP7 PUSH2 0x1180 JUMP JUMPDEST PUSH0 JUMPDEST DUP3 DUP2 LT ISZERO PUSH2 0x13BA JUMPI DUP5 DUP10 ADD MLOAD DUP3 SSTORE PUSH1 0x1 DUP3 ADD SWAP2 POP PUSH1 0x20 DUP6 ADD SWAP5 POP PUSH1 0x20 DUP2 ADD SWAP1 POP PUSH2 0x1395 JUMP JUMPDEST DUP7 DUP4 LT ISZERO PUSH2 0x13D7 JUMPI DUP5 DUP10 ADD MLOAD PUSH2 0x13D3 PUSH1 0x1F DUP10 AND DUP3 PUSH2 0x12E6 JUMP JUMPDEST DUP4 SSTORE POP JUMPDEST PUSH1 0x1 PUSH1 0x2 DUP9 MUL ADD DUP9 SSTORE POP POP POP JUMPDEST POP POP POP POP POP POP JUMP JUMPDEST PUSH0 PUSH1 0x80 DUP3 ADD SWAP1 POP PUSH2 0x13FF PUSH0 DUP4 ADD DUP8 PUSH2 0xDD2 JUMP JUMPDEST PUSH2 0x140C PUSH1 0x20 DUP4 ADD DUP7 PUSH2 0xDF0 JUMP JUMPDEST DUP2 DUP2 SUB PUSH1 0x40 DUP4 ADD MSTORE PUSH2 0x141E DUP2 DUP6 PUSH2 0xEDC JUMP JUMPDEST SWAP1 POP PUSH2 0x142D PUSH1 0x60 DUP4 ADD DUP5 PUSH2 0xDD2 JUMP JUMPDEST SWAP6 SWAP5 POP POP POP POP POP JUMP JUMPDEST PUSH32 0x4E487B7100000000000000000000000000000000000000000000000000000000 PUSH0 MSTORE PUSH1 0x11 PUSH1 0x4 MSTORE PUSH1 0x24 PUSH0 REVERT JUMPDEST PUSH0 PUSH2 0x146D DUP3 PUSH2 0xB34 JUMP JUMPDEST SWAP2 POP PUSH32 0xFFFFFFFFFFFFFFFFFFFFFFFFFFFFFFFFFFFFFFFFFFFFFFFFFFFFFFFFFFFFFFFF DUP3 SUB PUSH2 0x149F JUMPI PUSH2 0x149E PUSH2 0x1436 JUMP JUMPDEST JUMPDEST PUSH1 0x1 DUP3 ADD SWAP1 POP SWAP2 SWAP1 POP JUMP JUMPDEST PUSH0 PUSH1 0xE0 DUP3 ADD SWAP1 POP PUSH2 0x14BD PUSH0 DUP4 ADD DUP11 PUSH2 0xDD2 JUMP JUMPDEST PUSH2 0x14CA PUSH1 0x20 DUP4 ADD DUP10 PUSH2 0xDE1 JUMP JUMPDEST PUSH2 0x14D7 PUSH1 0x40 DUP4 ADD DUP9 PUSH2 0xDE1 JUMP JUMPDEST PUSH2 0x14E4 PUSH1 0x60 DUP4 ADD DUP8 PUSH2 0xDE1 JUMP JUMPDEST PUSH2 0x14F1 PUSH1 0x80 DUP4 ADD DUP7 PUSH2 0xDD2 JUMP JUMPDEST PUSH2 0x14FE PUSH1 0xA0 DUP4 ADD DUP6 PUSH2 0xDD2 JUMP JUMPDEST PUSH2 0x150B PUSH1 0xC0 DUP4 ADD DUP5 PUSH2 0xDD2 JUMP JUMPDEST SWAP9 SWAP8 POP POP POP POP POP POP POP POP JUMP INVALID LOG2 PUSH5 0x6970667358 0x22 SLT KECCAK256 DUP15 SGT MSTORE PUSH10 0xB21E5F32772B25D47EFC DELEGATECALL PUSH16 0x7AA27A649EF61EFCD10CDEFC40327127 PUSH5 0x736F6C6343 STOP ADDMOD XOR STOP CALLER "
		},
		"gasEstimates": {
			"creation": {
				"codeDepositCost": "1090600",
				"executionCost": "23237",
				"totalCost": "1113837"
			},
			"external": {
				"commitTransaction(uint256,bool)": "infinite",
				"getTransactionDetails(uint256)": "infinite",
				"getTransactionHistory(uint256)": "infinite",
				"initiateTransaction(address,address,uint256,uint256,uint256)": "infinite",
				"pendingTransactions(uint256)": "infinite",
				"transactionHistories(uint256)": "infinite"
			}
		},
		"methodIdentifiers": {
			"commitTransaction(uint256,bool)": "0b0f9dc3",
			"getTransactionDetails(uint256)": "0fa683d3",
			"getTransactionHistory(uint256)": "f692f5e7",
			"initiateTransaction(address,address,uint256,uint256,uint256)": "2d7f9949",
			"pendingTransactions(uint256)": "63a8374d",
			"transactionHistories(uint256)": "b036d0ca"
		}
	},
	"abi": [
		{
			"anonymous": false,
			"inputs": [
				{
					"indexed": false,
					"internalType": "uint256",
					"name": "transactionId",
					"type": "uint256"
				},
				{
					"indexed": false,
					"internalType": "bool",
					"name": "accepted",
					"type": "bool"
				},
				{
					"indexed": false,
					"internalType": "string",
					"name": "status",
					"type": "string"
				},
				{
					"indexed": false,
					"internalType": "uint256",
					"name": "dateOfAcceptance",
					"type": "uint256"
				}
			],
			"name": "TransactionCommitted",
			"type": "event"
		},
		{
			"anonymous": false,
			"inputs": [
				{
					"indexed": false,
					"internalType": "uint256",
					"name": "transactionId",
					"type": "uint256"
				},
				{
					"indexed": false,
					"internalType": "address",
					"name": "initiator",
					"type": "address"
				},
				{
					"indexed": false,
					"internalType": "address",
					"name": "buyer",
					"type": "address"
				},
				{
					"indexed": false,
					"internalType": "address",
					"name": "seller",
					"type": "address"
				},
				{
					"indexed": false,
					"internalType": "uint256",
					"name": "energyAmount",
					"type": "uint256"
				},
				{
					"indexed": false,
					"internalType": "uint256",
					"name": "price",
					"type": "uint256"
				},
				{
					"indexed": false,
					"internalType": "uint256",
					"name": "validUntil",
					"type": "uint256"
				}
			],
			"name": "TransactionInitiated",
			"type": "event"
		},
		{
			"inputs": [
				{
					"internalType": "uint256",
					"name": "_transactionId",
					"type": "uint256"
				},
				{
					"internalType": "bool",
					"name": "_accepted",
					"type": "bool"
				}
			],
			"name": "commitTransaction",
			"outputs": [],
			"stateMutability": "nonpayable",
			"type": "function"
		},
		{
			"inputs": [
				{
					"internalType": "uint256",
					"name": "_transactionId",
					"type": "uint256"
				}
			],
			"name": "getTransactionDetails",
			"outputs": [
				{
					"components": [
						{
							"internalType": "uint256",
							"name": "id",
							"type": "uint256"
						},
						{
							"internalType": "address",
							"name": "initiator",
							"type": "address"
						},
						{
							"internalType": "address",
							"name": "buyer",
							"type": "address"
						},
						{
							"internalType": "address",
							"name": "seller",
							"type": "address"
						},
						{
							"internalType": "uint256",
							"name": "energyAmount",
							"type": "uint256"
						},
						{
							"internalType": "uint256",
							"name": "price",
							"type": "uint256"
						},
						{
							"internalType": "uint256",
							"name": "validUntil",
							"type": "uint256"
						},
						{
							"internalType": "bool",
							"name": "committed",
							"type": "bool"
						},
						{
							"internalType": "address",
							"name": "receiver",
							"type": "address"
						}
					],
					"internalType": "struct commitTransactionContract.Transaction",
					"name": "",
					"type": "tuple"
				}
			],
			"stateMutability": "view",
			"type": "function"
		},
		{
			"inputs": [
				{
					"internalType": "uint256",
					"name": "_transactionId",
					"type": "uint256"
				}
			],
			"name": "getTransactionHistory",
			"outputs": [
				{
					"components": [
						{
							"internalType": "uint256",
							"name": "transactionId",
							"type": "uint256"
						},
						{
							"internalType": "bool",
							"name": "accepted",
							"type": "bool"
						},
						{
							"internalType": "uint256",
							"name": "dateOfAcceptance",
							"type": "uint256"
						},
						{
							"internalType": "string",
							"name": "status",
							"type": "string"
						}
					],
					"internalType": "struct commitTransactionContract.TransactionHistory",
					"name": "",
					"type": "tuple"
				}
			],
			"stateMutability": "view",
			"type": "function"
		},
		{
			"inputs": [
				{
					"internalType": "address",
					"name": "_buyer",
					"type": "address"
				},
				{
					"internalType": "address",
					"name": "_seller",
					"type": "address"
				},
				{
					"internalType": "uint256",
					"name": "_energyAmount",
					"type": "uint256"
				},
				{
					"internalType": "uint256",
					"name": "_price",
					"type": "uint256"
				},
				{
					"internalType": "uint256",
					"name": "_validUntil",
					"type": "uint256"
				}
			],
			"name": "initiateTransaction",
			"outputs": [],
			"stateMutability": "nonpayable",
			"type": "function"
		},
		{
			"inputs": [
				{
					"internalType": "uint256",
					"name": "",
					"type": "uint256"
				}
			],
			"name": "pendingTransactions",
			"outputs": [
				{
					"internalType": "uint256",
					"name": "id",
					"type": "uint256"
				},
				{
					"internalType": "address",
					"name": "initiator",
					"type": "address"
				},
				{
					"internalType": "address",
					"name": "buyer",
					"type": "address"
				},
				{
					"internalType": "address",
					"name": "seller",
					"type": "address"
				},
				{
					"internalType": "uint256",
					"name": "energyAmount",
					"type": "uint256"
				},
				{
					"internalType": "uint256",
					"name": "price",
					"type": "uint256"
				},
				{
					"internalType": "uint256",
					"name": "validUntil",
					"type": "uint256"
				},
				{
					"internalType": "bool",
					"name": "committed",
					"type": "bool"
				},
				{
					"internalType": "address",
					"name": "receiver",
					"type": "address"
				}
			],
			"stateMutability": "view",
			"type": "function"
		},
		{
			"inputs": [
				{
					"internalType": "uint256",
					"name": "",
					"type": "uint256"
				}
			],
			"name": "transactionHistories",
			"outputs": [
				{
					"internalType": "uint256",
					"name": "transactionId",
					"type": "uint256"
				},
				{
					"internalType": "bool",
					"name": "accepted",
					"type": "bool"
				},
				{
					"internalType": "uint256",
					"name": "dateOfAcceptance",
					"type": "uint256"
				},
				{
					"internalType": "string",
					"name": "status",
					"type": "string"
				}
			],
			"stateMutability": "view",
			"type": "function"
		}
	]
}