{
	"data": {
		"bytecode": {
			"linkReferences": {},
			"object": "6080604052600160025534801562000015575f80fd5b5060405162004e8238038062004e8283398181016040528101906200003b919062000126565b3360015f6101000a81548173ffffffffffffffffffffffffffffffffffffffff021916908373ffffffffffffffffffffffffffffffffffffffff160217905550805f806101000a81548173ffffffffffffffffffffffffffffffffffffffff021916908373ffffffffffffffffffffffffffffffffffffffff1602179055505062000156565b5f80fd5b5f73ffffffffffffffffffffffffffffffffffffffff82169050919050565b5f620000f082620000c5565b9050919050565b6200010281620000e4565b81146200010d575f80fd5b50565b5f815190506200012081620000f7565b92915050565b5f602082840312156200013e576200013d620000c1565b5b5f6200014d8482850162000110565b91505092915050565b614d1e80620001645f395ff3fe608060405234801561000f575f80fd5b506004361061011f575f3560e01c806371569199116100ab578063b1fce8c31161006f578063b1fce8c314610346578063c0fa3f4b14610364578063c33277e314610382578063f5aec88c146103b6578063f851a440146103e65761011f565b80637156919914610285578063767ce2dd146102a35780639ace38c2146102bf5780639e83e306146102f8578063a9878c62146103285761011f565b80634439a702116100f25780634439a702146101bb5780634dd87af7146101d7578063586fb58e146102075780635c8a76871461023757806363a8374d146102555761011f565b806304be1ef2146101235780630b0f9dc3146101535780630e947bd81461016f578063220646ce1461019f575b5f80fd5b61013d600480360381019061013891906133be565b610404565b60405161014a9190613401565b60405180910390f35b61016d60048036038101906101689190613479565b6104e0565b005b610189600480360381019061018491906133be565b61102d565b60405161019691906135d2565b60405180910390f35b6101b960048036038101906101b491906135f2565b61125c565b005b6101d560048036038101906101d0919061361d565b6112e6565b005b6101f160048036038101906101ec91906133be565b611ad2565b6040516101fe919061374e565b60405180910390f35b610221600480360381019061021c91906133be565b611cf5565b60405161022e919061374e565b60405180910390f35b61023f611f3b565b60405161024c91906137c9565b60405180910390f35b61026f600480360381019061026a91906135f2565b611f5e565b60405161027c9190613401565b60405180910390f35b61028d611f7e565b60405161029a9190613993565b60405180910390f35b6102bd60048036038101906102b89190613adf565b6124fa565b005b6102d960048036038101906102d491906135f2565b612698565b6040516102ef9a99989796959493929190613c38565b60405180910390f35b610312600480360381019061030d91906133be565b6127c4565b60405161031f919061374e565b60405180910390f35b610330612a31565b60405161033d9190613e89565b60405180910390f35b61034e612cc9565b60405161035b9190613e89565b60405180910390f35b61036c612f61565b6040516103799190613401565b60405180910390f35b61039c600480360381019061039791906133be565b612f6d565b6040516103ad959493929190613ea9565b60405180910390f35b6103d060048036038101906103cb91906133be565b613044565b6040516103dd9190613401565b60405180910390f35b6103ee6130e4565b6040516103fb9190613f01565b60405180910390f35b5f805f90505f5b6004805490508110156104d6575f60035f600484815481106104305761042f613f1a565b5b905f5260205f20015481526020019081526020015f2090508473ffffffffffffffffffffffffffffffffffffffff16816002015f9054906101000a900473ffffffffffffffffffffffffffffffffffffffff1673ffffffffffffffffffffffffffffffffffffffff161480156104b45750806006015f9054906101000a900460ff16155b156104c85782806104c490613f74565b9350505b50808060010191505061040b565b5080915050919050565b6002548210801561050457505f60035f8481526020019081526020015f205f015414155b610543576040517f08c379a000000000000000000000000000000000000000000000000000000000815260040161053a90614005565b60405180910390fd5b60035f8381526020019081526020015f206006015f9054906101000a900460ff16156105a4576040517f08c379a000000000000000000000000000000000000000000000000000000000815260040161059b9061406d565b60405180910390fd5b60035f8381526020019081526020015f206005015442111561068a57600160035f8481526020019081526020015f206006015f6101000a81548160ff0219169083151502179055506040518060400160405280601a81526020017f52656a65637465642064756520746f2065787069726174696f6e00000000000081525060035f8481526020019081526020015f206007019081610642919061427c565b507fb6cdb9654a453b960ec5fe6f18502a3f0dd823ed74ddc4f68a16b3210265ea5b825f604051610674929190614395565b60405180910390a161068582613109565b611029565b600160035f8481526020019081526020015f206006015f6101000a81548160ff021916908315150217905550806106f6576040518060400160405280600881526020017f52656a656374656400000000000000000000000000000000000000000000000081525061072d565b6040518060400160405280600881526020017f41636365707465640000000000000000000000000000000000000000000000008152505b60035f8481526020019081526020015f20600701908161074d919061427c565b508015610ed5575f60035f8481526020019081526020015f2090505f600181111561077b5761077a613bc5565b5b816009015f9054906101000a900460ff16600181111561079e5761079d613bc5565b5b03610b3d575f8054906101000a900473ffffffffffffffffffffffffffffffffffffffff1673ffffffffffffffffffffffffffffffffffffffff1663a64b6e5f826001015f9054906101000a900473ffffffffffffffffffffffffffffffffffffffff16836002015f9054906101000a900473ffffffffffffffffffffffffffffffffffffffff1684600401546040518463ffffffff1660e01b8152600401610849939291906143cf565b5f604051808303815f87803b158015610860575f80fd5b505af1158015610872573d5f803e3d5ffd5b505050505f8054906101000a900473ffffffffffffffffffffffffffffffffffffffff1673ffffffffffffffffffffffffffffffffffffffff16636fb4309b826001015f9054906101000a900473ffffffffffffffffffffffffffffffffffffffff1683600401545f6040518463ffffffff1660e01b81526004016108f993929190614404565b5f604051808303815f87803b158015610910575f80fd5b505af1158015610922573d5f803e3d5ffd5b505050505f8054906101000a900473ffffffffffffffffffffffffffffffffffffffff1673ffffffffffffffffffffffffffffffffffffffff16636fb4309b826002015f9054906101000a900473ffffffffffffffffffffffffffffffffffffffff16836004015460016040518463ffffffff1660e01b81526004016109aa93929190614404565b5f604051808303815f87803b1580156109c1575f80fd5b505af11580156109d3573d5f803e3d5ffd5b505050505f8054906101000a900473ffffffffffffffffffffffffffffffffffffffff1673ffffffffffffffffffffffffffffffffffffffff16639202e886826001015f9054906101000a900473ffffffffffffffffffffffffffffffffffffffff16836003015460016040518463ffffffff1660e01b8152600401610a5b93929190614404565b5f604051808303815f87803b158015610a72575f80fd5b505af1158015610a84573d5f803e3d5ffd5b505050505f8054906101000a900473ffffffffffffffffffffffffffffffffffffffff1673ffffffffffffffffffffffffffffffffffffffff16639202e886826002015f9054906101000a900473ffffffffffffffffffffffffffffffffffffffff1683600301545f6040518463ffffffff1660e01b8152600401610b0b93929190614404565b5f604051808303815f87803b158015610b22575f80fd5b505af1158015610b34573d5f803e3d5ffd5b50505050610ed3565b5f8054906101000a900473ffffffffffffffffffffffffffffffffffffffff1673ffffffffffffffffffffffffffffffffffffffff1663a64b6e5f826002015f9054906101000a900473ffffffffffffffffffffffffffffffffffffffff16836001015f9054906101000a900473ffffffffffffffffffffffffffffffffffffffff1684600401546040518463ffffffff1660e01b8152600401610be3939291906143cf565b5f604051808303815f87803b158015610bfa575f80fd5b505af1158015610c0c573d5f803e3d5ffd5b505050505f8054906101000a900473ffffffffffffffffffffffffffffffffffffffff1673ffffffffffffffffffffffffffffffffffffffff16636fb4309b826001015f9054906101000a900473ffffffffffffffffffffffffffffffffffffffff16836004015460016040518463ffffffff1660e01b8152600401610c9493929190614404565b5f604051808303815f87803b158015610cab575f80fd5b505af1158015610cbd573d5f803e3d5ffd5b505050505f8054906101000a900473ffffffffffffffffffffffffffffffffffffffff1673ffffffffffffffffffffffffffffffffffffffff16636fb4309b826002015f9054906101000a900473ffffffffffffffffffffffffffffffffffffffff1683600401545f6040518463ffffffff1660e01b8152600401610d4493929190614404565b5f604051808303815f87803b158015610d5b575f80fd5b505af1158015610d6d573d5f803e3d5ffd5b505050505f8054906101000a900473ffffffffffffffffffffffffffffffffffffffff1673ffffffffffffffffffffffffffffffffffffffff16639202e886826001015f9054906101000a900473ffffffffffffffffffffffffffffffffffffffff1683600301545f6040518463ffffffff1660e01b8152600401610df493929190614404565b5f604051808303815f87803b158015610e0b575f80fd5b505af1158015610e1d573d5f803e3d5ffd5b505050505f8054906101000a900473ffffffffffffffffffffffffffffffffffffffff1673ffffffffffffffffffffffffffffffffffffffff16639202e886826002015f9054906101000a900473ffffffffffffffffffffffffffffffffffffffff16836003015460016040518463ffffffff1660e01b8152600401610ea593929190614404565b5f604051808303815f87803b158015610ebc575f80fd5b505af1158015610ece573d5f803e3d5ffd5b505050505b505b610ede82613109565b600582908060018154018082558091505060019003905f5260205f20015f90919091909150555f60065f60035f8681526020019081526020015f206002015f9054906101000a900473ffffffffffffffffffffffffffffffffffffffff1673ffffffffffffffffffffffffffffffffffffffff1673ffffffffffffffffffffffffffffffffffffffff1681526020019081526020015f2090506040518060400160405280600a81526020017f4e6f7454726164696e6700000000000000000000000000000000000000000000815250816001019081610fbd919061427c565b505f81600401819055505f81600201819055505f81600301819055507fb6cdb9654a453b960ec5fe6f18502a3f0dd823ed74ddc4f68a16b3210265ea5b838360035f8781526020019081526020015f2060070160405161101f939291906144ba565b60405180910390a1505b5050565b611035613227565b5f8054906101000a900473ffffffffffffffffffffffffffffffffffffffff1673ffffffffffffffffffffffffffffffffffffffff1663163f7522836040518263ffffffff1660e01b815260040161108d9190613f01565b602060405180830381865afa1580156110a8573d5f803e3d5ffd5b505050506040513d601f19601f820116820180604052508101906110cc919061450a565b61110b576040517f08c379a00000000000000000000000000000000000000000000000000000000081526004016111029061457f565b60405180910390fd5b60065f8373ffffffffffffffffffffffffffffffffffffffff1673ffffffffffffffffffffffffffffffffffffffff1681526020019081526020015f206040518060a00160405290815f82015f9054906101000a900473ffffffffffffffffffffffffffffffffffffffff1673ffffffffffffffffffffffffffffffffffffffff1673ffffffffffffffffffffffffffffffffffffffff1681526020016001820180546111b7906140b8565b80601f01602080910402602001604051908101604052809291908181526020018280546111e3906140b8565b801561122e5780601f106112055761010080835404028352916020019161122e565b820191905f5260205f20905b81548152906001019060200180831161121157829003601f168201915b5050505050815260200160028201548152602001600382015481526020016004820154815250509050919050565b5f8054906101000a900473ffffffffffffffffffffffffffffffffffffffff1673ffffffffffffffffffffffffffffffffffffffff1663f38488ec30836040518363ffffffff1660e01b81526004016112b692919061459d565b5f604051808303815f87803b1580156112cd575f80fd5b505af11580156112df573d5f803e3d5ffd5b5050505050565b5f8054906101000a900473ffffffffffffffffffffffffffffffffffffffff1673ffffffffffffffffffffffffffffffffffffffff1663163f7522876040518263ffffffff1660e01b815260040161133e9190613f01565b602060405180830381865afa158015611359573d5f803e3d5ffd5b505050506040513d601f19601f8201168201806040525081019061137d919061450a565b6113bc576040517f08c379a00000000000000000000000000000000000000000000000000000000081526004016113b39061460e565b60405180910390fd5b5f8054906101000a900473ffffffffffffffffffffffffffffffffffffffff1673ffffffffffffffffffffffffffffffffffffffff1663163f7522866040518263ffffffff1660e01b81526004016114149190613f01565b602060405180830381865afa15801561142f573d5f803e3d5ffd5b505050506040513d601f19601f82011682018060405250810190611453919061450a565b611492576040517f08c379a000000000000000000000000000000000000000000000000000000000815260040161148990614676565b60405180910390fd5b4282116114d4576040517f08c379a00000000000000000000000000000000000000000000000000000000081526004016114cb90614704565b60405180910390fd5b801561169157825f8054906101000a900473ffffffffffffffffffffffffffffffffffffffff1673ffffffffffffffffffffffffffffffffffffffff16633aecd0e3886040518263ffffffff1660e01b81526004016115339190613f01565b602060405180830381865afa15801561154e573d5f803e3d5ffd5b505050506040513d601f19601f820116820180604052508101906115729190614736565b10156115b3576040517f08c379a00000000000000000000000000000000000000000000000000000000081526004016115aa906147d1565b60405180910390fd5b835f8054906101000a900473ffffffffffffffffffffffffffffffffffffffff1673ffffffffffffffffffffffffffffffffffffffff166346352b58876040518263ffffffff1660e01b815260040161160c9190613f01565b602060405180830381865afa158015611627573d5f803e3d5ffd5b505050506040513d601f19601f8201168201806040525081019061164b9190614736565b101561168c576040517f08c379a00000000000000000000000000000000000000000000000000000000081526004016116839061485f565b60405180910390fd5b611844565b835f8054906101000a900473ffffffffffffffffffffffffffffffffffffffff1673ffffffffffffffffffffffffffffffffffffffff166346352b58886040518263ffffffff1660e01b81526004016116ea9190613f01565b602060405180830381865afa158015611705573d5f803e3d5ffd5b505050506040513d601f19601f820116820180604052508101906117299190614736565b101561176a576040517f08c379a0000000000000000000000000000000000000000000000000000000008152600401611761906148ed565b60405180910390fd5b825f8054906101000a900473ffffffffffffffffffffffffffffffffffffffff1673ffffffffffffffffffffffffffffffffffffffff16633aecd0e3876040518263ffffffff1660e01b81526004016117c39190613f01565b602060405180830381865afa1580156117de573d5f803e3d5ffd5b505050506040513d601f19601f820116820180604052508101906118029190614736565b1015611843576040517f08c379a000000000000000000000000000000000000000000000000000000000815260040161183a9061497b565b60405180910390fd5b5b5f60025f81548092919061185790613f74565b9190505590506040518061014001604052808281526020018873ffffffffffffffffffffffffffffffffffffffff1681526020018773ffffffffffffffffffffffffffffffffffffffff1681526020018681526020018581526020018481526020015f151581526020016040518060400160405280600781526020017f50656e64696e670000000000000000000000000000000000000000000000000081525081526020014281526020018361190e576001611910565b5f5b600181111561192257611921613bc5565b5b81525060035f8381526020019081526020015f205f820151815f01556020820151816001015f6101000a81548173ffffffffffffffffffffffffffffffffffffffff021916908373ffffffffffffffffffffffffffffffffffffffff1602179055506040820151816002015f6101000a81548173ffffffffffffffffffffffffffffffffffffffff021916908373ffffffffffffffffffffffffffffffffffffffff160217905550606082015181600301556080820151816004015560a0820151816005015560c0820151816006015f6101000a81548160ff02191690831515021790555060e0820151816007019081611a1c919061427c565b506101008201518160080155610120820151816009015f6101000a81548160ff02191690836001811115611a5357611a52613bc5565b5b0217905550905050600481908060018154018082558091505060019003905f5260205f20015f90919091909150557f6f2fac3f769ed900eb9891a73caa7b5267ce788a20299805ce4b85934cb200f5818784611ab0576001611ab2565b5f5b604051611ac193929190614999565b60405180910390a150505050505050565b60605f6001600254611ae491906149ce565b67ffffffffffffffff811115611afd57611afc6139bb565b5b604051908082528060200260200182016040528015611b2b5781602001602082028036833780820191505090505b5090505f80600190505b600254811015611c4b578473ffffffffffffffffffffffffffffffffffffffff1660035f8381526020019081526020015f206001015f9054906101000a900473ffffffffffffffffffffffffffffffffffffffff1673ffffffffffffffffffffffffffffffffffffffff161480611c0a57508473ffffffffffffffffffffffffffffffffffffffff1660035f8381526020019081526020015f206002015f9054906101000a900473ffffffffffffffffffffffffffffffffffffffff1673ffffffffffffffffffffffffffffffffffffffff16145b15611c3e5780838381518110611c2357611c22613f1a565b5b6020026020010181815250508180611c3a90613f74565b9250505b8080600101915050611b35565b505f8167ffffffffffffffff811115611c6757611c666139bb565b5b604051908082528060200260200182016040528015611c955781602001602082028036833780820191505090505b5090505f5b82811015611ce957838181518110611cb557611cb4613f1a565b5b6020026020010151828281518110611cd057611ccf613f1a565b5b6020026020010181815250508080600101915050611c9a565b50809350505050919050565b60605f60058054905067ffffffffffffffff811115611d1757611d166139bb565b5b604051908082528060200260200182016040528015611d455781602001602082028036833780820191505090505b5090505f805b600580549050811015611e91575f60035f60058481548110611d7057611d6f613f1a565b5b905f5260205f20015481526020019081526020015f2090508573ffffffffffffffffffffffffffffffffffffffff16816001015f9054906101000a900473ffffffffffffffffffffffffffffffffffffffff1673ffffffffffffffffffffffffffffffffffffffff161480611e3357508573ffffffffffffffffffffffffffffffffffffffff16816002015f9054906101000a900473ffffffffffffffffffffffffffffffffffffffff1673ffffffffffffffffffffffffffffffffffffffff16145b15611e835760058281548110611e4c57611e4b613f1a565b5b905f5260205f200154848481518110611e6857611e67613f1a565b5b6020026020010181815250508280611e7f90613f74565b9350505b508080600101915050611d4b565b505f8167ffffffffffffffff811115611ead57611eac6139bb565b5b604051908082528060200260200182016040528015611edb5781602001602082028036833780820191505090505b5090505f5b82811015611f2f57838181518110611efb57611efa613f1a565b5b6020026020010151828281518110611f1657611f15613f1a565b5b6020026020010181815250508080600101915050611ee0565b50809350505050919050565b5f8054906101000a900473ffffffffffffffffffffffffffffffffffffffff1681565b60048181548110611f6d575f80fd5b905f5260205f20015f915090505481565b60605f80805f9054906101000a900473ffffffffffffffffffffffffffffffffffffffff1673ffffffffffffffffffffffffffffffffffffffff1663a591efde6040518163ffffffff1660e01b81526004015f60405180830381865afa158015611fea573d5f803e3d5ffd5b505050506040513d5f823e3d601f19601f820116820180604052508101906120129190614ad9565b90505f5b81518110156121b5575f60065f84848151811061203657612035613f1a565b5b602002602001015173ffffffffffffffffffffffffffffffffffffffff1673ffffffffffffffffffffffffffffffffffffffff1681526020019081526020015f206040518060a00160405290815f82015f9054906101000a900473ffffffffffffffffffffffffffffffffffffffff1673ffffffffffffffffffffffffffffffffffffffff1673ffffffffffffffffffffffffffffffffffffffff1681526020016001820180546120e6906140b8565b80601f0160208091040260200160405190810160405280929190818152602001828054612112906140b8565b801561215d5780601f106121345761010080835404028352916020019161215d565b820191905f5260205f20905b81548152906001019060200180831161214057829003601f168201915b505050505081526020016002820154815260200160038201548152602001600482015481525050905061219381602001516131c4565b156121a75783806121a390613f74565b9450505b508080600101915050612016565b505f8267ffffffffffffffff8111156121d1576121d06139bb565b5b60405190808252806020026020018201604052801561220a57816020015b6121f7613268565b8152602001906001900390816121ef5790505b5090505f805b83518110156124ef575f84828151811061222d5761222c613f1a565b5b602002602001015190505f60065f8373ffffffffffffffffffffffffffffffffffffffff1673ffffffffffffffffffffffffffffffffffffffff1681526020019081526020015f206040518060a00160405290815f82015f9054906101000a900473ffffffffffffffffffffffffffffffffffffffff1673ffffffffffffffffffffffffffffffffffffffff1673ffffffffffffffffffffffffffffffffffffffff1681526020016001820180546122e4906140b8565b80601f0160208091040260200160405190810160405280929190818152602001828054612310906140b8565b801561235b5780601f106123325761010080835404028352916020019161235b565b820191905f5260205f20905b81548152906001019060200180831161233e57829003601f168201915b505050505081526020016002820154815260200160038201548152602001600482015481525050905061239181602001516131c4565b156124e0575f805f805f805f9054906101000a900473ffffffffffffffffffffffffffffffffffffffff1673ffffffffffffffffffffffffffffffffffffffff16633b605047886040518263ffffffff1660e01b81526004016123f49190613f01565b5f60405180830381865afa15801561240e573d5f803e3d5ffd5b505050506040513d5f823e3d601f19601f820116820180604052508101906124369190614bb8565b5095509550955095509550506040518061014001604052808873ffffffffffffffffffffffffffffffffffffffff16815260200186815260200185815260200182815260200184815260200183815260200187602001518152602001876040015181526020018760600151815260200187608001518152508a8a815181106124c1576124c0613f1a565b5b602002602001018190525088806124d790613f74565b99505050505050505b50508080600101915050612210565b508194505050505090565b5f8054906101000a900473ffffffffffffffffffffffffffffffffffffffff1673ffffffffffffffffffffffffffffffffffffffff1663163f7522336040518263ffffffff1660e01b81526004016125529190613f01565b602060405180830381865afa15801561256d573d5f803e3d5ffd5b505050506040513d601f19601f82011682018060405250810190612591919061450a565b6125d0576040517f08c379a00000000000000000000000000000000000000000000000000000000081526004016125c79061457f565b60405180910390fd5b5f60065f3373ffffffffffffffffffffffffffffffffffffffff1673ffffffffffffffffffffffffffffffffffffffff1681526020019081526020015f20905084816001019081612621919061427c565b508381600401819055508281600201819055508181600301819055503373ffffffffffffffffffffffffffffffffffffffff167fa6852b488e1a23121717a53448978003c88002512d4cda6baab5a33d5be103d9868686866040516126899493929190614c71565b60405180910390a25050505050565b6003602052805f5260405f205f91509050805f015490806001015f9054906101000a900473ffffffffffffffffffffffffffffffffffffffff1690806002015f9054906101000a900473ffffffffffffffffffffffffffffffffffffffff1690806003015490806004015490806005015490806006015f9054906101000a900460ff169080600701805461272b906140b8565b80601f0160208091040260200160405190810160405280929190818152602001828054612757906140b8565b80156127a25780601f10612779576101008083540402835291602001916127a2565b820191905f5260205f20905b81548152906001019060200180831161278557829003601f168201915b505050505090806008015490806009015f9054906101000a900460ff1690508a565b60605f60048054905067ffffffffffffffff8111156127e6576127e56139bb565b5b6040519080825280602002602001820160405280156128145781602001602082028036833780820191505090505b5090505f805b600480549050811015612987578473ffffffffffffffffffffffffffffffffffffffff1660035f6004848154811061285557612854613f1a565b5b905f5260205f20015481526020019081526020015f206001015f9054906101000a900473ffffffffffffffffffffffffffffffffffffffff1673ffffffffffffffffffffffffffffffffffffffff16148061292a57508473ffffffffffffffffffffffffffffffffffffffff1660035f600484815481106128d9576128d8613f1a565b5b905f5260205f20015481526020019081526020015f206002015f9054906101000a900473ffffffffffffffffffffffffffffffffffffffff1673ffffffffffffffffffffffffffffffffffffffff16145b1561297a576004818154811061294357612942613f1a565b5b905f5260205f20015483838151811061295f5761295e613f1a565b5b602002602001018181525050818061297690613f74565b9250505b808060010191505061281a565b505f8167ffffffffffffffff8111156129a3576129a26139bb565b5b6040519080825280602002602001820160405280156129d15781602001602082028036833780820191505090505b5090505f5b82811015612a25578381815181106129f1576129f0613f1a565b5b6020026020010151828281518110612a0c57612a0b613f1a565b5b60200260200101818152505080806001019150506129d6565b50809350505050919050565b60605f60048054905067ffffffffffffffff811115612a5357612a526139bb565b5b604051908082528060200260200182016040528015612a8c57816020015b612a796132c9565b815260200190600190039081612a715790505b5090505f5b600480549050811015612cc15760035f60048381548110612ab557612ab4613f1a565b5b905f5260205f20015481526020019081526020015f20604051806101400160405290815f8201548152602001600182015f9054906101000a900473ffffffffffffffffffffffffffffffffffffffff1673ffffffffffffffffffffffffffffffffffffffff1673ffffffffffffffffffffffffffffffffffffffff168152602001600282015f9054906101000a900473ffffffffffffffffffffffffffffffffffffffff1673ffffffffffffffffffffffffffffffffffffffff1673ffffffffffffffffffffffffffffffffffffffff168152602001600382015481526020016004820154815260200160058201548152602001600682015f9054906101000a900460ff16151515158152602001600782018054612bd2906140b8565b80601f0160208091040260200160405190810160405280929190818152602001828054612bfe906140b8565b8015612c495780601f10612c2057610100808354040283529160200191612c49565b820191905f5260205f20905b815481529060010190602001808311612c2c57829003601f168201915b5050505050815260200160088201548152602001600982015f9054906101000a900460ff166001811115612c8057612c7f613bc5565b5b6001811115612c9257612c91613bc5565b5b81525050828281518110612ca957612ca8613f1a565b5b60200260200101819052508080600101915050612a91565b508091505090565b60605f60058054905067ffffffffffffffff811115612ceb57612cea6139bb565b5b604051908082528060200260200182016040528015612d2457816020015b612d116132c9565b815260200190600190039081612d095790505b5090505f5b600580549050811015612f595760035f60058381548110612d4d57612d4c613f1a565b5b905f5260205f20015481526020019081526020015f20604051806101400160405290815f8201548152602001600182015f9054906101000a900473ffffffffffffffffffffffffffffffffffffffff1673ffffffffffffffffffffffffffffffffffffffff1673ffffffffffffffffffffffffffffffffffffffff168152602001600282015f9054906101000a900473ffffffffffffffffffffffffffffffffffffffff1673ffffffffffffffffffffffffffffffffffffffff1673ffffffffffffffffffffffffffffffffffffffff168152602001600382015481526020016004820154815260200160058201548152602001600682015f9054906101000a900460ff16151515158152602001600782018054612e6a906140b8565b80601f0160208091040260200160405190810160405280929190818152602001828054612e96906140b8565b8015612ee15780601f10612eb857610100808354040283529160200191612ee1565b820191905f5260205f20905b815481529060010190602001808311612ec457829003601f168201915b5050505050815260200160088201548152602001600982015f9054906101000a900460ff166001811115612f1857612f17613bc5565b5b6001811115612f2a57612f29613bc5565b5b81525050828281518110612f4157612f40613f1a565b5b60200260200101819052508080600101915050612d29565b508091505090565b5f600480549050905090565b6006602052805f5260405f205f91509050805f015f9054906101000a900473ffffffffffffffffffffffffffffffffffffffff1690806001018054612fb1906140b8565b80601f0160208091040260200160405190810160405280929190818152602001828054612fdd906140b8565b80156130285780601f10612fff57610100808354040283529160200191613028565b820191905f5260205f20905b81548152906001019060200180831161300b57829003601f168201915b5050505050908060020154908060030154908060040154905085565b5f805f9054906101000a900473ffffffffffffffffffffffffffffffffffffffff1673ffffffffffffffffffffffffffffffffffffffff16633aecd0e3836040518263ffffffff1660e01b815260040161309e9190613f01565b602060405180830381865afa1580156130b9573d5f803e3d5ffd5b505050506040513d601f19601f820116820180604052508101906130dd9190614736565b9050919050565b60015f9054906101000a900473ffffffffffffffffffffffffffffffffffffffff1681565b5f5b6004805490508110156131c057816004828154811061312d5761312c613f1a565b5b905f5260205f200154036131b3576004600160048054905061314f91906149ce565b815481106131605761315f613f1a565b5b905f5260205f2001546004828154811061317d5761317c613f1a565b5b905f5260205f200181905550600480548061319b5761319a614cbb565b5b600190038181905f5260205f20015f905590556131c0565b808060010191505061310b565b5050565b5f7f5dee046a5e178c2c125664edccd954bb619d5b27aa642c93dd26f92e65b38efe8280519060200120148061322057507fbfd3db406c10e8c033a404db0f674b22a7e3ec59d4f38448374f5a3ffaa0e7f78280519060200120145b9050919050565b6040518060a001604052805f73ffffffffffffffffffffffffffffffffffffffff168152602001606081526020015f81526020015f81526020015f81525090565b6040518061014001604052805f73ffffffffffffffffffffffffffffffffffffffff168152602001606081526020015f81526020015f81526020015f81526020015f8152602001606081526020015f81526020015f81526020015f81525090565b6040518061014001604052805f81526020015f73ffffffffffffffffffffffffffffffffffffffff1681526020015f73ffffffffffffffffffffffffffffffffffffffff1681526020015f81526020015f81526020015f81526020015f15158152602001606081526020015f81526020015f600181111561334d5761334c613bc5565b5b81525090565b5f604051905090565b5f80fd5b5f80fd5b5f73ffffffffffffffffffffffffffffffffffffffff82169050919050565b5f61338d82613364565b9050919050565b61339d81613383565b81146133a7575f80fd5b50565b5f813590506133b881613394565b92915050565b5f602082840312156133d3576133d261335c565b5b5f6133e0848285016133aa565b91505092915050565b5f819050919050565b6133fb816133e9565b82525050565b5f6020820190506134145f8301846133f2565b92915050565b613423816133e9565b811461342d575f80fd5b50565b5f8135905061343e8161341a565b92915050565b5f8115159050919050565b61345881613444565b8114613462575f80fd5b50565b5f813590506134738161344f565b92915050565b5f806040838503121561348f5761348e61335c565b5b5f61349c85828601613430565b92505060206134ad85828601613465565b9150509250929050565b6134c081613383565b82525050565b5f81519050919050565b5f82825260208201905092915050565b5f5b838110156134fd5780820151818401526020810190506134e2565b5f8484015250505050565b5f601f19601f8301169050919050565b5f613522826134c6565b61352c81856134d0565b935061353c8185602086016134e0565b61354581613508565b840191505092915050565b613559816133e9565b82525050565b5f60a083015f8301516135745f8601826134b7565b506020830151848203602086015261358c8282613518565b91505060408301516135a16040860182613550565b5060608301516135b46060860182613550565b5060808301516135c76080860182613550565b508091505092915050565b5f6020820190508181035f8301526135ea818461355f565b905092915050565b5f602082840312156136075761360661335c565b5b5f61361484828501613430565b91505092915050565b5f805f805f8060c087890312156136375761363661335c565b5b5f61364489828a016133aa565b965050602061365589828a016133aa565b955050604061366689828a01613430565b945050606061367789828a01613430565b935050608061368889828a01613430565b92505060a061369989828a01613465565b9150509295509295509295565b5f81519050919050565b5f82825260208201905092915050565b5f819050602082019050919050565b5f6136da8383613550565b60208301905092915050565b5f602082019050919050565b5f6136fc826136a6565b61370681856136b0565b9350613711836136c0565b805f5b8381101561374157815161372888826136cf565b9750613733836136e6565b925050600181019050613714565b5085935050505092915050565b5f6020820190508181035f83015261376681846136f2565b905092915050565b5f819050919050565b5f61379161378c61378784613364565b61376e565b613364565b9050919050565b5f6137a282613777565b9050919050565b5f6137b382613798565b9050919050565b6137c3816137a9565b82525050565b5f6020820190506137dc5f8301846137ba565b92915050565b5f81519050919050565b5f82825260208201905092915050565b5f819050602082019050919050565b5f819050919050565b61381d8161380b565b82525050565b5f61014083015f8301516138395f8601826134b7565b50602083015184820360208601526138518282613518565b91505060408301516138666040860182613550565b5060608301516138796060860182613550565b50608083015161388c6080860182613814565b5060a083015161389f60a0860182613814565b5060c083015184820360c08601526138b78282613518565b91505060e08301516138cc60e0860182613550565b506101008301516138e1610100860182613550565b506101208301516138f6610120860182613550565b508091505092915050565b5f61390c8383613823565b905092915050565b5f602082019050919050565b5f61392a826137e2565b61393481856137ec565b935083602082028501613946856137fc565b805f5b8581101561398157848403895281516139628582613901565b945061396d83613914565b925060208a01995050600181019050613949565b50829750879550505050505092915050565b5f6020820190508181035f8301526139ab8184613920565b905092915050565b5f80fd5b5f80fd5b7f4e487b71000000000000000000000000000000000000000000000000000000005f52604160045260245ffd5b6139f182613508565b810181811067ffffffffffffffff82111715613a1057613a0f6139bb565b5b80604052505050565b5f613a22613353565b9050613a2e82826139e8565b919050565b5f67ffffffffffffffff821115613a4d57613a4c6139bb565b5b613a5682613508565b9050602081019050919050565b828183375f83830152505050565b5f613a83613a7e84613a33565b613a19565b905082815260208101848484011115613a9f57613a9e6139b7565b5b613aaa848285613a63565b509392505050565b5f82601f830112613ac657613ac56139b3565b5b8135613ad6848260208601613a71565b91505092915050565b5f805f8060808587031215613af757613af661335c565b5b5f85013567ffffffffffffffff811115613b1457613b13613360565b5b613b2087828801613ab2565b9450506020613b3187828801613430565b9350506040613b4287828801613430565b9250506060613b5387828801613430565b91505092959194509250565b613b6881613383565b82525050565b613b7781613444565b82525050565b5f82825260208201905092915050565b5f613b97826134c6565b613ba18185613b7d565b9350613bb18185602086016134e0565b613bba81613508565b840191505092915050565b7f4e487b71000000000000000000000000000000000000000000000000000000005f52602160045260245ffd5b60028110613c0357613c02613bc5565b5b50565b5f819050613c1382613bf2565b919050565b5f613c2282613c06565b9050919050565b613c3281613c18565b82525050565b5f61014082019050613c4c5f83018d6133f2565b613c59602083018c613b5f565b613c66604083018b613b5f565b613c73606083018a6133f2565b613c8060808301896133f2565b613c8d60a08301886133f2565b613c9a60c0830187613b6e565b81810360e0830152613cac8186613b8d565b9050613cbc6101008301856133f2565b613cca610120830184613c29565b9b9a5050505050505050505050565b5f81519050919050565b5f82825260208201905092915050565b5f819050602082019050919050565b613d0b81613444565b82525050565b613d1a81613c18565b82525050565b5f61014083015f830151613d365f860182613550565b506020830151613d4960208601826134b7565b506040830151613d5c60408601826134b7565b506060830151613d6f6060860182613550565b506080830151613d826080860182613550565b5060a0830151613d9560a0860182613550565b5060c0830151613da860c0860182613d02565b5060e083015184820360e0860152613dc08282613518565b915050610100830151613dd7610100860182613550565b50610120830151613dec610120860182613d11565b508091505092915050565b5f613e028383613d20565b905092915050565b5f602082019050919050565b5f613e2082613cd9565b613e2a8185613ce3565b935083602082028501613e3c85613cf3565b805f5b85811015613e775784840389528151613e588582613df7565b9450613e6383613e0a565b925060208a01995050600181019050613e3f565b50829750879550505050505092915050565b5f6020820190508181035f830152613ea18184613e16565b905092915050565b5f60a082019050613ebc5f830188613b5f565b8181036020830152613ece8187613b8d565b9050613edd60408301866133f2565b613eea60608301856133f2565b613ef760808301846133f2565b9695505050505050565b5f602082019050613f145f830184613b5f565b92915050565b7f4e487b71000000000000000000000000000000000000000000000000000000005f52603260045260245ffd5b7f4e487b71000000000000000000000000000000000000000000000000000000005f52601160045260245ffd5b5f613f7e826133e9565b91507fffffffffffffffffffffffffffffffffffffffffffffffffffffffffffffffff8203613fb057613faf613f47565b5b600182019050919050565b7f5472616e73616374696f6e20646f6573206e6f742065786973742e00000000005f82015250565b5f613fef601b83613b7d565b9150613ffa82613fbb565b602082019050919050565b5f6020820190508181035f83015261401c81613fe3565b9050919050565b7f5472616e73616374696f6e20616c726561647920636f6d6d69747465642e00005f82015250565b5f614057601e83613b7d565b915061406282614023565b602082019050919050565b5f6020820190508181035f8301526140848161404b565b9050919050565b7f4e487b71000000000000000000000000000000000000000000000000000000005f52602260045260245ffd5b5f60028204905060018216806140cf57607f821691505b6020821081036140e2576140e161408b565b5b50919050565b5f819050815f5260205f209050919050565b5f6020601f8301049050919050565b5f82821b905092915050565b5f600883026141447fffffffffffffffffffffffffffffffffffffffffffffffffffffffffffffffff82614109565b61414e8683614109565b95508019841693508086168417925050509392505050565b5f61418061417b614176846133e9565b61376e565b6133e9565b9050919050565b5f819050919050565b61419983614166565b6141ad6141a582614187565b848454614115565b825550505050565b5f90565b6141c16141b5565b6141cc818484614190565b505050565b5b818110156141ef576141e45f826141b9565b6001810190506141d2565b5050565b601f82111561423457614205816140e8565b61420e846140fa565b8101602085101561421d578190505b614231614229856140fa565b8301826141d1565b50505b505050565b5f82821c905092915050565b5f6142545f1984600802614239565b1980831691505092915050565b5f61426c8383614245565b9150826002028217905092915050565b614285826134c6565b67ffffffffffffffff81111561429e5761429d6139bb565b5b6142a882546140b8565b6142b38282856141f3565b5f60209050601f8311600181146142e4575f84156142d2578287015190505b6142dc8582614261565b865550614343565b601f1984166142f2866140e8565b5f5b82811015614319578489015182556001820191506020850194506020810190506142f4565b868310156143365784890151614332601f891682614245565b8355505b6001600288020188555050505b505050505050565b7f52656a65637465642064756520746f2065787069726174696f6e0000000000005f82015250565b5f61437f601a83613b7d565b915061438a8261434b565b602082019050919050565b5f6060820190506143a85f8301856133f2565b6143b56020830184613b6e565b81810360408301526143c681614373565b90509392505050565b5f6060820190506143e25f830186613b5f565b6143ef6020830185613b5f565b6143fc60408301846133f2565b949350505050565b5f6060820190506144175f830186613b5f565b61442460208301856133f2565b6144316040830184613b6e565b949350505050565b5f8154614445816140b8565b61444f8186613b7d565b9450600182165f8114614469576001811461447f576144b1565b60ff1983168652811515602002860193506144b1565b614488856140e8565b5f5b838110156144a95781548189015260018201915060208101905061448a565b808801955050505b50505092915050565b5f6060820190506144cd5f8301866133f2565b6144da6020830185613b6e565b81810360408301526144ec8184614439565b9050949350505050565b5f815190506145048161344f565b92915050565b5f6020828403121561451f5761451e61335c565b5b5f61452c848285016144f6565b91505092915050565b7f55736572206973206e6f7420726567697374657265642e0000000000000000005f82015250565b5f614569601783613b7d565b915061457482614535565b602082019050919050565b5f6020820190508181035f8301526145968161455d565b9050919050565b5f6040820190506145b05f830185613b5f565b6145bd60208301846133f2565b9392505050565b7f496e69746961746f72206973206e6f7420726567697374657265642e000000005f82015250565b5f6145f8601c83613b7d565b9150614603826145c4565b602082019050919050565b5f6020820190508181035f830152614625816145ec565b9050919050565b7f5265636569766572206973206e6f7420726567697374657265642e00000000005f82015250565b5f614660601b83613b7d565b915061466b8261462c565b602082019050919050565b5f6020820190508181035f83015261468d81614654565b9050919050565b7f5472616e73616374696f6e2065787069726174696f6e206d75737420626520695f8201527f6e20746865206675747572652e00000000000000000000000000000000000000602082015250565b5f6146ee602d83613b7d565b91506146f982614694565b604082019050919050565b5f6020820190508181035f83015261471b816146e2565b9050919050565b5f815190506147308161341a565b92915050565b5f6020828403121561474b5761474a61335c565b5b5f61475884828501614722565b91505092915050565b7f53656e6465722068617320696e73756666696369656e7420746f6b656e7320665f8201527f6f72207472616e73616374696f6e2e0000000000000000000000000000000000602082015250565b5f6147bb602f83613b7d565b91506147c682614761565b604082019050919050565b5f6020820190508181035f8301526147e8816147af565b9050919050565b7f526563656976657220646f6573206e6f74206861766520656e6f75676820656e5f8201527f657267792e000000000000000000000000000000000000000000000000000000602082015250565b5f614849602583613b7d565b9150614854826147ef565b604082019050919050565b5f6020820190508181035f8301526148768161483d565b9050919050565b7f53656e6465722068617320696e73756666696369656e7420656e6572677920665f8201527f6f72207472616e73616374696f6e2e0000000000000000000000000000000000602082015250565b5f6148d7602f83613b7d565b91506148e28261487d565b604082019050919050565b5f6020820190508181035f830152614904816148cb565b9050919050565b7f52656365697665722068617320696e73756666696369656e7420746f6b656e735f8201527f20666f72207472616e73616374696f6e2e000000000000000000000000000000602082015250565b5f614965603183613b7d565b91506149708261490b565b604082019050919050565b5f6020820190508181035f83015261499281614959565b9050919050565b5f6060820190506149ac5f8301866133f2565b6149b96020830185613b5f565b6149c66040830184613c29565b949350505050565b5f6149d8826133e9565b91506149e3836133e9565b92508282039050818111156149fb576149fa613f47565b5b92915050565b5f67ffffffffffffffff821115614a1b57614a1a6139bb565b5b602082029050602081019050919050565b5f80fd5b5f81519050614a3e81613394565b92915050565b5f614a56614a5184614a01565b613a19565b90508083825260208201905060208402830185811115614a7957614a78614a2c565b5b835b81811015614aa25780614a8e8882614a30565b845260208401935050602081019050614a7b565b5050509392505050565b5f82601f830112614ac057614abf6139b3565b5b8151614ad0848260208601614a44565b91505092915050565b5f60208284031215614aee57614aed61335c565b5b5f82015167ffffffffffffffff811115614b0b57614b0a613360565b5b614b1784828501614aac565b91505092915050565b5f614b32614b2d84613a33565b613a19565b905082815260208101848484011115614b4e57614b4d6139b7565b5b614b598482856134e0565b509392505050565b5f82601f830112614b7557614b746139b3565b5b8151614b85848260208601614b20565b91505092915050565b614b978161380b565b8114614ba1575f80fd5b50565b5f81519050614bb281614b8e565b92915050565b5f805f805f805f60e0888a031215614bd357614bd261335c565b5b5f614be08a828b01614a30565b975050602088015167ffffffffffffffff811115614c0157614c00613360565b5b614c0d8a828b01614b61565b9650506040614c1e8a828b01614722565b9550506060614c2f8a828b01614ba4565b9450506080614c408a828b01614ba4565b93505060a0614c518a828b01614722565b92505060c0614c628a828b016144f6565b91505092959891949750929550565b5f6080820190508181035f830152614c898187613b8d565b9050614c9860208301866133f2565b614ca560408301856133f2565b614cb260608301846133f2565b95945050505050565b7f4e487b71000000000000000000000000000000000000000000000000000000005f52603160045260245ffdfea2646970667358221220a85a0dfc568df5d4a158e573728132fddf39583d686a36d5e9a6bbb06f18844864736f6c63430008180033",
			"opcodes": "PUSH1 0x80 PUSH1 0x40 MSTORE PUSH1 0x1 PUSH1 0x2 SSTORE CALLVALUE DUP1 ISZERO PUSH3 0x15 JUMPI PUSH0 DUP1 REVERT JUMPDEST POP PUSH1 0x40 MLOAD PUSH3 0x4E82 CODESIZE SUB DUP1 PUSH3 0x4E82 DUP4 CODECOPY DUP2 DUP2 ADD PUSH1 0x40 MSTORE DUP2 ADD SWAP1 PUSH3 0x3B SWAP2 SWAP1 PUSH3 0x126 JUMP JUMPDEST CALLER PUSH1 0x1 PUSH0 PUSH2 0x100 EXP DUP2 SLOAD DUP2 PUSH20 0xFFFFFFFFFFFFFFFFFFFFFFFFFFFFFFFFFFFFFFFF MUL NOT AND SWAP1 DUP4 PUSH20 0xFFFFFFFFFFFFFFFFFFFFFFFFFFFFFFFFFFFFFFFF AND MUL OR SWAP1 SSTORE POP DUP1 PUSH0 DUP1 PUSH2 0x100 EXP DUP2 SLOAD DUP2 PUSH20 0xFFFFFFFFFFFFFFFFFFFFFFFFFFFFFFFFFFFFFFFF MUL NOT AND SWAP1 DUP4 PUSH20 0xFFFFFFFFFFFFFFFFFFFFFFFFFFFFFFFFFFFFFFFF AND MUL OR SWAP1 SSTORE POP POP PUSH3 0x156 JUMP JUMPDEST PUSH0 DUP1 REVERT JUMPDEST PUSH0 PUSH20 0xFFFFFFFFFFFFFFFFFFFFFFFFFFFFFFFFFFFFFFFF DUP3 AND SWAP1 POP SWAP2 SWAP1 POP JUMP JUMPDEST PUSH0 PUSH3 0xF0 DUP3 PUSH3 0xC5 JUMP JUMPDEST SWAP1 POP SWAP2 SWAP1 POP JUMP JUMPDEST PUSH3 0x102 DUP2 PUSH3 0xE4 JUMP JUMPDEST DUP2 EQ PUSH3 0x10D JUMPI PUSH0 DUP1 REVERT JUMPDEST POP JUMP JUMPDEST PUSH0 DUP2 MLOAD SWAP1 POP PUSH3 0x120 DUP2 PUSH3 0xF7 JUMP JUMPDEST SWAP3 SWAP2 POP POP JUMP JUMPDEST PUSH0 PUSH1 0x20 DUP3 DUP5 SUB SLT ISZERO PUSH3 0x13E JUMPI PUSH3 0x13D PUSH3 0xC1 JUMP JUMPDEST JUMPDEST PUSH0 PUSH3 0x14D DUP5 DUP3 DUP6 ADD PUSH3 0x110 JUMP JUMPDEST SWAP2 POP POP SWAP3 SWAP2 POP POP JUMP JUMPDEST PUSH2 0x4D1E DUP1 PUSH3 0x164 PUSH0 CODECOPY PUSH0 RETURN INVALID PUSH1 0x80 PUSH1 0x40 MSTORE CALLVALUE DUP1 ISZERO PUSH2 0xF JUMPI PUSH0 DUP1 REVERT JUMPDEST POP PUSH1 0x4 CALLDATASIZE LT PUSH2 0x11F JUMPI PUSH0 CALLDATALOAD PUSH1 0xE0 SHR DUP1 PUSH4 0x71569199 GT PUSH2 0xAB JUMPI DUP1 PUSH4 0xB1FCE8C3 GT PUSH2 0x6F JUMPI DUP1 PUSH4 0xB1FCE8C3 EQ PUSH2 0x346 JUMPI DUP1 PUSH4 0xC0FA3F4B EQ PUSH2 0x364 JUMPI DUP1 PUSH4 0xC33277E3 EQ PUSH2 0x382 JUMPI DUP1 PUSH4 0xF5AEC88C EQ PUSH2 0x3B6 JUMPI DUP1 PUSH4 0xF851A440 EQ PUSH2 0x3E6 JUMPI PUSH2 0x11F JUMP JUMPDEST DUP1 PUSH4 0x71569199 EQ PUSH2 0x285 JUMPI DUP1 PUSH4 0x767CE2DD EQ PUSH2 0x2A3 JUMPI DUP1 PUSH4 0x9ACE38C2 EQ PUSH2 0x2BF JUMPI DUP1 PUSH4 0x9E83E306 EQ PUSH2 0x2F8 JUMPI DUP1 PUSH4 0xA9878C62 EQ PUSH2 0x328 JUMPI PUSH2 0x11F JUMP JUMPDEST DUP1 PUSH4 0x4439A702 GT PUSH2 0xF2 JUMPI DUP1 PUSH4 0x4439A702 EQ PUSH2 0x1BB JUMPI DUP1 PUSH4 0x4DD87AF7 EQ PUSH2 0x1D7 JUMPI DUP1 PUSH4 0x586FB58E EQ PUSH2 0x207 JUMPI DUP1 PUSH4 0x5C8A7687 EQ PUSH2 0x237 JUMPI DUP1 PUSH4 0x63A8374D EQ PUSH2 0x255 JUMPI PUSH2 0x11F JUMP JUMPDEST DUP1 PUSH4 0x4BE1EF2 EQ PUSH2 0x123 JUMPI DUP1 PUSH4 0xB0F9DC3 EQ PUSH2 0x153 JUMPI DUP1 PUSH4 0xE947BD8 EQ PUSH2 0x16F JUMPI DUP1 PUSH4 0x220646CE EQ PUSH2 0x19F JUMPI JUMPDEST PUSH0 DUP1 REVERT JUMPDEST PUSH2 0x13D PUSH1 0x4 DUP1 CALLDATASIZE SUB DUP2 ADD SWAP1 PUSH2 0x138 SWAP2 SWAP1 PUSH2 0x33BE JUMP JUMPDEST PUSH2 0x404 JUMP JUMPDEST PUSH1 0x40 MLOAD PUSH2 0x14A SWAP2 SWAP1 PUSH2 0x3401 JUMP JUMPDEST PUSH1 0x40 MLOAD DUP1 SWAP2 SUB SWAP1 RETURN JUMPDEST PUSH2 0x16D PUSH1 0x4 DUP1 CALLDATASIZE SUB DUP2 ADD SWAP1 PUSH2 0x168 SWAP2 SWAP1 PUSH2 0x3479 JUMP JUMPDEST PUSH2 0x4E0 JUMP JUMPDEST STOP JUMPDEST PUSH2 0x189 PUSH1 0x4 DUP1 CALLDATASIZE SUB DUP2 ADD SWAP1 PUSH2 0x184 SWAP2 SWAP1 PUSH2 0x33BE JUMP JUMPDEST PUSH2 0x102D JUMP JUMPDEST PUSH1 0x40 MLOAD PUSH2 0x196 SWAP2 SWAP1 PUSH2 0x35D2 JUMP JUMPDEST PUSH1 0x40 MLOAD DUP1 SWAP2 SUB SWAP1 RETURN JUMPDEST PUSH2 0x1B9 PUSH1 0x4 DUP1 CALLDATASIZE SUB DUP2 ADD SWAP1 PUSH2 0x1B4 SWAP2 SWAP1 PUSH2 0x35F2 JUMP JUMPDEST PUSH2 0x125C JUMP JUMPDEST STOP JUMPDEST PUSH2 0x1D5 PUSH1 0x4 DUP1 CALLDATASIZE SUB DUP2 ADD SWAP1 PUSH2 0x1D0 SWAP2 SWAP1 PUSH2 0x361D JUMP JUMPDEST PUSH2 0x12E6 JUMP JUMPDEST STOP JUMPDEST PUSH2 0x1F1 PUSH1 0x4 DUP1 CALLDATASIZE SUB DUP2 ADD SWAP1 PUSH2 0x1EC SWAP2 SWAP1 PUSH2 0x33BE JUMP JUMPDEST PUSH2 0x1AD2 JUMP JUMPDEST PUSH1 0x40 MLOAD PUSH2 0x1FE SWAP2 SWAP1 PUSH2 0x374E JUMP JUMPDEST PUSH1 0x40 MLOAD DUP1 SWAP2 SUB SWAP1 RETURN JUMPDEST PUSH2 0x221 PUSH1 0x4 DUP1 CALLDATASIZE SUB DUP2 ADD SWAP1 PUSH2 0x21C SWAP2 SWAP1 PUSH2 0x33BE JUMP JUMPDEST PUSH2 0x1CF5 JUMP JUMPDEST PUSH1 0x40 MLOAD PUSH2 0x22E SWAP2 SWAP1 PUSH2 0x374E JUMP JUMPDEST PUSH1 0x40 MLOAD DUP1 SWAP2 SUB SWAP1 RETURN JUMPDEST PUSH2 0x23F PUSH2 0x1F3B JUMP JUMPDEST PUSH1 0x40 MLOAD PUSH2 0x24C SWAP2 SWAP1 PUSH2 0x37C9 JUMP JUMPDEST PUSH1 0x40 MLOAD DUP1 SWAP2 SUB SWAP1 RETURN JUMPDEST PUSH2 0x26F PUSH1 0x4 DUP1 CALLDATASIZE SUB DUP2 ADD SWAP1 PUSH2 0x26A SWAP2 SWAP1 PUSH2 0x35F2 JUMP JUMPDEST PUSH2 0x1F5E JUMP JUMPDEST PUSH1 0x40 MLOAD PUSH2 0x27C SWAP2 SWAP1 PUSH2 0x3401 JUMP JUMPDEST PUSH1 0x40 MLOAD DUP1 SWAP2 SUB SWAP1 RETURN JUMPDEST PUSH2 0x28D PUSH2 0x1F7E JUMP JUMPDEST PUSH1 0x40 MLOAD PUSH2 0x29A SWAP2 SWAP1 PUSH2 0x3993 JUMP JUMPDEST PUSH1 0x40 MLOAD DUP1 SWAP2 SUB SWAP1 RETURN JUMPDEST PUSH2 0x2BD PUSH1 0x4 DUP1 CALLDATASIZE SUB DUP2 ADD SWAP1 PUSH2 0x2B8 SWAP2 SWAP1 PUSH2 0x3ADF JUMP JUMPDEST PUSH2 0x24FA JUMP JUMPDEST STOP JUMPDEST PUSH2 0x2D9 PUSH1 0x4 DUP1 CALLDATASIZE SUB DUP2 ADD SWAP1 PUSH2 0x2D4 SWAP2 SWAP1 PUSH2 0x35F2 JUMP JUMPDEST PUSH2 0x2698 JUMP JUMPDEST PUSH1 0x40 MLOAD PUSH2 0x2EF SWAP11 SWAP10 SWAP9 SWAP8 SWAP7 SWAP6 SWAP5 SWAP4 SWAP3 SWAP2 SWAP1 PUSH2 0x3C38 JUMP JUMPDEST PUSH1 0x40 MLOAD DUP1 SWAP2 SUB SWAP1 RETURN JUMPDEST PUSH2 0x312 PUSH1 0x4 DUP1 CALLDATASIZE SUB DUP2 ADD SWAP1 PUSH2 0x30D SWAP2 SWAP1 PUSH2 0x33BE JUMP JUMPDEST PUSH2 0x27C4 JUMP JUMPDEST PUSH1 0x40 MLOAD PUSH2 0x31F SWAP2 SWAP1 PUSH2 0x374E JUMP JUMPDEST PUSH1 0x40 MLOAD DUP1 SWAP2 SUB SWAP1 RETURN JUMPDEST PUSH2 0x330 PUSH2 0x2A31 JUMP JUMPDEST PUSH1 0x40 MLOAD PUSH2 0x33D SWAP2 SWAP1 PUSH2 0x3E89 JUMP JUMPDEST PUSH1 0x40 MLOAD DUP1 SWAP2 SUB SWAP1 RETURN JUMPDEST PUSH2 0x34E PUSH2 0x2CC9 JUMP JUMPDEST PUSH1 0x40 MLOAD PUSH2 0x35B SWAP2 SWAP1 PUSH2 0x3E89 JUMP JUMPDEST PUSH1 0x40 MLOAD DUP1 SWAP2 SUB SWAP1 RETURN JUMPDEST PUSH2 0x36C PUSH2 0x2F61 JUMP JUMPDEST PUSH1 0x40 MLOAD PUSH2 0x379 SWAP2 SWAP1 PUSH2 0x3401 JUMP JUMPDEST PUSH1 0x40 MLOAD DUP1 SWAP2 SUB SWAP1 RETURN JUMPDEST PUSH2 0x39C PUSH1 0x4 DUP1 CALLDATASIZE SUB DUP2 ADD SWAP1 PUSH2 0x397 SWAP2 SWAP1 PUSH2 0x33BE JUMP JUMPDEST PUSH2 0x2F6D JUMP JUMPDEST PUSH1 0x40 MLOAD PUSH2 0x3AD SWAP6 SWAP5 SWAP4 SWAP3 SWAP2 SWAP1 PUSH2 0x3EA9 JUMP JUMPDEST PUSH1 0x40 MLOAD DUP1 SWAP2 SUB SWAP1 RETURN JUMPDEST PUSH2 0x3D0 PUSH1 0x4 DUP1 CALLDATASIZE SUB DUP2 ADD SWAP1 PUSH2 0x3CB SWAP2 SWAP1 PUSH2 0x33BE JUMP JUMPDEST PUSH2 0x3044 JUMP JUMPDEST PUSH1 0x40 MLOAD PUSH2 0x3DD SWAP2 SWAP1 PUSH2 0x3401 JUMP JUMPDEST PUSH1 0x40 MLOAD DUP1 SWAP2 SUB SWAP1 RETURN JUMPDEST PUSH2 0x3EE PUSH2 0x30E4 JUMP JUMPDEST PUSH1 0x40 MLOAD PUSH2 0x3FB SWAP2 SWAP1 PUSH2 0x3F01 JUMP JUMPDEST PUSH1 0x40 MLOAD DUP1 SWAP2 SUB SWAP1 RETURN JUMPDEST PUSH0 DUP1 PUSH0 SWAP1 POP PUSH0 JUMPDEST PUSH1 0x4 DUP1 SLOAD SWAP1 POP DUP2 LT ISZERO PUSH2 0x4D6 JUMPI PUSH0 PUSH1 0x3 PUSH0 PUSH1 0x4 DUP5 DUP2 SLOAD DUP2 LT PUSH2 0x430 JUMPI PUSH2 0x42F PUSH2 0x3F1A JUMP JUMPDEST JUMPDEST SWAP1 PUSH0 MSTORE PUSH1 0x20 PUSH0 KECCAK256 ADD SLOAD DUP2 MSTORE PUSH1 0x20 ADD SWAP1 DUP2 MSTORE PUSH1 0x20 ADD PUSH0 KECCAK256 SWAP1 POP DUP5 PUSH20 0xFFFFFFFFFFFFFFFFFFFFFFFFFFFFFFFFFFFFFFFF AND DUP2 PUSH1 0x2 ADD PUSH0 SWAP1 SLOAD SWAP1 PUSH2 0x100 EXP SWAP1 DIV PUSH20 0xFFFFFFFFFFFFFFFFFFFFFFFFFFFFFFFFFFFFFFFF AND PUSH20 0xFFFFFFFFFFFFFFFFFFFFFFFFFFFFFFFFFFFFFFFF AND EQ DUP1 ISZERO PUSH2 0x4B4 JUMPI POP DUP1 PUSH1 0x6 ADD PUSH0 SWAP1 SLOAD SWAP1 PUSH2 0x100 EXP SWAP1 DIV PUSH1 0xFF AND ISZERO JUMPDEST ISZERO PUSH2 0x4C8 JUMPI DUP3 DUP1 PUSH2 0x4C4 SWAP1 PUSH2 0x3F74 JUMP JUMPDEST SWAP4 POP POP JUMPDEST POP DUP1 DUP1 PUSH1 0x1 ADD SWAP2 POP POP PUSH2 0x40B JUMP JUMPDEST POP DUP1 SWAP2 POP POP SWAP2 SWAP1 POP JUMP JUMPDEST PUSH1 0x2 SLOAD DUP3 LT DUP1 ISZERO PUSH2 0x504 JUMPI POP PUSH0 PUSH1 0x3 PUSH0 DUP5 DUP2 MSTORE PUSH1 0x20 ADD SWAP1 DUP2 MSTORE PUSH1 0x20 ADD PUSH0 KECCAK256 PUSH0 ADD SLOAD EQ ISZERO JUMPDEST PUSH2 0x543 JUMPI PUSH1 0x40 MLOAD PUSH32 0x8C379A000000000000000000000000000000000000000000000000000000000 DUP2 MSTORE PUSH1 0x4 ADD PUSH2 0x53A SWAP1 PUSH2 0x4005 JUMP JUMPDEST PUSH1 0x40 MLOAD DUP1 SWAP2 SUB SWAP1 REVERT JUMPDEST PUSH1 0x3 PUSH0 DUP4 DUP2 MSTORE PUSH1 0x20 ADD SWAP1 DUP2 MSTORE PUSH1 0x20 ADD PUSH0 KECCAK256 PUSH1 0x6 ADD PUSH0 SWAP1 SLOAD SWAP1 PUSH2 0x100 EXP SWAP1 DIV PUSH1 0xFF AND ISZERO PUSH2 0x5A4 JUMPI PUSH1 0x40 MLOAD PUSH32 0x8C379A000000000000000000000000000000000000000000000000000000000 DUP2 MSTORE PUSH1 0x4 ADD PUSH2 0x59B SWAP1 PUSH2 0x406D JUMP JUMPDEST PUSH1 0x40 MLOAD DUP1 SWAP2 SUB SWAP1 REVERT JUMPDEST PUSH1 0x3 PUSH0 DUP4 DUP2 MSTORE PUSH1 0x20 ADD SWAP1 DUP2 MSTORE PUSH1 0x20 ADD PUSH0 KECCAK256 PUSH1 0x5 ADD SLOAD TIMESTAMP GT ISZERO PUSH2 0x68A JUMPI PUSH1 0x1 PUSH1 0x3 PUSH0 DUP5 DUP2 MSTORE PUSH1 0x20 ADD SWAP1 DUP2 MSTORE PUSH1 0x20 ADD PUSH0 KECCAK256 PUSH1 0x6 ADD PUSH0 PUSH2 0x100 EXP DUP2 SLOAD DUP2 PUSH1 0xFF MUL NOT AND SWAP1 DUP4 ISZERO ISZERO MUL OR SWAP1 SSTORE POP PUSH1 0x40 MLOAD DUP1 PUSH1 0x40 ADD PUSH1 0x40 MSTORE DUP1 PUSH1 0x1A DUP2 MSTORE PUSH1 0x20 ADD PUSH32 0x52656A65637465642064756520746F2065787069726174696F6E000000000000 DUP2 MSTORE POP PUSH1 0x3 PUSH0 DUP5 DUP2 MSTORE PUSH1 0x20 ADD SWAP1 DUP2 MSTORE PUSH1 0x20 ADD PUSH0 KECCAK256 PUSH1 0x7 ADD SWAP1 DUP2 PUSH2 0x642 SWAP2 SWAP1 PUSH2 0x427C JUMP JUMPDEST POP PUSH32 0xB6CDB9654A453B960EC5FE6F18502A3F0DD823ED74DDC4F68A16B3210265EA5B DUP3 PUSH0 PUSH1 0x40 MLOAD PUSH2 0x674 SWAP3 SWAP2 SWAP1 PUSH2 0x4395 JUMP JUMPDEST PUSH1 0x40 MLOAD DUP1 SWAP2 SUB SWAP1 LOG1 PUSH2 0x685 DUP3 PUSH2 0x3109 JUMP JUMPDEST PUSH2 0x1029 JUMP JUMPDEST PUSH1 0x1 PUSH1 0x3 PUSH0 DUP5 DUP2 MSTORE PUSH1 0x20 ADD SWAP1 DUP2 MSTORE PUSH1 0x20 ADD PUSH0 KECCAK256 PUSH1 0x6 ADD PUSH0 PUSH2 0x100 EXP DUP2 SLOAD DUP2 PUSH1 0xFF MUL NOT AND SWAP1 DUP4 ISZERO ISZERO MUL OR SWAP1 SSTORE POP DUP1 PUSH2 0x6F6 JUMPI PUSH1 0x40 MLOAD DUP1 PUSH1 0x40 ADD PUSH1 0x40 MSTORE DUP1 PUSH1 0x8 DUP2 MSTORE PUSH1 0x20 ADD PUSH32 0x52656A6563746564000000000000000000000000000000000000000000000000 DUP2 MSTORE POP PUSH2 0x72D JUMP JUMPDEST PUSH1 0x40 MLOAD DUP1 PUSH1 0x40 ADD PUSH1 0x40 MSTORE DUP1 PUSH1 0x8 DUP2 MSTORE PUSH1 0x20 ADD PUSH32 0x4163636570746564000000000000000000000000000000000000000000000000 DUP2 MSTORE POP JUMPDEST PUSH1 0x3 PUSH0 DUP5 DUP2 MSTORE PUSH1 0x20 ADD SWAP1 DUP2 MSTORE PUSH1 0x20 ADD PUSH0 KECCAK256 PUSH1 0x7 ADD SWAP1 DUP2 PUSH2 0x74D SWAP2 SWAP1 PUSH2 0x427C JUMP JUMPDEST POP DUP1 ISZERO PUSH2 0xED5 JUMPI PUSH0 PUSH1 0x3 PUSH0 DUP5 DUP2 MSTORE PUSH1 0x20 ADD SWAP1 DUP2 MSTORE PUSH1 0x20 ADD PUSH0 KECCAK256 SWAP1 POP PUSH0 PUSH1 0x1 DUP2 GT ISZERO PUSH2 0x77B JUMPI PUSH2 0x77A PUSH2 0x3BC5 JUMP JUMPDEST JUMPDEST DUP2 PUSH1 0x9 ADD PUSH0 SWAP1 SLOAD SWAP1 PUSH2 0x100 EXP SWAP1 DIV PUSH1 0xFF AND PUSH1 0x1 DUP2 GT ISZERO PUSH2 0x79E JUMPI PUSH2 0x79D PUSH2 0x3BC5 JUMP JUMPDEST JUMPDEST SUB PUSH2 0xB3D JUMPI PUSH0 DUP1 SLOAD SWAP1 PUSH2 0x100 EXP SWAP1 DIV PUSH20 0xFFFFFFFFFFFFFFFFFFFFFFFFFFFFFFFFFFFFFFFF AND PUSH20 0xFFFFFFFFFFFFFFFFFFFFFFFFFFFFFFFFFFFFFFFF AND PUSH4 0xA64B6E5F DUP3 PUSH1 0x1 ADD PUSH0 SWAP1 SLOAD SWAP1 PUSH2 0x100 EXP SWAP1 DIV PUSH20 0xFFFFFFFFFFFFFFFFFFFFFFFFFFFFFFFFFFFFFFFF AND DUP4 PUSH1 0x2 ADD PUSH0 SWAP1 SLOAD SWAP1 PUSH2 0x100 EXP SWAP1 DIV PUSH20 0xFFFFFFFFFFFFFFFFFFFFFFFFFFFFFFFFFFFFFFFF AND DUP5 PUSH1 0x4 ADD SLOAD PUSH1 0x40 MLOAD DUP5 PUSH4 0xFFFFFFFF AND PUSH1 0xE0 SHL DUP2 MSTORE PUSH1 0x4 ADD PUSH2 0x849 SWAP4 SWAP3 SWAP2 SWAP1 PUSH2 0x43CF JUMP JUMPDEST PUSH0 PUSH1 0x40 MLOAD DUP1 DUP4 SUB DUP2 PUSH0 DUP8 DUP1 EXTCODESIZE ISZERO DUP1 ISZERO PUSH2 0x860 JUMPI PUSH0 DUP1 REVERT JUMPDEST POP GAS CALL ISZERO DUP1 ISZERO PUSH2 0x872 JUMPI RETURNDATASIZE PUSH0 DUP1 RETURNDATACOPY RETURNDATASIZE PUSH0 REVERT JUMPDEST POP POP POP POP PUSH0 DUP1 SLOAD SWAP1 PUSH2 0x100 EXP SWAP1 DIV PUSH20 0xFFFFFFFFFFFFFFFFFFFFFFFFFFFFFFFFFFFFFFFF AND PUSH20 0xFFFFFFFFFFFFFFFFFFFFFFFFFFFFFFFFFFFFFFFF AND PUSH4 0x6FB4309B DUP3 PUSH1 0x1 ADD PUSH0 SWAP1 SLOAD SWAP1 PUSH2 0x100 EXP SWAP1 DIV PUSH20 0xFFFFFFFFFFFFFFFFFFFFFFFFFFFFFFFFFFFFFFFF AND DUP4 PUSH1 0x4 ADD SLOAD PUSH0 PUSH1 0x40 MLOAD DUP5 PUSH4 0xFFFFFFFF AND PUSH1 0xE0 SHL DUP2 MSTORE PUSH1 0x4 ADD PUSH2 0x8F9 SWAP4 SWAP3 SWAP2 SWAP1 PUSH2 0x4404 JUMP JUMPDEST PUSH0 PUSH1 0x40 MLOAD DUP1 DUP4 SUB DUP2 PUSH0 DUP8 DUP1 EXTCODESIZE ISZERO DUP1 ISZERO PUSH2 0x910 JUMPI PUSH0 DUP1 REVERT JUMPDEST POP GAS CALL ISZERO DUP1 ISZERO PUSH2 0x922 JUMPI RETURNDATASIZE PUSH0 DUP1 RETURNDATACOPY RETURNDATASIZE PUSH0 REVERT JUMPDEST POP POP POP POP PUSH0 DUP1 SLOAD SWAP1 PUSH2 0x100 EXP SWAP1 DIV PUSH20 0xFFFFFFFFFFFFFFFFFFFFFFFFFFFFFFFFFFFFFFFF AND PUSH20 0xFFFFFFFFFFFFFFFFFFFFFFFFFFFFFFFFFFFFFFFF AND PUSH4 0x6FB4309B DUP3 PUSH1 0x2 ADD PUSH0 SWAP1 SLOAD SWAP1 PUSH2 0x100 EXP SWAP1 DIV PUSH20 0xFFFFFFFFFFFFFFFFFFFFFFFFFFFFFFFFFFFFFFFF AND DUP4 PUSH1 0x4 ADD SLOAD PUSH1 0x1 PUSH1 0x40 MLOAD DUP5 PUSH4 0xFFFFFFFF AND PUSH1 0xE0 SHL DUP2 MSTORE PUSH1 0x4 ADD PUSH2 0x9AA SWAP4 SWAP3 SWAP2 SWAP1 PUSH2 0x4404 JUMP JUMPDEST PUSH0 PUSH1 0x40 MLOAD DUP1 DUP4 SUB DUP2 PUSH0 DUP8 DUP1 EXTCODESIZE ISZERO DUP1 ISZERO PUSH2 0x9C1 JUMPI PUSH0 DUP1 REVERT JUMPDEST POP GAS CALL ISZERO DUP1 ISZERO PUSH2 0x9D3 JUMPI RETURNDATASIZE PUSH0 DUP1 RETURNDATACOPY RETURNDATASIZE PUSH0 REVERT JUMPDEST POP POP POP POP PUSH0 DUP1 SLOAD SWAP1 PUSH2 0x100 EXP SWAP1 DIV PUSH20 0xFFFFFFFFFFFFFFFFFFFFFFFFFFFFFFFFFFFFFFFF AND PUSH20 0xFFFFFFFFFFFFFFFFFFFFFFFFFFFFFFFFFFFFFFFF AND PUSH4 0x9202E886 DUP3 PUSH1 0x1 ADD PUSH0 SWAP1 SLOAD SWAP1 PUSH2 0x100 EXP SWAP1 DIV PUSH20 0xFFFFFFFFFFFFFFFFFFFFFFFFFFFFFFFFFFFFFFFF AND DUP4 PUSH1 0x3 ADD SLOAD PUSH1 0x1 PUSH1 0x40 MLOAD DUP5 PUSH4 0xFFFFFFFF AND PUSH1 0xE0 SHL DUP2 MSTORE PUSH1 0x4 ADD PUSH2 0xA5B SWAP4 SWAP3 SWAP2 SWAP1 PUSH2 0x4404 JUMP JUMPDEST PUSH0 PUSH1 0x40 MLOAD DUP1 DUP4 SUB DUP2 PUSH0 DUP8 DUP1 EXTCODESIZE ISZERO DUP1 ISZERO PUSH2 0xA72 JUMPI PUSH0 DUP1 REVERT JUMPDEST POP GAS CALL ISZERO DUP1 ISZERO PUSH2 0xA84 JUMPI RETURNDATASIZE PUSH0 DUP1 RETURNDATACOPY RETURNDATASIZE PUSH0 REVERT JUMPDEST POP POP POP POP PUSH0 DUP1 SLOAD SWAP1 PUSH2 0x100 EXP SWAP1 DIV PUSH20 0xFFFFFFFFFFFFFFFFFFFFFFFFFFFFFFFFFFFFFFFF AND PUSH20 0xFFFFFFFFFFFFFFFFFFFFFFFFFFFFFFFFFFFFFFFF AND PUSH4 0x9202E886 DUP3 PUSH1 0x2 ADD PUSH0 SWAP1 SLOAD SWAP1 PUSH2 0x100 EXP SWAP1 DIV PUSH20 0xFFFFFFFFFFFFFFFFFFFFFFFFFFFFFFFFFFFFFFFF AND DUP4 PUSH1 0x3 ADD SLOAD PUSH0 PUSH1 0x40 MLOAD DUP5 PUSH4 0xFFFFFFFF AND PUSH1 0xE0 SHL DUP2 MSTORE PUSH1 0x4 ADD PUSH2 0xB0B SWAP4 SWAP3 SWAP2 SWAP1 PUSH2 0x4404 JUMP JUMPDEST PUSH0 PUSH1 0x40 MLOAD DUP1 DUP4 SUB DUP2 PUSH0 DUP8 DUP1 EXTCODESIZE ISZERO DUP1 ISZERO PUSH2 0xB22 JUMPI PUSH0 DUP1 REVERT JUMPDEST POP GAS CALL ISZERO DUP1 ISZERO PUSH2 0xB34 JUMPI RETURNDATASIZE PUSH0 DUP1 RETURNDATACOPY RETURNDATASIZE PUSH0 REVERT JUMPDEST POP POP POP POP PUSH2 0xED3 JUMP JUMPDEST PUSH0 DUP1 SLOAD SWAP1 PUSH2 0x100 EXP SWAP1 DIV PUSH20 0xFFFFFFFFFFFFFFFFFFFFFFFFFFFFFFFFFFFFFFFF AND PUSH20 0xFFFFFFFFFFFFFFFFFFFFFFFFFFFFFFFFFFFFFFFF AND PUSH4 0xA64B6E5F DUP3 PUSH1 0x2 ADD PUSH0 SWAP1 SLOAD SWAP1 PUSH2 0x100 EXP SWAP1 DIV PUSH20 0xFFFFFFFFFFFFFFFFFFFFFFFFFFFFFFFFFFFFFFFF AND DUP4 PUSH1 0x1 ADD PUSH0 SWAP1 SLOAD SWAP1 PUSH2 0x100 EXP SWAP1 DIV PUSH20 0xFFFFFFFFFFFFFFFFFFFFFFFFFFFFFFFFFFFFFFFF AND DUP5 PUSH1 0x4 ADD SLOAD PUSH1 0x40 MLOAD DUP5 PUSH4 0xFFFFFFFF AND PUSH1 0xE0 SHL DUP2 MSTORE PUSH1 0x4 ADD PUSH2 0xBE3 SWAP4 SWAP3 SWAP2 SWAP1 PUSH2 0x43CF JUMP JUMPDEST PUSH0 PUSH1 0x40 MLOAD DUP1 DUP4 SUB DUP2 PUSH0 DUP8 DUP1 EXTCODESIZE ISZERO DUP1 ISZERO PUSH2 0xBFA JUMPI PUSH0 DUP1 REVERT JUMPDEST POP GAS CALL ISZERO DUP1 ISZERO PUSH2 0xC0C JUMPI RETURNDATASIZE PUSH0 DUP1 RETURNDATACOPY RETURNDATASIZE PUSH0 REVERT JUMPDEST POP POP POP POP PUSH0 DUP1 SLOAD SWAP1 PUSH2 0x100 EXP SWAP1 DIV PUSH20 0xFFFFFFFFFFFFFFFFFFFFFFFFFFFFFFFFFFFFFFFF AND PUSH20 0xFFFFFFFFFFFFFFFFFFFFFFFFFFFFFFFFFFFFFFFF AND PUSH4 0x6FB4309B DUP3 PUSH1 0x1 ADD PUSH0 SWAP1 SLOAD SWAP1 PUSH2 0x100 EXP SWAP1 DIV PUSH20 0xFFFFFFFFFFFFFFFFFFFFFFFFFFFFFFFFFFFFFFFF AND DUP4 PUSH1 0x4 ADD SLOAD PUSH1 0x1 PUSH1 0x40 MLOAD DUP5 PUSH4 0xFFFFFFFF AND PUSH1 0xE0 SHL DUP2 MSTORE PUSH1 0x4 ADD PUSH2 0xC94 SWAP4 SWAP3 SWAP2 SWAP1 PUSH2 0x4404 JUMP JUMPDEST PUSH0 PUSH1 0x40 MLOAD DUP1 DUP4 SUB DUP2 PUSH0 DUP8 DUP1 EXTCODESIZE ISZERO DUP1 ISZERO PUSH2 0xCAB JUMPI PUSH0 DUP1 REVERT JUMPDEST POP GAS CALL ISZERO DUP1 ISZERO PUSH2 0xCBD JUMPI RETURNDATASIZE PUSH0 DUP1 RETURNDATACOPY RETURNDATASIZE PUSH0 REVERT JUMPDEST POP POP POP POP PUSH0 DUP1 SLOAD SWAP1 PUSH2 0x100 EXP SWAP1 DIV PUSH20 0xFFFFFFFFFFFFFFFFFFFFFFFFFFFFFFFFFFFFFFFF AND PUSH20 0xFFFFFFFFFFFFFFFFFFFFFFFFFFFFFFFFFFFFFFFF AND PUSH4 0x6FB4309B DUP3 PUSH1 0x2 ADD PUSH0 SWAP1 SLOAD SWAP1 PUSH2 0x100 EXP SWAP1 DIV PUSH20 0xFFFFFFFFFFFFFFFFFFFFFFFFFFFFFFFFFFFFFFFF AND DUP4 PUSH1 0x4 ADD SLOAD PUSH0 PUSH1 0x40 MLOAD DUP5 PUSH4 0xFFFFFFFF AND PUSH1 0xE0 SHL DUP2 MSTORE PUSH1 0x4 ADD PUSH2 0xD44 SWAP4 SWAP3 SWAP2 SWAP1 PUSH2 0x4404 JUMP JUMPDEST PUSH0 PUSH1 0x40 MLOAD DUP1 DUP4 SUB DUP2 PUSH0 DUP8 DUP1 EXTCODESIZE ISZERO DUP1 ISZERO PUSH2 0xD5B JUMPI PUSH0 DUP1 REVERT JUMPDEST POP GAS CALL ISZERO DUP1 ISZERO PUSH2 0xD6D JUMPI RETURNDATASIZE PUSH0 DUP1 RETURNDATACOPY RETURNDATASIZE PUSH0 REVERT JUMPDEST POP POP POP POP PUSH0 DUP1 SLOAD SWAP1 PUSH2 0x100 EXP SWAP1 DIV PUSH20 0xFFFFFFFFFFFFFFFFFFFFFFFFFFFFFFFFFFFFFFFF AND PUSH20 0xFFFFFFFFFFFFFFFFFFFFFFFFFFFFFFFFFFFFFFFF AND PUSH4 0x9202E886 DUP3 PUSH1 0x1 ADD PUSH0 SWAP1 SLOAD SWAP1 PUSH2 0x100 EXP SWAP1 DIV PUSH20 0xFFFFFFFFFFFFFFFFFFFFFFFFFFFFFFFFFFFFFFFF AND DUP4 PUSH1 0x3 ADD SLOAD PUSH0 PUSH1 0x40 MLOAD DUP5 PUSH4 0xFFFFFFFF AND PUSH1 0xE0 SHL DUP2 MSTORE PUSH1 0x4 ADD PUSH2 0xDF4 SWAP4 SWAP3 SWAP2 SWAP1 PUSH2 0x4404 JUMP JUMPDEST PUSH0 PUSH1 0x40 MLOAD DUP1 DUP4 SUB DUP2 PUSH0 DUP8 DUP1 EXTCODESIZE ISZERO DUP1 ISZERO PUSH2 0xE0B JUMPI PUSH0 DUP1 REVERT JUMPDEST POP GAS CALL ISZERO DUP1 ISZERO PUSH2 0xE1D JUMPI RETURNDATASIZE PUSH0 DUP1 RETURNDATACOPY RETURNDATASIZE PUSH0 REVERT JUMPDEST POP POP POP POP PUSH0 DUP1 SLOAD SWAP1 PUSH2 0x100 EXP SWAP1 DIV PUSH20 0xFFFFFFFFFFFFFFFFFFFFFFFFFFFFFFFFFFFFFFFF AND PUSH20 0xFFFFFFFFFFFFFFFFFFFFFFFFFFFFFFFFFFFFFFFF AND PUSH4 0x9202E886 DUP3 PUSH1 0x2 ADD PUSH0 SWAP1 SLOAD SWAP1 PUSH2 0x100 EXP SWAP1 DIV PUSH20 0xFFFFFFFFFFFFFFFFFFFFFFFFFFFFFFFFFFFFFFFF AND DUP4 PUSH1 0x3 ADD SLOAD PUSH1 0x1 PUSH1 0x40 MLOAD DUP5 PUSH4 0xFFFFFFFF AND PUSH1 0xE0 SHL DUP2 MSTORE PUSH1 0x4 ADD PUSH2 0xEA5 SWAP4 SWAP3 SWAP2 SWAP1 PUSH2 0x4404 JUMP JUMPDEST PUSH0 PUSH1 0x40 MLOAD DUP1 DUP4 SUB DUP2 PUSH0 DUP8 DUP1 EXTCODESIZE ISZERO DUP1 ISZERO PUSH2 0xEBC JUMPI PUSH0 DUP1 REVERT JUMPDEST POP GAS CALL ISZERO DUP1 ISZERO PUSH2 0xECE JUMPI RETURNDATASIZE PUSH0 DUP1 RETURNDATACOPY RETURNDATASIZE PUSH0 REVERT JUMPDEST POP POP POP POP JUMPDEST POP JUMPDEST PUSH2 0xEDE DUP3 PUSH2 0x3109 JUMP JUMPDEST PUSH1 0x5 DUP3 SWAP1 DUP1 PUSH1 0x1 DUP2 SLOAD ADD DUP1 DUP3 SSTORE DUP1 SWAP2 POP POP PUSH1 0x1 SWAP1 SUB SWAP1 PUSH0 MSTORE PUSH1 0x20 PUSH0 KECCAK256 ADD PUSH0 SWAP1 SWAP2 SWAP1 SWAP2 SWAP1 SWAP2 POP SSTORE PUSH0 PUSH1 0x6 PUSH0 PUSH1 0x3 PUSH0 DUP7 DUP2 MSTORE PUSH1 0x20 ADD SWAP1 DUP2 MSTORE PUSH1 0x20 ADD PUSH0 KECCAK256 PUSH1 0x2 ADD PUSH0 SWAP1 SLOAD SWAP1 PUSH2 0x100 EXP SWAP1 DIV PUSH20 0xFFFFFFFFFFFFFFFFFFFFFFFFFFFFFFFFFFFFFFFF AND PUSH20 0xFFFFFFFFFFFFFFFFFFFFFFFFFFFFFFFFFFFFFFFF AND PUSH20 0xFFFFFFFFFFFFFFFFFFFFFFFFFFFFFFFFFFFFFFFF AND DUP2 MSTORE PUSH1 0x20 ADD SWAP1 DUP2 MSTORE PUSH1 0x20 ADD PUSH0 KECCAK256 SWAP1 POP PUSH1 0x40 MLOAD DUP1 PUSH1 0x40 ADD PUSH1 0x40 MSTORE DUP1 PUSH1 0xA DUP2 MSTORE PUSH1 0x20 ADD PUSH32 0x4E6F7454726164696E6700000000000000000000000000000000000000000000 DUP2 MSTORE POP DUP2 PUSH1 0x1 ADD SWAP1 DUP2 PUSH2 0xFBD SWAP2 SWAP1 PUSH2 0x427C JUMP JUMPDEST POP PUSH0 DUP2 PUSH1 0x4 ADD DUP2 SWAP1 SSTORE POP PUSH0 DUP2 PUSH1 0x2 ADD DUP2 SWAP1 SSTORE POP PUSH0 DUP2 PUSH1 0x3 ADD DUP2 SWAP1 SSTORE POP PUSH32 0xB6CDB9654A453B960EC5FE6F18502A3F0DD823ED74DDC4F68A16B3210265EA5B DUP4 DUP4 PUSH1 0x3 PUSH0 DUP8 DUP2 MSTORE PUSH1 0x20 ADD SWAP1 DUP2 MSTORE PUSH1 0x20 ADD PUSH0 KECCAK256 PUSH1 0x7 ADD PUSH1 0x40 MLOAD PUSH2 0x101F SWAP4 SWAP3 SWAP2 SWAP1 PUSH2 0x44BA JUMP JUMPDEST PUSH1 0x40 MLOAD DUP1 SWAP2 SUB SWAP1 LOG1 POP JUMPDEST POP POP JUMP JUMPDEST PUSH2 0x1035 PUSH2 0x3227 JUMP JUMPDEST PUSH0 DUP1 SLOAD SWAP1 PUSH2 0x100 EXP SWAP1 DIV PUSH20 0xFFFFFFFFFFFFFFFFFFFFFFFFFFFFFFFFFFFFFFFF AND PUSH20 0xFFFFFFFFFFFFFFFFFFFFFFFFFFFFFFFFFFFFFFFF AND PUSH4 0x163F7522 DUP4 PUSH1 0x40 MLOAD DUP3 PUSH4 0xFFFFFFFF AND PUSH1 0xE0 SHL DUP2 MSTORE PUSH1 0x4 ADD PUSH2 0x108D SWAP2 SWAP1 PUSH2 0x3F01 JUMP JUMPDEST PUSH1 0x20 PUSH1 0x40 MLOAD DUP1 DUP4 SUB DUP2 DUP7 GAS STATICCALL ISZERO DUP1 ISZERO PUSH2 0x10A8 JUMPI RETURNDATASIZE PUSH0 DUP1 RETURNDATACOPY RETURNDATASIZE PUSH0 REVERT JUMPDEST POP POP POP POP PUSH1 0x40 MLOAD RETURNDATASIZE PUSH1 0x1F NOT PUSH1 0x1F DUP3 ADD AND DUP3 ADD DUP1 PUSH1 0x40 MSTORE POP DUP2 ADD SWAP1 PUSH2 0x10CC SWAP2 SWAP1 PUSH2 0x450A JUMP JUMPDEST PUSH2 0x110B JUMPI PUSH1 0x40 MLOAD PUSH32 0x8C379A000000000000000000000000000000000000000000000000000000000 DUP2 MSTORE PUSH1 0x4 ADD PUSH2 0x1102 SWAP1 PUSH2 0x457F JUMP JUMPDEST PUSH1 0x40 MLOAD DUP1 SWAP2 SUB SWAP1 REVERT JUMPDEST PUSH1 0x6 PUSH0 DUP4 PUSH20 0xFFFFFFFFFFFFFFFFFFFFFFFFFFFFFFFFFFFFFFFF AND PUSH20 0xFFFFFFFFFFFFFFFFFFFFFFFFFFFFFFFFFFFFFFFF AND DUP2 MSTORE PUSH1 0x20 ADD SWAP1 DUP2 MSTORE PUSH1 0x20 ADD PUSH0 KECCAK256 PUSH1 0x40 MLOAD DUP1 PUSH1 0xA0 ADD PUSH1 0x40 MSTORE SWAP1 DUP2 PUSH0 DUP3 ADD PUSH0 SWAP1 SLOAD SWAP1 PUSH2 0x100 EXP SWAP1 DIV PUSH20 0xFFFFFFFFFFFFFFFFFFFFFFFFFFFFFFFFFFFFFFFF AND PUSH20 0xFFFFFFFFFFFFFFFFFFFFFFFFFFFFFFFFFFFFFFFF AND PUSH20 0xFFFFFFFFFFFFFFFFFFFFFFFFFFFFFFFFFFFFFFFF AND DUP2 MSTORE PUSH1 0x20 ADD PUSH1 0x1 DUP3 ADD DUP1 SLOAD PUSH2 0x11B7 SWAP1 PUSH2 0x40B8 JUMP JUMPDEST DUP1 PUSH1 0x1F ADD PUSH1 0x20 DUP1 SWAP2 DIV MUL PUSH1 0x20 ADD PUSH1 0x40 MLOAD SWAP1 DUP2 ADD PUSH1 0x40 MSTORE DUP1 SWAP3 SWAP2 SWAP1 DUP2 DUP2 MSTORE PUSH1 0x20 ADD DUP3 DUP1 SLOAD PUSH2 0x11E3 SWAP1 PUSH2 0x40B8 JUMP JUMPDEST DUP1 ISZERO PUSH2 0x122E JUMPI DUP1 PUSH1 0x1F LT PUSH2 0x1205 JUMPI PUSH2 0x100 DUP1 DUP4 SLOAD DIV MUL DUP4 MSTORE SWAP2 PUSH1 0x20 ADD SWAP2 PUSH2 0x122E JUMP JUMPDEST DUP3 ADD SWAP2 SWAP1 PUSH0 MSTORE PUSH1 0x20 PUSH0 KECCAK256 SWAP1 JUMPDEST DUP2 SLOAD DUP2 MSTORE SWAP1 PUSH1 0x1 ADD SWAP1 PUSH1 0x20 ADD DUP1 DUP4 GT PUSH2 0x1211 JUMPI DUP3 SWAP1 SUB PUSH1 0x1F AND DUP3 ADD SWAP2 JUMPDEST POP POP POP POP POP DUP2 MSTORE PUSH1 0x20 ADD PUSH1 0x2 DUP3 ADD SLOAD DUP2 MSTORE PUSH1 0x20 ADD PUSH1 0x3 DUP3 ADD SLOAD DUP2 MSTORE PUSH1 0x20 ADD PUSH1 0x4 DUP3 ADD SLOAD DUP2 MSTORE POP POP SWAP1 POP SWAP2 SWAP1 POP JUMP JUMPDEST PUSH0 DUP1 SLOAD SWAP1 PUSH2 0x100 EXP SWAP1 DIV PUSH20 0xFFFFFFFFFFFFFFFFFFFFFFFFFFFFFFFFFFFFFFFF AND PUSH20 0xFFFFFFFFFFFFFFFFFFFFFFFFFFFFFFFFFFFFFFFF AND PUSH4 0xF38488EC ADDRESS DUP4 PUSH1 0x40 MLOAD DUP4 PUSH4 0xFFFFFFFF AND PUSH1 0xE0 SHL DUP2 MSTORE PUSH1 0x4 ADD PUSH2 0x12B6 SWAP3 SWAP2 SWAP1 PUSH2 0x459D JUMP JUMPDEST PUSH0 PUSH1 0x40 MLOAD DUP1 DUP4 SUB DUP2 PUSH0 DUP8 DUP1 EXTCODESIZE ISZERO DUP1 ISZERO PUSH2 0x12CD JUMPI PUSH0 DUP1 REVERT JUMPDEST POP GAS CALL ISZERO DUP1 ISZERO PUSH2 0x12DF JUMPI RETURNDATASIZE PUSH0 DUP1 RETURNDATACOPY RETURNDATASIZE PUSH0 REVERT JUMPDEST POP POP POP POP POP JUMP JUMPDEST PUSH0 DUP1 SLOAD SWAP1 PUSH2 0x100 EXP SWAP1 DIV PUSH20 0xFFFFFFFFFFFFFFFFFFFFFFFFFFFFFFFFFFFFFFFF AND PUSH20 0xFFFFFFFFFFFFFFFFFFFFFFFFFFFFFFFFFFFFFFFF AND PUSH4 0x163F7522 DUP8 PUSH1 0x40 MLOAD DUP3 PUSH4 0xFFFFFFFF AND PUSH1 0xE0 SHL DUP2 MSTORE PUSH1 0x4 ADD PUSH2 0x133E SWAP2 SWAP1 PUSH2 0x3F01 JUMP JUMPDEST PUSH1 0x20 PUSH1 0x40 MLOAD DUP1 DUP4 SUB DUP2 DUP7 GAS STATICCALL ISZERO DUP1 ISZERO PUSH2 0x1359 JUMPI RETURNDATASIZE PUSH0 DUP1 RETURNDATACOPY RETURNDATASIZE PUSH0 REVERT JUMPDEST POP POP POP POP PUSH1 0x40 MLOAD RETURNDATASIZE PUSH1 0x1F NOT PUSH1 0x1F DUP3 ADD AND DUP3 ADD DUP1 PUSH1 0x40 MSTORE POP DUP2 ADD SWAP1 PUSH2 0x137D SWAP2 SWAP1 PUSH2 0x450A JUMP JUMPDEST PUSH2 0x13BC JUMPI PUSH1 0x40 MLOAD PUSH32 0x8C379A000000000000000000000000000000000000000000000000000000000 DUP2 MSTORE PUSH1 0x4 ADD PUSH2 0x13B3 SWAP1 PUSH2 0x460E JUMP JUMPDEST PUSH1 0x40 MLOAD DUP1 SWAP2 SUB SWAP1 REVERT JUMPDEST PUSH0 DUP1 SLOAD SWAP1 PUSH2 0x100 EXP SWAP1 DIV PUSH20 0xFFFFFFFFFFFFFFFFFFFFFFFFFFFFFFFFFFFFFFFF AND PUSH20 0xFFFFFFFFFFFFFFFFFFFFFFFFFFFFFFFFFFFFFFFF AND PUSH4 0x163F7522 DUP7 PUSH1 0x40 MLOAD DUP3 PUSH4 0xFFFFFFFF AND PUSH1 0xE0 SHL DUP2 MSTORE PUSH1 0x4 ADD PUSH2 0x1414 SWAP2 SWAP1 PUSH2 0x3F01 JUMP JUMPDEST PUSH1 0x20 PUSH1 0x40 MLOAD DUP1 DUP4 SUB DUP2 DUP7 GAS STATICCALL ISZERO DUP1 ISZERO PUSH2 0x142F JUMPI RETURNDATASIZE PUSH0 DUP1 RETURNDATACOPY RETURNDATASIZE PUSH0 REVERT JUMPDEST POP POP POP POP PUSH1 0x40 MLOAD RETURNDATASIZE PUSH1 0x1F NOT PUSH1 0x1F DUP3 ADD AND DUP3 ADD DUP1 PUSH1 0x40 MSTORE POP DUP2 ADD SWAP1 PUSH2 0x1453 SWAP2 SWAP1 PUSH2 0x450A JUMP JUMPDEST PUSH2 0x1492 JUMPI PUSH1 0x40 MLOAD PUSH32 0x8C379A000000000000000000000000000000000000000000000000000000000 DUP2 MSTORE PUSH1 0x4 ADD PUSH2 0x1489 SWAP1 PUSH2 0x4676 JUMP JUMPDEST PUSH1 0x40 MLOAD DUP1 SWAP2 SUB SWAP1 REVERT JUMPDEST TIMESTAMP DUP3 GT PUSH2 0x14D4 JUMPI PUSH1 0x40 MLOAD PUSH32 0x8C379A000000000000000000000000000000000000000000000000000000000 DUP2 MSTORE PUSH1 0x4 ADD PUSH2 0x14CB SWAP1 PUSH2 0x4704 JUMP JUMPDEST PUSH1 0x40 MLOAD DUP1 SWAP2 SUB SWAP1 REVERT JUMPDEST DUP1 ISZERO PUSH2 0x1691 JUMPI DUP3 PUSH0 DUP1 SLOAD SWAP1 PUSH2 0x100 EXP SWAP1 DIV PUSH20 0xFFFFFFFFFFFFFFFFFFFFFFFFFFFFFFFFFFFFFFFF AND PUSH20 0xFFFFFFFFFFFFFFFFFFFFFFFFFFFFFFFFFFFFFFFF AND PUSH4 0x3AECD0E3 DUP9 PUSH1 0x40 MLOAD DUP3 PUSH4 0xFFFFFFFF AND PUSH1 0xE0 SHL DUP2 MSTORE PUSH1 0x4 ADD PUSH2 0x1533 SWAP2 SWAP1 PUSH2 0x3F01 JUMP JUMPDEST PUSH1 0x20 PUSH1 0x40 MLOAD DUP1 DUP4 SUB DUP2 DUP7 GAS STATICCALL ISZERO DUP1 ISZERO PUSH2 0x154E JUMPI RETURNDATASIZE PUSH0 DUP1 RETURNDATACOPY RETURNDATASIZE PUSH0 REVERT JUMPDEST POP POP POP POP PUSH1 0x40 MLOAD RETURNDATASIZE PUSH1 0x1F NOT PUSH1 0x1F DUP3 ADD AND DUP3 ADD DUP1 PUSH1 0x40 MSTORE POP DUP2 ADD SWAP1 PUSH2 0x1572 SWAP2 SWAP1 PUSH2 0x4736 JUMP JUMPDEST LT ISZERO PUSH2 0x15B3 JUMPI PUSH1 0x40 MLOAD PUSH32 0x8C379A000000000000000000000000000000000000000000000000000000000 DUP2 MSTORE PUSH1 0x4 ADD PUSH2 0x15AA SWAP1 PUSH2 0x47D1 JUMP JUMPDEST PUSH1 0x40 MLOAD DUP1 SWAP2 SUB SWAP1 REVERT JUMPDEST DUP4 PUSH0 DUP1 SLOAD SWAP1 PUSH2 0x100 EXP SWAP1 DIV PUSH20 0xFFFFFFFFFFFFFFFFFFFFFFFFFFFFFFFFFFFFFFFF AND PUSH20 0xFFFFFFFFFFFFFFFFFFFFFFFFFFFFFFFFFFFFFFFF AND PUSH4 0x46352B58 DUP8 PUSH1 0x40 MLOAD DUP3 PUSH4 0xFFFFFFFF AND PUSH1 0xE0 SHL DUP2 MSTORE PUSH1 0x4 ADD PUSH2 0x160C SWAP2 SWAP1 PUSH2 0x3F01 JUMP JUMPDEST PUSH1 0x20 PUSH1 0x40 MLOAD DUP1 DUP4 SUB DUP2 DUP7 GAS STATICCALL ISZERO DUP1 ISZERO PUSH2 0x1627 JUMPI RETURNDATASIZE PUSH0 DUP1 RETURNDATACOPY RETURNDATASIZE PUSH0 REVERT JUMPDEST POP POP POP POP PUSH1 0x40 MLOAD RETURNDATASIZE PUSH1 0x1F NOT PUSH1 0x1F DUP3 ADD AND DUP3 ADD DUP1 PUSH1 0x40 MSTORE POP DUP2 ADD SWAP1 PUSH2 0x164B SWAP2 SWAP1 PUSH2 0x4736 JUMP JUMPDEST LT ISZERO PUSH2 0x168C JUMPI PUSH1 0x40 MLOAD PUSH32 0x8C379A000000000000000000000000000000000000000000000000000000000 DUP2 MSTORE PUSH1 0x4 ADD PUSH2 0x1683 SWAP1 PUSH2 0x485F JUMP JUMPDEST PUSH1 0x40 MLOAD DUP1 SWAP2 SUB SWAP1 REVERT JUMPDEST PUSH2 0x1844 JUMP JUMPDEST DUP4 PUSH0 DUP1 SLOAD SWAP1 PUSH2 0x100 EXP SWAP1 DIV PUSH20 0xFFFFFFFFFFFFFFFFFFFFFFFFFFFFFFFFFFFFFFFF AND PUSH20 0xFFFFFFFFFFFFFFFFFFFFFFFFFFFFFFFFFFFFFFFF AND PUSH4 0x46352B58 DUP9 PUSH1 0x40 MLOAD DUP3 PUSH4 0xFFFFFFFF AND PUSH1 0xE0 SHL DUP2 MSTORE PUSH1 0x4 ADD PUSH2 0x16EA SWAP2 SWAP1 PUSH2 0x3F01 JUMP JUMPDEST PUSH1 0x20 PUSH1 0x40 MLOAD DUP1 DUP4 SUB DUP2 DUP7 GAS STATICCALL ISZERO DUP1 ISZERO PUSH2 0x1705 JUMPI RETURNDATASIZE PUSH0 DUP1 RETURNDATACOPY RETURNDATASIZE PUSH0 REVERT JUMPDEST POP POP POP POP PUSH1 0x40 MLOAD RETURNDATASIZE PUSH1 0x1F NOT PUSH1 0x1F DUP3 ADD AND DUP3 ADD DUP1 PUSH1 0x40 MSTORE POP DUP2 ADD SWAP1 PUSH2 0x1729 SWAP2 SWAP1 PUSH2 0x4736 JUMP JUMPDEST LT ISZERO PUSH2 0x176A JUMPI PUSH1 0x40 MLOAD PUSH32 0x8C379A000000000000000000000000000000000000000000000000000000000 DUP2 MSTORE PUSH1 0x4 ADD PUSH2 0x1761 SWAP1 PUSH2 0x48ED JUMP JUMPDEST PUSH1 0x40 MLOAD DUP1 SWAP2 SUB SWAP1 REVERT JUMPDEST DUP3 PUSH0 DUP1 SLOAD SWAP1 PUSH2 0x100 EXP SWAP1 DIV PUSH20 0xFFFFFFFFFFFFFFFFFFFFFFFFFFFFFFFFFFFFFFFF AND PUSH20 0xFFFFFFFFFFFFFFFFFFFFFFFFFFFFFFFFFFFFFFFF AND PUSH4 0x3AECD0E3 DUP8 PUSH1 0x40 MLOAD DUP3 PUSH4 0xFFFFFFFF AND PUSH1 0xE0 SHL DUP2 MSTORE PUSH1 0x4 ADD PUSH2 0x17C3 SWAP2 SWAP1 PUSH2 0x3F01 JUMP JUMPDEST PUSH1 0x20 PUSH1 0x40 MLOAD DUP1 DUP4 SUB DUP2 DUP7 GAS STATICCALL ISZERO DUP1 ISZERO PUSH2 0x17DE JUMPI RETURNDATASIZE PUSH0 DUP1 RETURNDATACOPY RETURNDATASIZE PUSH0 REVERT JUMPDEST POP POP POP POP PUSH1 0x40 MLOAD RETURNDATASIZE PUSH1 0x1F NOT PUSH1 0x1F DUP3 ADD AND DUP3 ADD DUP1 PUSH1 0x40 MSTORE POP DUP2 ADD SWAP1 PUSH2 0x1802 SWAP2 SWAP1 PUSH2 0x4736 JUMP JUMPDEST LT ISZERO PUSH2 0x1843 JUMPI PUSH1 0x40 MLOAD PUSH32 0x8C379A000000000000000000000000000000000000000000000000000000000 DUP2 MSTORE PUSH1 0x4 ADD PUSH2 0x183A SWAP1 PUSH2 0x497B JUMP JUMPDEST PUSH1 0x40 MLOAD DUP1 SWAP2 SUB SWAP1 REVERT JUMPDEST JUMPDEST PUSH0 PUSH1 0x2 PUSH0 DUP2 SLOAD DUP1 SWAP3 SWAP2 SWAP1 PUSH2 0x1857 SWAP1 PUSH2 0x3F74 JUMP JUMPDEST SWAP2 SWAP1 POP SSTORE SWAP1 POP PUSH1 0x40 MLOAD DUP1 PUSH2 0x140 ADD PUSH1 0x40 MSTORE DUP1 DUP3 DUP2 MSTORE PUSH1 0x20 ADD DUP9 PUSH20 0xFFFFFFFFFFFFFFFFFFFFFFFFFFFFFFFFFFFFFFFF AND DUP2 MSTORE PUSH1 0x20 ADD DUP8 PUSH20 0xFFFFFFFFFFFFFFFFFFFFFFFFFFFFFFFFFFFFFFFF AND DUP2 MSTORE PUSH1 0x20 ADD DUP7 DUP2 MSTORE PUSH1 0x20 ADD DUP6 DUP2 MSTORE PUSH1 0x20 ADD DUP5 DUP2 MSTORE PUSH1 0x20 ADD PUSH0 ISZERO ISZERO DUP2 MSTORE PUSH1 0x20 ADD PUSH1 0x40 MLOAD DUP1 PUSH1 0x40 ADD PUSH1 0x40 MSTORE DUP1 PUSH1 0x7 DUP2 MSTORE PUSH1 0x20 ADD PUSH32 0x50656E64696E6700000000000000000000000000000000000000000000000000 DUP2 MSTORE POP DUP2 MSTORE PUSH1 0x20 ADD TIMESTAMP DUP2 MSTORE PUSH1 0x20 ADD DUP4 PUSH2 0x190E JUMPI PUSH1 0x1 PUSH2 0x1910 JUMP JUMPDEST PUSH0 JUMPDEST PUSH1 0x1 DUP2 GT ISZERO PUSH2 0x1922 JUMPI PUSH2 0x1921 PUSH2 0x3BC5 JUMP JUMPDEST JUMPDEST DUP2 MSTORE POP PUSH1 0x3 PUSH0 DUP4 DUP2 MSTORE PUSH1 0x20 ADD SWAP1 DUP2 MSTORE PUSH1 0x20 ADD PUSH0 KECCAK256 PUSH0 DUP3 ADD MLOAD DUP2 PUSH0 ADD SSTORE PUSH1 0x20 DUP3 ADD MLOAD DUP2 PUSH1 0x1 ADD PUSH0 PUSH2 0x100 EXP DUP2 SLOAD DUP2 PUSH20 0xFFFFFFFFFFFFFFFFFFFFFFFFFFFFFFFFFFFFFFFF MUL NOT AND SWAP1 DUP4 PUSH20 0xFFFFFFFFFFFFFFFFFFFFFFFFFFFFFFFFFFFFFFFF AND MUL OR SWAP1 SSTORE POP PUSH1 0x40 DUP3 ADD MLOAD DUP2 PUSH1 0x2 ADD PUSH0 PUSH2 0x100 EXP DUP2 SLOAD DUP2 PUSH20 0xFFFFFFFFFFFFFFFFFFFFFFFFFFFFFFFFFFFFFFFF MUL NOT AND SWAP1 DUP4 PUSH20 0xFFFFFFFFFFFFFFFFFFFFFFFFFFFFFFFFFFFFFFFF AND MUL OR SWAP1 SSTORE POP PUSH1 0x60 DUP3 ADD MLOAD DUP2 PUSH1 0x3 ADD SSTORE PUSH1 0x80 DUP3 ADD MLOAD DUP2 PUSH1 0x4 ADD SSTORE PUSH1 0xA0 DUP3 ADD MLOAD DUP2 PUSH1 0x5 ADD SSTORE PUSH1 0xC0 DUP3 ADD MLOAD DUP2 PUSH1 0x6 ADD PUSH0 PUSH2 0x100 EXP DUP2 SLOAD DUP2 PUSH1 0xFF MUL NOT AND SWAP1 DUP4 ISZERO ISZERO MUL OR SWAP1 SSTORE POP PUSH1 0xE0 DUP3 ADD MLOAD DUP2 PUSH1 0x7 ADD SWAP1 DUP2 PUSH2 0x1A1C SWAP2 SWAP1 PUSH2 0x427C JUMP JUMPDEST POP PUSH2 0x100 DUP3 ADD MLOAD DUP2 PUSH1 0x8 ADD SSTORE PUSH2 0x120 DUP3 ADD MLOAD DUP2 PUSH1 0x9 ADD PUSH0 PUSH2 0x100 EXP DUP2 SLOAD DUP2 PUSH1 0xFF MUL NOT AND SWAP1 DUP4 PUSH1 0x1 DUP2 GT ISZERO PUSH2 0x1A53 JUMPI PUSH2 0x1A52 PUSH2 0x3BC5 JUMP JUMPDEST JUMPDEST MUL OR SWAP1 SSTORE POP SWAP1 POP POP PUSH1 0x4 DUP2 SWAP1 DUP1 PUSH1 0x1 DUP2 SLOAD ADD DUP1 DUP3 SSTORE DUP1 SWAP2 POP POP PUSH1 0x1 SWAP1 SUB SWAP1 PUSH0 MSTORE PUSH1 0x20 PUSH0 KECCAK256 ADD PUSH0 SWAP1 SWAP2 SWAP1 SWAP2 SWAP1 SWAP2 POP SSTORE PUSH32 0x6F2FAC3F769ED900EB9891A73CAA7B5267CE788A20299805CE4B85934CB200F5 DUP2 DUP8 DUP5 PUSH2 0x1AB0 JUMPI PUSH1 0x1 PUSH2 0x1AB2 JUMP JUMPDEST PUSH0 JUMPDEST PUSH1 0x40 MLOAD PUSH2 0x1AC1 SWAP4 SWAP3 SWAP2 SWAP1 PUSH2 0x4999 JUMP JUMPDEST PUSH1 0x40 MLOAD DUP1 SWAP2 SUB SWAP1 LOG1 POP POP POP POP POP POP POP JUMP JUMPDEST PUSH1 0x60 PUSH0 PUSH1 0x1 PUSH1 0x2 SLOAD PUSH2 0x1AE4 SWAP2 SWAP1 PUSH2 0x49CE JUMP JUMPDEST PUSH8 0xFFFFFFFFFFFFFFFF DUP2 GT ISZERO PUSH2 0x1AFD JUMPI PUSH2 0x1AFC PUSH2 0x39BB JUMP JUMPDEST JUMPDEST PUSH1 0x40 MLOAD SWAP1 DUP1 DUP3 MSTORE DUP1 PUSH1 0x20 MUL PUSH1 0x20 ADD DUP3 ADD PUSH1 0x40 MSTORE DUP1 ISZERO PUSH2 0x1B2B JUMPI DUP2 PUSH1 0x20 ADD PUSH1 0x20 DUP3 MUL DUP1 CALLDATASIZE DUP4 CALLDATACOPY DUP1 DUP3 ADD SWAP2 POP POP SWAP1 POP JUMPDEST POP SWAP1 POP PUSH0 DUP1 PUSH1 0x1 SWAP1 POP JUMPDEST PUSH1 0x2 SLOAD DUP2 LT ISZERO PUSH2 0x1C4B JUMPI DUP5 PUSH20 0xFFFFFFFFFFFFFFFFFFFFFFFFFFFFFFFFFFFFFFFF AND PUSH1 0x3 PUSH0 DUP4 DUP2 MSTORE PUSH1 0x20 ADD SWAP1 DUP2 MSTORE PUSH1 0x20 ADD PUSH0 KECCAK256 PUSH1 0x1 ADD PUSH0 SWAP1 SLOAD SWAP1 PUSH2 0x100 EXP SWAP1 DIV PUSH20 0xFFFFFFFFFFFFFFFFFFFFFFFFFFFFFFFFFFFFFFFF AND PUSH20 0xFFFFFFFFFFFFFFFFFFFFFFFFFFFFFFFFFFFFFFFF AND EQ DUP1 PUSH2 0x1C0A JUMPI POP DUP5 PUSH20 0xFFFFFFFFFFFFFFFFFFFFFFFFFFFFFFFFFFFFFFFF AND PUSH1 0x3 PUSH0 DUP4 DUP2 MSTORE PUSH1 0x20 ADD SWAP1 DUP2 MSTORE PUSH1 0x20 ADD PUSH0 KECCAK256 PUSH1 0x2 ADD PUSH0 SWAP1 SLOAD SWAP1 PUSH2 0x100 EXP SWAP1 DIV PUSH20 0xFFFFFFFFFFFFFFFFFFFFFFFFFFFFFFFFFFFFFFFF AND PUSH20 0xFFFFFFFFFFFFFFFFFFFFFFFFFFFFFFFFFFFFFFFF AND EQ JUMPDEST ISZERO PUSH2 0x1C3E JUMPI DUP1 DUP4 DUP4 DUP2 MLOAD DUP2 LT PUSH2 0x1C23 JUMPI PUSH2 0x1C22 PUSH2 0x3F1A JUMP JUMPDEST JUMPDEST PUSH1 0x20 MUL PUSH1 0x20 ADD ADD DUP2 DUP2 MSTORE POP POP DUP2 DUP1 PUSH2 0x1C3A SWAP1 PUSH2 0x3F74 JUMP JUMPDEST SWAP3 POP POP JUMPDEST DUP1 DUP1 PUSH1 0x1 ADD SWAP2 POP POP PUSH2 0x1B35 JUMP JUMPDEST POP PUSH0 DUP2 PUSH8 0xFFFFFFFFFFFFFFFF DUP2 GT ISZERO PUSH2 0x1C67 JUMPI PUSH2 0x1C66 PUSH2 0x39BB JUMP JUMPDEST JUMPDEST PUSH1 0x40 MLOAD SWAP1 DUP1 DUP3 MSTORE DUP1 PUSH1 0x20 MUL PUSH1 0x20 ADD DUP3 ADD PUSH1 0x40 MSTORE DUP1 ISZERO PUSH2 0x1C95 JUMPI DUP2 PUSH1 0x20 ADD PUSH1 0x20 DUP3 MUL DUP1 CALLDATASIZE DUP4 CALLDATACOPY DUP1 DUP3 ADD SWAP2 POP POP SWAP1 POP JUMPDEST POP SWAP1 POP PUSH0 JUMPDEST DUP3 DUP2 LT ISZERO PUSH2 0x1CE9 JUMPI DUP4 DUP2 DUP2 MLOAD DUP2 LT PUSH2 0x1CB5 JUMPI PUSH2 0x1CB4 PUSH2 0x3F1A JUMP JUMPDEST JUMPDEST PUSH1 0x20 MUL PUSH1 0x20 ADD ADD MLOAD DUP3 DUP3 DUP2 MLOAD DUP2 LT PUSH2 0x1CD0 JUMPI PUSH2 0x1CCF PUSH2 0x3F1A JUMP JUMPDEST JUMPDEST PUSH1 0x20 MUL PUSH1 0x20 ADD ADD DUP2 DUP2 MSTORE POP POP DUP1 DUP1 PUSH1 0x1 ADD SWAP2 POP POP PUSH2 0x1C9A JUMP JUMPDEST POP DUP1 SWAP4 POP POP POP POP SWAP2 SWAP1 POP JUMP JUMPDEST PUSH1 0x60 PUSH0 PUSH1 0x5 DUP1 SLOAD SWAP1 POP PUSH8 0xFFFFFFFFFFFFFFFF DUP2 GT ISZERO PUSH2 0x1D17 JUMPI PUSH2 0x1D16 PUSH2 0x39BB JUMP JUMPDEST JUMPDEST PUSH1 0x40 MLOAD SWAP1 DUP1 DUP3 MSTORE DUP1 PUSH1 0x20 MUL PUSH1 0x20 ADD DUP3 ADD PUSH1 0x40 MSTORE DUP1 ISZERO PUSH2 0x1D45 JUMPI DUP2 PUSH1 0x20 ADD PUSH1 0x20 DUP3 MUL DUP1 CALLDATASIZE DUP4 CALLDATACOPY DUP1 DUP3 ADD SWAP2 POP POP SWAP1 POP JUMPDEST POP SWAP1 POP PUSH0 DUP1 JUMPDEST PUSH1 0x5 DUP1 SLOAD SWAP1 POP DUP2 LT ISZERO PUSH2 0x1E91 JUMPI PUSH0 PUSH1 0x3 PUSH0 PUSH1 0x5 DUP5 DUP2 SLOAD DUP2 LT PUSH2 0x1D70 JUMPI PUSH2 0x1D6F PUSH2 0x3F1A JUMP JUMPDEST JUMPDEST SWAP1 PUSH0 MSTORE PUSH1 0x20 PUSH0 KECCAK256 ADD SLOAD DUP2 MSTORE PUSH1 0x20 ADD SWAP1 DUP2 MSTORE PUSH1 0x20 ADD PUSH0 KECCAK256 SWAP1 POP DUP6 PUSH20 0xFFFFFFFFFFFFFFFFFFFFFFFFFFFFFFFFFFFFFFFF AND DUP2 PUSH1 0x1 ADD PUSH0 SWAP1 SLOAD SWAP1 PUSH2 0x100 EXP SWAP1 DIV PUSH20 0xFFFFFFFFFFFFFFFFFFFFFFFFFFFFFFFFFFFFFFFF AND PUSH20 0xFFFFFFFFFFFFFFFFFFFFFFFFFFFFFFFFFFFFFFFF AND EQ DUP1 PUSH2 0x1E33 JUMPI POP DUP6 PUSH20 0xFFFFFFFFFFFFFFFFFFFFFFFFFFFFFFFFFFFFFFFF AND DUP2 PUSH1 0x2 ADD PUSH0 SWAP1 SLOAD SWAP1 PUSH2 0x100 EXP SWAP1 DIV PUSH20 0xFFFFFFFFFFFFFFFFFFFFFFFFFFFFFFFFFFFFFFFF AND PUSH20 0xFFFFFFFFFFFFFFFFFFFFFFFFFFFFFFFFFFFFFFFF AND EQ JUMPDEST ISZERO PUSH2 0x1E83 JUMPI PUSH1 0x5 DUP3 DUP2 SLOAD DUP2 LT PUSH2 0x1E4C JUMPI PUSH2 0x1E4B PUSH2 0x3F1A JUMP JUMPDEST JUMPDEST SWAP1 PUSH0 MSTORE PUSH1 0x20 PUSH0 KECCAK256 ADD SLOAD DUP5 DUP5 DUP2 MLOAD DUP2 LT PUSH2 0x1E68 JUMPI PUSH2 0x1E67 PUSH2 0x3F1A JUMP JUMPDEST JUMPDEST PUSH1 0x20 MUL PUSH1 0x20 ADD ADD DUP2 DUP2 MSTORE POP POP DUP3 DUP1 PUSH2 0x1E7F SWAP1 PUSH2 0x3F74 JUMP JUMPDEST SWAP4 POP POP JUMPDEST POP DUP1 DUP1 PUSH1 0x1 ADD SWAP2 POP POP PUSH2 0x1D4B JUMP JUMPDEST POP PUSH0 DUP2 PUSH8 0xFFFFFFFFFFFFFFFF DUP2 GT ISZERO PUSH2 0x1EAD JUMPI PUSH2 0x1EAC PUSH2 0x39BB JUMP JUMPDEST JUMPDEST PUSH1 0x40 MLOAD SWAP1 DUP1 DUP3 MSTORE DUP1 PUSH1 0x20 MUL PUSH1 0x20 ADD DUP3 ADD PUSH1 0x40 MSTORE DUP1 ISZERO PUSH2 0x1EDB JUMPI DUP2 PUSH1 0x20 ADD PUSH1 0x20 DUP3 MUL DUP1 CALLDATASIZE DUP4 CALLDATACOPY DUP1 DUP3 ADD SWAP2 POP POP SWAP1 POP JUMPDEST POP SWAP1 POP PUSH0 JUMPDEST DUP3 DUP2 LT ISZERO PUSH2 0x1F2F JUMPI DUP4 DUP2 DUP2 MLOAD DUP2 LT PUSH2 0x1EFB JUMPI PUSH2 0x1EFA PUSH2 0x3F1A JUMP JUMPDEST JUMPDEST PUSH1 0x20 MUL PUSH1 0x20 ADD ADD MLOAD DUP3 DUP3 DUP2 MLOAD DUP2 LT PUSH2 0x1F16 JUMPI PUSH2 0x1F15 PUSH2 0x3F1A JUMP JUMPDEST JUMPDEST PUSH1 0x20 MUL PUSH1 0x20 ADD ADD DUP2 DUP2 MSTORE POP POP DUP1 DUP1 PUSH1 0x1 ADD SWAP2 POP POP PUSH2 0x1EE0 JUMP JUMPDEST POP DUP1 SWAP4 POP POP POP POP SWAP2 SWAP1 POP JUMP JUMPDEST PUSH0 DUP1 SLOAD SWAP1 PUSH2 0x100 EXP SWAP1 DIV PUSH20 0xFFFFFFFFFFFFFFFFFFFFFFFFFFFFFFFFFFFFFFFF AND DUP2 JUMP JUMPDEST PUSH1 0x4 DUP2 DUP2 SLOAD DUP2 LT PUSH2 0x1F6D JUMPI PUSH0 DUP1 REVERT JUMPDEST SWAP1 PUSH0 MSTORE PUSH1 0x20 PUSH0 KECCAK256 ADD PUSH0 SWAP2 POP SWAP1 POP SLOAD DUP2 JUMP JUMPDEST PUSH1 0x60 PUSH0 DUP1 DUP1 PUSH0 SWAP1 SLOAD SWAP1 PUSH2 0x100 EXP SWAP1 DIV PUSH20 0xFFFFFFFFFFFFFFFFFFFFFFFFFFFFFFFFFFFFFFFF AND PUSH20 0xFFFFFFFFFFFFFFFFFFFFFFFFFFFFFFFFFFFFFFFF AND PUSH4 0xA591EFDE PUSH1 0x40 MLOAD DUP2 PUSH4 0xFFFFFFFF AND PUSH1 0xE0 SHL DUP2 MSTORE PUSH1 0x4 ADD PUSH0 PUSH1 0x40 MLOAD DUP1 DUP4 SUB DUP2 DUP7 GAS STATICCALL ISZERO DUP1 ISZERO PUSH2 0x1FEA JUMPI RETURNDATASIZE PUSH0 DUP1 RETURNDATACOPY RETURNDATASIZE PUSH0 REVERT JUMPDEST POP POP POP POP PUSH1 0x40 MLOAD RETURNDATASIZE PUSH0 DUP3 RETURNDATACOPY RETURNDATASIZE PUSH1 0x1F NOT PUSH1 0x1F DUP3 ADD AND DUP3 ADD DUP1 PUSH1 0x40 MSTORE POP DUP2 ADD SWAP1 PUSH2 0x2012 SWAP2 SWAP1 PUSH2 0x4AD9 JUMP JUMPDEST SWAP1 POP PUSH0 JUMPDEST DUP2 MLOAD DUP2 LT ISZERO PUSH2 0x21B5 JUMPI PUSH0 PUSH1 0x6 PUSH0 DUP5 DUP5 DUP2 MLOAD DUP2 LT PUSH2 0x2036 JUMPI PUSH2 0x2035 PUSH2 0x3F1A JUMP JUMPDEST JUMPDEST PUSH1 0x20 MUL PUSH1 0x20 ADD ADD MLOAD PUSH20 0xFFFFFFFFFFFFFFFFFFFFFFFFFFFFFFFFFFFFFFFF AND PUSH20 0xFFFFFFFFFFFFFFFFFFFFFFFFFFFFFFFFFFFFFFFF AND DUP2 MSTORE PUSH1 0x20 ADD SWAP1 DUP2 MSTORE PUSH1 0x20 ADD PUSH0 KECCAK256 PUSH1 0x40 MLOAD DUP1 PUSH1 0xA0 ADD PUSH1 0x40 MSTORE SWAP1 DUP2 PUSH0 DUP3 ADD PUSH0 SWAP1 SLOAD SWAP1 PUSH2 0x100 EXP SWAP1 DIV PUSH20 0xFFFFFFFFFFFFFFFFFFFFFFFFFFFFFFFFFFFFFFFF AND PUSH20 0xFFFFFFFFFFFFFFFFFFFFFFFFFFFFFFFFFFFFFFFF AND PUSH20 0xFFFFFFFFFFFFFFFFFFFFFFFFFFFFFFFFFFFFFFFF AND DUP2 MSTORE PUSH1 0x20 ADD PUSH1 0x1 DUP3 ADD DUP1 SLOAD PUSH2 0x20E6 SWAP1 PUSH2 0x40B8 JUMP JUMPDEST DUP1 PUSH1 0x1F ADD PUSH1 0x20 DUP1 SWAP2 DIV MUL PUSH1 0x20 ADD PUSH1 0x40 MLOAD SWAP1 DUP2 ADD PUSH1 0x40 MSTORE DUP1 SWAP3 SWAP2 SWAP1 DUP2 DUP2 MSTORE PUSH1 0x20 ADD DUP3 DUP1 SLOAD PUSH2 0x2112 SWAP1 PUSH2 0x40B8 JUMP JUMPDEST DUP1 ISZERO PUSH2 0x215D JUMPI DUP1 PUSH1 0x1F LT PUSH2 0x2134 JUMPI PUSH2 0x100 DUP1 DUP4 SLOAD DIV MUL DUP4 MSTORE SWAP2 PUSH1 0x20 ADD SWAP2 PUSH2 0x215D JUMP JUMPDEST DUP3 ADD SWAP2 SWAP1 PUSH0 MSTORE PUSH1 0x20 PUSH0 KECCAK256 SWAP1 JUMPDEST DUP2 SLOAD DUP2 MSTORE SWAP1 PUSH1 0x1 ADD SWAP1 PUSH1 0x20 ADD DUP1 DUP4 GT PUSH2 0x2140 JUMPI DUP3 SWAP1 SUB PUSH1 0x1F AND DUP3 ADD SWAP2 JUMPDEST POP POP POP POP POP DUP2 MSTORE PUSH1 0x20 ADD PUSH1 0x2 DUP3 ADD SLOAD DUP2 MSTORE PUSH1 0x20 ADD PUSH1 0x3 DUP3 ADD SLOAD DUP2 MSTORE PUSH1 0x20 ADD PUSH1 0x4 DUP3 ADD SLOAD DUP2 MSTORE POP POP SWAP1 POP PUSH2 0x2193 DUP2 PUSH1 0x20 ADD MLOAD PUSH2 0x31C4 JUMP JUMPDEST ISZERO PUSH2 0x21A7 JUMPI DUP4 DUP1 PUSH2 0x21A3 SWAP1 PUSH2 0x3F74 JUMP JUMPDEST SWAP5 POP POP JUMPDEST POP DUP1 DUP1 PUSH1 0x1 ADD SWAP2 POP POP PUSH2 0x2016 JUMP JUMPDEST POP PUSH0 DUP3 PUSH8 0xFFFFFFFFFFFFFFFF DUP2 GT ISZERO PUSH2 0x21D1 JUMPI PUSH2 0x21D0 PUSH2 0x39BB JUMP JUMPDEST JUMPDEST PUSH1 0x40 MLOAD SWAP1 DUP1 DUP3 MSTORE DUP1 PUSH1 0x20 MUL PUSH1 0x20 ADD DUP3 ADD PUSH1 0x40 MSTORE DUP1 ISZERO PUSH2 0x220A JUMPI DUP2 PUSH1 0x20 ADD JUMPDEST PUSH2 0x21F7 PUSH2 0x3268 JUMP JUMPDEST DUP2 MSTORE PUSH1 0x20 ADD SWAP1 PUSH1 0x1 SWAP1 SUB SWAP1 DUP2 PUSH2 0x21EF JUMPI SWAP1 POP JUMPDEST POP SWAP1 POP PUSH0 DUP1 JUMPDEST DUP4 MLOAD DUP2 LT ISZERO PUSH2 0x24EF JUMPI PUSH0 DUP5 DUP3 DUP2 MLOAD DUP2 LT PUSH2 0x222D JUMPI PUSH2 0x222C PUSH2 0x3F1A JUMP JUMPDEST JUMPDEST PUSH1 0x20 MUL PUSH1 0x20 ADD ADD MLOAD SWAP1 POP PUSH0 PUSH1 0x6 PUSH0 DUP4 PUSH20 0xFFFFFFFFFFFFFFFFFFFFFFFFFFFFFFFFFFFFFFFF AND PUSH20 0xFFFFFFFFFFFFFFFFFFFFFFFFFFFFFFFFFFFFFFFF AND DUP2 MSTORE PUSH1 0x20 ADD SWAP1 DUP2 MSTORE PUSH1 0x20 ADD PUSH0 KECCAK256 PUSH1 0x40 MLOAD DUP1 PUSH1 0xA0 ADD PUSH1 0x40 MSTORE SWAP1 DUP2 PUSH0 DUP3 ADD PUSH0 SWAP1 SLOAD SWAP1 PUSH2 0x100 EXP SWAP1 DIV PUSH20 0xFFFFFFFFFFFFFFFFFFFFFFFFFFFFFFFFFFFFFFFF AND PUSH20 0xFFFFFFFFFFFFFFFFFFFFFFFFFFFFFFFFFFFFFFFF AND PUSH20 0xFFFFFFFFFFFFFFFFFFFFFFFFFFFFFFFFFFFFFFFF AND DUP2 MSTORE PUSH1 0x20 ADD PUSH1 0x1 DUP3 ADD DUP1 SLOAD PUSH2 0x22E4 SWAP1 PUSH2 0x40B8 JUMP JUMPDEST DUP1 PUSH1 0x1F ADD PUSH1 0x20 DUP1 SWAP2 DIV MUL PUSH1 0x20 ADD PUSH1 0x40 MLOAD SWAP1 DUP2 ADD PUSH1 0x40 MSTORE DUP1 SWAP3 SWAP2 SWAP1 DUP2 DUP2 MSTORE PUSH1 0x20 ADD DUP3 DUP1 SLOAD PUSH2 0x2310 SWAP1 PUSH2 0x40B8 JUMP JUMPDEST DUP1 ISZERO PUSH2 0x235B JUMPI DUP1 PUSH1 0x1F LT PUSH2 0x2332 JUMPI PUSH2 0x100 DUP1 DUP4 SLOAD DIV MUL DUP4 MSTORE SWAP2 PUSH1 0x20 ADD SWAP2 PUSH2 0x235B JUMP JUMPDEST DUP3 ADD SWAP2 SWAP1 PUSH0 MSTORE PUSH1 0x20 PUSH0 KECCAK256 SWAP1 JUMPDEST DUP2 SLOAD DUP2 MSTORE SWAP1 PUSH1 0x1 ADD SWAP1 PUSH1 0x20 ADD DUP1 DUP4 GT PUSH2 0x233E JUMPI DUP3 SWAP1 SUB PUSH1 0x1F AND DUP3 ADD SWAP2 JUMPDEST POP POP POP POP POP DUP2 MSTORE PUSH1 0x20 ADD PUSH1 0x2 DUP3 ADD SLOAD DUP2 MSTORE PUSH1 0x20 ADD PUSH1 0x3 DUP3 ADD SLOAD DUP2 MSTORE PUSH1 0x20 ADD PUSH1 0x4 DUP3 ADD SLOAD DUP2 MSTORE POP POP SWAP1 POP PUSH2 0x2391 DUP2 PUSH1 0x20 ADD MLOAD PUSH2 0x31C4 JUMP JUMPDEST ISZERO PUSH2 0x24E0 JUMPI PUSH0 DUP1 PUSH0 DUP1 PUSH0 DUP1 PUSH0 SWAP1 SLOAD SWAP1 PUSH2 0x100 EXP SWAP1 DIV PUSH20 0xFFFFFFFFFFFFFFFFFFFFFFFFFFFFFFFFFFFFFFFF AND PUSH20 0xFFFFFFFFFFFFFFFFFFFFFFFFFFFFFFFFFFFFFFFF AND PUSH4 0x3B605047 DUP9 PUSH1 0x40 MLOAD DUP3 PUSH4 0xFFFFFFFF AND PUSH1 0xE0 SHL DUP2 MSTORE PUSH1 0x4 ADD PUSH2 0x23F4 SWAP2 SWAP1 PUSH2 0x3F01 JUMP JUMPDEST PUSH0 PUSH1 0x40 MLOAD DUP1 DUP4 SUB DUP2 DUP7 GAS STATICCALL ISZERO DUP1 ISZERO PUSH2 0x240E JUMPI RETURNDATASIZE PUSH0 DUP1 RETURNDATACOPY RETURNDATASIZE PUSH0 REVERT JUMPDEST POP POP POP POP PUSH1 0x40 MLOAD RETURNDATASIZE PUSH0 DUP3 RETURNDATACOPY RETURNDATASIZE PUSH1 0x1F NOT PUSH1 0x1F DUP3 ADD AND DUP3 ADD DUP1 PUSH1 0x40 MSTORE POP DUP2 ADD SWAP1 PUSH2 0x2436 SWAP2 SWAP1 PUSH2 0x4BB8 JUMP JUMPDEST POP SWAP6 POP SWAP6 POP SWAP6 POP SWAP6 POP SWAP6 POP POP PUSH1 0x40 MLOAD DUP1 PUSH2 0x140 ADD PUSH1 0x40 MSTORE DUP1 DUP9 PUSH20 0xFFFFFFFFFFFFFFFFFFFFFFFFFFFFFFFFFFFFFFFF AND DUP2 MSTORE PUSH1 0x20 ADD DUP7 DUP2 MSTORE PUSH1 0x20 ADD DUP6 DUP2 MSTORE PUSH1 0x20 ADD DUP3 DUP2 MSTORE PUSH1 0x20 ADD DUP5 DUP2 MSTORE PUSH1 0x20 ADD DUP4 DUP2 MSTORE PUSH1 0x20 ADD DUP8 PUSH1 0x20 ADD MLOAD DUP2 MSTORE PUSH1 0x20 ADD DUP8 PUSH1 0x40 ADD MLOAD DUP2 MSTORE PUSH1 0x20 ADD DUP8 PUSH1 0x60 ADD MLOAD DUP2 MSTORE PUSH1 0x20 ADD DUP8 PUSH1 0x80 ADD MLOAD DUP2 MSTORE POP DUP11 DUP11 DUP2 MLOAD DUP2 LT PUSH2 0x24C1 JUMPI PUSH2 0x24C0 PUSH2 0x3F1A JUMP JUMPDEST JUMPDEST PUSH1 0x20 MUL PUSH1 0x20 ADD ADD DUP2 SWAP1 MSTORE POP DUP9 DUP1 PUSH2 0x24D7 SWAP1 PUSH2 0x3F74 JUMP JUMPDEST SWAP10 POP POP POP POP POP POP POP JUMPDEST POP POP DUP1 DUP1 PUSH1 0x1 ADD SWAP2 POP POP PUSH2 0x2210 JUMP JUMPDEST POP DUP2 SWAP5 POP POP POP POP POP SWAP1 JUMP JUMPDEST PUSH0 DUP1 SLOAD SWAP1 PUSH2 0x100 EXP SWAP1 DIV PUSH20 0xFFFFFFFFFFFFFFFFFFFFFFFFFFFFFFFFFFFFFFFF AND PUSH20 0xFFFFFFFFFFFFFFFFFFFFFFFFFFFFFFFFFFFFFFFF AND PUSH4 0x163F7522 CALLER PUSH1 0x40 MLOAD DUP3 PUSH4 0xFFFFFFFF AND PUSH1 0xE0 SHL DUP2 MSTORE PUSH1 0x4 ADD PUSH2 0x2552 SWAP2 SWAP1 PUSH2 0x3F01 JUMP JUMPDEST PUSH1 0x20 PUSH1 0x40 MLOAD DUP1 DUP4 SUB DUP2 DUP7 GAS STATICCALL ISZERO DUP1 ISZERO PUSH2 0x256D JUMPI RETURNDATASIZE PUSH0 DUP1 RETURNDATACOPY RETURNDATASIZE PUSH0 REVERT JUMPDEST POP POP POP POP PUSH1 0x40 MLOAD RETURNDATASIZE PUSH1 0x1F NOT PUSH1 0x1F DUP3 ADD AND DUP3 ADD DUP1 PUSH1 0x40 MSTORE POP DUP2 ADD SWAP1 PUSH2 0x2591 SWAP2 SWAP1 PUSH2 0x450A JUMP JUMPDEST PUSH2 0x25D0 JUMPI PUSH1 0x40 MLOAD PUSH32 0x8C379A000000000000000000000000000000000000000000000000000000000 DUP2 MSTORE PUSH1 0x4 ADD PUSH2 0x25C7 SWAP1 PUSH2 0x457F JUMP JUMPDEST PUSH1 0x40 MLOAD DUP1 SWAP2 SUB SWAP1 REVERT JUMPDEST PUSH0 PUSH1 0x6 PUSH0 CALLER PUSH20 0xFFFFFFFFFFFFFFFFFFFFFFFFFFFFFFFFFFFFFFFF AND PUSH20 0xFFFFFFFFFFFFFFFFFFFFFFFFFFFFFFFFFFFFFFFF AND DUP2 MSTORE PUSH1 0x20 ADD SWAP1 DUP2 MSTORE PUSH1 0x20 ADD PUSH0 KECCAK256 SWAP1 POP DUP5 DUP2 PUSH1 0x1 ADD SWAP1 DUP2 PUSH2 0x2621 SWAP2 SWAP1 PUSH2 0x427C JUMP JUMPDEST POP DUP4 DUP2 PUSH1 0x4 ADD DUP2 SWAP1 SSTORE POP DUP3 DUP2 PUSH1 0x2 ADD DUP2 SWAP1 SSTORE POP DUP2 DUP2 PUSH1 0x3 ADD DUP2 SWAP1 SSTORE POP CALLER PUSH20 0xFFFFFFFFFFFFFFFFFFFFFFFFFFFFFFFFFFFFFFFF AND PUSH32 0xA6852B488E1A23121717A53448978003C88002512D4CDA6BAAB5A33D5BE103D9 DUP7 DUP7 DUP7 DUP7 PUSH1 0x40 MLOAD PUSH2 0x2689 SWAP5 SWAP4 SWAP3 SWAP2 SWAP1 PUSH2 0x4C71 JUMP JUMPDEST PUSH1 0x40 MLOAD DUP1 SWAP2 SUB SWAP1 LOG2 POP POP POP POP POP JUMP JUMPDEST PUSH1 0x3 PUSH1 0x20 MSTORE DUP1 PUSH0 MSTORE PUSH1 0x40 PUSH0 KECCAK256 PUSH0 SWAP2 POP SWAP1 POP DUP1 PUSH0 ADD SLOAD SWAP1 DUP1 PUSH1 0x1 ADD PUSH0 SWAP1 SLOAD SWAP1 PUSH2 0x100 EXP SWAP1 DIV PUSH20 0xFFFFFFFFFFFFFFFFFFFFFFFFFFFFFFFFFFFFFFFF AND SWAP1 DUP1 PUSH1 0x2 ADD PUSH0 SWAP1 SLOAD SWAP1 PUSH2 0x100 EXP SWAP1 DIV PUSH20 0xFFFFFFFFFFFFFFFFFFFFFFFFFFFFFFFFFFFFFFFF AND SWAP1 DUP1 PUSH1 0x3 ADD SLOAD SWAP1 DUP1 PUSH1 0x4 ADD SLOAD SWAP1 DUP1 PUSH1 0x5 ADD SLOAD SWAP1 DUP1 PUSH1 0x6 ADD PUSH0 SWAP1 SLOAD SWAP1 PUSH2 0x100 EXP SWAP1 DIV PUSH1 0xFF AND SWAP1 DUP1 PUSH1 0x7 ADD DUP1 SLOAD PUSH2 0x272B SWAP1 PUSH2 0x40B8 JUMP JUMPDEST DUP1 PUSH1 0x1F ADD PUSH1 0x20 DUP1 SWAP2 DIV MUL PUSH1 0x20 ADD PUSH1 0x40 MLOAD SWAP1 DUP2 ADD PUSH1 0x40 MSTORE DUP1 SWAP3 SWAP2 SWAP1 DUP2 DUP2 MSTORE PUSH1 0x20 ADD DUP3 DUP1 SLOAD PUSH2 0x2757 SWAP1 PUSH2 0x40B8 JUMP JUMPDEST DUP1 ISZERO PUSH2 0x27A2 JUMPI DUP1 PUSH1 0x1F LT PUSH2 0x2779 JUMPI PUSH2 0x100 DUP1 DUP4 SLOAD DIV MUL DUP4 MSTORE SWAP2 PUSH1 0x20 ADD SWAP2 PUSH2 0x27A2 JUMP JUMPDEST DUP3 ADD SWAP2 SWAP1 PUSH0 MSTORE PUSH1 0x20 PUSH0 KECCAK256 SWAP1 JUMPDEST DUP2 SLOAD DUP2 MSTORE SWAP1 PUSH1 0x1 ADD SWAP1 PUSH1 0x20 ADD DUP1 DUP4 GT PUSH2 0x2785 JUMPI DUP3 SWAP1 SUB PUSH1 0x1F AND DUP3 ADD SWAP2 JUMPDEST POP POP POP POP POP SWAP1 DUP1 PUSH1 0x8 ADD SLOAD SWAP1 DUP1 PUSH1 0x9 ADD PUSH0 SWAP1 SLOAD SWAP1 PUSH2 0x100 EXP SWAP1 DIV PUSH1 0xFF AND SWAP1 POP DUP11 JUMP JUMPDEST PUSH1 0x60 PUSH0 PUSH1 0x4 DUP1 SLOAD SWAP1 POP PUSH8 0xFFFFFFFFFFFFFFFF DUP2 GT ISZERO PUSH2 0x27E6 JUMPI PUSH2 0x27E5 PUSH2 0x39BB JUMP JUMPDEST JUMPDEST PUSH1 0x40 MLOAD SWAP1 DUP1 DUP3 MSTORE DUP1 PUSH1 0x20 MUL PUSH1 0x20 ADD DUP3 ADD PUSH1 0x40 MSTORE DUP1 ISZERO PUSH2 0x2814 JUMPI DUP2 PUSH1 0x20 ADD PUSH1 0x20 DUP3 MUL DUP1 CALLDATASIZE DUP4 CALLDATACOPY DUP1 DUP3 ADD SWAP2 POP POP SWAP1 POP JUMPDEST POP SWAP1 POP PUSH0 DUP1 JUMPDEST PUSH1 0x4 DUP1 SLOAD SWAP1 POP DUP2 LT ISZERO PUSH2 0x2987 JUMPI DUP5 PUSH20 0xFFFFFFFFFFFFFFFFFFFFFFFFFFFFFFFFFFFFFFFF AND PUSH1 0x3 PUSH0 PUSH1 0x4 DUP5 DUP2 SLOAD DUP2 LT PUSH2 0x2855 JUMPI PUSH2 0x2854 PUSH2 0x3F1A JUMP JUMPDEST JUMPDEST SWAP1 PUSH0 MSTORE PUSH1 0x20 PUSH0 KECCAK256 ADD SLOAD DUP2 MSTORE PUSH1 0x20 ADD SWAP1 DUP2 MSTORE PUSH1 0x20 ADD PUSH0 KECCAK256 PUSH1 0x1 ADD PUSH0 SWAP1 SLOAD SWAP1 PUSH2 0x100 EXP SWAP1 DIV PUSH20 0xFFFFFFFFFFFFFFFFFFFFFFFFFFFFFFFFFFFFFFFF AND PUSH20 0xFFFFFFFFFFFFFFFFFFFFFFFFFFFFFFFFFFFFFFFF AND EQ DUP1 PUSH2 0x292A JUMPI POP DUP5 PUSH20 0xFFFFFFFFFFFFFFFFFFFFFFFFFFFFFFFFFFFFFFFF AND PUSH1 0x3 PUSH0 PUSH1 0x4 DUP5 DUP2 SLOAD DUP2 LT PUSH2 0x28D9 JUMPI PUSH2 0x28D8 PUSH2 0x3F1A JUMP JUMPDEST JUMPDEST SWAP1 PUSH0 MSTORE PUSH1 0x20 PUSH0 KECCAK256 ADD SLOAD DUP2 MSTORE PUSH1 0x20 ADD SWAP1 DUP2 MSTORE PUSH1 0x20 ADD PUSH0 KECCAK256 PUSH1 0x2 ADD PUSH0 SWAP1 SLOAD SWAP1 PUSH2 0x100 EXP SWAP1 DIV PUSH20 0xFFFFFFFFFFFFFFFFFFFFFFFFFFFFFFFFFFFFFFFF AND PUSH20 0xFFFFFFFFFFFFFFFFFFFFFFFFFFFFFFFFFFFFFFFF AND EQ JUMPDEST ISZERO PUSH2 0x297A JUMPI PUSH1 0x4 DUP2 DUP2 SLOAD DUP2 LT PUSH2 0x2943 JUMPI PUSH2 0x2942 PUSH2 0x3F1A JUMP JUMPDEST JUMPDEST SWAP1 PUSH0 MSTORE PUSH1 0x20 PUSH0 KECCAK256 ADD SLOAD DUP4 DUP4 DUP2 MLOAD DUP2 LT PUSH2 0x295F JUMPI PUSH2 0x295E PUSH2 0x3F1A JUMP JUMPDEST JUMPDEST PUSH1 0x20 MUL PUSH1 0x20 ADD ADD DUP2 DUP2 MSTORE POP POP DUP2 DUP1 PUSH2 0x2976 SWAP1 PUSH2 0x3F74 JUMP JUMPDEST SWAP3 POP POP JUMPDEST DUP1 DUP1 PUSH1 0x1 ADD SWAP2 POP POP PUSH2 0x281A JUMP JUMPDEST POP PUSH0 DUP2 PUSH8 0xFFFFFFFFFFFFFFFF DUP2 GT ISZERO PUSH2 0x29A3 JUMPI PUSH2 0x29A2 PUSH2 0x39BB JUMP JUMPDEST JUMPDEST PUSH1 0x40 MLOAD SWAP1 DUP1 DUP3 MSTORE DUP1 PUSH1 0x20 MUL PUSH1 0x20 ADD DUP3 ADD PUSH1 0x40 MSTORE DUP1 ISZERO PUSH2 0x29D1 JUMPI DUP2 PUSH1 0x20 ADD PUSH1 0x20 DUP3 MUL DUP1 CALLDATASIZE DUP4 CALLDATACOPY DUP1 DUP3 ADD SWAP2 POP POP SWAP1 POP JUMPDEST POP SWAP1 POP PUSH0 JUMPDEST DUP3 DUP2 LT ISZERO PUSH2 0x2A25 JUMPI DUP4 DUP2 DUP2 MLOAD DUP2 LT PUSH2 0x29F1 JUMPI PUSH2 0x29F0 PUSH2 0x3F1A JUMP JUMPDEST JUMPDEST PUSH1 0x20 MUL PUSH1 0x20 ADD ADD MLOAD DUP3 DUP3 DUP2 MLOAD DUP2 LT PUSH2 0x2A0C JUMPI PUSH2 0x2A0B PUSH2 0x3F1A JUMP JUMPDEST JUMPDEST PUSH1 0x20 MUL PUSH1 0x20 ADD ADD DUP2 DUP2 MSTORE POP POP DUP1 DUP1 PUSH1 0x1 ADD SWAP2 POP POP PUSH2 0x29D6 JUMP JUMPDEST POP DUP1 SWAP4 POP POP POP POP SWAP2 SWAP1 POP JUMP JUMPDEST PUSH1 0x60 PUSH0 PUSH1 0x4 DUP1 SLOAD SWAP1 POP PUSH8 0xFFFFFFFFFFFFFFFF DUP2 GT ISZERO PUSH2 0x2A53 JUMPI PUSH2 0x2A52 PUSH2 0x39BB JUMP JUMPDEST JUMPDEST PUSH1 0x40 MLOAD SWAP1 DUP1 DUP3 MSTORE DUP1 PUSH1 0x20 MUL PUSH1 0x20 ADD DUP3 ADD PUSH1 0x40 MSTORE DUP1 ISZERO PUSH2 0x2A8C JUMPI DUP2 PUSH1 0x20 ADD JUMPDEST PUSH2 0x2A79 PUSH2 0x32C9 JUMP JUMPDEST DUP2 MSTORE PUSH1 0x20 ADD SWAP1 PUSH1 0x1 SWAP1 SUB SWAP1 DUP2 PUSH2 0x2A71 JUMPI SWAP1 POP JUMPDEST POP SWAP1 POP PUSH0 JUMPDEST PUSH1 0x4 DUP1 SLOAD SWAP1 POP DUP2 LT ISZERO PUSH2 0x2CC1 JUMPI PUSH1 0x3 PUSH0 PUSH1 0x4 DUP4 DUP2 SLOAD DUP2 LT PUSH2 0x2AB5 JUMPI PUSH2 0x2AB4 PUSH2 0x3F1A JUMP JUMPDEST JUMPDEST SWAP1 PUSH0 MSTORE PUSH1 0x20 PUSH0 KECCAK256 ADD SLOAD DUP2 MSTORE PUSH1 0x20 ADD SWAP1 DUP2 MSTORE PUSH1 0x20 ADD PUSH0 KECCAK256 PUSH1 0x40 MLOAD DUP1 PUSH2 0x140 ADD PUSH1 0x40 MSTORE SWAP1 DUP2 PUSH0 DUP3 ADD SLOAD DUP2 MSTORE PUSH1 0x20 ADD PUSH1 0x1 DUP3 ADD PUSH0 SWAP1 SLOAD SWAP1 PUSH2 0x100 EXP SWAP1 DIV PUSH20 0xFFFFFFFFFFFFFFFFFFFFFFFFFFFFFFFFFFFFFFFF AND PUSH20 0xFFFFFFFFFFFFFFFFFFFFFFFFFFFFFFFFFFFFFFFF AND PUSH20 0xFFFFFFFFFFFFFFFFFFFFFFFFFFFFFFFFFFFFFFFF AND DUP2 MSTORE PUSH1 0x20 ADD PUSH1 0x2 DUP3 ADD PUSH0 SWAP1 SLOAD SWAP1 PUSH2 0x100 EXP SWAP1 DIV PUSH20 0xFFFFFFFFFFFFFFFFFFFFFFFFFFFFFFFFFFFFFFFF AND PUSH20 0xFFFFFFFFFFFFFFFFFFFFFFFFFFFFFFFFFFFFFFFF AND PUSH20 0xFFFFFFFFFFFFFFFFFFFFFFFFFFFFFFFFFFFFFFFF AND DUP2 MSTORE PUSH1 0x20 ADD PUSH1 0x3 DUP3 ADD SLOAD DUP2 MSTORE PUSH1 0x20 ADD PUSH1 0x4 DUP3 ADD SLOAD DUP2 MSTORE PUSH1 0x20 ADD PUSH1 0x5 DUP3 ADD SLOAD DUP2 MSTORE PUSH1 0x20 ADD PUSH1 0x6 DUP3 ADD PUSH0 SWAP1 SLOAD SWAP1 PUSH2 0x100 EXP SWAP1 DIV PUSH1 0xFF AND ISZERO ISZERO ISZERO ISZERO DUP2 MSTORE PUSH1 0x20 ADD PUSH1 0x7 DUP3 ADD DUP1 SLOAD PUSH2 0x2BD2 SWAP1 PUSH2 0x40B8 JUMP JUMPDEST DUP1 PUSH1 0x1F ADD PUSH1 0x20 DUP1 SWAP2 DIV MUL PUSH1 0x20 ADD PUSH1 0x40 MLOAD SWAP1 DUP2 ADD PUSH1 0x40 MSTORE DUP1 SWAP3 SWAP2 SWAP1 DUP2 DUP2 MSTORE PUSH1 0x20 ADD DUP3 DUP1 SLOAD PUSH2 0x2BFE SWAP1 PUSH2 0x40B8 JUMP JUMPDEST DUP1 ISZERO PUSH2 0x2C49 JUMPI DUP1 PUSH1 0x1F LT PUSH2 0x2C20 JUMPI PUSH2 0x100 DUP1 DUP4 SLOAD DIV MUL DUP4 MSTORE SWAP2 PUSH1 0x20 ADD SWAP2 PUSH2 0x2C49 JUMP JUMPDEST DUP3 ADD SWAP2 SWAP1 PUSH0 MSTORE PUSH1 0x20 PUSH0 KECCAK256 SWAP1 JUMPDEST DUP2 SLOAD DUP2 MSTORE SWAP1 PUSH1 0x1 ADD SWAP1 PUSH1 0x20 ADD DUP1 DUP4 GT PUSH2 0x2C2C JUMPI DUP3 SWAP1 SUB PUSH1 0x1F AND DUP3 ADD SWAP2 JUMPDEST POP POP POP POP POP DUP2 MSTORE PUSH1 0x20 ADD PUSH1 0x8 DUP3 ADD SLOAD DUP2 MSTORE PUSH1 0x20 ADD PUSH1 0x9 DUP3 ADD PUSH0 SWAP1 SLOAD SWAP1 PUSH2 0x100 EXP SWAP1 DIV PUSH1 0xFF AND PUSH1 0x1 DUP2 GT ISZERO PUSH2 0x2C80 JUMPI PUSH2 0x2C7F PUSH2 0x3BC5 JUMP JUMPDEST JUMPDEST PUSH1 0x1 DUP2 GT ISZERO PUSH2 0x2C92 JUMPI PUSH2 0x2C91 PUSH2 0x3BC5 JUMP JUMPDEST JUMPDEST DUP2 MSTORE POP POP DUP3 DUP3 DUP2 MLOAD DUP2 LT PUSH2 0x2CA9 JUMPI PUSH2 0x2CA8 PUSH2 0x3F1A JUMP JUMPDEST JUMPDEST PUSH1 0x20 MUL PUSH1 0x20 ADD ADD DUP2 SWAP1 MSTORE POP DUP1 DUP1 PUSH1 0x1 ADD SWAP2 POP POP PUSH2 0x2A91 JUMP JUMPDEST POP DUP1 SWAP2 POP POP SWAP1 JUMP JUMPDEST PUSH1 0x60 PUSH0 PUSH1 0x5 DUP1 SLOAD SWAP1 POP PUSH8 0xFFFFFFFFFFFFFFFF DUP2 GT ISZERO PUSH2 0x2CEB JUMPI PUSH2 0x2CEA PUSH2 0x39BB JUMP JUMPDEST JUMPDEST PUSH1 0x40 MLOAD SWAP1 DUP1 DUP3 MSTORE DUP1 PUSH1 0x20 MUL PUSH1 0x20 ADD DUP3 ADD PUSH1 0x40 MSTORE DUP1 ISZERO PUSH2 0x2D24 JUMPI DUP2 PUSH1 0x20 ADD JUMPDEST PUSH2 0x2D11 PUSH2 0x32C9 JUMP JUMPDEST DUP2 MSTORE PUSH1 0x20 ADD SWAP1 PUSH1 0x1 SWAP1 SUB SWAP1 DUP2 PUSH2 0x2D09 JUMPI SWAP1 POP JUMPDEST POP SWAP1 POP PUSH0 JUMPDEST PUSH1 0x5 DUP1 SLOAD SWAP1 POP DUP2 LT ISZERO PUSH2 0x2F59 JUMPI PUSH1 0x3 PUSH0 PUSH1 0x5 DUP4 DUP2 SLOAD DUP2 LT PUSH2 0x2D4D JUMPI PUSH2 0x2D4C PUSH2 0x3F1A JUMP JUMPDEST JUMPDEST SWAP1 PUSH0 MSTORE PUSH1 0x20 PUSH0 KECCAK256 ADD SLOAD DUP2 MSTORE PUSH1 0x20 ADD SWAP1 DUP2 MSTORE PUSH1 0x20 ADD PUSH0 KECCAK256 PUSH1 0x40 MLOAD DUP1 PUSH2 0x140 ADD PUSH1 0x40 MSTORE SWAP1 DUP2 PUSH0 DUP3 ADD SLOAD DUP2 MSTORE PUSH1 0x20 ADD PUSH1 0x1 DUP3 ADD PUSH0 SWAP1 SLOAD SWAP1 PUSH2 0x100 EXP SWAP1 DIV PUSH20 0xFFFFFFFFFFFFFFFFFFFFFFFFFFFFFFFFFFFFFFFF AND PUSH20 0xFFFFFFFFFFFFFFFFFFFFFFFFFFFFFFFFFFFFFFFF AND PUSH20 0xFFFFFFFFFFFFFFFFFFFFFFFFFFFFFFFFFFFFFFFF AND DUP2 MSTORE PUSH1 0x20 ADD PUSH1 0x2 DUP3 ADD PUSH0 SWAP1 SLOAD SWAP1 PUSH2 0x100 EXP SWAP1 DIV PUSH20 0xFFFFFFFFFFFFFFFFFFFFFFFFFFFFFFFFFFFFFFFF AND PUSH20 0xFFFFFFFFFFFFFFFFFFFFFFFFFFFFFFFFFFFFFFFF AND PUSH20 0xFFFFFFFFFFFFFFFFFFFFFFFFFFFFFFFFFFFFFFFF AND DUP2 MSTORE PUSH1 0x20 ADD PUSH1 0x3 DUP3 ADD SLOAD DUP2 MSTORE PUSH1 0x20 ADD PUSH1 0x4 DUP3 ADD SLOAD DUP2 MSTORE PUSH1 0x20 ADD PUSH1 0x5 DUP3 ADD SLOAD DUP2 MSTORE PUSH1 0x20 ADD PUSH1 0x6 DUP3 ADD PUSH0 SWAP1 SLOAD SWAP1 PUSH2 0x100 EXP SWAP1 DIV PUSH1 0xFF AND ISZERO ISZERO ISZERO ISZERO DUP2 MSTORE PUSH1 0x20 ADD PUSH1 0x7 DUP3 ADD DUP1 SLOAD PUSH2 0x2E6A SWAP1 PUSH2 0x40B8 JUMP JUMPDEST DUP1 PUSH1 0x1F ADD PUSH1 0x20 DUP1 SWAP2 DIV MUL PUSH1 0x20 ADD PUSH1 0x40 MLOAD SWAP1 DUP2 ADD PUSH1 0x40 MSTORE DUP1 SWAP3 SWAP2 SWAP1 DUP2 DUP2 MSTORE PUSH1 0x20 ADD DUP3 DUP1 SLOAD PUSH2 0x2E96 SWAP1 PUSH2 0x40B8 JUMP JUMPDEST DUP1 ISZERO PUSH2 0x2EE1 JUMPI DUP1 PUSH1 0x1F LT PUSH2 0x2EB8 JUMPI PUSH2 0x100 DUP1 DUP4 SLOAD DIV MUL DUP4 MSTORE SWAP2 PUSH1 0x20 ADD SWAP2 PUSH2 0x2EE1 JUMP JUMPDEST DUP3 ADD SWAP2 SWAP1 PUSH0 MSTORE PUSH1 0x20 PUSH0 KECCAK256 SWAP1 JUMPDEST DUP2 SLOAD DUP2 MSTORE SWAP1 PUSH1 0x1 ADD SWAP1 PUSH1 0x20 ADD DUP1 DUP4 GT PUSH2 0x2EC4 JUMPI DUP3 SWAP1 SUB PUSH1 0x1F AND DUP3 ADD SWAP2 JUMPDEST POP POP POP POP POP DUP2 MSTORE PUSH1 0x20 ADD PUSH1 0x8 DUP3 ADD SLOAD DUP2 MSTORE PUSH1 0x20 ADD PUSH1 0x9 DUP3 ADD PUSH0 SWAP1 SLOAD SWAP1 PUSH2 0x100 EXP SWAP1 DIV PUSH1 0xFF AND PUSH1 0x1 DUP2 GT ISZERO PUSH2 0x2F18 JUMPI PUSH2 0x2F17 PUSH2 0x3BC5 JUMP JUMPDEST JUMPDEST PUSH1 0x1 DUP2 GT ISZERO PUSH2 0x2F2A JUMPI PUSH2 0x2F29 PUSH2 0x3BC5 JUMP JUMPDEST JUMPDEST DUP2 MSTORE POP POP DUP3 DUP3 DUP2 MLOAD DUP2 LT PUSH2 0x2F41 JUMPI PUSH2 0x2F40 PUSH2 0x3F1A JUMP JUMPDEST JUMPDEST PUSH1 0x20 MUL PUSH1 0x20 ADD ADD DUP2 SWAP1 MSTORE POP DUP1 DUP1 PUSH1 0x1 ADD SWAP2 POP POP PUSH2 0x2D29 JUMP JUMPDEST POP DUP1 SWAP2 POP POP SWAP1 JUMP JUMPDEST PUSH0 PUSH1 0x4 DUP1 SLOAD SWAP1 POP SWAP1 POP SWAP1 JUMP JUMPDEST PUSH1 0x6 PUSH1 0x20 MSTORE DUP1 PUSH0 MSTORE PUSH1 0x40 PUSH0 KECCAK256 PUSH0 SWAP2 POP SWAP1 POP DUP1 PUSH0 ADD PUSH0 SWAP1 SLOAD SWAP1 PUSH2 0x100 EXP SWAP1 DIV PUSH20 0xFFFFFFFFFFFFFFFFFFFFFFFFFFFFFFFFFFFFFFFF AND SWAP1 DUP1 PUSH1 0x1 ADD DUP1 SLOAD PUSH2 0x2FB1 SWAP1 PUSH2 0x40B8 JUMP JUMPDEST DUP1 PUSH1 0x1F ADD PUSH1 0x20 DUP1 SWAP2 DIV MUL PUSH1 0x20 ADD PUSH1 0x40 MLOAD SWAP1 DUP2 ADD PUSH1 0x40 MSTORE DUP1 SWAP3 SWAP2 SWAP1 DUP2 DUP2 MSTORE PUSH1 0x20 ADD DUP3 DUP1 SLOAD PUSH2 0x2FDD SWAP1 PUSH2 0x40B8 JUMP JUMPDEST DUP1 ISZERO PUSH2 0x3028 JUMPI DUP1 PUSH1 0x1F LT PUSH2 0x2FFF JUMPI PUSH2 0x100 DUP1 DUP4 SLOAD DIV MUL DUP4 MSTORE SWAP2 PUSH1 0x20 ADD SWAP2 PUSH2 0x3028 JUMP JUMPDEST DUP3 ADD SWAP2 SWAP1 PUSH0 MSTORE PUSH1 0x20 PUSH0 KECCAK256 SWAP1 JUMPDEST DUP2 SLOAD DUP2 MSTORE SWAP1 PUSH1 0x1 ADD SWAP1 PUSH1 0x20 ADD DUP1 DUP4 GT PUSH2 0x300B JUMPI DUP3 SWAP1 SUB PUSH1 0x1F AND DUP3 ADD SWAP2 JUMPDEST POP POP POP POP POP SWAP1 DUP1 PUSH1 0x2 ADD SLOAD SWAP1 DUP1 PUSH1 0x3 ADD SLOAD SWAP1 DUP1 PUSH1 0x4 ADD SLOAD SWAP1 POP DUP6 JUMP JUMPDEST PUSH0 DUP1 PUSH0 SWAP1 SLOAD SWAP1 PUSH2 0x100 EXP SWAP1 DIV PUSH20 0xFFFFFFFFFFFFFFFFFFFFFFFFFFFFFFFFFFFFFFFF AND PUSH20 0xFFFFFFFFFFFFFFFFFFFFFFFFFFFFFFFFFFFFFFFF AND PUSH4 0x3AECD0E3 DUP4 PUSH1 0x40 MLOAD DUP3 PUSH4 0xFFFFFFFF AND PUSH1 0xE0 SHL DUP2 MSTORE PUSH1 0x4 ADD PUSH2 0x309E SWAP2 SWAP1 PUSH2 0x3F01 JUMP JUMPDEST PUSH1 0x20 PUSH1 0x40 MLOAD DUP1 DUP4 SUB DUP2 DUP7 GAS STATICCALL ISZERO DUP1 ISZERO PUSH2 0x30B9 JUMPI RETURNDATASIZE PUSH0 DUP1 RETURNDATACOPY RETURNDATASIZE PUSH0 REVERT JUMPDEST POP POP POP POP PUSH1 0x40 MLOAD RETURNDATASIZE PUSH1 0x1F NOT PUSH1 0x1F DUP3 ADD AND DUP3 ADD DUP1 PUSH1 0x40 MSTORE POP DUP2 ADD SWAP1 PUSH2 0x30DD SWAP2 SWAP1 PUSH2 0x4736 JUMP JUMPDEST SWAP1 POP SWAP2 SWAP1 POP JUMP JUMPDEST PUSH1 0x1 PUSH0 SWAP1 SLOAD SWAP1 PUSH2 0x100 EXP SWAP1 DIV PUSH20 0xFFFFFFFFFFFFFFFFFFFFFFFFFFFFFFFFFFFFFFFF AND DUP2 JUMP JUMPDEST PUSH0 JUMPDEST PUSH1 0x4 DUP1 SLOAD SWAP1 POP DUP2 LT ISZERO PUSH2 0x31C0 JUMPI DUP2 PUSH1 0x4 DUP3 DUP2 SLOAD DUP2 LT PUSH2 0x312D JUMPI PUSH2 0x312C PUSH2 0x3F1A JUMP JUMPDEST JUMPDEST SWAP1 PUSH0 MSTORE PUSH1 0x20 PUSH0 KECCAK256 ADD SLOAD SUB PUSH2 0x31B3 JUMPI PUSH1 0x4 PUSH1 0x1 PUSH1 0x4 DUP1 SLOAD SWAP1 POP PUSH2 0x314F SWAP2 SWAP1 PUSH2 0x49CE JUMP JUMPDEST DUP2 SLOAD DUP2 LT PUSH2 0x3160 JUMPI PUSH2 0x315F PUSH2 0x3F1A JUMP JUMPDEST JUMPDEST SWAP1 PUSH0 MSTORE PUSH1 0x20 PUSH0 KECCAK256 ADD SLOAD PUSH1 0x4 DUP3 DUP2 SLOAD DUP2 LT PUSH2 0x317D JUMPI PUSH2 0x317C PUSH2 0x3F1A JUMP JUMPDEST JUMPDEST SWAP1 PUSH0 MSTORE PUSH1 0x20 PUSH0 KECCAK256 ADD DUP2 SWAP1 SSTORE POP PUSH1 0x4 DUP1 SLOAD DUP1 PUSH2 0x319B JUMPI PUSH2 0x319A PUSH2 0x4CBB JUMP JUMPDEST JUMPDEST PUSH1 0x1 SWAP1 SUB DUP2 DUP2 SWAP1 PUSH0 MSTORE PUSH1 0x20 PUSH0 KECCAK256 ADD PUSH0 SWAP1 SSTORE SWAP1 SSTORE PUSH2 0x31C0 JUMP JUMPDEST DUP1 DUP1 PUSH1 0x1 ADD SWAP2 POP POP PUSH2 0x310B JUMP JUMPDEST POP POP JUMP JUMPDEST PUSH0 PUSH32 0x5DEE046A5E178C2C125664EDCCD954BB619D5B27AA642C93DD26F92E65B38EFE DUP3 DUP1 MLOAD SWAP1 PUSH1 0x20 ADD KECCAK256 EQ DUP1 PUSH2 0x3220 JUMPI POP PUSH32 0xBFD3DB406C10E8C033A404DB0F674B22A7E3EC59D4F38448374F5A3FFAA0E7F7 DUP3 DUP1 MLOAD SWAP1 PUSH1 0x20 ADD KECCAK256 EQ JUMPDEST SWAP1 POP SWAP2 SWAP1 POP JUMP JUMPDEST PUSH1 0x40 MLOAD DUP1 PUSH1 0xA0 ADD PUSH1 0x40 MSTORE DUP1 PUSH0 PUSH20 0xFFFFFFFFFFFFFFFFFFFFFFFFFFFFFFFFFFFFFFFF AND DUP2 MSTORE PUSH1 0x20 ADD PUSH1 0x60 DUP2 MSTORE PUSH1 0x20 ADD PUSH0 DUP2 MSTORE PUSH1 0x20 ADD PUSH0 DUP2 MSTORE PUSH1 0x20 ADD PUSH0 DUP2 MSTORE POP SWAP1 JUMP JUMPDEST PUSH1 0x40 MLOAD DUP1 PUSH2 0x140 ADD PUSH1 0x40 MSTORE DUP1 PUSH0 PUSH20 0xFFFFFFFFFFFFFFFFFFFFFFFFFFFFFFFFFFFFFFFF AND DUP2 MSTORE PUSH1 0x20 ADD PUSH1 0x60 DUP2 MSTORE PUSH1 0x20 ADD PUSH0 DUP2 MSTORE PUSH1 0x20 ADD PUSH0 DUP2 MSTORE PUSH1 0x20 ADD PUSH0 DUP2 MSTORE PUSH1 0x20 ADD PUSH0 DUP2 MSTORE PUSH1 0x20 ADD PUSH1 0x60 DUP2 MSTORE PUSH1 0x20 ADD PUSH0 DUP2 MSTORE PUSH1 0x20 ADD PUSH0 DUP2 MSTORE PUSH1 0x20 ADD PUSH0 DUP2 MSTORE POP SWAP1 JUMP JUMPDEST PUSH1 0x40 MLOAD DUP1 PUSH2 0x140 ADD PUSH1 0x40 MSTORE DUP1 PUSH0 DUP2 MSTORE PUSH1 0x20 ADD PUSH0 PUSH20 0xFFFFFFFFFFFFFFFFFFFFFFFFFFFFFFFFFFFFFFFF AND DUP2 MSTORE PUSH1 0x20 ADD PUSH0 PUSH20 0xFFFFFFFFFFFFFFFFFFFFFFFFFFFFFFFFFFFFFFFF AND DUP2 MSTORE PUSH1 0x20 ADD PUSH0 DUP2 MSTORE PUSH1 0x20 ADD PUSH0 DUP2 MSTORE PUSH1 0x20 ADD PUSH0 DUP2 MSTORE PUSH1 0x20 ADD PUSH0 ISZERO ISZERO DUP2 MSTORE PUSH1 0x20 ADD PUSH1 0x60 DUP2 MSTORE PUSH1 0x20 ADD PUSH0 DUP2 MSTORE PUSH1 0x20 ADD PUSH0 PUSH1 0x1 DUP2 GT ISZERO PUSH2 0x334D JUMPI PUSH2 0x334C PUSH2 0x3BC5 JUMP JUMPDEST JUMPDEST DUP2 MSTORE POP SWAP1 JUMP JUMPDEST PUSH0 PUSH1 0x40 MLOAD SWAP1 POP SWAP1 JUMP JUMPDEST PUSH0 DUP1 REVERT JUMPDEST PUSH0 DUP1 REVERT JUMPDEST PUSH0 PUSH20 0xFFFFFFFFFFFFFFFFFFFFFFFFFFFFFFFFFFFFFFFF DUP3 AND SWAP1 POP SWAP2 SWAP1 POP JUMP JUMPDEST PUSH0 PUSH2 0x338D DUP3 PUSH2 0x3364 JUMP JUMPDEST SWAP1 POP SWAP2 SWAP1 POP JUMP JUMPDEST PUSH2 0x339D DUP2 PUSH2 0x3383 JUMP JUMPDEST DUP2 EQ PUSH2 0x33A7 JUMPI PUSH0 DUP1 REVERT JUMPDEST POP JUMP JUMPDEST PUSH0 DUP2 CALLDATALOAD SWAP1 POP PUSH2 0x33B8 DUP2 PUSH2 0x3394 JUMP JUMPDEST SWAP3 SWAP2 POP POP JUMP JUMPDEST PUSH0 PUSH1 0x20 DUP3 DUP5 SUB SLT ISZERO PUSH2 0x33D3 JUMPI PUSH2 0x33D2 PUSH2 0x335C JUMP JUMPDEST JUMPDEST PUSH0 PUSH2 0x33E0 DUP5 DUP3 DUP6 ADD PUSH2 0x33AA JUMP JUMPDEST SWAP2 POP POP SWAP3 SWAP2 POP POP JUMP JUMPDEST PUSH0 DUP2 SWAP1 POP SWAP2 SWAP1 POP JUMP JUMPDEST PUSH2 0x33FB DUP2 PUSH2 0x33E9 JUMP JUMPDEST DUP3 MSTORE POP POP JUMP JUMPDEST PUSH0 PUSH1 0x20 DUP3 ADD SWAP1 POP PUSH2 0x3414 PUSH0 DUP4 ADD DUP5 PUSH2 0x33F2 JUMP JUMPDEST SWAP3 SWAP2 POP POP JUMP JUMPDEST PUSH2 0x3423 DUP2 PUSH2 0x33E9 JUMP JUMPDEST DUP2 EQ PUSH2 0x342D JUMPI PUSH0 DUP1 REVERT JUMPDEST POP JUMP JUMPDEST PUSH0 DUP2 CALLDATALOAD SWAP1 POP PUSH2 0x343E DUP2 PUSH2 0x341A JUMP JUMPDEST SWAP3 SWAP2 POP POP JUMP JUMPDEST PUSH0 DUP2 ISZERO ISZERO SWAP1 POP SWAP2 SWAP1 POP JUMP JUMPDEST PUSH2 0x3458 DUP2 PUSH2 0x3444 JUMP JUMPDEST DUP2 EQ PUSH2 0x3462 JUMPI PUSH0 DUP1 REVERT JUMPDEST POP JUMP JUMPDEST PUSH0 DUP2 CALLDATALOAD SWAP1 POP PUSH2 0x3473 DUP2 PUSH2 0x344F JUMP JUMPDEST SWAP3 SWAP2 POP POP JUMP JUMPDEST PUSH0 DUP1 PUSH1 0x40 DUP4 DUP6 SUB SLT ISZERO PUSH2 0x348F JUMPI PUSH2 0x348E PUSH2 0x335C JUMP JUMPDEST JUMPDEST PUSH0 PUSH2 0x349C DUP6 DUP3 DUP7 ADD PUSH2 0x3430 JUMP JUMPDEST SWAP3 POP POP PUSH1 0x20 PUSH2 0x34AD DUP6 DUP3 DUP7 ADD PUSH2 0x3465 JUMP JUMPDEST SWAP2 POP POP SWAP3 POP SWAP3 SWAP1 POP JUMP JUMPDEST PUSH2 0x34C0 DUP2 PUSH2 0x3383 JUMP JUMPDEST DUP3 MSTORE POP POP JUMP JUMPDEST PUSH0 DUP2 MLOAD SWAP1 POP SWAP2 SWAP1 POP JUMP JUMPDEST PUSH0 DUP3 DUP3 MSTORE PUSH1 0x20 DUP3 ADD SWAP1 POP SWAP3 SWAP2 POP POP JUMP JUMPDEST PUSH0 JUMPDEST DUP4 DUP2 LT ISZERO PUSH2 0x34FD JUMPI DUP1 DUP3 ADD MLOAD DUP2 DUP5 ADD MSTORE PUSH1 0x20 DUP2 ADD SWAP1 POP PUSH2 0x34E2 JUMP JUMPDEST PUSH0 DUP5 DUP5 ADD MSTORE POP POP POP POP JUMP JUMPDEST PUSH0 PUSH1 0x1F NOT PUSH1 0x1F DUP4 ADD AND SWAP1 POP SWAP2 SWAP1 POP JUMP JUMPDEST PUSH0 PUSH2 0x3522 DUP3 PUSH2 0x34C6 JUMP JUMPDEST PUSH2 0x352C DUP2 DUP6 PUSH2 0x34D0 JUMP JUMPDEST SWAP4 POP PUSH2 0x353C DUP2 DUP6 PUSH1 0x20 DUP7 ADD PUSH2 0x34E0 JUMP JUMPDEST PUSH2 0x3545 DUP2 PUSH2 0x3508 JUMP JUMPDEST DUP5 ADD SWAP2 POP POP SWAP3 SWAP2 POP POP JUMP JUMPDEST PUSH2 0x3559 DUP2 PUSH2 0x33E9 JUMP JUMPDEST DUP3 MSTORE POP POP JUMP JUMPDEST PUSH0 PUSH1 0xA0 DUP4 ADD PUSH0 DUP4 ADD MLOAD PUSH2 0x3574 PUSH0 DUP7 ADD DUP3 PUSH2 0x34B7 JUMP JUMPDEST POP PUSH1 0x20 DUP4 ADD MLOAD DUP5 DUP3 SUB PUSH1 0x20 DUP7 ADD MSTORE PUSH2 0x358C DUP3 DUP3 PUSH2 0x3518 JUMP JUMPDEST SWAP2 POP POP PUSH1 0x40 DUP4 ADD MLOAD PUSH2 0x35A1 PUSH1 0x40 DUP7 ADD DUP3 PUSH2 0x3550 JUMP JUMPDEST POP PUSH1 0x60 DUP4 ADD MLOAD PUSH2 0x35B4 PUSH1 0x60 DUP7 ADD DUP3 PUSH2 0x3550 JUMP JUMPDEST POP PUSH1 0x80 DUP4 ADD MLOAD PUSH2 0x35C7 PUSH1 0x80 DUP7 ADD DUP3 PUSH2 0x3550 JUMP JUMPDEST POP DUP1 SWAP2 POP POP SWAP3 SWAP2 POP POP JUMP JUMPDEST PUSH0 PUSH1 0x20 DUP3 ADD SWAP1 POP DUP2 DUP2 SUB PUSH0 DUP4 ADD MSTORE PUSH2 0x35EA DUP2 DUP5 PUSH2 0x355F JUMP JUMPDEST SWAP1 POP SWAP3 SWAP2 POP POP JUMP JUMPDEST PUSH0 PUSH1 0x20 DUP3 DUP5 SUB SLT ISZERO PUSH2 0x3607 JUMPI PUSH2 0x3606 PUSH2 0x335C JUMP JUMPDEST JUMPDEST PUSH0 PUSH2 0x3614 DUP5 DUP3 DUP6 ADD PUSH2 0x3430 JUMP JUMPDEST SWAP2 POP POP SWAP3 SWAP2 POP POP JUMP JUMPDEST PUSH0 DUP1 PUSH0 DUP1 PUSH0 DUP1 PUSH1 0xC0 DUP8 DUP10 SUB SLT ISZERO PUSH2 0x3637 JUMPI PUSH2 0x3636 PUSH2 0x335C JUMP JUMPDEST JUMPDEST PUSH0 PUSH2 0x3644 DUP10 DUP3 DUP11 ADD PUSH2 0x33AA JUMP JUMPDEST SWAP7 POP POP PUSH1 0x20 PUSH2 0x3655 DUP10 DUP3 DUP11 ADD PUSH2 0x33AA JUMP JUMPDEST SWAP6 POP POP PUSH1 0x40 PUSH2 0x3666 DUP10 DUP3 DUP11 ADD PUSH2 0x3430 JUMP JUMPDEST SWAP5 POP POP PUSH1 0x60 PUSH2 0x3677 DUP10 DUP3 DUP11 ADD PUSH2 0x3430 JUMP JUMPDEST SWAP4 POP POP PUSH1 0x80 PUSH2 0x3688 DUP10 DUP3 DUP11 ADD PUSH2 0x3430 JUMP JUMPDEST SWAP3 POP POP PUSH1 0xA0 PUSH2 0x3699 DUP10 DUP3 DUP11 ADD PUSH2 0x3465 JUMP JUMPDEST SWAP2 POP POP SWAP3 SWAP6 POP SWAP3 SWAP6 POP SWAP3 SWAP6 JUMP JUMPDEST PUSH0 DUP2 MLOAD SWAP1 POP SWAP2 SWAP1 POP JUMP JUMPDEST PUSH0 DUP3 DUP3 MSTORE PUSH1 0x20 DUP3 ADD SWAP1 POP SWAP3 SWAP2 POP POP JUMP JUMPDEST PUSH0 DUP2 SWAP1 POP PUSH1 0x20 DUP3 ADD SWAP1 POP SWAP2 SWAP1 POP JUMP JUMPDEST PUSH0 PUSH2 0x36DA DUP4 DUP4 PUSH2 0x3550 JUMP JUMPDEST PUSH1 0x20 DUP4 ADD SWAP1 POP SWAP3 SWAP2 POP POP JUMP JUMPDEST PUSH0 PUSH1 0x20 DUP3 ADD SWAP1 POP SWAP2 SWAP1 POP JUMP JUMPDEST PUSH0 PUSH2 0x36FC DUP3 PUSH2 0x36A6 JUMP JUMPDEST PUSH2 0x3706 DUP2 DUP6 PUSH2 0x36B0 JUMP JUMPDEST SWAP4 POP PUSH2 0x3711 DUP4 PUSH2 0x36C0 JUMP JUMPDEST DUP1 PUSH0 JUMPDEST DUP4 DUP2 LT ISZERO PUSH2 0x3741 JUMPI DUP2 MLOAD PUSH2 0x3728 DUP9 DUP3 PUSH2 0x36CF JUMP JUMPDEST SWAP8 POP PUSH2 0x3733 DUP4 PUSH2 0x36E6 JUMP JUMPDEST SWAP3 POP POP PUSH1 0x1 DUP2 ADD SWAP1 POP PUSH2 0x3714 JUMP JUMPDEST POP DUP6 SWAP4 POP POP POP POP SWAP3 SWAP2 POP POP JUMP JUMPDEST PUSH0 PUSH1 0x20 DUP3 ADD SWAP1 POP DUP2 DUP2 SUB PUSH0 DUP4 ADD MSTORE PUSH2 0x3766 DUP2 DUP5 PUSH2 0x36F2 JUMP JUMPDEST SWAP1 POP SWAP3 SWAP2 POP POP JUMP JUMPDEST PUSH0 DUP2 SWAP1 POP SWAP2 SWAP1 POP JUMP JUMPDEST PUSH0 PUSH2 0x3791 PUSH2 0x378C PUSH2 0x3787 DUP5 PUSH2 0x3364 JUMP JUMPDEST PUSH2 0x376E JUMP JUMPDEST PUSH2 0x3364 JUMP JUMPDEST SWAP1 POP SWAP2 SWAP1 POP JUMP JUMPDEST PUSH0 PUSH2 0x37A2 DUP3 PUSH2 0x3777 JUMP JUMPDEST SWAP1 POP SWAP2 SWAP1 POP JUMP JUMPDEST PUSH0 PUSH2 0x37B3 DUP3 PUSH2 0x3798 JUMP JUMPDEST SWAP1 POP SWAP2 SWAP1 POP JUMP JUMPDEST PUSH2 0x37C3 DUP2 PUSH2 0x37A9 JUMP JUMPDEST DUP3 MSTORE POP POP JUMP JUMPDEST PUSH0 PUSH1 0x20 DUP3 ADD SWAP1 POP PUSH2 0x37DC PUSH0 DUP4 ADD DUP5 PUSH2 0x37BA JUMP JUMPDEST SWAP3 SWAP2 POP POP JUMP JUMPDEST PUSH0 DUP2 MLOAD SWAP1 POP SWAP2 SWAP1 POP JUMP JUMPDEST PUSH0 DUP3 DUP3 MSTORE PUSH1 0x20 DUP3 ADD SWAP1 POP SWAP3 SWAP2 POP POP JUMP JUMPDEST PUSH0 DUP2 SWAP1 POP PUSH1 0x20 DUP3 ADD SWAP1 POP SWAP2 SWAP1 POP JUMP JUMPDEST PUSH0 DUP2 SWAP1 POP SWAP2 SWAP1 POP JUMP JUMPDEST PUSH2 0x381D DUP2 PUSH2 0x380B JUMP JUMPDEST DUP3 MSTORE POP POP JUMP JUMPDEST PUSH0 PUSH2 0x140 DUP4 ADD PUSH0 DUP4 ADD MLOAD PUSH2 0x3839 PUSH0 DUP7 ADD DUP3 PUSH2 0x34B7 JUMP JUMPDEST POP PUSH1 0x20 DUP4 ADD MLOAD DUP5 DUP3 SUB PUSH1 0x20 DUP7 ADD MSTORE PUSH2 0x3851 DUP3 DUP3 PUSH2 0x3518 JUMP JUMPDEST SWAP2 POP POP PUSH1 0x40 DUP4 ADD MLOAD PUSH2 0x3866 PUSH1 0x40 DUP7 ADD DUP3 PUSH2 0x3550 JUMP JUMPDEST POP PUSH1 0x60 DUP4 ADD MLOAD PUSH2 0x3879 PUSH1 0x60 DUP7 ADD DUP3 PUSH2 0x3550 JUMP JUMPDEST POP PUSH1 0x80 DUP4 ADD MLOAD PUSH2 0x388C PUSH1 0x80 DUP7 ADD DUP3 PUSH2 0x3814 JUMP JUMPDEST POP PUSH1 0xA0 DUP4 ADD MLOAD PUSH2 0x389F PUSH1 0xA0 DUP7 ADD DUP3 PUSH2 0x3814 JUMP JUMPDEST POP PUSH1 0xC0 DUP4 ADD MLOAD DUP5 DUP3 SUB PUSH1 0xC0 DUP7 ADD MSTORE PUSH2 0x38B7 DUP3 DUP3 PUSH2 0x3518 JUMP JUMPDEST SWAP2 POP POP PUSH1 0xE0 DUP4 ADD MLOAD PUSH2 0x38CC PUSH1 0xE0 DUP7 ADD DUP3 PUSH2 0x3550 JUMP JUMPDEST POP PUSH2 0x100 DUP4 ADD MLOAD PUSH2 0x38E1 PUSH2 0x100 DUP7 ADD DUP3 PUSH2 0x3550 JUMP JUMPDEST POP PUSH2 0x120 DUP4 ADD MLOAD PUSH2 0x38F6 PUSH2 0x120 DUP7 ADD DUP3 PUSH2 0x3550 JUMP JUMPDEST POP DUP1 SWAP2 POP POP SWAP3 SWAP2 POP POP JUMP JUMPDEST PUSH0 PUSH2 0x390C DUP4 DUP4 PUSH2 0x3823 JUMP JUMPDEST SWAP1 POP SWAP3 SWAP2 POP POP JUMP JUMPDEST PUSH0 PUSH1 0x20 DUP3 ADD SWAP1 POP SWAP2 SWAP1 POP JUMP JUMPDEST PUSH0 PUSH2 0x392A DUP3 PUSH2 0x37E2 JUMP JUMPDEST PUSH2 0x3934 DUP2 DUP6 PUSH2 0x37EC JUMP JUMPDEST SWAP4 POP DUP4 PUSH1 0x20 DUP3 MUL DUP6 ADD PUSH2 0x3946 DUP6 PUSH2 0x37FC JUMP JUMPDEST DUP1 PUSH0 JUMPDEST DUP6 DUP2 LT ISZERO PUSH2 0x3981 JUMPI DUP5 DUP5 SUB DUP10 MSTORE DUP2 MLOAD PUSH2 0x3962 DUP6 DUP3 PUSH2 0x3901 JUMP JUMPDEST SWAP5 POP PUSH2 0x396D DUP4 PUSH2 0x3914 JUMP JUMPDEST SWAP3 POP PUSH1 0x20 DUP11 ADD SWAP10 POP POP PUSH1 0x1 DUP2 ADD SWAP1 POP PUSH2 0x3949 JUMP JUMPDEST POP DUP3 SWAP8 POP DUP8 SWAP6 POP POP POP POP POP POP SWAP3 SWAP2 POP POP JUMP JUMPDEST PUSH0 PUSH1 0x20 DUP3 ADD SWAP1 POP DUP2 DUP2 SUB PUSH0 DUP4 ADD MSTORE PUSH2 0x39AB DUP2 DUP5 PUSH2 0x3920 JUMP JUMPDEST SWAP1 POP SWAP3 SWAP2 POP POP JUMP JUMPDEST PUSH0 DUP1 REVERT JUMPDEST PUSH0 DUP1 REVERT JUMPDEST PUSH32 0x4E487B7100000000000000000000000000000000000000000000000000000000 PUSH0 MSTORE PUSH1 0x41 PUSH1 0x4 MSTORE PUSH1 0x24 PUSH0 REVERT JUMPDEST PUSH2 0x39F1 DUP3 PUSH2 0x3508 JUMP JUMPDEST DUP2 ADD DUP2 DUP2 LT PUSH8 0xFFFFFFFFFFFFFFFF DUP3 GT OR ISZERO PUSH2 0x3A10 JUMPI PUSH2 0x3A0F PUSH2 0x39BB JUMP JUMPDEST JUMPDEST DUP1 PUSH1 0x40 MSTORE POP POP POP JUMP JUMPDEST PUSH0 PUSH2 0x3A22 PUSH2 0x3353 JUMP JUMPDEST SWAP1 POP PUSH2 0x3A2E DUP3 DUP3 PUSH2 0x39E8 JUMP JUMPDEST SWAP2 SWAP1 POP JUMP JUMPDEST PUSH0 PUSH8 0xFFFFFFFFFFFFFFFF DUP3 GT ISZERO PUSH2 0x3A4D JUMPI PUSH2 0x3A4C PUSH2 0x39BB JUMP JUMPDEST JUMPDEST PUSH2 0x3A56 DUP3 PUSH2 0x3508 JUMP JUMPDEST SWAP1 POP PUSH1 0x20 DUP2 ADD SWAP1 POP SWAP2 SWAP1 POP JUMP JUMPDEST DUP3 DUP2 DUP4 CALLDATACOPY PUSH0 DUP4 DUP4 ADD MSTORE POP POP POP JUMP JUMPDEST PUSH0 PUSH2 0x3A83 PUSH2 0x3A7E DUP5 PUSH2 0x3A33 JUMP JUMPDEST PUSH2 0x3A19 JUMP JUMPDEST SWAP1 POP DUP3 DUP2 MSTORE PUSH1 0x20 DUP2 ADD DUP5 DUP5 DUP5 ADD GT ISZERO PUSH2 0x3A9F JUMPI PUSH2 0x3A9E PUSH2 0x39B7 JUMP JUMPDEST JUMPDEST PUSH2 0x3AAA DUP5 DUP3 DUP6 PUSH2 0x3A63 JUMP JUMPDEST POP SWAP4 SWAP3 POP POP POP JUMP JUMPDEST PUSH0 DUP3 PUSH1 0x1F DUP4 ADD SLT PUSH2 0x3AC6 JUMPI PUSH2 0x3AC5 PUSH2 0x39B3 JUMP JUMPDEST JUMPDEST DUP2 CALLDATALOAD PUSH2 0x3AD6 DUP5 DUP3 PUSH1 0x20 DUP7 ADD PUSH2 0x3A71 JUMP JUMPDEST SWAP2 POP POP SWAP3 SWAP2 POP POP JUMP JUMPDEST PUSH0 DUP1 PUSH0 DUP1 PUSH1 0x80 DUP6 DUP8 SUB SLT ISZERO PUSH2 0x3AF7 JUMPI PUSH2 0x3AF6 PUSH2 0x335C JUMP JUMPDEST JUMPDEST PUSH0 DUP6 ADD CALLDATALOAD PUSH8 0xFFFFFFFFFFFFFFFF DUP2 GT ISZERO PUSH2 0x3B14 JUMPI PUSH2 0x3B13 PUSH2 0x3360 JUMP JUMPDEST JUMPDEST PUSH2 0x3B20 DUP8 DUP3 DUP9 ADD PUSH2 0x3AB2 JUMP JUMPDEST SWAP5 POP POP PUSH1 0x20 PUSH2 0x3B31 DUP8 DUP3 DUP9 ADD PUSH2 0x3430 JUMP JUMPDEST SWAP4 POP POP PUSH1 0x40 PUSH2 0x3B42 DUP8 DUP3 DUP9 ADD PUSH2 0x3430 JUMP JUMPDEST SWAP3 POP POP PUSH1 0x60 PUSH2 0x3B53 DUP8 DUP3 DUP9 ADD PUSH2 0x3430 JUMP JUMPDEST SWAP2 POP POP SWAP3 SWAP6 SWAP2 SWAP5 POP SWAP3 POP JUMP JUMPDEST PUSH2 0x3B68 DUP2 PUSH2 0x3383 JUMP JUMPDEST DUP3 MSTORE POP POP JUMP JUMPDEST PUSH2 0x3B77 DUP2 PUSH2 0x3444 JUMP JUMPDEST DUP3 MSTORE POP POP JUMP JUMPDEST PUSH0 DUP3 DUP3 MSTORE PUSH1 0x20 DUP3 ADD SWAP1 POP SWAP3 SWAP2 POP POP JUMP JUMPDEST PUSH0 PUSH2 0x3B97 DUP3 PUSH2 0x34C6 JUMP JUMPDEST PUSH2 0x3BA1 DUP2 DUP6 PUSH2 0x3B7D JUMP JUMPDEST SWAP4 POP PUSH2 0x3BB1 DUP2 DUP6 PUSH1 0x20 DUP7 ADD PUSH2 0x34E0 JUMP JUMPDEST PUSH2 0x3BBA DUP2 PUSH2 0x3508 JUMP JUMPDEST DUP5 ADD SWAP2 POP POP SWAP3 SWAP2 POP POP JUMP JUMPDEST PUSH32 0x4E487B7100000000000000000000000000000000000000000000000000000000 PUSH0 MSTORE PUSH1 0x21 PUSH1 0x4 MSTORE PUSH1 0x24 PUSH0 REVERT JUMPDEST PUSH1 0x2 DUP2 LT PUSH2 0x3C03 JUMPI PUSH2 0x3C02 PUSH2 0x3BC5 JUMP JUMPDEST JUMPDEST POP JUMP JUMPDEST PUSH0 DUP2 SWAP1 POP PUSH2 0x3C13 DUP3 PUSH2 0x3BF2 JUMP JUMPDEST SWAP2 SWAP1 POP JUMP JUMPDEST PUSH0 PUSH2 0x3C22 DUP3 PUSH2 0x3C06 JUMP JUMPDEST SWAP1 POP SWAP2 SWAP1 POP JUMP JUMPDEST PUSH2 0x3C32 DUP2 PUSH2 0x3C18 JUMP JUMPDEST DUP3 MSTORE POP POP JUMP JUMPDEST PUSH0 PUSH2 0x140 DUP3 ADD SWAP1 POP PUSH2 0x3C4C PUSH0 DUP4 ADD DUP14 PUSH2 0x33F2 JUMP JUMPDEST PUSH2 0x3C59 PUSH1 0x20 DUP4 ADD DUP13 PUSH2 0x3B5F JUMP JUMPDEST PUSH2 0x3C66 PUSH1 0x40 DUP4 ADD DUP12 PUSH2 0x3B5F JUMP JUMPDEST PUSH2 0x3C73 PUSH1 0x60 DUP4 ADD DUP11 PUSH2 0x33F2 JUMP JUMPDEST PUSH2 0x3C80 PUSH1 0x80 DUP4 ADD DUP10 PUSH2 0x33F2 JUMP JUMPDEST PUSH2 0x3C8D PUSH1 0xA0 DUP4 ADD DUP9 PUSH2 0x33F2 JUMP JUMPDEST PUSH2 0x3C9A PUSH1 0xC0 DUP4 ADD DUP8 PUSH2 0x3B6E JUMP JUMPDEST DUP2 DUP2 SUB PUSH1 0xE0 DUP4 ADD MSTORE PUSH2 0x3CAC DUP2 DUP7 PUSH2 0x3B8D JUMP JUMPDEST SWAP1 POP PUSH2 0x3CBC PUSH2 0x100 DUP4 ADD DUP6 PUSH2 0x33F2 JUMP JUMPDEST PUSH2 0x3CCA PUSH2 0x120 DUP4 ADD DUP5 PUSH2 0x3C29 JUMP JUMPDEST SWAP12 SWAP11 POP POP POP POP POP POP POP POP POP POP POP JUMP JUMPDEST PUSH0 DUP2 MLOAD SWAP1 POP SWAP2 SWAP1 POP JUMP JUMPDEST PUSH0 DUP3 DUP3 MSTORE PUSH1 0x20 DUP3 ADD SWAP1 POP SWAP3 SWAP2 POP POP JUMP JUMPDEST PUSH0 DUP2 SWAP1 POP PUSH1 0x20 DUP3 ADD SWAP1 POP SWAP2 SWAP1 POP JUMP JUMPDEST PUSH2 0x3D0B DUP2 PUSH2 0x3444 JUMP JUMPDEST DUP3 MSTORE POP POP JUMP JUMPDEST PUSH2 0x3D1A DUP2 PUSH2 0x3C18 JUMP JUMPDEST DUP3 MSTORE POP POP JUMP JUMPDEST PUSH0 PUSH2 0x140 DUP4 ADD PUSH0 DUP4 ADD MLOAD PUSH2 0x3D36 PUSH0 DUP7 ADD DUP3 PUSH2 0x3550 JUMP JUMPDEST POP PUSH1 0x20 DUP4 ADD MLOAD PUSH2 0x3D49 PUSH1 0x20 DUP7 ADD DUP3 PUSH2 0x34B7 JUMP JUMPDEST POP PUSH1 0x40 DUP4 ADD MLOAD PUSH2 0x3D5C PUSH1 0x40 DUP7 ADD DUP3 PUSH2 0x34B7 JUMP JUMPDEST POP PUSH1 0x60 DUP4 ADD MLOAD PUSH2 0x3D6F PUSH1 0x60 DUP7 ADD DUP3 PUSH2 0x3550 JUMP JUMPDEST POP PUSH1 0x80 DUP4 ADD MLOAD PUSH2 0x3D82 PUSH1 0x80 DUP7 ADD DUP3 PUSH2 0x3550 JUMP JUMPDEST POP PUSH1 0xA0 DUP4 ADD MLOAD PUSH2 0x3D95 PUSH1 0xA0 DUP7 ADD DUP3 PUSH2 0x3550 JUMP JUMPDEST POP PUSH1 0xC0 DUP4 ADD MLOAD PUSH2 0x3DA8 PUSH1 0xC0 DUP7 ADD DUP3 PUSH2 0x3D02 JUMP JUMPDEST POP PUSH1 0xE0 DUP4 ADD MLOAD DUP5 DUP3 SUB PUSH1 0xE0 DUP7 ADD MSTORE PUSH2 0x3DC0 DUP3 DUP3 PUSH2 0x3518 JUMP JUMPDEST SWAP2 POP POP PUSH2 0x100 DUP4 ADD MLOAD PUSH2 0x3DD7 PUSH2 0x100 DUP7 ADD DUP3 PUSH2 0x3550 JUMP JUMPDEST POP PUSH2 0x120 DUP4 ADD MLOAD PUSH2 0x3DEC PUSH2 0x120 DUP7 ADD DUP3 PUSH2 0x3D11 JUMP JUMPDEST POP DUP1 SWAP2 POP POP SWAP3 SWAP2 POP POP JUMP JUMPDEST PUSH0 PUSH2 0x3E02 DUP4 DUP4 PUSH2 0x3D20 JUMP JUMPDEST SWAP1 POP SWAP3 SWAP2 POP POP JUMP JUMPDEST PUSH0 PUSH1 0x20 DUP3 ADD SWAP1 POP SWAP2 SWAP1 POP JUMP JUMPDEST PUSH0 PUSH2 0x3E20 DUP3 PUSH2 0x3CD9 JUMP JUMPDEST PUSH2 0x3E2A DUP2 DUP6 PUSH2 0x3CE3 JUMP JUMPDEST SWAP4 POP DUP4 PUSH1 0x20 DUP3 MUL DUP6 ADD PUSH2 0x3E3C DUP6 PUSH2 0x3CF3 JUMP JUMPDEST DUP1 PUSH0 JUMPDEST DUP6 DUP2 LT ISZERO PUSH2 0x3E77 JUMPI DUP5 DUP5 SUB DUP10 MSTORE DUP2 MLOAD PUSH2 0x3E58 DUP6 DUP3 PUSH2 0x3DF7 JUMP JUMPDEST SWAP5 POP PUSH2 0x3E63 DUP4 PUSH2 0x3E0A JUMP JUMPDEST SWAP3 POP PUSH1 0x20 DUP11 ADD SWAP10 POP POP PUSH1 0x1 DUP2 ADD SWAP1 POP PUSH2 0x3E3F JUMP JUMPDEST POP DUP3 SWAP8 POP DUP8 SWAP6 POP POP POP POP POP POP SWAP3 SWAP2 POP POP JUMP JUMPDEST PUSH0 PUSH1 0x20 DUP3 ADD SWAP1 POP DUP2 DUP2 SUB PUSH0 DUP4 ADD MSTORE PUSH2 0x3EA1 DUP2 DUP5 PUSH2 0x3E16 JUMP JUMPDEST SWAP1 POP SWAP3 SWAP2 POP POP JUMP JUMPDEST PUSH0 PUSH1 0xA0 DUP3 ADD SWAP1 POP PUSH2 0x3EBC PUSH0 DUP4 ADD DUP9 PUSH2 0x3B5F JUMP JUMPDEST DUP2 DUP2 SUB PUSH1 0x20 DUP4 ADD MSTORE PUSH2 0x3ECE DUP2 DUP8 PUSH2 0x3B8D JUMP JUMPDEST SWAP1 POP PUSH2 0x3EDD PUSH1 0x40 DUP4 ADD DUP7 PUSH2 0x33F2 JUMP JUMPDEST PUSH2 0x3EEA PUSH1 0x60 DUP4 ADD DUP6 PUSH2 0x33F2 JUMP JUMPDEST PUSH2 0x3EF7 PUSH1 0x80 DUP4 ADD DUP5 PUSH2 0x33F2 JUMP JUMPDEST SWAP7 SWAP6 POP POP POP POP POP POP JUMP JUMPDEST PUSH0 PUSH1 0x20 DUP3 ADD SWAP1 POP PUSH2 0x3F14 PUSH0 DUP4 ADD DUP5 PUSH2 0x3B5F JUMP JUMPDEST SWAP3 SWAP2 POP POP JUMP JUMPDEST PUSH32 0x4E487B7100000000000000000000000000000000000000000000000000000000 PUSH0 MSTORE PUSH1 0x32 PUSH1 0x4 MSTORE PUSH1 0x24 PUSH0 REVERT JUMPDEST PUSH32 0x4E487B7100000000000000000000000000000000000000000000000000000000 PUSH0 MSTORE PUSH1 0x11 PUSH1 0x4 MSTORE PUSH1 0x24 PUSH0 REVERT JUMPDEST PUSH0 PUSH2 0x3F7E DUP3 PUSH2 0x33E9 JUMP JUMPDEST SWAP2 POP PUSH32 0xFFFFFFFFFFFFFFFFFFFFFFFFFFFFFFFFFFFFFFFFFFFFFFFFFFFFFFFFFFFFFFFF DUP3 SUB PUSH2 0x3FB0 JUMPI PUSH2 0x3FAF PUSH2 0x3F47 JUMP JUMPDEST JUMPDEST PUSH1 0x1 DUP3 ADD SWAP1 POP SWAP2 SWAP1 POP JUMP JUMPDEST PUSH32 0x5472616E73616374696F6E20646F6573206E6F742065786973742E0000000000 PUSH0 DUP3 ADD MSTORE POP JUMP JUMPDEST PUSH0 PUSH2 0x3FEF PUSH1 0x1B DUP4 PUSH2 0x3B7D JUMP JUMPDEST SWAP2 POP PUSH2 0x3FFA DUP3 PUSH2 0x3FBB JUMP JUMPDEST PUSH1 0x20 DUP3 ADD SWAP1 POP SWAP2 SWAP1 POP JUMP JUMPDEST PUSH0 PUSH1 0x20 DUP3 ADD SWAP1 POP DUP2 DUP2 SUB PUSH0 DUP4 ADD MSTORE PUSH2 0x401C DUP2 PUSH2 0x3FE3 JUMP JUMPDEST SWAP1 POP SWAP2 SWAP1 POP JUMP JUMPDEST PUSH32 0x5472616E73616374696F6E20616C726561647920636F6D6D69747465642E0000 PUSH0 DUP3 ADD MSTORE POP JUMP JUMPDEST PUSH0 PUSH2 0x4057 PUSH1 0x1E DUP4 PUSH2 0x3B7D JUMP JUMPDEST SWAP2 POP PUSH2 0x4062 DUP3 PUSH2 0x4023 JUMP JUMPDEST PUSH1 0x20 DUP3 ADD SWAP1 POP SWAP2 SWAP1 POP JUMP JUMPDEST PUSH0 PUSH1 0x20 DUP3 ADD SWAP1 POP DUP2 DUP2 SUB PUSH0 DUP4 ADD MSTORE PUSH2 0x4084 DUP2 PUSH2 0x404B JUMP JUMPDEST SWAP1 POP SWAP2 SWAP1 POP JUMP JUMPDEST PUSH32 0x4E487B7100000000000000000000000000000000000000000000000000000000 PUSH0 MSTORE PUSH1 0x22 PUSH1 0x4 MSTORE PUSH1 0x24 PUSH0 REVERT JUMPDEST PUSH0 PUSH1 0x2 DUP3 DIV SWAP1 POP PUSH1 0x1 DUP3 AND DUP1 PUSH2 0x40CF JUMPI PUSH1 0x7F DUP3 AND SWAP2 POP JUMPDEST PUSH1 0x20 DUP3 LT DUP2 SUB PUSH2 0x40E2 JUMPI PUSH2 0x40E1 PUSH2 0x408B JUMP JUMPDEST JUMPDEST POP SWAP2 SWAP1 POP JUMP JUMPDEST PUSH0 DUP2 SWAP1 POP DUP2 PUSH0 MSTORE PUSH1 0x20 PUSH0 KECCAK256 SWAP1 POP SWAP2 SWAP1 POP JUMP JUMPDEST PUSH0 PUSH1 0x20 PUSH1 0x1F DUP4 ADD DIV SWAP1 POP SWAP2 SWAP1 POP JUMP JUMPDEST PUSH0 DUP3 DUP3 SHL SWAP1 POP SWAP3 SWAP2 POP POP JUMP JUMPDEST PUSH0 PUSH1 0x8 DUP4 MUL PUSH2 0x4144 PUSH32 0xFFFFFFFFFFFFFFFFFFFFFFFFFFFFFFFFFFFFFFFFFFFFFFFFFFFFFFFFFFFFFFFF DUP3 PUSH2 0x4109 JUMP JUMPDEST PUSH2 0x414E DUP7 DUP4 PUSH2 0x4109 JUMP JUMPDEST SWAP6 POP DUP1 NOT DUP5 AND SWAP4 POP DUP1 DUP7 AND DUP5 OR SWAP3 POP POP POP SWAP4 SWAP3 POP POP POP JUMP JUMPDEST PUSH0 PUSH2 0x4180 PUSH2 0x417B PUSH2 0x4176 DUP5 PUSH2 0x33E9 JUMP JUMPDEST PUSH2 0x376E JUMP JUMPDEST PUSH2 0x33E9 JUMP JUMPDEST SWAP1 POP SWAP2 SWAP1 POP JUMP JUMPDEST PUSH0 DUP2 SWAP1 POP SWAP2 SWAP1 POP JUMP JUMPDEST PUSH2 0x4199 DUP4 PUSH2 0x4166 JUMP JUMPDEST PUSH2 0x41AD PUSH2 0x41A5 DUP3 PUSH2 0x4187 JUMP JUMPDEST DUP5 DUP5 SLOAD PUSH2 0x4115 JUMP JUMPDEST DUP3 SSTORE POP POP POP POP JUMP JUMPDEST PUSH0 SWAP1 JUMP JUMPDEST PUSH2 0x41C1 PUSH2 0x41B5 JUMP JUMPDEST PUSH2 0x41CC DUP2 DUP5 DUP5 PUSH2 0x4190 JUMP JUMPDEST POP POP POP JUMP JUMPDEST JUMPDEST DUP2 DUP2 LT ISZERO PUSH2 0x41EF JUMPI PUSH2 0x41E4 PUSH0 DUP3 PUSH2 0x41B9 JUMP JUMPDEST PUSH1 0x1 DUP2 ADD SWAP1 POP PUSH2 0x41D2 JUMP JUMPDEST POP POP JUMP JUMPDEST PUSH1 0x1F DUP3 GT ISZERO PUSH2 0x4234 JUMPI PUSH2 0x4205 DUP2 PUSH2 0x40E8 JUMP JUMPDEST PUSH2 0x420E DUP5 PUSH2 0x40FA JUMP JUMPDEST DUP2 ADD PUSH1 0x20 DUP6 LT ISZERO PUSH2 0x421D JUMPI DUP2 SWAP1 POP JUMPDEST PUSH2 0x4231 PUSH2 0x4229 DUP6 PUSH2 0x40FA JUMP JUMPDEST DUP4 ADD DUP3 PUSH2 0x41D1 JUMP JUMPDEST POP POP JUMPDEST POP POP POP JUMP JUMPDEST PUSH0 DUP3 DUP3 SHR SWAP1 POP SWAP3 SWAP2 POP POP JUMP JUMPDEST PUSH0 PUSH2 0x4254 PUSH0 NOT DUP5 PUSH1 0x8 MUL PUSH2 0x4239 JUMP JUMPDEST NOT DUP1 DUP4 AND SWAP2 POP POP SWAP3 SWAP2 POP POP JUMP JUMPDEST PUSH0 PUSH2 0x426C DUP4 DUP4 PUSH2 0x4245 JUMP JUMPDEST SWAP2 POP DUP3 PUSH1 0x2 MUL DUP3 OR SWAP1 POP SWAP3 SWAP2 POP POP JUMP JUMPDEST PUSH2 0x4285 DUP3 PUSH2 0x34C6 JUMP JUMPDEST PUSH8 0xFFFFFFFFFFFFFFFF DUP2 GT ISZERO PUSH2 0x429E JUMPI PUSH2 0x429D PUSH2 0x39BB JUMP JUMPDEST JUMPDEST PUSH2 0x42A8 DUP3 SLOAD PUSH2 0x40B8 JUMP JUMPDEST PUSH2 0x42B3 DUP3 DUP3 DUP6 PUSH2 0x41F3 JUMP JUMPDEST PUSH0 PUSH1 0x20 SWAP1 POP PUSH1 0x1F DUP4 GT PUSH1 0x1 DUP2 EQ PUSH2 0x42E4 JUMPI PUSH0 DUP5 ISZERO PUSH2 0x42D2 JUMPI DUP3 DUP8 ADD MLOAD SWAP1 POP JUMPDEST PUSH2 0x42DC DUP6 DUP3 PUSH2 0x4261 JUMP JUMPDEST DUP7 SSTORE POP PUSH2 0x4343 JUMP JUMPDEST PUSH1 0x1F NOT DUP5 AND PUSH2 0x42F2 DUP7 PUSH2 0x40E8 JUMP JUMPDEST PUSH0 JUMPDEST DUP3 DUP2 LT ISZERO PUSH2 0x4319 JUMPI DUP5 DUP10 ADD MLOAD DUP3 SSTORE PUSH1 0x1 DUP3 ADD SWAP2 POP PUSH1 0x20 DUP6 ADD SWAP5 POP PUSH1 0x20 DUP2 ADD SWAP1 POP PUSH2 0x42F4 JUMP JUMPDEST DUP7 DUP4 LT ISZERO PUSH2 0x4336 JUMPI DUP5 DUP10 ADD MLOAD PUSH2 0x4332 PUSH1 0x1F DUP10 AND DUP3 PUSH2 0x4245 JUMP JUMPDEST DUP4 SSTORE POP JUMPDEST PUSH1 0x1 PUSH1 0x2 DUP9 MUL ADD DUP9 SSTORE POP POP POP JUMPDEST POP POP POP POP POP POP JUMP JUMPDEST PUSH32 0x52656A65637465642064756520746F2065787069726174696F6E000000000000 PUSH0 DUP3 ADD MSTORE POP JUMP JUMPDEST PUSH0 PUSH2 0x437F PUSH1 0x1A DUP4 PUSH2 0x3B7D JUMP JUMPDEST SWAP2 POP PUSH2 0x438A DUP3 PUSH2 0x434B JUMP JUMPDEST PUSH1 0x20 DUP3 ADD SWAP1 POP SWAP2 SWAP1 POP JUMP JUMPDEST PUSH0 PUSH1 0x60 DUP3 ADD SWAP1 POP PUSH2 0x43A8 PUSH0 DUP4 ADD DUP6 PUSH2 0x33F2 JUMP JUMPDEST PUSH2 0x43B5 PUSH1 0x20 DUP4 ADD DUP5 PUSH2 0x3B6E JUMP JUMPDEST DUP2 DUP2 SUB PUSH1 0x40 DUP4 ADD MSTORE PUSH2 0x43C6 DUP2 PUSH2 0x4373 JUMP JUMPDEST SWAP1 POP SWAP4 SWAP3 POP POP POP JUMP JUMPDEST PUSH0 PUSH1 0x60 DUP3 ADD SWAP1 POP PUSH2 0x43E2 PUSH0 DUP4 ADD DUP7 PUSH2 0x3B5F JUMP JUMPDEST PUSH2 0x43EF PUSH1 0x20 DUP4 ADD DUP6 PUSH2 0x3B5F JUMP JUMPDEST PUSH2 0x43FC PUSH1 0x40 DUP4 ADD DUP5 PUSH2 0x33F2 JUMP JUMPDEST SWAP5 SWAP4 POP POP POP POP JUMP JUMPDEST PUSH0 PUSH1 0x60 DUP3 ADD SWAP1 POP PUSH2 0x4417 PUSH0 DUP4 ADD DUP7 PUSH2 0x3B5F JUMP JUMPDEST PUSH2 0x4424 PUSH1 0x20 DUP4 ADD DUP6 PUSH2 0x33F2 JUMP JUMPDEST PUSH2 0x4431 PUSH1 0x40 DUP4 ADD DUP5 PUSH2 0x3B6E JUMP JUMPDEST SWAP5 SWAP4 POP POP POP POP JUMP JUMPDEST PUSH0 DUP2 SLOAD PUSH2 0x4445 DUP2 PUSH2 0x40B8 JUMP JUMPDEST PUSH2 0x444F DUP2 DUP7 PUSH2 0x3B7D JUMP JUMPDEST SWAP5 POP PUSH1 0x1 DUP3 AND PUSH0 DUP2 EQ PUSH2 0x4469 JUMPI PUSH1 0x1 DUP2 EQ PUSH2 0x447F JUMPI PUSH2 0x44B1 JUMP JUMPDEST PUSH1 0xFF NOT DUP4 AND DUP7 MSTORE DUP2 ISZERO ISZERO PUSH1 0x20 MUL DUP7 ADD SWAP4 POP PUSH2 0x44B1 JUMP JUMPDEST PUSH2 0x4488 DUP6 PUSH2 0x40E8 JUMP JUMPDEST PUSH0 JUMPDEST DUP4 DUP2 LT ISZERO PUSH2 0x44A9 JUMPI DUP2 SLOAD DUP2 DUP10 ADD MSTORE PUSH1 0x1 DUP3 ADD SWAP2 POP PUSH1 0x20 DUP2 ADD SWAP1 POP PUSH2 0x448A JUMP JUMPDEST DUP1 DUP9 ADD SWAP6 POP POP POP JUMPDEST POP POP POP SWAP3 SWAP2 POP POP JUMP JUMPDEST PUSH0 PUSH1 0x60 DUP3 ADD SWAP1 POP PUSH2 0x44CD PUSH0 DUP4 ADD DUP7 PUSH2 0x33F2 JUMP JUMPDEST PUSH2 0x44DA PUSH1 0x20 DUP4 ADD DUP6 PUSH2 0x3B6E JUMP JUMPDEST DUP2 DUP2 SUB PUSH1 0x40 DUP4 ADD MSTORE PUSH2 0x44EC DUP2 DUP5 PUSH2 0x4439 JUMP JUMPDEST SWAP1 POP SWAP5 SWAP4 POP POP POP POP JUMP JUMPDEST PUSH0 DUP2 MLOAD SWAP1 POP PUSH2 0x4504 DUP2 PUSH2 0x344F JUMP JUMPDEST SWAP3 SWAP2 POP POP JUMP JUMPDEST PUSH0 PUSH1 0x20 DUP3 DUP5 SUB SLT ISZERO PUSH2 0x451F JUMPI PUSH2 0x451E PUSH2 0x335C JUMP JUMPDEST JUMPDEST PUSH0 PUSH2 0x452C DUP5 DUP3 DUP6 ADD PUSH2 0x44F6 JUMP JUMPDEST SWAP2 POP POP SWAP3 SWAP2 POP POP JUMP JUMPDEST PUSH32 0x55736572206973206E6F7420726567697374657265642E000000000000000000 PUSH0 DUP3 ADD MSTORE POP JUMP JUMPDEST PUSH0 PUSH2 0x4569 PUSH1 0x17 DUP4 PUSH2 0x3B7D JUMP JUMPDEST SWAP2 POP PUSH2 0x4574 DUP3 PUSH2 0x4535 JUMP JUMPDEST PUSH1 0x20 DUP3 ADD SWAP1 POP SWAP2 SWAP1 POP JUMP JUMPDEST PUSH0 PUSH1 0x20 DUP3 ADD SWAP1 POP DUP2 DUP2 SUB PUSH0 DUP4 ADD MSTORE PUSH2 0x4596 DUP2 PUSH2 0x455D JUMP JUMPDEST SWAP1 POP SWAP2 SWAP1 POP JUMP JUMPDEST PUSH0 PUSH1 0x40 DUP3 ADD SWAP1 POP PUSH2 0x45B0 PUSH0 DUP4 ADD DUP6 PUSH2 0x3B5F JUMP JUMPDEST PUSH2 0x45BD PUSH1 0x20 DUP4 ADD DUP5 PUSH2 0x33F2 JUMP JUMPDEST SWAP4 SWAP3 POP POP POP JUMP JUMPDEST PUSH32 0x496E69746961746F72206973206E6F7420726567697374657265642E00000000 PUSH0 DUP3 ADD MSTORE POP JUMP JUMPDEST PUSH0 PUSH2 0x45F8 PUSH1 0x1C DUP4 PUSH2 0x3B7D JUMP JUMPDEST SWAP2 POP PUSH2 0x4603 DUP3 PUSH2 0x45C4 JUMP JUMPDEST PUSH1 0x20 DUP3 ADD SWAP1 POP SWAP2 SWAP1 POP JUMP JUMPDEST PUSH0 PUSH1 0x20 DUP3 ADD SWAP1 POP DUP2 DUP2 SUB PUSH0 DUP4 ADD MSTORE PUSH2 0x4625 DUP2 PUSH2 0x45EC JUMP JUMPDEST SWAP1 POP SWAP2 SWAP1 POP JUMP JUMPDEST PUSH32 0x5265636569766572206973206E6F7420726567697374657265642E0000000000 PUSH0 DUP3 ADD MSTORE POP JUMP JUMPDEST PUSH0 PUSH2 0x4660 PUSH1 0x1B DUP4 PUSH2 0x3B7D JUMP JUMPDEST SWAP2 POP PUSH2 0x466B DUP3 PUSH2 0x462C JUMP JUMPDEST PUSH1 0x20 DUP3 ADD SWAP1 POP SWAP2 SWAP1 POP JUMP JUMPDEST PUSH0 PUSH1 0x20 DUP3 ADD SWAP1 POP DUP2 DUP2 SUB PUSH0 DUP4 ADD MSTORE PUSH2 0x468D DUP2 PUSH2 0x4654 JUMP JUMPDEST SWAP1 POP SWAP2 SWAP1 POP JUMP JUMPDEST PUSH32 0x5472616E73616374696F6E2065787069726174696F6E206D7573742062652069 PUSH0 DUP3 ADD MSTORE PUSH32 0x6E20746865206675747572652E00000000000000000000000000000000000000 PUSH1 0x20 DUP3 ADD MSTORE POP JUMP JUMPDEST PUSH0 PUSH2 0x46EE PUSH1 0x2D DUP4 PUSH2 0x3B7D JUMP JUMPDEST SWAP2 POP PUSH2 0x46F9 DUP3 PUSH2 0x4694 JUMP JUMPDEST PUSH1 0x40 DUP3 ADD SWAP1 POP SWAP2 SWAP1 POP JUMP JUMPDEST PUSH0 PUSH1 0x20 DUP3 ADD SWAP1 POP DUP2 DUP2 SUB PUSH0 DUP4 ADD MSTORE PUSH2 0x471B DUP2 PUSH2 0x46E2 JUMP JUMPDEST SWAP1 POP SWAP2 SWAP1 POP JUMP JUMPDEST PUSH0 DUP2 MLOAD SWAP1 POP PUSH2 0x4730 DUP2 PUSH2 0x341A JUMP JUMPDEST SWAP3 SWAP2 POP POP JUMP JUMPDEST PUSH0 PUSH1 0x20 DUP3 DUP5 SUB SLT ISZERO PUSH2 0x474B JUMPI PUSH2 0x474A PUSH2 0x335C JUMP JUMPDEST JUMPDEST PUSH0 PUSH2 0x4758 DUP5 DUP3 DUP6 ADD PUSH2 0x4722 JUMP JUMPDEST SWAP2 POP POP SWAP3 SWAP2 POP POP JUMP JUMPDEST PUSH32 0x53656E6465722068617320696E73756666696369656E7420746F6B656E732066 PUSH0 DUP3 ADD MSTORE PUSH32 0x6F72207472616E73616374696F6E2E0000000000000000000000000000000000 PUSH1 0x20 DUP3 ADD MSTORE POP JUMP JUMPDEST PUSH0 PUSH2 0x47BB PUSH1 0x2F DUP4 PUSH2 0x3B7D JUMP JUMPDEST SWAP2 POP PUSH2 0x47C6 DUP3 PUSH2 0x4761 JUMP JUMPDEST PUSH1 0x40 DUP3 ADD SWAP1 POP SWAP2 SWAP1 POP JUMP JUMPDEST PUSH0 PUSH1 0x20 DUP3 ADD SWAP1 POP DUP2 DUP2 SUB PUSH0 DUP4 ADD MSTORE PUSH2 0x47E8 DUP2 PUSH2 0x47AF JUMP JUMPDEST SWAP1 POP SWAP2 SWAP1 POP JUMP JUMPDEST PUSH32 0x526563656976657220646F6573206E6F74206861766520656E6F75676820656E PUSH0 DUP3 ADD MSTORE PUSH32 0x657267792E000000000000000000000000000000000000000000000000000000 PUSH1 0x20 DUP3 ADD MSTORE POP JUMP JUMPDEST PUSH0 PUSH2 0x4849 PUSH1 0x25 DUP4 PUSH2 0x3B7D JUMP JUMPDEST SWAP2 POP PUSH2 0x4854 DUP3 PUSH2 0x47EF JUMP JUMPDEST PUSH1 0x40 DUP3 ADD SWAP1 POP SWAP2 SWAP1 POP JUMP JUMPDEST PUSH0 PUSH1 0x20 DUP3 ADD SWAP1 POP DUP2 DUP2 SUB PUSH0 DUP4 ADD MSTORE PUSH2 0x4876 DUP2 PUSH2 0x483D JUMP JUMPDEST SWAP1 POP SWAP2 SWAP1 POP JUMP JUMPDEST PUSH32 0x53656E6465722068617320696E73756666696369656E7420656E657267792066 PUSH0 DUP3 ADD MSTORE PUSH32 0x6F72207472616E73616374696F6E2E0000000000000000000000000000000000 PUSH1 0x20 DUP3 ADD MSTORE POP JUMP JUMPDEST PUSH0 PUSH2 0x48D7 PUSH1 0x2F DUP4 PUSH2 0x3B7D JUMP JUMPDEST SWAP2 POP PUSH2 0x48E2 DUP3 PUSH2 0x487D JUMP JUMPDEST PUSH1 0x40 DUP3 ADD SWAP1 POP SWAP2 SWAP1 POP JUMP JUMPDEST PUSH0 PUSH1 0x20 DUP3 ADD SWAP1 POP DUP2 DUP2 SUB PUSH0 DUP4 ADD MSTORE PUSH2 0x4904 DUP2 PUSH2 0x48CB JUMP JUMPDEST SWAP1 POP SWAP2 SWAP1 POP JUMP JUMPDEST PUSH32 0x52656365697665722068617320696E73756666696369656E7420746F6B656E73 PUSH0 DUP3 ADD MSTORE PUSH32 0x20666F72207472616E73616374696F6E2E000000000000000000000000000000 PUSH1 0x20 DUP3 ADD MSTORE POP JUMP JUMPDEST PUSH0 PUSH2 0x4965 PUSH1 0x31 DUP4 PUSH2 0x3B7D JUMP JUMPDEST SWAP2 POP PUSH2 0x4970 DUP3 PUSH2 0x490B JUMP JUMPDEST PUSH1 0x40 DUP3 ADD SWAP1 POP SWAP2 SWAP1 POP JUMP JUMPDEST PUSH0 PUSH1 0x20 DUP3 ADD SWAP1 POP DUP2 DUP2 SUB PUSH0 DUP4 ADD MSTORE PUSH2 0x4992 DUP2 PUSH2 0x4959 JUMP JUMPDEST SWAP1 POP SWAP2 SWAP1 POP JUMP JUMPDEST PUSH0 PUSH1 0x60 DUP3 ADD SWAP1 POP PUSH2 0x49AC PUSH0 DUP4 ADD DUP7 PUSH2 0x33F2 JUMP JUMPDEST PUSH2 0x49B9 PUSH1 0x20 DUP4 ADD DUP6 PUSH2 0x3B5F JUMP JUMPDEST PUSH2 0x49C6 PUSH1 0x40 DUP4 ADD DUP5 PUSH2 0x3C29 JUMP JUMPDEST SWAP5 SWAP4 POP POP POP POP JUMP JUMPDEST PUSH0 PUSH2 0x49D8 DUP3 PUSH2 0x33E9 JUMP JUMPDEST SWAP2 POP PUSH2 0x49E3 DUP4 PUSH2 0x33E9 JUMP JUMPDEST SWAP3 POP DUP3 DUP3 SUB SWAP1 POP DUP2 DUP2 GT ISZERO PUSH2 0x49FB JUMPI PUSH2 0x49FA PUSH2 0x3F47 JUMP JUMPDEST JUMPDEST SWAP3 SWAP2 POP POP JUMP JUMPDEST PUSH0 PUSH8 0xFFFFFFFFFFFFFFFF DUP3 GT ISZERO PUSH2 0x4A1B JUMPI PUSH2 0x4A1A PUSH2 0x39BB JUMP JUMPDEST JUMPDEST PUSH1 0x20 DUP3 MUL SWAP1 POP PUSH1 0x20 DUP2 ADD SWAP1 POP SWAP2 SWAP1 POP JUMP JUMPDEST PUSH0 DUP1 REVERT JUMPDEST PUSH0 DUP2 MLOAD SWAP1 POP PUSH2 0x4A3E DUP2 PUSH2 0x3394 JUMP JUMPDEST SWAP3 SWAP2 POP POP JUMP JUMPDEST PUSH0 PUSH2 0x4A56 PUSH2 0x4A51 DUP5 PUSH2 0x4A01 JUMP JUMPDEST PUSH2 0x3A19 JUMP JUMPDEST SWAP1 POP DUP1 DUP4 DUP3 MSTORE PUSH1 0x20 DUP3 ADD SWAP1 POP PUSH1 0x20 DUP5 MUL DUP4 ADD DUP6 DUP2 GT ISZERO PUSH2 0x4A79 JUMPI PUSH2 0x4A78 PUSH2 0x4A2C JUMP JUMPDEST JUMPDEST DUP4 JUMPDEST DUP2 DUP2 LT ISZERO PUSH2 0x4AA2 JUMPI DUP1 PUSH2 0x4A8E DUP9 DUP3 PUSH2 0x4A30 JUMP JUMPDEST DUP5 MSTORE PUSH1 0x20 DUP5 ADD SWAP4 POP POP PUSH1 0x20 DUP2 ADD SWAP1 POP PUSH2 0x4A7B JUMP JUMPDEST POP POP POP SWAP4 SWAP3 POP POP POP JUMP JUMPDEST PUSH0 DUP3 PUSH1 0x1F DUP4 ADD SLT PUSH2 0x4AC0 JUMPI PUSH2 0x4ABF PUSH2 0x39B3 JUMP JUMPDEST JUMPDEST DUP2 MLOAD PUSH2 0x4AD0 DUP5 DUP3 PUSH1 0x20 DUP7 ADD PUSH2 0x4A44 JUMP JUMPDEST SWAP2 POP POP SWAP3 SWAP2 POP POP JUMP JUMPDEST PUSH0 PUSH1 0x20 DUP3 DUP5 SUB SLT ISZERO PUSH2 0x4AEE JUMPI PUSH2 0x4AED PUSH2 0x335C JUMP JUMPDEST JUMPDEST PUSH0 DUP3 ADD MLOAD PUSH8 0xFFFFFFFFFFFFFFFF DUP2 GT ISZERO PUSH2 0x4B0B JUMPI PUSH2 0x4B0A PUSH2 0x3360 JUMP JUMPDEST JUMPDEST PUSH2 0x4B17 DUP5 DUP3 DUP6 ADD PUSH2 0x4AAC JUMP JUMPDEST SWAP2 POP POP SWAP3 SWAP2 POP POP JUMP JUMPDEST PUSH0 PUSH2 0x4B32 PUSH2 0x4B2D DUP5 PUSH2 0x3A33 JUMP JUMPDEST PUSH2 0x3A19 JUMP JUMPDEST SWAP1 POP DUP3 DUP2 MSTORE PUSH1 0x20 DUP2 ADD DUP5 DUP5 DUP5 ADD GT ISZERO PUSH2 0x4B4E JUMPI PUSH2 0x4B4D PUSH2 0x39B7 JUMP JUMPDEST JUMPDEST PUSH2 0x4B59 DUP5 DUP3 DUP6 PUSH2 0x34E0 JUMP JUMPDEST POP SWAP4 SWAP3 POP POP POP JUMP JUMPDEST PUSH0 DUP3 PUSH1 0x1F DUP4 ADD SLT PUSH2 0x4B75 JUMPI PUSH2 0x4B74 PUSH2 0x39B3 JUMP JUMPDEST JUMPDEST DUP2 MLOAD PUSH2 0x4B85 DUP5 DUP3 PUSH1 0x20 DUP7 ADD PUSH2 0x4B20 JUMP JUMPDEST SWAP2 POP POP SWAP3 SWAP2 POP POP JUMP JUMPDEST PUSH2 0x4B97 DUP2 PUSH2 0x380B JUMP JUMPDEST DUP2 EQ PUSH2 0x4BA1 JUMPI PUSH0 DUP1 REVERT JUMPDEST POP JUMP JUMPDEST PUSH0 DUP2 MLOAD SWAP1 POP PUSH2 0x4BB2 DUP2 PUSH2 0x4B8E JUMP JUMPDEST SWAP3 SWAP2 POP POP JUMP JUMPDEST PUSH0 DUP1 PUSH0 DUP1 PUSH0 DUP1 PUSH0 PUSH1 0xE0 DUP9 DUP11 SUB SLT ISZERO PUSH2 0x4BD3 JUMPI PUSH2 0x4BD2 PUSH2 0x335C JUMP JUMPDEST JUMPDEST PUSH0 PUSH2 0x4BE0 DUP11 DUP3 DUP12 ADD PUSH2 0x4A30 JUMP JUMPDEST SWAP8 POP POP PUSH1 0x20 DUP9 ADD MLOAD PUSH8 0xFFFFFFFFFFFFFFFF DUP2 GT ISZERO PUSH2 0x4C01 JUMPI PUSH2 0x4C00 PUSH2 0x3360 JUMP JUMPDEST JUMPDEST PUSH2 0x4C0D DUP11 DUP3 DUP12 ADD PUSH2 0x4B61 JUMP JUMPDEST SWAP7 POP POP PUSH1 0x40 PUSH2 0x4C1E DUP11 DUP3 DUP12 ADD PUSH2 0x4722 JUMP JUMPDEST SWAP6 POP POP PUSH1 0x60 PUSH2 0x4C2F DUP11 DUP3 DUP12 ADD PUSH2 0x4BA4 JUMP JUMPDEST SWAP5 POP POP PUSH1 0x80 PUSH2 0x4C40 DUP11 DUP3 DUP12 ADD PUSH2 0x4BA4 JUMP JUMPDEST SWAP4 POP POP PUSH1 0xA0 PUSH2 0x4C51 DUP11 DUP3 DUP12 ADD PUSH2 0x4722 JUMP JUMPDEST SWAP3 POP POP PUSH1 0xC0 PUSH2 0x4C62 DUP11 DUP3 DUP12 ADD PUSH2 0x44F6 JUMP JUMPDEST SWAP2 POP POP SWAP3 SWAP6 SWAP9 SWAP2 SWAP5 SWAP8 POP SWAP3 SWAP6 POP JUMP JUMPDEST PUSH0 PUSH1 0x80 DUP3 ADD SWAP1 POP DUP2 DUP2 SUB PUSH0 DUP4 ADD MSTORE PUSH2 0x4C89 DUP2 DUP8 PUSH2 0x3B8D JUMP JUMPDEST SWAP1 POP PUSH2 0x4C98 PUSH1 0x20 DUP4 ADD DUP7 PUSH2 0x33F2 JUMP JUMPDEST PUSH2 0x4CA5 PUSH1 0x40 DUP4 ADD DUP6 PUSH2 0x33F2 JUMP JUMPDEST PUSH2 0x4CB2 PUSH1 0x60 DUP4 ADD DUP5 PUSH2 0x33F2 JUMP JUMPDEST SWAP6 SWAP5 POP POP POP POP POP JUMP JUMPDEST PUSH32 0x4E487B7100000000000000000000000000000000000000000000000000000000 PUSH0 MSTORE PUSH1 0x31 PUSH1 0x4 MSTORE PUSH1 0x24 PUSH0 REVERT INVALID LOG2 PUSH5 0x6970667358 0x22 SLT KECCAK256 0xA8 GAS 0xD 0xFC JUMP DUP14 CREATE2 0xD4 LOG1 PC 0xE5 PUSH20 0x728132FDDF39583D686A36D5E9A6BBB06F188448 PUSH5 0x736F6C6343 STOP ADDMOD XOR STOP CALLER "
		},
		"gasEstimates": {
			"creation": {
				"codeDepositCost": "3948400",
				"executionCost": "infinite",
				"totalCost": "infinite"
			},
			"external": {
				"admin()": "2618",
				"approveTokens(uint256)": "infinite",
				"commitTransaction(uint256,bool)": "infinite",
				"getActiveTraders()": "infinite",
				"getAllCommittedTransactions()": "infinite",
				"getAllPendingTransactions()": "infinite",
				"getAllUserTransactions(address)": "infinite",
				"getNotCommittedTransactionsCount(address)": "infinite",
				"getNumberOfNotCommittedTransactions()": "2484",
				"getTradingInfo(address)": "infinite",
				"getUserCommittedTransactions(address)": "infinite",
				"getUserPendingTransactions(address)": "infinite",
				"getUserTokenBalance(address)": "infinite",
				"initiateTransaction(address,address,uint256,uint256,uint256,bool)": "infinite",
				"pendingTransactions(uint256)": "infinite",
				"tradingInfos(address)": "infinite",
				"transactions(uint256)": "infinite",
				"updateTradingUserInfo(string,uint256,uint256,uint256)": "infinite",
				"userManager()": "infinite"
			},
			"internal": {
				"initializeTradingInfo(address)": "infinite",
				"isTradingActive(string memory)": "infinite",
				"removePendingTransaction(uint256)": "infinite"
			}
		},
		"methodIdentifiers": {
			"admin()": "f851a440",
			"approveTokens(uint256)": "220646ce",
			"commitTransaction(uint256,bool)": "0b0f9dc3",
			"getActiveTraders()": "71569199",
			"getAllCommittedTransactions()": "b1fce8c3",
			"getAllPendingTransactions()": "a9878c62",
			"getAllUserTransactions(address)": "4dd87af7",
			"getNotCommittedTransactionsCount(address)": "04be1ef2",
			"getNumberOfNotCommittedTransactions()": "c0fa3f4b",
			"getTradingInfo(address)": "0e947bd8",
			"getUserCommittedTransactions(address)": "586fb58e",
			"getUserPendingTransactions(address)": "9e83e306",
			"getUserTokenBalance(address)": "f5aec88c",
			"initiateTransaction(address,address,uint256,uint256,uint256,bool)": "4439a702",
			"pendingTransactions(uint256)": "63a8374d",
			"tradingInfos(address)": "c33277e3",
			"transactions(uint256)": "9ace38c2",
			"updateTradingUserInfo(string,uint256,uint256,uint256)": "767ce2dd",
			"userManager()": "5c8a7687"
		}
	},
	"abi": [
		{
			"inputs": [
				{
					"internalType": "address",
					"name": "userManagerAddress",
					"type": "address"
				}
			],
			"stateMutability": "nonpayable",
			"type": "constructor"
		},
		{
			"anonymous": false,
			"inputs": [
				{
					"indexed": true,
					"internalType": "address",
					"name": "userAddress",
					"type": "address"
				},
				{
					"indexed": false,
					"internalType": "string",
					"name": "tradingStatus",
					"type": "string"
				},
				{
					"indexed": false,
					"internalType": "uint256",
					"name": "expiryDate",
					"type": "uint256"
				},
				{
					"indexed": false,
					"internalType": "uint256",
					"name": "buySellAmount",
					"type": "uint256"
				},
				{
					"indexed": false,
					"internalType": "uint256",
					"name": "price",
					"type": "uint256"
				}
			],
			"name": "TradingInfoUpdated",
			"type": "event"
		},
		{
			"anonymous": false,
			"inputs": [
				{
					"indexed": false,
					"internalType": "uint256",
					"name": "transactionId",
					"type": "uint256"
				},
				{
					"indexed": false,
					"internalType": "bool",
					"name": "accepted",
					"type": "bool"
				},
				{
					"indexed": false,
					"internalType": "string",
					"name": "status",
					"type": "string"
				}
			],
			"name": "TransactionCommitted",
			"type": "event"
		},
		{
			"anonymous": false,
			"inputs": [
				{
					"indexed": false,
					"internalType": "uint256",
					"name": "transactionId",
					"type": "uint256"
				},
				{
					"indexed": false,
					"internalType": "address",
					"name": "receiver",
					"type": "address"
				},
				{
					"indexed": false,
					"internalType": "enum EnergyTransactionManager.TransactionType",
					"name": "transactionType",
					"type": "uint8"
				}
			],
			"name": "TransactionInitiated",
			"type": "event"
		},
		{
			"inputs": [],
			"name": "admin",
			"outputs": [
				{
					"internalType": "address",
					"name": "",
					"type": "address"
				}
			],
			"stateMutability": "view",
			"type": "function"
		},
		{
			"inputs": [
				{
					"internalType": "uint256",
					"name": "amount",
					"type": "uint256"
				}
			],
			"name": "approveTokens",
			"outputs": [],
			"stateMutability": "nonpayable",
			"type": "function"
		},
		{
			"inputs": [
				{
					"internalType": "uint256",
					"name": "_transactionId",
					"type": "uint256"
				},
				{
					"internalType": "bool",
					"name": "_accepted",
					"type": "bool"
				}
			],
			"name": "commitTransaction",
			"outputs": [],
			"stateMutability": "nonpayable",
			"type": "function"
		},
		{
			"inputs": [],
			"name": "getActiveTraders",
			"outputs": [
				{
					"components": [
						{
							"internalType": "address",
							"name": "userAddress",
							"type": "address"
						},
						{
							"internalType": "string",
							"name": "username",
							"type": "string"
						},
						{
							"internalType": "uint256",
							"name": "EGYTokenBalance",
							"type": "uint256"
						},
						{
							"internalType": "uint256",
							"name": "energyBalance",
							"type": "uint256"
						},
						{
							"internalType": "int256",
							"name": "latitude",
							"type": "int256"
						},
						{
							"internalType": "int256",
							"name": "longitude",
							"type": "int256"
						},
						{
							"internalType": "string",
							"name": "tradingStatus",
							"type": "string"
						},
						{
							"internalType": "uint256",
							"name": "buySellAmount",
							"type": "uint256"
						},
						{
							"internalType": "uint256",
							"name": "price",
							"type": "uint256"
						},
						{
							"internalType": "uint256",
							"name": "expiryDate",
							"type": "uint256"
						}
					],
					"internalType": "struct EnergyTransactionManager.CombinedUserInfo[]",
					"name": "",
					"type": "tuple[]"
				}
			],
			"stateMutability": "view",
			"type": "function"
		},
		{
			"inputs": [],
			"name": "getAllCommittedTransactions",
			"outputs": [
				{
					"components": [
						{
							"internalType": "uint256",
							"name": "id",
							"type": "uint256"
						},
						{
							"internalType": "address",
							"name": "initiator",
							"type": "address"
						},
						{
							"internalType": "address",
							"name": "receiver",
							"type": "address"
						},
						{
							"internalType": "uint256",
							"name": "energyAmount",
							"type": "uint256"
						},
						{
							"internalType": "uint256",
							"name": "price",
							"type": "uint256"
						},
						{
							"internalType": "uint256",
							"name": "validUntil",
							"type": "uint256"
						},
						{
							"internalType": "bool",
							"name": "committed",
							"type": "bool"
						},
						{
							"internalType": "string",
							"name": "status",
							"type": "string"
						},
						{
							"internalType": "uint256",
							"name": "initialDate",
							"type": "uint256"
						},
						{
							"internalType": "enum EnergyTransactionManager.TransactionType",
							"name": "transactionType",
							"type": "uint8"
						}
					],
					"internalType": "struct EnergyTransactionManager.Transaction[]",
					"name": "",
					"type": "tuple[]"
				}
			],
			"stateMutability": "view",
			"type": "function"
		},
		{
			"inputs": [],
			"name": "getAllPendingTransactions",
			"outputs": [
				{
					"components": [
						{
							"internalType": "uint256",
							"name": "id",
							"type": "uint256"
						},
						{
							"internalType": "address",
							"name": "initiator",
							"type": "address"
						},
						{
							"internalType": "address",
							"name": "receiver",
							"type": "address"
						},
						{
							"internalType": "uint256",
							"name": "energyAmount",
							"type": "uint256"
						},
						{
							"internalType": "uint256",
							"name": "price",
							"type": "uint256"
						},
						{
							"internalType": "uint256",
							"name": "validUntil",
							"type": "uint256"
						},
						{
							"internalType": "bool",
							"name": "committed",
							"type": "bool"
						},
						{
							"internalType": "string",
							"name": "status",
							"type": "string"
						},
						{
							"internalType": "uint256",
							"name": "initialDate",
							"type": "uint256"
						},
						{
							"internalType": "enum EnergyTransactionManager.TransactionType",
							"name": "transactionType",
							"type": "uint8"
						}
					],
					"internalType": "struct EnergyTransactionManager.Transaction[]",
					"name": "",
					"type": "tuple[]"
				}
			],
			"stateMutability": "view",
			"type": "function"
		},
		{
			"inputs": [
				{
					"internalType": "address",
					"name": "userAddress",
					"type": "address"
				}
			],
			"name": "getAllUserTransactions",
			"outputs": [
				{
					"internalType": "uint256[]",
					"name": "",
					"type": "uint256[]"
				}
			],
			"stateMutability": "view",
			"type": "function"
		},
		{
			"inputs": [
				{
					"internalType": "address",
					"name": "userAddress",
					"type": "address"
				}
			],
			"name": "getNotCommittedTransactionsCount",
			"outputs": [
				{
					"internalType": "uint256",
					"name": "",
					"type": "uint256"
				}
			],
			"stateMutability": "view",
			"type": "function"
		},
		{
			"inputs": [],
			"name": "getNumberOfNotCommittedTransactions",
			"outputs": [
				{
					"internalType": "uint256",
					"name": "",
					"type": "uint256"
				}
			],
			"stateMutability": "view",
			"type": "function"
		},
		{
			"inputs": [
				{
					"internalType": "address",
					"name": "userAddress",
					"type": "address"
				}
			],
			"name": "getTradingInfo",
			"outputs": [
				{
					"components": [
						{
							"internalType": "address",
							"name": "userAddress",
							"type": "address"
						},
						{
							"internalType": "string",
							"name": "tradingStatus",
							"type": "string"
						},
						{
							"internalType": "uint256",
							"name": "buySellAmount",
							"type": "uint256"
						},
						{
							"internalType": "uint256",
							"name": "price",
							"type": "uint256"
						},
						{
							"internalType": "uint256",
							"name": "expiryDate",
							"type": "uint256"
						}
					],
					"internalType": "struct EnergyTransactionManager.TradingInfo",
					"name": "",
					"type": "tuple"
				}
			],
			"stateMutability": "view",
			"type": "function"
		},
		{
			"inputs": [
				{
					"internalType": "address",
					"name": "userAddress",
					"type": "address"
				}
			],
			"name": "getUserCommittedTransactions",
			"outputs": [
				{
					"internalType": "uint256[]",
					"name": "",
					"type": "uint256[]"
				}
			],
			"stateMutability": "view",
			"type": "function"
		},
		{
			"inputs": [
				{
					"internalType": "address",
					"name": "userAddress",
					"type": "address"
				}
			],
			"name": "getUserPendingTransactions",
			"outputs": [
				{
					"internalType": "uint256[]",
					"name": "",
					"type": "uint256[]"
				}
			],
			"stateMutability": "view",
			"type": "function"
		},
		{
			"inputs": [
				{
					"internalType": "address",
					"name": "userAddress",
					"type": "address"
				}
			],
			"name": "getUserTokenBalance",
			"outputs": [
				{
					"internalType": "uint256",
					"name": "",
					"type": "uint256"
				}
			],
			"stateMutability": "view",
			"type": "function"
		},
		{
			"inputs": [
				{
					"internalType": "address",
					"name": "_sender",
					"type": "address"
				},
				{
					"internalType": "address",
					"name": "receiver",
					"type": "address"
				},
				{
					"internalType": "uint256",
					"name": "_energyAmount",
					"type": "uint256"
				},
				{
					"internalType": "uint256",
					"name": "_price",
					"type": "uint256"
				},
				{
					"internalType": "uint256",
					"name": "_validUntil",
					"type": "uint256"
				},
				{
					"internalType": "bool",
					"name": "isBuyTransaction",
					"type": "bool"
				}
			],
			"name": "initiateTransaction",
			"outputs": [],
			"stateMutability": "nonpayable",
			"type": "function"
		},
		{
			"inputs": [
				{
					"internalType": "uint256",
					"name": "",
					"type": "uint256"
				}
			],
			"name": "pendingTransactions",
			"outputs": [
				{
					"internalType": "uint256",
					"name": "",
					"type": "uint256"
				}
			],
			"stateMutability": "view",
			"type": "function"
		},
		{
			"inputs": [
				{
					"internalType": "address",
					"name": "",
					"type": "address"
				}
			],
			"name": "tradingInfos",
			"outputs": [
				{
					"internalType": "address",
					"name": "userAddress",
					"type": "address"
				},
				{
					"internalType": "string",
					"name": "tradingStatus",
					"type": "string"
				},
				{
					"internalType": "uint256",
					"name": "buySellAmount",
					"type": "uint256"
				},
				{
					"internalType": "uint256",
					"name": "price",
					"type": "uint256"
				},
				{
					"internalType": "uint256",
					"name": "expiryDate",
					"type": "uint256"
				}
			],
			"stateMutability": "view",
			"type": "function"
		},
		{
			"inputs": [
				{
					"internalType": "uint256",
					"name": "",
					"type": "uint256"
				}
			],
			"name": "transactions",
			"outputs": [
				{
					"internalType": "uint256",
					"name": "id",
					"type": "uint256"
				},
				{
					"internalType": "address",
					"name": "initiator",
					"type": "address"
				},
				{
					"internalType": "address",
					"name": "receiver",
					"type": "address"
				},
				{
					"internalType": "uint256",
					"name": "energyAmount",
					"type": "uint256"
				},
				{
					"internalType": "uint256",
					"name": "price",
					"type": "uint256"
				},
				{
					"internalType": "uint256",
					"name": "validUntil",
					"type": "uint256"
				},
				{
					"internalType": "bool",
					"name": "committed",
					"type": "bool"
				},
				{
					"internalType": "string",
					"name": "status",
					"type": "string"
				},
				{
					"internalType": "uint256",
					"name": "initialDate",
					"type": "uint256"
				},
				{
					"internalType": "enum EnergyTransactionManager.TransactionType",
					"name": "transactionType",
					"type": "uint8"
				}
			],
			"stateMutability": "view",
			"type": "function"
		},
		{
			"inputs": [
				{
					"internalType": "string",
					"name": "_tradingStatus",
					"type": "string"
				},
				{
					"internalType": "uint256",
					"name": "_expiryDate",
					"type": "uint256"
				},
				{
					"internalType": "uint256",
					"name": "_buySellAmount",
					"type": "uint256"
				},
				{
					"internalType": "uint256",
					"name": "_price",
					"type": "uint256"
				}
			],
			"name": "updateTradingUserInfo",
			"outputs": [],
			"stateMutability": "nonpayable",
			"type": "function"
		},
		{
			"inputs": [],
			"name": "userManager",
			"outputs": [
				{
					"internalType": "contract UserManager",
					"name": "",
					"type": "address"
				}
			],
			"stateMutability": "view",
			"type": "function"
		}
	]
}