{
	"data": {
		"bytecode": {
			"linkReferences": {},
			"object": "6080604052600160045534801562000015575f80fd5b506040516200574b3803806200574b83398181016040528101906200003b919062000126565b3360035f6101000a81548173ffffffffffffffffffffffffffffffffffffffff021916908373ffffffffffffffffffffffffffffffffffffffff160217905550805f806101000a81548173ffffffffffffffffffffffffffffffffffffffff021916908373ffffffffffffffffffffffffffffffffffffffff1602179055505062000156565b5f80fd5b5f73ffffffffffffffffffffffffffffffffffffffff82169050919050565b5f620000f082620000c5565b9050919050565b6200010281620000e4565b81146200010d575f80fd5b50565b5f815190506200012081620000f7565b92915050565b5f602082840312156200013e576200013d620000c1565b5b5f6200014d8482850162000110565b91505092915050565b6155e780620001645f395ff3fe608060405234801561000f575f80fd5b5060043610610156575f3560e01c80639ace38c2116100c1578063b1fce8c31161007a578063b1fce8c314610418578063c0fa3f4b14610436578063c3bcf19214610454578063f5aec88c14610472578063f851a440146104a2578063fc0c546a146104c057610156565b80639ace38c2146103225780639e83e3061461035a578063a591efde1461038a578063a87430ba146103a8578063a9878c62146103de578063af7ccfa7146103fc57610156565b80634dd87af7116101135780634dd87af71461022a578063586fb58e1461025a5780635c60f2261461028a5780636386c1c7146102a657806363a8374d146102d657806392d9c36f1461030657610156565b806304be1ef21461015a5780630b0f9dc31461018a578063163f7522146101a6578063220646ce146101d65780634439a702146101f25780634bc482401461020e575b5f80fd5b610174600480360381019061016f9190613959565b6104de565b604051610181919061399c565b60405180910390f35b6101a4600480360381019061019f9190613a14565b6105ba565b005b6101c060048036038101906101bb9190613959565b61124d565b6040516101cd9190613a61565b60405180910390f35b6101f060048036038101906101eb9190613a7a565b6112a2565b005b61020c60048036038101906102079190613aa5565b611340565b005b61022860048036038101906102239190613c9d565b6119db565b005b610244600480360381019061023f9190613959565b611d27565b6040516102519190613dd4565b60405180910390f35b610274600480360381019061026f9190613959565b611f4a565b6040516102819190613dd4565b60405180910390f35b6102a4600480360381019061029f9190613959565b612190565b005b6102c060048036038101906102bb9190613959565b612550565b6040516102cd9190613f34565b60405180910390f35b6102f060048036038101906102eb9190613a7a565b612759565b6040516102fd919061399c565b60405180910390f35b610320600480360381019061031b9190613c9d565b612779565b005b61033c60048036038101906103379190613a7a565b6128cd565b6040516103519998979695949392919061401e565b60405180910390f35b610374600480360381019061036f9190613959565b6129f3565b6040516103819190613dd4565b60405180910390f35b610392612c60565b60405161039f9190614158565b60405180910390f35b6103c260048036038101906103bd9190613959565b612ceb565b6040516103d59796959493929190614187565b60405180910390f35b6103e6612dda565b6040516103f39190614387565b60405180910390f35b610416600480360381019061041191906143a7565b613068565b005b61042061313d565b60405161042d9190614387565b60405180910390f35b61043e6133cb565b60405161044b919061399c565b60405180910390f35b61045c6133d7565b6040516104699190614539565b60405180910390f35b61048c60048036038101906104879190613959565b613620565b604051610499919061399c565b60405180910390f35b6104aa6136c0565b6040516104b79190614559565b60405180910390f35b6104c86136e5565b6040516104d591906145cd565b60405180910390f35b5f805f90505f5b6006805490508110156105b0575f60055f6006848154811061050a576105096145e6565b5b905f5260205f20015481526020019081526020015f2090508473ffffffffffffffffffffffffffffffffffffffff16816001015f9054906101000a900473ffffffffffffffffffffffffffffffffffffffff1673ffffffffffffffffffffffffffffffffffffffff1614801561058e5750806006015f9054906101000a900460ff16155b156105a257828061059e90614640565b9350505b5080806001019150506104e5565b5080915050919050565b600454821080156105de57505f60055f8481526020019081526020015f205f015414155b61061d576040517f08c379a0000000000000000000000000000000000000000000000000000000008152600401610614906146d1565b60405180910390fd5b60055f8381526020019081526020015f206006015f9054906101000a900460ff161561067e576040517f08c379a000000000000000000000000000000000000000000000000000000000815260040161067590614739565b60405180910390fd5b60055f8381526020019081526020015f206005015442111561076457600160055f8481526020019081526020015f206006015f6101000a81548160ff0219169083151502179055506040518060400160405280601a81526020017f52656a65637465642064756520746f2065787069726174696f6e00000000000081525060055f8481526020019081526020015f20600701908161071c9190614948565b507fb6cdb9654a453b960ec5fe6f18502a3f0dd823ed74ddc4f68a16b3210265ea5b825f60405161074e929190614a61565b60405180910390a161075f82613708565b611249565b600160055f8481526020019081526020015f206006015f6101000a81548160ff021916908315150217905550806107d0576040518060400160405280600881526020017f52656a6563746564000000000000000000000000000000000000000000000000815250610807565b6040518060400160405280600881526020017f41636365707465640000000000000000000000000000000000000000000000008152505b60055f8481526020019081526020015f2060070190816108279190614948565b5061083182613708565b600782908060018154018082558091505060019003905f5260205f20015f909190919091505580156111fa575f60055f8481526020019081526020015f2090505f600181111561088457610883613fab565b5b816008015f9054906101000a900460ff1660018111156108a7576108a6613fab565b5b03610d365780600401545f8054906101000a900473ffffffffffffffffffffffffffffffffffffffff1673ffffffffffffffffffffffffffffffffffffffff166370a08231836001015f9054906101000a900473ffffffffffffffffffffffffffffffffffffffff166040518263ffffffff1660e01b815260040161092c9190614559565b602060405180830381865afa158015610947573d5f803e3d5ffd5b505050506040513d601f19601f8201168201806040525081019061096b9190614aaf565b10156109ac576040517f08c379a00000000000000000000000000000000000000000000000000000000081526004016109a390614b4a565b60405180910390fd5b806003015460025f836002015f9054906101000a900473ffffffffffffffffffffffffffffffffffffffff1673ffffffffffffffffffffffffffffffffffffffff1673ffffffffffffffffffffffffffffffffffffffff1681526020019081526020015f20600501541015610a56576040517f08c379a0000000000000000000000000000000000000000000000000000000008152600401610a4d90614bd8565b60405180910390fd5b5f8054906101000a900473ffffffffffffffffffffffffffffffffffffffff1673ffffffffffffffffffffffffffffffffffffffff166323b872dd826001015f9054906101000a900473ffffffffffffffffffffffffffffffffffffffff16836002015f9054906101000a900473ffffffffffffffffffffffffffffffffffffffff1684600401546040518463ffffffff1660e01b8152600401610afc93929190614bf6565b6020604051808303815f875af1158015610b18573d5f803e3d5ffd5b505050506040513d601f19601f82011682018060405250810190610b3c9190614c3f565b50806004015460025f836001015f9054906101000a900473ffffffffffffffffffffffffffffffffffffffff1673ffffffffffffffffffffffffffffffffffffffff1673ffffffffffffffffffffffffffffffffffffffff1681526020019081526020015f206002015f828254610bb39190614c6a565b92505081905550806004015460025f836002015f9054906101000a900473ffffffffffffffffffffffffffffffffffffffff1673ffffffffffffffffffffffffffffffffffffffff1673ffffffffffffffffffffffffffffffffffffffff1681526020019081526020015f206002015f828254610c309190614c9d565b92505081905550806003015460025f836001015f9054906101000a900473ffffffffffffffffffffffffffffffffffffffff1673ffffffffffffffffffffffffffffffffffffffff1673ffffffffffffffffffffffffffffffffffffffff1681526020019081526020015f206005015f828254610cad9190614c9d565b92505081905550806003015460025f836002015f9054906101000a900473ffffffffffffffffffffffffffffffffffffffff1673ffffffffffffffffffffffffffffffffffffffff1673ffffffffffffffffffffffffffffffffffffffff1681526020019081526020015f206005015f828254610d2a9190614c6a565b925050819055506111f8565b600180811115610d4957610d48613fab565b5b816008015f9054906101000a900460ff166001811115610d6c57610d6b613fab565b5b036111f75780600401545f8054906101000a900473ffffffffffffffffffffffffffffffffffffffff1673ffffffffffffffffffffffffffffffffffffffff166370a08231836002015f9054906101000a900473ffffffffffffffffffffffffffffffffffffffff166040518263ffffffff1660e01b8152600401610df19190614559565b602060405180830381865afa158015610e0c573d5f803e3d5ffd5b505050506040513d601f19601f82011682018060405250810190610e309190614aaf565b1015610e71576040517f08c379a0000000000000000000000000000000000000000000000000000000008152600401610e6890614d40565b60405180910390fd5b806003015460025f836001015f9054906101000a900473ffffffffffffffffffffffffffffffffffffffff1673ffffffffffffffffffffffffffffffffffffffff1673ffffffffffffffffffffffffffffffffffffffff1681526020019081526020015f20600501541015610f1b576040517f08c379a0000000000000000000000000000000000000000000000000000000008152600401610f1290614dce565b60405180910390fd5b5f8054906101000a900473ffffffffffffffffffffffffffffffffffffffff1673ffffffffffffffffffffffffffffffffffffffff166323b872dd826002015f9054906101000a900473ffffffffffffffffffffffffffffffffffffffff16836001015f9054906101000a900473ffffffffffffffffffffffffffffffffffffffff1684600401546040518463ffffffff1660e01b8152600401610fc193929190614bf6565b6020604051808303815f875af1158015610fdd573d5f803e3d5ffd5b505050506040513d601f19601f820116820180604052508101906110019190614c3f565b50806004015460025f836001015f9054906101000a900473ffffffffffffffffffffffffffffffffffffffff1673ffffffffffffffffffffffffffffffffffffffff1673ffffffffffffffffffffffffffffffffffffffff1681526020019081526020015f206002015f8282546110789190614c9d565b92505081905550806004015460025f836002015f9054906101000a900473ffffffffffffffffffffffffffffffffffffffff1673ffffffffffffffffffffffffffffffffffffffff1673ffffffffffffffffffffffffffffffffffffffff1681526020019081526020015f206002015f8282546110f59190614c6a565b92505081905550806003015460025f836001015f9054906101000a900473ffffffffffffffffffffffffffffffffffffffff1673ffffffffffffffffffffffffffffffffffffffff1673ffffffffffffffffffffffffffffffffffffffff1681526020019081526020015f206005015f8282546111729190614c6a565b92505081905550806003015460025f836002015f9054906101000a900473ffffffffffffffffffffffffffffffffffffffff1673ffffffffffffffffffffffffffffffffffffffff1673ffffffffffffffffffffffffffffffffffffffff1681526020019081526020015f206005015f8282546111ef9190614c9d565b925050819055505b5b505b7fb6cdb9654a453b960ec5fe6f18502a3f0dd823ed74ddc4f68a16b3210265ea5b828260055f8681526020019081526020015f2060070160405161124093929190614e6d565b60405180910390a15b5050565b5f60025f8373ffffffffffffffffffffffffffffffffffffffff1673ffffffffffffffffffffffffffffffffffffffff1681526020019081526020015f206006015f9054906101000a900460ff169050919050565b5f8054906101000a900473ffffffffffffffffffffffffffffffffffffffff1673ffffffffffffffffffffffffffffffffffffffff1663095ea7b330836040518363ffffffff1660e01b81526004016112fc929190614ea9565b6020604051808303815f875af1158015611318573d5f803e3d5ffd5b505050506040513d601f19601f8201168201806040525081019061133c9190614c3f565b5050565b60025f8773ffffffffffffffffffffffffffffffffffffffff1673ffffffffffffffffffffffffffffffffffffffff1681526020019081526020015f206006015f9054906101000a900460ff166113cc576040517f08c379a00000000000000000000000000000000000000000000000000000000081526004016113c390614f1a565b60405180910390fd5b60025f8673ffffffffffffffffffffffffffffffffffffffff1673ffffffffffffffffffffffffffffffffffffffff1681526020019081526020015f206006015f9054906101000a900460ff16611458576040517f08c379a000000000000000000000000000000000000000000000000000000000815260040161144f90614f82565b60405180910390fd5b42821161149a576040517f08c379a000000000000000000000000000000000000000000000000000000000815260040161149190615010565b60405180910390fd5b801561160157825f8054906101000a900473ffffffffffffffffffffffffffffffffffffffff1673ffffffffffffffffffffffffffffffffffffffff166370a08231886040518263ffffffff1660e01b81526004016114f99190614559565b602060405180830381865afa158015611514573d5f803e3d5ffd5b505050506040513d601f19601f820116820180604052508101906115389190614aaf565b1015611579576040517f08c379a00000000000000000000000000000000000000000000000000000000081526004016115709061509e565b60405180910390fd5b8360025f8773ffffffffffffffffffffffffffffffffffffffff1673ffffffffffffffffffffffffffffffffffffffff1681526020019081526020015f206005015410156115fc576040517f08c379a00000000000000000000000000000000000000000000000000000000081526004016115f390614bd8565b60405180910390fd5b61175e565b8360025f8873ffffffffffffffffffffffffffffffffffffffff1673ffffffffffffffffffffffffffffffffffffffff1681526020019081526020015f20600501541015611684576040517f08c379a000000000000000000000000000000000000000000000000000000000815260040161167b9061512c565b60405180910390fd5b825f8054906101000a900473ffffffffffffffffffffffffffffffffffffffff1673ffffffffffffffffffffffffffffffffffffffff166370a08231876040518263ffffffff1660e01b81526004016116dd9190614559565b602060405180830381865afa1580156116f8573d5f803e3d5ffd5b505050506040513d601f19601f8201168201806040525081019061171c9190614aaf565b101561175d576040517f08c379a00000000000000000000000000000000000000000000000000000000081526004016117549061509e565b60405180910390fd5b5b5f60045f81548092919061177190614640565b9190505590506040518061012001604052808281526020018873ffffffffffffffffffffffffffffffffffffffff1681526020018773ffffffffffffffffffffffffffffffffffffffff1681526020018681526020018581526020018481526020015f151581526020016040518060400160405280600781526020017f50656e64696e6700000000000000000000000000000000000000000000000000815250815260200183611822576001611824565b5f5b600181111561183657611835613fab565b5b81525060055f8381526020019081526020015f205f820151815f01556020820151816001015f6101000a81548173ffffffffffffffffffffffffffffffffffffffff021916908373ffffffffffffffffffffffffffffffffffffffff1602179055506040820151816002015f6101000a81548173ffffffffffffffffffffffffffffffffffffffff021916908373ffffffffffffffffffffffffffffffffffffffff160217905550606082015181600301556080820151816004015560a0820151816005015560c0820151816006015f6101000a81548160ff02191690831515021790555060e08201518160070190816119309190614948565b50610100820151816008015f6101000a81548160ff0219169083600181111561195c5761195b613fab565b5b0217905550905050600681908060018154018082558091505060019003905f5260205f20015f90919091909150557f6f2fac3f769ed900eb9891a73caa7b5267ce788a20299805ce4b85934cb200f58187846119b95760016119bb565b5f5b6040516119ca9392919061514a565b60405180910390a150505050505050565b60025f3373ffffffffffffffffffffffffffffffffffffffff1673ffffffffffffffffffffffffffffffffffffffff1681526020019081526020015f206006015f9054906101000a900460ff1615611a68576040517f08c379a0000000000000000000000000000000000000000000000000000000008152600401611a5f906151c9565b60405180910390fd5b5f60025f3373ffffffffffffffffffffffffffffffffffffffff1673ffffffffffffffffffffffffffffffffffffffff1681526020019081526020015f20905033815f015f6101000a81548173ffffffffffffffffffffffffffffffffffffffff021916908373ffffffffffffffffffffffffffffffffffffffff16021790555084816001019081611afa9190614948565b508381600301819055508281600401819055508181600501819055506001816006015f6101000a81548160ff0219169083151502179055505f8054906101000a900473ffffffffffffffffffffffffffffffffffffffff1673ffffffffffffffffffffffffffffffffffffffff1663313ce5676040518163ffffffff1660e01b8152600401602060405180830381865afa158015611b9a573d5f803e3d5ffd5b505050506040513d601f19601f82011682018060405250810190611bbe919061521d565b60ff16600a611bcd9190615377565b6014611bd991906153c1565b8160020181905550600133908060018154018082558091505060019003905f5260205f20015f9091909190916101000a81548173ffffffffffffffffffffffffffffffffffffffff021916908373ffffffffffffffffffffffffffffffffffffffff1602179055505f8054906101000a900473ffffffffffffffffffffffffffffffffffffffff1673ffffffffffffffffffffffffffffffffffffffff166340c10f193383600201546040518363ffffffff1660e01b8152600401611c9f929190614ea9565b5f604051808303815f87803b158015611cb6575f80fd5b505af1158015611cc8573d5f803e3d5ffd5b505050503373ffffffffffffffffffffffffffffffffffffffff167f0c1c48f9664da3d8aa20b115caad4bc6e3bba7518fd57d8252772ee728ffb2d686868686604051611d189493929190615402565b60405180910390a25050505050565b60605f6001600454611d399190614c6a565b67ffffffffffffffff811115611d5257611d51613b46565b5b604051908082528060200260200182016040528015611d805781602001602082028036833780820191505090505b5090505f80600190505b600454811015611ea0578473ffffffffffffffffffffffffffffffffffffffff1660055f8381526020019081526020015f206001015f9054906101000a900473ffffffffffffffffffffffffffffffffffffffff1673ffffffffffffffffffffffffffffffffffffffff161480611e5f57508473ffffffffffffffffffffffffffffffffffffffff1660055f8381526020019081526020015f206002015f9054906101000a900473ffffffffffffffffffffffffffffffffffffffff1673ffffffffffffffffffffffffffffffffffffffff16145b15611e935780838381518110611e7857611e776145e6565b5b6020026020010181815250508180611e8f90614640565b9250505b8080600101915050611d8a565b505f8167ffffffffffffffff811115611ebc57611ebb613b46565b5b604051908082528060200260200182016040528015611eea5781602001602082028036833780820191505090505b5090505f5b82811015611f3e57838181518110611f0a57611f096145e6565b5b6020026020010151828281518110611f2557611f246145e6565b5b6020026020010181815250508080600101915050611eef565b50809350505050919050565b60605f60078054905067ffffffffffffffff811115611f6c57611f6b613b46565b5b604051908082528060200260200182016040528015611f9a5781602001602082028036833780820191505090505b5090505f805b6007805490508110156120e6575f60055f60078481548110611fc557611fc46145e6565b5b905f5260205f20015481526020019081526020015f2090508573ffffffffffffffffffffffffffffffffffffffff16816001015f9054906101000a900473ffffffffffffffffffffffffffffffffffffffff1673ffffffffffffffffffffffffffffffffffffffff16148061208857508573ffffffffffffffffffffffffffffffffffffffff16816002015f9054906101000a900473ffffffffffffffffffffffffffffffffffffffff1673ffffffffffffffffffffffffffffffffffffffff16145b156120d857600782815481106120a1576120a06145e6565b5b905f5260205f2001548484815181106120bd576120bc6145e6565b5b60200260200101818152505082806120d490614640565b9350505b508080600101915050611fa0565b505f8167ffffffffffffffff81111561210257612101613b46565b5b6040519080825280602002602001820160405280156121305781602001602082028036833780820191505090505b5090505f5b82811015612184578381815181106121505761214f6145e6565b5b602002602001015182828151811061216b5761216a6145e6565b5b6020026020010181815250508080600101915050612135565b50809350505050919050565b60035f9054906101000a900473ffffffffffffffffffffffffffffffffffffffff1673ffffffffffffffffffffffffffffffffffffffff163373ffffffffffffffffffffffffffffffffffffffff161461221f576040517f08c379a000000000000000000000000000000000000000000000000000000000815260040161221690615496565b60405180910390fd5b60025f8273ffffffffffffffffffffffffffffffffffffffff1673ffffffffffffffffffffffffffffffffffffffff1681526020019081526020015f206006015f9054906101000a900460ff166122ab576040517f08c379a00000000000000000000000000000000000000000000000000000000081526004016122a2906154fe565b60405180910390fd5b5f805b600180549050811015612425578273ffffffffffffffffffffffffffffffffffffffff16600182815481106122e6576122e56145e6565b5b905f5260205f20015f9054906101000a900473ffffffffffffffffffffffffffffffffffffffff1673ffffffffffffffffffffffffffffffffffffffff160361241a57600180808054905061233b9190614c6a565b8154811061234c5761234b6145e6565b5b905f5260205f20015f9054906101000a900473ffffffffffffffffffffffffffffffffffffffff1660018281548110612388576123876145e6565b5b905f5260205f20015f6101000a81548173ffffffffffffffffffffffffffffffffffffffff021916908373ffffffffffffffffffffffffffffffffffffffff16021790555060018054806123df576123de61551c565b5b600190038181905f5260205f20015f6101000a81549073ffffffffffffffffffffffffffffffffffffffff0219169055905560019150612425565b8060010190506122ae565b5080612466576040517f08c379a000000000000000000000000000000000000000000000000000000000815260040161245d90615593565b60405180910390fd5b60025f8373ffffffffffffffffffffffffffffffffffffffff1673ffffffffffffffffffffffffffffffffffffffff1681526020019081526020015f205f8082015f6101000a81549073ffffffffffffffffffffffffffffffffffffffff0219169055600182015f6124d891906137c3565b600282015f9055600382015f9055600482015f9055600582015f9055600682015f6101000a81549060ff021916905550508173ffffffffffffffffffffffffffffffffffffffff167f4bc56f1321288dfb5b416cb3a7fd188723979f9e866c91d88eccf7fca039d03960405160405180910390a25050565b612558613800565b60025f8373ffffffffffffffffffffffffffffffffffffffff1673ffffffffffffffffffffffffffffffffffffffff1681526020019081526020015f206006015f9054906101000a900460ff166125e4576040517f08c379a00000000000000000000000000000000000000000000000000000000081526004016125db906154fe565b60405180910390fd5b60025f8373ffffffffffffffffffffffffffffffffffffffff1673ffffffffffffffffffffffffffffffffffffffff1681526020019081526020015f206040518060e00160405290815f82015f9054906101000a900473ffffffffffffffffffffffffffffffffffffffff1673ffffffffffffffffffffffffffffffffffffffff1673ffffffffffffffffffffffffffffffffffffffff16815260200160018201805461269090614784565b80601f01602080910402602001604051908101604052809291908181526020018280546126bc90614784565b80156127075780601f106126de57610100808354040283529160200191612707565b820191905f5260205f20905b8154815290600101906020018083116126ea57829003601f168201915b5050505050815260200160028201548152602001600382015481526020016004820154815260200160058201548152602001600682015f9054906101000a900460ff1615151515815250509050919050565b60068181548110612768575f80fd5b905f5260205f20015f915090505481565b60025f3373ffffffffffffffffffffffffffffffffffffffff1673ffffffffffffffffffffffffffffffffffffffff1681526020019081526020015f206006015f9054906101000a900460ff16612805576040517f08c379a00000000000000000000000000000000000000000000000000000000081526004016127fc906154fe565b60405180910390fd5b5f60025f3373ffffffffffffffffffffffffffffffffffffffff1673ffffffffffffffffffffffffffffffffffffffff1681526020019081526020015f209050848160010190816128569190614948565b508381600301819055508281600401819055508181600501819055503373ffffffffffffffffffffffffffffffffffffffff167f0f5263c9868e9f7c401974519563bcc35ba1daa55f79b26fa618e2c2f3202acc868686866040516128be9493929190615402565b60405180910390a25050505050565b6005602052805f5260405f205f91509050805f015490806001015f9054906101000a900473ffffffffffffffffffffffffffffffffffffffff1690806002015f9054906101000a900473ffffffffffffffffffffffffffffffffffffffff1690806003015490806004015490806005015490806006015f9054906101000a900460ff169080600701805461296090614784565b80601f016020809104026020016040519081016040528092919081815260200182805461298c90614784565b80156129d75780601f106129ae576101008083540402835291602001916129d7565b820191905f5260205f20905b8154815290600101906020018083116129ba57829003601f168201915b505050505090806008015f9054906101000a900460ff16905089565b60605f60068054905067ffffffffffffffff811115612a1557612a14613b46565b5b604051908082528060200260200182016040528015612a435781602001602082028036833780820191505090505b5090505f805b600680549050811015612bb6578473ffffffffffffffffffffffffffffffffffffffff1660055f60068481548110612a8457612a836145e6565b5b905f5260205f20015481526020019081526020015f206001015f9054906101000a900473ffffffffffffffffffffffffffffffffffffffff1673ffffffffffffffffffffffffffffffffffffffff161480612b5957508473ffffffffffffffffffffffffffffffffffffffff1660055f60068481548110612b0857612b076145e6565b5b905f5260205f20015481526020019081526020015f206002015f9054906101000a900473ffffffffffffffffffffffffffffffffffffffff1673ffffffffffffffffffffffffffffffffffffffff16145b15612ba95760068181548110612b7257612b716145e6565b5b905f5260205f200154838381518110612b8e57612b8d6145e6565b5b6020026020010181815250508180612ba590614640565b9250505b8080600101915050612a49565b505f8167ffffffffffffffff811115612bd257612bd1613b46565b5b604051908082528060200260200182016040528015612c005781602001602082028036833780820191505090505b5090505f5b82811015612c5457838181518110612c2057612c1f6145e6565b5b6020026020010151828281518110612c3b57612c3a6145e6565b5b6020026020010181815250508080600101915050612c05565b50809350505050919050565b60606001805480602002602001604051908101604052809291908181526020018280548015612ce157602002820191905f5260205f20905b815f9054906101000a900473ffffffffffffffffffffffffffffffffffffffff1673ffffffffffffffffffffffffffffffffffffffff1681526020019060010190808311612c98575b5050505050905090565b6002602052805f5260405f205f91509050805f015f9054906101000a900473ffffffffffffffffffffffffffffffffffffffff1690806001018054612d2f90614784565b80601f0160208091040260200160405190810160405280929190818152602001828054612d5b90614784565b8015612da65780601f10612d7d57610100808354040283529160200191612da6565b820191905f5260205f20905b815481529060010190602001808311612d8957829003601f168201915b505050505090806002015490806003015490806004015490806005015490806006015f9054906101000a900460ff16905087565b60605f60068054905067ffffffffffffffff811115612dfc57612dfb613b46565b5b604051908082528060200260200182016040528015612e3557816020015b612e2261384f565b815260200190600190039081612e1a5790505b5090505f5b6006805490508110156130605760055f60068381548110612e5e57612e5d6145e6565b5b905f5260205f20015481526020019081526020015f20604051806101200160405290815f8201548152602001600182015f9054906101000a900473ffffffffffffffffffffffffffffffffffffffff1673ffffffffffffffffffffffffffffffffffffffff1673ffffffffffffffffffffffffffffffffffffffff168152602001600282015f9054906101000a900473ffffffffffffffffffffffffffffffffffffffff1673ffffffffffffffffffffffffffffffffffffffff1673ffffffffffffffffffffffffffffffffffffffff168152602001600382015481526020016004820154815260200160058201548152602001600682015f9054906101000a900460ff16151515158152602001600782018054612f7b90614784565b80601f0160208091040260200160405190810160405280929190818152602001828054612fa790614784565b8015612ff25780601f10612fc957610100808354040283529160200191612ff2565b820191905f5260205f20905b815481529060010190602001808311612fd557829003601f168201915b50505050508152602001600882015f9054906101000a900460ff16600181111561301f5761301e613fab565b5b600181111561303157613030613fab565b5b81525050828281518110613048576130476145e6565b5b60200260200101819052508080600101915050612e3a565b508091505090565b60025f8373ffffffffffffffffffffffffffffffffffffffff1673ffffffffffffffffffffffffffffffffffffffff1681526020019081526020015f206006015f9054906101000a900460ff166130f4576040517f08c379a00000000000000000000000000000000000000000000000000000000081526004016130eb906154fe565b60405180910390fd5b8060025f8473ffffffffffffffffffffffffffffffffffffffff1673ffffffffffffffffffffffffffffffffffffffff1681526020019081526020015f20600501819055505050565b60605f60078054905067ffffffffffffffff81111561315f5761315e613b46565b5b60405190808252806020026020018201604052801561319857816020015b61318561384f565b81526020019060019003908161317d5790505b5090505f5b6007805490508110156133c35760055f600783815481106131c1576131c06145e6565b5b905f5260205f20015481526020019081526020015f20604051806101200160405290815f8201548152602001600182015f9054906101000a900473ffffffffffffffffffffffffffffffffffffffff1673ffffffffffffffffffffffffffffffffffffffff1673ffffffffffffffffffffffffffffffffffffffff168152602001600282015f9054906101000a900473ffffffffffffffffffffffffffffffffffffffff1673ffffffffffffffffffffffffffffffffffffffff1673ffffffffffffffffffffffffffffffffffffffff168152602001600382015481526020016004820154815260200160058201548152602001600682015f9054906101000a900460ff161515151581526020016007820180546132de90614784565b80601f016020809104026020016040519081016040528092919081815260200182805461330a90614784565b80156133555780601f1061332c57610100808354040283529160200191613355565b820191905f5260205f20905b81548152906001019060200180831161333857829003601f168201915b50505050508152602001600882015f9054906101000a900460ff16600181111561338257613381613fab565b5b600181111561339457613393613fab565b5b815250508282815181106133ab576133aa6145e6565b5b6020026020010181905250808060010191505061319d565b508091505090565b5f600680549050905090565b60605f60018054905067ffffffffffffffff8111156133f9576133f8613b46565b5b60405190808252806020026020018201604052801561343257816020015b61341f613800565b8152602001906001900390816134175790505b5090505f5b6001805490508110156136185760025f6001838154811061345b5761345a6145e6565b5b905f5260205f20015f9054906101000a900473ffffffffffffffffffffffffffffffffffffffff1673ffffffffffffffffffffffffffffffffffffffff1673ffffffffffffffffffffffffffffffffffffffff1681526020019081526020015f206040518060e00160405290815f82015f9054906101000a900473ffffffffffffffffffffffffffffffffffffffff1673ffffffffffffffffffffffffffffffffffffffff1673ffffffffffffffffffffffffffffffffffffffff16815260200160018201805461352b90614784565b80601f016020809104026020016040519081016040528092919081815260200182805461355790614784565b80156135a25780601f10613579576101008083540402835291602001916135a2565b820191905f5260205f20905b81548152906001019060200180831161358557829003601f168201915b5050505050815260200160028201548152602001600382015481526020016004820154815260200160058201548152602001600682015f9054906101000a900460ff161515151581525050828281518110613600576135ff6145e6565b5b60200260200101819052508080600101915050613437565b508091505090565b5f805f9054906101000a900473ffffffffffffffffffffffffffffffffffffffff1673ffffffffffffffffffffffffffffffffffffffff166370a08231836040518263ffffffff1660e01b815260040161367a9190614559565b602060405180830381865afa158015613695573d5f803e3d5ffd5b505050506040513d601f19601f820116820180604052508101906136b99190614aaf565b9050919050565b60035f9054906101000a900473ffffffffffffffffffffffffffffffffffffffff1681565b5f8054906101000a900473ffffffffffffffffffffffffffffffffffffffff1681565b5f5b6006805490508110156137bf57816006828154811061372c5761372b6145e6565b5b905f5260205f200154036137b2576006600160068054905061374e9190614c6a565b8154811061375f5761375e6145e6565b5b905f5260205f2001546006828154811061377c5761377b6145e6565b5b905f5260205f200181905550600680548061379a5761379961551c565b5b600190038181905f5260205f20015f905590556137bf565b808060010191505061370a565b5050565b5080546137cf90614784565b5f825580601f106137e057506137fd565b601f0160209004905f5260205f20908101906137fc91906138d3565b5b50565b6040518060e001604052805f73ffffffffffffffffffffffffffffffffffffffff168152602001606081526020015f81526020015f81526020015f81526020015f81526020015f151581525090565b6040518061012001604052805f81526020015f73ffffffffffffffffffffffffffffffffffffffff1681526020015f73ffffffffffffffffffffffffffffffffffffffff1681526020015f81526020015f81526020015f81526020015f15158152602001606081526020015f60018111156138cd576138cc613fab565b5b81525090565b5b808211156138ea575f815f9055506001016138d4565b5090565b5f604051905090565b5f80fd5b5f80fd5b5f73ffffffffffffffffffffffffffffffffffffffff82169050919050565b5f613928826138ff565b9050919050565b6139388161391e565b8114613942575f80fd5b50565b5f813590506139538161392f565b92915050565b5f6020828403121561396e5761396d6138f7565b5b5f61397b84828501613945565b91505092915050565b5f819050919050565b61399681613984565b82525050565b5f6020820190506139af5f83018461398d565b92915050565b6139be81613984565b81146139c8575f80fd5b50565b5f813590506139d9816139b5565b92915050565b5f8115159050919050565b6139f3816139df565b81146139fd575f80fd5b50565b5f81359050613a0e816139ea565b92915050565b5f8060408385031215613a2a57613a296138f7565b5b5f613a37858286016139cb565b9250506020613a4885828601613a00565b9150509250929050565b613a5b816139df565b82525050565b5f602082019050613a745f830184613a52565b92915050565b5f60208284031215613a8f57613a8e6138f7565b5b5f613a9c848285016139cb565b91505092915050565b5f805f805f8060c08789031215613abf57613abe6138f7565b5b5f613acc89828a01613945565b9650506020613add89828a01613945565b9550506040613aee89828a016139cb565b9450506060613aff89828a016139cb565b9350506080613b1089828a016139cb565b92505060a0613b2189828a01613a00565b9150509295509295509295565b5f80fd5b5f80fd5b5f601f19601f8301169050919050565b7f4e487b71000000000000000000000000000000000000000000000000000000005f52604160045260245ffd5b613b7c82613b36565b810181811067ffffffffffffffff82111715613b9b57613b9a613b46565b5b80604052505050565b5f613bad6138ee565b9050613bb98282613b73565b919050565b5f67ffffffffffffffff821115613bd857613bd7613b46565b5b613be182613b36565b9050602081019050919050565b828183375f83830152505050565b5f613c0e613c0984613bbe565b613ba4565b905082815260208101848484011115613c2a57613c29613b32565b5b613c35848285613bee565b509392505050565b5f82601f830112613c5157613c50613b2e565b5b8135613c61848260208601613bfc565b91505092915050565b5f819050919050565b613c7c81613c6a565b8114613c86575f80fd5b50565b5f81359050613c9781613c73565b92915050565b5f805f8060808587031215613cb557613cb46138f7565b5b5f85013567ffffffffffffffff811115613cd257613cd16138fb565b5b613cde87828801613c3d565b9450506020613cef87828801613c89565b9350506040613d0087828801613c89565b9250506060613d11878288016139cb565b91505092959194509250565b5f81519050919050565b5f82825260208201905092915050565b5f819050602082019050919050565b613d4f81613984565b82525050565b5f613d608383613d46565b60208301905092915050565b5f602082019050919050565b5f613d8282613d1d565b613d8c8185613d27565b9350613d9783613d37565b805f5b83811015613dc7578151613dae8882613d55565b9750613db983613d6c565b925050600181019050613d9a565b5085935050505092915050565b5f6020820190508181035f830152613dec8184613d78565b905092915050565b613dfd8161391e565b82525050565b5f81519050919050565b5f82825260208201905092915050565b5f5b83811015613e3a578082015181840152602081019050613e1f565b5f8484015250505050565b5f613e4f82613e03565b613e598185613e0d565b9350613e69818560208601613e1d565b613e7281613b36565b840191505092915050565b613e8681613c6a565b82525050565b613e95816139df565b82525050565b5f60e083015f830151613eb05f860182613df4565b5060208301518482036020860152613ec88282613e45565b9150506040830151613edd6040860182613d46565b506060830151613ef06060860182613e7d565b506080830151613f036080860182613e7d565b5060a0830151613f1660a0860182613d46565b5060c0830151613f2960c0860182613e8c565b508091505092915050565b5f6020820190508181035f830152613f4c8184613e9b565b905092915050565b613f5d8161391e565b82525050565b5f82825260208201905092915050565b5f613f7d82613e03565b613f878185613f63565b9350613f97818560208601613e1d565b613fa081613b36565b840191505092915050565b7f4e487b71000000000000000000000000000000000000000000000000000000005f52602160045260245ffd5b60028110613fe957613fe8613fab565b5b50565b5f819050613ff982613fd8565b919050565b5f61400882613fec565b9050919050565b61401881613ffe565b82525050565b5f610120820190506140325f83018c61398d565b61403f602083018b613f54565b61404c604083018a613f54565b614059606083018961398d565b614066608083018861398d565b61407360a083018761398d565b61408060c0830186613a52565b81810360e08301526140928185613f73565b90506140a261010083018461400f565b9a9950505050505050505050565b5f81519050919050565b5f82825260208201905092915050565b5f819050602082019050919050565b5f6140e48383613df4565b60208301905092915050565b5f602082019050919050565b5f614106826140b0565b61411081856140ba565b935061411b836140ca565b805f5b8381101561414b57815161413288826140d9565b975061413d836140f0565b92505060018101905061411e565b5085935050505092915050565b5f6020820190508181035f83015261417081846140fc565b905092915050565b61418181613c6a565b82525050565b5f60e08201905061419a5f83018a613f54565b81810360208301526141ac8189613f73565b90506141bb604083018861398d565b6141c86060830187614178565b6141d56080830186614178565b6141e260a083018561398d565b6141ef60c0830184613a52565b98975050505050505050565b5f81519050919050565b5f82825260208201905092915050565b5f819050602082019050919050565b61422d81613ffe565b82525050565b5f61012083015f8301516142495f860182613d46565b50602083015161425c6020860182613df4565b50604083015161426f6040860182613df4565b5060608301516142826060860182613d46565b5060808301516142956080860182613d46565b5060a08301516142a860a0860182613d46565b5060c08301516142bb60c0860182613e8c565b5060e083015184820360e08601526142d38282613e45565b9150506101008301516142ea610100860182614224565b508091505092915050565b5f6143008383614233565b905092915050565b5f602082019050919050565b5f61431e826141fb565b6143288185614205565b93508360208202850161433a85614215565b805f5b85811015614375578484038952815161435685826142f5565b945061436183614308565b925060208a0199505060018101905061433d565b50829750879550505050505092915050565b5f6020820190508181035f83015261439f8184614314565b905092915050565b5f80604083850312156143bd576143bc6138f7565b5b5f6143ca85828601613945565b92505060206143db858286016139cb565b9150509250929050565b5f81519050919050565b5f82825260208201905092915050565b5f819050602082019050919050565b5f60e083015f8301516144235f860182613df4565b506020830151848203602086015261443b8282613e45565b91505060408301516144506040860182613d46565b5060608301516144636060860182613e7d565b5060808301516144766080860182613e7d565b5060a083015161448960a0860182613d46565b5060c083015161449c60c0860182613e8c565b508091505092915050565b5f6144b2838361440e565b905092915050565b5f602082019050919050565b5f6144d0826143e5565b6144da81856143ef565b9350836020820285016144ec856143ff565b805f5b85811015614527578484038952815161450885826144a7565b9450614513836144ba565b925060208a019950506001810190506144ef565b50829750879550505050505092915050565b5f6020820190508181035f83015261455181846144c6565b905092915050565b5f60208201905061456c5f830184613f54565b92915050565b5f819050919050565b5f61459561459061458b846138ff565b614572565b6138ff565b9050919050565b5f6145a68261457b565b9050919050565b5f6145b78261459c565b9050919050565b6145c7816145ad565b82525050565b5f6020820190506145e05f8301846145be565b92915050565b7f4e487b71000000000000000000000000000000000000000000000000000000005f52603260045260245ffd5b7f4e487b71000000000000000000000000000000000000000000000000000000005f52601160045260245ffd5b5f61464a82613984565b91507fffffffffffffffffffffffffffffffffffffffffffffffffffffffffffffffff820361467c5761467b614613565b5b600182019050919050565b7f5472616e73616374696f6e20646f6573206e6f742065786973742e00000000005f82015250565b5f6146bb601b83613f63565b91506146c682614687565b602082019050919050565b5f6020820190508181035f8301526146e8816146af565b9050919050565b7f5472616e73616374696f6e20616c726561647920636f6d6d69747465642e00005f82015250565b5f614723601e83613f63565b915061472e826146ef565b602082019050919050565b5f6020820190508181035f83015261475081614717565b9050919050565b7f4e487b71000000000000000000000000000000000000000000000000000000005f52602260045260245ffd5b5f600282049050600182168061479b57607f821691505b6020821081036147ae576147ad614757565b5b50919050565b5f819050815f5260205f209050919050565b5f6020601f8301049050919050565b5f82821b905092915050565b5f600883026148107fffffffffffffffffffffffffffffffffffffffffffffffffffffffffffffffff826147d5565b61481a86836147d5565b95508019841693508086168417925050509392505050565b5f61484c61484761484284613984565b614572565b613984565b9050919050565b5f819050919050565b61486583614832565b61487961487182614853565b8484546147e1565b825550505050565b5f90565b61488d614881565b61489881848461485c565b505050565b5b818110156148bb576148b05f82614885565b60018101905061489e565b5050565b601f821115614900576148d1816147b4565b6148da846147c6565b810160208510156148e9578190505b6148fd6148f5856147c6565b83018261489d565b50505b505050565b5f82821c905092915050565b5f6149205f1984600802614905565b1980831691505092915050565b5f6149388383614911565b9150826002028217905092915050565b61495182613e03565b67ffffffffffffffff81111561496a57614969613b46565b5b6149748254614784565b61497f8282856148bf565b5f60209050601f8311600181146149b0575f841561499e578287015190505b6149a8858261492d565b865550614a0f565b601f1984166149be866147b4565b5f5b828110156149e5578489015182556001820191506020850194506020810190506149c0565b86831015614a0257848901516149fe601f891682614911565b8355505b6001600288020188555050505b505050505050565b7f52656a65637465642064756520746f2065787069726174696f6e0000000000005f82015250565b5f614a4b601a83613f63565b9150614a5682614a17565b602082019050919050565b5f606082019050614a745f83018561398d565b614a816020830184613a52565b8181036040830152614a9281614a3f565b90509392505050565b5f81519050614aa9816139b5565b92915050565b5f60208284031215614ac457614ac36138f7565b5b5f614ad184828501614a9b565b91505092915050565b7f496e69746961746f722068617320696e73756666696369656e742045475920745f8201527f6f6b656e732e0000000000000000000000000000000000000000000000000000602082015250565b5f614b34602683613f63565b9150614b3f82614ada565b604082019050919050565b5f6020820190508181035f830152614b6181614b28565b9050919050565b7f526563656976657220646f6573206e6f74206861766520656e6f75676820656e5f8201527f657267792e000000000000000000000000000000000000000000000000000000602082015250565b5f614bc2602583613f63565b9150614bcd82614b68565b604082019050919050565b5f6020820190508181035f830152614bef81614bb6565b9050919050565b5f606082019050614c095f830186613f54565b614c166020830185613f54565b614c23604083018461398d565b949350505050565b5f81519050614c39816139ea565b92915050565b5f60208284031215614c5457614c536138f7565b5b5f614c6184828501614c2b565b91505092915050565b5f614c7482613984565b9150614c7f83613984565b9250828203905081811115614c9757614c96614613565b5b92915050565b5f614ca782613984565b9150614cb283613984565b9250828201905080821115614cca57614cc9614613565b5b92915050565b7f52656365697665722068617320696e73756666696369656e742045475920746f5f8201527f6b656e732e000000000000000000000000000000000000000000000000000000602082015250565b5f614d2a602583613f63565b9150614d3582614cd0565b604082019050919050565b5f6020820190508181035f830152614d5781614d1e565b9050919050565b7f496e69746961746f7220646f6573206e6f74206861766520656e6f75676820655f8201527f6e657267792e0000000000000000000000000000000000000000000000000000602082015250565b5f614db8602683613f63565b9150614dc382614d5e565b604082019050919050565b5f6020820190508181035f830152614de581614dac565b9050919050565b5f8154614df881614784565b614e028186613f63565b9450600182165f8114614e1c5760018114614e3257614e64565b60ff198316865281151560200286019350614e64565b614e3b856147b4565b5f5b83811015614e5c57815481890152600182019150602081019050614e3d565b808801955050505b50505092915050565b5f606082019050614e805f83018661398d565b614e8d6020830185613a52565b8181036040830152614e9f8184614dec565b9050949350505050565b5f604082019050614ebc5f830185613f54565b614ec9602083018461398d565b9392505050565b7f496e69746961746f72206973206e6f7420726567697374657265642e000000005f82015250565b5f614f04601c83613f63565b9150614f0f82614ed0565b602082019050919050565b5f6020820190508181035f830152614f3181614ef8565b9050919050565b7f5265636569766572206973206e6f7420726567697374657265642e00000000005f82015250565b5f614f6c601b83613f63565b9150614f7782614f38565b602082019050919050565b5f6020820190508181035f830152614f9981614f60565b9050919050565b7f5472616e73616374696f6e2065787069726174696f6e206d75737420626520695f8201527f6e20746865206675747572652e00000000000000000000000000000000000000602082015250565b5f614ffa602d83613f63565b915061500582614fa0565b604082019050919050565b5f6020820190508181035f83015261502781614fee565b9050919050565b7f53656e6465722068617320696e73756666696369656e7420746f6b656e7320665f8201527f6f72207472616e73616374696f6e2e0000000000000000000000000000000000602082015250565b5f615088602f83613f63565b91506150938261502e565b604082019050919050565b5f6020820190508181035f8301526150b58161507c565b9050919050565b7f53656e6465722068617320696e73756666696369656e7420656e6572677920665f8201527f6f72207472616e73616374696f6e2e0000000000000000000000000000000000602082015250565b5f615116602f83613f63565b9150615121826150bc565b604082019050919050565b5f6020820190508181035f8301526151438161510a565b9050919050565b5f60608201905061515d5f83018661398d565b61516a6020830185613f54565b615177604083018461400f565b949350505050565b7f5573657220616c726561647920726567697374657265642e00000000000000005f82015250565b5f6151b3601883613f63565b91506151be8261517f565b602082019050919050565b5f6020820190508181035f8301526151e0816151a7565b9050919050565b5f60ff82169050919050565b6151fc816151e7565b8114615206575f80fd5b50565b5f81519050615217816151f3565b92915050565b5f60208284031215615232576152316138f7565b5b5f61523f84828501615209565b91505092915050565b5f8160011c9050919050565b5f808291508390505b600185111561529d5780860481111561527957615278614613565b5b60018516156152885780820291505b808102905061529685615248565b945061525d565b94509492505050565b5f826152b55760019050615370565b816152c2575f9050615370565b81600181146152d857600281146152e257615311565b6001915050615370565b60ff8411156152f4576152f3614613565b5b8360020a91508482111561530b5761530a614613565b5b50615370565b5060208310610133831016604e8410600b84101617156153465782820a90508381111561534157615340614613565b5b615370565b6153538484846001615254565b9250905081840481111561536a57615369614613565b5b81810290505b9392505050565b5f61538182613984565b915061538c83613984565b92506153b97fffffffffffffffffffffffffffffffffffffffffffffffffffffffffffffffff84846152a6565b905092915050565b5f6153cb82613984565b91506153d683613984565b92508282026153e481613984565b915082820484148315176153fb576153fa614613565b5b5092915050565b5f6080820190508181035f83015261541a8187613f73565b90506154296020830186614178565b6154366040830185614178565b615443606083018461398d565b95945050505050565b7f4f6e6c792061646d696e2063616e2063616c6c20746869732e000000000000005f82015250565b5f615480601983613f63565b915061548b8261544c565b602082019050919050565b5f6020820190508181035f8301526154ad81615474565b9050919050565b7f55736572206973206e6f7420726567697374657265642e0000000000000000005f82015250565b5f6154e8601783613f63565b91506154f3826154b4565b602082019050919050565b5f6020820190508181035f830152615515816154dc565b9050919050565b7f4e487b71000000000000000000000000000000000000000000000000000000005f52603160045260245ffd5b7f557365722061646472657373206e6f7420666f756e642e0000000000000000005f82015250565b5f61557d601783613f63565b915061558882615549565b602082019050919050565b5f6020820190508181035f8301526155aa81615571565b905091905056fea2646970667358221220aa7d0f32f1ac22dd84611cca97446092d079cd42b6b953901502df8aeafac79764736f6c63430008180033",
			"opcodes": "PUSH1 0x80 PUSH1 0x40 MSTORE PUSH1 0x1 PUSH1 0x4 SSTORE CALLVALUE DUP1 ISZERO PUSH3 0x15 JUMPI PUSH0 DUP1 REVERT JUMPDEST POP PUSH1 0x40 MLOAD PUSH3 0x574B CODESIZE SUB DUP1 PUSH3 0x574B DUP4 CODECOPY DUP2 DUP2 ADD PUSH1 0x40 MSTORE DUP2 ADD SWAP1 PUSH3 0x3B SWAP2 SWAP1 PUSH3 0x126 JUMP JUMPDEST CALLER PUSH1 0x3 PUSH0 PUSH2 0x100 EXP DUP2 SLOAD DUP2 PUSH20 0xFFFFFFFFFFFFFFFFFFFFFFFFFFFFFFFFFFFFFFFF MUL NOT AND SWAP1 DUP4 PUSH20 0xFFFFFFFFFFFFFFFFFFFFFFFFFFFFFFFFFFFFFFFF AND MUL OR SWAP1 SSTORE POP DUP1 PUSH0 DUP1 PUSH2 0x100 EXP DUP2 SLOAD DUP2 PUSH20 0xFFFFFFFFFFFFFFFFFFFFFFFFFFFFFFFFFFFFFFFF MUL NOT AND SWAP1 DUP4 PUSH20 0xFFFFFFFFFFFFFFFFFFFFFFFFFFFFFFFFFFFFFFFF AND MUL OR SWAP1 SSTORE POP POP PUSH3 0x156 JUMP JUMPDEST PUSH0 DUP1 REVERT JUMPDEST PUSH0 PUSH20 0xFFFFFFFFFFFFFFFFFFFFFFFFFFFFFFFFFFFFFFFF DUP3 AND SWAP1 POP SWAP2 SWAP1 POP JUMP JUMPDEST PUSH0 PUSH3 0xF0 DUP3 PUSH3 0xC5 JUMP JUMPDEST SWAP1 POP SWAP2 SWAP1 POP JUMP JUMPDEST PUSH3 0x102 DUP2 PUSH3 0xE4 JUMP JUMPDEST DUP2 EQ PUSH3 0x10D JUMPI PUSH0 DUP1 REVERT JUMPDEST POP JUMP JUMPDEST PUSH0 DUP2 MLOAD SWAP1 POP PUSH3 0x120 DUP2 PUSH3 0xF7 JUMP JUMPDEST SWAP3 SWAP2 POP POP JUMP JUMPDEST PUSH0 PUSH1 0x20 DUP3 DUP5 SUB SLT ISZERO PUSH3 0x13E JUMPI PUSH3 0x13D PUSH3 0xC1 JUMP JUMPDEST JUMPDEST PUSH0 PUSH3 0x14D DUP5 DUP3 DUP6 ADD PUSH3 0x110 JUMP JUMPDEST SWAP2 POP POP SWAP3 SWAP2 POP POP JUMP JUMPDEST PUSH2 0x55E7 DUP1 PUSH3 0x164 PUSH0 CODECOPY PUSH0 RETURN INVALID PUSH1 0x80 PUSH1 0x40 MSTORE CALLVALUE DUP1 ISZERO PUSH2 0xF JUMPI PUSH0 DUP1 REVERT JUMPDEST POP PUSH1 0x4 CALLDATASIZE LT PUSH2 0x156 JUMPI PUSH0 CALLDATALOAD PUSH1 0xE0 SHR DUP1 PUSH4 0x9ACE38C2 GT PUSH2 0xC1 JUMPI DUP1 PUSH4 0xB1FCE8C3 GT PUSH2 0x7A JUMPI DUP1 PUSH4 0xB1FCE8C3 EQ PUSH2 0x418 JUMPI DUP1 PUSH4 0xC0FA3F4B EQ PUSH2 0x436 JUMPI DUP1 PUSH4 0xC3BCF192 EQ PUSH2 0x454 JUMPI DUP1 PUSH4 0xF5AEC88C EQ PUSH2 0x472 JUMPI DUP1 PUSH4 0xF851A440 EQ PUSH2 0x4A2 JUMPI DUP1 PUSH4 0xFC0C546A EQ PUSH2 0x4C0 JUMPI PUSH2 0x156 JUMP JUMPDEST DUP1 PUSH4 0x9ACE38C2 EQ PUSH2 0x322 JUMPI DUP1 PUSH4 0x9E83E306 EQ PUSH2 0x35A JUMPI DUP1 PUSH4 0xA591EFDE EQ PUSH2 0x38A JUMPI DUP1 PUSH4 0xA87430BA EQ PUSH2 0x3A8 JUMPI DUP1 PUSH4 0xA9878C62 EQ PUSH2 0x3DE JUMPI DUP1 PUSH4 0xAF7CCFA7 EQ PUSH2 0x3FC JUMPI PUSH2 0x156 JUMP JUMPDEST DUP1 PUSH4 0x4DD87AF7 GT PUSH2 0x113 JUMPI DUP1 PUSH4 0x4DD87AF7 EQ PUSH2 0x22A JUMPI DUP1 PUSH4 0x586FB58E EQ PUSH2 0x25A JUMPI DUP1 PUSH4 0x5C60F226 EQ PUSH2 0x28A JUMPI DUP1 PUSH4 0x6386C1C7 EQ PUSH2 0x2A6 JUMPI DUP1 PUSH4 0x63A8374D EQ PUSH2 0x2D6 JUMPI DUP1 PUSH4 0x92D9C36F EQ PUSH2 0x306 JUMPI PUSH2 0x156 JUMP JUMPDEST DUP1 PUSH4 0x4BE1EF2 EQ PUSH2 0x15A JUMPI DUP1 PUSH4 0xB0F9DC3 EQ PUSH2 0x18A JUMPI DUP1 PUSH4 0x163F7522 EQ PUSH2 0x1A6 JUMPI DUP1 PUSH4 0x220646CE EQ PUSH2 0x1D6 JUMPI DUP1 PUSH4 0x4439A702 EQ PUSH2 0x1F2 JUMPI DUP1 PUSH4 0x4BC48240 EQ PUSH2 0x20E JUMPI JUMPDEST PUSH0 DUP1 REVERT JUMPDEST PUSH2 0x174 PUSH1 0x4 DUP1 CALLDATASIZE SUB DUP2 ADD SWAP1 PUSH2 0x16F SWAP2 SWAP1 PUSH2 0x3959 JUMP JUMPDEST PUSH2 0x4DE JUMP JUMPDEST PUSH1 0x40 MLOAD PUSH2 0x181 SWAP2 SWAP1 PUSH2 0x399C JUMP JUMPDEST PUSH1 0x40 MLOAD DUP1 SWAP2 SUB SWAP1 RETURN JUMPDEST PUSH2 0x1A4 PUSH1 0x4 DUP1 CALLDATASIZE SUB DUP2 ADD SWAP1 PUSH2 0x19F SWAP2 SWAP1 PUSH2 0x3A14 JUMP JUMPDEST PUSH2 0x5BA JUMP JUMPDEST STOP JUMPDEST PUSH2 0x1C0 PUSH1 0x4 DUP1 CALLDATASIZE SUB DUP2 ADD SWAP1 PUSH2 0x1BB SWAP2 SWAP1 PUSH2 0x3959 JUMP JUMPDEST PUSH2 0x124D JUMP JUMPDEST PUSH1 0x40 MLOAD PUSH2 0x1CD SWAP2 SWAP1 PUSH2 0x3A61 JUMP JUMPDEST PUSH1 0x40 MLOAD DUP1 SWAP2 SUB SWAP1 RETURN JUMPDEST PUSH2 0x1F0 PUSH1 0x4 DUP1 CALLDATASIZE SUB DUP2 ADD SWAP1 PUSH2 0x1EB SWAP2 SWAP1 PUSH2 0x3A7A JUMP JUMPDEST PUSH2 0x12A2 JUMP JUMPDEST STOP JUMPDEST PUSH2 0x20C PUSH1 0x4 DUP1 CALLDATASIZE SUB DUP2 ADD SWAP1 PUSH2 0x207 SWAP2 SWAP1 PUSH2 0x3AA5 JUMP JUMPDEST PUSH2 0x1340 JUMP JUMPDEST STOP JUMPDEST PUSH2 0x228 PUSH1 0x4 DUP1 CALLDATASIZE SUB DUP2 ADD SWAP1 PUSH2 0x223 SWAP2 SWAP1 PUSH2 0x3C9D JUMP JUMPDEST PUSH2 0x19DB JUMP JUMPDEST STOP JUMPDEST PUSH2 0x244 PUSH1 0x4 DUP1 CALLDATASIZE SUB DUP2 ADD SWAP1 PUSH2 0x23F SWAP2 SWAP1 PUSH2 0x3959 JUMP JUMPDEST PUSH2 0x1D27 JUMP JUMPDEST PUSH1 0x40 MLOAD PUSH2 0x251 SWAP2 SWAP1 PUSH2 0x3DD4 JUMP JUMPDEST PUSH1 0x40 MLOAD DUP1 SWAP2 SUB SWAP1 RETURN JUMPDEST PUSH2 0x274 PUSH1 0x4 DUP1 CALLDATASIZE SUB DUP2 ADD SWAP1 PUSH2 0x26F SWAP2 SWAP1 PUSH2 0x3959 JUMP JUMPDEST PUSH2 0x1F4A JUMP JUMPDEST PUSH1 0x40 MLOAD PUSH2 0x281 SWAP2 SWAP1 PUSH2 0x3DD4 JUMP JUMPDEST PUSH1 0x40 MLOAD DUP1 SWAP2 SUB SWAP1 RETURN JUMPDEST PUSH2 0x2A4 PUSH1 0x4 DUP1 CALLDATASIZE SUB DUP2 ADD SWAP1 PUSH2 0x29F SWAP2 SWAP1 PUSH2 0x3959 JUMP JUMPDEST PUSH2 0x2190 JUMP JUMPDEST STOP JUMPDEST PUSH2 0x2C0 PUSH1 0x4 DUP1 CALLDATASIZE SUB DUP2 ADD SWAP1 PUSH2 0x2BB SWAP2 SWAP1 PUSH2 0x3959 JUMP JUMPDEST PUSH2 0x2550 JUMP JUMPDEST PUSH1 0x40 MLOAD PUSH2 0x2CD SWAP2 SWAP1 PUSH2 0x3F34 JUMP JUMPDEST PUSH1 0x40 MLOAD DUP1 SWAP2 SUB SWAP1 RETURN JUMPDEST PUSH2 0x2F0 PUSH1 0x4 DUP1 CALLDATASIZE SUB DUP2 ADD SWAP1 PUSH2 0x2EB SWAP2 SWAP1 PUSH2 0x3A7A JUMP JUMPDEST PUSH2 0x2759 JUMP JUMPDEST PUSH1 0x40 MLOAD PUSH2 0x2FD SWAP2 SWAP1 PUSH2 0x399C JUMP JUMPDEST PUSH1 0x40 MLOAD DUP1 SWAP2 SUB SWAP1 RETURN JUMPDEST PUSH2 0x320 PUSH1 0x4 DUP1 CALLDATASIZE SUB DUP2 ADD SWAP1 PUSH2 0x31B SWAP2 SWAP1 PUSH2 0x3C9D JUMP JUMPDEST PUSH2 0x2779 JUMP JUMPDEST STOP JUMPDEST PUSH2 0x33C PUSH1 0x4 DUP1 CALLDATASIZE SUB DUP2 ADD SWAP1 PUSH2 0x337 SWAP2 SWAP1 PUSH2 0x3A7A JUMP JUMPDEST PUSH2 0x28CD JUMP JUMPDEST PUSH1 0x40 MLOAD PUSH2 0x351 SWAP10 SWAP9 SWAP8 SWAP7 SWAP6 SWAP5 SWAP4 SWAP3 SWAP2 SWAP1 PUSH2 0x401E JUMP JUMPDEST PUSH1 0x40 MLOAD DUP1 SWAP2 SUB SWAP1 RETURN JUMPDEST PUSH2 0x374 PUSH1 0x4 DUP1 CALLDATASIZE SUB DUP2 ADD SWAP1 PUSH2 0x36F SWAP2 SWAP1 PUSH2 0x3959 JUMP JUMPDEST PUSH2 0x29F3 JUMP JUMPDEST PUSH1 0x40 MLOAD PUSH2 0x381 SWAP2 SWAP1 PUSH2 0x3DD4 JUMP JUMPDEST PUSH1 0x40 MLOAD DUP1 SWAP2 SUB SWAP1 RETURN JUMPDEST PUSH2 0x392 PUSH2 0x2C60 JUMP JUMPDEST PUSH1 0x40 MLOAD PUSH2 0x39F SWAP2 SWAP1 PUSH2 0x4158 JUMP JUMPDEST PUSH1 0x40 MLOAD DUP1 SWAP2 SUB SWAP1 RETURN JUMPDEST PUSH2 0x3C2 PUSH1 0x4 DUP1 CALLDATASIZE SUB DUP2 ADD SWAP1 PUSH2 0x3BD SWAP2 SWAP1 PUSH2 0x3959 JUMP JUMPDEST PUSH2 0x2CEB JUMP JUMPDEST PUSH1 0x40 MLOAD PUSH2 0x3D5 SWAP8 SWAP7 SWAP6 SWAP5 SWAP4 SWAP3 SWAP2 SWAP1 PUSH2 0x4187 JUMP JUMPDEST PUSH1 0x40 MLOAD DUP1 SWAP2 SUB SWAP1 RETURN JUMPDEST PUSH2 0x3E6 PUSH2 0x2DDA JUMP JUMPDEST PUSH1 0x40 MLOAD PUSH2 0x3F3 SWAP2 SWAP1 PUSH2 0x4387 JUMP JUMPDEST PUSH1 0x40 MLOAD DUP1 SWAP2 SUB SWAP1 RETURN JUMPDEST PUSH2 0x416 PUSH1 0x4 DUP1 CALLDATASIZE SUB DUP2 ADD SWAP1 PUSH2 0x411 SWAP2 SWAP1 PUSH2 0x43A7 JUMP JUMPDEST PUSH2 0x3068 JUMP JUMPDEST STOP JUMPDEST PUSH2 0x420 PUSH2 0x313D JUMP JUMPDEST PUSH1 0x40 MLOAD PUSH2 0x42D SWAP2 SWAP1 PUSH2 0x4387 JUMP JUMPDEST PUSH1 0x40 MLOAD DUP1 SWAP2 SUB SWAP1 RETURN JUMPDEST PUSH2 0x43E PUSH2 0x33CB JUMP JUMPDEST PUSH1 0x40 MLOAD PUSH2 0x44B SWAP2 SWAP1 PUSH2 0x399C JUMP JUMPDEST PUSH1 0x40 MLOAD DUP1 SWAP2 SUB SWAP1 RETURN JUMPDEST PUSH2 0x45C PUSH2 0x33D7 JUMP JUMPDEST PUSH1 0x40 MLOAD PUSH2 0x469 SWAP2 SWAP1 PUSH2 0x4539 JUMP JUMPDEST PUSH1 0x40 MLOAD DUP1 SWAP2 SUB SWAP1 RETURN JUMPDEST PUSH2 0x48C PUSH1 0x4 DUP1 CALLDATASIZE SUB DUP2 ADD SWAP1 PUSH2 0x487 SWAP2 SWAP1 PUSH2 0x3959 JUMP JUMPDEST PUSH2 0x3620 JUMP JUMPDEST PUSH1 0x40 MLOAD PUSH2 0x499 SWAP2 SWAP1 PUSH2 0x399C JUMP JUMPDEST PUSH1 0x40 MLOAD DUP1 SWAP2 SUB SWAP1 RETURN JUMPDEST PUSH2 0x4AA PUSH2 0x36C0 JUMP JUMPDEST PUSH1 0x40 MLOAD PUSH2 0x4B7 SWAP2 SWAP1 PUSH2 0x4559 JUMP JUMPDEST PUSH1 0x40 MLOAD DUP1 SWAP2 SUB SWAP1 RETURN JUMPDEST PUSH2 0x4C8 PUSH2 0x36E5 JUMP JUMPDEST PUSH1 0x40 MLOAD PUSH2 0x4D5 SWAP2 SWAP1 PUSH2 0x45CD JUMP JUMPDEST PUSH1 0x40 MLOAD DUP1 SWAP2 SUB SWAP1 RETURN JUMPDEST PUSH0 DUP1 PUSH0 SWAP1 POP PUSH0 JUMPDEST PUSH1 0x6 DUP1 SLOAD SWAP1 POP DUP2 LT ISZERO PUSH2 0x5B0 JUMPI PUSH0 PUSH1 0x5 PUSH0 PUSH1 0x6 DUP5 DUP2 SLOAD DUP2 LT PUSH2 0x50A JUMPI PUSH2 0x509 PUSH2 0x45E6 JUMP JUMPDEST JUMPDEST SWAP1 PUSH0 MSTORE PUSH1 0x20 PUSH0 KECCAK256 ADD SLOAD DUP2 MSTORE PUSH1 0x20 ADD SWAP1 DUP2 MSTORE PUSH1 0x20 ADD PUSH0 KECCAK256 SWAP1 POP DUP5 PUSH20 0xFFFFFFFFFFFFFFFFFFFFFFFFFFFFFFFFFFFFFFFF AND DUP2 PUSH1 0x1 ADD PUSH0 SWAP1 SLOAD SWAP1 PUSH2 0x100 EXP SWAP1 DIV PUSH20 0xFFFFFFFFFFFFFFFFFFFFFFFFFFFFFFFFFFFFFFFF AND PUSH20 0xFFFFFFFFFFFFFFFFFFFFFFFFFFFFFFFFFFFFFFFF AND EQ DUP1 ISZERO PUSH2 0x58E JUMPI POP DUP1 PUSH1 0x6 ADD PUSH0 SWAP1 SLOAD SWAP1 PUSH2 0x100 EXP SWAP1 DIV PUSH1 0xFF AND ISZERO JUMPDEST ISZERO PUSH2 0x5A2 JUMPI DUP3 DUP1 PUSH2 0x59E SWAP1 PUSH2 0x4640 JUMP JUMPDEST SWAP4 POP POP JUMPDEST POP DUP1 DUP1 PUSH1 0x1 ADD SWAP2 POP POP PUSH2 0x4E5 JUMP JUMPDEST POP DUP1 SWAP2 POP POP SWAP2 SWAP1 POP JUMP JUMPDEST PUSH1 0x4 SLOAD DUP3 LT DUP1 ISZERO PUSH2 0x5DE JUMPI POP PUSH0 PUSH1 0x5 PUSH0 DUP5 DUP2 MSTORE PUSH1 0x20 ADD SWAP1 DUP2 MSTORE PUSH1 0x20 ADD PUSH0 KECCAK256 PUSH0 ADD SLOAD EQ ISZERO JUMPDEST PUSH2 0x61D JUMPI PUSH1 0x40 MLOAD PUSH32 0x8C379A000000000000000000000000000000000000000000000000000000000 DUP2 MSTORE PUSH1 0x4 ADD PUSH2 0x614 SWAP1 PUSH2 0x46D1 JUMP JUMPDEST PUSH1 0x40 MLOAD DUP1 SWAP2 SUB SWAP1 REVERT JUMPDEST PUSH1 0x5 PUSH0 DUP4 DUP2 MSTORE PUSH1 0x20 ADD SWAP1 DUP2 MSTORE PUSH1 0x20 ADD PUSH0 KECCAK256 PUSH1 0x6 ADD PUSH0 SWAP1 SLOAD SWAP1 PUSH2 0x100 EXP SWAP1 DIV PUSH1 0xFF AND ISZERO PUSH2 0x67E JUMPI PUSH1 0x40 MLOAD PUSH32 0x8C379A000000000000000000000000000000000000000000000000000000000 DUP2 MSTORE PUSH1 0x4 ADD PUSH2 0x675 SWAP1 PUSH2 0x4739 JUMP JUMPDEST PUSH1 0x40 MLOAD DUP1 SWAP2 SUB SWAP1 REVERT JUMPDEST PUSH1 0x5 PUSH0 DUP4 DUP2 MSTORE PUSH1 0x20 ADD SWAP1 DUP2 MSTORE PUSH1 0x20 ADD PUSH0 KECCAK256 PUSH1 0x5 ADD SLOAD TIMESTAMP GT ISZERO PUSH2 0x764 JUMPI PUSH1 0x1 PUSH1 0x5 PUSH0 DUP5 DUP2 MSTORE PUSH1 0x20 ADD SWAP1 DUP2 MSTORE PUSH1 0x20 ADD PUSH0 KECCAK256 PUSH1 0x6 ADD PUSH0 PUSH2 0x100 EXP DUP2 SLOAD DUP2 PUSH1 0xFF MUL NOT AND SWAP1 DUP4 ISZERO ISZERO MUL OR SWAP1 SSTORE POP PUSH1 0x40 MLOAD DUP1 PUSH1 0x40 ADD PUSH1 0x40 MSTORE DUP1 PUSH1 0x1A DUP2 MSTORE PUSH1 0x20 ADD PUSH32 0x52656A65637465642064756520746F2065787069726174696F6E000000000000 DUP2 MSTORE POP PUSH1 0x5 PUSH0 DUP5 DUP2 MSTORE PUSH1 0x20 ADD SWAP1 DUP2 MSTORE PUSH1 0x20 ADD PUSH0 KECCAK256 PUSH1 0x7 ADD SWAP1 DUP2 PUSH2 0x71C SWAP2 SWAP1 PUSH2 0x4948 JUMP JUMPDEST POP PUSH32 0xB6CDB9654A453B960EC5FE6F18502A3F0DD823ED74DDC4F68A16B3210265EA5B DUP3 PUSH0 PUSH1 0x40 MLOAD PUSH2 0x74E SWAP3 SWAP2 SWAP1 PUSH2 0x4A61 JUMP JUMPDEST PUSH1 0x40 MLOAD DUP1 SWAP2 SUB SWAP1 LOG1 PUSH2 0x75F DUP3 PUSH2 0x3708 JUMP JUMPDEST PUSH2 0x1249 JUMP JUMPDEST PUSH1 0x1 PUSH1 0x5 PUSH0 DUP5 DUP2 MSTORE PUSH1 0x20 ADD SWAP1 DUP2 MSTORE PUSH1 0x20 ADD PUSH0 KECCAK256 PUSH1 0x6 ADD PUSH0 PUSH2 0x100 EXP DUP2 SLOAD DUP2 PUSH1 0xFF MUL NOT AND SWAP1 DUP4 ISZERO ISZERO MUL OR SWAP1 SSTORE POP DUP1 PUSH2 0x7D0 JUMPI PUSH1 0x40 MLOAD DUP1 PUSH1 0x40 ADD PUSH1 0x40 MSTORE DUP1 PUSH1 0x8 DUP2 MSTORE PUSH1 0x20 ADD PUSH32 0x52656A6563746564000000000000000000000000000000000000000000000000 DUP2 MSTORE POP PUSH2 0x807 JUMP JUMPDEST PUSH1 0x40 MLOAD DUP1 PUSH1 0x40 ADD PUSH1 0x40 MSTORE DUP1 PUSH1 0x8 DUP2 MSTORE PUSH1 0x20 ADD PUSH32 0x4163636570746564000000000000000000000000000000000000000000000000 DUP2 MSTORE POP JUMPDEST PUSH1 0x5 PUSH0 DUP5 DUP2 MSTORE PUSH1 0x20 ADD SWAP1 DUP2 MSTORE PUSH1 0x20 ADD PUSH0 KECCAK256 PUSH1 0x7 ADD SWAP1 DUP2 PUSH2 0x827 SWAP2 SWAP1 PUSH2 0x4948 JUMP JUMPDEST POP PUSH2 0x831 DUP3 PUSH2 0x3708 JUMP JUMPDEST PUSH1 0x7 DUP3 SWAP1 DUP1 PUSH1 0x1 DUP2 SLOAD ADD DUP1 DUP3 SSTORE DUP1 SWAP2 POP POP PUSH1 0x1 SWAP1 SUB SWAP1 PUSH0 MSTORE PUSH1 0x20 PUSH0 KECCAK256 ADD PUSH0 SWAP1 SWAP2 SWAP1 SWAP2 SWAP1 SWAP2 POP SSTORE DUP1 ISZERO PUSH2 0x11FA JUMPI PUSH0 PUSH1 0x5 PUSH0 DUP5 DUP2 MSTORE PUSH1 0x20 ADD SWAP1 DUP2 MSTORE PUSH1 0x20 ADD PUSH0 KECCAK256 SWAP1 POP PUSH0 PUSH1 0x1 DUP2 GT ISZERO PUSH2 0x884 JUMPI PUSH2 0x883 PUSH2 0x3FAB JUMP JUMPDEST JUMPDEST DUP2 PUSH1 0x8 ADD PUSH0 SWAP1 SLOAD SWAP1 PUSH2 0x100 EXP SWAP1 DIV PUSH1 0xFF AND PUSH1 0x1 DUP2 GT ISZERO PUSH2 0x8A7 JUMPI PUSH2 0x8A6 PUSH2 0x3FAB JUMP JUMPDEST JUMPDEST SUB PUSH2 0xD36 JUMPI DUP1 PUSH1 0x4 ADD SLOAD PUSH0 DUP1 SLOAD SWAP1 PUSH2 0x100 EXP SWAP1 DIV PUSH20 0xFFFFFFFFFFFFFFFFFFFFFFFFFFFFFFFFFFFFFFFF AND PUSH20 0xFFFFFFFFFFFFFFFFFFFFFFFFFFFFFFFFFFFFFFFF AND PUSH4 0x70A08231 DUP4 PUSH1 0x1 ADD PUSH0 SWAP1 SLOAD SWAP1 PUSH2 0x100 EXP SWAP1 DIV PUSH20 0xFFFFFFFFFFFFFFFFFFFFFFFFFFFFFFFFFFFFFFFF AND PUSH1 0x40 MLOAD DUP3 PUSH4 0xFFFFFFFF AND PUSH1 0xE0 SHL DUP2 MSTORE PUSH1 0x4 ADD PUSH2 0x92C SWAP2 SWAP1 PUSH2 0x4559 JUMP JUMPDEST PUSH1 0x20 PUSH1 0x40 MLOAD DUP1 DUP4 SUB DUP2 DUP7 GAS STATICCALL ISZERO DUP1 ISZERO PUSH2 0x947 JUMPI RETURNDATASIZE PUSH0 DUP1 RETURNDATACOPY RETURNDATASIZE PUSH0 REVERT JUMPDEST POP POP POP POP PUSH1 0x40 MLOAD RETURNDATASIZE PUSH1 0x1F NOT PUSH1 0x1F DUP3 ADD AND DUP3 ADD DUP1 PUSH1 0x40 MSTORE POP DUP2 ADD SWAP1 PUSH2 0x96B SWAP2 SWAP1 PUSH2 0x4AAF JUMP JUMPDEST LT ISZERO PUSH2 0x9AC JUMPI PUSH1 0x40 MLOAD PUSH32 0x8C379A000000000000000000000000000000000000000000000000000000000 DUP2 MSTORE PUSH1 0x4 ADD PUSH2 0x9A3 SWAP1 PUSH2 0x4B4A JUMP JUMPDEST PUSH1 0x40 MLOAD DUP1 SWAP2 SUB SWAP1 REVERT JUMPDEST DUP1 PUSH1 0x3 ADD SLOAD PUSH1 0x2 PUSH0 DUP4 PUSH1 0x2 ADD PUSH0 SWAP1 SLOAD SWAP1 PUSH2 0x100 EXP SWAP1 DIV PUSH20 0xFFFFFFFFFFFFFFFFFFFFFFFFFFFFFFFFFFFFFFFF AND PUSH20 0xFFFFFFFFFFFFFFFFFFFFFFFFFFFFFFFFFFFFFFFF AND PUSH20 0xFFFFFFFFFFFFFFFFFFFFFFFFFFFFFFFFFFFFFFFF AND DUP2 MSTORE PUSH1 0x20 ADD SWAP1 DUP2 MSTORE PUSH1 0x20 ADD PUSH0 KECCAK256 PUSH1 0x5 ADD SLOAD LT ISZERO PUSH2 0xA56 JUMPI PUSH1 0x40 MLOAD PUSH32 0x8C379A000000000000000000000000000000000000000000000000000000000 DUP2 MSTORE PUSH1 0x4 ADD PUSH2 0xA4D SWAP1 PUSH2 0x4BD8 JUMP JUMPDEST PUSH1 0x40 MLOAD DUP1 SWAP2 SUB SWAP1 REVERT JUMPDEST PUSH0 DUP1 SLOAD SWAP1 PUSH2 0x100 EXP SWAP1 DIV PUSH20 0xFFFFFFFFFFFFFFFFFFFFFFFFFFFFFFFFFFFFFFFF AND PUSH20 0xFFFFFFFFFFFFFFFFFFFFFFFFFFFFFFFFFFFFFFFF AND PUSH4 0x23B872DD DUP3 PUSH1 0x1 ADD PUSH0 SWAP1 SLOAD SWAP1 PUSH2 0x100 EXP SWAP1 DIV PUSH20 0xFFFFFFFFFFFFFFFFFFFFFFFFFFFFFFFFFFFFFFFF AND DUP4 PUSH1 0x2 ADD PUSH0 SWAP1 SLOAD SWAP1 PUSH2 0x100 EXP SWAP1 DIV PUSH20 0xFFFFFFFFFFFFFFFFFFFFFFFFFFFFFFFFFFFFFFFF AND DUP5 PUSH1 0x4 ADD SLOAD PUSH1 0x40 MLOAD DUP5 PUSH4 0xFFFFFFFF AND PUSH1 0xE0 SHL DUP2 MSTORE PUSH1 0x4 ADD PUSH2 0xAFC SWAP4 SWAP3 SWAP2 SWAP1 PUSH2 0x4BF6 JUMP JUMPDEST PUSH1 0x20 PUSH1 0x40 MLOAD DUP1 DUP4 SUB DUP2 PUSH0 DUP8 GAS CALL ISZERO DUP1 ISZERO PUSH2 0xB18 JUMPI RETURNDATASIZE PUSH0 DUP1 RETURNDATACOPY RETURNDATASIZE PUSH0 REVERT JUMPDEST POP POP POP POP PUSH1 0x40 MLOAD RETURNDATASIZE PUSH1 0x1F NOT PUSH1 0x1F DUP3 ADD AND DUP3 ADD DUP1 PUSH1 0x40 MSTORE POP DUP2 ADD SWAP1 PUSH2 0xB3C SWAP2 SWAP1 PUSH2 0x4C3F JUMP JUMPDEST POP DUP1 PUSH1 0x4 ADD SLOAD PUSH1 0x2 PUSH0 DUP4 PUSH1 0x1 ADD PUSH0 SWAP1 SLOAD SWAP1 PUSH2 0x100 EXP SWAP1 DIV PUSH20 0xFFFFFFFFFFFFFFFFFFFFFFFFFFFFFFFFFFFFFFFF AND PUSH20 0xFFFFFFFFFFFFFFFFFFFFFFFFFFFFFFFFFFFFFFFF AND PUSH20 0xFFFFFFFFFFFFFFFFFFFFFFFFFFFFFFFFFFFFFFFF AND DUP2 MSTORE PUSH1 0x20 ADD SWAP1 DUP2 MSTORE PUSH1 0x20 ADD PUSH0 KECCAK256 PUSH1 0x2 ADD PUSH0 DUP3 DUP3 SLOAD PUSH2 0xBB3 SWAP2 SWAP1 PUSH2 0x4C6A JUMP JUMPDEST SWAP3 POP POP DUP2 SWAP1 SSTORE POP DUP1 PUSH1 0x4 ADD SLOAD PUSH1 0x2 PUSH0 DUP4 PUSH1 0x2 ADD PUSH0 SWAP1 SLOAD SWAP1 PUSH2 0x100 EXP SWAP1 DIV PUSH20 0xFFFFFFFFFFFFFFFFFFFFFFFFFFFFFFFFFFFFFFFF AND PUSH20 0xFFFFFFFFFFFFFFFFFFFFFFFFFFFFFFFFFFFFFFFF AND PUSH20 0xFFFFFFFFFFFFFFFFFFFFFFFFFFFFFFFFFFFFFFFF AND DUP2 MSTORE PUSH1 0x20 ADD SWAP1 DUP2 MSTORE PUSH1 0x20 ADD PUSH0 KECCAK256 PUSH1 0x2 ADD PUSH0 DUP3 DUP3 SLOAD PUSH2 0xC30 SWAP2 SWAP1 PUSH2 0x4C9D JUMP JUMPDEST SWAP3 POP POP DUP2 SWAP1 SSTORE POP DUP1 PUSH1 0x3 ADD SLOAD PUSH1 0x2 PUSH0 DUP4 PUSH1 0x1 ADD PUSH0 SWAP1 SLOAD SWAP1 PUSH2 0x100 EXP SWAP1 DIV PUSH20 0xFFFFFFFFFFFFFFFFFFFFFFFFFFFFFFFFFFFFFFFF AND PUSH20 0xFFFFFFFFFFFFFFFFFFFFFFFFFFFFFFFFFFFFFFFF AND PUSH20 0xFFFFFFFFFFFFFFFFFFFFFFFFFFFFFFFFFFFFFFFF AND DUP2 MSTORE PUSH1 0x20 ADD SWAP1 DUP2 MSTORE PUSH1 0x20 ADD PUSH0 KECCAK256 PUSH1 0x5 ADD PUSH0 DUP3 DUP3 SLOAD PUSH2 0xCAD SWAP2 SWAP1 PUSH2 0x4C9D JUMP JUMPDEST SWAP3 POP POP DUP2 SWAP1 SSTORE POP DUP1 PUSH1 0x3 ADD SLOAD PUSH1 0x2 PUSH0 DUP4 PUSH1 0x2 ADD PUSH0 SWAP1 SLOAD SWAP1 PUSH2 0x100 EXP SWAP1 DIV PUSH20 0xFFFFFFFFFFFFFFFFFFFFFFFFFFFFFFFFFFFFFFFF AND PUSH20 0xFFFFFFFFFFFFFFFFFFFFFFFFFFFFFFFFFFFFFFFF AND PUSH20 0xFFFFFFFFFFFFFFFFFFFFFFFFFFFFFFFFFFFFFFFF AND DUP2 MSTORE PUSH1 0x20 ADD SWAP1 DUP2 MSTORE PUSH1 0x20 ADD PUSH0 KECCAK256 PUSH1 0x5 ADD PUSH0 DUP3 DUP3 SLOAD PUSH2 0xD2A SWAP2 SWAP1 PUSH2 0x4C6A JUMP JUMPDEST SWAP3 POP POP DUP2 SWAP1 SSTORE POP PUSH2 0x11F8 JUMP JUMPDEST PUSH1 0x1 DUP1 DUP2 GT ISZERO PUSH2 0xD49 JUMPI PUSH2 0xD48 PUSH2 0x3FAB JUMP JUMPDEST JUMPDEST DUP2 PUSH1 0x8 ADD PUSH0 SWAP1 SLOAD SWAP1 PUSH2 0x100 EXP SWAP1 DIV PUSH1 0xFF AND PUSH1 0x1 DUP2 GT ISZERO PUSH2 0xD6C JUMPI PUSH2 0xD6B PUSH2 0x3FAB JUMP JUMPDEST JUMPDEST SUB PUSH2 0x11F7 JUMPI DUP1 PUSH1 0x4 ADD SLOAD PUSH0 DUP1 SLOAD SWAP1 PUSH2 0x100 EXP SWAP1 DIV PUSH20 0xFFFFFFFFFFFFFFFFFFFFFFFFFFFFFFFFFFFFFFFF AND PUSH20 0xFFFFFFFFFFFFFFFFFFFFFFFFFFFFFFFFFFFFFFFF AND PUSH4 0x70A08231 DUP4 PUSH1 0x2 ADD PUSH0 SWAP1 SLOAD SWAP1 PUSH2 0x100 EXP SWAP1 DIV PUSH20 0xFFFFFFFFFFFFFFFFFFFFFFFFFFFFFFFFFFFFFFFF AND PUSH1 0x40 MLOAD DUP3 PUSH4 0xFFFFFFFF AND PUSH1 0xE0 SHL DUP2 MSTORE PUSH1 0x4 ADD PUSH2 0xDF1 SWAP2 SWAP1 PUSH2 0x4559 JUMP JUMPDEST PUSH1 0x20 PUSH1 0x40 MLOAD DUP1 DUP4 SUB DUP2 DUP7 GAS STATICCALL ISZERO DUP1 ISZERO PUSH2 0xE0C JUMPI RETURNDATASIZE PUSH0 DUP1 RETURNDATACOPY RETURNDATASIZE PUSH0 REVERT JUMPDEST POP POP POP POP PUSH1 0x40 MLOAD RETURNDATASIZE PUSH1 0x1F NOT PUSH1 0x1F DUP3 ADD AND DUP3 ADD DUP1 PUSH1 0x40 MSTORE POP DUP2 ADD SWAP1 PUSH2 0xE30 SWAP2 SWAP1 PUSH2 0x4AAF JUMP JUMPDEST LT ISZERO PUSH2 0xE71 JUMPI PUSH1 0x40 MLOAD PUSH32 0x8C379A000000000000000000000000000000000000000000000000000000000 DUP2 MSTORE PUSH1 0x4 ADD PUSH2 0xE68 SWAP1 PUSH2 0x4D40 JUMP JUMPDEST PUSH1 0x40 MLOAD DUP1 SWAP2 SUB SWAP1 REVERT JUMPDEST DUP1 PUSH1 0x3 ADD SLOAD PUSH1 0x2 PUSH0 DUP4 PUSH1 0x1 ADD PUSH0 SWAP1 SLOAD SWAP1 PUSH2 0x100 EXP SWAP1 DIV PUSH20 0xFFFFFFFFFFFFFFFFFFFFFFFFFFFFFFFFFFFFFFFF AND PUSH20 0xFFFFFFFFFFFFFFFFFFFFFFFFFFFFFFFFFFFFFFFF AND PUSH20 0xFFFFFFFFFFFFFFFFFFFFFFFFFFFFFFFFFFFFFFFF AND DUP2 MSTORE PUSH1 0x20 ADD SWAP1 DUP2 MSTORE PUSH1 0x20 ADD PUSH0 KECCAK256 PUSH1 0x5 ADD SLOAD LT ISZERO PUSH2 0xF1B JUMPI PUSH1 0x40 MLOAD PUSH32 0x8C379A000000000000000000000000000000000000000000000000000000000 DUP2 MSTORE PUSH1 0x4 ADD PUSH2 0xF12 SWAP1 PUSH2 0x4DCE JUMP JUMPDEST PUSH1 0x40 MLOAD DUP1 SWAP2 SUB SWAP1 REVERT JUMPDEST PUSH0 DUP1 SLOAD SWAP1 PUSH2 0x100 EXP SWAP1 DIV PUSH20 0xFFFFFFFFFFFFFFFFFFFFFFFFFFFFFFFFFFFFFFFF AND PUSH20 0xFFFFFFFFFFFFFFFFFFFFFFFFFFFFFFFFFFFFFFFF AND PUSH4 0x23B872DD DUP3 PUSH1 0x2 ADD PUSH0 SWAP1 SLOAD SWAP1 PUSH2 0x100 EXP SWAP1 DIV PUSH20 0xFFFFFFFFFFFFFFFFFFFFFFFFFFFFFFFFFFFFFFFF AND DUP4 PUSH1 0x1 ADD PUSH0 SWAP1 SLOAD SWAP1 PUSH2 0x100 EXP SWAP1 DIV PUSH20 0xFFFFFFFFFFFFFFFFFFFFFFFFFFFFFFFFFFFFFFFF AND DUP5 PUSH1 0x4 ADD SLOAD PUSH1 0x40 MLOAD DUP5 PUSH4 0xFFFFFFFF AND PUSH1 0xE0 SHL DUP2 MSTORE PUSH1 0x4 ADD PUSH2 0xFC1 SWAP4 SWAP3 SWAP2 SWAP1 PUSH2 0x4BF6 JUMP JUMPDEST PUSH1 0x20 PUSH1 0x40 MLOAD DUP1 DUP4 SUB DUP2 PUSH0 DUP8 GAS CALL ISZERO DUP1 ISZERO PUSH2 0xFDD JUMPI RETURNDATASIZE PUSH0 DUP1 RETURNDATACOPY RETURNDATASIZE PUSH0 REVERT JUMPDEST POP POP POP POP PUSH1 0x40 MLOAD RETURNDATASIZE PUSH1 0x1F NOT PUSH1 0x1F DUP3 ADD AND DUP3 ADD DUP1 PUSH1 0x40 MSTORE POP DUP2 ADD SWAP1 PUSH2 0x1001 SWAP2 SWAP1 PUSH2 0x4C3F JUMP JUMPDEST POP DUP1 PUSH1 0x4 ADD SLOAD PUSH1 0x2 PUSH0 DUP4 PUSH1 0x1 ADD PUSH0 SWAP1 SLOAD SWAP1 PUSH2 0x100 EXP SWAP1 DIV PUSH20 0xFFFFFFFFFFFFFFFFFFFFFFFFFFFFFFFFFFFFFFFF AND PUSH20 0xFFFFFFFFFFFFFFFFFFFFFFFFFFFFFFFFFFFFFFFF AND PUSH20 0xFFFFFFFFFFFFFFFFFFFFFFFFFFFFFFFFFFFFFFFF AND DUP2 MSTORE PUSH1 0x20 ADD SWAP1 DUP2 MSTORE PUSH1 0x20 ADD PUSH0 KECCAK256 PUSH1 0x2 ADD PUSH0 DUP3 DUP3 SLOAD PUSH2 0x1078 SWAP2 SWAP1 PUSH2 0x4C9D JUMP JUMPDEST SWAP3 POP POP DUP2 SWAP1 SSTORE POP DUP1 PUSH1 0x4 ADD SLOAD PUSH1 0x2 PUSH0 DUP4 PUSH1 0x2 ADD PUSH0 SWAP1 SLOAD SWAP1 PUSH2 0x100 EXP SWAP1 DIV PUSH20 0xFFFFFFFFFFFFFFFFFFFFFFFFFFFFFFFFFFFFFFFF AND PUSH20 0xFFFFFFFFFFFFFFFFFFFFFFFFFFFFFFFFFFFFFFFF AND PUSH20 0xFFFFFFFFFFFFFFFFFFFFFFFFFFFFFFFFFFFFFFFF AND DUP2 MSTORE PUSH1 0x20 ADD SWAP1 DUP2 MSTORE PUSH1 0x20 ADD PUSH0 KECCAK256 PUSH1 0x2 ADD PUSH0 DUP3 DUP3 SLOAD PUSH2 0x10F5 SWAP2 SWAP1 PUSH2 0x4C6A JUMP JUMPDEST SWAP3 POP POP DUP2 SWAP1 SSTORE POP DUP1 PUSH1 0x3 ADD SLOAD PUSH1 0x2 PUSH0 DUP4 PUSH1 0x1 ADD PUSH0 SWAP1 SLOAD SWAP1 PUSH2 0x100 EXP SWAP1 DIV PUSH20 0xFFFFFFFFFFFFFFFFFFFFFFFFFFFFFFFFFFFFFFFF AND PUSH20 0xFFFFFFFFFFFFFFFFFFFFFFFFFFFFFFFFFFFFFFFF AND PUSH20 0xFFFFFFFFFFFFFFFFFFFFFFFFFFFFFFFFFFFFFFFF AND DUP2 MSTORE PUSH1 0x20 ADD SWAP1 DUP2 MSTORE PUSH1 0x20 ADD PUSH0 KECCAK256 PUSH1 0x5 ADD PUSH0 DUP3 DUP3 SLOAD PUSH2 0x1172 SWAP2 SWAP1 PUSH2 0x4C6A JUMP JUMPDEST SWAP3 POP POP DUP2 SWAP1 SSTORE POP DUP1 PUSH1 0x3 ADD SLOAD PUSH1 0x2 PUSH0 DUP4 PUSH1 0x2 ADD PUSH0 SWAP1 SLOAD SWAP1 PUSH2 0x100 EXP SWAP1 DIV PUSH20 0xFFFFFFFFFFFFFFFFFFFFFFFFFFFFFFFFFFFFFFFF AND PUSH20 0xFFFFFFFFFFFFFFFFFFFFFFFFFFFFFFFFFFFFFFFF AND PUSH20 0xFFFFFFFFFFFFFFFFFFFFFFFFFFFFFFFFFFFFFFFF AND DUP2 MSTORE PUSH1 0x20 ADD SWAP1 DUP2 MSTORE PUSH1 0x20 ADD PUSH0 KECCAK256 PUSH1 0x5 ADD PUSH0 DUP3 DUP3 SLOAD PUSH2 0x11EF SWAP2 SWAP1 PUSH2 0x4C9D JUMP JUMPDEST SWAP3 POP POP DUP2 SWAP1 SSTORE POP JUMPDEST JUMPDEST POP JUMPDEST PUSH32 0xB6CDB9654A453B960EC5FE6F18502A3F0DD823ED74DDC4F68A16B3210265EA5B DUP3 DUP3 PUSH1 0x5 PUSH0 DUP7 DUP2 MSTORE PUSH1 0x20 ADD SWAP1 DUP2 MSTORE PUSH1 0x20 ADD PUSH0 KECCAK256 PUSH1 0x7 ADD PUSH1 0x40 MLOAD PUSH2 0x1240 SWAP4 SWAP3 SWAP2 SWAP1 PUSH2 0x4E6D JUMP JUMPDEST PUSH1 0x40 MLOAD DUP1 SWAP2 SUB SWAP1 LOG1 JUMPDEST POP POP JUMP JUMPDEST PUSH0 PUSH1 0x2 PUSH0 DUP4 PUSH20 0xFFFFFFFFFFFFFFFFFFFFFFFFFFFFFFFFFFFFFFFF AND PUSH20 0xFFFFFFFFFFFFFFFFFFFFFFFFFFFFFFFFFFFFFFFF AND DUP2 MSTORE PUSH1 0x20 ADD SWAP1 DUP2 MSTORE PUSH1 0x20 ADD PUSH0 KECCAK256 PUSH1 0x6 ADD PUSH0 SWAP1 SLOAD SWAP1 PUSH2 0x100 EXP SWAP1 DIV PUSH1 0xFF AND SWAP1 POP SWAP2 SWAP1 POP JUMP JUMPDEST PUSH0 DUP1 SLOAD SWAP1 PUSH2 0x100 EXP SWAP1 DIV PUSH20 0xFFFFFFFFFFFFFFFFFFFFFFFFFFFFFFFFFFFFFFFF AND PUSH20 0xFFFFFFFFFFFFFFFFFFFFFFFFFFFFFFFFFFFFFFFF AND PUSH4 0x95EA7B3 ADDRESS DUP4 PUSH1 0x40 MLOAD DUP4 PUSH4 0xFFFFFFFF AND PUSH1 0xE0 SHL DUP2 MSTORE PUSH1 0x4 ADD PUSH2 0x12FC SWAP3 SWAP2 SWAP1 PUSH2 0x4EA9 JUMP JUMPDEST PUSH1 0x20 PUSH1 0x40 MLOAD DUP1 DUP4 SUB DUP2 PUSH0 DUP8 GAS CALL ISZERO DUP1 ISZERO PUSH2 0x1318 JUMPI RETURNDATASIZE PUSH0 DUP1 RETURNDATACOPY RETURNDATASIZE PUSH0 REVERT JUMPDEST POP POP POP POP PUSH1 0x40 MLOAD RETURNDATASIZE PUSH1 0x1F NOT PUSH1 0x1F DUP3 ADD AND DUP3 ADD DUP1 PUSH1 0x40 MSTORE POP DUP2 ADD SWAP1 PUSH2 0x133C SWAP2 SWAP1 PUSH2 0x4C3F JUMP JUMPDEST POP POP JUMP JUMPDEST PUSH1 0x2 PUSH0 DUP8 PUSH20 0xFFFFFFFFFFFFFFFFFFFFFFFFFFFFFFFFFFFFFFFF AND PUSH20 0xFFFFFFFFFFFFFFFFFFFFFFFFFFFFFFFFFFFFFFFF AND DUP2 MSTORE PUSH1 0x20 ADD SWAP1 DUP2 MSTORE PUSH1 0x20 ADD PUSH0 KECCAK256 PUSH1 0x6 ADD PUSH0 SWAP1 SLOAD SWAP1 PUSH2 0x100 EXP SWAP1 DIV PUSH1 0xFF AND PUSH2 0x13CC JUMPI PUSH1 0x40 MLOAD PUSH32 0x8C379A000000000000000000000000000000000000000000000000000000000 DUP2 MSTORE PUSH1 0x4 ADD PUSH2 0x13C3 SWAP1 PUSH2 0x4F1A JUMP JUMPDEST PUSH1 0x40 MLOAD DUP1 SWAP2 SUB SWAP1 REVERT JUMPDEST PUSH1 0x2 PUSH0 DUP7 PUSH20 0xFFFFFFFFFFFFFFFFFFFFFFFFFFFFFFFFFFFFFFFF AND PUSH20 0xFFFFFFFFFFFFFFFFFFFFFFFFFFFFFFFFFFFFFFFF AND DUP2 MSTORE PUSH1 0x20 ADD SWAP1 DUP2 MSTORE PUSH1 0x20 ADD PUSH0 KECCAK256 PUSH1 0x6 ADD PUSH0 SWAP1 SLOAD SWAP1 PUSH2 0x100 EXP SWAP1 DIV PUSH1 0xFF AND PUSH2 0x1458 JUMPI PUSH1 0x40 MLOAD PUSH32 0x8C379A000000000000000000000000000000000000000000000000000000000 DUP2 MSTORE PUSH1 0x4 ADD PUSH2 0x144F SWAP1 PUSH2 0x4F82 JUMP JUMPDEST PUSH1 0x40 MLOAD DUP1 SWAP2 SUB SWAP1 REVERT JUMPDEST TIMESTAMP DUP3 GT PUSH2 0x149A JUMPI PUSH1 0x40 MLOAD PUSH32 0x8C379A000000000000000000000000000000000000000000000000000000000 DUP2 MSTORE PUSH1 0x4 ADD PUSH2 0x1491 SWAP1 PUSH2 0x5010 JUMP JUMPDEST PUSH1 0x40 MLOAD DUP1 SWAP2 SUB SWAP1 REVERT JUMPDEST DUP1 ISZERO PUSH2 0x1601 JUMPI DUP3 PUSH0 DUP1 SLOAD SWAP1 PUSH2 0x100 EXP SWAP1 DIV PUSH20 0xFFFFFFFFFFFFFFFFFFFFFFFFFFFFFFFFFFFFFFFF AND PUSH20 0xFFFFFFFFFFFFFFFFFFFFFFFFFFFFFFFFFFFFFFFF AND PUSH4 0x70A08231 DUP9 PUSH1 0x40 MLOAD DUP3 PUSH4 0xFFFFFFFF AND PUSH1 0xE0 SHL DUP2 MSTORE PUSH1 0x4 ADD PUSH2 0x14F9 SWAP2 SWAP1 PUSH2 0x4559 JUMP JUMPDEST PUSH1 0x20 PUSH1 0x40 MLOAD DUP1 DUP4 SUB DUP2 DUP7 GAS STATICCALL ISZERO DUP1 ISZERO PUSH2 0x1514 JUMPI RETURNDATASIZE PUSH0 DUP1 RETURNDATACOPY RETURNDATASIZE PUSH0 REVERT JUMPDEST POP POP POP POP PUSH1 0x40 MLOAD RETURNDATASIZE PUSH1 0x1F NOT PUSH1 0x1F DUP3 ADD AND DUP3 ADD DUP1 PUSH1 0x40 MSTORE POP DUP2 ADD SWAP1 PUSH2 0x1538 SWAP2 SWAP1 PUSH2 0x4AAF JUMP JUMPDEST LT ISZERO PUSH2 0x1579 JUMPI PUSH1 0x40 MLOAD PUSH32 0x8C379A000000000000000000000000000000000000000000000000000000000 DUP2 MSTORE PUSH1 0x4 ADD PUSH2 0x1570 SWAP1 PUSH2 0x509E JUMP JUMPDEST PUSH1 0x40 MLOAD DUP1 SWAP2 SUB SWAP1 REVERT JUMPDEST DUP4 PUSH1 0x2 PUSH0 DUP8 PUSH20 0xFFFFFFFFFFFFFFFFFFFFFFFFFFFFFFFFFFFFFFFF AND PUSH20 0xFFFFFFFFFFFFFFFFFFFFFFFFFFFFFFFFFFFFFFFF AND DUP2 MSTORE PUSH1 0x20 ADD SWAP1 DUP2 MSTORE PUSH1 0x20 ADD PUSH0 KECCAK256 PUSH1 0x5 ADD SLOAD LT ISZERO PUSH2 0x15FC JUMPI PUSH1 0x40 MLOAD PUSH32 0x8C379A000000000000000000000000000000000000000000000000000000000 DUP2 MSTORE PUSH1 0x4 ADD PUSH2 0x15F3 SWAP1 PUSH2 0x4BD8 JUMP JUMPDEST PUSH1 0x40 MLOAD DUP1 SWAP2 SUB SWAP1 REVERT JUMPDEST PUSH2 0x175E JUMP JUMPDEST DUP4 PUSH1 0x2 PUSH0 DUP9 PUSH20 0xFFFFFFFFFFFFFFFFFFFFFFFFFFFFFFFFFFFFFFFF AND PUSH20 0xFFFFFFFFFFFFFFFFFFFFFFFFFFFFFFFFFFFFFFFF AND DUP2 MSTORE PUSH1 0x20 ADD SWAP1 DUP2 MSTORE PUSH1 0x20 ADD PUSH0 KECCAK256 PUSH1 0x5 ADD SLOAD LT ISZERO PUSH2 0x1684 JUMPI PUSH1 0x40 MLOAD PUSH32 0x8C379A000000000000000000000000000000000000000000000000000000000 DUP2 MSTORE PUSH1 0x4 ADD PUSH2 0x167B SWAP1 PUSH2 0x512C JUMP JUMPDEST PUSH1 0x40 MLOAD DUP1 SWAP2 SUB SWAP1 REVERT JUMPDEST DUP3 PUSH0 DUP1 SLOAD SWAP1 PUSH2 0x100 EXP SWAP1 DIV PUSH20 0xFFFFFFFFFFFFFFFFFFFFFFFFFFFFFFFFFFFFFFFF AND PUSH20 0xFFFFFFFFFFFFFFFFFFFFFFFFFFFFFFFFFFFFFFFF AND PUSH4 0x70A08231 DUP8 PUSH1 0x40 MLOAD DUP3 PUSH4 0xFFFFFFFF AND PUSH1 0xE0 SHL DUP2 MSTORE PUSH1 0x4 ADD PUSH2 0x16DD SWAP2 SWAP1 PUSH2 0x4559 JUMP JUMPDEST PUSH1 0x20 PUSH1 0x40 MLOAD DUP1 DUP4 SUB DUP2 DUP7 GAS STATICCALL ISZERO DUP1 ISZERO PUSH2 0x16F8 JUMPI RETURNDATASIZE PUSH0 DUP1 RETURNDATACOPY RETURNDATASIZE PUSH0 REVERT JUMPDEST POP POP POP POP PUSH1 0x40 MLOAD RETURNDATASIZE PUSH1 0x1F NOT PUSH1 0x1F DUP3 ADD AND DUP3 ADD DUP1 PUSH1 0x40 MSTORE POP DUP2 ADD SWAP1 PUSH2 0x171C SWAP2 SWAP1 PUSH2 0x4AAF JUMP JUMPDEST LT ISZERO PUSH2 0x175D JUMPI PUSH1 0x40 MLOAD PUSH32 0x8C379A000000000000000000000000000000000000000000000000000000000 DUP2 MSTORE PUSH1 0x4 ADD PUSH2 0x1754 SWAP1 PUSH2 0x509E JUMP JUMPDEST PUSH1 0x40 MLOAD DUP1 SWAP2 SUB SWAP1 REVERT JUMPDEST JUMPDEST PUSH0 PUSH1 0x4 PUSH0 DUP2 SLOAD DUP1 SWAP3 SWAP2 SWAP1 PUSH2 0x1771 SWAP1 PUSH2 0x4640 JUMP JUMPDEST SWAP2 SWAP1 POP SSTORE SWAP1 POP PUSH1 0x40 MLOAD DUP1 PUSH2 0x120 ADD PUSH1 0x40 MSTORE DUP1 DUP3 DUP2 MSTORE PUSH1 0x20 ADD DUP9 PUSH20 0xFFFFFFFFFFFFFFFFFFFFFFFFFFFFFFFFFFFFFFFF AND DUP2 MSTORE PUSH1 0x20 ADD DUP8 PUSH20 0xFFFFFFFFFFFFFFFFFFFFFFFFFFFFFFFFFFFFFFFF AND DUP2 MSTORE PUSH1 0x20 ADD DUP7 DUP2 MSTORE PUSH1 0x20 ADD DUP6 DUP2 MSTORE PUSH1 0x20 ADD DUP5 DUP2 MSTORE PUSH1 0x20 ADD PUSH0 ISZERO ISZERO DUP2 MSTORE PUSH1 0x20 ADD PUSH1 0x40 MLOAD DUP1 PUSH1 0x40 ADD PUSH1 0x40 MSTORE DUP1 PUSH1 0x7 DUP2 MSTORE PUSH1 0x20 ADD PUSH32 0x50656E64696E6700000000000000000000000000000000000000000000000000 DUP2 MSTORE POP DUP2 MSTORE PUSH1 0x20 ADD DUP4 PUSH2 0x1822 JUMPI PUSH1 0x1 PUSH2 0x1824 JUMP JUMPDEST PUSH0 JUMPDEST PUSH1 0x1 DUP2 GT ISZERO PUSH2 0x1836 JUMPI PUSH2 0x1835 PUSH2 0x3FAB JUMP JUMPDEST JUMPDEST DUP2 MSTORE POP PUSH1 0x5 PUSH0 DUP4 DUP2 MSTORE PUSH1 0x20 ADD SWAP1 DUP2 MSTORE PUSH1 0x20 ADD PUSH0 KECCAK256 PUSH0 DUP3 ADD MLOAD DUP2 PUSH0 ADD SSTORE PUSH1 0x20 DUP3 ADD MLOAD DUP2 PUSH1 0x1 ADD PUSH0 PUSH2 0x100 EXP DUP2 SLOAD DUP2 PUSH20 0xFFFFFFFFFFFFFFFFFFFFFFFFFFFFFFFFFFFFFFFF MUL NOT AND SWAP1 DUP4 PUSH20 0xFFFFFFFFFFFFFFFFFFFFFFFFFFFFFFFFFFFFFFFF AND MUL OR SWAP1 SSTORE POP PUSH1 0x40 DUP3 ADD MLOAD DUP2 PUSH1 0x2 ADD PUSH0 PUSH2 0x100 EXP DUP2 SLOAD DUP2 PUSH20 0xFFFFFFFFFFFFFFFFFFFFFFFFFFFFFFFFFFFFFFFF MUL NOT AND SWAP1 DUP4 PUSH20 0xFFFFFFFFFFFFFFFFFFFFFFFFFFFFFFFFFFFFFFFF AND MUL OR SWAP1 SSTORE POP PUSH1 0x60 DUP3 ADD MLOAD DUP2 PUSH1 0x3 ADD SSTORE PUSH1 0x80 DUP3 ADD MLOAD DUP2 PUSH1 0x4 ADD SSTORE PUSH1 0xA0 DUP3 ADD MLOAD DUP2 PUSH1 0x5 ADD SSTORE PUSH1 0xC0 DUP3 ADD MLOAD DUP2 PUSH1 0x6 ADD PUSH0 PUSH2 0x100 EXP DUP2 SLOAD DUP2 PUSH1 0xFF MUL NOT AND SWAP1 DUP4 ISZERO ISZERO MUL OR SWAP1 SSTORE POP PUSH1 0xE0 DUP3 ADD MLOAD DUP2 PUSH1 0x7 ADD SWAP1 DUP2 PUSH2 0x1930 SWAP2 SWAP1 PUSH2 0x4948 JUMP JUMPDEST POP PUSH2 0x100 DUP3 ADD MLOAD DUP2 PUSH1 0x8 ADD PUSH0 PUSH2 0x100 EXP DUP2 SLOAD DUP2 PUSH1 0xFF MUL NOT AND SWAP1 DUP4 PUSH1 0x1 DUP2 GT ISZERO PUSH2 0x195C JUMPI PUSH2 0x195B PUSH2 0x3FAB JUMP JUMPDEST JUMPDEST MUL OR SWAP1 SSTORE POP SWAP1 POP POP PUSH1 0x6 DUP2 SWAP1 DUP1 PUSH1 0x1 DUP2 SLOAD ADD DUP1 DUP3 SSTORE DUP1 SWAP2 POP POP PUSH1 0x1 SWAP1 SUB SWAP1 PUSH0 MSTORE PUSH1 0x20 PUSH0 KECCAK256 ADD PUSH0 SWAP1 SWAP2 SWAP1 SWAP2 SWAP1 SWAP2 POP SSTORE PUSH32 0x6F2FAC3F769ED900EB9891A73CAA7B5267CE788A20299805CE4B85934CB200F5 DUP2 DUP8 DUP5 PUSH2 0x19B9 JUMPI PUSH1 0x1 PUSH2 0x19BB JUMP JUMPDEST PUSH0 JUMPDEST PUSH1 0x40 MLOAD PUSH2 0x19CA SWAP4 SWAP3 SWAP2 SWAP1 PUSH2 0x514A JUMP JUMPDEST PUSH1 0x40 MLOAD DUP1 SWAP2 SUB SWAP1 LOG1 POP POP POP POP POP POP POP JUMP JUMPDEST PUSH1 0x2 PUSH0 CALLER PUSH20 0xFFFFFFFFFFFFFFFFFFFFFFFFFFFFFFFFFFFFFFFF AND PUSH20 0xFFFFFFFFFFFFFFFFFFFFFFFFFFFFFFFFFFFFFFFF AND DUP2 MSTORE PUSH1 0x20 ADD SWAP1 DUP2 MSTORE PUSH1 0x20 ADD PUSH0 KECCAK256 PUSH1 0x6 ADD PUSH0 SWAP1 SLOAD SWAP1 PUSH2 0x100 EXP SWAP1 DIV PUSH1 0xFF AND ISZERO PUSH2 0x1A68 JUMPI PUSH1 0x40 MLOAD PUSH32 0x8C379A000000000000000000000000000000000000000000000000000000000 DUP2 MSTORE PUSH1 0x4 ADD PUSH2 0x1A5F SWAP1 PUSH2 0x51C9 JUMP JUMPDEST PUSH1 0x40 MLOAD DUP1 SWAP2 SUB SWAP1 REVERT JUMPDEST PUSH0 PUSH1 0x2 PUSH0 CALLER PUSH20 0xFFFFFFFFFFFFFFFFFFFFFFFFFFFFFFFFFFFFFFFF AND PUSH20 0xFFFFFFFFFFFFFFFFFFFFFFFFFFFFFFFFFFFFFFFF AND DUP2 MSTORE PUSH1 0x20 ADD SWAP1 DUP2 MSTORE PUSH1 0x20 ADD PUSH0 KECCAK256 SWAP1 POP CALLER DUP2 PUSH0 ADD PUSH0 PUSH2 0x100 EXP DUP2 SLOAD DUP2 PUSH20 0xFFFFFFFFFFFFFFFFFFFFFFFFFFFFFFFFFFFFFFFF MUL NOT AND SWAP1 DUP4 PUSH20 0xFFFFFFFFFFFFFFFFFFFFFFFFFFFFFFFFFFFFFFFF AND MUL OR SWAP1 SSTORE POP DUP5 DUP2 PUSH1 0x1 ADD SWAP1 DUP2 PUSH2 0x1AFA SWAP2 SWAP1 PUSH2 0x4948 JUMP JUMPDEST POP DUP4 DUP2 PUSH1 0x3 ADD DUP2 SWAP1 SSTORE POP DUP3 DUP2 PUSH1 0x4 ADD DUP2 SWAP1 SSTORE POP DUP2 DUP2 PUSH1 0x5 ADD DUP2 SWAP1 SSTORE POP PUSH1 0x1 DUP2 PUSH1 0x6 ADD PUSH0 PUSH2 0x100 EXP DUP2 SLOAD DUP2 PUSH1 0xFF MUL NOT AND SWAP1 DUP4 ISZERO ISZERO MUL OR SWAP1 SSTORE POP PUSH0 DUP1 SLOAD SWAP1 PUSH2 0x100 EXP SWAP1 DIV PUSH20 0xFFFFFFFFFFFFFFFFFFFFFFFFFFFFFFFFFFFFFFFF AND PUSH20 0xFFFFFFFFFFFFFFFFFFFFFFFFFFFFFFFFFFFFFFFF AND PUSH4 0x313CE567 PUSH1 0x40 MLOAD DUP2 PUSH4 0xFFFFFFFF AND PUSH1 0xE0 SHL DUP2 MSTORE PUSH1 0x4 ADD PUSH1 0x20 PUSH1 0x40 MLOAD DUP1 DUP4 SUB DUP2 DUP7 GAS STATICCALL ISZERO DUP1 ISZERO PUSH2 0x1B9A JUMPI RETURNDATASIZE PUSH0 DUP1 RETURNDATACOPY RETURNDATASIZE PUSH0 REVERT JUMPDEST POP POP POP POP PUSH1 0x40 MLOAD RETURNDATASIZE PUSH1 0x1F NOT PUSH1 0x1F DUP3 ADD AND DUP3 ADD DUP1 PUSH1 0x40 MSTORE POP DUP2 ADD SWAP1 PUSH2 0x1BBE SWAP2 SWAP1 PUSH2 0x521D JUMP JUMPDEST PUSH1 0xFF AND PUSH1 0xA PUSH2 0x1BCD SWAP2 SWAP1 PUSH2 0x5377 JUMP JUMPDEST PUSH1 0x14 PUSH2 0x1BD9 SWAP2 SWAP1 PUSH2 0x53C1 JUMP JUMPDEST DUP2 PUSH1 0x2 ADD DUP2 SWAP1 SSTORE POP PUSH1 0x1 CALLER SWAP1 DUP1 PUSH1 0x1 DUP2 SLOAD ADD DUP1 DUP3 SSTORE DUP1 SWAP2 POP POP PUSH1 0x1 SWAP1 SUB SWAP1 PUSH0 MSTORE PUSH1 0x20 PUSH0 KECCAK256 ADD PUSH0 SWAP1 SWAP2 SWAP1 SWAP2 SWAP1 SWAP2 PUSH2 0x100 EXP DUP2 SLOAD DUP2 PUSH20 0xFFFFFFFFFFFFFFFFFFFFFFFFFFFFFFFFFFFFFFFF MUL NOT AND SWAP1 DUP4 PUSH20 0xFFFFFFFFFFFFFFFFFFFFFFFFFFFFFFFFFFFFFFFF AND MUL OR SWAP1 SSTORE POP PUSH0 DUP1 SLOAD SWAP1 PUSH2 0x100 EXP SWAP1 DIV PUSH20 0xFFFFFFFFFFFFFFFFFFFFFFFFFFFFFFFFFFFFFFFF AND PUSH20 0xFFFFFFFFFFFFFFFFFFFFFFFFFFFFFFFFFFFFFFFF AND PUSH4 0x40C10F19 CALLER DUP4 PUSH1 0x2 ADD SLOAD PUSH1 0x40 MLOAD DUP4 PUSH4 0xFFFFFFFF AND PUSH1 0xE0 SHL DUP2 MSTORE PUSH1 0x4 ADD PUSH2 0x1C9F SWAP3 SWAP2 SWAP1 PUSH2 0x4EA9 JUMP JUMPDEST PUSH0 PUSH1 0x40 MLOAD DUP1 DUP4 SUB DUP2 PUSH0 DUP8 DUP1 EXTCODESIZE ISZERO DUP1 ISZERO PUSH2 0x1CB6 JUMPI PUSH0 DUP1 REVERT JUMPDEST POP GAS CALL ISZERO DUP1 ISZERO PUSH2 0x1CC8 JUMPI RETURNDATASIZE PUSH0 DUP1 RETURNDATACOPY RETURNDATASIZE PUSH0 REVERT JUMPDEST POP POP POP POP CALLER PUSH20 0xFFFFFFFFFFFFFFFFFFFFFFFFFFFFFFFFFFFFFFFF AND PUSH32 0xC1C48F9664DA3D8AA20B115CAAD4BC6E3BBA7518FD57D8252772EE728FFB2D6 DUP7 DUP7 DUP7 DUP7 PUSH1 0x40 MLOAD PUSH2 0x1D18 SWAP5 SWAP4 SWAP3 SWAP2 SWAP1 PUSH2 0x5402 JUMP JUMPDEST PUSH1 0x40 MLOAD DUP1 SWAP2 SUB SWAP1 LOG2 POP POP POP POP POP JUMP JUMPDEST PUSH1 0x60 PUSH0 PUSH1 0x1 PUSH1 0x4 SLOAD PUSH2 0x1D39 SWAP2 SWAP1 PUSH2 0x4C6A JUMP JUMPDEST PUSH8 0xFFFFFFFFFFFFFFFF DUP2 GT ISZERO PUSH2 0x1D52 JUMPI PUSH2 0x1D51 PUSH2 0x3B46 JUMP JUMPDEST JUMPDEST PUSH1 0x40 MLOAD SWAP1 DUP1 DUP3 MSTORE DUP1 PUSH1 0x20 MUL PUSH1 0x20 ADD DUP3 ADD PUSH1 0x40 MSTORE DUP1 ISZERO PUSH2 0x1D80 JUMPI DUP2 PUSH1 0x20 ADD PUSH1 0x20 DUP3 MUL DUP1 CALLDATASIZE DUP4 CALLDATACOPY DUP1 DUP3 ADD SWAP2 POP POP SWAP1 POP JUMPDEST POP SWAP1 POP PUSH0 DUP1 PUSH1 0x1 SWAP1 POP JUMPDEST PUSH1 0x4 SLOAD DUP2 LT ISZERO PUSH2 0x1EA0 JUMPI DUP5 PUSH20 0xFFFFFFFFFFFFFFFFFFFFFFFFFFFFFFFFFFFFFFFF AND PUSH1 0x5 PUSH0 DUP4 DUP2 MSTORE PUSH1 0x20 ADD SWAP1 DUP2 MSTORE PUSH1 0x20 ADD PUSH0 KECCAK256 PUSH1 0x1 ADD PUSH0 SWAP1 SLOAD SWAP1 PUSH2 0x100 EXP SWAP1 DIV PUSH20 0xFFFFFFFFFFFFFFFFFFFFFFFFFFFFFFFFFFFFFFFF AND PUSH20 0xFFFFFFFFFFFFFFFFFFFFFFFFFFFFFFFFFFFFFFFF AND EQ DUP1 PUSH2 0x1E5F JUMPI POP DUP5 PUSH20 0xFFFFFFFFFFFFFFFFFFFFFFFFFFFFFFFFFFFFFFFF AND PUSH1 0x5 PUSH0 DUP4 DUP2 MSTORE PUSH1 0x20 ADD SWAP1 DUP2 MSTORE PUSH1 0x20 ADD PUSH0 KECCAK256 PUSH1 0x2 ADD PUSH0 SWAP1 SLOAD SWAP1 PUSH2 0x100 EXP SWAP1 DIV PUSH20 0xFFFFFFFFFFFFFFFFFFFFFFFFFFFFFFFFFFFFFFFF AND PUSH20 0xFFFFFFFFFFFFFFFFFFFFFFFFFFFFFFFFFFFFFFFF AND EQ JUMPDEST ISZERO PUSH2 0x1E93 JUMPI DUP1 DUP4 DUP4 DUP2 MLOAD DUP2 LT PUSH2 0x1E78 JUMPI PUSH2 0x1E77 PUSH2 0x45E6 JUMP JUMPDEST JUMPDEST PUSH1 0x20 MUL PUSH1 0x20 ADD ADD DUP2 DUP2 MSTORE POP POP DUP2 DUP1 PUSH2 0x1E8F SWAP1 PUSH2 0x4640 JUMP JUMPDEST SWAP3 POP POP JUMPDEST DUP1 DUP1 PUSH1 0x1 ADD SWAP2 POP POP PUSH2 0x1D8A JUMP JUMPDEST POP PUSH0 DUP2 PUSH8 0xFFFFFFFFFFFFFFFF DUP2 GT ISZERO PUSH2 0x1EBC JUMPI PUSH2 0x1EBB PUSH2 0x3B46 JUMP JUMPDEST JUMPDEST PUSH1 0x40 MLOAD SWAP1 DUP1 DUP3 MSTORE DUP1 PUSH1 0x20 MUL PUSH1 0x20 ADD DUP3 ADD PUSH1 0x40 MSTORE DUP1 ISZERO PUSH2 0x1EEA JUMPI DUP2 PUSH1 0x20 ADD PUSH1 0x20 DUP3 MUL DUP1 CALLDATASIZE DUP4 CALLDATACOPY DUP1 DUP3 ADD SWAP2 POP POP SWAP1 POP JUMPDEST POP SWAP1 POP PUSH0 JUMPDEST DUP3 DUP2 LT ISZERO PUSH2 0x1F3E JUMPI DUP4 DUP2 DUP2 MLOAD DUP2 LT PUSH2 0x1F0A JUMPI PUSH2 0x1F09 PUSH2 0x45E6 JUMP JUMPDEST JUMPDEST PUSH1 0x20 MUL PUSH1 0x20 ADD ADD MLOAD DUP3 DUP3 DUP2 MLOAD DUP2 LT PUSH2 0x1F25 JUMPI PUSH2 0x1F24 PUSH2 0x45E6 JUMP JUMPDEST JUMPDEST PUSH1 0x20 MUL PUSH1 0x20 ADD ADD DUP2 DUP2 MSTORE POP POP DUP1 DUP1 PUSH1 0x1 ADD SWAP2 POP POP PUSH2 0x1EEF JUMP JUMPDEST POP DUP1 SWAP4 POP POP POP POP SWAP2 SWAP1 POP JUMP JUMPDEST PUSH1 0x60 PUSH0 PUSH1 0x7 DUP1 SLOAD SWAP1 POP PUSH8 0xFFFFFFFFFFFFFFFF DUP2 GT ISZERO PUSH2 0x1F6C JUMPI PUSH2 0x1F6B PUSH2 0x3B46 JUMP JUMPDEST JUMPDEST PUSH1 0x40 MLOAD SWAP1 DUP1 DUP3 MSTORE DUP1 PUSH1 0x20 MUL PUSH1 0x20 ADD DUP3 ADD PUSH1 0x40 MSTORE DUP1 ISZERO PUSH2 0x1F9A JUMPI DUP2 PUSH1 0x20 ADD PUSH1 0x20 DUP3 MUL DUP1 CALLDATASIZE DUP4 CALLDATACOPY DUP1 DUP3 ADD SWAP2 POP POP SWAP1 POP JUMPDEST POP SWAP1 POP PUSH0 DUP1 JUMPDEST PUSH1 0x7 DUP1 SLOAD SWAP1 POP DUP2 LT ISZERO PUSH2 0x20E6 JUMPI PUSH0 PUSH1 0x5 PUSH0 PUSH1 0x7 DUP5 DUP2 SLOAD DUP2 LT PUSH2 0x1FC5 JUMPI PUSH2 0x1FC4 PUSH2 0x45E6 JUMP JUMPDEST JUMPDEST SWAP1 PUSH0 MSTORE PUSH1 0x20 PUSH0 KECCAK256 ADD SLOAD DUP2 MSTORE PUSH1 0x20 ADD SWAP1 DUP2 MSTORE PUSH1 0x20 ADD PUSH0 KECCAK256 SWAP1 POP DUP6 PUSH20 0xFFFFFFFFFFFFFFFFFFFFFFFFFFFFFFFFFFFFFFFF AND DUP2 PUSH1 0x1 ADD PUSH0 SWAP1 SLOAD SWAP1 PUSH2 0x100 EXP SWAP1 DIV PUSH20 0xFFFFFFFFFFFFFFFFFFFFFFFFFFFFFFFFFFFFFFFF AND PUSH20 0xFFFFFFFFFFFFFFFFFFFFFFFFFFFFFFFFFFFFFFFF AND EQ DUP1 PUSH2 0x2088 JUMPI POP DUP6 PUSH20 0xFFFFFFFFFFFFFFFFFFFFFFFFFFFFFFFFFFFFFFFF AND DUP2 PUSH1 0x2 ADD PUSH0 SWAP1 SLOAD SWAP1 PUSH2 0x100 EXP SWAP1 DIV PUSH20 0xFFFFFFFFFFFFFFFFFFFFFFFFFFFFFFFFFFFFFFFF AND PUSH20 0xFFFFFFFFFFFFFFFFFFFFFFFFFFFFFFFFFFFFFFFF AND EQ JUMPDEST ISZERO PUSH2 0x20D8 JUMPI PUSH1 0x7 DUP3 DUP2 SLOAD DUP2 LT PUSH2 0x20A1 JUMPI PUSH2 0x20A0 PUSH2 0x45E6 JUMP JUMPDEST JUMPDEST SWAP1 PUSH0 MSTORE PUSH1 0x20 PUSH0 KECCAK256 ADD SLOAD DUP5 DUP5 DUP2 MLOAD DUP2 LT PUSH2 0x20BD JUMPI PUSH2 0x20BC PUSH2 0x45E6 JUMP JUMPDEST JUMPDEST PUSH1 0x20 MUL PUSH1 0x20 ADD ADD DUP2 DUP2 MSTORE POP POP DUP3 DUP1 PUSH2 0x20D4 SWAP1 PUSH2 0x4640 JUMP JUMPDEST SWAP4 POP POP JUMPDEST POP DUP1 DUP1 PUSH1 0x1 ADD SWAP2 POP POP PUSH2 0x1FA0 JUMP JUMPDEST POP PUSH0 DUP2 PUSH8 0xFFFFFFFFFFFFFFFF DUP2 GT ISZERO PUSH2 0x2102 JUMPI PUSH2 0x2101 PUSH2 0x3B46 JUMP JUMPDEST JUMPDEST PUSH1 0x40 MLOAD SWAP1 DUP1 DUP3 MSTORE DUP1 PUSH1 0x20 MUL PUSH1 0x20 ADD DUP3 ADD PUSH1 0x40 MSTORE DUP1 ISZERO PUSH2 0x2130 JUMPI DUP2 PUSH1 0x20 ADD PUSH1 0x20 DUP3 MUL DUP1 CALLDATASIZE DUP4 CALLDATACOPY DUP1 DUP3 ADD SWAP2 POP POP SWAP1 POP JUMPDEST POP SWAP1 POP PUSH0 JUMPDEST DUP3 DUP2 LT ISZERO PUSH2 0x2184 JUMPI DUP4 DUP2 DUP2 MLOAD DUP2 LT PUSH2 0x2150 JUMPI PUSH2 0x214F PUSH2 0x45E6 JUMP JUMPDEST JUMPDEST PUSH1 0x20 MUL PUSH1 0x20 ADD ADD MLOAD DUP3 DUP3 DUP2 MLOAD DUP2 LT PUSH2 0x216B JUMPI PUSH2 0x216A PUSH2 0x45E6 JUMP JUMPDEST JUMPDEST PUSH1 0x20 MUL PUSH1 0x20 ADD ADD DUP2 DUP2 MSTORE POP POP DUP1 DUP1 PUSH1 0x1 ADD SWAP2 POP POP PUSH2 0x2135 JUMP JUMPDEST POP DUP1 SWAP4 POP POP POP POP SWAP2 SWAP1 POP JUMP JUMPDEST PUSH1 0x3 PUSH0 SWAP1 SLOAD SWAP1 PUSH2 0x100 EXP SWAP1 DIV PUSH20 0xFFFFFFFFFFFFFFFFFFFFFFFFFFFFFFFFFFFFFFFF AND PUSH20 0xFFFFFFFFFFFFFFFFFFFFFFFFFFFFFFFFFFFFFFFF AND CALLER PUSH20 0xFFFFFFFFFFFFFFFFFFFFFFFFFFFFFFFFFFFFFFFF AND EQ PUSH2 0x221F JUMPI PUSH1 0x40 MLOAD PUSH32 0x8C379A000000000000000000000000000000000000000000000000000000000 DUP2 MSTORE PUSH1 0x4 ADD PUSH2 0x2216 SWAP1 PUSH2 0x5496 JUMP JUMPDEST PUSH1 0x40 MLOAD DUP1 SWAP2 SUB SWAP1 REVERT JUMPDEST PUSH1 0x2 PUSH0 DUP3 PUSH20 0xFFFFFFFFFFFFFFFFFFFFFFFFFFFFFFFFFFFFFFFF AND PUSH20 0xFFFFFFFFFFFFFFFFFFFFFFFFFFFFFFFFFFFFFFFF AND DUP2 MSTORE PUSH1 0x20 ADD SWAP1 DUP2 MSTORE PUSH1 0x20 ADD PUSH0 KECCAK256 PUSH1 0x6 ADD PUSH0 SWAP1 SLOAD SWAP1 PUSH2 0x100 EXP SWAP1 DIV PUSH1 0xFF AND PUSH2 0x22AB JUMPI PUSH1 0x40 MLOAD PUSH32 0x8C379A000000000000000000000000000000000000000000000000000000000 DUP2 MSTORE PUSH1 0x4 ADD PUSH2 0x22A2 SWAP1 PUSH2 0x54FE JUMP JUMPDEST PUSH1 0x40 MLOAD DUP1 SWAP2 SUB SWAP1 REVERT JUMPDEST PUSH0 DUP1 JUMPDEST PUSH1 0x1 DUP1 SLOAD SWAP1 POP DUP2 LT ISZERO PUSH2 0x2425 JUMPI DUP3 PUSH20 0xFFFFFFFFFFFFFFFFFFFFFFFFFFFFFFFFFFFFFFFF AND PUSH1 0x1 DUP3 DUP2 SLOAD DUP2 LT PUSH2 0x22E6 JUMPI PUSH2 0x22E5 PUSH2 0x45E6 JUMP JUMPDEST JUMPDEST SWAP1 PUSH0 MSTORE PUSH1 0x20 PUSH0 KECCAK256 ADD PUSH0 SWAP1 SLOAD SWAP1 PUSH2 0x100 EXP SWAP1 DIV PUSH20 0xFFFFFFFFFFFFFFFFFFFFFFFFFFFFFFFFFFFFFFFF AND PUSH20 0xFFFFFFFFFFFFFFFFFFFFFFFFFFFFFFFFFFFFFFFF AND SUB PUSH2 0x241A JUMPI PUSH1 0x1 DUP1 DUP1 DUP1 SLOAD SWAP1 POP PUSH2 0x233B SWAP2 SWAP1 PUSH2 0x4C6A JUMP JUMPDEST DUP2 SLOAD DUP2 LT PUSH2 0x234C JUMPI PUSH2 0x234B PUSH2 0x45E6 JUMP JUMPDEST JUMPDEST SWAP1 PUSH0 MSTORE PUSH1 0x20 PUSH0 KECCAK256 ADD PUSH0 SWAP1 SLOAD SWAP1 PUSH2 0x100 EXP SWAP1 DIV PUSH20 0xFFFFFFFFFFFFFFFFFFFFFFFFFFFFFFFFFFFFFFFF AND PUSH1 0x1 DUP3 DUP2 SLOAD DUP2 LT PUSH2 0x2388 JUMPI PUSH2 0x2387 PUSH2 0x45E6 JUMP JUMPDEST JUMPDEST SWAP1 PUSH0 MSTORE PUSH1 0x20 PUSH0 KECCAK256 ADD PUSH0 PUSH2 0x100 EXP DUP2 SLOAD DUP2 PUSH20 0xFFFFFFFFFFFFFFFFFFFFFFFFFFFFFFFFFFFFFFFF MUL NOT AND SWAP1 DUP4 PUSH20 0xFFFFFFFFFFFFFFFFFFFFFFFFFFFFFFFFFFFFFFFF AND MUL OR SWAP1 SSTORE POP PUSH1 0x1 DUP1 SLOAD DUP1 PUSH2 0x23DF JUMPI PUSH2 0x23DE PUSH2 0x551C JUMP JUMPDEST JUMPDEST PUSH1 0x1 SWAP1 SUB DUP2 DUP2 SWAP1 PUSH0 MSTORE PUSH1 0x20 PUSH0 KECCAK256 ADD PUSH0 PUSH2 0x100 EXP DUP2 SLOAD SWAP1 PUSH20 0xFFFFFFFFFFFFFFFFFFFFFFFFFFFFFFFFFFFFFFFF MUL NOT AND SWAP1 SSTORE SWAP1 SSTORE PUSH1 0x1 SWAP2 POP PUSH2 0x2425 JUMP JUMPDEST DUP1 PUSH1 0x1 ADD SWAP1 POP PUSH2 0x22AE JUMP JUMPDEST POP DUP1 PUSH2 0x2466 JUMPI PUSH1 0x40 MLOAD PUSH32 0x8C379A000000000000000000000000000000000000000000000000000000000 DUP2 MSTORE PUSH1 0x4 ADD PUSH2 0x245D SWAP1 PUSH2 0x5593 JUMP JUMPDEST PUSH1 0x40 MLOAD DUP1 SWAP2 SUB SWAP1 REVERT JUMPDEST PUSH1 0x2 PUSH0 DUP4 PUSH20 0xFFFFFFFFFFFFFFFFFFFFFFFFFFFFFFFFFFFFFFFF AND PUSH20 0xFFFFFFFFFFFFFFFFFFFFFFFFFFFFFFFFFFFFFFFF AND DUP2 MSTORE PUSH1 0x20 ADD SWAP1 DUP2 MSTORE PUSH1 0x20 ADD PUSH0 KECCAK256 PUSH0 DUP1 DUP3 ADD PUSH0 PUSH2 0x100 EXP DUP2 SLOAD SWAP1 PUSH20 0xFFFFFFFFFFFFFFFFFFFFFFFFFFFFFFFFFFFFFFFF MUL NOT AND SWAP1 SSTORE PUSH1 0x1 DUP3 ADD PUSH0 PUSH2 0x24D8 SWAP2 SWAP1 PUSH2 0x37C3 JUMP JUMPDEST PUSH1 0x2 DUP3 ADD PUSH0 SWAP1 SSTORE PUSH1 0x3 DUP3 ADD PUSH0 SWAP1 SSTORE PUSH1 0x4 DUP3 ADD PUSH0 SWAP1 SSTORE PUSH1 0x5 DUP3 ADD PUSH0 SWAP1 SSTORE PUSH1 0x6 DUP3 ADD PUSH0 PUSH2 0x100 EXP DUP2 SLOAD SWAP1 PUSH1 0xFF MUL NOT AND SWAP1 SSTORE POP POP DUP2 PUSH20 0xFFFFFFFFFFFFFFFFFFFFFFFFFFFFFFFFFFFFFFFF AND PUSH32 0x4BC56F1321288DFB5B416CB3A7FD188723979F9E866C91D88ECCF7FCA039D039 PUSH1 0x40 MLOAD PUSH1 0x40 MLOAD DUP1 SWAP2 SUB SWAP1 LOG2 POP POP JUMP JUMPDEST PUSH2 0x2558 PUSH2 0x3800 JUMP JUMPDEST PUSH1 0x2 PUSH0 DUP4 PUSH20 0xFFFFFFFFFFFFFFFFFFFFFFFFFFFFFFFFFFFFFFFF AND PUSH20 0xFFFFFFFFFFFFFFFFFFFFFFFFFFFFFFFFFFFFFFFF AND DUP2 MSTORE PUSH1 0x20 ADD SWAP1 DUP2 MSTORE PUSH1 0x20 ADD PUSH0 KECCAK256 PUSH1 0x6 ADD PUSH0 SWAP1 SLOAD SWAP1 PUSH2 0x100 EXP SWAP1 DIV PUSH1 0xFF AND PUSH2 0x25E4 JUMPI PUSH1 0x40 MLOAD PUSH32 0x8C379A000000000000000000000000000000000000000000000000000000000 DUP2 MSTORE PUSH1 0x4 ADD PUSH2 0x25DB SWAP1 PUSH2 0x54FE JUMP JUMPDEST PUSH1 0x40 MLOAD DUP1 SWAP2 SUB SWAP1 REVERT JUMPDEST PUSH1 0x2 PUSH0 DUP4 PUSH20 0xFFFFFFFFFFFFFFFFFFFFFFFFFFFFFFFFFFFFFFFF AND PUSH20 0xFFFFFFFFFFFFFFFFFFFFFFFFFFFFFFFFFFFFFFFF AND DUP2 MSTORE PUSH1 0x20 ADD SWAP1 DUP2 MSTORE PUSH1 0x20 ADD PUSH0 KECCAK256 PUSH1 0x40 MLOAD DUP1 PUSH1 0xE0 ADD PUSH1 0x40 MSTORE SWAP1 DUP2 PUSH0 DUP3 ADD PUSH0 SWAP1 SLOAD SWAP1 PUSH2 0x100 EXP SWAP1 DIV PUSH20 0xFFFFFFFFFFFFFFFFFFFFFFFFFFFFFFFFFFFFFFFF AND PUSH20 0xFFFFFFFFFFFFFFFFFFFFFFFFFFFFFFFFFFFFFFFF AND PUSH20 0xFFFFFFFFFFFFFFFFFFFFFFFFFFFFFFFFFFFFFFFF AND DUP2 MSTORE PUSH1 0x20 ADD PUSH1 0x1 DUP3 ADD DUP1 SLOAD PUSH2 0x2690 SWAP1 PUSH2 0x4784 JUMP JUMPDEST DUP1 PUSH1 0x1F ADD PUSH1 0x20 DUP1 SWAP2 DIV MUL PUSH1 0x20 ADD PUSH1 0x40 MLOAD SWAP1 DUP2 ADD PUSH1 0x40 MSTORE DUP1 SWAP3 SWAP2 SWAP1 DUP2 DUP2 MSTORE PUSH1 0x20 ADD DUP3 DUP1 SLOAD PUSH2 0x26BC SWAP1 PUSH2 0x4784 JUMP JUMPDEST DUP1 ISZERO PUSH2 0x2707 JUMPI DUP1 PUSH1 0x1F LT PUSH2 0x26DE JUMPI PUSH2 0x100 DUP1 DUP4 SLOAD DIV MUL DUP4 MSTORE SWAP2 PUSH1 0x20 ADD SWAP2 PUSH2 0x2707 JUMP JUMPDEST DUP3 ADD SWAP2 SWAP1 PUSH0 MSTORE PUSH1 0x20 PUSH0 KECCAK256 SWAP1 JUMPDEST DUP2 SLOAD DUP2 MSTORE SWAP1 PUSH1 0x1 ADD SWAP1 PUSH1 0x20 ADD DUP1 DUP4 GT PUSH2 0x26EA JUMPI DUP3 SWAP1 SUB PUSH1 0x1F AND DUP3 ADD SWAP2 JUMPDEST POP POP POP POP POP DUP2 MSTORE PUSH1 0x20 ADD PUSH1 0x2 DUP3 ADD SLOAD DUP2 MSTORE PUSH1 0x20 ADD PUSH1 0x3 DUP3 ADD SLOAD DUP2 MSTORE PUSH1 0x20 ADD PUSH1 0x4 DUP3 ADD SLOAD DUP2 MSTORE PUSH1 0x20 ADD PUSH1 0x5 DUP3 ADD SLOAD DUP2 MSTORE PUSH1 0x20 ADD PUSH1 0x6 DUP3 ADD PUSH0 SWAP1 SLOAD SWAP1 PUSH2 0x100 EXP SWAP1 DIV PUSH1 0xFF AND ISZERO ISZERO ISZERO ISZERO DUP2 MSTORE POP POP SWAP1 POP SWAP2 SWAP1 POP JUMP JUMPDEST PUSH1 0x6 DUP2 DUP2 SLOAD DUP2 LT PUSH2 0x2768 JUMPI PUSH0 DUP1 REVERT JUMPDEST SWAP1 PUSH0 MSTORE PUSH1 0x20 PUSH0 KECCAK256 ADD PUSH0 SWAP2 POP SWAP1 POP SLOAD DUP2 JUMP JUMPDEST PUSH1 0x2 PUSH0 CALLER PUSH20 0xFFFFFFFFFFFFFFFFFFFFFFFFFFFFFFFFFFFFFFFF AND PUSH20 0xFFFFFFFFFFFFFFFFFFFFFFFFFFFFFFFFFFFFFFFF AND DUP2 MSTORE PUSH1 0x20 ADD SWAP1 DUP2 MSTORE PUSH1 0x20 ADD PUSH0 KECCAK256 PUSH1 0x6 ADD PUSH0 SWAP1 SLOAD SWAP1 PUSH2 0x100 EXP SWAP1 DIV PUSH1 0xFF AND PUSH2 0x2805 JUMPI PUSH1 0x40 MLOAD PUSH32 0x8C379A000000000000000000000000000000000000000000000000000000000 DUP2 MSTORE PUSH1 0x4 ADD PUSH2 0x27FC SWAP1 PUSH2 0x54FE JUMP JUMPDEST PUSH1 0x40 MLOAD DUP1 SWAP2 SUB SWAP1 REVERT JUMPDEST PUSH0 PUSH1 0x2 PUSH0 CALLER PUSH20 0xFFFFFFFFFFFFFFFFFFFFFFFFFFFFFFFFFFFFFFFF AND PUSH20 0xFFFFFFFFFFFFFFFFFFFFFFFFFFFFFFFFFFFFFFFF AND DUP2 MSTORE PUSH1 0x20 ADD SWAP1 DUP2 MSTORE PUSH1 0x20 ADD PUSH0 KECCAK256 SWAP1 POP DUP5 DUP2 PUSH1 0x1 ADD SWAP1 DUP2 PUSH2 0x2856 SWAP2 SWAP1 PUSH2 0x4948 JUMP JUMPDEST POP DUP4 DUP2 PUSH1 0x3 ADD DUP2 SWAP1 SSTORE POP DUP3 DUP2 PUSH1 0x4 ADD DUP2 SWAP1 SSTORE POP DUP2 DUP2 PUSH1 0x5 ADD DUP2 SWAP1 SSTORE POP CALLER PUSH20 0xFFFFFFFFFFFFFFFFFFFFFFFFFFFFFFFFFFFFFFFF AND PUSH32 0xF5263C9868E9F7C401974519563BCC35BA1DAA55F79B26FA618E2C2F3202ACC DUP7 DUP7 DUP7 DUP7 PUSH1 0x40 MLOAD PUSH2 0x28BE SWAP5 SWAP4 SWAP3 SWAP2 SWAP1 PUSH2 0x5402 JUMP JUMPDEST PUSH1 0x40 MLOAD DUP1 SWAP2 SUB SWAP1 LOG2 POP POP POP POP POP JUMP JUMPDEST PUSH1 0x5 PUSH1 0x20 MSTORE DUP1 PUSH0 MSTORE PUSH1 0x40 PUSH0 KECCAK256 PUSH0 SWAP2 POP SWAP1 POP DUP1 PUSH0 ADD SLOAD SWAP1 DUP1 PUSH1 0x1 ADD PUSH0 SWAP1 SLOAD SWAP1 PUSH2 0x100 EXP SWAP1 DIV PUSH20 0xFFFFFFFFFFFFFFFFFFFFFFFFFFFFFFFFFFFFFFFF AND SWAP1 DUP1 PUSH1 0x2 ADD PUSH0 SWAP1 SLOAD SWAP1 PUSH2 0x100 EXP SWAP1 DIV PUSH20 0xFFFFFFFFFFFFFFFFFFFFFFFFFFFFFFFFFFFFFFFF AND SWAP1 DUP1 PUSH1 0x3 ADD SLOAD SWAP1 DUP1 PUSH1 0x4 ADD SLOAD SWAP1 DUP1 PUSH1 0x5 ADD SLOAD SWAP1 DUP1 PUSH1 0x6 ADD PUSH0 SWAP1 SLOAD SWAP1 PUSH2 0x100 EXP SWAP1 DIV PUSH1 0xFF AND SWAP1 DUP1 PUSH1 0x7 ADD DUP1 SLOAD PUSH2 0x2960 SWAP1 PUSH2 0x4784 JUMP JUMPDEST DUP1 PUSH1 0x1F ADD PUSH1 0x20 DUP1 SWAP2 DIV MUL PUSH1 0x20 ADD PUSH1 0x40 MLOAD SWAP1 DUP2 ADD PUSH1 0x40 MSTORE DUP1 SWAP3 SWAP2 SWAP1 DUP2 DUP2 MSTORE PUSH1 0x20 ADD DUP3 DUP1 SLOAD PUSH2 0x298C SWAP1 PUSH2 0x4784 JUMP JUMPDEST DUP1 ISZERO PUSH2 0x29D7 JUMPI DUP1 PUSH1 0x1F LT PUSH2 0x29AE JUMPI PUSH2 0x100 DUP1 DUP4 SLOAD DIV MUL DUP4 MSTORE SWAP2 PUSH1 0x20 ADD SWAP2 PUSH2 0x29D7 JUMP JUMPDEST DUP3 ADD SWAP2 SWAP1 PUSH0 MSTORE PUSH1 0x20 PUSH0 KECCAK256 SWAP1 JUMPDEST DUP2 SLOAD DUP2 MSTORE SWAP1 PUSH1 0x1 ADD SWAP1 PUSH1 0x20 ADD DUP1 DUP4 GT PUSH2 0x29BA JUMPI DUP3 SWAP1 SUB PUSH1 0x1F AND DUP3 ADD SWAP2 JUMPDEST POP POP POP POP POP SWAP1 DUP1 PUSH1 0x8 ADD PUSH0 SWAP1 SLOAD SWAP1 PUSH2 0x100 EXP SWAP1 DIV PUSH1 0xFF AND SWAP1 POP DUP10 JUMP JUMPDEST PUSH1 0x60 PUSH0 PUSH1 0x6 DUP1 SLOAD SWAP1 POP PUSH8 0xFFFFFFFFFFFFFFFF DUP2 GT ISZERO PUSH2 0x2A15 JUMPI PUSH2 0x2A14 PUSH2 0x3B46 JUMP JUMPDEST JUMPDEST PUSH1 0x40 MLOAD SWAP1 DUP1 DUP3 MSTORE DUP1 PUSH1 0x20 MUL PUSH1 0x20 ADD DUP3 ADD PUSH1 0x40 MSTORE DUP1 ISZERO PUSH2 0x2A43 JUMPI DUP2 PUSH1 0x20 ADD PUSH1 0x20 DUP3 MUL DUP1 CALLDATASIZE DUP4 CALLDATACOPY DUP1 DUP3 ADD SWAP2 POP POP SWAP1 POP JUMPDEST POP SWAP1 POP PUSH0 DUP1 JUMPDEST PUSH1 0x6 DUP1 SLOAD SWAP1 POP DUP2 LT ISZERO PUSH2 0x2BB6 JUMPI DUP5 PUSH20 0xFFFFFFFFFFFFFFFFFFFFFFFFFFFFFFFFFFFFFFFF AND PUSH1 0x5 PUSH0 PUSH1 0x6 DUP5 DUP2 SLOAD DUP2 LT PUSH2 0x2A84 JUMPI PUSH2 0x2A83 PUSH2 0x45E6 JUMP JUMPDEST JUMPDEST SWAP1 PUSH0 MSTORE PUSH1 0x20 PUSH0 KECCAK256 ADD SLOAD DUP2 MSTORE PUSH1 0x20 ADD SWAP1 DUP2 MSTORE PUSH1 0x20 ADD PUSH0 KECCAK256 PUSH1 0x1 ADD PUSH0 SWAP1 SLOAD SWAP1 PUSH2 0x100 EXP SWAP1 DIV PUSH20 0xFFFFFFFFFFFFFFFFFFFFFFFFFFFFFFFFFFFFFFFF AND PUSH20 0xFFFFFFFFFFFFFFFFFFFFFFFFFFFFFFFFFFFFFFFF AND EQ DUP1 PUSH2 0x2B59 JUMPI POP DUP5 PUSH20 0xFFFFFFFFFFFFFFFFFFFFFFFFFFFFFFFFFFFFFFFF AND PUSH1 0x5 PUSH0 PUSH1 0x6 DUP5 DUP2 SLOAD DUP2 LT PUSH2 0x2B08 JUMPI PUSH2 0x2B07 PUSH2 0x45E6 JUMP JUMPDEST JUMPDEST SWAP1 PUSH0 MSTORE PUSH1 0x20 PUSH0 KECCAK256 ADD SLOAD DUP2 MSTORE PUSH1 0x20 ADD SWAP1 DUP2 MSTORE PUSH1 0x20 ADD PUSH0 KECCAK256 PUSH1 0x2 ADD PUSH0 SWAP1 SLOAD SWAP1 PUSH2 0x100 EXP SWAP1 DIV PUSH20 0xFFFFFFFFFFFFFFFFFFFFFFFFFFFFFFFFFFFFFFFF AND PUSH20 0xFFFFFFFFFFFFFFFFFFFFFFFFFFFFFFFFFFFFFFFF AND EQ JUMPDEST ISZERO PUSH2 0x2BA9 JUMPI PUSH1 0x6 DUP2 DUP2 SLOAD DUP2 LT PUSH2 0x2B72 JUMPI PUSH2 0x2B71 PUSH2 0x45E6 JUMP JUMPDEST JUMPDEST SWAP1 PUSH0 MSTORE PUSH1 0x20 PUSH0 KECCAK256 ADD SLOAD DUP4 DUP4 DUP2 MLOAD DUP2 LT PUSH2 0x2B8E JUMPI PUSH2 0x2B8D PUSH2 0x45E6 JUMP JUMPDEST JUMPDEST PUSH1 0x20 MUL PUSH1 0x20 ADD ADD DUP2 DUP2 MSTORE POP POP DUP2 DUP1 PUSH2 0x2BA5 SWAP1 PUSH2 0x4640 JUMP JUMPDEST SWAP3 POP POP JUMPDEST DUP1 DUP1 PUSH1 0x1 ADD SWAP2 POP POP PUSH2 0x2A49 JUMP JUMPDEST POP PUSH0 DUP2 PUSH8 0xFFFFFFFFFFFFFFFF DUP2 GT ISZERO PUSH2 0x2BD2 JUMPI PUSH2 0x2BD1 PUSH2 0x3B46 JUMP JUMPDEST JUMPDEST PUSH1 0x40 MLOAD SWAP1 DUP1 DUP3 MSTORE DUP1 PUSH1 0x20 MUL PUSH1 0x20 ADD DUP3 ADD PUSH1 0x40 MSTORE DUP1 ISZERO PUSH2 0x2C00 JUMPI DUP2 PUSH1 0x20 ADD PUSH1 0x20 DUP3 MUL DUP1 CALLDATASIZE DUP4 CALLDATACOPY DUP1 DUP3 ADD SWAP2 POP POP SWAP1 POP JUMPDEST POP SWAP1 POP PUSH0 JUMPDEST DUP3 DUP2 LT ISZERO PUSH2 0x2C54 JUMPI DUP4 DUP2 DUP2 MLOAD DUP2 LT PUSH2 0x2C20 JUMPI PUSH2 0x2C1F PUSH2 0x45E6 JUMP JUMPDEST JUMPDEST PUSH1 0x20 MUL PUSH1 0x20 ADD ADD MLOAD DUP3 DUP3 DUP2 MLOAD DUP2 LT PUSH2 0x2C3B JUMPI PUSH2 0x2C3A PUSH2 0x45E6 JUMP JUMPDEST JUMPDEST PUSH1 0x20 MUL PUSH1 0x20 ADD ADD DUP2 DUP2 MSTORE POP POP DUP1 DUP1 PUSH1 0x1 ADD SWAP2 POP POP PUSH2 0x2C05 JUMP JUMPDEST POP DUP1 SWAP4 POP POP POP POP SWAP2 SWAP1 POP JUMP JUMPDEST PUSH1 0x60 PUSH1 0x1 DUP1 SLOAD DUP1 PUSH1 0x20 MUL PUSH1 0x20 ADD PUSH1 0x40 MLOAD SWAP1 DUP2 ADD PUSH1 0x40 MSTORE DUP1 SWAP3 SWAP2 SWAP1 DUP2 DUP2 MSTORE PUSH1 0x20 ADD DUP3 DUP1 SLOAD DUP1 ISZERO PUSH2 0x2CE1 JUMPI PUSH1 0x20 MUL DUP3 ADD SWAP2 SWAP1 PUSH0 MSTORE PUSH1 0x20 PUSH0 KECCAK256 SWAP1 JUMPDEST DUP2 PUSH0 SWAP1 SLOAD SWAP1 PUSH2 0x100 EXP SWAP1 DIV PUSH20 0xFFFFFFFFFFFFFFFFFFFFFFFFFFFFFFFFFFFFFFFF AND PUSH20 0xFFFFFFFFFFFFFFFFFFFFFFFFFFFFFFFFFFFFFFFF AND DUP2 MSTORE PUSH1 0x20 ADD SWAP1 PUSH1 0x1 ADD SWAP1 DUP1 DUP4 GT PUSH2 0x2C98 JUMPI JUMPDEST POP POP POP POP POP SWAP1 POP SWAP1 JUMP JUMPDEST PUSH1 0x2 PUSH1 0x20 MSTORE DUP1 PUSH0 MSTORE PUSH1 0x40 PUSH0 KECCAK256 PUSH0 SWAP2 POP SWAP1 POP DUP1 PUSH0 ADD PUSH0 SWAP1 SLOAD SWAP1 PUSH2 0x100 EXP SWAP1 DIV PUSH20 0xFFFFFFFFFFFFFFFFFFFFFFFFFFFFFFFFFFFFFFFF AND SWAP1 DUP1 PUSH1 0x1 ADD DUP1 SLOAD PUSH2 0x2D2F SWAP1 PUSH2 0x4784 JUMP JUMPDEST DUP1 PUSH1 0x1F ADD PUSH1 0x20 DUP1 SWAP2 DIV MUL PUSH1 0x20 ADD PUSH1 0x40 MLOAD SWAP1 DUP2 ADD PUSH1 0x40 MSTORE DUP1 SWAP3 SWAP2 SWAP1 DUP2 DUP2 MSTORE PUSH1 0x20 ADD DUP3 DUP1 SLOAD PUSH2 0x2D5B SWAP1 PUSH2 0x4784 JUMP JUMPDEST DUP1 ISZERO PUSH2 0x2DA6 JUMPI DUP1 PUSH1 0x1F LT PUSH2 0x2D7D JUMPI PUSH2 0x100 DUP1 DUP4 SLOAD DIV MUL DUP4 MSTORE SWAP2 PUSH1 0x20 ADD SWAP2 PUSH2 0x2DA6 JUMP JUMPDEST DUP3 ADD SWAP2 SWAP1 PUSH0 MSTORE PUSH1 0x20 PUSH0 KECCAK256 SWAP1 JUMPDEST DUP2 SLOAD DUP2 MSTORE SWAP1 PUSH1 0x1 ADD SWAP1 PUSH1 0x20 ADD DUP1 DUP4 GT PUSH2 0x2D89 JUMPI DUP3 SWAP1 SUB PUSH1 0x1F AND DUP3 ADD SWAP2 JUMPDEST POP POP POP POP POP SWAP1 DUP1 PUSH1 0x2 ADD SLOAD SWAP1 DUP1 PUSH1 0x3 ADD SLOAD SWAP1 DUP1 PUSH1 0x4 ADD SLOAD SWAP1 DUP1 PUSH1 0x5 ADD SLOAD SWAP1 DUP1 PUSH1 0x6 ADD PUSH0 SWAP1 SLOAD SWAP1 PUSH2 0x100 EXP SWAP1 DIV PUSH1 0xFF AND SWAP1 POP DUP8 JUMP JUMPDEST PUSH1 0x60 PUSH0 PUSH1 0x6 DUP1 SLOAD SWAP1 POP PUSH8 0xFFFFFFFFFFFFFFFF DUP2 GT ISZERO PUSH2 0x2DFC JUMPI PUSH2 0x2DFB PUSH2 0x3B46 JUMP JUMPDEST JUMPDEST PUSH1 0x40 MLOAD SWAP1 DUP1 DUP3 MSTORE DUP1 PUSH1 0x20 MUL PUSH1 0x20 ADD DUP3 ADD PUSH1 0x40 MSTORE DUP1 ISZERO PUSH2 0x2E35 JUMPI DUP2 PUSH1 0x20 ADD JUMPDEST PUSH2 0x2E22 PUSH2 0x384F JUMP JUMPDEST DUP2 MSTORE PUSH1 0x20 ADD SWAP1 PUSH1 0x1 SWAP1 SUB SWAP1 DUP2 PUSH2 0x2E1A JUMPI SWAP1 POP JUMPDEST POP SWAP1 POP PUSH0 JUMPDEST PUSH1 0x6 DUP1 SLOAD SWAP1 POP DUP2 LT ISZERO PUSH2 0x3060 JUMPI PUSH1 0x5 PUSH0 PUSH1 0x6 DUP4 DUP2 SLOAD DUP2 LT PUSH2 0x2E5E JUMPI PUSH2 0x2E5D PUSH2 0x45E6 JUMP JUMPDEST JUMPDEST SWAP1 PUSH0 MSTORE PUSH1 0x20 PUSH0 KECCAK256 ADD SLOAD DUP2 MSTORE PUSH1 0x20 ADD SWAP1 DUP2 MSTORE PUSH1 0x20 ADD PUSH0 KECCAK256 PUSH1 0x40 MLOAD DUP1 PUSH2 0x120 ADD PUSH1 0x40 MSTORE SWAP1 DUP2 PUSH0 DUP3 ADD SLOAD DUP2 MSTORE PUSH1 0x20 ADD PUSH1 0x1 DUP3 ADD PUSH0 SWAP1 SLOAD SWAP1 PUSH2 0x100 EXP SWAP1 DIV PUSH20 0xFFFFFFFFFFFFFFFFFFFFFFFFFFFFFFFFFFFFFFFF AND PUSH20 0xFFFFFFFFFFFFFFFFFFFFFFFFFFFFFFFFFFFFFFFF AND PUSH20 0xFFFFFFFFFFFFFFFFFFFFFFFFFFFFFFFFFFFFFFFF AND DUP2 MSTORE PUSH1 0x20 ADD PUSH1 0x2 DUP3 ADD PUSH0 SWAP1 SLOAD SWAP1 PUSH2 0x100 EXP SWAP1 DIV PUSH20 0xFFFFFFFFFFFFFFFFFFFFFFFFFFFFFFFFFFFFFFFF AND PUSH20 0xFFFFFFFFFFFFFFFFFFFFFFFFFFFFFFFFFFFFFFFF AND PUSH20 0xFFFFFFFFFFFFFFFFFFFFFFFFFFFFFFFFFFFFFFFF AND DUP2 MSTORE PUSH1 0x20 ADD PUSH1 0x3 DUP3 ADD SLOAD DUP2 MSTORE PUSH1 0x20 ADD PUSH1 0x4 DUP3 ADD SLOAD DUP2 MSTORE PUSH1 0x20 ADD PUSH1 0x5 DUP3 ADD SLOAD DUP2 MSTORE PUSH1 0x20 ADD PUSH1 0x6 DUP3 ADD PUSH0 SWAP1 SLOAD SWAP1 PUSH2 0x100 EXP SWAP1 DIV PUSH1 0xFF AND ISZERO ISZERO ISZERO ISZERO DUP2 MSTORE PUSH1 0x20 ADD PUSH1 0x7 DUP3 ADD DUP1 SLOAD PUSH2 0x2F7B SWAP1 PUSH2 0x4784 JUMP JUMPDEST DUP1 PUSH1 0x1F ADD PUSH1 0x20 DUP1 SWAP2 DIV MUL PUSH1 0x20 ADD PUSH1 0x40 MLOAD SWAP1 DUP2 ADD PUSH1 0x40 MSTORE DUP1 SWAP3 SWAP2 SWAP1 DUP2 DUP2 MSTORE PUSH1 0x20 ADD DUP3 DUP1 SLOAD PUSH2 0x2FA7 SWAP1 PUSH2 0x4784 JUMP JUMPDEST DUP1 ISZERO PUSH2 0x2FF2 JUMPI DUP1 PUSH1 0x1F LT PUSH2 0x2FC9 JUMPI PUSH2 0x100 DUP1 DUP4 SLOAD DIV MUL DUP4 MSTORE SWAP2 PUSH1 0x20 ADD SWAP2 PUSH2 0x2FF2 JUMP JUMPDEST DUP3 ADD SWAP2 SWAP1 PUSH0 MSTORE PUSH1 0x20 PUSH0 KECCAK256 SWAP1 JUMPDEST DUP2 SLOAD DUP2 MSTORE SWAP1 PUSH1 0x1 ADD SWAP1 PUSH1 0x20 ADD DUP1 DUP4 GT PUSH2 0x2FD5 JUMPI DUP3 SWAP1 SUB PUSH1 0x1F AND DUP3 ADD SWAP2 JUMPDEST POP POP POP POP POP DUP2 MSTORE PUSH1 0x20 ADD PUSH1 0x8 DUP3 ADD PUSH0 SWAP1 SLOAD SWAP1 PUSH2 0x100 EXP SWAP1 DIV PUSH1 0xFF AND PUSH1 0x1 DUP2 GT ISZERO PUSH2 0x301F JUMPI PUSH2 0x301E PUSH2 0x3FAB JUMP JUMPDEST JUMPDEST PUSH1 0x1 DUP2 GT ISZERO PUSH2 0x3031 JUMPI PUSH2 0x3030 PUSH2 0x3FAB JUMP JUMPDEST JUMPDEST DUP2 MSTORE POP POP DUP3 DUP3 DUP2 MLOAD DUP2 LT PUSH2 0x3048 JUMPI PUSH2 0x3047 PUSH2 0x45E6 JUMP JUMPDEST JUMPDEST PUSH1 0x20 MUL PUSH1 0x20 ADD ADD DUP2 SWAP1 MSTORE POP DUP1 DUP1 PUSH1 0x1 ADD SWAP2 POP POP PUSH2 0x2E3A JUMP JUMPDEST POP DUP1 SWAP2 POP POP SWAP1 JUMP JUMPDEST PUSH1 0x2 PUSH0 DUP4 PUSH20 0xFFFFFFFFFFFFFFFFFFFFFFFFFFFFFFFFFFFFFFFF AND PUSH20 0xFFFFFFFFFFFFFFFFFFFFFFFFFFFFFFFFFFFFFFFF AND DUP2 MSTORE PUSH1 0x20 ADD SWAP1 DUP2 MSTORE PUSH1 0x20 ADD PUSH0 KECCAK256 PUSH1 0x6 ADD PUSH0 SWAP1 SLOAD SWAP1 PUSH2 0x100 EXP SWAP1 DIV PUSH1 0xFF AND PUSH2 0x30F4 JUMPI PUSH1 0x40 MLOAD PUSH32 0x8C379A000000000000000000000000000000000000000000000000000000000 DUP2 MSTORE PUSH1 0x4 ADD PUSH2 0x30EB SWAP1 PUSH2 0x54FE JUMP JUMPDEST PUSH1 0x40 MLOAD DUP1 SWAP2 SUB SWAP1 REVERT JUMPDEST DUP1 PUSH1 0x2 PUSH0 DUP5 PUSH20 0xFFFFFFFFFFFFFFFFFFFFFFFFFFFFFFFFFFFFFFFF AND PUSH20 0xFFFFFFFFFFFFFFFFFFFFFFFFFFFFFFFFFFFFFFFF AND DUP2 MSTORE PUSH1 0x20 ADD SWAP1 DUP2 MSTORE PUSH1 0x20 ADD PUSH0 KECCAK256 PUSH1 0x5 ADD DUP2 SWAP1 SSTORE POP POP POP JUMP JUMPDEST PUSH1 0x60 PUSH0 PUSH1 0x7 DUP1 SLOAD SWAP1 POP PUSH8 0xFFFFFFFFFFFFFFFF DUP2 GT ISZERO PUSH2 0x315F JUMPI PUSH2 0x315E PUSH2 0x3B46 JUMP JUMPDEST JUMPDEST PUSH1 0x40 MLOAD SWAP1 DUP1 DUP3 MSTORE DUP1 PUSH1 0x20 MUL PUSH1 0x20 ADD DUP3 ADD PUSH1 0x40 MSTORE DUP1 ISZERO PUSH2 0x3198 JUMPI DUP2 PUSH1 0x20 ADD JUMPDEST PUSH2 0x3185 PUSH2 0x384F JUMP JUMPDEST DUP2 MSTORE PUSH1 0x20 ADD SWAP1 PUSH1 0x1 SWAP1 SUB SWAP1 DUP2 PUSH2 0x317D JUMPI SWAP1 POP JUMPDEST POP SWAP1 POP PUSH0 JUMPDEST PUSH1 0x7 DUP1 SLOAD SWAP1 POP DUP2 LT ISZERO PUSH2 0x33C3 JUMPI PUSH1 0x5 PUSH0 PUSH1 0x7 DUP4 DUP2 SLOAD DUP2 LT PUSH2 0x31C1 JUMPI PUSH2 0x31C0 PUSH2 0x45E6 JUMP JUMPDEST JUMPDEST SWAP1 PUSH0 MSTORE PUSH1 0x20 PUSH0 KECCAK256 ADD SLOAD DUP2 MSTORE PUSH1 0x20 ADD SWAP1 DUP2 MSTORE PUSH1 0x20 ADD PUSH0 KECCAK256 PUSH1 0x40 MLOAD DUP1 PUSH2 0x120 ADD PUSH1 0x40 MSTORE SWAP1 DUP2 PUSH0 DUP3 ADD SLOAD DUP2 MSTORE PUSH1 0x20 ADD PUSH1 0x1 DUP3 ADD PUSH0 SWAP1 SLOAD SWAP1 PUSH2 0x100 EXP SWAP1 DIV PUSH20 0xFFFFFFFFFFFFFFFFFFFFFFFFFFFFFFFFFFFFFFFF AND PUSH20 0xFFFFFFFFFFFFFFFFFFFFFFFFFFFFFFFFFFFFFFFF AND PUSH20 0xFFFFFFFFFFFFFFFFFFFFFFFFFFFFFFFFFFFFFFFF AND DUP2 MSTORE PUSH1 0x20 ADD PUSH1 0x2 DUP3 ADD PUSH0 SWAP1 SLOAD SWAP1 PUSH2 0x100 EXP SWAP1 DIV PUSH20 0xFFFFFFFFFFFFFFFFFFFFFFFFFFFFFFFFFFFFFFFF AND PUSH20 0xFFFFFFFFFFFFFFFFFFFFFFFFFFFFFFFFFFFFFFFF AND PUSH20 0xFFFFFFFFFFFFFFFFFFFFFFFFFFFFFFFFFFFFFFFF AND DUP2 MSTORE PUSH1 0x20 ADD PUSH1 0x3 DUP3 ADD SLOAD DUP2 MSTORE PUSH1 0x20 ADD PUSH1 0x4 DUP3 ADD SLOAD DUP2 MSTORE PUSH1 0x20 ADD PUSH1 0x5 DUP3 ADD SLOAD DUP2 MSTORE PUSH1 0x20 ADD PUSH1 0x6 DUP3 ADD PUSH0 SWAP1 SLOAD SWAP1 PUSH2 0x100 EXP SWAP1 DIV PUSH1 0xFF AND ISZERO ISZERO ISZERO ISZERO DUP2 MSTORE PUSH1 0x20 ADD PUSH1 0x7 DUP3 ADD DUP1 SLOAD PUSH2 0x32DE SWAP1 PUSH2 0x4784 JUMP JUMPDEST DUP1 PUSH1 0x1F ADD PUSH1 0x20 DUP1 SWAP2 DIV MUL PUSH1 0x20 ADD PUSH1 0x40 MLOAD SWAP1 DUP2 ADD PUSH1 0x40 MSTORE DUP1 SWAP3 SWAP2 SWAP1 DUP2 DUP2 MSTORE PUSH1 0x20 ADD DUP3 DUP1 SLOAD PUSH2 0x330A SWAP1 PUSH2 0x4784 JUMP JUMPDEST DUP1 ISZERO PUSH2 0x3355 JUMPI DUP1 PUSH1 0x1F LT PUSH2 0x332C JUMPI PUSH2 0x100 DUP1 DUP4 SLOAD DIV MUL DUP4 MSTORE SWAP2 PUSH1 0x20 ADD SWAP2 PUSH2 0x3355 JUMP JUMPDEST DUP3 ADD SWAP2 SWAP1 PUSH0 MSTORE PUSH1 0x20 PUSH0 KECCAK256 SWAP1 JUMPDEST DUP2 SLOAD DUP2 MSTORE SWAP1 PUSH1 0x1 ADD SWAP1 PUSH1 0x20 ADD DUP1 DUP4 GT PUSH2 0x3338 JUMPI DUP3 SWAP1 SUB PUSH1 0x1F AND DUP3 ADD SWAP2 JUMPDEST POP POP POP POP POP DUP2 MSTORE PUSH1 0x20 ADD PUSH1 0x8 DUP3 ADD PUSH0 SWAP1 SLOAD SWAP1 PUSH2 0x100 EXP SWAP1 DIV PUSH1 0xFF AND PUSH1 0x1 DUP2 GT ISZERO PUSH2 0x3382 JUMPI PUSH2 0x3381 PUSH2 0x3FAB JUMP JUMPDEST JUMPDEST PUSH1 0x1 DUP2 GT ISZERO PUSH2 0x3394 JUMPI PUSH2 0x3393 PUSH2 0x3FAB JUMP JUMPDEST JUMPDEST DUP2 MSTORE POP POP DUP3 DUP3 DUP2 MLOAD DUP2 LT PUSH2 0x33AB JUMPI PUSH2 0x33AA PUSH2 0x45E6 JUMP JUMPDEST JUMPDEST PUSH1 0x20 MUL PUSH1 0x20 ADD ADD DUP2 SWAP1 MSTORE POP DUP1 DUP1 PUSH1 0x1 ADD SWAP2 POP POP PUSH2 0x319D JUMP JUMPDEST POP DUP1 SWAP2 POP POP SWAP1 JUMP JUMPDEST PUSH0 PUSH1 0x6 DUP1 SLOAD SWAP1 POP SWAP1 POP SWAP1 JUMP JUMPDEST PUSH1 0x60 PUSH0 PUSH1 0x1 DUP1 SLOAD SWAP1 POP PUSH8 0xFFFFFFFFFFFFFFFF DUP2 GT ISZERO PUSH2 0x33F9 JUMPI PUSH2 0x33F8 PUSH2 0x3B46 JUMP JUMPDEST JUMPDEST PUSH1 0x40 MLOAD SWAP1 DUP1 DUP3 MSTORE DUP1 PUSH1 0x20 MUL PUSH1 0x20 ADD DUP3 ADD PUSH1 0x40 MSTORE DUP1 ISZERO PUSH2 0x3432 JUMPI DUP2 PUSH1 0x20 ADD JUMPDEST PUSH2 0x341F PUSH2 0x3800 JUMP JUMPDEST DUP2 MSTORE PUSH1 0x20 ADD SWAP1 PUSH1 0x1 SWAP1 SUB SWAP1 DUP2 PUSH2 0x3417 JUMPI SWAP1 POP JUMPDEST POP SWAP1 POP PUSH0 JUMPDEST PUSH1 0x1 DUP1 SLOAD SWAP1 POP DUP2 LT ISZERO PUSH2 0x3618 JUMPI PUSH1 0x2 PUSH0 PUSH1 0x1 DUP4 DUP2 SLOAD DUP2 LT PUSH2 0x345B JUMPI PUSH2 0x345A PUSH2 0x45E6 JUMP JUMPDEST JUMPDEST SWAP1 PUSH0 MSTORE PUSH1 0x20 PUSH0 KECCAK256 ADD PUSH0 SWAP1 SLOAD SWAP1 PUSH2 0x100 EXP SWAP1 DIV PUSH20 0xFFFFFFFFFFFFFFFFFFFFFFFFFFFFFFFFFFFFFFFF AND PUSH20 0xFFFFFFFFFFFFFFFFFFFFFFFFFFFFFFFFFFFFFFFF AND PUSH20 0xFFFFFFFFFFFFFFFFFFFFFFFFFFFFFFFFFFFFFFFF AND DUP2 MSTORE PUSH1 0x20 ADD SWAP1 DUP2 MSTORE PUSH1 0x20 ADD PUSH0 KECCAK256 PUSH1 0x40 MLOAD DUP1 PUSH1 0xE0 ADD PUSH1 0x40 MSTORE SWAP1 DUP2 PUSH0 DUP3 ADD PUSH0 SWAP1 SLOAD SWAP1 PUSH2 0x100 EXP SWAP1 DIV PUSH20 0xFFFFFFFFFFFFFFFFFFFFFFFFFFFFFFFFFFFFFFFF AND PUSH20 0xFFFFFFFFFFFFFFFFFFFFFFFFFFFFFFFFFFFFFFFF AND PUSH20 0xFFFFFFFFFFFFFFFFFFFFFFFFFFFFFFFFFFFFFFFF AND DUP2 MSTORE PUSH1 0x20 ADD PUSH1 0x1 DUP3 ADD DUP1 SLOAD PUSH2 0x352B SWAP1 PUSH2 0x4784 JUMP JUMPDEST DUP1 PUSH1 0x1F ADD PUSH1 0x20 DUP1 SWAP2 DIV MUL PUSH1 0x20 ADD PUSH1 0x40 MLOAD SWAP1 DUP2 ADD PUSH1 0x40 MSTORE DUP1 SWAP3 SWAP2 SWAP1 DUP2 DUP2 MSTORE PUSH1 0x20 ADD DUP3 DUP1 SLOAD PUSH2 0x3557 SWAP1 PUSH2 0x4784 JUMP JUMPDEST DUP1 ISZERO PUSH2 0x35A2 JUMPI DUP1 PUSH1 0x1F LT PUSH2 0x3579 JUMPI PUSH2 0x100 DUP1 DUP4 SLOAD DIV MUL DUP4 MSTORE SWAP2 PUSH1 0x20 ADD SWAP2 PUSH2 0x35A2 JUMP JUMPDEST DUP3 ADD SWAP2 SWAP1 PUSH0 MSTORE PUSH1 0x20 PUSH0 KECCAK256 SWAP1 JUMPDEST DUP2 SLOAD DUP2 MSTORE SWAP1 PUSH1 0x1 ADD SWAP1 PUSH1 0x20 ADD DUP1 DUP4 GT PUSH2 0x3585 JUMPI DUP3 SWAP1 SUB PUSH1 0x1F AND DUP3 ADD SWAP2 JUMPDEST POP POP POP POP POP DUP2 MSTORE PUSH1 0x20 ADD PUSH1 0x2 DUP3 ADD SLOAD DUP2 MSTORE PUSH1 0x20 ADD PUSH1 0x3 DUP3 ADD SLOAD DUP2 MSTORE PUSH1 0x20 ADD PUSH1 0x4 DUP3 ADD SLOAD DUP2 MSTORE PUSH1 0x20 ADD PUSH1 0x5 DUP3 ADD SLOAD DUP2 MSTORE PUSH1 0x20 ADD PUSH1 0x6 DUP3 ADD PUSH0 SWAP1 SLOAD SWAP1 PUSH2 0x100 EXP SWAP1 DIV PUSH1 0xFF AND ISZERO ISZERO ISZERO ISZERO DUP2 MSTORE POP POP DUP3 DUP3 DUP2 MLOAD DUP2 LT PUSH2 0x3600 JUMPI PUSH2 0x35FF PUSH2 0x45E6 JUMP JUMPDEST JUMPDEST PUSH1 0x20 MUL PUSH1 0x20 ADD ADD DUP2 SWAP1 MSTORE POP DUP1 DUP1 PUSH1 0x1 ADD SWAP2 POP POP PUSH2 0x3437 JUMP JUMPDEST POP DUP1 SWAP2 POP POP SWAP1 JUMP JUMPDEST PUSH0 DUP1 PUSH0 SWAP1 SLOAD SWAP1 PUSH2 0x100 EXP SWAP1 DIV PUSH20 0xFFFFFFFFFFFFFFFFFFFFFFFFFFFFFFFFFFFFFFFF AND PUSH20 0xFFFFFFFFFFFFFFFFFFFFFFFFFFFFFFFFFFFFFFFF AND PUSH4 0x70A08231 DUP4 PUSH1 0x40 MLOAD DUP3 PUSH4 0xFFFFFFFF AND PUSH1 0xE0 SHL DUP2 MSTORE PUSH1 0x4 ADD PUSH2 0x367A SWAP2 SWAP1 PUSH2 0x4559 JUMP JUMPDEST PUSH1 0x20 PUSH1 0x40 MLOAD DUP1 DUP4 SUB DUP2 DUP7 GAS STATICCALL ISZERO DUP1 ISZERO PUSH2 0x3695 JUMPI RETURNDATASIZE PUSH0 DUP1 RETURNDATACOPY RETURNDATASIZE PUSH0 REVERT JUMPDEST POP POP POP POP PUSH1 0x40 MLOAD RETURNDATASIZE PUSH1 0x1F NOT PUSH1 0x1F DUP3 ADD AND DUP3 ADD DUP1 PUSH1 0x40 MSTORE POP DUP2 ADD SWAP1 PUSH2 0x36B9 SWAP2 SWAP1 PUSH2 0x4AAF JUMP JUMPDEST SWAP1 POP SWAP2 SWAP1 POP JUMP JUMPDEST PUSH1 0x3 PUSH0 SWAP1 SLOAD SWAP1 PUSH2 0x100 EXP SWAP1 DIV PUSH20 0xFFFFFFFFFFFFFFFFFFFFFFFFFFFFFFFFFFFFFFFF AND DUP2 JUMP JUMPDEST PUSH0 DUP1 SLOAD SWAP1 PUSH2 0x100 EXP SWAP1 DIV PUSH20 0xFFFFFFFFFFFFFFFFFFFFFFFFFFFFFFFFFFFFFFFF AND DUP2 JUMP JUMPDEST PUSH0 JUMPDEST PUSH1 0x6 DUP1 SLOAD SWAP1 POP DUP2 LT ISZERO PUSH2 0x37BF JUMPI DUP2 PUSH1 0x6 DUP3 DUP2 SLOAD DUP2 LT PUSH2 0x372C JUMPI PUSH2 0x372B PUSH2 0x45E6 JUMP JUMPDEST JUMPDEST SWAP1 PUSH0 MSTORE PUSH1 0x20 PUSH0 KECCAK256 ADD SLOAD SUB PUSH2 0x37B2 JUMPI PUSH1 0x6 PUSH1 0x1 PUSH1 0x6 DUP1 SLOAD SWAP1 POP PUSH2 0x374E SWAP2 SWAP1 PUSH2 0x4C6A JUMP JUMPDEST DUP2 SLOAD DUP2 LT PUSH2 0x375F JUMPI PUSH2 0x375E PUSH2 0x45E6 JUMP JUMPDEST JUMPDEST SWAP1 PUSH0 MSTORE PUSH1 0x20 PUSH0 KECCAK256 ADD SLOAD PUSH1 0x6 DUP3 DUP2 SLOAD DUP2 LT PUSH2 0x377C JUMPI PUSH2 0x377B PUSH2 0x45E6 JUMP JUMPDEST JUMPDEST SWAP1 PUSH0 MSTORE PUSH1 0x20 PUSH0 KECCAK256 ADD DUP2 SWAP1 SSTORE POP PUSH1 0x6 DUP1 SLOAD DUP1 PUSH2 0x379A JUMPI PUSH2 0x3799 PUSH2 0x551C JUMP JUMPDEST JUMPDEST PUSH1 0x1 SWAP1 SUB DUP2 DUP2 SWAP1 PUSH0 MSTORE PUSH1 0x20 PUSH0 KECCAK256 ADD PUSH0 SWAP1 SSTORE SWAP1 SSTORE PUSH2 0x37BF JUMP JUMPDEST DUP1 DUP1 PUSH1 0x1 ADD SWAP2 POP POP PUSH2 0x370A JUMP JUMPDEST POP POP JUMP JUMPDEST POP DUP1 SLOAD PUSH2 0x37CF SWAP1 PUSH2 0x4784 JUMP JUMPDEST PUSH0 DUP3 SSTORE DUP1 PUSH1 0x1F LT PUSH2 0x37E0 JUMPI POP PUSH2 0x37FD JUMP JUMPDEST PUSH1 0x1F ADD PUSH1 0x20 SWAP1 DIV SWAP1 PUSH0 MSTORE PUSH1 0x20 PUSH0 KECCAK256 SWAP1 DUP2 ADD SWAP1 PUSH2 0x37FC SWAP2 SWAP1 PUSH2 0x38D3 JUMP JUMPDEST JUMPDEST POP JUMP JUMPDEST PUSH1 0x40 MLOAD DUP1 PUSH1 0xE0 ADD PUSH1 0x40 MSTORE DUP1 PUSH0 PUSH20 0xFFFFFFFFFFFFFFFFFFFFFFFFFFFFFFFFFFFFFFFF AND DUP2 MSTORE PUSH1 0x20 ADD PUSH1 0x60 DUP2 MSTORE PUSH1 0x20 ADD PUSH0 DUP2 MSTORE PUSH1 0x20 ADD PUSH0 DUP2 MSTORE PUSH1 0x20 ADD PUSH0 DUP2 MSTORE PUSH1 0x20 ADD PUSH0 DUP2 MSTORE PUSH1 0x20 ADD PUSH0 ISZERO ISZERO DUP2 MSTORE POP SWAP1 JUMP JUMPDEST PUSH1 0x40 MLOAD DUP1 PUSH2 0x120 ADD PUSH1 0x40 MSTORE DUP1 PUSH0 DUP2 MSTORE PUSH1 0x20 ADD PUSH0 PUSH20 0xFFFFFFFFFFFFFFFFFFFFFFFFFFFFFFFFFFFFFFFF AND DUP2 MSTORE PUSH1 0x20 ADD PUSH0 PUSH20 0xFFFFFFFFFFFFFFFFFFFFFFFFFFFFFFFFFFFFFFFF AND DUP2 MSTORE PUSH1 0x20 ADD PUSH0 DUP2 MSTORE PUSH1 0x20 ADD PUSH0 DUP2 MSTORE PUSH1 0x20 ADD PUSH0 DUP2 MSTORE PUSH1 0x20 ADD PUSH0 ISZERO ISZERO DUP2 MSTORE PUSH1 0x20 ADD PUSH1 0x60 DUP2 MSTORE PUSH1 0x20 ADD PUSH0 PUSH1 0x1 DUP2 GT ISZERO PUSH2 0x38CD JUMPI PUSH2 0x38CC PUSH2 0x3FAB JUMP JUMPDEST JUMPDEST DUP2 MSTORE POP SWAP1 JUMP JUMPDEST JUMPDEST DUP1 DUP3 GT ISZERO PUSH2 0x38EA JUMPI PUSH0 DUP2 PUSH0 SWAP1 SSTORE POP PUSH1 0x1 ADD PUSH2 0x38D4 JUMP JUMPDEST POP SWAP1 JUMP JUMPDEST PUSH0 PUSH1 0x40 MLOAD SWAP1 POP SWAP1 JUMP JUMPDEST PUSH0 DUP1 REVERT JUMPDEST PUSH0 DUP1 REVERT JUMPDEST PUSH0 PUSH20 0xFFFFFFFFFFFFFFFFFFFFFFFFFFFFFFFFFFFFFFFF DUP3 AND SWAP1 POP SWAP2 SWAP1 POP JUMP JUMPDEST PUSH0 PUSH2 0x3928 DUP3 PUSH2 0x38FF JUMP JUMPDEST SWAP1 POP SWAP2 SWAP1 POP JUMP JUMPDEST PUSH2 0x3938 DUP2 PUSH2 0x391E JUMP JUMPDEST DUP2 EQ PUSH2 0x3942 JUMPI PUSH0 DUP1 REVERT JUMPDEST POP JUMP JUMPDEST PUSH0 DUP2 CALLDATALOAD SWAP1 POP PUSH2 0x3953 DUP2 PUSH2 0x392F JUMP JUMPDEST SWAP3 SWAP2 POP POP JUMP JUMPDEST PUSH0 PUSH1 0x20 DUP3 DUP5 SUB SLT ISZERO PUSH2 0x396E JUMPI PUSH2 0x396D PUSH2 0x38F7 JUMP JUMPDEST JUMPDEST PUSH0 PUSH2 0x397B DUP5 DUP3 DUP6 ADD PUSH2 0x3945 JUMP JUMPDEST SWAP2 POP POP SWAP3 SWAP2 POP POP JUMP JUMPDEST PUSH0 DUP2 SWAP1 POP SWAP2 SWAP1 POP JUMP JUMPDEST PUSH2 0x3996 DUP2 PUSH2 0x3984 JUMP JUMPDEST DUP3 MSTORE POP POP JUMP JUMPDEST PUSH0 PUSH1 0x20 DUP3 ADD SWAP1 POP PUSH2 0x39AF PUSH0 DUP4 ADD DUP5 PUSH2 0x398D JUMP JUMPDEST SWAP3 SWAP2 POP POP JUMP JUMPDEST PUSH2 0x39BE DUP2 PUSH2 0x3984 JUMP JUMPDEST DUP2 EQ PUSH2 0x39C8 JUMPI PUSH0 DUP1 REVERT JUMPDEST POP JUMP JUMPDEST PUSH0 DUP2 CALLDATALOAD SWAP1 POP PUSH2 0x39D9 DUP2 PUSH2 0x39B5 JUMP JUMPDEST SWAP3 SWAP2 POP POP JUMP JUMPDEST PUSH0 DUP2 ISZERO ISZERO SWAP1 POP SWAP2 SWAP1 POP JUMP JUMPDEST PUSH2 0x39F3 DUP2 PUSH2 0x39DF JUMP JUMPDEST DUP2 EQ PUSH2 0x39FD JUMPI PUSH0 DUP1 REVERT JUMPDEST POP JUMP JUMPDEST PUSH0 DUP2 CALLDATALOAD SWAP1 POP PUSH2 0x3A0E DUP2 PUSH2 0x39EA JUMP JUMPDEST SWAP3 SWAP2 POP POP JUMP JUMPDEST PUSH0 DUP1 PUSH1 0x40 DUP4 DUP6 SUB SLT ISZERO PUSH2 0x3A2A JUMPI PUSH2 0x3A29 PUSH2 0x38F7 JUMP JUMPDEST JUMPDEST PUSH0 PUSH2 0x3A37 DUP6 DUP3 DUP7 ADD PUSH2 0x39CB JUMP JUMPDEST SWAP3 POP POP PUSH1 0x20 PUSH2 0x3A48 DUP6 DUP3 DUP7 ADD PUSH2 0x3A00 JUMP JUMPDEST SWAP2 POP POP SWAP3 POP SWAP3 SWAP1 POP JUMP JUMPDEST PUSH2 0x3A5B DUP2 PUSH2 0x39DF JUMP JUMPDEST DUP3 MSTORE POP POP JUMP JUMPDEST PUSH0 PUSH1 0x20 DUP3 ADD SWAP1 POP PUSH2 0x3A74 PUSH0 DUP4 ADD DUP5 PUSH2 0x3A52 JUMP JUMPDEST SWAP3 SWAP2 POP POP JUMP JUMPDEST PUSH0 PUSH1 0x20 DUP3 DUP5 SUB SLT ISZERO PUSH2 0x3A8F JUMPI PUSH2 0x3A8E PUSH2 0x38F7 JUMP JUMPDEST JUMPDEST PUSH0 PUSH2 0x3A9C DUP5 DUP3 DUP6 ADD PUSH2 0x39CB JUMP JUMPDEST SWAP2 POP POP SWAP3 SWAP2 POP POP JUMP JUMPDEST PUSH0 DUP1 PUSH0 DUP1 PUSH0 DUP1 PUSH1 0xC0 DUP8 DUP10 SUB SLT ISZERO PUSH2 0x3ABF JUMPI PUSH2 0x3ABE PUSH2 0x38F7 JUMP JUMPDEST JUMPDEST PUSH0 PUSH2 0x3ACC DUP10 DUP3 DUP11 ADD PUSH2 0x3945 JUMP JUMPDEST SWAP7 POP POP PUSH1 0x20 PUSH2 0x3ADD DUP10 DUP3 DUP11 ADD PUSH2 0x3945 JUMP JUMPDEST SWAP6 POP POP PUSH1 0x40 PUSH2 0x3AEE DUP10 DUP3 DUP11 ADD PUSH2 0x39CB JUMP JUMPDEST SWAP5 POP POP PUSH1 0x60 PUSH2 0x3AFF DUP10 DUP3 DUP11 ADD PUSH2 0x39CB JUMP JUMPDEST SWAP4 POP POP PUSH1 0x80 PUSH2 0x3B10 DUP10 DUP3 DUP11 ADD PUSH2 0x39CB JUMP JUMPDEST SWAP3 POP POP PUSH1 0xA0 PUSH2 0x3B21 DUP10 DUP3 DUP11 ADD PUSH2 0x3A00 JUMP JUMPDEST SWAP2 POP POP SWAP3 SWAP6 POP SWAP3 SWAP6 POP SWAP3 SWAP6 JUMP JUMPDEST PUSH0 DUP1 REVERT JUMPDEST PUSH0 DUP1 REVERT JUMPDEST PUSH0 PUSH1 0x1F NOT PUSH1 0x1F DUP4 ADD AND SWAP1 POP SWAP2 SWAP1 POP JUMP JUMPDEST PUSH32 0x4E487B7100000000000000000000000000000000000000000000000000000000 PUSH0 MSTORE PUSH1 0x41 PUSH1 0x4 MSTORE PUSH1 0x24 PUSH0 REVERT JUMPDEST PUSH2 0x3B7C DUP3 PUSH2 0x3B36 JUMP JUMPDEST DUP2 ADD DUP2 DUP2 LT PUSH8 0xFFFFFFFFFFFFFFFF DUP3 GT OR ISZERO PUSH2 0x3B9B JUMPI PUSH2 0x3B9A PUSH2 0x3B46 JUMP JUMPDEST JUMPDEST DUP1 PUSH1 0x40 MSTORE POP POP POP JUMP JUMPDEST PUSH0 PUSH2 0x3BAD PUSH2 0x38EE JUMP JUMPDEST SWAP1 POP PUSH2 0x3BB9 DUP3 DUP3 PUSH2 0x3B73 JUMP JUMPDEST SWAP2 SWAP1 POP JUMP JUMPDEST PUSH0 PUSH8 0xFFFFFFFFFFFFFFFF DUP3 GT ISZERO PUSH2 0x3BD8 JUMPI PUSH2 0x3BD7 PUSH2 0x3B46 JUMP JUMPDEST JUMPDEST PUSH2 0x3BE1 DUP3 PUSH2 0x3B36 JUMP JUMPDEST SWAP1 POP PUSH1 0x20 DUP2 ADD SWAP1 POP SWAP2 SWAP1 POP JUMP JUMPDEST DUP3 DUP2 DUP4 CALLDATACOPY PUSH0 DUP4 DUP4 ADD MSTORE POP POP POP JUMP JUMPDEST PUSH0 PUSH2 0x3C0E PUSH2 0x3C09 DUP5 PUSH2 0x3BBE JUMP JUMPDEST PUSH2 0x3BA4 JUMP JUMPDEST SWAP1 POP DUP3 DUP2 MSTORE PUSH1 0x20 DUP2 ADD DUP5 DUP5 DUP5 ADD GT ISZERO PUSH2 0x3C2A JUMPI PUSH2 0x3C29 PUSH2 0x3B32 JUMP JUMPDEST JUMPDEST PUSH2 0x3C35 DUP5 DUP3 DUP6 PUSH2 0x3BEE JUMP JUMPDEST POP SWAP4 SWAP3 POP POP POP JUMP JUMPDEST PUSH0 DUP3 PUSH1 0x1F DUP4 ADD SLT PUSH2 0x3C51 JUMPI PUSH2 0x3C50 PUSH2 0x3B2E JUMP JUMPDEST JUMPDEST DUP2 CALLDATALOAD PUSH2 0x3C61 DUP5 DUP3 PUSH1 0x20 DUP7 ADD PUSH2 0x3BFC JUMP JUMPDEST SWAP2 POP POP SWAP3 SWAP2 POP POP JUMP JUMPDEST PUSH0 DUP2 SWAP1 POP SWAP2 SWAP1 POP JUMP JUMPDEST PUSH2 0x3C7C DUP2 PUSH2 0x3C6A JUMP JUMPDEST DUP2 EQ PUSH2 0x3C86 JUMPI PUSH0 DUP1 REVERT JUMPDEST POP JUMP JUMPDEST PUSH0 DUP2 CALLDATALOAD SWAP1 POP PUSH2 0x3C97 DUP2 PUSH2 0x3C73 JUMP JUMPDEST SWAP3 SWAP2 POP POP JUMP JUMPDEST PUSH0 DUP1 PUSH0 DUP1 PUSH1 0x80 DUP6 DUP8 SUB SLT ISZERO PUSH2 0x3CB5 JUMPI PUSH2 0x3CB4 PUSH2 0x38F7 JUMP JUMPDEST JUMPDEST PUSH0 DUP6 ADD CALLDATALOAD PUSH8 0xFFFFFFFFFFFFFFFF DUP2 GT ISZERO PUSH2 0x3CD2 JUMPI PUSH2 0x3CD1 PUSH2 0x38FB JUMP JUMPDEST JUMPDEST PUSH2 0x3CDE DUP8 DUP3 DUP9 ADD PUSH2 0x3C3D JUMP JUMPDEST SWAP5 POP POP PUSH1 0x20 PUSH2 0x3CEF DUP8 DUP3 DUP9 ADD PUSH2 0x3C89 JUMP JUMPDEST SWAP4 POP POP PUSH1 0x40 PUSH2 0x3D00 DUP8 DUP3 DUP9 ADD PUSH2 0x3C89 JUMP JUMPDEST SWAP3 POP POP PUSH1 0x60 PUSH2 0x3D11 DUP8 DUP3 DUP9 ADD PUSH2 0x39CB JUMP JUMPDEST SWAP2 POP POP SWAP3 SWAP6 SWAP2 SWAP5 POP SWAP3 POP JUMP JUMPDEST PUSH0 DUP2 MLOAD SWAP1 POP SWAP2 SWAP1 POP JUMP JUMPDEST PUSH0 DUP3 DUP3 MSTORE PUSH1 0x20 DUP3 ADD SWAP1 POP SWAP3 SWAP2 POP POP JUMP JUMPDEST PUSH0 DUP2 SWAP1 POP PUSH1 0x20 DUP3 ADD SWAP1 POP SWAP2 SWAP1 POP JUMP JUMPDEST PUSH2 0x3D4F DUP2 PUSH2 0x3984 JUMP JUMPDEST DUP3 MSTORE POP POP JUMP JUMPDEST PUSH0 PUSH2 0x3D60 DUP4 DUP4 PUSH2 0x3D46 JUMP JUMPDEST PUSH1 0x20 DUP4 ADD SWAP1 POP SWAP3 SWAP2 POP POP JUMP JUMPDEST PUSH0 PUSH1 0x20 DUP3 ADD SWAP1 POP SWAP2 SWAP1 POP JUMP JUMPDEST PUSH0 PUSH2 0x3D82 DUP3 PUSH2 0x3D1D JUMP JUMPDEST PUSH2 0x3D8C DUP2 DUP6 PUSH2 0x3D27 JUMP JUMPDEST SWAP4 POP PUSH2 0x3D97 DUP4 PUSH2 0x3D37 JUMP JUMPDEST DUP1 PUSH0 JUMPDEST DUP4 DUP2 LT ISZERO PUSH2 0x3DC7 JUMPI DUP2 MLOAD PUSH2 0x3DAE DUP9 DUP3 PUSH2 0x3D55 JUMP JUMPDEST SWAP8 POP PUSH2 0x3DB9 DUP4 PUSH2 0x3D6C JUMP JUMPDEST SWAP3 POP POP PUSH1 0x1 DUP2 ADD SWAP1 POP PUSH2 0x3D9A JUMP JUMPDEST POP DUP6 SWAP4 POP POP POP POP SWAP3 SWAP2 POP POP JUMP JUMPDEST PUSH0 PUSH1 0x20 DUP3 ADD SWAP1 POP DUP2 DUP2 SUB PUSH0 DUP4 ADD MSTORE PUSH2 0x3DEC DUP2 DUP5 PUSH2 0x3D78 JUMP JUMPDEST SWAP1 POP SWAP3 SWAP2 POP POP JUMP JUMPDEST PUSH2 0x3DFD DUP2 PUSH2 0x391E JUMP JUMPDEST DUP3 MSTORE POP POP JUMP JUMPDEST PUSH0 DUP2 MLOAD SWAP1 POP SWAP2 SWAP1 POP JUMP JUMPDEST PUSH0 DUP3 DUP3 MSTORE PUSH1 0x20 DUP3 ADD SWAP1 POP SWAP3 SWAP2 POP POP JUMP JUMPDEST PUSH0 JUMPDEST DUP4 DUP2 LT ISZERO PUSH2 0x3E3A JUMPI DUP1 DUP3 ADD MLOAD DUP2 DUP5 ADD MSTORE PUSH1 0x20 DUP2 ADD SWAP1 POP PUSH2 0x3E1F JUMP JUMPDEST PUSH0 DUP5 DUP5 ADD MSTORE POP POP POP POP JUMP JUMPDEST PUSH0 PUSH2 0x3E4F DUP3 PUSH2 0x3E03 JUMP JUMPDEST PUSH2 0x3E59 DUP2 DUP6 PUSH2 0x3E0D JUMP JUMPDEST SWAP4 POP PUSH2 0x3E69 DUP2 DUP6 PUSH1 0x20 DUP7 ADD PUSH2 0x3E1D JUMP JUMPDEST PUSH2 0x3E72 DUP2 PUSH2 0x3B36 JUMP JUMPDEST DUP5 ADD SWAP2 POP POP SWAP3 SWAP2 POP POP JUMP JUMPDEST PUSH2 0x3E86 DUP2 PUSH2 0x3C6A JUMP JUMPDEST DUP3 MSTORE POP POP JUMP JUMPDEST PUSH2 0x3E95 DUP2 PUSH2 0x39DF JUMP JUMPDEST DUP3 MSTORE POP POP JUMP JUMPDEST PUSH0 PUSH1 0xE0 DUP4 ADD PUSH0 DUP4 ADD MLOAD PUSH2 0x3EB0 PUSH0 DUP7 ADD DUP3 PUSH2 0x3DF4 JUMP JUMPDEST POP PUSH1 0x20 DUP4 ADD MLOAD DUP5 DUP3 SUB PUSH1 0x20 DUP7 ADD MSTORE PUSH2 0x3EC8 DUP3 DUP3 PUSH2 0x3E45 JUMP JUMPDEST SWAP2 POP POP PUSH1 0x40 DUP4 ADD MLOAD PUSH2 0x3EDD PUSH1 0x40 DUP7 ADD DUP3 PUSH2 0x3D46 JUMP JUMPDEST POP PUSH1 0x60 DUP4 ADD MLOAD PUSH2 0x3EF0 PUSH1 0x60 DUP7 ADD DUP3 PUSH2 0x3E7D JUMP JUMPDEST POP PUSH1 0x80 DUP4 ADD MLOAD PUSH2 0x3F03 PUSH1 0x80 DUP7 ADD DUP3 PUSH2 0x3E7D JUMP JUMPDEST POP PUSH1 0xA0 DUP4 ADD MLOAD PUSH2 0x3F16 PUSH1 0xA0 DUP7 ADD DUP3 PUSH2 0x3D46 JUMP JUMPDEST POP PUSH1 0xC0 DUP4 ADD MLOAD PUSH2 0x3F29 PUSH1 0xC0 DUP7 ADD DUP3 PUSH2 0x3E8C JUMP JUMPDEST POP DUP1 SWAP2 POP POP SWAP3 SWAP2 POP POP JUMP JUMPDEST PUSH0 PUSH1 0x20 DUP3 ADD SWAP1 POP DUP2 DUP2 SUB PUSH0 DUP4 ADD MSTORE PUSH2 0x3F4C DUP2 DUP5 PUSH2 0x3E9B JUMP JUMPDEST SWAP1 POP SWAP3 SWAP2 POP POP JUMP JUMPDEST PUSH2 0x3F5D DUP2 PUSH2 0x391E JUMP JUMPDEST DUP3 MSTORE POP POP JUMP JUMPDEST PUSH0 DUP3 DUP3 MSTORE PUSH1 0x20 DUP3 ADD SWAP1 POP SWAP3 SWAP2 POP POP JUMP JUMPDEST PUSH0 PUSH2 0x3F7D DUP3 PUSH2 0x3E03 JUMP JUMPDEST PUSH2 0x3F87 DUP2 DUP6 PUSH2 0x3F63 JUMP JUMPDEST SWAP4 POP PUSH2 0x3F97 DUP2 DUP6 PUSH1 0x20 DUP7 ADD PUSH2 0x3E1D JUMP JUMPDEST PUSH2 0x3FA0 DUP2 PUSH2 0x3B36 JUMP JUMPDEST DUP5 ADD SWAP2 POP POP SWAP3 SWAP2 POP POP JUMP JUMPDEST PUSH32 0x4E487B7100000000000000000000000000000000000000000000000000000000 PUSH0 MSTORE PUSH1 0x21 PUSH1 0x4 MSTORE PUSH1 0x24 PUSH0 REVERT JUMPDEST PUSH1 0x2 DUP2 LT PUSH2 0x3FE9 JUMPI PUSH2 0x3FE8 PUSH2 0x3FAB JUMP JUMPDEST JUMPDEST POP JUMP JUMPDEST PUSH0 DUP2 SWAP1 POP PUSH2 0x3FF9 DUP3 PUSH2 0x3FD8 JUMP JUMPDEST SWAP2 SWAP1 POP JUMP JUMPDEST PUSH0 PUSH2 0x4008 DUP3 PUSH2 0x3FEC JUMP JUMPDEST SWAP1 POP SWAP2 SWAP1 POP JUMP JUMPDEST PUSH2 0x4018 DUP2 PUSH2 0x3FFE JUMP JUMPDEST DUP3 MSTORE POP POP JUMP JUMPDEST PUSH0 PUSH2 0x120 DUP3 ADD SWAP1 POP PUSH2 0x4032 PUSH0 DUP4 ADD DUP13 PUSH2 0x398D JUMP JUMPDEST PUSH2 0x403F PUSH1 0x20 DUP4 ADD DUP12 PUSH2 0x3F54 JUMP JUMPDEST PUSH2 0x404C PUSH1 0x40 DUP4 ADD DUP11 PUSH2 0x3F54 JUMP JUMPDEST PUSH2 0x4059 PUSH1 0x60 DUP4 ADD DUP10 PUSH2 0x398D JUMP JUMPDEST PUSH2 0x4066 PUSH1 0x80 DUP4 ADD DUP9 PUSH2 0x398D JUMP JUMPDEST PUSH2 0x4073 PUSH1 0xA0 DUP4 ADD DUP8 PUSH2 0x398D JUMP JUMPDEST PUSH2 0x4080 PUSH1 0xC0 DUP4 ADD DUP7 PUSH2 0x3A52 JUMP JUMPDEST DUP2 DUP2 SUB PUSH1 0xE0 DUP4 ADD MSTORE PUSH2 0x4092 DUP2 DUP6 PUSH2 0x3F73 JUMP JUMPDEST SWAP1 POP PUSH2 0x40A2 PUSH2 0x100 DUP4 ADD DUP5 PUSH2 0x400F JUMP JUMPDEST SWAP11 SWAP10 POP POP POP POP POP POP POP POP POP POP JUMP JUMPDEST PUSH0 DUP2 MLOAD SWAP1 POP SWAP2 SWAP1 POP JUMP JUMPDEST PUSH0 DUP3 DUP3 MSTORE PUSH1 0x20 DUP3 ADD SWAP1 POP SWAP3 SWAP2 POP POP JUMP JUMPDEST PUSH0 DUP2 SWAP1 POP PUSH1 0x20 DUP3 ADD SWAP1 POP SWAP2 SWAP1 POP JUMP JUMPDEST PUSH0 PUSH2 0x40E4 DUP4 DUP4 PUSH2 0x3DF4 JUMP JUMPDEST PUSH1 0x20 DUP4 ADD SWAP1 POP SWAP3 SWAP2 POP POP JUMP JUMPDEST PUSH0 PUSH1 0x20 DUP3 ADD SWAP1 POP SWAP2 SWAP1 POP JUMP JUMPDEST PUSH0 PUSH2 0x4106 DUP3 PUSH2 0x40B0 JUMP JUMPDEST PUSH2 0x4110 DUP2 DUP6 PUSH2 0x40BA JUMP JUMPDEST SWAP4 POP PUSH2 0x411B DUP4 PUSH2 0x40CA JUMP JUMPDEST DUP1 PUSH0 JUMPDEST DUP4 DUP2 LT ISZERO PUSH2 0x414B JUMPI DUP2 MLOAD PUSH2 0x4132 DUP9 DUP3 PUSH2 0x40D9 JUMP JUMPDEST SWAP8 POP PUSH2 0x413D DUP4 PUSH2 0x40F0 JUMP JUMPDEST SWAP3 POP POP PUSH1 0x1 DUP2 ADD SWAP1 POP PUSH2 0x411E JUMP JUMPDEST POP DUP6 SWAP4 POP POP POP POP SWAP3 SWAP2 POP POP JUMP JUMPDEST PUSH0 PUSH1 0x20 DUP3 ADD SWAP1 POP DUP2 DUP2 SUB PUSH0 DUP4 ADD MSTORE PUSH2 0x4170 DUP2 DUP5 PUSH2 0x40FC JUMP JUMPDEST SWAP1 POP SWAP3 SWAP2 POP POP JUMP JUMPDEST PUSH2 0x4181 DUP2 PUSH2 0x3C6A JUMP JUMPDEST DUP3 MSTORE POP POP JUMP JUMPDEST PUSH0 PUSH1 0xE0 DUP3 ADD SWAP1 POP PUSH2 0x419A PUSH0 DUP4 ADD DUP11 PUSH2 0x3F54 JUMP JUMPDEST DUP2 DUP2 SUB PUSH1 0x20 DUP4 ADD MSTORE PUSH2 0x41AC DUP2 DUP10 PUSH2 0x3F73 JUMP JUMPDEST SWAP1 POP PUSH2 0x41BB PUSH1 0x40 DUP4 ADD DUP9 PUSH2 0x398D JUMP JUMPDEST PUSH2 0x41C8 PUSH1 0x60 DUP4 ADD DUP8 PUSH2 0x4178 JUMP JUMPDEST PUSH2 0x41D5 PUSH1 0x80 DUP4 ADD DUP7 PUSH2 0x4178 JUMP JUMPDEST PUSH2 0x41E2 PUSH1 0xA0 DUP4 ADD DUP6 PUSH2 0x398D JUMP JUMPDEST PUSH2 0x41EF PUSH1 0xC0 DUP4 ADD DUP5 PUSH2 0x3A52 JUMP JUMPDEST SWAP9 SWAP8 POP POP POP POP POP POP POP POP JUMP JUMPDEST PUSH0 DUP2 MLOAD SWAP1 POP SWAP2 SWAP1 POP JUMP JUMPDEST PUSH0 DUP3 DUP3 MSTORE PUSH1 0x20 DUP3 ADD SWAP1 POP SWAP3 SWAP2 POP POP JUMP JUMPDEST PUSH0 DUP2 SWAP1 POP PUSH1 0x20 DUP3 ADD SWAP1 POP SWAP2 SWAP1 POP JUMP JUMPDEST PUSH2 0x422D DUP2 PUSH2 0x3FFE JUMP JUMPDEST DUP3 MSTORE POP POP JUMP JUMPDEST PUSH0 PUSH2 0x120 DUP4 ADD PUSH0 DUP4 ADD MLOAD PUSH2 0x4249 PUSH0 DUP7 ADD DUP3 PUSH2 0x3D46 JUMP JUMPDEST POP PUSH1 0x20 DUP4 ADD MLOAD PUSH2 0x425C PUSH1 0x20 DUP7 ADD DUP3 PUSH2 0x3DF4 JUMP JUMPDEST POP PUSH1 0x40 DUP4 ADD MLOAD PUSH2 0x426F PUSH1 0x40 DUP7 ADD DUP3 PUSH2 0x3DF4 JUMP JUMPDEST POP PUSH1 0x60 DUP4 ADD MLOAD PUSH2 0x4282 PUSH1 0x60 DUP7 ADD DUP3 PUSH2 0x3D46 JUMP JUMPDEST POP PUSH1 0x80 DUP4 ADD MLOAD PUSH2 0x4295 PUSH1 0x80 DUP7 ADD DUP3 PUSH2 0x3D46 JUMP JUMPDEST POP PUSH1 0xA0 DUP4 ADD MLOAD PUSH2 0x42A8 PUSH1 0xA0 DUP7 ADD DUP3 PUSH2 0x3D46 JUMP JUMPDEST POP PUSH1 0xC0 DUP4 ADD MLOAD PUSH2 0x42BB PUSH1 0xC0 DUP7 ADD DUP3 PUSH2 0x3E8C JUMP JUMPDEST POP PUSH1 0xE0 DUP4 ADD MLOAD DUP5 DUP3 SUB PUSH1 0xE0 DUP7 ADD MSTORE PUSH2 0x42D3 DUP3 DUP3 PUSH2 0x3E45 JUMP JUMPDEST SWAP2 POP POP PUSH2 0x100 DUP4 ADD MLOAD PUSH2 0x42EA PUSH2 0x100 DUP7 ADD DUP3 PUSH2 0x4224 JUMP JUMPDEST POP DUP1 SWAP2 POP POP SWAP3 SWAP2 POP POP JUMP JUMPDEST PUSH0 PUSH2 0x4300 DUP4 DUP4 PUSH2 0x4233 JUMP JUMPDEST SWAP1 POP SWAP3 SWAP2 POP POP JUMP JUMPDEST PUSH0 PUSH1 0x20 DUP3 ADD SWAP1 POP SWAP2 SWAP1 POP JUMP JUMPDEST PUSH0 PUSH2 0x431E DUP3 PUSH2 0x41FB JUMP JUMPDEST PUSH2 0x4328 DUP2 DUP6 PUSH2 0x4205 JUMP JUMPDEST SWAP4 POP DUP4 PUSH1 0x20 DUP3 MUL DUP6 ADD PUSH2 0x433A DUP6 PUSH2 0x4215 JUMP JUMPDEST DUP1 PUSH0 JUMPDEST DUP6 DUP2 LT ISZERO PUSH2 0x4375 JUMPI DUP5 DUP5 SUB DUP10 MSTORE DUP2 MLOAD PUSH2 0x4356 DUP6 DUP3 PUSH2 0x42F5 JUMP JUMPDEST SWAP5 POP PUSH2 0x4361 DUP4 PUSH2 0x4308 JUMP JUMPDEST SWAP3 POP PUSH1 0x20 DUP11 ADD SWAP10 POP POP PUSH1 0x1 DUP2 ADD SWAP1 POP PUSH2 0x433D JUMP JUMPDEST POP DUP3 SWAP8 POP DUP8 SWAP6 POP POP POP POP POP POP SWAP3 SWAP2 POP POP JUMP JUMPDEST PUSH0 PUSH1 0x20 DUP3 ADD SWAP1 POP DUP2 DUP2 SUB PUSH0 DUP4 ADD MSTORE PUSH2 0x439F DUP2 DUP5 PUSH2 0x4314 JUMP JUMPDEST SWAP1 POP SWAP3 SWAP2 POP POP JUMP JUMPDEST PUSH0 DUP1 PUSH1 0x40 DUP4 DUP6 SUB SLT ISZERO PUSH2 0x43BD JUMPI PUSH2 0x43BC PUSH2 0x38F7 JUMP JUMPDEST JUMPDEST PUSH0 PUSH2 0x43CA DUP6 DUP3 DUP7 ADD PUSH2 0x3945 JUMP JUMPDEST SWAP3 POP POP PUSH1 0x20 PUSH2 0x43DB DUP6 DUP3 DUP7 ADD PUSH2 0x39CB JUMP JUMPDEST SWAP2 POP POP SWAP3 POP SWAP3 SWAP1 POP JUMP JUMPDEST PUSH0 DUP2 MLOAD SWAP1 POP SWAP2 SWAP1 POP JUMP JUMPDEST PUSH0 DUP3 DUP3 MSTORE PUSH1 0x20 DUP3 ADD SWAP1 POP SWAP3 SWAP2 POP POP JUMP JUMPDEST PUSH0 DUP2 SWAP1 POP PUSH1 0x20 DUP3 ADD SWAP1 POP SWAP2 SWAP1 POP JUMP JUMPDEST PUSH0 PUSH1 0xE0 DUP4 ADD PUSH0 DUP4 ADD MLOAD PUSH2 0x4423 PUSH0 DUP7 ADD DUP3 PUSH2 0x3DF4 JUMP JUMPDEST POP PUSH1 0x20 DUP4 ADD MLOAD DUP5 DUP3 SUB PUSH1 0x20 DUP7 ADD MSTORE PUSH2 0x443B DUP3 DUP3 PUSH2 0x3E45 JUMP JUMPDEST SWAP2 POP POP PUSH1 0x40 DUP4 ADD MLOAD PUSH2 0x4450 PUSH1 0x40 DUP7 ADD DUP3 PUSH2 0x3D46 JUMP JUMPDEST POP PUSH1 0x60 DUP4 ADD MLOAD PUSH2 0x4463 PUSH1 0x60 DUP7 ADD DUP3 PUSH2 0x3E7D JUMP JUMPDEST POP PUSH1 0x80 DUP4 ADD MLOAD PUSH2 0x4476 PUSH1 0x80 DUP7 ADD DUP3 PUSH2 0x3E7D JUMP JUMPDEST POP PUSH1 0xA0 DUP4 ADD MLOAD PUSH2 0x4489 PUSH1 0xA0 DUP7 ADD DUP3 PUSH2 0x3D46 JUMP JUMPDEST POP PUSH1 0xC0 DUP4 ADD MLOAD PUSH2 0x449C PUSH1 0xC0 DUP7 ADD DUP3 PUSH2 0x3E8C JUMP JUMPDEST POP DUP1 SWAP2 POP POP SWAP3 SWAP2 POP POP JUMP JUMPDEST PUSH0 PUSH2 0x44B2 DUP4 DUP4 PUSH2 0x440E JUMP JUMPDEST SWAP1 POP SWAP3 SWAP2 POP POP JUMP JUMPDEST PUSH0 PUSH1 0x20 DUP3 ADD SWAP1 POP SWAP2 SWAP1 POP JUMP JUMPDEST PUSH0 PUSH2 0x44D0 DUP3 PUSH2 0x43E5 JUMP JUMPDEST PUSH2 0x44DA DUP2 DUP6 PUSH2 0x43EF JUMP JUMPDEST SWAP4 POP DUP4 PUSH1 0x20 DUP3 MUL DUP6 ADD PUSH2 0x44EC DUP6 PUSH2 0x43FF JUMP JUMPDEST DUP1 PUSH0 JUMPDEST DUP6 DUP2 LT ISZERO PUSH2 0x4527 JUMPI DUP5 DUP5 SUB DUP10 MSTORE DUP2 MLOAD PUSH2 0x4508 DUP6 DUP3 PUSH2 0x44A7 JUMP JUMPDEST SWAP5 POP PUSH2 0x4513 DUP4 PUSH2 0x44BA JUMP JUMPDEST SWAP3 POP PUSH1 0x20 DUP11 ADD SWAP10 POP POP PUSH1 0x1 DUP2 ADD SWAP1 POP PUSH2 0x44EF JUMP JUMPDEST POP DUP3 SWAP8 POP DUP8 SWAP6 POP POP POP POP POP POP SWAP3 SWAP2 POP POP JUMP JUMPDEST PUSH0 PUSH1 0x20 DUP3 ADD SWAP1 POP DUP2 DUP2 SUB PUSH0 DUP4 ADD MSTORE PUSH2 0x4551 DUP2 DUP5 PUSH2 0x44C6 JUMP JUMPDEST SWAP1 POP SWAP3 SWAP2 POP POP JUMP JUMPDEST PUSH0 PUSH1 0x20 DUP3 ADD SWAP1 POP PUSH2 0x456C PUSH0 DUP4 ADD DUP5 PUSH2 0x3F54 JUMP JUMPDEST SWAP3 SWAP2 POP POP JUMP JUMPDEST PUSH0 DUP2 SWAP1 POP SWAP2 SWAP1 POP JUMP JUMPDEST PUSH0 PUSH2 0x4595 PUSH2 0x4590 PUSH2 0x458B DUP5 PUSH2 0x38FF JUMP JUMPDEST PUSH2 0x4572 JUMP JUMPDEST PUSH2 0x38FF JUMP JUMPDEST SWAP1 POP SWAP2 SWAP1 POP JUMP JUMPDEST PUSH0 PUSH2 0x45A6 DUP3 PUSH2 0x457B JUMP JUMPDEST SWAP1 POP SWAP2 SWAP1 POP JUMP JUMPDEST PUSH0 PUSH2 0x45B7 DUP3 PUSH2 0x459C JUMP JUMPDEST SWAP1 POP SWAP2 SWAP1 POP JUMP JUMPDEST PUSH2 0x45C7 DUP2 PUSH2 0x45AD JUMP JUMPDEST DUP3 MSTORE POP POP JUMP JUMPDEST PUSH0 PUSH1 0x20 DUP3 ADD SWAP1 POP PUSH2 0x45E0 PUSH0 DUP4 ADD DUP5 PUSH2 0x45BE JUMP JUMPDEST SWAP3 SWAP2 POP POP JUMP JUMPDEST PUSH32 0x4E487B7100000000000000000000000000000000000000000000000000000000 PUSH0 MSTORE PUSH1 0x32 PUSH1 0x4 MSTORE PUSH1 0x24 PUSH0 REVERT JUMPDEST PUSH32 0x4E487B7100000000000000000000000000000000000000000000000000000000 PUSH0 MSTORE PUSH1 0x11 PUSH1 0x4 MSTORE PUSH1 0x24 PUSH0 REVERT JUMPDEST PUSH0 PUSH2 0x464A DUP3 PUSH2 0x3984 JUMP JUMPDEST SWAP2 POP PUSH32 0xFFFFFFFFFFFFFFFFFFFFFFFFFFFFFFFFFFFFFFFFFFFFFFFFFFFFFFFFFFFFFFFF DUP3 SUB PUSH2 0x467C JUMPI PUSH2 0x467B PUSH2 0x4613 JUMP JUMPDEST JUMPDEST PUSH1 0x1 DUP3 ADD SWAP1 POP SWAP2 SWAP1 POP JUMP JUMPDEST PUSH32 0x5472616E73616374696F6E20646F6573206E6F742065786973742E0000000000 PUSH0 DUP3 ADD MSTORE POP JUMP JUMPDEST PUSH0 PUSH2 0x46BB PUSH1 0x1B DUP4 PUSH2 0x3F63 JUMP JUMPDEST SWAP2 POP PUSH2 0x46C6 DUP3 PUSH2 0x4687 JUMP JUMPDEST PUSH1 0x20 DUP3 ADD SWAP1 POP SWAP2 SWAP1 POP JUMP JUMPDEST PUSH0 PUSH1 0x20 DUP3 ADD SWAP1 POP DUP2 DUP2 SUB PUSH0 DUP4 ADD MSTORE PUSH2 0x46E8 DUP2 PUSH2 0x46AF JUMP JUMPDEST SWAP1 POP SWAP2 SWAP1 POP JUMP JUMPDEST PUSH32 0x5472616E73616374696F6E20616C726561647920636F6D6D69747465642E0000 PUSH0 DUP3 ADD MSTORE POP JUMP JUMPDEST PUSH0 PUSH2 0x4723 PUSH1 0x1E DUP4 PUSH2 0x3F63 JUMP JUMPDEST SWAP2 POP PUSH2 0x472E DUP3 PUSH2 0x46EF JUMP JUMPDEST PUSH1 0x20 DUP3 ADD SWAP1 POP SWAP2 SWAP1 POP JUMP JUMPDEST PUSH0 PUSH1 0x20 DUP3 ADD SWAP1 POP DUP2 DUP2 SUB PUSH0 DUP4 ADD MSTORE PUSH2 0x4750 DUP2 PUSH2 0x4717 JUMP JUMPDEST SWAP1 POP SWAP2 SWAP1 POP JUMP JUMPDEST PUSH32 0x4E487B7100000000000000000000000000000000000000000000000000000000 PUSH0 MSTORE PUSH1 0x22 PUSH1 0x4 MSTORE PUSH1 0x24 PUSH0 REVERT JUMPDEST PUSH0 PUSH1 0x2 DUP3 DIV SWAP1 POP PUSH1 0x1 DUP3 AND DUP1 PUSH2 0x479B JUMPI PUSH1 0x7F DUP3 AND SWAP2 POP JUMPDEST PUSH1 0x20 DUP3 LT DUP2 SUB PUSH2 0x47AE JUMPI PUSH2 0x47AD PUSH2 0x4757 JUMP JUMPDEST JUMPDEST POP SWAP2 SWAP1 POP JUMP JUMPDEST PUSH0 DUP2 SWAP1 POP DUP2 PUSH0 MSTORE PUSH1 0x20 PUSH0 KECCAK256 SWAP1 POP SWAP2 SWAP1 POP JUMP JUMPDEST PUSH0 PUSH1 0x20 PUSH1 0x1F DUP4 ADD DIV SWAP1 POP SWAP2 SWAP1 POP JUMP JUMPDEST PUSH0 DUP3 DUP3 SHL SWAP1 POP SWAP3 SWAP2 POP POP JUMP JUMPDEST PUSH0 PUSH1 0x8 DUP4 MUL PUSH2 0x4810 PUSH32 0xFFFFFFFFFFFFFFFFFFFFFFFFFFFFFFFFFFFFFFFFFFFFFFFFFFFFFFFFFFFFFFFF DUP3 PUSH2 0x47D5 JUMP JUMPDEST PUSH2 0x481A DUP7 DUP4 PUSH2 0x47D5 JUMP JUMPDEST SWAP6 POP DUP1 NOT DUP5 AND SWAP4 POP DUP1 DUP7 AND DUP5 OR SWAP3 POP POP POP SWAP4 SWAP3 POP POP POP JUMP JUMPDEST PUSH0 PUSH2 0x484C PUSH2 0x4847 PUSH2 0x4842 DUP5 PUSH2 0x3984 JUMP JUMPDEST PUSH2 0x4572 JUMP JUMPDEST PUSH2 0x3984 JUMP JUMPDEST SWAP1 POP SWAP2 SWAP1 POP JUMP JUMPDEST PUSH0 DUP2 SWAP1 POP SWAP2 SWAP1 POP JUMP JUMPDEST PUSH2 0x4865 DUP4 PUSH2 0x4832 JUMP JUMPDEST PUSH2 0x4879 PUSH2 0x4871 DUP3 PUSH2 0x4853 JUMP JUMPDEST DUP5 DUP5 SLOAD PUSH2 0x47E1 JUMP JUMPDEST DUP3 SSTORE POP POP POP POP JUMP JUMPDEST PUSH0 SWAP1 JUMP JUMPDEST PUSH2 0x488D PUSH2 0x4881 JUMP JUMPDEST PUSH2 0x4898 DUP2 DUP5 DUP5 PUSH2 0x485C JUMP JUMPDEST POP POP POP JUMP JUMPDEST JUMPDEST DUP2 DUP2 LT ISZERO PUSH2 0x48BB JUMPI PUSH2 0x48B0 PUSH0 DUP3 PUSH2 0x4885 JUMP JUMPDEST PUSH1 0x1 DUP2 ADD SWAP1 POP PUSH2 0x489E JUMP JUMPDEST POP POP JUMP JUMPDEST PUSH1 0x1F DUP3 GT ISZERO PUSH2 0x4900 JUMPI PUSH2 0x48D1 DUP2 PUSH2 0x47B4 JUMP JUMPDEST PUSH2 0x48DA DUP5 PUSH2 0x47C6 JUMP JUMPDEST DUP2 ADD PUSH1 0x20 DUP6 LT ISZERO PUSH2 0x48E9 JUMPI DUP2 SWAP1 POP JUMPDEST PUSH2 0x48FD PUSH2 0x48F5 DUP6 PUSH2 0x47C6 JUMP JUMPDEST DUP4 ADD DUP3 PUSH2 0x489D JUMP JUMPDEST POP POP JUMPDEST POP POP POP JUMP JUMPDEST PUSH0 DUP3 DUP3 SHR SWAP1 POP SWAP3 SWAP2 POP POP JUMP JUMPDEST PUSH0 PUSH2 0x4920 PUSH0 NOT DUP5 PUSH1 0x8 MUL PUSH2 0x4905 JUMP JUMPDEST NOT DUP1 DUP4 AND SWAP2 POP POP SWAP3 SWAP2 POP POP JUMP JUMPDEST PUSH0 PUSH2 0x4938 DUP4 DUP4 PUSH2 0x4911 JUMP JUMPDEST SWAP2 POP DUP3 PUSH1 0x2 MUL DUP3 OR SWAP1 POP SWAP3 SWAP2 POP POP JUMP JUMPDEST PUSH2 0x4951 DUP3 PUSH2 0x3E03 JUMP JUMPDEST PUSH8 0xFFFFFFFFFFFFFFFF DUP2 GT ISZERO PUSH2 0x496A JUMPI PUSH2 0x4969 PUSH2 0x3B46 JUMP JUMPDEST JUMPDEST PUSH2 0x4974 DUP3 SLOAD PUSH2 0x4784 JUMP JUMPDEST PUSH2 0x497F DUP3 DUP3 DUP6 PUSH2 0x48BF JUMP JUMPDEST PUSH0 PUSH1 0x20 SWAP1 POP PUSH1 0x1F DUP4 GT PUSH1 0x1 DUP2 EQ PUSH2 0x49B0 JUMPI PUSH0 DUP5 ISZERO PUSH2 0x499E JUMPI DUP3 DUP8 ADD MLOAD SWAP1 POP JUMPDEST PUSH2 0x49A8 DUP6 DUP3 PUSH2 0x492D JUMP JUMPDEST DUP7 SSTORE POP PUSH2 0x4A0F JUMP JUMPDEST PUSH1 0x1F NOT DUP5 AND PUSH2 0x49BE DUP7 PUSH2 0x47B4 JUMP JUMPDEST PUSH0 JUMPDEST DUP3 DUP2 LT ISZERO PUSH2 0x49E5 JUMPI DUP5 DUP10 ADD MLOAD DUP3 SSTORE PUSH1 0x1 DUP3 ADD SWAP2 POP PUSH1 0x20 DUP6 ADD SWAP5 POP PUSH1 0x20 DUP2 ADD SWAP1 POP PUSH2 0x49C0 JUMP JUMPDEST DUP7 DUP4 LT ISZERO PUSH2 0x4A02 JUMPI DUP5 DUP10 ADD MLOAD PUSH2 0x49FE PUSH1 0x1F DUP10 AND DUP3 PUSH2 0x4911 JUMP JUMPDEST DUP4 SSTORE POP JUMPDEST PUSH1 0x1 PUSH1 0x2 DUP9 MUL ADD DUP9 SSTORE POP POP POP JUMPDEST POP POP POP POP POP POP JUMP JUMPDEST PUSH32 0x52656A65637465642064756520746F2065787069726174696F6E000000000000 PUSH0 DUP3 ADD MSTORE POP JUMP JUMPDEST PUSH0 PUSH2 0x4A4B PUSH1 0x1A DUP4 PUSH2 0x3F63 JUMP JUMPDEST SWAP2 POP PUSH2 0x4A56 DUP3 PUSH2 0x4A17 JUMP JUMPDEST PUSH1 0x20 DUP3 ADD SWAP1 POP SWAP2 SWAP1 POP JUMP JUMPDEST PUSH0 PUSH1 0x60 DUP3 ADD SWAP1 POP PUSH2 0x4A74 PUSH0 DUP4 ADD DUP6 PUSH2 0x398D JUMP JUMPDEST PUSH2 0x4A81 PUSH1 0x20 DUP4 ADD DUP5 PUSH2 0x3A52 JUMP JUMPDEST DUP2 DUP2 SUB PUSH1 0x40 DUP4 ADD MSTORE PUSH2 0x4A92 DUP2 PUSH2 0x4A3F JUMP JUMPDEST SWAP1 POP SWAP4 SWAP3 POP POP POP JUMP JUMPDEST PUSH0 DUP2 MLOAD SWAP1 POP PUSH2 0x4AA9 DUP2 PUSH2 0x39B5 JUMP JUMPDEST SWAP3 SWAP2 POP POP JUMP JUMPDEST PUSH0 PUSH1 0x20 DUP3 DUP5 SUB SLT ISZERO PUSH2 0x4AC4 JUMPI PUSH2 0x4AC3 PUSH2 0x38F7 JUMP JUMPDEST JUMPDEST PUSH0 PUSH2 0x4AD1 DUP5 DUP3 DUP6 ADD PUSH2 0x4A9B JUMP JUMPDEST SWAP2 POP POP SWAP3 SWAP2 POP POP JUMP JUMPDEST PUSH32 0x496E69746961746F722068617320696E73756666696369656E74204547592074 PUSH0 DUP3 ADD MSTORE PUSH32 0x6F6B656E732E0000000000000000000000000000000000000000000000000000 PUSH1 0x20 DUP3 ADD MSTORE POP JUMP JUMPDEST PUSH0 PUSH2 0x4B34 PUSH1 0x26 DUP4 PUSH2 0x3F63 JUMP JUMPDEST SWAP2 POP PUSH2 0x4B3F DUP3 PUSH2 0x4ADA JUMP JUMPDEST PUSH1 0x40 DUP3 ADD SWAP1 POP SWAP2 SWAP1 POP JUMP JUMPDEST PUSH0 PUSH1 0x20 DUP3 ADD SWAP1 POP DUP2 DUP2 SUB PUSH0 DUP4 ADD MSTORE PUSH2 0x4B61 DUP2 PUSH2 0x4B28 JUMP JUMPDEST SWAP1 POP SWAP2 SWAP1 POP JUMP JUMPDEST PUSH32 0x526563656976657220646F6573206E6F74206861766520656E6F75676820656E PUSH0 DUP3 ADD MSTORE PUSH32 0x657267792E000000000000000000000000000000000000000000000000000000 PUSH1 0x20 DUP3 ADD MSTORE POP JUMP JUMPDEST PUSH0 PUSH2 0x4BC2 PUSH1 0x25 DUP4 PUSH2 0x3F63 JUMP JUMPDEST SWAP2 POP PUSH2 0x4BCD DUP3 PUSH2 0x4B68 JUMP JUMPDEST PUSH1 0x40 DUP3 ADD SWAP1 POP SWAP2 SWAP1 POP JUMP JUMPDEST PUSH0 PUSH1 0x20 DUP3 ADD SWAP1 POP DUP2 DUP2 SUB PUSH0 DUP4 ADD MSTORE PUSH2 0x4BEF DUP2 PUSH2 0x4BB6 JUMP JUMPDEST SWAP1 POP SWAP2 SWAP1 POP JUMP JUMPDEST PUSH0 PUSH1 0x60 DUP3 ADD SWAP1 POP PUSH2 0x4C09 PUSH0 DUP4 ADD DUP7 PUSH2 0x3F54 JUMP JUMPDEST PUSH2 0x4C16 PUSH1 0x20 DUP4 ADD DUP6 PUSH2 0x3F54 JUMP JUMPDEST PUSH2 0x4C23 PUSH1 0x40 DUP4 ADD DUP5 PUSH2 0x398D JUMP JUMPDEST SWAP5 SWAP4 POP POP POP POP JUMP JUMPDEST PUSH0 DUP2 MLOAD SWAP1 POP PUSH2 0x4C39 DUP2 PUSH2 0x39EA JUMP JUMPDEST SWAP3 SWAP2 POP POP JUMP JUMPDEST PUSH0 PUSH1 0x20 DUP3 DUP5 SUB SLT ISZERO PUSH2 0x4C54 JUMPI PUSH2 0x4C53 PUSH2 0x38F7 JUMP JUMPDEST JUMPDEST PUSH0 PUSH2 0x4C61 DUP5 DUP3 DUP6 ADD PUSH2 0x4C2B JUMP JUMPDEST SWAP2 POP POP SWAP3 SWAP2 POP POP JUMP JUMPDEST PUSH0 PUSH2 0x4C74 DUP3 PUSH2 0x3984 JUMP JUMPDEST SWAP2 POP PUSH2 0x4C7F DUP4 PUSH2 0x3984 JUMP JUMPDEST SWAP3 POP DUP3 DUP3 SUB SWAP1 POP DUP2 DUP2 GT ISZERO PUSH2 0x4C97 JUMPI PUSH2 0x4C96 PUSH2 0x4613 JUMP JUMPDEST JUMPDEST SWAP3 SWAP2 POP POP JUMP JUMPDEST PUSH0 PUSH2 0x4CA7 DUP3 PUSH2 0x3984 JUMP JUMPDEST SWAP2 POP PUSH2 0x4CB2 DUP4 PUSH2 0x3984 JUMP JUMPDEST SWAP3 POP DUP3 DUP3 ADD SWAP1 POP DUP1 DUP3 GT ISZERO PUSH2 0x4CCA JUMPI PUSH2 0x4CC9 PUSH2 0x4613 JUMP JUMPDEST JUMPDEST SWAP3 SWAP2 POP POP JUMP JUMPDEST PUSH32 0x52656365697665722068617320696E73756666696369656E742045475920746F PUSH0 DUP3 ADD MSTORE PUSH32 0x6B656E732E000000000000000000000000000000000000000000000000000000 PUSH1 0x20 DUP3 ADD MSTORE POP JUMP JUMPDEST PUSH0 PUSH2 0x4D2A PUSH1 0x25 DUP4 PUSH2 0x3F63 JUMP JUMPDEST SWAP2 POP PUSH2 0x4D35 DUP3 PUSH2 0x4CD0 JUMP JUMPDEST PUSH1 0x40 DUP3 ADD SWAP1 POP SWAP2 SWAP1 POP JUMP JUMPDEST PUSH0 PUSH1 0x20 DUP3 ADD SWAP1 POP DUP2 DUP2 SUB PUSH0 DUP4 ADD MSTORE PUSH2 0x4D57 DUP2 PUSH2 0x4D1E JUMP JUMPDEST SWAP1 POP SWAP2 SWAP1 POP JUMP JUMPDEST PUSH32 0x496E69746961746F7220646F6573206E6F74206861766520656E6F7567682065 PUSH0 DUP3 ADD MSTORE PUSH32 0x6E657267792E0000000000000000000000000000000000000000000000000000 PUSH1 0x20 DUP3 ADD MSTORE POP JUMP JUMPDEST PUSH0 PUSH2 0x4DB8 PUSH1 0x26 DUP4 PUSH2 0x3F63 JUMP JUMPDEST SWAP2 POP PUSH2 0x4DC3 DUP3 PUSH2 0x4D5E JUMP JUMPDEST PUSH1 0x40 DUP3 ADD SWAP1 POP SWAP2 SWAP1 POP JUMP JUMPDEST PUSH0 PUSH1 0x20 DUP3 ADD SWAP1 POP DUP2 DUP2 SUB PUSH0 DUP4 ADD MSTORE PUSH2 0x4DE5 DUP2 PUSH2 0x4DAC JUMP JUMPDEST SWAP1 POP SWAP2 SWAP1 POP JUMP JUMPDEST PUSH0 DUP2 SLOAD PUSH2 0x4DF8 DUP2 PUSH2 0x4784 JUMP JUMPDEST PUSH2 0x4E02 DUP2 DUP7 PUSH2 0x3F63 JUMP JUMPDEST SWAP5 POP PUSH1 0x1 DUP3 AND PUSH0 DUP2 EQ PUSH2 0x4E1C JUMPI PUSH1 0x1 DUP2 EQ PUSH2 0x4E32 JUMPI PUSH2 0x4E64 JUMP JUMPDEST PUSH1 0xFF NOT DUP4 AND DUP7 MSTORE DUP2 ISZERO ISZERO PUSH1 0x20 MUL DUP7 ADD SWAP4 POP PUSH2 0x4E64 JUMP JUMPDEST PUSH2 0x4E3B DUP6 PUSH2 0x47B4 JUMP JUMPDEST PUSH0 JUMPDEST DUP4 DUP2 LT ISZERO PUSH2 0x4E5C JUMPI DUP2 SLOAD DUP2 DUP10 ADD MSTORE PUSH1 0x1 DUP3 ADD SWAP2 POP PUSH1 0x20 DUP2 ADD SWAP1 POP PUSH2 0x4E3D JUMP JUMPDEST DUP1 DUP9 ADD SWAP6 POP POP POP JUMPDEST POP POP POP SWAP3 SWAP2 POP POP JUMP JUMPDEST PUSH0 PUSH1 0x60 DUP3 ADD SWAP1 POP PUSH2 0x4E80 PUSH0 DUP4 ADD DUP7 PUSH2 0x398D JUMP JUMPDEST PUSH2 0x4E8D PUSH1 0x20 DUP4 ADD DUP6 PUSH2 0x3A52 JUMP JUMPDEST DUP2 DUP2 SUB PUSH1 0x40 DUP4 ADD MSTORE PUSH2 0x4E9F DUP2 DUP5 PUSH2 0x4DEC JUMP JUMPDEST SWAP1 POP SWAP5 SWAP4 POP POP POP POP JUMP JUMPDEST PUSH0 PUSH1 0x40 DUP3 ADD SWAP1 POP PUSH2 0x4EBC PUSH0 DUP4 ADD DUP6 PUSH2 0x3F54 JUMP JUMPDEST PUSH2 0x4EC9 PUSH1 0x20 DUP4 ADD DUP5 PUSH2 0x398D JUMP JUMPDEST SWAP4 SWAP3 POP POP POP JUMP JUMPDEST PUSH32 0x496E69746961746F72206973206E6F7420726567697374657265642E00000000 PUSH0 DUP3 ADD MSTORE POP JUMP JUMPDEST PUSH0 PUSH2 0x4F04 PUSH1 0x1C DUP4 PUSH2 0x3F63 JUMP JUMPDEST SWAP2 POP PUSH2 0x4F0F DUP3 PUSH2 0x4ED0 JUMP JUMPDEST PUSH1 0x20 DUP3 ADD SWAP1 POP SWAP2 SWAP1 POP JUMP JUMPDEST PUSH0 PUSH1 0x20 DUP3 ADD SWAP1 POP DUP2 DUP2 SUB PUSH0 DUP4 ADD MSTORE PUSH2 0x4F31 DUP2 PUSH2 0x4EF8 JUMP JUMPDEST SWAP1 POP SWAP2 SWAP1 POP JUMP JUMPDEST PUSH32 0x5265636569766572206973206E6F7420726567697374657265642E0000000000 PUSH0 DUP3 ADD MSTORE POP JUMP JUMPDEST PUSH0 PUSH2 0x4F6C PUSH1 0x1B DUP4 PUSH2 0x3F63 JUMP JUMPDEST SWAP2 POP PUSH2 0x4F77 DUP3 PUSH2 0x4F38 JUMP JUMPDEST PUSH1 0x20 DUP3 ADD SWAP1 POP SWAP2 SWAP1 POP JUMP JUMPDEST PUSH0 PUSH1 0x20 DUP3 ADD SWAP1 POP DUP2 DUP2 SUB PUSH0 DUP4 ADD MSTORE PUSH2 0x4F99 DUP2 PUSH2 0x4F60 JUMP JUMPDEST SWAP1 POP SWAP2 SWAP1 POP JUMP JUMPDEST PUSH32 0x5472616E73616374696F6E2065787069726174696F6E206D7573742062652069 PUSH0 DUP3 ADD MSTORE PUSH32 0x6E20746865206675747572652E00000000000000000000000000000000000000 PUSH1 0x20 DUP3 ADD MSTORE POP JUMP JUMPDEST PUSH0 PUSH2 0x4FFA PUSH1 0x2D DUP4 PUSH2 0x3F63 JUMP JUMPDEST SWAP2 POP PUSH2 0x5005 DUP3 PUSH2 0x4FA0 JUMP JUMPDEST PUSH1 0x40 DUP3 ADD SWAP1 POP SWAP2 SWAP1 POP JUMP JUMPDEST PUSH0 PUSH1 0x20 DUP3 ADD SWAP1 POP DUP2 DUP2 SUB PUSH0 DUP4 ADD MSTORE PUSH2 0x5027 DUP2 PUSH2 0x4FEE JUMP JUMPDEST SWAP1 POP SWAP2 SWAP1 POP JUMP JUMPDEST PUSH32 0x53656E6465722068617320696E73756666696369656E7420746F6B656E732066 PUSH0 DUP3 ADD MSTORE PUSH32 0x6F72207472616E73616374696F6E2E0000000000000000000000000000000000 PUSH1 0x20 DUP3 ADD MSTORE POP JUMP JUMPDEST PUSH0 PUSH2 0x5088 PUSH1 0x2F DUP4 PUSH2 0x3F63 JUMP JUMPDEST SWAP2 POP PUSH2 0x5093 DUP3 PUSH2 0x502E JUMP JUMPDEST PUSH1 0x40 DUP3 ADD SWAP1 POP SWAP2 SWAP1 POP JUMP JUMPDEST PUSH0 PUSH1 0x20 DUP3 ADD SWAP1 POP DUP2 DUP2 SUB PUSH0 DUP4 ADD MSTORE PUSH2 0x50B5 DUP2 PUSH2 0x507C JUMP JUMPDEST SWAP1 POP SWAP2 SWAP1 POP JUMP JUMPDEST PUSH32 0x53656E6465722068617320696E73756666696369656E7420656E657267792066 PUSH0 DUP3 ADD MSTORE PUSH32 0x6F72207472616E73616374696F6E2E0000000000000000000000000000000000 PUSH1 0x20 DUP3 ADD MSTORE POP JUMP JUMPDEST PUSH0 PUSH2 0x5116 PUSH1 0x2F DUP4 PUSH2 0x3F63 JUMP JUMPDEST SWAP2 POP PUSH2 0x5121 DUP3 PUSH2 0x50BC JUMP JUMPDEST PUSH1 0x40 DUP3 ADD SWAP1 POP SWAP2 SWAP1 POP JUMP JUMPDEST PUSH0 PUSH1 0x20 DUP3 ADD SWAP1 POP DUP2 DUP2 SUB PUSH0 DUP4 ADD MSTORE PUSH2 0x5143 DUP2 PUSH2 0x510A JUMP JUMPDEST SWAP1 POP SWAP2 SWAP1 POP JUMP JUMPDEST PUSH0 PUSH1 0x60 DUP3 ADD SWAP1 POP PUSH2 0x515D PUSH0 DUP4 ADD DUP7 PUSH2 0x398D JUMP JUMPDEST PUSH2 0x516A PUSH1 0x20 DUP4 ADD DUP6 PUSH2 0x3F54 JUMP JUMPDEST PUSH2 0x5177 PUSH1 0x40 DUP4 ADD DUP5 PUSH2 0x400F JUMP JUMPDEST SWAP5 SWAP4 POP POP POP POP JUMP JUMPDEST PUSH32 0x5573657220616C726561647920726567697374657265642E0000000000000000 PUSH0 DUP3 ADD MSTORE POP JUMP JUMPDEST PUSH0 PUSH2 0x51B3 PUSH1 0x18 DUP4 PUSH2 0x3F63 JUMP JUMPDEST SWAP2 POP PUSH2 0x51BE DUP3 PUSH2 0x517F JUMP JUMPDEST PUSH1 0x20 DUP3 ADD SWAP1 POP SWAP2 SWAP1 POP JUMP JUMPDEST PUSH0 PUSH1 0x20 DUP3 ADD SWAP1 POP DUP2 DUP2 SUB PUSH0 DUP4 ADD MSTORE PUSH2 0x51E0 DUP2 PUSH2 0x51A7 JUMP JUMPDEST SWAP1 POP SWAP2 SWAP1 POP JUMP JUMPDEST PUSH0 PUSH1 0xFF DUP3 AND SWAP1 POP SWAP2 SWAP1 POP JUMP JUMPDEST PUSH2 0x51FC DUP2 PUSH2 0x51E7 JUMP JUMPDEST DUP2 EQ PUSH2 0x5206 JUMPI PUSH0 DUP1 REVERT JUMPDEST POP JUMP JUMPDEST PUSH0 DUP2 MLOAD SWAP1 POP PUSH2 0x5217 DUP2 PUSH2 0x51F3 JUMP JUMPDEST SWAP3 SWAP2 POP POP JUMP JUMPDEST PUSH0 PUSH1 0x20 DUP3 DUP5 SUB SLT ISZERO PUSH2 0x5232 JUMPI PUSH2 0x5231 PUSH2 0x38F7 JUMP JUMPDEST JUMPDEST PUSH0 PUSH2 0x523F DUP5 DUP3 DUP6 ADD PUSH2 0x5209 JUMP JUMPDEST SWAP2 POP POP SWAP3 SWAP2 POP POP JUMP JUMPDEST PUSH0 DUP2 PUSH1 0x1 SHR SWAP1 POP SWAP2 SWAP1 POP JUMP JUMPDEST PUSH0 DUP1 DUP3 SWAP2 POP DUP4 SWAP1 POP JUMPDEST PUSH1 0x1 DUP6 GT ISZERO PUSH2 0x529D JUMPI DUP1 DUP7 DIV DUP2 GT ISZERO PUSH2 0x5279 JUMPI PUSH2 0x5278 PUSH2 0x4613 JUMP JUMPDEST JUMPDEST PUSH1 0x1 DUP6 AND ISZERO PUSH2 0x5288 JUMPI DUP1 DUP3 MUL SWAP2 POP JUMPDEST DUP1 DUP2 MUL SWAP1 POP PUSH2 0x5296 DUP6 PUSH2 0x5248 JUMP JUMPDEST SWAP5 POP PUSH2 0x525D JUMP JUMPDEST SWAP5 POP SWAP5 SWAP3 POP POP POP JUMP JUMPDEST PUSH0 DUP3 PUSH2 0x52B5 JUMPI PUSH1 0x1 SWAP1 POP PUSH2 0x5370 JUMP JUMPDEST DUP2 PUSH2 0x52C2 JUMPI PUSH0 SWAP1 POP PUSH2 0x5370 JUMP JUMPDEST DUP2 PUSH1 0x1 DUP2 EQ PUSH2 0x52D8 JUMPI PUSH1 0x2 DUP2 EQ PUSH2 0x52E2 JUMPI PUSH2 0x5311 JUMP JUMPDEST PUSH1 0x1 SWAP2 POP POP PUSH2 0x5370 JUMP JUMPDEST PUSH1 0xFF DUP5 GT ISZERO PUSH2 0x52F4 JUMPI PUSH2 0x52F3 PUSH2 0x4613 JUMP JUMPDEST JUMPDEST DUP4 PUSH1 0x2 EXP SWAP2 POP DUP5 DUP3 GT ISZERO PUSH2 0x530B JUMPI PUSH2 0x530A PUSH2 0x4613 JUMP JUMPDEST JUMPDEST POP PUSH2 0x5370 JUMP JUMPDEST POP PUSH1 0x20 DUP4 LT PUSH2 0x133 DUP4 LT AND PUSH1 0x4E DUP5 LT PUSH1 0xB DUP5 LT AND OR ISZERO PUSH2 0x5346 JUMPI DUP3 DUP3 EXP SWAP1 POP DUP4 DUP2 GT ISZERO PUSH2 0x5341 JUMPI PUSH2 0x5340 PUSH2 0x4613 JUMP JUMPDEST JUMPDEST PUSH2 0x5370 JUMP JUMPDEST PUSH2 0x5353 DUP5 DUP5 DUP5 PUSH1 0x1 PUSH2 0x5254 JUMP JUMPDEST SWAP3 POP SWAP1 POP DUP2 DUP5 DIV DUP2 GT ISZERO PUSH2 0x536A JUMPI PUSH2 0x5369 PUSH2 0x4613 JUMP JUMPDEST JUMPDEST DUP2 DUP2 MUL SWAP1 POP JUMPDEST SWAP4 SWAP3 POP POP POP JUMP JUMPDEST PUSH0 PUSH2 0x5381 DUP3 PUSH2 0x3984 JUMP JUMPDEST SWAP2 POP PUSH2 0x538C DUP4 PUSH2 0x3984 JUMP JUMPDEST SWAP3 POP PUSH2 0x53B9 PUSH32 0xFFFFFFFFFFFFFFFFFFFFFFFFFFFFFFFFFFFFFFFFFFFFFFFFFFFFFFFFFFFFFFFF DUP5 DUP5 PUSH2 0x52A6 JUMP JUMPDEST SWAP1 POP SWAP3 SWAP2 POP POP JUMP JUMPDEST PUSH0 PUSH2 0x53CB DUP3 PUSH2 0x3984 JUMP JUMPDEST SWAP2 POP PUSH2 0x53D6 DUP4 PUSH2 0x3984 JUMP JUMPDEST SWAP3 POP DUP3 DUP3 MUL PUSH2 0x53E4 DUP2 PUSH2 0x3984 JUMP JUMPDEST SWAP2 POP DUP3 DUP3 DIV DUP5 EQ DUP4 ISZERO OR PUSH2 0x53FB JUMPI PUSH2 0x53FA PUSH2 0x4613 JUMP JUMPDEST JUMPDEST POP SWAP3 SWAP2 POP POP JUMP JUMPDEST PUSH0 PUSH1 0x80 DUP3 ADD SWAP1 POP DUP2 DUP2 SUB PUSH0 DUP4 ADD MSTORE PUSH2 0x541A DUP2 DUP8 PUSH2 0x3F73 JUMP JUMPDEST SWAP1 POP PUSH2 0x5429 PUSH1 0x20 DUP4 ADD DUP7 PUSH2 0x4178 JUMP JUMPDEST PUSH2 0x5436 PUSH1 0x40 DUP4 ADD DUP6 PUSH2 0x4178 JUMP JUMPDEST PUSH2 0x5443 PUSH1 0x60 DUP4 ADD DUP5 PUSH2 0x398D JUMP JUMPDEST SWAP6 SWAP5 POP POP POP POP POP JUMP JUMPDEST PUSH32 0x4F6E6C792061646D696E2063616E2063616C6C20746869732E00000000000000 PUSH0 DUP3 ADD MSTORE POP JUMP JUMPDEST PUSH0 PUSH2 0x5480 PUSH1 0x19 DUP4 PUSH2 0x3F63 JUMP JUMPDEST SWAP2 POP PUSH2 0x548B DUP3 PUSH2 0x544C JUMP JUMPDEST PUSH1 0x20 DUP3 ADD SWAP1 POP SWAP2 SWAP1 POP JUMP JUMPDEST PUSH0 PUSH1 0x20 DUP3 ADD SWAP1 POP DUP2 DUP2 SUB PUSH0 DUP4 ADD MSTORE PUSH2 0x54AD DUP2 PUSH2 0x5474 JUMP JUMPDEST SWAP1 POP SWAP2 SWAP1 POP JUMP JUMPDEST PUSH32 0x55736572206973206E6F7420726567697374657265642E000000000000000000 PUSH0 DUP3 ADD MSTORE POP JUMP JUMPDEST PUSH0 PUSH2 0x54E8 PUSH1 0x17 DUP4 PUSH2 0x3F63 JUMP JUMPDEST SWAP2 POP PUSH2 0x54F3 DUP3 PUSH2 0x54B4 JUMP JUMPDEST PUSH1 0x20 DUP3 ADD SWAP1 POP SWAP2 SWAP1 POP JUMP JUMPDEST PUSH0 PUSH1 0x20 DUP3 ADD SWAP1 POP DUP2 DUP2 SUB PUSH0 DUP4 ADD MSTORE PUSH2 0x5515 DUP2 PUSH2 0x54DC JUMP JUMPDEST SWAP1 POP SWAP2 SWAP1 POP JUMP JUMPDEST PUSH32 0x4E487B7100000000000000000000000000000000000000000000000000000000 PUSH0 MSTORE PUSH1 0x31 PUSH1 0x4 MSTORE PUSH1 0x24 PUSH0 REVERT JUMPDEST PUSH32 0x557365722061646472657373206E6F7420666F756E642E000000000000000000 PUSH0 DUP3 ADD MSTORE POP JUMP JUMPDEST PUSH0 PUSH2 0x557D PUSH1 0x17 DUP4 PUSH2 0x3F63 JUMP JUMPDEST SWAP2 POP PUSH2 0x5588 DUP3 PUSH2 0x5549 JUMP JUMPDEST PUSH1 0x20 DUP3 ADD SWAP1 POP SWAP2 SWAP1 POP JUMP JUMPDEST PUSH0 PUSH1 0x20 DUP3 ADD SWAP1 POP DUP2 DUP2 SUB PUSH0 DUP4 ADD MSTORE PUSH2 0x55AA DUP2 PUSH2 0x5571 JUMP JUMPDEST SWAP1 POP SWAP2 SWAP1 POP JUMP INVALID LOG2 PUSH5 0x6970667358 0x22 SLT KECCAK256 0xAA PUSH30 0xF32F1AC22DD84611CCA97446092D079CD42B6B953901502DF8AEAFAC797 PUSH5 0x736F6C6343 STOP ADDMOD XOR STOP CALLER "
		},
		"gasEstimates": {
			"creation": {
				"codeDepositCost": "4398200",
				"executionCost": "infinite",
				"totalCost": "infinite"
			},
			"external": {
				"admin()": "2618",
				"approveTokens(uint256)": "infinite",
				"commitTransaction(uint256,bool)": "infinite",
				"deleteUser(address)": "infinite",
				"getAllCommittedTransactions()": "infinite",
				"getAllPendingTransactions()": "infinite",
				"getAllUserTransactions(address)": "infinite",
				"getAllUsersInfo()": "infinite",
				"getNotCommittedTransactionsCount(address)": "infinite",
				"getNumberOfNotCommittedTransactions()": "2484",
				"getUserAddresses()": "infinite",
				"getUserCommittedTransactions(address)": "infinite",
				"getUserInfo(address)": "infinite",
				"getUserPendingTransactions(address)": "infinite",
				"getUserTokenBalance(address)": "infinite",
				"initiateTransaction(address,address,uint256,uint256,uint256,bool)": "infinite",
				"isUserRegistered(address)": "2944",
				"pendingTransactions(uint256)": "infinite",
				"registerUser(string,int256,int256,uint256)": "infinite",
				"token()": "infinite",
				"transactions(uint256)": "infinite",
				"updateEnergyBalance(address,uint256)": "25207",
				"updateUser(string,int256,int256,uint256)": "infinite",
				"users(address)": "infinite"
			},
			"internal": {
				"removePendingTransaction(uint256)": "infinite"
			}
		},
		"methodIdentifiers": {
			"admin()": "f851a440",
			"approveTokens(uint256)": "220646ce",
			"commitTransaction(uint256,bool)": "0b0f9dc3",
			"deleteUser(address)": "5c60f226",
			"getAllCommittedTransactions()": "b1fce8c3",
			"getAllPendingTransactions()": "a9878c62",
			"getAllUserTransactions(address)": "4dd87af7",
			"getAllUsersInfo()": "c3bcf192",
			"getNotCommittedTransactionsCount(address)": "04be1ef2",
			"getNumberOfNotCommittedTransactions()": "c0fa3f4b",
			"getUserAddresses()": "a591efde",
			"getUserCommittedTransactions(address)": "586fb58e",
			"getUserInfo(address)": "6386c1c7",
			"getUserPendingTransactions(address)": "9e83e306",
			"getUserTokenBalance(address)": "f5aec88c",
			"initiateTransaction(address,address,uint256,uint256,uint256,bool)": "4439a702",
			"isUserRegistered(address)": "163f7522",
			"pendingTransactions(uint256)": "63a8374d",
			"registerUser(string,int256,int256,uint256)": "4bc48240",
			"token()": "fc0c546a",
			"transactions(uint256)": "9ace38c2",
			"updateEnergyBalance(address,uint256)": "af7ccfa7",
			"updateUser(string,int256,int256,uint256)": "92d9c36f",
			"users(address)": "a87430ba"
		}
	},
	"abi": [
		{
			"inputs": [
				{
					"internalType": "address",
					"name": "tokenAddress",
					"type": "address"
				}
			],
			"stateMutability": "nonpayable",
			"type": "constructor"
		},
		{
			"anonymous": false,
			"inputs": [
				{
					"indexed": false,
					"internalType": "uint256",
					"name": "transactionId",
					"type": "uint256"
				},
				{
					"indexed": false,
					"internalType": "bool",
					"name": "accepted",
					"type": "bool"
				},
				{
					"indexed": false,
					"internalType": "string",
					"name": "status",
					"type": "string"
				}
			],
			"name": "TransactionCommitted",
			"type": "event"
		},
		{
			"anonymous": false,
			"inputs": [
				{
					"indexed": false,
					"internalType": "uint256",
					"name": "transactionId",
					"type": "uint256"
				},
				{
					"indexed": false,
					"internalType": "address",
					"name": "receiver",
					"type": "address"
				},
				{
					"indexed": false,
					"internalType": "enum EnergyTradingPlatform.TransactionType",
					"name": "transactionType",
					"type": "uint8"
				}
			],
			"name": "TransactionInitiated",
			"type": "event"
		},
		{
			"anonymous": false,
			"inputs": [
				{
					"indexed": true,
					"internalType": "address",
					"name": "userAddress",
					"type": "address"
				}
			],
			"name": "UserDeleted",
			"type": "event"
		},
		{
			"anonymous": false,
			"inputs": [
				{
					"indexed": true,
					"internalType": "address",
					"name": "userAddress",
					"type": "address"
				},
				{
					"indexed": false,
					"internalType": "string",
					"name": "username",
					"type": "string"
				},
				{
					"indexed": false,
					"internalType": "int256",
					"name": "latitude",
					"type": "int256"
				},
				{
					"indexed": false,
					"internalType": "int256",
					"name": "longitude",
					"type": "int256"
				},
				{
					"indexed": false,
					"internalType": "uint256",
					"name": "energyBalance",
					"type": "uint256"
				}
			],
			"name": "UserRegistered",
			"type": "event"
		},
		{
			"anonymous": false,
			"inputs": [
				{
					"indexed": true,
					"internalType": "address",
					"name": "userAddress",
					"type": "address"
				},
				{
					"indexed": false,
					"internalType": "string",
					"name": "username",
					"type": "string"
				},
				{
					"indexed": false,
					"internalType": "int256",
					"name": "latitude",
					"type": "int256"
				},
				{
					"indexed": false,
					"internalType": "int256",
					"name": "longitude",
					"type": "int256"
				},
				{
					"indexed": false,
					"internalType": "uint256",
					"name": "energyBalance",
					"type": "uint256"
				}
			],
			"name": "UserUpdated",
			"type": "event"
		},
		{
			"inputs": [],
			"name": "admin",
			"outputs": [
				{
					"internalType": "address",
					"name": "",
					"type": "address"
				}
			],
			"stateMutability": "view",
			"type": "function"
		},
		{
			"inputs": [
				{
					"internalType": "uint256",
					"name": "amount",
					"type": "uint256"
				}
			],
			"name": "approveTokens",
			"outputs": [],
			"stateMutability": "nonpayable",
			"type": "function"
		},
		{
			"inputs": [
				{
					"internalType": "uint256",
					"name": "_transactionId",
					"type": "uint256"
				},
				{
					"internalType": "bool",
					"name": "_accepted",
					"type": "bool"
				}
			],
			"name": "commitTransaction",
			"outputs": [],
			"stateMutability": "nonpayable",
			"type": "function"
		},
		{
			"inputs": [
				{
					"internalType": "address",
					"name": "_userAddress",
					"type": "address"
				}
			],
			"name": "deleteUser",
			"outputs": [],
			"stateMutability": "nonpayable",
			"type": "function"
		},
		{
			"inputs": [],
			"name": "getAllCommittedTransactions",
			"outputs": [
				{
					"components": [
						{
							"internalType": "uint256",
							"name": "id",
							"type": "uint256"
						},
						{
							"internalType": "address",
							"name": "initiator",
							"type": "address"
						},
						{
							"internalType": "address",
							"name": "receiver",
							"type": "address"
						},
						{
							"internalType": "uint256",
							"name": "energyAmount",
							"type": "uint256"
						},
						{
							"internalType": "uint256",
							"name": "price",
							"type": "uint256"
						},
						{
							"internalType": "uint256",
							"name": "validUntil",
							"type": "uint256"
						},
						{
							"internalType": "bool",
							"name": "committed",
							"type": "bool"
						},
						{
							"internalType": "string",
							"name": "status",
							"type": "string"
						},
						{
							"internalType": "enum EnergyTradingPlatform.TransactionType",
							"name": "transactionType",
							"type": "uint8"
						}
					],
					"internalType": "struct EnergyTradingPlatform.Transaction[]",
					"name": "",
					"type": "tuple[]"
				}
			],
			"stateMutability": "view",
			"type": "function"
		},
		{
			"inputs": [],
			"name": "getAllPendingTransactions",
			"outputs": [
				{
					"components": [
						{
							"internalType": "uint256",
							"name": "id",
							"type": "uint256"
						},
						{
							"internalType": "address",
							"name": "initiator",
							"type": "address"
						},
						{
							"internalType": "address",
							"name": "receiver",
							"type": "address"
						},
						{
							"internalType": "uint256",
							"name": "energyAmount",
							"type": "uint256"
						},
						{
							"internalType": "uint256",
							"name": "price",
							"type": "uint256"
						},
						{
							"internalType": "uint256",
							"name": "validUntil",
							"type": "uint256"
						},
						{
							"internalType": "bool",
							"name": "committed",
							"type": "bool"
						},
						{
							"internalType": "string",
							"name": "status",
							"type": "string"
						},
						{
							"internalType": "enum EnergyTradingPlatform.TransactionType",
							"name": "transactionType",
							"type": "uint8"
						}
					],
					"internalType": "struct EnergyTradingPlatform.Transaction[]",
					"name": "",
					"type": "tuple[]"
				}
			],
			"stateMutability": "view",
			"type": "function"
		},
		{
			"inputs": [
				{
					"internalType": "address",
					"name": "userAddress",
					"type": "address"
				}
			],
			"name": "getAllUserTransactions",
			"outputs": [
				{
					"internalType": "uint256[]",
					"name": "",
					"type": "uint256[]"
				}
			],
			"stateMutability": "view",
			"type": "function"
		},
		{
			"inputs": [],
			"name": "getAllUsersInfo",
			"outputs": [
				{
					"components": [
						{
							"internalType": "address",
							"name": "userAddress",
							"type": "address"
						},
						{
							"internalType": "string",
							"name": "username",
							"type": "string"
						},
						{
							"internalType": "uint256",
							"name": "EGYTokenBalance",
							"type": "uint256"
						},
						{
							"internalType": "int256",
							"name": "latitude",
							"type": "int256"
						},
						{
							"internalType": "int256",
							"name": "longitude",
							"type": "int256"
						},
						{
							"internalType": "uint256",
							"name": "energyBalance",
							"type": "uint256"
						},
						{
							"internalType": "bool",
							"name": "isRegistered",
							"type": "bool"
						}
					],
					"internalType": "struct EnergyTradingPlatform.UserInfo[]",
					"name": "",
					"type": "tuple[]"
				}
			],
			"stateMutability": "view",
			"type": "function"
		},
		{
			"inputs": [
				{
					"internalType": "address",
					"name": "userAddress",
					"type": "address"
				}
			],
			"name": "getNotCommittedTransactionsCount",
			"outputs": [
				{
					"internalType": "uint256",
					"name": "",
					"type": "uint256"
				}
			],
			"stateMutability": "view",
			"type": "function"
		},
		{
			"inputs": [],
			"name": "getNumberOfNotCommittedTransactions",
			"outputs": [
				{
					"internalType": "uint256",
					"name": "",
					"type": "uint256"
				}
			],
			"stateMutability": "view",
			"type": "function"
		},
		{
			"inputs": [],
			"name": "getUserAddresses",
			"outputs": [
				{
					"internalType": "address[]",
					"name": "",
					"type": "address[]"
				}
			],
			"stateMutability": "view",
			"type": "function"
		},
		{
			"inputs": [
				{
					"internalType": "address",
					"name": "userAddress",
					"type": "address"
				}
			],
			"name": "getUserCommittedTransactions",
			"outputs": [
				{
					"internalType": "uint256[]",
					"name": "",
					"type": "uint256[]"
				}
			],
			"stateMutability": "view",
			"type": "function"
		},
		{
			"inputs": [
				{
					"internalType": "address",
					"name": "_userAddress",
					"type": "address"
				}
			],
			"name": "getUserInfo",
			"outputs": [
				{
					"components": [
						{
							"internalType": "address",
							"name": "userAddress",
							"type": "address"
						},
						{
							"internalType": "string",
							"name": "username",
							"type": "string"
						},
						{
							"internalType": "uint256",
							"name": "EGYTokenBalance",
							"type": "uint256"
						},
						{
							"internalType": "int256",
							"name": "latitude",
							"type": "int256"
						},
						{
							"internalType": "int256",
							"name": "longitude",
							"type": "int256"
						},
						{
							"internalType": "uint256",
							"name": "energyBalance",
							"type": "uint256"
						},
						{
							"internalType": "bool",
							"name": "isRegistered",
							"type": "bool"
						}
					],
					"internalType": "struct EnergyTradingPlatform.UserInfo",
					"name": "userInfo",
					"type": "tuple"
				}
			],
			"stateMutability": "view",
			"type": "function"
		},
		{
			"inputs": [
				{
					"internalType": "address",
					"name": "userAddress",
					"type": "address"
				}
			],
			"name": "getUserPendingTransactions",
			"outputs": [
				{
					"internalType": "uint256[]",
					"name": "",
					"type": "uint256[]"
				}
			],
			"stateMutability": "view",
			"type": "function"
		},
		{
			"inputs": [
				{
					"internalType": "address",
					"name": "userAddress",
					"type": "address"
				}
			],
			"name": "getUserTokenBalance",
			"outputs": [
				{
					"internalType": "uint256",
					"name": "",
					"type": "uint256"
				}
			],
			"stateMutability": "view",
			"type": "function"
		},
		{
			"inputs": [
				{
					"internalType": "address",
					"name": "_sender",
					"type": "address"
				},
				{
					"internalType": "address",
					"name": "receiver",
					"type": "address"
				},
				{
					"internalType": "uint256",
					"name": "_energyAmount",
					"type": "uint256"
				},
				{
					"internalType": "uint256",
					"name": "_price",
					"type": "uint256"
				},
				{
					"internalType": "uint256",
					"name": "_validUntil",
					"type": "uint256"
				},
				{
					"internalType": "bool",
					"name": "isBuyTransaction",
					"type": "bool"
				}
			],
			"name": "initiateTransaction",
			"outputs": [],
			"stateMutability": "nonpayable",
			"type": "function"
		},
		{
			"inputs": [
				{
					"internalType": "address",
					"name": "_userAddress",
					"type": "address"
				}
			],
			"name": "isUserRegistered",
			"outputs": [
				{
					"internalType": "bool",
					"name": "",
					"type": "bool"
				}
			],
			"stateMutability": "view",
			"type": "function"
		},
		{
			"inputs": [
				{
					"internalType": "uint256",
					"name": "",
					"type": "uint256"
				}
			],
			"name": "pendingTransactions",
			"outputs": [
				{
					"internalType": "uint256",
					"name": "",
					"type": "uint256"
				}
			],
			"stateMutability": "view",
			"type": "function"
		},
		{
			"inputs": [
				{
					"internalType": "string",
					"name": "_username",
					"type": "string"
				},
				{
					"internalType": "int256",
					"name": "_latitude",
					"type": "int256"
				},
				{
					"internalType": "int256",
					"name": "_longitude",
					"type": "int256"
				},
				{
					"internalType": "uint256",
					"name": "_energyBalance",
					"type": "uint256"
				}
			],
			"name": "registerUser",
			"outputs": [],
			"stateMutability": "nonpayable",
			"type": "function"
		},
		{
			"inputs": [],
			"name": "token",
			"outputs": [
				{
					"internalType": "contract MyERC20",
					"name": "",
					"type": "address"
				}
			],
			"stateMutability": "view",
			"type": "function"
		},
		{
			"inputs": [
				{
					"internalType": "uint256",
					"name": "",
					"type": "uint256"
				}
			],
			"name": "transactions",
			"outputs": [
				{
					"internalType": "uint256",
					"name": "id",
					"type": "uint256"
				},
				{
					"internalType": "address",
					"name": "initiator",
					"type": "address"
				},
				{
					"internalType": "address",
					"name": "receiver",
					"type": "address"
				},
				{
					"internalType": "uint256",
					"name": "energyAmount",
					"type": "uint256"
				},
				{
					"internalType": "uint256",
					"name": "price",
					"type": "uint256"
				},
				{
					"internalType": "uint256",
					"name": "validUntil",
					"type": "uint256"
				},
				{
					"internalType": "bool",
					"name": "committed",
					"type": "bool"
				},
				{
					"internalType": "string",
					"name": "status",
					"type": "string"
				},
				{
					"internalType": "enum EnergyTradingPlatform.TransactionType",
					"name": "transactionType",
					"type": "uint8"
				}
			],
			"stateMutability": "view",
			"type": "function"
		},
		{
			"inputs": [
				{
					"internalType": "address",
					"name": "_userAddress",
					"type": "address"
				},
				{
					"internalType": "uint256",
					"name": "_newEnergyBalance",
					"type": "uint256"
				}
			],
			"name": "updateEnergyBalance",
			"outputs": [],
			"stateMutability": "nonpayable",
			"type": "function"
		},
		{
			"inputs": [
				{
					"internalType": "string",
					"name": "_username",
					"type": "string"
				},
				{
					"internalType": "int256",
					"name": "_latitude",
					"type": "int256"
				},
				{
					"internalType": "int256",
					"name": "_longitude",
					"type": "int256"
				},
				{
					"internalType": "uint256",
					"name": "_energyBalance",
					"type": "uint256"
				}
			],
			"name": "updateUser",
			"outputs": [],
			"stateMutability": "nonpayable",
			"type": "function"
		},
		{
			"inputs": [
				{
					"internalType": "address",
					"name": "",
					"type": "address"
				}
			],
			"name": "users",
			"outputs": [
				{
					"internalType": "address",
					"name": "userAddress",
					"type": "address"
				},
				{
					"internalType": "string",
					"name": "username",
					"type": "string"
				},
				{
					"internalType": "uint256",
					"name": "EGYTokenBalance",
					"type": "uint256"
				},
				{
					"internalType": "int256",
					"name": "latitude",
					"type": "int256"
				},
				{
					"internalType": "int256",
					"name": "longitude",
					"type": "int256"
				},
				{
					"internalType": "uint256",
					"name": "energyBalance",
					"type": "uint256"
				},
				{
					"internalType": "bool",
					"name": "isRegistered",
					"type": "bool"
				}
			],
			"stateMutability": "view",
			"type": "function"
		}
	]
}