{
	"data": {
		"bytecode": {
			"linkReferences": {},
			"object": "6080604052600160025534801562000015575f80fd5b50604051620045db380380620045db83398181016040528101906200003b919062000126565b3360015f6101000a81548173ffffffffffffffffffffffffffffffffffffffff021916908373ffffffffffffffffffffffffffffffffffffffff160217905550805f806101000a81548173ffffffffffffffffffffffffffffffffffffffff021916908373ffffffffffffffffffffffffffffffffffffffff1602179055505062000156565b5f80fd5b5f73ffffffffffffffffffffffffffffffffffffffff82169050919050565b5f620000f082620000c5565b9050919050565b6200010281620000e4565b81146200010d575f80fd5b50565b5f815190506200012081620000f7565b92915050565b5f602082840312156200013e576200013d620000c1565b5b5f6200014d8482850162000110565b91505092915050565b61447780620001645f395ff3fe608060405234801561000f575f80fd5b50600436106100fe575f3560e01c80637156919911610095578063b1fce8c311610064578063b1fce8c3146102d9578063c0fa3f4b146102f7578063f5aec88c14610315578063f851a44014610345576100fe565b806371569199146102345780639ace38c2146102525780639e83e3061461028b578063a9878c62146102bb576100fe565b80634dd87af7116100d15780634dd87af714610186578063586fb58e146101b65780635c8a7687146101e657806363a8374d14610204576100fe565b806304be1ef2146101025780630b0f9dc314610132578063220646ce1461014e5780634439a7021461016a575b5f80fd5b61011c60048036038101906101179190612cbc565b610363565b6040516101299190612cff565b60405180910390f35b61014c60048036038101906101479190612d77565b61043f565b005b61016860048036038101906101639190612db5565b610f6e565b005b610184600480360381019061017f9190612de0565b610ff8565b005b6101a0600480360381019061019b9190612cbc565b6117e4565b6040516101ad9190612f20565b60405180910390f35b6101d060048036038101906101cb9190612cbc565b611a07565b6040516101dd9190612f20565b60405180910390f35b6101ee611c4d565b6040516101fb9190612f9b565b60405180910390f35b61021e60048036038101906102199190612db5565b611c70565b60405161022b9190612cff565b60405180910390f35b61023c611c90565b60405161024991906131fe565b60405180910390f35b61026c60048036038101906102679190612db5565b6120ae565b6040516102829a999897969594939291906132f7565b60405180910390f35b6102a560048036038101906102a09190612cbc565b6121da565b6040516102b29190612f20565b60405180910390f35b6102c3612447565b6040516102d09190613548565b60405180910390f35b6102e16126df565b6040516102ee9190613548565b60405180910390f35b6102ff612977565b60405161030c9190612cff565b60405180910390f35b61032f600480360381019061032a9190612cbc565b612983565b60405161033c9190612cff565b60405180910390f35b61034d612a23565b60405161035a9190613568565b60405180910390f35b5f805f90505f5b600480549050811015610435575f60035f6004848154811061038f5761038e613581565b5b905f5260205f20015481526020019081526020015f2090508473ffffffffffffffffffffffffffffffffffffffff16816002015f9054906101000a900473ffffffffffffffffffffffffffffffffffffffff1673ffffffffffffffffffffffffffffffffffffffff161480156104135750806006015f9054906101000a900460ff16155b15610427578280610423906135db565b9350505b50808060010191505061036a565b5080915050919050565b6002548210801561046357505f60035f8481526020019081526020015f205f015414155b6104a2576040517f08c379a00000000000000000000000000000000000000000000000000000000081526004016104999061366c565b60405180910390fd5b60035f8381526020019081526020015f206006015f9054906101000a900460ff1615610503576040517f08c379a00000000000000000000000000000000000000000000000000000000081526004016104fa906136d4565b60405180910390fd5b60035f8381526020019081526020015f20600501544211156105e957600160035f8481526020019081526020015f206006015f6101000a81548160ff0219169083151502179055506040518060400160405280601a81526020017f52656a65637465642064756520746f2065787069726174696f6e00000000000081525060035f8481526020019081526020015f2060070190816105a19190613910565b507fb6cdb9654a453b960ec5fe6f18502a3f0dd823ed74ddc4f68a16b3210265ea5b825f6040516105d3929190613a29565b60405180910390a16105e482612a48565b610f6a565b600160035f8481526020019081526020015f206006015f6101000a81548160ff02191690831515021790555080610655576040518060400160405280600881526020017f52656a656374656400000000000000000000000000000000000000000000000081525061068c565b6040518060400160405280600881526020017f41636365707465640000000000000000000000000000000000000000000000008152505b60035f8481526020019081526020015f2060070190816106ac9190613910565b508015610e34575f60035f8481526020019081526020015f2090505f60018111156106da576106d9613284565b5b816009015f9054906101000a900460ff1660018111156106fd576106fc613284565b5b03610a9c575f8054906101000a900473ffffffffffffffffffffffffffffffffffffffff1673ffffffffffffffffffffffffffffffffffffffff1663a64b6e5f826001015f9054906101000a900473ffffffffffffffffffffffffffffffffffffffff16836002015f9054906101000a900473ffffffffffffffffffffffffffffffffffffffff1684600401546040518463ffffffff1660e01b81526004016107a893929190613a63565b5f604051808303815f87803b1580156107bf575f80fd5b505af11580156107d1573d5f803e3d5ffd5b505050505f8054906101000a900473ffffffffffffffffffffffffffffffffffffffff1673ffffffffffffffffffffffffffffffffffffffff16636fb4309b826001015f9054906101000a900473ffffffffffffffffffffffffffffffffffffffff1683600401545f6040518463ffffffff1660e01b815260040161085893929190613a98565b5f604051808303815f87803b15801561086f575f80fd5b505af1158015610881573d5f803e3d5ffd5b505050505f8054906101000a900473ffffffffffffffffffffffffffffffffffffffff1673ffffffffffffffffffffffffffffffffffffffff16636fb4309b826002015f9054906101000a900473ffffffffffffffffffffffffffffffffffffffff16836004015460016040518463ffffffff1660e01b815260040161090993929190613a98565b5f604051808303815f87803b158015610920575f80fd5b505af1158015610932573d5f803e3d5ffd5b505050505f8054906101000a900473ffffffffffffffffffffffffffffffffffffffff1673ffffffffffffffffffffffffffffffffffffffff16639202e886826001015f9054906101000a900473ffffffffffffffffffffffffffffffffffffffff16836003015460016040518463ffffffff1660e01b81526004016109ba93929190613a98565b5f604051808303815f87803b1580156109d1575f80fd5b505af11580156109e3573d5f803e3d5ffd5b505050505f8054906101000a900473ffffffffffffffffffffffffffffffffffffffff1673ffffffffffffffffffffffffffffffffffffffff16639202e886826002015f9054906101000a900473ffffffffffffffffffffffffffffffffffffffff1683600301545f6040518463ffffffff1660e01b8152600401610a6a93929190613a98565b5f604051808303815f87803b158015610a81575f80fd5b505af1158015610a93573d5f803e3d5ffd5b50505050610e32565b5f8054906101000a900473ffffffffffffffffffffffffffffffffffffffff1673ffffffffffffffffffffffffffffffffffffffff1663a64b6e5f826002015f9054906101000a900473ffffffffffffffffffffffffffffffffffffffff16836001015f9054906101000a900473ffffffffffffffffffffffffffffffffffffffff1684600401546040518463ffffffff1660e01b8152600401610b4293929190613a63565b5f604051808303815f87803b158015610b59575f80fd5b505af1158015610b6b573d5f803e3d5ffd5b505050505f8054906101000a900473ffffffffffffffffffffffffffffffffffffffff1673ffffffffffffffffffffffffffffffffffffffff16636fb4309b826001015f9054906101000a900473ffffffffffffffffffffffffffffffffffffffff16836004015460016040518463ffffffff1660e01b8152600401610bf393929190613a98565b5f604051808303815f87803b158015610c0a575f80fd5b505af1158015610c1c573d5f803e3d5ffd5b505050505f8054906101000a900473ffffffffffffffffffffffffffffffffffffffff1673ffffffffffffffffffffffffffffffffffffffff16636fb4309b826002015f9054906101000a900473ffffffffffffffffffffffffffffffffffffffff1683600401545f6040518463ffffffff1660e01b8152600401610ca393929190613a98565b5f604051808303815f87803b158015610cba575f80fd5b505af1158015610ccc573d5f803e3d5ffd5b505050505f8054906101000a900473ffffffffffffffffffffffffffffffffffffffff1673ffffffffffffffffffffffffffffffffffffffff16639202e886826001015f9054906101000a900473ffffffffffffffffffffffffffffffffffffffff1683600301545f6040518463ffffffff1660e01b8152600401610d5393929190613a98565b5f604051808303815f87803b158015610d6a575f80fd5b505af1158015610d7c573d5f803e3d5ffd5b505050505f8054906101000a900473ffffffffffffffffffffffffffffffffffffffff1673ffffffffffffffffffffffffffffffffffffffff16639202e886826002015f9054906101000a900473ffffffffffffffffffffffffffffffffffffffff16836003015460016040518463ffffffff1660e01b8152600401610e0493929190613a98565b5f604051808303815f87803b158015610e1b575f80fd5b505af1158015610e2d573d5f803e3d5ffd5b505050505b505b610e3d82612a48565b600582908060018154018082558091505060019003905f5260205f20015f90919091909150555f8054906101000a900473ffffffffffffffffffffffffffffffffffffffff1673ffffffffffffffffffffffffffffffffffffffff1663f014a60160035f8581526020019081526020015f206002015f9054906101000a900473ffffffffffffffffffffffffffffffffffffffff166040518263ffffffff1660e01b8152600401610eee9190613568565b5f604051808303815f87803b158015610f05575f80fd5b505af1158015610f17573d5f803e3d5ffd5b505050507fb6cdb9654a453b960ec5fe6f18502a3f0dd823ed74ddc4f68a16b3210265ea5b828260035f8681526020019081526020015f20600701604051610f6193929190613b4e565b60405180910390a15b5050565b5f8054906101000a900473ffffffffffffffffffffffffffffffffffffffff1673ffffffffffffffffffffffffffffffffffffffff1663f38488ec30836040518363ffffffff1660e01b8152600401610fc8929190613b8a565b5f604051808303815f87803b158015610fdf575f80fd5b505af1158015610ff1573d5f803e3d5ffd5b5050505050565b5f8054906101000a900473ffffffffffffffffffffffffffffffffffffffff1673ffffffffffffffffffffffffffffffffffffffff1663163f7522876040518263ffffffff1660e01b81526004016110509190613568565b602060405180830381865afa15801561106b573d5f803e3d5ffd5b505050506040513d601f19601f8201168201806040525081019061108f9190613bc5565b6110ce576040517f08c379a00000000000000000000000000000000000000000000000000000000081526004016110c590613c3a565b60405180910390fd5b5f8054906101000a900473ffffffffffffffffffffffffffffffffffffffff1673ffffffffffffffffffffffffffffffffffffffff1663163f7522866040518263ffffffff1660e01b81526004016111269190613568565b602060405180830381865afa158015611141573d5f803e3d5ffd5b505050506040513d601f19601f820116820180604052508101906111659190613bc5565b6111a4576040517f08c379a000000000000000000000000000000000000000000000000000000000815260040161119b90613ca2565b60405180910390fd5b4282116111e6576040517f08c379a00000000000000000000000000000000000000000000000000000000081526004016111dd90613d30565b60405180910390fd5b80156113a357825f8054906101000a900473ffffffffffffffffffffffffffffffffffffffff1673ffffffffffffffffffffffffffffffffffffffff16633aecd0e3886040518263ffffffff1660e01b81526004016112459190613568565b602060405180830381865afa158015611260573d5f803e3d5ffd5b505050506040513d601f19601f820116820180604052508101906112849190613d62565b10156112c5576040517f08c379a00000000000000000000000000000000000000000000000000000000081526004016112bc90613dfd565b60405180910390fd5b835f8054906101000a900473ffffffffffffffffffffffffffffffffffffffff1673ffffffffffffffffffffffffffffffffffffffff166346352b58876040518263ffffffff1660e01b815260040161131e9190613568565b602060405180830381865afa158015611339573d5f803e3d5ffd5b505050506040513d601f19601f8201168201806040525081019061135d9190613d62565b101561139e576040517f08c379a000000000000000000000000000000000000000000000000000000000815260040161139590613e8b565b60405180910390fd5b611556565b835f8054906101000a900473ffffffffffffffffffffffffffffffffffffffff1673ffffffffffffffffffffffffffffffffffffffff166346352b58886040518263ffffffff1660e01b81526004016113fc9190613568565b602060405180830381865afa158015611417573d5f803e3d5ffd5b505050506040513d601f19601f8201168201806040525081019061143b9190613d62565b101561147c576040517f08c379a000000000000000000000000000000000000000000000000000000000815260040161147390613f19565b60405180910390fd5b825f8054906101000a900473ffffffffffffffffffffffffffffffffffffffff1673ffffffffffffffffffffffffffffffffffffffff16633aecd0e3876040518263ffffffff1660e01b81526004016114d59190613568565b602060405180830381865afa1580156114f0573d5f803e3d5ffd5b505050506040513d601f19601f820116820180604052508101906115149190613d62565b1015611555576040517f08c379a000000000000000000000000000000000000000000000000000000000815260040161154c90613fa7565b60405180910390fd5b5b5f60025f815480929190611569906135db565b9190505590506040518061014001604052808281526020018873ffffffffffffffffffffffffffffffffffffffff1681526020018773ffffffffffffffffffffffffffffffffffffffff1681526020018681526020018581526020018481526020015f151581526020016040518060400160405280600781526020017f50656e64696e6700000000000000000000000000000000000000000000000000815250815260200142815260200183611620576001611622565b5f5b600181111561163457611633613284565b5b81525060035f8381526020019081526020015f205f820151815f01556020820151816001015f6101000a81548173ffffffffffffffffffffffffffffffffffffffff021916908373ffffffffffffffffffffffffffffffffffffffff1602179055506040820151816002015f6101000a81548173ffffffffffffffffffffffffffffffffffffffff021916908373ffffffffffffffffffffffffffffffffffffffff160217905550606082015181600301556080820151816004015560a0820151816005015560c0820151816006015f6101000a81548160ff02191690831515021790555060e082015181600701908161172e9190613910565b506101008201518160080155610120820151816009015f6101000a81548160ff0219169083600181111561176557611764613284565b5b0217905550905050600481908060018154018082558091505060019003905f5260205f20015f90919091909150557f6f2fac3f769ed900eb9891a73caa7b5267ce788a20299805ce4b85934cb200f58187846117c25760016117c4565b5f5b6040516117d393929190613fc5565b60405180910390a150505050505050565b60605f60016002546117f69190613ffa565b67ffffffffffffffff81111561180f5761180e6136f2565b5b60405190808252806020026020018201604052801561183d5781602001602082028036833780820191505090505b5090505f80600190505b60025481101561195d578473ffffffffffffffffffffffffffffffffffffffff1660035f8381526020019081526020015f206001015f9054906101000a900473ffffffffffffffffffffffffffffffffffffffff1673ffffffffffffffffffffffffffffffffffffffff16148061191c57508473ffffffffffffffffffffffffffffffffffffffff1660035f8381526020019081526020015f206002015f9054906101000a900473ffffffffffffffffffffffffffffffffffffffff1673ffffffffffffffffffffffffffffffffffffffff16145b15611950578083838151811061193557611934613581565b5b602002602001018181525050818061194c906135db565b9250505b8080600101915050611847565b505f8167ffffffffffffffff811115611979576119786136f2565b5b6040519080825280602002602001820160405280156119a75781602001602082028036833780820191505090505b5090505f5b828110156119fb578381815181106119c7576119c6613581565b5b60200260200101518282815181106119e2576119e1613581565b5b60200260200101818152505080806001019150506119ac565b50809350505050919050565b60605f60058054905067ffffffffffffffff811115611a2957611a286136f2565b5b604051908082528060200260200182016040528015611a575781602001602082028036833780820191505090505b5090505f805b600580549050811015611ba3575f60035f60058481548110611a8257611a81613581565b5b905f5260205f20015481526020019081526020015f2090508573ffffffffffffffffffffffffffffffffffffffff16816001015f9054906101000a900473ffffffffffffffffffffffffffffffffffffffff1673ffffffffffffffffffffffffffffffffffffffff161480611b4557508573ffffffffffffffffffffffffffffffffffffffff16816002015f9054906101000a900473ffffffffffffffffffffffffffffffffffffffff1673ffffffffffffffffffffffffffffffffffffffff16145b15611b955760058281548110611b5e57611b5d613581565b5b905f5260205f200154848481518110611b7a57611b79613581565b5b6020026020010181815250508280611b91906135db565b9350505b508080600101915050611a5d565b505f8167ffffffffffffffff811115611bbf57611bbe6136f2565b5b604051908082528060200260200182016040528015611bed5781602001602082028036833780820191505090505b5090505f5b82811015611c4157838181518110611c0d57611c0c613581565b5b6020026020010151828281518110611c2857611c27613581565b5b6020026020010181815250508080600101915050611bf2565b50809350505050919050565b5f8054906101000a900473ffffffffffffffffffffffffffffffffffffffff1681565b60048181548110611c7f575f80fd5b905f5260205f20015f915090505481565b60605f80805f9054906101000a900473ffffffffffffffffffffffffffffffffffffffff1673ffffffffffffffffffffffffffffffffffffffff1663a591efde6040518163ffffffff1660e01b81526004015f60405180830381865afa158015611cfc573d5f803e3d5ffd5b505050506040513d5f823e3d601f19601f82011682018060405250810190611d249190614154565b90505f5b8151811015611e18575f805f9054906101000a900473ffffffffffffffffffffffffffffffffffffffff1673ffffffffffffffffffffffffffffffffffffffff16630e947bd8848481518110611d8157611d80613581565b5b60200260200101516040518263ffffffff1660e01b8152600401611da59190613568565b5f60405180830381865afa158015611dbf573d5f803e3d5ffd5b505050506040513d5f823e3d601f19601f82011682018060405250810190611de791906142ea565b9050611df68160200151612b03565b15611e0a578380611e06906135db565b9450505b508080600101915050611d28565b505f8267ffffffffffffffff811115611e3457611e336136f2565b5b604051908082528060200260200182016040528015611e6d57816020015b611e5a612b66565b815260200190600190039081611e525790505b5090505f805b83518110156120a3575f848281518110611e9057611e8f613581565b5b602002602001015190505f805f9054906101000a900473ffffffffffffffffffffffffffffffffffffffff1673ffffffffffffffffffffffffffffffffffffffff16630e947bd8836040518263ffffffff1660e01b8152600401611ef49190613568565b5f60405180830381865afa158015611f0e573d5f803e3d5ffd5b505050506040513d5f823e3d601f19601f82011682018060405250810190611f3691906142ea565b9050611f458160200151612b03565b15612094575f805f805f805f9054906101000a900473ffffffffffffffffffffffffffffffffffffffff1673ffffffffffffffffffffffffffffffffffffffff16633b605047886040518263ffffffff1660e01b8152600401611fa89190613568565b5f60405180830381865afa158015611fc2573d5f803e3d5ffd5b505050506040513d5f823e3d601f19601f82011682018060405250810190611fea919061435b565b5095509550955095509550506040518061014001604052808873ffffffffffffffffffffffffffffffffffffffff16815260200186815260200185815260200182815260200184815260200183815260200187602001518152602001876040015181526020018760600151815260200187608001518152508a8a8151811061207557612074613581565b5b6020026020010181905250888061208b906135db565b99505050505050505b50508080600101915050611e73565b508194505050505090565b6003602052805f5260405f205f91509050805f015490806001015f9054906101000a900473ffffffffffffffffffffffffffffffffffffffff1690806002015f9054906101000a900473ffffffffffffffffffffffffffffffffffffffff1690806003015490806004015490806005015490806006015f9054906101000a900460ff16908060070180546121419061374c565b80601f016020809104026020016040519081016040528092919081815260200182805461216d9061374c565b80156121b85780601f1061218f576101008083540402835291602001916121b8565b820191905f5260205f20905b81548152906001019060200180831161219b57829003601f168201915b505050505090806008015490806009015f9054906101000a900460ff1690508a565b60605f60048054905067ffffffffffffffff8111156121fc576121fb6136f2565b5b60405190808252806020026020018201604052801561222a5781602001602082028036833780820191505090505b5090505f805b60048054905081101561239d578473ffffffffffffffffffffffffffffffffffffffff1660035f6004848154811061226b5761226a613581565b5b905f5260205f20015481526020019081526020015f206001015f9054906101000a900473ffffffffffffffffffffffffffffffffffffffff1673ffffffffffffffffffffffffffffffffffffffff16148061234057508473ffffffffffffffffffffffffffffffffffffffff1660035f600484815481106122ef576122ee613581565b5b905f5260205f20015481526020019081526020015f206002015f9054906101000a900473ffffffffffffffffffffffffffffffffffffffff1673ffffffffffffffffffffffffffffffffffffffff16145b15612390576004818154811061235957612358613581565b5b905f5260205f20015483838151811061237557612374613581565b5b602002602001018181525050818061238c906135db565b9250505b8080600101915050612230565b505f8167ffffffffffffffff8111156123b9576123b86136f2565b5b6040519080825280602002602001820160405280156123e75781602001602082028036833780820191505090505b5090505f5b8281101561243b5783818151811061240757612406613581565b5b602002602001015182828151811061242257612421613581565b5b60200260200101818152505080806001019150506123ec565b50809350505050919050565b60605f60048054905067ffffffffffffffff811115612469576124686136f2565b5b6040519080825280602002602001820160405280156124a257816020015b61248f612bc7565b8152602001906001900390816124875790505b5090505f5b6004805490508110156126d75760035f600483815481106124cb576124ca613581565b5b905f5260205f20015481526020019081526020015f20604051806101400160405290815f8201548152602001600182015f9054906101000a900473ffffffffffffffffffffffffffffffffffffffff1673ffffffffffffffffffffffffffffffffffffffff1673ffffffffffffffffffffffffffffffffffffffff168152602001600282015f9054906101000a900473ffffffffffffffffffffffffffffffffffffffff1673ffffffffffffffffffffffffffffffffffffffff1673ffffffffffffffffffffffffffffffffffffffff168152602001600382015481526020016004820154815260200160058201548152602001600682015f9054906101000a900460ff161515151581526020016007820180546125e89061374c565b80601f01602080910402602001604051908101604052809291908181526020018280546126149061374c565b801561265f5780601f106126365761010080835404028352916020019161265f565b820191905f5260205f20905b81548152906001019060200180831161264257829003601f168201915b5050505050815260200160088201548152602001600982015f9054906101000a900460ff16600181111561269657612695613284565b5b60018111156126a8576126a7613284565b5b815250508282815181106126bf576126be613581565b5b602002602001018190525080806001019150506124a7565b508091505090565b60605f60058054905067ffffffffffffffff811115612701576127006136f2565b5b60405190808252806020026020018201604052801561273a57816020015b612727612bc7565b81526020019060019003908161271f5790505b5090505f5b60058054905081101561296f5760035f6005838154811061276357612762613581565b5b905f5260205f20015481526020019081526020015f20604051806101400160405290815f8201548152602001600182015f9054906101000a900473ffffffffffffffffffffffffffffffffffffffff1673ffffffffffffffffffffffffffffffffffffffff1673ffffffffffffffffffffffffffffffffffffffff168152602001600282015f9054906101000a900473ffffffffffffffffffffffffffffffffffffffff1673ffffffffffffffffffffffffffffffffffffffff1673ffffffffffffffffffffffffffffffffffffffff168152602001600382015481526020016004820154815260200160058201548152602001600682015f9054906101000a900460ff161515151581526020016007820180546128809061374c565b80601f01602080910402602001604051908101604052809291908181526020018280546128ac9061374c565b80156128f75780601f106128ce576101008083540402835291602001916128f7565b820191905f5260205f20905b8154815290600101906020018083116128da57829003601f168201915b5050505050815260200160088201548152602001600982015f9054906101000a900460ff16600181111561292e5761292d613284565b5b60018111156129405761293f613284565b5b8152505082828151811061295757612956613581565b5b6020026020010181905250808060010191505061273f565b508091505090565b5f600480549050905090565b5f805f9054906101000a900473ffffffffffffffffffffffffffffffffffffffff1673ffffffffffffffffffffffffffffffffffffffff16633aecd0e3836040518263ffffffff1660e01b81526004016129dd9190613568565b602060405180830381865afa1580156129f8573d5f803e3d5ffd5b505050506040513d601f19601f82011682018060405250810190612a1c9190613d62565b9050919050565b60015f9054906101000a900473ffffffffffffffffffffffffffffffffffffffff1681565b5f5b600480549050811015612aff578160048281548110612a6c57612a6b613581565b5b905f5260205f20015403612af25760046001600480549050612a8e9190613ffa565b81548110612a9f57612a9e613581565b5b905f5260205f20015460048281548110612abc57612abb613581565b5b905f5260205f2001819055506004805480612ada57612ad9614414565b5b600190038181905f5260205f20015f90559055612aff565b8080600101915050612a4a565b5050565b5f7f5dee046a5e178c2c125664edccd954bb619d5b27aa642c93dd26f92e65b38efe82805190602001201480612b5f57507fbfd3db406c10e8c033a404db0f674b22a7e3ec59d4f38448374f5a3ffaa0e7f78280519060200120145b9050919050565b6040518061014001604052805f73ffffffffffffffffffffffffffffffffffffffff168152602001606081526020015f81526020015f81526020015f81526020015f8152602001606081526020015f81526020015f81526020015f81525090565b6040518061014001604052805f81526020015f73ffffffffffffffffffffffffffffffffffffffff1681526020015f73ffffffffffffffffffffffffffffffffffffffff1681526020015f81526020015f81526020015f81526020015f15158152602001606081526020015f81526020015f6001811115612c4b57612c4a613284565b5b81525090565b5f604051905090565b5f80fd5b5f80fd5b5f73ffffffffffffffffffffffffffffffffffffffff82169050919050565b5f612c8b82612c62565b9050919050565b612c9b81612c81565b8114612ca5575f80fd5b50565b5f81359050612cb681612c92565b92915050565b5f60208284031215612cd157612cd0612c5a565b5b5f612cde84828501612ca8565b91505092915050565b5f819050919050565b612cf981612ce7565b82525050565b5f602082019050612d125f830184612cf0565b92915050565b612d2181612ce7565b8114612d2b575f80fd5b50565b5f81359050612d3c81612d18565b92915050565b5f8115159050919050565b612d5681612d42565b8114612d60575f80fd5b50565b5f81359050612d7181612d4d565b92915050565b5f8060408385031215612d8d57612d8c612c5a565b5b5f612d9a85828601612d2e565b9250506020612dab85828601612d63565b9150509250929050565b5f60208284031215612dca57612dc9612c5a565b5b5f612dd784828501612d2e565b91505092915050565b5f805f805f8060c08789031215612dfa57612df9612c5a565b5b5f612e0789828a01612ca8565b9650506020612e1889828a01612ca8565b9550506040612e2989828a01612d2e565b9450506060612e3a89828a01612d2e565b9350506080612e4b89828a01612d2e565b92505060a0612e5c89828a01612d63565b9150509295509295509295565b5f81519050919050565b5f82825260208201905092915050565b5f819050602082019050919050565b612e9b81612ce7565b82525050565b5f612eac8383612e92565b60208301905092915050565b5f602082019050919050565b5f612ece82612e69565b612ed88185612e73565b9350612ee383612e83565b805f5b83811015612f13578151612efa8882612ea1565b9750612f0583612eb8565b925050600181019050612ee6565b5085935050505092915050565b5f6020820190508181035f830152612f388184612ec4565b905092915050565b5f819050919050565b5f612f63612f5e612f5984612c62565b612f40565b612c62565b9050919050565b5f612f7482612f49565b9050919050565b5f612f8582612f6a565b9050919050565b612f9581612f7b565b82525050565b5f602082019050612fae5f830184612f8c565b92915050565b5f81519050919050565b5f82825260208201905092915050565b5f819050602082019050919050565b612fe681612c81565b82525050565b5f81519050919050565b5f82825260208201905092915050565b5f5b83811015613023578082015181840152602081019050613008565b5f8484015250505050565b5f601f19601f8301169050919050565b5f61304882612fec565b6130528185612ff6565b9350613062818560208601613006565b61306b8161302e565b840191505092915050565b5f819050919050565b61308881613076565b82525050565b5f61014083015f8301516130a45f860182612fdd565b50602083015184820360208601526130bc828261303e565b91505060408301516130d16040860182612e92565b5060608301516130e46060860182612e92565b5060808301516130f7608086018261307f565b5060a083015161310a60a086018261307f565b5060c083015184820360c0860152613122828261303e565b91505060e083015161313760e0860182612e92565b5061010083015161314c610100860182612e92565b50610120830151613161610120860182612e92565b508091505092915050565b5f613177838361308e565b905092915050565b5f602082019050919050565b5f61319582612fb4565b61319f8185612fbe565b9350836020820285016131b185612fce565b805f5b858110156131ec57848403895281516131cd858261316c565b94506131d88361317f565b925060208a019950506001810190506131b4565b50829750879550505050505092915050565b5f6020820190508181035f830152613216818461318b565b905092915050565b61322781612c81565b82525050565b61323681612d42565b82525050565b5f82825260208201905092915050565b5f61325682612fec565b613260818561323c565b9350613270818560208601613006565b6132798161302e565b840191505092915050565b7f4e487b71000000000000000000000000000000000000000000000000000000005f52602160045260245ffd5b600281106132c2576132c1613284565b5b50565b5f8190506132d2826132b1565b919050565b5f6132e1826132c5565b9050919050565b6132f1816132d7565b82525050565b5f6101408201905061330b5f83018d612cf0565b613318602083018c61321e565b613325604083018b61321e565b613332606083018a612cf0565b61333f6080830189612cf0565b61334c60a0830188612cf0565b61335960c083018761322d565b81810360e083015261336b818661324c565b905061337b610100830185612cf0565b6133896101208301846132e8565b9b9a5050505050505050505050565b5f81519050919050565b5f82825260208201905092915050565b5f819050602082019050919050565b6133ca81612d42565b82525050565b6133d9816132d7565b82525050565b5f61014083015f8301516133f55f860182612e92565b5060208301516134086020860182612fdd565b50604083015161341b6040860182612fdd565b50606083015161342e6060860182612e92565b5060808301516134416080860182612e92565b5060a083015161345460a0860182612e92565b5060c083015161346760c08601826133c1565b5060e083015184820360e086015261347f828261303e565b915050610100830151613496610100860182612e92565b506101208301516134ab6101208601826133d0565b508091505092915050565b5f6134c183836133df565b905092915050565b5f602082019050919050565b5f6134df82613398565b6134e981856133a2565b9350836020820285016134fb856133b2565b805f5b85811015613536578484038952815161351785826134b6565b9450613522836134c9565b925060208a019950506001810190506134fe565b50829750879550505050505092915050565b5f6020820190508181035f83015261356081846134d5565b905092915050565b5f60208201905061357b5f83018461321e565b92915050565b7f4e487b71000000000000000000000000000000000000000000000000000000005f52603260045260245ffd5b7f4e487b71000000000000000000000000000000000000000000000000000000005f52601160045260245ffd5b5f6135e582612ce7565b91507fffffffffffffffffffffffffffffffffffffffffffffffffffffffffffffffff8203613617576136166135ae565b5b600182019050919050565b7f5472616e73616374696f6e20646f6573206e6f742065786973742e00000000005f82015250565b5f613656601b8361323c565b915061366182613622565b602082019050919050565b5f6020820190508181035f8301526136838161364a565b9050919050565b7f5472616e73616374696f6e20616c726561647920636f6d6d69747465642e00005f82015250565b5f6136be601e8361323c565b91506136c98261368a565b602082019050919050565b5f6020820190508181035f8301526136eb816136b2565b9050919050565b7f4e487b71000000000000000000000000000000000000000000000000000000005f52604160045260245ffd5b7f4e487b71000000000000000000000000000000000000000000000000000000005f52602260045260245ffd5b5f600282049050600182168061376357607f821691505b6020821081036137765761377561371f565b5b50919050565b5f819050815f5260205f209050919050565b5f6020601f8301049050919050565b5f82821b905092915050565b5f600883026137d87fffffffffffffffffffffffffffffffffffffffffffffffffffffffffffffffff8261379d565b6137e2868361379d565b95508019841693508086168417925050509392505050565b5f61381461380f61380a84612ce7565b612f40565b612ce7565b9050919050565b5f819050919050565b61382d836137fa565b6138416138398261381b565b8484546137a9565b825550505050565b5f90565b613855613849565b613860818484613824565b505050565b5b81811015613883576138785f8261384d565b600181019050613866565b5050565b601f8211156138c8576138998161377c565b6138a28461378e565b810160208510156138b1578190505b6138c56138bd8561378e565b830182613865565b50505b505050565b5f82821c905092915050565b5f6138e85f19846008026138cd565b1980831691505092915050565b5f61390083836138d9565b9150826002028217905092915050565b61391982612fec565b67ffffffffffffffff811115613932576139316136f2565b5b61393c825461374c565b613947828285613887565b5f60209050601f831160018114613978575f8415613966578287015190505b61397085826138f5565b8655506139d7565b601f1984166139868661377c565b5f5b828110156139ad57848901518255600182019150602085019450602081019050613988565b868310156139ca57848901516139c6601f8916826138d9565b8355505b6001600288020188555050505b505050505050565b7f52656a65637465642064756520746f2065787069726174696f6e0000000000005f82015250565b5f613a13601a8361323c565b9150613a1e826139df565b602082019050919050565b5f606082019050613a3c5f830185612cf0565b613a49602083018461322d565b8181036040830152613a5a81613a07565b90509392505050565b5f606082019050613a765f83018661321e565b613a83602083018561321e565b613a906040830184612cf0565b949350505050565b5f606082019050613aab5f83018661321e565b613ab86020830185612cf0565b613ac5604083018461322d565b949350505050565b5f8154613ad98161374c565b613ae3818661323c565b9450600182165f8114613afd5760018114613b1357613b45565b60ff198316865281151560200286019350613b45565b613b1c8561377c565b5f5b83811015613b3d57815481890152600182019150602081019050613b1e565b808801955050505b50505092915050565b5f606082019050613b615f830186612cf0565b613b6e602083018561322d565b8181036040830152613b808184613acd565b9050949350505050565b5f604082019050613b9d5f83018561321e565b613baa6020830184612cf0565b9392505050565b5f81519050613bbf81612d4d565b92915050565b5f60208284031215613bda57613bd9612c5a565b5b5f613be784828501613bb1565b91505092915050565b7f496e69746961746f72206973206e6f7420726567697374657265642e000000005f82015250565b5f613c24601c8361323c565b9150613c2f82613bf0565b602082019050919050565b5f6020820190508181035f830152613c5181613c18565b9050919050565b7f5265636569766572206973206e6f7420726567697374657265642e00000000005f82015250565b5f613c8c601b8361323c565b9150613c9782613c58565b602082019050919050565b5f6020820190508181035f830152613cb981613c80565b9050919050565b7f5472616e73616374696f6e2065787069726174696f6e206d75737420626520695f8201527f6e20746865206675747572652e00000000000000000000000000000000000000602082015250565b5f613d1a602d8361323c565b9150613d2582613cc0565b604082019050919050565b5f6020820190508181035f830152613d4781613d0e565b9050919050565b5f81519050613d5c81612d18565b92915050565b5f60208284031215613d7757613d76612c5a565b5b5f613d8484828501613d4e565b91505092915050565b7f53656e6465722068617320696e73756666696369656e7420746f6b656e7320665f8201527f6f72207472616e73616374696f6e2e0000000000000000000000000000000000602082015250565b5f613de7602f8361323c565b9150613df282613d8d565b604082019050919050565b5f6020820190508181035f830152613e1481613ddb565b9050919050565b7f526563656976657220646f6573206e6f74206861766520656e6f75676820656e5f8201527f657267792e000000000000000000000000000000000000000000000000000000602082015250565b5f613e7560258361323c565b9150613e8082613e1b565b604082019050919050565b5f6020820190508181035f830152613ea281613e69565b9050919050565b7f53656e6465722068617320696e73756666696369656e7420656e6572677920665f8201527f6f72207472616e73616374696f6e2e0000000000000000000000000000000000602082015250565b5f613f03602f8361323c565b9150613f0e82613ea9565b604082019050919050565b5f6020820190508181035f830152613f3081613ef7565b9050919050565b7f52656365697665722068617320696e73756666696369656e7420746f6b656e735f8201527f20666f72207472616e73616374696f6e2e000000000000000000000000000000602082015250565b5f613f9160318361323c565b9150613f9c82613f37565b604082019050919050565b5f6020820190508181035f830152613fbe81613f85565b9050919050565b5f606082019050613fd85f830186612cf0565b613fe5602083018561321e565b613ff260408301846132e8565b949350505050565b5f61400482612ce7565b915061400f83612ce7565b9250828203905081811115614027576140266135ae565b5b92915050565b5f80fd5b61403a8261302e565b810181811067ffffffffffffffff82111715614059576140586136f2565b5b80604052505050565b5f61406b612c51565b90506140778282614031565b919050565b5f67ffffffffffffffff821115614096576140956136f2565b5b602082029050602081019050919050565b5f80fd5b5f815190506140b981612c92565b92915050565b5f6140d16140cc8461407c565b614062565b905080838252602082019050602084028301858111156140f4576140f36140a7565b5b835b8181101561411d578061410988826140ab565b8452602084019350506020810190506140f6565b5050509392505050565b5f82601f83011261413b5761413a61402d565b5b815161414b8482602086016140bf565b91505092915050565b5f6020828403121561416957614168612c5a565b5b5f82015167ffffffffffffffff81111561418657614185612c5e565b5b61419284828501614127565b91505092915050565b5f80fd5b5f80fd5b5f80fd5b5f67ffffffffffffffff8211156141c1576141c06136f2565b5b6141ca8261302e565b9050602081019050919050565b5f6141e96141e4846141a7565b614062565b905082815260208101848484011115614205576142046141a3565b5b614210848285613006565b509392505050565b5f82601f83011261422c5761422b61402d565b5b815161423c8482602086016141d7565b91505092915050565b5f60a0828403121561425a5761425961419b565b5b61426460a0614062565b90505f614273848285016140ab565b5f83015250602082015167ffffffffffffffff8111156142965761429561419f565b5b6142a284828501614218565b60208301525060406142b684828501613d4e565b60408301525060606142ca84828501613d4e565b60608301525060806142de84828501613d4e565b60808301525092915050565b5f602082840312156142ff576142fe612c5a565b5b5f82015167ffffffffffffffff81111561431c5761431b612c5e565b5b61432884828501614245565b91505092915050565b61433a81613076565b8114614344575f80fd5b50565b5f8151905061435581614331565b92915050565b5f805f805f805f60e0888a03121561437657614375612c5a565b5b5f6143838a828b016140ab565b975050602088015167ffffffffffffffff8111156143a4576143a3612c5e565b5b6143b08a828b01614218565b96505060406143c18a828b01613d4e565b95505060606143d28a828b01614347565b94505060806143e38a828b01614347565b93505060a06143f48a828b01613d4e565b92505060c06144058a828b01613bb1565b91505092959891949750929550565b7f4e487b71000000000000000000000000000000000000000000000000000000005f52603160045260245ffdfea26469706673582212208a8aacd681a88ade767c8c4a41e59e9ffc2bf36498a4ebfcc141d5317b38086e64736f6c63430008180033",
			"opcodes": "PUSH1 0x80 PUSH1 0x40 MSTORE PUSH1 0x1 PUSH1 0x2 SSTORE CALLVALUE DUP1 ISZERO PUSH3 0x15 JUMPI PUSH0 DUP1 REVERT JUMPDEST POP PUSH1 0x40 MLOAD PUSH3 0x45DB CODESIZE SUB DUP1 PUSH3 0x45DB DUP4 CODECOPY DUP2 DUP2 ADD PUSH1 0x40 MSTORE DUP2 ADD SWAP1 PUSH3 0x3B SWAP2 SWAP1 PUSH3 0x126 JUMP JUMPDEST CALLER PUSH1 0x1 PUSH0 PUSH2 0x100 EXP DUP2 SLOAD DUP2 PUSH20 0xFFFFFFFFFFFFFFFFFFFFFFFFFFFFFFFFFFFFFFFF MUL NOT AND SWAP1 DUP4 PUSH20 0xFFFFFFFFFFFFFFFFFFFFFFFFFFFFFFFFFFFFFFFF AND MUL OR SWAP1 SSTORE POP DUP1 PUSH0 DUP1 PUSH2 0x100 EXP DUP2 SLOAD DUP2 PUSH20 0xFFFFFFFFFFFFFFFFFFFFFFFFFFFFFFFFFFFFFFFF MUL NOT AND SWAP1 DUP4 PUSH20 0xFFFFFFFFFFFFFFFFFFFFFFFFFFFFFFFFFFFFFFFF AND MUL OR SWAP1 SSTORE POP POP PUSH3 0x156 JUMP JUMPDEST PUSH0 DUP1 REVERT JUMPDEST PUSH0 PUSH20 0xFFFFFFFFFFFFFFFFFFFFFFFFFFFFFFFFFFFFFFFF DUP3 AND SWAP1 POP SWAP2 SWAP1 POP JUMP JUMPDEST PUSH0 PUSH3 0xF0 DUP3 PUSH3 0xC5 JUMP JUMPDEST SWAP1 POP SWAP2 SWAP1 POP JUMP JUMPDEST PUSH3 0x102 DUP2 PUSH3 0xE4 JUMP JUMPDEST DUP2 EQ PUSH3 0x10D JUMPI PUSH0 DUP1 REVERT JUMPDEST POP JUMP JUMPDEST PUSH0 DUP2 MLOAD SWAP1 POP PUSH3 0x120 DUP2 PUSH3 0xF7 JUMP JUMPDEST SWAP3 SWAP2 POP POP JUMP JUMPDEST PUSH0 PUSH1 0x20 DUP3 DUP5 SUB SLT ISZERO PUSH3 0x13E JUMPI PUSH3 0x13D PUSH3 0xC1 JUMP JUMPDEST JUMPDEST PUSH0 PUSH3 0x14D DUP5 DUP3 DUP6 ADD PUSH3 0x110 JUMP JUMPDEST SWAP2 POP POP SWAP3 SWAP2 POP POP JUMP JUMPDEST PUSH2 0x4477 DUP1 PUSH3 0x164 PUSH0 CODECOPY PUSH0 RETURN INVALID PUSH1 0x80 PUSH1 0x40 MSTORE CALLVALUE DUP1 ISZERO PUSH2 0xF JUMPI PUSH0 DUP1 REVERT JUMPDEST POP PUSH1 0x4 CALLDATASIZE LT PUSH2 0xFE JUMPI PUSH0 CALLDATALOAD PUSH1 0xE0 SHR DUP1 PUSH4 0x71569199 GT PUSH2 0x95 JUMPI DUP1 PUSH4 0xB1FCE8C3 GT PUSH2 0x64 JUMPI DUP1 PUSH4 0xB1FCE8C3 EQ PUSH2 0x2D9 JUMPI DUP1 PUSH4 0xC0FA3F4B EQ PUSH2 0x2F7 JUMPI DUP1 PUSH4 0xF5AEC88C EQ PUSH2 0x315 JUMPI DUP1 PUSH4 0xF851A440 EQ PUSH2 0x345 JUMPI PUSH2 0xFE JUMP JUMPDEST DUP1 PUSH4 0x71569199 EQ PUSH2 0x234 JUMPI DUP1 PUSH4 0x9ACE38C2 EQ PUSH2 0x252 JUMPI DUP1 PUSH4 0x9E83E306 EQ PUSH2 0x28B JUMPI DUP1 PUSH4 0xA9878C62 EQ PUSH2 0x2BB JUMPI PUSH2 0xFE JUMP JUMPDEST DUP1 PUSH4 0x4DD87AF7 GT PUSH2 0xD1 JUMPI DUP1 PUSH4 0x4DD87AF7 EQ PUSH2 0x186 JUMPI DUP1 PUSH4 0x586FB58E EQ PUSH2 0x1B6 JUMPI DUP1 PUSH4 0x5C8A7687 EQ PUSH2 0x1E6 JUMPI DUP1 PUSH4 0x63A8374D EQ PUSH2 0x204 JUMPI PUSH2 0xFE JUMP JUMPDEST DUP1 PUSH4 0x4BE1EF2 EQ PUSH2 0x102 JUMPI DUP1 PUSH4 0xB0F9DC3 EQ PUSH2 0x132 JUMPI DUP1 PUSH4 0x220646CE EQ PUSH2 0x14E JUMPI DUP1 PUSH4 0x4439A702 EQ PUSH2 0x16A JUMPI JUMPDEST PUSH0 DUP1 REVERT JUMPDEST PUSH2 0x11C PUSH1 0x4 DUP1 CALLDATASIZE SUB DUP2 ADD SWAP1 PUSH2 0x117 SWAP2 SWAP1 PUSH2 0x2CBC JUMP JUMPDEST PUSH2 0x363 JUMP JUMPDEST PUSH1 0x40 MLOAD PUSH2 0x129 SWAP2 SWAP1 PUSH2 0x2CFF JUMP JUMPDEST PUSH1 0x40 MLOAD DUP1 SWAP2 SUB SWAP1 RETURN JUMPDEST PUSH2 0x14C PUSH1 0x4 DUP1 CALLDATASIZE SUB DUP2 ADD SWAP1 PUSH2 0x147 SWAP2 SWAP1 PUSH2 0x2D77 JUMP JUMPDEST PUSH2 0x43F JUMP JUMPDEST STOP JUMPDEST PUSH2 0x168 PUSH1 0x4 DUP1 CALLDATASIZE SUB DUP2 ADD SWAP1 PUSH2 0x163 SWAP2 SWAP1 PUSH2 0x2DB5 JUMP JUMPDEST PUSH2 0xF6E JUMP JUMPDEST STOP JUMPDEST PUSH2 0x184 PUSH1 0x4 DUP1 CALLDATASIZE SUB DUP2 ADD SWAP1 PUSH2 0x17F SWAP2 SWAP1 PUSH2 0x2DE0 JUMP JUMPDEST PUSH2 0xFF8 JUMP JUMPDEST STOP JUMPDEST PUSH2 0x1A0 PUSH1 0x4 DUP1 CALLDATASIZE SUB DUP2 ADD SWAP1 PUSH2 0x19B SWAP2 SWAP1 PUSH2 0x2CBC JUMP JUMPDEST PUSH2 0x17E4 JUMP JUMPDEST PUSH1 0x40 MLOAD PUSH2 0x1AD SWAP2 SWAP1 PUSH2 0x2F20 JUMP JUMPDEST PUSH1 0x40 MLOAD DUP1 SWAP2 SUB SWAP1 RETURN JUMPDEST PUSH2 0x1D0 PUSH1 0x4 DUP1 CALLDATASIZE SUB DUP2 ADD SWAP1 PUSH2 0x1CB SWAP2 SWAP1 PUSH2 0x2CBC JUMP JUMPDEST PUSH2 0x1A07 JUMP JUMPDEST PUSH1 0x40 MLOAD PUSH2 0x1DD SWAP2 SWAP1 PUSH2 0x2F20 JUMP JUMPDEST PUSH1 0x40 MLOAD DUP1 SWAP2 SUB SWAP1 RETURN JUMPDEST PUSH2 0x1EE PUSH2 0x1C4D JUMP JUMPDEST PUSH1 0x40 MLOAD PUSH2 0x1FB SWAP2 SWAP1 PUSH2 0x2F9B JUMP JUMPDEST PUSH1 0x40 MLOAD DUP1 SWAP2 SUB SWAP1 RETURN JUMPDEST PUSH2 0x21E PUSH1 0x4 DUP1 CALLDATASIZE SUB DUP2 ADD SWAP1 PUSH2 0x219 SWAP2 SWAP1 PUSH2 0x2DB5 JUMP JUMPDEST PUSH2 0x1C70 JUMP JUMPDEST PUSH1 0x40 MLOAD PUSH2 0x22B SWAP2 SWAP1 PUSH2 0x2CFF JUMP JUMPDEST PUSH1 0x40 MLOAD DUP1 SWAP2 SUB SWAP1 RETURN JUMPDEST PUSH2 0x23C PUSH2 0x1C90 JUMP JUMPDEST PUSH1 0x40 MLOAD PUSH2 0x249 SWAP2 SWAP1 PUSH2 0x31FE JUMP JUMPDEST PUSH1 0x40 MLOAD DUP1 SWAP2 SUB SWAP1 RETURN JUMPDEST PUSH2 0x26C PUSH1 0x4 DUP1 CALLDATASIZE SUB DUP2 ADD SWAP1 PUSH2 0x267 SWAP2 SWAP1 PUSH2 0x2DB5 JUMP JUMPDEST PUSH2 0x20AE JUMP JUMPDEST PUSH1 0x40 MLOAD PUSH2 0x282 SWAP11 SWAP10 SWAP9 SWAP8 SWAP7 SWAP6 SWAP5 SWAP4 SWAP3 SWAP2 SWAP1 PUSH2 0x32F7 JUMP JUMPDEST PUSH1 0x40 MLOAD DUP1 SWAP2 SUB SWAP1 RETURN JUMPDEST PUSH2 0x2A5 PUSH1 0x4 DUP1 CALLDATASIZE SUB DUP2 ADD SWAP1 PUSH2 0x2A0 SWAP2 SWAP1 PUSH2 0x2CBC JUMP JUMPDEST PUSH2 0x21DA JUMP JUMPDEST PUSH1 0x40 MLOAD PUSH2 0x2B2 SWAP2 SWAP1 PUSH2 0x2F20 JUMP JUMPDEST PUSH1 0x40 MLOAD DUP1 SWAP2 SUB SWAP1 RETURN JUMPDEST PUSH2 0x2C3 PUSH2 0x2447 JUMP JUMPDEST PUSH1 0x40 MLOAD PUSH2 0x2D0 SWAP2 SWAP1 PUSH2 0x3548 JUMP JUMPDEST PUSH1 0x40 MLOAD DUP1 SWAP2 SUB SWAP1 RETURN JUMPDEST PUSH2 0x2E1 PUSH2 0x26DF JUMP JUMPDEST PUSH1 0x40 MLOAD PUSH2 0x2EE SWAP2 SWAP1 PUSH2 0x3548 JUMP JUMPDEST PUSH1 0x40 MLOAD DUP1 SWAP2 SUB SWAP1 RETURN JUMPDEST PUSH2 0x2FF PUSH2 0x2977 JUMP JUMPDEST PUSH1 0x40 MLOAD PUSH2 0x30C SWAP2 SWAP1 PUSH2 0x2CFF JUMP JUMPDEST PUSH1 0x40 MLOAD DUP1 SWAP2 SUB SWAP1 RETURN JUMPDEST PUSH2 0x32F PUSH1 0x4 DUP1 CALLDATASIZE SUB DUP2 ADD SWAP1 PUSH2 0x32A SWAP2 SWAP1 PUSH2 0x2CBC JUMP JUMPDEST PUSH2 0x2983 JUMP JUMPDEST PUSH1 0x40 MLOAD PUSH2 0x33C SWAP2 SWAP1 PUSH2 0x2CFF JUMP JUMPDEST PUSH1 0x40 MLOAD DUP1 SWAP2 SUB SWAP1 RETURN JUMPDEST PUSH2 0x34D PUSH2 0x2A23 JUMP JUMPDEST PUSH1 0x40 MLOAD PUSH2 0x35A SWAP2 SWAP1 PUSH2 0x3568 JUMP JUMPDEST PUSH1 0x40 MLOAD DUP1 SWAP2 SUB SWAP1 RETURN JUMPDEST PUSH0 DUP1 PUSH0 SWAP1 POP PUSH0 JUMPDEST PUSH1 0x4 DUP1 SLOAD SWAP1 POP DUP2 LT ISZERO PUSH2 0x435 JUMPI PUSH0 PUSH1 0x3 PUSH0 PUSH1 0x4 DUP5 DUP2 SLOAD DUP2 LT PUSH2 0x38F JUMPI PUSH2 0x38E PUSH2 0x3581 JUMP JUMPDEST JUMPDEST SWAP1 PUSH0 MSTORE PUSH1 0x20 PUSH0 KECCAK256 ADD SLOAD DUP2 MSTORE PUSH1 0x20 ADD SWAP1 DUP2 MSTORE PUSH1 0x20 ADD PUSH0 KECCAK256 SWAP1 POP DUP5 PUSH20 0xFFFFFFFFFFFFFFFFFFFFFFFFFFFFFFFFFFFFFFFF AND DUP2 PUSH1 0x2 ADD PUSH0 SWAP1 SLOAD SWAP1 PUSH2 0x100 EXP SWAP1 DIV PUSH20 0xFFFFFFFFFFFFFFFFFFFFFFFFFFFFFFFFFFFFFFFF AND PUSH20 0xFFFFFFFFFFFFFFFFFFFFFFFFFFFFFFFFFFFFFFFF AND EQ DUP1 ISZERO PUSH2 0x413 JUMPI POP DUP1 PUSH1 0x6 ADD PUSH0 SWAP1 SLOAD SWAP1 PUSH2 0x100 EXP SWAP1 DIV PUSH1 0xFF AND ISZERO JUMPDEST ISZERO PUSH2 0x427 JUMPI DUP3 DUP1 PUSH2 0x423 SWAP1 PUSH2 0x35DB JUMP JUMPDEST SWAP4 POP POP JUMPDEST POP DUP1 DUP1 PUSH1 0x1 ADD SWAP2 POP POP PUSH2 0x36A JUMP JUMPDEST POP DUP1 SWAP2 POP POP SWAP2 SWAP1 POP JUMP JUMPDEST PUSH1 0x2 SLOAD DUP3 LT DUP1 ISZERO PUSH2 0x463 JUMPI POP PUSH0 PUSH1 0x3 PUSH0 DUP5 DUP2 MSTORE PUSH1 0x20 ADD SWAP1 DUP2 MSTORE PUSH1 0x20 ADD PUSH0 KECCAK256 PUSH0 ADD SLOAD EQ ISZERO JUMPDEST PUSH2 0x4A2 JUMPI PUSH1 0x40 MLOAD PUSH32 0x8C379A000000000000000000000000000000000000000000000000000000000 DUP2 MSTORE PUSH1 0x4 ADD PUSH2 0x499 SWAP1 PUSH2 0x366C JUMP JUMPDEST PUSH1 0x40 MLOAD DUP1 SWAP2 SUB SWAP1 REVERT JUMPDEST PUSH1 0x3 PUSH0 DUP4 DUP2 MSTORE PUSH1 0x20 ADD SWAP1 DUP2 MSTORE PUSH1 0x20 ADD PUSH0 KECCAK256 PUSH1 0x6 ADD PUSH0 SWAP1 SLOAD SWAP1 PUSH2 0x100 EXP SWAP1 DIV PUSH1 0xFF AND ISZERO PUSH2 0x503 JUMPI PUSH1 0x40 MLOAD PUSH32 0x8C379A000000000000000000000000000000000000000000000000000000000 DUP2 MSTORE PUSH1 0x4 ADD PUSH2 0x4FA SWAP1 PUSH2 0x36D4 JUMP JUMPDEST PUSH1 0x40 MLOAD DUP1 SWAP2 SUB SWAP1 REVERT JUMPDEST PUSH1 0x3 PUSH0 DUP4 DUP2 MSTORE PUSH1 0x20 ADD SWAP1 DUP2 MSTORE PUSH1 0x20 ADD PUSH0 KECCAK256 PUSH1 0x5 ADD SLOAD TIMESTAMP GT ISZERO PUSH2 0x5E9 JUMPI PUSH1 0x1 PUSH1 0x3 PUSH0 DUP5 DUP2 MSTORE PUSH1 0x20 ADD SWAP1 DUP2 MSTORE PUSH1 0x20 ADD PUSH0 KECCAK256 PUSH1 0x6 ADD PUSH0 PUSH2 0x100 EXP DUP2 SLOAD DUP2 PUSH1 0xFF MUL NOT AND SWAP1 DUP4 ISZERO ISZERO MUL OR SWAP1 SSTORE POP PUSH1 0x40 MLOAD DUP1 PUSH1 0x40 ADD PUSH1 0x40 MSTORE DUP1 PUSH1 0x1A DUP2 MSTORE PUSH1 0x20 ADD PUSH32 0x52656A65637465642064756520746F2065787069726174696F6E000000000000 DUP2 MSTORE POP PUSH1 0x3 PUSH0 DUP5 DUP2 MSTORE PUSH1 0x20 ADD SWAP1 DUP2 MSTORE PUSH1 0x20 ADD PUSH0 KECCAK256 PUSH1 0x7 ADD SWAP1 DUP2 PUSH2 0x5A1 SWAP2 SWAP1 PUSH2 0x3910 JUMP JUMPDEST POP PUSH32 0xB6CDB9654A453B960EC5FE6F18502A3F0DD823ED74DDC4F68A16B3210265EA5B DUP3 PUSH0 PUSH1 0x40 MLOAD PUSH2 0x5D3 SWAP3 SWAP2 SWAP1 PUSH2 0x3A29 JUMP JUMPDEST PUSH1 0x40 MLOAD DUP1 SWAP2 SUB SWAP1 LOG1 PUSH2 0x5E4 DUP3 PUSH2 0x2A48 JUMP JUMPDEST PUSH2 0xF6A JUMP JUMPDEST PUSH1 0x1 PUSH1 0x3 PUSH0 DUP5 DUP2 MSTORE PUSH1 0x20 ADD SWAP1 DUP2 MSTORE PUSH1 0x20 ADD PUSH0 KECCAK256 PUSH1 0x6 ADD PUSH0 PUSH2 0x100 EXP DUP2 SLOAD DUP2 PUSH1 0xFF MUL NOT AND SWAP1 DUP4 ISZERO ISZERO MUL OR SWAP1 SSTORE POP DUP1 PUSH2 0x655 JUMPI PUSH1 0x40 MLOAD DUP1 PUSH1 0x40 ADD PUSH1 0x40 MSTORE DUP1 PUSH1 0x8 DUP2 MSTORE PUSH1 0x20 ADD PUSH32 0x52656A6563746564000000000000000000000000000000000000000000000000 DUP2 MSTORE POP PUSH2 0x68C JUMP JUMPDEST PUSH1 0x40 MLOAD DUP1 PUSH1 0x40 ADD PUSH1 0x40 MSTORE DUP1 PUSH1 0x8 DUP2 MSTORE PUSH1 0x20 ADD PUSH32 0x4163636570746564000000000000000000000000000000000000000000000000 DUP2 MSTORE POP JUMPDEST PUSH1 0x3 PUSH0 DUP5 DUP2 MSTORE PUSH1 0x20 ADD SWAP1 DUP2 MSTORE PUSH1 0x20 ADD PUSH0 KECCAK256 PUSH1 0x7 ADD SWAP1 DUP2 PUSH2 0x6AC SWAP2 SWAP1 PUSH2 0x3910 JUMP JUMPDEST POP DUP1 ISZERO PUSH2 0xE34 JUMPI PUSH0 PUSH1 0x3 PUSH0 DUP5 DUP2 MSTORE PUSH1 0x20 ADD SWAP1 DUP2 MSTORE PUSH1 0x20 ADD PUSH0 KECCAK256 SWAP1 POP PUSH0 PUSH1 0x1 DUP2 GT ISZERO PUSH2 0x6DA JUMPI PUSH2 0x6D9 PUSH2 0x3284 JUMP JUMPDEST JUMPDEST DUP2 PUSH1 0x9 ADD PUSH0 SWAP1 SLOAD SWAP1 PUSH2 0x100 EXP SWAP1 DIV PUSH1 0xFF AND PUSH1 0x1 DUP2 GT ISZERO PUSH2 0x6FD JUMPI PUSH2 0x6FC PUSH2 0x3284 JUMP JUMPDEST JUMPDEST SUB PUSH2 0xA9C JUMPI PUSH0 DUP1 SLOAD SWAP1 PUSH2 0x100 EXP SWAP1 DIV PUSH20 0xFFFFFFFFFFFFFFFFFFFFFFFFFFFFFFFFFFFFFFFF AND PUSH20 0xFFFFFFFFFFFFFFFFFFFFFFFFFFFFFFFFFFFFFFFF AND PUSH4 0xA64B6E5F DUP3 PUSH1 0x1 ADD PUSH0 SWAP1 SLOAD SWAP1 PUSH2 0x100 EXP SWAP1 DIV PUSH20 0xFFFFFFFFFFFFFFFFFFFFFFFFFFFFFFFFFFFFFFFF AND DUP4 PUSH1 0x2 ADD PUSH0 SWAP1 SLOAD SWAP1 PUSH2 0x100 EXP SWAP1 DIV PUSH20 0xFFFFFFFFFFFFFFFFFFFFFFFFFFFFFFFFFFFFFFFF AND DUP5 PUSH1 0x4 ADD SLOAD PUSH1 0x40 MLOAD DUP5 PUSH4 0xFFFFFFFF AND PUSH1 0xE0 SHL DUP2 MSTORE PUSH1 0x4 ADD PUSH2 0x7A8 SWAP4 SWAP3 SWAP2 SWAP1 PUSH2 0x3A63 JUMP JUMPDEST PUSH0 PUSH1 0x40 MLOAD DUP1 DUP4 SUB DUP2 PUSH0 DUP8 DUP1 EXTCODESIZE ISZERO DUP1 ISZERO PUSH2 0x7BF JUMPI PUSH0 DUP1 REVERT JUMPDEST POP GAS CALL ISZERO DUP1 ISZERO PUSH2 0x7D1 JUMPI RETURNDATASIZE PUSH0 DUP1 RETURNDATACOPY RETURNDATASIZE PUSH0 REVERT JUMPDEST POP POP POP POP PUSH0 DUP1 SLOAD SWAP1 PUSH2 0x100 EXP SWAP1 DIV PUSH20 0xFFFFFFFFFFFFFFFFFFFFFFFFFFFFFFFFFFFFFFFF AND PUSH20 0xFFFFFFFFFFFFFFFFFFFFFFFFFFFFFFFFFFFFFFFF AND PUSH4 0x6FB4309B DUP3 PUSH1 0x1 ADD PUSH0 SWAP1 SLOAD SWAP1 PUSH2 0x100 EXP SWAP1 DIV PUSH20 0xFFFFFFFFFFFFFFFFFFFFFFFFFFFFFFFFFFFFFFFF AND DUP4 PUSH1 0x4 ADD SLOAD PUSH0 PUSH1 0x40 MLOAD DUP5 PUSH4 0xFFFFFFFF AND PUSH1 0xE0 SHL DUP2 MSTORE PUSH1 0x4 ADD PUSH2 0x858 SWAP4 SWAP3 SWAP2 SWAP1 PUSH2 0x3A98 JUMP JUMPDEST PUSH0 PUSH1 0x40 MLOAD DUP1 DUP4 SUB DUP2 PUSH0 DUP8 DUP1 EXTCODESIZE ISZERO DUP1 ISZERO PUSH2 0x86F JUMPI PUSH0 DUP1 REVERT JUMPDEST POP GAS CALL ISZERO DUP1 ISZERO PUSH2 0x881 JUMPI RETURNDATASIZE PUSH0 DUP1 RETURNDATACOPY RETURNDATASIZE PUSH0 REVERT JUMPDEST POP POP POP POP PUSH0 DUP1 SLOAD SWAP1 PUSH2 0x100 EXP SWAP1 DIV PUSH20 0xFFFFFFFFFFFFFFFFFFFFFFFFFFFFFFFFFFFFFFFF AND PUSH20 0xFFFFFFFFFFFFFFFFFFFFFFFFFFFFFFFFFFFFFFFF AND PUSH4 0x6FB4309B DUP3 PUSH1 0x2 ADD PUSH0 SWAP1 SLOAD SWAP1 PUSH2 0x100 EXP SWAP1 DIV PUSH20 0xFFFFFFFFFFFFFFFFFFFFFFFFFFFFFFFFFFFFFFFF AND DUP4 PUSH1 0x4 ADD SLOAD PUSH1 0x1 PUSH1 0x40 MLOAD DUP5 PUSH4 0xFFFFFFFF AND PUSH1 0xE0 SHL DUP2 MSTORE PUSH1 0x4 ADD PUSH2 0x909 SWAP4 SWAP3 SWAP2 SWAP1 PUSH2 0x3A98 JUMP JUMPDEST PUSH0 PUSH1 0x40 MLOAD DUP1 DUP4 SUB DUP2 PUSH0 DUP8 DUP1 EXTCODESIZE ISZERO DUP1 ISZERO PUSH2 0x920 JUMPI PUSH0 DUP1 REVERT JUMPDEST POP GAS CALL ISZERO DUP1 ISZERO PUSH2 0x932 JUMPI RETURNDATASIZE PUSH0 DUP1 RETURNDATACOPY RETURNDATASIZE PUSH0 REVERT JUMPDEST POP POP POP POP PUSH0 DUP1 SLOAD SWAP1 PUSH2 0x100 EXP SWAP1 DIV PUSH20 0xFFFFFFFFFFFFFFFFFFFFFFFFFFFFFFFFFFFFFFFF AND PUSH20 0xFFFFFFFFFFFFFFFFFFFFFFFFFFFFFFFFFFFFFFFF AND PUSH4 0x9202E886 DUP3 PUSH1 0x1 ADD PUSH0 SWAP1 SLOAD SWAP1 PUSH2 0x100 EXP SWAP1 DIV PUSH20 0xFFFFFFFFFFFFFFFFFFFFFFFFFFFFFFFFFFFFFFFF AND DUP4 PUSH1 0x3 ADD SLOAD PUSH1 0x1 PUSH1 0x40 MLOAD DUP5 PUSH4 0xFFFFFFFF AND PUSH1 0xE0 SHL DUP2 MSTORE PUSH1 0x4 ADD PUSH2 0x9BA SWAP4 SWAP3 SWAP2 SWAP1 PUSH2 0x3A98 JUMP JUMPDEST PUSH0 PUSH1 0x40 MLOAD DUP1 DUP4 SUB DUP2 PUSH0 DUP8 DUP1 EXTCODESIZE ISZERO DUP1 ISZERO PUSH2 0x9D1 JUMPI PUSH0 DUP1 REVERT JUMPDEST POP GAS CALL ISZERO DUP1 ISZERO PUSH2 0x9E3 JUMPI RETURNDATASIZE PUSH0 DUP1 RETURNDATACOPY RETURNDATASIZE PUSH0 REVERT JUMPDEST POP POP POP POP PUSH0 DUP1 SLOAD SWAP1 PUSH2 0x100 EXP SWAP1 DIV PUSH20 0xFFFFFFFFFFFFFFFFFFFFFFFFFFFFFFFFFFFFFFFF AND PUSH20 0xFFFFFFFFFFFFFFFFFFFFFFFFFFFFFFFFFFFFFFFF AND PUSH4 0x9202E886 DUP3 PUSH1 0x2 ADD PUSH0 SWAP1 SLOAD SWAP1 PUSH2 0x100 EXP SWAP1 DIV PUSH20 0xFFFFFFFFFFFFFFFFFFFFFFFFFFFFFFFFFFFFFFFF AND DUP4 PUSH1 0x3 ADD SLOAD PUSH0 PUSH1 0x40 MLOAD DUP5 PUSH4 0xFFFFFFFF AND PUSH1 0xE0 SHL DUP2 MSTORE PUSH1 0x4 ADD PUSH2 0xA6A SWAP4 SWAP3 SWAP2 SWAP1 PUSH2 0x3A98 JUMP JUMPDEST PUSH0 PUSH1 0x40 MLOAD DUP1 DUP4 SUB DUP2 PUSH0 DUP8 DUP1 EXTCODESIZE ISZERO DUP1 ISZERO PUSH2 0xA81 JUMPI PUSH0 DUP1 REVERT JUMPDEST POP GAS CALL ISZERO DUP1 ISZERO PUSH2 0xA93 JUMPI RETURNDATASIZE PUSH0 DUP1 RETURNDATACOPY RETURNDATASIZE PUSH0 REVERT JUMPDEST POP POP POP POP PUSH2 0xE32 JUMP JUMPDEST PUSH0 DUP1 SLOAD SWAP1 PUSH2 0x100 EXP SWAP1 DIV PUSH20 0xFFFFFFFFFFFFFFFFFFFFFFFFFFFFFFFFFFFFFFFF AND PUSH20 0xFFFFFFFFFFFFFFFFFFFFFFFFFFFFFFFFFFFFFFFF AND PUSH4 0xA64B6E5F DUP3 PUSH1 0x2 ADD PUSH0 SWAP1 SLOAD SWAP1 PUSH2 0x100 EXP SWAP1 DIV PUSH20 0xFFFFFFFFFFFFFFFFFFFFFFFFFFFFFFFFFFFFFFFF AND DUP4 PUSH1 0x1 ADD PUSH0 SWAP1 SLOAD SWAP1 PUSH2 0x100 EXP SWAP1 DIV PUSH20 0xFFFFFFFFFFFFFFFFFFFFFFFFFFFFFFFFFFFFFFFF AND DUP5 PUSH1 0x4 ADD SLOAD PUSH1 0x40 MLOAD DUP5 PUSH4 0xFFFFFFFF AND PUSH1 0xE0 SHL DUP2 MSTORE PUSH1 0x4 ADD PUSH2 0xB42 SWAP4 SWAP3 SWAP2 SWAP1 PUSH2 0x3A63 JUMP JUMPDEST PUSH0 PUSH1 0x40 MLOAD DUP1 DUP4 SUB DUP2 PUSH0 DUP8 DUP1 EXTCODESIZE ISZERO DUP1 ISZERO PUSH2 0xB59 JUMPI PUSH0 DUP1 REVERT JUMPDEST POP GAS CALL ISZERO DUP1 ISZERO PUSH2 0xB6B JUMPI RETURNDATASIZE PUSH0 DUP1 RETURNDATACOPY RETURNDATASIZE PUSH0 REVERT JUMPDEST POP POP POP POP PUSH0 DUP1 SLOAD SWAP1 PUSH2 0x100 EXP SWAP1 DIV PUSH20 0xFFFFFFFFFFFFFFFFFFFFFFFFFFFFFFFFFFFFFFFF AND PUSH20 0xFFFFFFFFFFFFFFFFFFFFFFFFFFFFFFFFFFFFFFFF AND PUSH4 0x6FB4309B DUP3 PUSH1 0x1 ADD PUSH0 SWAP1 SLOAD SWAP1 PUSH2 0x100 EXP SWAP1 DIV PUSH20 0xFFFFFFFFFFFFFFFFFFFFFFFFFFFFFFFFFFFFFFFF AND DUP4 PUSH1 0x4 ADD SLOAD PUSH1 0x1 PUSH1 0x40 MLOAD DUP5 PUSH4 0xFFFFFFFF AND PUSH1 0xE0 SHL DUP2 MSTORE PUSH1 0x4 ADD PUSH2 0xBF3 SWAP4 SWAP3 SWAP2 SWAP1 PUSH2 0x3A98 JUMP JUMPDEST PUSH0 PUSH1 0x40 MLOAD DUP1 DUP4 SUB DUP2 PUSH0 DUP8 DUP1 EXTCODESIZE ISZERO DUP1 ISZERO PUSH2 0xC0A JUMPI PUSH0 DUP1 REVERT JUMPDEST POP GAS CALL ISZERO DUP1 ISZERO PUSH2 0xC1C JUMPI RETURNDATASIZE PUSH0 DUP1 RETURNDATACOPY RETURNDATASIZE PUSH0 REVERT JUMPDEST POP POP POP POP PUSH0 DUP1 SLOAD SWAP1 PUSH2 0x100 EXP SWAP1 DIV PUSH20 0xFFFFFFFFFFFFFFFFFFFFFFFFFFFFFFFFFFFFFFFF AND PUSH20 0xFFFFFFFFFFFFFFFFFFFFFFFFFFFFFFFFFFFFFFFF AND PUSH4 0x6FB4309B DUP3 PUSH1 0x2 ADD PUSH0 SWAP1 SLOAD SWAP1 PUSH2 0x100 EXP SWAP1 DIV PUSH20 0xFFFFFFFFFFFFFFFFFFFFFFFFFFFFFFFFFFFFFFFF AND DUP4 PUSH1 0x4 ADD SLOAD PUSH0 PUSH1 0x40 MLOAD DUP5 PUSH4 0xFFFFFFFF AND PUSH1 0xE0 SHL DUP2 MSTORE PUSH1 0x4 ADD PUSH2 0xCA3 SWAP4 SWAP3 SWAP2 SWAP1 PUSH2 0x3A98 JUMP JUMPDEST PUSH0 PUSH1 0x40 MLOAD DUP1 DUP4 SUB DUP2 PUSH0 DUP8 DUP1 EXTCODESIZE ISZERO DUP1 ISZERO PUSH2 0xCBA JUMPI PUSH0 DUP1 REVERT JUMPDEST POP GAS CALL ISZERO DUP1 ISZERO PUSH2 0xCCC JUMPI RETURNDATASIZE PUSH0 DUP1 RETURNDATACOPY RETURNDATASIZE PUSH0 REVERT JUMPDEST POP POP POP POP PUSH0 DUP1 SLOAD SWAP1 PUSH2 0x100 EXP SWAP1 DIV PUSH20 0xFFFFFFFFFFFFFFFFFFFFFFFFFFFFFFFFFFFFFFFF AND PUSH20 0xFFFFFFFFFFFFFFFFFFFFFFFFFFFFFFFFFFFFFFFF AND PUSH4 0x9202E886 DUP3 PUSH1 0x1 ADD PUSH0 SWAP1 SLOAD SWAP1 PUSH2 0x100 EXP SWAP1 DIV PUSH20 0xFFFFFFFFFFFFFFFFFFFFFFFFFFFFFFFFFFFFFFFF AND DUP4 PUSH1 0x3 ADD SLOAD PUSH0 PUSH1 0x40 MLOAD DUP5 PUSH4 0xFFFFFFFF AND PUSH1 0xE0 SHL DUP2 MSTORE PUSH1 0x4 ADD PUSH2 0xD53 SWAP4 SWAP3 SWAP2 SWAP1 PUSH2 0x3A98 JUMP JUMPDEST PUSH0 PUSH1 0x40 MLOAD DUP1 DUP4 SUB DUP2 PUSH0 DUP8 DUP1 EXTCODESIZE ISZERO DUP1 ISZERO PUSH2 0xD6A JUMPI PUSH0 DUP1 REVERT JUMPDEST POP GAS CALL ISZERO DUP1 ISZERO PUSH2 0xD7C JUMPI RETURNDATASIZE PUSH0 DUP1 RETURNDATACOPY RETURNDATASIZE PUSH0 REVERT JUMPDEST POP POP POP POP PUSH0 DUP1 SLOAD SWAP1 PUSH2 0x100 EXP SWAP1 DIV PUSH20 0xFFFFFFFFFFFFFFFFFFFFFFFFFFFFFFFFFFFFFFFF AND PUSH20 0xFFFFFFFFFFFFFFFFFFFFFFFFFFFFFFFFFFFFFFFF AND PUSH4 0x9202E886 DUP3 PUSH1 0x2 ADD PUSH0 SWAP1 SLOAD SWAP1 PUSH2 0x100 EXP SWAP1 DIV PUSH20 0xFFFFFFFFFFFFFFFFFFFFFFFFFFFFFFFFFFFFFFFF AND DUP4 PUSH1 0x3 ADD SLOAD PUSH1 0x1 PUSH1 0x40 MLOAD DUP5 PUSH4 0xFFFFFFFF AND PUSH1 0xE0 SHL DUP2 MSTORE PUSH1 0x4 ADD PUSH2 0xE04 SWAP4 SWAP3 SWAP2 SWAP1 PUSH2 0x3A98 JUMP JUMPDEST PUSH0 PUSH1 0x40 MLOAD DUP1 DUP4 SUB DUP2 PUSH0 DUP8 DUP1 EXTCODESIZE ISZERO DUP1 ISZERO PUSH2 0xE1B JUMPI PUSH0 DUP1 REVERT JUMPDEST POP GAS CALL ISZERO DUP1 ISZERO PUSH2 0xE2D JUMPI RETURNDATASIZE PUSH0 DUP1 RETURNDATACOPY RETURNDATASIZE PUSH0 REVERT JUMPDEST POP POP POP POP JUMPDEST POP JUMPDEST PUSH2 0xE3D DUP3 PUSH2 0x2A48 JUMP JUMPDEST PUSH1 0x5 DUP3 SWAP1 DUP1 PUSH1 0x1 DUP2 SLOAD ADD DUP1 DUP3 SSTORE DUP1 SWAP2 POP POP PUSH1 0x1 SWAP1 SUB SWAP1 PUSH0 MSTORE PUSH1 0x20 PUSH0 KECCAK256 ADD PUSH0 SWAP1 SWAP2 SWAP1 SWAP2 SWAP1 SWAP2 POP SSTORE PUSH0 DUP1 SLOAD SWAP1 PUSH2 0x100 EXP SWAP1 DIV PUSH20 0xFFFFFFFFFFFFFFFFFFFFFFFFFFFFFFFFFFFFFFFF AND PUSH20 0xFFFFFFFFFFFFFFFFFFFFFFFFFFFFFFFFFFFFFFFF AND PUSH4 0xF014A601 PUSH1 0x3 PUSH0 DUP6 DUP2 MSTORE PUSH1 0x20 ADD SWAP1 DUP2 MSTORE PUSH1 0x20 ADD PUSH0 KECCAK256 PUSH1 0x2 ADD PUSH0 SWAP1 SLOAD SWAP1 PUSH2 0x100 EXP SWAP1 DIV PUSH20 0xFFFFFFFFFFFFFFFFFFFFFFFFFFFFFFFFFFFFFFFF AND PUSH1 0x40 MLOAD DUP3 PUSH4 0xFFFFFFFF AND PUSH1 0xE0 SHL DUP2 MSTORE PUSH1 0x4 ADD PUSH2 0xEEE SWAP2 SWAP1 PUSH2 0x3568 JUMP JUMPDEST PUSH0 PUSH1 0x40 MLOAD DUP1 DUP4 SUB DUP2 PUSH0 DUP8 DUP1 EXTCODESIZE ISZERO DUP1 ISZERO PUSH2 0xF05 JUMPI PUSH0 DUP1 REVERT JUMPDEST POP GAS CALL ISZERO DUP1 ISZERO PUSH2 0xF17 JUMPI RETURNDATASIZE PUSH0 DUP1 RETURNDATACOPY RETURNDATASIZE PUSH0 REVERT JUMPDEST POP POP POP POP PUSH32 0xB6CDB9654A453B960EC5FE6F18502A3F0DD823ED74DDC4F68A16B3210265EA5B DUP3 DUP3 PUSH1 0x3 PUSH0 DUP7 DUP2 MSTORE PUSH1 0x20 ADD SWAP1 DUP2 MSTORE PUSH1 0x20 ADD PUSH0 KECCAK256 PUSH1 0x7 ADD PUSH1 0x40 MLOAD PUSH2 0xF61 SWAP4 SWAP3 SWAP2 SWAP1 PUSH2 0x3B4E JUMP JUMPDEST PUSH1 0x40 MLOAD DUP1 SWAP2 SUB SWAP1 LOG1 JUMPDEST POP POP JUMP JUMPDEST PUSH0 DUP1 SLOAD SWAP1 PUSH2 0x100 EXP SWAP1 DIV PUSH20 0xFFFFFFFFFFFFFFFFFFFFFFFFFFFFFFFFFFFFFFFF AND PUSH20 0xFFFFFFFFFFFFFFFFFFFFFFFFFFFFFFFFFFFFFFFF AND PUSH4 0xF38488EC ADDRESS DUP4 PUSH1 0x40 MLOAD DUP4 PUSH4 0xFFFFFFFF AND PUSH1 0xE0 SHL DUP2 MSTORE PUSH1 0x4 ADD PUSH2 0xFC8 SWAP3 SWAP2 SWAP1 PUSH2 0x3B8A JUMP JUMPDEST PUSH0 PUSH1 0x40 MLOAD DUP1 DUP4 SUB DUP2 PUSH0 DUP8 DUP1 EXTCODESIZE ISZERO DUP1 ISZERO PUSH2 0xFDF JUMPI PUSH0 DUP1 REVERT JUMPDEST POP GAS CALL ISZERO DUP1 ISZERO PUSH2 0xFF1 JUMPI RETURNDATASIZE PUSH0 DUP1 RETURNDATACOPY RETURNDATASIZE PUSH0 REVERT JUMPDEST POP POP POP POP POP JUMP JUMPDEST PUSH0 DUP1 SLOAD SWAP1 PUSH2 0x100 EXP SWAP1 DIV PUSH20 0xFFFFFFFFFFFFFFFFFFFFFFFFFFFFFFFFFFFFFFFF AND PUSH20 0xFFFFFFFFFFFFFFFFFFFFFFFFFFFFFFFFFFFFFFFF AND PUSH4 0x163F7522 DUP8 PUSH1 0x40 MLOAD DUP3 PUSH4 0xFFFFFFFF AND PUSH1 0xE0 SHL DUP2 MSTORE PUSH1 0x4 ADD PUSH2 0x1050 SWAP2 SWAP1 PUSH2 0x3568 JUMP JUMPDEST PUSH1 0x20 PUSH1 0x40 MLOAD DUP1 DUP4 SUB DUP2 DUP7 GAS STATICCALL ISZERO DUP1 ISZERO PUSH2 0x106B JUMPI RETURNDATASIZE PUSH0 DUP1 RETURNDATACOPY RETURNDATASIZE PUSH0 REVERT JUMPDEST POP POP POP POP PUSH1 0x40 MLOAD RETURNDATASIZE PUSH1 0x1F NOT PUSH1 0x1F DUP3 ADD AND DUP3 ADD DUP1 PUSH1 0x40 MSTORE POP DUP2 ADD SWAP1 PUSH2 0x108F SWAP2 SWAP1 PUSH2 0x3BC5 JUMP JUMPDEST PUSH2 0x10CE JUMPI PUSH1 0x40 MLOAD PUSH32 0x8C379A000000000000000000000000000000000000000000000000000000000 DUP2 MSTORE PUSH1 0x4 ADD PUSH2 0x10C5 SWAP1 PUSH2 0x3C3A JUMP JUMPDEST PUSH1 0x40 MLOAD DUP1 SWAP2 SUB SWAP1 REVERT JUMPDEST PUSH0 DUP1 SLOAD SWAP1 PUSH2 0x100 EXP SWAP1 DIV PUSH20 0xFFFFFFFFFFFFFFFFFFFFFFFFFFFFFFFFFFFFFFFF AND PUSH20 0xFFFFFFFFFFFFFFFFFFFFFFFFFFFFFFFFFFFFFFFF AND PUSH4 0x163F7522 DUP7 PUSH1 0x40 MLOAD DUP3 PUSH4 0xFFFFFFFF AND PUSH1 0xE0 SHL DUP2 MSTORE PUSH1 0x4 ADD PUSH2 0x1126 SWAP2 SWAP1 PUSH2 0x3568 JUMP JUMPDEST PUSH1 0x20 PUSH1 0x40 MLOAD DUP1 DUP4 SUB DUP2 DUP7 GAS STATICCALL ISZERO DUP1 ISZERO PUSH2 0x1141 JUMPI RETURNDATASIZE PUSH0 DUP1 RETURNDATACOPY RETURNDATASIZE PUSH0 REVERT JUMPDEST POP POP POP POP PUSH1 0x40 MLOAD RETURNDATASIZE PUSH1 0x1F NOT PUSH1 0x1F DUP3 ADD AND DUP3 ADD DUP1 PUSH1 0x40 MSTORE POP DUP2 ADD SWAP1 PUSH2 0x1165 SWAP2 SWAP1 PUSH2 0x3BC5 JUMP JUMPDEST PUSH2 0x11A4 JUMPI PUSH1 0x40 MLOAD PUSH32 0x8C379A000000000000000000000000000000000000000000000000000000000 DUP2 MSTORE PUSH1 0x4 ADD PUSH2 0x119B SWAP1 PUSH2 0x3CA2 JUMP JUMPDEST PUSH1 0x40 MLOAD DUP1 SWAP2 SUB SWAP1 REVERT JUMPDEST TIMESTAMP DUP3 GT PUSH2 0x11E6 JUMPI PUSH1 0x40 MLOAD PUSH32 0x8C379A000000000000000000000000000000000000000000000000000000000 DUP2 MSTORE PUSH1 0x4 ADD PUSH2 0x11DD SWAP1 PUSH2 0x3D30 JUMP JUMPDEST PUSH1 0x40 MLOAD DUP1 SWAP2 SUB SWAP1 REVERT JUMPDEST DUP1 ISZERO PUSH2 0x13A3 JUMPI DUP3 PUSH0 DUP1 SLOAD SWAP1 PUSH2 0x100 EXP SWAP1 DIV PUSH20 0xFFFFFFFFFFFFFFFFFFFFFFFFFFFFFFFFFFFFFFFF AND PUSH20 0xFFFFFFFFFFFFFFFFFFFFFFFFFFFFFFFFFFFFFFFF AND PUSH4 0x3AECD0E3 DUP9 PUSH1 0x40 MLOAD DUP3 PUSH4 0xFFFFFFFF AND PUSH1 0xE0 SHL DUP2 MSTORE PUSH1 0x4 ADD PUSH2 0x1245 SWAP2 SWAP1 PUSH2 0x3568 JUMP JUMPDEST PUSH1 0x20 PUSH1 0x40 MLOAD DUP1 DUP4 SUB DUP2 DUP7 GAS STATICCALL ISZERO DUP1 ISZERO PUSH2 0x1260 JUMPI RETURNDATASIZE PUSH0 DUP1 RETURNDATACOPY RETURNDATASIZE PUSH0 REVERT JUMPDEST POP POP POP POP PUSH1 0x40 MLOAD RETURNDATASIZE PUSH1 0x1F NOT PUSH1 0x1F DUP3 ADD AND DUP3 ADD DUP1 PUSH1 0x40 MSTORE POP DUP2 ADD SWAP1 PUSH2 0x1284 SWAP2 SWAP1 PUSH2 0x3D62 JUMP JUMPDEST LT ISZERO PUSH2 0x12C5 JUMPI PUSH1 0x40 MLOAD PUSH32 0x8C379A000000000000000000000000000000000000000000000000000000000 DUP2 MSTORE PUSH1 0x4 ADD PUSH2 0x12BC SWAP1 PUSH2 0x3DFD JUMP JUMPDEST PUSH1 0x40 MLOAD DUP1 SWAP2 SUB SWAP1 REVERT JUMPDEST DUP4 PUSH0 DUP1 SLOAD SWAP1 PUSH2 0x100 EXP SWAP1 DIV PUSH20 0xFFFFFFFFFFFFFFFFFFFFFFFFFFFFFFFFFFFFFFFF AND PUSH20 0xFFFFFFFFFFFFFFFFFFFFFFFFFFFFFFFFFFFFFFFF AND PUSH4 0x46352B58 DUP8 PUSH1 0x40 MLOAD DUP3 PUSH4 0xFFFFFFFF AND PUSH1 0xE0 SHL DUP2 MSTORE PUSH1 0x4 ADD PUSH2 0x131E SWAP2 SWAP1 PUSH2 0x3568 JUMP JUMPDEST PUSH1 0x20 PUSH1 0x40 MLOAD DUP1 DUP4 SUB DUP2 DUP7 GAS STATICCALL ISZERO DUP1 ISZERO PUSH2 0x1339 JUMPI RETURNDATASIZE PUSH0 DUP1 RETURNDATACOPY RETURNDATASIZE PUSH0 REVERT JUMPDEST POP POP POP POP PUSH1 0x40 MLOAD RETURNDATASIZE PUSH1 0x1F NOT PUSH1 0x1F DUP3 ADD AND DUP3 ADD DUP1 PUSH1 0x40 MSTORE POP DUP2 ADD SWAP1 PUSH2 0x135D SWAP2 SWAP1 PUSH2 0x3D62 JUMP JUMPDEST LT ISZERO PUSH2 0x139E JUMPI PUSH1 0x40 MLOAD PUSH32 0x8C379A000000000000000000000000000000000000000000000000000000000 DUP2 MSTORE PUSH1 0x4 ADD PUSH2 0x1395 SWAP1 PUSH2 0x3E8B JUMP JUMPDEST PUSH1 0x40 MLOAD DUP1 SWAP2 SUB SWAP1 REVERT JUMPDEST PUSH2 0x1556 JUMP JUMPDEST DUP4 PUSH0 DUP1 SLOAD SWAP1 PUSH2 0x100 EXP SWAP1 DIV PUSH20 0xFFFFFFFFFFFFFFFFFFFFFFFFFFFFFFFFFFFFFFFF AND PUSH20 0xFFFFFFFFFFFFFFFFFFFFFFFFFFFFFFFFFFFFFFFF AND PUSH4 0x46352B58 DUP9 PUSH1 0x40 MLOAD DUP3 PUSH4 0xFFFFFFFF AND PUSH1 0xE0 SHL DUP2 MSTORE PUSH1 0x4 ADD PUSH2 0x13FC SWAP2 SWAP1 PUSH2 0x3568 JUMP JUMPDEST PUSH1 0x20 PUSH1 0x40 MLOAD DUP1 DUP4 SUB DUP2 DUP7 GAS STATICCALL ISZERO DUP1 ISZERO PUSH2 0x1417 JUMPI RETURNDATASIZE PUSH0 DUP1 RETURNDATACOPY RETURNDATASIZE PUSH0 REVERT JUMPDEST POP POP POP POP PUSH1 0x40 MLOAD RETURNDATASIZE PUSH1 0x1F NOT PUSH1 0x1F DUP3 ADD AND DUP3 ADD DUP1 PUSH1 0x40 MSTORE POP DUP2 ADD SWAP1 PUSH2 0x143B SWAP2 SWAP1 PUSH2 0x3D62 JUMP JUMPDEST LT ISZERO PUSH2 0x147C JUMPI PUSH1 0x40 MLOAD PUSH32 0x8C379A000000000000000000000000000000000000000000000000000000000 DUP2 MSTORE PUSH1 0x4 ADD PUSH2 0x1473 SWAP1 PUSH2 0x3F19 JUMP JUMPDEST PUSH1 0x40 MLOAD DUP1 SWAP2 SUB SWAP1 REVERT JUMPDEST DUP3 PUSH0 DUP1 SLOAD SWAP1 PUSH2 0x100 EXP SWAP1 DIV PUSH20 0xFFFFFFFFFFFFFFFFFFFFFFFFFFFFFFFFFFFFFFFF AND PUSH20 0xFFFFFFFFFFFFFFFFFFFFFFFFFFFFFFFFFFFFFFFF AND PUSH4 0x3AECD0E3 DUP8 PUSH1 0x40 MLOAD DUP3 PUSH4 0xFFFFFFFF AND PUSH1 0xE0 SHL DUP2 MSTORE PUSH1 0x4 ADD PUSH2 0x14D5 SWAP2 SWAP1 PUSH2 0x3568 JUMP JUMPDEST PUSH1 0x20 PUSH1 0x40 MLOAD DUP1 DUP4 SUB DUP2 DUP7 GAS STATICCALL ISZERO DUP1 ISZERO PUSH2 0x14F0 JUMPI RETURNDATASIZE PUSH0 DUP1 RETURNDATACOPY RETURNDATASIZE PUSH0 REVERT JUMPDEST POP POP POP POP PUSH1 0x40 MLOAD RETURNDATASIZE PUSH1 0x1F NOT PUSH1 0x1F DUP3 ADD AND DUP3 ADD DUP1 PUSH1 0x40 MSTORE POP DUP2 ADD SWAP1 PUSH2 0x1514 SWAP2 SWAP1 PUSH2 0x3D62 JUMP JUMPDEST LT ISZERO PUSH2 0x1555 JUMPI PUSH1 0x40 MLOAD PUSH32 0x8C379A000000000000000000000000000000000000000000000000000000000 DUP2 MSTORE PUSH1 0x4 ADD PUSH2 0x154C SWAP1 PUSH2 0x3FA7 JUMP JUMPDEST PUSH1 0x40 MLOAD DUP1 SWAP2 SUB SWAP1 REVERT JUMPDEST JUMPDEST PUSH0 PUSH1 0x2 PUSH0 DUP2 SLOAD DUP1 SWAP3 SWAP2 SWAP1 PUSH2 0x1569 SWAP1 PUSH2 0x35DB JUMP JUMPDEST SWAP2 SWAP1 POP SSTORE SWAP1 POP PUSH1 0x40 MLOAD DUP1 PUSH2 0x140 ADD PUSH1 0x40 MSTORE DUP1 DUP3 DUP2 MSTORE PUSH1 0x20 ADD DUP9 PUSH20 0xFFFFFFFFFFFFFFFFFFFFFFFFFFFFFFFFFFFFFFFF AND DUP2 MSTORE PUSH1 0x20 ADD DUP8 PUSH20 0xFFFFFFFFFFFFFFFFFFFFFFFFFFFFFFFFFFFFFFFF AND DUP2 MSTORE PUSH1 0x20 ADD DUP7 DUP2 MSTORE PUSH1 0x20 ADD DUP6 DUP2 MSTORE PUSH1 0x20 ADD DUP5 DUP2 MSTORE PUSH1 0x20 ADD PUSH0 ISZERO ISZERO DUP2 MSTORE PUSH1 0x20 ADD PUSH1 0x40 MLOAD DUP1 PUSH1 0x40 ADD PUSH1 0x40 MSTORE DUP1 PUSH1 0x7 DUP2 MSTORE PUSH1 0x20 ADD PUSH32 0x50656E64696E6700000000000000000000000000000000000000000000000000 DUP2 MSTORE POP DUP2 MSTORE PUSH1 0x20 ADD TIMESTAMP DUP2 MSTORE PUSH1 0x20 ADD DUP4 PUSH2 0x1620 JUMPI PUSH1 0x1 PUSH2 0x1622 JUMP JUMPDEST PUSH0 JUMPDEST PUSH1 0x1 DUP2 GT ISZERO PUSH2 0x1634 JUMPI PUSH2 0x1633 PUSH2 0x3284 JUMP JUMPDEST JUMPDEST DUP2 MSTORE POP PUSH1 0x3 PUSH0 DUP4 DUP2 MSTORE PUSH1 0x20 ADD SWAP1 DUP2 MSTORE PUSH1 0x20 ADD PUSH0 KECCAK256 PUSH0 DUP3 ADD MLOAD DUP2 PUSH0 ADD SSTORE PUSH1 0x20 DUP3 ADD MLOAD DUP2 PUSH1 0x1 ADD PUSH0 PUSH2 0x100 EXP DUP2 SLOAD DUP2 PUSH20 0xFFFFFFFFFFFFFFFFFFFFFFFFFFFFFFFFFFFFFFFF MUL NOT AND SWAP1 DUP4 PUSH20 0xFFFFFFFFFFFFFFFFFFFFFFFFFFFFFFFFFFFFFFFF AND MUL OR SWAP1 SSTORE POP PUSH1 0x40 DUP3 ADD MLOAD DUP2 PUSH1 0x2 ADD PUSH0 PUSH2 0x100 EXP DUP2 SLOAD DUP2 PUSH20 0xFFFFFFFFFFFFFFFFFFFFFFFFFFFFFFFFFFFFFFFF MUL NOT AND SWAP1 DUP4 PUSH20 0xFFFFFFFFFFFFFFFFFFFFFFFFFFFFFFFFFFFFFFFF AND MUL OR SWAP1 SSTORE POP PUSH1 0x60 DUP3 ADD MLOAD DUP2 PUSH1 0x3 ADD SSTORE PUSH1 0x80 DUP3 ADD MLOAD DUP2 PUSH1 0x4 ADD SSTORE PUSH1 0xA0 DUP3 ADD MLOAD DUP2 PUSH1 0x5 ADD SSTORE PUSH1 0xC0 DUP3 ADD MLOAD DUP2 PUSH1 0x6 ADD PUSH0 PUSH2 0x100 EXP DUP2 SLOAD DUP2 PUSH1 0xFF MUL NOT AND SWAP1 DUP4 ISZERO ISZERO MUL OR SWAP1 SSTORE POP PUSH1 0xE0 DUP3 ADD MLOAD DUP2 PUSH1 0x7 ADD SWAP1 DUP2 PUSH2 0x172E SWAP2 SWAP1 PUSH2 0x3910 JUMP JUMPDEST POP PUSH2 0x100 DUP3 ADD MLOAD DUP2 PUSH1 0x8 ADD SSTORE PUSH2 0x120 DUP3 ADD MLOAD DUP2 PUSH1 0x9 ADD PUSH0 PUSH2 0x100 EXP DUP2 SLOAD DUP2 PUSH1 0xFF MUL NOT AND SWAP1 DUP4 PUSH1 0x1 DUP2 GT ISZERO PUSH2 0x1765 JUMPI PUSH2 0x1764 PUSH2 0x3284 JUMP JUMPDEST JUMPDEST MUL OR SWAP1 SSTORE POP SWAP1 POP POP PUSH1 0x4 DUP2 SWAP1 DUP1 PUSH1 0x1 DUP2 SLOAD ADD DUP1 DUP3 SSTORE DUP1 SWAP2 POP POP PUSH1 0x1 SWAP1 SUB SWAP1 PUSH0 MSTORE PUSH1 0x20 PUSH0 KECCAK256 ADD PUSH0 SWAP1 SWAP2 SWAP1 SWAP2 SWAP1 SWAP2 POP SSTORE PUSH32 0x6F2FAC3F769ED900EB9891A73CAA7B5267CE788A20299805CE4B85934CB200F5 DUP2 DUP8 DUP5 PUSH2 0x17C2 JUMPI PUSH1 0x1 PUSH2 0x17C4 JUMP JUMPDEST PUSH0 JUMPDEST PUSH1 0x40 MLOAD PUSH2 0x17D3 SWAP4 SWAP3 SWAP2 SWAP1 PUSH2 0x3FC5 JUMP JUMPDEST PUSH1 0x40 MLOAD DUP1 SWAP2 SUB SWAP1 LOG1 POP POP POP POP POP POP POP JUMP JUMPDEST PUSH1 0x60 PUSH0 PUSH1 0x1 PUSH1 0x2 SLOAD PUSH2 0x17F6 SWAP2 SWAP1 PUSH2 0x3FFA JUMP JUMPDEST PUSH8 0xFFFFFFFFFFFFFFFF DUP2 GT ISZERO PUSH2 0x180F JUMPI PUSH2 0x180E PUSH2 0x36F2 JUMP JUMPDEST JUMPDEST PUSH1 0x40 MLOAD SWAP1 DUP1 DUP3 MSTORE DUP1 PUSH1 0x20 MUL PUSH1 0x20 ADD DUP3 ADD PUSH1 0x40 MSTORE DUP1 ISZERO PUSH2 0x183D JUMPI DUP2 PUSH1 0x20 ADD PUSH1 0x20 DUP3 MUL DUP1 CALLDATASIZE DUP4 CALLDATACOPY DUP1 DUP3 ADD SWAP2 POP POP SWAP1 POP JUMPDEST POP SWAP1 POP PUSH0 DUP1 PUSH1 0x1 SWAP1 POP JUMPDEST PUSH1 0x2 SLOAD DUP2 LT ISZERO PUSH2 0x195D JUMPI DUP5 PUSH20 0xFFFFFFFFFFFFFFFFFFFFFFFFFFFFFFFFFFFFFFFF AND PUSH1 0x3 PUSH0 DUP4 DUP2 MSTORE PUSH1 0x20 ADD SWAP1 DUP2 MSTORE PUSH1 0x20 ADD PUSH0 KECCAK256 PUSH1 0x1 ADD PUSH0 SWAP1 SLOAD SWAP1 PUSH2 0x100 EXP SWAP1 DIV PUSH20 0xFFFFFFFFFFFFFFFFFFFFFFFFFFFFFFFFFFFFFFFF AND PUSH20 0xFFFFFFFFFFFFFFFFFFFFFFFFFFFFFFFFFFFFFFFF AND EQ DUP1 PUSH2 0x191C JUMPI POP DUP5 PUSH20 0xFFFFFFFFFFFFFFFFFFFFFFFFFFFFFFFFFFFFFFFF AND PUSH1 0x3 PUSH0 DUP4 DUP2 MSTORE PUSH1 0x20 ADD SWAP1 DUP2 MSTORE PUSH1 0x20 ADD PUSH0 KECCAK256 PUSH1 0x2 ADD PUSH0 SWAP1 SLOAD SWAP1 PUSH2 0x100 EXP SWAP1 DIV PUSH20 0xFFFFFFFFFFFFFFFFFFFFFFFFFFFFFFFFFFFFFFFF AND PUSH20 0xFFFFFFFFFFFFFFFFFFFFFFFFFFFFFFFFFFFFFFFF AND EQ JUMPDEST ISZERO PUSH2 0x1950 JUMPI DUP1 DUP4 DUP4 DUP2 MLOAD DUP2 LT PUSH2 0x1935 JUMPI PUSH2 0x1934 PUSH2 0x3581 JUMP JUMPDEST JUMPDEST PUSH1 0x20 MUL PUSH1 0x20 ADD ADD DUP2 DUP2 MSTORE POP POP DUP2 DUP1 PUSH2 0x194C SWAP1 PUSH2 0x35DB JUMP JUMPDEST SWAP3 POP POP JUMPDEST DUP1 DUP1 PUSH1 0x1 ADD SWAP2 POP POP PUSH2 0x1847 JUMP JUMPDEST POP PUSH0 DUP2 PUSH8 0xFFFFFFFFFFFFFFFF DUP2 GT ISZERO PUSH2 0x1979 JUMPI PUSH2 0x1978 PUSH2 0x36F2 JUMP JUMPDEST JUMPDEST PUSH1 0x40 MLOAD SWAP1 DUP1 DUP3 MSTORE DUP1 PUSH1 0x20 MUL PUSH1 0x20 ADD DUP3 ADD PUSH1 0x40 MSTORE DUP1 ISZERO PUSH2 0x19A7 JUMPI DUP2 PUSH1 0x20 ADD PUSH1 0x20 DUP3 MUL DUP1 CALLDATASIZE DUP4 CALLDATACOPY DUP1 DUP3 ADD SWAP2 POP POP SWAP1 POP JUMPDEST POP SWAP1 POP PUSH0 JUMPDEST DUP3 DUP2 LT ISZERO PUSH2 0x19FB JUMPI DUP4 DUP2 DUP2 MLOAD DUP2 LT PUSH2 0x19C7 JUMPI PUSH2 0x19C6 PUSH2 0x3581 JUMP JUMPDEST JUMPDEST PUSH1 0x20 MUL PUSH1 0x20 ADD ADD MLOAD DUP3 DUP3 DUP2 MLOAD DUP2 LT PUSH2 0x19E2 JUMPI PUSH2 0x19E1 PUSH2 0x3581 JUMP JUMPDEST JUMPDEST PUSH1 0x20 MUL PUSH1 0x20 ADD ADD DUP2 DUP2 MSTORE POP POP DUP1 DUP1 PUSH1 0x1 ADD SWAP2 POP POP PUSH2 0x19AC JUMP JUMPDEST POP DUP1 SWAP4 POP POP POP POP SWAP2 SWAP1 POP JUMP JUMPDEST PUSH1 0x60 PUSH0 PUSH1 0x5 DUP1 SLOAD SWAP1 POP PUSH8 0xFFFFFFFFFFFFFFFF DUP2 GT ISZERO PUSH2 0x1A29 JUMPI PUSH2 0x1A28 PUSH2 0x36F2 JUMP JUMPDEST JUMPDEST PUSH1 0x40 MLOAD SWAP1 DUP1 DUP3 MSTORE DUP1 PUSH1 0x20 MUL PUSH1 0x20 ADD DUP3 ADD PUSH1 0x40 MSTORE DUP1 ISZERO PUSH2 0x1A57 JUMPI DUP2 PUSH1 0x20 ADD PUSH1 0x20 DUP3 MUL DUP1 CALLDATASIZE DUP4 CALLDATACOPY DUP1 DUP3 ADD SWAP2 POP POP SWAP1 POP JUMPDEST POP SWAP1 POP PUSH0 DUP1 JUMPDEST PUSH1 0x5 DUP1 SLOAD SWAP1 POP DUP2 LT ISZERO PUSH2 0x1BA3 JUMPI PUSH0 PUSH1 0x3 PUSH0 PUSH1 0x5 DUP5 DUP2 SLOAD DUP2 LT PUSH2 0x1A82 JUMPI PUSH2 0x1A81 PUSH2 0x3581 JUMP JUMPDEST JUMPDEST SWAP1 PUSH0 MSTORE PUSH1 0x20 PUSH0 KECCAK256 ADD SLOAD DUP2 MSTORE PUSH1 0x20 ADD SWAP1 DUP2 MSTORE PUSH1 0x20 ADD PUSH0 KECCAK256 SWAP1 POP DUP6 PUSH20 0xFFFFFFFFFFFFFFFFFFFFFFFFFFFFFFFFFFFFFFFF AND DUP2 PUSH1 0x1 ADD PUSH0 SWAP1 SLOAD SWAP1 PUSH2 0x100 EXP SWAP1 DIV PUSH20 0xFFFFFFFFFFFFFFFFFFFFFFFFFFFFFFFFFFFFFFFF AND PUSH20 0xFFFFFFFFFFFFFFFFFFFFFFFFFFFFFFFFFFFFFFFF AND EQ DUP1 PUSH2 0x1B45 JUMPI POP DUP6 PUSH20 0xFFFFFFFFFFFFFFFFFFFFFFFFFFFFFFFFFFFFFFFF AND DUP2 PUSH1 0x2 ADD PUSH0 SWAP1 SLOAD SWAP1 PUSH2 0x100 EXP SWAP1 DIV PUSH20 0xFFFFFFFFFFFFFFFFFFFFFFFFFFFFFFFFFFFFFFFF AND PUSH20 0xFFFFFFFFFFFFFFFFFFFFFFFFFFFFFFFFFFFFFFFF AND EQ JUMPDEST ISZERO PUSH2 0x1B95 JUMPI PUSH1 0x5 DUP3 DUP2 SLOAD DUP2 LT PUSH2 0x1B5E JUMPI PUSH2 0x1B5D PUSH2 0x3581 JUMP JUMPDEST JUMPDEST SWAP1 PUSH0 MSTORE PUSH1 0x20 PUSH0 KECCAK256 ADD SLOAD DUP5 DUP5 DUP2 MLOAD DUP2 LT PUSH2 0x1B7A JUMPI PUSH2 0x1B79 PUSH2 0x3581 JUMP JUMPDEST JUMPDEST PUSH1 0x20 MUL PUSH1 0x20 ADD ADD DUP2 DUP2 MSTORE POP POP DUP3 DUP1 PUSH2 0x1B91 SWAP1 PUSH2 0x35DB JUMP JUMPDEST SWAP4 POP POP JUMPDEST POP DUP1 DUP1 PUSH1 0x1 ADD SWAP2 POP POP PUSH2 0x1A5D JUMP JUMPDEST POP PUSH0 DUP2 PUSH8 0xFFFFFFFFFFFFFFFF DUP2 GT ISZERO PUSH2 0x1BBF JUMPI PUSH2 0x1BBE PUSH2 0x36F2 JUMP JUMPDEST JUMPDEST PUSH1 0x40 MLOAD SWAP1 DUP1 DUP3 MSTORE DUP1 PUSH1 0x20 MUL PUSH1 0x20 ADD DUP3 ADD PUSH1 0x40 MSTORE DUP1 ISZERO PUSH2 0x1BED JUMPI DUP2 PUSH1 0x20 ADD PUSH1 0x20 DUP3 MUL DUP1 CALLDATASIZE DUP4 CALLDATACOPY DUP1 DUP3 ADD SWAP2 POP POP SWAP1 POP JUMPDEST POP SWAP1 POP PUSH0 JUMPDEST DUP3 DUP2 LT ISZERO PUSH2 0x1C41 JUMPI DUP4 DUP2 DUP2 MLOAD DUP2 LT PUSH2 0x1C0D JUMPI PUSH2 0x1C0C PUSH2 0x3581 JUMP JUMPDEST JUMPDEST PUSH1 0x20 MUL PUSH1 0x20 ADD ADD MLOAD DUP3 DUP3 DUP2 MLOAD DUP2 LT PUSH2 0x1C28 JUMPI PUSH2 0x1C27 PUSH2 0x3581 JUMP JUMPDEST JUMPDEST PUSH1 0x20 MUL PUSH1 0x20 ADD ADD DUP2 DUP2 MSTORE POP POP DUP1 DUP1 PUSH1 0x1 ADD SWAP2 POP POP PUSH2 0x1BF2 JUMP JUMPDEST POP DUP1 SWAP4 POP POP POP POP SWAP2 SWAP1 POP JUMP JUMPDEST PUSH0 DUP1 SLOAD SWAP1 PUSH2 0x100 EXP SWAP1 DIV PUSH20 0xFFFFFFFFFFFFFFFFFFFFFFFFFFFFFFFFFFFFFFFF AND DUP2 JUMP JUMPDEST PUSH1 0x4 DUP2 DUP2 SLOAD DUP2 LT PUSH2 0x1C7F JUMPI PUSH0 DUP1 REVERT JUMPDEST SWAP1 PUSH0 MSTORE PUSH1 0x20 PUSH0 KECCAK256 ADD PUSH0 SWAP2 POP SWAP1 POP SLOAD DUP2 JUMP JUMPDEST PUSH1 0x60 PUSH0 DUP1 DUP1 PUSH0 SWAP1 SLOAD SWAP1 PUSH2 0x100 EXP SWAP1 DIV PUSH20 0xFFFFFFFFFFFFFFFFFFFFFFFFFFFFFFFFFFFFFFFF AND PUSH20 0xFFFFFFFFFFFFFFFFFFFFFFFFFFFFFFFFFFFFFFFF AND PUSH4 0xA591EFDE PUSH1 0x40 MLOAD DUP2 PUSH4 0xFFFFFFFF AND PUSH1 0xE0 SHL DUP2 MSTORE PUSH1 0x4 ADD PUSH0 PUSH1 0x40 MLOAD DUP1 DUP4 SUB DUP2 DUP7 GAS STATICCALL ISZERO DUP1 ISZERO PUSH2 0x1CFC JUMPI RETURNDATASIZE PUSH0 DUP1 RETURNDATACOPY RETURNDATASIZE PUSH0 REVERT JUMPDEST POP POP POP POP PUSH1 0x40 MLOAD RETURNDATASIZE PUSH0 DUP3 RETURNDATACOPY RETURNDATASIZE PUSH1 0x1F NOT PUSH1 0x1F DUP3 ADD AND DUP3 ADD DUP1 PUSH1 0x40 MSTORE POP DUP2 ADD SWAP1 PUSH2 0x1D24 SWAP2 SWAP1 PUSH2 0x4154 JUMP JUMPDEST SWAP1 POP PUSH0 JUMPDEST DUP2 MLOAD DUP2 LT ISZERO PUSH2 0x1E18 JUMPI PUSH0 DUP1 PUSH0 SWAP1 SLOAD SWAP1 PUSH2 0x100 EXP SWAP1 DIV PUSH20 0xFFFFFFFFFFFFFFFFFFFFFFFFFFFFFFFFFFFFFFFF AND PUSH20 0xFFFFFFFFFFFFFFFFFFFFFFFFFFFFFFFFFFFFFFFF AND PUSH4 0xE947BD8 DUP5 DUP5 DUP2 MLOAD DUP2 LT PUSH2 0x1D81 JUMPI PUSH2 0x1D80 PUSH2 0x3581 JUMP JUMPDEST JUMPDEST PUSH1 0x20 MUL PUSH1 0x20 ADD ADD MLOAD PUSH1 0x40 MLOAD DUP3 PUSH4 0xFFFFFFFF AND PUSH1 0xE0 SHL DUP2 MSTORE PUSH1 0x4 ADD PUSH2 0x1DA5 SWAP2 SWAP1 PUSH2 0x3568 JUMP JUMPDEST PUSH0 PUSH1 0x40 MLOAD DUP1 DUP4 SUB DUP2 DUP7 GAS STATICCALL ISZERO DUP1 ISZERO PUSH2 0x1DBF JUMPI RETURNDATASIZE PUSH0 DUP1 RETURNDATACOPY RETURNDATASIZE PUSH0 REVERT JUMPDEST POP POP POP POP PUSH1 0x40 MLOAD RETURNDATASIZE PUSH0 DUP3 RETURNDATACOPY RETURNDATASIZE PUSH1 0x1F NOT PUSH1 0x1F DUP3 ADD AND DUP3 ADD DUP1 PUSH1 0x40 MSTORE POP DUP2 ADD SWAP1 PUSH2 0x1DE7 SWAP2 SWAP1 PUSH2 0x42EA JUMP JUMPDEST SWAP1 POP PUSH2 0x1DF6 DUP2 PUSH1 0x20 ADD MLOAD PUSH2 0x2B03 JUMP JUMPDEST ISZERO PUSH2 0x1E0A JUMPI DUP4 DUP1 PUSH2 0x1E06 SWAP1 PUSH2 0x35DB JUMP JUMPDEST SWAP5 POP POP JUMPDEST POP DUP1 DUP1 PUSH1 0x1 ADD SWAP2 POP POP PUSH2 0x1D28 JUMP JUMPDEST POP PUSH0 DUP3 PUSH8 0xFFFFFFFFFFFFFFFF DUP2 GT ISZERO PUSH2 0x1E34 JUMPI PUSH2 0x1E33 PUSH2 0x36F2 JUMP JUMPDEST JUMPDEST PUSH1 0x40 MLOAD SWAP1 DUP1 DUP3 MSTORE DUP1 PUSH1 0x20 MUL PUSH1 0x20 ADD DUP3 ADD PUSH1 0x40 MSTORE DUP1 ISZERO PUSH2 0x1E6D JUMPI DUP2 PUSH1 0x20 ADD JUMPDEST PUSH2 0x1E5A PUSH2 0x2B66 JUMP JUMPDEST DUP2 MSTORE PUSH1 0x20 ADD SWAP1 PUSH1 0x1 SWAP1 SUB SWAP1 DUP2 PUSH2 0x1E52 JUMPI SWAP1 POP JUMPDEST POP SWAP1 POP PUSH0 DUP1 JUMPDEST DUP4 MLOAD DUP2 LT ISZERO PUSH2 0x20A3 JUMPI PUSH0 DUP5 DUP3 DUP2 MLOAD DUP2 LT PUSH2 0x1E90 JUMPI PUSH2 0x1E8F PUSH2 0x3581 JUMP JUMPDEST JUMPDEST PUSH1 0x20 MUL PUSH1 0x20 ADD ADD MLOAD SWAP1 POP PUSH0 DUP1 PUSH0 SWAP1 SLOAD SWAP1 PUSH2 0x100 EXP SWAP1 DIV PUSH20 0xFFFFFFFFFFFFFFFFFFFFFFFFFFFFFFFFFFFFFFFF AND PUSH20 0xFFFFFFFFFFFFFFFFFFFFFFFFFFFFFFFFFFFFFFFF AND PUSH4 0xE947BD8 DUP4 PUSH1 0x40 MLOAD DUP3 PUSH4 0xFFFFFFFF AND PUSH1 0xE0 SHL DUP2 MSTORE PUSH1 0x4 ADD PUSH2 0x1EF4 SWAP2 SWAP1 PUSH2 0x3568 JUMP JUMPDEST PUSH0 PUSH1 0x40 MLOAD DUP1 DUP4 SUB DUP2 DUP7 GAS STATICCALL ISZERO DUP1 ISZERO PUSH2 0x1F0E JUMPI RETURNDATASIZE PUSH0 DUP1 RETURNDATACOPY RETURNDATASIZE PUSH0 REVERT JUMPDEST POP POP POP POP PUSH1 0x40 MLOAD RETURNDATASIZE PUSH0 DUP3 RETURNDATACOPY RETURNDATASIZE PUSH1 0x1F NOT PUSH1 0x1F DUP3 ADD AND DUP3 ADD DUP1 PUSH1 0x40 MSTORE POP DUP2 ADD SWAP1 PUSH2 0x1F36 SWAP2 SWAP1 PUSH2 0x42EA JUMP JUMPDEST SWAP1 POP PUSH2 0x1F45 DUP2 PUSH1 0x20 ADD MLOAD PUSH2 0x2B03 JUMP JUMPDEST ISZERO PUSH2 0x2094 JUMPI PUSH0 DUP1 PUSH0 DUP1 PUSH0 DUP1 PUSH0 SWAP1 SLOAD SWAP1 PUSH2 0x100 EXP SWAP1 DIV PUSH20 0xFFFFFFFFFFFFFFFFFFFFFFFFFFFFFFFFFFFFFFFF AND PUSH20 0xFFFFFFFFFFFFFFFFFFFFFFFFFFFFFFFFFFFFFFFF AND PUSH4 0x3B605047 DUP9 PUSH1 0x40 MLOAD DUP3 PUSH4 0xFFFFFFFF AND PUSH1 0xE0 SHL DUP2 MSTORE PUSH1 0x4 ADD PUSH2 0x1FA8 SWAP2 SWAP1 PUSH2 0x3568 JUMP JUMPDEST PUSH0 PUSH1 0x40 MLOAD DUP1 DUP4 SUB DUP2 DUP7 GAS STATICCALL ISZERO DUP1 ISZERO PUSH2 0x1FC2 JUMPI RETURNDATASIZE PUSH0 DUP1 RETURNDATACOPY RETURNDATASIZE PUSH0 REVERT JUMPDEST POP POP POP POP PUSH1 0x40 MLOAD RETURNDATASIZE PUSH0 DUP3 RETURNDATACOPY RETURNDATASIZE PUSH1 0x1F NOT PUSH1 0x1F DUP3 ADD AND DUP3 ADD DUP1 PUSH1 0x40 MSTORE POP DUP2 ADD SWAP1 PUSH2 0x1FEA SWAP2 SWAP1 PUSH2 0x435B JUMP JUMPDEST POP SWAP6 POP SWAP6 POP SWAP6 POP SWAP6 POP SWAP6 POP POP PUSH1 0x40 MLOAD DUP1 PUSH2 0x140 ADD PUSH1 0x40 MSTORE DUP1 DUP9 PUSH20 0xFFFFFFFFFFFFFFFFFFFFFFFFFFFFFFFFFFFFFFFF AND DUP2 MSTORE PUSH1 0x20 ADD DUP7 DUP2 MSTORE PUSH1 0x20 ADD DUP6 DUP2 MSTORE PUSH1 0x20 ADD DUP3 DUP2 MSTORE PUSH1 0x20 ADD DUP5 DUP2 MSTORE PUSH1 0x20 ADD DUP4 DUP2 MSTORE PUSH1 0x20 ADD DUP8 PUSH1 0x20 ADD MLOAD DUP2 MSTORE PUSH1 0x20 ADD DUP8 PUSH1 0x40 ADD MLOAD DUP2 MSTORE PUSH1 0x20 ADD DUP8 PUSH1 0x60 ADD MLOAD DUP2 MSTORE PUSH1 0x20 ADD DUP8 PUSH1 0x80 ADD MLOAD DUP2 MSTORE POP DUP11 DUP11 DUP2 MLOAD DUP2 LT PUSH2 0x2075 JUMPI PUSH2 0x2074 PUSH2 0x3581 JUMP JUMPDEST JUMPDEST PUSH1 0x20 MUL PUSH1 0x20 ADD ADD DUP2 SWAP1 MSTORE POP DUP9 DUP1 PUSH2 0x208B SWAP1 PUSH2 0x35DB JUMP JUMPDEST SWAP10 POP POP POP POP POP POP POP JUMPDEST POP POP DUP1 DUP1 PUSH1 0x1 ADD SWAP2 POP POP PUSH2 0x1E73 JUMP JUMPDEST POP DUP2 SWAP5 POP POP POP POP POP SWAP1 JUMP JUMPDEST PUSH1 0x3 PUSH1 0x20 MSTORE DUP1 PUSH0 MSTORE PUSH1 0x40 PUSH0 KECCAK256 PUSH0 SWAP2 POP SWAP1 POP DUP1 PUSH0 ADD SLOAD SWAP1 DUP1 PUSH1 0x1 ADD PUSH0 SWAP1 SLOAD SWAP1 PUSH2 0x100 EXP SWAP1 DIV PUSH20 0xFFFFFFFFFFFFFFFFFFFFFFFFFFFFFFFFFFFFFFFF AND SWAP1 DUP1 PUSH1 0x2 ADD PUSH0 SWAP1 SLOAD SWAP1 PUSH2 0x100 EXP SWAP1 DIV PUSH20 0xFFFFFFFFFFFFFFFFFFFFFFFFFFFFFFFFFFFFFFFF AND SWAP1 DUP1 PUSH1 0x3 ADD SLOAD SWAP1 DUP1 PUSH1 0x4 ADD SLOAD SWAP1 DUP1 PUSH1 0x5 ADD SLOAD SWAP1 DUP1 PUSH1 0x6 ADD PUSH0 SWAP1 SLOAD SWAP1 PUSH2 0x100 EXP SWAP1 DIV PUSH1 0xFF AND SWAP1 DUP1 PUSH1 0x7 ADD DUP1 SLOAD PUSH2 0x2141 SWAP1 PUSH2 0x374C JUMP JUMPDEST DUP1 PUSH1 0x1F ADD PUSH1 0x20 DUP1 SWAP2 DIV MUL PUSH1 0x20 ADD PUSH1 0x40 MLOAD SWAP1 DUP2 ADD PUSH1 0x40 MSTORE DUP1 SWAP3 SWAP2 SWAP1 DUP2 DUP2 MSTORE PUSH1 0x20 ADD DUP3 DUP1 SLOAD PUSH2 0x216D SWAP1 PUSH2 0x374C JUMP JUMPDEST DUP1 ISZERO PUSH2 0x21B8 JUMPI DUP1 PUSH1 0x1F LT PUSH2 0x218F JUMPI PUSH2 0x100 DUP1 DUP4 SLOAD DIV MUL DUP4 MSTORE SWAP2 PUSH1 0x20 ADD SWAP2 PUSH2 0x21B8 JUMP JUMPDEST DUP3 ADD SWAP2 SWAP1 PUSH0 MSTORE PUSH1 0x20 PUSH0 KECCAK256 SWAP1 JUMPDEST DUP2 SLOAD DUP2 MSTORE SWAP1 PUSH1 0x1 ADD SWAP1 PUSH1 0x20 ADD DUP1 DUP4 GT PUSH2 0x219B JUMPI DUP3 SWAP1 SUB PUSH1 0x1F AND DUP3 ADD SWAP2 JUMPDEST POP POP POP POP POP SWAP1 DUP1 PUSH1 0x8 ADD SLOAD SWAP1 DUP1 PUSH1 0x9 ADD PUSH0 SWAP1 SLOAD SWAP1 PUSH2 0x100 EXP SWAP1 DIV PUSH1 0xFF AND SWAP1 POP DUP11 JUMP JUMPDEST PUSH1 0x60 PUSH0 PUSH1 0x4 DUP1 SLOAD SWAP1 POP PUSH8 0xFFFFFFFFFFFFFFFF DUP2 GT ISZERO PUSH2 0x21FC JUMPI PUSH2 0x21FB PUSH2 0x36F2 JUMP JUMPDEST JUMPDEST PUSH1 0x40 MLOAD SWAP1 DUP1 DUP3 MSTORE DUP1 PUSH1 0x20 MUL PUSH1 0x20 ADD DUP3 ADD PUSH1 0x40 MSTORE DUP1 ISZERO PUSH2 0x222A JUMPI DUP2 PUSH1 0x20 ADD PUSH1 0x20 DUP3 MUL DUP1 CALLDATASIZE DUP4 CALLDATACOPY DUP1 DUP3 ADD SWAP2 POP POP SWAP1 POP JUMPDEST POP SWAP1 POP PUSH0 DUP1 JUMPDEST PUSH1 0x4 DUP1 SLOAD SWAP1 POP DUP2 LT ISZERO PUSH2 0x239D JUMPI DUP5 PUSH20 0xFFFFFFFFFFFFFFFFFFFFFFFFFFFFFFFFFFFFFFFF AND PUSH1 0x3 PUSH0 PUSH1 0x4 DUP5 DUP2 SLOAD DUP2 LT PUSH2 0x226B JUMPI PUSH2 0x226A PUSH2 0x3581 JUMP JUMPDEST JUMPDEST SWAP1 PUSH0 MSTORE PUSH1 0x20 PUSH0 KECCAK256 ADD SLOAD DUP2 MSTORE PUSH1 0x20 ADD SWAP1 DUP2 MSTORE PUSH1 0x20 ADD PUSH0 KECCAK256 PUSH1 0x1 ADD PUSH0 SWAP1 SLOAD SWAP1 PUSH2 0x100 EXP SWAP1 DIV PUSH20 0xFFFFFFFFFFFFFFFFFFFFFFFFFFFFFFFFFFFFFFFF AND PUSH20 0xFFFFFFFFFFFFFFFFFFFFFFFFFFFFFFFFFFFFFFFF AND EQ DUP1 PUSH2 0x2340 JUMPI POP DUP5 PUSH20 0xFFFFFFFFFFFFFFFFFFFFFFFFFFFFFFFFFFFFFFFF AND PUSH1 0x3 PUSH0 PUSH1 0x4 DUP5 DUP2 SLOAD DUP2 LT PUSH2 0x22EF JUMPI PUSH2 0x22EE PUSH2 0x3581 JUMP JUMPDEST JUMPDEST SWAP1 PUSH0 MSTORE PUSH1 0x20 PUSH0 KECCAK256 ADD SLOAD DUP2 MSTORE PUSH1 0x20 ADD SWAP1 DUP2 MSTORE PUSH1 0x20 ADD PUSH0 KECCAK256 PUSH1 0x2 ADD PUSH0 SWAP1 SLOAD SWAP1 PUSH2 0x100 EXP SWAP1 DIV PUSH20 0xFFFFFFFFFFFFFFFFFFFFFFFFFFFFFFFFFFFFFFFF AND PUSH20 0xFFFFFFFFFFFFFFFFFFFFFFFFFFFFFFFFFFFFFFFF AND EQ JUMPDEST ISZERO PUSH2 0x2390 JUMPI PUSH1 0x4 DUP2 DUP2 SLOAD DUP2 LT PUSH2 0x2359 JUMPI PUSH2 0x2358 PUSH2 0x3581 JUMP JUMPDEST JUMPDEST SWAP1 PUSH0 MSTORE PUSH1 0x20 PUSH0 KECCAK256 ADD SLOAD DUP4 DUP4 DUP2 MLOAD DUP2 LT PUSH2 0x2375 JUMPI PUSH2 0x2374 PUSH2 0x3581 JUMP JUMPDEST JUMPDEST PUSH1 0x20 MUL PUSH1 0x20 ADD ADD DUP2 DUP2 MSTORE POP POP DUP2 DUP1 PUSH2 0x238C SWAP1 PUSH2 0x35DB JUMP JUMPDEST SWAP3 POP POP JUMPDEST DUP1 DUP1 PUSH1 0x1 ADD SWAP2 POP POP PUSH2 0x2230 JUMP JUMPDEST POP PUSH0 DUP2 PUSH8 0xFFFFFFFFFFFFFFFF DUP2 GT ISZERO PUSH2 0x23B9 JUMPI PUSH2 0x23B8 PUSH2 0x36F2 JUMP JUMPDEST JUMPDEST PUSH1 0x40 MLOAD SWAP1 DUP1 DUP3 MSTORE DUP1 PUSH1 0x20 MUL PUSH1 0x20 ADD DUP3 ADD PUSH1 0x40 MSTORE DUP1 ISZERO PUSH2 0x23E7 JUMPI DUP2 PUSH1 0x20 ADD PUSH1 0x20 DUP3 MUL DUP1 CALLDATASIZE DUP4 CALLDATACOPY DUP1 DUP3 ADD SWAP2 POP POP SWAP1 POP JUMPDEST POP SWAP1 POP PUSH0 JUMPDEST DUP3 DUP2 LT ISZERO PUSH2 0x243B JUMPI DUP4 DUP2 DUP2 MLOAD DUP2 LT PUSH2 0x2407 JUMPI PUSH2 0x2406 PUSH2 0x3581 JUMP JUMPDEST JUMPDEST PUSH1 0x20 MUL PUSH1 0x20 ADD ADD MLOAD DUP3 DUP3 DUP2 MLOAD DUP2 LT PUSH2 0x2422 JUMPI PUSH2 0x2421 PUSH2 0x3581 JUMP JUMPDEST JUMPDEST PUSH1 0x20 MUL PUSH1 0x20 ADD ADD DUP2 DUP2 MSTORE POP POP DUP1 DUP1 PUSH1 0x1 ADD SWAP2 POP POP PUSH2 0x23EC JUMP JUMPDEST POP DUP1 SWAP4 POP POP POP POP SWAP2 SWAP1 POP JUMP JUMPDEST PUSH1 0x60 PUSH0 PUSH1 0x4 DUP1 SLOAD SWAP1 POP PUSH8 0xFFFFFFFFFFFFFFFF DUP2 GT ISZERO PUSH2 0x2469 JUMPI PUSH2 0x2468 PUSH2 0x36F2 JUMP JUMPDEST JUMPDEST PUSH1 0x40 MLOAD SWAP1 DUP1 DUP3 MSTORE DUP1 PUSH1 0x20 MUL PUSH1 0x20 ADD DUP3 ADD PUSH1 0x40 MSTORE DUP1 ISZERO PUSH2 0x24A2 JUMPI DUP2 PUSH1 0x20 ADD JUMPDEST PUSH2 0x248F PUSH2 0x2BC7 JUMP JUMPDEST DUP2 MSTORE PUSH1 0x20 ADD SWAP1 PUSH1 0x1 SWAP1 SUB SWAP1 DUP2 PUSH2 0x2487 JUMPI SWAP1 POP JUMPDEST POP SWAP1 POP PUSH0 JUMPDEST PUSH1 0x4 DUP1 SLOAD SWAP1 POP DUP2 LT ISZERO PUSH2 0x26D7 JUMPI PUSH1 0x3 PUSH0 PUSH1 0x4 DUP4 DUP2 SLOAD DUP2 LT PUSH2 0x24CB JUMPI PUSH2 0x24CA PUSH2 0x3581 JUMP JUMPDEST JUMPDEST SWAP1 PUSH0 MSTORE PUSH1 0x20 PUSH0 KECCAK256 ADD SLOAD DUP2 MSTORE PUSH1 0x20 ADD SWAP1 DUP2 MSTORE PUSH1 0x20 ADD PUSH0 KECCAK256 PUSH1 0x40 MLOAD DUP1 PUSH2 0x140 ADD PUSH1 0x40 MSTORE SWAP1 DUP2 PUSH0 DUP3 ADD SLOAD DUP2 MSTORE PUSH1 0x20 ADD PUSH1 0x1 DUP3 ADD PUSH0 SWAP1 SLOAD SWAP1 PUSH2 0x100 EXP SWAP1 DIV PUSH20 0xFFFFFFFFFFFFFFFFFFFFFFFFFFFFFFFFFFFFFFFF AND PUSH20 0xFFFFFFFFFFFFFFFFFFFFFFFFFFFFFFFFFFFFFFFF AND PUSH20 0xFFFFFFFFFFFFFFFFFFFFFFFFFFFFFFFFFFFFFFFF AND DUP2 MSTORE PUSH1 0x20 ADD PUSH1 0x2 DUP3 ADD PUSH0 SWAP1 SLOAD SWAP1 PUSH2 0x100 EXP SWAP1 DIV PUSH20 0xFFFFFFFFFFFFFFFFFFFFFFFFFFFFFFFFFFFFFFFF AND PUSH20 0xFFFFFFFFFFFFFFFFFFFFFFFFFFFFFFFFFFFFFFFF AND PUSH20 0xFFFFFFFFFFFFFFFFFFFFFFFFFFFFFFFFFFFFFFFF AND DUP2 MSTORE PUSH1 0x20 ADD PUSH1 0x3 DUP3 ADD SLOAD DUP2 MSTORE PUSH1 0x20 ADD PUSH1 0x4 DUP3 ADD SLOAD DUP2 MSTORE PUSH1 0x20 ADD PUSH1 0x5 DUP3 ADD SLOAD DUP2 MSTORE PUSH1 0x20 ADD PUSH1 0x6 DUP3 ADD PUSH0 SWAP1 SLOAD SWAP1 PUSH2 0x100 EXP SWAP1 DIV PUSH1 0xFF AND ISZERO ISZERO ISZERO ISZERO DUP2 MSTORE PUSH1 0x20 ADD PUSH1 0x7 DUP3 ADD DUP1 SLOAD PUSH2 0x25E8 SWAP1 PUSH2 0x374C JUMP JUMPDEST DUP1 PUSH1 0x1F ADD PUSH1 0x20 DUP1 SWAP2 DIV MUL PUSH1 0x20 ADD PUSH1 0x40 MLOAD SWAP1 DUP2 ADD PUSH1 0x40 MSTORE DUP1 SWAP3 SWAP2 SWAP1 DUP2 DUP2 MSTORE PUSH1 0x20 ADD DUP3 DUP1 SLOAD PUSH2 0x2614 SWAP1 PUSH2 0x374C JUMP JUMPDEST DUP1 ISZERO PUSH2 0x265F JUMPI DUP1 PUSH1 0x1F LT PUSH2 0x2636 JUMPI PUSH2 0x100 DUP1 DUP4 SLOAD DIV MUL DUP4 MSTORE SWAP2 PUSH1 0x20 ADD SWAP2 PUSH2 0x265F JUMP JUMPDEST DUP3 ADD SWAP2 SWAP1 PUSH0 MSTORE PUSH1 0x20 PUSH0 KECCAK256 SWAP1 JUMPDEST DUP2 SLOAD DUP2 MSTORE SWAP1 PUSH1 0x1 ADD SWAP1 PUSH1 0x20 ADD DUP1 DUP4 GT PUSH2 0x2642 JUMPI DUP3 SWAP1 SUB PUSH1 0x1F AND DUP3 ADD SWAP2 JUMPDEST POP POP POP POP POP DUP2 MSTORE PUSH1 0x20 ADD PUSH1 0x8 DUP3 ADD SLOAD DUP2 MSTORE PUSH1 0x20 ADD PUSH1 0x9 DUP3 ADD PUSH0 SWAP1 SLOAD SWAP1 PUSH2 0x100 EXP SWAP1 DIV PUSH1 0xFF AND PUSH1 0x1 DUP2 GT ISZERO PUSH2 0x2696 JUMPI PUSH2 0x2695 PUSH2 0x3284 JUMP JUMPDEST JUMPDEST PUSH1 0x1 DUP2 GT ISZERO PUSH2 0x26A8 JUMPI PUSH2 0x26A7 PUSH2 0x3284 JUMP JUMPDEST JUMPDEST DUP2 MSTORE POP POP DUP3 DUP3 DUP2 MLOAD DUP2 LT PUSH2 0x26BF JUMPI PUSH2 0x26BE PUSH2 0x3581 JUMP JUMPDEST JUMPDEST PUSH1 0x20 MUL PUSH1 0x20 ADD ADD DUP2 SWAP1 MSTORE POP DUP1 DUP1 PUSH1 0x1 ADD SWAP2 POP POP PUSH2 0x24A7 JUMP JUMPDEST POP DUP1 SWAP2 POP POP SWAP1 JUMP JUMPDEST PUSH1 0x60 PUSH0 PUSH1 0x5 DUP1 SLOAD SWAP1 POP PUSH8 0xFFFFFFFFFFFFFFFF DUP2 GT ISZERO PUSH2 0x2701 JUMPI PUSH2 0x2700 PUSH2 0x36F2 JUMP JUMPDEST JUMPDEST PUSH1 0x40 MLOAD SWAP1 DUP1 DUP3 MSTORE DUP1 PUSH1 0x20 MUL PUSH1 0x20 ADD DUP3 ADD PUSH1 0x40 MSTORE DUP1 ISZERO PUSH2 0x273A JUMPI DUP2 PUSH1 0x20 ADD JUMPDEST PUSH2 0x2727 PUSH2 0x2BC7 JUMP JUMPDEST DUP2 MSTORE PUSH1 0x20 ADD SWAP1 PUSH1 0x1 SWAP1 SUB SWAP1 DUP2 PUSH2 0x271F JUMPI SWAP1 POP JUMPDEST POP SWAP1 POP PUSH0 JUMPDEST PUSH1 0x5 DUP1 SLOAD SWAP1 POP DUP2 LT ISZERO PUSH2 0x296F JUMPI PUSH1 0x3 PUSH0 PUSH1 0x5 DUP4 DUP2 SLOAD DUP2 LT PUSH2 0x2763 JUMPI PUSH2 0x2762 PUSH2 0x3581 JUMP JUMPDEST JUMPDEST SWAP1 PUSH0 MSTORE PUSH1 0x20 PUSH0 KECCAK256 ADD SLOAD DUP2 MSTORE PUSH1 0x20 ADD SWAP1 DUP2 MSTORE PUSH1 0x20 ADD PUSH0 KECCAK256 PUSH1 0x40 MLOAD DUP1 PUSH2 0x140 ADD PUSH1 0x40 MSTORE SWAP1 DUP2 PUSH0 DUP3 ADD SLOAD DUP2 MSTORE PUSH1 0x20 ADD PUSH1 0x1 DUP3 ADD PUSH0 SWAP1 SLOAD SWAP1 PUSH2 0x100 EXP SWAP1 DIV PUSH20 0xFFFFFFFFFFFFFFFFFFFFFFFFFFFFFFFFFFFFFFFF AND PUSH20 0xFFFFFFFFFFFFFFFFFFFFFFFFFFFFFFFFFFFFFFFF AND PUSH20 0xFFFFFFFFFFFFFFFFFFFFFFFFFFFFFFFFFFFFFFFF AND DUP2 MSTORE PUSH1 0x20 ADD PUSH1 0x2 DUP3 ADD PUSH0 SWAP1 SLOAD SWAP1 PUSH2 0x100 EXP SWAP1 DIV PUSH20 0xFFFFFFFFFFFFFFFFFFFFFFFFFFFFFFFFFFFFFFFF AND PUSH20 0xFFFFFFFFFFFFFFFFFFFFFFFFFFFFFFFFFFFFFFFF AND PUSH20 0xFFFFFFFFFFFFFFFFFFFFFFFFFFFFFFFFFFFFFFFF AND DUP2 MSTORE PUSH1 0x20 ADD PUSH1 0x3 DUP3 ADD SLOAD DUP2 MSTORE PUSH1 0x20 ADD PUSH1 0x4 DUP3 ADD SLOAD DUP2 MSTORE PUSH1 0x20 ADD PUSH1 0x5 DUP3 ADD SLOAD DUP2 MSTORE PUSH1 0x20 ADD PUSH1 0x6 DUP3 ADD PUSH0 SWAP1 SLOAD SWAP1 PUSH2 0x100 EXP SWAP1 DIV PUSH1 0xFF AND ISZERO ISZERO ISZERO ISZERO DUP2 MSTORE PUSH1 0x20 ADD PUSH1 0x7 DUP3 ADD DUP1 SLOAD PUSH2 0x2880 SWAP1 PUSH2 0x374C JUMP JUMPDEST DUP1 PUSH1 0x1F ADD PUSH1 0x20 DUP1 SWAP2 DIV MUL PUSH1 0x20 ADD PUSH1 0x40 MLOAD SWAP1 DUP2 ADD PUSH1 0x40 MSTORE DUP1 SWAP3 SWAP2 SWAP1 DUP2 DUP2 MSTORE PUSH1 0x20 ADD DUP3 DUP1 SLOAD PUSH2 0x28AC SWAP1 PUSH2 0x374C JUMP JUMPDEST DUP1 ISZERO PUSH2 0x28F7 JUMPI DUP1 PUSH1 0x1F LT PUSH2 0x28CE JUMPI PUSH2 0x100 DUP1 DUP4 SLOAD DIV MUL DUP4 MSTORE SWAP2 PUSH1 0x20 ADD SWAP2 PUSH2 0x28F7 JUMP JUMPDEST DUP3 ADD SWAP2 SWAP1 PUSH0 MSTORE PUSH1 0x20 PUSH0 KECCAK256 SWAP1 JUMPDEST DUP2 SLOAD DUP2 MSTORE SWAP1 PUSH1 0x1 ADD SWAP1 PUSH1 0x20 ADD DUP1 DUP4 GT PUSH2 0x28DA JUMPI DUP3 SWAP1 SUB PUSH1 0x1F AND DUP3 ADD SWAP2 JUMPDEST POP POP POP POP POP DUP2 MSTORE PUSH1 0x20 ADD PUSH1 0x8 DUP3 ADD SLOAD DUP2 MSTORE PUSH1 0x20 ADD PUSH1 0x9 DUP3 ADD PUSH0 SWAP1 SLOAD SWAP1 PUSH2 0x100 EXP SWAP1 DIV PUSH1 0xFF AND PUSH1 0x1 DUP2 GT ISZERO PUSH2 0x292E JUMPI PUSH2 0x292D PUSH2 0x3284 JUMP JUMPDEST JUMPDEST PUSH1 0x1 DUP2 GT ISZERO PUSH2 0x2940 JUMPI PUSH2 0x293F PUSH2 0x3284 JUMP JUMPDEST JUMPDEST DUP2 MSTORE POP POP DUP3 DUP3 DUP2 MLOAD DUP2 LT PUSH2 0x2957 JUMPI PUSH2 0x2956 PUSH2 0x3581 JUMP JUMPDEST JUMPDEST PUSH1 0x20 MUL PUSH1 0x20 ADD ADD DUP2 SWAP1 MSTORE POP DUP1 DUP1 PUSH1 0x1 ADD SWAP2 POP POP PUSH2 0x273F JUMP JUMPDEST POP DUP1 SWAP2 POP POP SWAP1 JUMP JUMPDEST PUSH0 PUSH1 0x4 DUP1 SLOAD SWAP1 POP SWAP1 POP SWAP1 JUMP JUMPDEST PUSH0 DUP1 PUSH0 SWAP1 SLOAD SWAP1 PUSH2 0x100 EXP SWAP1 DIV PUSH20 0xFFFFFFFFFFFFFFFFFFFFFFFFFFFFFFFFFFFFFFFF AND PUSH20 0xFFFFFFFFFFFFFFFFFFFFFFFFFFFFFFFFFFFFFFFF AND PUSH4 0x3AECD0E3 DUP4 PUSH1 0x40 MLOAD DUP3 PUSH4 0xFFFFFFFF AND PUSH1 0xE0 SHL DUP2 MSTORE PUSH1 0x4 ADD PUSH2 0x29DD SWAP2 SWAP1 PUSH2 0x3568 JUMP JUMPDEST PUSH1 0x20 PUSH1 0x40 MLOAD DUP1 DUP4 SUB DUP2 DUP7 GAS STATICCALL ISZERO DUP1 ISZERO PUSH2 0x29F8 JUMPI RETURNDATASIZE PUSH0 DUP1 RETURNDATACOPY RETURNDATASIZE PUSH0 REVERT JUMPDEST POP POP POP POP PUSH1 0x40 MLOAD RETURNDATASIZE PUSH1 0x1F NOT PUSH1 0x1F DUP3 ADD AND DUP3 ADD DUP1 PUSH1 0x40 MSTORE POP DUP2 ADD SWAP1 PUSH2 0x2A1C SWAP2 SWAP1 PUSH2 0x3D62 JUMP JUMPDEST SWAP1 POP SWAP2 SWAP1 POP JUMP JUMPDEST PUSH1 0x1 PUSH0 SWAP1 SLOAD SWAP1 PUSH2 0x100 EXP SWAP1 DIV PUSH20 0xFFFFFFFFFFFFFFFFFFFFFFFFFFFFFFFFFFFFFFFF AND DUP2 JUMP JUMPDEST PUSH0 JUMPDEST PUSH1 0x4 DUP1 SLOAD SWAP1 POP DUP2 LT ISZERO PUSH2 0x2AFF JUMPI DUP2 PUSH1 0x4 DUP3 DUP2 SLOAD DUP2 LT PUSH2 0x2A6C JUMPI PUSH2 0x2A6B PUSH2 0x3581 JUMP JUMPDEST JUMPDEST SWAP1 PUSH0 MSTORE PUSH1 0x20 PUSH0 KECCAK256 ADD SLOAD SUB PUSH2 0x2AF2 JUMPI PUSH1 0x4 PUSH1 0x1 PUSH1 0x4 DUP1 SLOAD SWAP1 POP PUSH2 0x2A8E SWAP2 SWAP1 PUSH2 0x3FFA JUMP JUMPDEST DUP2 SLOAD DUP2 LT PUSH2 0x2A9F JUMPI PUSH2 0x2A9E PUSH2 0x3581 JUMP JUMPDEST JUMPDEST SWAP1 PUSH0 MSTORE PUSH1 0x20 PUSH0 KECCAK256 ADD SLOAD PUSH1 0x4 DUP3 DUP2 SLOAD DUP2 LT PUSH2 0x2ABC JUMPI PUSH2 0x2ABB PUSH2 0x3581 JUMP JUMPDEST JUMPDEST SWAP1 PUSH0 MSTORE PUSH1 0x20 PUSH0 KECCAK256 ADD DUP2 SWAP1 SSTORE POP PUSH1 0x4 DUP1 SLOAD DUP1 PUSH2 0x2ADA JUMPI PUSH2 0x2AD9 PUSH2 0x4414 JUMP JUMPDEST JUMPDEST PUSH1 0x1 SWAP1 SUB DUP2 DUP2 SWAP1 PUSH0 MSTORE PUSH1 0x20 PUSH0 KECCAK256 ADD PUSH0 SWAP1 SSTORE SWAP1 SSTORE PUSH2 0x2AFF JUMP JUMPDEST DUP1 DUP1 PUSH1 0x1 ADD SWAP2 POP POP PUSH2 0x2A4A JUMP JUMPDEST POP POP JUMP JUMPDEST PUSH0 PUSH32 0x5DEE046A5E178C2C125664EDCCD954BB619D5B27AA642C93DD26F92E65B38EFE DUP3 DUP1 MLOAD SWAP1 PUSH1 0x20 ADD KECCAK256 EQ DUP1 PUSH2 0x2B5F JUMPI POP PUSH32 0xBFD3DB406C10E8C033A404DB0F674B22A7E3EC59D4F38448374F5A3FFAA0E7F7 DUP3 DUP1 MLOAD SWAP1 PUSH1 0x20 ADD KECCAK256 EQ JUMPDEST SWAP1 POP SWAP2 SWAP1 POP JUMP JUMPDEST PUSH1 0x40 MLOAD DUP1 PUSH2 0x140 ADD PUSH1 0x40 MSTORE DUP1 PUSH0 PUSH20 0xFFFFFFFFFFFFFFFFFFFFFFFFFFFFFFFFFFFFFFFF AND DUP2 MSTORE PUSH1 0x20 ADD PUSH1 0x60 DUP2 MSTORE PUSH1 0x20 ADD PUSH0 DUP2 MSTORE PUSH1 0x20 ADD PUSH0 DUP2 MSTORE PUSH1 0x20 ADD PUSH0 DUP2 MSTORE PUSH1 0x20 ADD PUSH0 DUP2 MSTORE PUSH1 0x20 ADD PUSH1 0x60 DUP2 MSTORE PUSH1 0x20 ADD PUSH0 DUP2 MSTORE PUSH1 0x20 ADD PUSH0 DUP2 MSTORE PUSH1 0x20 ADD PUSH0 DUP2 MSTORE POP SWAP1 JUMP JUMPDEST PUSH1 0x40 MLOAD DUP1 PUSH2 0x140 ADD PUSH1 0x40 MSTORE DUP1 PUSH0 DUP2 MSTORE PUSH1 0x20 ADD PUSH0 PUSH20 0xFFFFFFFFFFFFFFFFFFFFFFFFFFFFFFFFFFFFFFFF AND DUP2 MSTORE PUSH1 0x20 ADD PUSH0 PUSH20 0xFFFFFFFFFFFFFFFFFFFFFFFFFFFFFFFFFFFFFFFF AND DUP2 MSTORE PUSH1 0x20 ADD PUSH0 DUP2 MSTORE PUSH1 0x20 ADD PUSH0 DUP2 MSTORE PUSH1 0x20 ADD PUSH0 DUP2 MSTORE PUSH1 0x20 ADD PUSH0 ISZERO ISZERO DUP2 MSTORE PUSH1 0x20 ADD PUSH1 0x60 DUP2 MSTORE PUSH1 0x20 ADD PUSH0 DUP2 MSTORE PUSH1 0x20 ADD PUSH0 PUSH1 0x1 DUP2 GT ISZERO PUSH2 0x2C4B JUMPI PUSH2 0x2C4A PUSH2 0x3284 JUMP JUMPDEST JUMPDEST DUP2 MSTORE POP SWAP1 JUMP JUMPDEST PUSH0 PUSH1 0x40 MLOAD SWAP1 POP SWAP1 JUMP JUMPDEST PUSH0 DUP1 REVERT JUMPDEST PUSH0 DUP1 REVERT JUMPDEST PUSH0 PUSH20 0xFFFFFFFFFFFFFFFFFFFFFFFFFFFFFFFFFFFFFFFF DUP3 AND SWAP1 POP SWAP2 SWAP1 POP JUMP JUMPDEST PUSH0 PUSH2 0x2C8B DUP3 PUSH2 0x2C62 JUMP JUMPDEST SWAP1 POP SWAP2 SWAP1 POP JUMP JUMPDEST PUSH2 0x2C9B DUP2 PUSH2 0x2C81 JUMP JUMPDEST DUP2 EQ PUSH2 0x2CA5 JUMPI PUSH0 DUP1 REVERT JUMPDEST POP JUMP JUMPDEST PUSH0 DUP2 CALLDATALOAD SWAP1 POP PUSH2 0x2CB6 DUP2 PUSH2 0x2C92 JUMP JUMPDEST SWAP3 SWAP2 POP POP JUMP JUMPDEST PUSH0 PUSH1 0x20 DUP3 DUP5 SUB SLT ISZERO PUSH2 0x2CD1 JUMPI PUSH2 0x2CD0 PUSH2 0x2C5A JUMP JUMPDEST JUMPDEST PUSH0 PUSH2 0x2CDE DUP5 DUP3 DUP6 ADD PUSH2 0x2CA8 JUMP JUMPDEST SWAP2 POP POP SWAP3 SWAP2 POP POP JUMP JUMPDEST PUSH0 DUP2 SWAP1 POP SWAP2 SWAP1 POP JUMP JUMPDEST PUSH2 0x2CF9 DUP2 PUSH2 0x2CE7 JUMP JUMPDEST DUP3 MSTORE POP POP JUMP JUMPDEST PUSH0 PUSH1 0x20 DUP3 ADD SWAP1 POP PUSH2 0x2D12 PUSH0 DUP4 ADD DUP5 PUSH2 0x2CF0 JUMP JUMPDEST SWAP3 SWAP2 POP POP JUMP JUMPDEST PUSH2 0x2D21 DUP2 PUSH2 0x2CE7 JUMP JUMPDEST DUP2 EQ PUSH2 0x2D2B JUMPI PUSH0 DUP1 REVERT JUMPDEST POP JUMP JUMPDEST PUSH0 DUP2 CALLDATALOAD SWAP1 POP PUSH2 0x2D3C DUP2 PUSH2 0x2D18 JUMP JUMPDEST SWAP3 SWAP2 POP POP JUMP JUMPDEST PUSH0 DUP2 ISZERO ISZERO SWAP1 POP SWAP2 SWAP1 POP JUMP JUMPDEST PUSH2 0x2D56 DUP2 PUSH2 0x2D42 JUMP JUMPDEST DUP2 EQ PUSH2 0x2D60 JUMPI PUSH0 DUP1 REVERT JUMPDEST POP JUMP JUMPDEST PUSH0 DUP2 CALLDATALOAD SWAP1 POP PUSH2 0x2D71 DUP2 PUSH2 0x2D4D JUMP JUMPDEST SWAP3 SWAP2 POP POP JUMP JUMPDEST PUSH0 DUP1 PUSH1 0x40 DUP4 DUP6 SUB SLT ISZERO PUSH2 0x2D8D JUMPI PUSH2 0x2D8C PUSH2 0x2C5A JUMP JUMPDEST JUMPDEST PUSH0 PUSH2 0x2D9A DUP6 DUP3 DUP7 ADD PUSH2 0x2D2E JUMP JUMPDEST SWAP3 POP POP PUSH1 0x20 PUSH2 0x2DAB DUP6 DUP3 DUP7 ADD PUSH2 0x2D63 JUMP JUMPDEST SWAP2 POP POP SWAP3 POP SWAP3 SWAP1 POP JUMP JUMPDEST PUSH0 PUSH1 0x20 DUP3 DUP5 SUB SLT ISZERO PUSH2 0x2DCA JUMPI PUSH2 0x2DC9 PUSH2 0x2C5A JUMP JUMPDEST JUMPDEST PUSH0 PUSH2 0x2DD7 DUP5 DUP3 DUP6 ADD PUSH2 0x2D2E JUMP JUMPDEST SWAP2 POP POP SWAP3 SWAP2 POP POP JUMP JUMPDEST PUSH0 DUP1 PUSH0 DUP1 PUSH0 DUP1 PUSH1 0xC0 DUP8 DUP10 SUB SLT ISZERO PUSH2 0x2DFA JUMPI PUSH2 0x2DF9 PUSH2 0x2C5A JUMP JUMPDEST JUMPDEST PUSH0 PUSH2 0x2E07 DUP10 DUP3 DUP11 ADD PUSH2 0x2CA8 JUMP JUMPDEST SWAP7 POP POP PUSH1 0x20 PUSH2 0x2E18 DUP10 DUP3 DUP11 ADD PUSH2 0x2CA8 JUMP JUMPDEST SWAP6 POP POP PUSH1 0x40 PUSH2 0x2E29 DUP10 DUP3 DUP11 ADD PUSH2 0x2D2E JUMP JUMPDEST SWAP5 POP POP PUSH1 0x60 PUSH2 0x2E3A DUP10 DUP3 DUP11 ADD PUSH2 0x2D2E JUMP JUMPDEST SWAP4 POP POP PUSH1 0x80 PUSH2 0x2E4B DUP10 DUP3 DUP11 ADD PUSH2 0x2D2E JUMP JUMPDEST SWAP3 POP POP PUSH1 0xA0 PUSH2 0x2E5C DUP10 DUP3 DUP11 ADD PUSH2 0x2D63 JUMP JUMPDEST SWAP2 POP POP SWAP3 SWAP6 POP SWAP3 SWAP6 POP SWAP3 SWAP6 JUMP JUMPDEST PUSH0 DUP2 MLOAD SWAP1 POP SWAP2 SWAP1 POP JUMP JUMPDEST PUSH0 DUP3 DUP3 MSTORE PUSH1 0x20 DUP3 ADD SWAP1 POP SWAP3 SWAP2 POP POP JUMP JUMPDEST PUSH0 DUP2 SWAP1 POP PUSH1 0x20 DUP3 ADD SWAP1 POP SWAP2 SWAP1 POP JUMP JUMPDEST PUSH2 0x2E9B DUP2 PUSH2 0x2CE7 JUMP JUMPDEST DUP3 MSTORE POP POP JUMP JUMPDEST PUSH0 PUSH2 0x2EAC DUP4 DUP4 PUSH2 0x2E92 JUMP JUMPDEST PUSH1 0x20 DUP4 ADD SWAP1 POP SWAP3 SWAP2 POP POP JUMP JUMPDEST PUSH0 PUSH1 0x20 DUP3 ADD SWAP1 POP SWAP2 SWAP1 POP JUMP JUMPDEST PUSH0 PUSH2 0x2ECE DUP3 PUSH2 0x2E69 JUMP JUMPDEST PUSH2 0x2ED8 DUP2 DUP6 PUSH2 0x2E73 JUMP JUMPDEST SWAP4 POP PUSH2 0x2EE3 DUP4 PUSH2 0x2E83 JUMP JUMPDEST DUP1 PUSH0 JUMPDEST DUP4 DUP2 LT ISZERO PUSH2 0x2F13 JUMPI DUP2 MLOAD PUSH2 0x2EFA DUP9 DUP3 PUSH2 0x2EA1 JUMP JUMPDEST SWAP8 POP PUSH2 0x2F05 DUP4 PUSH2 0x2EB8 JUMP JUMPDEST SWAP3 POP POP PUSH1 0x1 DUP2 ADD SWAP1 POP PUSH2 0x2EE6 JUMP JUMPDEST POP DUP6 SWAP4 POP POP POP POP SWAP3 SWAP2 POP POP JUMP JUMPDEST PUSH0 PUSH1 0x20 DUP3 ADD SWAP1 POP DUP2 DUP2 SUB PUSH0 DUP4 ADD MSTORE PUSH2 0x2F38 DUP2 DUP5 PUSH2 0x2EC4 JUMP JUMPDEST SWAP1 POP SWAP3 SWAP2 POP POP JUMP JUMPDEST PUSH0 DUP2 SWAP1 POP SWAP2 SWAP1 POP JUMP JUMPDEST PUSH0 PUSH2 0x2F63 PUSH2 0x2F5E PUSH2 0x2F59 DUP5 PUSH2 0x2C62 JUMP JUMPDEST PUSH2 0x2F40 JUMP JUMPDEST PUSH2 0x2C62 JUMP JUMPDEST SWAP1 POP SWAP2 SWAP1 POP JUMP JUMPDEST PUSH0 PUSH2 0x2F74 DUP3 PUSH2 0x2F49 JUMP JUMPDEST SWAP1 POP SWAP2 SWAP1 POP JUMP JUMPDEST PUSH0 PUSH2 0x2F85 DUP3 PUSH2 0x2F6A JUMP JUMPDEST SWAP1 POP SWAP2 SWAP1 POP JUMP JUMPDEST PUSH2 0x2F95 DUP2 PUSH2 0x2F7B JUMP JUMPDEST DUP3 MSTORE POP POP JUMP JUMPDEST PUSH0 PUSH1 0x20 DUP3 ADD SWAP1 POP PUSH2 0x2FAE PUSH0 DUP4 ADD DUP5 PUSH2 0x2F8C JUMP JUMPDEST SWAP3 SWAP2 POP POP JUMP JUMPDEST PUSH0 DUP2 MLOAD SWAP1 POP SWAP2 SWAP1 POP JUMP JUMPDEST PUSH0 DUP3 DUP3 MSTORE PUSH1 0x20 DUP3 ADD SWAP1 POP SWAP3 SWAP2 POP POP JUMP JUMPDEST PUSH0 DUP2 SWAP1 POP PUSH1 0x20 DUP3 ADD SWAP1 POP SWAP2 SWAP1 POP JUMP JUMPDEST PUSH2 0x2FE6 DUP2 PUSH2 0x2C81 JUMP JUMPDEST DUP3 MSTORE POP POP JUMP JUMPDEST PUSH0 DUP2 MLOAD SWAP1 POP SWAP2 SWAP1 POP JUMP JUMPDEST PUSH0 DUP3 DUP3 MSTORE PUSH1 0x20 DUP3 ADD SWAP1 POP SWAP3 SWAP2 POP POP JUMP JUMPDEST PUSH0 JUMPDEST DUP4 DUP2 LT ISZERO PUSH2 0x3023 JUMPI DUP1 DUP3 ADD MLOAD DUP2 DUP5 ADD MSTORE PUSH1 0x20 DUP2 ADD SWAP1 POP PUSH2 0x3008 JUMP JUMPDEST PUSH0 DUP5 DUP5 ADD MSTORE POP POP POP POP JUMP JUMPDEST PUSH0 PUSH1 0x1F NOT PUSH1 0x1F DUP4 ADD AND SWAP1 POP SWAP2 SWAP1 POP JUMP JUMPDEST PUSH0 PUSH2 0x3048 DUP3 PUSH2 0x2FEC JUMP JUMPDEST PUSH2 0x3052 DUP2 DUP6 PUSH2 0x2FF6 JUMP JUMPDEST SWAP4 POP PUSH2 0x3062 DUP2 DUP6 PUSH1 0x20 DUP7 ADD PUSH2 0x3006 JUMP JUMPDEST PUSH2 0x306B DUP2 PUSH2 0x302E JUMP JUMPDEST DUP5 ADD SWAP2 POP POP SWAP3 SWAP2 POP POP JUMP JUMPDEST PUSH0 DUP2 SWAP1 POP SWAP2 SWAP1 POP JUMP JUMPDEST PUSH2 0x3088 DUP2 PUSH2 0x3076 JUMP JUMPDEST DUP3 MSTORE POP POP JUMP JUMPDEST PUSH0 PUSH2 0x140 DUP4 ADD PUSH0 DUP4 ADD MLOAD PUSH2 0x30A4 PUSH0 DUP7 ADD DUP3 PUSH2 0x2FDD JUMP JUMPDEST POP PUSH1 0x20 DUP4 ADD MLOAD DUP5 DUP3 SUB PUSH1 0x20 DUP7 ADD MSTORE PUSH2 0x30BC DUP3 DUP3 PUSH2 0x303E JUMP JUMPDEST SWAP2 POP POP PUSH1 0x40 DUP4 ADD MLOAD PUSH2 0x30D1 PUSH1 0x40 DUP7 ADD DUP3 PUSH2 0x2E92 JUMP JUMPDEST POP PUSH1 0x60 DUP4 ADD MLOAD PUSH2 0x30E4 PUSH1 0x60 DUP7 ADD DUP3 PUSH2 0x2E92 JUMP JUMPDEST POP PUSH1 0x80 DUP4 ADD MLOAD PUSH2 0x30F7 PUSH1 0x80 DUP7 ADD DUP3 PUSH2 0x307F JUMP JUMPDEST POP PUSH1 0xA0 DUP4 ADD MLOAD PUSH2 0x310A PUSH1 0xA0 DUP7 ADD DUP3 PUSH2 0x307F JUMP JUMPDEST POP PUSH1 0xC0 DUP4 ADD MLOAD DUP5 DUP3 SUB PUSH1 0xC0 DUP7 ADD MSTORE PUSH2 0x3122 DUP3 DUP3 PUSH2 0x303E JUMP JUMPDEST SWAP2 POP POP PUSH1 0xE0 DUP4 ADD MLOAD PUSH2 0x3137 PUSH1 0xE0 DUP7 ADD DUP3 PUSH2 0x2E92 JUMP JUMPDEST POP PUSH2 0x100 DUP4 ADD MLOAD PUSH2 0x314C PUSH2 0x100 DUP7 ADD DUP3 PUSH2 0x2E92 JUMP JUMPDEST POP PUSH2 0x120 DUP4 ADD MLOAD PUSH2 0x3161 PUSH2 0x120 DUP7 ADD DUP3 PUSH2 0x2E92 JUMP JUMPDEST POP DUP1 SWAP2 POP POP SWAP3 SWAP2 POP POP JUMP JUMPDEST PUSH0 PUSH2 0x3177 DUP4 DUP4 PUSH2 0x308E JUMP JUMPDEST SWAP1 POP SWAP3 SWAP2 POP POP JUMP JUMPDEST PUSH0 PUSH1 0x20 DUP3 ADD SWAP1 POP SWAP2 SWAP1 POP JUMP JUMPDEST PUSH0 PUSH2 0x3195 DUP3 PUSH2 0x2FB4 JUMP JUMPDEST PUSH2 0x319F DUP2 DUP6 PUSH2 0x2FBE JUMP JUMPDEST SWAP4 POP DUP4 PUSH1 0x20 DUP3 MUL DUP6 ADD PUSH2 0x31B1 DUP6 PUSH2 0x2FCE JUMP JUMPDEST DUP1 PUSH0 JUMPDEST DUP6 DUP2 LT ISZERO PUSH2 0x31EC JUMPI DUP5 DUP5 SUB DUP10 MSTORE DUP2 MLOAD PUSH2 0x31CD DUP6 DUP3 PUSH2 0x316C JUMP JUMPDEST SWAP5 POP PUSH2 0x31D8 DUP4 PUSH2 0x317F JUMP JUMPDEST SWAP3 POP PUSH1 0x20 DUP11 ADD SWAP10 POP POP PUSH1 0x1 DUP2 ADD SWAP1 POP PUSH2 0x31B4 JUMP JUMPDEST POP DUP3 SWAP8 POP DUP8 SWAP6 POP POP POP POP POP POP SWAP3 SWAP2 POP POP JUMP JUMPDEST PUSH0 PUSH1 0x20 DUP3 ADD SWAP1 POP DUP2 DUP2 SUB PUSH0 DUP4 ADD MSTORE PUSH2 0x3216 DUP2 DUP5 PUSH2 0x318B JUMP JUMPDEST SWAP1 POP SWAP3 SWAP2 POP POP JUMP JUMPDEST PUSH2 0x3227 DUP2 PUSH2 0x2C81 JUMP JUMPDEST DUP3 MSTORE POP POP JUMP JUMPDEST PUSH2 0x3236 DUP2 PUSH2 0x2D42 JUMP JUMPDEST DUP3 MSTORE POP POP JUMP JUMPDEST PUSH0 DUP3 DUP3 MSTORE PUSH1 0x20 DUP3 ADD SWAP1 POP SWAP3 SWAP2 POP POP JUMP JUMPDEST PUSH0 PUSH2 0x3256 DUP3 PUSH2 0x2FEC JUMP JUMPDEST PUSH2 0x3260 DUP2 DUP6 PUSH2 0x323C JUMP JUMPDEST SWAP4 POP PUSH2 0x3270 DUP2 DUP6 PUSH1 0x20 DUP7 ADD PUSH2 0x3006 JUMP JUMPDEST PUSH2 0x3279 DUP2 PUSH2 0x302E JUMP JUMPDEST DUP5 ADD SWAP2 POP POP SWAP3 SWAP2 POP POP JUMP JUMPDEST PUSH32 0x4E487B7100000000000000000000000000000000000000000000000000000000 PUSH0 MSTORE PUSH1 0x21 PUSH1 0x4 MSTORE PUSH1 0x24 PUSH0 REVERT JUMPDEST PUSH1 0x2 DUP2 LT PUSH2 0x32C2 JUMPI PUSH2 0x32C1 PUSH2 0x3284 JUMP JUMPDEST JUMPDEST POP JUMP JUMPDEST PUSH0 DUP2 SWAP1 POP PUSH2 0x32D2 DUP3 PUSH2 0x32B1 JUMP JUMPDEST SWAP2 SWAP1 POP JUMP JUMPDEST PUSH0 PUSH2 0x32E1 DUP3 PUSH2 0x32C5 JUMP JUMPDEST SWAP1 POP SWAP2 SWAP1 POP JUMP JUMPDEST PUSH2 0x32F1 DUP2 PUSH2 0x32D7 JUMP JUMPDEST DUP3 MSTORE POP POP JUMP JUMPDEST PUSH0 PUSH2 0x140 DUP3 ADD SWAP1 POP PUSH2 0x330B PUSH0 DUP4 ADD DUP14 PUSH2 0x2CF0 JUMP JUMPDEST PUSH2 0x3318 PUSH1 0x20 DUP4 ADD DUP13 PUSH2 0x321E JUMP JUMPDEST PUSH2 0x3325 PUSH1 0x40 DUP4 ADD DUP12 PUSH2 0x321E JUMP JUMPDEST PUSH2 0x3332 PUSH1 0x60 DUP4 ADD DUP11 PUSH2 0x2CF0 JUMP JUMPDEST PUSH2 0x333F PUSH1 0x80 DUP4 ADD DUP10 PUSH2 0x2CF0 JUMP JUMPDEST PUSH2 0x334C PUSH1 0xA0 DUP4 ADD DUP9 PUSH2 0x2CF0 JUMP JUMPDEST PUSH2 0x3359 PUSH1 0xC0 DUP4 ADD DUP8 PUSH2 0x322D JUMP JUMPDEST DUP2 DUP2 SUB PUSH1 0xE0 DUP4 ADD MSTORE PUSH2 0x336B DUP2 DUP7 PUSH2 0x324C JUMP JUMPDEST SWAP1 POP PUSH2 0x337B PUSH2 0x100 DUP4 ADD DUP6 PUSH2 0x2CF0 JUMP JUMPDEST PUSH2 0x3389 PUSH2 0x120 DUP4 ADD DUP5 PUSH2 0x32E8 JUMP JUMPDEST SWAP12 SWAP11 POP POP POP POP POP POP POP POP POP POP POP JUMP JUMPDEST PUSH0 DUP2 MLOAD SWAP1 POP SWAP2 SWAP1 POP JUMP JUMPDEST PUSH0 DUP3 DUP3 MSTORE PUSH1 0x20 DUP3 ADD SWAP1 POP SWAP3 SWAP2 POP POP JUMP JUMPDEST PUSH0 DUP2 SWAP1 POP PUSH1 0x20 DUP3 ADD SWAP1 POP SWAP2 SWAP1 POP JUMP JUMPDEST PUSH2 0x33CA DUP2 PUSH2 0x2D42 JUMP JUMPDEST DUP3 MSTORE POP POP JUMP JUMPDEST PUSH2 0x33D9 DUP2 PUSH2 0x32D7 JUMP JUMPDEST DUP3 MSTORE POP POP JUMP JUMPDEST PUSH0 PUSH2 0x140 DUP4 ADD PUSH0 DUP4 ADD MLOAD PUSH2 0x33F5 PUSH0 DUP7 ADD DUP3 PUSH2 0x2E92 JUMP JUMPDEST POP PUSH1 0x20 DUP4 ADD MLOAD PUSH2 0x3408 PUSH1 0x20 DUP7 ADD DUP3 PUSH2 0x2FDD JUMP JUMPDEST POP PUSH1 0x40 DUP4 ADD MLOAD PUSH2 0x341B PUSH1 0x40 DUP7 ADD DUP3 PUSH2 0x2FDD JUMP JUMPDEST POP PUSH1 0x60 DUP4 ADD MLOAD PUSH2 0x342E PUSH1 0x60 DUP7 ADD DUP3 PUSH2 0x2E92 JUMP JUMPDEST POP PUSH1 0x80 DUP4 ADD MLOAD PUSH2 0x3441 PUSH1 0x80 DUP7 ADD DUP3 PUSH2 0x2E92 JUMP JUMPDEST POP PUSH1 0xA0 DUP4 ADD MLOAD PUSH2 0x3454 PUSH1 0xA0 DUP7 ADD DUP3 PUSH2 0x2E92 JUMP JUMPDEST POP PUSH1 0xC0 DUP4 ADD MLOAD PUSH2 0x3467 PUSH1 0xC0 DUP7 ADD DUP3 PUSH2 0x33C1 JUMP JUMPDEST POP PUSH1 0xE0 DUP4 ADD MLOAD DUP5 DUP3 SUB PUSH1 0xE0 DUP7 ADD MSTORE PUSH2 0x347F DUP3 DUP3 PUSH2 0x303E JUMP JUMPDEST SWAP2 POP POP PUSH2 0x100 DUP4 ADD MLOAD PUSH2 0x3496 PUSH2 0x100 DUP7 ADD DUP3 PUSH2 0x2E92 JUMP JUMPDEST POP PUSH2 0x120 DUP4 ADD MLOAD PUSH2 0x34AB PUSH2 0x120 DUP7 ADD DUP3 PUSH2 0x33D0 JUMP JUMPDEST POP DUP1 SWAP2 POP POP SWAP3 SWAP2 POP POP JUMP JUMPDEST PUSH0 PUSH2 0x34C1 DUP4 DUP4 PUSH2 0x33DF JUMP JUMPDEST SWAP1 POP SWAP3 SWAP2 POP POP JUMP JUMPDEST PUSH0 PUSH1 0x20 DUP3 ADD SWAP1 POP SWAP2 SWAP1 POP JUMP JUMPDEST PUSH0 PUSH2 0x34DF DUP3 PUSH2 0x3398 JUMP JUMPDEST PUSH2 0x34E9 DUP2 DUP6 PUSH2 0x33A2 JUMP JUMPDEST SWAP4 POP DUP4 PUSH1 0x20 DUP3 MUL DUP6 ADD PUSH2 0x34FB DUP6 PUSH2 0x33B2 JUMP JUMPDEST DUP1 PUSH0 JUMPDEST DUP6 DUP2 LT ISZERO PUSH2 0x3536 JUMPI DUP5 DUP5 SUB DUP10 MSTORE DUP2 MLOAD PUSH2 0x3517 DUP6 DUP3 PUSH2 0x34B6 JUMP JUMPDEST SWAP5 POP PUSH2 0x3522 DUP4 PUSH2 0x34C9 JUMP JUMPDEST SWAP3 POP PUSH1 0x20 DUP11 ADD SWAP10 POP POP PUSH1 0x1 DUP2 ADD SWAP1 POP PUSH2 0x34FE JUMP JUMPDEST POP DUP3 SWAP8 POP DUP8 SWAP6 POP POP POP POP POP POP SWAP3 SWAP2 POP POP JUMP JUMPDEST PUSH0 PUSH1 0x20 DUP3 ADD SWAP1 POP DUP2 DUP2 SUB PUSH0 DUP4 ADD MSTORE PUSH2 0x3560 DUP2 DUP5 PUSH2 0x34D5 JUMP JUMPDEST SWAP1 POP SWAP3 SWAP2 POP POP JUMP JUMPDEST PUSH0 PUSH1 0x20 DUP3 ADD SWAP1 POP PUSH2 0x357B PUSH0 DUP4 ADD DUP5 PUSH2 0x321E JUMP JUMPDEST SWAP3 SWAP2 POP POP JUMP JUMPDEST PUSH32 0x4E487B7100000000000000000000000000000000000000000000000000000000 PUSH0 MSTORE PUSH1 0x32 PUSH1 0x4 MSTORE PUSH1 0x24 PUSH0 REVERT JUMPDEST PUSH32 0x4E487B7100000000000000000000000000000000000000000000000000000000 PUSH0 MSTORE PUSH1 0x11 PUSH1 0x4 MSTORE PUSH1 0x24 PUSH0 REVERT JUMPDEST PUSH0 PUSH2 0x35E5 DUP3 PUSH2 0x2CE7 JUMP JUMPDEST SWAP2 POP PUSH32 0xFFFFFFFFFFFFFFFFFFFFFFFFFFFFFFFFFFFFFFFFFFFFFFFFFFFFFFFFFFFFFFFF DUP3 SUB PUSH2 0x3617 JUMPI PUSH2 0x3616 PUSH2 0x35AE JUMP JUMPDEST JUMPDEST PUSH1 0x1 DUP3 ADD SWAP1 POP SWAP2 SWAP1 POP JUMP JUMPDEST PUSH32 0x5472616E73616374696F6E20646F6573206E6F742065786973742E0000000000 PUSH0 DUP3 ADD MSTORE POP JUMP JUMPDEST PUSH0 PUSH2 0x3656 PUSH1 0x1B DUP4 PUSH2 0x323C JUMP JUMPDEST SWAP2 POP PUSH2 0x3661 DUP3 PUSH2 0x3622 JUMP JUMPDEST PUSH1 0x20 DUP3 ADD SWAP1 POP SWAP2 SWAP1 POP JUMP JUMPDEST PUSH0 PUSH1 0x20 DUP3 ADD SWAP1 POP DUP2 DUP2 SUB PUSH0 DUP4 ADD MSTORE PUSH2 0x3683 DUP2 PUSH2 0x364A JUMP JUMPDEST SWAP1 POP SWAP2 SWAP1 POP JUMP JUMPDEST PUSH32 0x5472616E73616374696F6E20616C726561647920636F6D6D69747465642E0000 PUSH0 DUP3 ADD MSTORE POP JUMP JUMPDEST PUSH0 PUSH2 0x36BE PUSH1 0x1E DUP4 PUSH2 0x323C JUMP JUMPDEST SWAP2 POP PUSH2 0x36C9 DUP3 PUSH2 0x368A JUMP JUMPDEST PUSH1 0x20 DUP3 ADD SWAP1 POP SWAP2 SWAP1 POP JUMP JUMPDEST PUSH0 PUSH1 0x20 DUP3 ADD SWAP1 POP DUP2 DUP2 SUB PUSH0 DUP4 ADD MSTORE PUSH2 0x36EB DUP2 PUSH2 0x36B2 JUMP JUMPDEST SWAP1 POP SWAP2 SWAP1 POP JUMP JUMPDEST PUSH32 0x4E487B7100000000000000000000000000000000000000000000000000000000 PUSH0 MSTORE PUSH1 0x41 PUSH1 0x4 MSTORE PUSH1 0x24 PUSH0 REVERT JUMPDEST PUSH32 0x4E487B7100000000000000000000000000000000000000000000000000000000 PUSH0 MSTORE PUSH1 0x22 PUSH1 0x4 MSTORE PUSH1 0x24 PUSH0 REVERT JUMPDEST PUSH0 PUSH1 0x2 DUP3 DIV SWAP1 POP PUSH1 0x1 DUP3 AND DUP1 PUSH2 0x3763 JUMPI PUSH1 0x7F DUP3 AND SWAP2 POP JUMPDEST PUSH1 0x20 DUP3 LT DUP2 SUB PUSH2 0x3776 JUMPI PUSH2 0x3775 PUSH2 0x371F JUMP JUMPDEST JUMPDEST POP SWAP2 SWAP1 POP JUMP JUMPDEST PUSH0 DUP2 SWAP1 POP DUP2 PUSH0 MSTORE PUSH1 0x20 PUSH0 KECCAK256 SWAP1 POP SWAP2 SWAP1 POP JUMP JUMPDEST PUSH0 PUSH1 0x20 PUSH1 0x1F DUP4 ADD DIV SWAP1 POP SWAP2 SWAP1 POP JUMP JUMPDEST PUSH0 DUP3 DUP3 SHL SWAP1 POP SWAP3 SWAP2 POP POP JUMP JUMPDEST PUSH0 PUSH1 0x8 DUP4 MUL PUSH2 0x37D8 PUSH32 0xFFFFFFFFFFFFFFFFFFFFFFFFFFFFFFFFFFFFFFFFFFFFFFFFFFFFFFFFFFFFFFFF DUP3 PUSH2 0x379D JUMP JUMPDEST PUSH2 0x37E2 DUP7 DUP4 PUSH2 0x379D JUMP JUMPDEST SWAP6 POP DUP1 NOT DUP5 AND SWAP4 POP DUP1 DUP7 AND DUP5 OR SWAP3 POP POP POP SWAP4 SWAP3 POP POP POP JUMP JUMPDEST PUSH0 PUSH2 0x3814 PUSH2 0x380F PUSH2 0x380A DUP5 PUSH2 0x2CE7 JUMP JUMPDEST PUSH2 0x2F40 JUMP JUMPDEST PUSH2 0x2CE7 JUMP JUMPDEST SWAP1 POP SWAP2 SWAP1 POP JUMP JUMPDEST PUSH0 DUP2 SWAP1 POP SWAP2 SWAP1 POP JUMP JUMPDEST PUSH2 0x382D DUP4 PUSH2 0x37FA JUMP JUMPDEST PUSH2 0x3841 PUSH2 0x3839 DUP3 PUSH2 0x381B JUMP JUMPDEST DUP5 DUP5 SLOAD PUSH2 0x37A9 JUMP JUMPDEST DUP3 SSTORE POP POP POP POP JUMP JUMPDEST PUSH0 SWAP1 JUMP JUMPDEST PUSH2 0x3855 PUSH2 0x3849 JUMP JUMPDEST PUSH2 0x3860 DUP2 DUP5 DUP5 PUSH2 0x3824 JUMP JUMPDEST POP POP POP JUMP JUMPDEST JUMPDEST DUP2 DUP2 LT ISZERO PUSH2 0x3883 JUMPI PUSH2 0x3878 PUSH0 DUP3 PUSH2 0x384D JUMP JUMPDEST PUSH1 0x1 DUP2 ADD SWAP1 POP PUSH2 0x3866 JUMP JUMPDEST POP POP JUMP JUMPDEST PUSH1 0x1F DUP3 GT ISZERO PUSH2 0x38C8 JUMPI PUSH2 0x3899 DUP2 PUSH2 0x377C JUMP JUMPDEST PUSH2 0x38A2 DUP5 PUSH2 0x378E JUMP JUMPDEST DUP2 ADD PUSH1 0x20 DUP6 LT ISZERO PUSH2 0x38B1 JUMPI DUP2 SWAP1 POP JUMPDEST PUSH2 0x38C5 PUSH2 0x38BD DUP6 PUSH2 0x378E JUMP JUMPDEST DUP4 ADD DUP3 PUSH2 0x3865 JUMP JUMPDEST POP POP JUMPDEST POP POP POP JUMP JUMPDEST PUSH0 DUP3 DUP3 SHR SWAP1 POP SWAP3 SWAP2 POP POP JUMP JUMPDEST PUSH0 PUSH2 0x38E8 PUSH0 NOT DUP5 PUSH1 0x8 MUL PUSH2 0x38CD JUMP JUMPDEST NOT DUP1 DUP4 AND SWAP2 POP POP SWAP3 SWAP2 POP POP JUMP JUMPDEST PUSH0 PUSH2 0x3900 DUP4 DUP4 PUSH2 0x38D9 JUMP JUMPDEST SWAP2 POP DUP3 PUSH1 0x2 MUL DUP3 OR SWAP1 POP SWAP3 SWAP2 POP POP JUMP JUMPDEST PUSH2 0x3919 DUP3 PUSH2 0x2FEC JUMP JUMPDEST PUSH8 0xFFFFFFFFFFFFFFFF DUP2 GT ISZERO PUSH2 0x3932 JUMPI PUSH2 0x3931 PUSH2 0x36F2 JUMP JUMPDEST JUMPDEST PUSH2 0x393C DUP3 SLOAD PUSH2 0x374C JUMP JUMPDEST PUSH2 0x3947 DUP3 DUP3 DUP6 PUSH2 0x3887 JUMP JUMPDEST PUSH0 PUSH1 0x20 SWAP1 POP PUSH1 0x1F DUP4 GT PUSH1 0x1 DUP2 EQ PUSH2 0x3978 JUMPI PUSH0 DUP5 ISZERO PUSH2 0x3966 JUMPI DUP3 DUP8 ADD MLOAD SWAP1 POP JUMPDEST PUSH2 0x3970 DUP6 DUP3 PUSH2 0x38F5 JUMP JUMPDEST DUP7 SSTORE POP PUSH2 0x39D7 JUMP JUMPDEST PUSH1 0x1F NOT DUP5 AND PUSH2 0x3986 DUP7 PUSH2 0x377C JUMP JUMPDEST PUSH0 JUMPDEST DUP3 DUP2 LT ISZERO PUSH2 0x39AD JUMPI DUP5 DUP10 ADD MLOAD DUP3 SSTORE PUSH1 0x1 DUP3 ADD SWAP2 POP PUSH1 0x20 DUP6 ADD SWAP5 POP PUSH1 0x20 DUP2 ADD SWAP1 POP PUSH2 0x3988 JUMP JUMPDEST DUP7 DUP4 LT ISZERO PUSH2 0x39CA JUMPI DUP5 DUP10 ADD MLOAD PUSH2 0x39C6 PUSH1 0x1F DUP10 AND DUP3 PUSH2 0x38D9 JUMP JUMPDEST DUP4 SSTORE POP JUMPDEST PUSH1 0x1 PUSH1 0x2 DUP9 MUL ADD DUP9 SSTORE POP POP POP JUMPDEST POP POP POP POP POP POP JUMP JUMPDEST PUSH32 0x52656A65637465642064756520746F2065787069726174696F6E000000000000 PUSH0 DUP3 ADD MSTORE POP JUMP JUMPDEST PUSH0 PUSH2 0x3A13 PUSH1 0x1A DUP4 PUSH2 0x323C JUMP JUMPDEST SWAP2 POP PUSH2 0x3A1E DUP3 PUSH2 0x39DF JUMP JUMPDEST PUSH1 0x20 DUP3 ADD SWAP1 POP SWAP2 SWAP1 POP JUMP JUMPDEST PUSH0 PUSH1 0x60 DUP3 ADD SWAP1 POP PUSH2 0x3A3C PUSH0 DUP4 ADD DUP6 PUSH2 0x2CF0 JUMP JUMPDEST PUSH2 0x3A49 PUSH1 0x20 DUP4 ADD DUP5 PUSH2 0x322D JUMP JUMPDEST DUP2 DUP2 SUB PUSH1 0x40 DUP4 ADD MSTORE PUSH2 0x3A5A DUP2 PUSH2 0x3A07 JUMP JUMPDEST SWAP1 POP SWAP4 SWAP3 POP POP POP JUMP JUMPDEST PUSH0 PUSH1 0x60 DUP3 ADD SWAP1 POP PUSH2 0x3A76 PUSH0 DUP4 ADD DUP7 PUSH2 0x321E JUMP JUMPDEST PUSH2 0x3A83 PUSH1 0x20 DUP4 ADD DUP6 PUSH2 0x321E JUMP JUMPDEST PUSH2 0x3A90 PUSH1 0x40 DUP4 ADD DUP5 PUSH2 0x2CF0 JUMP JUMPDEST SWAP5 SWAP4 POP POP POP POP JUMP JUMPDEST PUSH0 PUSH1 0x60 DUP3 ADD SWAP1 POP PUSH2 0x3AAB PUSH0 DUP4 ADD DUP7 PUSH2 0x321E JUMP JUMPDEST PUSH2 0x3AB8 PUSH1 0x20 DUP4 ADD DUP6 PUSH2 0x2CF0 JUMP JUMPDEST PUSH2 0x3AC5 PUSH1 0x40 DUP4 ADD DUP5 PUSH2 0x322D JUMP JUMPDEST SWAP5 SWAP4 POP POP POP POP JUMP JUMPDEST PUSH0 DUP2 SLOAD PUSH2 0x3AD9 DUP2 PUSH2 0x374C JUMP JUMPDEST PUSH2 0x3AE3 DUP2 DUP7 PUSH2 0x323C JUMP JUMPDEST SWAP5 POP PUSH1 0x1 DUP3 AND PUSH0 DUP2 EQ PUSH2 0x3AFD JUMPI PUSH1 0x1 DUP2 EQ PUSH2 0x3B13 JUMPI PUSH2 0x3B45 JUMP JUMPDEST PUSH1 0xFF NOT DUP4 AND DUP7 MSTORE DUP2 ISZERO ISZERO PUSH1 0x20 MUL DUP7 ADD SWAP4 POP PUSH2 0x3B45 JUMP JUMPDEST PUSH2 0x3B1C DUP6 PUSH2 0x377C JUMP JUMPDEST PUSH0 JUMPDEST DUP4 DUP2 LT ISZERO PUSH2 0x3B3D JUMPI DUP2 SLOAD DUP2 DUP10 ADD MSTORE PUSH1 0x1 DUP3 ADD SWAP2 POP PUSH1 0x20 DUP2 ADD SWAP1 POP PUSH2 0x3B1E JUMP JUMPDEST DUP1 DUP9 ADD SWAP6 POP POP POP JUMPDEST POP POP POP SWAP3 SWAP2 POP POP JUMP JUMPDEST PUSH0 PUSH1 0x60 DUP3 ADD SWAP1 POP PUSH2 0x3B61 PUSH0 DUP4 ADD DUP7 PUSH2 0x2CF0 JUMP JUMPDEST PUSH2 0x3B6E PUSH1 0x20 DUP4 ADD DUP6 PUSH2 0x322D JUMP JUMPDEST DUP2 DUP2 SUB PUSH1 0x40 DUP4 ADD MSTORE PUSH2 0x3B80 DUP2 DUP5 PUSH2 0x3ACD JUMP JUMPDEST SWAP1 POP SWAP5 SWAP4 POP POP POP POP JUMP JUMPDEST PUSH0 PUSH1 0x40 DUP3 ADD SWAP1 POP PUSH2 0x3B9D PUSH0 DUP4 ADD DUP6 PUSH2 0x321E JUMP JUMPDEST PUSH2 0x3BAA PUSH1 0x20 DUP4 ADD DUP5 PUSH2 0x2CF0 JUMP JUMPDEST SWAP4 SWAP3 POP POP POP JUMP JUMPDEST PUSH0 DUP2 MLOAD SWAP1 POP PUSH2 0x3BBF DUP2 PUSH2 0x2D4D JUMP JUMPDEST SWAP3 SWAP2 POP POP JUMP JUMPDEST PUSH0 PUSH1 0x20 DUP3 DUP5 SUB SLT ISZERO PUSH2 0x3BDA JUMPI PUSH2 0x3BD9 PUSH2 0x2C5A JUMP JUMPDEST JUMPDEST PUSH0 PUSH2 0x3BE7 DUP5 DUP3 DUP6 ADD PUSH2 0x3BB1 JUMP JUMPDEST SWAP2 POP POP SWAP3 SWAP2 POP POP JUMP JUMPDEST PUSH32 0x496E69746961746F72206973206E6F7420726567697374657265642E00000000 PUSH0 DUP3 ADD MSTORE POP JUMP JUMPDEST PUSH0 PUSH2 0x3C24 PUSH1 0x1C DUP4 PUSH2 0x323C JUMP JUMPDEST SWAP2 POP PUSH2 0x3C2F DUP3 PUSH2 0x3BF0 JUMP JUMPDEST PUSH1 0x20 DUP3 ADD SWAP1 POP SWAP2 SWAP1 POP JUMP JUMPDEST PUSH0 PUSH1 0x20 DUP3 ADD SWAP1 POP DUP2 DUP2 SUB PUSH0 DUP4 ADD MSTORE PUSH2 0x3C51 DUP2 PUSH2 0x3C18 JUMP JUMPDEST SWAP1 POP SWAP2 SWAP1 POP JUMP JUMPDEST PUSH32 0x5265636569766572206973206E6F7420726567697374657265642E0000000000 PUSH0 DUP3 ADD MSTORE POP JUMP JUMPDEST PUSH0 PUSH2 0x3C8C PUSH1 0x1B DUP4 PUSH2 0x323C JUMP JUMPDEST SWAP2 POP PUSH2 0x3C97 DUP3 PUSH2 0x3C58 JUMP JUMPDEST PUSH1 0x20 DUP3 ADD SWAP1 POP SWAP2 SWAP1 POP JUMP JUMPDEST PUSH0 PUSH1 0x20 DUP3 ADD SWAP1 POP DUP2 DUP2 SUB PUSH0 DUP4 ADD MSTORE PUSH2 0x3CB9 DUP2 PUSH2 0x3C80 JUMP JUMPDEST SWAP1 POP SWAP2 SWAP1 POP JUMP JUMPDEST PUSH32 0x5472616E73616374696F6E2065787069726174696F6E206D7573742062652069 PUSH0 DUP3 ADD MSTORE PUSH32 0x6E20746865206675747572652E00000000000000000000000000000000000000 PUSH1 0x20 DUP3 ADD MSTORE POP JUMP JUMPDEST PUSH0 PUSH2 0x3D1A PUSH1 0x2D DUP4 PUSH2 0x323C JUMP JUMPDEST SWAP2 POP PUSH2 0x3D25 DUP3 PUSH2 0x3CC0 JUMP JUMPDEST PUSH1 0x40 DUP3 ADD SWAP1 POP SWAP2 SWAP1 POP JUMP JUMPDEST PUSH0 PUSH1 0x20 DUP3 ADD SWAP1 POP DUP2 DUP2 SUB PUSH0 DUP4 ADD MSTORE PUSH2 0x3D47 DUP2 PUSH2 0x3D0E JUMP JUMPDEST SWAP1 POP SWAP2 SWAP1 POP JUMP JUMPDEST PUSH0 DUP2 MLOAD SWAP1 POP PUSH2 0x3D5C DUP2 PUSH2 0x2D18 JUMP JUMPDEST SWAP3 SWAP2 POP POP JUMP JUMPDEST PUSH0 PUSH1 0x20 DUP3 DUP5 SUB SLT ISZERO PUSH2 0x3D77 JUMPI PUSH2 0x3D76 PUSH2 0x2C5A JUMP JUMPDEST JUMPDEST PUSH0 PUSH2 0x3D84 DUP5 DUP3 DUP6 ADD PUSH2 0x3D4E JUMP JUMPDEST SWAP2 POP POP SWAP3 SWAP2 POP POP JUMP JUMPDEST PUSH32 0x53656E6465722068617320696E73756666696369656E7420746F6B656E732066 PUSH0 DUP3 ADD MSTORE PUSH32 0x6F72207472616E73616374696F6E2E0000000000000000000000000000000000 PUSH1 0x20 DUP3 ADD MSTORE POP JUMP JUMPDEST PUSH0 PUSH2 0x3DE7 PUSH1 0x2F DUP4 PUSH2 0x323C JUMP JUMPDEST SWAP2 POP PUSH2 0x3DF2 DUP3 PUSH2 0x3D8D JUMP JUMPDEST PUSH1 0x40 DUP3 ADD SWAP1 POP SWAP2 SWAP1 POP JUMP JUMPDEST PUSH0 PUSH1 0x20 DUP3 ADD SWAP1 POP DUP2 DUP2 SUB PUSH0 DUP4 ADD MSTORE PUSH2 0x3E14 DUP2 PUSH2 0x3DDB JUMP JUMPDEST SWAP1 POP SWAP2 SWAP1 POP JUMP JUMPDEST PUSH32 0x526563656976657220646F6573206E6F74206861766520656E6F75676820656E PUSH0 DUP3 ADD MSTORE PUSH32 0x657267792E000000000000000000000000000000000000000000000000000000 PUSH1 0x20 DUP3 ADD MSTORE POP JUMP JUMPDEST PUSH0 PUSH2 0x3E75 PUSH1 0x25 DUP4 PUSH2 0x323C JUMP JUMPDEST SWAP2 POP PUSH2 0x3E80 DUP3 PUSH2 0x3E1B JUMP JUMPDEST PUSH1 0x40 DUP3 ADD SWAP1 POP SWAP2 SWAP1 POP JUMP JUMPDEST PUSH0 PUSH1 0x20 DUP3 ADD SWAP1 POP DUP2 DUP2 SUB PUSH0 DUP4 ADD MSTORE PUSH2 0x3EA2 DUP2 PUSH2 0x3E69 JUMP JUMPDEST SWAP1 POP SWAP2 SWAP1 POP JUMP JUMPDEST PUSH32 0x53656E6465722068617320696E73756666696369656E7420656E657267792066 PUSH0 DUP3 ADD MSTORE PUSH32 0x6F72207472616E73616374696F6E2E0000000000000000000000000000000000 PUSH1 0x20 DUP3 ADD MSTORE POP JUMP JUMPDEST PUSH0 PUSH2 0x3F03 PUSH1 0x2F DUP4 PUSH2 0x323C JUMP JUMPDEST SWAP2 POP PUSH2 0x3F0E DUP3 PUSH2 0x3EA9 JUMP JUMPDEST PUSH1 0x40 DUP3 ADD SWAP1 POP SWAP2 SWAP1 POP JUMP JUMPDEST PUSH0 PUSH1 0x20 DUP3 ADD SWAP1 POP DUP2 DUP2 SUB PUSH0 DUP4 ADD MSTORE PUSH2 0x3F30 DUP2 PUSH2 0x3EF7 JUMP JUMPDEST SWAP1 POP SWAP2 SWAP1 POP JUMP JUMPDEST PUSH32 0x52656365697665722068617320696E73756666696369656E7420746F6B656E73 PUSH0 DUP3 ADD MSTORE PUSH32 0x20666F72207472616E73616374696F6E2E000000000000000000000000000000 PUSH1 0x20 DUP3 ADD MSTORE POP JUMP JUMPDEST PUSH0 PUSH2 0x3F91 PUSH1 0x31 DUP4 PUSH2 0x323C JUMP JUMPDEST SWAP2 POP PUSH2 0x3F9C DUP3 PUSH2 0x3F37 JUMP JUMPDEST PUSH1 0x40 DUP3 ADD SWAP1 POP SWAP2 SWAP1 POP JUMP JUMPDEST PUSH0 PUSH1 0x20 DUP3 ADD SWAP1 POP DUP2 DUP2 SUB PUSH0 DUP4 ADD MSTORE PUSH2 0x3FBE DUP2 PUSH2 0x3F85 JUMP JUMPDEST SWAP1 POP SWAP2 SWAP1 POP JUMP JUMPDEST PUSH0 PUSH1 0x60 DUP3 ADD SWAP1 POP PUSH2 0x3FD8 PUSH0 DUP4 ADD DUP7 PUSH2 0x2CF0 JUMP JUMPDEST PUSH2 0x3FE5 PUSH1 0x20 DUP4 ADD DUP6 PUSH2 0x321E JUMP JUMPDEST PUSH2 0x3FF2 PUSH1 0x40 DUP4 ADD DUP5 PUSH2 0x32E8 JUMP JUMPDEST SWAP5 SWAP4 POP POP POP POP JUMP JUMPDEST PUSH0 PUSH2 0x4004 DUP3 PUSH2 0x2CE7 JUMP JUMPDEST SWAP2 POP PUSH2 0x400F DUP4 PUSH2 0x2CE7 JUMP JUMPDEST SWAP3 POP DUP3 DUP3 SUB SWAP1 POP DUP2 DUP2 GT ISZERO PUSH2 0x4027 JUMPI PUSH2 0x4026 PUSH2 0x35AE JUMP JUMPDEST JUMPDEST SWAP3 SWAP2 POP POP JUMP JUMPDEST PUSH0 DUP1 REVERT JUMPDEST PUSH2 0x403A DUP3 PUSH2 0x302E JUMP JUMPDEST DUP2 ADD DUP2 DUP2 LT PUSH8 0xFFFFFFFFFFFFFFFF DUP3 GT OR ISZERO PUSH2 0x4059 JUMPI PUSH2 0x4058 PUSH2 0x36F2 JUMP JUMPDEST JUMPDEST DUP1 PUSH1 0x40 MSTORE POP POP POP JUMP JUMPDEST PUSH0 PUSH2 0x406B PUSH2 0x2C51 JUMP JUMPDEST SWAP1 POP PUSH2 0x4077 DUP3 DUP3 PUSH2 0x4031 JUMP JUMPDEST SWAP2 SWAP1 POP JUMP JUMPDEST PUSH0 PUSH8 0xFFFFFFFFFFFFFFFF DUP3 GT ISZERO PUSH2 0x4096 JUMPI PUSH2 0x4095 PUSH2 0x36F2 JUMP JUMPDEST JUMPDEST PUSH1 0x20 DUP3 MUL SWAP1 POP PUSH1 0x20 DUP2 ADD SWAP1 POP SWAP2 SWAP1 POP JUMP JUMPDEST PUSH0 DUP1 REVERT JUMPDEST PUSH0 DUP2 MLOAD SWAP1 POP PUSH2 0x40B9 DUP2 PUSH2 0x2C92 JUMP JUMPDEST SWAP3 SWAP2 POP POP JUMP JUMPDEST PUSH0 PUSH2 0x40D1 PUSH2 0x40CC DUP5 PUSH2 0x407C JUMP JUMPDEST PUSH2 0x4062 JUMP JUMPDEST SWAP1 POP DUP1 DUP4 DUP3 MSTORE PUSH1 0x20 DUP3 ADD SWAP1 POP PUSH1 0x20 DUP5 MUL DUP4 ADD DUP6 DUP2 GT ISZERO PUSH2 0x40F4 JUMPI PUSH2 0x40F3 PUSH2 0x40A7 JUMP JUMPDEST JUMPDEST DUP4 JUMPDEST DUP2 DUP2 LT ISZERO PUSH2 0x411D JUMPI DUP1 PUSH2 0x4109 DUP9 DUP3 PUSH2 0x40AB JUMP JUMPDEST DUP5 MSTORE PUSH1 0x20 DUP5 ADD SWAP4 POP POP PUSH1 0x20 DUP2 ADD SWAP1 POP PUSH2 0x40F6 JUMP JUMPDEST POP POP POP SWAP4 SWAP3 POP POP POP JUMP JUMPDEST PUSH0 DUP3 PUSH1 0x1F DUP4 ADD SLT PUSH2 0x413B JUMPI PUSH2 0x413A PUSH2 0x402D JUMP JUMPDEST JUMPDEST DUP2 MLOAD PUSH2 0x414B DUP5 DUP3 PUSH1 0x20 DUP7 ADD PUSH2 0x40BF JUMP JUMPDEST SWAP2 POP POP SWAP3 SWAP2 POP POP JUMP JUMPDEST PUSH0 PUSH1 0x20 DUP3 DUP5 SUB SLT ISZERO PUSH2 0x4169 JUMPI PUSH2 0x4168 PUSH2 0x2C5A JUMP JUMPDEST JUMPDEST PUSH0 DUP3 ADD MLOAD PUSH8 0xFFFFFFFFFFFFFFFF DUP2 GT ISZERO PUSH2 0x4186 JUMPI PUSH2 0x4185 PUSH2 0x2C5E JUMP JUMPDEST JUMPDEST PUSH2 0x4192 DUP5 DUP3 DUP6 ADD PUSH2 0x4127 JUMP JUMPDEST SWAP2 POP POP SWAP3 SWAP2 POP POP JUMP JUMPDEST PUSH0 DUP1 REVERT JUMPDEST PUSH0 DUP1 REVERT JUMPDEST PUSH0 DUP1 REVERT JUMPDEST PUSH0 PUSH8 0xFFFFFFFFFFFFFFFF DUP3 GT ISZERO PUSH2 0x41C1 JUMPI PUSH2 0x41C0 PUSH2 0x36F2 JUMP JUMPDEST JUMPDEST PUSH2 0x41CA DUP3 PUSH2 0x302E JUMP JUMPDEST SWAP1 POP PUSH1 0x20 DUP2 ADD SWAP1 POP SWAP2 SWAP1 POP JUMP JUMPDEST PUSH0 PUSH2 0x41E9 PUSH2 0x41E4 DUP5 PUSH2 0x41A7 JUMP JUMPDEST PUSH2 0x4062 JUMP JUMPDEST SWAP1 POP DUP3 DUP2 MSTORE PUSH1 0x20 DUP2 ADD DUP5 DUP5 DUP5 ADD GT ISZERO PUSH2 0x4205 JUMPI PUSH2 0x4204 PUSH2 0x41A3 JUMP JUMPDEST JUMPDEST PUSH2 0x4210 DUP5 DUP3 DUP6 PUSH2 0x3006 JUMP JUMPDEST POP SWAP4 SWAP3 POP POP POP JUMP JUMPDEST PUSH0 DUP3 PUSH1 0x1F DUP4 ADD SLT PUSH2 0x422C JUMPI PUSH2 0x422B PUSH2 0x402D JUMP JUMPDEST JUMPDEST DUP2 MLOAD PUSH2 0x423C DUP5 DUP3 PUSH1 0x20 DUP7 ADD PUSH2 0x41D7 JUMP JUMPDEST SWAP2 POP POP SWAP3 SWAP2 POP POP JUMP JUMPDEST PUSH0 PUSH1 0xA0 DUP3 DUP5 SUB SLT ISZERO PUSH2 0x425A JUMPI PUSH2 0x4259 PUSH2 0x419B JUMP JUMPDEST JUMPDEST PUSH2 0x4264 PUSH1 0xA0 PUSH2 0x4062 JUMP JUMPDEST SWAP1 POP PUSH0 PUSH2 0x4273 DUP5 DUP3 DUP6 ADD PUSH2 0x40AB JUMP JUMPDEST PUSH0 DUP4 ADD MSTORE POP PUSH1 0x20 DUP3 ADD MLOAD PUSH8 0xFFFFFFFFFFFFFFFF DUP2 GT ISZERO PUSH2 0x4296 JUMPI PUSH2 0x4295 PUSH2 0x419F JUMP JUMPDEST JUMPDEST PUSH2 0x42A2 DUP5 DUP3 DUP6 ADD PUSH2 0x4218 JUMP JUMPDEST PUSH1 0x20 DUP4 ADD MSTORE POP PUSH1 0x40 PUSH2 0x42B6 DUP5 DUP3 DUP6 ADD PUSH2 0x3D4E JUMP JUMPDEST PUSH1 0x40 DUP4 ADD MSTORE POP PUSH1 0x60 PUSH2 0x42CA DUP5 DUP3 DUP6 ADD PUSH2 0x3D4E JUMP JUMPDEST PUSH1 0x60 DUP4 ADD MSTORE POP PUSH1 0x80 PUSH2 0x42DE DUP5 DUP3 DUP6 ADD PUSH2 0x3D4E JUMP JUMPDEST PUSH1 0x80 DUP4 ADD MSTORE POP SWAP3 SWAP2 POP POP JUMP JUMPDEST PUSH0 PUSH1 0x20 DUP3 DUP5 SUB SLT ISZERO PUSH2 0x42FF JUMPI PUSH2 0x42FE PUSH2 0x2C5A JUMP JUMPDEST JUMPDEST PUSH0 DUP3 ADD MLOAD PUSH8 0xFFFFFFFFFFFFFFFF DUP2 GT ISZERO PUSH2 0x431C JUMPI PUSH2 0x431B PUSH2 0x2C5E JUMP JUMPDEST JUMPDEST PUSH2 0x4328 DUP5 DUP3 DUP6 ADD PUSH2 0x4245 JUMP JUMPDEST SWAP2 POP POP SWAP3 SWAP2 POP POP JUMP JUMPDEST PUSH2 0x433A DUP2 PUSH2 0x3076 JUMP JUMPDEST DUP2 EQ PUSH2 0x4344 JUMPI PUSH0 DUP1 REVERT JUMPDEST POP JUMP JUMPDEST PUSH0 DUP2 MLOAD SWAP1 POP PUSH2 0x4355 DUP2 PUSH2 0x4331 JUMP JUMPDEST SWAP3 SWAP2 POP POP JUMP JUMPDEST PUSH0 DUP1 PUSH0 DUP1 PUSH0 DUP1 PUSH0 PUSH1 0xE0 DUP9 DUP11 SUB SLT ISZERO PUSH2 0x4376 JUMPI PUSH2 0x4375 PUSH2 0x2C5A JUMP JUMPDEST JUMPDEST PUSH0 PUSH2 0x4383 DUP11 DUP3 DUP12 ADD PUSH2 0x40AB JUMP JUMPDEST SWAP8 POP POP PUSH1 0x20 DUP9 ADD MLOAD PUSH8 0xFFFFFFFFFFFFFFFF DUP2 GT ISZERO PUSH2 0x43A4 JUMPI PUSH2 0x43A3 PUSH2 0x2C5E JUMP JUMPDEST JUMPDEST PUSH2 0x43B0 DUP11 DUP3 DUP12 ADD PUSH2 0x4218 JUMP JUMPDEST SWAP7 POP POP PUSH1 0x40 PUSH2 0x43C1 DUP11 DUP3 DUP12 ADD PUSH2 0x3D4E JUMP JUMPDEST SWAP6 POP POP PUSH1 0x60 PUSH2 0x43D2 DUP11 DUP3 DUP12 ADD PUSH2 0x4347 JUMP JUMPDEST SWAP5 POP POP PUSH1 0x80 PUSH2 0x43E3 DUP11 DUP3 DUP12 ADD PUSH2 0x4347 JUMP JUMPDEST SWAP4 POP POP PUSH1 0xA0 PUSH2 0x43F4 DUP11 DUP3 DUP12 ADD PUSH2 0x3D4E JUMP JUMPDEST SWAP3 POP POP PUSH1 0xC0 PUSH2 0x4405 DUP11 DUP3 DUP12 ADD PUSH2 0x3BB1 JUMP JUMPDEST SWAP2 POP POP SWAP3 SWAP6 SWAP9 SWAP2 SWAP5 SWAP8 POP SWAP3 SWAP6 POP JUMP JUMPDEST PUSH32 0x4E487B7100000000000000000000000000000000000000000000000000000000 PUSH0 MSTORE PUSH1 0x31 PUSH1 0x4 MSTORE PUSH1 0x24 PUSH0 REVERT INVALID LOG2 PUSH5 0x6970667358 0x22 SLT KECCAK256 DUP11 DUP11 0xAC 0xD6 DUP2 0xA8 DUP11 0xDE PUSH23 0x7C8C4A41E59E9FFC2BF36498A4EBFCC141D5317B38086E PUSH5 0x736F6C6343 STOP ADDMOD XOR STOP CALLER "
		},
		"gasEstimates": {
			"creation": {
				"codeDepositCost": "3505400",
				"executionCost": "infinite",
				"totalCost": "infinite"
			},
			"external": {
				"admin()": "2596",
				"approveTokens(uint256)": "infinite",
				"commitTransaction(uint256,bool)": "infinite",
				"getActiveTraders()": "infinite",
				"getAllCommittedTransactions()": "infinite",
				"getAllPendingTransactions()": "infinite",
				"getAllUserTransactions(address)": "infinite",
				"getNotCommittedTransactionsCount(address)": "infinite",
				"getNumberOfNotCommittedTransactions()": "2484",
				"getUserCommittedTransactions(address)": "infinite",
				"getUserPendingTransactions(address)": "infinite",
				"getUserTokenBalance(address)": "infinite",
				"initiateTransaction(address,address,uint256,uint256,uint256,bool)": "infinite",
				"pendingTransactions(uint256)": "infinite",
				"transactions(uint256)": "infinite",
				"userManager()": "infinite"
			},
			"internal": {
				"isTradingActive(string memory)": "infinite",
				"removePendingTransaction(uint256)": "infinite"
			}
		},
		"methodIdentifiers": {
			"admin()": "f851a440",
			"approveTokens(uint256)": "220646ce",
			"commitTransaction(uint256,bool)": "0b0f9dc3",
			"getActiveTraders()": "71569199",
			"getAllCommittedTransactions()": "b1fce8c3",
			"getAllPendingTransactions()": "a9878c62",
			"getAllUserTransactions(address)": "4dd87af7",
			"getNotCommittedTransactionsCount(address)": "04be1ef2",
			"getNumberOfNotCommittedTransactions()": "c0fa3f4b",
			"getUserCommittedTransactions(address)": "586fb58e",
			"getUserPendingTransactions(address)": "9e83e306",
			"getUserTokenBalance(address)": "f5aec88c",
			"initiateTransaction(address,address,uint256,uint256,uint256,bool)": "4439a702",
			"pendingTransactions(uint256)": "63a8374d",
			"transactions(uint256)": "9ace38c2",
			"userManager()": "5c8a7687"
		}
	},
	"abi": [
		{
			"inputs": [
				{
					"internalType": "address",
					"name": "userManagerAddress",
					"type": "address"
				}
			],
			"stateMutability": "nonpayable",
			"type": "constructor"
		},
		{
			"anonymous": false,
			"inputs": [
				{
					"indexed": false,
					"internalType": "uint256",
					"name": "transactionId",
					"type": "uint256"
				},
				{
					"indexed": false,
					"internalType": "bool",
					"name": "accepted",
					"type": "bool"
				},
				{
					"indexed": false,
					"internalType": "string",
					"name": "status",
					"type": "string"
				}
			],
			"name": "TransactionCommitted",
			"type": "event"
		},
		{
			"anonymous": false,
			"inputs": [
				{
					"indexed": false,
					"internalType": "uint256",
					"name": "transactionId",
					"type": "uint256"
				},
				{
					"indexed": false,
					"internalType": "address",
					"name": "receiver",
					"type": "address"
				},
				{
					"indexed": false,
					"internalType": "enum EnergyTransactionManager.TransactionType",
					"name": "transactionType",
					"type": "uint8"
				}
			],
			"name": "TransactionInitiated",
			"type": "event"
		},
		{
			"inputs": [],
			"name": "admin",
			"outputs": [
				{
					"internalType": "address",
					"name": "",
					"type": "address"
				}
			],
			"stateMutability": "view",
			"type": "function"
		},
		{
			"inputs": [
				{
					"internalType": "uint256",
					"name": "amount",
					"type": "uint256"
				}
			],
			"name": "approveTokens",
			"outputs": [],
			"stateMutability": "nonpayable",
			"type": "function"
		},
		{
			"inputs": [
				{
					"internalType": "uint256",
					"name": "_transactionId",
					"type": "uint256"
				},
				{
					"internalType": "bool",
					"name": "_accepted",
					"type": "bool"
				}
			],
			"name": "commitTransaction",
			"outputs": [],
			"stateMutability": "nonpayable",
			"type": "function"
		},
		{
			"inputs": [],
			"name": "getActiveTraders",
			"outputs": [
				{
					"components": [
						{
							"internalType": "address",
							"name": "userAddress",
							"type": "address"
						},
						{
							"internalType": "string",
							"name": "username",
							"type": "string"
						},
						{
							"internalType": "uint256",
							"name": "EGYTokenBalance",
							"type": "uint256"
						},
						{
							"internalType": "uint256",
							"name": "energyBalance",
							"type": "uint256"
						},
						{
							"internalType": "int256",
							"name": "latitude",
							"type": "int256"
						},
						{
							"internalType": "int256",
							"name": "longitude",
							"type": "int256"
						},
						{
							"internalType": "string",
							"name": "tradingStatus",
							"type": "string"
						},
						{
							"internalType": "uint256",
							"name": "buySellAmount",
							"type": "uint256"
						},
						{
							"internalType": "uint256",
							"name": "price",
							"type": "uint256"
						},
						{
							"internalType": "uint256",
							"name": "expiryDate",
							"type": "uint256"
						}
					],
					"internalType": "struct EnergyTransactionManager.CombinedUserInfo[]",
					"name": "",
					"type": "tuple[]"
				}
			],
			"stateMutability": "view",
			"type": "function"
		},
		{
			"inputs": [],
			"name": "getAllCommittedTransactions",
			"outputs": [
				{
					"components": [
						{
							"internalType": "uint256",
							"name": "id",
							"type": "uint256"
						},
						{
							"internalType": "address",
							"name": "initiator",
							"type": "address"
						},
						{
							"internalType": "address",
							"name": "receiver",
							"type": "address"
						},
						{
							"internalType": "uint256",
							"name": "energyAmount",
							"type": "uint256"
						},
						{
							"internalType": "uint256",
							"name": "price",
							"type": "uint256"
						},
						{
							"internalType": "uint256",
							"name": "validUntil",
							"type": "uint256"
						},
						{
							"internalType": "bool",
							"name": "committed",
							"type": "bool"
						},
						{
							"internalType": "string",
							"name": "status",
							"type": "string"
						},
						{
							"internalType": "uint256",
							"name": "initialDate",
							"type": "uint256"
						},
						{
							"internalType": "enum EnergyTransactionManager.TransactionType",
							"name": "transactionType",
							"type": "uint8"
						}
					],
					"internalType": "struct EnergyTransactionManager.Transaction[]",
					"name": "",
					"type": "tuple[]"
				}
			],
			"stateMutability": "view",
			"type": "function"
		},
		{
			"inputs": [],
			"name": "getAllPendingTransactions",
			"outputs": [
				{
					"components": [
						{
							"internalType": "uint256",
							"name": "id",
							"type": "uint256"
						},
						{
							"internalType": "address",
							"name": "initiator",
							"type": "address"
						},
						{
							"internalType": "address",
							"name": "receiver",
							"type": "address"
						},
						{
							"internalType": "uint256",
							"name": "energyAmount",
							"type": "uint256"
						},
						{
							"internalType": "uint256",
							"name": "price",
							"type": "uint256"
						},
						{
							"internalType": "uint256",
							"name": "validUntil",
							"type": "uint256"
						},
						{
							"internalType": "bool",
							"name": "committed",
							"type": "bool"
						},
						{
							"internalType": "string",
							"name": "status",
							"type": "string"
						},
						{
							"internalType": "uint256",
							"name": "initialDate",
							"type": "uint256"
						},
						{
							"internalType": "enum EnergyTransactionManager.TransactionType",
							"name": "transactionType",
							"type": "uint8"
						}
					],
					"internalType": "struct EnergyTransactionManager.Transaction[]",
					"name": "",
					"type": "tuple[]"
				}
			],
			"stateMutability": "view",
			"type": "function"
		},
		{
			"inputs": [
				{
					"internalType": "address",
					"name": "userAddress",
					"type": "address"
				}
			],
			"name": "getAllUserTransactions",
			"outputs": [
				{
					"internalType": "uint256[]",
					"name": "",
					"type": "uint256[]"
				}
			],
			"stateMutability": "view",
			"type": "function"
		},
		{
			"inputs": [
				{
					"internalType": "address",
					"name": "userAddress",
					"type": "address"
				}
			],
			"name": "getNotCommittedTransactionsCount",
			"outputs": [
				{
					"internalType": "uint256",
					"name": "",
					"type": "uint256"
				}
			],
			"stateMutability": "view",
			"type": "function"
		},
		{
			"inputs": [],
			"name": "getNumberOfNotCommittedTransactions",
			"outputs": [
				{
					"internalType": "uint256",
					"name": "",
					"type": "uint256"
				}
			],
			"stateMutability": "view",
			"type": "function"
		},
		{
			"inputs": [
				{
					"internalType": "address",
					"name": "userAddress",
					"type": "address"
				}
			],
			"name": "getUserCommittedTransactions",
			"outputs": [
				{
					"internalType": "uint256[]",
					"name": "",
					"type": "uint256[]"
				}
			],
			"stateMutability": "view",
			"type": "function"
		},
		{
			"inputs": [
				{
					"internalType": "address",
					"name": "userAddress",
					"type": "address"
				}
			],
			"name": "getUserPendingTransactions",
			"outputs": [
				{
					"internalType": "uint256[]",
					"name": "",
					"type": "uint256[]"
				}
			],
			"stateMutability": "view",
			"type": "function"
		},
		{
			"inputs": [
				{
					"internalType": "address",
					"name": "userAddress",
					"type": "address"
				}
			],
			"name": "getUserTokenBalance",
			"outputs": [
				{
					"internalType": "uint256",
					"name": "",
					"type": "uint256"
				}
			],
			"stateMutability": "view",
			"type": "function"
		},
		{
			"inputs": [
				{
					"internalType": "address",
					"name": "_sender",
					"type": "address"
				},
				{
					"internalType": "address",
					"name": "receiver",
					"type": "address"
				},
				{
					"internalType": "uint256",
					"name": "_energyAmount",
					"type": "uint256"
				},
				{
					"internalType": "uint256",
					"name": "_price",
					"type": "uint256"
				},
				{
					"internalType": "uint256",
					"name": "_validUntil",
					"type": "uint256"
				},
				{
					"internalType": "bool",
					"name": "isBuyTransaction",
					"type": "bool"
				}
			],
			"name": "initiateTransaction",
			"outputs": [],
			"stateMutability": "nonpayable",
			"type": "function"
		},
		{
			"inputs": [
				{
					"internalType": "uint256",
					"name": "",
					"type": "uint256"
				}
			],
			"name": "pendingTransactions",
			"outputs": [
				{
					"internalType": "uint256",
					"name": "",
					"type": "uint256"
				}
			],
			"stateMutability": "view",
			"type": "function"
		},
		{
			"inputs": [
				{
					"internalType": "uint256",
					"name": "",
					"type": "uint256"
				}
			],
			"name": "transactions",
			"outputs": [
				{
					"internalType": "uint256",
					"name": "id",
					"type": "uint256"
				},
				{
					"internalType": "address",
					"name": "initiator",
					"type": "address"
				},
				{
					"internalType": "address",
					"name": "receiver",
					"type": "address"
				},
				{
					"internalType": "uint256",
					"name": "energyAmount",
					"type": "uint256"
				},
				{
					"internalType": "uint256",
					"name": "price",
					"type": "uint256"
				},
				{
					"internalType": "uint256",
					"name": "validUntil",
					"type": "uint256"
				},
				{
					"internalType": "bool",
					"name": "committed",
					"type": "bool"
				},
				{
					"internalType": "string",
					"name": "status",
					"type": "string"
				},
				{
					"internalType": "uint256",
					"name": "initialDate",
					"type": "uint256"
				},
				{
					"internalType": "enum EnergyTransactionManager.TransactionType",
					"name": "transactionType",
					"type": "uint8"
				}
			],
			"stateMutability": "view",
			"type": "function"
		},
		{
			"inputs": [],
			"name": "userManager",
			"outputs": [
				{
					"internalType": "contract UserManager",
					"name": "",
					"type": "address"
				}
			],
			"stateMutability": "view",
			"type": "function"
		}
	]
}