{
	"data": {
		"bytecode": {
			"linkReferences": {},
			"object": "608060405260018055600160025534801562000019575f80fd5b5060405162001b3138038062001b3183398181016040528101906200003f9190620000ea565b805f806101000a81548173ffffffffffffffffffffffffffffffffffffffff021916908373ffffffffffffffffffffffffffffffffffffffff160217905550506200011a565b5f80fd5b5f73ffffffffffffffffffffffffffffffffffffffff82169050919050565b5f620000b48262000089565b9050919050565b620000c681620000a8565b8114620000d1575f80fd5b50565b5f81519050620000e481620000bb565b92915050565b5f6020828403121562000102576200010162000085565b5b5f6200011184828501620000d4565b91505092915050565b611a0980620001285f395ff3fe608060405234801561000f575f80fd5b506004361061009c575f3560e01c806381490bff1161006457806381490bff146101355780638b3e4ec514610165578063a85c38ef14610195578063bd2d447d146101c8578063d251c05a146101e45761009c565b80632a58b330146100a0578063514fcac7146100be5780635b0c5dbd146100da5780637ee685461461010d578063813ad08314610117575b5f80fd5b6100a8610202565b6040516100b591906112ba565b60405180910390f35b6100d860048036038101906100d39190611301565b610208565b005b6100f460048036038101906100ef9190611301565b61035b565b604051610104949392919061136b565b60405180910390f35b6101156103d4565b005b61011f610687565b60405161012c91906112ba565b60405180910390f35b61014f600480360381019061014a9190611301565b61068d565b60405161015c91906112ba565b60405180910390f35b61017f600480360381019061017a9190611301565b6106ad565b60405161018c91906112ba565b60405180910390f35b6101af60048036038101906101aa9190611301565b6106cd565b6040516101bf94939291906113c8565b60405180910390f35b6101e260048036038101906101dd9190611435565b610724565b005b6101ec610a01565b6040516101f9919061159e565b60405180910390f35b60025481565b5f60035f8381526020019081526020015f206040518060800160405290815f82015f9054906101000a900473ffffffffffffffffffffffffffffffffffffffff1673ffffffffffffffffffffffffffffffffffffffff1673ffffffffffffffffffffffffffffffffffffffff1681526020016001820154815260200160028201548152602001600382015f9054906101000a900460ff16151515158152505090506102c581606001516102bc5760056102bf565b60045b83610b1a565b60035f8381526020019081526020015f205f8082015f6101000a81549073ffffffffffffffffffffffffffffffffffffffff0219169055600182015f9055600282015f9055600382015f6101000a81549060ff02191690555050817fc0362da6f2ff36b382b34aec0814f6b3cdf89f5ef282a1d1f114d0c0b036d5963360405161034f91906115be565b60405180910390a25050565b6006818154811061036a575f80fd5b905f5260205f2090600402015f91509050805f015f9054906101000a900473ffffffffffffffffffffffffffffffffffffffff1690806001015f9054906101000a900473ffffffffffffffffffffffffffffffffffffffff16908060020154908060030154905084565b5f6103e160046001610b8d565b90505f6103ef60055f610b8d565b90505f805b8351821080156104045750825181105b15610681575f60035f8685815181106104205761041f6115d7565b5b602002602001015181526020019081526020015f206040518060800160405290815f82015f9054906101000a900473ffffffffffffffffffffffffffffffffffffffff1673ffffffffffffffffffffffffffffffffffffffff1673ffffffffffffffffffffffffffffffffffffffff1681526020016001820154815260200160028201548152602001600382015f9054906101000a900460ff16151515158152505090505f60035f8685815181106104db576104da6115d7565b5b602002602001015181526020019081526020015f206040518060800160405290815f82015f9054906101000a900473ffffffffffffffffffffffffffffffffffffffff1673ffffffffffffffffffffffffffffffffffffffff1673ffffffffffffffffffffffffffffffffffffffff1681526020016001820154815260200160028201548152602001600382015f9054906101000a900460ff16151515158152505090508060200151826020015103610647575f6002826040015184604001516105a59190611631565b6105af9190611691565b90506105c7835f0151835f0151838660200151610ca9565b6105f660046105f160048a89815181106105e4576105e36115d7565b5b60200260200101516110c4565b610b1a565b61062560056106206005898881518110610613576106126115d7565b5b60200260200101516110c4565b610b1a565b8480610630906116c1565b955050838061063e906116c1565b9450505061067a565b80602001518260200151111561066a578280610662906116c1565b935050610679565b8380610675906116c1565b9450505b5b50506103f4565b50505050565b60015481565b6004818154811061069c575f80fd5b905f5260205f20015f915090505481565b600581815481106106bc575f80fd5b905f5260205f20015f915090505481565b6003602052805f5260405f205f91509050805f015f9054906101000a900473ffffffffffffffffffffffffffffffffffffffff1690806001015490806002015490806003015f9054906101000a900460ff16905084565b5f8054906101000a900473ffffffffffffffffffffffffffffffffffffffff1673ffffffffffffffffffffffffffffffffffffffff1663163f7522336040518263ffffffff1660e01b815260040161077c91906115be565b602060405180830381865afa158015610797573d5f803e3d5ffd5b505050506040513d601f19601f820116820180604052508101906107bb919061171c565b6107fa576040517f08c379a00000000000000000000000000000000000000000000000000000000081526004016107f1906117a1565b60405180910390fd5b5f831161083c576040517f08c379a00000000000000000000000000000000000000000000000000000000081526004016108339061182f565b60405180910390fd5b5f821161087e576040517f08c379a000000000000000000000000000000000000000000000000000000000815260040161087590611897565b60405180910390fd5b5f60405180608001604052803373ffffffffffffffffffffffffffffffffffffffff16815260200185815260200184815260200183151581525090508060035f60025481526020019081526020015f205f820151815f015f6101000a81548173ffffffffffffffffffffffffffffffffffffffff021916908373ffffffffffffffffffffffffffffffffffffffff16021790555060208201518160010155604082015181600201556060820151816003015f6101000a81548160ff021916908315150217905550905050811561097b576004600254908060018154018082558091505060019003905f5260205f20015f90919091909150556109a4565b6005600254908060018154018082558091505060019003905f5260205f20015f90919091909150555b6002547f1ad1a5ae4ffda7ac4728a3f999d312ee8c3bf93f8f9bec6ea55609ec2980c0d7338686866040516109dc94939291906113c8565b60405180910390a260025f8154809291906109f6906116c1565b919050555050505050565b60606006805480602002602001604051908101604052809291908181526020015f905b82821015610b11578382905f5260205f2090600402016040518060800160405290815f82015f9054906101000a900473ffffffffffffffffffffffffffffffffffffffff1673ffffffffffffffffffffffffffffffffffffffff1673ffffffffffffffffffffffffffffffffffffffff168152602001600182015f9054906101000a900473ffffffffffffffffffffffffffffffffffffffff1673ffffffffffffffffffffffffffffffffffffffff1673ffffffffffffffffffffffffffffffffffffffff1681526020016002820154815260200160038201548152505081526020019060010190610a24565b50505050905090565b8160018380549050610b2c91906118b5565b81548110610b3d57610b3c6115d7565b5b905f5260205f200154828281548110610b5957610b586115d7565b5b905f5260205f20018190555081805480610b7657610b756118e8565b5b600190038181905f5260205f20015f905590555050565b60605f838054905067ffffffffffffffff811115610bae57610bad611915565b5b604051908082528060200260200182016040528015610bdc5781602001602082028036833780820191505090505b5090505f805b8580549050811015610c7a575f60035f888481548110610c0557610c046115d7565b5b905f5260205f20015481526020019081526020015f20600101541115610c6d57858181548110610c3857610c376115d7565b5b905f5260205f200154838380610c4d906116c1565b945081518110610c6057610c5f6115d7565b5b6020026020010181815250505b8080600101915050610be2565b508315610c9257610c8d8282600161111d565b610c9e565b610c9d82825f61111d565b5b819250505092915050565b5f8054906101000a900473ffffffffffffffffffffffffffffffffffffffff1673ffffffffffffffffffffffffffffffffffffffff1663a64b6e5f8585856040518463ffffffff1660e01b8152600401610d0593929190611942565b5f604051808303815f87803b158015610d1c575f80fd5b505af1158015610d2e573d5f803e3d5ffd5b505050505f8054906101000a900473ffffffffffffffffffffffffffffffffffffffff1673ffffffffffffffffffffffffffffffffffffffff16636fb4309b85845f6040518463ffffffff1660e01b8152600401610d8e93929190611977565b5f604051808303815f87803b158015610da5575f80fd5b505af1158015610db7573d5f803e3d5ffd5b505050505f8054906101000a900473ffffffffffffffffffffffffffffffffffffffff1673ffffffffffffffffffffffffffffffffffffffff16636fb4309b848460016040518463ffffffff1660e01b8152600401610e1893929190611977565b5f604051808303815f87803b158015610e2f575f80fd5b505af1158015610e41573d5f803e3d5ffd5b505050505f8054906101000a900473ffffffffffffffffffffffffffffffffffffffff1673ffffffffffffffffffffffffffffffffffffffff16639202e886858360016040518463ffffffff1660e01b8152600401610ea293929190611977565b5f604051808303815f87803b158015610eb9575f80fd5b505af1158015610ecb573d5f803e3d5ffd5b505050505f8054906101000a900473ffffffffffffffffffffffffffffffffffffffff1673ffffffffffffffffffffffffffffffffffffffff16639202e88684835f6040518463ffffffff1660e01b8152600401610f2b93929190611977565b5f604051808303815f87803b158015610f42575f80fd5b505af1158015610f54573d5f803e3d5ffd5b50505050600660405180608001604052808673ffffffffffffffffffffffffffffffffffffffff1681526020018573ffffffffffffffffffffffffffffffffffffffff16815260200184815260200183815250908060018154018082558091505060019003905f5260205f2090600402015f909190919091505f820151815f015f6101000a81548173ffffffffffffffffffffffffffffffffffffffff021916908373ffffffffffffffffffffffffffffffffffffffff1602179055506020820151816001015f6101000a81548173ffffffffffffffffffffffffffffffffffffffff021916908373ffffffffffffffffffffffffffffffffffffffff1602179055506040820151816002015560608201518160030155505060015f81548092919061107f906116c1565b919050557ff61c8c5226e224af93dddd2f5946d284253037e2b520e3a30f4b61e0fa43b1638585856040516110b693929190611942565b60405180910390a250505050565b5f805f90505b838054905081101561110e57828482815481106110ea576110e96115d7565b5b905f5260205f200154036111015780915050611117565b80806001019150506110ca565b50828054905090505b92915050565b5f600190505b8281101561129c575f84828151811061113f5761113e6115d7565b5b602002602001015190505f60018361115791906118b5565b90505b5f81101580156111fb5750836111b45760035f8783815181106111805761117f6115d7565b5b602002602001015181526020019081526020015f206002015460035f8481526020019081526020015f2060020154106111fa565b60035f8783815181106111ca576111c96115d7565b5b602002602001015181526020019081526020015f206002015460035f8481526020019081526020015f2060020154115b5b1561126157858181518110611213576112126115d7565b5b6020026020010151866001836112299190611631565b8151811061123a576112396115d7565b5b6020026020010181815250505f810315611261578080611259906119ac565b91505061115a565b81866001836112709190611631565b81518110611281576112806115d7565b5b60200260200101818152505050508080600101915050611123565b50505050565b5f819050919050565b6112b4816112a2565b82525050565b5f6020820190506112cd5f8301846112ab565b92915050565b5f80fd5b6112e0816112a2565b81146112ea575f80fd5b50565b5f813590506112fb816112d7565b92915050565b5f60208284031215611316576113156112d3565b5b5f611323848285016112ed565b91505092915050565b5f73ffffffffffffffffffffffffffffffffffffffff82169050919050565b5f6113558261132c565b9050919050565b6113658161134b565b82525050565b5f60808201905061137e5f83018761135c565b61138b602083018661135c565b61139860408301856112ab565b6113a560608301846112ab565b95945050505050565b5f8115159050919050565b6113c2816113ae565b82525050565b5f6080820190506113db5f83018761135c565b6113e860208301866112ab565b6113f560408301856112ab565b61140260608301846113b9565b95945050505050565b611414816113ae565b811461141e575f80fd5b50565b5f8135905061142f8161140b565b92915050565b5f805f6060848603121561144c5761144b6112d3565b5b5f611459868287016112ed565b935050602061146a868287016112ed565b925050604061147b86828701611421565b9150509250925092565b5f81519050919050565b5f82825260208201905092915050565b5f819050602082019050919050565b6114b78161134b565b82525050565b6114c6816112a2565b82525050565b608082015f8201516114e05f8501826114ae565b5060208201516114f360208501826114ae565b50604082015161150660408501826114bd565b50606082015161151960608501826114bd565b50505050565b5f61152a83836114cc565b60808301905092915050565b5f602082019050919050565b5f61154c82611485565b611556818561148f565b93506115618361149f565b805f5b83811015611591578151611578888261151f565b975061158383611536565b925050600181019050611564565b5085935050505092915050565b5f6020820190508181035f8301526115b68184611542565b905092915050565b5f6020820190506115d15f83018461135c565b92915050565b7f4e487b71000000000000000000000000000000000000000000000000000000005f52603260045260245ffd5b7f4e487b71000000000000000000000000000000000000000000000000000000005f52601160045260245ffd5b5f61163b826112a2565b9150611646836112a2565b925082820190508082111561165e5761165d611604565b5b92915050565b7f4e487b71000000000000000000000000000000000000000000000000000000005f52601260045260245ffd5b5f61169b826112a2565b91506116a6836112a2565b9250826116b6576116b5611664565b5b828204905092915050565b5f6116cb826112a2565b91507fffffffffffffffffffffffffffffffffffffffffffffffffffffffffffffffff82036116fd576116fc611604565b5b600182019050919050565b5f815190506117168161140b565b92915050565b5f60208284031215611731576117306112d3565b5b5f61173e84828501611708565b91505092915050565b5f82825260208201905092915050565b7f55736572206d75737420626520726567697374657265642e00000000000000005f82015250565b5f61178b601883611747565b915061179682611757565b602082019050919050565b5f6020820190508181035f8301526117b88161177f565b9050919050565b7f456e6572677920616d6f756e74206d75737420626520677265617465722074685f8201527f616e207a65726f2e000000000000000000000000000000000000000000000000602082015250565b5f611819602883611747565b9150611824826117bf565b604082019050919050565b5f6020820190508181035f8301526118468161180d565b9050919050565b7f5072696365206d7573742062652067726561746572207468616e207a65726f2e5f82015250565b5f611881602083611747565b915061188c8261184d565b602082019050919050565b5f6020820190508181035f8301526118ae81611875565b9050919050565b5f6118bf826112a2565b91506118ca836112a2565b92508282039050818111156118e2576118e1611604565b5b92915050565b7f4e487b71000000000000000000000000000000000000000000000000000000005f52603160045260245ffd5b7f4e487b71000000000000000000000000000000000000000000000000000000005f52604160045260245ffd5b5f6060820190506119555f83018661135c565b611962602083018561135c565b61196f60408301846112ab565b949350505050565b5f60608201905061198a5f83018661135c565b61199760208301856112ab565b6119a460408301846113b9565b949350505050565b5f6119b6826112a2565b91505f82036119c8576119c7611604565b5b60018203905091905056fea264697066735822122043707c5c41ee3987eed3075c42881741d3400056ce208e05d01d4c456d6749e864736f6c63430008180033",
			"opcodes": "PUSH1 0x80 PUSH1 0x40 MSTORE PUSH1 0x1 DUP1 SSTORE PUSH1 0x1 PUSH1 0x2 SSTORE CALLVALUE DUP1 ISZERO PUSH3 0x19 JUMPI PUSH0 DUP1 REVERT JUMPDEST POP PUSH1 0x40 MLOAD PUSH3 0x1B31 CODESIZE SUB DUP1 PUSH3 0x1B31 DUP4 CODECOPY DUP2 DUP2 ADD PUSH1 0x40 MSTORE DUP2 ADD SWAP1 PUSH3 0x3F SWAP2 SWAP1 PUSH3 0xEA JUMP JUMPDEST DUP1 PUSH0 DUP1 PUSH2 0x100 EXP DUP2 SLOAD DUP2 PUSH20 0xFFFFFFFFFFFFFFFFFFFFFFFFFFFFFFFFFFFFFFFF MUL NOT AND SWAP1 DUP4 PUSH20 0xFFFFFFFFFFFFFFFFFFFFFFFFFFFFFFFFFFFFFFFF AND MUL OR SWAP1 SSTORE POP POP PUSH3 0x11A JUMP JUMPDEST PUSH0 DUP1 REVERT JUMPDEST PUSH0 PUSH20 0xFFFFFFFFFFFFFFFFFFFFFFFFFFFFFFFFFFFFFFFF DUP3 AND SWAP1 POP SWAP2 SWAP1 POP JUMP JUMPDEST PUSH0 PUSH3 0xB4 DUP3 PUSH3 0x89 JUMP JUMPDEST SWAP1 POP SWAP2 SWAP1 POP JUMP JUMPDEST PUSH3 0xC6 DUP2 PUSH3 0xA8 JUMP JUMPDEST DUP2 EQ PUSH3 0xD1 JUMPI PUSH0 DUP1 REVERT JUMPDEST POP JUMP JUMPDEST PUSH0 DUP2 MLOAD SWAP1 POP PUSH3 0xE4 DUP2 PUSH3 0xBB JUMP JUMPDEST SWAP3 SWAP2 POP POP JUMP JUMPDEST PUSH0 PUSH1 0x20 DUP3 DUP5 SUB SLT ISZERO PUSH3 0x102 JUMPI PUSH3 0x101 PUSH3 0x85 JUMP JUMPDEST JUMPDEST PUSH0 PUSH3 0x111 DUP5 DUP3 DUP6 ADD PUSH3 0xD4 JUMP JUMPDEST SWAP2 POP POP SWAP3 SWAP2 POP POP JUMP JUMPDEST PUSH2 0x1A09 DUP1 PUSH3 0x128 PUSH0 CODECOPY PUSH0 RETURN INVALID PUSH1 0x80 PUSH1 0x40 MSTORE CALLVALUE DUP1 ISZERO PUSH2 0xF JUMPI PUSH0 DUP1 REVERT JUMPDEST POP PUSH1 0x4 CALLDATASIZE LT PUSH2 0x9C JUMPI PUSH0 CALLDATALOAD PUSH1 0xE0 SHR DUP1 PUSH4 0x81490BFF GT PUSH2 0x64 JUMPI DUP1 PUSH4 0x81490BFF EQ PUSH2 0x135 JUMPI DUP1 PUSH4 0x8B3E4EC5 EQ PUSH2 0x165 JUMPI DUP1 PUSH4 0xA85C38EF EQ PUSH2 0x195 JUMPI DUP1 PUSH4 0xBD2D447D EQ PUSH2 0x1C8 JUMPI DUP1 PUSH4 0xD251C05A EQ PUSH2 0x1E4 JUMPI PUSH2 0x9C JUMP JUMPDEST DUP1 PUSH4 0x2A58B330 EQ PUSH2 0xA0 JUMPI DUP1 PUSH4 0x514FCAC7 EQ PUSH2 0xBE JUMPI DUP1 PUSH4 0x5B0C5DBD EQ PUSH2 0xDA JUMPI DUP1 PUSH4 0x7EE68546 EQ PUSH2 0x10D JUMPI DUP1 PUSH4 0x813AD083 EQ PUSH2 0x117 JUMPI JUMPDEST PUSH0 DUP1 REVERT JUMPDEST PUSH2 0xA8 PUSH2 0x202 JUMP JUMPDEST PUSH1 0x40 MLOAD PUSH2 0xB5 SWAP2 SWAP1 PUSH2 0x12BA JUMP JUMPDEST PUSH1 0x40 MLOAD DUP1 SWAP2 SUB SWAP1 RETURN JUMPDEST PUSH2 0xD8 PUSH1 0x4 DUP1 CALLDATASIZE SUB DUP2 ADD SWAP1 PUSH2 0xD3 SWAP2 SWAP1 PUSH2 0x1301 JUMP JUMPDEST PUSH2 0x208 JUMP JUMPDEST STOP JUMPDEST PUSH2 0xF4 PUSH1 0x4 DUP1 CALLDATASIZE SUB DUP2 ADD SWAP1 PUSH2 0xEF SWAP2 SWAP1 PUSH2 0x1301 JUMP JUMPDEST PUSH2 0x35B JUMP JUMPDEST PUSH1 0x40 MLOAD PUSH2 0x104 SWAP5 SWAP4 SWAP3 SWAP2 SWAP1 PUSH2 0x136B JUMP JUMPDEST PUSH1 0x40 MLOAD DUP1 SWAP2 SUB SWAP1 RETURN JUMPDEST PUSH2 0x115 PUSH2 0x3D4 JUMP JUMPDEST STOP JUMPDEST PUSH2 0x11F PUSH2 0x687 JUMP JUMPDEST PUSH1 0x40 MLOAD PUSH2 0x12C SWAP2 SWAP1 PUSH2 0x12BA JUMP JUMPDEST PUSH1 0x40 MLOAD DUP1 SWAP2 SUB SWAP1 RETURN JUMPDEST PUSH2 0x14F PUSH1 0x4 DUP1 CALLDATASIZE SUB DUP2 ADD SWAP1 PUSH2 0x14A SWAP2 SWAP1 PUSH2 0x1301 JUMP JUMPDEST PUSH2 0x68D JUMP JUMPDEST PUSH1 0x40 MLOAD PUSH2 0x15C SWAP2 SWAP1 PUSH2 0x12BA JUMP JUMPDEST PUSH1 0x40 MLOAD DUP1 SWAP2 SUB SWAP1 RETURN JUMPDEST PUSH2 0x17F PUSH1 0x4 DUP1 CALLDATASIZE SUB DUP2 ADD SWAP1 PUSH2 0x17A SWAP2 SWAP1 PUSH2 0x1301 JUMP JUMPDEST PUSH2 0x6AD JUMP JUMPDEST PUSH1 0x40 MLOAD PUSH2 0x18C SWAP2 SWAP1 PUSH2 0x12BA JUMP JUMPDEST PUSH1 0x40 MLOAD DUP1 SWAP2 SUB SWAP1 RETURN JUMPDEST PUSH2 0x1AF PUSH1 0x4 DUP1 CALLDATASIZE SUB DUP2 ADD SWAP1 PUSH2 0x1AA SWAP2 SWAP1 PUSH2 0x1301 JUMP JUMPDEST PUSH2 0x6CD JUMP JUMPDEST PUSH1 0x40 MLOAD PUSH2 0x1BF SWAP5 SWAP4 SWAP3 SWAP2 SWAP1 PUSH2 0x13C8 JUMP JUMPDEST PUSH1 0x40 MLOAD DUP1 SWAP2 SUB SWAP1 RETURN JUMPDEST PUSH2 0x1E2 PUSH1 0x4 DUP1 CALLDATASIZE SUB DUP2 ADD SWAP1 PUSH2 0x1DD SWAP2 SWAP1 PUSH2 0x1435 JUMP JUMPDEST PUSH2 0x724 JUMP JUMPDEST STOP JUMPDEST PUSH2 0x1EC PUSH2 0xA01 JUMP JUMPDEST PUSH1 0x40 MLOAD PUSH2 0x1F9 SWAP2 SWAP1 PUSH2 0x159E JUMP JUMPDEST PUSH1 0x40 MLOAD DUP1 SWAP2 SUB SWAP1 RETURN JUMPDEST PUSH1 0x2 SLOAD DUP2 JUMP JUMPDEST PUSH0 PUSH1 0x3 PUSH0 DUP4 DUP2 MSTORE PUSH1 0x20 ADD SWAP1 DUP2 MSTORE PUSH1 0x20 ADD PUSH0 KECCAK256 PUSH1 0x40 MLOAD DUP1 PUSH1 0x80 ADD PUSH1 0x40 MSTORE SWAP1 DUP2 PUSH0 DUP3 ADD PUSH0 SWAP1 SLOAD SWAP1 PUSH2 0x100 EXP SWAP1 DIV PUSH20 0xFFFFFFFFFFFFFFFFFFFFFFFFFFFFFFFFFFFFFFFF AND PUSH20 0xFFFFFFFFFFFFFFFFFFFFFFFFFFFFFFFFFFFFFFFF AND PUSH20 0xFFFFFFFFFFFFFFFFFFFFFFFFFFFFFFFFFFFFFFFF AND DUP2 MSTORE PUSH1 0x20 ADD PUSH1 0x1 DUP3 ADD SLOAD DUP2 MSTORE PUSH1 0x20 ADD PUSH1 0x2 DUP3 ADD SLOAD DUP2 MSTORE PUSH1 0x20 ADD PUSH1 0x3 DUP3 ADD PUSH0 SWAP1 SLOAD SWAP1 PUSH2 0x100 EXP SWAP1 DIV PUSH1 0xFF AND ISZERO ISZERO ISZERO ISZERO DUP2 MSTORE POP POP SWAP1 POP PUSH2 0x2C5 DUP2 PUSH1 0x60 ADD MLOAD PUSH2 0x2BC JUMPI PUSH1 0x5 PUSH2 0x2BF JUMP JUMPDEST PUSH1 0x4 JUMPDEST DUP4 PUSH2 0xB1A JUMP JUMPDEST PUSH1 0x3 PUSH0 DUP4 DUP2 MSTORE PUSH1 0x20 ADD SWAP1 DUP2 MSTORE PUSH1 0x20 ADD PUSH0 KECCAK256 PUSH0 DUP1 DUP3 ADD PUSH0 PUSH2 0x100 EXP DUP2 SLOAD SWAP1 PUSH20 0xFFFFFFFFFFFFFFFFFFFFFFFFFFFFFFFFFFFFFFFF MUL NOT AND SWAP1 SSTORE PUSH1 0x1 DUP3 ADD PUSH0 SWAP1 SSTORE PUSH1 0x2 DUP3 ADD PUSH0 SWAP1 SSTORE PUSH1 0x3 DUP3 ADD PUSH0 PUSH2 0x100 EXP DUP2 SLOAD SWAP1 PUSH1 0xFF MUL NOT AND SWAP1 SSTORE POP POP DUP2 PUSH32 0xC0362DA6F2FF36B382B34AEC0814F6B3CDF89F5EF282A1D1F114D0C0B036D596 CALLER PUSH1 0x40 MLOAD PUSH2 0x34F SWAP2 SWAP1 PUSH2 0x15BE JUMP JUMPDEST PUSH1 0x40 MLOAD DUP1 SWAP2 SUB SWAP1 LOG2 POP POP JUMP JUMPDEST PUSH1 0x6 DUP2 DUP2 SLOAD DUP2 LT PUSH2 0x36A JUMPI PUSH0 DUP1 REVERT JUMPDEST SWAP1 PUSH0 MSTORE PUSH1 0x20 PUSH0 KECCAK256 SWAP1 PUSH1 0x4 MUL ADD PUSH0 SWAP2 POP SWAP1 POP DUP1 PUSH0 ADD PUSH0 SWAP1 SLOAD SWAP1 PUSH2 0x100 EXP SWAP1 DIV PUSH20 0xFFFFFFFFFFFFFFFFFFFFFFFFFFFFFFFFFFFFFFFF AND SWAP1 DUP1 PUSH1 0x1 ADD PUSH0 SWAP1 SLOAD SWAP1 PUSH2 0x100 EXP SWAP1 DIV PUSH20 0xFFFFFFFFFFFFFFFFFFFFFFFFFFFFFFFFFFFFFFFF AND SWAP1 DUP1 PUSH1 0x2 ADD SLOAD SWAP1 DUP1 PUSH1 0x3 ADD SLOAD SWAP1 POP DUP5 JUMP JUMPDEST PUSH0 PUSH2 0x3E1 PUSH1 0x4 PUSH1 0x1 PUSH2 0xB8D JUMP JUMPDEST SWAP1 POP PUSH0 PUSH2 0x3EF PUSH1 0x5 PUSH0 PUSH2 0xB8D JUMP JUMPDEST SWAP1 POP PUSH0 DUP1 JUMPDEST DUP4 MLOAD DUP3 LT DUP1 ISZERO PUSH2 0x404 JUMPI POP DUP3 MLOAD DUP2 LT JUMPDEST ISZERO PUSH2 0x681 JUMPI PUSH0 PUSH1 0x3 PUSH0 DUP7 DUP6 DUP2 MLOAD DUP2 LT PUSH2 0x420 JUMPI PUSH2 0x41F PUSH2 0x15D7 JUMP JUMPDEST JUMPDEST PUSH1 0x20 MUL PUSH1 0x20 ADD ADD MLOAD DUP2 MSTORE PUSH1 0x20 ADD SWAP1 DUP2 MSTORE PUSH1 0x20 ADD PUSH0 KECCAK256 PUSH1 0x40 MLOAD DUP1 PUSH1 0x80 ADD PUSH1 0x40 MSTORE SWAP1 DUP2 PUSH0 DUP3 ADD PUSH0 SWAP1 SLOAD SWAP1 PUSH2 0x100 EXP SWAP1 DIV PUSH20 0xFFFFFFFFFFFFFFFFFFFFFFFFFFFFFFFFFFFFFFFF AND PUSH20 0xFFFFFFFFFFFFFFFFFFFFFFFFFFFFFFFFFFFFFFFF AND PUSH20 0xFFFFFFFFFFFFFFFFFFFFFFFFFFFFFFFFFFFFFFFF AND DUP2 MSTORE PUSH1 0x20 ADD PUSH1 0x1 DUP3 ADD SLOAD DUP2 MSTORE PUSH1 0x20 ADD PUSH1 0x2 DUP3 ADD SLOAD DUP2 MSTORE PUSH1 0x20 ADD PUSH1 0x3 DUP3 ADD PUSH0 SWAP1 SLOAD SWAP1 PUSH2 0x100 EXP SWAP1 DIV PUSH1 0xFF AND ISZERO ISZERO ISZERO ISZERO DUP2 MSTORE POP POP SWAP1 POP PUSH0 PUSH1 0x3 PUSH0 DUP7 DUP6 DUP2 MLOAD DUP2 LT PUSH2 0x4DB JUMPI PUSH2 0x4DA PUSH2 0x15D7 JUMP JUMPDEST JUMPDEST PUSH1 0x20 MUL PUSH1 0x20 ADD ADD MLOAD DUP2 MSTORE PUSH1 0x20 ADD SWAP1 DUP2 MSTORE PUSH1 0x20 ADD PUSH0 KECCAK256 PUSH1 0x40 MLOAD DUP1 PUSH1 0x80 ADD PUSH1 0x40 MSTORE SWAP1 DUP2 PUSH0 DUP3 ADD PUSH0 SWAP1 SLOAD SWAP1 PUSH2 0x100 EXP SWAP1 DIV PUSH20 0xFFFFFFFFFFFFFFFFFFFFFFFFFFFFFFFFFFFFFFFF AND PUSH20 0xFFFFFFFFFFFFFFFFFFFFFFFFFFFFFFFFFFFFFFFF AND PUSH20 0xFFFFFFFFFFFFFFFFFFFFFFFFFFFFFFFFFFFFFFFF AND DUP2 MSTORE PUSH1 0x20 ADD PUSH1 0x1 DUP3 ADD SLOAD DUP2 MSTORE PUSH1 0x20 ADD PUSH1 0x2 DUP3 ADD SLOAD DUP2 MSTORE PUSH1 0x20 ADD PUSH1 0x3 DUP3 ADD PUSH0 SWAP1 SLOAD SWAP1 PUSH2 0x100 EXP SWAP1 DIV PUSH1 0xFF AND ISZERO ISZERO ISZERO ISZERO DUP2 MSTORE POP POP SWAP1 POP DUP1 PUSH1 0x20 ADD MLOAD DUP3 PUSH1 0x20 ADD MLOAD SUB PUSH2 0x647 JUMPI PUSH0 PUSH1 0x2 DUP3 PUSH1 0x40 ADD MLOAD DUP5 PUSH1 0x40 ADD MLOAD PUSH2 0x5A5 SWAP2 SWAP1 PUSH2 0x1631 JUMP JUMPDEST PUSH2 0x5AF SWAP2 SWAP1 PUSH2 0x1691 JUMP JUMPDEST SWAP1 POP PUSH2 0x5C7 DUP4 PUSH0 ADD MLOAD DUP4 PUSH0 ADD MLOAD DUP4 DUP7 PUSH1 0x20 ADD MLOAD PUSH2 0xCA9 JUMP JUMPDEST PUSH2 0x5F6 PUSH1 0x4 PUSH2 0x5F1 PUSH1 0x4 DUP11 DUP10 DUP2 MLOAD DUP2 LT PUSH2 0x5E4 JUMPI PUSH2 0x5E3 PUSH2 0x15D7 JUMP JUMPDEST JUMPDEST PUSH1 0x20 MUL PUSH1 0x20 ADD ADD MLOAD PUSH2 0x10C4 JUMP JUMPDEST PUSH2 0xB1A JUMP JUMPDEST PUSH2 0x625 PUSH1 0x5 PUSH2 0x620 PUSH1 0x5 DUP10 DUP9 DUP2 MLOAD DUP2 LT PUSH2 0x613 JUMPI PUSH2 0x612 PUSH2 0x15D7 JUMP JUMPDEST JUMPDEST PUSH1 0x20 MUL PUSH1 0x20 ADD ADD MLOAD PUSH2 0x10C4 JUMP JUMPDEST PUSH2 0xB1A JUMP JUMPDEST DUP5 DUP1 PUSH2 0x630 SWAP1 PUSH2 0x16C1 JUMP JUMPDEST SWAP6 POP POP DUP4 DUP1 PUSH2 0x63E SWAP1 PUSH2 0x16C1 JUMP JUMPDEST SWAP5 POP POP POP PUSH2 0x67A JUMP JUMPDEST DUP1 PUSH1 0x20 ADD MLOAD DUP3 PUSH1 0x20 ADD MLOAD GT ISZERO PUSH2 0x66A JUMPI DUP3 DUP1 PUSH2 0x662 SWAP1 PUSH2 0x16C1 JUMP JUMPDEST SWAP4 POP POP PUSH2 0x679 JUMP JUMPDEST DUP4 DUP1 PUSH2 0x675 SWAP1 PUSH2 0x16C1 JUMP JUMPDEST SWAP5 POP POP JUMPDEST JUMPDEST POP POP PUSH2 0x3F4 JUMP JUMPDEST POP POP POP POP JUMP JUMPDEST PUSH1 0x1 SLOAD DUP2 JUMP JUMPDEST PUSH1 0x4 DUP2 DUP2 SLOAD DUP2 LT PUSH2 0x69C JUMPI PUSH0 DUP1 REVERT JUMPDEST SWAP1 PUSH0 MSTORE PUSH1 0x20 PUSH0 KECCAK256 ADD PUSH0 SWAP2 POP SWAP1 POP SLOAD DUP2 JUMP JUMPDEST PUSH1 0x5 DUP2 DUP2 SLOAD DUP2 LT PUSH2 0x6BC JUMPI PUSH0 DUP1 REVERT JUMPDEST SWAP1 PUSH0 MSTORE PUSH1 0x20 PUSH0 KECCAK256 ADD PUSH0 SWAP2 POP SWAP1 POP SLOAD DUP2 JUMP JUMPDEST PUSH1 0x3 PUSH1 0x20 MSTORE DUP1 PUSH0 MSTORE PUSH1 0x40 PUSH0 KECCAK256 PUSH0 SWAP2 POP SWAP1 POP DUP1 PUSH0 ADD PUSH0 SWAP1 SLOAD SWAP1 PUSH2 0x100 EXP SWAP1 DIV PUSH20 0xFFFFFFFFFFFFFFFFFFFFFFFFFFFFFFFFFFFFFFFF AND SWAP1 DUP1 PUSH1 0x1 ADD SLOAD SWAP1 DUP1 PUSH1 0x2 ADD SLOAD SWAP1 DUP1 PUSH1 0x3 ADD PUSH0 SWAP1 SLOAD SWAP1 PUSH2 0x100 EXP SWAP1 DIV PUSH1 0xFF AND SWAP1 POP DUP5 JUMP JUMPDEST PUSH0 DUP1 SLOAD SWAP1 PUSH2 0x100 EXP SWAP1 DIV PUSH20 0xFFFFFFFFFFFFFFFFFFFFFFFFFFFFFFFFFFFFFFFF AND PUSH20 0xFFFFFFFFFFFFFFFFFFFFFFFFFFFFFFFFFFFFFFFF AND PUSH4 0x163F7522 CALLER PUSH1 0x40 MLOAD DUP3 PUSH4 0xFFFFFFFF AND PUSH1 0xE0 SHL DUP2 MSTORE PUSH1 0x4 ADD PUSH2 0x77C SWAP2 SWAP1 PUSH2 0x15BE JUMP JUMPDEST PUSH1 0x20 PUSH1 0x40 MLOAD DUP1 DUP4 SUB DUP2 DUP7 GAS STATICCALL ISZERO DUP1 ISZERO PUSH2 0x797 JUMPI RETURNDATASIZE PUSH0 DUP1 RETURNDATACOPY RETURNDATASIZE PUSH0 REVERT JUMPDEST POP POP POP POP PUSH1 0x40 MLOAD RETURNDATASIZE PUSH1 0x1F NOT PUSH1 0x1F DUP3 ADD AND DUP3 ADD DUP1 PUSH1 0x40 MSTORE POP DUP2 ADD SWAP1 PUSH2 0x7BB SWAP2 SWAP1 PUSH2 0x171C JUMP JUMPDEST PUSH2 0x7FA JUMPI PUSH1 0x40 MLOAD PUSH32 0x8C379A000000000000000000000000000000000000000000000000000000000 DUP2 MSTORE PUSH1 0x4 ADD PUSH2 0x7F1 SWAP1 PUSH2 0x17A1 JUMP JUMPDEST PUSH1 0x40 MLOAD DUP1 SWAP2 SUB SWAP1 REVERT JUMPDEST PUSH0 DUP4 GT PUSH2 0x83C JUMPI PUSH1 0x40 MLOAD PUSH32 0x8C379A000000000000000000000000000000000000000000000000000000000 DUP2 MSTORE PUSH1 0x4 ADD PUSH2 0x833 SWAP1 PUSH2 0x182F JUMP JUMPDEST PUSH1 0x40 MLOAD DUP1 SWAP2 SUB SWAP1 REVERT JUMPDEST PUSH0 DUP3 GT PUSH2 0x87E JUMPI PUSH1 0x40 MLOAD PUSH32 0x8C379A000000000000000000000000000000000000000000000000000000000 DUP2 MSTORE PUSH1 0x4 ADD PUSH2 0x875 SWAP1 PUSH2 0x1897 JUMP JUMPDEST PUSH1 0x40 MLOAD DUP1 SWAP2 SUB SWAP1 REVERT JUMPDEST PUSH0 PUSH1 0x40 MLOAD DUP1 PUSH1 0x80 ADD PUSH1 0x40 MSTORE DUP1 CALLER PUSH20 0xFFFFFFFFFFFFFFFFFFFFFFFFFFFFFFFFFFFFFFFF AND DUP2 MSTORE PUSH1 0x20 ADD DUP6 DUP2 MSTORE PUSH1 0x20 ADD DUP5 DUP2 MSTORE PUSH1 0x20 ADD DUP4 ISZERO ISZERO DUP2 MSTORE POP SWAP1 POP DUP1 PUSH1 0x3 PUSH0 PUSH1 0x2 SLOAD DUP2 MSTORE PUSH1 0x20 ADD SWAP1 DUP2 MSTORE PUSH1 0x20 ADD PUSH0 KECCAK256 PUSH0 DUP3 ADD MLOAD DUP2 PUSH0 ADD PUSH0 PUSH2 0x100 EXP DUP2 SLOAD DUP2 PUSH20 0xFFFFFFFFFFFFFFFFFFFFFFFFFFFFFFFFFFFFFFFF MUL NOT AND SWAP1 DUP4 PUSH20 0xFFFFFFFFFFFFFFFFFFFFFFFFFFFFFFFFFFFFFFFF AND MUL OR SWAP1 SSTORE POP PUSH1 0x20 DUP3 ADD MLOAD DUP2 PUSH1 0x1 ADD SSTORE PUSH1 0x40 DUP3 ADD MLOAD DUP2 PUSH1 0x2 ADD SSTORE PUSH1 0x60 DUP3 ADD MLOAD DUP2 PUSH1 0x3 ADD PUSH0 PUSH2 0x100 EXP DUP2 SLOAD DUP2 PUSH1 0xFF MUL NOT AND SWAP1 DUP4 ISZERO ISZERO MUL OR SWAP1 SSTORE POP SWAP1 POP POP DUP2 ISZERO PUSH2 0x97B JUMPI PUSH1 0x4 PUSH1 0x2 SLOAD SWAP1 DUP1 PUSH1 0x1 DUP2 SLOAD ADD DUP1 DUP3 SSTORE DUP1 SWAP2 POP POP PUSH1 0x1 SWAP1 SUB SWAP1 PUSH0 MSTORE PUSH1 0x20 PUSH0 KECCAK256 ADD PUSH0 SWAP1 SWAP2 SWAP1 SWAP2 SWAP1 SWAP2 POP SSTORE PUSH2 0x9A4 JUMP JUMPDEST PUSH1 0x5 PUSH1 0x2 SLOAD SWAP1 DUP1 PUSH1 0x1 DUP2 SLOAD ADD DUP1 DUP3 SSTORE DUP1 SWAP2 POP POP PUSH1 0x1 SWAP1 SUB SWAP1 PUSH0 MSTORE PUSH1 0x20 PUSH0 KECCAK256 ADD PUSH0 SWAP1 SWAP2 SWAP1 SWAP2 SWAP1 SWAP2 POP SSTORE JUMPDEST PUSH1 0x2 SLOAD PUSH32 0x1AD1A5AE4FFDA7AC4728A3F999D312EE8C3BF93F8F9BEC6EA55609EC2980C0D7 CALLER DUP7 DUP7 DUP7 PUSH1 0x40 MLOAD PUSH2 0x9DC SWAP5 SWAP4 SWAP3 SWAP2 SWAP1 PUSH2 0x13C8 JUMP JUMPDEST PUSH1 0x40 MLOAD DUP1 SWAP2 SUB SWAP1 LOG2 PUSH1 0x2 PUSH0 DUP2 SLOAD DUP1 SWAP3 SWAP2 SWAP1 PUSH2 0x9F6 SWAP1 PUSH2 0x16C1 JUMP JUMPDEST SWAP2 SWAP1 POP SSTORE POP POP POP POP POP JUMP JUMPDEST PUSH1 0x60 PUSH1 0x6 DUP1 SLOAD DUP1 PUSH1 0x20 MUL PUSH1 0x20 ADD PUSH1 0x40 MLOAD SWAP1 DUP2 ADD PUSH1 0x40 MSTORE DUP1 SWAP3 SWAP2 SWAP1 DUP2 DUP2 MSTORE PUSH1 0x20 ADD PUSH0 SWAP1 JUMPDEST DUP3 DUP3 LT ISZERO PUSH2 0xB11 JUMPI DUP4 DUP3 SWAP1 PUSH0 MSTORE PUSH1 0x20 PUSH0 KECCAK256 SWAP1 PUSH1 0x4 MUL ADD PUSH1 0x40 MLOAD DUP1 PUSH1 0x80 ADD PUSH1 0x40 MSTORE SWAP1 DUP2 PUSH0 DUP3 ADD PUSH0 SWAP1 SLOAD SWAP1 PUSH2 0x100 EXP SWAP1 DIV PUSH20 0xFFFFFFFFFFFFFFFFFFFFFFFFFFFFFFFFFFFFFFFF AND PUSH20 0xFFFFFFFFFFFFFFFFFFFFFFFFFFFFFFFFFFFFFFFF AND PUSH20 0xFFFFFFFFFFFFFFFFFFFFFFFFFFFFFFFFFFFFFFFF AND DUP2 MSTORE PUSH1 0x20 ADD PUSH1 0x1 DUP3 ADD PUSH0 SWAP1 SLOAD SWAP1 PUSH2 0x100 EXP SWAP1 DIV PUSH20 0xFFFFFFFFFFFFFFFFFFFFFFFFFFFFFFFFFFFFFFFF AND PUSH20 0xFFFFFFFFFFFFFFFFFFFFFFFFFFFFFFFFFFFFFFFF AND PUSH20 0xFFFFFFFFFFFFFFFFFFFFFFFFFFFFFFFFFFFFFFFF AND DUP2 MSTORE PUSH1 0x20 ADD PUSH1 0x2 DUP3 ADD SLOAD DUP2 MSTORE PUSH1 0x20 ADD PUSH1 0x3 DUP3 ADD SLOAD DUP2 MSTORE POP POP DUP2 MSTORE PUSH1 0x20 ADD SWAP1 PUSH1 0x1 ADD SWAP1 PUSH2 0xA24 JUMP JUMPDEST POP POP POP POP SWAP1 POP SWAP1 JUMP JUMPDEST DUP2 PUSH1 0x1 DUP4 DUP1 SLOAD SWAP1 POP PUSH2 0xB2C SWAP2 SWAP1 PUSH2 0x18B5 JUMP JUMPDEST DUP2 SLOAD DUP2 LT PUSH2 0xB3D JUMPI PUSH2 0xB3C PUSH2 0x15D7 JUMP JUMPDEST JUMPDEST SWAP1 PUSH0 MSTORE PUSH1 0x20 PUSH0 KECCAK256 ADD SLOAD DUP3 DUP3 DUP2 SLOAD DUP2 LT PUSH2 0xB59 JUMPI PUSH2 0xB58 PUSH2 0x15D7 JUMP JUMPDEST JUMPDEST SWAP1 PUSH0 MSTORE PUSH1 0x20 PUSH0 KECCAK256 ADD DUP2 SWAP1 SSTORE POP DUP2 DUP1 SLOAD DUP1 PUSH2 0xB76 JUMPI PUSH2 0xB75 PUSH2 0x18E8 JUMP JUMPDEST JUMPDEST PUSH1 0x1 SWAP1 SUB DUP2 DUP2 SWAP1 PUSH0 MSTORE PUSH1 0x20 PUSH0 KECCAK256 ADD PUSH0 SWAP1 SSTORE SWAP1 SSTORE POP POP JUMP JUMPDEST PUSH1 0x60 PUSH0 DUP4 DUP1 SLOAD SWAP1 POP PUSH8 0xFFFFFFFFFFFFFFFF DUP2 GT ISZERO PUSH2 0xBAE JUMPI PUSH2 0xBAD PUSH2 0x1915 JUMP JUMPDEST JUMPDEST PUSH1 0x40 MLOAD SWAP1 DUP1 DUP3 MSTORE DUP1 PUSH1 0x20 MUL PUSH1 0x20 ADD DUP3 ADD PUSH1 0x40 MSTORE DUP1 ISZERO PUSH2 0xBDC JUMPI DUP2 PUSH1 0x20 ADD PUSH1 0x20 DUP3 MUL DUP1 CALLDATASIZE DUP4 CALLDATACOPY DUP1 DUP3 ADD SWAP2 POP POP SWAP1 POP JUMPDEST POP SWAP1 POP PUSH0 DUP1 JUMPDEST DUP6 DUP1 SLOAD SWAP1 POP DUP2 LT ISZERO PUSH2 0xC7A JUMPI PUSH0 PUSH1 0x3 PUSH0 DUP9 DUP5 DUP2 SLOAD DUP2 LT PUSH2 0xC05 JUMPI PUSH2 0xC04 PUSH2 0x15D7 JUMP JUMPDEST JUMPDEST SWAP1 PUSH0 MSTORE PUSH1 0x20 PUSH0 KECCAK256 ADD SLOAD DUP2 MSTORE PUSH1 0x20 ADD SWAP1 DUP2 MSTORE PUSH1 0x20 ADD PUSH0 KECCAK256 PUSH1 0x1 ADD SLOAD GT ISZERO PUSH2 0xC6D JUMPI DUP6 DUP2 DUP2 SLOAD DUP2 LT PUSH2 0xC38 JUMPI PUSH2 0xC37 PUSH2 0x15D7 JUMP JUMPDEST JUMPDEST SWAP1 PUSH0 MSTORE PUSH1 0x20 PUSH0 KECCAK256 ADD SLOAD DUP4 DUP4 DUP1 PUSH2 0xC4D SWAP1 PUSH2 0x16C1 JUMP JUMPDEST SWAP5 POP DUP2 MLOAD DUP2 LT PUSH2 0xC60 JUMPI PUSH2 0xC5F PUSH2 0x15D7 JUMP JUMPDEST JUMPDEST PUSH1 0x20 MUL PUSH1 0x20 ADD ADD DUP2 DUP2 MSTORE POP POP JUMPDEST DUP1 DUP1 PUSH1 0x1 ADD SWAP2 POP POP PUSH2 0xBE2 JUMP JUMPDEST POP DUP4 ISZERO PUSH2 0xC92 JUMPI PUSH2 0xC8D DUP3 DUP3 PUSH1 0x1 PUSH2 0x111D JUMP JUMPDEST PUSH2 0xC9E JUMP JUMPDEST PUSH2 0xC9D DUP3 DUP3 PUSH0 PUSH2 0x111D JUMP JUMPDEST JUMPDEST DUP2 SWAP3 POP POP POP SWAP3 SWAP2 POP POP JUMP JUMPDEST PUSH0 DUP1 SLOAD SWAP1 PUSH2 0x100 EXP SWAP1 DIV PUSH20 0xFFFFFFFFFFFFFFFFFFFFFFFFFFFFFFFFFFFFFFFF AND PUSH20 0xFFFFFFFFFFFFFFFFFFFFFFFFFFFFFFFFFFFFFFFF AND PUSH4 0xA64B6E5F DUP6 DUP6 DUP6 PUSH1 0x40 MLOAD DUP5 PUSH4 0xFFFFFFFF AND PUSH1 0xE0 SHL DUP2 MSTORE PUSH1 0x4 ADD PUSH2 0xD05 SWAP4 SWAP3 SWAP2 SWAP1 PUSH2 0x1942 JUMP JUMPDEST PUSH0 PUSH1 0x40 MLOAD DUP1 DUP4 SUB DUP2 PUSH0 DUP8 DUP1 EXTCODESIZE ISZERO DUP1 ISZERO PUSH2 0xD1C JUMPI PUSH0 DUP1 REVERT JUMPDEST POP GAS CALL ISZERO DUP1 ISZERO PUSH2 0xD2E JUMPI RETURNDATASIZE PUSH0 DUP1 RETURNDATACOPY RETURNDATASIZE PUSH0 REVERT JUMPDEST POP POP POP POP PUSH0 DUP1 SLOAD SWAP1 PUSH2 0x100 EXP SWAP1 DIV PUSH20 0xFFFFFFFFFFFFFFFFFFFFFFFFFFFFFFFFFFFFFFFF AND PUSH20 0xFFFFFFFFFFFFFFFFFFFFFFFFFFFFFFFFFFFFFFFF AND PUSH4 0x6FB4309B DUP6 DUP5 PUSH0 PUSH1 0x40 MLOAD DUP5 PUSH4 0xFFFFFFFF AND PUSH1 0xE0 SHL DUP2 MSTORE PUSH1 0x4 ADD PUSH2 0xD8E SWAP4 SWAP3 SWAP2 SWAP1 PUSH2 0x1977 JUMP JUMPDEST PUSH0 PUSH1 0x40 MLOAD DUP1 DUP4 SUB DUP2 PUSH0 DUP8 DUP1 EXTCODESIZE ISZERO DUP1 ISZERO PUSH2 0xDA5 JUMPI PUSH0 DUP1 REVERT JUMPDEST POP GAS CALL ISZERO DUP1 ISZERO PUSH2 0xDB7 JUMPI RETURNDATASIZE PUSH0 DUP1 RETURNDATACOPY RETURNDATASIZE PUSH0 REVERT JUMPDEST POP POP POP POP PUSH0 DUP1 SLOAD SWAP1 PUSH2 0x100 EXP SWAP1 DIV PUSH20 0xFFFFFFFFFFFFFFFFFFFFFFFFFFFFFFFFFFFFFFFF AND PUSH20 0xFFFFFFFFFFFFFFFFFFFFFFFFFFFFFFFFFFFFFFFF AND PUSH4 0x6FB4309B DUP5 DUP5 PUSH1 0x1 PUSH1 0x40 MLOAD DUP5 PUSH4 0xFFFFFFFF AND PUSH1 0xE0 SHL DUP2 MSTORE PUSH1 0x4 ADD PUSH2 0xE18 SWAP4 SWAP3 SWAP2 SWAP1 PUSH2 0x1977 JUMP JUMPDEST PUSH0 PUSH1 0x40 MLOAD DUP1 DUP4 SUB DUP2 PUSH0 DUP8 DUP1 EXTCODESIZE ISZERO DUP1 ISZERO PUSH2 0xE2F JUMPI PUSH0 DUP1 REVERT JUMPDEST POP GAS CALL ISZERO DUP1 ISZERO PUSH2 0xE41 JUMPI RETURNDATASIZE PUSH0 DUP1 RETURNDATACOPY RETURNDATASIZE PUSH0 REVERT JUMPDEST POP POP POP POP PUSH0 DUP1 SLOAD SWAP1 PUSH2 0x100 EXP SWAP1 DIV PUSH20 0xFFFFFFFFFFFFFFFFFFFFFFFFFFFFFFFFFFFFFFFF AND PUSH20 0xFFFFFFFFFFFFFFFFFFFFFFFFFFFFFFFFFFFFFFFF AND PUSH4 0x9202E886 DUP6 DUP4 PUSH1 0x1 PUSH1 0x40 MLOAD DUP5 PUSH4 0xFFFFFFFF AND PUSH1 0xE0 SHL DUP2 MSTORE PUSH1 0x4 ADD PUSH2 0xEA2 SWAP4 SWAP3 SWAP2 SWAP1 PUSH2 0x1977 JUMP JUMPDEST PUSH0 PUSH1 0x40 MLOAD DUP1 DUP4 SUB DUP2 PUSH0 DUP8 DUP1 EXTCODESIZE ISZERO DUP1 ISZERO PUSH2 0xEB9 JUMPI PUSH0 DUP1 REVERT JUMPDEST POP GAS CALL ISZERO DUP1 ISZERO PUSH2 0xECB JUMPI RETURNDATASIZE PUSH0 DUP1 RETURNDATACOPY RETURNDATASIZE PUSH0 REVERT JUMPDEST POP POP POP POP PUSH0 DUP1 SLOAD SWAP1 PUSH2 0x100 EXP SWAP1 DIV PUSH20 0xFFFFFFFFFFFFFFFFFFFFFFFFFFFFFFFFFFFFFFFF AND PUSH20 0xFFFFFFFFFFFFFFFFFFFFFFFFFFFFFFFFFFFFFFFF AND PUSH4 0x9202E886 DUP5 DUP4 PUSH0 PUSH1 0x40 MLOAD DUP5 PUSH4 0xFFFFFFFF AND PUSH1 0xE0 SHL DUP2 MSTORE PUSH1 0x4 ADD PUSH2 0xF2B SWAP4 SWAP3 SWAP2 SWAP1 PUSH2 0x1977 JUMP JUMPDEST PUSH0 PUSH1 0x40 MLOAD DUP1 DUP4 SUB DUP2 PUSH0 DUP8 DUP1 EXTCODESIZE ISZERO DUP1 ISZERO PUSH2 0xF42 JUMPI PUSH0 DUP1 REVERT JUMPDEST POP GAS CALL ISZERO DUP1 ISZERO PUSH2 0xF54 JUMPI RETURNDATASIZE PUSH0 DUP1 RETURNDATACOPY RETURNDATASIZE PUSH0 REVERT JUMPDEST POP POP POP POP PUSH1 0x6 PUSH1 0x40 MLOAD DUP1 PUSH1 0x80 ADD PUSH1 0x40 MSTORE DUP1 DUP7 PUSH20 0xFFFFFFFFFFFFFFFFFFFFFFFFFFFFFFFFFFFFFFFF AND DUP2 MSTORE PUSH1 0x20 ADD DUP6 PUSH20 0xFFFFFFFFFFFFFFFFFFFFFFFFFFFFFFFFFFFFFFFF AND DUP2 MSTORE PUSH1 0x20 ADD DUP5 DUP2 MSTORE PUSH1 0x20 ADD DUP4 DUP2 MSTORE POP SWAP1 DUP1 PUSH1 0x1 DUP2 SLOAD ADD DUP1 DUP3 SSTORE DUP1 SWAP2 POP POP PUSH1 0x1 SWAP1 SUB SWAP1 PUSH0 MSTORE PUSH1 0x20 PUSH0 KECCAK256 SWAP1 PUSH1 0x4 MUL ADD PUSH0 SWAP1 SWAP2 SWAP1 SWAP2 SWAP1 SWAP2 POP PUSH0 DUP3 ADD MLOAD DUP2 PUSH0 ADD PUSH0 PUSH2 0x100 EXP DUP2 SLOAD DUP2 PUSH20 0xFFFFFFFFFFFFFFFFFFFFFFFFFFFFFFFFFFFFFFFF MUL NOT AND SWAP1 DUP4 PUSH20 0xFFFFFFFFFFFFFFFFFFFFFFFFFFFFFFFFFFFFFFFF AND MUL OR SWAP1 SSTORE POP PUSH1 0x20 DUP3 ADD MLOAD DUP2 PUSH1 0x1 ADD PUSH0 PUSH2 0x100 EXP DUP2 SLOAD DUP2 PUSH20 0xFFFFFFFFFFFFFFFFFFFFFFFFFFFFFFFFFFFFFFFF MUL NOT AND SWAP1 DUP4 PUSH20 0xFFFFFFFFFFFFFFFFFFFFFFFFFFFFFFFFFFFFFFFF AND MUL OR SWAP1 SSTORE POP PUSH1 0x40 DUP3 ADD MLOAD DUP2 PUSH1 0x2 ADD SSTORE PUSH1 0x60 DUP3 ADD MLOAD DUP2 PUSH1 0x3 ADD SSTORE POP POP PUSH1 0x1 PUSH0 DUP2 SLOAD DUP1 SWAP3 SWAP2 SWAP1 PUSH2 0x107F SWAP1 PUSH2 0x16C1 JUMP JUMPDEST SWAP2 SWAP1 POP SSTORE PUSH32 0xF61C8C5226E224AF93DDDD2F5946D284253037E2B520E3A30F4B61E0FA43B163 DUP6 DUP6 DUP6 PUSH1 0x40 MLOAD PUSH2 0x10B6 SWAP4 SWAP3 SWAP2 SWAP1 PUSH2 0x1942 JUMP JUMPDEST PUSH1 0x40 MLOAD DUP1 SWAP2 SUB SWAP1 LOG2 POP POP POP POP JUMP JUMPDEST PUSH0 DUP1 PUSH0 SWAP1 POP JUMPDEST DUP4 DUP1 SLOAD SWAP1 POP DUP2 LT ISZERO PUSH2 0x110E JUMPI DUP3 DUP5 DUP3 DUP2 SLOAD DUP2 LT PUSH2 0x10EA JUMPI PUSH2 0x10E9 PUSH2 0x15D7 JUMP JUMPDEST JUMPDEST SWAP1 PUSH0 MSTORE PUSH1 0x20 PUSH0 KECCAK256 ADD SLOAD SUB PUSH2 0x1101 JUMPI DUP1 SWAP2 POP POP PUSH2 0x1117 JUMP JUMPDEST DUP1 DUP1 PUSH1 0x1 ADD SWAP2 POP POP PUSH2 0x10CA JUMP JUMPDEST POP DUP3 DUP1 SLOAD SWAP1 POP SWAP1 POP JUMPDEST SWAP3 SWAP2 POP POP JUMP JUMPDEST PUSH0 PUSH1 0x1 SWAP1 POP JUMPDEST DUP3 DUP2 LT ISZERO PUSH2 0x129C JUMPI PUSH0 DUP5 DUP3 DUP2 MLOAD DUP2 LT PUSH2 0x113F JUMPI PUSH2 0x113E PUSH2 0x15D7 JUMP JUMPDEST JUMPDEST PUSH1 0x20 MUL PUSH1 0x20 ADD ADD MLOAD SWAP1 POP PUSH0 PUSH1 0x1 DUP4 PUSH2 0x1157 SWAP2 SWAP1 PUSH2 0x18B5 JUMP JUMPDEST SWAP1 POP JUMPDEST PUSH0 DUP2 LT ISZERO DUP1 ISZERO PUSH2 0x11FB JUMPI POP DUP4 PUSH2 0x11B4 JUMPI PUSH1 0x3 PUSH0 DUP8 DUP4 DUP2 MLOAD DUP2 LT PUSH2 0x1180 JUMPI PUSH2 0x117F PUSH2 0x15D7 JUMP JUMPDEST JUMPDEST PUSH1 0x20 MUL PUSH1 0x20 ADD ADD MLOAD DUP2 MSTORE PUSH1 0x20 ADD SWAP1 DUP2 MSTORE PUSH1 0x20 ADD PUSH0 KECCAK256 PUSH1 0x2 ADD SLOAD PUSH1 0x3 PUSH0 DUP5 DUP2 MSTORE PUSH1 0x20 ADD SWAP1 DUP2 MSTORE PUSH1 0x20 ADD PUSH0 KECCAK256 PUSH1 0x2 ADD SLOAD LT PUSH2 0x11FA JUMP JUMPDEST PUSH1 0x3 PUSH0 DUP8 DUP4 DUP2 MLOAD DUP2 LT PUSH2 0x11CA JUMPI PUSH2 0x11C9 PUSH2 0x15D7 JUMP JUMPDEST JUMPDEST PUSH1 0x20 MUL PUSH1 0x20 ADD ADD MLOAD DUP2 MSTORE PUSH1 0x20 ADD SWAP1 DUP2 MSTORE PUSH1 0x20 ADD PUSH0 KECCAK256 PUSH1 0x2 ADD SLOAD PUSH1 0x3 PUSH0 DUP5 DUP2 MSTORE PUSH1 0x20 ADD SWAP1 DUP2 MSTORE PUSH1 0x20 ADD PUSH0 KECCAK256 PUSH1 0x2 ADD SLOAD GT JUMPDEST JUMPDEST ISZERO PUSH2 0x1261 JUMPI DUP6 DUP2 DUP2 MLOAD DUP2 LT PUSH2 0x1213 JUMPI PUSH2 0x1212 PUSH2 0x15D7 JUMP JUMPDEST JUMPDEST PUSH1 0x20 MUL PUSH1 0x20 ADD ADD MLOAD DUP7 PUSH1 0x1 DUP4 PUSH2 0x1229 SWAP2 SWAP1 PUSH2 0x1631 JUMP JUMPDEST DUP2 MLOAD DUP2 LT PUSH2 0x123A JUMPI PUSH2 0x1239 PUSH2 0x15D7 JUMP JUMPDEST JUMPDEST PUSH1 0x20 MUL PUSH1 0x20 ADD ADD DUP2 DUP2 MSTORE POP POP PUSH0 DUP2 SUB ISZERO PUSH2 0x1261 JUMPI DUP1 DUP1 PUSH2 0x1259 SWAP1 PUSH2 0x19AC JUMP JUMPDEST SWAP2 POP POP PUSH2 0x115A JUMP JUMPDEST DUP2 DUP7 PUSH1 0x1 DUP4 PUSH2 0x1270 SWAP2 SWAP1 PUSH2 0x1631 JUMP JUMPDEST DUP2 MLOAD DUP2 LT PUSH2 0x1281 JUMPI PUSH2 0x1280 PUSH2 0x15D7 JUMP JUMPDEST JUMPDEST PUSH1 0x20 MUL PUSH1 0x20 ADD ADD DUP2 DUP2 MSTORE POP POP POP POP DUP1 DUP1 PUSH1 0x1 ADD SWAP2 POP POP PUSH2 0x1123 JUMP JUMPDEST POP POP POP POP JUMP JUMPDEST PUSH0 DUP2 SWAP1 POP SWAP2 SWAP1 POP JUMP JUMPDEST PUSH2 0x12B4 DUP2 PUSH2 0x12A2 JUMP JUMPDEST DUP3 MSTORE POP POP JUMP JUMPDEST PUSH0 PUSH1 0x20 DUP3 ADD SWAP1 POP PUSH2 0x12CD PUSH0 DUP4 ADD DUP5 PUSH2 0x12AB JUMP JUMPDEST SWAP3 SWAP2 POP POP JUMP JUMPDEST PUSH0 DUP1 REVERT JUMPDEST PUSH2 0x12E0 DUP2 PUSH2 0x12A2 JUMP JUMPDEST DUP2 EQ PUSH2 0x12EA JUMPI PUSH0 DUP1 REVERT JUMPDEST POP JUMP JUMPDEST PUSH0 DUP2 CALLDATALOAD SWAP1 POP PUSH2 0x12FB DUP2 PUSH2 0x12D7 JUMP JUMPDEST SWAP3 SWAP2 POP POP JUMP JUMPDEST PUSH0 PUSH1 0x20 DUP3 DUP5 SUB SLT ISZERO PUSH2 0x1316 JUMPI PUSH2 0x1315 PUSH2 0x12D3 JUMP JUMPDEST JUMPDEST PUSH0 PUSH2 0x1323 DUP5 DUP3 DUP6 ADD PUSH2 0x12ED JUMP JUMPDEST SWAP2 POP POP SWAP3 SWAP2 POP POP JUMP JUMPDEST PUSH0 PUSH20 0xFFFFFFFFFFFFFFFFFFFFFFFFFFFFFFFFFFFFFFFF DUP3 AND SWAP1 POP SWAP2 SWAP1 POP JUMP JUMPDEST PUSH0 PUSH2 0x1355 DUP3 PUSH2 0x132C JUMP JUMPDEST SWAP1 POP SWAP2 SWAP1 POP JUMP JUMPDEST PUSH2 0x1365 DUP2 PUSH2 0x134B JUMP JUMPDEST DUP3 MSTORE POP POP JUMP JUMPDEST PUSH0 PUSH1 0x80 DUP3 ADD SWAP1 POP PUSH2 0x137E PUSH0 DUP4 ADD DUP8 PUSH2 0x135C JUMP JUMPDEST PUSH2 0x138B PUSH1 0x20 DUP4 ADD DUP7 PUSH2 0x135C JUMP JUMPDEST PUSH2 0x1398 PUSH1 0x40 DUP4 ADD DUP6 PUSH2 0x12AB JUMP JUMPDEST PUSH2 0x13A5 PUSH1 0x60 DUP4 ADD DUP5 PUSH2 0x12AB JUMP JUMPDEST SWAP6 SWAP5 POP POP POP POP POP JUMP JUMPDEST PUSH0 DUP2 ISZERO ISZERO SWAP1 POP SWAP2 SWAP1 POP JUMP JUMPDEST PUSH2 0x13C2 DUP2 PUSH2 0x13AE JUMP JUMPDEST DUP3 MSTORE POP POP JUMP JUMPDEST PUSH0 PUSH1 0x80 DUP3 ADD SWAP1 POP PUSH2 0x13DB PUSH0 DUP4 ADD DUP8 PUSH2 0x135C JUMP JUMPDEST PUSH2 0x13E8 PUSH1 0x20 DUP4 ADD DUP7 PUSH2 0x12AB JUMP JUMPDEST PUSH2 0x13F5 PUSH1 0x40 DUP4 ADD DUP6 PUSH2 0x12AB JUMP JUMPDEST PUSH2 0x1402 PUSH1 0x60 DUP4 ADD DUP5 PUSH2 0x13B9 JUMP JUMPDEST SWAP6 SWAP5 POP POP POP POP POP JUMP JUMPDEST PUSH2 0x1414 DUP2 PUSH2 0x13AE JUMP JUMPDEST DUP2 EQ PUSH2 0x141E JUMPI PUSH0 DUP1 REVERT JUMPDEST POP JUMP JUMPDEST PUSH0 DUP2 CALLDATALOAD SWAP1 POP PUSH2 0x142F DUP2 PUSH2 0x140B JUMP JUMPDEST SWAP3 SWAP2 POP POP JUMP JUMPDEST PUSH0 DUP1 PUSH0 PUSH1 0x60 DUP5 DUP7 SUB SLT ISZERO PUSH2 0x144C JUMPI PUSH2 0x144B PUSH2 0x12D3 JUMP JUMPDEST JUMPDEST PUSH0 PUSH2 0x1459 DUP7 DUP3 DUP8 ADD PUSH2 0x12ED JUMP JUMPDEST SWAP4 POP POP PUSH1 0x20 PUSH2 0x146A DUP7 DUP3 DUP8 ADD PUSH2 0x12ED JUMP JUMPDEST SWAP3 POP POP PUSH1 0x40 PUSH2 0x147B DUP7 DUP3 DUP8 ADD PUSH2 0x1421 JUMP JUMPDEST SWAP2 POP POP SWAP3 POP SWAP3 POP SWAP3 JUMP JUMPDEST PUSH0 DUP2 MLOAD SWAP1 POP SWAP2 SWAP1 POP JUMP JUMPDEST PUSH0 DUP3 DUP3 MSTORE PUSH1 0x20 DUP3 ADD SWAP1 POP SWAP3 SWAP2 POP POP JUMP JUMPDEST PUSH0 DUP2 SWAP1 POP PUSH1 0x20 DUP3 ADD SWAP1 POP SWAP2 SWAP1 POP JUMP JUMPDEST PUSH2 0x14B7 DUP2 PUSH2 0x134B JUMP JUMPDEST DUP3 MSTORE POP POP JUMP JUMPDEST PUSH2 0x14C6 DUP2 PUSH2 0x12A2 JUMP JUMPDEST DUP3 MSTORE POP POP JUMP JUMPDEST PUSH1 0x80 DUP3 ADD PUSH0 DUP3 ADD MLOAD PUSH2 0x14E0 PUSH0 DUP6 ADD DUP3 PUSH2 0x14AE JUMP JUMPDEST POP PUSH1 0x20 DUP3 ADD MLOAD PUSH2 0x14F3 PUSH1 0x20 DUP6 ADD DUP3 PUSH2 0x14AE JUMP JUMPDEST POP PUSH1 0x40 DUP3 ADD MLOAD PUSH2 0x1506 PUSH1 0x40 DUP6 ADD DUP3 PUSH2 0x14BD JUMP JUMPDEST POP PUSH1 0x60 DUP3 ADD MLOAD PUSH2 0x1519 PUSH1 0x60 DUP6 ADD DUP3 PUSH2 0x14BD JUMP JUMPDEST POP POP POP POP JUMP JUMPDEST PUSH0 PUSH2 0x152A DUP4 DUP4 PUSH2 0x14CC JUMP JUMPDEST PUSH1 0x80 DUP4 ADD SWAP1 POP SWAP3 SWAP2 POP POP JUMP JUMPDEST PUSH0 PUSH1 0x20 DUP3 ADD SWAP1 POP SWAP2 SWAP1 POP JUMP JUMPDEST PUSH0 PUSH2 0x154C DUP3 PUSH2 0x1485 JUMP JUMPDEST PUSH2 0x1556 DUP2 DUP6 PUSH2 0x148F JUMP JUMPDEST SWAP4 POP PUSH2 0x1561 DUP4 PUSH2 0x149F JUMP JUMPDEST DUP1 PUSH0 JUMPDEST DUP4 DUP2 LT ISZERO PUSH2 0x1591 JUMPI DUP2 MLOAD PUSH2 0x1578 DUP9 DUP3 PUSH2 0x151F JUMP JUMPDEST SWAP8 POP PUSH2 0x1583 DUP4 PUSH2 0x1536 JUMP JUMPDEST SWAP3 POP POP PUSH1 0x1 DUP2 ADD SWAP1 POP PUSH2 0x1564 JUMP JUMPDEST POP DUP6 SWAP4 POP POP POP POP SWAP3 SWAP2 POP POP JUMP JUMPDEST PUSH0 PUSH1 0x20 DUP3 ADD SWAP1 POP DUP2 DUP2 SUB PUSH0 DUP4 ADD MSTORE PUSH2 0x15B6 DUP2 DUP5 PUSH2 0x1542 JUMP JUMPDEST SWAP1 POP SWAP3 SWAP2 POP POP JUMP JUMPDEST PUSH0 PUSH1 0x20 DUP3 ADD SWAP1 POP PUSH2 0x15D1 PUSH0 DUP4 ADD DUP5 PUSH2 0x135C JUMP JUMPDEST SWAP3 SWAP2 POP POP JUMP JUMPDEST PUSH32 0x4E487B7100000000000000000000000000000000000000000000000000000000 PUSH0 MSTORE PUSH1 0x32 PUSH1 0x4 MSTORE PUSH1 0x24 PUSH0 REVERT JUMPDEST PUSH32 0x4E487B7100000000000000000000000000000000000000000000000000000000 PUSH0 MSTORE PUSH1 0x11 PUSH1 0x4 MSTORE PUSH1 0x24 PUSH0 REVERT JUMPDEST PUSH0 PUSH2 0x163B DUP3 PUSH2 0x12A2 JUMP JUMPDEST SWAP2 POP PUSH2 0x1646 DUP4 PUSH2 0x12A2 JUMP JUMPDEST SWAP3 POP DUP3 DUP3 ADD SWAP1 POP DUP1 DUP3 GT ISZERO PUSH2 0x165E JUMPI PUSH2 0x165D PUSH2 0x1604 JUMP JUMPDEST JUMPDEST SWAP3 SWAP2 POP POP JUMP JUMPDEST PUSH32 0x4E487B7100000000000000000000000000000000000000000000000000000000 PUSH0 MSTORE PUSH1 0x12 PUSH1 0x4 MSTORE PUSH1 0x24 PUSH0 REVERT JUMPDEST PUSH0 PUSH2 0x169B DUP3 PUSH2 0x12A2 JUMP JUMPDEST SWAP2 POP PUSH2 0x16A6 DUP4 PUSH2 0x12A2 JUMP JUMPDEST SWAP3 POP DUP3 PUSH2 0x16B6 JUMPI PUSH2 0x16B5 PUSH2 0x1664 JUMP JUMPDEST JUMPDEST DUP3 DUP3 DIV SWAP1 POP SWAP3 SWAP2 POP POP JUMP JUMPDEST PUSH0 PUSH2 0x16CB DUP3 PUSH2 0x12A2 JUMP JUMPDEST SWAP2 POP PUSH32 0xFFFFFFFFFFFFFFFFFFFFFFFFFFFFFFFFFFFFFFFFFFFFFFFFFFFFFFFFFFFFFFFF DUP3 SUB PUSH2 0x16FD JUMPI PUSH2 0x16FC PUSH2 0x1604 JUMP JUMPDEST JUMPDEST PUSH1 0x1 DUP3 ADD SWAP1 POP SWAP2 SWAP1 POP JUMP JUMPDEST PUSH0 DUP2 MLOAD SWAP1 POP PUSH2 0x1716 DUP2 PUSH2 0x140B JUMP JUMPDEST SWAP3 SWAP2 POP POP JUMP JUMPDEST PUSH0 PUSH1 0x20 DUP3 DUP5 SUB SLT ISZERO PUSH2 0x1731 JUMPI PUSH2 0x1730 PUSH2 0x12D3 JUMP JUMPDEST JUMPDEST PUSH0 PUSH2 0x173E DUP5 DUP3 DUP6 ADD PUSH2 0x1708 JUMP JUMPDEST SWAP2 POP POP SWAP3 SWAP2 POP POP JUMP JUMPDEST PUSH0 DUP3 DUP3 MSTORE PUSH1 0x20 DUP3 ADD SWAP1 POP SWAP3 SWAP2 POP POP JUMP JUMPDEST PUSH32 0x55736572206D75737420626520726567697374657265642E0000000000000000 PUSH0 DUP3 ADD MSTORE POP JUMP JUMPDEST PUSH0 PUSH2 0x178B PUSH1 0x18 DUP4 PUSH2 0x1747 JUMP JUMPDEST SWAP2 POP PUSH2 0x1796 DUP3 PUSH2 0x1757 JUMP JUMPDEST PUSH1 0x20 DUP3 ADD SWAP1 POP SWAP2 SWAP1 POP JUMP JUMPDEST PUSH0 PUSH1 0x20 DUP3 ADD SWAP1 POP DUP2 DUP2 SUB PUSH0 DUP4 ADD MSTORE PUSH2 0x17B8 DUP2 PUSH2 0x177F JUMP JUMPDEST SWAP1 POP SWAP2 SWAP1 POP JUMP JUMPDEST PUSH32 0x456E6572677920616D6F756E74206D7573742062652067726561746572207468 PUSH0 DUP3 ADD MSTORE PUSH32 0x616E207A65726F2E000000000000000000000000000000000000000000000000 PUSH1 0x20 DUP3 ADD MSTORE POP JUMP JUMPDEST PUSH0 PUSH2 0x1819 PUSH1 0x28 DUP4 PUSH2 0x1747 JUMP JUMPDEST SWAP2 POP PUSH2 0x1824 DUP3 PUSH2 0x17BF JUMP JUMPDEST PUSH1 0x40 DUP3 ADD SWAP1 POP SWAP2 SWAP1 POP JUMP JUMPDEST PUSH0 PUSH1 0x20 DUP3 ADD SWAP1 POP DUP2 DUP2 SUB PUSH0 DUP4 ADD MSTORE PUSH2 0x1846 DUP2 PUSH2 0x180D JUMP JUMPDEST SWAP1 POP SWAP2 SWAP1 POP JUMP JUMPDEST PUSH32 0x5072696365206D7573742062652067726561746572207468616E207A65726F2E PUSH0 DUP3 ADD MSTORE POP JUMP JUMPDEST PUSH0 PUSH2 0x1881 PUSH1 0x20 DUP4 PUSH2 0x1747 JUMP JUMPDEST SWAP2 POP PUSH2 0x188C DUP3 PUSH2 0x184D JUMP JUMPDEST PUSH1 0x20 DUP3 ADD SWAP1 POP SWAP2 SWAP1 POP JUMP JUMPDEST PUSH0 PUSH1 0x20 DUP3 ADD SWAP1 POP DUP2 DUP2 SUB PUSH0 DUP4 ADD MSTORE PUSH2 0x18AE DUP2 PUSH2 0x1875 JUMP JUMPDEST SWAP1 POP SWAP2 SWAP1 POP JUMP JUMPDEST PUSH0 PUSH2 0x18BF DUP3 PUSH2 0x12A2 JUMP JUMPDEST SWAP2 POP PUSH2 0x18CA DUP4 PUSH2 0x12A2 JUMP JUMPDEST SWAP3 POP DUP3 DUP3 SUB SWAP1 POP DUP2 DUP2 GT ISZERO PUSH2 0x18E2 JUMPI PUSH2 0x18E1 PUSH2 0x1604 JUMP JUMPDEST JUMPDEST SWAP3 SWAP2 POP POP JUMP JUMPDEST PUSH32 0x4E487B7100000000000000000000000000000000000000000000000000000000 PUSH0 MSTORE PUSH1 0x31 PUSH1 0x4 MSTORE PUSH1 0x24 PUSH0 REVERT JUMPDEST PUSH32 0x4E487B7100000000000000000000000000000000000000000000000000000000 PUSH0 MSTORE PUSH1 0x41 PUSH1 0x4 MSTORE PUSH1 0x24 PUSH0 REVERT JUMPDEST PUSH0 PUSH1 0x60 DUP3 ADD SWAP1 POP PUSH2 0x1955 PUSH0 DUP4 ADD DUP7 PUSH2 0x135C JUMP JUMPDEST PUSH2 0x1962 PUSH1 0x20 DUP4 ADD DUP6 PUSH2 0x135C JUMP JUMPDEST PUSH2 0x196F PUSH1 0x40 DUP4 ADD DUP5 PUSH2 0x12AB JUMP JUMPDEST SWAP5 SWAP4 POP POP POP POP JUMP JUMPDEST PUSH0 PUSH1 0x60 DUP3 ADD SWAP1 POP PUSH2 0x198A PUSH0 DUP4 ADD DUP7 PUSH2 0x135C JUMP JUMPDEST PUSH2 0x1997 PUSH1 0x20 DUP4 ADD DUP6 PUSH2 0x12AB JUMP JUMPDEST PUSH2 0x19A4 PUSH1 0x40 DUP4 ADD DUP5 PUSH2 0x13B9 JUMP JUMPDEST SWAP5 SWAP4 POP POP POP POP JUMP JUMPDEST PUSH0 PUSH2 0x19B6 DUP3 PUSH2 0x12A2 JUMP JUMPDEST SWAP2 POP PUSH0 DUP3 SUB PUSH2 0x19C8 JUMPI PUSH2 0x19C7 PUSH2 0x1604 JUMP JUMPDEST JUMPDEST PUSH1 0x1 DUP3 SUB SWAP1 POP SWAP2 SWAP1 POP JUMP INVALID LOG2 PUSH5 0x6970667358 0x22 SLT KECCAK256 NUMBER PUSH17 0x7C5C41EE3987EED3075C42881741D34000 JUMP 0xCE KECCAK256 DUP15 SDIV 0xD0 SAR 0x4C GASLIMIT PUSH14 0x6749E864736F6C63430008180033 "
		},
		"gasEstimates": {
			"creation": {
				"codeDepositCost": "1333000",
				"executionCost": "infinite",
				"totalCost": "infinite"
			},
			"external": {
				"buyOrderIds(uint256)": "infinite",
				"cancelOrder(uint256)": "infinite",
				"getTradeHistory()": "infinite",
				"matchOrders()": "infinite",
				"nextOrderId()": "2426",
				"nextTradeId()": "2514",
				"orders(uint256)": "infinite",
				"placeOrder(uint256,uint256,bool)": "infinite",
				"sellOrderIds(uint256)": "infinite",
				"tradeHistory(uint256)": "infinite"
			},
			"internal": {
				"executeTrade(address,address,uint256,uint256)": "infinite",
				"filterAndSortOrders(uint256[] storage pointer,bool)": "infinite",
				"findIndex(uint256[] storage pointer,uint256)": "infinite",
				"findOrderIndex(uint256[] storage pointer,address)": "infinite",
				"removeOrder(uint256[] storage pointer,uint256)": "infinite",
				"sortOrders(uint256[] memory,uint256,bool)": "infinite"
			}
		},
		"methodIdentifiers": {
			"buyOrderIds(uint256)": "81490bff",
			"cancelOrder(uint256)": "514fcac7",
			"getTradeHistory()": "d251c05a",
			"matchOrders()": "7ee68546",
			"nextOrderId()": "2a58b330",
			"nextTradeId()": "813ad083",
			"orders(uint256)": "a85c38ef",
			"placeOrder(uint256,uint256,bool)": "bd2d447d",
			"sellOrderIds(uint256)": "8b3e4ec5",
			"tradeHistory(uint256)": "5b0c5dbd"
		}
	},
	"abi": [
		{
			"inputs": [
				{
					"internalType": "address",
					"name": "userManagerAddress",
					"type": "address"
				}
			],
			"stateMutability": "nonpayable",
			"type": "constructor"
		},
		{
			"anonymous": false,
			"inputs": [
				{
					"indexed": true,
					"internalType": "uint256",
					"name": "orderId",
					"type": "uint256"
				},
				{
					"indexed": false,
					"internalType": "address",
					"name": "user",
					"type": "address"
				}
			],
			"name": "OrderCancelled",
			"type": "event"
		},
		{
			"anonymous": false,
			"inputs": [
				{
					"indexed": true,
					"internalType": "uint256",
					"name": "orderId",
					"type": "uint256"
				},
				{
					"indexed": false,
					"internalType": "address",
					"name": "user",
					"type": "address"
				},
				{
					"indexed": false,
					"internalType": "uint256",
					"name": "energyAmount",
					"type": "uint256"
				},
				{
					"indexed": false,
					"internalType": "uint256",
					"name": "price",
					"type": "uint256"
				},
				{
					"indexed": false,
					"internalType": "bool",
					"name": "isBuyOrder",
					"type": "bool"
				}
			],
			"name": "OrderPlaced",
			"type": "event"
		},
		{
			"anonymous": false,
			"inputs": [
				{
					"indexed": true,
					"internalType": "uint256",
					"name": "tradeId",
					"type": "uint256"
				},
				{
					"indexed": false,
					"internalType": "address",
					"name": "buyer",
					"type": "address"
				},
				{
					"indexed": false,
					"internalType": "address",
					"name": "seller",
					"type": "address"
				},
				{
					"indexed": false,
					"internalType": "uint256",
					"name": "averagePrice",
					"type": "uint256"
				}
			],
			"name": "TradeMatched",
			"type": "event"
		},
		{
			"inputs": [
				{
					"internalType": "uint256",
					"name": "",
					"type": "uint256"
				}
			],
			"name": "buyOrderIds",
			"outputs": [
				{
					"internalType": "uint256",
					"name": "",
					"type": "uint256"
				}
			],
			"stateMutability": "view",
			"type": "function"
		},
		{
			"inputs": [
				{
					"internalType": "uint256",
					"name": "orderId",
					"type": "uint256"
				}
			],
			"name": "cancelOrder",
			"outputs": [],
			"stateMutability": "nonpayable",
			"type": "function"
		},
		{
			"inputs": [],
			"name": "getTradeHistory",
			"outputs": [
				{
					"components": [
						{
							"internalType": "address",
							"name": "buyer",
							"type": "address"
						},
						{
							"internalType": "address",
							"name": "seller",
							"type": "address"
						},
						{
							"internalType": "uint256",
							"name": "averagePrice",
							"type": "uint256"
						},
						{
							"internalType": "uint256",
							"name": "energyAmount",
							"type": "uint256"
						}
					],
					"internalType": "struct IndirectEnergyTrading.Trade[]",
					"name": "",
					"type": "tuple[]"
				}
			],
			"stateMutability": "view",
			"type": "function"
		},
		{
			"inputs": [],
			"name": "matchOrders",
			"outputs": [],
			"stateMutability": "nonpayable",
			"type": "function"
		},
		{
			"inputs": [],
			"name": "nextOrderId",
			"outputs": [
				{
					"internalType": "uint256",
					"name": "",
					"type": "uint256"
				}
			],
			"stateMutability": "view",
			"type": "function"
		},
		{
			"inputs": [],
			"name": "nextTradeId",
			"outputs": [
				{
					"internalType": "uint256",
					"name": "",
					"type": "uint256"
				}
			],
			"stateMutability": "view",
			"type": "function"
		},
		{
			"inputs": [
				{
					"internalType": "uint256",
					"name": "",
					"type": "uint256"
				}
			],
			"name": "orders",
			"outputs": [
				{
					"internalType": "address",
					"name": "user",
					"type": "address"
				},
				{
					"internalType": "uint256",
					"name": "energyAmount",
					"type": "uint256"
				},
				{
					"internalType": "uint256",
					"name": "price",
					"type": "uint256"
				},
				{
					"internalType": "bool",
					"name": "isBuyOrder",
					"type": "bool"
				}
			],
			"stateMutability": "view",
			"type": "function"
		},
		{
			"inputs": [
				{
					"internalType": "uint256",
					"name": "_energyAmount",
					"type": "uint256"
				},
				{
					"internalType": "uint256",
					"name": "_price",
					"type": "uint256"
				},
				{
					"internalType": "bool",
					"name": "_isBuyOrder",
					"type": "bool"
				}
			],
			"name": "placeOrder",
			"outputs": [],
			"stateMutability": "nonpayable",
			"type": "function"
		},
		{
			"inputs": [
				{
					"internalType": "uint256",
					"name": "",
					"type": "uint256"
				}
			],
			"name": "sellOrderIds",
			"outputs": [
				{
					"internalType": "uint256",
					"name": "",
					"type": "uint256"
				}
			],
			"stateMutability": "view",
			"type": "function"
		},
		{
			"inputs": [
				{
					"internalType": "uint256",
					"name": "",
					"type": "uint256"
				}
			],
			"name": "tradeHistory",
			"outputs": [
				{
					"internalType": "address",
					"name": "buyer",
					"type": "address"
				},
				{
					"internalType": "address",
					"name": "seller",
					"type": "address"
				},
				{
					"internalType": "uint256",
					"name": "averagePrice",
					"type": "uint256"
				},
				{
					"internalType": "uint256",
					"name": "energyAmount",
					"type": "uint256"
				}
			],
			"stateMutability": "view",
			"type": "function"
		}
	]
}