{
	"data": {
		"bytecode": {
			"linkReferences": {},
			"object": "608060405234801562000010575f80fd5b506040516200376f3803806200376f833981810160405281019062000036919062000121565b3360035f6101000a81548173ffffffffffffffffffffffffffffffffffffffff021916908373ffffffffffffffffffffffffffffffffffffffff160217905550805f806101000a81548173ffffffffffffffffffffffffffffffffffffffff021916908373ffffffffffffffffffffffffffffffffffffffff1602179055505062000151565b5f80fd5b5f73ffffffffffffffffffffffffffffffffffffffff82169050919050565b5f620000eb82620000c0565b9050919050565b620000fd81620000df565b811462000108575f80fd5b50565b5f815190506200011b81620000f2565b92915050565b5f60208284031215620001395762000138620000bc565b5b5f62000148848285016200010b565b91505092915050565b613610806200015f5f395ff3fe608060405234801561000f575f80fd5b5060043610610156575f3560e01c8063a591efde116100c1578063c3bcf1921161007a578063c3bcf19214610404578063f014a60114610422578063f38488ec1461043e578063f5aec88c1461045a578063f851a4401461048a578063fc0c546a146104a857610156565b8063a591efde14610328578063a64b6e5f14610346578063a87430ba14610362578063af7ccfa714610398578063b4815081146103b4578063c33277e3146103d057610156565b80635c60f226116101135780635c60f2261461026c5780636386c1c7146102885780636fb4309b146102b8578063767ce2dd146102d45780639202e886146102f057806392d9c36f1461030c57610156565b80630e947bd81461015a578063163f75221461018a5780633aecd0e3146101ba5780633b605047146101ea57806346352b58146102205780634bc4824014610250575b5f80fd5b610174600480360381019061016f9190612207565b6104c6565b6040516101819190612356565b60405180910390f35b6101a4600480360381019061019f9190612207565b6106ab565b6040516101b19190612390565b60405180910390f35b6101d460048036038101906101cf9190612207565b610700565b6040516101e191906123b8565b60405180910390f35b61020460048036038101906101ff9190612207565b6107a0565b6040516102179796959493929190612440565b60405180910390f35b61023a60048036038101906102359190612207565b6108d8565b60405161024791906123b8565b60405180910390f35b61026a60048036038101906102659190612634565b610921565b005b61028660048036038101906102819190612207565b610d03565b005b6102a2600480360381019061029d9190612207565b6110c3565b6040516102af919061276b565b60405180910390f35b6102d260048036038101906102cd91906127b5565b6112cc565b005b6102ee60048036038101906102e99190612805565b611389565b005b61030a600480360381019061030591906127b5565b6114dd565b005b61032660048036038101906103219190612634565b6115e2565b005b610330611736565b60405161033d919061292d565b60405180910390f35b610360600480360381019061035b919061294d565b6117c1565b005b61037c60048036038101906103779190612207565b6118bc565b60405161038f9796959493929190612440565b60405180910390f35b6103b260048036038101906103ad919061299d565b6119ab565b005b6103ce60048036038101906103c99190612207565b611a80565b005b6103ea60048036038101906103e59190612207565b611b67565b6040516103fb9594939291906129db565b60405180910390f35b61040c611c3e565b6040516104199190612b87565b60405180910390f35b61043c60048036038101906104379190612207565b611e87565b005b6104586004803603810190610453919061299d565b611f2d565b005b610474600480360381019061046f9190612207565b611fcc565b60405161048191906123b8565b60405180910390f35b61049261206c565b60405161049f9190612ba7565b60405180910390f35b6104b0612091565b6040516104bd9190612c1b565b60405180910390f35b6104ce6120b4565b60025f8373ffffffffffffffffffffffffffffffffffffffff1673ffffffffffffffffffffffffffffffffffffffff1681526020019081526020015f206006015f9054906101000a900460ff1661055a576040517f08c379a000000000000000000000000000000000000000000000000000000000815260040161055190612c7e565b60405180910390fd5b60045f8373ffffffffffffffffffffffffffffffffffffffff1673ffffffffffffffffffffffffffffffffffffffff1681526020019081526020015f206040518060a00160405290815f82015f9054906101000a900473ffffffffffffffffffffffffffffffffffffffff1673ffffffffffffffffffffffffffffffffffffffff1673ffffffffffffffffffffffffffffffffffffffff16815260200160018201805461060690612cc9565b80601f016020809104026020016040519081016040528092919081815260200182805461063290612cc9565b801561067d5780601f106106545761010080835404028352916020019161067d565b820191905f5260205f20905b81548152906001019060200180831161066057829003601f168201915b5050505050815260200160028201548152602001600382015481526020016004820154815250509050919050565b5f60025f8373ffffffffffffffffffffffffffffffffffffffff1673ffffffffffffffffffffffffffffffffffffffff1681526020019081526020015f206006015f9054906101000a900460ff169050919050565b5f805f9054906101000a900473ffffffffffffffffffffffffffffffffffffffff1673ffffffffffffffffffffffffffffffffffffffff166370a08231836040518263ffffffff1660e01b815260040161075a9190612ba7565b602060405180830381865afa158015610775573d5f803e3d5ffd5b505050506040513d601f19601f820116820180604052508101906107999190612d0d565b9050919050565b5f60605f805f805f8060025f8a73ffffffffffffffffffffffffffffffffffffffff1673ffffffffffffffffffffffffffffffffffffffff1681526020019081526020015f209050805f015f9054906101000a900473ffffffffffffffffffffffffffffffffffffffff16816001018260020154836003015484600401548560050154866006015f9054906101000a900460ff1685805461084090612cc9565b80601f016020809104026020016040519081016040528092919081815260200182805461086c90612cc9565b80156108b75780601f1061088e576101008083540402835291602001916108b7565b820191905f5260205f20905b81548152906001019060200180831161089a57829003601f168201915b50505050509550975097509750975097509750975050919395979092949650565b5f60025f8373ffffffffffffffffffffffffffffffffffffffff1673ffffffffffffffffffffffffffffffffffffffff1681526020019081526020015f20600501549050919050565b60025f3373ffffffffffffffffffffffffffffffffffffffff1673ffffffffffffffffffffffffffffffffffffffff1681526020019081526020015f206006015f9054906101000a900460ff16156109ae576040517f08c379a00000000000000000000000000000000000000000000000000000000081526004016109a590612d82565b60405180910390fd5b60025f3373ffffffffffffffffffffffffffffffffffffffff1673ffffffffffffffffffffffffffffffffffffffff1681526020019081526020015f206006015f9054906101000a900460ff1615610a3b576040517f08c379a0000000000000000000000000000000000000000000000000000000008152600401610a3290612d82565b60405180910390fd5b5f60025f3373ffffffffffffffffffffffffffffffffffffffff1673ffffffffffffffffffffffffffffffffffffffff1681526020019081526020015f20905033815f015f6101000a81548173ffffffffffffffffffffffffffffffffffffffff021916908373ffffffffffffffffffffffffffffffffffffffff16021790555084816001019081610acd9190612f34565b508381600301819055508281600401819055508181600501819055506001816006015f6101000a81548160ff0219169083151502179055505f8054906101000a900473ffffffffffffffffffffffffffffffffffffffff1673ffffffffffffffffffffffffffffffffffffffff1663313ce5676040518163ffffffff1660e01b8152600401602060405180830381865afa158015610b6d573d5f803e3d5ffd5b505050506040513d601f19601f82011682018060405250810190610b919190613039565b60ff16600a610ba091906131c0565b6014610bac919061320a565b8160020181905550600133908060018154018082558091505060019003905f5260205f20015f9091909190916101000a81548173ffffffffffffffffffffffffffffffffffffffff021916908373ffffffffffffffffffffffffffffffffffffffff1602179055505f8054906101000a900473ffffffffffffffffffffffffffffffffffffffff1673ffffffffffffffffffffffffffffffffffffffff166340c10f193383600201546040518363ffffffff1660e01b8152600401610c7292919061324b565b5f604051808303815f87803b158015610c89575f80fd5b505af1158015610c9b573d5f803e3d5ffd5b505050503373ffffffffffffffffffffffffffffffffffffffff167f0c1c48f9664da3d8aa20b115caad4bc6e3bba7518fd57d8252772ee728ffb2d686868686604051610ceb9493929190613272565b60405180910390a2610cfc33611a80565b5050505050565b60035f9054906101000a900473ffffffffffffffffffffffffffffffffffffffff1673ffffffffffffffffffffffffffffffffffffffff163373ffffffffffffffffffffffffffffffffffffffff1614610d92576040517f08c379a0000000000000000000000000000000000000000000000000000000008152600401610d8990613306565b60405180910390fd5b60025f8273ffffffffffffffffffffffffffffffffffffffff1673ffffffffffffffffffffffffffffffffffffffff1681526020019081526020015f206006015f9054906101000a900460ff16610e1e576040517f08c379a0000000000000000000000000000000000000000000000000000000008152600401610e1590612c7e565b60405180910390fd5b5f805b600180549050811015610f98578273ffffffffffffffffffffffffffffffffffffffff1660018281548110610e5957610e58613324565b5b905f5260205f20015f9054906101000a900473ffffffffffffffffffffffffffffffffffffffff1673ffffffffffffffffffffffffffffffffffffffff1603610f8d576001808080549050610eae9190613351565b81548110610ebf57610ebe613324565b5b905f5260205f20015f9054906101000a900473ffffffffffffffffffffffffffffffffffffffff1660018281548110610efb57610efa613324565b5b905f5260205f20015f6101000a81548173ffffffffffffffffffffffffffffffffffffffff021916908373ffffffffffffffffffffffffffffffffffffffff1602179055506001805480610f5257610f51613384565b5b600190038181905f5260205f20015f6101000a81549073ffffffffffffffffffffffffffffffffffffffff0219169055905560019150610f98565b806001019050610e21565b5080610fd9576040517f08c379a0000000000000000000000000000000000000000000000000000000008152600401610fd0906133fb565b60405180910390fd5b60025f8373ffffffffffffffffffffffffffffffffffffffff1673ffffffffffffffffffffffffffffffffffffffff1681526020019081526020015f205f8082015f6101000a81549073ffffffffffffffffffffffffffffffffffffffff0219169055600182015f61104b91906120f5565b600282015f9055600382015f9055600482015f9055600582015f9055600682015f6101000a81549060ff021916905550508173ffffffffffffffffffffffffffffffffffffffff167f4bc56f1321288dfb5b416cb3a7fd188723979f9e866c91d88eccf7fca039d03960405160405180910390a25050565b6110cb612132565b60025f8373ffffffffffffffffffffffffffffffffffffffff1673ffffffffffffffffffffffffffffffffffffffff1681526020019081526020015f206006015f9054906101000a900460ff16611157576040517f08c379a000000000000000000000000000000000000000000000000000000000815260040161114e90612c7e565b60405180910390fd5b60025f8373ffffffffffffffffffffffffffffffffffffffff1673ffffffffffffffffffffffffffffffffffffffff1681526020019081526020015f206040518060e00160405290815f82015f9054906101000a900473ffffffffffffffffffffffffffffffffffffffff1673ffffffffffffffffffffffffffffffffffffffff1673ffffffffffffffffffffffffffffffffffffffff16815260200160018201805461120390612cc9565b80601f016020809104026020016040519081016040528092919081815260200182805461122f90612cc9565b801561127a5780601f106112515761010080835404028352916020019161127a565b820191905f5260205f20905b81548152906001019060200180831161125d57829003601f168201915b5050505050815260200160028201548152602001600382015481526020016004820154815260200160058201548152602001600682015f9054906101000a900460ff1615151515815250509050919050565b801561132d578160025f8573ffffffffffffffffffffffffffffffffffffffff1673ffffffffffffffffffffffffffffffffffffffff1681526020019081526020015f206002015f8282546113219190613419565b92505081905550611384565b8160025f8573ffffffffffffffffffffffffffffffffffffffff1673ffffffffffffffffffffffffffffffffffffffff1681526020019081526020015f206002015f82825461137c9190613351565b925050819055505b505050565b60025f3373ffffffffffffffffffffffffffffffffffffffff1673ffffffffffffffffffffffffffffffffffffffff1681526020019081526020015f206006015f9054906101000a900460ff16611415576040517f08c379a000000000000000000000000000000000000000000000000000000000815260040161140c90612c7e565b60405180910390fd5b5f60045f3373ffffffffffffffffffffffffffffffffffffffff1673ffffffffffffffffffffffffffffffffffffffff1681526020019081526020015f209050848160010190816114669190612f34565b508381600401819055508281600201819055508181600301819055503373ffffffffffffffffffffffffffffffffffffffff167fa6852b488e1a23121717a53448978003c88002512d4cda6baab5a33d5be103d9868686866040516114ce949392919061344c565b60405180910390a25050505050565b6114e6836106ab565b611525576040517f08c379a000000000000000000000000000000000000000000000000000000000815260040161151c906134e0565b60405180910390fd5b8015611586578160025f8573ffffffffffffffffffffffffffffffffffffffff1673ffffffffffffffffffffffffffffffffffffffff1681526020019081526020015f206005015f82825461157a9190613419565b925050819055506115dd565b8160025f8573ffffffffffffffffffffffffffffffffffffffff1673ffffffffffffffffffffffffffffffffffffffff1681526020019081526020015f206005015f8282546115d59190613351565b925050819055505b505050565b60025f3373ffffffffffffffffffffffffffffffffffffffff1673ffffffffffffffffffffffffffffffffffffffff1681526020019081526020015f206006015f9054906101000a900460ff1661166e576040517f08c379a000000000000000000000000000000000000000000000000000000000815260040161166590612c7e565b60405180910390fd5b5f60025f3373ffffffffffffffffffffffffffffffffffffffff1673ffffffffffffffffffffffffffffffffffffffff1681526020019081526020015f209050848160010190816116bf9190612f34565b508381600301819055508281600401819055508181600501819055503373ffffffffffffffffffffffffffffffffffffffff167f0f5263c9868e9f7c401974519563bcc35ba1daa55f79b26fa618e2c2f3202acc868686866040516117279493929190613272565b60405180910390a25050505050565b606060018054806020026020016040519081016040528092919081815260200182805480156117b757602002820191905f5260205f20905b815f9054906101000a900473ffffffffffffffffffffffffffffffffffffffff1673ffffffffffffffffffffffffffffffffffffffff168152602001906001019080831161176e575b5050505050905090565b6117ca836106ab565b80156117db57506117da826106ab565b5b61181a576040517f08c379a000000000000000000000000000000000000000000000000000000000815260040161181190613548565b60405180910390fd5b5f8054906101000a900473ffffffffffffffffffffffffffffffffffffffff1673ffffffffffffffffffffffffffffffffffffffff166323b872dd8484846040518463ffffffff1660e01b815260040161187693929190613566565b6020604051808303815f875af1158015611892573d5f803e3d5ffd5b505050506040513d601f19601f820116820180604052508101906118b691906135af565b50505050565b6002602052805f5260405f205f91509050805f015f9054906101000a900473ffffffffffffffffffffffffffffffffffffffff169080600101805461190090612cc9565b80601f016020809104026020016040519081016040528092919081815260200182805461192c90612cc9565b80156119775780601f1061194e57610100808354040283529160200191611977565b820191905f5260205f20905b81548152906001019060200180831161195a57829003601f168201915b505050505090806002015490806003015490806004015490806005015490806006015f9054906101000a900460ff16905087565b60025f8373ffffffffffffffffffffffffffffffffffffffff1673ffffffffffffffffffffffffffffffffffffffff1681526020019081526020015f206006015f9054906101000a900460ff16611a37576040517f08c379a0000000000000000000000000000000000000000000000000000000008152600401611a2e90612c7e565b60405180910390fd5b8060025f8473ffffffffffffffffffffffffffffffffffffffff1673ffffffffffffffffffffffffffffffffffffffff1681526020019081526020015f20600501819055505050565b5f60045f8373ffffffffffffffffffffffffffffffffffffffff1673ffffffffffffffffffffffffffffffffffffffff1681526020019081526020015f20905081815f015f6101000a81548173ffffffffffffffffffffffffffffffffffffffff021916908373ffffffffffffffffffffffffffffffffffffffff1602179055506040518060400160405280600a81526020017f4e6f7454726164696e6700000000000000000000000000000000000000000000815250816001019081611b479190612f34565b505f81600201819055505f81600301819055505f81600401819055505050565b6004602052805f5260405f205f91509050805f015f9054906101000a900473ffffffffffffffffffffffffffffffffffffffff1690806001018054611bab90612cc9565b80601f0160208091040260200160405190810160405280929190818152602001828054611bd790612cc9565b8015611c225780601f10611bf957610100808354040283529160200191611c22565b820191905f5260205f20905b815481529060010190602001808311611c0557829003601f168201915b5050505050908060020154908060030154908060040154905085565b60605f60018054905067ffffffffffffffff811115611c6057611c5f6124bc565b5b604051908082528060200260200182016040528015611c9957816020015b611c86612132565b815260200190600190039081611c7e5790505b5090505f5b600180549050811015611e7f5760025f60018381548110611cc257611cc1613324565b5b905f5260205f20015f9054906101000a900473ffffffffffffffffffffffffffffffffffffffff1673ffffffffffffffffffffffffffffffffffffffff1673ffffffffffffffffffffffffffffffffffffffff1681526020019081526020015f206040518060e00160405290815f82015f9054906101000a900473ffffffffffffffffffffffffffffffffffffffff1673ffffffffffffffffffffffffffffffffffffffff1673ffffffffffffffffffffffffffffffffffffffff168152602001600182018054611d9290612cc9565b80601f0160208091040260200160405190810160405280929190818152602001828054611dbe90612cc9565b8015611e095780601f10611de057610100808354040283529160200191611e09565b820191905f5260205f20905b815481529060010190602001808311611dec57829003601f168201915b5050505050815260200160028201548152602001600382015481526020016004820154815260200160058201548152602001600682015f9054906101000a900460ff161515151581525050828281518110611e6757611e66613324565b5b60200260200101819052508080600101915050611c9e565b508091505090565b5f60045f8373ffffffffffffffffffffffffffffffffffffffff1673ffffffffffffffffffffffffffffffffffffffff1681526020019081526020015f2090506040518060400160405280600a81526020017f4e6f7454726164696e6700000000000000000000000000000000000000000000815250816001019081611f0d9190612f34565b505f81600401819055505f81600201819055505f81600301819055505050565b5f8054906101000a900473ffffffffffffffffffffffffffffffffffffffff1673ffffffffffffffffffffffffffffffffffffffff1663095ea7b383836040518363ffffffff1660e01b8152600401611f8792919061324b565b6020604051808303815f875af1158015611fa3573d5f803e3d5ffd5b505050506040513d601f19601f82011682018060405250810190611fc791906135af565b505050565b5f805f9054906101000a900473ffffffffffffffffffffffffffffffffffffffff1673ffffffffffffffffffffffffffffffffffffffff166370a08231836040518263ffffffff1660e01b81526004016120269190612ba7565b602060405180830381865afa158015612041573d5f803e3d5ffd5b505050506040513d601f19601f820116820180604052508101906120659190612d0d565b9050919050565b60035f9054906101000a900473ffffffffffffffffffffffffffffffffffffffff1681565b5f8054906101000a900473ffffffffffffffffffffffffffffffffffffffff1681565b6040518060a001604052805f73ffffffffffffffffffffffffffffffffffffffff168152602001606081526020015f81526020015f81526020015f81525090565b50805461210190612cc9565b5f825580601f10612112575061212f565b601f0160209004905f5260205f209081019061212e9190612181565b5b50565b6040518060e001604052805f73ffffffffffffffffffffffffffffffffffffffff168152602001606081526020015f81526020015f81526020015f81526020015f81526020015f151581525090565b5b80821115612198575f815f905550600101612182565b5090565b5f604051905090565b5f80fd5b5f80fd5b5f73ffffffffffffffffffffffffffffffffffffffff82169050919050565b5f6121d6826121ad565b9050919050565b6121e6816121cc565b81146121f0575f80fd5b50565b5f81359050612201816121dd565b92915050565b5f6020828403121561221c5761221b6121a5565b5b5f612229848285016121f3565b91505092915050565b61223b816121cc565b82525050565b5f81519050919050565b5f82825260208201905092915050565b5f5b8381101561227857808201518184015260208101905061225d565b5f8484015250505050565b5f601f19601f8301169050919050565b5f61229d82612241565b6122a7818561224b565b93506122b781856020860161225b565b6122c081612283565b840191505092915050565b5f819050919050565b6122dd816122cb565b82525050565b5f60a083015f8301516122f85f860182612232565b50602083015184820360208601526123108282612293565b915050604083015161232560408601826122d4565b50606083015161233860608601826122d4565b50608083015161234b60808601826122d4565b508091505092915050565b5f6020820190508181035f83015261236e81846122e3565b905092915050565b5f8115159050919050565b61238a81612376565b82525050565b5f6020820190506123a35f830184612381565b92915050565b6123b2816122cb565b82525050565b5f6020820190506123cb5f8301846123a9565b92915050565b6123da816121cc565b82525050565b5f82825260208201905092915050565b5f6123fa82612241565b61240481856123e0565b935061241481856020860161225b565b61241d81612283565b840191505092915050565b5f819050919050565b61243a81612428565b82525050565b5f60e0820190506124535f83018a6123d1565b818103602083015261246581896123f0565b905061247460408301886123a9565b6124816060830187612431565b61248e6080830186612431565b61249b60a08301856123a9565b6124a860c0830184612381565b98975050505050505050565b5f80fd5b5f80fd5b7f4e487b71000000000000000000000000000000000000000000000000000000005f52604160045260245ffd5b6124f282612283565b810181811067ffffffffffffffff82111715612511576125106124bc565b5b80604052505050565b5f61252361219c565b905061252f82826124e9565b919050565b5f67ffffffffffffffff82111561254e5761254d6124bc565b5b61255782612283565b9050602081019050919050565b828183375f83830152505050565b5f61258461257f84612534565b61251a565b9050828152602081018484840111156125a05761259f6124b8565b5b6125ab848285612564565b509392505050565b5f82601f8301126125c7576125c66124b4565b5b81356125d7848260208601612572565b91505092915050565b6125e981612428565b81146125f3575f80fd5b50565b5f81359050612604816125e0565b92915050565b612613816122cb565b811461261d575f80fd5b50565b5f8135905061262e8161260a565b92915050565b5f805f806080858703121561264c5761264b6121a5565b5b5f85013567ffffffffffffffff811115612669576126686121a9565b5b612675878288016125b3565b9450506020612686878288016125f6565b9350506040612697878288016125f6565b92505060606126a887828801612620565b91505092959194509250565b6126bd81612428565b82525050565b6126cc81612376565b82525050565b5f60e083015f8301516126e75f860182612232565b50602083015184820360208601526126ff8282612293565b915050604083015161271460408601826122d4565b50606083015161272760608601826126b4565b50608083015161273a60808601826126b4565b5060a083015161274d60a08601826122d4565b5060c083015161276060c08601826126c3565b508091505092915050565b5f6020820190508181035f83015261278381846126d2565b905092915050565b61279481612376565b811461279e575f80fd5b50565b5f813590506127af8161278b565b92915050565b5f805f606084860312156127cc576127cb6121a5565b5b5f6127d9868287016121f3565b93505060206127ea86828701612620565b92505060406127fb868287016127a1565b9150509250925092565b5f805f806080858703121561281d5761281c6121a5565b5b5f85013567ffffffffffffffff81111561283a576128396121a9565b5b612846878288016125b3565b945050602061285787828801612620565b935050604061286887828801612620565b925050606061287987828801612620565b91505092959194509250565b5f81519050919050565b5f82825260208201905092915050565b5f819050602082019050919050565b5f6128b98383612232565b60208301905092915050565b5f602082019050919050565b5f6128db82612885565b6128e5818561288f565b93506128f08361289f565b805f5b8381101561292057815161290788826128ae565b9750612912836128c5565b9250506001810190506128f3565b5085935050505092915050565b5f6020820190508181035f83015261294581846128d1565b905092915050565b5f805f60608486031215612964576129636121a5565b5b5f612971868287016121f3565b9350506020612982868287016121f3565b925050604061299386828701612620565b9150509250925092565b5f80604083850312156129b3576129b26121a5565b5b5f6129c0858286016121f3565b92505060206129d185828601612620565b9150509250929050565b5f60a0820190506129ee5f8301886123d1565b8181036020830152612a0081876123f0565b9050612a0f60408301866123a9565b612a1c60608301856123a9565b612a2960808301846123a9565b9695505050505050565b5f81519050919050565b5f82825260208201905092915050565b5f819050602082019050919050565b5f60e083015f830151612a715f860182612232565b5060208301518482036020860152612a898282612293565b9150506040830151612a9e60408601826122d4565b506060830151612ab160608601826126b4565b506080830151612ac460808601826126b4565b5060a0830151612ad760a08601826122d4565b5060c0830151612aea60c08601826126c3565b508091505092915050565b5f612b008383612a5c565b905092915050565b5f602082019050919050565b5f612b1e82612a33565b612b288185612a3d565b935083602082028501612b3a85612a4d565b805f5b85811015612b755784840389528151612b568582612af5565b9450612b6183612b08565b925060208a01995050600181019050612b3d565b50829750879550505050505092915050565b5f6020820190508181035f830152612b9f8184612b14565b905092915050565b5f602082019050612bba5f8301846123d1565b92915050565b5f819050919050565b5f612be3612bde612bd9846121ad565b612bc0565b6121ad565b9050919050565b5f612bf482612bc9565b9050919050565b5f612c0582612bea565b9050919050565b612c1581612bfb565b82525050565b5f602082019050612c2e5f830184612c0c565b92915050565b7f55736572206973206e6f7420726567697374657265642e0000000000000000005f82015250565b5f612c686017836123e0565b9150612c7382612c34565b602082019050919050565b5f6020820190508181035f830152612c9581612c5c565b9050919050565b7f4e487b71000000000000000000000000000000000000000000000000000000005f52602260045260245ffd5b5f6002820490506001821680612ce057607f821691505b602082108103612cf357612cf2612c9c565b5b50919050565b5f81519050612d078161260a565b92915050565b5f60208284031215612d2257612d216121a5565b5b5f612d2f84828501612cf9565b91505092915050565b7f5573657220616c726561647920726567697374657265642e00000000000000005f82015250565b5f612d6c6018836123e0565b9150612d7782612d38565b602082019050919050565b5f6020820190508181035f830152612d9981612d60565b9050919050565b5f819050815f5260205f209050919050565b5f6020601f8301049050919050565b5f82821b905092915050565b5f60088302612dfc7fffffffffffffffffffffffffffffffffffffffffffffffffffffffffffffffff82612dc1565b612e068683612dc1565b95508019841693508086168417925050509392505050565b5f612e38612e33612e2e846122cb565b612bc0565b6122cb565b9050919050565b5f819050919050565b612e5183612e1e565b612e65612e5d82612e3f565b848454612dcd565b825550505050565b5f90565b612e79612e6d565b612e84818484612e48565b505050565b5b81811015612ea757612e9c5f82612e71565b600181019050612e8a565b5050565b601f821115612eec57612ebd81612da0565b612ec684612db2565b81016020851015612ed5578190505b612ee9612ee185612db2565b830182612e89565b50505b505050565b5f82821c905092915050565b5f612f0c5f1984600802612ef1565b1980831691505092915050565b5f612f248383612efd565b9150826002028217905092915050565b612f3d82612241565b67ffffffffffffffff811115612f5657612f556124bc565b5b612f608254612cc9565b612f6b828285612eab565b5f60209050601f831160018114612f9c575f8415612f8a578287015190505b612f948582612f19565b865550612ffb565b601f198416612faa86612da0565b5f5b82811015612fd157848901518255600182019150602085019450602081019050612fac565b86831015612fee5784890151612fea601f891682612efd565b8355505b6001600288020188555050505b505050505050565b5f60ff82169050919050565b61301881613003565b8114613022575f80fd5b50565b5f815190506130338161300f565b92915050565b5f6020828403121561304e5761304d6121a5565b5b5f61305b84828501613025565b91505092915050565b7f4e487b71000000000000000000000000000000000000000000000000000000005f52601160045260245ffd5b5f8160011c9050919050565b5f808291508390505b60018511156130e6578086048111156130c2576130c1613064565b5b60018516156130d15780820291505b80810290506130df85613091565b94506130a6565b94509492505050565b5f826130fe57600190506131b9565b8161310b575f90506131b9565b8160018114613121576002811461312b5761315a565b60019150506131b9565b60ff84111561313d5761313c613064565b5b8360020a91508482111561315457613153613064565b5b506131b9565b5060208310610133831016604e8410600b841016171561318f5782820a90508381111561318a57613189613064565b5b6131b9565b61319c848484600161309d565b925090508184048111156131b3576131b2613064565b5b81810290505b9392505050565b5f6131ca826122cb565b91506131d5836122cb565b92506132027fffffffffffffffffffffffffffffffffffffffffffffffffffffffffffffffff84846130ef565b905092915050565b5f613214826122cb565b915061321f836122cb565b925082820261322d816122cb565b9150828204841483151761324457613243613064565b5b5092915050565b5f60408201905061325e5f8301856123d1565b61326b60208301846123a9565b9392505050565b5f6080820190508181035f83015261328a81876123f0565b90506132996020830186612431565b6132a66040830185612431565b6132b360608301846123a9565b95945050505050565b7f4f6e6c792061646d696e2063616e2063616c6c20746869732e000000000000005f82015250565b5f6132f06019836123e0565b91506132fb826132bc565b602082019050919050565b5f6020820190508181035f83015261331d816132e4565b9050919050565b7f4e487b71000000000000000000000000000000000000000000000000000000005f52603260045260245ffd5b5f61335b826122cb565b9150613366836122cb565b925082820390508181111561337e5761337d613064565b5b92915050565b7f4e487b71000000000000000000000000000000000000000000000000000000005f52603160045260245ffd5b7f557365722061646472657373206e6f7420666f756e642e0000000000000000005f82015250565b5f6133e56017836123e0565b91506133f0826133b1565b602082019050919050565b5f6020820190508181035f830152613412816133d9565b9050919050565b5f613423826122cb565b915061342e836122cb565b925082820190508082111561344657613445613064565b5b92915050565b5f6080820190508181035f83015261346481876123f0565b905061347360208301866123a9565b61348060408301856123a9565b61348d60608301846123a9565b95945050505050565b7f55736572206d75737420626520726567697374657265640000000000000000005f82015250565b5f6134ca6017836123e0565b91506134d582613496565b602082019050919050565b5f6020820190508181035f8301526134f7816134be565b9050919050565b7f426f74682070617274696573206d7573742062652072656769737465726564005f82015250565b5f613532601f836123e0565b915061353d826134fe565b602082019050919050565b5f6020820190508181035f83015261355f81613526565b9050919050565b5f6060820190506135795f8301866123d1565b61358660208301856123d1565b61359360408301846123a9565b949350505050565b5f815190506135a98161278b565b92915050565b5f602082840312156135c4576135c36121a5565b5b5f6135d18482850161359b565b9150509291505056fea264697066735822122044e7655becda43094e5e00a76d11ad5a751286913043cecc91ed5ab248af6a6e64736f6c63430008180033",
			"opcodes": "PUSH1 0x80 PUSH1 0x40 MSTORE CALLVALUE DUP1 ISZERO PUSH3 0x10 JUMPI PUSH0 DUP1 REVERT JUMPDEST POP PUSH1 0x40 MLOAD PUSH3 0x376F CODESIZE SUB DUP1 PUSH3 0x376F DUP4 CODECOPY DUP2 DUP2 ADD PUSH1 0x40 MSTORE DUP2 ADD SWAP1 PUSH3 0x36 SWAP2 SWAP1 PUSH3 0x121 JUMP JUMPDEST CALLER PUSH1 0x3 PUSH0 PUSH2 0x100 EXP DUP2 SLOAD DUP2 PUSH20 0xFFFFFFFFFFFFFFFFFFFFFFFFFFFFFFFFFFFFFFFF MUL NOT AND SWAP1 DUP4 PUSH20 0xFFFFFFFFFFFFFFFFFFFFFFFFFFFFFFFFFFFFFFFF AND MUL OR SWAP1 SSTORE POP DUP1 PUSH0 DUP1 PUSH2 0x100 EXP DUP2 SLOAD DUP2 PUSH20 0xFFFFFFFFFFFFFFFFFFFFFFFFFFFFFFFFFFFFFFFF MUL NOT AND SWAP1 DUP4 PUSH20 0xFFFFFFFFFFFFFFFFFFFFFFFFFFFFFFFFFFFFFFFF AND MUL OR SWAP1 SSTORE POP POP PUSH3 0x151 JUMP JUMPDEST PUSH0 DUP1 REVERT JUMPDEST PUSH0 PUSH20 0xFFFFFFFFFFFFFFFFFFFFFFFFFFFFFFFFFFFFFFFF DUP3 AND SWAP1 POP SWAP2 SWAP1 POP JUMP JUMPDEST PUSH0 PUSH3 0xEB DUP3 PUSH3 0xC0 JUMP JUMPDEST SWAP1 POP SWAP2 SWAP1 POP JUMP JUMPDEST PUSH3 0xFD DUP2 PUSH3 0xDF JUMP JUMPDEST DUP2 EQ PUSH3 0x108 JUMPI PUSH0 DUP1 REVERT JUMPDEST POP JUMP JUMPDEST PUSH0 DUP2 MLOAD SWAP1 POP PUSH3 0x11B DUP2 PUSH3 0xF2 JUMP JUMPDEST SWAP3 SWAP2 POP POP JUMP JUMPDEST PUSH0 PUSH1 0x20 DUP3 DUP5 SUB SLT ISZERO PUSH3 0x139 JUMPI PUSH3 0x138 PUSH3 0xBC JUMP JUMPDEST JUMPDEST PUSH0 PUSH3 0x148 DUP5 DUP3 DUP6 ADD PUSH3 0x10B JUMP JUMPDEST SWAP2 POP POP SWAP3 SWAP2 POP POP JUMP JUMPDEST PUSH2 0x3610 DUP1 PUSH3 0x15F PUSH0 CODECOPY PUSH0 RETURN INVALID PUSH1 0x80 PUSH1 0x40 MSTORE CALLVALUE DUP1 ISZERO PUSH2 0xF JUMPI PUSH0 DUP1 REVERT JUMPDEST POP PUSH1 0x4 CALLDATASIZE LT PUSH2 0x156 JUMPI PUSH0 CALLDATALOAD PUSH1 0xE0 SHR DUP1 PUSH4 0xA591EFDE GT PUSH2 0xC1 JUMPI DUP1 PUSH4 0xC3BCF192 GT PUSH2 0x7A JUMPI DUP1 PUSH4 0xC3BCF192 EQ PUSH2 0x404 JUMPI DUP1 PUSH4 0xF014A601 EQ PUSH2 0x422 JUMPI DUP1 PUSH4 0xF38488EC EQ PUSH2 0x43E JUMPI DUP1 PUSH4 0xF5AEC88C EQ PUSH2 0x45A JUMPI DUP1 PUSH4 0xF851A440 EQ PUSH2 0x48A JUMPI DUP1 PUSH4 0xFC0C546A EQ PUSH2 0x4A8 JUMPI PUSH2 0x156 JUMP JUMPDEST DUP1 PUSH4 0xA591EFDE EQ PUSH2 0x328 JUMPI DUP1 PUSH4 0xA64B6E5F EQ PUSH2 0x346 JUMPI DUP1 PUSH4 0xA87430BA EQ PUSH2 0x362 JUMPI DUP1 PUSH4 0xAF7CCFA7 EQ PUSH2 0x398 JUMPI DUP1 PUSH4 0xB4815081 EQ PUSH2 0x3B4 JUMPI DUP1 PUSH4 0xC33277E3 EQ PUSH2 0x3D0 JUMPI PUSH2 0x156 JUMP JUMPDEST DUP1 PUSH4 0x5C60F226 GT PUSH2 0x113 JUMPI DUP1 PUSH4 0x5C60F226 EQ PUSH2 0x26C JUMPI DUP1 PUSH4 0x6386C1C7 EQ PUSH2 0x288 JUMPI DUP1 PUSH4 0x6FB4309B EQ PUSH2 0x2B8 JUMPI DUP1 PUSH4 0x767CE2DD EQ PUSH2 0x2D4 JUMPI DUP1 PUSH4 0x9202E886 EQ PUSH2 0x2F0 JUMPI DUP1 PUSH4 0x92D9C36F EQ PUSH2 0x30C JUMPI PUSH2 0x156 JUMP JUMPDEST DUP1 PUSH4 0xE947BD8 EQ PUSH2 0x15A JUMPI DUP1 PUSH4 0x163F7522 EQ PUSH2 0x18A JUMPI DUP1 PUSH4 0x3AECD0E3 EQ PUSH2 0x1BA JUMPI DUP1 PUSH4 0x3B605047 EQ PUSH2 0x1EA JUMPI DUP1 PUSH4 0x46352B58 EQ PUSH2 0x220 JUMPI DUP1 PUSH4 0x4BC48240 EQ PUSH2 0x250 JUMPI JUMPDEST PUSH0 DUP1 REVERT JUMPDEST PUSH2 0x174 PUSH1 0x4 DUP1 CALLDATASIZE SUB DUP2 ADD SWAP1 PUSH2 0x16F SWAP2 SWAP1 PUSH2 0x2207 JUMP JUMPDEST PUSH2 0x4C6 JUMP JUMPDEST PUSH1 0x40 MLOAD PUSH2 0x181 SWAP2 SWAP1 PUSH2 0x2356 JUMP JUMPDEST PUSH1 0x40 MLOAD DUP1 SWAP2 SUB SWAP1 RETURN JUMPDEST PUSH2 0x1A4 PUSH1 0x4 DUP1 CALLDATASIZE SUB DUP2 ADD SWAP1 PUSH2 0x19F SWAP2 SWAP1 PUSH2 0x2207 JUMP JUMPDEST PUSH2 0x6AB JUMP JUMPDEST PUSH1 0x40 MLOAD PUSH2 0x1B1 SWAP2 SWAP1 PUSH2 0x2390 JUMP JUMPDEST PUSH1 0x40 MLOAD DUP1 SWAP2 SUB SWAP1 RETURN JUMPDEST PUSH2 0x1D4 PUSH1 0x4 DUP1 CALLDATASIZE SUB DUP2 ADD SWAP1 PUSH2 0x1CF SWAP2 SWAP1 PUSH2 0x2207 JUMP JUMPDEST PUSH2 0x700 JUMP JUMPDEST PUSH1 0x40 MLOAD PUSH2 0x1E1 SWAP2 SWAP1 PUSH2 0x23B8 JUMP JUMPDEST PUSH1 0x40 MLOAD DUP1 SWAP2 SUB SWAP1 RETURN JUMPDEST PUSH2 0x204 PUSH1 0x4 DUP1 CALLDATASIZE SUB DUP2 ADD SWAP1 PUSH2 0x1FF SWAP2 SWAP1 PUSH2 0x2207 JUMP JUMPDEST PUSH2 0x7A0 JUMP JUMPDEST PUSH1 0x40 MLOAD PUSH2 0x217 SWAP8 SWAP7 SWAP6 SWAP5 SWAP4 SWAP3 SWAP2 SWAP1 PUSH2 0x2440 JUMP JUMPDEST PUSH1 0x40 MLOAD DUP1 SWAP2 SUB SWAP1 RETURN JUMPDEST PUSH2 0x23A PUSH1 0x4 DUP1 CALLDATASIZE SUB DUP2 ADD SWAP1 PUSH2 0x235 SWAP2 SWAP1 PUSH2 0x2207 JUMP JUMPDEST PUSH2 0x8D8 JUMP JUMPDEST PUSH1 0x40 MLOAD PUSH2 0x247 SWAP2 SWAP1 PUSH2 0x23B8 JUMP JUMPDEST PUSH1 0x40 MLOAD DUP1 SWAP2 SUB SWAP1 RETURN JUMPDEST PUSH2 0x26A PUSH1 0x4 DUP1 CALLDATASIZE SUB DUP2 ADD SWAP1 PUSH2 0x265 SWAP2 SWAP1 PUSH2 0x2634 JUMP JUMPDEST PUSH2 0x921 JUMP JUMPDEST STOP JUMPDEST PUSH2 0x286 PUSH1 0x4 DUP1 CALLDATASIZE SUB DUP2 ADD SWAP1 PUSH2 0x281 SWAP2 SWAP1 PUSH2 0x2207 JUMP JUMPDEST PUSH2 0xD03 JUMP JUMPDEST STOP JUMPDEST PUSH2 0x2A2 PUSH1 0x4 DUP1 CALLDATASIZE SUB DUP2 ADD SWAP1 PUSH2 0x29D SWAP2 SWAP1 PUSH2 0x2207 JUMP JUMPDEST PUSH2 0x10C3 JUMP JUMPDEST PUSH1 0x40 MLOAD PUSH2 0x2AF SWAP2 SWAP1 PUSH2 0x276B JUMP JUMPDEST PUSH1 0x40 MLOAD DUP1 SWAP2 SUB SWAP1 RETURN JUMPDEST PUSH2 0x2D2 PUSH1 0x4 DUP1 CALLDATASIZE SUB DUP2 ADD SWAP1 PUSH2 0x2CD SWAP2 SWAP1 PUSH2 0x27B5 JUMP JUMPDEST PUSH2 0x12CC JUMP JUMPDEST STOP JUMPDEST PUSH2 0x2EE PUSH1 0x4 DUP1 CALLDATASIZE SUB DUP2 ADD SWAP1 PUSH2 0x2E9 SWAP2 SWAP1 PUSH2 0x2805 JUMP JUMPDEST PUSH2 0x1389 JUMP JUMPDEST STOP JUMPDEST PUSH2 0x30A PUSH1 0x4 DUP1 CALLDATASIZE SUB DUP2 ADD SWAP1 PUSH2 0x305 SWAP2 SWAP1 PUSH2 0x27B5 JUMP JUMPDEST PUSH2 0x14DD JUMP JUMPDEST STOP JUMPDEST PUSH2 0x326 PUSH1 0x4 DUP1 CALLDATASIZE SUB DUP2 ADD SWAP1 PUSH2 0x321 SWAP2 SWAP1 PUSH2 0x2634 JUMP JUMPDEST PUSH2 0x15E2 JUMP JUMPDEST STOP JUMPDEST PUSH2 0x330 PUSH2 0x1736 JUMP JUMPDEST PUSH1 0x40 MLOAD PUSH2 0x33D SWAP2 SWAP1 PUSH2 0x292D JUMP JUMPDEST PUSH1 0x40 MLOAD DUP1 SWAP2 SUB SWAP1 RETURN JUMPDEST PUSH2 0x360 PUSH1 0x4 DUP1 CALLDATASIZE SUB DUP2 ADD SWAP1 PUSH2 0x35B SWAP2 SWAP1 PUSH2 0x294D JUMP JUMPDEST PUSH2 0x17C1 JUMP JUMPDEST STOP JUMPDEST PUSH2 0x37C PUSH1 0x4 DUP1 CALLDATASIZE SUB DUP2 ADD SWAP1 PUSH2 0x377 SWAP2 SWAP1 PUSH2 0x2207 JUMP JUMPDEST PUSH2 0x18BC JUMP JUMPDEST PUSH1 0x40 MLOAD PUSH2 0x38F SWAP8 SWAP7 SWAP6 SWAP5 SWAP4 SWAP3 SWAP2 SWAP1 PUSH2 0x2440 JUMP JUMPDEST PUSH1 0x40 MLOAD DUP1 SWAP2 SUB SWAP1 RETURN JUMPDEST PUSH2 0x3B2 PUSH1 0x4 DUP1 CALLDATASIZE SUB DUP2 ADD SWAP1 PUSH2 0x3AD SWAP2 SWAP1 PUSH2 0x299D JUMP JUMPDEST PUSH2 0x19AB JUMP JUMPDEST STOP JUMPDEST PUSH2 0x3CE PUSH1 0x4 DUP1 CALLDATASIZE SUB DUP2 ADD SWAP1 PUSH2 0x3C9 SWAP2 SWAP1 PUSH2 0x2207 JUMP JUMPDEST PUSH2 0x1A80 JUMP JUMPDEST STOP JUMPDEST PUSH2 0x3EA PUSH1 0x4 DUP1 CALLDATASIZE SUB DUP2 ADD SWAP1 PUSH2 0x3E5 SWAP2 SWAP1 PUSH2 0x2207 JUMP JUMPDEST PUSH2 0x1B67 JUMP JUMPDEST PUSH1 0x40 MLOAD PUSH2 0x3FB SWAP6 SWAP5 SWAP4 SWAP3 SWAP2 SWAP1 PUSH2 0x29DB JUMP JUMPDEST PUSH1 0x40 MLOAD DUP1 SWAP2 SUB SWAP1 RETURN JUMPDEST PUSH2 0x40C PUSH2 0x1C3E JUMP JUMPDEST PUSH1 0x40 MLOAD PUSH2 0x419 SWAP2 SWAP1 PUSH2 0x2B87 JUMP JUMPDEST PUSH1 0x40 MLOAD DUP1 SWAP2 SUB SWAP1 RETURN JUMPDEST PUSH2 0x43C PUSH1 0x4 DUP1 CALLDATASIZE SUB DUP2 ADD SWAP1 PUSH2 0x437 SWAP2 SWAP1 PUSH2 0x2207 JUMP JUMPDEST PUSH2 0x1E87 JUMP JUMPDEST STOP JUMPDEST PUSH2 0x458 PUSH1 0x4 DUP1 CALLDATASIZE SUB DUP2 ADD SWAP1 PUSH2 0x453 SWAP2 SWAP1 PUSH2 0x299D JUMP JUMPDEST PUSH2 0x1F2D JUMP JUMPDEST STOP JUMPDEST PUSH2 0x474 PUSH1 0x4 DUP1 CALLDATASIZE SUB DUP2 ADD SWAP1 PUSH2 0x46F SWAP2 SWAP1 PUSH2 0x2207 JUMP JUMPDEST PUSH2 0x1FCC JUMP JUMPDEST PUSH1 0x40 MLOAD PUSH2 0x481 SWAP2 SWAP1 PUSH2 0x23B8 JUMP JUMPDEST PUSH1 0x40 MLOAD DUP1 SWAP2 SUB SWAP1 RETURN JUMPDEST PUSH2 0x492 PUSH2 0x206C JUMP JUMPDEST PUSH1 0x40 MLOAD PUSH2 0x49F SWAP2 SWAP1 PUSH2 0x2BA7 JUMP JUMPDEST PUSH1 0x40 MLOAD DUP1 SWAP2 SUB SWAP1 RETURN JUMPDEST PUSH2 0x4B0 PUSH2 0x2091 JUMP JUMPDEST PUSH1 0x40 MLOAD PUSH2 0x4BD SWAP2 SWAP1 PUSH2 0x2C1B JUMP JUMPDEST PUSH1 0x40 MLOAD DUP1 SWAP2 SUB SWAP1 RETURN JUMPDEST PUSH2 0x4CE PUSH2 0x20B4 JUMP JUMPDEST PUSH1 0x2 PUSH0 DUP4 PUSH20 0xFFFFFFFFFFFFFFFFFFFFFFFFFFFFFFFFFFFFFFFF AND PUSH20 0xFFFFFFFFFFFFFFFFFFFFFFFFFFFFFFFFFFFFFFFF AND DUP2 MSTORE PUSH1 0x20 ADD SWAP1 DUP2 MSTORE PUSH1 0x20 ADD PUSH0 KECCAK256 PUSH1 0x6 ADD PUSH0 SWAP1 SLOAD SWAP1 PUSH2 0x100 EXP SWAP1 DIV PUSH1 0xFF AND PUSH2 0x55A JUMPI PUSH1 0x40 MLOAD PUSH32 0x8C379A000000000000000000000000000000000000000000000000000000000 DUP2 MSTORE PUSH1 0x4 ADD PUSH2 0x551 SWAP1 PUSH2 0x2C7E JUMP JUMPDEST PUSH1 0x40 MLOAD DUP1 SWAP2 SUB SWAP1 REVERT JUMPDEST PUSH1 0x4 PUSH0 DUP4 PUSH20 0xFFFFFFFFFFFFFFFFFFFFFFFFFFFFFFFFFFFFFFFF AND PUSH20 0xFFFFFFFFFFFFFFFFFFFFFFFFFFFFFFFFFFFFFFFF AND DUP2 MSTORE PUSH1 0x20 ADD SWAP1 DUP2 MSTORE PUSH1 0x20 ADD PUSH0 KECCAK256 PUSH1 0x40 MLOAD DUP1 PUSH1 0xA0 ADD PUSH1 0x40 MSTORE SWAP1 DUP2 PUSH0 DUP3 ADD PUSH0 SWAP1 SLOAD SWAP1 PUSH2 0x100 EXP SWAP1 DIV PUSH20 0xFFFFFFFFFFFFFFFFFFFFFFFFFFFFFFFFFFFFFFFF AND PUSH20 0xFFFFFFFFFFFFFFFFFFFFFFFFFFFFFFFFFFFFFFFF AND PUSH20 0xFFFFFFFFFFFFFFFFFFFFFFFFFFFFFFFFFFFFFFFF AND DUP2 MSTORE PUSH1 0x20 ADD PUSH1 0x1 DUP3 ADD DUP1 SLOAD PUSH2 0x606 SWAP1 PUSH2 0x2CC9 JUMP JUMPDEST DUP1 PUSH1 0x1F ADD PUSH1 0x20 DUP1 SWAP2 DIV MUL PUSH1 0x20 ADD PUSH1 0x40 MLOAD SWAP1 DUP2 ADD PUSH1 0x40 MSTORE DUP1 SWAP3 SWAP2 SWAP1 DUP2 DUP2 MSTORE PUSH1 0x20 ADD DUP3 DUP1 SLOAD PUSH2 0x632 SWAP1 PUSH2 0x2CC9 JUMP JUMPDEST DUP1 ISZERO PUSH2 0x67D JUMPI DUP1 PUSH1 0x1F LT PUSH2 0x654 JUMPI PUSH2 0x100 DUP1 DUP4 SLOAD DIV MUL DUP4 MSTORE SWAP2 PUSH1 0x20 ADD SWAP2 PUSH2 0x67D JUMP JUMPDEST DUP3 ADD SWAP2 SWAP1 PUSH0 MSTORE PUSH1 0x20 PUSH0 KECCAK256 SWAP1 JUMPDEST DUP2 SLOAD DUP2 MSTORE SWAP1 PUSH1 0x1 ADD SWAP1 PUSH1 0x20 ADD DUP1 DUP4 GT PUSH2 0x660 JUMPI DUP3 SWAP1 SUB PUSH1 0x1F AND DUP3 ADD SWAP2 JUMPDEST POP POP POP POP POP DUP2 MSTORE PUSH1 0x20 ADD PUSH1 0x2 DUP3 ADD SLOAD DUP2 MSTORE PUSH1 0x20 ADD PUSH1 0x3 DUP3 ADD SLOAD DUP2 MSTORE PUSH1 0x20 ADD PUSH1 0x4 DUP3 ADD SLOAD DUP2 MSTORE POP POP SWAP1 POP SWAP2 SWAP1 POP JUMP JUMPDEST PUSH0 PUSH1 0x2 PUSH0 DUP4 PUSH20 0xFFFFFFFFFFFFFFFFFFFFFFFFFFFFFFFFFFFFFFFF AND PUSH20 0xFFFFFFFFFFFFFFFFFFFFFFFFFFFFFFFFFFFFFFFF AND DUP2 MSTORE PUSH1 0x20 ADD SWAP1 DUP2 MSTORE PUSH1 0x20 ADD PUSH0 KECCAK256 PUSH1 0x6 ADD PUSH0 SWAP1 SLOAD SWAP1 PUSH2 0x100 EXP SWAP1 DIV PUSH1 0xFF AND SWAP1 POP SWAP2 SWAP1 POP JUMP JUMPDEST PUSH0 DUP1 PUSH0 SWAP1 SLOAD SWAP1 PUSH2 0x100 EXP SWAP1 DIV PUSH20 0xFFFFFFFFFFFFFFFFFFFFFFFFFFFFFFFFFFFFFFFF AND PUSH20 0xFFFFFFFFFFFFFFFFFFFFFFFFFFFFFFFFFFFFFFFF AND PUSH4 0x70A08231 DUP4 PUSH1 0x40 MLOAD DUP3 PUSH4 0xFFFFFFFF AND PUSH1 0xE0 SHL DUP2 MSTORE PUSH1 0x4 ADD PUSH2 0x75A SWAP2 SWAP1 PUSH2 0x2BA7 JUMP JUMPDEST PUSH1 0x20 PUSH1 0x40 MLOAD DUP1 DUP4 SUB DUP2 DUP7 GAS STATICCALL ISZERO DUP1 ISZERO PUSH2 0x775 JUMPI RETURNDATASIZE PUSH0 DUP1 RETURNDATACOPY RETURNDATASIZE PUSH0 REVERT JUMPDEST POP POP POP POP PUSH1 0x40 MLOAD RETURNDATASIZE PUSH1 0x1F NOT PUSH1 0x1F DUP3 ADD AND DUP3 ADD DUP1 PUSH1 0x40 MSTORE POP DUP2 ADD SWAP1 PUSH2 0x799 SWAP2 SWAP1 PUSH2 0x2D0D JUMP JUMPDEST SWAP1 POP SWAP2 SWAP1 POP JUMP JUMPDEST PUSH0 PUSH1 0x60 PUSH0 DUP1 PUSH0 DUP1 PUSH0 DUP1 PUSH1 0x2 PUSH0 DUP11 PUSH20 0xFFFFFFFFFFFFFFFFFFFFFFFFFFFFFFFFFFFFFFFF AND PUSH20 0xFFFFFFFFFFFFFFFFFFFFFFFFFFFFFFFFFFFFFFFF AND DUP2 MSTORE PUSH1 0x20 ADD SWAP1 DUP2 MSTORE PUSH1 0x20 ADD PUSH0 KECCAK256 SWAP1 POP DUP1 PUSH0 ADD PUSH0 SWAP1 SLOAD SWAP1 PUSH2 0x100 EXP SWAP1 DIV PUSH20 0xFFFFFFFFFFFFFFFFFFFFFFFFFFFFFFFFFFFFFFFF AND DUP2 PUSH1 0x1 ADD DUP3 PUSH1 0x2 ADD SLOAD DUP4 PUSH1 0x3 ADD SLOAD DUP5 PUSH1 0x4 ADD SLOAD DUP6 PUSH1 0x5 ADD SLOAD DUP7 PUSH1 0x6 ADD PUSH0 SWAP1 SLOAD SWAP1 PUSH2 0x100 EXP SWAP1 DIV PUSH1 0xFF AND DUP6 DUP1 SLOAD PUSH2 0x840 SWAP1 PUSH2 0x2CC9 JUMP JUMPDEST DUP1 PUSH1 0x1F ADD PUSH1 0x20 DUP1 SWAP2 DIV MUL PUSH1 0x20 ADD PUSH1 0x40 MLOAD SWAP1 DUP2 ADD PUSH1 0x40 MSTORE DUP1 SWAP3 SWAP2 SWAP1 DUP2 DUP2 MSTORE PUSH1 0x20 ADD DUP3 DUP1 SLOAD PUSH2 0x86C SWAP1 PUSH2 0x2CC9 JUMP JUMPDEST DUP1 ISZERO PUSH2 0x8B7 JUMPI DUP1 PUSH1 0x1F LT PUSH2 0x88E JUMPI PUSH2 0x100 DUP1 DUP4 SLOAD DIV MUL DUP4 MSTORE SWAP2 PUSH1 0x20 ADD SWAP2 PUSH2 0x8B7 JUMP JUMPDEST DUP3 ADD SWAP2 SWAP1 PUSH0 MSTORE PUSH1 0x20 PUSH0 KECCAK256 SWAP1 JUMPDEST DUP2 SLOAD DUP2 MSTORE SWAP1 PUSH1 0x1 ADD SWAP1 PUSH1 0x20 ADD DUP1 DUP4 GT PUSH2 0x89A JUMPI DUP3 SWAP1 SUB PUSH1 0x1F AND DUP3 ADD SWAP2 JUMPDEST POP POP POP POP POP SWAP6 POP SWAP8 POP SWAP8 POP SWAP8 POP SWAP8 POP SWAP8 POP SWAP8 POP SWAP8 POP POP SWAP2 SWAP4 SWAP6 SWAP8 SWAP1 SWAP3 SWAP5 SWAP7 POP JUMP JUMPDEST PUSH0 PUSH1 0x2 PUSH0 DUP4 PUSH20 0xFFFFFFFFFFFFFFFFFFFFFFFFFFFFFFFFFFFFFFFF AND PUSH20 0xFFFFFFFFFFFFFFFFFFFFFFFFFFFFFFFFFFFFFFFF AND DUP2 MSTORE PUSH1 0x20 ADD SWAP1 DUP2 MSTORE PUSH1 0x20 ADD PUSH0 KECCAK256 PUSH1 0x5 ADD SLOAD SWAP1 POP SWAP2 SWAP1 POP JUMP JUMPDEST PUSH1 0x2 PUSH0 CALLER PUSH20 0xFFFFFFFFFFFFFFFFFFFFFFFFFFFFFFFFFFFFFFFF AND PUSH20 0xFFFFFFFFFFFFFFFFFFFFFFFFFFFFFFFFFFFFFFFF AND DUP2 MSTORE PUSH1 0x20 ADD SWAP1 DUP2 MSTORE PUSH1 0x20 ADD PUSH0 KECCAK256 PUSH1 0x6 ADD PUSH0 SWAP1 SLOAD SWAP1 PUSH2 0x100 EXP SWAP1 DIV PUSH1 0xFF AND ISZERO PUSH2 0x9AE JUMPI PUSH1 0x40 MLOAD PUSH32 0x8C379A000000000000000000000000000000000000000000000000000000000 DUP2 MSTORE PUSH1 0x4 ADD PUSH2 0x9A5 SWAP1 PUSH2 0x2D82 JUMP JUMPDEST PUSH1 0x40 MLOAD DUP1 SWAP2 SUB SWAP1 REVERT JUMPDEST PUSH1 0x2 PUSH0 CALLER PUSH20 0xFFFFFFFFFFFFFFFFFFFFFFFFFFFFFFFFFFFFFFFF AND PUSH20 0xFFFFFFFFFFFFFFFFFFFFFFFFFFFFFFFFFFFFFFFF AND DUP2 MSTORE PUSH1 0x20 ADD SWAP1 DUP2 MSTORE PUSH1 0x20 ADD PUSH0 KECCAK256 PUSH1 0x6 ADD PUSH0 SWAP1 SLOAD SWAP1 PUSH2 0x100 EXP SWAP1 DIV PUSH1 0xFF AND ISZERO PUSH2 0xA3B JUMPI PUSH1 0x40 MLOAD PUSH32 0x8C379A000000000000000000000000000000000000000000000000000000000 DUP2 MSTORE PUSH1 0x4 ADD PUSH2 0xA32 SWAP1 PUSH2 0x2D82 JUMP JUMPDEST PUSH1 0x40 MLOAD DUP1 SWAP2 SUB SWAP1 REVERT JUMPDEST PUSH0 PUSH1 0x2 PUSH0 CALLER PUSH20 0xFFFFFFFFFFFFFFFFFFFFFFFFFFFFFFFFFFFFFFFF AND PUSH20 0xFFFFFFFFFFFFFFFFFFFFFFFFFFFFFFFFFFFFFFFF AND DUP2 MSTORE PUSH1 0x20 ADD SWAP1 DUP2 MSTORE PUSH1 0x20 ADD PUSH0 KECCAK256 SWAP1 POP CALLER DUP2 PUSH0 ADD PUSH0 PUSH2 0x100 EXP DUP2 SLOAD DUP2 PUSH20 0xFFFFFFFFFFFFFFFFFFFFFFFFFFFFFFFFFFFFFFFF MUL NOT AND SWAP1 DUP4 PUSH20 0xFFFFFFFFFFFFFFFFFFFFFFFFFFFFFFFFFFFFFFFF AND MUL OR SWAP1 SSTORE POP DUP5 DUP2 PUSH1 0x1 ADD SWAP1 DUP2 PUSH2 0xACD SWAP2 SWAP1 PUSH2 0x2F34 JUMP JUMPDEST POP DUP4 DUP2 PUSH1 0x3 ADD DUP2 SWAP1 SSTORE POP DUP3 DUP2 PUSH1 0x4 ADD DUP2 SWAP1 SSTORE POP DUP2 DUP2 PUSH1 0x5 ADD DUP2 SWAP1 SSTORE POP PUSH1 0x1 DUP2 PUSH1 0x6 ADD PUSH0 PUSH2 0x100 EXP DUP2 SLOAD DUP2 PUSH1 0xFF MUL NOT AND SWAP1 DUP4 ISZERO ISZERO MUL OR SWAP1 SSTORE POP PUSH0 DUP1 SLOAD SWAP1 PUSH2 0x100 EXP SWAP1 DIV PUSH20 0xFFFFFFFFFFFFFFFFFFFFFFFFFFFFFFFFFFFFFFFF AND PUSH20 0xFFFFFFFFFFFFFFFFFFFFFFFFFFFFFFFFFFFFFFFF AND PUSH4 0x313CE567 PUSH1 0x40 MLOAD DUP2 PUSH4 0xFFFFFFFF AND PUSH1 0xE0 SHL DUP2 MSTORE PUSH1 0x4 ADD PUSH1 0x20 PUSH1 0x40 MLOAD DUP1 DUP4 SUB DUP2 DUP7 GAS STATICCALL ISZERO DUP1 ISZERO PUSH2 0xB6D JUMPI RETURNDATASIZE PUSH0 DUP1 RETURNDATACOPY RETURNDATASIZE PUSH0 REVERT JUMPDEST POP POP POP POP PUSH1 0x40 MLOAD RETURNDATASIZE PUSH1 0x1F NOT PUSH1 0x1F DUP3 ADD AND DUP3 ADD DUP1 PUSH1 0x40 MSTORE POP DUP2 ADD SWAP1 PUSH2 0xB91 SWAP2 SWAP1 PUSH2 0x3039 JUMP JUMPDEST PUSH1 0xFF AND PUSH1 0xA PUSH2 0xBA0 SWAP2 SWAP1 PUSH2 0x31C0 JUMP JUMPDEST PUSH1 0x14 PUSH2 0xBAC SWAP2 SWAP1 PUSH2 0x320A JUMP JUMPDEST DUP2 PUSH1 0x2 ADD DUP2 SWAP1 SSTORE POP PUSH1 0x1 CALLER SWAP1 DUP1 PUSH1 0x1 DUP2 SLOAD ADD DUP1 DUP3 SSTORE DUP1 SWAP2 POP POP PUSH1 0x1 SWAP1 SUB SWAP1 PUSH0 MSTORE PUSH1 0x20 PUSH0 KECCAK256 ADD PUSH0 SWAP1 SWAP2 SWAP1 SWAP2 SWAP1 SWAP2 PUSH2 0x100 EXP DUP2 SLOAD DUP2 PUSH20 0xFFFFFFFFFFFFFFFFFFFFFFFFFFFFFFFFFFFFFFFF MUL NOT AND SWAP1 DUP4 PUSH20 0xFFFFFFFFFFFFFFFFFFFFFFFFFFFFFFFFFFFFFFFF AND MUL OR SWAP1 SSTORE POP PUSH0 DUP1 SLOAD SWAP1 PUSH2 0x100 EXP SWAP1 DIV PUSH20 0xFFFFFFFFFFFFFFFFFFFFFFFFFFFFFFFFFFFFFFFF AND PUSH20 0xFFFFFFFFFFFFFFFFFFFFFFFFFFFFFFFFFFFFFFFF AND PUSH4 0x40C10F19 CALLER DUP4 PUSH1 0x2 ADD SLOAD PUSH1 0x40 MLOAD DUP4 PUSH4 0xFFFFFFFF AND PUSH1 0xE0 SHL DUP2 MSTORE PUSH1 0x4 ADD PUSH2 0xC72 SWAP3 SWAP2 SWAP1 PUSH2 0x324B JUMP JUMPDEST PUSH0 PUSH1 0x40 MLOAD DUP1 DUP4 SUB DUP2 PUSH0 DUP8 DUP1 EXTCODESIZE ISZERO DUP1 ISZERO PUSH2 0xC89 JUMPI PUSH0 DUP1 REVERT JUMPDEST POP GAS CALL ISZERO DUP1 ISZERO PUSH2 0xC9B JUMPI RETURNDATASIZE PUSH0 DUP1 RETURNDATACOPY RETURNDATASIZE PUSH0 REVERT JUMPDEST POP POP POP POP CALLER PUSH20 0xFFFFFFFFFFFFFFFFFFFFFFFFFFFFFFFFFFFFFFFF AND PUSH32 0xC1C48F9664DA3D8AA20B115CAAD4BC6E3BBA7518FD57D8252772EE728FFB2D6 DUP7 DUP7 DUP7 DUP7 PUSH1 0x40 MLOAD PUSH2 0xCEB SWAP5 SWAP4 SWAP3 SWAP2 SWAP1 PUSH2 0x3272 JUMP JUMPDEST PUSH1 0x40 MLOAD DUP1 SWAP2 SUB SWAP1 LOG2 PUSH2 0xCFC CALLER PUSH2 0x1A80 JUMP JUMPDEST POP POP POP POP POP JUMP JUMPDEST PUSH1 0x3 PUSH0 SWAP1 SLOAD SWAP1 PUSH2 0x100 EXP SWAP1 DIV PUSH20 0xFFFFFFFFFFFFFFFFFFFFFFFFFFFFFFFFFFFFFFFF AND PUSH20 0xFFFFFFFFFFFFFFFFFFFFFFFFFFFFFFFFFFFFFFFF AND CALLER PUSH20 0xFFFFFFFFFFFFFFFFFFFFFFFFFFFFFFFFFFFFFFFF AND EQ PUSH2 0xD92 JUMPI PUSH1 0x40 MLOAD PUSH32 0x8C379A000000000000000000000000000000000000000000000000000000000 DUP2 MSTORE PUSH1 0x4 ADD PUSH2 0xD89 SWAP1 PUSH2 0x3306 JUMP JUMPDEST PUSH1 0x40 MLOAD DUP1 SWAP2 SUB SWAP1 REVERT JUMPDEST PUSH1 0x2 PUSH0 DUP3 PUSH20 0xFFFFFFFFFFFFFFFFFFFFFFFFFFFFFFFFFFFFFFFF AND PUSH20 0xFFFFFFFFFFFFFFFFFFFFFFFFFFFFFFFFFFFFFFFF AND DUP2 MSTORE PUSH1 0x20 ADD SWAP1 DUP2 MSTORE PUSH1 0x20 ADD PUSH0 KECCAK256 PUSH1 0x6 ADD PUSH0 SWAP1 SLOAD SWAP1 PUSH2 0x100 EXP SWAP1 DIV PUSH1 0xFF AND PUSH2 0xE1E JUMPI PUSH1 0x40 MLOAD PUSH32 0x8C379A000000000000000000000000000000000000000000000000000000000 DUP2 MSTORE PUSH1 0x4 ADD PUSH2 0xE15 SWAP1 PUSH2 0x2C7E JUMP JUMPDEST PUSH1 0x40 MLOAD DUP1 SWAP2 SUB SWAP1 REVERT JUMPDEST PUSH0 DUP1 JUMPDEST PUSH1 0x1 DUP1 SLOAD SWAP1 POP DUP2 LT ISZERO PUSH2 0xF98 JUMPI DUP3 PUSH20 0xFFFFFFFFFFFFFFFFFFFFFFFFFFFFFFFFFFFFFFFF AND PUSH1 0x1 DUP3 DUP2 SLOAD DUP2 LT PUSH2 0xE59 JUMPI PUSH2 0xE58 PUSH2 0x3324 JUMP JUMPDEST JUMPDEST SWAP1 PUSH0 MSTORE PUSH1 0x20 PUSH0 KECCAK256 ADD PUSH0 SWAP1 SLOAD SWAP1 PUSH2 0x100 EXP SWAP1 DIV PUSH20 0xFFFFFFFFFFFFFFFFFFFFFFFFFFFFFFFFFFFFFFFF AND PUSH20 0xFFFFFFFFFFFFFFFFFFFFFFFFFFFFFFFFFFFFFFFF AND SUB PUSH2 0xF8D JUMPI PUSH1 0x1 DUP1 DUP1 DUP1 SLOAD SWAP1 POP PUSH2 0xEAE SWAP2 SWAP1 PUSH2 0x3351 JUMP JUMPDEST DUP2 SLOAD DUP2 LT PUSH2 0xEBF JUMPI PUSH2 0xEBE PUSH2 0x3324 JUMP JUMPDEST JUMPDEST SWAP1 PUSH0 MSTORE PUSH1 0x20 PUSH0 KECCAK256 ADD PUSH0 SWAP1 SLOAD SWAP1 PUSH2 0x100 EXP SWAP1 DIV PUSH20 0xFFFFFFFFFFFFFFFFFFFFFFFFFFFFFFFFFFFFFFFF AND PUSH1 0x1 DUP3 DUP2 SLOAD DUP2 LT PUSH2 0xEFB JUMPI PUSH2 0xEFA PUSH2 0x3324 JUMP JUMPDEST JUMPDEST SWAP1 PUSH0 MSTORE PUSH1 0x20 PUSH0 KECCAK256 ADD PUSH0 PUSH2 0x100 EXP DUP2 SLOAD DUP2 PUSH20 0xFFFFFFFFFFFFFFFFFFFFFFFFFFFFFFFFFFFFFFFF MUL NOT AND SWAP1 DUP4 PUSH20 0xFFFFFFFFFFFFFFFFFFFFFFFFFFFFFFFFFFFFFFFF AND MUL OR SWAP1 SSTORE POP PUSH1 0x1 DUP1 SLOAD DUP1 PUSH2 0xF52 JUMPI PUSH2 0xF51 PUSH2 0x3384 JUMP JUMPDEST JUMPDEST PUSH1 0x1 SWAP1 SUB DUP2 DUP2 SWAP1 PUSH0 MSTORE PUSH1 0x20 PUSH0 KECCAK256 ADD PUSH0 PUSH2 0x100 EXP DUP2 SLOAD SWAP1 PUSH20 0xFFFFFFFFFFFFFFFFFFFFFFFFFFFFFFFFFFFFFFFF MUL NOT AND SWAP1 SSTORE SWAP1 SSTORE PUSH1 0x1 SWAP2 POP PUSH2 0xF98 JUMP JUMPDEST DUP1 PUSH1 0x1 ADD SWAP1 POP PUSH2 0xE21 JUMP JUMPDEST POP DUP1 PUSH2 0xFD9 JUMPI PUSH1 0x40 MLOAD PUSH32 0x8C379A000000000000000000000000000000000000000000000000000000000 DUP2 MSTORE PUSH1 0x4 ADD PUSH2 0xFD0 SWAP1 PUSH2 0x33FB JUMP JUMPDEST PUSH1 0x40 MLOAD DUP1 SWAP2 SUB SWAP1 REVERT JUMPDEST PUSH1 0x2 PUSH0 DUP4 PUSH20 0xFFFFFFFFFFFFFFFFFFFFFFFFFFFFFFFFFFFFFFFF AND PUSH20 0xFFFFFFFFFFFFFFFFFFFFFFFFFFFFFFFFFFFFFFFF AND DUP2 MSTORE PUSH1 0x20 ADD SWAP1 DUP2 MSTORE PUSH1 0x20 ADD PUSH0 KECCAK256 PUSH0 DUP1 DUP3 ADD PUSH0 PUSH2 0x100 EXP DUP2 SLOAD SWAP1 PUSH20 0xFFFFFFFFFFFFFFFFFFFFFFFFFFFFFFFFFFFFFFFF MUL NOT AND SWAP1 SSTORE PUSH1 0x1 DUP3 ADD PUSH0 PUSH2 0x104B SWAP2 SWAP1 PUSH2 0x20F5 JUMP JUMPDEST PUSH1 0x2 DUP3 ADD PUSH0 SWAP1 SSTORE PUSH1 0x3 DUP3 ADD PUSH0 SWAP1 SSTORE PUSH1 0x4 DUP3 ADD PUSH0 SWAP1 SSTORE PUSH1 0x5 DUP3 ADD PUSH0 SWAP1 SSTORE PUSH1 0x6 DUP3 ADD PUSH0 PUSH2 0x100 EXP DUP2 SLOAD SWAP1 PUSH1 0xFF MUL NOT AND SWAP1 SSTORE POP POP DUP2 PUSH20 0xFFFFFFFFFFFFFFFFFFFFFFFFFFFFFFFFFFFFFFFF AND PUSH32 0x4BC56F1321288DFB5B416CB3A7FD188723979F9E866C91D88ECCF7FCA039D039 PUSH1 0x40 MLOAD PUSH1 0x40 MLOAD DUP1 SWAP2 SUB SWAP1 LOG2 POP POP JUMP JUMPDEST PUSH2 0x10CB PUSH2 0x2132 JUMP JUMPDEST PUSH1 0x2 PUSH0 DUP4 PUSH20 0xFFFFFFFFFFFFFFFFFFFFFFFFFFFFFFFFFFFFFFFF AND PUSH20 0xFFFFFFFFFFFFFFFFFFFFFFFFFFFFFFFFFFFFFFFF AND DUP2 MSTORE PUSH1 0x20 ADD SWAP1 DUP2 MSTORE PUSH1 0x20 ADD PUSH0 KECCAK256 PUSH1 0x6 ADD PUSH0 SWAP1 SLOAD SWAP1 PUSH2 0x100 EXP SWAP1 DIV PUSH1 0xFF AND PUSH2 0x1157 JUMPI PUSH1 0x40 MLOAD PUSH32 0x8C379A000000000000000000000000000000000000000000000000000000000 DUP2 MSTORE PUSH1 0x4 ADD PUSH2 0x114E SWAP1 PUSH2 0x2C7E JUMP JUMPDEST PUSH1 0x40 MLOAD DUP1 SWAP2 SUB SWAP1 REVERT JUMPDEST PUSH1 0x2 PUSH0 DUP4 PUSH20 0xFFFFFFFFFFFFFFFFFFFFFFFFFFFFFFFFFFFFFFFF AND PUSH20 0xFFFFFFFFFFFFFFFFFFFFFFFFFFFFFFFFFFFFFFFF AND DUP2 MSTORE PUSH1 0x20 ADD SWAP1 DUP2 MSTORE PUSH1 0x20 ADD PUSH0 KECCAK256 PUSH1 0x40 MLOAD DUP1 PUSH1 0xE0 ADD PUSH1 0x40 MSTORE SWAP1 DUP2 PUSH0 DUP3 ADD PUSH0 SWAP1 SLOAD SWAP1 PUSH2 0x100 EXP SWAP1 DIV PUSH20 0xFFFFFFFFFFFFFFFFFFFFFFFFFFFFFFFFFFFFFFFF AND PUSH20 0xFFFFFFFFFFFFFFFFFFFFFFFFFFFFFFFFFFFFFFFF AND PUSH20 0xFFFFFFFFFFFFFFFFFFFFFFFFFFFFFFFFFFFFFFFF AND DUP2 MSTORE PUSH1 0x20 ADD PUSH1 0x1 DUP3 ADD DUP1 SLOAD PUSH2 0x1203 SWAP1 PUSH2 0x2CC9 JUMP JUMPDEST DUP1 PUSH1 0x1F ADD PUSH1 0x20 DUP1 SWAP2 DIV MUL PUSH1 0x20 ADD PUSH1 0x40 MLOAD SWAP1 DUP2 ADD PUSH1 0x40 MSTORE DUP1 SWAP3 SWAP2 SWAP1 DUP2 DUP2 MSTORE PUSH1 0x20 ADD DUP3 DUP1 SLOAD PUSH2 0x122F SWAP1 PUSH2 0x2CC9 JUMP JUMPDEST DUP1 ISZERO PUSH2 0x127A JUMPI DUP1 PUSH1 0x1F LT PUSH2 0x1251 JUMPI PUSH2 0x100 DUP1 DUP4 SLOAD DIV MUL DUP4 MSTORE SWAP2 PUSH1 0x20 ADD SWAP2 PUSH2 0x127A JUMP JUMPDEST DUP3 ADD SWAP2 SWAP1 PUSH0 MSTORE PUSH1 0x20 PUSH0 KECCAK256 SWAP1 JUMPDEST DUP2 SLOAD DUP2 MSTORE SWAP1 PUSH1 0x1 ADD SWAP1 PUSH1 0x20 ADD DUP1 DUP4 GT PUSH2 0x125D JUMPI DUP3 SWAP1 SUB PUSH1 0x1F AND DUP3 ADD SWAP2 JUMPDEST POP POP POP POP POP DUP2 MSTORE PUSH1 0x20 ADD PUSH1 0x2 DUP3 ADD SLOAD DUP2 MSTORE PUSH1 0x20 ADD PUSH1 0x3 DUP3 ADD SLOAD DUP2 MSTORE PUSH1 0x20 ADD PUSH1 0x4 DUP3 ADD SLOAD DUP2 MSTORE PUSH1 0x20 ADD PUSH1 0x5 DUP3 ADD SLOAD DUP2 MSTORE PUSH1 0x20 ADD PUSH1 0x6 DUP3 ADD PUSH0 SWAP1 SLOAD SWAP1 PUSH2 0x100 EXP SWAP1 DIV PUSH1 0xFF AND ISZERO ISZERO ISZERO ISZERO DUP2 MSTORE POP POP SWAP1 POP SWAP2 SWAP1 POP JUMP JUMPDEST DUP1 ISZERO PUSH2 0x132D JUMPI DUP2 PUSH1 0x2 PUSH0 DUP6 PUSH20 0xFFFFFFFFFFFFFFFFFFFFFFFFFFFFFFFFFFFFFFFF AND PUSH20 0xFFFFFFFFFFFFFFFFFFFFFFFFFFFFFFFFFFFFFFFF AND DUP2 MSTORE PUSH1 0x20 ADD SWAP1 DUP2 MSTORE PUSH1 0x20 ADD PUSH0 KECCAK256 PUSH1 0x2 ADD PUSH0 DUP3 DUP3 SLOAD PUSH2 0x1321 SWAP2 SWAP1 PUSH2 0x3419 JUMP JUMPDEST SWAP3 POP POP DUP2 SWAP1 SSTORE POP PUSH2 0x1384 JUMP JUMPDEST DUP2 PUSH1 0x2 PUSH0 DUP6 PUSH20 0xFFFFFFFFFFFFFFFFFFFFFFFFFFFFFFFFFFFFFFFF AND PUSH20 0xFFFFFFFFFFFFFFFFFFFFFFFFFFFFFFFFFFFFFFFF AND DUP2 MSTORE PUSH1 0x20 ADD SWAP1 DUP2 MSTORE PUSH1 0x20 ADD PUSH0 KECCAK256 PUSH1 0x2 ADD PUSH0 DUP3 DUP3 SLOAD PUSH2 0x137C SWAP2 SWAP1 PUSH2 0x3351 JUMP JUMPDEST SWAP3 POP POP DUP2 SWAP1 SSTORE POP JUMPDEST POP POP POP JUMP JUMPDEST PUSH1 0x2 PUSH0 CALLER PUSH20 0xFFFFFFFFFFFFFFFFFFFFFFFFFFFFFFFFFFFFFFFF AND PUSH20 0xFFFFFFFFFFFFFFFFFFFFFFFFFFFFFFFFFFFFFFFF AND DUP2 MSTORE PUSH1 0x20 ADD SWAP1 DUP2 MSTORE PUSH1 0x20 ADD PUSH0 KECCAK256 PUSH1 0x6 ADD PUSH0 SWAP1 SLOAD SWAP1 PUSH2 0x100 EXP SWAP1 DIV PUSH1 0xFF AND PUSH2 0x1415 JUMPI PUSH1 0x40 MLOAD PUSH32 0x8C379A000000000000000000000000000000000000000000000000000000000 DUP2 MSTORE PUSH1 0x4 ADD PUSH2 0x140C SWAP1 PUSH2 0x2C7E JUMP JUMPDEST PUSH1 0x40 MLOAD DUP1 SWAP2 SUB SWAP1 REVERT JUMPDEST PUSH0 PUSH1 0x4 PUSH0 CALLER PUSH20 0xFFFFFFFFFFFFFFFFFFFFFFFFFFFFFFFFFFFFFFFF AND PUSH20 0xFFFFFFFFFFFFFFFFFFFFFFFFFFFFFFFFFFFFFFFF AND DUP2 MSTORE PUSH1 0x20 ADD SWAP1 DUP2 MSTORE PUSH1 0x20 ADD PUSH0 KECCAK256 SWAP1 POP DUP5 DUP2 PUSH1 0x1 ADD SWAP1 DUP2 PUSH2 0x1466 SWAP2 SWAP1 PUSH2 0x2F34 JUMP JUMPDEST POP DUP4 DUP2 PUSH1 0x4 ADD DUP2 SWAP1 SSTORE POP DUP3 DUP2 PUSH1 0x2 ADD DUP2 SWAP1 SSTORE POP DUP2 DUP2 PUSH1 0x3 ADD DUP2 SWAP1 SSTORE POP CALLER PUSH20 0xFFFFFFFFFFFFFFFFFFFFFFFFFFFFFFFFFFFFFFFF AND PUSH32 0xA6852B488E1A23121717A53448978003C88002512D4CDA6BAAB5A33D5BE103D9 DUP7 DUP7 DUP7 DUP7 PUSH1 0x40 MLOAD PUSH2 0x14CE SWAP5 SWAP4 SWAP3 SWAP2 SWAP1 PUSH2 0x344C JUMP JUMPDEST PUSH1 0x40 MLOAD DUP1 SWAP2 SUB SWAP1 LOG2 POP POP POP POP POP JUMP JUMPDEST PUSH2 0x14E6 DUP4 PUSH2 0x6AB JUMP JUMPDEST PUSH2 0x1525 JUMPI PUSH1 0x40 MLOAD PUSH32 0x8C379A000000000000000000000000000000000000000000000000000000000 DUP2 MSTORE PUSH1 0x4 ADD PUSH2 0x151C SWAP1 PUSH2 0x34E0 JUMP JUMPDEST PUSH1 0x40 MLOAD DUP1 SWAP2 SUB SWAP1 REVERT JUMPDEST DUP1 ISZERO PUSH2 0x1586 JUMPI DUP2 PUSH1 0x2 PUSH0 DUP6 PUSH20 0xFFFFFFFFFFFFFFFFFFFFFFFFFFFFFFFFFFFFFFFF AND PUSH20 0xFFFFFFFFFFFFFFFFFFFFFFFFFFFFFFFFFFFFFFFF AND DUP2 MSTORE PUSH1 0x20 ADD SWAP1 DUP2 MSTORE PUSH1 0x20 ADD PUSH0 KECCAK256 PUSH1 0x5 ADD PUSH0 DUP3 DUP3 SLOAD PUSH2 0x157A SWAP2 SWAP1 PUSH2 0x3419 JUMP JUMPDEST SWAP3 POP POP DUP2 SWAP1 SSTORE POP PUSH2 0x15DD JUMP JUMPDEST DUP2 PUSH1 0x2 PUSH0 DUP6 PUSH20 0xFFFFFFFFFFFFFFFFFFFFFFFFFFFFFFFFFFFFFFFF AND PUSH20 0xFFFFFFFFFFFFFFFFFFFFFFFFFFFFFFFFFFFFFFFF AND DUP2 MSTORE PUSH1 0x20 ADD SWAP1 DUP2 MSTORE PUSH1 0x20 ADD PUSH0 KECCAK256 PUSH1 0x5 ADD PUSH0 DUP3 DUP3 SLOAD PUSH2 0x15D5 SWAP2 SWAP1 PUSH2 0x3351 JUMP JUMPDEST SWAP3 POP POP DUP2 SWAP1 SSTORE POP JUMPDEST POP POP POP JUMP JUMPDEST PUSH1 0x2 PUSH0 CALLER PUSH20 0xFFFFFFFFFFFFFFFFFFFFFFFFFFFFFFFFFFFFFFFF AND PUSH20 0xFFFFFFFFFFFFFFFFFFFFFFFFFFFFFFFFFFFFFFFF AND DUP2 MSTORE PUSH1 0x20 ADD SWAP1 DUP2 MSTORE PUSH1 0x20 ADD PUSH0 KECCAK256 PUSH1 0x6 ADD PUSH0 SWAP1 SLOAD SWAP1 PUSH2 0x100 EXP SWAP1 DIV PUSH1 0xFF AND PUSH2 0x166E JUMPI PUSH1 0x40 MLOAD PUSH32 0x8C379A000000000000000000000000000000000000000000000000000000000 DUP2 MSTORE PUSH1 0x4 ADD PUSH2 0x1665 SWAP1 PUSH2 0x2C7E JUMP JUMPDEST PUSH1 0x40 MLOAD DUP1 SWAP2 SUB SWAP1 REVERT JUMPDEST PUSH0 PUSH1 0x2 PUSH0 CALLER PUSH20 0xFFFFFFFFFFFFFFFFFFFFFFFFFFFFFFFFFFFFFFFF AND PUSH20 0xFFFFFFFFFFFFFFFFFFFFFFFFFFFFFFFFFFFFFFFF AND DUP2 MSTORE PUSH1 0x20 ADD SWAP1 DUP2 MSTORE PUSH1 0x20 ADD PUSH0 KECCAK256 SWAP1 POP DUP5 DUP2 PUSH1 0x1 ADD SWAP1 DUP2 PUSH2 0x16BF SWAP2 SWAP1 PUSH2 0x2F34 JUMP JUMPDEST POP DUP4 DUP2 PUSH1 0x3 ADD DUP2 SWAP1 SSTORE POP DUP3 DUP2 PUSH1 0x4 ADD DUP2 SWAP1 SSTORE POP DUP2 DUP2 PUSH1 0x5 ADD DUP2 SWAP1 SSTORE POP CALLER PUSH20 0xFFFFFFFFFFFFFFFFFFFFFFFFFFFFFFFFFFFFFFFF AND PUSH32 0xF5263C9868E9F7C401974519563BCC35BA1DAA55F79B26FA618E2C2F3202ACC DUP7 DUP7 DUP7 DUP7 PUSH1 0x40 MLOAD PUSH2 0x1727 SWAP5 SWAP4 SWAP3 SWAP2 SWAP1 PUSH2 0x3272 JUMP JUMPDEST PUSH1 0x40 MLOAD DUP1 SWAP2 SUB SWAP1 LOG2 POP POP POP POP POP JUMP JUMPDEST PUSH1 0x60 PUSH1 0x1 DUP1 SLOAD DUP1 PUSH1 0x20 MUL PUSH1 0x20 ADD PUSH1 0x40 MLOAD SWAP1 DUP2 ADD PUSH1 0x40 MSTORE DUP1 SWAP3 SWAP2 SWAP1 DUP2 DUP2 MSTORE PUSH1 0x20 ADD DUP3 DUP1 SLOAD DUP1 ISZERO PUSH2 0x17B7 JUMPI PUSH1 0x20 MUL DUP3 ADD SWAP2 SWAP1 PUSH0 MSTORE PUSH1 0x20 PUSH0 KECCAK256 SWAP1 JUMPDEST DUP2 PUSH0 SWAP1 SLOAD SWAP1 PUSH2 0x100 EXP SWAP1 DIV PUSH20 0xFFFFFFFFFFFFFFFFFFFFFFFFFFFFFFFFFFFFFFFF AND PUSH20 0xFFFFFFFFFFFFFFFFFFFFFFFFFFFFFFFFFFFFFFFF AND DUP2 MSTORE PUSH1 0x20 ADD SWAP1 PUSH1 0x1 ADD SWAP1 DUP1 DUP4 GT PUSH2 0x176E JUMPI JUMPDEST POP POP POP POP POP SWAP1 POP SWAP1 JUMP JUMPDEST PUSH2 0x17CA DUP4 PUSH2 0x6AB JUMP JUMPDEST DUP1 ISZERO PUSH2 0x17DB JUMPI POP PUSH2 0x17DA DUP3 PUSH2 0x6AB JUMP JUMPDEST JUMPDEST PUSH2 0x181A JUMPI PUSH1 0x40 MLOAD PUSH32 0x8C379A000000000000000000000000000000000000000000000000000000000 DUP2 MSTORE PUSH1 0x4 ADD PUSH2 0x1811 SWAP1 PUSH2 0x3548 JUMP JUMPDEST PUSH1 0x40 MLOAD DUP1 SWAP2 SUB SWAP1 REVERT JUMPDEST PUSH0 DUP1 SLOAD SWAP1 PUSH2 0x100 EXP SWAP1 DIV PUSH20 0xFFFFFFFFFFFFFFFFFFFFFFFFFFFFFFFFFFFFFFFF AND PUSH20 0xFFFFFFFFFFFFFFFFFFFFFFFFFFFFFFFFFFFFFFFF AND PUSH4 0x23B872DD DUP5 DUP5 DUP5 PUSH1 0x40 MLOAD DUP5 PUSH4 0xFFFFFFFF AND PUSH1 0xE0 SHL DUP2 MSTORE PUSH1 0x4 ADD PUSH2 0x1876 SWAP4 SWAP3 SWAP2 SWAP1 PUSH2 0x3566 JUMP JUMPDEST PUSH1 0x20 PUSH1 0x40 MLOAD DUP1 DUP4 SUB DUP2 PUSH0 DUP8 GAS CALL ISZERO DUP1 ISZERO PUSH2 0x1892 JUMPI RETURNDATASIZE PUSH0 DUP1 RETURNDATACOPY RETURNDATASIZE PUSH0 REVERT JUMPDEST POP POP POP POP PUSH1 0x40 MLOAD RETURNDATASIZE PUSH1 0x1F NOT PUSH1 0x1F DUP3 ADD AND DUP3 ADD DUP1 PUSH1 0x40 MSTORE POP DUP2 ADD SWAP1 PUSH2 0x18B6 SWAP2 SWAP1 PUSH2 0x35AF JUMP JUMPDEST POP POP POP POP JUMP JUMPDEST PUSH1 0x2 PUSH1 0x20 MSTORE DUP1 PUSH0 MSTORE PUSH1 0x40 PUSH0 KECCAK256 PUSH0 SWAP2 POP SWAP1 POP DUP1 PUSH0 ADD PUSH0 SWAP1 SLOAD SWAP1 PUSH2 0x100 EXP SWAP1 DIV PUSH20 0xFFFFFFFFFFFFFFFFFFFFFFFFFFFFFFFFFFFFFFFF AND SWAP1 DUP1 PUSH1 0x1 ADD DUP1 SLOAD PUSH2 0x1900 SWAP1 PUSH2 0x2CC9 JUMP JUMPDEST DUP1 PUSH1 0x1F ADD PUSH1 0x20 DUP1 SWAP2 DIV MUL PUSH1 0x20 ADD PUSH1 0x40 MLOAD SWAP1 DUP2 ADD PUSH1 0x40 MSTORE DUP1 SWAP3 SWAP2 SWAP1 DUP2 DUP2 MSTORE PUSH1 0x20 ADD DUP3 DUP1 SLOAD PUSH2 0x192C SWAP1 PUSH2 0x2CC9 JUMP JUMPDEST DUP1 ISZERO PUSH2 0x1977 JUMPI DUP1 PUSH1 0x1F LT PUSH2 0x194E JUMPI PUSH2 0x100 DUP1 DUP4 SLOAD DIV MUL DUP4 MSTORE SWAP2 PUSH1 0x20 ADD SWAP2 PUSH2 0x1977 JUMP JUMPDEST DUP3 ADD SWAP2 SWAP1 PUSH0 MSTORE PUSH1 0x20 PUSH0 KECCAK256 SWAP1 JUMPDEST DUP2 SLOAD DUP2 MSTORE SWAP1 PUSH1 0x1 ADD SWAP1 PUSH1 0x20 ADD DUP1 DUP4 GT PUSH2 0x195A JUMPI DUP3 SWAP1 SUB PUSH1 0x1F AND DUP3 ADD SWAP2 JUMPDEST POP POP POP POP POP SWAP1 DUP1 PUSH1 0x2 ADD SLOAD SWAP1 DUP1 PUSH1 0x3 ADD SLOAD SWAP1 DUP1 PUSH1 0x4 ADD SLOAD SWAP1 DUP1 PUSH1 0x5 ADD SLOAD SWAP1 DUP1 PUSH1 0x6 ADD PUSH0 SWAP1 SLOAD SWAP1 PUSH2 0x100 EXP SWAP1 DIV PUSH1 0xFF AND SWAP1 POP DUP8 JUMP JUMPDEST PUSH1 0x2 PUSH0 DUP4 PUSH20 0xFFFFFFFFFFFFFFFFFFFFFFFFFFFFFFFFFFFFFFFF AND PUSH20 0xFFFFFFFFFFFFFFFFFFFFFFFFFFFFFFFFFFFFFFFF AND DUP2 MSTORE PUSH1 0x20 ADD SWAP1 DUP2 MSTORE PUSH1 0x20 ADD PUSH0 KECCAK256 PUSH1 0x6 ADD PUSH0 SWAP1 SLOAD SWAP1 PUSH2 0x100 EXP SWAP1 DIV PUSH1 0xFF AND PUSH2 0x1A37 JUMPI PUSH1 0x40 MLOAD PUSH32 0x8C379A000000000000000000000000000000000000000000000000000000000 DUP2 MSTORE PUSH1 0x4 ADD PUSH2 0x1A2E SWAP1 PUSH2 0x2C7E JUMP JUMPDEST PUSH1 0x40 MLOAD DUP1 SWAP2 SUB SWAP1 REVERT JUMPDEST DUP1 PUSH1 0x2 PUSH0 DUP5 PUSH20 0xFFFFFFFFFFFFFFFFFFFFFFFFFFFFFFFFFFFFFFFF AND PUSH20 0xFFFFFFFFFFFFFFFFFFFFFFFFFFFFFFFFFFFFFFFF AND DUP2 MSTORE PUSH1 0x20 ADD SWAP1 DUP2 MSTORE PUSH1 0x20 ADD PUSH0 KECCAK256 PUSH1 0x5 ADD DUP2 SWAP1 SSTORE POP POP POP JUMP JUMPDEST PUSH0 PUSH1 0x4 PUSH0 DUP4 PUSH20 0xFFFFFFFFFFFFFFFFFFFFFFFFFFFFFFFFFFFFFFFF AND PUSH20 0xFFFFFFFFFFFFFFFFFFFFFFFFFFFFFFFFFFFFFFFF AND DUP2 MSTORE PUSH1 0x20 ADD SWAP1 DUP2 MSTORE PUSH1 0x20 ADD PUSH0 KECCAK256 SWAP1 POP DUP2 DUP2 PUSH0 ADD PUSH0 PUSH2 0x100 EXP DUP2 SLOAD DUP2 PUSH20 0xFFFFFFFFFFFFFFFFFFFFFFFFFFFFFFFFFFFFFFFF MUL NOT AND SWAP1 DUP4 PUSH20 0xFFFFFFFFFFFFFFFFFFFFFFFFFFFFFFFFFFFFFFFF AND MUL OR SWAP1 SSTORE POP PUSH1 0x40 MLOAD DUP1 PUSH1 0x40 ADD PUSH1 0x40 MSTORE DUP1 PUSH1 0xA DUP2 MSTORE PUSH1 0x20 ADD PUSH32 0x4E6F7454726164696E6700000000000000000000000000000000000000000000 DUP2 MSTORE POP DUP2 PUSH1 0x1 ADD SWAP1 DUP2 PUSH2 0x1B47 SWAP2 SWAP1 PUSH2 0x2F34 JUMP JUMPDEST POP PUSH0 DUP2 PUSH1 0x2 ADD DUP2 SWAP1 SSTORE POP PUSH0 DUP2 PUSH1 0x3 ADD DUP2 SWAP1 SSTORE POP PUSH0 DUP2 PUSH1 0x4 ADD DUP2 SWAP1 SSTORE POP POP POP JUMP JUMPDEST PUSH1 0x4 PUSH1 0x20 MSTORE DUP1 PUSH0 MSTORE PUSH1 0x40 PUSH0 KECCAK256 PUSH0 SWAP2 POP SWAP1 POP DUP1 PUSH0 ADD PUSH0 SWAP1 SLOAD SWAP1 PUSH2 0x100 EXP SWAP1 DIV PUSH20 0xFFFFFFFFFFFFFFFFFFFFFFFFFFFFFFFFFFFFFFFF AND SWAP1 DUP1 PUSH1 0x1 ADD DUP1 SLOAD PUSH2 0x1BAB SWAP1 PUSH2 0x2CC9 JUMP JUMPDEST DUP1 PUSH1 0x1F ADD PUSH1 0x20 DUP1 SWAP2 DIV MUL PUSH1 0x20 ADD PUSH1 0x40 MLOAD SWAP1 DUP2 ADD PUSH1 0x40 MSTORE DUP1 SWAP3 SWAP2 SWAP1 DUP2 DUP2 MSTORE PUSH1 0x20 ADD DUP3 DUP1 SLOAD PUSH2 0x1BD7 SWAP1 PUSH2 0x2CC9 JUMP JUMPDEST DUP1 ISZERO PUSH2 0x1C22 JUMPI DUP1 PUSH1 0x1F LT PUSH2 0x1BF9 JUMPI PUSH2 0x100 DUP1 DUP4 SLOAD DIV MUL DUP4 MSTORE SWAP2 PUSH1 0x20 ADD SWAP2 PUSH2 0x1C22 JUMP JUMPDEST DUP3 ADD SWAP2 SWAP1 PUSH0 MSTORE PUSH1 0x20 PUSH0 KECCAK256 SWAP1 JUMPDEST DUP2 SLOAD DUP2 MSTORE SWAP1 PUSH1 0x1 ADD SWAP1 PUSH1 0x20 ADD DUP1 DUP4 GT PUSH2 0x1C05 JUMPI DUP3 SWAP1 SUB PUSH1 0x1F AND DUP3 ADD SWAP2 JUMPDEST POP POP POP POP POP SWAP1 DUP1 PUSH1 0x2 ADD SLOAD SWAP1 DUP1 PUSH1 0x3 ADD SLOAD SWAP1 DUP1 PUSH1 0x4 ADD SLOAD SWAP1 POP DUP6 JUMP JUMPDEST PUSH1 0x60 PUSH0 PUSH1 0x1 DUP1 SLOAD SWAP1 POP PUSH8 0xFFFFFFFFFFFFFFFF DUP2 GT ISZERO PUSH2 0x1C60 JUMPI PUSH2 0x1C5F PUSH2 0x24BC JUMP JUMPDEST JUMPDEST PUSH1 0x40 MLOAD SWAP1 DUP1 DUP3 MSTORE DUP1 PUSH1 0x20 MUL PUSH1 0x20 ADD DUP3 ADD PUSH1 0x40 MSTORE DUP1 ISZERO PUSH2 0x1C99 JUMPI DUP2 PUSH1 0x20 ADD JUMPDEST PUSH2 0x1C86 PUSH2 0x2132 JUMP JUMPDEST DUP2 MSTORE PUSH1 0x20 ADD SWAP1 PUSH1 0x1 SWAP1 SUB SWAP1 DUP2 PUSH2 0x1C7E JUMPI SWAP1 POP JUMPDEST POP SWAP1 POP PUSH0 JUMPDEST PUSH1 0x1 DUP1 SLOAD SWAP1 POP DUP2 LT ISZERO PUSH2 0x1E7F JUMPI PUSH1 0x2 PUSH0 PUSH1 0x1 DUP4 DUP2 SLOAD DUP2 LT PUSH2 0x1CC2 JUMPI PUSH2 0x1CC1 PUSH2 0x3324 JUMP JUMPDEST JUMPDEST SWAP1 PUSH0 MSTORE PUSH1 0x20 PUSH0 KECCAK256 ADD PUSH0 SWAP1 SLOAD SWAP1 PUSH2 0x100 EXP SWAP1 DIV PUSH20 0xFFFFFFFFFFFFFFFFFFFFFFFFFFFFFFFFFFFFFFFF AND PUSH20 0xFFFFFFFFFFFFFFFFFFFFFFFFFFFFFFFFFFFFFFFF AND PUSH20 0xFFFFFFFFFFFFFFFFFFFFFFFFFFFFFFFFFFFFFFFF AND DUP2 MSTORE PUSH1 0x20 ADD SWAP1 DUP2 MSTORE PUSH1 0x20 ADD PUSH0 KECCAK256 PUSH1 0x40 MLOAD DUP1 PUSH1 0xE0 ADD PUSH1 0x40 MSTORE SWAP1 DUP2 PUSH0 DUP3 ADD PUSH0 SWAP1 SLOAD SWAP1 PUSH2 0x100 EXP SWAP1 DIV PUSH20 0xFFFFFFFFFFFFFFFFFFFFFFFFFFFFFFFFFFFFFFFF AND PUSH20 0xFFFFFFFFFFFFFFFFFFFFFFFFFFFFFFFFFFFFFFFF AND PUSH20 0xFFFFFFFFFFFFFFFFFFFFFFFFFFFFFFFFFFFFFFFF AND DUP2 MSTORE PUSH1 0x20 ADD PUSH1 0x1 DUP3 ADD DUP1 SLOAD PUSH2 0x1D92 SWAP1 PUSH2 0x2CC9 JUMP JUMPDEST DUP1 PUSH1 0x1F ADD PUSH1 0x20 DUP1 SWAP2 DIV MUL PUSH1 0x20 ADD PUSH1 0x40 MLOAD SWAP1 DUP2 ADD PUSH1 0x40 MSTORE DUP1 SWAP3 SWAP2 SWAP1 DUP2 DUP2 MSTORE PUSH1 0x20 ADD DUP3 DUP1 SLOAD PUSH2 0x1DBE SWAP1 PUSH2 0x2CC9 JUMP JUMPDEST DUP1 ISZERO PUSH2 0x1E09 JUMPI DUP1 PUSH1 0x1F LT PUSH2 0x1DE0 JUMPI PUSH2 0x100 DUP1 DUP4 SLOAD DIV MUL DUP4 MSTORE SWAP2 PUSH1 0x20 ADD SWAP2 PUSH2 0x1E09 JUMP JUMPDEST DUP3 ADD SWAP2 SWAP1 PUSH0 MSTORE PUSH1 0x20 PUSH0 KECCAK256 SWAP1 JUMPDEST DUP2 SLOAD DUP2 MSTORE SWAP1 PUSH1 0x1 ADD SWAP1 PUSH1 0x20 ADD DUP1 DUP4 GT PUSH2 0x1DEC JUMPI DUP3 SWAP1 SUB PUSH1 0x1F AND DUP3 ADD SWAP2 JUMPDEST POP POP POP POP POP DUP2 MSTORE PUSH1 0x20 ADD PUSH1 0x2 DUP3 ADD SLOAD DUP2 MSTORE PUSH1 0x20 ADD PUSH1 0x3 DUP3 ADD SLOAD DUP2 MSTORE PUSH1 0x20 ADD PUSH1 0x4 DUP3 ADD SLOAD DUP2 MSTORE PUSH1 0x20 ADD PUSH1 0x5 DUP3 ADD SLOAD DUP2 MSTORE PUSH1 0x20 ADD PUSH1 0x6 DUP3 ADD PUSH0 SWAP1 SLOAD SWAP1 PUSH2 0x100 EXP SWAP1 DIV PUSH1 0xFF AND ISZERO ISZERO ISZERO ISZERO DUP2 MSTORE POP POP DUP3 DUP3 DUP2 MLOAD DUP2 LT PUSH2 0x1E67 JUMPI PUSH2 0x1E66 PUSH2 0x3324 JUMP JUMPDEST JUMPDEST PUSH1 0x20 MUL PUSH1 0x20 ADD ADD DUP2 SWAP1 MSTORE POP DUP1 DUP1 PUSH1 0x1 ADD SWAP2 POP POP PUSH2 0x1C9E JUMP JUMPDEST POP DUP1 SWAP2 POP POP SWAP1 JUMP JUMPDEST PUSH0 PUSH1 0x4 PUSH0 DUP4 PUSH20 0xFFFFFFFFFFFFFFFFFFFFFFFFFFFFFFFFFFFFFFFF AND PUSH20 0xFFFFFFFFFFFFFFFFFFFFFFFFFFFFFFFFFFFFFFFF AND DUP2 MSTORE PUSH1 0x20 ADD SWAP1 DUP2 MSTORE PUSH1 0x20 ADD PUSH0 KECCAK256 SWAP1 POP PUSH1 0x40 MLOAD DUP1 PUSH1 0x40 ADD PUSH1 0x40 MSTORE DUP1 PUSH1 0xA DUP2 MSTORE PUSH1 0x20 ADD PUSH32 0x4E6F7454726164696E6700000000000000000000000000000000000000000000 DUP2 MSTORE POP DUP2 PUSH1 0x1 ADD SWAP1 DUP2 PUSH2 0x1F0D SWAP2 SWAP1 PUSH2 0x2F34 JUMP JUMPDEST POP PUSH0 DUP2 PUSH1 0x4 ADD DUP2 SWAP1 SSTORE POP PUSH0 DUP2 PUSH1 0x2 ADD DUP2 SWAP1 SSTORE POP PUSH0 DUP2 PUSH1 0x3 ADD DUP2 SWAP1 SSTORE POP POP POP JUMP JUMPDEST PUSH0 DUP1 SLOAD SWAP1 PUSH2 0x100 EXP SWAP1 DIV PUSH20 0xFFFFFFFFFFFFFFFFFFFFFFFFFFFFFFFFFFFFFFFF AND PUSH20 0xFFFFFFFFFFFFFFFFFFFFFFFFFFFFFFFFFFFFFFFF AND PUSH4 0x95EA7B3 DUP4 DUP4 PUSH1 0x40 MLOAD DUP4 PUSH4 0xFFFFFFFF AND PUSH1 0xE0 SHL DUP2 MSTORE PUSH1 0x4 ADD PUSH2 0x1F87 SWAP3 SWAP2 SWAP1 PUSH2 0x324B JUMP JUMPDEST PUSH1 0x20 PUSH1 0x40 MLOAD DUP1 DUP4 SUB DUP2 PUSH0 DUP8 GAS CALL ISZERO DUP1 ISZERO PUSH2 0x1FA3 JUMPI RETURNDATASIZE PUSH0 DUP1 RETURNDATACOPY RETURNDATASIZE PUSH0 REVERT JUMPDEST POP POP POP POP PUSH1 0x40 MLOAD RETURNDATASIZE PUSH1 0x1F NOT PUSH1 0x1F DUP3 ADD AND DUP3 ADD DUP1 PUSH1 0x40 MSTORE POP DUP2 ADD SWAP1 PUSH2 0x1FC7 SWAP2 SWAP1 PUSH2 0x35AF JUMP JUMPDEST POP POP POP JUMP JUMPDEST PUSH0 DUP1 PUSH0 SWAP1 SLOAD SWAP1 PUSH2 0x100 EXP SWAP1 DIV PUSH20 0xFFFFFFFFFFFFFFFFFFFFFFFFFFFFFFFFFFFFFFFF AND PUSH20 0xFFFFFFFFFFFFFFFFFFFFFFFFFFFFFFFFFFFFFFFF AND PUSH4 0x70A08231 DUP4 PUSH1 0x40 MLOAD DUP3 PUSH4 0xFFFFFFFF AND PUSH1 0xE0 SHL DUP2 MSTORE PUSH1 0x4 ADD PUSH2 0x2026 SWAP2 SWAP1 PUSH2 0x2BA7 JUMP JUMPDEST PUSH1 0x20 PUSH1 0x40 MLOAD DUP1 DUP4 SUB DUP2 DUP7 GAS STATICCALL ISZERO DUP1 ISZERO PUSH2 0x2041 JUMPI RETURNDATASIZE PUSH0 DUP1 RETURNDATACOPY RETURNDATASIZE PUSH0 REVERT JUMPDEST POP POP POP POP PUSH1 0x40 MLOAD RETURNDATASIZE PUSH1 0x1F NOT PUSH1 0x1F DUP3 ADD AND DUP3 ADD DUP1 PUSH1 0x40 MSTORE POP DUP2 ADD SWAP1 PUSH2 0x2065 SWAP2 SWAP1 PUSH2 0x2D0D JUMP JUMPDEST SWAP1 POP SWAP2 SWAP1 POP JUMP JUMPDEST PUSH1 0x3 PUSH0 SWAP1 SLOAD SWAP1 PUSH2 0x100 EXP SWAP1 DIV PUSH20 0xFFFFFFFFFFFFFFFFFFFFFFFFFFFFFFFFFFFFFFFF AND DUP2 JUMP JUMPDEST PUSH0 DUP1 SLOAD SWAP1 PUSH2 0x100 EXP SWAP1 DIV PUSH20 0xFFFFFFFFFFFFFFFFFFFFFFFFFFFFFFFFFFFFFFFF AND DUP2 JUMP JUMPDEST PUSH1 0x40 MLOAD DUP1 PUSH1 0xA0 ADD PUSH1 0x40 MSTORE DUP1 PUSH0 PUSH20 0xFFFFFFFFFFFFFFFFFFFFFFFFFFFFFFFFFFFFFFFF AND DUP2 MSTORE PUSH1 0x20 ADD PUSH1 0x60 DUP2 MSTORE PUSH1 0x20 ADD PUSH0 DUP2 MSTORE PUSH1 0x20 ADD PUSH0 DUP2 MSTORE PUSH1 0x20 ADD PUSH0 DUP2 MSTORE POP SWAP1 JUMP JUMPDEST POP DUP1 SLOAD PUSH2 0x2101 SWAP1 PUSH2 0x2CC9 JUMP JUMPDEST PUSH0 DUP3 SSTORE DUP1 PUSH1 0x1F LT PUSH2 0x2112 JUMPI POP PUSH2 0x212F JUMP JUMPDEST PUSH1 0x1F ADD PUSH1 0x20 SWAP1 DIV SWAP1 PUSH0 MSTORE PUSH1 0x20 PUSH0 KECCAK256 SWAP1 DUP2 ADD SWAP1 PUSH2 0x212E SWAP2 SWAP1 PUSH2 0x2181 JUMP JUMPDEST JUMPDEST POP JUMP JUMPDEST PUSH1 0x40 MLOAD DUP1 PUSH1 0xE0 ADD PUSH1 0x40 MSTORE DUP1 PUSH0 PUSH20 0xFFFFFFFFFFFFFFFFFFFFFFFFFFFFFFFFFFFFFFFF AND DUP2 MSTORE PUSH1 0x20 ADD PUSH1 0x60 DUP2 MSTORE PUSH1 0x20 ADD PUSH0 DUP2 MSTORE PUSH1 0x20 ADD PUSH0 DUP2 MSTORE PUSH1 0x20 ADD PUSH0 DUP2 MSTORE PUSH1 0x20 ADD PUSH0 DUP2 MSTORE PUSH1 0x20 ADD PUSH0 ISZERO ISZERO DUP2 MSTORE POP SWAP1 JUMP JUMPDEST JUMPDEST DUP1 DUP3 GT ISZERO PUSH2 0x2198 JUMPI PUSH0 DUP2 PUSH0 SWAP1 SSTORE POP PUSH1 0x1 ADD PUSH2 0x2182 JUMP JUMPDEST POP SWAP1 JUMP JUMPDEST PUSH0 PUSH1 0x40 MLOAD SWAP1 POP SWAP1 JUMP JUMPDEST PUSH0 DUP1 REVERT JUMPDEST PUSH0 DUP1 REVERT JUMPDEST PUSH0 PUSH20 0xFFFFFFFFFFFFFFFFFFFFFFFFFFFFFFFFFFFFFFFF DUP3 AND SWAP1 POP SWAP2 SWAP1 POP JUMP JUMPDEST PUSH0 PUSH2 0x21D6 DUP3 PUSH2 0x21AD JUMP JUMPDEST SWAP1 POP SWAP2 SWAP1 POP JUMP JUMPDEST PUSH2 0x21E6 DUP2 PUSH2 0x21CC JUMP JUMPDEST DUP2 EQ PUSH2 0x21F0 JUMPI PUSH0 DUP1 REVERT JUMPDEST POP JUMP JUMPDEST PUSH0 DUP2 CALLDATALOAD SWAP1 POP PUSH2 0x2201 DUP2 PUSH2 0x21DD JUMP JUMPDEST SWAP3 SWAP2 POP POP JUMP JUMPDEST PUSH0 PUSH1 0x20 DUP3 DUP5 SUB SLT ISZERO PUSH2 0x221C JUMPI PUSH2 0x221B PUSH2 0x21A5 JUMP JUMPDEST JUMPDEST PUSH0 PUSH2 0x2229 DUP5 DUP3 DUP6 ADD PUSH2 0x21F3 JUMP JUMPDEST SWAP2 POP POP SWAP3 SWAP2 POP POP JUMP JUMPDEST PUSH2 0x223B DUP2 PUSH2 0x21CC JUMP JUMPDEST DUP3 MSTORE POP POP JUMP JUMPDEST PUSH0 DUP2 MLOAD SWAP1 POP SWAP2 SWAP1 POP JUMP JUMPDEST PUSH0 DUP3 DUP3 MSTORE PUSH1 0x20 DUP3 ADD SWAP1 POP SWAP3 SWAP2 POP POP JUMP JUMPDEST PUSH0 JUMPDEST DUP4 DUP2 LT ISZERO PUSH2 0x2278 JUMPI DUP1 DUP3 ADD MLOAD DUP2 DUP5 ADD MSTORE PUSH1 0x20 DUP2 ADD SWAP1 POP PUSH2 0x225D JUMP JUMPDEST PUSH0 DUP5 DUP5 ADD MSTORE POP POP POP POP JUMP JUMPDEST PUSH0 PUSH1 0x1F NOT PUSH1 0x1F DUP4 ADD AND SWAP1 POP SWAP2 SWAP1 POP JUMP JUMPDEST PUSH0 PUSH2 0x229D DUP3 PUSH2 0x2241 JUMP JUMPDEST PUSH2 0x22A7 DUP2 DUP6 PUSH2 0x224B JUMP JUMPDEST SWAP4 POP PUSH2 0x22B7 DUP2 DUP6 PUSH1 0x20 DUP7 ADD PUSH2 0x225B JUMP JUMPDEST PUSH2 0x22C0 DUP2 PUSH2 0x2283 JUMP JUMPDEST DUP5 ADD SWAP2 POP POP SWAP3 SWAP2 POP POP JUMP JUMPDEST PUSH0 DUP2 SWAP1 POP SWAP2 SWAP1 POP JUMP JUMPDEST PUSH2 0x22DD DUP2 PUSH2 0x22CB JUMP JUMPDEST DUP3 MSTORE POP POP JUMP JUMPDEST PUSH0 PUSH1 0xA0 DUP4 ADD PUSH0 DUP4 ADD MLOAD PUSH2 0x22F8 PUSH0 DUP7 ADD DUP3 PUSH2 0x2232 JUMP JUMPDEST POP PUSH1 0x20 DUP4 ADD MLOAD DUP5 DUP3 SUB PUSH1 0x20 DUP7 ADD MSTORE PUSH2 0x2310 DUP3 DUP3 PUSH2 0x2293 JUMP JUMPDEST SWAP2 POP POP PUSH1 0x40 DUP4 ADD MLOAD PUSH2 0x2325 PUSH1 0x40 DUP7 ADD DUP3 PUSH2 0x22D4 JUMP JUMPDEST POP PUSH1 0x60 DUP4 ADD MLOAD PUSH2 0x2338 PUSH1 0x60 DUP7 ADD DUP3 PUSH2 0x22D4 JUMP JUMPDEST POP PUSH1 0x80 DUP4 ADD MLOAD PUSH2 0x234B PUSH1 0x80 DUP7 ADD DUP3 PUSH2 0x22D4 JUMP JUMPDEST POP DUP1 SWAP2 POP POP SWAP3 SWAP2 POP POP JUMP JUMPDEST PUSH0 PUSH1 0x20 DUP3 ADD SWAP1 POP DUP2 DUP2 SUB PUSH0 DUP4 ADD MSTORE PUSH2 0x236E DUP2 DUP5 PUSH2 0x22E3 JUMP JUMPDEST SWAP1 POP SWAP3 SWAP2 POP POP JUMP JUMPDEST PUSH0 DUP2 ISZERO ISZERO SWAP1 POP SWAP2 SWAP1 POP JUMP JUMPDEST PUSH2 0x238A DUP2 PUSH2 0x2376 JUMP JUMPDEST DUP3 MSTORE POP POP JUMP JUMPDEST PUSH0 PUSH1 0x20 DUP3 ADD SWAP1 POP PUSH2 0x23A3 PUSH0 DUP4 ADD DUP5 PUSH2 0x2381 JUMP JUMPDEST SWAP3 SWAP2 POP POP JUMP JUMPDEST PUSH2 0x23B2 DUP2 PUSH2 0x22CB JUMP JUMPDEST DUP3 MSTORE POP POP JUMP JUMPDEST PUSH0 PUSH1 0x20 DUP3 ADD SWAP1 POP PUSH2 0x23CB PUSH0 DUP4 ADD DUP5 PUSH2 0x23A9 JUMP JUMPDEST SWAP3 SWAP2 POP POP JUMP JUMPDEST PUSH2 0x23DA DUP2 PUSH2 0x21CC JUMP JUMPDEST DUP3 MSTORE POP POP JUMP JUMPDEST PUSH0 DUP3 DUP3 MSTORE PUSH1 0x20 DUP3 ADD SWAP1 POP SWAP3 SWAP2 POP POP JUMP JUMPDEST PUSH0 PUSH2 0x23FA DUP3 PUSH2 0x2241 JUMP JUMPDEST PUSH2 0x2404 DUP2 DUP6 PUSH2 0x23E0 JUMP JUMPDEST SWAP4 POP PUSH2 0x2414 DUP2 DUP6 PUSH1 0x20 DUP7 ADD PUSH2 0x225B JUMP JUMPDEST PUSH2 0x241D DUP2 PUSH2 0x2283 JUMP JUMPDEST DUP5 ADD SWAP2 POP POP SWAP3 SWAP2 POP POP JUMP JUMPDEST PUSH0 DUP2 SWAP1 POP SWAP2 SWAP1 POP JUMP JUMPDEST PUSH2 0x243A DUP2 PUSH2 0x2428 JUMP JUMPDEST DUP3 MSTORE POP POP JUMP JUMPDEST PUSH0 PUSH1 0xE0 DUP3 ADD SWAP1 POP PUSH2 0x2453 PUSH0 DUP4 ADD DUP11 PUSH2 0x23D1 JUMP JUMPDEST DUP2 DUP2 SUB PUSH1 0x20 DUP4 ADD MSTORE PUSH2 0x2465 DUP2 DUP10 PUSH2 0x23F0 JUMP JUMPDEST SWAP1 POP PUSH2 0x2474 PUSH1 0x40 DUP4 ADD DUP9 PUSH2 0x23A9 JUMP JUMPDEST PUSH2 0x2481 PUSH1 0x60 DUP4 ADD DUP8 PUSH2 0x2431 JUMP JUMPDEST PUSH2 0x248E PUSH1 0x80 DUP4 ADD DUP7 PUSH2 0x2431 JUMP JUMPDEST PUSH2 0x249B PUSH1 0xA0 DUP4 ADD DUP6 PUSH2 0x23A9 JUMP JUMPDEST PUSH2 0x24A8 PUSH1 0xC0 DUP4 ADD DUP5 PUSH2 0x2381 JUMP JUMPDEST SWAP9 SWAP8 POP POP POP POP POP POP POP POP JUMP JUMPDEST PUSH0 DUP1 REVERT JUMPDEST PUSH0 DUP1 REVERT JUMPDEST PUSH32 0x4E487B7100000000000000000000000000000000000000000000000000000000 PUSH0 MSTORE PUSH1 0x41 PUSH1 0x4 MSTORE PUSH1 0x24 PUSH0 REVERT JUMPDEST PUSH2 0x24F2 DUP3 PUSH2 0x2283 JUMP JUMPDEST DUP2 ADD DUP2 DUP2 LT PUSH8 0xFFFFFFFFFFFFFFFF DUP3 GT OR ISZERO PUSH2 0x2511 JUMPI PUSH2 0x2510 PUSH2 0x24BC JUMP JUMPDEST JUMPDEST DUP1 PUSH1 0x40 MSTORE POP POP POP JUMP JUMPDEST PUSH0 PUSH2 0x2523 PUSH2 0x219C JUMP JUMPDEST SWAP1 POP PUSH2 0x252F DUP3 DUP3 PUSH2 0x24E9 JUMP JUMPDEST SWAP2 SWAP1 POP JUMP JUMPDEST PUSH0 PUSH8 0xFFFFFFFFFFFFFFFF DUP3 GT ISZERO PUSH2 0x254E JUMPI PUSH2 0x254D PUSH2 0x24BC JUMP JUMPDEST JUMPDEST PUSH2 0x2557 DUP3 PUSH2 0x2283 JUMP JUMPDEST SWAP1 POP PUSH1 0x20 DUP2 ADD SWAP1 POP SWAP2 SWAP1 POP JUMP JUMPDEST DUP3 DUP2 DUP4 CALLDATACOPY PUSH0 DUP4 DUP4 ADD MSTORE POP POP POP JUMP JUMPDEST PUSH0 PUSH2 0x2584 PUSH2 0x257F DUP5 PUSH2 0x2534 JUMP JUMPDEST PUSH2 0x251A JUMP JUMPDEST SWAP1 POP DUP3 DUP2 MSTORE PUSH1 0x20 DUP2 ADD DUP5 DUP5 DUP5 ADD GT ISZERO PUSH2 0x25A0 JUMPI PUSH2 0x259F PUSH2 0x24B8 JUMP JUMPDEST JUMPDEST PUSH2 0x25AB DUP5 DUP3 DUP6 PUSH2 0x2564 JUMP JUMPDEST POP SWAP4 SWAP3 POP POP POP JUMP JUMPDEST PUSH0 DUP3 PUSH1 0x1F DUP4 ADD SLT PUSH2 0x25C7 JUMPI PUSH2 0x25C6 PUSH2 0x24B4 JUMP JUMPDEST JUMPDEST DUP2 CALLDATALOAD PUSH2 0x25D7 DUP5 DUP3 PUSH1 0x20 DUP7 ADD PUSH2 0x2572 JUMP JUMPDEST SWAP2 POP POP SWAP3 SWAP2 POP POP JUMP JUMPDEST PUSH2 0x25E9 DUP2 PUSH2 0x2428 JUMP JUMPDEST DUP2 EQ PUSH2 0x25F3 JUMPI PUSH0 DUP1 REVERT JUMPDEST POP JUMP JUMPDEST PUSH0 DUP2 CALLDATALOAD SWAP1 POP PUSH2 0x2604 DUP2 PUSH2 0x25E0 JUMP JUMPDEST SWAP3 SWAP2 POP POP JUMP JUMPDEST PUSH2 0x2613 DUP2 PUSH2 0x22CB JUMP JUMPDEST DUP2 EQ PUSH2 0x261D JUMPI PUSH0 DUP1 REVERT JUMPDEST POP JUMP JUMPDEST PUSH0 DUP2 CALLDATALOAD SWAP1 POP PUSH2 0x262E DUP2 PUSH2 0x260A JUMP JUMPDEST SWAP3 SWAP2 POP POP JUMP JUMPDEST PUSH0 DUP1 PUSH0 DUP1 PUSH1 0x80 DUP6 DUP8 SUB SLT ISZERO PUSH2 0x264C JUMPI PUSH2 0x264B PUSH2 0x21A5 JUMP JUMPDEST JUMPDEST PUSH0 DUP6 ADD CALLDATALOAD PUSH8 0xFFFFFFFFFFFFFFFF DUP2 GT ISZERO PUSH2 0x2669 JUMPI PUSH2 0x2668 PUSH2 0x21A9 JUMP JUMPDEST JUMPDEST PUSH2 0x2675 DUP8 DUP3 DUP9 ADD PUSH2 0x25B3 JUMP JUMPDEST SWAP5 POP POP PUSH1 0x20 PUSH2 0x2686 DUP8 DUP3 DUP9 ADD PUSH2 0x25F6 JUMP JUMPDEST SWAP4 POP POP PUSH1 0x40 PUSH2 0x2697 DUP8 DUP3 DUP9 ADD PUSH2 0x25F6 JUMP JUMPDEST SWAP3 POP POP PUSH1 0x60 PUSH2 0x26A8 DUP8 DUP3 DUP9 ADD PUSH2 0x2620 JUMP JUMPDEST SWAP2 POP POP SWAP3 SWAP6 SWAP2 SWAP5 POP SWAP3 POP JUMP JUMPDEST PUSH2 0x26BD DUP2 PUSH2 0x2428 JUMP JUMPDEST DUP3 MSTORE POP POP JUMP JUMPDEST PUSH2 0x26CC DUP2 PUSH2 0x2376 JUMP JUMPDEST DUP3 MSTORE POP POP JUMP JUMPDEST PUSH0 PUSH1 0xE0 DUP4 ADD PUSH0 DUP4 ADD MLOAD PUSH2 0x26E7 PUSH0 DUP7 ADD DUP3 PUSH2 0x2232 JUMP JUMPDEST POP PUSH1 0x20 DUP4 ADD MLOAD DUP5 DUP3 SUB PUSH1 0x20 DUP7 ADD MSTORE PUSH2 0x26FF DUP3 DUP3 PUSH2 0x2293 JUMP JUMPDEST SWAP2 POP POP PUSH1 0x40 DUP4 ADD MLOAD PUSH2 0x2714 PUSH1 0x40 DUP7 ADD DUP3 PUSH2 0x22D4 JUMP JUMPDEST POP PUSH1 0x60 DUP4 ADD MLOAD PUSH2 0x2727 PUSH1 0x60 DUP7 ADD DUP3 PUSH2 0x26B4 JUMP JUMPDEST POP PUSH1 0x80 DUP4 ADD MLOAD PUSH2 0x273A PUSH1 0x80 DUP7 ADD DUP3 PUSH2 0x26B4 JUMP JUMPDEST POP PUSH1 0xA0 DUP4 ADD MLOAD PUSH2 0x274D PUSH1 0xA0 DUP7 ADD DUP3 PUSH2 0x22D4 JUMP JUMPDEST POP PUSH1 0xC0 DUP4 ADD MLOAD PUSH2 0x2760 PUSH1 0xC0 DUP7 ADD DUP3 PUSH2 0x26C3 JUMP JUMPDEST POP DUP1 SWAP2 POP POP SWAP3 SWAP2 POP POP JUMP JUMPDEST PUSH0 PUSH1 0x20 DUP3 ADD SWAP1 POP DUP2 DUP2 SUB PUSH0 DUP4 ADD MSTORE PUSH2 0x2783 DUP2 DUP5 PUSH2 0x26D2 JUMP JUMPDEST SWAP1 POP SWAP3 SWAP2 POP POP JUMP JUMPDEST PUSH2 0x2794 DUP2 PUSH2 0x2376 JUMP JUMPDEST DUP2 EQ PUSH2 0x279E JUMPI PUSH0 DUP1 REVERT JUMPDEST POP JUMP JUMPDEST PUSH0 DUP2 CALLDATALOAD SWAP1 POP PUSH2 0x27AF DUP2 PUSH2 0x278B JUMP JUMPDEST SWAP3 SWAP2 POP POP JUMP JUMPDEST PUSH0 DUP1 PUSH0 PUSH1 0x60 DUP5 DUP7 SUB SLT ISZERO PUSH2 0x27CC JUMPI PUSH2 0x27CB PUSH2 0x21A5 JUMP JUMPDEST JUMPDEST PUSH0 PUSH2 0x27D9 DUP7 DUP3 DUP8 ADD PUSH2 0x21F3 JUMP JUMPDEST SWAP4 POP POP PUSH1 0x20 PUSH2 0x27EA DUP7 DUP3 DUP8 ADD PUSH2 0x2620 JUMP JUMPDEST SWAP3 POP POP PUSH1 0x40 PUSH2 0x27FB DUP7 DUP3 DUP8 ADD PUSH2 0x27A1 JUMP JUMPDEST SWAP2 POP POP SWAP3 POP SWAP3 POP SWAP3 JUMP JUMPDEST PUSH0 DUP1 PUSH0 DUP1 PUSH1 0x80 DUP6 DUP8 SUB SLT ISZERO PUSH2 0x281D JUMPI PUSH2 0x281C PUSH2 0x21A5 JUMP JUMPDEST JUMPDEST PUSH0 DUP6 ADD CALLDATALOAD PUSH8 0xFFFFFFFFFFFFFFFF DUP2 GT ISZERO PUSH2 0x283A JUMPI PUSH2 0x2839 PUSH2 0x21A9 JUMP JUMPDEST JUMPDEST PUSH2 0x2846 DUP8 DUP3 DUP9 ADD PUSH2 0x25B3 JUMP JUMPDEST SWAP5 POP POP PUSH1 0x20 PUSH2 0x2857 DUP8 DUP3 DUP9 ADD PUSH2 0x2620 JUMP JUMPDEST SWAP4 POP POP PUSH1 0x40 PUSH2 0x2868 DUP8 DUP3 DUP9 ADD PUSH2 0x2620 JUMP JUMPDEST SWAP3 POP POP PUSH1 0x60 PUSH2 0x2879 DUP8 DUP3 DUP9 ADD PUSH2 0x2620 JUMP JUMPDEST SWAP2 POP POP SWAP3 SWAP6 SWAP2 SWAP5 POP SWAP3 POP JUMP JUMPDEST PUSH0 DUP2 MLOAD SWAP1 POP SWAP2 SWAP1 POP JUMP JUMPDEST PUSH0 DUP3 DUP3 MSTORE PUSH1 0x20 DUP3 ADD SWAP1 POP SWAP3 SWAP2 POP POP JUMP JUMPDEST PUSH0 DUP2 SWAP1 POP PUSH1 0x20 DUP3 ADD SWAP1 POP SWAP2 SWAP1 POP JUMP JUMPDEST PUSH0 PUSH2 0x28B9 DUP4 DUP4 PUSH2 0x2232 JUMP JUMPDEST PUSH1 0x20 DUP4 ADD SWAP1 POP SWAP3 SWAP2 POP POP JUMP JUMPDEST PUSH0 PUSH1 0x20 DUP3 ADD SWAP1 POP SWAP2 SWAP1 POP JUMP JUMPDEST PUSH0 PUSH2 0x28DB DUP3 PUSH2 0x2885 JUMP JUMPDEST PUSH2 0x28E5 DUP2 DUP6 PUSH2 0x288F JUMP JUMPDEST SWAP4 POP PUSH2 0x28F0 DUP4 PUSH2 0x289F JUMP JUMPDEST DUP1 PUSH0 JUMPDEST DUP4 DUP2 LT ISZERO PUSH2 0x2920 JUMPI DUP2 MLOAD PUSH2 0x2907 DUP9 DUP3 PUSH2 0x28AE JUMP JUMPDEST SWAP8 POP PUSH2 0x2912 DUP4 PUSH2 0x28C5 JUMP JUMPDEST SWAP3 POP POP PUSH1 0x1 DUP2 ADD SWAP1 POP PUSH2 0x28F3 JUMP JUMPDEST POP DUP6 SWAP4 POP POP POP POP SWAP3 SWAP2 POP POP JUMP JUMPDEST PUSH0 PUSH1 0x20 DUP3 ADD SWAP1 POP DUP2 DUP2 SUB PUSH0 DUP4 ADD MSTORE PUSH2 0x2945 DUP2 DUP5 PUSH2 0x28D1 JUMP JUMPDEST SWAP1 POP SWAP3 SWAP2 POP POP JUMP JUMPDEST PUSH0 DUP1 PUSH0 PUSH1 0x60 DUP5 DUP7 SUB SLT ISZERO PUSH2 0x2964 JUMPI PUSH2 0x2963 PUSH2 0x21A5 JUMP JUMPDEST JUMPDEST PUSH0 PUSH2 0x2971 DUP7 DUP3 DUP8 ADD PUSH2 0x21F3 JUMP JUMPDEST SWAP4 POP POP PUSH1 0x20 PUSH2 0x2982 DUP7 DUP3 DUP8 ADD PUSH2 0x21F3 JUMP JUMPDEST SWAP3 POP POP PUSH1 0x40 PUSH2 0x2993 DUP7 DUP3 DUP8 ADD PUSH2 0x2620 JUMP JUMPDEST SWAP2 POP POP SWAP3 POP SWAP3 POP SWAP3 JUMP JUMPDEST PUSH0 DUP1 PUSH1 0x40 DUP4 DUP6 SUB SLT ISZERO PUSH2 0x29B3 JUMPI PUSH2 0x29B2 PUSH2 0x21A5 JUMP JUMPDEST JUMPDEST PUSH0 PUSH2 0x29C0 DUP6 DUP3 DUP7 ADD PUSH2 0x21F3 JUMP JUMPDEST SWAP3 POP POP PUSH1 0x20 PUSH2 0x29D1 DUP6 DUP3 DUP7 ADD PUSH2 0x2620 JUMP JUMPDEST SWAP2 POP POP SWAP3 POP SWAP3 SWAP1 POP JUMP JUMPDEST PUSH0 PUSH1 0xA0 DUP3 ADD SWAP1 POP PUSH2 0x29EE PUSH0 DUP4 ADD DUP9 PUSH2 0x23D1 JUMP JUMPDEST DUP2 DUP2 SUB PUSH1 0x20 DUP4 ADD MSTORE PUSH2 0x2A00 DUP2 DUP8 PUSH2 0x23F0 JUMP JUMPDEST SWAP1 POP PUSH2 0x2A0F PUSH1 0x40 DUP4 ADD DUP7 PUSH2 0x23A9 JUMP JUMPDEST PUSH2 0x2A1C PUSH1 0x60 DUP4 ADD DUP6 PUSH2 0x23A9 JUMP JUMPDEST PUSH2 0x2A29 PUSH1 0x80 DUP4 ADD DUP5 PUSH2 0x23A9 JUMP JUMPDEST SWAP7 SWAP6 POP POP POP POP POP POP JUMP JUMPDEST PUSH0 DUP2 MLOAD SWAP1 POP SWAP2 SWAP1 POP JUMP JUMPDEST PUSH0 DUP3 DUP3 MSTORE PUSH1 0x20 DUP3 ADD SWAP1 POP SWAP3 SWAP2 POP POP JUMP JUMPDEST PUSH0 DUP2 SWAP1 POP PUSH1 0x20 DUP3 ADD SWAP1 POP SWAP2 SWAP1 POP JUMP JUMPDEST PUSH0 PUSH1 0xE0 DUP4 ADD PUSH0 DUP4 ADD MLOAD PUSH2 0x2A71 PUSH0 DUP7 ADD DUP3 PUSH2 0x2232 JUMP JUMPDEST POP PUSH1 0x20 DUP4 ADD MLOAD DUP5 DUP3 SUB PUSH1 0x20 DUP7 ADD MSTORE PUSH2 0x2A89 DUP3 DUP3 PUSH2 0x2293 JUMP JUMPDEST SWAP2 POP POP PUSH1 0x40 DUP4 ADD MLOAD PUSH2 0x2A9E PUSH1 0x40 DUP7 ADD DUP3 PUSH2 0x22D4 JUMP JUMPDEST POP PUSH1 0x60 DUP4 ADD MLOAD PUSH2 0x2AB1 PUSH1 0x60 DUP7 ADD DUP3 PUSH2 0x26B4 JUMP JUMPDEST POP PUSH1 0x80 DUP4 ADD MLOAD PUSH2 0x2AC4 PUSH1 0x80 DUP7 ADD DUP3 PUSH2 0x26B4 JUMP JUMPDEST POP PUSH1 0xA0 DUP4 ADD MLOAD PUSH2 0x2AD7 PUSH1 0xA0 DUP7 ADD DUP3 PUSH2 0x22D4 JUMP JUMPDEST POP PUSH1 0xC0 DUP4 ADD MLOAD PUSH2 0x2AEA PUSH1 0xC0 DUP7 ADD DUP3 PUSH2 0x26C3 JUMP JUMPDEST POP DUP1 SWAP2 POP POP SWAP3 SWAP2 POP POP JUMP JUMPDEST PUSH0 PUSH2 0x2B00 DUP4 DUP4 PUSH2 0x2A5C JUMP JUMPDEST SWAP1 POP SWAP3 SWAP2 POP POP JUMP JUMPDEST PUSH0 PUSH1 0x20 DUP3 ADD SWAP1 POP SWAP2 SWAP1 POP JUMP JUMPDEST PUSH0 PUSH2 0x2B1E DUP3 PUSH2 0x2A33 JUMP JUMPDEST PUSH2 0x2B28 DUP2 DUP6 PUSH2 0x2A3D JUMP JUMPDEST SWAP4 POP DUP4 PUSH1 0x20 DUP3 MUL DUP6 ADD PUSH2 0x2B3A DUP6 PUSH2 0x2A4D JUMP JUMPDEST DUP1 PUSH0 JUMPDEST DUP6 DUP2 LT ISZERO PUSH2 0x2B75 JUMPI DUP5 DUP5 SUB DUP10 MSTORE DUP2 MLOAD PUSH2 0x2B56 DUP6 DUP3 PUSH2 0x2AF5 JUMP JUMPDEST SWAP5 POP PUSH2 0x2B61 DUP4 PUSH2 0x2B08 JUMP JUMPDEST SWAP3 POP PUSH1 0x20 DUP11 ADD SWAP10 POP POP PUSH1 0x1 DUP2 ADD SWAP1 POP PUSH2 0x2B3D JUMP JUMPDEST POP DUP3 SWAP8 POP DUP8 SWAP6 POP POP POP POP POP POP SWAP3 SWAP2 POP POP JUMP JUMPDEST PUSH0 PUSH1 0x20 DUP3 ADD SWAP1 POP DUP2 DUP2 SUB PUSH0 DUP4 ADD MSTORE PUSH2 0x2B9F DUP2 DUP5 PUSH2 0x2B14 JUMP JUMPDEST SWAP1 POP SWAP3 SWAP2 POP POP JUMP JUMPDEST PUSH0 PUSH1 0x20 DUP3 ADD SWAP1 POP PUSH2 0x2BBA PUSH0 DUP4 ADD DUP5 PUSH2 0x23D1 JUMP JUMPDEST SWAP3 SWAP2 POP POP JUMP JUMPDEST PUSH0 DUP2 SWAP1 POP SWAP2 SWAP1 POP JUMP JUMPDEST PUSH0 PUSH2 0x2BE3 PUSH2 0x2BDE PUSH2 0x2BD9 DUP5 PUSH2 0x21AD JUMP JUMPDEST PUSH2 0x2BC0 JUMP JUMPDEST PUSH2 0x21AD JUMP JUMPDEST SWAP1 POP SWAP2 SWAP1 POP JUMP JUMPDEST PUSH0 PUSH2 0x2BF4 DUP3 PUSH2 0x2BC9 JUMP JUMPDEST SWAP1 POP SWAP2 SWAP1 POP JUMP JUMPDEST PUSH0 PUSH2 0x2C05 DUP3 PUSH2 0x2BEA JUMP JUMPDEST SWAP1 POP SWAP2 SWAP1 POP JUMP JUMPDEST PUSH2 0x2C15 DUP2 PUSH2 0x2BFB JUMP JUMPDEST DUP3 MSTORE POP POP JUMP JUMPDEST PUSH0 PUSH1 0x20 DUP3 ADD SWAP1 POP PUSH2 0x2C2E PUSH0 DUP4 ADD DUP5 PUSH2 0x2C0C JUMP JUMPDEST SWAP3 SWAP2 POP POP JUMP JUMPDEST PUSH32 0x55736572206973206E6F7420726567697374657265642E000000000000000000 PUSH0 DUP3 ADD MSTORE POP JUMP JUMPDEST PUSH0 PUSH2 0x2C68 PUSH1 0x17 DUP4 PUSH2 0x23E0 JUMP JUMPDEST SWAP2 POP PUSH2 0x2C73 DUP3 PUSH2 0x2C34 JUMP JUMPDEST PUSH1 0x20 DUP3 ADD SWAP1 POP SWAP2 SWAP1 POP JUMP JUMPDEST PUSH0 PUSH1 0x20 DUP3 ADD SWAP1 POP DUP2 DUP2 SUB PUSH0 DUP4 ADD MSTORE PUSH2 0x2C95 DUP2 PUSH2 0x2C5C JUMP JUMPDEST SWAP1 POP SWAP2 SWAP1 POP JUMP JUMPDEST PUSH32 0x4E487B7100000000000000000000000000000000000000000000000000000000 PUSH0 MSTORE PUSH1 0x22 PUSH1 0x4 MSTORE PUSH1 0x24 PUSH0 REVERT JUMPDEST PUSH0 PUSH1 0x2 DUP3 DIV SWAP1 POP PUSH1 0x1 DUP3 AND DUP1 PUSH2 0x2CE0 JUMPI PUSH1 0x7F DUP3 AND SWAP2 POP JUMPDEST PUSH1 0x20 DUP3 LT DUP2 SUB PUSH2 0x2CF3 JUMPI PUSH2 0x2CF2 PUSH2 0x2C9C JUMP JUMPDEST JUMPDEST POP SWAP2 SWAP1 POP JUMP JUMPDEST PUSH0 DUP2 MLOAD SWAP1 POP PUSH2 0x2D07 DUP2 PUSH2 0x260A JUMP JUMPDEST SWAP3 SWAP2 POP POP JUMP JUMPDEST PUSH0 PUSH1 0x20 DUP3 DUP5 SUB SLT ISZERO PUSH2 0x2D22 JUMPI PUSH2 0x2D21 PUSH2 0x21A5 JUMP JUMPDEST JUMPDEST PUSH0 PUSH2 0x2D2F DUP5 DUP3 DUP6 ADD PUSH2 0x2CF9 JUMP JUMPDEST SWAP2 POP POP SWAP3 SWAP2 POP POP JUMP JUMPDEST PUSH32 0x5573657220616C726561647920726567697374657265642E0000000000000000 PUSH0 DUP3 ADD MSTORE POP JUMP JUMPDEST PUSH0 PUSH2 0x2D6C PUSH1 0x18 DUP4 PUSH2 0x23E0 JUMP JUMPDEST SWAP2 POP PUSH2 0x2D77 DUP3 PUSH2 0x2D38 JUMP JUMPDEST PUSH1 0x20 DUP3 ADD SWAP1 POP SWAP2 SWAP1 POP JUMP JUMPDEST PUSH0 PUSH1 0x20 DUP3 ADD SWAP1 POP DUP2 DUP2 SUB PUSH0 DUP4 ADD MSTORE PUSH2 0x2D99 DUP2 PUSH2 0x2D60 JUMP JUMPDEST SWAP1 POP SWAP2 SWAP1 POP JUMP JUMPDEST PUSH0 DUP2 SWAP1 POP DUP2 PUSH0 MSTORE PUSH1 0x20 PUSH0 KECCAK256 SWAP1 POP SWAP2 SWAP1 POP JUMP JUMPDEST PUSH0 PUSH1 0x20 PUSH1 0x1F DUP4 ADD DIV SWAP1 POP SWAP2 SWAP1 POP JUMP JUMPDEST PUSH0 DUP3 DUP3 SHL SWAP1 POP SWAP3 SWAP2 POP POP JUMP JUMPDEST PUSH0 PUSH1 0x8 DUP4 MUL PUSH2 0x2DFC PUSH32 0xFFFFFFFFFFFFFFFFFFFFFFFFFFFFFFFFFFFFFFFFFFFFFFFFFFFFFFFFFFFFFFFF DUP3 PUSH2 0x2DC1 JUMP JUMPDEST PUSH2 0x2E06 DUP7 DUP4 PUSH2 0x2DC1 JUMP JUMPDEST SWAP6 POP DUP1 NOT DUP5 AND SWAP4 POP DUP1 DUP7 AND DUP5 OR SWAP3 POP POP POP SWAP4 SWAP3 POP POP POP JUMP JUMPDEST PUSH0 PUSH2 0x2E38 PUSH2 0x2E33 PUSH2 0x2E2E DUP5 PUSH2 0x22CB JUMP JUMPDEST PUSH2 0x2BC0 JUMP JUMPDEST PUSH2 0x22CB JUMP JUMPDEST SWAP1 POP SWAP2 SWAP1 POP JUMP JUMPDEST PUSH0 DUP2 SWAP1 POP SWAP2 SWAP1 POP JUMP JUMPDEST PUSH2 0x2E51 DUP4 PUSH2 0x2E1E JUMP JUMPDEST PUSH2 0x2E65 PUSH2 0x2E5D DUP3 PUSH2 0x2E3F JUMP JUMPDEST DUP5 DUP5 SLOAD PUSH2 0x2DCD JUMP JUMPDEST DUP3 SSTORE POP POP POP POP JUMP JUMPDEST PUSH0 SWAP1 JUMP JUMPDEST PUSH2 0x2E79 PUSH2 0x2E6D JUMP JUMPDEST PUSH2 0x2E84 DUP2 DUP5 DUP5 PUSH2 0x2E48 JUMP JUMPDEST POP POP POP JUMP JUMPDEST JUMPDEST DUP2 DUP2 LT ISZERO PUSH2 0x2EA7 JUMPI PUSH2 0x2E9C PUSH0 DUP3 PUSH2 0x2E71 JUMP JUMPDEST PUSH1 0x1 DUP2 ADD SWAP1 POP PUSH2 0x2E8A JUMP JUMPDEST POP POP JUMP JUMPDEST PUSH1 0x1F DUP3 GT ISZERO PUSH2 0x2EEC JUMPI PUSH2 0x2EBD DUP2 PUSH2 0x2DA0 JUMP JUMPDEST PUSH2 0x2EC6 DUP5 PUSH2 0x2DB2 JUMP JUMPDEST DUP2 ADD PUSH1 0x20 DUP6 LT ISZERO PUSH2 0x2ED5 JUMPI DUP2 SWAP1 POP JUMPDEST PUSH2 0x2EE9 PUSH2 0x2EE1 DUP6 PUSH2 0x2DB2 JUMP JUMPDEST DUP4 ADD DUP3 PUSH2 0x2E89 JUMP JUMPDEST POP POP JUMPDEST POP POP POP JUMP JUMPDEST PUSH0 DUP3 DUP3 SHR SWAP1 POP SWAP3 SWAP2 POP POP JUMP JUMPDEST PUSH0 PUSH2 0x2F0C PUSH0 NOT DUP5 PUSH1 0x8 MUL PUSH2 0x2EF1 JUMP JUMPDEST NOT DUP1 DUP4 AND SWAP2 POP POP SWAP3 SWAP2 POP POP JUMP JUMPDEST PUSH0 PUSH2 0x2F24 DUP4 DUP4 PUSH2 0x2EFD JUMP JUMPDEST SWAP2 POP DUP3 PUSH1 0x2 MUL DUP3 OR SWAP1 POP SWAP3 SWAP2 POP POP JUMP JUMPDEST PUSH2 0x2F3D DUP3 PUSH2 0x2241 JUMP JUMPDEST PUSH8 0xFFFFFFFFFFFFFFFF DUP2 GT ISZERO PUSH2 0x2F56 JUMPI PUSH2 0x2F55 PUSH2 0x24BC JUMP JUMPDEST JUMPDEST PUSH2 0x2F60 DUP3 SLOAD PUSH2 0x2CC9 JUMP JUMPDEST PUSH2 0x2F6B DUP3 DUP3 DUP6 PUSH2 0x2EAB JUMP JUMPDEST PUSH0 PUSH1 0x20 SWAP1 POP PUSH1 0x1F DUP4 GT PUSH1 0x1 DUP2 EQ PUSH2 0x2F9C JUMPI PUSH0 DUP5 ISZERO PUSH2 0x2F8A JUMPI DUP3 DUP8 ADD MLOAD SWAP1 POP JUMPDEST PUSH2 0x2F94 DUP6 DUP3 PUSH2 0x2F19 JUMP JUMPDEST DUP7 SSTORE POP PUSH2 0x2FFB JUMP JUMPDEST PUSH1 0x1F NOT DUP5 AND PUSH2 0x2FAA DUP7 PUSH2 0x2DA0 JUMP JUMPDEST PUSH0 JUMPDEST DUP3 DUP2 LT ISZERO PUSH2 0x2FD1 JUMPI DUP5 DUP10 ADD MLOAD DUP3 SSTORE PUSH1 0x1 DUP3 ADD SWAP2 POP PUSH1 0x20 DUP6 ADD SWAP5 POP PUSH1 0x20 DUP2 ADD SWAP1 POP PUSH2 0x2FAC JUMP JUMPDEST DUP7 DUP4 LT ISZERO PUSH2 0x2FEE JUMPI DUP5 DUP10 ADD MLOAD PUSH2 0x2FEA PUSH1 0x1F DUP10 AND DUP3 PUSH2 0x2EFD JUMP JUMPDEST DUP4 SSTORE POP JUMPDEST PUSH1 0x1 PUSH1 0x2 DUP9 MUL ADD DUP9 SSTORE POP POP POP JUMPDEST POP POP POP POP POP POP JUMP JUMPDEST PUSH0 PUSH1 0xFF DUP3 AND SWAP1 POP SWAP2 SWAP1 POP JUMP JUMPDEST PUSH2 0x3018 DUP2 PUSH2 0x3003 JUMP JUMPDEST DUP2 EQ PUSH2 0x3022 JUMPI PUSH0 DUP1 REVERT JUMPDEST POP JUMP JUMPDEST PUSH0 DUP2 MLOAD SWAP1 POP PUSH2 0x3033 DUP2 PUSH2 0x300F JUMP JUMPDEST SWAP3 SWAP2 POP POP JUMP JUMPDEST PUSH0 PUSH1 0x20 DUP3 DUP5 SUB SLT ISZERO PUSH2 0x304E JUMPI PUSH2 0x304D PUSH2 0x21A5 JUMP JUMPDEST JUMPDEST PUSH0 PUSH2 0x305B DUP5 DUP3 DUP6 ADD PUSH2 0x3025 JUMP JUMPDEST SWAP2 POP POP SWAP3 SWAP2 POP POP JUMP JUMPDEST PUSH32 0x4E487B7100000000000000000000000000000000000000000000000000000000 PUSH0 MSTORE PUSH1 0x11 PUSH1 0x4 MSTORE PUSH1 0x24 PUSH0 REVERT JUMPDEST PUSH0 DUP2 PUSH1 0x1 SHR SWAP1 POP SWAP2 SWAP1 POP JUMP JUMPDEST PUSH0 DUP1 DUP3 SWAP2 POP DUP4 SWAP1 POP JUMPDEST PUSH1 0x1 DUP6 GT ISZERO PUSH2 0x30E6 JUMPI DUP1 DUP7 DIV DUP2 GT ISZERO PUSH2 0x30C2 JUMPI PUSH2 0x30C1 PUSH2 0x3064 JUMP JUMPDEST JUMPDEST PUSH1 0x1 DUP6 AND ISZERO PUSH2 0x30D1 JUMPI DUP1 DUP3 MUL SWAP2 POP JUMPDEST DUP1 DUP2 MUL SWAP1 POP PUSH2 0x30DF DUP6 PUSH2 0x3091 JUMP JUMPDEST SWAP5 POP PUSH2 0x30A6 JUMP JUMPDEST SWAP5 POP SWAP5 SWAP3 POP POP POP JUMP JUMPDEST PUSH0 DUP3 PUSH2 0x30FE JUMPI PUSH1 0x1 SWAP1 POP PUSH2 0x31B9 JUMP JUMPDEST DUP2 PUSH2 0x310B JUMPI PUSH0 SWAP1 POP PUSH2 0x31B9 JUMP JUMPDEST DUP2 PUSH1 0x1 DUP2 EQ PUSH2 0x3121 JUMPI PUSH1 0x2 DUP2 EQ PUSH2 0x312B JUMPI PUSH2 0x315A JUMP JUMPDEST PUSH1 0x1 SWAP2 POP POP PUSH2 0x31B9 JUMP JUMPDEST PUSH1 0xFF DUP5 GT ISZERO PUSH2 0x313D JUMPI PUSH2 0x313C PUSH2 0x3064 JUMP JUMPDEST JUMPDEST DUP4 PUSH1 0x2 EXP SWAP2 POP DUP5 DUP3 GT ISZERO PUSH2 0x3154 JUMPI PUSH2 0x3153 PUSH2 0x3064 JUMP JUMPDEST JUMPDEST POP PUSH2 0x31B9 JUMP JUMPDEST POP PUSH1 0x20 DUP4 LT PUSH2 0x133 DUP4 LT AND PUSH1 0x4E DUP5 LT PUSH1 0xB DUP5 LT AND OR ISZERO PUSH2 0x318F JUMPI DUP3 DUP3 EXP SWAP1 POP DUP4 DUP2 GT ISZERO PUSH2 0x318A JUMPI PUSH2 0x3189 PUSH2 0x3064 JUMP JUMPDEST JUMPDEST PUSH2 0x31B9 JUMP JUMPDEST PUSH2 0x319C DUP5 DUP5 DUP5 PUSH1 0x1 PUSH2 0x309D JUMP JUMPDEST SWAP3 POP SWAP1 POP DUP2 DUP5 DIV DUP2 GT ISZERO PUSH2 0x31B3 JUMPI PUSH2 0x31B2 PUSH2 0x3064 JUMP JUMPDEST JUMPDEST DUP2 DUP2 MUL SWAP1 POP JUMPDEST SWAP4 SWAP3 POP POP POP JUMP JUMPDEST PUSH0 PUSH2 0x31CA DUP3 PUSH2 0x22CB JUMP JUMPDEST SWAP2 POP PUSH2 0x31D5 DUP4 PUSH2 0x22CB JUMP JUMPDEST SWAP3 POP PUSH2 0x3202 PUSH32 0xFFFFFFFFFFFFFFFFFFFFFFFFFFFFFFFFFFFFFFFFFFFFFFFFFFFFFFFFFFFFFFFF DUP5 DUP5 PUSH2 0x30EF JUMP JUMPDEST SWAP1 POP SWAP3 SWAP2 POP POP JUMP JUMPDEST PUSH0 PUSH2 0x3214 DUP3 PUSH2 0x22CB JUMP JUMPDEST SWAP2 POP PUSH2 0x321F DUP4 PUSH2 0x22CB JUMP JUMPDEST SWAP3 POP DUP3 DUP3 MUL PUSH2 0x322D DUP2 PUSH2 0x22CB JUMP JUMPDEST SWAP2 POP DUP3 DUP3 DIV DUP5 EQ DUP4 ISZERO OR PUSH2 0x3244 JUMPI PUSH2 0x3243 PUSH2 0x3064 JUMP JUMPDEST JUMPDEST POP SWAP3 SWAP2 POP POP JUMP JUMPDEST PUSH0 PUSH1 0x40 DUP3 ADD SWAP1 POP PUSH2 0x325E PUSH0 DUP4 ADD DUP6 PUSH2 0x23D1 JUMP JUMPDEST PUSH2 0x326B PUSH1 0x20 DUP4 ADD DUP5 PUSH2 0x23A9 JUMP JUMPDEST SWAP4 SWAP3 POP POP POP JUMP JUMPDEST PUSH0 PUSH1 0x80 DUP3 ADD SWAP1 POP DUP2 DUP2 SUB PUSH0 DUP4 ADD MSTORE PUSH2 0x328A DUP2 DUP8 PUSH2 0x23F0 JUMP JUMPDEST SWAP1 POP PUSH2 0x3299 PUSH1 0x20 DUP4 ADD DUP7 PUSH2 0x2431 JUMP JUMPDEST PUSH2 0x32A6 PUSH1 0x40 DUP4 ADD DUP6 PUSH2 0x2431 JUMP JUMPDEST PUSH2 0x32B3 PUSH1 0x60 DUP4 ADD DUP5 PUSH2 0x23A9 JUMP JUMPDEST SWAP6 SWAP5 POP POP POP POP POP JUMP JUMPDEST PUSH32 0x4F6E6C792061646D696E2063616E2063616C6C20746869732E00000000000000 PUSH0 DUP3 ADD MSTORE POP JUMP JUMPDEST PUSH0 PUSH2 0x32F0 PUSH1 0x19 DUP4 PUSH2 0x23E0 JUMP JUMPDEST SWAP2 POP PUSH2 0x32FB DUP3 PUSH2 0x32BC JUMP JUMPDEST PUSH1 0x20 DUP3 ADD SWAP1 POP SWAP2 SWAP1 POP JUMP JUMPDEST PUSH0 PUSH1 0x20 DUP3 ADD SWAP1 POP DUP2 DUP2 SUB PUSH0 DUP4 ADD MSTORE PUSH2 0x331D DUP2 PUSH2 0x32E4 JUMP JUMPDEST SWAP1 POP SWAP2 SWAP1 POP JUMP JUMPDEST PUSH32 0x4E487B7100000000000000000000000000000000000000000000000000000000 PUSH0 MSTORE PUSH1 0x32 PUSH1 0x4 MSTORE PUSH1 0x24 PUSH0 REVERT JUMPDEST PUSH0 PUSH2 0x335B DUP3 PUSH2 0x22CB JUMP JUMPDEST SWAP2 POP PUSH2 0x3366 DUP4 PUSH2 0x22CB JUMP JUMPDEST SWAP3 POP DUP3 DUP3 SUB SWAP1 POP DUP2 DUP2 GT ISZERO PUSH2 0x337E JUMPI PUSH2 0x337D PUSH2 0x3064 JUMP JUMPDEST JUMPDEST SWAP3 SWAP2 POP POP JUMP JUMPDEST PUSH32 0x4E487B7100000000000000000000000000000000000000000000000000000000 PUSH0 MSTORE PUSH1 0x31 PUSH1 0x4 MSTORE PUSH1 0x24 PUSH0 REVERT JUMPDEST PUSH32 0x557365722061646472657373206E6F7420666F756E642E000000000000000000 PUSH0 DUP3 ADD MSTORE POP JUMP JUMPDEST PUSH0 PUSH2 0x33E5 PUSH1 0x17 DUP4 PUSH2 0x23E0 JUMP JUMPDEST SWAP2 POP PUSH2 0x33F0 DUP3 PUSH2 0x33B1 JUMP JUMPDEST PUSH1 0x20 DUP3 ADD SWAP1 POP SWAP2 SWAP1 POP JUMP JUMPDEST PUSH0 PUSH1 0x20 DUP3 ADD SWAP1 POP DUP2 DUP2 SUB PUSH0 DUP4 ADD MSTORE PUSH2 0x3412 DUP2 PUSH2 0x33D9 JUMP JUMPDEST SWAP1 POP SWAP2 SWAP1 POP JUMP JUMPDEST PUSH0 PUSH2 0x3423 DUP3 PUSH2 0x22CB JUMP JUMPDEST SWAP2 POP PUSH2 0x342E DUP4 PUSH2 0x22CB JUMP JUMPDEST SWAP3 POP DUP3 DUP3 ADD SWAP1 POP DUP1 DUP3 GT ISZERO PUSH2 0x3446 JUMPI PUSH2 0x3445 PUSH2 0x3064 JUMP JUMPDEST JUMPDEST SWAP3 SWAP2 POP POP JUMP JUMPDEST PUSH0 PUSH1 0x80 DUP3 ADD SWAP1 POP DUP2 DUP2 SUB PUSH0 DUP4 ADD MSTORE PUSH2 0x3464 DUP2 DUP8 PUSH2 0x23F0 JUMP JUMPDEST SWAP1 POP PUSH2 0x3473 PUSH1 0x20 DUP4 ADD DUP7 PUSH2 0x23A9 JUMP JUMPDEST PUSH2 0x3480 PUSH1 0x40 DUP4 ADD DUP6 PUSH2 0x23A9 JUMP JUMPDEST PUSH2 0x348D PUSH1 0x60 DUP4 ADD DUP5 PUSH2 0x23A9 JUMP JUMPDEST SWAP6 SWAP5 POP POP POP POP POP JUMP JUMPDEST PUSH32 0x55736572206D7573742062652072656769737465726564000000000000000000 PUSH0 DUP3 ADD MSTORE POP JUMP JUMPDEST PUSH0 PUSH2 0x34CA PUSH1 0x17 DUP4 PUSH2 0x23E0 JUMP JUMPDEST SWAP2 POP PUSH2 0x34D5 DUP3 PUSH2 0x3496 JUMP JUMPDEST PUSH1 0x20 DUP3 ADD SWAP1 POP SWAP2 SWAP1 POP JUMP JUMPDEST PUSH0 PUSH1 0x20 DUP3 ADD SWAP1 POP DUP2 DUP2 SUB PUSH0 DUP4 ADD MSTORE PUSH2 0x34F7 DUP2 PUSH2 0x34BE JUMP JUMPDEST SWAP1 POP SWAP2 SWAP1 POP JUMP JUMPDEST PUSH32 0x426F74682070617274696573206D757374206265207265676973746572656400 PUSH0 DUP3 ADD MSTORE POP JUMP JUMPDEST PUSH0 PUSH2 0x3532 PUSH1 0x1F DUP4 PUSH2 0x23E0 JUMP JUMPDEST SWAP2 POP PUSH2 0x353D DUP3 PUSH2 0x34FE JUMP JUMPDEST PUSH1 0x20 DUP3 ADD SWAP1 POP SWAP2 SWAP1 POP JUMP JUMPDEST PUSH0 PUSH1 0x20 DUP3 ADD SWAP1 POP DUP2 DUP2 SUB PUSH0 DUP4 ADD MSTORE PUSH2 0x355F DUP2 PUSH2 0x3526 JUMP JUMPDEST SWAP1 POP SWAP2 SWAP1 POP JUMP JUMPDEST PUSH0 PUSH1 0x60 DUP3 ADD SWAP1 POP PUSH2 0x3579 PUSH0 DUP4 ADD DUP7 PUSH2 0x23D1 JUMP JUMPDEST PUSH2 0x3586 PUSH1 0x20 DUP4 ADD DUP6 PUSH2 0x23D1 JUMP JUMPDEST PUSH2 0x3593 PUSH1 0x40 DUP4 ADD DUP5 PUSH2 0x23A9 JUMP JUMPDEST SWAP5 SWAP4 POP POP POP POP JUMP JUMPDEST PUSH0 DUP2 MLOAD SWAP1 POP PUSH2 0x35A9 DUP2 PUSH2 0x278B JUMP JUMPDEST SWAP3 SWAP2 POP POP JUMP JUMPDEST PUSH0 PUSH1 0x20 DUP3 DUP5 SUB SLT ISZERO PUSH2 0x35C4 JUMPI PUSH2 0x35C3 PUSH2 0x21A5 JUMP JUMPDEST JUMPDEST PUSH0 PUSH2 0x35D1 DUP5 DUP3 DUP6 ADD PUSH2 0x359B JUMP JUMPDEST SWAP2 POP POP SWAP3 SWAP2 POP POP JUMP INVALID LOG2 PUSH5 0x6970667358 0x22 SLT KECCAK256 PREVRANDAO 0xE7 PUSH6 0x5BECDA43094E MCOPY STOP 0xA7 PUSH14 0x11AD5A751286913043CECC91ED5A 0xB2 BASEFEE 0xAF PUSH11 0x6E64736F6C634300081800 CALLER "
		},
		"gasEstimates": {
			"creation": {
				"codeDepositCost": "2768000",
				"executionCost": "infinite",
				"totalCost": "infinite"
			},
			"external": {
				"admin()": "2618",
				"approveTokens(address,uint256)": "infinite",
				"deleteUser(address)": "infinite",
				"getAllUsersInfo()": "infinite",
				"getEnergyBalance(address)": "2947",
				"getTokenBalance(address)": "infinite",
				"getTradingInfo(address)": "infinite",
				"getUserAddresses()": "infinite",
				"getUserInfo(address)": "infinite",
				"getUserInfoAll(address)": "infinite",
				"getUserTokenBalance(address)": "infinite",
				"initializeTradingInfo(address)": "infinite",
				"isUserRegistered(address)": "2922",
				"registerUser(string,int256,int256,uint256)": "infinite",
				"resetTradingInfo(address)": "infinite",
				"token()": "infinite",
				"tradingInfos(address)": "infinite",
				"transferTokens(address,address,uint256)": "infinite",
				"updateEnergyBalance(address,uint256)": "25163",
				"updateEnergyBalance(address,uint256,bool)": "infinite",
				"updateTokenBalance(address,uint256,bool)": "infinite",
				"updateTradingUserInfo(string,uint256,uint256,uint256)": "infinite",
				"updateUser(string,int256,int256,uint256)": "infinite",
				"users(address)": "infinite"
			}
		},
		"methodIdentifiers": {
			"admin()": "f851a440",
			"approveTokens(address,uint256)": "f38488ec",
			"deleteUser(address)": "5c60f226",
			"getAllUsersInfo()": "c3bcf192",
			"getEnergyBalance(address)": "46352b58",
			"getTokenBalance(address)": "3aecd0e3",
			"getTradingInfo(address)": "0e947bd8",
			"getUserAddresses()": "a591efde",
			"getUserInfo(address)": "6386c1c7",
			"getUserInfoAll(address)": "3b605047",
			"getUserTokenBalance(address)": "f5aec88c",
			"initializeTradingInfo(address)": "b4815081",
			"isUserRegistered(address)": "163f7522",
			"registerUser(string,int256,int256,uint256)": "4bc48240",
			"resetTradingInfo(address)": "f014a601",
			"token()": "fc0c546a",
			"tradingInfos(address)": "c33277e3",
			"transferTokens(address,address,uint256)": "a64b6e5f",
			"updateEnergyBalance(address,uint256)": "af7ccfa7",
			"updateEnergyBalance(address,uint256,bool)": "9202e886",
			"updateTokenBalance(address,uint256,bool)": "6fb4309b",
			"updateTradingUserInfo(string,uint256,uint256,uint256)": "767ce2dd",
			"updateUser(string,int256,int256,uint256)": "92d9c36f",
			"users(address)": "a87430ba"
		}
	},
	"abi": [
		{
			"inputs": [
				{
					"internalType": "address",
					"name": "tokenAddress",
					"type": "address"
				}
			],
			"stateMutability": "nonpayable",
			"type": "constructor"
		},
		{
			"anonymous": false,
			"inputs": [
				{
					"indexed": true,
					"internalType": "address",
					"name": "userAddress",
					"type": "address"
				},
				{
					"indexed": false,
					"internalType": "string",
					"name": "tradingStatus",
					"type": "string"
				},
				{
					"indexed": false,
					"internalType": "uint256",
					"name": "expiryDate",
					"type": "uint256"
				},
				{
					"indexed": false,
					"internalType": "uint256",
					"name": "buySellAmount",
					"type": "uint256"
				},
				{
					"indexed": false,
					"internalType": "uint256",
					"name": "price",
					"type": "uint256"
				}
			],
			"name": "TradingInfoUpdated",
			"type": "event"
		},
		{
			"anonymous": false,
			"inputs": [
				{
					"indexed": true,
					"internalType": "address",
					"name": "userAddress",
					"type": "address"
				}
			],
			"name": "UserDeleted",
			"type": "event"
		},
		{
			"anonymous": false,
			"inputs": [
				{
					"indexed": true,
					"internalType": "address",
					"name": "userAddress",
					"type": "address"
				},
				{
					"indexed": false,
					"internalType": "string",
					"name": "username",
					"type": "string"
				},
				{
					"indexed": false,
					"internalType": "int256",
					"name": "latitude",
					"type": "int256"
				},
				{
					"indexed": false,
					"internalType": "int256",
					"name": "longitude",
					"type": "int256"
				},
				{
					"indexed": false,
					"internalType": "uint256",
					"name": "energyBalance",
					"type": "uint256"
				}
			],
			"name": "UserRegistered",
			"type": "event"
		},
		{
			"anonymous": false,
			"inputs": [
				{
					"indexed": true,
					"internalType": "address",
					"name": "userAddress",
					"type": "address"
				},
				{
					"indexed": false,
					"internalType": "string",
					"name": "username",
					"type": "string"
				},
				{
					"indexed": false,
					"internalType": "int256",
					"name": "latitude",
					"type": "int256"
				},
				{
					"indexed": false,
					"internalType": "int256",
					"name": "longitude",
					"type": "int256"
				},
				{
					"indexed": false,
					"internalType": "uint256",
					"name": "energyBalance",
					"type": "uint256"
				}
			],
			"name": "UserUpdated",
			"type": "event"
		},
		{
			"inputs": [],
			"name": "admin",
			"outputs": [
				{
					"internalType": "address",
					"name": "",
					"type": "address"
				}
			],
			"stateMutability": "view",
			"type": "function"
		},
		{
			"inputs": [
				{
					"internalType": "address",
					"name": "spender",
					"type": "address"
				},
				{
					"internalType": "uint256",
					"name": "amount",
					"type": "uint256"
				}
			],
			"name": "approveTokens",
			"outputs": [],
			"stateMutability": "nonpayable",
			"type": "function"
		},
		{
			"inputs": [
				{
					"internalType": "address",
					"name": "_userAddress",
					"type": "address"
				}
			],
			"name": "deleteUser",
			"outputs": [],
			"stateMutability": "nonpayable",
			"type": "function"
		},
		{
			"inputs": [],
			"name": "getAllUsersInfo",
			"outputs": [
				{
					"components": [
						{
							"internalType": "address",
							"name": "userAddress",
							"type": "address"
						},
						{
							"internalType": "string",
							"name": "username",
							"type": "string"
						},
						{
							"internalType": "uint256",
							"name": "EGYTokenBalance",
							"type": "uint256"
						},
						{
							"internalType": "int256",
							"name": "latitude",
							"type": "int256"
						},
						{
							"internalType": "int256",
							"name": "longitude",
							"type": "int256"
						},
						{
							"internalType": "uint256",
							"name": "energyBalance",
							"type": "uint256"
						},
						{
							"internalType": "bool",
							"name": "isRegistered",
							"type": "bool"
						}
					],
					"internalType": "struct UserManager.UserInfo[]",
					"name": "",
					"type": "tuple[]"
				}
			],
			"stateMutability": "view",
			"type": "function"
		},
		{
			"inputs": [
				{
					"internalType": "address",
					"name": "user",
					"type": "address"
				}
			],
			"name": "getEnergyBalance",
			"outputs": [
				{
					"internalType": "uint256",
					"name": "",
					"type": "uint256"
				}
			],
			"stateMutability": "view",
			"type": "function"
		},
		{
			"inputs": [
				{
					"internalType": "address",
					"name": "user",
					"type": "address"
				}
			],
			"name": "getTokenBalance",
			"outputs": [
				{
					"internalType": "uint256",
					"name": "",
					"type": "uint256"
				}
			],
			"stateMutability": "view",
			"type": "function"
		},
		{
			"inputs": [
				{
					"internalType": "address",
					"name": "userAddress",
					"type": "address"
				}
			],
			"name": "getTradingInfo",
			"outputs": [
				{
					"components": [
						{
							"internalType": "address",
							"name": "userAddress",
							"type": "address"
						},
						{
							"internalType": "string",
							"name": "tradingStatus",
							"type": "string"
						},
						{
							"internalType": "uint256",
							"name": "buySellAmount",
							"type": "uint256"
						},
						{
							"internalType": "uint256",
							"name": "price",
							"type": "uint256"
						},
						{
							"internalType": "uint256",
							"name": "expiryDate",
							"type": "uint256"
						}
					],
					"internalType": "struct UserManager.TradingInfo",
					"name": "",
					"type": "tuple"
				}
			],
			"stateMutability": "view",
			"type": "function"
		},
		{
			"inputs": [],
			"name": "getUserAddresses",
			"outputs": [
				{
					"internalType": "address[]",
					"name": "",
					"type": "address[]"
				}
			],
			"stateMutability": "view",
			"type": "function"
		},
		{
			"inputs": [
				{
					"internalType": "address",
					"name": "_userAddress",
					"type": "address"
				}
			],
			"name": "getUserInfo",
			"outputs": [
				{
					"components": [
						{
							"internalType": "address",
							"name": "userAddress",
							"type": "address"
						},
						{
							"internalType": "string",
							"name": "username",
							"type": "string"
						},
						{
							"internalType": "uint256",
							"name": "EGYTokenBalance",
							"type": "uint256"
						},
						{
							"internalType": "int256",
							"name": "latitude",
							"type": "int256"
						},
						{
							"internalType": "int256",
							"name": "longitude",
							"type": "int256"
						},
						{
							"internalType": "uint256",
							"name": "energyBalance",
							"type": "uint256"
						},
						{
							"internalType": "bool",
							"name": "isRegistered",
							"type": "bool"
						}
					],
					"internalType": "struct UserManager.UserInfo",
					"name": "userInfo",
					"type": "tuple"
				}
			],
			"stateMutability": "view",
			"type": "function"
		},
		{
			"inputs": [
				{
					"internalType": "address",
					"name": "user",
					"type": "address"
				}
			],
			"name": "getUserInfoAll",
			"outputs": [
				{
					"internalType": "address",
					"name": "userAddress",
					"type": "address"
				},
				{
					"internalType": "string",
					"name": "username",
					"type": "string"
				},
				{
					"internalType": "uint256",
					"name": "EGYTokenBalance",
					"type": "uint256"
				},
				{
					"internalType": "int256",
					"name": "latitude",
					"type": "int256"
				},
				{
					"internalType": "int256",
					"name": "longitude",
					"type": "int256"
				},
				{
					"internalType": "uint256",
					"name": "energyBalance",
					"type": "uint256"
				},
				{
					"internalType": "bool",
					"name": "isRegistered",
					"type": "bool"
				}
			],
			"stateMutability": "view",
			"type": "function"
		},
		{
			"inputs": [
				{
					"internalType": "address",
					"name": "userAddress",
					"type": "address"
				}
			],
			"name": "getUserTokenBalance",
			"outputs": [
				{
					"internalType": "uint256",
					"name": "",
					"type": "uint256"
				}
			],
			"stateMutability": "view",
			"type": "function"
		},
		{
			"inputs": [
				{
					"internalType": "address",
					"name": "userAddress",
					"type": "address"
				}
			],
			"name": "initializeTradingInfo",
			"outputs": [],
			"stateMutability": "nonpayable",
			"type": "function"
		},
		{
			"inputs": [
				{
					"internalType": "address",
					"name": "_userAddress",
					"type": "address"
				}
			],
			"name": "isUserRegistered",
			"outputs": [
				{
					"internalType": "bool",
					"name": "",
					"type": "bool"
				}
			],
			"stateMutability": "view",
			"type": "function"
		},
		{
			"inputs": [
				{
					"internalType": "string",
					"name": "_username",
					"type": "string"
				},
				{
					"internalType": "int256",
					"name": "_latitude",
					"type": "int256"
				},
				{
					"internalType": "int256",
					"name": "_longitude",
					"type": "int256"
				},
				{
					"internalType": "uint256",
					"name": "_energyBalance",
					"type": "uint256"
				}
			],
			"name": "registerUser",
			"outputs": [],
			"stateMutability": "nonpayable",
			"type": "function"
		},
		{
			"inputs": [
				{
					"internalType": "address",
					"name": "userAddress",
					"type": "address"
				}
			],
			"name": "resetTradingInfo",
			"outputs": [],
			"stateMutability": "nonpayable",
			"type": "function"
		},
		{
			"inputs": [],
			"name": "token",
			"outputs": [
				{
					"internalType": "contract MyERC20",
					"name": "",
					"type": "address"
				}
			],
			"stateMutability": "view",
			"type": "function"
		},
		{
			"inputs": [
				{
					"internalType": "address",
					"name": "",
					"type": "address"
				}
			],
			"name": "tradingInfos",
			"outputs": [
				{
					"internalType": "address",
					"name": "userAddress",
					"type": "address"
				},
				{
					"internalType": "string",
					"name": "tradingStatus",
					"type": "string"
				},
				{
					"internalType": "uint256",
					"name": "buySellAmount",
					"type": "uint256"
				},
				{
					"internalType": "uint256",
					"name": "price",
					"type": "uint256"
				},
				{
					"internalType": "uint256",
					"name": "expiryDate",
					"type": "uint256"
				}
			],
			"stateMutability": "view",
			"type": "function"
		},
		{
			"inputs": [
				{
					"internalType": "address",
					"name": "from",
					"type": "address"
				},
				{
					"internalType": "address",
					"name": "to",
					"type": "address"
				},
				{
					"internalType": "uint256",
					"name": "amount",
					"type": "uint256"
				}
			],
			"name": "transferTokens",
			"outputs": [],
			"stateMutability": "nonpayable",
			"type": "function"
		},
		{
			"inputs": [
				{
					"internalType": "address",
					"name": "user",
					"type": "address"
				},
				{
					"internalType": "uint256",
					"name": "amount",
					"type": "uint256"
				},
				{
					"internalType": "bool",
					"name": "increase",
					"type": "bool"
				}
			],
			"name": "updateEnergyBalance",
			"outputs": [],
			"stateMutability": "nonpayable",
			"type": "function"
		},
		{
			"inputs": [
				{
					"internalType": "address",
					"name": "_userAddress",
					"type": "address"
				},
				{
					"internalType": "uint256",
					"name": "_newEnergyBalance",
					"type": "uint256"
				}
			],
			"name": "updateEnergyBalance",
			"outputs": [],
			"stateMutability": "nonpayable",
			"type": "function"
		},
		{
			"inputs": [
				{
					"internalType": "address",
					"name": "user",
					"type": "address"
				},
				{
					"internalType": "uint256",
					"name": "amount",
					"type": "uint256"
				},
				{
					"internalType": "bool",
					"name": "increase",
					"type": "bool"
				}
			],
			"name": "updateTokenBalance",
			"outputs": [],
			"stateMutability": "nonpayable",
			"type": "function"
		},
		{
			"inputs": [
				{
					"internalType": "string",
					"name": "_tradingStatus",
					"type": "string"
				},
				{
					"internalType": "uint256",
					"name": "_expiryDate",
					"type": "uint256"
				},
				{
					"internalType": "uint256",
					"name": "_buySellAmount",
					"type": "uint256"
				},
				{
					"internalType": "uint256",
					"name": "_price",
					"type": "uint256"
				}
			],
			"name": "updateTradingUserInfo",
			"outputs": [],
			"stateMutability": "nonpayable",
			"type": "function"
		},
		{
			"inputs": [
				{
					"internalType": "string",
					"name": "_username",
					"type": "string"
				},
				{
					"internalType": "int256",
					"name": "_latitude",
					"type": "int256"
				},
				{
					"internalType": "int256",
					"name": "_longitude",
					"type": "int256"
				},
				{
					"internalType": "uint256",
					"name": "_energyBalance",
					"type": "uint256"
				}
			],
			"name": "updateUser",
			"outputs": [],
			"stateMutability": "nonpayable",
			"type": "function"
		},
		{
			"inputs": [
				{
					"internalType": "address",
					"name": "",
					"type": "address"
				}
			],
			"name": "users",
			"outputs": [
				{
					"internalType": "address",
					"name": "userAddress",
					"type": "address"
				},
				{
					"internalType": "string",
					"name": "username",
					"type": "string"
				},
				{
					"internalType": "uint256",
					"name": "EGYTokenBalance",
					"type": "uint256"
				},
				{
					"internalType": "int256",
					"name": "latitude",
					"type": "int256"
				},
				{
					"internalType": "int256",
					"name": "longitude",
					"type": "int256"
				},
				{
					"internalType": "uint256",
					"name": "energyBalance",
					"type": "uint256"
				},
				{
					"internalType": "bool",
					"name": "isRegistered",
					"type": "bool"
				}
			],
			"stateMutability": "view",
			"type": "function"
		}
	]
}