{
  "contractName": "RegistrationContract",
  "abi": [
    {
      "inputs": [
        {
          "internalType": "address",
          "name": "",
          "type": "address"
        }
      ],
      "name": "users",
      "outputs": [
        {
          "internalType": "string",
          "name": "userID",
          "type": "string"
        },
        {
          "internalType": "string",
          "name": "username",
          "type": "string"
        },
        {
          "internalType": "string",
          "name": "location",
          "type": "string"
        },
        {
          "internalType": "uint256",
          "name": "balanceEnergy",
          "type": "uint256"
        },
        {
          "internalType": "uint256",
          "name": "balanceCoins",
          "type": "uint256"
        },
        {
          "internalType": "string",
          "name": "role",
          "type": "string"
        },
        {
          "internalType": "string",
          "name": "tokenID",
          "type": "string"
        }
      ],
      "stateMutability": "view",
      "type": "function"
    },
    {
      "inputs": [
        {
          "internalType": "string",
          "name": "_userID",
          "type": "string"
        },
        {
          "internalType": "string",
          "name": "_username",
          "type": "string"
        },
        {
          "internalType": "string",
          "name": "_location",
          "type": "string"
        },
        {
          "internalType": "uint256",
          "name": "_balanceEnergy",
          "type": "uint256"
        },
        {
          "internalType": "uint256",
          "name": "_balanceCoins",
          "type": "uint256"
        },
        {
          "internalType": "string",
          "name": "_role",
          "type": "string"
        },
        {
          "internalType": "string",
          "name": "_tokenID",
          "type": "string"
        }
      ],
      "name": "registerUser",
      "outputs": [],
      "stateMutability": "nonpayable",
      "type": "function"
    },
    {
      "inputs": [
        {
          "internalType": "address",
          "name": "_userAddress",
          "type": "address"
        }
      ],
      "name": "getUser",
      "outputs": [
        {
          "components": [
            {
              "internalType": "string",
              "name": "userID",
              "type": "string"
            },
            {
              "internalType": "string",
              "name": "username",
              "type": "string"
            },
            {
              "internalType": "string",
              "name": "location",
              "type": "string"
            },
            {
              "internalType": "uint256",
              "name": "balanceEnergy",
              "type": "uint256"
            },
            {
              "internalType": "uint256",
              "name": "balanceCoins",
              "type": "uint256"
            },
            {
              "internalType": "string",
              "name": "role",
              "type": "string"
            },
            {
              "internalType": "string",
              "name": "tokenID",
              "type": "string"
            }
          ],
          "internalType": "struct RegistrationContract.User",
          "name": "",
          "type": "tuple"
        }
      ],
      "stateMutability": "view",
      "type": "function"
    }
  ],
  "bytecode": "0x608060405234801561000f575f80fd5b506112508061001d5f395ff3fe608060405234801561000f575f80fd5b506004361061003f575f3560e01c806303bf1bcc146100435780636f77926b1461005f578063a87430ba1461008f575b5f80fd5b61005d60048036038101906100589190610a44565b6100c5565b005b61007960048036038101906100749190610bc7565b610275565b6040516100869190610d30565b60405180910390f35b6100a960048036038101906100a49190610bc7565b6105ae565b6040516100bc9796959493929190610da7565b60405180910390f35b7fc5d2460186f7233c927e7db2dcc703c0e500b653ca82273b7bfad8045d85a4705f803373ffffffffffffffffffffffffffffffffffffffff1673ffffffffffffffffffffffffffffffffffffffff1681526020019081526020015f206001016040516101329190610f30565b60405180910390201461017a576040517f08c379a000000000000000000000000000000000000000000000000000000000815260040161017190610f90565b60405180910390fd5b6040518060e00160405280888152602001878152602001868152602001858152602001848152602001838152602001828152505f803373ffffffffffffffffffffffffffffffffffffffff1673ffffffffffffffffffffffffffffffffffffffff1681526020019081526020015f205f820151815f0190816101fc919061114b565b506020820151816001019081610212919061114b565b506040820151816002019081610228919061114b565b50606082015181600301556080820151816004015560a0820151816005019081610252919061114b565b5060c0820151816006019081610268919061114b565b5090505050505050505050565b61027d610889565b5f808373ffffffffffffffffffffffffffffffffffffffff1673ffffffffffffffffffffffffffffffffffffffff1681526020019081526020015f206040518060e00160405290815f820180546102d390610e64565b80601f01602080910402602001604051908101604052809291908181526020018280546102ff90610e64565b801561034a5780601f106103215761010080835404028352916020019161034a565b820191905f5260205f20905b81548152906001019060200180831161032d57829003601f168201915b5050505050815260200160018201805461036390610e64565b80601f016020809104026020016040519081016040528092919081815260200182805461038f90610e64565b80156103da5780601f106103b1576101008083540402835291602001916103da565b820191905f5260205f20905b8154815290600101906020018083116103bd57829003601f168201915b505050505081526020016002820180546103f390610e64565b80601f016020809104026020016040519081016040528092919081815260200182805461041f90610e64565b801561046a5780601f106104415761010080835404028352916020019161046a565b820191905f5260205f20905b81548152906001019060200180831161044d57829003601f168201915b50505050508152602001600382015481526020016004820154815260200160058201805461049790610e64565b80601f01602080910402602001604051908101604052809291908181526020018280546104c390610e64565b801561050e5780601f106104e55761010080835404028352916020019161050e565b820191905f5260205f20905b8154815290600101906020018083116104f157829003601f168201915b5050505050815260200160068201805461052790610e64565b80601f016020809104026020016040519081016040528092919081815260200182805461055390610e64565b801561059e5780601f106105755761010080835404028352916020019161059e565b820191905f5260205f20905b81548152906001019060200180831161058157829003601f168201915b5050505050815250509050919050565b5f602052805f5260405f205f91509050805f0180546105cc90610e64565b80601f01602080910402602001604051908101604052809291908181526020018280546105f890610e64565b80156106435780601f1061061a57610100808354040283529160200191610643565b820191905f5260205f20905b81548152906001019060200180831161062657829003601f168201915b50505050509080600101805461065890610e64565b80601f016020809104026020016040519081016040528092919081815260200182805461068490610e64565b80156106cf5780601f106106a6576101008083540402835291602001916106cf565b820191905f5260205f20905b8154815290600101906020018083116106b257829003601f168201915b5050505050908060020180546106e490610e64565b80601f016020809104026020016040519081016040528092919081815260200182805461071090610e64565b801561075b5780601f106107325761010080835404028352916020019161075b565b820191905f5260205f20905b81548152906001019060200180831161073e57829003601f168201915b50505050509080600301549080600401549080600501805461077c90610e64565b80601f01602080910402602001604051908101604052809291908181526020018280546107a890610e64565b80156107f35780601f106107ca576101008083540402835291602001916107f3565b820191905f5260205f20905b8154815290600101906020018083116107d657829003601f168201915b50505050509080600601805461080890610e64565b80601f016020809104026020016040519081016040528092919081815260200182805461083490610e64565b801561087f5780601f106108565761010080835404028352916020019161087f565b820191905f5260205f20905b81548152906001019060200180831161086257829003601f168201915b5050505050905087565b6040518060e001604052806060815260200160608152602001606081526020015f81526020015f815260200160608152602001606081525090565b5f604051905090565b5f80fd5b5f80fd5b5f80fd5b5f80fd5b5f601f19601f8301169050919050565b7f4e487b71000000000000000000000000000000000000000000000000000000005f52604160045260245ffd5b610923826108dd565b810181811067ffffffffffffffff82111715610942576109416108ed565b5b80604052505050565b5f6109546108c4565b9050610960828261091a565b919050565b5f67ffffffffffffffff82111561097f5761097e6108ed565b5b610988826108dd565b9050602081019050919050565b828183375f83830152505050565b5f6109b56109b084610965565b61094b565b9050828152602081018484840111156109d1576109d06108d9565b5b6109dc848285610995565b509392505050565b5f82601f8301126109f8576109f76108d5565b5b8135610a088482602086016109a3565b91505092915050565b5f819050919050565b610a2381610a11565b8114610a2d575f80fd5b50565b5f81359050610a3e81610a1a565b92915050565b5f805f805f805f60e0888a031215610a5f57610a5e6108cd565b5b5f88013567ffffffffffffffff811115610a7c57610a7b6108d1565b5b610a888a828b016109e4565b975050602088013567ffffffffffffffff811115610aa957610aa86108d1565b5b610ab58a828b016109e4565b965050604088013567ffffffffffffffff811115610ad657610ad56108d1565b5b610ae28a828b016109e4565b9550506060610af38a828b01610a30565b9450506080610b048a828b01610a30565b93505060a088013567ffffffffffffffff811115610b2557610b246108d1565b5b610b318a828b016109e4565b92505060c088013567ffffffffffffffff811115610b5257610b516108d1565b5b610b5e8a828b016109e4565b91505092959891949750929550565b5f73ffffffffffffffffffffffffffffffffffffffff82169050919050565b5f610b9682610b6d565b9050919050565b610ba681610b8c565b8114610bb0575f80fd5b50565b5f81359050610bc181610b9d565b92915050565b5f60208284031215610bdc57610bdb6108cd565b5b5f610be984828501610bb3565b91505092915050565b5f81519050919050565b5f82825260208201905092915050565b5f5b83811015610c29578082015181840152602081019050610c0e565b5f8484015250505050565b5f610c3e82610bf2565b610c488185610bfc565b9350610c58818560208601610c0c565b610c61816108dd565b840191505092915050565b610c7581610a11565b82525050565b5f60e083015f8301518482035f860152610c958282610c34565b91505060208301518482036020860152610caf8282610c34565b91505060408301518482036040860152610cc98282610c34565b9150506060830151610cde6060860182610c6c565b506080830151610cf16080860182610c6c565b5060a083015184820360a0860152610d098282610c34565b91505060c083015184820360c0860152610d238282610c34565b9150508091505092915050565b5f6020820190508181035f830152610d488184610c7b565b905092915050565b5f82825260208201905092915050565b5f610d6a82610bf2565b610d748185610d50565b9350610d84818560208601610c0c565b610d8d816108dd565b840191505092915050565b610da181610a11565b82525050565b5f60e0820190508181035f830152610dbf818a610d60565b90508181036020830152610dd38189610d60565b90508181036040830152610de78188610d60565b9050610df66060830187610d98565b610e036080830186610d98565b81810360a0830152610e158185610d60565b905081810360c0830152610e298184610d60565b905098975050505050505050565b7f4e487b71000000000000000000000000000000000000000000000000000000005f52602260045260245ffd5b5f6002820490506001821680610e7b57607f821691505b602082108103610e8e57610e8d610e37565b5b50919050565b5f81905092915050565b5f819050815f5260205f209050919050565b5f8154610ebc81610e64565b610ec68186610e94565b9450600182165f8114610ee05760018114610ef557610f27565b60ff1983168652811515820286019350610f27565b610efe85610e9e565b5f5b83811015610f1f57815481890152600182019150602081019050610f00565b838801955050505b50505092915050565b5f610f3b8284610eb0565b915081905092915050565b7f5573657220616c726561647920726567697374657265640000000000000000005f82015250565b5f610f7a601783610d50565b9150610f8582610f46565b602082019050919050565b5f6020820190508181035f830152610fa781610f6e565b9050919050565b5f819050815f5260205f209050919050565b5f6020601f8301049050919050565b5f82821b905092915050565b5f6008830261100a7fffffffffffffffffffffffffffffffffffffffffffffffffffffffffffffffff82610fcf565b6110148683610fcf565b95508019841693508086168417925050509392505050565b5f819050919050565b5f61104f61104a61104584610a11565b61102c565b610a11565b9050919050565b5f819050919050565b61106883611035565b61107c61107482611056565b848454610fdb565b825550505050565b5f90565b611090611084565b61109b81848461105f565b505050565b5b818110156110be576110b35f82611088565b6001810190506110a1565b5050565b601f821115611103576110d481610fae565b6110dd84610fc0565b810160208510156110ec578190505b6111006110f885610fc0565b8301826110a0565b50505b505050565b5f82821c905092915050565b5f6111235f1984600802611108565b1980831691505092915050565b5f61113b8383611114565b9150826002028217905092915050565b61115482610bf2565b67ffffffffffffffff81111561116d5761116c6108ed565b5b6111778254610e64565b6111828282856110c2565b5f60209050601f8311600181146111b3575f84156111a1578287015190505b6111ab8582611130565b865550611212565b601f1984166111c186610fae565b5f5b828110156111e8578489015182556001820191506020850194506020810190506111c3565b868310156112055784890151611201601f891682611114565b8355505b6001600288020188555050505b50505050505056fea26469706673582212206eb2596be1d9172446f16f48ea1d8517f0fce8ed39a6828360804f4c46d0303c64736f6c63430008150033",
  "immutableReferences": {},
  "source": "// SPDX-License-Identifier: MIT \npragma solidity ^0.8.16;\n\ncontract RegistrationContract {\n    // Define a struct to store user information\n    struct User {\n        string userID;\n        string username;\n        string location;\n        uint256 balanceEnergy; // DECIMAL is not supported in Solidity, use uint256 and handle decimals in the client\n        uint256 balanceCoins;  // DECIMAL is not supported in Solidity, use uint256 and handle decimals in the client\n        string role;\n        string tokenID;        // Assuming TokenID is a unique identifier for a token, represented as a string\n    }\n\n    // Mapping to store registered users\n    mapping(address => User) public users;\n\n    // Function to register a user\n    function registerUser(\n        string memory _userID, \n        string memory _username, \n        string memory _location, \n        uint256 _balanceEnergy, \n        uint256 _balanceCoins, \n        string memory _role, \n        string memory _tokenID\n    ) public {\n        // Check if user is already registered\n        require(keccak256(bytes(users[msg.sender].username)) == keccak256(\"\"), \"User already registered\");\n\n        // Register user information\n        users[msg.sender] = User({\n            userID: _userID,\n            username: _username,\n            location: _location,\n            balanceEnergy: _balanceEnergy,\n            balanceCoins: _balanceCoins,\n            role: _role,\n            tokenID: _tokenID\n        });\n\n        // Optionally: Implement payment logic here (e.g., require specific token amount)\n    }\n\n    // Function to get user data - useful for verifying user registration outside the blockchain\n    function getUser(address _userAddress) public view returns (User memory) {\n        return users[_userAddress];\n    }\n}\n",
  "sourcePath": "C:\\Users\\HES\\Desktop\\smartContracts\\contracts\\RegisterationContract.sol",
  "compiler": {
    "name": "solc",
    "version": "0.8.21+commit.d9974bed.Emscripten.clang"
  },
  "schemaVersion": "3.4.16",
  "updatedAt": "2024-02-14T15:44:54.840Z",
  "devdoc": {
    "kind": "dev",
    "methods": {},
    "version": 1
  },
  "userdoc": {
    "kind": "user",
    "methods": {},
    "version": 1
  }
}